{
	"contracts/Ebay.sol": {
		"Ebay": {
			"abi": [
				{
					"inputs": [
						{
							"internalType": "uint256",
							"name": "",
							"type": "uint256"
						}
					],
					"name": "auctions",
					"outputs": [
						{
							"internalType": "uint256",
							"name": "id",
							"type": "uint256"
						},
						{
							"internalType": "address",
							"name": "seller",
							"type": "address"
						},
						{
							"internalType": "string",
							"name": "name",
							"type": "string"
						},
						{
							"internalType": "string",
							"name": "description",
							"type": "string"
						},
						{
							"internalType": "uint256",
							"name": "minimumOfferPrice",
							"type": "uint256"
						},
						{
							"internalType": "uint256",
							"name": "auctionEnd",
							"type": "uint256"
						},
						{
							"internalType": "uint256",
							"name": "bestOfferId",
							"type": "uint256"
						}
					],
					"stateMutability": "view",
					"type": "function"
				},
				{
					"inputs": [
						{
							"internalType": "uint256",
							"name": "_auctionId",
							"type": "uint256"
						}
					],
					"name": "cancelAuction",
					"outputs": [],
					"stateMutability": "nonpayable",
					"type": "function"
				},
				{
					"inputs": [
						{
							"internalType": "string",
							"name": "_name",
							"type": "string"
						},
						{
							"internalType": "string",
							"name": "_description",
							"type": "string"
						},
						{
							"internalType": "uint256",
							"name": "_minimumOfferPrice",
							"type": "uint256"
						},
						{
							"internalType": "uint256",
							"name": "_duration",
							"type": "uint256"
						}
					],
					"name": "createAuction",
					"outputs": [],
					"stateMutability": "nonpayable",
					"type": "function"
				},
				{
					"inputs": [
						{
							"internalType": "uint256",
							"name": "_auctionId",
							"type": "uint256"
						}
					],
					"name": "createOffer",
					"outputs": [],
					"stateMutability": "payable",
					"type": "function"
				},
				{
					"inputs": [
						{
							"internalType": "uint256",
							"name": "_auctionId",
							"type": "uint256"
						}
					],
					"name": "getAuctionOffers",
					"outputs": [
						{
							"components": [
								{
									"internalType": "uint256",
									"name": "id",
									"type": "uint256"
								},
								{
									"internalType": "uint256",
									"name": "auctionId",
									"type": "uint256"
								},
								{
									"internalType": "address",
									"name": "buyer",
									"type": "address"
								},
								{
									"internalType": "uint256",
									"name": "offerPrice",
									"type": "uint256"
								}
							],
							"internalType": "struct Ebay.Offer[]",
							"name": "",
							"type": "tuple[]"
						}
					],
					"stateMutability": "view",
					"type": "function"
				},
				{
					"inputs": [],
					"name": "getAuctions",
					"outputs": [
						{
							"components": [
								{
									"internalType": "uint256",
									"name": "id",
									"type": "uint256"
								},
								{
									"internalType": "address",
									"name": "seller",
									"type": "address"
								},
								{
									"internalType": "string",
									"name": "name",
									"type": "string"
								},
								{
									"internalType": "string",
									"name": "description",
									"type": "string"
								},
								{
									"internalType": "uint256",
									"name": "minimumOfferPrice",
									"type": "uint256"
								},
								{
									"internalType": "uint256",
									"name": "auctionEnd",
									"type": "uint256"
								},
								{
									"internalType": "uint256",
									"name": "bestOfferId",
									"type": "uint256"
								},
								{
									"internalType": "uint256[]",
									"name": "offerIds",
									"type": "uint256[]"
								}
							],
							"internalType": "struct Ebay.Auction[]",
							"name": "",
							"type": "tuple[]"
						}
					],
					"stateMutability": "view",
					"type": "function"
				},
				{
					"inputs": [
						{
							"internalType": "address",
							"name": "_user",
							"type": "address"
						}
					],
					"name": "getUserAuctions",
					"outputs": [
						{
							"components": [
								{
									"internalType": "uint256",
									"name": "id",
									"type": "uint256"
								},
								{
									"internalType": "address",
									"name": "seller",
									"type": "address"
								},
								{
									"internalType": "string",
									"name": "name",
									"type": "string"
								},
								{
									"internalType": "string",
									"name": "description",
									"type": "string"
								},
								{
									"internalType": "uint256",
									"name": "minimumOfferPrice",
									"type": "uint256"
								},
								{
									"internalType": "uint256",
									"name": "auctionEnd",
									"type": "uint256"
								},
								{
									"internalType": "uint256",
									"name": "bestOfferId",
									"type": "uint256"
								},
								{
									"internalType": "uint256[]",
									"name": "offerIds",
									"type": "uint256[]"
								}
							],
							"internalType": "struct Ebay.Auction[]",
							"name": "",
							"type": "tuple[]"
						}
					],
					"stateMutability": "view",
					"type": "function"
				},
				{
					"inputs": [
						{
							"internalType": "address",
							"name": "_user",
							"type": "address"
						}
					],
					"name": "getUserOffers",
					"outputs": [
						{
							"components": [
								{
									"internalType": "uint256",
									"name": "id",
									"type": "uint256"
								},
								{
									"internalType": "uint256",
									"name": "auctionId",
									"type": "uint256"
								},
								{
									"internalType": "address",
									"name": "buyer",
									"type": "address"
								},
								{
									"internalType": "uint256",
									"name": "offerPrice",
									"type": "uint256"
								}
							],
							"internalType": "struct Ebay.Offer[]",
							"name": "",
							"type": "tuple[]"
						}
					],
					"stateMutability": "view",
					"type": "function"
				},
				{
					"inputs": [
						{
							"internalType": "uint256",
							"name": "",
							"type": "uint256"
						}
					],
					"name": "offers",
					"outputs": [
						{
							"internalType": "uint256",
							"name": "id",
							"type": "uint256"
						},
						{
							"internalType": "uint256",
							"name": "auctionId",
							"type": "uint256"
						},
						{
							"internalType": "address",
							"name": "buyer",
							"type": "address"
						},
						{
							"internalType": "uint256",
							"name": "offerPrice",
							"type": "uint256"
						}
					],
					"stateMutability": "view",
					"type": "function"
				},
				{
					"inputs": [
						{
							"internalType": "uint256",
							"name": "_auctionId",
							"type": "uint256"
						}
					],
					"name": "trade",
					"outputs": [],
					"stateMutability": "nonpayable",
					"type": "function"
				}
			],
			"devdoc": {
				"kind": "dev",
				"methods": {
					"cancelAuction(uint256)": {
						"params": {
							"_auctionId": "- id of the auction"
						}
					},
					"createAuction(string,string,uint256,uint256)": {
						"params": {
							"_description": "— auction description.",
							"_duration": "— the duration, in seconds, for which the auction will accept offers.",
							"_minimumOfferPrice": "— the minimum offer price this auction will accept.",
							"_name": "— name of the auction."
						}
					},
					"createOffer(uint256)": {
						"params": {
							"_auctionId": "- id of the auction"
						}
					},
					"getAuctionOffers(uint256)": {
						"params": {
							"_auctionId": "- Auction Id"
						}
					},
					"getUserAuctions(address)": {
						"params": {
							"_user": "- Seller address"
						}
					},
					"getUserOffers(address)": {
						"params": {
							"_user": "- Buyer address"
						}
					},
					"trade(uint256)": {
						"params": {
							"_auctionId": "- id of the auction."
						}
					}
				},
				"title": "Ebay",
				"version": 1
			},
			"evm": {
				"assembly": "    /* \"contracts/Ebay.sol\":132:9061  contract Ebay {... */\n  mstore(0x40, 0x80)\n    /* \"contracts/Ebay.sol\":830:831  1 */\n  0x01\n    /* \"contracts/Ebay.sol\":801:831  uint private nextAuctionId = 1 */\n  dup1\n  sstore\n    /* \"contracts/Ebay.sol\":1123:1124  1 */\n  0x01\n    /* \"contracts/Ebay.sol\":1096:1124  uint private nextOfferId = 1 */\n  0x03\n  sstore\n    /* \"contracts/Ebay.sol\":132:9061  contract Ebay {... */\n  callvalue\n  dup1\n  iszero\n  tag_1\n  jumpi\n  0x00\n  dup1\n  revert\ntag_1:\n  pop\n  dataSize(sub_0)\n  dup1\n  dataOffset(sub_0)\n  0x00\n  codecopy\n  0x00\n  return\nstop\n\nsub_0: assembly {\n        /* \"contracts/Ebay.sol\":132:9061  contract Ebay {... */\n      mstore(0x40, 0x80)\n      jumpi(tag_1, lt(calldatasize, 0x04))\n      shr(0xe0, calldataload(0x00))\n      dup1\n      0xa269993d\n      gt\n      tag_12\n      jumpi\n      dup1\n      0xa269993d\n      eq\n      tag_7\n      jumpi\n      dup1\n      0xc43ede15\n      eq\n      tag_8\n      jumpi\n      dup1\n      0xd7c06919\n      eq\n      tag_9\n      jumpi\n      dup1\n      0xdf1dd826\n      eq\n      tag_10\n      jumpi\n      dup1\n      0xff3ad0b4\n      eq\n      tag_11\n      jumpi\n      jump(tag_1)\n    tag_12:\n      dup1\n      0x571a26a0\n      eq\n      tag_2\n      jumpi\n      dup1\n      0x61e2db55\n      eq\n      tag_3\n      jumpi\n      dup1\n      0x661d2c2c\n      eq\n      tag_4\n      jumpi\n      dup1\n      0x8a72ea6a\n      eq\n      tag_5\n      jumpi\n      dup1\n      0x96b5a755\n      eq\n      tag_6\n      jumpi\n    tag_1:\n      0x00\n      dup1\n      revert\n        /* \"contracts/Ebay.sol\":715:755  mapping(uint => Auction) public auctions */\n    tag_2:\n      callvalue\n      dup1\n      iszero\n      tag_13\n      jumpi\n      0x00\n      dup1\n      revert\n    tag_13:\n      pop\n      tag_14\n      0x04\n      dup1\n      calldatasize\n      sub\n      dup2\n      add\n      swap1\n      tag_15\n      swap2\n      swap1\n      tag_16\n      jump\t// in\n    tag_15:\n      tag_17\n      jump\t// in\n    tag_14:\n      mload(0x40)\n      tag_18\n      swap8\n      swap7\n      swap6\n      swap5\n      swap4\n      swap3\n      swap2\n      swap1\n      tag_19\n      jump\t// in\n    tag_18:\n      mload(0x40)\n      dup1\n      swap2\n      sub\n      swap1\n      return\n        /* \"contracts/Ebay.sol\":2019:3094  function createAuction(... */\n    tag_3:\n      callvalue\n      dup1\n      iszero\n      tag_20\n      jumpi\n      0x00\n      dup1\n      revert\n    tag_20:\n      pop\n      tag_21\n      0x04\n      dup1\n      calldatasize\n      sub\n      dup2\n      add\n      swap1\n      tag_22\n      swap2\n      swap1\n      tag_23\n      jump\t// in\n    tag_22:\n      tag_24\n      jump\t// in\n    tag_21:\n      stop\n        /* \"contracts/Ebay.sol\":8001:8414  function getUserOffers(address _user)... */\n    tag_4:\n      callvalue\n      dup1\n      iszero\n      tag_25\n      jumpi\n      0x00\n      dup1\n      revert\n    tag_25:\n      pop\n      tag_26\n      0x04\n      dup1\n      calldatasize\n      sub\n      dup2\n      add\n      swap1\n      tag_27\n      swap2\n      swap1\n      tag_28\n      jump\t// in\n    tag_27:\n      tag_29\n      jump\t// in\n    tag_26:\n      mload(0x40)\n      tag_30\n      swap2\n      swap1\n      tag_31\n      jump\t// in\n    tag_30:\n      mload(0x40)\n      dup1\n      swap2\n      sub\n      swap1\n      return\n        /* \"contracts/Ebay.sol\":1016:1052  mapping(uint => Offer) public offers */\n    tag_5:\n      callvalue\n      dup1\n      iszero\n      tag_32\n      jumpi\n      0x00\n      dup1\n      revert\n    tag_32:\n      pop\n      tag_33\n      0x04\n      dup1\n      calldatasize\n      sub\n      dup2\n      add\n      swap1\n      tag_34\n      swap2\n      swap1\n      tag_16\n      jump\t// in\n    tag_34:\n      tag_35\n      jump\t// in\n    tag_33:\n      mload(0x40)\n      tag_36\n      swap5\n      swap4\n      swap3\n      swap2\n      swap1\n      tag_37\n      jump\t// in\n    tag_36:\n      mload(0x40)\n      dup1\n      swap2\n      sub\n      swap1\n      return\n        /* \"contracts/Ebay.sol\":3187:4453  function cancelAuction(uint _auctionId) external auctionExists(_auctionId) {... */\n    tag_6:\n      callvalue\n      dup1\n      iszero\n      tag_38\n      jumpi\n      0x00\n      dup1\n      revert\n    tag_38:\n      pop\n      tag_39\n      0x04\n      dup1\n      calldatasize\n      sub\n      dup2\n      add\n      swap1\n      tag_40\n      swap2\n      swap1\n      tag_16\n      jump\t// in\n    tag_40:\n      tag_41\n      jump\t// in\n    tag_39:\n      stop\n        /* \"contracts/Ebay.sol\":4557:5949  function createOffer(uint _auctionId)... */\n    tag_7:\n      tag_42\n      0x04\n      dup1\n      calldatasize\n      sub\n      dup2\n      add\n      swap1\n      tag_43\n      swap2\n      swap1\n      tag_16\n      jump\t// in\n    tag_43:\n      tag_44\n      jump\t// in\n    tag_42:\n      stop\n        /* \"contracts/Ebay.sol\":8507:9059  function getAuctionOffers(uint _auctionId)... */\n    tag_8:\n      callvalue\n      dup1\n      iszero\n      tag_45\n      jumpi\n      0x00\n      dup1\n      revert\n    tag_45:\n      pop\n      tag_46\n      0x04\n      dup1\n      calldatasize\n      sub\n      dup2\n      add\n      swap1\n      tag_47\n      swap2\n      swap1\n      tag_16\n      jump\t// in\n    tag_47:\n      tag_48\n      jump\t// in\n    tag_46:\n      mload(0x40)\n      tag_49\n      swap2\n      swap1\n      tag_31\n      jump\t// in\n    tag_49:\n      mload(0x40)\n      dup1\n      swap2\n      sub\n      swap1\n      return\n        /* \"contracts/Ebay.sol\":7104:7377  function getAuctions() external view returns (Auction[] memory) {... */\n    tag_9:\n      callvalue\n      dup1\n      iszero\n      tag_50\n      jumpi\n      0x00\n      dup1\n      revert\n    tag_50:\n      pop\n      tag_51\n      tag_52\n      jump\t// in\n    tag_51:\n      mload(0x40)\n      tag_53\n      swap2\n      swap1\n      tag_54\n      jump\t// in\n    tag_53:\n      mload(0x40)\n      dup1\n      swap2\n      sub\n      swap1\n      return\n        /* \"contracts/Ebay.sol\":6046:7003  function trade(uint _auctionId) external auctionExists(_auctionId) {... */\n    tag_10:\n      callvalue\n      dup1\n      iszero\n      tag_55\n      jumpi\n      0x00\n      dup1\n      revert\n    tag_55:\n      pop\n      tag_56\n      0x04\n      dup1\n      calldatasize\n      sub\n      dup2\n      add\n      swap1\n      tag_57\n      swap2\n      swap1\n      tag_16\n      jump\t// in\n    tag_57:\n      tag_58\n      jump\t// in\n    tag_56:\n      stop\n        /* \"contracts/Ebay.sol\":7469:7912  function getUserAuctions(address _user)... */\n    tag_11:\n      callvalue\n      dup1\n      iszero\n      tag_59\n      jumpi\n      0x00\n      dup1\n      revert\n    tag_59:\n      pop\n      tag_60\n      0x04\n      dup1\n      calldatasize\n      sub\n      dup2\n      add\n      swap1\n      tag_61\n      swap2\n      swap1\n      tag_28\n      jump\t// in\n    tag_61:\n      tag_62\n      jump\t// in\n    tag_60:\n      mload(0x40)\n      tag_63\n      swap2\n      swap1\n      tag_54\n      jump\t// in\n    tag_63:\n      mload(0x40)\n      dup1\n      swap2\n      sub\n      swap1\n      return\n        /* \"contracts/Ebay.sol\":715:755  mapping(uint => Auction) public auctions */\n    tag_17:\n      mstore(0x20, 0x00)\n      dup1\n      0x00\n      mstore\n      keccak256(0x00, 0x40)\n      0x00\n      swap2\n      pop\n      swap1\n      pop\n      dup1\n      0x00\n      add\n      sload\n      swap1\n      dup1\n      0x01\n      add\n      0x00\n      swap1\n      sload\n      swap1\n      0x0100\n      exp\n      swap1\n      div\n      0xffffffffffffffffffffffffffffffffffffffff\n      and\n      swap1\n      dup1\n      0x02\n      add\n      dup1\n      sload\n      tag_64\n      swap1\n      tag_65\n      jump\t// in\n    tag_64:\n      dup1\n      0x1f\n      add\n      0x20\n      dup1\n      swap2\n      div\n      mul\n      0x20\n      add\n      mload(0x40)\n      swap1\n      dup2\n      add\n      0x40\n      mstore\n      dup1\n      swap3\n      swap2\n      swap1\n      dup2\n      dup2\n      mstore\n      0x20\n      add\n      dup3\n      dup1\n      sload\n      tag_66\n      swap1\n      tag_65\n      jump\t// in\n    tag_66:\n      dup1\n      iszero\n      tag_67\n      jumpi\n      dup1\n      0x1f\n      lt\n      tag_68\n      jumpi\n      0x0100\n      dup1\n      dup4\n      sload\n      div\n      mul\n      dup4\n      mstore\n      swap2\n      0x20\n      add\n      swap2\n      jump(tag_67)\n    tag_68:\n      dup3\n      add\n      swap2\n      swap1\n      0x00\n      mstore\n      keccak256(0x00, 0x20)\n      swap1\n    tag_69:\n      dup2\n      sload\n      dup2\n      mstore\n      swap1\n      0x01\n      add\n      swap1\n      0x20\n      add\n      dup1\n      dup4\n      gt\n      tag_69\n      jumpi\n      dup3\n      swap1\n      sub\n      0x1f\n      and\n      dup3\n      add\n      swap2\n    tag_67:\n      pop\n      pop\n      pop\n      pop\n      pop\n      swap1\n      dup1\n      0x03\n      add\n      dup1\n      sload\n      tag_70\n      swap1\n      tag_65\n      jump\t// in\n    tag_70:\n      dup1\n      0x1f\n      add\n      0x20\n      dup1\n      swap2\n      div\n      mul\n      0x20\n      add\n      mload(0x40)\n      swap1\n      dup2\n      add\n      0x40\n      mstore\n      dup1\n      swap3\n      swap2\n      swap1\n      dup2\n      dup2\n      mstore\n      0x20\n      add\n      dup3\n      dup1\n      sload\n      tag_71\n      swap1\n      tag_65\n      jump\t// in\n    tag_71:\n      dup1\n      iszero\n      tag_72\n      jumpi\n      dup1\n      0x1f\n      lt\n      tag_73\n      jumpi\n      0x0100\n      dup1\n      dup4\n      sload\n      div\n      mul\n      dup4\n      mstore\n      swap2\n      0x20\n      add\n      swap2\n      jump(tag_72)\n    tag_73:\n      dup3\n      add\n      swap2\n      swap1\n      0x00\n      mstore\n      keccak256(0x00, 0x20)\n      swap1\n    tag_74:\n      dup2\n      sload\n      dup2\n      mstore\n      swap1\n      0x01\n      add\n      swap1\n      0x20\n      add\n      dup1\n      dup4\n      gt\n      tag_74\n      jumpi\n      dup3\n      swap1\n      sub\n      0x1f\n      and\n      dup3\n      add\n      swap2\n    tag_72:\n      pop\n      pop\n      pop\n      pop\n      pop\n      swap1\n      dup1\n      0x04\n      add\n      sload\n      swap1\n      dup1\n      0x05\n      add\n      sload\n      swap1\n      dup1\n      0x06\n      add\n      sload\n      swap1\n      pop\n      dup8\n      jump\t// out\n        /* \"contracts/Ebay.sol\":2019:3094  function createAuction(... */\n    tag_24:\n        /* \"contracts/Ebay.sol\":2291:2292  0 */\n      0x00\n        /* \"contracts/Ebay.sol\":2270:2288  _minimumOfferPrice */\n      dup3\n        /* \"contracts/Ebay.sol\":2270:2292  _minimumOfferPrice > 0 */\n      gt\n        /* \"contracts/Ebay.sol\":2249:2409  require(... */\n      tag_76\n      jumpi\n      mload(0x40)\n      0x08c379a000000000000000000000000000000000000000000000000000000000\n      dup2\n      mstore\n      0x04\n      add\n      tag_77\n      swap1\n      tag_78\n      jump\t// in\n    tag_77:\n      mload(0x40)\n      dup1\n      swap2\n      sub\n      swap1\n      revert\n    tag_76:\n        /* \"contracts/Ebay.sol\":2615:2637  uint[] memory offerIds */\n      0x00\n        /* \"contracts/Ebay.sol\":2651:2652  0 */\n      dup1\n        /* \"contracts/Ebay.sol\":2640:2653  new uint[](0) */\n      0xffffffffffffffff\n      dup2\n      gt\n      iszero\n      tag_79\n      jumpi\n      tag_80\n      tag_81\n      jump\t// in\n    tag_80:\n    tag_79:\n      mload(0x40)\n      swap1\n      dup1\n      dup3\n      mstore\n      dup1\n      0x20\n      mul\n      0x20\n      add\n      dup3\n      add\n      0x40\n      mstore\n      dup1\n      iszero\n      tag_82\n      jumpi\n      dup2\n      0x20\n      add\n      0x20\n      dup3\n      mul\n      dup1\n      calldatasize\n      dup4\n      calldatacopy\n      dup1\n      dup3\n      add\n      swap2\n      pop\n      pop\n      swap1\n      pop\n    tag_82:\n      pop\n        /* \"contracts/Ebay.sol\":2615:2653  uint[] memory offerIds = new uint[](0) */\n      swap1\n      pop\n        /* \"contracts/Ebay.sol\":2690:2913  Auction(... */\n      mload(0x40)\n      dup1\n      0x0100\n      add\n      0x40\n      mstore\n      dup1\n        /* \"contracts/Ebay.sol\":2711:2724  nextAuctionId */\n      sload(0x01)\n        /* \"contracts/Ebay.sol\":2690:2913  Auction(... */\n      dup2\n      mstore\n      0x20\n      add\n        /* \"contracts/Ebay.sol\":2738:2748  msg.sender */\n      caller\n        /* \"contracts/Ebay.sol\":2690:2913  Auction(... */\n      0xffffffffffffffffffffffffffffffffffffffff\n      and\n      dup2\n      mstore\n      0x20\n      add\n        /* \"contracts/Ebay.sol\":2762:2767  _name */\n      dup9\n      dup9\n        /* \"contracts/Ebay.sol\":2690:2913  Auction(... */\n      dup1\n      dup1\n      0x1f\n      add\n      0x20\n      dup1\n      swap2\n      div\n      mul\n      0x20\n      add\n      mload(0x40)\n      swap1\n      dup2\n      add\n      0x40\n      mstore\n      dup1\n      swap4\n      swap3\n      swap2\n      swap1\n      dup2\n      dup2\n      mstore\n      0x20\n      add\n      dup4\n      dup4\n      dup1\n      dup3\n      dup5\n      calldatacopy\n      0x00\n      dup2\n      dup5\n      add\n      mstore\n      not(0x1f)\n      0x1f\n      dup3\n      add\n      and\n      swap1\n      pop\n      dup1\n      dup4\n      add\n      swap3\n      pop\n      pop\n      pop\n      pop\n      pop\n      pop\n      pop\n      dup2\n      mstore\n      0x20\n      add\n        /* \"contracts/Ebay.sol\":2781:2793  _description */\n      dup7\n      dup7\n        /* \"contracts/Ebay.sol\":2690:2913  Auction(... */\n      dup1\n      dup1\n      0x1f\n      add\n      0x20\n      dup1\n      swap2\n      div\n      mul\n      0x20\n      add\n      mload(0x40)\n      swap1\n      dup2\n      add\n      0x40\n      mstore\n      dup1\n      swap4\n      swap3\n      swap2\n      swap1\n      dup2\n      dup2\n      mstore\n      0x20\n      add\n      dup4\n      dup4\n      dup1\n      dup3\n      dup5\n      calldatacopy\n      0x00\n      dup2\n      dup5\n      add\n      mstore\n      not(0x1f)\n      0x1f\n      dup3\n      add\n      and\n      swap1\n      pop\n      dup1\n      dup4\n      add\n      swap3\n      pop\n      pop\n      pop\n      pop\n      pop\n      pop\n      pop\n      dup2\n      mstore\n      0x20\n      add\n        /* \"contracts/Ebay.sol\":2807:2825  _minimumOfferPrice */\n      dup5\n        /* \"contracts/Ebay.sol\":2690:2913  Auction(... */\n      dup2\n      mstore\n      0x20\n      add\n        /* \"contracts/Ebay.sol\":2857:2866  _duration */\n      dup4\n        /* \"contracts/Ebay.sol\":2839:2854  block.timestamp */\n      timestamp\n        /* \"contracts/Ebay.sol\":2839:2866  block.timestamp + _duration */\n      tag_83\n      swap2\n      swap1\n      tag_84\n      jump\t// in\n    tag_83:\n        /* \"contracts/Ebay.sol\":2690:2913  Auction(... */\n      dup2\n      mstore\n      0x20\n      add\n        /* \"contracts/Ebay.sol\":2880:2881  0 */\n      0x00\n        /* \"contracts/Ebay.sol\":2690:2913  Auction(... */\n      dup2\n      mstore\n      0x20\n      add\n        /* \"contracts/Ebay.sol\":2895:2903  offerIds */\n      dup3\n        /* \"contracts/Ebay.sol\":2690:2913  Auction(... */\n      dup2\n      mstore\n      pop\n        /* \"contracts/Ebay.sol\":2664:2672  auctions */\n      0x00\n        /* \"contracts/Ebay.sol\":2664:2687  auctions[nextAuctionId] */\n      dup1\n        /* \"contracts/Ebay.sol\":2673:2686  nextAuctionId */\n      sload(0x01)\n        /* \"contracts/Ebay.sol\":2664:2687  auctions[nextAuctionId] */\n      dup2\n      mstore\n      0x20\n      add\n      swap1\n      dup2\n      mstore\n      0x20\n      add\n      0x00\n      keccak256\n        /* \"contracts/Ebay.sol\":2664:2913  auctions[nextAuctionId] = Auction(... */\n      0x00\n      dup3\n      add\n      mload\n      dup2\n      0x00\n      add\n      sstore\n      0x20\n      dup3\n      add\n      mload\n      dup2\n      0x01\n      add\n      exp(0x0100, 0x00)\n      dup2\n      sload\n      dup2\n      0xffffffffffffffffffffffffffffffffffffffff\n      mul\n      not\n      and\n      swap1\n      dup4\n      0xffffffffffffffffffffffffffffffffffffffff\n      and\n      mul\n      or\n      swap1\n      sstore\n      pop\n      0x40\n      dup3\n      add\n      mload\n      dup2\n      0x02\n      add\n      swap1\n      dup2\n      tag_85\n      swap2\n      swap1\n      tag_86\n      jump\t// in\n    tag_85:\n      pop\n      0x60\n      dup3\n      add\n      mload\n      dup2\n      0x03\n      add\n      swap1\n      dup2\n      tag_87\n      swap2\n      swap1\n      tag_86\n      jump\t// in\n    tag_87:\n      pop\n      0x80\n      dup3\n      add\n      mload\n      dup2\n      0x04\n      add\n      sstore\n      0xa0\n      dup3\n      add\n      mload\n      dup2\n      0x05\n      add\n      sstore\n      0xc0\n      dup3\n      add\n      mload\n      dup2\n      0x06\n      add\n      sstore\n      0xe0\n      dup3\n      add\n      mload\n      dup2\n      0x07\n      add\n      swap1\n      dup1\n      mload\n      swap1\n      0x20\n      add\n      swap1\n      tag_88\n      swap3\n      swap2\n      swap1\n      tag_89\n      jump\t// in\n    tag_88:\n      pop\n      swap1\n      pop\n      pop\n        /* \"contracts/Ebay.sol\":2976:2988  userAuctions */\n      0x04\n        /* \"contracts/Ebay.sol\":2976:3000  userAuctions[msg.sender] */\n      0x00\n        /* \"contracts/Ebay.sol\":2989:2999  msg.sender */\n      caller\n        /* \"contracts/Ebay.sol\":2976:3000  userAuctions[msg.sender] */\n      0xffffffffffffffffffffffffffffffffffffffff\n      and\n      0xffffffffffffffffffffffffffffffffffffffff\n      and\n      dup2\n      mstore\n      0x20\n      add\n      swap1\n      dup2\n      mstore\n      0x20\n      add\n      0x00\n      keccak256\n        /* \"contracts/Ebay.sol\":3006:3019  nextAuctionId */\n      sload(0x01)\n        /* \"contracts/Ebay.sol\":2976:3020  userAuctions[msg.sender].push(nextAuctionId) */\n      swap1\n      dup1\n      0x01\n      dup2\n      sload\n      add\n      dup1\n      dup3\n      sstore\n      dup1\n      swap2\n      pop\n      pop\n      0x01\n      swap1\n      sub\n      swap1\n      0x00\n      mstore\n      keccak256(0x00, 0x20)\n      add\n      0x00\n      swap1\n      swap2\n      swap1\n      swap2\n      swap1\n      swap2\n      pop\n      sstore\n        /* \"contracts/Ebay.sol\":3072:3085  nextAuctionId */\n      0x01\n      0x00\n        /* \"contracts/Ebay.sol\":3072:3087  nextAuctionId++ */\n      dup2\n      sload\n      dup1\n      swap3\n      swap2\n      swap1\n      tag_91\n      swap1\n      tag_92\n      jump\t// in\n    tag_91:\n      swap2\n      swap1\n      pop\n      sstore\n      pop\n        /* \"contracts/Ebay.sol\":2183:3094  {... */\n      pop\n        /* \"contracts/Ebay.sol\":2019:3094  function createAuction(... */\n      pop\n      pop\n      pop\n      pop\n      pop\n      pop\n      jump\t// out\n        /* \"contracts/Ebay.sol\":8001:8414  function getUserOffers(address _user)... */\n    tag_29:\n        /* \"contracts/Ebay.sol\":8086:8100  Offer[] memory */\n      0x60\n        /* \"contracts/Ebay.sol\":8116:8143  uint[] storage userOfferIds */\n      0x00\n        /* \"contracts/Ebay.sol\":8146:8156  userOffers */\n      0x05\n        /* \"contracts/Ebay.sol\":8146:8163  userOffers[_user] */\n      0x00\n        /* \"contracts/Ebay.sol\":8157:8162  _user */\n      dup5\n        /* \"contracts/Ebay.sol\":8146:8163  userOffers[_user] */\n      0xffffffffffffffffffffffffffffffffffffffff\n      and\n      0xffffffffffffffffffffffffffffffffffffffff\n      and\n      dup2\n      mstore\n      0x20\n      add\n      swap1\n      dup2\n      mstore\n      0x20\n      add\n      0x00\n      keccak256\n        /* \"contracts/Ebay.sol\":8116:8163  uint[] storage userOfferIds = userOffers[_user] */\n      swap1\n      pop\n        /* \"contracts/Ebay.sol\":8173:8195  Offer[] memory _offers */\n      0x00\n        /* \"contracts/Ebay.sol\":8210:8222  userOfferIds */\n      dup2\n        /* \"contracts/Ebay.sol\":8210:8229  userOfferIds.length */\n      dup1\n      sload\n      swap1\n      pop\n        /* \"contracts/Ebay.sol\":8198:8230  new Offer[](userOfferIds.length) */\n      0xffffffffffffffff\n      dup2\n      gt\n      iszero\n      tag_94\n      jumpi\n      tag_95\n      tag_81\n      jump\t// in\n    tag_95:\n    tag_94:\n      mload(0x40)\n      swap1\n      dup1\n      dup3\n      mstore\n      dup1\n      0x20\n      mul\n      0x20\n      add\n      dup3\n      add\n      0x40\n      mstore\n      dup1\n      iszero\n      tag_96\n      jumpi\n      dup2\n      0x20\n      add\n    tag_97:\n      tag_98\n      tag_99\n      jump\t// in\n    tag_98:\n      dup2\n      mstore\n      0x20\n      add\n      swap1\n      0x01\n      swap1\n      sub\n      swap1\n      dup2\n      tag_97\n      jumpi\n      swap1\n      pop\n    tag_96:\n      pop\n        /* \"contracts/Ebay.sol\":8173:8230  Offer[] memory _offers = new Offer[](userOfferIds.length) */\n      swap1\n      pop\n        /* \"contracts/Ebay.sol\":8245:8251  uint i */\n      0x00\n        /* \"contracts/Ebay.sol\":8240:8384  for (uint i = 0; i < userOfferIds.length; i++) {... */\n    tag_100:\n        /* \"contracts/Ebay.sol\":8261:8273  userOfferIds */\n      dup3\n        /* \"contracts/Ebay.sol\":8261:8280  userOfferIds.length */\n      dup1\n      sload\n      swap1\n      pop\n        /* \"contracts/Ebay.sol\":8257:8258  i */\n      dup2\n        /* \"contracts/Ebay.sol\":8257:8280  i < userOfferIds.length */\n      lt\n        /* \"contracts/Ebay.sol\":8240:8384  for (uint i = 0; i < userOfferIds.length; i++) {... */\n      iszero\n      tag_101\n      jumpi\n        /* \"contracts/Ebay.sol\":8301:8313  uint offerId */\n      0x00\n        /* \"contracts/Ebay.sol\":8316:8328  userOfferIds */\n      dup4\n        /* \"contracts/Ebay.sol\":8329:8330  i */\n      dup3\n        /* \"contracts/Ebay.sol\":8316:8331  userOfferIds[i] */\n      dup2\n      sload\n      dup2\n      lt\n      tag_103\n      jumpi\n      tag_104\n      tag_105\n      jump\t// in\n    tag_104:\n    tag_103:\n      swap1\n      0x00\n      mstore\n      keccak256(0x00, 0x20)\n      add\n      sload\n        /* \"contracts/Ebay.sol\":8301:8331  uint offerId = userOfferIds[i] */\n      swap1\n      pop\n        /* \"contracts/Ebay.sol\":8358:8364  offers */\n      0x02\n        /* \"contracts/Ebay.sol\":8358:8373  offers[offerId] */\n      0x00\n        /* \"contracts/Ebay.sol\":8365:8372  offerId */\n      dup3\n        /* \"contracts/Ebay.sol\":8358:8373  offers[offerId] */\n      dup2\n      mstore\n      0x20\n      add\n      swap1\n      dup2\n      mstore\n      0x20\n      add\n      0x00\n      keccak256\n        /* \"contracts/Ebay.sol\":8345:8373  _offers[i] = offers[offerId] */\n      mload(0x40)\n      dup1\n      0x80\n      add\n      0x40\n      mstore\n      swap1\n      dup2\n      0x00\n      dup3\n      add\n      sload\n      dup2\n      mstore\n      0x20\n      add\n      0x01\n      dup3\n      add\n      sload\n      dup2\n      mstore\n      0x20\n      add\n      0x02\n      dup3\n      add\n      0x00\n      swap1\n      sload\n      swap1\n      0x0100\n      exp\n      swap1\n      div\n      0xffffffffffffffffffffffffffffffffffffffff\n      and\n      0xffffffffffffffffffffffffffffffffffffffff\n      and\n      0xffffffffffffffffffffffffffffffffffffffff\n      and\n      dup2\n      mstore\n      0x20\n      add\n      0x03\n      dup3\n      add\n      sload\n      dup2\n      mstore\n      pop\n      pop\n        /* \"contracts/Ebay.sol\":8345:8352  _offers */\n      dup4\n        /* \"contracts/Ebay.sol\":8353:8354  i */\n      dup4\n        /* \"contracts/Ebay.sol\":8345:8355  _offers[i] */\n      dup2\n      mload\n      dup2\n      lt\n      tag_107\n      jumpi\n      tag_108\n      tag_105\n      jump\t// in\n    tag_108:\n    tag_107:\n      0x20\n      mul\n      0x20\n      add\n      add\n        /* \"contracts/Ebay.sol\":8345:8373  _offers[i] = offers[offerId] */\n      dup2\n      swap1\n      mstore\n      pop\n        /* \"contracts/Ebay.sol\":8287:8384  {... */\n      pop\n        /* \"contracts/Ebay.sol\":8282:8285  i++ */\n      dup1\n      dup1\n      tag_109\n      swap1\n      tag_92\n      jump\t// in\n    tag_109:\n      swap2\n      pop\n      pop\n        /* \"contracts/Ebay.sol\":8240:8384  for (uint i = 0; i < userOfferIds.length; i++) {... */\n      jump(tag_100)\n    tag_101:\n      pop\n        /* \"contracts/Ebay.sol\":8400:8407  _offers */\n      dup1\n        /* \"contracts/Ebay.sol\":8393:8407  return _offers */\n      swap3\n      pop\n      pop\n      pop\n        /* \"contracts/Ebay.sol\":8001:8414  function getUserOffers(address _user)... */\n      swap2\n      swap1\n      pop\n      jump\t// out\n        /* \"contracts/Ebay.sol\":1016:1052  mapping(uint => Offer) public offers */\n    tag_35:\n      mstore(0x20, 0x02)\n      dup1\n      0x00\n      mstore\n      keccak256(0x00, 0x40)\n      0x00\n      swap2\n      pop\n      swap1\n      pop\n      dup1\n      0x00\n      add\n      sload\n      swap1\n      dup1\n      0x01\n      add\n      sload\n      swap1\n      dup1\n      0x02\n      add\n      0x00\n      swap1\n      sload\n      swap1\n      0x0100\n      exp\n      swap1\n      div\n      0xffffffffffffffffffffffffffffffffffffffff\n      and\n      swap1\n      dup1\n      0x03\n      add\n      sload\n      swap1\n      pop\n      dup5\n      jump\t// out\n        /* \"contracts/Ebay.sol\":3187:4453  function cancelAuction(uint _auctionId) external auctionExists(_auctionId) {... */\n    tag_41:\n        /* \"contracts/Ebay.sol\":3250:3260  _auctionId */\n      dup1\n        /* \"contracts/Ebay.sol\":1548:1549  0 */\n      0x00\n        /* \"contracts/Ebay.sol\":1535:1545  _auctionId */\n      dup2\n        /* \"contracts/Ebay.sol\":1535:1549  _auctionId > 0 */\n      gt\n        /* \"contracts/Ebay.sol\":1535:1579  _auctionId > 0 && _auctionId < nextAuctionId */\n      dup1\n      iszero\n      tag_111\n      jumpi\n      pop\n        /* \"contracts/Ebay.sol\":1566:1579  nextAuctionId */\n      sload(0x01)\n        /* \"contracts/Ebay.sol\":1553:1563  _auctionId */\n      dup2\n        /* \"contracts/Ebay.sol\":1553:1579  _auctionId < nextAuctionId */\n      lt\n        /* \"contracts/Ebay.sol\":1535:1579  _auctionId > 0 && _auctionId < nextAuctionId */\n    tag_111:\n        /* \"contracts/Ebay.sol\":1514:1627  require(... */\n      tag_112\n      jumpi\n      mload(0x40)\n      0x08c379a000000000000000000000000000000000000000000000000000000000\n      dup2\n      mstore\n      0x04\n      add\n      tag_113\n      swap1\n      tag_114\n      jump\t// in\n    tag_113:\n      mload(0x40)\n      dup1\n      swap2\n      sub\n      swap1\n      revert\n    tag_112:\n        /* \"contracts/Ebay.sol\":3305:3328  Auction storage auction */\n      0x00\n        /* \"contracts/Ebay.sol\":3331:3339  auctions */\n      dup1\n        /* \"contracts/Ebay.sol\":3331:3351  auctions[_auctionId] */\n      0x00\n        /* \"contracts/Ebay.sol\":3340:3350  _auctionId */\n      dup5\n        /* \"contracts/Ebay.sol\":3331:3351  auctions[_auctionId] */\n      dup2\n      mstore\n      0x20\n      add\n      swap1\n      dup2\n      mstore\n      0x20\n      add\n      0x00\n      keccak256\n        /* \"contracts/Ebay.sol\":3305:3351  Auction storage auction = auctions[_auctionId] */\n      swap1\n      pop\n        /* \"contracts/Ebay.sol\":3542:3548  uint i */\n      0x00\n        /* \"contracts/Ebay.sol\":3537:4061  for (uint i = 0; i < auction.offerIds.length; i++) {... */\n    tag_116:\n        /* \"contracts/Ebay.sol\":3558:3565  auction */\n      dup2\n        /* \"contracts/Ebay.sol\":3558:3574  auction.offerIds */\n      0x07\n      add\n        /* \"contracts/Ebay.sol\":3558:3581  auction.offerIds.length */\n      dup1\n      sload\n      swap1\n      pop\n        /* \"contracts/Ebay.sol\":3554:3555  i */\n      dup2\n        /* \"contracts/Ebay.sol\":3554:3581  i < auction.offerIds.length */\n      lt\n        /* \"contracts/Ebay.sol\":3537:4061  for (uint i = 0; i < auction.offerIds.length; i++) {... */\n      iszero\n      tag_117\n      jumpi\n        /* \"contracts/Ebay.sol\":3602:3614  uint offerId */\n      0x00\n        /* \"contracts/Ebay.sol\":3617:3624  auction */\n      dup3\n        /* \"contracts/Ebay.sol\":3617:3633  auction.offerIds */\n      0x07\n      add\n        /* \"contracts/Ebay.sol\":3634:3635  i */\n      dup3\n        /* \"contracts/Ebay.sol\":3617:3636  auction.offerIds[i] */\n      dup2\n      sload\n      dup2\n      lt\n      tag_119\n      jumpi\n      tag_120\n      tag_105\n      jump\t// in\n    tag_120:\n    tag_119:\n      swap1\n      0x00\n      mstore\n      keccak256(0x00, 0x20)\n      add\n      sload\n        /* \"contracts/Ebay.sol\":3602:3636  uint offerId = auction.offerIds[i] */\n      swap1\n      pop\n        /* \"contracts/Ebay.sol\":3650:3669  Offer storage offer */\n      0x00\n        /* \"contracts/Ebay.sol\":3672:3678  offers */\n      0x02\n        /* \"contracts/Ebay.sol\":3672:3687  offers[offerId] */\n      0x00\n        /* \"contracts/Ebay.sol\":3679:3686  offerId */\n      dup4\n        /* \"contracts/Ebay.sol\":3672:3687  offers[offerId] */\n      dup2\n      mstore\n      0x20\n      add\n      swap1\n      dup2\n      mstore\n      0x20\n      add\n      0x00\n      keccak256\n        /* \"contracts/Ebay.sol\":3650:3687  Offer storage offer = offers[offerId] */\n      swap1\n      pop\n        /* \"contracts/Ebay.sol\":3746:3751  offer */\n      dup1\n        /* \"contracts/Ebay.sol\":3746:3757  offer.buyer */\n      0x02\n      add\n      0x00\n      swap1\n      sload\n      swap1\n      0x0100\n      exp\n      swap1\n      div\n      0xffffffffffffffffffffffffffffffffffffffff\n      and\n        /* \"contracts/Ebay.sol\":3738:3767  payable(offer.buyer).transfer */\n      0xffffffffffffffffffffffffffffffffffffffff\n      and\n        /* \"contracts/Ebay.sol\":3738:3785  payable(offer.buyer).transfer(offer.offerPrice) */\n      0x08fc\n        /* \"contracts/Ebay.sol\":3768:3773  offer */\n      dup3\n        /* \"contracts/Ebay.sol\":3768:3784  offer.offerPrice */\n      0x03\n      add\n      sload\n        /* \"contracts/Ebay.sol\":3738:3785  payable(offer.buyer).transfer(offer.offerPrice) */\n      swap1\n      dup2\n      iszero\n      mul\n      swap1\n      mload(0x40)\n      0x00\n      mload(0x40)\n      dup1\n      dup4\n      sub\n      dup2\n      dup6\n      dup9\n      dup9\n      call\n      swap4\n      pop\n      pop\n      pop\n      pop\n      iszero\n      dup1\n      iszero\n      tag_123\n      jumpi\n      returndatasize\n      0x00\n      dup1\n      returndatacopy\n      revert(0x00, returndatasize)\n    tag_123:\n      pop\n        /* \"contracts/Ebay.sol\":3848:3854  uint j */\n      0x00\n        /* \"contracts/Ebay.sol\":3843:4050  for (uint j = 0; j < userOffers[offer.buyer].length; j++) {... */\n    tag_124:\n        /* \"contracts/Ebay.sol\":3864:3874  userOffers */\n      0x05\n        /* \"contracts/Ebay.sol\":3864:3887  userOffers[offer.buyer] */\n      0x00\n        /* \"contracts/Ebay.sol\":3875:3880  offer */\n      dup4\n        /* \"contracts/Ebay.sol\":3875:3886  offer.buyer */\n      0x02\n      add\n      0x00\n      swap1\n      sload\n      swap1\n      0x0100\n      exp\n      swap1\n      div\n      0xffffffffffffffffffffffffffffffffffffffff\n      and\n        /* \"contracts/Ebay.sol\":3864:3887  userOffers[offer.buyer] */\n      0xffffffffffffffffffffffffffffffffffffffff\n      and\n      0xffffffffffffffffffffffffffffffffffffffff\n      and\n      dup2\n      mstore\n      0x20\n      add\n      swap1\n      dup2\n      mstore\n      0x20\n      add\n      0x00\n      keccak256\n        /* \"contracts/Ebay.sol\":3864:3894  userOffers[offer.buyer].length */\n      dup1\n      sload\n      swap1\n      pop\n        /* \"contracts/Ebay.sol\":3860:3861  j */\n      dup2\n        /* \"contracts/Ebay.sol\":3860:3894  j < userOffers[offer.buyer].length */\n      lt\n        /* \"contracts/Ebay.sol\":3843:4050  for (uint j = 0; j < userOffers[offer.buyer].length; j++) {... */\n      iszero\n      tag_125\n      jumpi\n        /* \"contracts/Ebay.sol\":3953:3960  offerId */\n      dup3\n        /* \"contracts/Ebay.sol\":3923:3933  userOffers */\n      0x05\n        /* \"contracts/Ebay.sol\":3923:3946  userOffers[offer.buyer] */\n      0x00\n        /* \"contracts/Ebay.sol\":3934:3939  offer */\n      dup5\n        /* \"contracts/Ebay.sol\":3934:3945  offer.buyer */\n      0x02\n      add\n      0x00\n      swap1\n      sload\n      swap1\n      0x0100\n      exp\n      swap1\n      div\n      0xffffffffffffffffffffffffffffffffffffffff\n      and\n        /* \"contracts/Ebay.sol\":3923:3946  userOffers[offer.buyer] */\n      0xffffffffffffffffffffffffffffffffffffffff\n      and\n      0xffffffffffffffffffffffffffffffffffffffff\n      and\n      dup2\n      mstore\n      0x20\n      add\n      swap1\n      dup2\n      mstore\n      0x20\n      add\n      0x00\n      keccak256\n        /* \"contracts/Ebay.sol\":3947:3948  j */\n      dup3\n        /* \"contracts/Ebay.sol\":3923:3949  userOffers[offer.buyer][j] */\n      dup2\n      sload\n      dup2\n      lt\n      tag_127\n      jumpi\n      tag_128\n      tag_105\n      jump\t// in\n    tag_128:\n    tag_127:\n      swap1\n      0x00\n      mstore\n      keccak256(0x00, 0x20)\n      add\n      sload\n        /* \"contracts/Ebay.sol\":3923:3960  userOffers[offer.buyer][j] == offerId */\n      sub\n        /* \"contracts/Ebay.sol\":3919:4036  if (userOffers[offer.buyer][j] == offerId) {... */\n      tag_130\n      jumpi\n        /* \"contracts/Ebay.sol\":3991:4001  userOffers */\n      0x05\n        /* \"contracts/Ebay.sol\":3991:4014  userOffers[offer.buyer] */\n      0x00\n        /* \"contracts/Ebay.sol\":4002:4007  offer */\n      dup4\n        /* \"contracts/Ebay.sol\":4002:4013  offer.buyer */\n      0x02\n      add\n      0x00\n      swap1\n      sload\n      swap1\n      0x0100\n      exp\n      swap1\n      div\n      0xffffffffffffffffffffffffffffffffffffffff\n      and\n        /* \"contracts/Ebay.sol\":3991:4014  userOffers[offer.buyer] */\n      0xffffffffffffffffffffffffffffffffffffffff\n      and\n      0xffffffffffffffffffffffffffffffffffffffff\n      and\n      dup2\n      mstore\n      0x20\n      add\n      swap1\n      dup2\n      mstore\n      0x20\n      add\n      0x00\n      keccak256\n        /* \"contracts/Ebay.sol\":4015:4016  j */\n      dup2\n        /* \"contracts/Ebay.sol\":3991:4017  userOffers[offer.buyer][j] */\n      dup2\n      sload\n      dup2\n      lt\n      tag_131\n      jumpi\n      tag_132\n      tag_105\n      jump\t// in\n    tag_132:\n    tag_131:\n      swap1\n      0x00\n      mstore\n      keccak256(0x00, 0x20)\n      add\n        /* \"contracts/Ebay.sol\":3984:4017  delete userOffers[offer.buyer][j] */\n      0x00\n      swap1\n      sstore\n        /* \"contracts/Ebay.sol\":3919:4036  if (userOffers[offer.buyer][j] == offerId) {... */\n    tag_130:\n        /* \"contracts/Ebay.sol\":3896:3899  j++ */\n      dup1\n      dup1\n      tag_134\n      swap1\n      tag_92\n      jump\t// in\n    tag_134:\n      swap2\n      pop\n      pop\n        /* \"contracts/Ebay.sol\":3843:4050  for (uint j = 0; j < userOffers[offer.buyer].length; j++) {... */\n      jump(tag_124)\n    tag_125:\n      pop\n        /* \"contracts/Ebay.sol\":3588:4061  {... */\n      pop\n      pop\n        /* \"contracts/Ebay.sol\":3583:3586  i++ */\n      dup1\n      dup1\n      tag_135\n      swap1\n      tag_92\n      jump\t// in\n    tag_135:\n      swap2\n      pop\n      pop\n        /* \"contracts/Ebay.sol\":3537:4061  for (uint i = 0; i < auction.offerIds.length; i++) {... */\n      jump(tag_116)\n    tag_117:\n      pop\n        /* \"contracts/Ebay.sol\":4114:4120  uint k */\n      0x00\n        /* \"contracts/Ebay.sol\":4109:4318  for (uint k = 0; k < userAuctions[auction.seller].length; k++) {... */\n    tag_136:\n        /* \"contracts/Ebay.sol\":4130:4142  userAuctions */\n      0x04\n        /* \"contracts/Ebay.sol\":4130:4158  userAuctions[auction.seller] */\n      0x00\n        /* \"contracts/Ebay.sol\":4143:4150  auction */\n      dup4\n        /* \"contracts/Ebay.sol\":4143:4157  auction.seller */\n      0x01\n      add\n      0x00\n      swap1\n      sload\n      swap1\n      0x0100\n      exp\n      swap1\n      div\n      0xffffffffffffffffffffffffffffffffffffffff\n      and\n        /* \"contracts/Ebay.sol\":4130:4158  userAuctions[auction.seller] */\n      0xffffffffffffffffffffffffffffffffffffffff\n      and\n      0xffffffffffffffffffffffffffffffffffffffff\n      and\n      dup2\n      mstore\n      0x20\n      add\n      swap1\n      dup2\n      mstore\n      0x20\n      add\n      0x00\n      keccak256\n        /* \"contracts/Ebay.sol\":4130:4165  userAuctions[auction.seller].length */\n      dup1\n      sload\n      swap1\n      pop\n        /* \"contracts/Ebay.sol\":4126:4127  k */\n      dup2\n        /* \"contracts/Ebay.sol\":4126:4165  k < userAuctions[auction.seller].length */\n      lt\n        /* \"contracts/Ebay.sol\":4109:4318  for (uint k = 0; k < userAuctions[auction.seller].length; k++) {... */\n      iszero\n      tag_137\n      jumpi\n        /* \"contracts/Ebay.sol\":4225:4235  _auctionId */\n      dup4\n        /* \"contracts/Ebay.sol\":4190:4202  userAuctions */\n      0x04\n        /* \"contracts/Ebay.sol\":4190:4218  userAuctions[auction.seller] */\n      0x00\n        /* \"contracts/Ebay.sol\":4203:4210  auction */\n      dup5\n        /* \"contracts/Ebay.sol\":4203:4217  auction.seller */\n      0x01\n      add\n      0x00\n      swap1\n      sload\n      swap1\n      0x0100\n      exp\n      swap1\n      div\n      0xffffffffffffffffffffffffffffffffffffffff\n      and\n        /* \"contracts/Ebay.sol\":4190:4218  userAuctions[auction.seller] */\n      0xffffffffffffffffffffffffffffffffffffffff\n      and\n      0xffffffffffffffffffffffffffffffffffffffff\n      and\n      dup2\n      mstore\n      0x20\n      add\n      swap1\n      dup2\n      mstore\n      0x20\n      add\n      0x00\n      keccak256\n        /* \"contracts/Ebay.sol\":4219:4220  k */\n      dup3\n        /* \"contracts/Ebay.sol\":4190:4221  userAuctions[auction.seller][k] */\n      dup2\n      sload\n      dup2\n      lt\n      tag_139\n      jumpi\n      tag_140\n      tag_105\n      jump\t// in\n    tag_140:\n    tag_139:\n      swap1\n      0x00\n      mstore\n      keccak256(0x00, 0x20)\n      add\n      sload\n        /* \"contracts/Ebay.sol\":4190:4235  userAuctions[auction.seller][k] == _auctionId */\n      sub\n        /* \"contracts/Ebay.sol\":4186:4308  if (userAuctions[auction.seller][k] == _auctionId) {... */\n      tag_142\n      jumpi\n        /* \"contracts/Ebay.sol\":4262:4274  userAuctions */\n      0x04\n        /* \"contracts/Ebay.sol\":4262:4290  userAuctions[auction.seller] */\n      0x00\n        /* \"contracts/Ebay.sol\":4275:4282  auction */\n      dup4\n        /* \"contracts/Ebay.sol\":4275:4289  auction.seller */\n      0x01\n      add\n      0x00\n      swap1\n      sload\n      swap1\n      0x0100\n      exp\n      swap1\n      div\n      0xffffffffffffffffffffffffffffffffffffffff\n      and\n        /* \"contracts/Ebay.sol\":4262:4290  userAuctions[auction.seller] */\n      0xffffffffffffffffffffffffffffffffffffffff\n      and\n      0xffffffffffffffffffffffffffffffffffffffff\n      and\n      dup2\n      mstore\n      0x20\n      add\n      swap1\n      dup2\n      mstore\n      0x20\n      add\n      0x00\n      keccak256\n        /* \"contracts/Ebay.sol\":4291:4292  k */\n      dup2\n        /* \"contracts/Ebay.sol\":4262:4293  userAuctions[auction.seller][k] */\n      dup2\n      sload\n      dup2\n      lt\n      tag_143\n      jumpi\n      tag_144\n      tag_105\n      jump\t// in\n    tag_144:\n    tag_143:\n      swap1\n      0x00\n      mstore\n      keccak256(0x00, 0x20)\n      add\n        /* \"contracts/Ebay.sol\":4255:4293  delete userAuctions[auction.seller][k] */\n      0x00\n      swap1\n      sstore\n        /* \"contracts/Ebay.sol\":4186:4308  if (userAuctions[auction.seller][k] == _auctionId) {... */\n    tag_142:\n        /* \"contracts/Ebay.sol\":4167:4170  k++ */\n      dup1\n      dup1\n      tag_146\n      swap1\n      tag_92\n      jump\t// in\n    tag_146:\n      swap2\n      pop\n      pop\n        /* \"contracts/Ebay.sol\":4109:4318  for (uint k = 0; k < userAuctions[auction.seller].length; k++) {... */\n      jump(tag_136)\n    tag_137:\n      pop\n        /* \"contracts/Ebay.sol\":4368:4380  userAuctions */\n      0x04\n        /* \"contracts/Ebay.sol\":4368:4396  userAuctions[auction.seller] */\n      0x00\n        /* \"contracts/Ebay.sol\":4381:4388  auction */\n      dup3\n        /* \"contracts/Ebay.sol\":4381:4395  auction.seller */\n      0x01\n      add\n      0x00\n      swap1\n      sload\n      swap1\n      0x0100\n      exp\n      swap1\n      div\n      0xffffffffffffffffffffffffffffffffffffffff\n      and\n        /* \"contracts/Ebay.sol\":4368:4396  userAuctions[auction.seller] */\n      0xffffffffffffffffffffffffffffffffffffffff\n      and\n      0xffffffffffffffffffffffffffffffffffffffff\n      and\n      dup2\n      mstore\n      0x20\n      add\n      swap1\n      dup2\n      mstore\n      0x20\n      add\n      0x00\n      keccak256\n        /* \"contracts/Ebay.sol\":4397:4407  _auctionId */\n      dup4\n        /* \"contracts/Ebay.sol\":4368:4408  userAuctions[auction.seller][_auctionId] */\n      dup2\n      sload\n      dup2\n      lt\n      tag_147\n      jumpi\n      tag_148\n      tag_105\n      jump\t// in\n    tag_148:\n    tag_147:\n      swap1\n      0x00\n      mstore\n      keccak256(0x00, 0x20)\n      add\n        /* \"contracts/Ebay.sol\":4361:4408  delete userAuctions[auction.seller][_auctionId] */\n      0x00\n      swap1\n      sstore\n        /* \"contracts/Ebay.sol\":4426:4434  auctions */\n      0x00\n        /* \"contracts/Ebay.sol\":4426:4446  auctions[_auctionId] */\n      dup1\n        /* \"contracts/Ebay.sol\":4435:4445  _auctionId */\n      dup5\n        /* \"contracts/Ebay.sol\":4426:4446  auctions[_auctionId] */\n      dup2\n      mstore\n      0x20\n      add\n      swap1\n      dup2\n      mstore\n      0x20\n      add\n      0x00\n      keccak256\n      0x00\n        /* \"contracts/Ebay.sol\":4419:4446  delete auctions[_auctionId] */\n      dup1\n      dup3\n      add\n      0x00\n      swap1\n      sstore\n      0x01\n      dup3\n      add\n      exp(0x0100, 0x00)\n      dup2\n      sload\n      swap1\n      0xffffffffffffffffffffffffffffffffffffffff\n      mul\n      not\n      and\n      swap1\n      sstore\n      0x02\n      dup3\n      add\n      0x00\n      tag_150\n      swap2\n      swap1\n      tag_151\n      jump\t// in\n    tag_150:\n      0x03\n      dup3\n      add\n      0x00\n      tag_152\n      swap2\n      swap1\n      tag_151\n      jump\t// in\n    tag_152:\n      0x04\n      dup3\n      add\n      0x00\n      swap1\n      sstore\n      0x05\n      dup3\n      add\n      0x00\n      swap1\n      sstore\n      0x06\n      dup3\n      add\n      0x00\n      swap1\n      sstore\n      0x07\n      dup3\n      add\n      0x00\n      tag_153\n      swap2\n      swap1\n      tag_154\n      jump\t// in\n    tag_153:\n      pop\n      pop\n        /* \"contracts/Ebay.sol\":3262:4453  {... */\n      pop\n        /* \"contracts/Ebay.sol\":3187:4453  function cancelAuction(uint _auctionId) external auctionExists(_auctionId) {... */\n      pop\n      pop\n      jump\t// out\n        /* \"contracts/Ebay.sol\":4557:5949  function createOffer(uint _auctionId)... */\n    tag_44:\n        /* \"contracts/Ebay.sol\":4758:4768  _auctionId */\n      dup1\n        /* \"contracts/Ebay.sol\":1548:1549  0 */\n      0x00\n        /* \"contracts/Ebay.sol\":1535:1545  _auctionId */\n      dup2\n        /* \"contracts/Ebay.sol\":1535:1549  _auctionId > 0 */\n      gt\n        /* \"contracts/Ebay.sol\":1535:1579  _auctionId > 0 && _auctionId < nextAuctionId */\n      dup1\n      iszero\n      tag_156\n      jumpi\n      pop\n        /* \"contracts/Ebay.sol\":1566:1579  nextAuctionId */\n      sload(0x01)\n        /* \"contracts/Ebay.sol\":1553:1563  _auctionId */\n      dup2\n        /* \"contracts/Ebay.sol\":1553:1579  _auctionId < nextAuctionId */\n      lt\n        /* \"contracts/Ebay.sol\":1535:1579  _auctionId > 0 && _auctionId < nextAuctionId */\n    tag_156:\n        /* \"contracts/Ebay.sol\":1514:1627  require(... */\n      tag_157\n      jumpi\n      mload(0x40)\n      0x08c379a000000000000000000000000000000000000000000000000000000000\n      dup2\n      mstore\n      0x04\n      add\n      tag_158\n      swap1\n      tag_114\n      jump\t// in\n    tag_158:\n      mload(0x40)\n      dup1\n      swap2\n      sub\n      swap1\n      revert\n    tag_157:\n        /* \"contracts/Ebay.sol\":4816:4839  Auction storage auction */\n      0x00\n        /* \"contracts/Ebay.sol\":4842:4850  auctions */\n      dup1\n        /* \"contracts/Ebay.sol\":4842:4862  auctions[_auctionId] */\n      0x00\n        /* \"contracts/Ebay.sol\":4851:4861  _auctionId */\n      dup5\n        /* \"contracts/Ebay.sol\":4842:4862  auctions[_auctionId] */\n      dup2\n      mstore\n      0x20\n      add\n      swap1\n      dup2\n      mstore\n      0x20\n      add\n      0x00\n      keccak256\n        /* \"contracts/Ebay.sol\":4816:4862  Auction storage auction = auctions[_auctionId] */\n      swap1\n      pop\n        /* \"contracts/Ebay.sol\":4939:4946  auction */\n      dup1\n        /* \"contracts/Ebay.sol\":4939:4957  auction.auctionEnd */\n      0x05\n      add\n      sload\n        /* \"contracts/Ebay.sol\":4921:4936  block.timestamp */\n      timestamp\n        /* \"contracts/Ebay.sol\":4921:4957  block.timestamp < auction.auctionEnd */\n      lt\n        /* \"contracts/Ebay.sol\":4913:4977  require(block.timestamp < auction.auctionEnd, \"Auction expired\") */\n      tag_160\n      jumpi\n      mload(0x40)\n      0x08c379a000000000000000000000000000000000000000000000000000000000\n      dup2\n      mstore\n      0x04\n      add\n      tag_161\n      swap1\n      tag_162\n      jump\t// in\n    tag_161:\n      mload(0x40)\n      dup1\n      swap2\n      sub\n      swap1\n      revert\n    tag_160:\n        /* \"contracts/Ebay.sol\":5023:5046  Offer storage bestOffer */\n      0x00\n        /* \"contracts/Ebay.sol\":5049:5055  offers */\n      0x02\n        /* \"contracts/Ebay.sol\":5049:5076  offers[auction.bestOfferId] */\n      0x00\n        /* \"contracts/Ebay.sol\":5056:5063  auction */\n      dup4\n        /* \"contracts/Ebay.sol\":5056:5075  auction.bestOfferId */\n      0x06\n      add\n      sload\n        /* \"contracts/Ebay.sol\":5049:5076  offers[auction.bestOfferId] */\n      dup2\n      mstore\n      0x20\n      add\n      swap1\n      dup2\n      mstore\n      0x20\n      add\n      0x00\n      keccak256\n        /* \"contracts/Ebay.sol\":5023:5076  Offer storage bestOffer = offers[auction.bestOfferId] */\n      swap1\n      pop\n        /* \"contracts/Ebay.sol\":5181:5188  auction */\n      dup2\n        /* \"contracts/Ebay.sol\":5181:5206  auction.minimumOfferPrice */\n      0x04\n      add\n      sload\n        /* \"contracts/Ebay.sol\":5168:5177  msg.value */\n      callvalue\n        /* \"contracts/Ebay.sol\":5168:5206  msg.value >= auction.minimumOfferPrice */\n      lt\n      iszero\n        /* \"contracts/Ebay.sol\":5168:5258  msg.value >= auction.minimumOfferPrice &&... */\n      dup1\n      iszero\n      tag_163\n      jumpi\n      pop\n        /* \"contracts/Ebay.sol\":5238:5247  bestOffer */\n      dup1\n        /* \"contracts/Ebay.sol\":5238:5258  bestOffer.offerPrice */\n      0x03\n      add\n      sload\n        /* \"contracts/Ebay.sol\":5226:5235  msg.value */\n      callvalue\n        /* \"contracts/Ebay.sol\":5226:5258  msg.value > bestOffer.offerPrice */\n      gt\n        /* \"contracts/Ebay.sol\":5168:5258  msg.value >= auction.minimumOfferPrice &&... */\n    tag_163:\n        /* \"contracts/Ebay.sol\":5147:5351  require(... */\n      tag_164\n      jumpi\n      mload(0x40)\n      0x08c379a000000000000000000000000000000000000000000000000000000000\n      dup2\n      mstore\n      0x04\n      add\n      tag_165\n      swap1\n      tag_166\n      jump\t// in\n    tag_165:\n      mload(0x40)\n      dup1\n      swap2\n      sub\n      swap1\n      revert\n    tag_164:\n        /* \"contracts/Ebay.sol\":5425:5436  nextOfferId */\n      sload(0x03)\n        /* \"contracts/Ebay.sol\":5403:5410  auction */\n      dup3\n        /* \"contracts/Ebay.sol\":5403:5422  auction.bestOfferId */\n      0x06\n      add\n        /* \"contracts/Ebay.sol\":5403:5436  auction.bestOfferId = nextOfferId */\n      dup2\n      swap1\n      sstore\n      pop\n        /* \"contracts/Ebay.sol\":5499:5610  Offer(... */\n      mload(0x40)\n      dup1\n      0x80\n      add\n      0x40\n      mstore\n      dup1\n        /* \"contracts/Ebay.sol\":5518:5529  nextOfferId */\n      sload(0x03)\n        /* \"contracts/Ebay.sol\":5499:5610  Offer(... */\n      dup2\n      mstore\n      0x20\n      add\n        /* \"contracts/Ebay.sol\":5543:5553  _auctionId */\n      dup6\n        /* \"contracts/Ebay.sol\":5499:5610  Offer(... */\n      dup2\n      mstore\n      0x20\n      add\n        /* \"contracts/Ebay.sol\":5567:5577  msg.sender */\n      caller\n        /* \"contracts/Ebay.sol\":5499:5610  Offer(... */\n      0xffffffffffffffffffffffffffffffffffffffff\n      and\n      dup2\n      mstore\n      0x20\n      add\n        /* \"contracts/Ebay.sol\":5591:5600  msg.value */\n      callvalue\n        /* \"contracts/Ebay.sol\":5499:5610  Offer(... */\n      dup2\n      mstore\n      pop\n        /* \"contracts/Ebay.sol\":5477:5483  offers */\n      0x02\n        /* \"contracts/Ebay.sol\":5477:5496  offers[nextOfferId] */\n      0x00\n        /* \"contracts/Ebay.sol\":5484:5495  nextOfferId */\n      sload(0x03)\n        /* \"contracts/Ebay.sol\":5477:5496  offers[nextOfferId] */\n      dup2\n      mstore\n      0x20\n      add\n      swap1\n      dup2\n      mstore\n      0x20\n      add\n      0x00\n      keccak256\n        /* \"contracts/Ebay.sol\":5477:5610  offers[nextOfferId] = Offer(... */\n      0x00\n      dup3\n      add\n      mload\n      dup2\n      0x00\n      add\n      sstore\n      0x20\n      dup3\n      add\n      mload\n      dup2\n      0x01\n      add\n      sstore\n      0x40\n      dup3\n      add\n      mload\n      dup2\n      0x02\n      add\n      exp(0x0100, 0x00)\n      dup2\n      sload\n      dup2\n      0xffffffffffffffffffffffffffffffffffffffff\n      mul\n      not\n      and\n      swap1\n      dup4\n      0xffffffffffffffffffffffffffffffffffffffff\n      and\n      mul\n      or\n      swap1\n      sstore\n      pop\n      0x60\n      dup3\n      add\n      mload\n      dup2\n      0x03\n      add\n      sstore\n      swap1\n      pop\n      pop\n        /* \"contracts/Ebay.sol\":5621:5628  auction */\n      dup2\n        /* \"contracts/Ebay.sol\":5621:5637  auction.offerIds */\n      0x07\n      add\n        /* \"contracts/Ebay.sol\":5643:5654  nextOfferId */\n      sload(0x03)\n        /* \"contracts/Ebay.sol\":5621:5655  auction.offerIds.push(nextOfferId) */\n      swap1\n      dup1\n      0x01\n      dup2\n      sload\n      add\n      dup1\n      dup3\n      sstore\n      dup1\n      swap2\n      pop\n      pop\n      0x01\n      swap1\n      sub\n      swap1\n      0x00\n      mstore\n      keccak256(0x00, 0x20)\n      add\n      0x00\n      swap1\n      swap2\n      swap1\n      swap2\n      swap1\n      swap2\n      pop\n      sstore\n        /* \"contracts/Ebay.sol\":5777:5778  1 */\n      0x01\n        /* \"contracts/Ebay.sol\":5765:5774  msg.value */\n      callvalue\n        /* \"contracts/Ebay.sol\":5765:5778  msg.value + 1 */\n      tag_168\n      swap2\n      swap1\n      tag_84\n      jump\t// in\n    tag_168:\n        /* \"contracts/Ebay.sol\":5737:5744  auction */\n      dup3\n        /* \"contracts/Ebay.sol\":5737:5762  auction.minimumOfferPrice */\n      0x04\n      add\n        /* \"contracts/Ebay.sol\":5737:5778  auction.minimumOfferPrice = msg.value + 1 */\n      dup2\n      swap1\n      sstore\n      pop\n        /* \"contracts/Ebay.sol\":5839:5849  userOffers */\n      0x05\n        /* \"contracts/Ebay.sol\":5839:5861  userOffers[msg.sender] */\n      0x00\n        /* \"contracts/Ebay.sol\":5850:5860  msg.sender */\n      caller\n        /* \"contracts/Ebay.sol\":5839:5861  userOffers[msg.sender] */\n      0xffffffffffffffffffffffffffffffffffffffff\n      and\n      0xffffffffffffffffffffffffffffffffffffffff\n      and\n      dup2\n      mstore\n      0x20\n      add\n      swap1\n      dup2\n      mstore\n      0x20\n      add\n      0x00\n      keccak256\n        /* \"contracts/Ebay.sol\":5867:5878  nextOfferId */\n      sload(0x03)\n        /* \"contracts/Ebay.sol\":5839:5879  userOffers[msg.sender].push(nextOfferId) */\n      swap1\n      dup1\n      0x01\n      dup2\n      sload\n      add\n      dup1\n      dup3\n      sstore\n      dup1\n      swap2\n      pop\n      pop\n      0x01\n      swap1\n      sub\n      swap1\n      0x00\n      mstore\n      keccak256(0x00, 0x20)\n      add\n      0x00\n      swap1\n      swap2\n      swap1\n      swap2\n      swap1\n      swap2\n      pop\n      sstore\n        /* \"contracts/Ebay.sol\":5929:5940  nextOfferId */\n      0x03\n      0x00\n        /* \"contracts/Ebay.sol\":5929:5942  nextOfferId++ */\n      dup2\n      sload\n      dup1\n      swap3\n      swap2\n      swap1\n      tag_170\n      swap1\n      tag_92\n      jump\t// in\n    tag_170:\n      swap2\n      swap1\n      pop\n      sstore\n      pop\n        /* \"contracts/Ebay.sol\":4774:5949  {... */\n      pop\n      pop\n        /* \"contracts/Ebay.sol\":4557:5949  function createOffer(uint _auctionId)... */\n      pop\n      pop\n      jump\t// out\n        /* \"contracts/Ebay.sol\":8507:9059  function getAuctionOffers(uint _auctionId)... */\n    tag_48:\n        /* \"contracts/Ebay.sol\":8631:8645  Offer[] memory */\n      0x60\n        /* \"contracts/Ebay.sol\":8602:8612  _auctionId */\n      dup2\n        /* \"contracts/Ebay.sol\":1548:1549  0 */\n      0x00\n        /* \"contracts/Ebay.sol\":1535:1545  _auctionId */\n      dup2\n        /* \"contracts/Ebay.sol\":1535:1549  _auctionId > 0 */\n      gt\n        /* \"contracts/Ebay.sol\":1535:1579  _auctionId > 0 && _auctionId < nextAuctionId */\n      dup1\n      iszero\n      tag_172\n      jumpi\n      pop\n        /* \"contracts/Ebay.sol\":1566:1579  nextAuctionId */\n      sload(0x01)\n        /* \"contracts/Ebay.sol\":1553:1563  _auctionId */\n      dup2\n        /* \"contracts/Ebay.sol\":1553:1579  _auctionId < nextAuctionId */\n      lt\n        /* \"contracts/Ebay.sol\":1535:1579  _auctionId > 0 && _auctionId < nextAuctionId */\n    tag_172:\n        /* \"contracts/Ebay.sol\":1514:1627  require(... */\n      tag_173\n      jumpi\n      mload(0x40)\n      0x08c379a000000000000000000000000000000000000000000000000000000000\n      dup2\n      mstore\n      0x04\n      add\n      tag_174\n      swap1\n      tag_114\n      jump\t// in\n    tag_174:\n      mload(0x40)\n      dup1\n      swap2\n      sub\n      swap1\n      revert\n    tag_173:\n        /* \"contracts/Ebay.sol\":8693:8716  Auction storage auction */\n      0x00\n        /* \"contracts/Ebay.sol\":8719:8727  auctions */\n      dup1\n        /* \"contracts/Ebay.sol\":8719:8739  auctions[_auctionId] */\n      0x00\n        /* \"contracts/Ebay.sol\":8728:8738  _auctionId */\n      dup6\n        /* \"contracts/Ebay.sol\":8719:8739  auctions[_auctionId] */\n      dup2\n      mstore\n      0x20\n      add\n      swap1\n      dup2\n      mstore\n      0x20\n      add\n      0x00\n      keccak256\n        /* \"contracts/Ebay.sol\":8693:8739  Auction storage auction = auctions[_auctionId] */\n      swap1\n      pop\n        /* \"contracts/Ebay.sol\":8749:8779  uint[] storage auctionOfferIds */\n      0x00\n        /* \"contracts/Ebay.sol\":8782:8789  auction */\n      dup2\n        /* \"contracts/Ebay.sol\":8782:8798  auction.offerIds */\n      0x07\n      add\n        /* \"contracts/Ebay.sol\":8749:8798  uint[] storage auctionOfferIds = auction.offerIds */\n      swap1\n      pop\n        /* \"contracts/Ebay.sol\":8809:8831  Offer[] memory _offers */\n      0x00\n        /* \"contracts/Ebay.sol\":8846:8861  auctionOfferIds */\n      dup2\n        /* \"contracts/Ebay.sol\":8846:8868  auctionOfferIds.length */\n      dup1\n      sload\n      swap1\n      pop\n        /* \"contracts/Ebay.sol\":8834:8869  new Offer[](auctionOfferIds.length) */\n      0xffffffffffffffff\n      dup2\n      gt\n      iszero\n      tag_176\n      jumpi\n      tag_177\n      tag_81\n      jump\t// in\n    tag_177:\n    tag_176:\n      mload(0x40)\n      swap1\n      dup1\n      dup3\n      mstore\n      dup1\n      0x20\n      mul\n      0x20\n      add\n      dup3\n      add\n      0x40\n      mstore\n      dup1\n      iszero\n      tag_178\n      jumpi\n      dup2\n      0x20\n      add\n    tag_179:\n      tag_180\n      tag_99\n      jump\t// in\n    tag_180:\n      dup2\n      mstore\n      0x20\n      add\n      swap1\n      0x01\n      swap1\n      sub\n      swap1\n      dup2\n      tag_179\n      jumpi\n      swap1\n      pop\n    tag_178:\n      pop\n        /* \"contracts/Ebay.sol\":8809:8869  Offer[] memory _offers = new Offer[](auctionOfferIds.length) */\n      swap1\n      pop\n        /* \"contracts/Ebay.sol\":8884:8890  uint i */\n      0x00\n        /* \"contracts/Ebay.sol\":8879:9029  for (uint i = 0; i < auctionOfferIds.length; i++) {... */\n    tag_181:\n        /* \"contracts/Ebay.sol\":8900:8915  auctionOfferIds */\n      dup3\n        /* \"contracts/Ebay.sol\":8900:8922  auctionOfferIds.length */\n      dup1\n      sload\n      swap1\n      pop\n        /* \"contracts/Ebay.sol\":8896:8897  i */\n      dup2\n        /* \"contracts/Ebay.sol\":8896:8922  i < auctionOfferIds.length */\n      lt\n        /* \"contracts/Ebay.sol\":8879:9029  for (uint i = 0; i < auctionOfferIds.length; i++) {... */\n      iszero\n      tag_182\n      jumpi\n        /* \"contracts/Ebay.sol\":8943:8955  uint offerId */\n      0x00\n        /* \"contracts/Ebay.sol\":8958:8973  auctionOfferIds */\n      dup4\n        /* \"contracts/Ebay.sol\":8974:8975  i */\n      dup3\n        /* \"contracts/Ebay.sol\":8958:8976  auctionOfferIds[i] */\n      dup2\n      sload\n      dup2\n      lt\n      tag_184\n      jumpi\n      tag_185\n      tag_105\n      jump\t// in\n    tag_185:\n    tag_184:\n      swap1\n      0x00\n      mstore\n      keccak256(0x00, 0x20)\n      add\n      sload\n        /* \"contracts/Ebay.sol\":8943:8976  uint offerId = auctionOfferIds[i] */\n      swap1\n      pop\n        /* \"contracts/Ebay.sol\":9003:9009  offers */\n      0x02\n        /* \"contracts/Ebay.sol\":9003:9018  offers[offerId] */\n      0x00\n        /* \"contracts/Ebay.sol\":9010:9017  offerId */\n      dup3\n        /* \"contracts/Ebay.sol\":9003:9018  offers[offerId] */\n      dup2\n      mstore\n      0x20\n      add\n      swap1\n      dup2\n      mstore\n      0x20\n      add\n      0x00\n      keccak256\n        /* \"contracts/Ebay.sol\":8990:9018  _offers[i] = offers[offerId] */\n      mload(0x40)\n      dup1\n      0x80\n      add\n      0x40\n      mstore\n      swap1\n      dup2\n      0x00\n      dup3\n      add\n      sload\n      dup2\n      mstore\n      0x20\n      add\n      0x01\n      dup3\n      add\n      sload\n      dup2\n      mstore\n      0x20\n      add\n      0x02\n      dup3\n      add\n      0x00\n      swap1\n      sload\n      swap1\n      0x0100\n      exp\n      swap1\n      div\n      0xffffffffffffffffffffffffffffffffffffffff\n      and\n      0xffffffffffffffffffffffffffffffffffffffff\n      and\n      0xffffffffffffffffffffffffffffffffffffffff\n      and\n      dup2\n      mstore\n      0x20\n      add\n      0x03\n      dup3\n      add\n      sload\n      dup2\n      mstore\n      pop\n      pop\n        /* \"contracts/Ebay.sol\":8990:8997  _offers */\n      dup4\n        /* \"contracts/Ebay.sol\":8998:8999  i */\n      dup4\n        /* \"contracts/Ebay.sol\":8990:9000  _offers[i] */\n      dup2\n      mload\n      dup2\n      lt\n      tag_187\n      jumpi\n      tag_188\n      tag_105\n      jump\t// in\n    tag_188:\n    tag_187:\n      0x20\n      mul\n      0x20\n      add\n      add\n        /* \"contracts/Ebay.sol\":8990:9018  _offers[i] = offers[offerId] */\n      dup2\n      swap1\n      mstore\n      pop\n        /* \"contracts/Ebay.sol\":8929:9029  {... */\n      pop\n        /* \"contracts/Ebay.sol\":8924:8927  i++ */\n      dup1\n      dup1\n      tag_189\n      swap1\n      tag_92\n      jump\t// in\n    tag_189:\n      swap2\n      pop\n      pop\n        /* \"contracts/Ebay.sol\":8879:9029  for (uint i = 0; i < auctionOfferIds.length; i++) {... */\n      jump(tag_181)\n    tag_182:\n      pop\n        /* \"contracts/Ebay.sol\":9045:9052  _offers */\n      dup1\n        /* \"contracts/Ebay.sol\":9038:9052  return _offers */\n      swap5\n      pop\n      pop\n      pop\n      pop\n        /* \"contracts/Ebay.sol\":8507:9059  function getAuctionOffers(uint _auctionId)... */\n      pop\n      swap2\n      swap1\n      pop\n      jump\t// out\n        /* \"contracts/Ebay.sol\":7104:7377  function getAuctions() external view returns (Auction[] memory) {... */\n    tag_52:\n        /* \"contracts/Ebay.sol\":7150:7166  Auction[] memory */\n      0x60\n        /* \"contracts/Ebay.sol\":7178:7204  Auction[] memory _auctions */\n      0x00\n        /* \"contracts/Ebay.sol\":7237:7238  1 */\n      0x01\n        /* \"contracts/Ebay.sol\":7221:7234  nextAuctionId */\n      dup1\n      sload\n        /* \"contracts/Ebay.sol\":7221:7238  nextAuctionId - 1 */\n      tag_191\n      swap2\n      swap1\n      tag_192\n      jump\t// in\n    tag_191:\n        /* \"contracts/Ebay.sol\":7207:7239  new Auction[](nextAuctionId - 1) */\n      0xffffffffffffffff\n      dup2\n      gt\n      iszero\n      tag_193\n      jumpi\n      tag_194\n      tag_81\n      jump\t// in\n    tag_194:\n    tag_193:\n      mload(0x40)\n      swap1\n      dup1\n      dup3\n      mstore\n      dup1\n      0x20\n      mul\n      0x20\n      add\n      dup3\n      add\n      0x40\n      mstore\n      dup1\n      iszero\n      tag_195\n      jumpi\n      dup2\n      0x20\n      add\n    tag_196:\n      tag_197\n      tag_198\n      jump\t// in\n    tag_197:\n      dup2\n      mstore\n      0x20\n      add\n      swap1\n      0x01\n      swap1\n      sub\n      swap1\n      dup2\n      tag_196\n      jumpi\n      swap1\n      pop\n    tag_195:\n      pop\n        /* \"contracts/Ebay.sol\":7178:7239  Auction[] memory _auctions = new Auction[](nextAuctionId - 1) */\n      swap1\n      pop\n        /* \"contracts/Ebay.sol\":7254:7260  uint i */\n      0x00\n        /* \"contracts/Ebay.sol\":7263:7264  1 */\n      0x01\n        /* \"contracts/Ebay.sol\":7254:7264  uint i = 1 */\n      swap1\n      pop\n        /* \"contracts/Ebay.sol\":7249:7345  for (uint i = 1; i < nextAuctionId; i++) {... */\n    tag_199:\n        /* \"contracts/Ebay.sol\":7270:7283  nextAuctionId */\n      sload(0x01)\n        /* \"contracts/Ebay.sol\":7266:7267  i */\n      dup2\n        /* \"contracts/Ebay.sol\":7266:7283  i < nextAuctionId */\n      lt\n        /* \"contracts/Ebay.sol\":7249:7345  for (uint i = 1; i < nextAuctionId; i++) {... */\n      iszero\n      tag_200\n      jumpi\n        /* \"contracts/Ebay.sol\":7323:7331  auctions */\n      0x00\n        /* \"contracts/Ebay.sol\":7323:7334  auctions[i] */\n      dup1\n        /* \"contracts/Ebay.sol\":7332:7333  i */\n      dup3\n        /* \"contracts/Ebay.sol\":7323:7334  auctions[i] */\n      dup2\n      mstore\n      0x20\n      add\n      swap1\n      dup2\n      mstore\n      0x20\n      add\n      0x00\n      keccak256\n        /* \"contracts/Ebay.sol\":7304:7334  _auctions[i - 1] = auctions[i] */\n      mload(0x40)\n      dup1\n      0x0100\n      add\n      0x40\n      mstore\n      swap1\n      dup2\n      0x00\n      dup3\n      add\n      sload\n      dup2\n      mstore\n      0x20\n      add\n      0x01\n      dup3\n      add\n      0x00\n      swap1\n      sload\n      swap1\n      0x0100\n      exp\n      swap1\n      div\n      0xffffffffffffffffffffffffffffffffffffffff\n      and\n      0xffffffffffffffffffffffffffffffffffffffff\n      and\n      0xffffffffffffffffffffffffffffffffffffffff\n      and\n      dup2\n      mstore\n      0x20\n      add\n      0x02\n      dup3\n      add\n      dup1\n      sload\n      tag_202\n      swap1\n      tag_65\n      jump\t// in\n    tag_202:\n      dup1\n      0x1f\n      add\n      0x20\n      dup1\n      swap2\n      div\n      mul\n      0x20\n      add\n      mload(0x40)\n      swap1\n      dup2\n      add\n      0x40\n      mstore\n      dup1\n      swap3\n      swap2\n      swap1\n      dup2\n      dup2\n      mstore\n      0x20\n      add\n      dup3\n      dup1\n      sload\n      tag_203\n      swap1\n      tag_65\n      jump\t// in\n    tag_203:\n      dup1\n      iszero\n      tag_204\n      jumpi\n      dup1\n      0x1f\n      lt\n      tag_205\n      jumpi\n      0x0100\n      dup1\n      dup4\n      sload\n      div\n      mul\n      dup4\n      mstore\n      swap2\n      0x20\n      add\n      swap2\n      jump(tag_204)\n    tag_205:\n      dup3\n      add\n      swap2\n      swap1\n      0x00\n      mstore\n      keccak256(0x00, 0x20)\n      swap1\n    tag_206:\n      dup2\n      sload\n      dup2\n      mstore\n      swap1\n      0x01\n      add\n      swap1\n      0x20\n      add\n      dup1\n      dup4\n      gt\n      tag_206\n      jumpi\n      dup3\n      swap1\n      sub\n      0x1f\n      and\n      dup3\n      add\n      swap2\n    tag_204:\n      pop\n      pop\n      pop\n      pop\n      pop\n      dup2\n      mstore\n      0x20\n      add\n      0x03\n      dup3\n      add\n      dup1\n      sload\n      tag_207\n      swap1\n      tag_65\n      jump\t// in\n    tag_207:\n      dup1\n      0x1f\n      add\n      0x20\n      dup1\n      swap2\n      div\n      mul\n      0x20\n      add\n      mload(0x40)\n      swap1\n      dup2\n      add\n      0x40\n      mstore\n      dup1\n      swap3\n      swap2\n      swap1\n      dup2\n      dup2\n      mstore\n      0x20\n      add\n      dup3\n      dup1\n      sload\n      tag_208\n      swap1\n      tag_65\n      jump\t// in\n    tag_208:\n      dup1\n      iszero\n      tag_209\n      jumpi\n      dup1\n      0x1f\n      lt\n      tag_210\n      jumpi\n      0x0100\n      dup1\n      dup4\n      sload\n      div\n      mul\n      dup4\n      mstore\n      swap2\n      0x20\n      add\n      swap2\n      jump(tag_209)\n    tag_210:\n      dup3\n      add\n      swap2\n      swap1\n      0x00\n      mstore\n      keccak256(0x00, 0x20)\n      swap1\n    tag_211:\n      dup2\n      sload\n      dup2\n      mstore\n      swap1\n      0x01\n      add\n      swap1\n      0x20\n      add\n      dup1\n      dup4\n      gt\n      tag_211\n      jumpi\n      dup3\n      swap1\n      sub\n      0x1f\n      and\n      dup3\n      add\n      swap2\n    tag_209:\n      pop\n      pop\n      pop\n      pop\n      pop\n      dup2\n      mstore\n      0x20\n      add\n      0x04\n      dup3\n      add\n      sload\n      dup2\n      mstore\n      0x20\n      add\n      0x05\n      dup3\n      add\n      sload\n      dup2\n      mstore\n      0x20\n      add\n      0x06\n      dup3\n      add\n      sload\n      dup2\n      mstore\n      0x20\n      add\n      0x07\n      dup3\n      add\n      dup1\n      sload\n      dup1\n      0x20\n      mul\n      0x20\n      add\n      mload(0x40)\n      swap1\n      dup2\n      add\n      0x40\n      mstore\n      dup1\n      swap3\n      swap2\n      swap1\n      dup2\n      dup2\n      mstore\n      0x20\n      add\n      dup3\n      dup1\n      sload\n      dup1\n      iszero\n      tag_212\n      jumpi\n      0x20\n      mul\n      dup3\n      add\n      swap2\n      swap1\n      0x00\n      mstore\n      keccak256(0x00, 0x20)\n      swap1\n    tag_213:\n      dup2\n      sload\n      dup2\n      mstore\n      0x20\n      add\n      swap1\n      0x01\n      add\n      swap1\n      dup1\n      dup4\n      gt\n      tag_213\n      jumpi\n    tag_212:\n      pop\n      pop\n      pop\n      pop\n      pop\n      dup2\n      mstore\n      pop\n      pop\n        /* \"contracts/Ebay.sol\":7304:7313  _auctions */\n      dup3\n        /* \"contracts/Ebay.sol\":7318:7319  1 */\n      0x01\n        /* \"contracts/Ebay.sol\":7314:7315  i */\n      dup4\n        /* \"contracts/Ebay.sol\":7314:7319  i - 1 */\n      tag_214\n      swap2\n      swap1\n      tag_192\n      jump\t// in\n    tag_214:\n        /* \"contracts/Ebay.sol\":7304:7320  _auctions[i - 1] */\n      dup2\n      mload\n      dup2\n      lt\n      tag_215\n      jumpi\n      tag_216\n      tag_105\n      jump\t// in\n    tag_216:\n    tag_215:\n      0x20\n      mul\n      0x20\n      add\n      add\n        /* \"contracts/Ebay.sol\":7304:7334  _auctions[i - 1] = auctions[i] */\n      dup2\n      swap1\n      mstore\n      pop\n        /* \"contracts/Ebay.sol\":7285:7288  i++ */\n      dup1\n      dup1\n      tag_217\n      swap1\n      tag_92\n      jump\t// in\n    tag_217:\n      swap2\n      pop\n      pop\n        /* \"contracts/Ebay.sol\":7249:7345  for (uint i = 1; i < nextAuctionId; i++) {... */\n      jump(tag_199)\n    tag_200:\n      pop\n        /* \"contracts/Ebay.sol\":7361:7370  _auctions */\n      dup1\n        /* \"contracts/Ebay.sol\":7354:7370  return _auctions */\n      swap2\n      pop\n      pop\n        /* \"contracts/Ebay.sol\":7104:7377  function getAuctions() external view returns (Auction[] memory) {... */\n      swap1\n      jump\t// out\n        /* \"contracts/Ebay.sol\":6046:7003  function trade(uint _auctionId) external auctionExists(_auctionId) {... */\n    tag_58:\n        /* \"contracts/Ebay.sol\":6101:6111  _auctionId */\n      dup1\n        /* \"contracts/Ebay.sol\":1548:1549  0 */\n      0x00\n        /* \"contracts/Ebay.sol\":1535:1545  _auctionId */\n      dup2\n        /* \"contracts/Ebay.sol\":1535:1549  _auctionId > 0 */\n      gt\n        /* \"contracts/Ebay.sol\":1535:1579  _auctionId > 0 && _auctionId < nextAuctionId */\n      dup1\n      iszero\n      tag_219\n      jumpi\n      pop\n        /* \"contracts/Ebay.sol\":1566:1579  nextAuctionId */\n      sload(0x01)\n        /* \"contracts/Ebay.sol\":1553:1563  _auctionId */\n      dup2\n        /* \"contracts/Ebay.sol\":1553:1579  _auctionId < nextAuctionId */\n      lt\n        /* \"contracts/Ebay.sol\":1535:1579  _auctionId > 0 && _auctionId < nextAuctionId */\n    tag_219:\n        /* \"contracts/Ebay.sol\":1514:1627  require(... */\n      tag_220\n      jumpi\n      mload(0x40)\n      0x08c379a000000000000000000000000000000000000000000000000000000000\n      dup2\n      mstore\n      0x04\n      add\n      tag_221\n      swap1\n      tag_114\n      jump\t// in\n    tag_221:\n      mload(0x40)\n      dup1\n      swap2\n      sub\n      swap1\n      revert\n    tag_220:\n        /* \"contracts/Ebay.sol\":6155:6178  Auction storage auction */\n      0x00\n        /* \"contracts/Ebay.sol\":6181:6189  auctions */\n      dup1\n        /* \"contracts/Ebay.sol\":6181:6201  auctions[_auctionId] */\n      0x00\n        /* \"contracts/Ebay.sol\":6190:6200  _auctionId */\n      dup5\n        /* \"contracts/Ebay.sol\":6181:6201  auctions[_auctionId] */\n      dup2\n      mstore\n      0x20\n      add\n      swap1\n      dup2\n      mstore\n      0x20\n      add\n      0x00\n      keccak256\n        /* \"contracts/Ebay.sol\":6155:6201  Auction storage auction = auctions[_auctionId] */\n      swap1\n      pop\n        /* \"contracts/Ebay.sol\":6247:6270  Offer storage bestOffer */\n      0x00\n        /* \"contracts/Ebay.sol\":6273:6279  offers */\n      0x02\n        /* \"contracts/Ebay.sol\":6273:6300  offers[auction.bestOfferId] */\n      0x00\n        /* \"contracts/Ebay.sol\":6280:6287  auction */\n      dup4\n        /* \"contracts/Ebay.sol\":6280:6299  auction.bestOfferId */\n      0x06\n      add\n      sload\n        /* \"contracts/Ebay.sol\":6273:6300  offers[auction.bestOfferId] */\n      dup2\n      mstore\n      0x20\n      add\n      swap1\n      dup2\n      mstore\n      0x20\n      add\n      0x00\n      keccak256\n        /* \"contracts/Ebay.sol\":6247:6300  Offer storage bestOffer = offers[auction.bestOfferId] */\n      swap1\n      pop\n        /* \"contracts/Ebay.sol\":6388:6395  auction */\n      dup2\n        /* \"contracts/Ebay.sol\":6388:6406  auction.auctionEnd */\n      0x05\n      add\n      sload\n        /* \"contracts/Ebay.sol\":6370:6385  block.timestamp */\n      timestamp\n        /* \"contracts/Ebay.sol\":6370:6406  block.timestamp > auction.auctionEnd */\n      gt\n        /* \"contracts/Ebay.sol\":6349:6455  require(... */\n      tag_223\n      jumpi\n      mload(0x40)\n      0x08c379a000000000000000000000000000000000000000000000000000000000\n      dup2\n      mstore\n      0x04\n      add\n      tag_224\n      swap1\n      tag_225\n      jump\t// in\n    tag_224:\n      mload(0x40)\n      dup1\n      swap2\n      sub\n      swap1\n      revert\n    tag_223:\n        /* \"contracts/Ebay.sol\":6510:6516  uint i */\n      0x00\n        /* \"contracts/Ebay.sol\":6505:6882  for (uint i = 0; i < auction.offerIds.length; i++) {... */\n    tag_226:\n        /* \"contracts/Ebay.sol\":6526:6533  auction */\n      dup3\n        /* \"contracts/Ebay.sol\":6526:6542  auction.offerIds */\n      0x07\n      add\n        /* \"contracts/Ebay.sol\":6526:6549  auction.offerIds.length */\n      dup1\n      sload\n      swap1\n      pop\n        /* \"contracts/Ebay.sol\":6522:6523  i */\n      dup2\n        /* \"contracts/Ebay.sol\":6522:6549  i < auction.offerIds.length */\n      lt\n        /* \"contracts/Ebay.sol\":6505:6882  for (uint i = 0; i < auction.offerIds.length; i++) {... */\n      iszero\n      tag_227\n      jumpi\n        /* \"contracts/Ebay.sol\":6570:6582  uint offerId */\n      0x00\n        /* \"contracts/Ebay.sol\":6585:6592  auction */\n      dup4\n        /* \"contracts/Ebay.sol\":6585:6601  auction.offerIds */\n      0x07\n      add\n        /* \"contracts/Ebay.sol\":6602:6603  i */\n      dup3\n        /* \"contracts/Ebay.sol\":6585:6604  auction.offerIds[i] */\n      dup2\n      sload\n      dup2\n      lt\n      tag_229\n      jumpi\n      tag_230\n      tag_105\n      jump\t// in\n    tag_230:\n    tag_229:\n      swap1\n      0x00\n      mstore\n      keccak256(0x00, 0x20)\n      add\n      sload\n        /* \"contracts/Ebay.sol\":6570:6604  uint offerId = auction.offerIds[i] */\n      swap1\n      pop\n        /* \"contracts/Ebay.sol\":6618:6637  Offer storage offer */\n      0x00\n        /* \"contracts/Ebay.sol\":6640:6646  offers */\n      0x02\n        /* \"contracts/Ebay.sol\":6640:6655  offers[offerId] */\n      0x00\n        /* \"contracts/Ebay.sol\":6647:6654  offerId */\n      dup4\n        /* \"contracts/Ebay.sol\":6640:6655  offers[offerId] */\n      dup2\n      mstore\n      0x20\n      add\n      swap1\n      dup2\n      mstore\n      0x20\n      add\n      0x00\n      keccak256\n        /* \"contracts/Ebay.sol\":6618:6655  Offer storage offer = offers[offerId] */\n      swap1\n      pop\n        /* \"contracts/Ebay.sol\":6778:6787  bestOffer */\n      dup4\n        /* \"contracts/Ebay.sol\":6778:6790  bestOffer.id */\n      0x00\n      add\n      sload\n        /* \"contracts/Ebay.sol\":6767:6774  offerId */\n      dup3\n        /* \"contracts/Ebay.sol\":6767:6790  offerId != bestOffer.id */\n      eq\n        /* \"contracts/Ebay.sol\":6763:6872  if (offerId != bestOffer.id) {... */\n      tag_232\n      jumpi\n        /* \"contracts/Ebay.sol\":6818:6823  offer */\n      dup1\n        /* \"contracts/Ebay.sol\":6818:6829  offer.buyer */\n      0x02\n      add\n      0x00\n      swap1\n      sload\n      swap1\n      0x0100\n      exp\n      swap1\n      div\n      0xffffffffffffffffffffffffffffffffffffffff\n      and\n        /* \"contracts/Ebay.sol\":6810:6839  payable(offer.buyer).transfer */\n      0xffffffffffffffffffffffffffffffffffffffff\n      and\n        /* \"contracts/Ebay.sol\":6810:6857  payable(offer.buyer).transfer(offer.offerPrice) */\n      0x08fc\n        /* \"contracts/Ebay.sol\":6840:6845  offer */\n      dup3\n        /* \"contracts/Ebay.sol\":6840:6856  offer.offerPrice */\n      0x03\n      add\n      sload\n        /* \"contracts/Ebay.sol\":6810:6857  payable(offer.buyer).transfer(offer.offerPrice) */\n      swap1\n      dup2\n      iszero\n      mul\n      swap1\n      mload(0x40)\n      0x00\n      mload(0x40)\n      dup1\n      dup4\n      sub\n      dup2\n      dup6\n      dup9\n      dup9\n      call\n      swap4\n      pop\n      pop\n      pop\n      pop\n      iszero\n      dup1\n      iszero\n      tag_234\n      jumpi\n      returndatasize\n      0x00\n      dup1\n      returndatacopy\n      revert(0x00, returndatasize)\n    tag_234:\n      pop\n        /* \"contracts/Ebay.sol\":6763:6872  if (offerId != bestOffer.id) {... */\n    tag_232:\n        /* \"contracts/Ebay.sol\":6556:6882  {... */\n      pop\n      pop\n        /* \"contracts/Ebay.sol\":6551:6554  i++ */\n      dup1\n      dup1\n      tag_235\n      swap1\n      tag_92\n      jump\t// in\n    tag_235:\n      swap2\n      pop\n      pop\n        /* \"contracts/Ebay.sol\":6505:6882  for (uint i = 0; i < auction.offerIds.length; i++) {... */\n      jump(tag_226)\n    tag_227:\n      pop\n        /* \"contracts/Ebay.sol\":6950:6957  auction */\n      dup2\n        /* \"contracts/Ebay.sol\":6950:6964  auction.seller */\n      0x01\n      add\n      0x00\n      swap1\n      sload\n      swap1\n      0x0100\n      exp\n      swap1\n      div\n      0xffffffffffffffffffffffffffffffffffffffff\n      and\n        /* \"contracts/Ebay.sol\":6942:6974  payable(auction.seller).transfer */\n      0xffffffffffffffffffffffffffffffffffffffff\n      and\n        /* \"contracts/Ebay.sol\":6942:6996  payable(auction.seller).transfer(bestOffer.offerPrice) */\n      0x08fc\n        /* \"contracts/Ebay.sol\":6975:6984  bestOffer */\n      dup3\n        /* \"contracts/Ebay.sol\":6975:6995  bestOffer.offerPrice */\n      0x03\n      add\n      sload\n        /* \"contracts/Ebay.sol\":6942:6996  payable(auction.seller).transfer(bestOffer.offerPrice) */\n      swap1\n      dup2\n      iszero\n      mul\n      swap1\n      mload(0x40)\n      0x00\n      mload(0x40)\n      dup1\n      dup4\n      sub\n      dup2\n      dup6\n      dup9\n      dup9\n      call\n      swap4\n      pop\n      pop\n      pop\n      pop\n      iszero\n      dup1\n      iszero\n      tag_237\n      jumpi\n      returndatasize\n      0x00\n      dup1\n      returndatacopy\n      revert(0x00, returndatasize)\n    tag_237:\n      pop\n        /* \"contracts/Ebay.sol\":6113:7003  {... */\n      pop\n      pop\n        /* \"contracts/Ebay.sol\":6046:7003  function trade(uint _auctionId) external auctionExists(_auctionId) {... */\n      pop\n      pop\n      jump\t// out\n        /* \"contracts/Ebay.sol\":7469:7912  function getUserAuctions(address _user)... */\n    tag_62:\n        /* \"contracts/Ebay.sol\":7556:7572  Auction[] memory */\n      0x60\n        /* \"contracts/Ebay.sol\":7588:7617  uint[] storage userAuctionIds */\n      0x00\n        /* \"contracts/Ebay.sol\":7620:7632  userAuctions */\n      0x04\n        /* \"contracts/Ebay.sol\":7620:7639  userAuctions[_user] */\n      0x00\n        /* \"contracts/Ebay.sol\":7633:7638  _user */\n      dup5\n        /* \"contracts/Ebay.sol\":7620:7639  userAuctions[_user] */\n      0xffffffffffffffffffffffffffffffffffffffff\n      and\n      0xffffffffffffffffffffffffffffffffffffffff\n      and\n      dup2\n      mstore\n      0x20\n      add\n      swap1\n      dup2\n      mstore\n      0x20\n      add\n      0x00\n      keccak256\n        /* \"contracts/Ebay.sol\":7588:7639  uint[] storage userAuctionIds = userAuctions[_user] */\n      swap1\n      pop\n        /* \"contracts/Ebay.sol\":7649:7675  Auction[] memory _auctions */\n      0x00\n        /* \"contracts/Ebay.sol\":7692:7706  userAuctionIds */\n      dup2\n        /* \"contracts/Ebay.sol\":7692:7713  userAuctionIds.length */\n      dup1\n      sload\n      swap1\n      pop\n        /* \"contracts/Ebay.sol\":7678:7714  new Auction[](userAuctionIds.length) */\n      0xffffffffffffffff\n      dup2\n      gt\n      iszero\n      tag_239\n      jumpi\n      tag_240\n      tag_81\n      jump\t// in\n    tag_240:\n    tag_239:\n      mload(0x40)\n      swap1\n      dup1\n      dup3\n      mstore\n      dup1\n      0x20\n      mul\n      0x20\n      add\n      dup3\n      add\n      0x40\n      mstore\n      dup1\n      iszero\n      tag_241\n      jumpi\n      dup2\n      0x20\n      add\n    tag_242:\n      tag_243\n      tag_198\n      jump\t// in\n    tag_243:\n      dup2\n      mstore\n      0x20\n      add\n      swap1\n      0x01\n      swap1\n      sub\n      swap1\n      dup2\n      tag_242\n      jumpi\n      swap1\n      pop\n    tag_241:\n      pop\n        /* \"contracts/Ebay.sol\":7649:7714  Auction[] memory _auctions = new Auction[](userAuctionIds.length) */\n      swap1\n      pop\n        /* \"contracts/Ebay.sol\":7729:7735  uint i */\n      0x00\n        /* \"contracts/Ebay.sol\":7724:7880  for (uint i = 0; i < userAuctionIds.length; i++) {... */\n    tag_244:\n        /* \"contracts/Ebay.sol\":7745:7759  userAuctionIds */\n      dup3\n        /* \"contracts/Ebay.sol\":7745:7766  userAuctionIds.length */\n      dup1\n      sload\n      swap1\n      pop\n        /* \"contracts/Ebay.sol\":7741:7742  i */\n      dup2\n        /* \"contracts/Ebay.sol\":7741:7766  i < userAuctionIds.length */\n      lt\n        /* \"contracts/Ebay.sol\":7724:7880  for (uint i = 0; i < userAuctionIds.length; i++) {... */\n      iszero\n      tag_245\n      jumpi\n        /* \"contracts/Ebay.sol\":7787:7801  uint auctionId */\n      0x00\n        /* \"contracts/Ebay.sol\":7804:7818  userAuctionIds */\n      dup4\n        /* \"contracts/Ebay.sol\":7819:7820  i */\n      dup3\n        /* \"contracts/Ebay.sol\":7804:7821  userAuctionIds[i] */\n      dup2\n      sload\n      dup2\n      lt\n      tag_247\n      jumpi\n      tag_248\n      tag_105\n      jump\t// in\n    tag_248:\n    tag_247:\n      swap1\n      0x00\n      mstore\n      keccak256(0x00, 0x20)\n      add\n      sload\n        /* \"contracts/Ebay.sol\":7787:7821  uint auctionId = userAuctionIds[i] */\n      swap1\n      pop\n        /* \"contracts/Ebay.sol\":7850:7858  auctions */\n      0x00\n        /* \"contracts/Ebay.sol\":7850:7869  auctions[auctionId] */\n      dup1\n        /* \"contracts/Ebay.sol\":7859:7868  auctionId */\n      dup3\n        /* \"contracts/Ebay.sol\":7850:7869  auctions[auctionId] */\n      dup2\n      mstore\n      0x20\n      add\n      swap1\n      dup2\n      mstore\n      0x20\n      add\n      0x00\n      keccak256\n        /* \"contracts/Ebay.sol\":7835:7869  _auctions[i] = auctions[auctionId] */\n      mload(0x40)\n      dup1\n      0x0100\n      add\n      0x40\n      mstore\n      swap1\n      dup2\n      0x00\n      dup3\n      add\n      sload\n      dup2\n      mstore\n      0x20\n      add\n      0x01\n      dup3\n      add\n      0x00\n      swap1\n      sload\n      swap1\n      0x0100\n      exp\n      swap1\n      div\n      0xffffffffffffffffffffffffffffffffffffffff\n      and\n      0xffffffffffffffffffffffffffffffffffffffff\n      and\n      0xffffffffffffffffffffffffffffffffffffffff\n      and\n      dup2\n      mstore\n      0x20\n      add\n      0x02\n      dup3\n      add\n      dup1\n      sload\n      tag_250\n      swap1\n      tag_65\n      jump\t// in\n    tag_250:\n      dup1\n      0x1f\n      add\n      0x20\n      dup1\n      swap2\n      div\n      mul\n      0x20\n      add\n      mload(0x40)\n      swap1\n      dup2\n      add\n      0x40\n      mstore\n      dup1\n      swap3\n      swap2\n      swap1\n      dup2\n      dup2\n      mstore\n      0x20\n      add\n      dup3\n      dup1\n      sload\n      tag_251\n      swap1\n      tag_65\n      jump\t// in\n    tag_251:\n      dup1\n      iszero\n      tag_252\n      jumpi\n      dup1\n      0x1f\n      lt\n      tag_253\n      jumpi\n      0x0100\n      dup1\n      dup4\n      sload\n      div\n      mul\n      dup4\n      mstore\n      swap2\n      0x20\n      add\n      swap2\n      jump(tag_252)\n    tag_253:\n      dup3\n      add\n      swap2\n      swap1\n      0x00\n      mstore\n      keccak256(0x00, 0x20)\n      swap1\n    tag_254:\n      dup2\n      sload\n      dup2\n      mstore\n      swap1\n      0x01\n      add\n      swap1\n      0x20\n      add\n      dup1\n      dup4\n      gt\n      tag_254\n      jumpi\n      dup3\n      swap1\n      sub\n      0x1f\n      and\n      dup3\n      add\n      swap2\n    tag_252:\n      pop\n      pop\n      pop\n      pop\n      pop\n      dup2\n      mstore\n      0x20\n      add\n      0x03\n      dup3\n      add\n      dup1\n      sload\n      tag_255\n      swap1\n      tag_65\n      jump\t// in\n    tag_255:\n      dup1\n      0x1f\n      add\n      0x20\n      dup1\n      swap2\n      div\n      mul\n      0x20\n      add\n      mload(0x40)\n      swap1\n      dup2\n      add\n      0x40\n      mstore\n      dup1\n      swap3\n      swap2\n      swap1\n      dup2\n      dup2\n      mstore\n      0x20\n      add\n      dup3\n      dup1\n      sload\n      tag_256\n      swap1\n      tag_65\n      jump\t// in\n    tag_256:\n      dup1\n      iszero\n      tag_257\n      jumpi\n      dup1\n      0x1f\n      lt\n      tag_258\n      jumpi\n      0x0100\n      dup1\n      dup4\n      sload\n      div\n      mul\n      dup4\n      mstore\n      swap2\n      0x20\n      add\n      swap2\n      jump(tag_257)\n    tag_258:\n      dup3\n      add\n      swap2\n      swap1\n      0x00\n      mstore\n      keccak256(0x00, 0x20)\n      swap1\n    tag_259:\n      dup2\n      sload\n      dup2\n      mstore\n      swap1\n      0x01\n      add\n      swap1\n      0x20\n      add\n      dup1\n      dup4\n      gt\n      tag_259\n      jumpi\n      dup3\n      swap1\n      sub\n      0x1f\n      and\n      dup3\n      add\n      swap2\n    tag_257:\n      pop\n      pop\n      pop\n      pop\n      pop\n      dup2\n      mstore\n      0x20\n      add\n      0x04\n      dup3\n      add\n      sload\n      dup2\n      mstore\n      0x20\n      add\n      0x05\n      dup3\n      add\n      sload\n      dup2\n      mstore\n      0x20\n      add\n      0x06\n      dup3\n      add\n      sload\n      dup2\n      mstore\n      0x20\n      add\n      0x07\n      dup3\n      add\n      dup1\n      sload\n      dup1\n      0x20\n      mul\n      0x20\n      add\n      mload(0x40)\n      swap1\n      dup2\n      add\n      0x40\n      mstore\n      dup1\n      swap3\n      swap2\n      swap1\n      dup2\n      dup2\n      mstore\n      0x20\n      add\n      dup3\n      dup1\n      sload\n      dup1\n      iszero\n      tag_260\n      jumpi\n      0x20\n      mul\n      dup3\n      add\n      swap2\n      swap1\n      0x00\n      mstore\n      keccak256(0x00, 0x20)\n      swap1\n    tag_261:\n      dup2\n      sload\n      dup2\n      mstore\n      0x20\n      add\n      swap1\n      0x01\n      add\n      swap1\n      dup1\n      dup4\n      gt\n      tag_261\n      jumpi\n    tag_260:\n      pop\n      pop\n      pop\n      pop\n      pop\n      dup2\n      mstore\n      pop\n      pop\n        /* \"contracts/Ebay.sol\":7835:7844  _auctions */\n      dup4\n        /* \"contracts/Ebay.sol\":7845:7846  i */\n      dup4\n        /* \"contracts/Ebay.sol\":7835:7847  _auctions[i] */\n      dup2\n      mload\n      dup2\n      lt\n      tag_262\n      jumpi\n      tag_263\n      tag_105\n      jump\t// in\n    tag_263:\n    tag_262:\n      0x20\n      mul\n      0x20\n      add\n      add\n        /* \"contracts/Ebay.sol\":7835:7869  _auctions[i] = auctions[auctionId] */\n      dup2\n      swap1\n      mstore\n      pop\n        /* \"contracts/Ebay.sol\":7773:7880  {... */\n      pop\n        /* \"contracts/Ebay.sol\":7768:7771  i++ */\n      dup1\n      dup1\n      tag_264\n      swap1\n      tag_92\n      jump\t// in\n    tag_264:\n      swap2\n      pop\n      pop\n        /* \"contracts/Ebay.sol\":7724:7880  for (uint i = 0; i < userAuctionIds.length; i++) {... */\n      jump(tag_244)\n    tag_245:\n      pop\n        /* \"contracts/Ebay.sol\":7896:7905  _auctions */\n      dup1\n        /* \"contracts/Ebay.sol\":7889:7905  return _auctions */\n      swap3\n      pop\n      pop\n      pop\n        /* \"contracts/Ebay.sol\":7469:7912  function getUserAuctions(address _user)... */\n      swap2\n      swap1\n      pop\n      jump\t// out\n    tag_89:\n      dup3\n      dup1\n      sload\n      dup3\n      dup3\n      sstore\n      swap1\n      0x00\n      mstore\n      keccak256(0x00, 0x20)\n      swap1\n      dup2\n      add\n      swap3\n      dup3\n      iszero\n      tag_265\n      jumpi\n      swap2\n      0x20\n      mul\n      dup3\n      add\n    tag_266:\n      dup3\n      dup2\n      gt\n      iszero\n      tag_267\n      jumpi\n      dup3\n      mload\n      dup3\n      sstore\n      swap2\n      0x20\n      add\n      swap2\n      swap1\n      0x01\n      add\n      swap1\n      jump(tag_266)\n    tag_267:\n    tag_265:\n      pop\n      swap1\n      pop\n      tag_268\n      swap2\n      swap1\n      tag_269\n      jump\t// in\n    tag_268:\n      pop\n      swap1\n      jump\t// out\n    tag_99:\n      mload(0x40)\n      dup1\n      0x80\n      add\n      0x40\n      mstore\n      dup1\n      0x00\n      dup2\n      mstore\n      0x20\n      add\n      0x00\n      dup2\n      mstore\n      0x20\n      add\n      and(0xffffffffffffffffffffffffffffffffffffffff, 0x00)\n      dup2\n      mstore\n      0x20\n      add\n      0x00\n      dup2\n      mstore\n      pop\n      swap1\n      jump\t// out\n    tag_151:\n      pop\n      dup1\n      sload\n      tag_270\n      swap1\n      tag_65\n      jump\t// in\n    tag_270:\n      0x00\n      dup3\n      sstore\n      dup1\n      0x1f\n      lt\n      tag_272\n      jumpi\n      pop\n      jump(tag_271)\n    tag_272:\n      0x1f\n      add\n      0x20\n      swap1\n      div\n      swap1\n      0x00\n      mstore\n      keccak256(0x00, 0x20)\n      swap1\n      dup2\n      add\n      swap1\n      tag_273\n      swap2\n      swap1\n      tag_269\n      jump\t// in\n    tag_273:\n    tag_271:\n      pop\n      jump\t// out\n    tag_154:\n      pop\n      dup1\n      sload\n      0x00\n      dup3\n      sstore\n      swap1\n      0x00\n      mstore\n      keccak256(0x00, 0x20)\n      swap1\n      dup2\n      add\n      swap1\n      tag_275\n      swap2\n      swap1\n      tag_269\n      jump\t// in\n    tag_275:\n      pop\n      jump\t// out\n    tag_198:\n      mload(0x40)\n      dup1\n      0x0100\n      add\n      0x40\n      mstore\n      dup1\n      0x00\n      dup2\n      mstore\n      0x20\n      add\n      and(0xffffffffffffffffffffffffffffffffffffffff, 0x00)\n      dup2\n      mstore\n      0x20\n      add\n      0x60\n      dup2\n      mstore\n      0x20\n      add\n      0x60\n      dup2\n      mstore\n      0x20\n      add\n      0x00\n      dup2\n      mstore\n      0x20\n      add\n      0x00\n      dup2\n      mstore\n      0x20\n      add\n      0x00\n      dup2\n      mstore\n      0x20\n      add\n      0x60\n      dup2\n      mstore\n      pop\n      swap1\n      jump\t// out\n    tag_269:\n    tag_276:\n      dup1\n      dup3\n      gt\n      iszero\n      tag_277\n      jumpi\n      0x00\n      dup2\n      0x00\n      swap1\n      sstore\n      pop\n      0x01\n      add\n      jump(tag_276)\n    tag_277:\n      pop\n      swap1\n      jump\t// out\n        /* \"#utility.yul\":88:205   */\n    tag_279:\n        /* \"#utility.yul\":197:198   */\n      0x00\n        /* \"#utility.yul\":194:195   */\n      dup1\n        /* \"#utility.yul\":187:199   */\n      revert\n        /* \"#utility.yul\":211:328   */\n    tag_280:\n        /* \"#utility.yul\":320:321   */\n      0x00\n        /* \"#utility.yul\":317:318   */\n      dup1\n        /* \"#utility.yul\":310:322   */\n      revert\n        /* \"#utility.yul\":334:411   */\n    tag_281:\n        /* \"#utility.yul\":371:378   */\n      0x00\n        /* \"#utility.yul\":400:405   */\n      dup2\n        /* \"#utility.yul\":389:405   */\n      swap1\n      pop\n        /* \"#utility.yul\":334:411   */\n      swap2\n      swap1\n      pop\n      jump\t// out\n        /* \"#utility.yul\":417:539   */\n    tag_282:\n        /* \"#utility.yul\":490:514   */\n      tag_356\n        /* \"#utility.yul\":508:513   */\n      dup2\n        /* \"#utility.yul\":490:514   */\n      tag_281\n      jump\t// in\n    tag_356:\n        /* \"#utility.yul\":483:488   */\n      dup2\n        /* \"#utility.yul\":480:515   */\n      eq\n        /* \"#utility.yul\":470:533   */\n      tag_357\n      jumpi\n        /* \"#utility.yul\":529:530   */\n      0x00\n        /* \"#utility.yul\":526:527   */\n      dup1\n        /* \"#utility.yul\":519:531   */\n      revert\n        /* \"#utility.yul\":470:533   */\n    tag_357:\n        /* \"#utility.yul\":417:539   */\n      pop\n      jump\t// out\n        /* \"#utility.yul\":545:684   */\n    tag_283:\n        /* \"#utility.yul\":591:596   */\n      0x00\n        /* \"#utility.yul\":629:635   */\n      dup2\n        /* \"#utility.yul\":616:636   */\n      calldataload\n        /* \"#utility.yul\":607:636   */\n      swap1\n      pop\n        /* \"#utility.yul\":645:678   */\n      tag_359\n        /* \"#utility.yul\":672:677   */\n      dup2\n        /* \"#utility.yul\":645:678   */\n      tag_282\n      jump\t// in\n    tag_359:\n        /* \"#utility.yul\":545:684   */\n      swap3\n      swap2\n      pop\n      pop\n      jump\t// out\n        /* \"#utility.yul\":690:1019   */\n    tag_16:\n        /* \"#utility.yul\":749:755   */\n      0x00\n        /* \"#utility.yul\":798:800   */\n      0x20\n        /* \"#utility.yul\":786:795   */\n      dup3\n        /* \"#utility.yul\":777:784   */\n      dup5\n        /* \"#utility.yul\":773:796   */\n      sub\n        /* \"#utility.yul\":769:801   */\n      slt\n        /* \"#utility.yul\":766:885   */\n      iszero\n      tag_361\n      jumpi\n        /* \"#utility.yul\":804:883   */\n      tag_362\n      tag_279\n      jump\t// in\n    tag_362:\n        /* \"#utility.yul\":766:885   */\n    tag_361:\n        /* \"#utility.yul\":924:925   */\n      0x00\n        /* \"#utility.yul\":949:1002   */\n      tag_363\n        /* \"#utility.yul\":994:1001   */\n      dup5\n        /* \"#utility.yul\":985:991   */\n      dup3\n        /* \"#utility.yul\":974:983   */\n      dup6\n        /* \"#utility.yul\":970:992   */\n      add\n        /* \"#utility.yul\":949:1002   */\n      tag_283\n      jump\t// in\n    tag_363:\n        /* \"#utility.yul\":939:1002   */\n      swap2\n      pop\n        /* \"#utility.yul\":895:1012   */\n      pop\n        /* \"#utility.yul\":690:1019   */\n      swap3\n      swap2\n      pop\n      pop\n      jump\t// out\n        /* \"#utility.yul\":1025:1143   */\n    tag_284:\n        /* \"#utility.yul\":1112:1136   */\n      tag_365\n        /* \"#utility.yul\":1130:1135   */\n      dup2\n        /* \"#utility.yul\":1112:1136   */\n      tag_281\n      jump\t// in\n    tag_365:\n        /* \"#utility.yul\":1107:1110   */\n      dup3\n        /* \"#utility.yul\":1100:1137   */\n      mstore\n        /* \"#utility.yul\":1025:1143   */\n      pop\n      pop\n      jump\t// out\n        /* \"#utility.yul\":1149:1275   */\n    tag_285:\n        /* \"#utility.yul\":1186:1193   */\n      0x00\n        /* \"#utility.yul\":1226:1268   */\n      0xffffffffffffffffffffffffffffffffffffffff\n        /* \"#utility.yul\":1219:1224   */\n      dup3\n        /* \"#utility.yul\":1215:1269   */\n      and\n        /* \"#utility.yul\":1204:1269   */\n      swap1\n      pop\n        /* \"#utility.yul\":1149:1275   */\n      swap2\n      swap1\n      pop\n      jump\t// out\n        /* \"#utility.yul\":1281:1377   */\n    tag_286:\n        /* \"#utility.yul\":1318:1325   */\n      0x00\n        /* \"#utility.yul\":1347:1371   */\n      tag_368\n        /* \"#utility.yul\":1365:1370   */\n      dup3\n        /* \"#utility.yul\":1347:1371   */\n      tag_285\n      jump\t// in\n    tag_368:\n        /* \"#utility.yul\":1336:1371   */\n      swap1\n      pop\n        /* \"#utility.yul\":1281:1377   */\n      swap2\n      swap1\n      pop\n      jump\t// out\n        /* \"#utility.yul\":1383:1501   */\n    tag_287:\n        /* \"#utility.yul\":1470:1494   */\n      tag_370\n        /* \"#utility.yul\":1488:1493   */\n      dup2\n        /* \"#utility.yul\":1470:1494   */\n      tag_286\n      jump\t// in\n    tag_370:\n        /* \"#utility.yul\":1465:1468   */\n      dup3\n        /* \"#utility.yul\":1458:1495   */\n      mstore\n        /* \"#utility.yul\":1383:1501   */\n      pop\n      pop\n      jump\t// out\n        /* \"#utility.yul\":1507:1606   */\n    tag_288:\n        /* \"#utility.yul\":1559:1565   */\n      0x00\n        /* \"#utility.yul\":1593:1598   */\n      dup2\n        /* \"#utility.yul\":1587:1599   */\n      mload\n        /* \"#utility.yul\":1577:1599   */\n      swap1\n      pop\n        /* \"#utility.yul\":1507:1606   */\n      swap2\n      swap1\n      pop\n      jump\t// out\n        /* \"#utility.yul\":1612:1781   */\n    tag_289:\n        /* \"#utility.yul\":1696:1707   */\n      0x00\n        /* \"#utility.yul\":1730:1736   */\n      dup3\n        /* \"#utility.yul\":1725:1728   */\n      dup3\n        /* \"#utility.yul\":1718:1737   */\n      mstore\n        /* \"#utility.yul\":1770:1774   */\n      0x20\n        /* \"#utility.yul\":1765:1768   */\n      dup3\n        /* \"#utility.yul\":1761:1775   */\n      add\n        /* \"#utility.yul\":1746:1775   */\n      swap1\n      pop\n        /* \"#utility.yul\":1612:1781   */\n      swap3\n      swap2\n      pop\n      pop\n      jump\t// out\n        /* \"#utility.yul\":1787:2094   */\n    tag_290:\n        /* \"#utility.yul\":1855:1856   */\n      0x00\n        /* \"#utility.yul\":1865:1978   */\n    tag_374:\n        /* \"#utility.yul\":1879:1885   */\n      dup4\n        /* \"#utility.yul\":1876:1877   */\n      dup2\n        /* \"#utility.yul\":1873:1886   */\n      lt\n        /* \"#utility.yul\":1865:1978   */\n      iszero\n      tag_376\n      jumpi\n        /* \"#utility.yul\":1964:1965   */\n      dup1\n        /* \"#utility.yul\":1959:1962   */\n      dup3\n        /* \"#utility.yul\":1955:1966   */\n      add\n        /* \"#utility.yul\":1949:1967   */\n      mload\n        /* \"#utility.yul\":1945:1946   */\n      dup2\n        /* \"#utility.yul\":1940:1943   */\n      dup5\n        /* \"#utility.yul\":1936:1947   */\n      add\n        /* \"#utility.yul\":1929:1968   */\n      mstore\n        /* \"#utility.yul\":1901:1903   */\n      0x20\n        /* \"#utility.yul\":1898:1899   */\n      dup2\n        /* \"#utility.yul\":1894:1904   */\n      add\n        /* \"#utility.yul\":1889:1904   */\n      swap1\n      pop\n        /* \"#utility.yul\":1865:1978   */\n      jump(tag_374)\n    tag_376:\n        /* \"#utility.yul\":1996:2002   */\n      dup4\n        /* \"#utility.yul\":1993:1994   */\n      dup2\n        /* \"#utility.yul\":1990:2003   */\n      gt\n        /* \"#utility.yul\":1987:2088   */\n      iszero\n      tag_377\n      jumpi\n        /* \"#utility.yul\":2076:2077   */\n      0x00\n        /* \"#utility.yul\":2067:2073   */\n      dup5\n        /* \"#utility.yul\":2062:2065   */\n      dup5\n        /* \"#utility.yul\":2058:2074   */\n      add\n        /* \"#utility.yul\":2051:2078   */\n      mstore\n        /* \"#utility.yul\":1987:2088   */\n    tag_377:\n        /* \"#utility.yul\":1836:2094   */\n      pop\n        /* \"#utility.yul\":1787:2094   */\n      pop\n      pop\n      pop\n      jump\t// out\n        /* \"#utility.yul\":2100:2202   */\n    tag_291:\n        /* \"#utility.yul\":2141:2147   */\n      0x00\n        /* \"#utility.yul\":2192:2194   */\n      0x1f\n        /* \"#utility.yul\":2188:2195   */\n      not\n        /* \"#utility.yul\":2183:2185   */\n      0x1f\n        /* \"#utility.yul\":2176:2181   */\n      dup4\n        /* \"#utility.yul\":2172:2186   */\n      add\n        /* \"#utility.yul\":2168:2196   */\n      and\n        /* \"#utility.yul\":2158:2196   */\n      swap1\n      pop\n        /* \"#utility.yul\":2100:2202   */\n      swap2\n      swap1\n      pop\n      jump\t// out\n        /* \"#utility.yul\":2208:2572   */\n    tag_292:\n        /* \"#utility.yul\":2296:2299   */\n      0x00\n        /* \"#utility.yul\":2324:2363   */\n      tag_380\n        /* \"#utility.yul\":2357:2362   */\n      dup3\n        /* \"#utility.yul\":2324:2363   */\n      tag_288\n      jump\t// in\n    tag_380:\n        /* \"#utility.yul\":2379:2450   */\n      tag_381\n        /* \"#utility.yul\":2443:2449   */\n      dup2\n        /* \"#utility.yul\":2438:2441   */\n      dup6\n        /* \"#utility.yul\":2379:2450   */\n      tag_289\n      jump\t// in\n    tag_381:\n        /* \"#utility.yul\":2372:2450   */\n      swap4\n      pop\n        /* \"#utility.yul\":2459:2511   */\n      tag_382\n        /* \"#utility.yul\":2504:2510   */\n      dup2\n        /* \"#utility.yul\":2499:2502   */\n      dup6\n        /* \"#utility.yul\":2492:2496   */\n      0x20\n        /* \"#utility.yul\":2485:2490   */\n      dup7\n        /* \"#utility.yul\":2481:2497   */\n      add\n        /* \"#utility.yul\":2459:2511   */\n      tag_290\n      jump\t// in\n    tag_382:\n        /* \"#utility.yul\":2536:2565   */\n      tag_383\n        /* \"#utility.yul\":2558:2564   */\n      dup2\n        /* \"#utility.yul\":2536:2565   */\n      tag_291\n      jump\t// in\n    tag_383:\n        /* \"#utility.yul\":2531:2534   */\n      dup5\n        /* \"#utility.yul\":2527:2566   */\n      add\n        /* \"#utility.yul\":2520:2566   */\n      swap2\n      pop\n        /* \"#utility.yul\":2300:2572   */\n      pop\n        /* \"#utility.yul\":2208:2572   */\n      swap3\n      swap2\n      pop\n      pop\n      jump\t// out\n        /* \"#utility.yul\":2578:3646   */\n    tag_19:\n        /* \"#utility.yul\":2879:2883   */\n      0x00\n        /* \"#utility.yul\":2917:2920   */\n      0xe0\n        /* \"#utility.yul\":2906:2915   */\n      dup3\n        /* \"#utility.yul\":2902:2921   */\n      add\n        /* \"#utility.yul\":2894:2921   */\n      swap1\n      pop\n        /* \"#utility.yul\":2931:3002   */\n      tag_385\n        /* \"#utility.yul\":2999:3000   */\n      0x00\n        /* \"#utility.yul\":2988:2997   */\n      dup4\n        /* \"#utility.yul\":2984:3001   */\n      add\n        /* \"#utility.yul\":2975:2981   */\n      dup11\n        /* \"#utility.yul\":2931:3002   */\n      tag_284\n      jump\t// in\n    tag_385:\n        /* \"#utility.yul\":3012:3084   */\n      tag_386\n        /* \"#utility.yul\":3080:3082   */\n      0x20\n        /* \"#utility.yul\":3069:3078   */\n      dup4\n        /* \"#utility.yul\":3065:3083   */\n      add\n        /* \"#utility.yul\":3056:3062   */\n      dup10\n        /* \"#utility.yul\":3012:3084   */\n      tag_287\n      jump\t// in\n    tag_386:\n        /* \"#utility.yul\":3131:3140   */\n      dup2\n        /* \"#utility.yul\":3125:3129   */\n      dup2\n        /* \"#utility.yul\":3121:3141   */\n      sub\n        /* \"#utility.yul\":3116:3118   */\n      0x40\n        /* \"#utility.yul\":3105:3114   */\n      dup4\n        /* \"#utility.yul\":3101:3119   */\n      add\n        /* \"#utility.yul\":3094:3142   */\n      mstore\n        /* \"#utility.yul\":3159:3237   */\n      tag_387\n        /* \"#utility.yul\":3232:3236   */\n      dup2\n        /* \"#utility.yul\":3223:3229   */\n      dup9\n        /* \"#utility.yul\":3159:3237   */\n      tag_292\n      jump\t// in\n    tag_387:\n        /* \"#utility.yul\":3151:3237   */\n      swap1\n      pop\n        /* \"#utility.yul\":3284:3293   */\n      dup2\n        /* \"#utility.yul\":3278:3282   */\n      dup2\n        /* \"#utility.yul\":3274:3294   */\n      sub\n        /* \"#utility.yul\":3269:3271   */\n      0x60\n        /* \"#utility.yul\":3258:3267   */\n      dup4\n        /* \"#utility.yul\":3254:3272   */\n      add\n        /* \"#utility.yul\":3247:3295   */\n      mstore\n        /* \"#utility.yul\":3312:3390   */\n      tag_388\n        /* \"#utility.yul\":3385:3389   */\n      dup2\n        /* \"#utility.yul\":3376:3382   */\n      dup8\n        /* \"#utility.yul\":3312:3390   */\n      tag_292\n      jump\t// in\n    tag_388:\n        /* \"#utility.yul\":3304:3390   */\n      swap1\n      pop\n        /* \"#utility.yul\":3400:3473   */\n      tag_389\n        /* \"#utility.yul\":3468:3471   */\n      0x80\n        /* \"#utility.yul\":3457:3466   */\n      dup4\n        /* \"#utility.yul\":3453:3472   */\n      add\n        /* \"#utility.yul\":3444:3450   */\n      dup7\n        /* \"#utility.yul\":3400:3473   */\n      tag_284\n      jump\t// in\n    tag_389:\n        /* \"#utility.yul\":3483:3556   */\n      tag_390\n        /* \"#utility.yul\":3551:3554   */\n      0xa0\n        /* \"#utility.yul\":3540:3549   */\n      dup4\n        /* \"#utility.yul\":3536:3555   */\n      add\n        /* \"#utility.yul\":3527:3533   */\n      dup6\n        /* \"#utility.yul\":3483:3556   */\n      tag_284\n      jump\t// in\n    tag_390:\n        /* \"#utility.yul\":3566:3639   */\n      tag_391\n        /* \"#utility.yul\":3634:3637   */\n      0xc0\n        /* \"#utility.yul\":3623:3632   */\n      dup4\n        /* \"#utility.yul\":3619:3638   */\n      add\n        /* \"#utility.yul\":3610:3616   */\n      dup5\n        /* \"#utility.yul\":3566:3639   */\n      tag_284\n      jump\t// in\n    tag_391:\n        /* \"#utility.yul\":2578:3646   */\n      swap9\n      swap8\n      pop\n      pop\n      pop\n      pop\n      pop\n      pop\n      pop\n      pop\n      jump\t// out\n        /* \"#utility.yul\":3652:3769   */\n    tag_293:\n        /* \"#utility.yul\":3761:3762   */\n      0x00\n        /* \"#utility.yul\":3758:3759   */\n      dup1\n        /* \"#utility.yul\":3751:3763   */\n      revert\n        /* \"#utility.yul\":3775:3892   */\n    tag_294:\n        /* \"#utility.yul\":3884:3885   */\n      0x00\n        /* \"#utility.yul\":3881:3882   */\n      dup1\n        /* \"#utility.yul\":3874:3886   */\n      revert\n        /* \"#utility.yul\":3898:4015   */\n    tag_295:\n        /* \"#utility.yul\":4007:4008   */\n      0x00\n        /* \"#utility.yul\":4004:4005   */\n      dup1\n        /* \"#utility.yul\":3997:4009   */\n      revert\n        /* \"#utility.yul\":4035:4588   */\n    tag_296:\n        /* \"#utility.yul\":4093:4101   */\n      0x00\n        /* \"#utility.yul\":4103:4109   */\n      dup1\n        /* \"#utility.yul\":4153:4156   */\n      dup4\n        /* \"#utility.yul\":4146:4150   */\n      0x1f\n        /* \"#utility.yul\":4138:4144   */\n      dup5\n        /* \"#utility.yul\":4134:4151   */\n      add\n        /* \"#utility.yul\":4130:4157   */\n      slt\n        /* \"#utility.yul\":4120:4242   */\n      tag_396\n      jumpi\n        /* \"#utility.yul\":4161:4240   */\n      tag_397\n      tag_293\n      jump\t// in\n    tag_397:\n        /* \"#utility.yul\":4120:4242   */\n    tag_396:\n        /* \"#utility.yul\":4274:4280   */\n      dup3\n        /* \"#utility.yul\":4261:4281   */\n      calldataload\n        /* \"#utility.yul\":4251:4281   */\n      swap1\n      pop\n        /* \"#utility.yul\":4304:4322   */\n      0xffffffffffffffff\n        /* \"#utility.yul\":4296:4302   */\n      dup2\n        /* \"#utility.yul\":4293:4323   */\n      gt\n        /* \"#utility.yul\":4290:4407   */\n      iszero\n      tag_398\n      jumpi\n        /* \"#utility.yul\":4326:4405   */\n      tag_399\n      tag_294\n      jump\t// in\n    tag_399:\n        /* \"#utility.yul\":4290:4407   */\n    tag_398:\n        /* \"#utility.yul\":4440:4444   */\n      0x20\n        /* \"#utility.yul\":4432:4438   */\n      dup4\n        /* \"#utility.yul\":4428:4445   */\n      add\n        /* \"#utility.yul\":4416:4445   */\n      swap2\n      pop\n        /* \"#utility.yul\":4494:4497   */\n      dup4\n        /* \"#utility.yul\":4486:4490   */\n      0x01\n        /* \"#utility.yul\":4478:4484   */\n      dup3\n        /* \"#utility.yul\":4474:4491   */\n      mul\n        /* \"#utility.yul\":4464:4472   */\n      dup4\n        /* \"#utility.yul\":4460:4492   */\n      add\n        /* \"#utility.yul\":4457:4498   */\n      gt\n        /* \"#utility.yul\":4454:4582   */\n      iszero\n      tag_400\n      jumpi\n        /* \"#utility.yul\":4501:4580   */\n      tag_401\n      tag_295\n      jump\t// in\n    tag_401:\n        /* \"#utility.yul\":4454:4582   */\n    tag_400:\n        /* \"#utility.yul\":4035:4588   */\n      swap3\n      pop\n      swap3\n      swap1\n      pop\n      jump\t// out\n        /* \"#utility.yul\":4594:5759   */\n    tag_23:\n        /* \"#utility.yul\":4704:4710   */\n      0x00\n        /* \"#utility.yul\":4712:4718   */\n      dup1\n        /* \"#utility.yul\":4720:4726   */\n      0x00\n        /* \"#utility.yul\":4728:4734   */\n      dup1\n        /* \"#utility.yul\":4736:4742   */\n      0x00\n        /* \"#utility.yul\":4744:4750   */\n      dup1\n        /* \"#utility.yul\":4793:4796   */\n      0x80\n        /* \"#utility.yul\":4781:4790   */\n      dup8\n        /* \"#utility.yul\":4772:4779   */\n      dup10\n        /* \"#utility.yul\":4768:4791   */\n      sub\n        /* \"#utility.yul\":4764:4797   */\n      slt\n        /* \"#utility.yul\":4761:4881   */\n      iszero\n      tag_403\n      jumpi\n        /* \"#utility.yul\":4800:4879   */\n      tag_404\n      tag_279\n      jump\t// in\n    tag_404:\n        /* \"#utility.yul\":4761:4881   */\n    tag_403:\n        /* \"#utility.yul\":4948:4949   */\n      0x00\n        /* \"#utility.yul\":4937:4946   */\n      dup8\n        /* \"#utility.yul\":4933:4950   */\n      add\n        /* \"#utility.yul\":4920:4951   */\n      calldataload\n        /* \"#utility.yul\":4978:4996   */\n      0xffffffffffffffff\n        /* \"#utility.yul\":4970:4976   */\n      dup2\n        /* \"#utility.yul\":4967:4997   */\n      gt\n        /* \"#utility.yul\":4964:5081   */\n      iszero\n      tag_405\n      jumpi\n        /* \"#utility.yul\":5000:5079   */\n      tag_406\n      tag_280\n      jump\t// in\n    tag_406:\n        /* \"#utility.yul\":4964:5081   */\n    tag_405:\n        /* \"#utility.yul\":5113:5178   */\n      tag_407\n        /* \"#utility.yul\":5170:5177   */\n      dup10\n        /* \"#utility.yul\":5161:5167   */\n      dup3\n        /* \"#utility.yul\":5150:5159   */\n      dup11\n        /* \"#utility.yul\":5146:5168   */\n      add\n        /* \"#utility.yul\":5113:5178   */\n      tag_296\n      jump\t// in\n    tag_407:\n        /* \"#utility.yul\":5095:5178   */\n      swap7\n      pop\n      swap7\n      pop\n        /* \"#utility.yul\":4891:5188   */\n      pop\n        /* \"#utility.yul\":5255:5257   */\n      0x20\n        /* \"#utility.yul\":5244:5253   */\n      dup8\n        /* \"#utility.yul\":5240:5258   */\n      add\n        /* \"#utility.yul\":5227:5259   */\n      calldataload\n        /* \"#utility.yul\":5286:5304   */\n      0xffffffffffffffff\n        /* \"#utility.yul\":5278:5284   */\n      dup2\n        /* \"#utility.yul\":5275:5305   */\n      gt\n        /* \"#utility.yul\":5272:5389   */\n      iszero\n      tag_408\n      jumpi\n        /* \"#utility.yul\":5308:5387   */\n      tag_409\n      tag_280\n      jump\t// in\n    tag_409:\n        /* \"#utility.yul\":5272:5389   */\n    tag_408:\n        /* \"#utility.yul\":5421:5486   */\n      tag_410\n        /* \"#utility.yul\":5478:5485   */\n      dup10\n        /* \"#utility.yul\":5469:5475   */\n      dup3\n        /* \"#utility.yul\":5458:5467   */\n      dup11\n        /* \"#utility.yul\":5454:5476   */\n      add\n        /* \"#utility.yul\":5421:5486   */\n      tag_296\n      jump\t// in\n    tag_410:\n        /* \"#utility.yul\":5403:5486   */\n      swap5\n      pop\n      swap5\n      pop\n        /* \"#utility.yul\":5198:5496   */\n      pop\n        /* \"#utility.yul\":5535:5537   */\n      0x40\n        /* \"#utility.yul\":5561:5614   */\n      tag_411\n        /* \"#utility.yul\":5606:5613   */\n      dup10\n        /* \"#utility.yul\":5597:5603   */\n      dup3\n        /* \"#utility.yul\":5586:5595   */\n      dup11\n        /* \"#utility.yul\":5582:5604   */\n      add\n        /* \"#utility.yul\":5561:5614   */\n      tag_283\n      jump\t// in\n    tag_411:\n        /* \"#utility.yul\":5551:5614   */\n      swap3\n      pop\n        /* \"#utility.yul\":5506:5624   */\n      pop\n        /* \"#utility.yul\":5663:5665   */\n      0x60\n        /* \"#utility.yul\":5689:5742   */\n      tag_412\n        /* \"#utility.yul\":5734:5741   */\n      dup10\n        /* \"#utility.yul\":5725:5731   */\n      dup3\n        /* \"#utility.yul\":5714:5723   */\n      dup11\n        /* \"#utility.yul\":5710:5732   */\n      add\n        /* \"#utility.yul\":5689:5742   */\n      tag_283\n      jump\t// in\n    tag_412:\n        /* \"#utility.yul\":5679:5742   */\n      swap2\n      pop\n        /* \"#utility.yul\":5634:5752   */\n      pop\n        /* \"#utility.yul\":4594:5759   */\n      swap3\n      swap6\n      pop\n      swap3\n      swap6\n      pop\n      swap3\n      swap6\n      jump\t// out\n        /* \"#utility.yul\":5765:5887   */\n    tag_297:\n        /* \"#utility.yul\":5838:5862   */\n      tag_414\n        /* \"#utility.yul\":5856:5861   */\n      dup2\n        /* \"#utility.yul\":5838:5862   */\n      tag_286\n      jump\t// in\n    tag_414:\n        /* \"#utility.yul\":5831:5836   */\n      dup2\n        /* \"#utility.yul\":5828:5863   */\n      eq\n        /* \"#utility.yul\":5818:5881   */\n      tag_415\n      jumpi\n        /* \"#utility.yul\":5877:5878   */\n      0x00\n        /* \"#utility.yul\":5874:5875   */\n      dup1\n        /* \"#utility.yul\":5867:5879   */\n      revert\n        /* \"#utility.yul\":5818:5881   */\n    tag_415:\n        /* \"#utility.yul\":5765:5887   */\n      pop\n      jump\t// out\n        /* \"#utility.yul\":5893:6032   */\n    tag_298:\n        /* \"#utility.yul\":5939:5944   */\n      0x00\n        /* \"#utility.yul\":5977:5983   */\n      dup2\n        /* \"#utility.yul\":5964:5984   */\n      calldataload\n        /* \"#utility.yul\":5955:5984   */\n      swap1\n      pop\n        /* \"#utility.yul\":5993:6026   */\n      tag_417\n        /* \"#utility.yul\":6020:6025   */\n      dup2\n        /* \"#utility.yul\":5993:6026   */\n      tag_297\n      jump\t// in\n    tag_417:\n        /* \"#utility.yul\":5893:6032   */\n      swap3\n      swap2\n      pop\n      pop\n      jump\t// out\n        /* \"#utility.yul\":6038:6367   */\n    tag_28:\n        /* \"#utility.yul\":6097:6103   */\n      0x00\n        /* \"#utility.yul\":6146:6148   */\n      0x20\n        /* \"#utility.yul\":6134:6143   */\n      dup3\n        /* \"#utility.yul\":6125:6132   */\n      dup5\n        /* \"#utility.yul\":6121:6144   */\n      sub\n        /* \"#utility.yul\":6117:6149   */\n      slt\n        /* \"#utility.yul\":6114:6233   */\n      iszero\n      tag_419\n      jumpi\n        /* \"#utility.yul\":6152:6231   */\n      tag_420\n      tag_279\n      jump\t// in\n    tag_420:\n        /* \"#utility.yul\":6114:6233   */\n    tag_419:\n        /* \"#utility.yul\":6272:6273   */\n      0x00\n        /* \"#utility.yul\":6297:6350   */\n      tag_421\n        /* \"#utility.yul\":6342:6349   */\n      dup5\n        /* \"#utility.yul\":6333:6339   */\n      dup3\n        /* \"#utility.yul\":6322:6331   */\n      dup6\n        /* \"#utility.yul\":6318:6340   */\n      add\n        /* \"#utility.yul\":6297:6350   */\n      tag_298\n      jump\t// in\n    tag_421:\n        /* \"#utility.yul\":6287:6350   */\n      swap2\n      pop\n        /* \"#utility.yul\":6243:6360   */\n      pop\n        /* \"#utility.yul\":6038:6367   */\n      swap3\n      swap2\n      pop\n      pop\n      jump\t// out\n        /* \"#utility.yul\":6373:6508   */\n    tag_299:\n        /* \"#utility.yul\":6461:6467   */\n      0x00\n        /* \"#utility.yul\":6495:6500   */\n      dup2\n        /* \"#utility.yul\":6489:6501   */\n      mload\n        /* \"#utility.yul\":6479:6501   */\n      swap1\n      pop\n        /* \"#utility.yul\":6373:6508   */\n      swap2\n      swap1\n      pop\n      jump\t// out\n        /* \"#utility.yul\":6514:6719   */\n    tag_300:\n        /* \"#utility.yul\":6634:6645   */\n      0x00\n        /* \"#utility.yul\":6668:6674   */\n      dup3\n        /* \"#utility.yul\":6663:6666   */\n      dup3\n        /* \"#utility.yul\":6656:6675   */\n      mstore\n        /* \"#utility.yul\":6708:6712   */\n      0x20\n        /* \"#utility.yul\":6703:6706   */\n      dup3\n        /* \"#utility.yul\":6699:6713   */\n      add\n        /* \"#utility.yul\":6684:6713   */\n      swap1\n      pop\n        /* \"#utility.yul\":6514:6719   */\n      swap3\n      swap2\n      pop\n      pop\n      jump\t// out\n        /* \"#utility.yul\":6725:6878   */\n    tag_301:\n        /* \"#utility.yul\":6813:6817   */\n      0x00\n        /* \"#utility.yul\":6836:6839   */\n      dup2\n        /* \"#utility.yul\":6828:6839   */\n      swap1\n      pop\n        /* \"#utility.yul\":6866:6870   */\n      0x20\n        /* \"#utility.yul\":6861:6864   */\n      dup3\n        /* \"#utility.yul\":6857:6871   */\n      add\n        /* \"#utility.yul\":6849:6871   */\n      swap1\n      pop\n        /* \"#utility.yul\":6725:6878   */\n      swap2\n      swap1\n      pop\n      jump\t// out\n        /* \"#utility.yul\":6884:6992   */\n    tag_302:\n        /* \"#utility.yul\":6961:6985   */\n      tag_426\n        /* \"#utility.yul\":6979:6984   */\n      dup2\n        /* \"#utility.yul\":6961:6985   */\n      tag_281\n      jump\t// in\n    tag_426:\n        /* \"#utility.yul\":6956:6959   */\n      dup3\n        /* \"#utility.yul\":6949:6986   */\n      mstore\n        /* \"#utility.yul\":6884:6992   */\n      pop\n      pop\n      jump\t// out\n        /* \"#utility.yul\":6998:7106   */\n    tag_303:\n        /* \"#utility.yul\":7075:7099   */\n      tag_428\n        /* \"#utility.yul\":7093:7098   */\n      dup2\n        /* \"#utility.yul\":7075:7099   */\n      tag_286\n      jump\t// in\n    tag_428:\n        /* \"#utility.yul\":7070:7073   */\n      dup3\n        /* \"#utility.yul\":7063:7100   */\n      mstore\n        /* \"#utility.yul\":6998:7106   */\n      pop\n      pop\n      jump\t// out\n        /* \"#utility.yul\":7158:8005   */\n    tag_304:\n        /* \"#utility.yul\":7287:7291   */\n      0x80\n        /* \"#utility.yul\":7282:7285   */\n      dup3\n        /* \"#utility.yul\":7278:7292   */\n      add\n        /* \"#utility.yul\":7372:7376   */\n      0x00\n        /* \"#utility.yul\":7365:7370   */\n      dup3\n        /* \"#utility.yul\":7361:7377   */\n      add\n        /* \"#utility.yul\":7355:7378   */\n      mload\n        /* \"#utility.yul\":7391:7454   */\n      tag_430\n        /* \"#utility.yul\":7448:7452   */\n      0x00\n        /* \"#utility.yul\":7443:7446   */\n      dup6\n        /* \"#utility.yul\":7439:7453   */\n      add\n        /* \"#utility.yul\":7425:7437   */\n      dup3\n        /* \"#utility.yul\":7391:7454   */\n      tag_302\n      jump\t// in\n    tag_430:\n        /* \"#utility.yul\":7302:7464   */\n      pop\n        /* \"#utility.yul\":7551:7555   */\n      0x20\n        /* \"#utility.yul\":7544:7549   */\n      dup3\n        /* \"#utility.yul\":7540:7556   */\n      add\n        /* \"#utility.yul\":7534:7557   */\n      mload\n        /* \"#utility.yul\":7570:7633   */\n      tag_431\n        /* \"#utility.yul\":7627:7631   */\n      0x20\n        /* \"#utility.yul\":7622:7625   */\n      dup6\n        /* \"#utility.yul\":7618:7632   */\n      add\n        /* \"#utility.yul\":7604:7616   */\n      dup3\n        /* \"#utility.yul\":7570:7633   */\n      tag_302\n      jump\t// in\n    tag_431:\n        /* \"#utility.yul\":7474:7643   */\n      pop\n        /* \"#utility.yul\":7726:7730   */\n      0x40\n        /* \"#utility.yul\":7719:7724   */\n      dup3\n        /* \"#utility.yul\":7715:7731   */\n      add\n        /* \"#utility.yul\":7709:7732   */\n      mload\n        /* \"#utility.yul\":7745:7808   */\n      tag_432\n        /* \"#utility.yul\":7802:7806   */\n      0x40\n        /* \"#utility.yul\":7797:7800   */\n      dup6\n        /* \"#utility.yul\":7793:7807   */\n      add\n        /* \"#utility.yul\":7779:7791   */\n      dup3\n        /* \"#utility.yul\":7745:7808   */\n      tag_303\n      jump\t// in\n    tag_432:\n        /* \"#utility.yul\":7653:7818   */\n      pop\n        /* \"#utility.yul\":7906:7910   */\n      0x60\n        /* \"#utility.yul\":7899:7904   */\n      dup3\n        /* \"#utility.yul\":7895:7911   */\n      add\n        /* \"#utility.yul\":7889:7912   */\n      mload\n        /* \"#utility.yul\":7925:7988   */\n      tag_433\n        /* \"#utility.yul\":7982:7986   */\n      0x60\n        /* \"#utility.yul\":7977:7980   */\n      dup6\n        /* \"#utility.yul\":7973:7987   */\n      add\n        /* \"#utility.yul\":7959:7971   */\n      dup3\n        /* \"#utility.yul\":7925:7988   */\n      tag_302\n      jump\t// in\n    tag_433:\n        /* \"#utility.yul\":7828:7998   */\n      pop\n        /* \"#utility.yul\":7256:8005   */\n      pop\n        /* \"#utility.yul\":7158:8005   */\n      pop\n      pop\n      jump\t// out\n        /* \"#utility.yul\":8011:8274   */\n    tag_305:\n        /* \"#utility.yul\":8122:8132   */\n      0x00\n        /* \"#utility.yul\":8143:8231   */\n      tag_435\n        /* \"#utility.yul\":8227:8230   */\n      dup4\n        /* \"#utility.yul\":8219:8225   */\n      dup4\n        /* \"#utility.yul\":8143:8231   */\n      tag_304\n      jump\t// in\n    tag_435:\n        /* \"#utility.yul\":8263:8267   */\n      0x80\n        /* \"#utility.yul\":8258:8261   */\n      dup4\n        /* \"#utility.yul\":8254:8268   */\n      add\n        /* \"#utility.yul\":8240:8268   */\n      swap1\n      pop\n        /* \"#utility.yul\":8011:8274   */\n      swap3\n      swap2\n      pop\n      pop\n      jump\t// out\n        /* \"#utility.yul\":8280:8414   */\n    tag_306:\n        /* \"#utility.yul\":8371:8375   */\n      0x00\n        /* \"#utility.yul\":8403:8407   */\n      0x20\n        /* \"#utility.yul\":8398:8401   */\n      dup3\n        /* \"#utility.yul\":8394:8408   */\n      add\n        /* \"#utility.yul\":8386:8408   */\n      swap1\n      pop\n        /* \"#utility.yul\":8280:8414   */\n      swap2\n      swap1\n      pop\n      jump\t// out\n        /* \"#utility.yul\":8470:9370   */\n    tag_307:\n        /* \"#utility.yul\":8631:8634   */\n      0x00\n        /* \"#utility.yul\":8660:8735   */\n      tag_438\n        /* \"#utility.yul\":8729:8734   */\n      dup3\n        /* \"#utility.yul\":8660:8735   */\n      tag_299\n      jump\t// in\n    tag_438:\n        /* \"#utility.yul\":8751:8858   */\n      tag_439\n        /* \"#utility.yul\":8851:8857   */\n      dup2\n        /* \"#utility.yul\":8846:8849   */\n      dup6\n        /* \"#utility.yul\":8751:8858   */\n      tag_300\n      jump\t// in\n    tag_439:\n        /* \"#utility.yul\":8744:8858   */\n      swap4\n      pop\n        /* \"#utility.yul\":8882:8959   */\n      tag_440\n        /* \"#utility.yul\":8953:8958   */\n      dup4\n        /* \"#utility.yul\":8882:8959   */\n      tag_301\n      jump\t// in\n    tag_440:\n        /* \"#utility.yul\":8982:8989   */\n      dup1\n        /* \"#utility.yul\":9013:9014   */\n      0x00\n        /* \"#utility.yul\":8998:9345   */\n    tag_441:\n        /* \"#utility.yul\":9023:9029   */\n      dup4\n        /* \"#utility.yul\":9020:9021   */\n      dup2\n        /* \"#utility.yul\":9017:9030   */\n      lt\n        /* \"#utility.yul\":8998:9345   */\n      iszero\n      tag_443\n      jumpi\n        /* \"#utility.yul\":9099:9105   */\n      dup2\n        /* \"#utility.yul\":9093:9106   */\n      mload\n        /* \"#utility.yul\":9126:9231   */\n      tag_444\n        /* \"#utility.yul\":9227:9230   */\n      dup9\n        /* \"#utility.yul\":9212:9225   */\n      dup3\n        /* \"#utility.yul\":9126:9231   */\n      tag_305\n      jump\t// in\n    tag_444:\n        /* \"#utility.yul\":9119:9231   */\n      swap8\n      pop\n        /* \"#utility.yul\":9254:9335   */\n      tag_445\n        /* \"#utility.yul\":9328:9334   */\n      dup4\n        /* \"#utility.yul\":9254:9335   */\n      tag_306\n      jump\t// in\n    tag_445:\n        /* \"#utility.yul\":9244:9335   */\n      swap3\n      pop\n        /* \"#utility.yul\":9058:9345   */\n      pop\n        /* \"#utility.yul\":9045:9046   */\n      0x01\n        /* \"#utility.yul\":9042:9043   */\n      dup2\n        /* \"#utility.yul\":9038:9047   */\n      add\n        /* \"#utility.yul\":9033:9047   */\n      swap1\n      pop\n        /* \"#utility.yul\":8998:9345   */\n      jump(tag_441)\n    tag_443:\n        /* \"#utility.yul\":9002:9016   */\n      pop\n        /* \"#utility.yul\":9361:9364   */\n      dup6\n        /* \"#utility.yul\":9354:9364   */\n      swap4\n      pop\n        /* \"#utility.yul\":8636:9370   */\n      pop\n      pop\n      pop\n        /* \"#utility.yul\":8470:9370   */\n      swap3\n      swap2\n      pop\n      pop\n      jump\t// out\n        /* \"#utility.yul\":9376:9833   */\n    tag_31:\n        /* \"#utility.yul\":9561:9565   */\n      0x00\n        /* \"#utility.yul\":9599:9601   */\n      0x20\n        /* \"#utility.yul\":9588:9597   */\n      dup3\n        /* \"#utility.yul\":9584:9602   */\n      add\n        /* \"#utility.yul\":9576:9602   */\n      swap1\n      pop\n        /* \"#utility.yul\":9648:9657   */\n      dup2\n        /* \"#utility.yul\":9642:9646   */\n      dup2\n        /* \"#utility.yul\":9638:9658   */\n      sub\n        /* \"#utility.yul\":9634:9635   */\n      0x00\n        /* \"#utility.yul\":9623:9632   */\n      dup4\n        /* \"#utility.yul\":9619:9636   */\n      add\n        /* \"#utility.yul\":9612:9659   */\n      mstore\n        /* \"#utility.yul\":9676:9826   */\n      tag_447\n        /* \"#utility.yul\":9821:9825   */\n      dup2\n        /* \"#utility.yul\":9812:9818   */\n      dup5\n        /* \"#utility.yul\":9676:9826   */\n      tag_307\n      jump\t// in\n    tag_447:\n        /* \"#utility.yul\":9668:9826   */\n      swap1\n      pop\n        /* \"#utility.yul\":9376:9833   */\n      swap3\n      swap2\n      pop\n      pop\n      jump\t// out\n        /* \"#utility.yul\":9839:10392   */\n    tag_37:\n        /* \"#utility.yul\":10016:10020   */\n      0x00\n        /* \"#utility.yul\":10054:10057   */\n      0x80\n        /* \"#utility.yul\":10043:10052   */\n      dup3\n        /* \"#utility.yul\":10039:10058   */\n      add\n        /* \"#utility.yul\":10031:10058   */\n      swap1\n      pop\n        /* \"#utility.yul\":10068:10139   */\n      tag_449\n        /* \"#utility.yul\":10136:10137   */\n      0x00\n        /* \"#utility.yul\":10125:10134   */\n      dup4\n        /* \"#utility.yul\":10121:10138   */\n      add\n        /* \"#utility.yul\":10112:10118   */\n      dup8\n        /* \"#utility.yul\":10068:10139   */\n      tag_284\n      jump\t// in\n    tag_449:\n        /* \"#utility.yul\":10149:10221   */\n      tag_450\n        /* \"#utility.yul\":10217:10219   */\n      0x20\n        /* \"#utility.yul\":10206:10215   */\n      dup4\n        /* \"#utility.yul\":10202:10220   */\n      add\n        /* \"#utility.yul\":10193:10199   */\n      dup7\n        /* \"#utility.yul\":10149:10221   */\n      tag_284\n      jump\t// in\n    tag_450:\n        /* \"#utility.yul\":10231:10303   */\n      tag_451\n        /* \"#utility.yul\":10299:10301   */\n      0x40\n        /* \"#utility.yul\":10288:10297   */\n      dup4\n        /* \"#utility.yul\":10284:10302   */\n      add\n        /* \"#utility.yul\":10275:10281   */\n      dup6\n        /* \"#utility.yul\":10231:10303   */\n      tag_287\n      jump\t// in\n    tag_451:\n        /* \"#utility.yul\":10313:10385   */\n      tag_452\n        /* \"#utility.yul\":10381:10383   */\n      0x60\n        /* \"#utility.yul\":10370:10379   */\n      dup4\n        /* \"#utility.yul\":10366:10384   */\n      add\n        /* \"#utility.yul\":10357:10363   */\n      dup5\n        /* \"#utility.yul\":10313:10385   */\n      tag_284\n      jump\t// in\n    tag_452:\n        /* \"#utility.yul\":9839:10392   */\n      swap6\n      swap5\n      pop\n      pop\n      pop\n      pop\n      pop\n      jump\t// out\n        /* \"#utility.yul\":10398:10535   */\n    tag_308:\n        /* \"#utility.yul\":10488:10494   */\n      0x00\n        /* \"#utility.yul\":10522:10527   */\n      dup2\n        /* \"#utility.yul\":10516:10528   */\n      mload\n        /* \"#utility.yul\":10506:10528   */\n      swap1\n      pop\n        /* \"#utility.yul\":10398:10535   */\n      swap2\n      swap1\n      pop\n      jump\t// out\n        /* \"#utility.yul\":10541:10748   */\n    tag_309:\n        /* \"#utility.yul\":10663:10674   */\n      0x00\n        /* \"#utility.yul\":10697:10703   */\n      dup3\n        /* \"#utility.yul\":10692:10695   */\n      dup3\n        /* \"#utility.yul\":10685:10704   */\n      mstore\n        /* \"#utility.yul\":10737:10741   */\n      0x20\n        /* \"#utility.yul\":10732:10735   */\n      dup3\n        /* \"#utility.yul\":10728:10742   */\n      add\n        /* \"#utility.yul\":10713:10742   */\n      swap1\n      pop\n        /* \"#utility.yul\":10541:10748   */\n      swap3\n      swap2\n      pop\n      pop\n      jump\t// out\n        /* \"#utility.yul\":10754:10909   */\n    tag_310:\n        /* \"#utility.yul\":10844:10848   */\n      0x00\n        /* \"#utility.yul\":10867:10870   */\n      dup2\n        /* \"#utility.yul\":10859:10870   */\n      swap1\n      pop\n        /* \"#utility.yul\":10897:10901   */\n      0x20\n        /* \"#utility.yul\":10892:10895   */\n      dup3\n        /* \"#utility.yul\":10888:10902   */\n      add\n        /* \"#utility.yul\":10880:10902   */\n      swap1\n      pop\n        /* \"#utility.yul\":10754:10909   */\n      swap2\n      swap1\n      pop\n      jump\t// out\n        /* \"#utility.yul\":10915:11074   */\n    tag_311:\n        /* \"#utility.yul\":10989:11000   */\n      0x00\n        /* \"#utility.yul\":11023:11029   */\n      dup3\n        /* \"#utility.yul\":11018:11021   */\n      dup3\n        /* \"#utility.yul\":11011:11030   */\n      mstore\n        /* \"#utility.yul\":11063:11067   */\n      0x20\n        /* \"#utility.yul\":11058:11061   */\n      dup3\n        /* \"#utility.yul\":11054:11068   */\n      add\n        /* \"#utility.yul\":11039:11068   */\n      swap1\n      pop\n        /* \"#utility.yul\":10915:11074   */\n      swap3\n      swap2\n      pop\n      pop\n      jump\t// out\n        /* \"#utility.yul\":11080:11424   */\n    tag_312:\n        /* \"#utility.yul\":11158:11161   */\n      0x00\n        /* \"#utility.yul\":11186:11225   */\n      tag_458\n        /* \"#utility.yul\":11219:11224   */\n      dup3\n        /* \"#utility.yul\":11186:11225   */\n      tag_288\n      jump\t// in\n    tag_458:\n        /* \"#utility.yul\":11241:11302   */\n      tag_459\n        /* \"#utility.yul\":11295:11301   */\n      dup2\n        /* \"#utility.yul\":11290:11293   */\n      dup6\n        /* \"#utility.yul\":11241:11302   */\n      tag_311\n      jump\t// in\n    tag_459:\n        /* \"#utility.yul\":11234:11302   */\n      swap4\n      pop\n        /* \"#utility.yul\":11311:11363   */\n      tag_460\n        /* \"#utility.yul\":11356:11362   */\n      dup2\n        /* \"#utility.yul\":11351:11354   */\n      dup6\n        /* \"#utility.yul\":11344:11348   */\n      0x20\n        /* \"#utility.yul\":11337:11342   */\n      dup7\n        /* \"#utility.yul\":11333:11349   */\n      add\n        /* \"#utility.yul\":11311:11363   */\n      tag_290\n      jump\t// in\n    tag_460:\n        /* \"#utility.yul\":11388:11417   */\n      tag_461\n        /* \"#utility.yul\":11410:11416   */\n      dup2\n        /* \"#utility.yul\":11388:11417   */\n      tag_291\n      jump\t// in\n    tag_461:\n        /* \"#utility.yul\":11383:11386   */\n      dup5\n        /* \"#utility.yul\":11379:11418   */\n      add\n        /* \"#utility.yul\":11372:11418   */\n      swap2\n      pop\n        /* \"#utility.yul\":11162:11424   */\n      pop\n        /* \"#utility.yul\":11080:11424   */\n      swap3\n      swap2\n      pop\n      pop\n      jump\t// out\n        /* \"#utility.yul\":11430:11544   */\n    tag_313:\n        /* \"#utility.yul\":11497:11503   */\n      0x00\n        /* \"#utility.yul\":11531:11536   */\n      dup2\n        /* \"#utility.yul\":11525:11537   */\n      mload\n        /* \"#utility.yul\":11515:11537   */\n      swap1\n      pop\n        /* \"#utility.yul\":11430:11544   */\n      swap2\n      swap1\n      pop\n      jump\t// out\n        /* \"#utility.yul\":11550:11724   */\n    tag_314:\n        /* \"#utility.yul\":11639:11650   */\n      0x00\n        /* \"#utility.yul\":11673:11679   */\n      dup3\n        /* \"#utility.yul\":11668:11671   */\n      dup3\n        /* \"#utility.yul\":11661:11680   */\n      mstore\n        /* \"#utility.yul\":11713:11717   */\n      0x20\n        /* \"#utility.yul\":11708:11711   */\n      dup3\n        /* \"#utility.yul\":11704:11718   */\n      add\n        /* \"#utility.yul\":11689:11718   */\n      swap1\n      pop\n        /* \"#utility.yul\":11550:11724   */\n      swap3\n      swap2\n      pop\n      pop\n      jump\t// out\n        /* \"#utility.yul\":11730:11862   */\n    tag_315:\n        /* \"#utility.yul\":11797:11801   */\n      0x00\n        /* \"#utility.yul\":11820:11823   */\n      dup2\n        /* \"#utility.yul\":11812:11823   */\n      swap1\n      pop\n        /* \"#utility.yul\":11850:11854   */\n      0x20\n        /* \"#utility.yul\":11845:11848   */\n      dup3\n        /* \"#utility.yul\":11841:11855   */\n      add\n        /* \"#utility.yul\":11833:11855   */\n      swap1\n      pop\n        /* \"#utility.yul\":11730:11862   */\n      swap2\n      swap1\n      pop\n      jump\t// out\n        /* \"#utility.yul\":11868:12047   */\n    tag_316:\n        /* \"#utility.yul\":11937:11947   */\n      0x00\n        /* \"#utility.yul\":11958:12004   */\n      tag_466\n        /* \"#utility.yul\":12000:12003   */\n      dup4\n        /* \"#utility.yul\":11992:11998   */\n      dup4\n        /* \"#utility.yul\":11958:12004   */\n      tag_302\n      jump\t// in\n    tag_466:\n        /* \"#utility.yul\":12036:12040   */\n      0x20\n        /* \"#utility.yul\":12031:12034   */\n      dup4\n        /* \"#utility.yul\":12027:12041   */\n      add\n        /* \"#utility.yul\":12013:12041   */\n      swap1\n      pop\n        /* \"#utility.yul\":11868:12047   */\n      swap3\n      swap2\n      pop\n      pop\n      jump\t// out\n        /* \"#utility.yul\":12053:12166   */\n    tag_317:\n        /* \"#utility.yul\":12123:12127   */\n      0x00\n        /* \"#utility.yul\":12155:12159   */\n      0x20\n        /* \"#utility.yul\":12150:12153   */\n      dup3\n        /* \"#utility.yul\":12146:12160   */\n      add\n        /* \"#utility.yul\":12138:12160   */\n      swap1\n      pop\n        /* \"#utility.yul\":12053:12166   */\n      swap2\n      swap1\n      pop\n      jump\t// out\n        /* \"#utility.yul\":12202:12914   */\n    tag_318:\n        /* \"#utility.yul\":12311:12314   */\n      0x00\n        /* \"#utility.yul\":12340:12394   */\n      tag_469\n        /* \"#utility.yul\":12388:12393   */\n      dup3\n        /* \"#utility.yul\":12340:12394   */\n      tag_313\n      jump\t// in\n    tag_469:\n        /* \"#utility.yul\":12410:12486   */\n      tag_470\n        /* \"#utility.yul\":12479:12485   */\n      dup2\n        /* \"#utility.yul\":12474:12477   */\n      dup6\n        /* \"#utility.yul\":12410:12486   */\n      tag_314\n      jump\t// in\n    tag_470:\n        /* \"#utility.yul\":12403:12486   */\n      swap4\n      pop\n        /* \"#utility.yul\":12510:12566   */\n      tag_471\n        /* \"#utility.yul\":12560:12565   */\n      dup4\n        /* \"#utility.yul\":12510:12566   */\n      tag_315\n      jump\t// in\n    tag_471:\n        /* \"#utility.yul\":12589:12596   */\n      dup1\n        /* \"#utility.yul\":12620:12621   */\n      0x00\n        /* \"#utility.yul\":12605:12889   */\n    tag_472:\n        /* \"#utility.yul\":12630:12636   */\n      dup4\n        /* \"#utility.yul\":12627:12628   */\n      dup2\n        /* \"#utility.yul\":12624:12637   */\n      lt\n        /* \"#utility.yul\":12605:12889   */\n      iszero\n      tag_474\n      jumpi\n        /* \"#utility.yul\":12706:12712   */\n      dup2\n        /* \"#utility.yul\":12700:12713   */\n      mload\n        /* \"#utility.yul\":12733:12796   */\n      tag_475\n        /* \"#utility.yul\":12792:12795   */\n      dup9\n        /* \"#utility.yul\":12777:12790   */\n      dup3\n        /* \"#utility.yul\":12733:12796   */\n      tag_316\n      jump\t// in\n    tag_475:\n        /* \"#utility.yul\":12726:12796   */\n      swap8\n      pop\n        /* \"#utility.yul\":12819:12879   */\n      tag_476\n        /* \"#utility.yul\":12872:12878   */\n      dup4\n        /* \"#utility.yul\":12819:12879   */\n      tag_317\n      jump\t// in\n    tag_476:\n        /* \"#utility.yul\":12809:12879   */\n      swap3\n      pop\n        /* \"#utility.yul\":12665:12889   */\n      pop\n        /* \"#utility.yul\":12652:12653   */\n      0x01\n        /* \"#utility.yul\":12649:12650   */\n      dup2\n        /* \"#utility.yul\":12645:12654   */\n      add\n        /* \"#utility.yul\":12640:12654   */\n      swap1\n      pop\n        /* \"#utility.yul\":12605:12889   */\n      jump(tag_472)\n    tag_474:\n        /* \"#utility.yul\":12609:12623   */\n      pop\n        /* \"#utility.yul\":12905:12908   */\n      dup6\n        /* \"#utility.yul\":12898:12908   */\n      swap4\n      pop\n        /* \"#utility.yul\":12316:12914   */\n      pop\n      pop\n      pop\n        /* \"#utility.yul\":12202:12914   */\n      swap3\n      swap2\n      pop\n      pop\n      jump\t// out\n        /* \"#utility.yul\":12970:14817   */\n    tag_319:\n        /* \"#utility.yul\":13075:13078   */\n      0x00\n        /* \"#utility.yul\":13111:13117   */\n      0x0100\n        /* \"#utility.yul\":13106:13109   */\n      dup4\n        /* \"#utility.yul\":13102:13118   */\n      add\n        /* \"#utility.yul\":13198:13202   */\n      0x00\n        /* \"#utility.yul\":13191:13196   */\n      dup4\n        /* \"#utility.yul\":13187:13203   */\n      add\n        /* \"#utility.yul\":13181:13204   */\n      mload\n        /* \"#utility.yul\":13217:13280   */\n      tag_478\n        /* \"#utility.yul\":13274:13278   */\n      0x00\n        /* \"#utility.yul\":13269:13272   */\n      dup7\n        /* \"#utility.yul\":13265:13279   */\n      add\n        /* \"#utility.yul\":13251:13263   */\n      dup3\n        /* \"#utility.yul\":13217:13280   */\n      tag_302\n      jump\t// in\n    tag_478:\n        /* \"#utility.yul\":13128:13290   */\n      pop\n        /* \"#utility.yul\":13374:13378   */\n      0x20\n        /* \"#utility.yul\":13367:13372   */\n      dup4\n        /* \"#utility.yul\":13363:13379   */\n      add\n        /* \"#utility.yul\":13357:13380   */\n      mload\n        /* \"#utility.yul\":13393:13456   */\n      tag_479\n        /* \"#utility.yul\":13450:13454   */\n      0x20\n        /* \"#utility.yul\":13445:13448   */\n      dup7\n        /* \"#utility.yul\":13441:13455   */\n      add\n        /* \"#utility.yul\":13427:13439   */\n      dup3\n        /* \"#utility.yul\":13393:13456   */\n      tag_303\n      jump\t// in\n    tag_479:\n        /* \"#utility.yul\":13300:13466   */\n      pop\n        /* \"#utility.yul\":13548:13552   */\n      0x40\n        /* \"#utility.yul\":13541:13546   */\n      dup4\n        /* \"#utility.yul\":13537:13553   */\n      add\n        /* \"#utility.yul\":13531:13554   */\n      mload\n        /* \"#utility.yul\":13601:13604   */\n      dup5\n        /* \"#utility.yul\":13595:13599   */\n      dup3\n        /* \"#utility.yul\":13591:13605   */\n      sub\n        /* \"#utility.yul\":13584:13588   */\n      0x40\n        /* \"#utility.yul\":13579:13582   */\n      dup7\n        /* \"#utility.yul\":13575:13589   */\n      add\n        /* \"#utility.yul\":13568:13606   */\n      mstore\n        /* \"#utility.yul\":13627:13700   */\n      tag_480\n        /* \"#utility.yul\":13695:13699   */\n      dup3\n        /* \"#utility.yul\":13681:13693   */\n      dup3\n        /* \"#utility.yul\":13627:13700   */\n      tag_312\n      jump\t// in\n    tag_480:\n        /* \"#utility.yul\":13619:13700   */\n      swap2\n      pop\n        /* \"#utility.yul\":13476:13711   */\n      pop\n        /* \"#utility.yul\":13800:13804   */\n      0x60\n        /* \"#utility.yul\":13793:13798   */\n      dup4\n        /* \"#utility.yul\":13789:13805   */\n      add\n        /* \"#utility.yul\":13783:13806   */\n      mload\n        /* \"#utility.yul\":13853:13856   */\n      dup5\n        /* \"#utility.yul\":13847:13851   */\n      dup3\n        /* \"#utility.yul\":13843:13857   */\n      sub\n        /* \"#utility.yul\":13836:13840   */\n      0x60\n        /* \"#utility.yul\":13831:13834   */\n      dup7\n        /* \"#utility.yul\":13827:13841   */\n      add\n        /* \"#utility.yul\":13820:13858   */\n      mstore\n        /* \"#utility.yul\":13879:13952   */\n      tag_481\n        /* \"#utility.yul\":13947:13951   */\n      dup3\n        /* \"#utility.yul\":13933:13945   */\n      dup3\n        /* \"#utility.yul\":13879:13952   */\n      tag_312\n      jump\t// in\n    tag_481:\n        /* \"#utility.yul\":13871:13952   */\n      swap2\n      pop\n        /* \"#utility.yul\":13721:13963   */\n      pop\n        /* \"#utility.yul\":14058:14062   */\n      0x80\n        /* \"#utility.yul\":14051:14056   */\n      dup4\n        /* \"#utility.yul\":14047:14063   */\n      add\n        /* \"#utility.yul\":14041:14064   */\n      mload\n        /* \"#utility.yul\":14077:14140   */\n      tag_482\n        /* \"#utility.yul\":14134:14138   */\n      0x80\n        /* \"#utility.yul\":14129:14132   */\n      dup7\n        /* \"#utility.yul\":14125:14139   */\n      add\n        /* \"#utility.yul\":14111:14123   */\n      dup3\n        /* \"#utility.yul\":14077:14140   */\n      tag_302\n      jump\t// in\n    tag_482:\n        /* \"#utility.yul\":13973:14150   */\n      pop\n        /* \"#utility.yul\":14238:14242   */\n      0xa0\n        /* \"#utility.yul\":14231:14236   */\n      dup4\n        /* \"#utility.yul\":14227:14243   */\n      add\n        /* \"#utility.yul\":14221:14244   */\n      mload\n        /* \"#utility.yul\":14257:14320   */\n      tag_483\n        /* \"#utility.yul\":14314:14318   */\n      0xa0\n        /* \"#utility.yul\":14309:14312   */\n      dup7\n        /* \"#utility.yul\":14305:14319   */\n      add\n        /* \"#utility.yul\":14291:14303   */\n      dup3\n        /* \"#utility.yul\":14257:14320   */\n      tag_302\n      jump\t// in\n    tag_483:\n        /* \"#utility.yul\":14160:14330   */\n      pop\n        /* \"#utility.yul\":14419:14423   */\n      0xc0\n        /* \"#utility.yul\":14412:14417   */\n      dup4\n        /* \"#utility.yul\":14408:14424   */\n      add\n        /* \"#utility.yul\":14402:14425   */\n      mload\n        /* \"#utility.yul\":14438:14501   */\n      tag_484\n        /* \"#utility.yul\":14495:14499   */\n      0xc0\n        /* \"#utility.yul\":14490:14493   */\n      dup7\n        /* \"#utility.yul\":14486:14500   */\n      add\n        /* \"#utility.yul\":14472:14484   */\n      dup3\n        /* \"#utility.yul\":14438:14501   */\n      tag_302\n      jump\t// in\n    tag_484:\n        /* \"#utility.yul\":14340:14511   */\n      pop\n        /* \"#utility.yul\":14597:14601   */\n      0xe0\n        /* \"#utility.yul\":14590:14595   */\n      dup4\n        /* \"#utility.yul\":14586:14602   */\n      add\n        /* \"#utility.yul\":14580:14603   */\n      mload\n        /* \"#utility.yul\":14650:14653   */\n      dup5\n        /* \"#utility.yul\":14644:14648   */\n      dup3\n        /* \"#utility.yul\":14640:14654   */\n      sub\n        /* \"#utility.yul\":14633:14637   */\n      0xe0\n        /* \"#utility.yul\":14628:14631   */\n      dup7\n        /* \"#utility.yul\":14624:14638   */\n      add\n        /* \"#utility.yul\":14617:14655   */\n      mstore\n        /* \"#utility.yul\":14676:14779   */\n      tag_485\n        /* \"#utility.yul\":14774:14778   */\n      dup3\n        /* \"#utility.yul\":14760:14772   */\n      dup3\n        /* \"#utility.yul\":14676:14779   */\n      tag_318\n      jump\t// in\n    tag_485:\n        /* \"#utility.yul\":14668:14779   */\n      swap2\n      pop\n        /* \"#utility.yul\":14521:14790   */\n      pop\n        /* \"#utility.yul\":14807:14811   */\n      dup1\n        /* \"#utility.yul\":14800:14811   */\n      swap2\n      pop\n        /* \"#utility.yul\":13080:14817   */\n      pop\n        /* \"#utility.yul\":12970:14817   */\n      swap3\n      swap2\n      pop\n      pop\n      jump\t// out\n        /* \"#utility.yul\":14823:15071   */\n    tag_320:\n        /* \"#utility.yul\":14938:14948   */\n      0x00\n        /* \"#utility.yul\":14973:15065   */\n      tag_487\n        /* \"#utility.yul\":15061:15064   */\n      dup4\n        /* \"#utility.yul\":15053:15059   */\n      dup4\n        /* \"#utility.yul\":14973:15065   */\n      tag_319\n      jump\t// in\n    tag_487:\n        /* \"#utility.yul\":14959:15065   */\n      swap1\n      pop\n        /* \"#utility.yul\":14823:15071   */\n      swap3\n      swap2\n      pop\n      pop\n      jump\t// out\n        /* \"#utility.yul\":15077:15213   */\n    tag_321:\n        /* \"#utility.yul\":15170:15174   */\n      0x00\n        /* \"#utility.yul\":15202:15206   */\n      0x20\n        /* \"#utility.yul\":15197:15200   */\n      dup3\n        /* \"#utility.yul\":15193:15207   */\n      add\n        /* \"#utility.yul\":15185:15207   */\n      swap1\n      pop\n        /* \"#utility.yul\":15077:15213   */\n      swap2\n      swap1\n      pop\n      jump\t// out\n        /* \"#utility.yul\":15273:16368   */\n    tag_322:\n        /* \"#utility.yul\":15438:15441   */\n      0x00\n        /* \"#utility.yul\":15467:15544   */\n      tag_490\n        /* \"#utility.yul\":15538:15543   */\n      dup3\n        /* \"#utility.yul\":15467:15544   */\n      tag_308\n      jump\t// in\n    tag_490:\n        /* \"#utility.yul\":15560:15669   */\n      tag_491\n        /* \"#utility.yul\":15662:15668   */\n      dup2\n        /* \"#utility.yul\":15657:15660   */\n      dup6\n        /* \"#utility.yul\":15560:15669   */\n      tag_309\n      jump\t// in\n    tag_491:\n        /* \"#utility.yul\":15553:15669   */\n      swap4\n      pop\n        /* \"#utility.yul\":15695:15698   */\n      dup4\n        /* \"#utility.yul\":15740:15744   */\n      0x20\n        /* \"#utility.yul\":15732:15738   */\n      dup3\n        /* \"#utility.yul\":15728:15745   */\n      mul\n        /* \"#utility.yul\":15723:15726   */\n      dup6\n        /* \"#utility.yul\":15719:15746   */\n      add\n        /* \"#utility.yul\":15770:15849   */\n      tag_492\n        /* \"#utility.yul\":15843:15848   */\n      dup6\n        /* \"#utility.yul\":15770:15849   */\n      tag_310\n      jump\t// in\n    tag_492:\n        /* \"#utility.yul\":15872:15879   */\n      dup1\n        /* \"#utility.yul\":15903:15904   */\n      0x00\n        /* \"#utility.yul\":15888:16323   */\n    tag_493:\n        /* \"#utility.yul\":15913:15919   */\n      dup6\n        /* \"#utility.yul\":15910:15911   */\n      dup2\n        /* \"#utility.yul\":15907:15920   */\n      lt\n        /* \"#utility.yul\":15888:16323   */\n      iszero\n      tag_495\n      jumpi\n        /* \"#utility.yul\":15984:15993   */\n      dup5\n        /* \"#utility.yul\":15978:15982   */\n      dup5\n        /* \"#utility.yul\":15974:15994   */\n      sub\n        /* \"#utility.yul\":15969:15972   */\n      dup10\n        /* \"#utility.yul\":15962:15995   */\n      mstore\n        /* \"#utility.yul\":16035:16041   */\n      dup2\n        /* \"#utility.yul\":16029:16042   */\n      mload\n        /* \"#utility.yul\":16063:16173   */\n      tag_496\n        /* \"#utility.yul\":16168:16172   */\n      dup6\n        /* \"#utility.yul\":16153:16166   */\n      dup3\n        /* \"#utility.yul\":16063:16173   */\n      tag_320\n      jump\t// in\n    tag_496:\n        /* \"#utility.yul\":16055:16173   */\n      swap5\n      pop\n        /* \"#utility.yul\":16196:16279   */\n      tag_497\n        /* \"#utility.yul\":16272:16278   */\n      dup4\n        /* \"#utility.yul\":16196:16279   */\n      tag_321\n      jump\t// in\n    tag_497:\n        /* \"#utility.yul\":16186:16279   */\n      swap3\n      pop\n        /* \"#utility.yul\":16308:16312   */\n      0x20\n        /* \"#utility.yul\":16303:16306   */\n      dup11\n        /* \"#utility.yul\":16299:16313   */\n      add\n        /* \"#utility.yul\":16292:16313   */\n      swap10\n      pop\n        /* \"#utility.yul\":15948:16323   */\n      pop\n        /* \"#utility.yul\":15935:15936   */\n      0x01\n        /* \"#utility.yul\":15932:15933   */\n      dup2\n        /* \"#utility.yul\":15928:15937   */\n      add\n        /* \"#utility.yul\":15923:15937   */\n      swap1\n      pop\n        /* \"#utility.yul\":15888:16323   */\n      jump(tag_493)\n    tag_495:\n        /* \"#utility.yul\":15892:15906   */\n      pop\n        /* \"#utility.yul\":16339:16343   */\n      dup3\n        /* \"#utility.yul\":16332:16343   */\n      swap8\n      pop\n        /* \"#utility.yul\":16359:16362   */\n      dup8\n        /* \"#utility.yul\":16352:16362   */\n      swap6\n      pop\n        /* \"#utility.yul\":15443:16368   */\n      pop\n      pop\n      pop\n      pop\n      pop\n        /* \"#utility.yul\":15273:16368   */\n      swap3\n      swap2\n      pop\n      pop\n      jump\t// out\n        /* \"#utility.yul\":16374:16839   */\n    tag_54:\n        /* \"#utility.yul\":16563:16567   */\n      0x00\n        /* \"#utility.yul\":16601:16603   */\n      0x20\n        /* \"#utility.yul\":16590:16599   */\n      dup3\n        /* \"#utility.yul\":16586:16604   */\n      add\n        /* \"#utility.yul\":16578:16604   */\n      swap1\n      pop\n        /* \"#utility.yul\":16650:16659   */\n      dup2\n        /* \"#utility.yul\":16644:16648   */\n      dup2\n        /* \"#utility.yul\":16640:16660   */\n      sub\n        /* \"#utility.yul\":16636:16637   */\n      0x00\n        /* \"#utility.yul\":16625:16634   */\n      dup4\n        /* \"#utility.yul\":16621:16638   */\n      add\n        /* \"#utility.yul\":16614:16661   */\n      mstore\n        /* \"#utility.yul\":16678:16832   */\n      tag_499\n        /* \"#utility.yul\":16827:16831   */\n      dup2\n        /* \"#utility.yul\":16818:16824   */\n      dup5\n        /* \"#utility.yul\":16678:16832   */\n      tag_322\n      jump\t// in\n    tag_499:\n        /* \"#utility.yul\":16670:16832   */\n      swap1\n      pop\n        /* \"#utility.yul\":16374:16839   */\n      swap3\n      swap2\n      pop\n      pop\n      jump\t// out\n        /* \"#utility.yul\":16845:17025   */\n    tag_323:\n        /* \"#utility.yul\":16893:16970   */\n      0x4e487b7100000000000000000000000000000000000000000000000000000000\n        /* \"#utility.yul\":16890:16891   */\n      0x00\n        /* \"#utility.yul\":16883:16971   */\n      mstore\n        /* \"#utility.yul\":16990:16994   */\n      0x22\n        /* \"#utility.yul\":16987:16988   */\n      0x04\n        /* \"#utility.yul\":16980:16995   */\n      mstore\n        /* \"#utility.yul\":17014:17018   */\n      0x24\n        /* \"#utility.yul\":17011:17012   */\n      0x00\n        /* \"#utility.yul\":17004:17019   */\n      revert\n        /* \"#utility.yul\":17031:17351   */\n    tag_65:\n        /* \"#utility.yul\":17075:17081   */\n      0x00\n        /* \"#utility.yul\":17112:17113   */\n      0x02\n        /* \"#utility.yul\":17106:17110   */\n      dup3\n        /* \"#utility.yul\":17102:17114   */\n      div\n        /* \"#utility.yul\":17092:17114   */\n      swap1\n      pop\n        /* \"#utility.yul\":17159:17160   */\n      0x01\n        /* \"#utility.yul\":17153:17157   */\n      dup3\n        /* \"#utility.yul\":17149:17161   */\n      and\n        /* \"#utility.yul\":17180:17198   */\n      dup1\n        /* \"#utility.yul\":17170:17251   */\n      tag_502\n      jumpi\n        /* \"#utility.yul\":17236:17240   */\n      0x7f\n        /* \"#utility.yul\":17228:17234   */\n      dup3\n        /* \"#utility.yul\":17224:17241   */\n      and\n        /* \"#utility.yul\":17214:17241   */\n      swap2\n      pop\n        /* \"#utility.yul\":17170:17251   */\n    tag_502:\n        /* \"#utility.yul\":17298:17300   */\n      0x20\n        /* \"#utility.yul\":17290:17296   */\n      dup3\n        /* \"#utility.yul\":17287:17301   */\n      lt\n        /* \"#utility.yul\":17267:17285   */\n      dup2\n        /* \"#utility.yul\":17264:17302   */\n      sub\n        /* \"#utility.yul\":17261:17345   */\n      tag_503\n      jumpi\n        /* \"#utility.yul\":17317:17335   */\n      tag_504\n      tag_323\n      jump\t// in\n    tag_504:\n        /* \"#utility.yul\":17261:17345   */\n    tag_503:\n        /* \"#utility.yul\":17082:17351   */\n      pop\n        /* \"#utility.yul\":17031:17351   */\n      swap2\n      swap1\n      pop\n      jump\t// out\n        /* \"#utility.yul\":17357:17588   */\n    tag_324:\n        /* \"#utility.yul\":17497:17531   */\n      0x4d696e696d756d206f666665722070726963652073686f756c64206265206772\n        /* \"#utility.yul\":17493:17494   */\n      0x00\n        /* \"#utility.yul\":17485:17491   */\n      dup3\n        /* \"#utility.yul\":17481:17495   */\n      add\n        /* \"#utility.yul\":17474:17532   */\n      mstore\n        /* \"#utility.yul\":17566:17580   */\n      0x6561746572207468616e20300000000000000000000000000000000000000000\n        /* \"#utility.yul\":17561:17563   */\n      0x20\n        /* \"#utility.yul\":17553:17559   */\n      dup3\n        /* \"#utility.yul\":17549:17564   */\n      add\n        /* \"#utility.yul\":17542:17581   */\n      mstore\n        /* \"#utility.yul\":17357:17588   */\n      pop\n      jump\t// out\n        /* \"#utility.yul\":17594:17960   */\n    tag_325:\n        /* \"#utility.yul\":17736:17739   */\n      0x00\n        /* \"#utility.yul\":17757:17824   */\n      tag_507\n        /* \"#utility.yul\":17821:17823   */\n      0x2c\n        /* \"#utility.yul\":17816:17819   */\n      dup4\n        /* \"#utility.yul\":17757:17824   */\n      tag_289\n      jump\t// in\n    tag_507:\n        /* \"#utility.yul\":17750:17824   */\n      swap2\n      pop\n        /* \"#utility.yul\":17833:17926   */\n      tag_508\n        /* \"#utility.yul\":17922:17925   */\n      dup3\n        /* \"#utility.yul\":17833:17926   */\n      tag_324\n      jump\t// in\n    tag_508:\n        /* \"#utility.yul\":17951:17953   */\n      0x40\n        /* \"#utility.yul\":17946:17949   */\n      dup3\n        /* \"#utility.yul\":17942:17954   */\n      add\n        /* \"#utility.yul\":17935:17954   */\n      swap1\n      pop\n        /* \"#utility.yul\":17594:17960   */\n      swap2\n      swap1\n      pop\n      jump\t// out\n        /* \"#utility.yul\":17966:18385   */\n    tag_78:\n        /* \"#utility.yul\":18132:18136   */\n      0x00\n        /* \"#utility.yul\":18170:18172   */\n      0x20\n        /* \"#utility.yul\":18159:18168   */\n      dup3\n        /* \"#utility.yul\":18155:18173   */\n      add\n        /* \"#utility.yul\":18147:18173   */\n      swap1\n      pop\n        /* \"#utility.yul\":18219:18228   */\n      dup2\n        /* \"#utility.yul\":18213:18217   */\n      dup2\n        /* \"#utility.yul\":18209:18229   */\n      sub\n        /* \"#utility.yul\":18205:18206   */\n      0x00\n        /* \"#utility.yul\":18194:18203   */\n      dup4\n        /* \"#utility.yul\":18190:18207   */\n      add\n        /* \"#utility.yul\":18183:18230   */\n      mstore\n        /* \"#utility.yul\":18247:18378   */\n      tag_510\n        /* \"#utility.yul\":18373:18377   */\n      dup2\n        /* \"#utility.yul\":18247:18378   */\n      tag_325\n      jump\t// in\n    tag_510:\n        /* \"#utility.yul\":18239:18378   */\n      swap1\n      pop\n        /* \"#utility.yul\":17966:18385   */\n      swap2\n      swap1\n      pop\n      jump\t// out\n        /* \"#utility.yul\":18391:18571   */\n    tag_81:\n        /* \"#utility.yul\":18439:18516   */\n      0x4e487b7100000000000000000000000000000000000000000000000000000000\n        /* \"#utility.yul\":18436:18437   */\n      0x00\n        /* \"#utility.yul\":18429:18517   */\n      mstore\n        /* \"#utility.yul\":18536:18540   */\n      0x41\n        /* \"#utility.yul\":18533:18534   */\n      0x04\n        /* \"#utility.yul\":18526:18541   */\n      mstore\n        /* \"#utility.yul\":18560:18564   */\n      0x24\n        /* \"#utility.yul\":18557:18558   */\n      0x00\n        /* \"#utility.yul\":18550:18565   */\n      revert\n        /* \"#utility.yul\":18577:18757   */\n    tag_326:\n        /* \"#utility.yul\":18625:18702   */\n      0x4e487b7100000000000000000000000000000000000000000000000000000000\n        /* \"#utility.yul\":18622:18623   */\n      0x00\n        /* \"#utility.yul\":18615:18703   */\n      mstore\n        /* \"#utility.yul\":18722:18726   */\n      0x11\n        /* \"#utility.yul\":18719:18720   */\n      0x04\n        /* \"#utility.yul\":18712:18727   */\n      mstore\n        /* \"#utility.yul\":18746:18750   */\n      0x24\n        /* \"#utility.yul\":18743:18744   */\n      0x00\n        /* \"#utility.yul\":18736:18751   */\n      revert\n        /* \"#utility.yul\":18763:19068   */\n    tag_84:\n        /* \"#utility.yul\":18803:18806   */\n      0x00\n        /* \"#utility.yul\":18822:18842   */\n      tag_514\n        /* \"#utility.yul\":18840:18841   */\n      dup3\n        /* \"#utility.yul\":18822:18842   */\n      tag_281\n      jump\t// in\n    tag_514:\n        /* \"#utility.yul\":18817:18842   */\n      swap2\n      pop\n        /* \"#utility.yul\":18856:18876   */\n      tag_515\n        /* \"#utility.yul\":18874:18875   */\n      dup4\n        /* \"#utility.yul\":18856:18876   */\n      tag_281\n      jump\t// in\n    tag_515:\n        /* \"#utility.yul\":18851:18876   */\n      swap3\n      pop\n        /* \"#utility.yul\":19010:19011   */\n      dup3\n        /* \"#utility.yul\":18942:19008   */\n      0xffffffffffffffffffffffffffffffffffffffffffffffffffffffffffffffff\n        /* \"#utility.yul\":18938:19012   */\n      sub\n        /* \"#utility.yul\":18935:18936   */\n      dup3\n        /* \"#utility.yul\":18932:19013   */\n      gt\n        /* \"#utility.yul\":18929:19036   */\n      iszero\n      tag_516\n      jumpi\n        /* \"#utility.yul\":19016:19034   */\n      tag_517\n      tag_326\n      jump\t// in\n    tag_517:\n        /* \"#utility.yul\":18929:19036   */\n    tag_516:\n        /* \"#utility.yul\":19060:19061   */\n      dup3\n        /* \"#utility.yul\":19057:19058   */\n      dup3\n        /* \"#utility.yul\":19053:19062   */\n      add\n        /* \"#utility.yul\":19046:19062   */\n      swap1\n      pop\n        /* \"#utility.yul\":18763:19068   */\n      swap3\n      swap2\n      pop\n      pop\n      jump\t// out\n        /* \"#utility.yul\":19074:19215   */\n    tag_327:\n        /* \"#utility.yul\":19123:19127   */\n      0x00\n        /* \"#utility.yul\":19146:19149   */\n      dup2\n        /* \"#utility.yul\":19138:19149   */\n      swap1\n      pop\n        /* \"#utility.yul\":19169:19172   */\n      dup2\n        /* \"#utility.yul\":19166:19167   */\n      0x00\n        /* \"#utility.yul\":19159:19173   */\n      mstore\n        /* \"#utility.yul\":19203:19207   */\n      0x20\n        /* \"#utility.yul\":19200:19201   */\n      0x00\n        /* \"#utility.yul\":19190:19208   */\n      keccak256\n        /* \"#utility.yul\":19182:19208   */\n      swap1\n      pop\n        /* \"#utility.yul\":19074:19215   */\n      swap2\n      swap1\n      pop\n      jump\t// out\n        /* \"#utility.yul\":19221:19314   */\n    tag_328:\n        /* \"#utility.yul\":19258:19264   */\n      0x00\n        /* \"#utility.yul\":19305:19307   */\n      0x20\n        /* \"#utility.yul\":19300:19302   */\n      0x1f\n        /* \"#utility.yul\":19293:19298   */\n      dup4\n        /* \"#utility.yul\":19289:19303   */\n      add\n        /* \"#utility.yul\":19285:19308   */\n      div\n        /* \"#utility.yul\":19275:19308   */\n      swap1\n      pop\n        /* \"#utility.yul\":19221:19314   */\n      swap2\n      swap1\n      pop\n      jump\t// out\n        /* \"#utility.yul\":19320:19427   */\n    tag_329:\n        /* \"#utility.yul\":19364:19372   */\n      0x00\n        /* \"#utility.yul\":19414:19419   */\n      dup3\n        /* \"#utility.yul\":19408:19412   */\n      dup3\n        /* \"#utility.yul\":19404:19420   */\n      shl\n        /* \"#utility.yul\":19383:19420   */\n      swap1\n      pop\n        /* \"#utility.yul\":19320:19427   */\n      swap3\n      swap2\n      pop\n      pop\n      jump\t// out\n        /* \"#utility.yul\":19433:19826   */\n    tag_330:\n        /* \"#utility.yul\":19502:19508   */\n      0x00\n        /* \"#utility.yul\":19552:19553   */\n      0x08\n        /* \"#utility.yul\":19540:19550   */\n      dup4\n        /* \"#utility.yul\":19536:19554   */\n      mul\n        /* \"#utility.yul\":19575:19672   */\n      tag_522\n        /* \"#utility.yul\":19605:19671   */\n      0xffffffffffffffffffffffffffffffffffffffffffffffffffffffffffffffff\n        /* \"#utility.yul\":19594:19603   */\n      dup3\n        /* \"#utility.yul\":19575:19672   */\n      tag_329\n      jump\t// in\n    tag_522:\n        /* \"#utility.yul\":19693:19732   */\n      tag_523\n        /* \"#utility.yul\":19723:19731   */\n      dup7\n        /* \"#utility.yul\":19712:19721   */\n      dup4\n        /* \"#utility.yul\":19693:19732   */\n      tag_329\n      jump\t// in\n    tag_523:\n        /* \"#utility.yul\":19681:19732   */\n      swap6\n      pop\n        /* \"#utility.yul\":19765:19769   */\n      dup1\n        /* \"#utility.yul\":19761:19770   */\n      not\n        /* \"#utility.yul\":19754:19759   */\n      dup5\n        /* \"#utility.yul\":19750:19771   */\n      and\n        /* \"#utility.yul\":19741:19771   */\n      swap4\n      pop\n        /* \"#utility.yul\":19814:19818   */\n      dup1\n        /* \"#utility.yul\":19804:19812   */\n      dup7\n        /* \"#utility.yul\":19800:19819   */\n      and\n        /* \"#utility.yul\":19793:19798   */\n      dup5\n        /* \"#utility.yul\":19790:19820   */\n      or\n        /* \"#utility.yul\":19780:19820   */\n      swap3\n      pop\n        /* \"#utility.yul\":19509:19826   */\n      pop\n      pop\n        /* \"#utility.yul\":19433:19826   */\n      swap4\n      swap3\n      pop\n      pop\n      pop\n      jump\t// out\n        /* \"#utility.yul\":19832:19892   */\n    tag_331:\n        /* \"#utility.yul\":19860:19863   */\n      0x00\n        /* \"#utility.yul\":19881:19886   */\n      dup2\n        /* \"#utility.yul\":19874:19886   */\n      swap1\n      pop\n        /* \"#utility.yul\":19832:19892   */\n      swap2\n      swap1\n      pop\n      jump\t// out\n        /* \"#utility.yul\":19898:20040   */\n    tag_332:\n        /* \"#utility.yul\":19948:19957   */\n      0x00\n        /* \"#utility.yul\":19981:20034   */\n      tag_526\n        /* \"#utility.yul\":19999:20033   */\n      tag_527\n        /* \"#utility.yul\":20008:20032   */\n      tag_528\n        /* \"#utility.yul\":20026:20031   */\n      dup5\n        /* \"#utility.yul\":20008:20032   */\n      tag_281\n      jump\t// in\n    tag_528:\n        /* \"#utility.yul\":19999:20033   */\n      tag_331\n      jump\t// in\n    tag_527:\n        /* \"#utility.yul\":19981:20034   */\n      tag_281\n      jump\t// in\n    tag_526:\n        /* \"#utility.yul\":19968:20034   */\n      swap1\n      pop\n        /* \"#utility.yul\":19898:20040   */\n      swap2\n      swap1\n      pop\n      jump\t// out\n        /* \"#utility.yul\":20046:20121   */\n    tag_333:\n        /* \"#utility.yul\":20089:20092   */\n      0x00\n        /* \"#utility.yul\":20110:20115   */\n      dup2\n        /* \"#utility.yul\":20103:20115   */\n      swap1\n      pop\n        /* \"#utility.yul\":20046:20121   */\n      swap2\n      swap1\n      pop\n      jump\t// out\n        /* \"#utility.yul\":20127:20396   */\n    tag_334:\n        /* \"#utility.yul\":20237:20276   */\n      tag_531\n        /* \"#utility.yul\":20268:20275   */\n      dup4\n        /* \"#utility.yul\":20237:20276   */\n      tag_332\n      jump\t// in\n    tag_531:\n        /* \"#utility.yul\":20298:20389   */\n      tag_532\n        /* \"#utility.yul\":20347:20388   */\n      tag_533\n        /* \"#utility.yul\":20371:20387   */\n      dup3\n        /* \"#utility.yul\":20347:20388   */\n      tag_333\n      jump\t// in\n    tag_533:\n        /* \"#utility.yul\":20339:20345   */\n      dup5\n        /* \"#utility.yul\":20332:20336   */\n      dup5\n        /* \"#utility.yul\":20326:20337   */\n      sload\n        /* \"#utility.yul\":20298:20389   */\n      tag_330\n      jump\t// in\n    tag_532:\n        /* \"#utility.yul\":20292:20296   */\n      dup3\n        /* \"#utility.yul\":20285:20390   */\n      sstore\n        /* \"#utility.yul\":20203:20396   */\n      pop\n        /* \"#utility.yul\":20127:20396   */\n      pop\n      pop\n      pop\n      jump\t// out\n        /* \"#utility.yul\":20402:20475   */\n    tag_335:\n        /* \"#utility.yul\":20447:20450   */\n      0x00\n        /* \"#utility.yul\":20402:20475   */\n      swap1\n      jump\t// out\n        /* \"#utility.yul\":20481:20670   */\n    tag_336:\n        /* \"#utility.yul\":20558:20590   */\n      tag_536\n      tag_335\n      jump\t// in\n    tag_536:\n        /* \"#utility.yul\":20599:20664   */\n      tag_537\n        /* \"#utility.yul\":20657:20663   */\n      dup2\n        /* \"#utility.yul\":20649:20655   */\n      dup5\n        /* \"#utility.yul\":20643:20647   */\n      dup5\n        /* \"#utility.yul\":20599:20664   */\n      tag_334\n      jump\t// in\n    tag_537:\n        /* \"#utility.yul\":20534:20670   */\n      pop\n        /* \"#utility.yul\":20481:20670   */\n      pop\n      pop\n      jump\t// out\n        /* \"#utility.yul\":20676:20862   */\n    tag_337:\n        /* \"#utility.yul\":20736:20856   */\n    tag_539:\n        /* \"#utility.yul\":20753:20756   */\n      dup2\n        /* \"#utility.yul\":20746:20751   */\n      dup2\n        /* \"#utility.yul\":20743:20757   */\n      lt\n        /* \"#utility.yul\":20736:20856   */\n      iszero\n      tag_541\n      jumpi\n        /* \"#utility.yul\":20807:20846   */\n      tag_542\n        /* \"#utility.yul\":20844:20845   */\n      0x00\n        /* \"#utility.yul\":20837:20842   */\n      dup3\n        /* \"#utility.yul\":20807:20846   */\n      tag_336\n      jump\t// in\n    tag_542:\n        /* \"#utility.yul\":20780:20781   */\n      0x01\n        /* \"#utility.yul\":20773:20778   */\n      dup2\n        /* \"#utility.yul\":20769:20782   */\n      add\n        /* \"#utility.yul\":20760:20782   */\n      swap1\n      pop\n        /* \"#utility.yul\":20736:20856   */\n      jump(tag_539)\n    tag_541:\n        /* \"#utility.yul\":20676:20862   */\n      pop\n      pop\n      jump\t// out\n        /* \"#utility.yul\":20868:21411   */\n    tag_338:\n        /* \"#utility.yul\":20969:20971   */\n      0x1f\n        /* \"#utility.yul\":20964:20967   */\n      dup3\n        /* \"#utility.yul\":20961:20972   */\n      gt\n        /* \"#utility.yul\":20958:21404   */\n      iszero\n      tag_544\n      jumpi\n        /* \"#utility.yul\":21003:21041   */\n      tag_545\n        /* \"#utility.yul\":21035:21040   */\n      dup2\n        /* \"#utility.yul\":21003:21041   */\n      tag_327\n      jump\t// in\n    tag_545:\n        /* \"#utility.yul\":21087:21116   */\n      tag_546\n        /* \"#utility.yul\":21105:21115   */\n      dup5\n        /* \"#utility.yul\":21087:21116   */\n      tag_328\n      jump\t// in\n    tag_546:\n        /* \"#utility.yul\":21077:21085   */\n      dup2\n        /* \"#utility.yul\":21073:21117   */\n      add\n        /* \"#utility.yul\":21270:21272   */\n      0x20\n        /* \"#utility.yul\":21258:21268   */\n      dup6\n        /* \"#utility.yul\":21255:21273   */\n      lt\n        /* \"#utility.yul\":21252:21301   */\n      iszero\n      tag_547\n      jumpi\n        /* \"#utility.yul\":21291:21299   */\n      dup2\n        /* \"#utility.yul\":21276:21299   */\n      swap1\n      pop\n        /* \"#utility.yul\":21252:21301   */\n    tag_547:\n        /* \"#utility.yul\":21314:21394   */\n      tag_548\n        /* \"#utility.yul\":21370:21392   */\n      tag_549\n        /* \"#utility.yul\":21388:21391   */\n      dup6\n        /* \"#utility.yul\":21370:21392   */\n      tag_328\n      jump\t// in\n    tag_549:\n        /* \"#utility.yul\":21360:21368   */\n      dup4\n        /* \"#utility.yul\":21356:21393   */\n      add\n        /* \"#utility.yul\":21343:21354   */\n      dup3\n        /* \"#utility.yul\":21314:21394   */\n      tag_337\n      jump\t// in\n    tag_548:\n        /* \"#utility.yul\":20973:21404   */\n      pop\n      pop\n        /* \"#utility.yul\":20958:21404   */\n    tag_544:\n        /* \"#utility.yul\":20868:21411   */\n      pop\n      pop\n      pop\n      jump\t// out\n        /* \"#utility.yul\":21417:21534   */\n    tag_339:\n        /* \"#utility.yul\":21471:21479   */\n      0x00\n        /* \"#utility.yul\":21521:21526   */\n      dup3\n        /* \"#utility.yul\":21515:21519   */\n      dup3\n        /* \"#utility.yul\":21511:21527   */\n      shr\n        /* \"#utility.yul\":21490:21527   */\n      swap1\n      pop\n        /* \"#utility.yul\":21417:21534   */\n      swap3\n      swap2\n      pop\n      pop\n      jump\t// out\n        /* \"#utility.yul\":21540:21709   */\n    tag_340:\n        /* \"#utility.yul\":21584:21590   */\n      0x00\n        /* \"#utility.yul\":21617:21668   */\n      tag_552\n        /* \"#utility.yul\":21665:21666   */\n      0x00\n        /* \"#utility.yul\":21661:21667   */\n      not\n        /* \"#utility.yul\":21653:21658   */\n      dup5\n        /* \"#utility.yul\":21650:21651   */\n      0x08\n        /* \"#utility.yul\":21646:21659   */\n      mul\n        /* \"#utility.yul\":21617:21668   */\n      tag_339\n      jump\t// in\n    tag_552:\n        /* \"#utility.yul\":21613:21669   */\n      not\n        /* \"#utility.yul\":21698:21702   */\n      dup1\n        /* \"#utility.yul\":21692:21696   */\n      dup4\n        /* \"#utility.yul\":21688:21703   */\n      and\n        /* \"#utility.yul\":21678:21703   */\n      swap2\n      pop\n        /* \"#utility.yul\":21591:21709   */\n      pop\n        /* \"#utility.yul\":21540:21709   */\n      swap3\n      swap2\n      pop\n      pop\n      jump\t// out\n        /* \"#utility.yul\":21714:22009   */\n    tag_341:\n        /* \"#utility.yul\":21790:21794   */\n      0x00\n        /* \"#utility.yul\":21936:21965   */\n      tag_554\n        /* \"#utility.yul\":21961:21964   */\n      dup4\n        /* \"#utility.yul\":21955:21959   */\n      dup4\n        /* \"#utility.yul\":21936:21965   */\n      tag_340\n      jump\t// in\n    tag_554:\n        /* \"#utility.yul\":21928:21965   */\n      swap2\n      pop\n        /* \"#utility.yul\":21998:22001   */\n      dup3\n        /* \"#utility.yul\":21995:21996   */\n      0x02\n        /* \"#utility.yul\":21991:22002   */\n      mul\n        /* \"#utility.yul\":21985:21989   */\n      dup3\n        /* \"#utility.yul\":21982:22003   */\n      or\n        /* \"#utility.yul\":21974:22003   */\n      swap1\n      pop\n        /* \"#utility.yul\":21714:22009   */\n      swap3\n      swap2\n      pop\n      pop\n      jump\t// out\n        /* \"#utility.yul\":22014:23409   */\n    tag_86:\n        /* \"#utility.yul\":22131:22168   */\n      tag_556\n        /* \"#utility.yul\":22164:22167   */\n      dup3\n        /* \"#utility.yul\":22131:22168   */\n      tag_288\n      jump\t// in\n    tag_556:\n        /* \"#utility.yul\":22233:22251   */\n      0xffffffffffffffff\n        /* \"#utility.yul\":22225:22231   */\n      dup2\n        /* \"#utility.yul\":22222:22252   */\n      gt\n        /* \"#utility.yul\":22219:22275   */\n      iszero\n      tag_557\n      jumpi\n        /* \"#utility.yul\":22255:22273   */\n      tag_558\n      tag_81\n      jump\t// in\n    tag_558:\n        /* \"#utility.yul\":22219:22275   */\n    tag_557:\n        /* \"#utility.yul\":22299:22337   */\n      tag_559\n        /* \"#utility.yul\":22331:22335   */\n      dup3\n        /* \"#utility.yul\":22325:22336   */\n      sload\n        /* \"#utility.yul\":22299:22337   */\n      tag_65\n      jump\t// in\n    tag_559:\n        /* \"#utility.yul\":22384:22451   */\n      tag_560\n        /* \"#utility.yul\":22444:22450   */\n      dup3\n        /* \"#utility.yul\":22436:22442   */\n      dup3\n        /* \"#utility.yul\":22430:22434   */\n      dup6\n        /* \"#utility.yul\":22384:22451   */\n      tag_338\n      jump\t// in\n    tag_560:\n        /* \"#utility.yul\":22478:22479   */\n      0x00\n        /* \"#utility.yul\":22502:22506   */\n      0x20\n        /* \"#utility.yul\":22489:22506   */\n      swap1\n      pop\n        /* \"#utility.yul\":22534:22536   */\n      0x1f\n        /* \"#utility.yul\":22526:22532   */\n      dup4\n        /* \"#utility.yul\":22523:22537   */\n      gt\n        /* \"#utility.yul\":22551:22552   */\n      0x01\n        /* \"#utility.yul\":22546:23164   */\n      dup2\n      eq\n      tag_562\n      jumpi\n        /* \"#utility.yul\":23208:23209   */\n      0x00\n        /* \"#utility.yul\":23225:23231   */\n      dup5\n        /* \"#utility.yul\":23222:23299   */\n      iszero\n      tag_563\n      jumpi\n        /* \"#utility.yul\":23274:23283   */\n      dup3\n        /* \"#utility.yul\":23269:23272   */\n      dup8\n        /* \"#utility.yul\":23265:23284   */\n      add\n        /* \"#utility.yul\":23259:23285   */\n      mload\n        /* \"#utility.yul\":23250:23285   */\n      swap1\n      pop\n        /* \"#utility.yul\":23222:23299   */\n    tag_563:\n        /* \"#utility.yul\":23325:23392   */\n      tag_564\n        /* \"#utility.yul\":23385:23391   */\n      dup6\n        /* \"#utility.yul\":23378:23383   */\n      dup3\n        /* \"#utility.yul\":23325:23392   */\n      tag_341\n      jump\t// in\n    tag_564:\n        /* \"#utility.yul\":23319:23323   */\n      dup7\n        /* \"#utility.yul\":23312:23393   */\n      sstore\n        /* \"#utility.yul\":23181:23403   */\n      pop\n        /* \"#utility.yul\":22516:23403   */\n      jump(tag_561)\n        /* \"#utility.yul\":22546:23164   */\n    tag_562:\n        /* \"#utility.yul\":22598:22602   */\n      0x1f\n        /* \"#utility.yul\":22594:22603   */\n      not\n        /* \"#utility.yul\":22586:22592   */\n      dup5\n        /* \"#utility.yul\":22582:22604   */\n      and\n        /* \"#utility.yul\":22632:22669   */\n      tag_565\n        /* \"#utility.yul\":22664:22668   */\n      dup7\n        /* \"#utility.yul\":22632:22669   */\n      tag_327\n      jump\t// in\n    tag_565:\n        /* \"#utility.yul\":22691:22692   */\n      0x00\n        /* \"#utility.yul\":22705:22913   */\n    tag_566:\n        /* \"#utility.yul\":22719:22726   */\n      dup3\n        /* \"#utility.yul\":22716:22717   */\n      dup2\n        /* \"#utility.yul\":22713:22727   */\n      lt\n        /* \"#utility.yul\":22705:22913   */\n      iszero\n      tag_568\n      jumpi\n        /* \"#utility.yul\":22798:22807   */\n      dup5\n        /* \"#utility.yul\":22793:22796   */\n      dup10\n        /* \"#utility.yul\":22789:22808   */\n      add\n        /* \"#utility.yul\":22783:22809   */\n      mload\n        /* \"#utility.yul\":22775:22781   */\n      dup3\n        /* \"#utility.yul\":22768:22810   */\n      sstore\n        /* \"#utility.yul\":22849:22850   */\n      0x01\n        /* \"#utility.yul\":22841:22847   */\n      dup3\n        /* \"#utility.yul\":22837:22851   */\n      add\n        /* \"#utility.yul\":22827:22851   */\n      swap2\n      pop\n        /* \"#utility.yul\":22896:22898   */\n      0x20\n        /* \"#utility.yul\":22885:22894   */\n      dup6\n        /* \"#utility.yul\":22881:22899   */\n      add\n        /* \"#utility.yul\":22868:22899   */\n      swap5\n      pop\n        /* \"#utility.yul\":22742:22746   */\n      0x20\n        /* \"#utility.yul\":22739:22740   */\n      dup2\n        /* \"#utility.yul\":22735:22747   */\n      add\n        /* \"#utility.yul\":22730:22747   */\n      swap1\n      pop\n        /* \"#utility.yul\":22705:22913   */\n      jump(tag_566)\n    tag_568:\n        /* \"#utility.yul\":22941:22947   */\n      dup7\n        /* \"#utility.yul\":22932:22939   */\n      dup4\n        /* \"#utility.yul\":22929:22948   */\n      lt\n        /* \"#utility.yul\":22926:23105   */\n      iszero\n      tag_569\n      jumpi\n        /* \"#utility.yul\":22999:23008   */\n      dup5\n        /* \"#utility.yul\":22994:22997   */\n      dup10\n        /* \"#utility.yul\":22990:23009   */\n      add\n        /* \"#utility.yul\":22984:23010   */\n      mload\n        /* \"#utility.yul\":23042:23090   */\n      tag_570\n        /* \"#utility.yul\":23084:23088   */\n      0x1f\n        /* \"#utility.yul\":23076:23082   */\n      dup10\n        /* \"#utility.yul\":23072:23089   */\n      and\n        /* \"#utility.yul\":23061:23070   */\n      dup3\n        /* \"#utility.yul\":23042:23090   */\n      tag_340\n      jump\t// in\n    tag_570:\n        /* \"#utility.yul\":23034:23040   */\n      dup4\n        /* \"#utility.yul\":23027:23091   */\n      sstore\n        /* \"#utility.yul\":22949:23105   */\n      pop\n        /* \"#utility.yul\":22926:23105   */\n    tag_569:\n        /* \"#utility.yul\":23151:23152   */\n      0x01\n        /* \"#utility.yul\":23147:23148   */\n      0x02\n        /* \"#utility.yul\":23139:23145   */\n      dup9\n        /* \"#utility.yul\":23135:23149   */\n      mul\n        /* \"#utility.yul\":23131:23153   */\n      add\n        /* \"#utility.yul\":23125:23129   */\n      dup9\n        /* \"#utility.yul\":23118:23154   */\n      sstore\n        /* \"#utility.yul\":22553:23164   */\n      pop\n      pop\n      pop\n        /* \"#utility.yul\":22516:23403   */\n    tag_561:\n      pop\n        /* \"#utility.yul\":22106:23409   */\n      pop\n      pop\n      pop\n        /* \"#utility.yul\":22014:23409   */\n      pop\n      pop\n      jump\t// out\n        /* \"#utility.yul\":23415:23648   */\n    tag_92:\n        /* \"#utility.yul\":23454:23457   */\n      0x00\n        /* \"#utility.yul\":23477:23501   */\n      tag_572\n        /* \"#utility.yul\":23495:23500   */\n      dup3\n        /* \"#utility.yul\":23477:23501   */\n      tag_281\n      jump\t// in\n    tag_572:\n        /* \"#utility.yul\":23468:23501   */\n      swap2\n      pop\n        /* \"#utility.yul\":23523:23589   */\n      0xffffffffffffffffffffffffffffffffffffffffffffffffffffffffffffffff\n        /* \"#utility.yul\":23516:23521   */\n      dup3\n        /* \"#utility.yul\":23513:23590   */\n      sub\n        /* \"#utility.yul\":23510:23613   */\n      tag_573\n      jumpi\n        /* \"#utility.yul\":23593:23611   */\n      tag_574\n      tag_326\n      jump\t// in\n    tag_574:\n        /* \"#utility.yul\":23510:23613   */\n    tag_573:\n        /* \"#utility.yul\":23640:23641   */\n      0x01\n        /* \"#utility.yul\":23633:23638   */\n      dup3\n        /* \"#utility.yul\":23629:23642   */\n      add\n        /* \"#utility.yul\":23622:23642   */\n      swap1\n      pop\n        /* \"#utility.yul\":23415:23648   */\n      swap2\n      swap1\n      pop\n      jump\t// out\n        /* \"#utility.yul\":23654:23834   */\n    tag_105:\n        /* \"#utility.yul\":23702:23779   */\n      0x4e487b7100000000000000000000000000000000000000000000000000000000\n        /* \"#utility.yul\":23699:23700   */\n      0x00\n        /* \"#utility.yul\":23692:23780   */\n      mstore\n        /* \"#utility.yul\":23799:23803   */\n      0x32\n        /* \"#utility.yul\":23796:23797   */\n      0x04\n        /* \"#utility.yul\":23789:23804   */\n      mstore\n        /* \"#utility.yul\":23823:23827   */\n      0x24\n        /* \"#utility.yul\":23820:23821   */\n      0x00\n        /* \"#utility.yul\":23813:23828   */\n      revert\n        /* \"#utility.yul\":23840:24012   */\n    tag_342:\n        /* \"#utility.yul\":23980:24004   */\n      0x41756374696f6e20646f6573206e6f7420657869737400000000000000000000\n        /* \"#utility.yul\":23976:23977   */\n      0x00\n        /* \"#utility.yul\":23968:23974   */\n      dup3\n        /* \"#utility.yul\":23964:23978   */\n      add\n        /* \"#utility.yul\":23957:24005   */\n      mstore\n        /* \"#utility.yul\":23840:24012   */\n      pop\n      jump\t// out\n        /* \"#utility.yul\":24018:24384   */\n    tag_343:\n        /* \"#utility.yul\":24160:24163   */\n      0x00\n        /* \"#utility.yul\":24181:24248   */\n      tag_578\n        /* \"#utility.yul\":24245:24247   */\n      0x16\n        /* \"#utility.yul\":24240:24243   */\n      dup4\n        /* \"#utility.yul\":24181:24248   */\n      tag_289\n      jump\t// in\n    tag_578:\n        /* \"#utility.yul\":24174:24248   */\n      swap2\n      pop\n        /* \"#utility.yul\":24257:24350   */\n      tag_579\n        /* \"#utility.yul\":24346:24349   */\n      dup3\n        /* \"#utility.yul\":24257:24350   */\n      tag_342\n      jump\t// in\n    tag_579:\n        /* \"#utility.yul\":24375:24377   */\n      0x20\n        /* \"#utility.yul\":24370:24373   */\n      dup3\n        /* \"#utility.yul\":24366:24378   */\n      add\n        /* \"#utility.yul\":24359:24378   */\n      swap1\n      pop\n        /* \"#utility.yul\":24018:24384   */\n      swap2\n      swap1\n      pop\n      jump\t// out\n        /* \"#utility.yul\":24390:24809   */\n    tag_114:\n        /* \"#utility.yul\":24556:24560   */\n      0x00\n        /* \"#utility.yul\":24594:24596   */\n      0x20\n        /* \"#utility.yul\":24583:24592   */\n      dup3\n        /* \"#utility.yul\":24579:24597   */\n      add\n        /* \"#utility.yul\":24571:24597   */\n      swap1\n      pop\n        /* \"#utility.yul\":24643:24652   */\n      dup2\n        /* \"#utility.yul\":24637:24641   */\n      dup2\n        /* \"#utility.yul\":24633:24653   */\n      sub\n        /* \"#utility.yul\":24629:24630   */\n      0x00\n        /* \"#utility.yul\":24618:24627   */\n      dup4\n        /* \"#utility.yul\":24614:24631   */\n      add\n        /* \"#utility.yul\":24607:24654   */\n      mstore\n        /* \"#utility.yul\":24671:24802   */\n      tag_581\n        /* \"#utility.yul\":24797:24801   */\n      dup2\n        /* \"#utility.yul\":24671:24802   */\n      tag_343\n      jump\t// in\n    tag_581:\n        /* \"#utility.yul\":24663:24802   */\n      swap1\n      pop\n        /* \"#utility.yul\":24390:24809   */\n      swap2\n      swap1\n      pop\n      jump\t// out\n        /* \"#utility.yul\":24815:24980   */\n    tag_344:\n        /* \"#utility.yul\":24955:24972   */\n      0x41756374696f6e20657870697265640000000000000000000000000000000000\n        /* \"#utility.yul\":24951:24952   */\n      0x00\n        /* \"#utility.yul\":24943:24949   */\n      dup3\n        /* \"#utility.yul\":24939:24953   */\n      add\n        /* \"#utility.yul\":24932:24973   */\n      mstore\n        /* \"#utility.yul\":24815:24980   */\n      pop\n      jump\t// out\n        /* \"#utility.yul\":24986:25352   */\n    tag_345:\n        /* \"#utility.yul\":25128:25131   */\n      0x00\n        /* \"#utility.yul\":25149:25216   */\n      tag_584\n        /* \"#utility.yul\":25213:25215   */\n      0x0f\n        /* \"#utility.yul\":25208:25211   */\n      dup4\n        /* \"#utility.yul\":25149:25216   */\n      tag_289\n      jump\t// in\n    tag_584:\n        /* \"#utility.yul\":25142:25216   */\n      swap2\n      pop\n        /* \"#utility.yul\":25225:25318   */\n      tag_585\n        /* \"#utility.yul\":25314:25317   */\n      dup3\n        /* \"#utility.yul\":25225:25318   */\n      tag_344\n      jump\t// in\n    tag_585:\n        /* \"#utility.yul\":25343:25345   */\n      0x20\n        /* \"#utility.yul\":25338:25341   */\n      dup3\n        /* \"#utility.yul\":25334:25346   */\n      add\n        /* \"#utility.yul\":25327:25346   */\n      swap1\n      pop\n        /* \"#utility.yul\":24986:25352   */\n      swap2\n      swap1\n      pop\n      jump\t// out\n        /* \"#utility.yul\":25358:25777   */\n    tag_162:\n        /* \"#utility.yul\":25524:25528   */\n      0x00\n        /* \"#utility.yul\":25562:25564   */\n      0x20\n        /* \"#utility.yul\":25551:25560   */\n      dup3\n        /* \"#utility.yul\":25547:25565   */\n      add\n        /* \"#utility.yul\":25539:25565   */\n      swap1\n      pop\n        /* \"#utility.yul\":25611:25620   */\n      dup2\n        /* \"#utility.yul\":25605:25609   */\n      dup2\n        /* \"#utility.yul\":25601:25621   */\n      sub\n        /* \"#utility.yul\":25597:25598   */\n      0x00\n        /* \"#utility.yul\":25586:25595   */\n      dup4\n        /* \"#utility.yul\":25582:25599   */\n      add\n        /* \"#utility.yul\":25575:25622   */\n      mstore\n        /* \"#utility.yul\":25639:25770   */\n      tag_587\n        /* \"#utility.yul\":25765:25769   */\n      dup2\n        /* \"#utility.yul\":25639:25770   */\n      tag_345\n      jump\t// in\n    tag_587:\n        /* \"#utility.yul\":25631:25770   */\n      swap1\n      pop\n        /* \"#utility.yul\":25358:25777   */\n      swap2\n      swap1\n      pop\n      jump\t// out\n        /* \"#utility.yul\":25783:26074   */\n    tag_346:\n        /* \"#utility.yul\":25923:25957   */\n      0x50726963652073686f756c642062652067726561746572207468616e206d696e\n        /* \"#utility.yul\":25919:25920   */\n      0x00\n        /* \"#utility.yul\":25911:25917   */\n      dup3\n        /* \"#utility.yul\":25907:25921   */\n      add\n        /* \"#utility.yul\":25900:25958   */\n      mstore\n        /* \"#utility.yul\":25992:26026   */\n      0x696d756d206f6666657220707269636520616e64207468652062657374206f66\n        /* \"#utility.yul\":25987:25989   */\n      0x20\n        /* \"#utility.yul\":25979:25985   */\n      dup3\n        /* \"#utility.yul\":25975:25990   */\n      add\n        /* \"#utility.yul\":25968:26027   */\n      mstore\n        /* \"#utility.yul\":26061:26066   */\n      0x6665720000000000000000000000000000000000000000000000000000000000\n        /* \"#utility.yul\":26056:26058   */\n      0x40\n        /* \"#utility.yul\":26048:26054   */\n      dup3\n        /* \"#utility.yul\":26044:26059   */\n      add\n        /* \"#utility.yul\":26037:26067   */\n      mstore\n        /* \"#utility.yul\":25783:26074   */\n      pop\n      jump\t// out\n        /* \"#utility.yul\":26080:26446   */\n    tag_347:\n        /* \"#utility.yul\":26222:26225   */\n      0x00\n        /* \"#utility.yul\":26243:26310   */\n      tag_590\n        /* \"#utility.yul\":26307:26309   */\n      0x43\n        /* \"#utility.yul\":26302:26305   */\n      dup4\n        /* \"#utility.yul\":26243:26310   */\n      tag_289\n      jump\t// in\n    tag_590:\n        /* \"#utility.yul\":26236:26310   */\n      swap2\n      pop\n        /* \"#utility.yul\":26319:26412   */\n      tag_591\n        /* \"#utility.yul\":26408:26411   */\n      dup3\n        /* \"#utility.yul\":26319:26412   */\n      tag_346\n      jump\t// in\n    tag_591:\n        /* \"#utility.yul\":26437:26439   */\n      0x60\n        /* \"#utility.yul\":26432:26435   */\n      dup3\n        /* \"#utility.yul\":26428:26440   */\n      add\n        /* \"#utility.yul\":26421:26440   */\n      swap1\n      pop\n        /* \"#utility.yul\":26080:26446   */\n      swap2\n      swap1\n      pop\n      jump\t// out\n        /* \"#utility.yul\":26452:26871   */\n    tag_166:\n        /* \"#utility.yul\":26618:26622   */\n      0x00\n        /* \"#utility.yul\":26656:26658   */\n      0x20\n        /* \"#utility.yul\":26645:26654   */\n      dup3\n        /* \"#utility.yul\":26641:26659   */\n      add\n        /* \"#utility.yul\":26633:26659   */\n      swap1\n      pop\n        /* \"#utility.yul\":26705:26714   */\n      dup2\n        /* \"#utility.yul\":26699:26703   */\n      dup2\n        /* \"#utility.yul\":26695:26715   */\n      sub\n        /* \"#utility.yul\":26691:26692   */\n      0x00\n        /* \"#utility.yul\":26680:26689   */\n      dup4\n        /* \"#utility.yul\":26676:26693   */\n      add\n        /* \"#utility.yul\":26669:26716   */\n      mstore\n        /* \"#utility.yul\":26733:26864   */\n      tag_593\n        /* \"#utility.yul\":26859:26863   */\n      dup2\n        /* \"#utility.yul\":26733:26864   */\n      tag_347\n      jump\t// in\n    tag_593:\n        /* \"#utility.yul\":26725:26864   */\n      swap1\n      pop\n        /* \"#utility.yul\":26452:26871   */\n      swap2\n      swap1\n      pop\n      jump\t// out\n        /* \"#utility.yul\":26877:27068   */\n    tag_192:\n        /* \"#utility.yul\":26917:26921   */\n      0x00\n        /* \"#utility.yul\":26937:26957   */\n      tag_595\n        /* \"#utility.yul\":26955:26956   */\n      dup3\n        /* \"#utility.yul\":26937:26957   */\n      tag_281\n      jump\t// in\n    tag_595:\n        /* \"#utility.yul\":26932:26957   */\n      swap2\n      pop\n        /* \"#utility.yul\":26971:26991   */\n      tag_596\n        /* \"#utility.yul\":26989:26990   */\n      dup4\n        /* \"#utility.yul\":26971:26991   */\n      tag_281\n      jump\t// in\n    tag_596:\n        /* \"#utility.yul\":26966:26991   */\n      swap3\n      pop\n        /* \"#utility.yul\":27010:27011   */\n      dup3\n        /* \"#utility.yul\":27007:27008   */\n      dup3\n        /* \"#utility.yul\":27004:27012   */\n      lt\n        /* \"#utility.yul\":27001:27035   */\n      iszero\n      tag_597\n      jumpi\n        /* \"#utility.yul\":27015:27033   */\n      tag_598\n      tag_326\n      jump\t// in\n    tag_598:\n        /* \"#utility.yul\":27001:27035   */\n    tag_597:\n        /* \"#utility.yul\":27060:27061   */\n      dup3\n        /* \"#utility.yul\":27057:27058   */\n      dup3\n        /* \"#utility.yul\":27053:27062   */\n      sub\n        /* \"#utility.yul\":27045:27062   */\n      swap1\n      pop\n        /* \"#utility.yul\":26877:27068   */\n      swap3\n      swap2\n      pop\n      pop\n      jump\t// out\n        /* \"#utility.yul\":27074:27247   */\n    tag_348:\n        /* \"#utility.yul\":27214:27239   */\n      0x41756374696f6e206973207374696c6c20616374697665000000000000000000\n        /* \"#utility.yul\":27210:27211   */\n      0x00\n        /* \"#utility.yul\":27202:27208   */\n      dup3\n        /* \"#utility.yul\":27198:27212   */\n      add\n        /* \"#utility.yul\":27191:27240   */\n      mstore\n        /* \"#utility.yul\":27074:27247   */\n      pop\n      jump\t// out\n        /* \"#utility.yul\":27253:27619   */\n    tag_349:\n        /* \"#utility.yul\":27395:27398   */\n      0x00\n        /* \"#utility.yul\":27416:27483   */\n      tag_601\n        /* \"#utility.yul\":27480:27482   */\n      0x17\n        /* \"#utility.yul\":27475:27478   */\n      dup4\n        /* \"#utility.yul\":27416:27483   */\n      tag_289\n      jump\t// in\n    tag_601:\n        /* \"#utility.yul\":27409:27483   */\n      swap2\n      pop\n        /* \"#utility.yul\":27492:27585   */\n      tag_602\n        /* \"#utility.yul\":27581:27584   */\n      dup3\n        /* \"#utility.yul\":27492:27585   */\n      tag_348\n      jump\t// in\n    tag_602:\n        /* \"#utility.yul\":27610:27612   */\n      0x20\n        /* \"#utility.yul\":27605:27608   */\n      dup3\n        /* \"#utility.yul\":27601:27613   */\n      add\n        /* \"#utility.yul\":27594:27613   */\n      swap1\n      pop\n        /* \"#utility.yul\":27253:27619   */\n      swap2\n      swap1\n      pop\n      jump\t// out\n        /* \"#utility.yul\":27625:28044   */\n    tag_225:\n        /* \"#utility.yul\":27791:27795   */\n      0x00\n        /* \"#utility.yul\":27829:27831   */\n      0x20\n        /* \"#utility.yul\":27818:27827   */\n      dup3\n        /* \"#utility.yul\":27814:27832   */\n      add\n        /* \"#utility.yul\":27806:27832   */\n      swap1\n      pop\n        /* \"#utility.yul\":27878:27887   */\n      dup2\n        /* \"#utility.yul\":27872:27876   */\n      dup2\n        /* \"#utility.yul\":27868:27888   */\n      sub\n        /* \"#utility.yul\":27864:27865   */\n      0x00\n        /* \"#utility.yul\":27853:27862   */\n      dup4\n        /* \"#utility.yul\":27849:27866   */\n      add\n        /* \"#utility.yul\":27842:27889   */\n      mstore\n        /* \"#utility.yul\":27906:28037   */\n      tag_604\n        /* \"#utility.yul\":28032:28036   */\n      dup2\n        /* \"#utility.yul\":27906:28037   */\n      tag_349\n      jump\t// in\n    tag_604:\n        /* \"#utility.yul\":27898:28037   */\n      swap1\n      pop\n        /* \"#utility.yul\":27625:28044   */\n      swap2\n      swap1\n      pop\n      jump\t// out\n\n    auxdata: 0xa2646970667358221220a43d9b2ec4c2137d6277e35480fe84637cb2d0be1c0d4a57c71ab393b663f24364736f6c634300080f0033\n}\n",
				"bytecode": {
					"linkReferences": {},
					"object": "608060405260018055600160035534801561001957600080fd5b50612a7e806100296000396000f3fe6080604052600436106100915760003560e01c8063a269993d11610059578063a269993d146101a8578063c43ede15146101c4578063d7c0691914610201578063df1dd8261461022c578063ff3ad0b41461025557610091565b8063571a26a01461009657806361e2db55146100d9578063661d2c2c146101025780638a72ea6a1461013f57806396b5a7551461017f575b600080fd5b3480156100a257600080fd5b506100bd60048036038101906100b89190611c61565b610292565b6040516100d09796959493929190611d77565b60405180910390f35b3480156100e557600080fd5b5061010060048036038101906100fb9190611e59565b610404565b005b34801561010e57600080fd5b5061012960048036038101906101249190611f2c565b6106d2565b604051610136919061207b565b60405180910390f35b34801561014b57600080fd5b5061016660048036038101906101619190611c61565b610873565b604051610176949392919061209d565b60405180910390f35b34801561018b57600080fd5b506101a660048036038101906101a19190611c61565b6108c3565b005b6101c260048036038101906101bd9190611c61565b610e2f565b005b3480156101d057600080fd5b506101eb60048036038101906101e69190611c61565b6110d6565b6040516101f8919061207b565b60405180910390f35b34801561020d57600080fd5b506102166112a5565b604051610223919061235b565b60405180910390f35b34801561023857600080fd5b50610253600480360381019061024e9190611c61565b61157a565b005b34801561026157600080fd5b5061027c60048036038101906102779190611f2c565b611796565b604051610289919061235b565b60405180910390f35b60006020528060005260406000206000915090508060000154908060010160009054906101000a900473ffffffffffffffffffffffffffffffffffffffff16908060020180546102e1906123ac565b80601f016020809104026020016040519081016040528092919081815260200182805461030d906123ac565b801561035a5780601f1061032f5761010080835404028352916020019161035a565b820191906000526020600020905b81548152906001019060200180831161033d57829003601f168201915b50505050509080600301805461036f906123ac565b80601f016020809104026020016040519081016040528092919081815260200182805461039b906123ac565b80156103e85780601f106103bd576101008083540402835291602001916103e8565b820191906000526020600020905b8154815290600101906020018083116103cb57829003601f168201915b5050505050908060040154908060050154908060060154905087565b60008211610447576040517f08c379a000000000000000000000000000000000000000000000000000000000815260040161043e9061244f565b60405180910390fd5b60008067ffffffffffffffff8111156104635761046261246f565b5b6040519080825280602002602001820160405280156104915781602001602082028036833780820191505090505b50905060405180610100016040528060015481526020013373ffffffffffffffffffffffffffffffffffffffff16815260200188888080601f016020809104026020016040519081016040528093929190818152602001838380828437600081840152601f19601f82011690508083019250505050505050815260200186868080601f016020809104026020016040519081016040528093929190818152602001838380828437600081840152601f19601f820116905080830192505050505050508152602001848152602001834261056a91906124cd565b8152602001600081526020018281525060008060015481526020019081526020016000206000820151816000015560208201518160010160006101000a81548173ffffffffffffffffffffffffffffffffffffffff021916908373ffffffffffffffffffffffffffffffffffffffff16021790555060408201518160020190816105f491906126cf565b50606082015181600301908161060a91906126cf565b506080820151816004015560a0820151816005015560c0820151816006015560e0820151816007019080519060200190610645929190611abd565b50905050600460003373ffffffffffffffffffffffffffffffffffffffff1673ffffffffffffffffffffffffffffffffffffffff1681526020019081526020016000206001549080600181540180825580915050600190039060005260206000200160009091909190915055600160008154809291906106c4906127a1565b919050555050505050505050565b60606000600560008473ffffffffffffffffffffffffffffffffffffffff1673ffffffffffffffffffffffffffffffffffffffff16815260200190815260200160002090506000818054905067ffffffffffffffff8111156107375761073661246f565b5b60405190808252806020026020018201604052801561077057816020015b61075d611b0a565b8152602001906001900390816107555790505b50905060005b8280549050811015610868576000838281548110610797576107966127e9565b5b906000526020600020015490506002600082815260200190815260200160002060405180608001604052908160008201548152602001600182015481526020016002820160009054906101000a900473ffffffffffffffffffffffffffffffffffffffff1673ffffffffffffffffffffffffffffffffffffffff1673ffffffffffffffffffffffffffffffffffffffff168152602001600382015481525050838381518110610849576108486127e9565b5b6020026020010181905250508080610860906127a1565b915050610776565b508092505050919050565b60026020528060005260406000206000915090508060000154908060010154908060020160009054906101000a900473ffffffffffffffffffffffffffffffffffffffff16908060030154905084565b806000811180156108d5575060015481105b610914576040517f08c379a000000000000000000000000000000000000000000000000000000000815260040161090b90612864565b60405180910390fd5b6000806000848152602001908152602001600020905060005b8160070180549050811015610b8b576000826007018281548110610954576109536127e9565b5b9060005260206000200154905060006002600083815260200190815260200160002090508060020160009054906101000a900473ffffffffffffffffffffffffffffffffffffffff1673ffffffffffffffffffffffffffffffffffffffff166108fc82600301549081150290604051600060405180830381858888f193505050501580156109e6573d6000803e3d6000fd5b5060005b600560008360020160009054906101000a900473ffffffffffffffffffffffffffffffffffffffff1673ffffffffffffffffffffffffffffffffffffffff1673ffffffffffffffffffffffffffffffffffffffff16815260200190815260200160002080549050811015610b755782600560008460020160009054906101000a900473ffffffffffffffffffffffffffffffffffffffff1673ffffffffffffffffffffffffffffffffffffffff1673ffffffffffffffffffffffffffffffffffffffff1681526020019081526020016000208281548110610ace57610acd6127e9565b5b906000526020600020015403610b6257600560008360020160009054906101000a900473ffffffffffffffffffffffffffffffffffffffff1673ffffffffffffffffffffffffffffffffffffffff1673ffffffffffffffffffffffffffffffffffffffff1681526020019081526020016000208181548110610b5357610b526127e9565b5b90600052602060002001600090555b8080610b6d906127a1565b9150506109ea565b5050508080610b83906127a1565b91505061092d565b5060005b600460008360010160009054906101000a900473ffffffffffffffffffffffffffffffffffffffff1673ffffffffffffffffffffffffffffffffffffffff1673ffffffffffffffffffffffffffffffffffffffff16815260200190815260200160002080549050811015610d1a5783600460008460010160009054906101000a900473ffffffffffffffffffffffffffffffffffffffff1673ffffffffffffffffffffffffffffffffffffffff1673ffffffffffffffffffffffffffffffffffffffff1681526020019081526020016000208281548110610c7357610c726127e9565b5b906000526020600020015403610d0757600460008360010160009054906101000a900473ffffffffffffffffffffffffffffffffffffffff1673ffffffffffffffffffffffffffffffffffffffff1673ffffffffffffffffffffffffffffffffffffffff1681526020019081526020016000208181548110610cf857610cf76127e9565b5b90600052602060002001600090555b8080610d12906127a1565b915050610b8f565b50600460008260010160009054906101000a900473ffffffffffffffffffffffffffffffffffffffff1673ffffffffffffffffffffffffffffffffffffffff1673ffffffffffffffffffffffffffffffffffffffff1681526020019081526020016000208381548110610d9057610d8f6127e9565b5b90600052602060002001600090556000808481526020019081526020016000206000808201600090556001820160006101000a81549073ffffffffffffffffffffffffffffffffffffffff0219169055600282016000610df09190611b48565b600382016000610e009190611b48565b600482016000905560058201600090556006820160009055600782016000610e289190611b88565b5050505050565b80600081118015610e41575060015481105b610e80576040517f08c379a0000000000000000000000000000000000000000000000000000000008152600401610e7790612864565b60405180910390fd5b6000806000848152602001908152602001600020905080600501544210610edc576040517f08c379a0000000000000000000000000000000000000000000000000000000008152600401610ed3906128d0565b60405180910390fd5b60006002600083600601548152602001908152602001600020905081600401543410158015610f0e5750806003015434115b610f4d576040517f08c379a0000000000000000000000000000000000000000000000000000000008152600401610f4490612988565b60405180910390fd5b6003548260060181905550604051806080016040528060035481526020018581526020013373ffffffffffffffffffffffffffffffffffffffff16815260200134815250600260006003548152602001908152602001600020600082015181600001556020820151816001015560408201518160020160006101000a81548173ffffffffffffffffffffffffffffffffffffffff021916908373ffffffffffffffffffffffffffffffffffffffff1602179055506060820151816003015590505081600701600354908060018154018082558091505060019003906000526020600020016000909190919091505560013461104891906124cd565b8260040181905550600560003373ffffffffffffffffffffffffffffffffffffffff1673ffffffffffffffffffffffffffffffffffffffff1681526020019081526020016000206003549080600181540180825580915050600190039060005260206000200160009091909190915055600360008154809291906110cb906127a1565b919050555050505050565b6060816000811180156110ea575060015481105b611129576040517f08c379a000000000000000000000000000000000000000000000000000000000815260040161112090612864565b60405180910390fd5b6000806000858152602001908152602001600020905060008160070190506000818054905067ffffffffffffffff8111156111675761116661246f565b5b6040519080825280602002602001820160405280156111a057816020015b61118d611b0a565b8152602001906001900390816111855790505b50905060005b82805490508110156112985760008382815481106111c7576111c66127e9565b5b906000526020600020015490506002600082815260200190815260200160002060405180608001604052908160008201548152602001600182015481526020016002820160009054906101000a900473ffffffffffffffffffffffffffffffffffffffff1673ffffffffffffffffffffffffffffffffffffffff1673ffffffffffffffffffffffffffffffffffffffff168152602001600382015481525050838381518110611279576112786127e9565b5b6020026020010181905250508080611290906127a1565b9150506111a6565b5080945050505050919050565b60606000600180546112b791906129a8565b67ffffffffffffffff8111156112d0576112cf61246f565b5b60405190808252806020026020018201604052801561130957816020015b6112f6611ba9565b8152602001906001900390816112ee5790505b5090506000600190505b6001548110156115725760008082815260200190815260200160002060405180610100016040529081600082015481526020016001820160009054906101000a900473ffffffffffffffffffffffffffffffffffffffff1673ffffffffffffffffffffffffffffffffffffffff1673ffffffffffffffffffffffffffffffffffffffff1681526020016002820180546113ab906123ac565b80601f01602080910402602001604051908101604052809291908181526020018280546113d7906123ac565b80156114245780601f106113f957610100808354040283529160200191611424565b820191906000526020600020905b81548152906001019060200180831161140757829003601f168201915b5050505050815260200160038201805461143d906123ac565b80601f0160208091040260200160405190810160405280929190818152602001828054611469906123ac565b80156114b65780601f1061148b576101008083540402835291602001916114b6565b820191906000526020600020905b81548152906001019060200180831161149957829003601f168201915b505050505081526020016004820154815260200160058201548152602001600682015481526020016007820180548060200260200160405190810160405280929190818152602001828054801561152c57602002820191906000526020600020905b815481526020019060010190808311611518575b5050505050815250508260018361154391906129a8565b81518110611554576115536127e9565b5b6020026020010181905250808061156a906127a1565b915050611313565b508091505090565b8060008111801561158c575060015481105b6115cb576040517f08c379a00000000000000000000000000000000000000000000000000000000081526004016115c290612864565b60405180910390fd5b6000806000848152602001908152602001600020905060006002600083600601548152602001908152602001600020905081600501544211611642576040517f08c379a000000000000000000000000000000000000000000000000000000000815260040161163990612a28565b60405180910390fd5b60005b826007018054905081101561172057600083600701828154811061166c5761166b6127e9565b5b9060005260206000200154905060006002600083815260200190815260200160002090508360000154821461170b578060020160009054906101000a900473ffffffffffffffffffffffffffffffffffffffff1673ffffffffffffffffffffffffffffffffffffffff166108fc82600301549081150290604051600060405180830381858888f19350505050158015611709573d6000803e3d6000fd5b505b50508080611718906127a1565b915050611645565b508160010160009054906101000a900473ffffffffffffffffffffffffffffffffffffffff1673ffffffffffffffffffffffffffffffffffffffff166108fc82600301549081150290604051600060405180830381858888f1935050505015801561178f573d6000803e3d6000fd5b5050505050565b60606000600460008473ffffffffffffffffffffffffffffffffffffffff1673ffffffffffffffffffffffffffffffffffffffff16815260200190815260200160002090506000818054905067ffffffffffffffff8111156117fb576117fa61246f565b5b60405190808252806020026020018201604052801561183457816020015b611821611ba9565b8152602001906001900390816118195790505b50905060005b8280549050811015611ab257600083828154811061185b5761185a6127e9565b5b9060005260206000200154905060008082815260200190815260200160002060405180610100016040529081600082015481526020016001820160009054906101000a900473ffffffffffffffffffffffffffffffffffffffff1673ffffffffffffffffffffffffffffffffffffffff1673ffffffffffffffffffffffffffffffffffffffff1681526020016002820180546118f6906123ac565b80601f0160208091040260200160405190810160405280929190818152602001828054611922906123ac565b801561196f5780601f106119445761010080835404028352916020019161196f565b820191906000526020600020905b81548152906001019060200180831161195257829003601f168201915b50505050508152602001600382018054611988906123ac565b80601f01602080910402602001604051908101604052809291908181526020018280546119b4906123ac565b8015611a015780601f106119d657610100808354040283529160200191611a01565b820191906000526020600020905b8154815290600101906020018083116119e457829003601f168201915b5050505050815260200160048201548152602001600582015481526020016006820154815260200160078201805480602002602001604051908101604052809291908181526020018280548015611a7757602002820191906000526020600020905b815481526020019060010190808311611a63575b505050505081525050838381518110611a9357611a926127e9565b5b6020026020010181905250508080611aaa906127a1565b91505061183a565b508092505050919050565b828054828255906000526020600020908101928215611af9579160200282015b82811115611af8578251825591602001919060010190611add565b5b509050611b069190611c04565b5090565b60405180608001604052806000815260200160008152602001600073ffffffffffffffffffffffffffffffffffffffff168152602001600081525090565b508054611b54906123ac565b6000825580601f10611b665750611b85565b601f016020900490600052602060002090810190611b849190611c04565b5b50565b5080546000825590600052602060002090810190611ba69190611c04565b50565b60405180610100016040528060008152602001600073ffffffffffffffffffffffffffffffffffffffff1681526020016060815260200160608152602001600081526020016000815260200160008152602001606081525090565b5b80821115611c1d576000816000905550600101611c05565b5090565b600080fd5b600080fd5b6000819050919050565b611c3e81611c2b565b8114611c4957600080fd5b50565b600081359050611c5b81611c35565b92915050565b600060208284031215611c7757611c76611c21565b5b6000611c8584828501611c4c565b91505092915050565b611c9781611c2b565b82525050565b600073ffffffffffffffffffffffffffffffffffffffff82169050919050565b6000611cc882611c9d565b9050919050565b611cd881611cbd565b82525050565b600081519050919050565b600082825260208201905092915050565b60005b83811015611d18578082015181840152602081019050611cfd565b83811115611d27576000848401525b50505050565b6000601f19601f8301169050919050565b6000611d4982611cde565b611d538185611ce9565b9350611d63818560208601611cfa565b611d6c81611d2d565b840191505092915050565b600060e082019050611d8c600083018a611c8e565b611d996020830189611ccf565b8181036040830152611dab8188611d3e565b90508181036060830152611dbf8187611d3e565b9050611dce6080830186611c8e565b611ddb60a0830185611c8e565b611de860c0830184611c8e565b98975050505050505050565b600080fd5b600080fd5b600080fd5b60008083601f840112611e1957611e18611df4565b5b8235905067ffffffffffffffff811115611e3657611e35611df9565b5b602083019150836001820283011115611e5257611e51611dfe565b5b9250929050565b60008060008060008060808789031215611e7657611e75611c21565b5b600087013567ffffffffffffffff811115611e9457611e93611c26565b5b611ea089828a01611e03565b9650965050602087013567ffffffffffffffff811115611ec357611ec2611c26565b5b611ecf89828a01611e03565b94509450506040611ee289828a01611c4c565b9250506060611ef389828a01611c4c565b9150509295509295509295565b611f0981611cbd565b8114611f1457600080fd5b50565b600081359050611f2681611f00565b92915050565b600060208284031215611f4257611f41611c21565b5b6000611f5084828501611f17565b91505092915050565b600081519050919050565b600082825260208201905092915050565b6000819050602082019050919050565b611f8e81611c2b565b82525050565b611f9d81611cbd565b82525050565b608082016000820151611fb96000850182611f85565b506020820151611fcc6020850182611f85565b506040820151611fdf6040850182611f94565b506060820151611ff26060850182611f85565b50505050565b60006120048383611fa3565b60808301905092915050565b6000602082019050919050565b600061202882611f59565b6120328185611f64565b935061203d83611f75565b8060005b8381101561206e5781516120558882611ff8565b975061206083612010565b925050600181019050612041565b5085935050505092915050565b60006020820190508181036000830152612095818461201d565b905092915050565b60006080820190506120b26000830187611c8e565b6120bf6020830186611c8e565b6120cc6040830185611ccf565b6120d96060830184611c8e565b95945050505050565b600081519050919050565b600082825260208201905092915050565b6000819050602082019050919050565b600082825260208201905092915050565b600061212a82611cde565b612134818561210e565b9350612144818560208601611cfa565b61214d81611d2d565b840191505092915050565b600081519050919050565b600082825260208201905092915050565b6000819050602082019050919050565b60006121908383611f85565b60208301905092915050565b6000602082019050919050565b60006121b482612158565b6121be8185612163565b93506121c983612174565b8060005b838110156121fa5781516121e18882612184565b97506121ec8361219c565b9250506001810190506121cd565b5085935050505092915050565b6000610100830160008301516122206000860182611f85565b5060208301516122336020860182611f94565b506040830151848203604086015261224b828261211f565b91505060608301518482036060860152612265828261211f565b915050608083015161227a6080860182611f85565b5060a083015161228d60a0860182611f85565b5060c08301516122a060c0860182611f85565b5060e083015184820360e08601526122b882826121a9565b9150508091505092915050565b60006122d18383612207565b905092915050565b6000602082019050919050565b60006122f1826120e2565b6122fb81856120ed565b93508360208202850161230d856120fe565b8060005b85811015612349578484038952815161232a85826122c5565b9450612335836122d9565b925060208a01995050600181019050612311565b50829750879550505050505092915050565b6000602082019050818103600083015261237581846122e6565b905092915050565b7f4e487b7100000000000000000000000000000000000000000000000000000000600052602260045260246000fd5b600060028204905060018216806123c457607f821691505b6020821081036123d7576123d661237d565b5b50919050565b7f4d696e696d756d206f666665722070726963652073686f756c6420626520677260008201527f6561746572207468616e20300000000000000000000000000000000000000000602082015250565b6000612439602c83611ce9565b9150612444826123dd565b604082019050919050565b600060208201905081810360008301526124688161242c565b9050919050565b7f4e487b7100000000000000000000000000000000000000000000000000000000600052604160045260246000fd5b7f4e487b7100000000000000000000000000000000000000000000000000000000600052601160045260246000fd5b60006124d882611c2b565b91506124e383611c2b565b9250827fffffffffffffffffffffffffffffffffffffffffffffffffffffffffffffffff038211156125185761251761249e565b5b828201905092915050565b60008190508160005260206000209050919050565b60006020601f8301049050919050565b600082821b905092915050565b6000600883026125857fffffffffffffffffffffffffffffffffffffffffffffffffffffffffffffffff82612548565b61258f8683612548565b95508019841693508086168417925050509392505050565b6000819050919050565b60006125cc6125c76125c284611c2b565b6125a7565b611c2b565b9050919050565b6000819050919050565b6125e6836125b1565b6125fa6125f2826125d3565b848454612555565b825550505050565b600090565b61260f612602565b61261a8184846125dd565b505050565b5b8181101561263e57612633600082612607565b600181019050612620565b5050565b601f8211156126835761265481612523565b61265d84612538565b8101602085101561266c578190505b61268061267885612538565b83018261261f565b50505b505050565b600082821c905092915050565b60006126a660001984600802612688565b1980831691505092915050565b60006126bf8383612695565b9150826002028217905092915050565b6126d882611cde565b67ffffffffffffffff8111156126f1576126f061246f565b5b6126fb82546123ac565b612706828285612642565b600060209050601f8311600181146127395760008415612727578287015190505b61273185826126b3565b865550612799565b601f19841661274786612523565b60005b8281101561276f5784890151825560018201915060208501945060208101905061274a565b8683101561278c5784890151612788601f891682612695565b8355505b6001600288020188555050505b505050505050565b60006127ac82611c2b565b91507fffffffffffffffffffffffffffffffffffffffffffffffffffffffffffffffff82036127de576127dd61249e565b5b600182019050919050565b7f4e487b7100000000000000000000000000000000000000000000000000000000600052603260045260246000fd5b7f41756374696f6e20646f6573206e6f7420657869737400000000000000000000600082015250565b600061284e601683611ce9565b915061285982612818565b602082019050919050565b6000602082019050818103600083015261287d81612841565b9050919050565b7f41756374696f6e20657870697265640000000000000000000000000000000000600082015250565b60006128ba600f83611ce9565b91506128c582612884565b602082019050919050565b600060208201905081810360008301526128e9816128ad565b9050919050565b7f50726963652073686f756c642062652067726561746572207468616e206d696e60008201527f696d756d206f6666657220707269636520616e64207468652062657374206f6660208201527f6665720000000000000000000000000000000000000000000000000000000000604082015250565b6000612972604383611ce9565b915061297d826128f0565b606082019050919050565b600060208201905081810360008301526129a181612965565b9050919050565b60006129b382611c2b565b91506129be83611c2b565b9250828210156129d1576129d061249e565b5b828203905092915050565b7f41756374696f6e206973207374696c6c20616374697665000000000000000000600082015250565b6000612a12601783611ce9565b9150612a1d826129dc565b602082019050919050565b60006020820190508181036000830152612a4181612a05565b905091905056fea2646970667358221220a43d9b2ec4c2137d6277e35480fe84637cb2d0be1c0d4a57c71ab393b663f24364736f6c634300080f0033",
					"opcodes": "PUSH1 0x80 PUSH1 0x40 MSTORE PUSH1 0x1 DUP1 SSTORE PUSH1 0x1 PUSH1 0x3 SSTORE CALLVALUE DUP1 ISZERO PUSH2 0x19 JUMPI PUSH1 0x0 DUP1 REVERT JUMPDEST POP PUSH2 0x2A7E DUP1 PUSH2 0x29 PUSH1 0x0 CODECOPY PUSH1 0x0 RETURN INVALID PUSH1 0x80 PUSH1 0x40 MSTORE PUSH1 0x4 CALLDATASIZE LT PUSH2 0x91 JUMPI PUSH1 0x0 CALLDATALOAD PUSH1 0xE0 SHR DUP1 PUSH4 0xA269993D GT PUSH2 0x59 JUMPI DUP1 PUSH4 0xA269993D EQ PUSH2 0x1A8 JUMPI DUP1 PUSH4 0xC43EDE15 EQ PUSH2 0x1C4 JUMPI DUP1 PUSH4 0xD7C06919 EQ PUSH2 0x201 JUMPI DUP1 PUSH4 0xDF1DD826 EQ PUSH2 0x22C JUMPI DUP1 PUSH4 0xFF3AD0B4 EQ PUSH2 0x255 JUMPI PUSH2 0x91 JUMP JUMPDEST DUP1 PUSH4 0x571A26A0 EQ PUSH2 0x96 JUMPI DUP1 PUSH4 0x61E2DB55 EQ PUSH2 0xD9 JUMPI DUP1 PUSH4 0x661D2C2C EQ PUSH2 0x102 JUMPI DUP1 PUSH4 0x8A72EA6A EQ PUSH2 0x13F JUMPI DUP1 PUSH4 0x96B5A755 EQ PUSH2 0x17F JUMPI JUMPDEST PUSH1 0x0 DUP1 REVERT JUMPDEST CALLVALUE DUP1 ISZERO PUSH2 0xA2 JUMPI PUSH1 0x0 DUP1 REVERT JUMPDEST POP PUSH2 0xBD PUSH1 0x4 DUP1 CALLDATASIZE SUB DUP2 ADD SWAP1 PUSH2 0xB8 SWAP2 SWAP1 PUSH2 0x1C61 JUMP JUMPDEST PUSH2 0x292 JUMP JUMPDEST PUSH1 0x40 MLOAD PUSH2 0xD0 SWAP8 SWAP7 SWAP6 SWAP5 SWAP4 SWAP3 SWAP2 SWAP1 PUSH2 0x1D77 JUMP JUMPDEST PUSH1 0x40 MLOAD DUP1 SWAP2 SUB SWAP1 RETURN JUMPDEST CALLVALUE DUP1 ISZERO PUSH2 0xE5 JUMPI PUSH1 0x0 DUP1 REVERT JUMPDEST POP PUSH2 0x100 PUSH1 0x4 DUP1 CALLDATASIZE SUB DUP2 ADD SWAP1 PUSH2 0xFB SWAP2 SWAP1 PUSH2 0x1E59 JUMP JUMPDEST PUSH2 0x404 JUMP JUMPDEST STOP JUMPDEST CALLVALUE DUP1 ISZERO PUSH2 0x10E JUMPI PUSH1 0x0 DUP1 REVERT JUMPDEST POP PUSH2 0x129 PUSH1 0x4 DUP1 CALLDATASIZE SUB DUP2 ADD SWAP1 PUSH2 0x124 SWAP2 SWAP1 PUSH2 0x1F2C JUMP JUMPDEST PUSH2 0x6D2 JUMP JUMPDEST PUSH1 0x40 MLOAD PUSH2 0x136 SWAP2 SWAP1 PUSH2 0x207B JUMP JUMPDEST PUSH1 0x40 MLOAD DUP1 SWAP2 SUB SWAP1 RETURN JUMPDEST CALLVALUE DUP1 ISZERO PUSH2 0x14B JUMPI PUSH1 0x0 DUP1 REVERT JUMPDEST POP PUSH2 0x166 PUSH1 0x4 DUP1 CALLDATASIZE SUB DUP2 ADD SWAP1 PUSH2 0x161 SWAP2 SWAP1 PUSH2 0x1C61 JUMP JUMPDEST PUSH2 0x873 JUMP JUMPDEST PUSH1 0x40 MLOAD PUSH2 0x176 SWAP5 SWAP4 SWAP3 SWAP2 SWAP1 PUSH2 0x209D JUMP JUMPDEST PUSH1 0x40 MLOAD DUP1 SWAP2 SUB SWAP1 RETURN JUMPDEST CALLVALUE DUP1 ISZERO PUSH2 0x18B JUMPI PUSH1 0x0 DUP1 REVERT JUMPDEST POP PUSH2 0x1A6 PUSH1 0x4 DUP1 CALLDATASIZE SUB DUP2 ADD SWAP1 PUSH2 0x1A1 SWAP2 SWAP1 PUSH2 0x1C61 JUMP JUMPDEST PUSH2 0x8C3 JUMP JUMPDEST STOP JUMPDEST PUSH2 0x1C2 PUSH1 0x4 DUP1 CALLDATASIZE SUB DUP2 ADD SWAP1 PUSH2 0x1BD SWAP2 SWAP1 PUSH2 0x1C61 JUMP JUMPDEST PUSH2 0xE2F JUMP JUMPDEST STOP JUMPDEST CALLVALUE DUP1 ISZERO PUSH2 0x1D0 JUMPI PUSH1 0x0 DUP1 REVERT JUMPDEST POP PUSH2 0x1EB PUSH1 0x4 DUP1 CALLDATASIZE SUB DUP2 ADD SWAP1 PUSH2 0x1E6 SWAP2 SWAP1 PUSH2 0x1C61 JUMP JUMPDEST PUSH2 0x10D6 JUMP JUMPDEST PUSH1 0x40 MLOAD PUSH2 0x1F8 SWAP2 SWAP1 PUSH2 0x207B JUMP JUMPDEST PUSH1 0x40 MLOAD DUP1 SWAP2 SUB SWAP1 RETURN JUMPDEST CALLVALUE DUP1 ISZERO PUSH2 0x20D JUMPI PUSH1 0x0 DUP1 REVERT JUMPDEST POP PUSH2 0x216 PUSH2 0x12A5 JUMP JUMPDEST PUSH1 0x40 MLOAD PUSH2 0x223 SWAP2 SWAP1 PUSH2 0x235B JUMP JUMPDEST PUSH1 0x40 MLOAD DUP1 SWAP2 SUB SWAP1 RETURN JUMPDEST CALLVALUE DUP1 ISZERO PUSH2 0x238 JUMPI PUSH1 0x0 DUP1 REVERT JUMPDEST POP PUSH2 0x253 PUSH1 0x4 DUP1 CALLDATASIZE SUB DUP2 ADD SWAP1 PUSH2 0x24E SWAP2 SWAP1 PUSH2 0x1C61 JUMP JUMPDEST PUSH2 0x157A JUMP JUMPDEST STOP JUMPDEST CALLVALUE DUP1 ISZERO PUSH2 0x261 JUMPI PUSH1 0x0 DUP1 REVERT JUMPDEST POP PUSH2 0x27C PUSH1 0x4 DUP1 CALLDATASIZE SUB DUP2 ADD SWAP1 PUSH2 0x277 SWAP2 SWAP1 PUSH2 0x1F2C JUMP JUMPDEST PUSH2 0x1796 JUMP JUMPDEST PUSH1 0x40 MLOAD PUSH2 0x289 SWAP2 SWAP1 PUSH2 0x235B JUMP JUMPDEST PUSH1 0x40 MLOAD DUP1 SWAP2 SUB SWAP1 RETURN JUMPDEST PUSH1 0x0 PUSH1 0x20 MSTORE DUP1 PUSH1 0x0 MSTORE PUSH1 0x40 PUSH1 0x0 KECCAK256 PUSH1 0x0 SWAP2 POP SWAP1 POP DUP1 PUSH1 0x0 ADD SLOAD SWAP1 DUP1 PUSH1 0x1 ADD PUSH1 0x0 SWAP1 SLOAD SWAP1 PUSH2 0x100 EXP SWAP1 DIV PUSH20 0xFFFFFFFFFFFFFFFFFFFFFFFFFFFFFFFFFFFFFFFF AND SWAP1 DUP1 PUSH1 0x2 ADD DUP1 SLOAD PUSH2 0x2E1 SWAP1 PUSH2 0x23AC JUMP JUMPDEST DUP1 PUSH1 0x1F ADD PUSH1 0x20 DUP1 SWAP2 DIV MUL PUSH1 0x20 ADD PUSH1 0x40 MLOAD SWAP1 DUP2 ADD PUSH1 0x40 MSTORE DUP1 SWAP3 SWAP2 SWAP1 DUP2 DUP2 MSTORE PUSH1 0x20 ADD DUP3 DUP1 SLOAD PUSH2 0x30D SWAP1 PUSH2 0x23AC JUMP JUMPDEST DUP1 ISZERO PUSH2 0x35A JUMPI DUP1 PUSH1 0x1F LT PUSH2 0x32F JUMPI PUSH2 0x100 DUP1 DUP4 SLOAD DIV MUL DUP4 MSTORE SWAP2 PUSH1 0x20 ADD SWAP2 PUSH2 0x35A JUMP JUMPDEST DUP3 ADD SWAP2 SWAP1 PUSH1 0x0 MSTORE PUSH1 0x20 PUSH1 0x0 KECCAK256 SWAP1 JUMPDEST DUP2 SLOAD DUP2 MSTORE SWAP1 PUSH1 0x1 ADD SWAP1 PUSH1 0x20 ADD DUP1 DUP4 GT PUSH2 0x33D JUMPI DUP3 SWAP1 SUB PUSH1 0x1F AND DUP3 ADD SWAP2 JUMPDEST POP POP POP POP POP SWAP1 DUP1 PUSH1 0x3 ADD DUP1 SLOAD PUSH2 0x36F SWAP1 PUSH2 0x23AC JUMP JUMPDEST DUP1 PUSH1 0x1F ADD PUSH1 0x20 DUP1 SWAP2 DIV MUL PUSH1 0x20 ADD PUSH1 0x40 MLOAD SWAP1 DUP2 ADD PUSH1 0x40 MSTORE DUP1 SWAP3 SWAP2 SWAP1 DUP2 DUP2 MSTORE PUSH1 0x20 ADD DUP3 DUP1 SLOAD PUSH2 0x39B SWAP1 PUSH2 0x23AC JUMP JUMPDEST DUP1 ISZERO PUSH2 0x3E8 JUMPI DUP1 PUSH1 0x1F LT PUSH2 0x3BD JUMPI PUSH2 0x100 DUP1 DUP4 SLOAD DIV MUL DUP4 MSTORE SWAP2 PUSH1 0x20 ADD SWAP2 PUSH2 0x3E8 JUMP JUMPDEST DUP3 ADD SWAP2 SWAP1 PUSH1 0x0 MSTORE PUSH1 0x20 PUSH1 0x0 KECCAK256 SWAP1 JUMPDEST DUP2 SLOAD DUP2 MSTORE SWAP1 PUSH1 0x1 ADD SWAP1 PUSH1 0x20 ADD DUP1 DUP4 GT PUSH2 0x3CB JUMPI DUP3 SWAP1 SUB PUSH1 0x1F AND DUP3 ADD SWAP2 JUMPDEST POP POP POP POP POP SWAP1 DUP1 PUSH1 0x4 ADD SLOAD SWAP1 DUP1 PUSH1 0x5 ADD SLOAD SWAP1 DUP1 PUSH1 0x6 ADD SLOAD SWAP1 POP DUP8 JUMP JUMPDEST PUSH1 0x0 DUP3 GT PUSH2 0x447 JUMPI PUSH1 0x40 MLOAD PUSH32 0x8C379A000000000000000000000000000000000000000000000000000000000 DUP2 MSTORE PUSH1 0x4 ADD PUSH2 0x43E SWAP1 PUSH2 0x244F JUMP JUMPDEST PUSH1 0x40 MLOAD DUP1 SWAP2 SUB SWAP1 REVERT JUMPDEST PUSH1 0x0 DUP1 PUSH8 0xFFFFFFFFFFFFFFFF DUP2 GT ISZERO PUSH2 0x463 JUMPI PUSH2 0x462 PUSH2 0x246F JUMP JUMPDEST JUMPDEST PUSH1 0x40 MLOAD SWAP1 DUP1 DUP3 MSTORE DUP1 PUSH1 0x20 MUL PUSH1 0x20 ADD DUP3 ADD PUSH1 0x40 MSTORE DUP1 ISZERO PUSH2 0x491 JUMPI DUP2 PUSH1 0x20 ADD PUSH1 0x20 DUP3 MUL DUP1 CALLDATASIZE DUP4 CALLDATACOPY DUP1 DUP3 ADD SWAP2 POP POP SWAP1 POP JUMPDEST POP SWAP1 POP PUSH1 0x40 MLOAD DUP1 PUSH2 0x100 ADD PUSH1 0x40 MSTORE DUP1 PUSH1 0x1 SLOAD DUP2 MSTORE PUSH1 0x20 ADD CALLER PUSH20 0xFFFFFFFFFFFFFFFFFFFFFFFFFFFFFFFFFFFFFFFF AND DUP2 MSTORE PUSH1 0x20 ADD DUP9 DUP9 DUP1 DUP1 PUSH1 0x1F ADD PUSH1 0x20 DUP1 SWAP2 DIV MUL PUSH1 0x20 ADD PUSH1 0x40 MLOAD SWAP1 DUP2 ADD PUSH1 0x40 MSTORE DUP1 SWAP4 SWAP3 SWAP2 SWAP1 DUP2 DUP2 MSTORE PUSH1 0x20 ADD DUP4 DUP4 DUP1 DUP3 DUP5 CALLDATACOPY PUSH1 0x0 DUP2 DUP5 ADD MSTORE PUSH1 0x1F NOT PUSH1 0x1F DUP3 ADD AND SWAP1 POP DUP1 DUP4 ADD SWAP3 POP POP POP POP POP POP POP DUP2 MSTORE PUSH1 0x20 ADD DUP7 DUP7 DUP1 DUP1 PUSH1 0x1F ADD PUSH1 0x20 DUP1 SWAP2 DIV MUL PUSH1 0x20 ADD PUSH1 0x40 MLOAD SWAP1 DUP2 ADD PUSH1 0x40 MSTORE DUP1 SWAP4 SWAP3 SWAP2 SWAP1 DUP2 DUP2 MSTORE PUSH1 0x20 ADD DUP4 DUP4 DUP1 DUP3 DUP5 CALLDATACOPY PUSH1 0x0 DUP2 DUP5 ADD MSTORE PUSH1 0x1F NOT PUSH1 0x1F DUP3 ADD AND SWAP1 POP DUP1 DUP4 ADD SWAP3 POP POP POP POP POP POP POP DUP2 MSTORE PUSH1 0x20 ADD DUP5 DUP2 MSTORE PUSH1 0x20 ADD DUP4 TIMESTAMP PUSH2 0x56A SWAP2 SWAP1 PUSH2 0x24CD JUMP JUMPDEST DUP2 MSTORE PUSH1 0x20 ADD PUSH1 0x0 DUP2 MSTORE PUSH1 0x20 ADD DUP3 DUP2 MSTORE POP PUSH1 0x0 DUP1 PUSH1 0x1 SLOAD DUP2 MSTORE PUSH1 0x20 ADD SWAP1 DUP2 MSTORE PUSH1 0x20 ADD PUSH1 0x0 KECCAK256 PUSH1 0x0 DUP3 ADD MLOAD DUP2 PUSH1 0x0 ADD SSTORE PUSH1 0x20 DUP3 ADD MLOAD DUP2 PUSH1 0x1 ADD PUSH1 0x0 PUSH2 0x100 EXP DUP2 SLOAD DUP2 PUSH20 0xFFFFFFFFFFFFFFFFFFFFFFFFFFFFFFFFFFFFFFFF MUL NOT AND SWAP1 DUP4 PUSH20 0xFFFFFFFFFFFFFFFFFFFFFFFFFFFFFFFFFFFFFFFF AND MUL OR SWAP1 SSTORE POP PUSH1 0x40 DUP3 ADD MLOAD DUP2 PUSH1 0x2 ADD SWAP1 DUP2 PUSH2 0x5F4 SWAP2 SWAP1 PUSH2 0x26CF JUMP JUMPDEST POP PUSH1 0x60 DUP3 ADD MLOAD DUP2 PUSH1 0x3 ADD SWAP1 DUP2 PUSH2 0x60A SWAP2 SWAP1 PUSH2 0x26CF JUMP JUMPDEST POP PUSH1 0x80 DUP3 ADD MLOAD DUP2 PUSH1 0x4 ADD SSTORE PUSH1 0xA0 DUP3 ADD MLOAD DUP2 PUSH1 0x5 ADD SSTORE PUSH1 0xC0 DUP3 ADD MLOAD DUP2 PUSH1 0x6 ADD SSTORE PUSH1 0xE0 DUP3 ADD MLOAD DUP2 PUSH1 0x7 ADD SWAP1 DUP1 MLOAD SWAP1 PUSH1 0x20 ADD SWAP1 PUSH2 0x645 SWAP3 SWAP2 SWAP1 PUSH2 0x1ABD JUMP JUMPDEST POP SWAP1 POP POP PUSH1 0x4 PUSH1 0x0 CALLER PUSH20 0xFFFFFFFFFFFFFFFFFFFFFFFFFFFFFFFFFFFFFFFF AND PUSH20 0xFFFFFFFFFFFFFFFFFFFFFFFFFFFFFFFFFFFFFFFF AND DUP2 MSTORE PUSH1 0x20 ADD SWAP1 DUP2 MSTORE PUSH1 0x20 ADD PUSH1 0x0 KECCAK256 PUSH1 0x1 SLOAD SWAP1 DUP1 PUSH1 0x1 DUP2 SLOAD ADD DUP1 DUP3 SSTORE DUP1 SWAP2 POP POP PUSH1 0x1 SWAP1 SUB SWAP1 PUSH1 0x0 MSTORE PUSH1 0x20 PUSH1 0x0 KECCAK256 ADD PUSH1 0x0 SWAP1 SWAP2 SWAP1 SWAP2 SWAP1 SWAP2 POP SSTORE PUSH1 0x1 PUSH1 0x0 DUP2 SLOAD DUP1 SWAP3 SWAP2 SWAP1 PUSH2 0x6C4 SWAP1 PUSH2 0x27A1 JUMP JUMPDEST SWAP2 SWAP1 POP SSTORE POP POP POP POP POP POP POP POP JUMP JUMPDEST PUSH1 0x60 PUSH1 0x0 PUSH1 0x5 PUSH1 0x0 DUP5 PUSH20 0xFFFFFFFFFFFFFFFFFFFFFFFFFFFFFFFFFFFFFFFF AND PUSH20 0xFFFFFFFFFFFFFFFFFFFFFFFFFFFFFFFFFFFFFFFF AND DUP2 MSTORE PUSH1 0x20 ADD SWAP1 DUP2 MSTORE PUSH1 0x20 ADD PUSH1 0x0 KECCAK256 SWAP1 POP PUSH1 0x0 DUP2 DUP1 SLOAD SWAP1 POP PUSH8 0xFFFFFFFFFFFFFFFF DUP2 GT ISZERO PUSH2 0x737 JUMPI PUSH2 0x736 PUSH2 0x246F JUMP JUMPDEST JUMPDEST PUSH1 0x40 MLOAD SWAP1 DUP1 DUP3 MSTORE DUP1 PUSH1 0x20 MUL PUSH1 0x20 ADD DUP3 ADD PUSH1 0x40 MSTORE DUP1 ISZERO PUSH2 0x770 JUMPI DUP2 PUSH1 0x20 ADD JUMPDEST PUSH2 0x75D PUSH2 0x1B0A JUMP JUMPDEST DUP2 MSTORE PUSH1 0x20 ADD SWAP1 PUSH1 0x1 SWAP1 SUB SWAP1 DUP2 PUSH2 0x755 JUMPI SWAP1 POP JUMPDEST POP SWAP1 POP PUSH1 0x0 JUMPDEST DUP3 DUP1 SLOAD SWAP1 POP DUP2 LT ISZERO PUSH2 0x868 JUMPI PUSH1 0x0 DUP4 DUP3 DUP2 SLOAD DUP2 LT PUSH2 0x797 JUMPI PUSH2 0x796 PUSH2 0x27E9 JUMP JUMPDEST JUMPDEST SWAP1 PUSH1 0x0 MSTORE PUSH1 0x20 PUSH1 0x0 KECCAK256 ADD SLOAD SWAP1 POP PUSH1 0x2 PUSH1 0x0 DUP3 DUP2 MSTORE PUSH1 0x20 ADD SWAP1 DUP2 MSTORE PUSH1 0x20 ADD PUSH1 0x0 KECCAK256 PUSH1 0x40 MLOAD DUP1 PUSH1 0x80 ADD PUSH1 0x40 MSTORE SWAP1 DUP2 PUSH1 0x0 DUP3 ADD SLOAD DUP2 MSTORE PUSH1 0x20 ADD PUSH1 0x1 DUP3 ADD SLOAD DUP2 MSTORE PUSH1 0x20 ADD PUSH1 0x2 DUP3 ADD PUSH1 0x0 SWAP1 SLOAD SWAP1 PUSH2 0x100 EXP SWAP1 DIV PUSH20 0xFFFFFFFFFFFFFFFFFFFFFFFFFFFFFFFFFFFFFFFF AND PUSH20 0xFFFFFFFFFFFFFFFFFFFFFFFFFFFFFFFFFFFFFFFF AND PUSH20 0xFFFFFFFFFFFFFFFFFFFFFFFFFFFFFFFFFFFFFFFF AND DUP2 MSTORE PUSH1 0x20 ADD PUSH1 0x3 DUP3 ADD SLOAD DUP2 MSTORE POP POP DUP4 DUP4 DUP2 MLOAD DUP2 LT PUSH2 0x849 JUMPI PUSH2 0x848 PUSH2 0x27E9 JUMP JUMPDEST JUMPDEST PUSH1 0x20 MUL PUSH1 0x20 ADD ADD DUP2 SWAP1 MSTORE POP POP DUP1 DUP1 PUSH2 0x860 SWAP1 PUSH2 0x27A1 JUMP JUMPDEST SWAP2 POP POP PUSH2 0x776 JUMP JUMPDEST POP DUP1 SWAP3 POP POP POP SWAP2 SWAP1 POP JUMP JUMPDEST PUSH1 0x2 PUSH1 0x20 MSTORE DUP1 PUSH1 0x0 MSTORE PUSH1 0x40 PUSH1 0x0 KECCAK256 PUSH1 0x0 SWAP2 POP SWAP1 POP DUP1 PUSH1 0x0 ADD SLOAD SWAP1 DUP1 PUSH1 0x1 ADD SLOAD SWAP1 DUP1 PUSH1 0x2 ADD PUSH1 0x0 SWAP1 SLOAD SWAP1 PUSH2 0x100 EXP SWAP1 DIV PUSH20 0xFFFFFFFFFFFFFFFFFFFFFFFFFFFFFFFFFFFFFFFF AND SWAP1 DUP1 PUSH1 0x3 ADD SLOAD SWAP1 POP DUP5 JUMP JUMPDEST DUP1 PUSH1 0x0 DUP2 GT DUP1 ISZERO PUSH2 0x8D5 JUMPI POP PUSH1 0x1 SLOAD DUP2 LT JUMPDEST PUSH2 0x914 JUMPI PUSH1 0x40 MLOAD PUSH32 0x8C379A000000000000000000000000000000000000000000000000000000000 DUP2 MSTORE PUSH1 0x4 ADD PUSH2 0x90B SWAP1 PUSH2 0x2864 JUMP JUMPDEST PUSH1 0x40 MLOAD DUP1 SWAP2 SUB SWAP1 REVERT JUMPDEST PUSH1 0x0 DUP1 PUSH1 0x0 DUP5 DUP2 MSTORE PUSH1 0x20 ADD SWAP1 DUP2 MSTORE PUSH1 0x20 ADD PUSH1 0x0 KECCAK256 SWAP1 POP PUSH1 0x0 JUMPDEST DUP2 PUSH1 0x7 ADD DUP1 SLOAD SWAP1 POP DUP2 LT ISZERO PUSH2 0xB8B JUMPI PUSH1 0x0 DUP3 PUSH1 0x7 ADD DUP3 DUP2 SLOAD DUP2 LT PUSH2 0x954 JUMPI PUSH2 0x953 PUSH2 0x27E9 JUMP JUMPDEST JUMPDEST SWAP1 PUSH1 0x0 MSTORE PUSH1 0x20 PUSH1 0x0 KECCAK256 ADD SLOAD SWAP1 POP PUSH1 0x0 PUSH1 0x2 PUSH1 0x0 DUP4 DUP2 MSTORE PUSH1 0x20 ADD SWAP1 DUP2 MSTORE PUSH1 0x20 ADD PUSH1 0x0 KECCAK256 SWAP1 POP DUP1 PUSH1 0x2 ADD PUSH1 0x0 SWAP1 SLOAD SWAP1 PUSH2 0x100 EXP SWAP1 DIV PUSH20 0xFFFFFFFFFFFFFFFFFFFFFFFFFFFFFFFFFFFFFFFF AND PUSH20 0xFFFFFFFFFFFFFFFFFFFFFFFFFFFFFFFFFFFFFFFF AND PUSH2 0x8FC DUP3 PUSH1 0x3 ADD SLOAD SWAP1 DUP2 ISZERO MUL SWAP1 PUSH1 0x40 MLOAD PUSH1 0x0 PUSH1 0x40 MLOAD DUP1 DUP4 SUB DUP2 DUP6 DUP9 DUP9 CALL SWAP4 POP POP POP POP ISZERO DUP1 ISZERO PUSH2 0x9E6 JUMPI RETURNDATASIZE PUSH1 0x0 DUP1 RETURNDATACOPY RETURNDATASIZE PUSH1 0x0 REVERT JUMPDEST POP PUSH1 0x0 JUMPDEST PUSH1 0x5 PUSH1 0x0 DUP4 PUSH1 0x2 ADD PUSH1 0x0 SWAP1 SLOAD SWAP1 PUSH2 0x100 EXP SWAP1 DIV PUSH20 0xFFFFFFFFFFFFFFFFFFFFFFFFFFFFFFFFFFFFFFFF AND PUSH20 0xFFFFFFFFFFFFFFFFFFFFFFFFFFFFFFFFFFFFFFFF AND PUSH20 0xFFFFFFFFFFFFFFFFFFFFFFFFFFFFFFFFFFFFFFFF AND DUP2 MSTORE PUSH1 0x20 ADD SWAP1 DUP2 MSTORE PUSH1 0x20 ADD PUSH1 0x0 KECCAK256 DUP1 SLOAD SWAP1 POP DUP2 LT ISZERO PUSH2 0xB75 JUMPI DUP3 PUSH1 0x5 PUSH1 0x0 DUP5 PUSH1 0x2 ADD PUSH1 0x0 SWAP1 SLOAD SWAP1 PUSH2 0x100 EXP SWAP1 DIV PUSH20 0xFFFFFFFFFFFFFFFFFFFFFFFFFFFFFFFFFFFFFFFF AND PUSH20 0xFFFFFFFFFFFFFFFFFFFFFFFFFFFFFFFFFFFFFFFF AND PUSH20 0xFFFFFFFFFFFFFFFFFFFFFFFFFFFFFFFFFFFFFFFF AND DUP2 MSTORE PUSH1 0x20 ADD SWAP1 DUP2 MSTORE PUSH1 0x20 ADD PUSH1 0x0 KECCAK256 DUP3 DUP2 SLOAD DUP2 LT PUSH2 0xACE JUMPI PUSH2 0xACD PUSH2 0x27E9 JUMP JUMPDEST JUMPDEST SWAP1 PUSH1 0x0 MSTORE PUSH1 0x20 PUSH1 0x0 KECCAK256 ADD SLOAD SUB PUSH2 0xB62 JUMPI PUSH1 0x5 PUSH1 0x0 DUP4 PUSH1 0x2 ADD PUSH1 0x0 SWAP1 SLOAD SWAP1 PUSH2 0x100 EXP SWAP1 DIV PUSH20 0xFFFFFFFFFFFFFFFFFFFFFFFFFFFFFFFFFFFFFFFF AND PUSH20 0xFFFFFFFFFFFFFFFFFFFFFFFFFFFFFFFFFFFFFFFF AND PUSH20 0xFFFFFFFFFFFFFFFFFFFFFFFFFFFFFFFFFFFFFFFF AND DUP2 MSTORE PUSH1 0x20 ADD SWAP1 DUP2 MSTORE PUSH1 0x20 ADD PUSH1 0x0 KECCAK256 DUP2 DUP2 SLOAD DUP2 LT PUSH2 0xB53 JUMPI PUSH2 0xB52 PUSH2 0x27E9 JUMP JUMPDEST JUMPDEST SWAP1 PUSH1 0x0 MSTORE PUSH1 0x20 PUSH1 0x0 KECCAK256 ADD PUSH1 0x0 SWAP1 SSTORE JUMPDEST DUP1 DUP1 PUSH2 0xB6D SWAP1 PUSH2 0x27A1 JUMP JUMPDEST SWAP2 POP POP PUSH2 0x9EA JUMP JUMPDEST POP POP POP DUP1 DUP1 PUSH2 0xB83 SWAP1 PUSH2 0x27A1 JUMP JUMPDEST SWAP2 POP POP PUSH2 0x92D JUMP JUMPDEST POP PUSH1 0x0 JUMPDEST PUSH1 0x4 PUSH1 0x0 DUP4 PUSH1 0x1 ADD PUSH1 0x0 SWAP1 SLOAD SWAP1 PUSH2 0x100 EXP SWAP1 DIV PUSH20 0xFFFFFFFFFFFFFFFFFFFFFFFFFFFFFFFFFFFFFFFF AND PUSH20 0xFFFFFFFFFFFFFFFFFFFFFFFFFFFFFFFFFFFFFFFF AND PUSH20 0xFFFFFFFFFFFFFFFFFFFFFFFFFFFFFFFFFFFFFFFF AND DUP2 MSTORE PUSH1 0x20 ADD SWAP1 DUP2 MSTORE PUSH1 0x20 ADD PUSH1 0x0 KECCAK256 DUP1 SLOAD SWAP1 POP DUP2 LT ISZERO PUSH2 0xD1A JUMPI DUP4 PUSH1 0x4 PUSH1 0x0 DUP5 PUSH1 0x1 ADD PUSH1 0x0 SWAP1 SLOAD SWAP1 PUSH2 0x100 EXP SWAP1 DIV PUSH20 0xFFFFFFFFFFFFFFFFFFFFFFFFFFFFFFFFFFFFFFFF AND PUSH20 0xFFFFFFFFFFFFFFFFFFFFFFFFFFFFFFFFFFFFFFFF AND PUSH20 0xFFFFFFFFFFFFFFFFFFFFFFFFFFFFFFFFFFFFFFFF AND DUP2 MSTORE PUSH1 0x20 ADD SWAP1 DUP2 MSTORE PUSH1 0x20 ADD PUSH1 0x0 KECCAK256 DUP3 DUP2 SLOAD DUP2 LT PUSH2 0xC73 JUMPI PUSH2 0xC72 PUSH2 0x27E9 JUMP JUMPDEST JUMPDEST SWAP1 PUSH1 0x0 MSTORE PUSH1 0x20 PUSH1 0x0 KECCAK256 ADD SLOAD SUB PUSH2 0xD07 JUMPI PUSH1 0x4 PUSH1 0x0 DUP4 PUSH1 0x1 ADD PUSH1 0x0 SWAP1 SLOAD SWAP1 PUSH2 0x100 EXP SWAP1 DIV PUSH20 0xFFFFFFFFFFFFFFFFFFFFFFFFFFFFFFFFFFFFFFFF AND PUSH20 0xFFFFFFFFFFFFFFFFFFFFFFFFFFFFFFFFFFFFFFFF AND PUSH20 0xFFFFFFFFFFFFFFFFFFFFFFFFFFFFFFFFFFFFFFFF AND DUP2 MSTORE PUSH1 0x20 ADD SWAP1 DUP2 MSTORE PUSH1 0x20 ADD PUSH1 0x0 KECCAK256 DUP2 DUP2 SLOAD DUP2 LT PUSH2 0xCF8 JUMPI PUSH2 0xCF7 PUSH2 0x27E9 JUMP JUMPDEST JUMPDEST SWAP1 PUSH1 0x0 MSTORE PUSH1 0x20 PUSH1 0x0 KECCAK256 ADD PUSH1 0x0 SWAP1 SSTORE JUMPDEST DUP1 DUP1 PUSH2 0xD12 SWAP1 PUSH2 0x27A1 JUMP JUMPDEST SWAP2 POP POP PUSH2 0xB8F JUMP JUMPDEST POP PUSH1 0x4 PUSH1 0x0 DUP3 PUSH1 0x1 ADD PUSH1 0x0 SWAP1 SLOAD SWAP1 PUSH2 0x100 EXP SWAP1 DIV PUSH20 0xFFFFFFFFFFFFFFFFFFFFFFFFFFFFFFFFFFFFFFFF AND PUSH20 0xFFFFFFFFFFFFFFFFFFFFFFFFFFFFFFFFFFFFFFFF AND PUSH20 0xFFFFFFFFFFFFFFFFFFFFFFFFFFFFFFFFFFFFFFFF AND DUP2 MSTORE PUSH1 0x20 ADD SWAP1 DUP2 MSTORE PUSH1 0x20 ADD PUSH1 0x0 KECCAK256 DUP4 DUP2 SLOAD DUP2 LT PUSH2 0xD90 JUMPI PUSH2 0xD8F PUSH2 0x27E9 JUMP JUMPDEST JUMPDEST SWAP1 PUSH1 0x0 MSTORE PUSH1 0x20 PUSH1 0x0 KECCAK256 ADD PUSH1 0x0 SWAP1 SSTORE PUSH1 0x0 DUP1 DUP5 DUP2 MSTORE PUSH1 0x20 ADD SWAP1 DUP2 MSTORE PUSH1 0x20 ADD PUSH1 0x0 KECCAK256 PUSH1 0x0 DUP1 DUP3 ADD PUSH1 0x0 SWAP1 SSTORE PUSH1 0x1 DUP3 ADD PUSH1 0x0 PUSH2 0x100 EXP DUP2 SLOAD SWAP1 PUSH20 0xFFFFFFFFFFFFFFFFFFFFFFFFFFFFFFFFFFFFFFFF MUL NOT AND SWAP1 SSTORE PUSH1 0x2 DUP3 ADD PUSH1 0x0 PUSH2 0xDF0 SWAP2 SWAP1 PUSH2 0x1B48 JUMP JUMPDEST PUSH1 0x3 DUP3 ADD PUSH1 0x0 PUSH2 0xE00 SWAP2 SWAP1 PUSH2 0x1B48 JUMP JUMPDEST PUSH1 0x4 DUP3 ADD PUSH1 0x0 SWAP1 SSTORE PUSH1 0x5 DUP3 ADD PUSH1 0x0 SWAP1 SSTORE PUSH1 0x6 DUP3 ADD PUSH1 0x0 SWAP1 SSTORE PUSH1 0x7 DUP3 ADD PUSH1 0x0 PUSH2 0xE28 SWAP2 SWAP1 PUSH2 0x1B88 JUMP JUMPDEST POP POP POP POP POP JUMP JUMPDEST DUP1 PUSH1 0x0 DUP2 GT DUP1 ISZERO PUSH2 0xE41 JUMPI POP PUSH1 0x1 SLOAD DUP2 LT JUMPDEST PUSH2 0xE80 JUMPI PUSH1 0x40 MLOAD PUSH32 0x8C379A000000000000000000000000000000000000000000000000000000000 DUP2 MSTORE PUSH1 0x4 ADD PUSH2 0xE77 SWAP1 PUSH2 0x2864 JUMP JUMPDEST PUSH1 0x40 MLOAD DUP1 SWAP2 SUB SWAP1 REVERT JUMPDEST PUSH1 0x0 DUP1 PUSH1 0x0 DUP5 DUP2 MSTORE PUSH1 0x20 ADD SWAP1 DUP2 MSTORE PUSH1 0x20 ADD PUSH1 0x0 KECCAK256 SWAP1 POP DUP1 PUSH1 0x5 ADD SLOAD TIMESTAMP LT PUSH2 0xEDC JUMPI PUSH1 0x40 MLOAD PUSH32 0x8C379A000000000000000000000000000000000000000000000000000000000 DUP2 MSTORE PUSH1 0x4 ADD PUSH2 0xED3 SWAP1 PUSH2 0x28D0 JUMP JUMPDEST PUSH1 0x40 MLOAD DUP1 SWAP2 SUB SWAP1 REVERT JUMPDEST PUSH1 0x0 PUSH1 0x2 PUSH1 0x0 DUP4 PUSH1 0x6 ADD SLOAD DUP2 MSTORE PUSH1 0x20 ADD SWAP1 DUP2 MSTORE PUSH1 0x20 ADD PUSH1 0x0 KECCAK256 SWAP1 POP DUP2 PUSH1 0x4 ADD SLOAD CALLVALUE LT ISZERO DUP1 ISZERO PUSH2 0xF0E JUMPI POP DUP1 PUSH1 0x3 ADD SLOAD CALLVALUE GT JUMPDEST PUSH2 0xF4D JUMPI PUSH1 0x40 MLOAD PUSH32 0x8C379A000000000000000000000000000000000000000000000000000000000 DUP2 MSTORE PUSH1 0x4 ADD PUSH2 0xF44 SWAP1 PUSH2 0x2988 JUMP JUMPDEST PUSH1 0x40 MLOAD DUP1 SWAP2 SUB SWAP1 REVERT JUMPDEST PUSH1 0x3 SLOAD DUP3 PUSH1 0x6 ADD DUP2 SWAP1 SSTORE POP PUSH1 0x40 MLOAD DUP1 PUSH1 0x80 ADD PUSH1 0x40 MSTORE DUP1 PUSH1 0x3 SLOAD DUP2 MSTORE PUSH1 0x20 ADD DUP6 DUP2 MSTORE PUSH1 0x20 ADD CALLER PUSH20 0xFFFFFFFFFFFFFFFFFFFFFFFFFFFFFFFFFFFFFFFF AND DUP2 MSTORE PUSH1 0x20 ADD CALLVALUE DUP2 MSTORE POP PUSH1 0x2 PUSH1 0x0 PUSH1 0x3 SLOAD DUP2 MSTORE PUSH1 0x20 ADD SWAP1 DUP2 MSTORE PUSH1 0x20 ADD PUSH1 0x0 KECCAK256 PUSH1 0x0 DUP3 ADD MLOAD DUP2 PUSH1 0x0 ADD SSTORE PUSH1 0x20 DUP3 ADD MLOAD DUP2 PUSH1 0x1 ADD SSTORE PUSH1 0x40 DUP3 ADD MLOAD DUP2 PUSH1 0x2 ADD PUSH1 0x0 PUSH2 0x100 EXP DUP2 SLOAD DUP2 PUSH20 0xFFFFFFFFFFFFFFFFFFFFFFFFFFFFFFFFFFFFFFFF MUL NOT AND SWAP1 DUP4 PUSH20 0xFFFFFFFFFFFFFFFFFFFFFFFFFFFFFFFFFFFFFFFF AND MUL OR SWAP1 SSTORE POP PUSH1 0x60 DUP3 ADD MLOAD DUP2 PUSH1 0x3 ADD SSTORE SWAP1 POP POP DUP2 PUSH1 0x7 ADD PUSH1 0x3 SLOAD SWAP1 DUP1 PUSH1 0x1 DUP2 SLOAD ADD DUP1 DUP3 SSTORE DUP1 SWAP2 POP POP PUSH1 0x1 SWAP1 SUB SWAP1 PUSH1 0x0 MSTORE PUSH1 0x20 PUSH1 0x0 KECCAK256 ADD PUSH1 0x0 SWAP1 SWAP2 SWAP1 SWAP2 SWAP1 SWAP2 POP SSTORE PUSH1 0x1 CALLVALUE PUSH2 0x1048 SWAP2 SWAP1 PUSH2 0x24CD JUMP JUMPDEST DUP3 PUSH1 0x4 ADD DUP2 SWAP1 SSTORE POP PUSH1 0x5 PUSH1 0x0 CALLER PUSH20 0xFFFFFFFFFFFFFFFFFFFFFFFFFFFFFFFFFFFFFFFF AND PUSH20 0xFFFFFFFFFFFFFFFFFFFFFFFFFFFFFFFFFFFFFFFF AND DUP2 MSTORE PUSH1 0x20 ADD SWAP1 DUP2 MSTORE PUSH1 0x20 ADD PUSH1 0x0 KECCAK256 PUSH1 0x3 SLOAD SWAP1 DUP1 PUSH1 0x1 DUP2 SLOAD ADD DUP1 DUP3 SSTORE DUP1 SWAP2 POP POP PUSH1 0x1 SWAP1 SUB SWAP1 PUSH1 0x0 MSTORE PUSH1 0x20 PUSH1 0x0 KECCAK256 ADD PUSH1 0x0 SWAP1 SWAP2 SWAP1 SWAP2 SWAP1 SWAP2 POP SSTORE PUSH1 0x3 PUSH1 0x0 DUP2 SLOAD DUP1 SWAP3 SWAP2 SWAP1 PUSH2 0x10CB SWAP1 PUSH2 0x27A1 JUMP JUMPDEST SWAP2 SWAP1 POP SSTORE POP POP POP POP POP JUMP JUMPDEST PUSH1 0x60 DUP2 PUSH1 0x0 DUP2 GT DUP1 ISZERO PUSH2 0x10EA JUMPI POP PUSH1 0x1 SLOAD DUP2 LT JUMPDEST PUSH2 0x1129 JUMPI PUSH1 0x40 MLOAD PUSH32 0x8C379A000000000000000000000000000000000000000000000000000000000 DUP2 MSTORE PUSH1 0x4 ADD PUSH2 0x1120 SWAP1 PUSH2 0x2864 JUMP JUMPDEST PUSH1 0x40 MLOAD DUP1 SWAP2 SUB SWAP1 REVERT JUMPDEST PUSH1 0x0 DUP1 PUSH1 0x0 DUP6 DUP2 MSTORE PUSH1 0x20 ADD SWAP1 DUP2 MSTORE PUSH1 0x20 ADD PUSH1 0x0 KECCAK256 SWAP1 POP PUSH1 0x0 DUP2 PUSH1 0x7 ADD SWAP1 POP PUSH1 0x0 DUP2 DUP1 SLOAD SWAP1 POP PUSH8 0xFFFFFFFFFFFFFFFF DUP2 GT ISZERO PUSH2 0x1167 JUMPI PUSH2 0x1166 PUSH2 0x246F JUMP JUMPDEST JUMPDEST PUSH1 0x40 MLOAD SWAP1 DUP1 DUP3 MSTORE DUP1 PUSH1 0x20 MUL PUSH1 0x20 ADD DUP3 ADD PUSH1 0x40 MSTORE DUP1 ISZERO PUSH2 0x11A0 JUMPI DUP2 PUSH1 0x20 ADD JUMPDEST PUSH2 0x118D PUSH2 0x1B0A JUMP JUMPDEST DUP2 MSTORE PUSH1 0x20 ADD SWAP1 PUSH1 0x1 SWAP1 SUB SWAP1 DUP2 PUSH2 0x1185 JUMPI SWAP1 POP JUMPDEST POP SWAP1 POP PUSH1 0x0 JUMPDEST DUP3 DUP1 SLOAD SWAP1 POP DUP2 LT ISZERO PUSH2 0x1298 JUMPI PUSH1 0x0 DUP4 DUP3 DUP2 SLOAD DUP2 LT PUSH2 0x11C7 JUMPI PUSH2 0x11C6 PUSH2 0x27E9 JUMP JUMPDEST JUMPDEST SWAP1 PUSH1 0x0 MSTORE PUSH1 0x20 PUSH1 0x0 KECCAK256 ADD SLOAD SWAP1 POP PUSH1 0x2 PUSH1 0x0 DUP3 DUP2 MSTORE PUSH1 0x20 ADD SWAP1 DUP2 MSTORE PUSH1 0x20 ADD PUSH1 0x0 KECCAK256 PUSH1 0x40 MLOAD DUP1 PUSH1 0x80 ADD PUSH1 0x40 MSTORE SWAP1 DUP2 PUSH1 0x0 DUP3 ADD SLOAD DUP2 MSTORE PUSH1 0x20 ADD PUSH1 0x1 DUP3 ADD SLOAD DUP2 MSTORE PUSH1 0x20 ADD PUSH1 0x2 DUP3 ADD PUSH1 0x0 SWAP1 SLOAD SWAP1 PUSH2 0x100 EXP SWAP1 DIV PUSH20 0xFFFFFFFFFFFFFFFFFFFFFFFFFFFFFFFFFFFFFFFF AND PUSH20 0xFFFFFFFFFFFFFFFFFFFFFFFFFFFFFFFFFFFFFFFF AND PUSH20 0xFFFFFFFFFFFFFFFFFFFFFFFFFFFFFFFFFFFFFFFF AND DUP2 MSTORE PUSH1 0x20 ADD PUSH1 0x3 DUP3 ADD SLOAD DUP2 MSTORE POP POP DUP4 DUP4 DUP2 MLOAD DUP2 LT PUSH2 0x1279 JUMPI PUSH2 0x1278 PUSH2 0x27E9 JUMP JUMPDEST JUMPDEST PUSH1 0x20 MUL PUSH1 0x20 ADD ADD DUP2 SWAP1 MSTORE POP POP DUP1 DUP1 PUSH2 0x1290 SWAP1 PUSH2 0x27A1 JUMP JUMPDEST SWAP2 POP POP PUSH2 0x11A6 JUMP JUMPDEST POP DUP1 SWAP5 POP POP POP POP POP SWAP2 SWAP1 POP JUMP JUMPDEST PUSH1 0x60 PUSH1 0x0 PUSH1 0x1 DUP1 SLOAD PUSH2 0x12B7 SWAP2 SWAP1 PUSH2 0x29A8 JUMP JUMPDEST PUSH8 0xFFFFFFFFFFFFFFFF DUP2 GT ISZERO PUSH2 0x12D0 JUMPI PUSH2 0x12CF PUSH2 0x246F JUMP JUMPDEST JUMPDEST PUSH1 0x40 MLOAD SWAP1 DUP1 DUP3 MSTORE DUP1 PUSH1 0x20 MUL PUSH1 0x20 ADD DUP3 ADD PUSH1 0x40 MSTORE DUP1 ISZERO PUSH2 0x1309 JUMPI DUP2 PUSH1 0x20 ADD JUMPDEST PUSH2 0x12F6 PUSH2 0x1BA9 JUMP JUMPDEST DUP2 MSTORE PUSH1 0x20 ADD SWAP1 PUSH1 0x1 SWAP1 SUB SWAP1 DUP2 PUSH2 0x12EE JUMPI SWAP1 POP JUMPDEST POP SWAP1 POP PUSH1 0x0 PUSH1 0x1 SWAP1 POP JUMPDEST PUSH1 0x1 SLOAD DUP2 LT ISZERO PUSH2 0x1572 JUMPI PUSH1 0x0 DUP1 DUP3 DUP2 MSTORE PUSH1 0x20 ADD SWAP1 DUP2 MSTORE PUSH1 0x20 ADD PUSH1 0x0 KECCAK256 PUSH1 0x40 MLOAD DUP1 PUSH2 0x100 ADD PUSH1 0x40 MSTORE SWAP1 DUP2 PUSH1 0x0 DUP3 ADD SLOAD DUP2 MSTORE PUSH1 0x20 ADD PUSH1 0x1 DUP3 ADD PUSH1 0x0 SWAP1 SLOAD SWAP1 PUSH2 0x100 EXP SWAP1 DIV PUSH20 0xFFFFFFFFFFFFFFFFFFFFFFFFFFFFFFFFFFFFFFFF AND PUSH20 0xFFFFFFFFFFFFFFFFFFFFFFFFFFFFFFFFFFFFFFFF AND PUSH20 0xFFFFFFFFFFFFFFFFFFFFFFFFFFFFFFFFFFFFFFFF AND DUP2 MSTORE PUSH1 0x20 ADD PUSH1 0x2 DUP3 ADD DUP1 SLOAD PUSH2 0x13AB SWAP1 PUSH2 0x23AC JUMP JUMPDEST DUP1 PUSH1 0x1F ADD PUSH1 0x20 DUP1 SWAP2 DIV MUL PUSH1 0x20 ADD PUSH1 0x40 MLOAD SWAP1 DUP2 ADD PUSH1 0x40 MSTORE DUP1 SWAP3 SWAP2 SWAP1 DUP2 DUP2 MSTORE PUSH1 0x20 ADD DUP3 DUP1 SLOAD PUSH2 0x13D7 SWAP1 PUSH2 0x23AC JUMP JUMPDEST DUP1 ISZERO PUSH2 0x1424 JUMPI DUP1 PUSH1 0x1F LT PUSH2 0x13F9 JUMPI PUSH2 0x100 DUP1 DUP4 SLOAD DIV MUL DUP4 MSTORE SWAP2 PUSH1 0x20 ADD SWAP2 PUSH2 0x1424 JUMP JUMPDEST DUP3 ADD SWAP2 SWAP1 PUSH1 0x0 MSTORE PUSH1 0x20 PUSH1 0x0 KECCAK256 SWAP1 JUMPDEST DUP2 SLOAD DUP2 MSTORE SWAP1 PUSH1 0x1 ADD SWAP1 PUSH1 0x20 ADD DUP1 DUP4 GT PUSH2 0x1407 JUMPI DUP3 SWAP1 SUB PUSH1 0x1F AND DUP3 ADD SWAP2 JUMPDEST POP POP POP POP POP DUP2 MSTORE PUSH1 0x20 ADD PUSH1 0x3 DUP3 ADD DUP1 SLOAD PUSH2 0x143D SWAP1 PUSH2 0x23AC JUMP JUMPDEST DUP1 PUSH1 0x1F ADD PUSH1 0x20 DUP1 SWAP2 DIV MUL PUSH1 0x20 ADD PUSH1 0x40 MLOAD SWAP1 DUP2 ADD PUSH1 0x40 MSTORE DUP1 SWAP3 SWAP2 SWAP1 DUP2 DUP2 MSTORE PUSH1 0x20 ADD DUP3 DUP1 SLOAD PUSH2 0x1469 SWAP1 PUSH2 0x23AC JUMP JUMPDEST DUP1 ISZERO PUSH2 0x14B6 JUMPI DUP1 PUSH1 0x1F LT PUSH2 0x148B JUMPI PUSH2 0x100 DUP1 DUP4 SLOAD DIV MUL DUP4 MSTORE SWAP2 PUSH1 0x20 ADD SWAP2 PUSH2 0x14B6 JUMP JUMPDEST DUP3 ADD SWAP2 SWAP1 PUSH1 0x0 MSTORE PUSH1 0x20 PUSH1 0x0 KECCAK256 SWAP1 JUMPDEST DUP2 SLOAD DUP2 MSTORE SWAP1 PUSH1 0x1 ADD SWAP1 PUSH1 0x20 ADD DUP1 DUP4 GT PUSH2 0x1499 JUMPI DUP3 SWAP1 SUB PUSH1 0x1F AND DUP3 ADD SWAP2 JUMPDEST POP POP POP POP POP DUP2 MSTORE PUSH1 0x20 ADD PUSH1 0x4 DUP3 ADD SLOAD DUP2 MSTORE PUSH1 0x20 ADD PUSH1 0x5 DUP3 ADD SLOAD DUP2 MSTORE PUSH1 0x20 ADD PUSH1 0x6 DUP3 ADD SLOAD DUP2 MSTORE PUSH1 0x20 ADD PUSH1 0x7 DUP3 ADD DUP1 SLOAD DUP1 PUSH1 0x20 MUL PUSH1 0x20 ADD PUSH1 0x40 MLOAD SWAP1 DUP2 ADD PUSH1 0x40 MSTORE DUP1 SWAP3 SWAP2 SWAP1 DUP2 DUP2 MSTORE PUSH1 0x20 ADD DUP3 DUP1 SLOAD DUP1 ISZERO PUSH2 0x152C JUMPI PUSH1 0x20 MUL DUP3 ADD SWAP2 SWAP1 PUSH1 0x0 MSTORE PUSH1 0x20 PUSH1 0x0 KECCAK256 SWAP1 JUMPDEST DUP2 SLOAD DUP2 MSTORE PUSH1 0x20 ADD SWAP1 PUSH1 0x1 ADD SWAP1 DUP1 DUP4 GT PUSH2 0x1518 JUMPI JUMPDEST POP POP POP POP POP DUP2 MSTORE POP POP DUP3 PUSH1 0x1 DUP4 PUSH2 0x1543 SWAP2 SWAP1 PUSH2 0x29A8 JUMP JUMPDEST DUP2 MLOAD DUP2 LT PUSH2 0x1554 JUMPI PUSH2 0x1553 PUSH2 0x27E9 JUMP JUMPDEST JUMPDEST PUSH1 0x20 MUL PUSH1 0x20 ADD ADD DUP2 SWAP1 MSTORE POP DUP1 DUP1 PUSH2 0x156A SWAP1 PUSH2 0x27A1 JUMP JUMPDEST SWAP2 POP POP PUSH2 0x1313 JUMP JUMPDEST POP DUP1 SWAP2 POP POP SWAP1 JUMP JUMPDEST DUP1 PUSH1 0x0 DUP2 GT DUP1 ISZERO PUSH2 0x158C JUMPI POP PUSH1 0x1 SLOAD DUP2 LT JUMPDEST PUSH2 0x15CB JUMPI PUSH1 0x40 MLOAD PUSH32 0x8C379A000000000000000000000000000000000000000000000000000000000 DUP2 MSTORE PUSH1 0x4 ADD PUSH2 0x15C2 SWAP1 PUSH2 0x2864 JUMP JUMPDEST PUSH1 0x40 MLOAD DUP1 SWAP2 SUB SWAP1 REVERT JUMPDEST PUSH1 0x0 DUP1 PUSH1 0x0 DUP5 DUP2 MSTORE PUSH1 0x20 ADD SWAP1 DUP2 MSTORE PUSH1 0x20 ADD PUSH1 0x0 KECCAK256 SWAP1 POP PUSH1 0x0 PUSH1 0x2 PUSH1 0x0 DUP4 PUSH1 0x6 ADD SLOAD DUP2 MSTORE PUSH1 0x20 ADD SWAP1 DUP2 MSTORE PUSH1 0x20 ADD PUSH1 0x0 KECCAK256 SWAP1 POP DUP2 PUSH1 0x5 ADD SLOAD TIMESTAMP GT PUSH2 0x1642 JUMPI PUSH1 0x40 MLOAD PUSH32 0x8C379A000000000000000000000000000000000000000000000000000000000 DUP2 MSTORE PUSH1 0x4 ADD PUSH2 0x1639 SWAP1 PUSH2 0x2A28 JUMP JUMPDEST PUSH1 0x40 MLOAD DUP1 SWAP2 SUB SWAP1 REVERT JUMPDEST PUSH1 0x0 JUMPDEST DUP3 PUSH1 0x7 ADD DUP1 SLOAD SWAP1 POP DUP2 LT ISZERO PUSH2 0x1720 JUMPI PUSH1 0x0 DUP4 PUSH1 0x7 ADD DUP3 DUP2 SLOAD DUP2 LT PUSH2 0x166C JUMPI PUSH2 0x166B PUSH2 0x27E9 JUMP JUMPDEST JUMPDEST SWAP1 PUSH1 0x0 MSTORE PUSH1 0x20 PUSH1 0x0 KECCAK256 ADD SLOAD SWAP1 POP PUSH1 0x0 PUSH1 0x2 PUSH1 0x0 DUP4 DUP2 MSTORE PUSH1 0x20 ADD SWAP1 DUP2 MSTORE PUSH1 0x20 ADD PUSH1 0x0 KECCAK256 SWAP1 POP DUP4 PUSH1 0x0 ADD SLOAD DUP3 EQ PUSH2 0x170B JUMPI DUP1 PUSH1 0x2 ADD PUSH1 0x0 SWAP1 SLOAD SWAP1 PUSH2 0x100 EXP SWAP1 DIV PUSH20 0xFFFFFFFFFFFFFFFFFFFFFFFFFFFFFFFFFFFFFFFF AND PUSH20 0xFFFFFFFFFFFFFFFFFFFFFFFFFFFFFFFFFFFFFFFF AND PUSH2 0x8FC DUP3 PUSH1 0x3 ADD SLOAD SWAP1 DUP2 ISZERO MUL SWAP1 PUSH1 0x40 MLOAD PUSH1 0x0 PUSH1 0x40 MLOAD DUP1 DUP4 SUB DUP2 DUP6 DUP9 DUP9 CALL SWAP4 POP POP POP POP ISZERO DUP1 ISZERO PUSH2 0x1709 JUMPI RETURNDATASIZE PUSH1 0x0 DUP1 RETURNDATACOPY RETURNDATASIZE PUSH1 0x0 REVERT JUMPDEST POP JUMPDEST POP POP DUP1 DUP1 PUSH2 0x1718 SWAP1 PUSH2 0x27A1 JUMP JUMPDEST SWAP2 POP POP PUSH2 0x1645 JUMP JUMPDEST POP DUP2 PUSH1 0x1 ADD PUSH1 0x0 SWAP1 SLOAD SWAP1 PUSH2 0x100 EXP SWAP1 DIV PUSH20 0xFFFFFFFFFFFFFFFFFFFFFFFFFFFFFFFFFFFFFFFF AND PUSH20 0xFFFFFFFFFFFFFFFFFFFFFFFFFFFFFFFFFFFFFFFF AND PUSH2 0x8FC DUP3 PUSH1 0x3 ADD SLOAD SWAP1 DUP2 ISZERO MUL SWAP1 PUSH1 0x40 MLOAD PUSH1 0x0 PUSH1 0x40 MLOAD DUP1 DUP4 SUB DUP2 DUP6 DUP9 DUP9 CALL SWAP4 POP POP POP POP ISZERO DUP1 ISZERO PUSH2 0x178F JUMPI RETURNDATASIZE PUSH1 0x0 DUP1 RETURNDATACOPY RETURNDATASIZE PUSH1 0x0 REVERT JUMPDEST POP POP POP POP POP JUMP JUMPDEST PUSH1 0x60 PUSH1 0x0 PUSH1 0x4 PUSH1 0x0 DUP5 PUSH20 0xFFFFFFFFFFFFFFFFFFFFFFFFFFFFFFFFFFFFFFFF AND PUSH20 0xFFFFFFFFFFFFFFFFFFFFFFFFFFFFFFFFFFFFFFFF AND DUP2 MSTORE PUSH1 0x20 ADD SWAP1 DUP2 MSTORE PUSH1 0x20 ADD PUSH1 0x0 KECCAK256 SWAP1 POP PUSH1 0x0 DUP2 DUP1 SLOAD SWAP1 POP PUSH8 0xFFFFFFFFFFFFFFFF DUP2 GT ISZERO PUSH2 0x17FB JUMPI PUSH2 0x17FA PUSH2 0x246F JUMP JUMPDEST JUMPDEST PUSH1 0x40 MLOAD SWAP1 DUP1 DUP3 MSTORE DUP1 PUSH1 0x20 MUL PUSH1 0x20 ADD DUP3 ADD PUSH1 0x40 MSTORE DUP1 ISZERO PUSH2 0x1834 JUMPI DUP2 PUSH1 0x20 ADD JUMPDEST PUSH2 0x1821 PUSH2 0x1BA9 JUMP JUMPDEST DUP2 MSTORE PUSH1 0x20 ADD SWAP1 PUSH1 0x1 SWAP1 SUB SWAP1 DUP2 PUSH2 0x1819 JUMPI SWAP1 POP JUMPDEST POP SWAP1 POP PUSH1 0x0 JUMPDEST DUP3 DUP1 SLOAD SWAP1 POP DUP2 LT ISZERO PUSH2 0x1AB2 JUMPI PUSH1 0x0 DUP4 DUP3 DUP2 SLOAD DUP2 LT PUSH2 0x185B JUMPI PUSH2 0x185A PUSH2 0x27E9 JUMP JUMPDEST JUMPDEST SWAP1 PUSH1 0x0 MSTORE PUSH1 0x20 PUSH1 0x0 KECCAK256 ADD SLOAD SWAP1 POP PUSH1 0x0 DUP1 DUP3 DUP2 MSTORE PUSH1 0x20 ADD SWAP1 DUP2 MSTORE PUSH1 0x20 ADD PUSH1 0x0 KECCAK256 PUSH1 0x40 MLOAD DUP1 PUSH2 0x100 ADD PUSH1 0x40 MSTORE SWAP1 DUP2 PUSH1 0x0 DUP3 ADD SLOAD DUP2 MSTORE PUSH1 0x20 ADD PUSH1 0x1 DUP3 ADD PUSH1 0x0 SWAP1 SLOAD SWAP1 PUSH2 0x100 EXP SWAP1 DIV PUSH20 0xFFFFFFFFFFFFFFFFFFFFFFFFFFFFFFFFFFFFFFFF AND PUSH20 0xFFFFFFFFFFFFFFFFFFFFFFFFFFFFFFFFFFFFFFFF AND PUSH20 0xFFFFFFFFFFFFFFFFFFFFFFFFFFFFFFFFFFFFFFFF AND DUP2 MSTORE PUSH1 0x20 ADD PUSH1 0x2 DUP3 ADD DUP1 SLOAD PUSH2 0x18F6 SWAP1 PUSH2 0x23AC JUMP JUMPDEST DUP1 PUSH1 0x1F ADD PUSH1 0x20 DUP1 SWAP2 DIV MUL PUSH1 0x20 ADD PUSH1 0x40 MLOAD SWAP1 DUP2 ADD PUSH1 0x40 MSTORE DUP1 SWAP3 SWAP2 SWAP1 DUP2 DUP2 MSTORE PUSH1 0x20 ADD DUP3 DUP1 SLOAD PUSH2 0x1922 SWAP1 PUSH2 0x23AC JUMP JUMPDEST DUP1 ISZERO PUSH2 0x196F JUMPI DUP1 PUSH1 0x1F LT PUSH2 0x1944 JUMPI PUSH2 0x100 DUP1 DUP4 SLOAD DIV MUL DUP4 MSTORE SWAP2 PUSH1 0x20 ADD SWAP2 PUSH2 0x196F JUMP JUMPDEST DUP3 ADD SWAP2 SWAP1 PUSH1 0x0 MSTORE PUSH1 0x20 PUSH1 0x0 KECCAK256 SWAP1 JUMPDEST DUP2 SLOAD DUP2 MSTORE SWAP1 PUSH1 0x1 ADD SWAP1 PUSH1 0x20 ADD DUP1 DUP4 GT PUSH2 0x1952 JUMPI DUP3 SWAP1 SUB PUSH1 0x1F AND DUP3 ADD SWAP2 JUMPDEST POP POP POP POP POP DUP2 MSTORE PUSH1 0x20 ADD PUSH1 0x3 DUP3 ADD DUP1 SLOAD PUSH2 0x1988 SWAP1 PUSH2 0x23AC JUMP JUMPDEST DUP1 PUSH1 0x1F ADD PUSH1 0x20 DUP1 SWAP2 DIV MUL PUSH1 0x20 ADD PUSH1 0x40 MLOAD SWAP1 DUP2 ADD PUSH1 0x40 MSTORE DUP1 SWAP3 SWAP2 SWAP1 DUP2 DUP2 MSTORE PUSH1 0x20 ADD DUP3 DUP1 SLOAD PUSH2 0x19B4 SWAP1 PUSH2 0x23AC JUMP JUMPDEST DUP1 ISZERO PUSH2 0x1A01 JUMPI DUP1 PUSH1 0x1F LT PUSH2 0x19D6 JUMPI PUSH2 0x100 DUP1 DUP4 SLOAD DIV MUL DUP4 MSTORE SWAP2 PUSH1 0x20 ADD SWAP2 PUSH2 0x1A01 JUMP JUMPDEST DUP3 ADD SWAP2 SWAP1 PUSH1 0x0 MSTORE PUSH1 0x20 PUSH1 0x0 KECCAK256 SWAP1 JUMPDEST DUP2 SLOAD DUP2 MSTORE SWAP1 PUSH1 0x1 ADD SWAP1 PUSH1 0x20 ADD DUP1 DUP4 GT PUSH2 0x19E4 JUMPI DUP3 SWAP1 SUB PUSH1 0x1F AND DUP3 ADD SWAP2 JUMPDEST POP POP POP POP POP DUP2 MSTORE PUSH1 0x20 ADD PUSH1 0x4 DUP3 ADD SLOAD DUP2 MSTORE PUSH1 0x20 ADD PUSH1 0x5 DUP3 ADD SLOAD DUP2 MSTORE PUSH1 0x20 ADD PUSH1 0x6 DUP3 ADD SLOAD DUP2 MSTORE PUSH1 0x20 ADD PUSH1 0x7 DUP3 ADD DUP1 SLOAD DUP1 PUSH1 0x20 MUL PUSH1 0x20 ADD PUSH1 0x40 MLOAD SWAP1 DUP2 ADD PUSH1 0x40 MSTORE DUP1 SWAP3 SWAP2 SWAP1 DUP2 DUP2 MSTORE PUSH1 0x20 ADD DUP3 DUP1 SLOAD DUP1 ISZERO PUSH2 0x1A77 JUMPI PUSH1 0x20 MUL DUP3 ADD SWAP2 SWAP1 PUSH1 0x0 MSTORE PUSH1 0x20 PUSH1 0x0 KECCAK256 SWAP1 JUMPDEST DUP2 SLOAD DUP2 MSTORE PUSH1 0x20 ADD SWAP1 PUSH1 0x1 ADD SWAP1 DUP1 DUP4 GT PUSH2 0x1A63 JUMPI JUMPDEST POP POP POP POP POP DUP2 MSTORE POP POP DUP4 DUP4 DUP2 MLOAD DUP2 LT PUSH2 0x1A93 JUMPI PUSH2 0x1A92 PUSH2 0x27E9 JUMP JUMPDEST JUMPDEST PUSH1 0x20 MUL PUSH1 0x20 ADD ADD DUP2 SWAP1 MSTORE POP POP DUP1 DUP1 PUSH2 0x1AAA SWAP1 PUSH2 0x27A1 JUMP JUMPDEST SWAP2 POP POP PUSH2 0x183A JUMP JUMPDEST POP DUP1 SWAP3 POP POP POP SWAP2 SWAP1 POP JUMP JUMPDEST DUP3 DUP1 SLOAD DUP3 DUP3 SSTORE SWAP1 PUSH1 0x0 MSTORE PUSH1 0x20 PUSH1 0x0 KECCAK256 SWAP1 DUP2 ADD SWAP3 DUP3 ISZERO PUSH2 0x1AF9 JUMPI SWAP2 PUSH1 0x20 MUL DUP3 ADD JUMPDEST DUP3 DUP2 GT ISZERO PUSH2 0x1AF8 JUMPI DUP3 MLOAD DUP3 SSTORE SWAP2 PUSH1 0x20 ADD SWAP2 SWAP1 PUSH1 0x1 ADD SWAP1 PUSH2 0x1ADD JUMP JUMPDEST JUMPDEST POP SWAP1 POP PUSH2 0x1B06 SWAP2 SWAP1 PUSH2 0x1C04 JUMP JUMPDEST POP SWAP1 JUMP JUMPDEST PUSH1 0x40 MLOAD DUP1 PUSH1 0x80 ADD PUSH1 0x40 MSTORE DUP1 PUSH1 0x0 DUP2 MSTORE PUSH1 0x20 ADD PUSH1 0x0 DUP2 MSTORE PUSH1 0x20 ADD PUSH1 0x0 PUSH20 0xFFFFFFFFFFFFFFFFFFFFFFFFFFFFFFFFFFFFFFFF AND DUP2 MSTORE PUSH1 0x20 ADD PUSH1 0x0 DUP2 MSTORE POP SWAP1 JUMP JUMPDEST POP DUP1 SLOAD PUSH2 0x1B54 SWAP1 PUSH2 0x23AC JUMP JUMPDEST PUSH1 0x0 DUP3 SSTORE DUP1 PUSH1 0x1F LT PUSH2 0x1B66 JUMPI POP PUSH2 0x1B85 JUMP JUMPDEST PUSH1 0x1F ADD PUSH1 0x20 SWAP1 DIV SWAP1 PUSH1 0x0 MSTORE PUSH1 0x20 PUSH1 0x0 KECCAK256 SWAP1 DUP2 ADD SWAP1 PUSH2 0x1B84 SWAP2 SWAP1 PUSH2 0x1C04 JUMP JUMPDEST JUMPDEST POP JUMP JUMPDEST POP DUP1 SLOAD PUSH1 0x0 DUP3 SSTORE SWAP1 PUSH1 0x0 MSTORE PUSH1 0x20 PUSH1 0x0 KECCAK256 SWAP1 DUP2 ADD SWAP1 PUSH2 0x1BA6 SWAP2 SWAP1 PUSH2 0x1C04 JUMP JUMPDEST POP JUMP JUMPDEST PUSH1 0x40 MLOAD DUP1 PUSH2 0x100 ADD PUSH1 0x40 MSTORE DUP1 PUSH1 0x0 DUP2 MSTORE PUSH1 0x20 ADD PUSH1 0x0 PUSH20 0xFFFFFFFFFFFFFFFFFFFFFFFFFFFFFFFFFFFFFFFF AND DUP2 MSTORE PUSH1 0x20 ADD PUSH1 0x60 DUP2 MSTORE PUSH1 0x20 ADD PUSH1 0x60 DUP2 MSTORE PUSH1 0x20 ADD PUSH1 0x0 DUP2 MSTORE PUSH1 0x20 ADD PUSH1 0x0 DUP2 MSTORE PUSH1 0x20 ADD PUSH1 0x0 DUP2 MSTORE PUSH1 0x20 ADD PUSH1 0x60 DUP2 MSTORE POP SWAP1 JUMP JUMPDEST JUMPDEST DUP1 DUP3 GT ISZERO PUSH2 0x1C1D JUMPI PUSH1 0x0 DUP2 PUSH1 0x0 SWAP1 SSTORE POP PUSH1 0x1 ADD PUSH2 0x1C05 JUMP JUMPDEST POP SWAP1 JUMP JUMPDEST PUSH1 0x0 DUP1 REVERT JUMPDEST PUSH1 0x0 DUP1 REVERT JUMPDEST PUSH1 0x0 DUP2 SWAP1 POP SWAP2 SWAP1 POP JUMP JUMPDEST PUSH2 0x1C3E DUP2 PUSH2 0x1C2B JUMP JUMPDEST DUP2 EQ PUSH2 0x1C49 JUMPI PUSH1 0x0 DUP1 REVERT JUMPDEST POP JUMP JUMPDEST PUSH1 0x0 DUP2 CALLDATALOAD SWAP1 POP PUSH2 0x1C5B DUP2 PUSH2 0x1C35 JUMP JUMPDEST SWAP3 SWAP2 POP POP JUMP JUMPDEST PUSH1 0x0 PUSH1 0x20 DUP3 DUP5 SUB SLT ISZERO PUSH2 0x1C77 JUMPI PUSH2 0x1C76 PUSH2 0x1C21 JUMP JUMPDEST JUMPDEST PUSH1 0x0 PUSH2 0x1C85 DUP5 DUP3 DUP6 ADD PUSH2 0x1C4C JUMP JUMPDEST SWAP2 POP POP SWAP3 SWAP2 POP POP JUMP JUMPDEST PUSH2 0x1C97 DUP2 PUSH2 0x1C2B JUMP JUMPDEST DUP3 MSTORE POP POP JUMP JUMPDEST PUSH1 0x0 PUSH20 0xFFFFFFFFFFFFFFFFFFFFFFFFFFFFFFFFFFFFFFFF DUP3 AND SWAP1 POP SWAP2 SWAP1 POP JUMP JUMPDEST PUSH1 0x0 PUSH2 0x1CC8 DUP3 PUSH2 0x1C9D JUMP JUMPDEST SWAP1 POP SWAP2 SWAP1 POP JUMP JUMPDEST PUSH2 0x1CD8 DUP2 PUSH2 0x1CBD JUMP JUMPDEST DUP3 MSTORE POP POP JUMP JUMPDEST PUSH1 0x0 DUP2 MLOAD SWAP1 POP SWAP2 SWAP1 POP JUMP JUMPDEST PUSH1 0x0 DUP3 DUP3 MSTORE PUSH1 0x20 DUP3 ADD SWAP1 POP SWAP3 SWAP2 POP POP JUMP JUMPDEST PUSH1 0x0 JUMPDEST DUP4 DUP2 LT ISZERO PUSH2 0x1D18 JUMPI DUP1 DUP3 ADD MLOAD DUP2 DUP5 ADD MSTORE PUSH1 0x20 DUP2 ADD SWAP1 POP PUSH2 0x1CFD JUMP JUMPDEST DUP4 DUP2 GT ISZERO PUSH2 0x1D27 JUMPI PUSH1 0x0 DUP5 DUP5 ADD MSTORE JUMPDEST POP POP POP POP JUMP JUMPDEST PUSH1 0x0 PUSH1 0x1F NOT PUSH1 0x1F DUP4 ADD AND SWAP1 POP SWAP2 SWAP1 POP JUMP JUMPDEST PUSH1 0x0 PUSH2 0x1D49 DUP3 PUSH2 0x1CDE JUMP JUMPDEST PUSH2 0x1D53 DUP2 DUP6 PUSH2 0x1CE9 JUMP JUMPDEST SWAP4 POP PUSH2 0x1D63 DUP2 DUP6 PUSH1 0x20 DUP7 ADD PUSH2 0x1CFA JUMP JUMPDEST PUSH2 0x1D6C DUP2 PUSH2 0x1D2D JUMP JUMPDEST DUP5 ADD SWAP2 POP POP SWAP3 SWAP2 POP POP JUMP JUMPDEST PUSH1 0x0 PUSH1 0xE0 DUP3 ADD SWAP1 POP PUSH2 0x1D8C PUSH1 0x0 DUP4 ADD DUP11 PUSH2 0x1C8E JUMP JUMPDEST PUSH2 0x1D99 PUSH1 0x20 DUP4 ADD DUP10 PUSH2 0x1CCF JUMP JUMPDEST DUP2 DUP2 SUB PUSH1 0x40 DUP4 ADD MSTORE PUSH2 0x1DAB DUP2 DUP9 PUSH2 0x1D3E JUMP JUMPDEST SWAP1 POP DUP2 DUP2 SUB PUSH1 0x60 DUP4 ADD MSTORE PUSH2 0x1DBF DUP2 DUP8 PUSH2 0x1D3E JUMP JUMPDEST SWAP1 POP PUSH2 0x1DCE PUSH1 0x80 DUP4 ADD DUP7 PUSH2 0x1C8E JUMP JUMPDEST PUSH2 0x1DDB PUSH1 0xA0 DUP4 ADD DUP6 PUSH2 0x1C8E JUMP JUMPDEST PUSH2 0x1DE8 PUSH1 0xC0 DUP4 ADD DUP5 PUSH2 0x1C8E JUMP JUMPDEST SWAP9 SWAP8 POP POP POP POP POP POP POP POP JUMP JUMPDEST PUSH1 0x0 DUP1 REVERT JUMPDEST PUSH1 0x0 DUP1 REVERT JUMPDEST PUSH1 0x0 DUP1 REVERT JUMPDEST PUSH1 0x0 DUP1 DUP4 PUSH1 0x1F DUP5 ADD SLT PUSH2 0x1E19 JUMPI PUSH2 0x1E18 PUSH2 0x1DF4 JUMP JUMPDEST JUMPDEST DUP3 CALLDATALOAD SWAP1 POP PUSH8 0xFFFFFFFFFFFFFFFF DUP2 GT ISZERO PUSH2 0x1E36 JUMPI PUSH2 0x1E35 PUSH2 0x1DF9 JUMP JUMPDEST JUMPDEST PUSH1 0x20 DUP4 ADD SWAP2 POP DUP4 PUSH1 0x1 DUP3 MUL DUP4 ADD GT ISZERO PUSH2 0x1E52 JUMPI PUSH2 0x1E51 PUSH2 0x1DFE JUMP JUMPDEST JUMPDEST SWAP3 POP SWAP3 SWAP1 POP JUMP JUMPDEST PUSH1 0x0 DUP1 PUSH1 0x0 DUP1 PUSH1 0x0 DUP1 PUSH1 0x80 DUP8 DUP10 SUB SLT ISZERO PUSH2 0x1E76 JUMPI PUSH2 0x1E75 PUSH2 0x1C21 JUMP JUMPDEST JUMPDEST PUSH1 0x0 DUP8 ADD CALLDATALOAD PUSH8 0xFFFFFFFFFFFFFFFF DUP2 GT ISZERO PUSH2 0x1E94 JUMPI PUSH2 0x1E93 PUSH2 0x1C26 JUMP JUMPDEST JUMPDEST PUSH2 0x1EA0 DUP10 DUP3 DUP11 ADD PUSH2 0x1E03 JUMP JUMPDEST SWAP7 POP SWAP7 POP POP PUSH1 0x20 DUP8 ADD CALLDATALOAD PUSH8 0xFFFFFFFFFFFFFFFF DUP2 GT ISZERO PUSH2 0x1EC3 JUMPI PUSH2 0x1EC2 PUSH2 0x1C26 JUMP JUMPDEST JUMPDEST PUSH2 0x1ECF DUP10 DUP3 DUP11 ADD PUSH2 0x1E03 JUMP JUMPDEST SWAP5 POP SWAP5 POP POP PUSH1 0x40 PUSH2 0x1EE2 DUP10 DUP3 DUP11 ADD PUSH2 0x1C4C JUMP JUMPDEST SWAP3 POP POP PUSH1 0x60 PUSH2 0x1EF3 DUP10 DUP3 DUP11 ADD PUSH2 0x1C4C JUMP JUMPDEST SWAP2 POP POP SWAP3 SWAP6 POP SWAP3 SWAP6 POP SWAP3 SWAP6 JUMP JUMPDEST PUSH2 0x1F09 DUP2 PUSH2 0x1CBD JUMP JUMPDEST DUP2 EQ PUSH2 0x1F14 JUMPI PUSH1 0x0 DUP1 REVERT JUMPDEST POP JUMP JUMPDEST PUSH1 0x0 DUP2 CALLDATALOAD SWAP1 POP PUSH2 0x1F26 DUP2 PUSH2 0x1F00 JUMP JUMPDEST SWAP3 SWAP2 POP POP JUMP JUMPDEST PUSH1 0x0 PUSH1 0x20 DUP3 DUP5 SUB SLT ISZERO PUSH2 0x1F42 JUMPI PUSH2 0x1F41 PUSH2 0x1C21 JUMP JUMPDEST JUMPDEST PUSH1 0x0 PUSH2 0x1F50 DUP5 DUP3 DUP6 ADD PUSH2 0x1F17 JUMP JUMPDEST SWAP2 POP POP SWAP3 SWAP2 POP POP JUMP JUMPDEST PUSH1 0x0 DUP2 MLOAD SWAP1 POP SWAP2 SWAP1 POP JUMP JUMPDEST PUSH1 0x0 DUP3 DUP3 MSTORE PUSH1 0x20 DUP3 ADD SWAP1 POP SWAP3 SWAP2 POP POP JUMP JUMPDEST PUSH1 0x0 DUP2 SWAP1 POP PUSH1 0x20 DUP3 ADD SWAP1 POP SWAP2 SWAP1 POP JUMP JUMPDEST PUSH2 0x1F8E DUP2 PUSH2 0x1C2B JUMP JUMPDEST DUP3 MSTORE POP POP JUMP JUMPDEST PUSH2 0x1F9D DUP2 PUSH2 0x1CBD JUMP JUMPDEST DUP3 MSTORE POP POP JUMP JUMPDEST PUSH1 0x80 DUP3 ADD PUSH1 0x0 DUP3 ADD MLOAD PUSH2 0x1FB9 PUSH1 0x0 DUP6 ADD DUP3 PUSH2 0x1F85 JUMP JUMPDEST POP PUSH1 0x20 DUP3 ADD MLOAD PUSH2 0x1FCC PUSH1 0x20 DUP6 ADD DUP3 PUSH2 0x1F85 JUMP JUMPDEST POP PUSH1 0x40 DUP3 ADD MLOAD PUSH2 0x1FDF PUSH1 0x40 DUP6 ADD DUP3 PUSH2 0x1F94 JUMP JUMPDEST POP PUSH1 0x60 DUP3 ADD MLOAD PUSH2 0x1FF2 PUSH1 0x60 DUP6 ADD DUP3 PUSH2 0x1F85 JUMP JUMPDEST POP POP POP POP JUMP JUMPDEST PUSH1 0x0 PUSH2 0x2004 DUP4 DUP4 PUSH2 0x1FA3 JUMP JUMPDEST PUSH1 0x80 DUP4 ADD SWAP1 POP SWAP3 SWAP2 POP POP JUMP JUMPDEST PUSH1 0x0 PUSH1 0x20 DUP3 ADD SWAP1 POP SWAP2 SWAP1 POP JUMP JUMPDEST PUSH1 0x0 PUSH2 0x2028 DUP3 PUSH2 0x1F59 JUMP JUMPDEST PUSH2 0x2032 DUP2 DUP6 PUSH2 0x1F64 JUMP JUMPDEST SWAP4 POP PUSH2 0x203D DUP4 PUSH2 0x1F75 JUMP JUMPDEST DUP1 PUSH1 0x0 JUMPDEST DUP4 DUP2 LT ISZERO PUSH2 0x206E JUMPI DUP2 MLOAD PUSH2 0x2055 DUP9 DUP3 PUSH2 0x1FF8 JUMP JUMPDEST SWAP8 POP PUSH2 0x2060 DUP4 PUSH2 0x2010 JUMP JUMPDEST SWAP3 POP POP PUSH1 0x1 DUP2 ADD SWAP1 POP PUSH2 0x2041 JUMP JUMPDEST POP DUP6 SWAP4 POP POP POP POP SWAP3 SWAP2 POP POP JUMP JUMPDEST PUSH1 0x0 PUSH1 0x20 DUP3 ADD SWAP1 POP DUP2 DUP2 SUB PUSH1 0x0 DUP4 ADD MSTORE PUSH2 0x2095 DUP2 DUP5 PUSH2 0x201D JUMP JUMPDEST SWAP1 POP SWAP3 SWAP2 POP POP JUMP JUMPDEST PUSH1 0x0 PUSH1 0x80 DUP3 ADD SWAP1 POP PUSH2 0x20B2 PUSH1 0x0 DUP4 ADD DUP8 PUSH2 0x1C8E JUMP JUMPDEST PUSH2 0x20BF PUSH1 0x20 DUP4 ADD DUP7 PUSH2 0x1C8E JUMP JUMPDEST PUSH2 0x20CC PUSH1 0x40 DUP4 ADD DUP6 PUSH2 0x1CCF JUMP JUMPDEST PUSH2 0x20D9 PUSH1 0x60 DUP4 ADD DUP5 PUSH2 0x1C8E JUMP JUMPDEST SWAP6 SWAP5 POP POP POP POP POP JUMP JUMPDEST PUSH1 0x0 DUP2 MLOAD SWAP1 POP SWAP2 SWAP1 POP JUMP JUMPDEST PUSH1 0x0 DUP3 DUP3 MSTORE PUSH1 0x20 DUP3 ADD SWAP1 POP SWAP3 SWAP2 POP POP JUMP JUMPDEST PUSH1 0x0 DUP2 SWAP1 POP PUSH1 0x20 DUP3 ADD SWAP1 POP SWAP2 SWAP1 POP JUMP JUMPDEST PUSH1 0x0 DUP3 DUP3 MSTORE PUSH1 0x20 DUP3 ADD SWAP1 POP SWAP3 SWAP2 POP POP JUMP JUMPDEST PUSH1 0x0 PUSH2 0x212A DUP3 PUSH2 0x1CDE JUMP JUMPDEST PUSH2 0x2134 DUP2 DUP6 PUSH2 0x210E JUMP JUMPDEST SWAP4 POP PUSH2 0x2144 DUP2 DUP6 PUSH1 0x20 DUP7 ADD PUSH2 0x1CFA JUMP JUMPDEST PUSH2 0x214D DUP2 PUSH2 0x1D2D JUMP JUMPDEST DUP5 ADD SWAP2 POP POP SWAP3 SWAP2 POP POP JUMP JUMPDEST PUSH1 0x0 DUP2 MLOAD SWAP1 POP SWAP2 SWAP1 POP JUMP JUMPDEST PUSH1 0x0 DUP3 DUP3 MSTORE PUSH1 0x20 DUP3 ADD SWAP1 POP SWAP3 SWAP2 POP POP JUMP JUMPDEST PUSH1 0x0 DUP2 SWAP1 POP PUSH1 0x20 DUP3 ADD SWAP1 POP SWAP2 SWAP1 POP JUMP JUMPDEST PUSH1 0x0 PUSH2 0x2190 DUP4 DUP4 PUSH2 0x1F85 JUMP JUMPDEST PUSH1 0x20 DUP4 ADD SWAP1 POP SWAP3 SWAP2 POP POP JUMP JUMPDEST PUSH1 0x0 PUSH1 0x20 DUP3 ADD SWAP1 POP SWAP2 SWAP1 POP JUMP JUMPDEST PUSH1 0x0 PUSH2 0x21B4 DUP3 PUSH2 0x2158 JUMP JUMPDEST PUSH2 0x21BE DUP2 DUP6 PUSH2 0x2163 JUMP JUMPDEST SWAP4 POP PUSH2 0x21C9 DUP4 PUSH2 0x2174 JUMP JUMPDEST DUP1 PUSH1 0x0 JUMPDEST DUP4 DUP2 LT ISZERO PUSH2 0x21FA JUMPI DUP2 MLOAD PUSH2 0x21E1 DUP9 DUP3 PUSH2 0x2184 JUMP JUMPDEST SWAP8 POP PUSH2 0x21EC DUP4 PUSH2 0x219C JUMP JUMPDEST SWAP3 POP POP PUSH1 0x1 DUP2 ADD SWAP1 POP PUSH2 0x21CD JUMP JUMPDEST POP DUP6 SWAP4 POP POP POP POP SWAP3 SWAP2 POP POP JUMP JUMPDEST PUSH1 0x0 PUSH2 0x100 DUP4 ADD PUSH1 0x0 DUP4 ADD MLOAD PUSH2 0x2220 PUSH1 0x0 DUP7 ADD DUP3 PUSH2 0x1F85 JUMP JUMPDEST POP PUSH1 0x20 DUP4 ADD MLOAD PUSH2 0x2233 PUSH1 0x20 DUP7 ADD DUP3 PUSH2 0x1F94 JUMP JUMPDEST POP PUSH1 0x40 DUP4 ADD MLOAD DUP5 DUP3 SUB PUSH1 0x40 DUP7 ADD MSTORE PUSH2 0x224B DUP3 DUP3 PUSH2 0x211F JUMP JUMPDEST SWAP2 POP POP PUSH1 0x60 DUP4 ADD MLOAD DUP5 DUP3 SUB PUSH1 0x60 DUP7 ADD MSTORE PUSH2 0x2265 DUP3 DUP3 PUSH2 0x211F JUMP JUMPDEST SWAP2 POP POP PUSH1 0x80 DUP4 ADD MLOAD PUSH2 0x227A PUSH1 0x80 DUP7 ADD DUP3 PUSH2 0x1F85 JUMP JUMPDEST POP PUSH1 0xA0 DUP4 ADD MLOAD PUSH2 0x228D PUSH1 0xA0 DUP7 ADD DUP3 PUSH2 0x1F85 JUMP JUMPDEST POP PUSH1 0xC0 DUP4 ADD MLOAD PUSH2 0x22A0 PUSH1 0xC0 DUP7 ADD DUP3 PUSH2 0x1F85 JUMP JUMPDEST POP PUSH1 0xE0 DUP4 ADD MLOAD DUP5 DUP3 SUB PUSH1 0xE0 DUP7 ADD MSTORE PUSH2 0x22B8 DUP3 DUP3 PUSH2 0x21A9 JUMP JUMPDEST SWAP2 POP POP DUP1 SWAP2 POP POP SWAP3 SWAP2 POP POP JUMP JUMPDEST PUSH1 0x0 PUSH2 0x22D1 DUP4 DUP4 PUSH2 0x2207 JUMP JUMPDEST SWAP1 POP SWAP3 SWAP2 POP POP JUMP JUMPDEST PUSH1 0x0 PUSH1 0x20 DUP3 ADD SWAP1 POP SWAP2 SWAP1 POP JUMP JUMPDEST PUSH1 0x0 PUSH2 0x22F1 DUP3 PUSH2 0x20E2 JUMP JUMPDEST PUSH2 0x22FB DUP2 DUP6 PUSH2 0x20ED JUMP JUMPDEST SWAP4 POP DUP4 PUSH1 0x20 DUP3 MUL DUP6 ADD PUSH2 0x230D DUP6 PUSH2 0x20FE JUMP JUMPDEST DUP1 PUSH1 0x0 JUMPDEST DUP6 DUP2 LT ISZERO PUSH2 0x2349 JUMPI DUP5 DUP5 SUB DUP10 MSTORE DUP2 MLOAD PUSH2 0x232A DUP6 DUP3 PUSH2 0x22C5 JUMP JUMPDEST SWAP5 POP PUSH2 0x2335 DUP4 PUSH2 0x22D9 JUMP JUMPDEST SWAP3 POP PUSH1 0x20 DUP11 ADD SWAP10 POP POP PUSH1 0x1 DUP2 ADD SWAP1 POP PUSH2 0x2311 JUMP JUMPDEST POP DUP3 SWAP8 POP DUP8 SWAP6 POP POP POP POP POP POP SWAP3 SWAP2 POP POP JUMP JUMPDEST PUSH1 0x0 PUSH1 0x20 DUP3 ADD SWAP1 POP DUP2 DUP2 SUB PUSH1 0x0 DUP4 ADD MSTORE PUSH2 0x2375 DUP2 DUP5 PUSH2 0x22E6 JUMP JUMPDEST SWAP1 POP SWAP3 SWAP2 POP POP JUMP JUMPDEST PUSH32 0x4E487B7100000000000000000000000000000000000000000000000000000000 PUSH1 0x0 MSTORE PUSH1 0x22 PUSH1 0x4 MSTORE PUSH1 0x24 PUSH1 0x0 REVERT JUMPDEST PUSH1 0x0 PUSH1 0x2 DUP3 DIV SWAP1 POP PUSH1 0x1 DUP3 AND DUP1 PUSH2 0x23C4 JUMPI PUSH1 0x7F DUP3 AND SWAP2 POP JUMPDEST PUSH1 0x20 DUP3 LT DUP2 SUB PUSH2 0x23D7 JUMPI PUSH2 0x23D6 PUSH2 0x237D JUMP JUMPDEST JUMPDEST POP SWAP2 SWAP1 POP JUMP JUMPDEST PUSH32 0x4D696E696D756D206F666665722070726963652073686F756C64206265206772 PUSH1 0x0 DUP3 ADD MSTORE PUSH32 0x6561746572207468616E20300000000000000000000000000000000000000000 PUSH1 0x20 DUP3 ADD MSTORE POP JUMP JUMPDEST PUSH1 0x0 PUSH2 0x2439 PUSH1 0x2C DUP4 PUSH2 0x1CE9 JUMP JUMPDEST SWAP2 POP PUSH2 0x2444 DUP3 PUSH2 0x23DD JUMP JUMPDEST PUSH1 0x40 DUP3 ADD SWAP1 POP SWAP2 SWAP1 POP JUMP JUMPDEST PUSH1 0x0 PUSH1 0x20 DUP3 ADD SWAP1 POP DUP2 DUP2 SUB PUSH1 0x0 DUP4 ADD MSTORE PUSH2 0x2468 DUP2 PUSH2 0x242C JUMP JUMPDEST SWAP1 POP SWAP2 SWAP1 POP JUMP JUMPDEST PUSH32 0x4E487B7100000000000000000000000000000000000000000000000000000000 PUSH1 0x0 MSTORE PUSH1 0x41 PUSH1 0x4 MSTORE PUSH1 0x24 PUSH1 0x0 REVERT JUMPDEST PUSH32 0x4E487B7100000000000000000000000000000000000000000000000000000000 PUSH1 0x0 MSTORE PUSH1 0x11 PUSH1 0x4 MSTORE PUSH1 0x24 PUSH1 0x0 REVERT JUMPDEST PUSH1 0x0 PUSH2 0x24D8 DUP3 PUSH2 0x1C2B JUMP JUMPDEST SWAP2 POP PUSH2 0x24E3 DUP4 PUSH2 0x1C2B JUMP JUMPDEST SWAP3 POP DUP3 PUSH32 0xFFFFFFFFFFFFFFFFFFFFFFFFFFFFFFFFFFFFFFFFFFFFFFFFFFFFFFFFFFFFFFFF SUB DUP3 GT ISZERO PUSH2 0x2518 JUMPI PUSH2 0x2517 PUSH2 0x249E JUMP JUMPDEST JUMPDEST DUP3 DUP3 ADD SWAP1 POP SWAP3 SWAP2 POP POP JUMP JUMPDEST PUSH1 0x0 DUP2 SWAP1 POP DUP2 PUSH1 0x0 MSTORE PUSH1 0x20 PUSH1 0x0 KECCAK256 SWAP1 POP SWAP2 SWAP1 POP JUMP JUMPDEST PUSH1 0x0 PUSH1 0x20 PUSH1 0x1F DUP4 ADD DIV SWAP1 POP SWAP2 SWAP1 POP JUMP JUMPDEST PUSH1 0x0 DUP3 DUP3 SHL SWAP1 POP SWAP3 SWAP2 POP POP JUMP JUMPDEST PUSH1 0x0 PUSH1 0x8 DUP4 MUL PUSH2 0x2585 PUSH32 0xFFFFFFFFFFFFFFFFFFFFFFFFFFFFFFFFFFFFFFFFFFFFFFFFFFFFFFFFFFFFFFFF DUP3 PUSH2 0x2548 JUMP JUMPDEST PUSH2 0x258F DUP7 DUP4 PUSH2 0x2548 JUMP JUMPDEST SWAP6 POP DUP1 NOT DUP5 AND SWAP4 POP DUP1 DUP7 AND DUP5 OR SWAP3 POP POP POP SWAP4 SWAP3 POP POP POP JUMP JUMPDEST PUSH1 0x0 DUP2 SWAP1 POP SWAP2 SWAP1 POP JUMP JUMPDEST PUSH1 0x0 PUSH2 0x25CC PUSH2 0x25C7 PUSH2 0x25C2 DUP5 PUSH2 0x1C2B JUMP JUMPDEST PUSH2 0x25A7 JUMP JUMPDEST PUSH2 0x1C2B JUMP JUMPDEST SWAP1 POP SWAP2 SWAP1 POP JUMP JUMPDEST PUSH1 0x0 DUP2 SWAP1 POP SWAP2 SWAP1 POP JUMP JUMPDEST PUSH2 0x25E6 DUP4 PUSH2 0x25B1 JUMP JUMPDEST PUSH2 0x25FA PUSH2 0x25F2 DUP3 PUSH2 0x25D3 JUMP JUMPDEST DUP5 DUP5 SLOAD PUSH2 0x2555 JUMP JUMPDEST DUP3 SSTORE POP POP POP POP JUMP JUMPDEST PUSH1 0x0 SWAP1 JUMP JUMPDEST PUSH2 0x260F PUSH2 0x2602 JUMP JUMPDEST PUSH2 0x261A DUP2 DUP5 DUP5 PUSH2 0x25DD JUMP JUMPDEST POP POP POP JUMP JUMPDEST JUMPDEST DUP2 DUP2 LT ISZERO PUSH2 0x263E JUMPI PUSH2 0x2633 PUSH1 0x0 DUP3 PUSH2 0x2607 JUMP JUMPDEST PUSH1 0x1 DUP2 ADD SWAP1 POP PUSH2 0x2620 JUMP JUMPDEST POP POP JUMP JUMPDEST PUSH1 0x1F DUP3 GT ISZERO PUSH2 0x2683 JUMPI PUSH2 0x2654 DUP2 PUSH2 0x2523 JUMP JUMPDEST PUSH2 0x265D DUP5 PUSH2 0x2538 JUMP JUMPDEST DUP2 ADD PUSH1 0x20 DUP6 LT ISZERO PUSH2 0x266C JUMPI DUP2 SWAP1 POP JUMPDEST PUSH2 0x2680 PUSH2 0x2678 DUP6 PUSH2 0x2538 JUMP JUMPDEST DUP4 ADD DUP3 PUSH2 0x261F JUMP JUMPDEST POP POP JUMPDEST POP POP POP JUMP JUMPDEST PUSH1 0x0 DUP3 DUP3 SHR SWAP1 POP SWAP3 SWAP2 POP POP JUMP JUMPDEST PUSH1 0x0 PUSH2 0x26A6 PUSH1 0x0 NOT DUP5 PUSH1 0x8 MUL PUSH2 0x2688 JUMP JUMPDEST NOT DUP1 DUP4 AND SWAP2 POP POP SWAP3 SWAP2 POP POP JUMP JUMPDEST PUSH1 0x0 PUSH2 0x26BF DUP4 DUP4 PUSH2 0x2695 JUMP JUMPDEST SWAP2 POP DUP3 PUSH1 0x2 MUL DUP3 OR SWAP1 POP SWAP3 SWAP2 POP POP JUMP JUMPDEST PUSH2 0x26D8 DUP3 PUSH2 0x1CDE JUMP JUMPDEST PUSH8 0xFFFFFFFFFFFFFFFF DUP2 GT ISZERO PUSH2 0x26F1 JUMPI PUSH2 0x26F0 PUSH2 0x246F JUMP JUMPDEST JUMPDEST PUSH2 0x26FB DUP3 SLOAD PUSH2 0x23AC JUMP JUMPDEST PUSH2 0x2706 DUP3 DUP3 DUP6 PUSH2 0x2642 JUMP JUMPDEST PUSH1 0x0 PUSH1 0x20 SWAP1 POP PUSH1 0x1F DUP4 GT PUSH1 0x1 DUP2 EQ PUSH2 0x2739 JUMPI PUSH1 0x0 DUP5 ISZERO PUSH2 0x2727 JUMPI DUP3 DUP8 ADD MLOAD SWAP1 POP JUMPDEST PUSH2 0x2731 DUP6 DUP3 PUSH2 0x26B3 JUMP JUMPDEST DUP7 SSTORE POP PUSH2 0x2799 JUMP JUMPDEST PUSH1 0x1F NOT DUP5 AND PUSH2 0x2747 DUP7 PUSH2 0x2523 JUMP JUMPDEST PUSH1 0x0 JUMPDEST DUP3 DUP2 LT ISZERO PUSH2 0x276F JUMPI DUP5 DUP10 ADD MLOAD DUP3 SSTORE PUSH1 0x1 DUP3 ADD SWAP2 POP PUSH1 0x20 DUP6 ADD SWAP5 POP PUSH1 0x20 DUP2 ADD SWAP1 POP PUSH2 0x274A JUMP JUMPDEST DUP7 DUP4 LT ISZERO PUSH2 0x278C JUMPI DUP5 DUP10 ADD MLOAD PUSH2 0x2788 PUSH1 0x1F DUP10 AND DUP3 PUSH2 0x2695 JUMP JUMPDEST DUP4 SSTORE POP JUMPDEST PUSH1 0x1 PUSH1 0x2 DUP9 MUL ADD DUP9 SSTORE POP POP POP JUMPDEST POP POP POP POP POP POP JUMP JUMPDEST PUSH1 0x0 PUSH2 0x27AC DUP3 PUSH2 0x1C2B JUMP JUMPDEST SWAP2 POP PUSH32 0xFFFFFFFFFFFFFFFFFFFFFFFFFFFFFFFFFFFFFFFFFFFFFFFFFFFFFFFFFFFFFFFF DUP3 SUB PUSH2 0x27DE JUMPI PUSH2 0x27DD PUSH2 0x249E JUMP JUMPDEST JUMPDEST PUSH1 0x1 DUP3 ADD SWAP1 POP SWAP2 SWAP1 POP JUMP JUMPDEST PUSH32 0x4E487B7100000000000000000000000000000000000000000000000000000000 PUSH1 0x0 MSTORE PUSH1 0x32 PUSH1 0x4 MSTORE PUSH1 0x24 PUSH1 0x0 REVERT JUMPDEST PUSH32 0x41756374696F6E20646F6573206E6F7420657869737400000000000000000000 PUSH1 0x0 DUP3 ADD MSTORE POP JUMP JUMPDEST PUSH1 0x0 PUSH2 0x284E PUSH1 0x16 DUP4 PUSH2 0x1CE9 JUMP JUMPDEST SWAP2 POP PUSH2 0x2859 DUP3 PUSH2 0x2818 JUMP JUMPDEST PUSH1 0x20 DUP3 ADD SWAP1 POP SWAP2 SWAP1 POP JUMP JUMPDEST PUSH1 0x0 PUSH1 0x20 DUP3 ADD SWAP1 POP DUP2 DUP2 SUB PUSH1 0x0 DUP4 ADD MSTORE PUSH2 0x287D DUP2 PUSH2 0x2841 JUMP JUMPDEST SWAP1 POP SWAP2 SWAP1 POP JUMP JUMPDEST PUSH32 0x41756374696F6E20657870697265640000000000000000000000000000000000 PUSH1 0x0 DUP3 ADD MSTORE POP JUMP JUMPDEST PUSH1 0x0 PUSH2 0x28BA PUSH1 0xF DUP4 PUSH2 0x1CE9 JUMP JUMPDEST SWAP2 POP PUSH2 0x28C5 DUP3 PUSH2 0x2884 JUMP JUMPDEST PUSH1 0x20 DUP3 ADD SWAP1 POP SWAP2 SWAP1 POP JUMP JUMPDEST PUSH1 0x0 PUSH1 0x20 DUP3 ADD SWAP1 POP DUP2 DUP2 SUB PUSH1 0x0 DUP4 ADD MSTORE PUSH2 0x28E9 DUP2 PUSH2 0x28AD JUMP JUMPDEST SWAP1 POP SWAP2 SWAP1 POP JUMP JUMPDEST PUSH32 0x50726963652073686F756C642062652067726561746572207468616E206D696E PUSH1 0x0 DUP3 ADD MSTORE PUSH32 0x696D756D206F6666657220707269636520616E64207468652062657374206F66 PUSH1 0x20 DUP3 ADD MSTORE PUSH32 0x6665720000000000000000000000000000000000000000000000000000000000 PUSH1 0x40 DUP3 ADD MSTORE POP JUMP JUMPDEST PUSH1 0x0 PUSH2 0x2972 PUSH1 0x43 DUP4 PUSH2 0x1CE9 JUMP JUMPDEST SWAP2 POP PUSH2 0x297D DUP3 PUSH2 0x28F0 JUMP JUMPDEST PUSH1 0x60 DUP3 ADD SWAP1 POP SWAP2 SWAP1 POP JUMP JUMPDEST PUSH1 0x0 PUSH1 0x20 DUP3 ADD SWAP1 POP DUP2 DUP2 SUB PUSH1 0x0 DUP4 ADD MSTORE PUSH2 0x29A1 DUP2 PUSH2 0x2965 JUMP JUMPDEST SWAP1 POP SWAP2 SWAP1 POP JUMP JUMPDEST PUSH1 0x0 PUSH2 0x29B3 DUP3 PUSH2 0x1C2B JUMP JUMPDEST SWAP2 POP PUSH2 0x29BE DUP4 PUSH2 0x1C2B JUMP JUMPDEST SWAP3 POP DUP3 DUP3 LT ISZERO PUSH2 0x29D1 JUMPI PUSH2 0x29D0 PUSH2 0x249E JUMP JUMPDEST JUMPDEST DUP3 DUP3 SUB SWAP1 POP SWAP3 SWAP2 POP POP JUMP JUMPDEST PUSH32 0x41756374696F6E206973207374696C6C20616374697665000000000000000000 PUSH1 0x0 DUP3 ADD MSTORE POP JUMP JUMPDEST PUSH1 0x0 PUSH2 0x2A12 PUSH1 0x17 DUP4 PUSH2 0x1CE9 JUMP JUMPDEST SWAP2 POP PUSH2 0x2A1D DUP3 PUSH2 0x29DC JUMP JUMPDEST PUSH1 0x20 DUP3 ADD SWAP1 POP SWAP2 SWAP1 POP JUMP JUMPDEST PUSH1 0x0 PUSH1 0x20 DUP3 ADD SWAP1 POP DUP2 DUP2 SUB PUSH1 0x0 DUP4 ADD MSTORE PUSH2 0x2A41 DUP2 PUSH2 0x2A05 JUMP JUMPDEST SWAP1 POP SWAP2 SWAP1 POP JUMP INVALID LOG2 PUSH5 0x6970667358 0x22 SLT KECCAK256 LOG4 RETURNDATASIZE SWAP12 0x2E 0xC4 0xC2 SGT PUSH30 0x6277E35480FE84637CB2D0BE1C0D4A57C71AB393B663F24364736F6C6343 STOP ADDMOD 0xF STOP CALLER "
				},
				"gasEstimates": {
					"creation": {
						"codeDepositCost": "2175600",
						"executionCost": "46528",
						"totalCost": "2222128"
					},
					"external": {
						"auctions(uint256)": "infinite",
						"cancelAuction(uint256)": "infinite",
						"createAuction(string,string,uint256,uint256)": "infinite",
						"createOffer(uint256)": "infinite",
						"getAuctionOffers(uint256)": "infinite",
						"getAuctions()": "infinite",
						"getUserAuctions(address)": "infinite",
						"getUserOffers(address)": "infinite",
						"offers(uint256)": "infinite",
						"trade(uint256)": "infinite"
					}
				},
				"methodIdentifiers": {
					"auctions(uint256)": "571a26a0",
					"cancelAuction(uint256)": "96b5a755",
					"createAuction(string,string,uint256,uint256)": "61e2db55",
					"createOffer(uint256)": "a269993d",
					"getAuctionOffers(uint256)": "c43ede15",
					"getAuctions()": "d7c06919",
					"getUserAuctions(address)": "ff3ad0b4",
					"getUserOffers(address)": "661d2c2c",
					"offers(uint256)": "8a72ea6a",
					"trade(uint256)": "df1dd826"
				}
			},
			"storageLayout": {
				"storage": [
					{
						"astId": 26,
						"contract": "contracts/Ebay.sol:Ebay",
						"label": "auctions",
						"offset": 0,
						"slot": "0",
						"type": "t_mapping(t_uint256,t_struct(Auction)20_storage)"
					},
					{
						"astId": 30,
						"contract": "contracts/Ebay.sol:Ebay",
						"label": "nextAuctionId",
						"offset": 0,
						"slot": "1",
						"type": "t_uint256"
					},
					{
						"astId": 45,
						"contract": "contracts/Ebay.sol:Ebay",
						"label": "offers",
						"offset": 0,
						"slot": "2",
						"type": "t_mapping(t_uint256,t_struct(Offer)39_storage)"
					},
					{
						"astId": 49,
						"contract": "contracts/Ebay.sol:Ebay",
						"label": "nextOfferId",
						"offset": 0,
						"slot": "3",
						"type": "t_uint256"
					},
					{
						"astId": 55,
						"contract": "contracts/Ebay.sol:Ebay",
						"label": "userAuctions",
						"offset": 0,
						"slot": "4",
						"type": "t_mapping(t_address,t_array(t_uint256)dyn_storage)"
					},
					{
						"astId": 61,
						"contract": "contracts/Ebay.sol:Ebay",
						"label": "userOffers",
						"offset": 0,
						"slot": "5",
						"type": "t_mapping(t_address,t_array(t_uint256)dyn_storage)"
					}
				],
				"types": {
					"t_address": {
						"encoding": "inplace",
						"label": "address",
						"numberOfBytes": "20"
					},
					"t_array(t_uint256)dyn_storage": {
						"base": "t_uint256",
						"encoding": "dynamic_array",
						"label": "uint256[]",
						"numberOfBytes": "32"
					},
					"t_mapping(t_address,t_array(t_uint256)dyn_storage)": {
						"encoding": "mapping",
						"key": "t_address",
						"label": "mapping(address => uint256[])",
						"numberOfBytes": "32",
						"value": "t_array(t_uint256)dyn_storage"
					},
					"t_mapping(t_uint256,t_struct(Auction)20_storage)": {
						"encoding": "mapping",
						"key": "t_uint256",
						"label": "mapping(uint256 => struct Ebay.Auction)",
						"numberOfBytes": "32",
						"value": "t_struct(Auction)20_storage"
					},
					"t_mapping(t_uint256,t_struct(Offer)39_storage)": {
						"encoding": "mapping",
						"key": "t_uint256",
						"label": "mapping(uint256 => struct Ebay.Offer)",
						"numberOfBytes": "32",
						"value": "t_struct(Offer)39_storage"
					},
					"t_string_storage": {
						"encoding": "bytes",
						"label": "string",
						"numberOfBytes": "32"
					},
					"t_struct(Auction)20_storage": {
						"encoding": "inplace",
						"label": "struct Ebay.Auction",
						"members": [
							{
								"astId": 4,
								"contract": "contracts/Ebay.sol:Ebay",
								"label": "id",
								"offset": 0,
								"slot": "0",
								"type": "t_uint256"
							},
							{
								"astId": 6,
								"contract": "contracts/Ebay.sol:Ebay",
								"label": "seller",
								"offset": 0,
								"slot": "1",
								"type": "t_address"
							},
							{
								"astId": 8,
								"contract": "contracts/Ebay.sol:Ebay",
								"label": "name",
								"offset": 0,
								"slot": "2",
								"type": "t_string_storage"
							},
							{
								"astId": 10,
								"contract": "contracts/Ebay.sol:Ebay",
								"label": "description",
								"offset": 0,
								"slot": "3",
								"type": "t_string_storage"
							},
							{
								"astId": 12,
								"contract": "contracts/Ebay.sol:Ebay",
								"label": "minimumOfferPrice",
								"offset": 0,
								"slot": "4",
								"type": "t_uint256"
							},
							{
								"astId": 14,
								"contract": "contracts/Ebay.sol:Ebay",
								"label": "auctionEnd",
								"offset": 0,
								"slot": "5",
								"type": "t_uint256"
							},
							{
								"astId": 16,
								"contract": "contracts/Ebay.sol:Ebay",
								"label": "bestOfferId",
								"offset": 0,
								"slot": "6",
								"type": "t_uint256"
							},
							{
								"astId": 19,
								"contract": "contracts/Ebay.sol:Ebay",
								"label": "offerIds",
								"offset": 0,
								"slot": "7",
								"type": "t_array(t_uint256)dyn_storage"
							}
						],
						"numberOfBytes": "256"
					},
					"t_struct(Offer)39_storage": {
						"encoding": "inplace",
						"label": "struct Ebay.Offer",
						"members": [
							{
								"astId": 32,
								"contract": "contracts/Ebay.sol:Ebay",
								"label": "id",
								"offset": 0,
								"slot": "0",
								"type": "t_uint256"
							},
							{
								"astId": 34,
								"contract": "contracts/Ebay.sol:Ebay",
								"label": "auctionId",
								"offset": 0,
								"slot": "1",
								"type": "t_uint256"
							},
							{
								"astId": 36,
								"contract": "contracts/Ebay.sol:Ebay",
								"label": "buyer",
								"offset": 0,
								"slot": "2",
								"type": "t_address"
							},
							{
								"astId": 38,
								"contract": "contracts/Ebay.sol:Ebay",
								"label": "offerPrice",
								"offset": 0,
								"slot": "3",
								"type": "t_uint256"
							}
						],
						"numberOfBytes": "128"
					},
					"t_uint256": {
						"encoding": "inplace",
						"label": "uint256",
						"numberOfBytes": "32"
					}
				}
			},
			"userdoc": {
				"kind": "user",
				"methods": {
					"auctions(uint256)": {
						"notice": "List of all auctions"
					},
					"cancelAuction(uint256)": {
						"notice": "PUI: Cancels an auction."
					},
					"createAuction(string,string,uint256,uint256)": {
						"notice": "Creates a new auction."
					},
					"createOffer(uint256)": {
						"notice": "Creates a new offer for an auction."
					},
					"getAuctionOffers(uint256)": {
						"notice": "- List of offers for an auction"
					},
					"getAuctions()": {
						"notice": "- List of all the auctions"
					},
					"getUserAuctions(address)": {
						"notice": "- List of auctions for a seller"
					},
					"getUserOffers(address)": {
						"notice": "- List of offers from a buyer"
					},
					"offers(uint256)": {
						"notice": "List of all Offer"
					},
					"trade(uint256)": {
						"notice": "Executes the auction trade."
					}
				},
				"notice": "Smart contract for auction based market place.",
				"version": 1
			}
		}
	}
}