{
	"contracts/Hairdressing.sol": {
		"Hairdressing": {
			"abi": [
				{
					"inputs": [
						{
							"internalType": "uint256",
							"name": "",
							"type": "uint256"
						}
					],
					"name": "auctions",
					"outputs": [
						{
							"internalType": "uint256",
							"name": "id",
							"type": "uint256"
						},
						{
							"internalType": "address",
							"name": "seller",
							"type": "address"
						},
						{
							"internalType": "string",
							"name": "name",
							"type": "string"
						},
						{
							"internalType": "string",
							"name": "description",
							"type": "string"
						},
						{
							"internalType": "uint256",
							"name": "minimumOfferPrice",
							"type": "uint256"
						},
						{
							"internalType": "uint256",
							"name": "auctionEnd",
							"type": "uint256"
						},
						{
							"internalType": "uint256",
							"name": "bestOfferId",
							"type": "uint256"
						}
					],
					"stateMutability": "view",
					"type": "function"
				},
				{
					"inputs": [
						{
							"internalType": "uint256",
							"name": "_auctionId",
							"type": "uint256"
						}
					],
					"name": "cancelAuction",
					"outputs": [],
					"stateMutability": "nonpayable",
					"type": "function"
				},
				{
					"inputs": [
						{
							"internalType": "string",
							"name": "_name",
							"type": "string"
						},
						{
							"internalType": "string",
							"name": "_description",
							"type": "string"
						},
						{
							"internalType": "uint256",
							"name": "_minimumOfferPrice",
							"type": "uint256"
						},
						{
							"internalType": "uint256",
							"name": "_duration",
							"type": "uint256"
						}
					],
					"name": "createAuction",
					"outputs": [],
					"stateMutability": "nonpayable",
					"type": "function"
				},
				{
					"inputs": [
						{
							"internalType": "uint256",
							"name": "_auctionId",
							"type": "uint256"
						}
					],
					"name": "createOffer",
					"outputs": [],
					"stateMutability": "payable",
					"type": "function"
				},
				{
					"inputs": [
						{
							"internalType": "uint256",
							"name": "_auctionId",
							"type": "uint256"
						}
					],
					"name": "getAuctionOffers",
					"outputs": [
						{
							"components": [
								{
									"internalType": "uint256",
									"name": "id",
									"type": "uint256"
								},
								{
									"internalType": "uint256",
									"name": "auctionId",
									"type": "uint256"
								},
								{
									"internalType": "address",
									"name": "buyer",
									"type": "address"
								},
								{
									"internalType": "uint256",
									"name": "offerPrice",
									"type": "uint256"
								}
							],
							"internalType": "struct Hairdressing.Offer[]",
							"name": "",
							"type": "tuple[]"
						}
					],
					"stateMutability": "view",
					"type": "function"
				},
				{
					"inputs": [],
					"name": "getAuctions",
					"outputs": [
						{
							"components": [
								{
									"internalType": "uint256",
									"name": "id",
									"type": "uint256"
								},
								{
									"internalType": "address",
									"name": "seller",
									"type": "address"
								},
								{
									"internalType": "string",
									"name": "name",
									"type": "string"
								},
								{
									"internalType": "string",
									"name": "description",
									"type": "string"
								},
								{
									"internalType": "uint256",
									"name": "minimumOfferPrice",
									"type": "uint256"
								},
								{
									"internalType": "uint256",
									"name": "auctionEnd",
									"type": "uint256"
								},
								{
									"internalType": "uint256",
									"name": "bestOfferId",
									"type": "uint256"
								},
								{
									"internalType": "uint256[]",
									"name": "offerIds",
									"type": "uint256[]"
								}
							],
							"internalType": "struct Hairdressing.Auction[]",
							"name": "",
							"type": "tuple[]"
						}
					],
					"stateMutability": "view",
					"type": "function"
				},
				{
					"inputs": [
						{
							"internalType": "address",
							"name": "_user",
							"type": "address"
						}
					],
					"name": "getUserAuctions",
					"outputs": [
						{
							"components": [
								{
									"internalType": "uint256",
									"name": "id",
									"type": "uint256"
								},
								{
									"internalType": "address",
									"name": "seller",
									"type": "address"
								},
								{
									"internalType": "string",
									"name": "name",
									"type": "string"
								},
								{
									"internalType": "string",
									"name": "description",
									"type": "string"
								},
								{
									"internalType": "uint256",
									"name": "minimumOfferPrice",
									"type": "uint256"
								},
								{
									"internalType": "uint256",
									"name": "auctionEnd",
									"type": "uint256"
								},
								{
									"internalType": "uint256",
									"name": "bestOfferId",
									"type": "uint256"
								},
								{
									"internalType": "uint256[]",
									"name": "offerIds",
									"type": "uint256[]"
								}
							],
							"internalType": "struct Hairdressing.Auction[]",
							"name": "",
							"type": "tuple[]"
						}
					],
					"stateMutability": "view",
					"type": "function"
				},
				{
					"inputs": [
						{
							"internalType": "address",
							"name": "_user",
							"type": "address"
						}
					],
					"name": "getUserOffers",
					"outputs": [
						{
							"components": [
								{
									"internalType": "uint256",
									"name": "id",
									"type": "uint256"
								},
								{
									"internalType": "uint256",
									"name": "auctionId",
									"type": "uint256"
								},
								{
									"internalType": "address",
									"name": "buyer",
									"type": "address"
								},
								{
									"internalType": "uint256",
									"name": "offerPrice",
									"type": "uint256"
								}
							],
							"internalType": "struct Hairdressing.Offer[]",
							"name": "",
							"type": "tuple[]"
						}
					],
					"stateMutability": "view",
					"type": "function"
				},
				{
					"inputs": [
						{
							"internalType": "uint256",
							"name": "",
							"type": "uint256"
						}
					],
					"name": "offers",
					"outputs": [
						{
							"internalType": "uint256",
							"name": "id",
							"type": "uint256"
						},
						{
							"internalType": "uint256",
							"name": "auctionId",
							"type": "uint256"
						},
						{
							"internalType": "address",
							"name": "buyer",
							"type": "address"
						},
						{
							"internalType": "uint256",
							"name": "offerPrice",
							"type": "uint256"
						}
					],
					"stateMutability": "view",
					"type": "function"
				},
				{
					"inputs": [
						{
							"internalType": "uint256",
							"name": "_auctionId",
							"type": "uint256"
						}
					],
					"name": "trade",
					"outputs": [],
					"stateMutability": "nonpayable",
					"type": "function"
				}
			],
			"devdoc": {
				"kind": "dev",
				"methods": {
					"cancelAuction(uint256)": {
						"params": {
							"_auctionId": "- id of the auction"
						}
					},
					"createAuction(string,string,uint256,uint256)": {
						"params": {
							"_description": "— auction description.",
							"_duration": "— the duration, in seconds, for which the auction will accept offers.",
							"_minimumOfferPrice": "— the minimum offer price this auction will accept.",
							"_name": "— name of the auction."
						}
					},
					"createOffer(uint256)": {
						"params": {
							"_auctionId": "- id of the auction"
						}
					},
					"getAuctionOffers(uint256)": {
						"params": {
							"_auctionId": "- Auction Id"
						}
					},
					"getUserAuctions(address)": {
						"params": {
							"_user": "- Seller address"
						}
					},
					"getUserOffers(address)": {
						"params": {
							"_user": "- Buyer address"
						}
					},
					"trade(uint256)": {
						"params": {
							"_auctionId": "- id of the auction."
						}
					}
				},
				"title": "Hairdressing",
				"version": 1
			},
			"evm": {
				"assembly": "    /* \"contracts/Hairdressing.sol\":145:9375  contract Hairdressing {... */\n  mstore(0x40, 0x80)\n    /* \"contracts/Hairdressing.sol\":817:818  1 */\n  0x01\n    /* \"contracts/Hairdressing.sol\":788:818  uint private nextAuctionId = 1 */\n  dup1\n  sstore\n    /* \"contracts/Hairdressing.sol\":1110:1111  1 */\n  0x01\n    /* \"contracts/Hairdressing.sol\":1083:1111  uint private nextOfferId = 1 */\n  0x03\n  sstore\n    /* \"contracts/Hairdressing.sol\":145:9375  contract Hairdressing {... */\n  callvalue\n  dup1\n  iszero\n  tag_1\n  jumpi\n  0x00\n  dup1\n  revert\ntag_1:\n  pop\n  dataSize(sub_0)\n  dup1\n  dataOffset(sub_0)\n  0x00\n  codecopy\n  0x00\n  return\nstop\n\nsub_0: assembly {\n        /* \"contracts/Hairdressing.sol\":145:9375  contract Hairdressing {... */\n      mstore(0x40, 0x80)\n      jumpi(tag_1, lt(calldatasize, 0x04))\n      shr(0xe0, calldataload(0x00))\n      dup1\n      0xa269993d\n      gt\n      tag_12\n      jumpi\n      dup1\n      0xa269993d\n      eq\n      tag_7\n      jumpi\n      dup1\n      0xc43ede15\n      eq\n      tag_8\n      jumpi\n      dup1\n      0xd7c06919\n      eq\n      tag_9\n      jumpi\n      dup1\n      0xdf1dd826\n      eq\n      tag_10\n      jumpi\n      dup1\n      0xff3ad0b4\n      eq\n      tag_11\n      jumpi\n      jump(tag_1)\n    tag_12:\n      dup1\n      0x571a26a0\n      eq\n      tag_2\n      jumpi\n      dup1\n      0x61e2db55\n      eq\n      tag_3\n      jumpi\n      dup1\n      0x661d2c2c\n      eq\n      tag_4\n      jumpi\n      dup1\n      0x8a72ea6a\n      eq\n      tag_5\n      jumpi\n      dup1\n      0x96b5a755\n      eq\n      tag_6\n      jumpi\n    tag_1:\n      0x00\n      dup1\n      revert\n        /* \"contracts/Hairdressing.sol\":702:742  mapping(uint => Auction) public auctions */\n    tag_2:\n      callvalue\n      dup1\n      iszero\n      tag_13\n      jumpi\n      0x00\n      dup1\n      revert\n    tag_13:\n      pop\n      tag_14\n      0x04\n      dup1\n      calldatasize\n      sub\n      dup2\n      add\n      swap1\n      tag_15\n      swap2\n      swap1\n      tag_16\n      jump\t// in\n    tag_15:\n      tag_17\n      jump\t// in\n    tag_14:\n      mload(0x40)\n      tag_18\n      swap8\n      swap7\n      swap6\n      swap5\n      swap4\n      swap3\n      swap2\n      swap1\n      tag_19\n      jump\t// in\n    tag_18:\n      mload(0x40)\n      dup1\n      swap2\n      sub\n      swap1\n      return\n        /* \"contracts/Hairdressing.sol\":2006:3081  function createAuction(... */\n    tag_3:\n      callvalue\n      dup1\n      iszero\n      tag_20\n      jumpi\n      0x00\n      dup1\n      revert\n    tag_20:\n      pop\n      tag_21\n      0x04\n      dup1\n      calldatasize\n      sub\n      dup2\n      add\n      swap1\n      tag_22\n      swap2\n      swap1\n      tag_23\n      jump\t// in\n    tag_22:\n      tag_24\n      jump\t// in\n    tag_21:\n      stop\n        /* \"contracts/Hairdressing.sol\":8315:8728  function getUserOffers(address _user)... */\n    tag_4:\n      callvalue\n      dup1\n      iszero\n      tag_25\n      jumpi\n      0x00\n      dup1\n      revert\n    tag_25:\n      pop\n      tag_26\n      0x04\n      dup1\n      calldatasize\n      sub\n      dup2\n      add\n      swap1\n      tag_27\n      swap2\n      swap1\n      tag_28\n      jump\t// in\n    tag_27:\n      tag_29\n      jump\t// in\n    tag_26:\n      mload(0x40)\n      tag_30\n      swap2\n      swap1\n      tag_31\n      jump\t// in\n    tag_30:\n      mload(0x40)\n      dup1\n      swap2\n      sub\n      swap1\n      return\n        /* \"contracts/Hairdressing.sol\":1003:1039  mapping(uint => Offer) public offers */\n    tag_5:\n      callvalue\n      dup1\n      iszero\n      tag_32\n      jumpi\n      0x00\n      dup1\n      revert\n    tag_32:\n      pop\n      tag_33\n      0x04\n      dup1\n      calldatasize\n      sub\n      dup2\n      add\n      swap1\n      tag_34\n      swap2\n      swap1\n      tag_16\n      jump\t// in\n    tag_34:\n      tag_35\n      jump\t// in\n    tag_33:\n      mload(0x40)\n      tag_36\n      swap5\n      swap4\n      swap3\n      swap2\n      swap1\n      tag_37\n      jump\t// in\n    tag_36:\n      mload(0x40)\n      dup1\n      swap2\n      sub\n      swap1\n      return\n        /* \"contracts/Hairdressing.sol\":3174:4381  function cancelAuction(uint _auctionId) external auctionExists(_auctionId) {... */\n    tag_6:\n      callvalue\n      dup1\n      iszero\n      tag_38\n      jumpi\n      0x00\n      dup1\n      revert\n    tag_38:\n      pop\n      tag_39\n      0x04\n      dup1\n      calldatasize\n      sub\n      dup2\n      add\n      swap1\n      tag_40\n      swap2\n      swap1\n      tag_16\n      jump\t// in\n    tag_40:\n      tag_41\n      jump\t// in\n    tag_39:\n      stop\n        /* \"contracts/Hairdressing.sol\":4485:6263  function createOffer(uint _auctionId)... */\n    tag_7:\n      tag_42\n      0x04\n      dup1\n      calldatasize\n      sub\n      dup2\n      add\n      swap1\n      tag_43\n      swap2\n      swap1\n      tag_16\n      jump\t// in\n    tag_43:\n      tag_44\n      jump\t// in\n    tag_42:\n      stop\n        /* \"contracts/Hairdressing.sol\":8821:9373  function getAuctionOffers(uint _auctionId)... */\n    tag_8:\n      callvalue\n      dup1\n      iszero\n      tag_45\n      jumpi\n      0x00\n      dup1\n      revert\n    tag_45:\n      pop\n      tag_46\n      0x04\n      dup1\n      calldatasize\n      sub\n      dup2\n      add\n      swap1\n      tag_47\n      swap2\n      swap1\n      tag_16\n      jump\t// in\n    tag_47:\n      tag_48\n      jump\t// in\n    tag_46:\n      mload(0x40)\n      tag_49\n      swap2\n      swap1\n      tag_31\n      jump\t// in\n    tag_49:\n      mload(0x40)\n      dup1\n      swap2\n      sub\n      swap1\n      return\n        /* \"contracts/Hairdressing.sol\":7418:7691  function getAuctions() external view returns (Auction[] memory) {... */\n    tag_9:\n      callvalue\n      dup1\n      iszero\n      tag_50\n      jumpi\n      0x00\n      dup1\n      revert\n    tag_50:\n      pop\n      tag_51\n      tag_52\n      jump\t// in\n    tag_51:\n      mload(0x40)\n      tag_53\n      swap2\n      swap1\n      tag_54\n      jump\t// in\n    tag_53:\n      mload(0x40)\n      dup1\n      swap2\n      sub\n      swap1\n      return\n        /* \"contracts/Hairdressing.sol\":6360:7317  function trade(uint _auctionId) external auctionExists(_auctionId) {... */\n    tag_10:\n      callvalue\n      dup1\n      iszero\n      tag_55\n      jumpi\n      0x00\n      dup1\n      revert\n    tag_55:\n      pop\n      tag_56\n      0x04\n      dup1\n      calldatasize\n      sub\n      dup2\n      add\n      swap1\n      tag_57\n      swap2\n      swap1\n      tag_16\n      jump\t// in\n    tag_57:\n      tag_58\n      jump\t// in\n    tag_56:\n      stop\n        /* \"contracts/Hairdressing.sol\":7783:8226  function getUserAuctions(address _user)... */\n    tag_11:\n      callvalue\n      dup1\n      iszero\n      tag_59\n      jumpi\n      0x00\n      dup1\n      revert\n    tag_59:\n      pop\n      tag_60\n      0x04\n      dup1\n      calldatasize\n      sub\n      dup2\n      add\n      swap1\n      tag_61\n      swap2\n      swap1\n      tag_28\n      jump\t// in\n    tag_61:\n      tag_62\n      jump\t// in\n    tag_60:\n      mload(0x40)\n      tag_63\n      swap2\n      swap1\n      tag_54\n      jump\t// in\n    tag_63:\n      mload(0x40)\n      dup1\n      swap2\n      sub\n      swap1\n      return\n        /* \"contracts/Hairdressing.sol\":702:742  mapping(uint => Auction) public auctions */\n    tag_17:\n      mstore(0x20, 0x00)\n      dup1\n      0x00\n      mstore\n      keccak256(0x00, 0x40)\n      0x00\n      swap2\n      pop\n      swap1\n      pop\n      dup1\n      0x00\n      add\n      sload\n      swap1\n      dup1\n      0x01\n      add\n      0x00\n      swap1\n      sload\n      swap1\n      0x0100\n      exp\n      swap1\n      div\n      0xffffffffffffffffffffffffffffffffffffffff\n      and\n      swap1\n      dup1\n      0x02\n      add\n      dup1\n      sload\n      tag_64\n      swap1\n      tag_65\n      jump\t// in\n    tag_64:\n      dup1\n      0x1f\n      add\n      0x20\n      dup1\n      swap2\n      div\n      mul\n      0x20\n      add\n      mload(0x40)\n      swap1\n      dup2\n      add\n      0x40\n      mstore\n      dup1\n      swap3\n      swap2\n      swap1\n      dup2\n      dup2\n      mstore\n      0x20\n      add\n      dup3\n      dup1\n      sload\n      tag_66\n      swap1\n      tag_65\n      jump\t// in\n    tag_66:\n      dup1\n      iszero\n      tag_67\n      jumpi\n      dup1\n      0x1f\n      lt\n      tag_68\n      jumpi\n      0x0100\n      dup1\n      dup4\n      sload\n      div\n      mul\n      dup4\n      mstore\n      swap2\n      0x20\n      add\n      swap2\n      jump(tag_67)\n    tag_68:\n      dup3\n      add\n      swap2\n      swap1\n      0x00\n      mstore\n      keccak256(0x00, 0x20)\n      swap1\n    tag_69:\n      dup2\n      sload\n      dup2\n      mstore\n      swap1\n      0x01\n      add\n      swap1\n      0x20\n      add\n      dup1\n      dup4\n      gt\n      tag_69\n      jumpi\n      dup3\n      swap1\n      sub\n      0x1f\n      and\n      dup3\n      add\n      swap2\n    tag_67:\n      pop\n      pop\n      pop\n      pop\n      pop\n      swap1\n      dup1\n      0x03\n      add\n      dup1\n      sload\n      tag_70\n      swap1\n      tag_65\n      jump\t// in\n    tag_70:\n      dup1\n      0x1f\n      add\n      0x20\n      dup1\n      swap2\n      div\n      mul\n      0x20\n      add\n      mload(0x40)\n      swap1\n      dup2\n      add\n      0x40\n      mstore\n      dup1\n      swap3\n      swap2\n      swap1\n      dup2\n      dup2\n      mstore\n      0x20\n      add\n      dup3\n      dup1\n      sload\n      tag_71\n      swap1\n      tag_65\n      jump\t// in\n    tag_71:\n      dup1\n      iszero\n      tag_72\n      jumpi\n      dup1\n      0x1f\n      lt\n      tag_73\n      jumpi\n      0x0100\n      dup1\n      dup4\n      sload\n      div\n      mul\n      dup4\n      mstore\n      swap2\n      0x20\n      add\n      swap2\n      jump(tag_72)\n    tag_73:\n      dup3\n      add\n      swap2\n      swap1\n      0x00\n      mstore\n      keccak256(0x00, 0x20)\n      swap1\n    tag_74:\n      dup2\n      sload\n      dup2\n      mstore\n      swap1\n      0x01\n      add\n      swap1\n      0x20\n      add\n      dup1\n      dup4\n      gt\n      tag_74\n      jumpi\n      dup3\n      swap1\n      sub\n      0x1f\n      and\n      dup3\n      add\n      swap2\n    tag_72:\n      pop\n      pop\n      pop\n      pop\n      pop\n      swap1\n      dup1\n      0x04\n      add\n      sload\n      swap1\n      dup1\n      0x05\n      add\n      sload\n      swap1\n      dup1\n      0x06\n      add\n      sload\n      swap1\n      pop\n      dup8\n      jump\t// out\n        /* \"contracts/Hairdressing.sol\":2006:3081  function createAuction(... */\n    tag_24:\n        /* \"contracts/Hairdressing.sol\":2278:2279  0 */\n      0x00\n        /* \"contracts/Hairdressing.sol\":2257:2275  _minimumOfferPrice */\n      dup3\n        /* \"contracts/Hairdressing.sol\":2257:2279  _minimumOfferPrice > 0 */\n      gt\n        /* \"contracts/Hairdressing.sol\":2236:2396  require(... */\n      tag_76\n      jumpi\n      mload(0x40)\n      0x08c379a000000000000000000000000000000000000000000000000000000000\n      dup2\n      mstore\n      0x04\n      add\n      tag_77\n      swap1\n      tag_78\n      jump\t// in\n    tag_77:\n      mload(0x40)\n      dup1\n      swap2\n      sub\n      swap1\n      revert\n    tag_76:\n        /* \"contracts/Hairdressing.sol\":2602:2624  uint[] memory offerIds */\n      0x00\n        /* \"contracts/Hairdressing.sol\":2638:2639  0 */\n      dup1\n        /* \"contracts/Hairdressing.sol\":2627:2640  new uint[](0) */\n      0xffffffffffffffff\n      dup2\n      gt\n      iszero\n      tag_79\n      jumpi\n      tag_80\n      tag_81\n      jump\t// in\n    tag_80:\n    tag_79:\n      mload(0x40)\n      swap1\n      dup1\n      dup3\n      mstore\n      dup1\n      0x20\n      mul\n      0x20\n      add\n      dup3\n      add\n      0x40\n      mstore\n      dup1\n      iszero\n      tag_82\n      jumpi\n      dup2\n      0x20\n      add\n      0x20\n      dup3\n      mul\n      dup1\n      calldatasize\n      dup4\n      calldatacopy\n      dup1\n      dup3\n      add\n      swap2\n      pop\n      pop\n      swap1\n      pop\n    tag_82:\n      pop\n        /* \"contracts/Hairdressing.sol\":2602:2640  uint[] memory offerIds = new uint[](0) */\n      swap1\n      pop\n        /* \"contracts/Hairdressing.sol\":2677:2900  Auction(... */\n      mload(0x40)\n      dup1\n      0x0100\n      add\n      0x40\n      mstore\n      dup1\n        /* \"contracts/Hairdressing.sol\":2698:2711  nextAuctionId */\n      sload(0x01)\n        /* \"contracts/Hairdressing.sol\":2677:2900  Auction(... */\n      dup2\n      mstore\n      0x20\n      add\n        /* \"contracts/Hairdressing.sol\":2725:2735  msg.sender */\n      caller\n        /* \"contracts/Hairdressing.sol\":2677:2900  Auction(... */\n      0xffffffffffffffffffffffffffffffffffffffff\n      and\n      dup2\n      mstore\n      0x20\n      add\n        /* \"contracts/Hairdressing.sol\":2749:2754  _name */\n      dup9\n      dup9\n        /* \"contracts/Hairdressing.sol\":2677:2900  Auction(... */\n      dup1\n      dup1\n      0x1f\n      add\n      0x20\n      dup1\n      swap2\n      div\n      mul\n      0x20\n      add\n      mload(0x40)\n      swap1\n      dup2\n      add\n      0x40\n      mstore\n      dup1\n      swap4\n      swap3\n      swap2\n      swap1\n      dup2\n      dup2\n      mstore\n      0x20\n      add\n      dup4\n      dup4\n      dup1\n      dup3\n      dup5\n      calldatacopy\n      0x00\n      dup2\n      dup5\n      add\n      mstore\n      not(0x1f)\n      0x1f\n      dup3\n      add\n      and\n      swap1\n      pop\n      dup1\n      dup4\n      add\n      swap3\n      pop\n      pop\n      pop\n      pop\n      pop\n      pop\n      pop\n      dup2\n      mstore\n      0x20\n      add\n        /* \"contracts/Hairdressing.sol\":2768:2780  _description */\n      dup7\n      dup7\n        /* \"contracts/Hairdressing.sol\":2677:2900  Auction(... */\n      dup1\n      dup1\n      0x1f\n      add\n      0x20\n      dup1\n      swap2\n      div\n      mul\n      0x20\n      add\n      mload(0x40)\n      swap1\n      dup2\n      add\n      0x40\n      mstore\n      dup1\n      swap4\n      swap3\n      swap2\n      swap1\n      dup2\n      dup2\n      mstore\n      0x20\n      add\n      dup4\n      dup4\n      dup1\n      dup3\n      dup5\n      calldatacopy\n      0x00\n      dup2\n      dup5\n      add\n      mstore\n      not(0x1f)\n      0x1f\n      dup3\n      add\n      and\n      swap1\n      pop\n      dup1\n      dup4\n      add\n      swap3\n      pop\n      pop\n      pop\n      pop\n      pop\n      pop\n      pop\n      dup2\n      mstore\n      0x20\n      add\n        /* \"contracts/Hairdressing.sol\":2794:2812  _minimumOfferPrice */\n      dup5\n        /* \"contracts/Hairdressing.sol\":2677:2900  Auction(... */\n      dup2\n      mstore\n      0x20\n      add\n        /* \"contracts/Hairdressing.sol\":2844:2853  _duration */\n      dup4\n        /* \"contracts/Hairdressing.sol\":2826:2841  block.timestamp */\n      timestamp\n        /* \"contracts/Hairdressing.sol\":2826:2853  block.timestamp + _duration */\n      tag_83\n      swap2\n      swap1\n      tag_84\n      jump\t// in\n    tag_83:\n        /* \"contracts/Hairdressing.sol\":2677:2900  Auction(... */\n      dup2\n      mstore\n      0x20\n      add\n        /* \"contracts/Hairdressing.sol\":2867:2868  0 */\n      0x00\n        /* \"contracts/Hairdressing.sol\":2677:2900  Auction(... */\n      dup2\n      mstore\n      0x20\n      add\n        /* \"contracts/Hairdressing.sol\":2882:2890  offerIds */\n      dup3\n        /* \"contracts/Hairdressing.sol\":2677:2900  Auction(... */\n      dup2\n      mstore\n      pop\n        /* \"contracts/Hairdressing.sol\":2651:2659  auctions */\n      0x00\n        /* \"contracts/Hairdressing.sol\":2651:2674  auctions[nextAuctionId] */\n      dup1\n        /* \"contracts/Hairdressing.sol\":2660:2673  nextAuctionId */\n      sload(0x01)\n        /* \"contracts/Hairdressing.sol\":2651:2674  auctions[nextAuctionId] */\n      dup2\n      mstore\n      0x20\n      add\n      swap1\n      dup2\n      mstore\n      0x20\n      add\n      0x00\n      keccak256\n        /* \"contracts/Hairdressing.sol\":2651:2900  auctions[nextAuctionId] = Auction(... */\n      0x00\n      dup3\n      add\n      mload\n      dup2\n      0x00\n      add\n      sstore\n      0x20\n      dup3\n      add\n      mload\n      dup2\n      0x01\n      add\n      exp(0x0100, 0x00)\n      dup2\n      sload\n      dup2\n      0xffffffffffffffffffffffffffffffffffffffff\n      mul\n      not\n      and\n      swap1\n      dup4\n      0xffffffffffffffffffffffffffffffffffffffff\n      and\n      mul\n      or\n      swap1\n      sstore\n      pop\n      0x40\n      dup3\n      add\n      mload\n      dup2\n      0x02\n      add\n      swap1\n      dup2\n      tag_85\n      swap2\n      swap1\n      tag_86\n      jump\t// in\n    tag_85:\n      pop\n      0x60\n      dup3\n      add\n      mload\n      dup2\n      0x03\n      add\n      swap1\n      dup2\n      tag_87\n      swap2\n      swap1\n      tag_86\n      jump\t// in\n    tag_87:\n      pop\n      0x80\n      dup3\n      add\n      mload\n      dup2\n      0x04\n      add\n      sstore\n      0xa0\n      dup3\n      add\n      mload\n      dup2\n      0x05\n      add\n      sstore\n      0xc0\n      dup3\n      add\n      mload\n      dup2\n      0x06\n      add\n      sstore\n      0xe0\n      dup3\n      add\n      mload\n      dup2\n      0x07\n      add\n      swap1\n      dup1\n      mload\n      swap1\n      0x20\n      add\n      swap1\n      tag_88\n      swap3\n      swap2\n      swap1\n      tag_89\n      jump\t// in\n    tag_88:\n      pop\n      swap1\n      pop\n      pop\n        /* \"contracts/Hairdressing.sol\":2963:2975  userAuctions */\n      0x04\n        /* \"contracts/Hairdressing.sol\":2963:2987  userAuctions[msg.sender] */\n      0x00\n        /* \"contracts/Hairdressing.sol\":2976:2986  msg.sender */\n      caller\n        /* \"contracts/Hairdressing.sol\":2963:2987  userAuctions[msg.sender] */\n      0xffffffffffffffffffffffffffffffffffffffff\n      and\n      0xffffffffffffffffffffffffffffffffffffffff\n      and\n      dup2\n      mstore\n      0x20\n      add\n      swap1\n      dup2\n      mstore\n      0x20\n      add\n      0x00\n      keccak256\n        /* \"contracts/Hairdressing.sol\":2993:3006  nextAuctionId */\n      sload(0x01)\n        /* \"contracts/Hairdressing.sol\":2963:3007  userAuctions[msg.sender].push(nextAuctionId) */\n      swap1\n      dup1\n      0x01\n      dup2\n      sload\n      add\n      dup1\n      dup3\n      sstore\n      dup1\n      swap2\n      pop\n      pop\n      0x01\n      swap1\n      sub\n      swap1\n      0x00\n      mstore\n      keccak256(0x00, 0x20)\n      add\n      0x00\n      swap1\n      swap2\n      swap1\n      swap2\n      swap1\n      swap2\n      pop\n      sstore\n        /* \"contracts/Hairdressing.sol\":3059:3072  nextAuctionId */\n      0x01\n      0x00\n        /* \"contracts/Hairdressing.sol\":3059:3074  nextAuctionId++ */\n      dup2\n      sload\n      dup1\n      swap3\n      swap2\n      swap1\n      tag_91\n      swap1\n      tag_92\n      jump\t// in\n    tag_91:\n      swap2\n      swap1\n      pop\n      sstore\n      pop\n        /* \"contracts/Hairdressing.sol\":2170:3081  {... */\n      pop\n        /* \"contracts/Hairdressing.sol\":2006:3081  function createAuction(... */\n      pop\n      pop\n      pop\n      pop\n      pop\n      pop\n      jump\t// out\n        /* \"contracts/Hairdressing.sol\":8315:8728  function getUserOffers(address _user)... */\n    tag_29:\n        /* \"contracts/Hairdressing.sol\":8400:8414  Offer[] memory */\n      0x60\n        /* \"contracts/Hairdressing.sol\":8430:8457  uint[] storage userOfferIds */\n      0x00\n        /* \"contracts/Hairdressing.sol\":8460:8470  userOffers */\n      0x05\n        /* \"contracts/Hairdressing.sol\":8460:8477  userOffers[_user] */\n      0x00\n        /* \"contracts/Hairdressing.sol\":8471:8476  _user */\n      dup5\n        /* \"contracts/Hairdressing.sol\":8460:8477  userOffers[_user] */\n      0xffffffffffffffffffffffffffffffffffffffff\n      and\n      0xffffffffffffffffffffffffffffffffffffffff\n      and\n      dup2\n      mstore\n      0x20\n      add\n      swap1\n      dup2\n      mstore\n      0x20\n      add\n      0x00\n      keccak256\n        /* \"contracts/Hairdressing.sol\":8430:8477  uint[] storage userOfferIds = userOffers[_user] */\n      swap1\n      pop\n        /* \"contracts/Hairdressing.sol\":8487:8509  Offer[] memory _offers */\n      0x00\n        /* \"contracts/Hairdressing.sol\":8524:8536  userOfferIds */\n      dup2\n        /* \"contracts/Hairdressing.sol\":8524:8543  userOfferIds.length */\n      dup1\n      sload\n      swap1\n      pop\n        /* \"contracts/Hairdressing.sol\":8512:8544  new Offer[](userOfferIds.length) */\n      0xffffffffffffffff\n      dup2\n      gt\n      iszero\n      tag_94\n      jumpi\n      tag_95\n      tag_81\n      jump\t// in\n    tag_95:\n    tag_94:\n      mload(0x40)\n      swap1\n      dup1\n      dup3\n      mstore\n      dup1\n      0x20\n      mul\n      0x20\n      add\n      dup3\n      add\n      0x40\n      mstore\n      dup1\n      iszero\n      tag_96\n      jumpi\n      dup2\n      0x20\n      add\n    tag_97:\n      tag_98\n      tag_99\n      jump\t// in\n    tag_98:\n      dup2\n      mstore\n      0x20\n      add\n      swap1\n      0x01\n      swap1\n      sub\n      swap1\n      dup2\n      tag_97\n      jumpi\n      swap1\n      pop\n    tag_96:\n      pop\n        /* \"contracts/Hairdressing.sol\":8487:8544  Offer[] memory _offers = new Offer[](userOfferIds.length) */\n      swap1\n      pop\n        /* \"contracts/Hairdressing.sol\":8559:8565  uint i */\n      0x00\n        /* \"contracts/Hairdressing.sol\":8554:8698  for (uint i = 0; i < userOfferIds.length; i++) {... */\n    tag_100:\n        /* \"contracts/Hairdressing.sol\":8575:8587  userOfferIds */\n      dup3\n        /* \"contracts/Hairdressing.sol\":8575:8594  userOfferIds.length */\n      dup1\n      sload\n      swap1\n      pop\n        /* \"contracts/Hairdressing.sol\":8571:8572  i */\n      dup2\n        /* \"contracts/Hairdressing.sol\":8571:8594  i < userOfferIds.length */\n      lt\n        /* \"contracts/Hairdressing.sol\":8554:8698  for (uint i = 0; i < userOfferIds.length; i++) {... */\n      iszero\n      tag_101\n      jumpi\n        /* \"contracts/Hairdressing.sol\":8615:8627  uint offerId */\n      0x00\n        /* \"contracts/Hairdressing.sol\":8630:8642  userOfferIds */\n      dup4\n        /* \"contracts/Hairdressing.sol\":8643:8644  i */\n      dup3\n        /* \"contracts/Hairdressing.sol\":8630:8645  userOfferIds[i] */\n      dup2\n      sload\n      dup2\n      lt\n      tag_103\n      jumpi\n      tag_104\n      tag_105\n      jump\t// in\n    tag_104:\n    tag_103:\n      swap1\n      0x00\n      mstore\n      keccak256(0x00, 0x20)\n      add\n      sload\n        /* \"contracts/Hairdressing.sol\":8615:8645  uint offerId = userOfferIds[i] */\n      swap1\n      pop\n        /* \"contracts/Hairdressing.sol\":8672:8678  offers */\n      0x02\n        /* \"contracts/Hairdressing.sol\":8672:8687  offers[offerId] */\n      0x00\n        /* \"contracts/Hairdressing.sol\":8679:8686  offerId */\n      dup3\n        /* \"contracts/Hairdressing.sol\":8672:8687  offers[offerId] */\n      dup2\n      mstore\n      0x20\n      add\n      swap1\n      dup2\n      mstore\n      0x20\n      add\n      0x00\n      keccak256\n        /* \"contracts/Hairdressing.sol\":8659:8687  _offers[i] = offers[offerId] */\n      mload(0x40)\n      dup1\n      0x80\n      add\n      0x40\n      mstore\n      swap1\n      dup2\n      0x00\n      dup3\n      add\n      sload\n      dup2\n      mstore\n      0x20\n      add\n      0x01\n      dup3\n      add\n      sload\n      dup2\n      mstore\n      0x20\n      add\n      0x02\n      dup3\n      add\n      0x00\n      swap1\n      sload\n      swap1\n      0x0100\n      exp\n      swap1\n      div\n      0xffffffffffffffffffffffffffffffffffffffff\n      and\n      0xffffffffffffffffffffffffffffffffffffffff\n      and\n      0xffffffffffffffffffffffffffffffffffffffff\n      and\n      dup2\n      mstore\n      0x20\n      add\n      0x03\n      dup3\n      add\n      sload\n      dup2\n      mstore\n      pop\n      pop\n        /* \"contracts/Hairdressing.sol\":8659:8666  _offers */\n      dup4\n        /* \"contracts/Hairdressing.sol\":8667:8668  i */\n      dup4\n        /* \"contracts/Hairdressing.sol\":8659:8669  _offers[i] */\n      dup2\n      mload\n      dup2\n      lt\n      tag_107\n      jumpi\n      tag_108\n      tag_105\n      jump\t// in\n    tag_108:\n    tag_107:\n      0x20\n      mul\n      0x20\n      add\n      add\n        /* \"contracts/Hairdressing.sol\":8659:8687  _offers[i] = offers[offerId] */\n      dup2\n      swap1\n      mstore\n      pop\n        /* \"contracts/Hairdressing.sol\":8601:8698  {... */\n      pop\n        /* \"contracts/Hairdressing.sol\":8596:8599  i++ */\n      dup1\n      dup1\n      tag_109\n      swap1\n      tag_92\n      jump\t// in\n    tag_109:\n      swap2\n      pop\n      pop\n        /* \"contracts/Hairdressing.sol\":8554:8698  for (uint i = 0; i < userOfferIds.length; i++) {... */\n      jump(tag_100)\n    tag_101:\n      pop\n        /* \"contracts/Hairdressing.sol\":8714:8721  _offers */\n      dup1\n        /* \"contracts/Hairdressing.sol\":8707:8721  return _offers */\n      swap3\n      pop\n      pop\n      pop\n        /* \"contracts/Hairdressing.sol\":8315:8728  function getUserOffers(address _user)... */\n      swap2\n      swap1\n      pop\n      jump\t// out\n        /* \"contracts/Hairdressing.sol\":1003:1039  mapping(uint => Offer) public offers */\n    tag_35:\n      mstore(0x20, 0x02)\n      dup1\n      0x00\n      mstore\n      keccak256(0x00, 0x40)\n      0x00\n      swap2\n      pop\n      swap1\n      pop\n      dup1\n      0x00\n      add\n      sload\n      swap1\n      dup1\n      0x01\n      add\n      sload\n      swap1\n      dup1\n      0x02\n      add\n      0x00\n      swap1\n      sload\n      swap1\n      0x0100\n      exp\n      swap1\n      div\n      0xffffffffffffffffffffffffffffffffffffffff\n      and\n      swap1\n      dup1\n      0x03\n      add\n      sload\n      swap1\n      pop\n      dup5\n      jump\t// out\n        /* \"contracts/Hairdressing.sol\":3174:4381  function cancelAuction(uint _auctionId) external auctionExists(_auctionId) {... */\n    tag_41:\n        /* \"contracts/Hairdressing.sol\":3237:3247  _auctionId */\n      dup1\n        /* \"contracts/Hairdressing.sol\":1535:1536  0 */\n      0x00\n        /* \"contracts/Hairdressing.sol\":1522:1532  _auctionId */\n      dup2\n        /* \"contracts/Hairdressing.sol\":1522:1536  _auctionId > 0 */\n      gt\n        /* \"contracts/Hairdressing.sol\":1522:1566  _auctionId > 0 && _auctionId < nextAuctionId */\n      dup1\n      iszero\n      tag_111\n      jumpi\n      pop\n        /* \"contracts/Hairdressing.sol\":1553:1566  nextAuctionId */\n      sload(0x01)\n        /* \"contracts/Hairdressing.sol\":1540:1550  _auctionId */\n      dup2\n        /* \"contracts/Hairdressing.sol\":1540:1566  _auctionId < nextAuctionId */\n      lt\n        /* \"contracts/Hairdressing.sol\":1522:1566  _auctionId > 0 && _auctionId < nextAuctionId */\n    tag_111:\n        /* \"contracts/Hairdressing.sol\":1501:1614  require(... */\n      tag_112\n      jumpi\n      mload(0x40)\n      0x08c379a000000000000000000000000000000000000000000000000000000000\n      dup2\n      mstore\n      0x04\n      add\n      tag_113\n      swap1\n      tag_114\n      jump\t// in\n    tag_113:\n      mload(0x40)\n      dup1\n      swap2\n      sub\n      swap1\n      revert\n    tag_112:\n        /* \"contracts/Hairdressing.sol\":3292:3315  Auction storage auction */\n      0x00\n        /* \"contracts/Hairdressing.sol\":3318:3326  auctions */\n      dup1\n        /* \"contracts/Hairdressing.sol\":3318:3338  auctions[_auctionId] */\n      0x00\n        /* \"contracts/Hairdressing.sol\":3327:3337  _auctionId */\n      dup5\n        /* \"contracts/Hairdressing.sol\":3318:3338  auctions[_auctionId] */\n      dup2\n      mstore\n      0x20\n      add\n      swap1\n      dup2\n      mstore\n      0x20\n      add\n      0x00\n      keccak256\n        /* \"contracts/Hairdressing.sol\":3292:3338  Auction storage auction = auctions[_auctionId] */\n      swap1\n      pop\n        /* \"contracts/Hairdressing.sol\":3529:3535  uint i */\n      0x00\n        /* \"contracts/Hairdressing.sol\":3524:4047  for (uint i = 0; i < auction.offerIds.length; i++) {... */\n    tag_116:\n        /* \"contracts/Hairdressing.sol\":3545:3552  auction */\n      dup2\n        /* \"contracts/Hairdressing.sol\":3545:3561  auction.offerIds */\n      0x07\n      add\n        /* \"contracts/Hairdressing.sol\":3545:3568  auction.offerIds.length */\n      dup1\n      sload\n      swap1\n      pop\n        /* \"contracts/Hairdressing.sol\":3541:3542  i */\n      dup2\n        /* \"contracts/Hairdressing.sol\":3541:3568  i < auction.offerIds.length */\n      lt\n        /* \"contracts/Hairdressing.sol\":3524:4047  for (uint i = 0; i < auction.offerIds.length; i++) {... */\n      iszero\n      tag_117\n      jumpi\n        /* \"contracts/Hairdressing.sol\":3589:3601  uint offerId */\n      0x00\n        /* \"contracts/Hairdressing.sol\":3604:3611  auction */\n      dup3\n        /* \"contracts/Hairdressing.sol\":3604:3620  auction.offerIds */\n      0x07\n      add\n        /* \"contracts/Hairdressing.sol\":3621:3622  i */\n      dup3\n        /* \"contracts/Hairdressing.sol\":3604:3623  auction.offerIds[i] */\n      dup2\n      sload\n      dup2\n      lt\n      tag_119\n      jumpi\n      tag_120\n      tag_105\n      jump\t// in\n    tag_120:\n    tag_119:\n      swap1\n      0x00\n      mstore\n      keccak256(0x00, 0x20)\n      add\n      sload\n        /* \"contracts/Hairdressing.sol\":3589:3623  uint offerId = auction.offerIds[i] */\n      swap1\n      pop\n        /* \"contracts/Hairdressing.sol\":3637:3656  Offer storage offer */\n      0x00\n        /* \"contracts/Hairdressing.sol\":3659:3665  offers */\n      0x02\n        /* \"contracts/Hairdressing.sol\":3659:3674  offers[offerId] */\n      0x00\n        /* \"contracts/Hairdressing.sol\":3666:3673  offerId */\n      dup4\n        /* \"contracts/Hairdressing.sol\":3659:3674  offers[offerId] */\n      dup2\n      mstore\n      0x20\n      add\n      swap1\n      dup2\n      mstore\n      0x20\n      add\n      0x00\n      keccak256\n        /* \"contracts/Hairdressing.sol\":3637:3674  Offer storage offer = offers[offerId] */\n      swap1\n      pop\n        /* \"contracts/Hairdressing.sol\":3733:3738  offer */\n      dup1\n        /* \"contracts/Hairdressing.sol\":3733:3744  offer.buyer */\n      0x02\n      add\n      0x00\n      swap1\n      sload\n      swap1\n      0x0100\n      exp\n      swap1\n      div\n      0xffffffffffffffffffffffffffffffffffffffff\n      and\n        /* \"contracts/Hairdressing.sol\":3725:3754  payable(offer.buyer).transfer */\n      0xffffffffffffffffffffffffffffffffffffffff\n      and\n        /* \"contracts/Hairdressing.sol\":3725:3772  payable(offer.buyer).transfer(offer.offerPrice) */\n      0x08fc\n        /* \"contracts/Hairdressing.sol\":3755:3760  offer */\n      dup3\n        /* \"contracts/Hairdressing.sol\":3755:3771  offer.offerPrice */\n      0x03\n      add\n      sload\n        /* \"contracts/Hairdressing.sol\":3725:3772  payable(offer.buyer).transfer(offer.offerPrice) */\n      swap1\n      dup2\n      iszero\n      mul\n      swap1\n      mload(0x40)\n      0x00\n      mload(0x40)\n      dup1\n      dup4\n      sub\n      dup2\n      dup6\n      dup9\n      dup9\n      call\n      swap4\n      pop\n      pop\n      pop\n      pop\n      iszero\n      dup1\n      iszero\n      tag_123\n      jumpi\n      returndatasize\n      0x00\n      dup1\n      returndatacopy\n      revert(0x00, returndatasize)\n    tag_123:\n      pop\n        /* \"contracts/Hairdressing.sol\":3835:3841  uint j */\n      0x00\n        /* \"contracts/Hairdressing.sol\":3830:4037  for (uint j = 0; j < userOffers[offer.buyer].length; j++) {... */\n    tag_124:\n        /* \"contracts/Hairdressing.sol\":3851:3861  userOffers */\n      0x05\n        /* \"contracts/Hairdressing.sol\":3851:3874  userOffers[offer.buyer] */\n      0x00\n        /* \"contracts/Hairdressing.sol\":3862:3867  offer */\n      dup4\n        /* \"contracts/Hairdressing.sol\":3862:3873  offer.buyer */\n      0x02\n      add\n      0x00\n      swap1\n      sload\n      swap1\n      0x0100\n      exp\n      swap1\n      div\n      0xffffffffffffffffffffffffffffffffffffffff\n      and\n        /* \"contracts/Hairdressing.sol\":3851:3874  userOffers[offer.buyer] */\n      0xffffffffffffffffffffffffffffffffffffffff\n      and\n      0xffffffffffffffffffffffffffffffffffffffff\n      and\n      dup2\n      mstore\n      0x20\n      add\n      swap1\n      dup2\n      mstore\n      0x20\n      add\n      0x00\n      keccak256\n        /* \"contracts/Hairdressing.sol\":3851:3881  userOffers[offer.buyer].length */\n      dup1\n      sload\n      swap1\n      pop\n        /* \"contracts/Hairdressing.sol\":3847:3848  j */\n      dup2\n        /* \"contracts/Hairdressing.sol\":3847:3881  j < userOffers[offer.buyer].length */\n      lt\n        /* \"contracts/Hairdressing.sol\":3830:4037  for (uint j = 0; j < userOffers[offer.buyer].length; j++) {... */\n      iszero\n      tag_125\n      jumpi\n        /* \"contracts/Hairdressing.sol\":3940:3947  offerId */\n      dup3\n        /* \"contracts/Hairdressing.sol\":3910:3920  userOffers */\n      0x05\n        /* \"contracts/Hairdressing.sol\":3910:3933  userOffers[offer.buyer] */\n      0x00\n        /* \"contracts/Hairdressing.sol\":3921:3926  offer */\n      dup5\n        /* \"contracts/Hairdressing.sol\":3921:3932  offer.buyer */\n      0x02\n      add\n      0x00\n      swap1\n      sload\n      swap1\n      0x0100\n      exp\n      swap1\n      div\n      0xffffffffffffffffffffffffffffffffffffffff\n      and\n        /* \"contracts/Hairdressing.sol\":3910:3933  userOffers[offer.buyer] */\n      0xffffffffffffffffffffffffffffffffffffffff\n      and\n      0xffffffffffffffffffffffffffffffffffffffff\n      and\n      dup2\n      mstore\n      0x20\n      add\n      swap1\n      dup2\n      mstore\n      0x20\n      add\n      0x00\n      keccak256\n        /* \"contracts/Hairdressing.sol\":3934:3935  j */\n      dup3\n        /* \"contracts/Hairdressing.sol\":3910:3936  userOffers[offer.buyer][j] */\n      dup2\n      sload\n      dup2\n      lt\n      tag_127\n      jumpi\n      tag_128\n      tag_105\n      jump\t// in\n    tag_128:\n    tag_127:\n      swap1\n      0x00\n      mstore\n      keccak256(0x00, 0x20)\n      add\n      sload\n        /* \"contracts/Hairdressing.sol\":3910:3947  userOffers[offer.buyer][j] == offerId */\n      sub\n        /* \"contracts/Hairdressing.sol\":3906:4023  if (userOffers[offer.buyer][j] == offerId) {... */\n      tag_130\n      jumpi\n        /* \"contracts/Hairdressing.sol\":3978:3988  userOffers */\n      0x05\n        /* \"contracts/Hairdressing.sol\":3978:4001  userOffers[offer.buyer] */\n      0x00\n        /* \"contracts/Hairdressing.sol\":3989:3994  offer */\n      dup4\n        /* \"contracts/Hairdressing.sol\":3989:4000  offer.buyer */\n      0x02\n      add\n      0x00\n      swap1\n      sload\n      swap1\n      0x0100\n      exp\n      swap1\n      div\n      0xffffffffffffffffffffffffffffffffffffffff\n      and\n        /* \"contracts/Hairdressing.sol\":3978:4001  userOffers[offer.buyer] */\n      0xffffffffffffffffffffffffffffffffffffffff\n      and\n      0xffffffffffffffffffffffffffffffffffffffff\n      and\n      dup2\n      mstore\n      0x20\n      add\n      swap1\n      dup2\n      mstore\n      0x20\n      add\n      0x00\n      keccak256\n        /* \"contracts/Hairdressing.sol\":4002:4003  j */\n      dup2\n        /* \"contracts/Hairdressing.sol\":3978:4004  userOffers[offer.buyer][j] */\n      dup2\n      sload\n      dup2\n      lt\n      tag_131\n      jumpi\n      tag_132\n      tag_105\n      jump\t// in\n    tag_132:\n    tag_131:\n      swap1\n      0x00\n      mstore\n      keccak256(0x00, 0x20)\n      add\n        /* \"contracts/Hairdressing.sol\":3971:4004  delete userOffers[offer.buyer][j] */\n      0x00\n      swap1\n      sstore\n        /* \"contracts/Hairdressing.sol\":3906:4023  if (userOffers[offer.buyer][j] == offerId) {... */\n    tag_130:\n        /* \"contracts/Hairdressing.sol\":3883:3886  j++ */\n      dup1\n      dup1\n      tag_134\n      swap1\n      tag_92\n      jump\t// in\n    tag_134:\n      swap2\n      pop\n      pop\n        /* \"contracts/Hairdressing.sol\":3830:4037  for (uint j = 0; j < userOffers[offer.buyer].length; j++) {... */\n      jump(tag_124)\n    tag_125:\n      pop\n        /* \"contracts/Hairdressing.sol\":3575:4047  {... */\n      pop\n      pop\n        /* \"contracts/Hairdressing.sol\":3570:3573  i++ */\n      dup1\n      dup1\n      tag_135\n      swap1\n      tag_92\n      jump\t// in\n    tag_135:\n      swap2\n      pop\n      pop\n        /* \"contracts/Hairdressing.sol\":3524:4047  for (uint i = 0; i < auction.offerIds.length; i++) {... */\n      jump(tag_116)\n    tag_117:\n      pop\n        /* \"contracts/Hairdressing.sol\":4100:4106  uint k */\n      0x00\n        /* \"contracts/Hairdressing.sol\":4095:4304  for (uint k = 0; k < userAuctions[auction.seller].length; k++) {... */\n    tag_136:\n        /* \"contracts/Hairdressing.sol\":4116:4128  userAuctions */\n      0x04\n        /* \"contracts/Hairdressing.sol\":4116:4144  userAuctions[auction.seller] */\n      0x00\n        /* \"contracts/Hairdressing.sol\":4129:4136  auction */\n      dup4\n        /* \"contracts/Hairdressing.sol\":4129:4143  auction.seller */\n      0x01\n      add\n      0x00\n      swap1\n      sload\n      swap1\n      0x0100\n      exp\n      swap1\n      div\n      0xffffffffffffffffffffffffffffffffffffffff\n      and\n        /* \"contracts/Hairdressing.sol\":4116:4144  userAuctions[auction.seller] */\n      0xffffffffffffffffffffffffffffffffffffffff\n      and\n      0xffffffffffffffffffffffffffffffffffffffff\n      and\n      dup2\n      mstore\n      0x20\n      add\n      swap1\n      dup2\n      mstore\n      0x20\n      add\n      0x00\n      keccak256\n        /* \"contracts/Hairdressing.sol\":4116:4151  userAuctions[auction.seller].length */\n      dup1\n      sload\n      swap1\n      pop\n        /* \"contracts/Hairdressing.sol\":4112:4113  k */\n      dup2\n        /* \"contracts/Hairdressing.sol\":4112:4151  k < userAuctions[auction.seller].length */\n      lt\n        /* \"contracts/Hairdressing.sol\":4095:4304  for (uint k = 0; k < userAuctions[auction.seller].length; k++) {... */\n      iszero\n      tag_137\n      jumpi\n        /* \"contracts/Hairdressing.sol\":4211:4221  _auctionId */\n      dup4\n        /* \"contracts/Hairdressing.sol\":4176:4188  userAuctions */\n      0x04\n        /* \"contracts/Hairdressing.sol\":4176:4204  userAuctions[auction.seller] */\n      0x00\n        /* \"contracts/Hairdressing.sol\":4189:4196  auction */\n      dup5\n        /* \"contracts/Hairdressing.sol\":4189:4203  auction.seller */\n      0x01\n      add\n      0x00\n      swap1\n      sload\n      swap1\n      0x0100\n      exp\n      swap1\n      div\n      0xffffffffffffffffffffffffffffffffffffffff\n      and\n        /* \"contracts/Hairdressing.sol\":4176:4204  userAuctions[auction.seller] */\n      0xffffffffffffffffffffffffffffffffffffffff\n      and\n      0xffffffffffffffffffffffffffffffffffffffff\n      and\n      dup2\n      mstore\n      0x20\n      add\n      swap1\n      dup2\n      mstore\n      0x20\n      add\n      0x00\n      keccak256\n        /* \"contracts/Hairdressing.sol\":4205:4206  k */\n      dup3\n        /* \"contracts/Hairdressing.sol\":4176:4207  userAuctions[auction.seller][k] */\n      dup2\n      sload\n      dup2\n      lt\n      tag_139\n      jumpi\n      tag_140\n      tag_105\n      jump\t// in\n    tag_140:\n    tag_139:\n      swap1\n      0x00\n      mstore\n      keccak256(0x00, 0x20)\n      add\n      sload\n        /* \"contracts/Hairdressing.sol\":4176:4221  userAuctions[auction.seller][k] == _auctionId */\n      sub\n        /* \"contracts/Hairdressing.sol\":4172:4294  if (userAuctions[auction.seller][k] == _auctionId) {... */\n      tag_142\n      jumpi\n        /* \"contracts/Hairdressing.sol\":4248:4260  userAuctions */\n      0x04\n        /* \"contracts/Hairdressing.sol\":4248:4276  userAuctions[auction.seller] */\n      0x00\n        /* \"contracts/Hairdressing.sol\":4261:4268  auction */\n      dup4\n        /* \"contracts/Hairdressing.sol\":4261:4275  auction.seller */\n      0x01\n      add\n      0x00\n      swap1\n      sload\n      swap1\n      0x0100\n      exp\n      swap1\n      div\n      0xffffffffffffffffffffffffffffffffffffffff\n      and\n        /* \"contracts/Hairdressing.sol\":4248:4276  userAuctions[auction.seller] */\n      0xffffffffffffffffffffffffffffffffffffffff\n      and\n      0xffffffffffffffffffffffffffffffffffffffff\n      and\n      dup2\n      mstore\n      0x20\n      add\n      swap1\n      dup2\n      mstore\n      0x20\n      add\n      0x00\n      keccak256\n        /* \"contracts/Hairdressing.sol\":4277:4278  k */\n      dup2\n        /* \"contracts/Hairdressing.sol\":4248:4279  userAuctions[auction.seller][k] */\n      dup2\n      sload\n      dup2\n      lt\n      tag_143\n      jumpi\n      tag_144\n      tag_105\n      jump\t// in\n    tag_144:\n    tag_143:\n      swap1\n      0x00\n      mstore\n      keccak256(0x00, 0x20)\n      add\n        /* \"contracts/Hairdressing.sol\":4241:4279  delete userAuctions[auction.seller][k] */\n      0x00\n      swap1\n      sstore\n        /* \"contracts/Hairdressing.sol\":4172:4294  if (userAuctions[auction.seller][k] == _auctionId) {... */\n    tag_142:\n        /* \"contracts/Hairdressing.sol\":4153:4156  k++ */\n      dup1\n      dup1\n      tag_146\n      swap1\n      tag_92\n      jump\t// in\n    tag_146:\n      swap2\n      pop\n      pop\n        /* \"contracts/Hairdressing.sol\":4095:4304  for (uint k = 0; k < userAuctions[auction.seller].length; k++) {... */\n      jump(tag_136)\n    tag_137:\n      pop\n        /* \"contracts/Hairdressing.sol\":4354:4362  auctions */\n      0x00\n        /* \"contracts/Hairdressing.sol\":4354:4374  auctions[_auctionId] */\n      dup1\n        /* \"contracts/Hairdressing.sol\":4363:4373  _auctionId */\n      dup5\n        /* \"contracts/Hairdressing.sol\":4354:4374  auctions[_auctionId] */\n      dup2\n      mstore\n      0x20\n      add\n      swap1\n      dup2\n      mstore\n      0x20\n      add\n      0x00\n      keccak256\n      0x00\n        /* \"contracts/Hairdressing.sol\":4347:4374  delete auctions[_auctionId] */\n      dup1\n      dup3\n      add\n      0x00\n      swap1\n      sstore\n      0x01\n      dup3\n      add\n      exp(0x0100, 0x00)\n      dup2\n      sload\n      swap1\n      0xffffffffffffffffffffffffffffffffffffffff\n      mul\n      not\n      and\n      swap1\n      sstore\n      0x02\n      dup3\n      add\n      0x00\n      tag_147\n      swap2\n      swap1\n      tag_148\n      jump\t// in\n    tag_147:\n      0x03\n      dup3\n      add\n      0x00\n      tag_149\n      swap2\n      swap1\n      tag_148\n      jump\t// in\n    tag_149:\n      0x04\n      dup3\n      add\n      0x00\n      swap1\n      sstore\n      0x05\n      dup3\n      add\n      0x00\n      swap1\n      sstore\n      0x06\n      dup3\n      add\n      0x00\n      swap1\n      sstore\n      0x07\n      dup3\n      add\n      0x00\n      tag_150\n      swap2\n      swap1\n      tag_151\n      jump\t// in\n    tag_150:\n      pop\n      pop\n        /* \"contracts/Hairdressing.sol\":3249:4381  {... */\n      pop\n        /* \"contracts/Hairdressing.sol\":3174:4381  function cancelAuction(uint _auctionId) external auctionExists(_auctionId) {... */\n      pop\n      pop\n      jump\t// out\n        /* \"contracts/Hairdressing.sol\":4485:6263  function createOffer(uint _auctionId)... */\n    tag_44:\n        /* \"contracts/Hairdressing.sol\":4686:4696  _auctionId */\n      dup1\n        /* \"contracts/Hairdressing.sol\":1535:1536  0 */\n      0x00\n        /* \"contracts/Hairdressing.sol\":1522:1532  _auctionId */\n      dup2\n        /* \"contracts/Hairdressing.sol\":1522:1536  _auctionId > 0 */\n      gt\n        /* \"contracts/Hairdressing.sol\":1522:1566  _auctionId > 0 && _auctionId < nextAuctionId */\n      dup1\n      iszero\n      tag_153\n      jumpi\n      pop\n        /* \"contracts/Hairdressing.sol\":1553:1566  nextAuctionId */\n      sload(0x01)\n        /* \"contracts/Hairdressing.sol\":1540:1550  _auctionId */\n      dup2\n        /* \"contracts/Hairdressing.sol\":1540:1566  _auctionId < nextAuctionId */\n      lt\n        /* \"contracts/Hairdressing.sol\":1522:1566  _auctionId > 0 && _auctionId < nextAuctionId */\n    tag_153:\n        /* \"contracts/Hairdressing.sol\":1501:1614  require(... */\n      tag_154\n      jumpi\n      mload(0x40)\n      0x08c379a000000000000000000000000000000000000000000000000000000000\n      dup2\n      mstore\n      0x04\n      add\n      tag_155\n      swap1\n      tag_114\n      jump\t// in\n    tag_155:\n      mload(0x40)\n      dup1\n      swap2\n      sub\n      swap1\n      revert\n    tag_154:\n        /* \"contracts/Hairdressing.sol\":4747:4770  Auction storage auction */\n      0x00\n        /* \"contracts/Hairdressing.sol\":4773:4781  auctions */\n      dup1\n        /* \"contracts/Hairdressing.sol\":4773:4793  auctions[_auctionId] */\n      0x00\n        /* \"contracts/Hairdressing.sol\":4782:4792  _auctionId */\n      dup5\n        /* \"contracts/Hairdressing.sol\":4773:4793  auctions[_auctionId] */\n      dup2\n      mstore\n      0x20\n      add\n      swap1\n      dup2\n      mstore\n      0x20\n      add\n      0x00\n      keccak256\n        /* \"contracts/Hairdressing.sol\":4747:4793  Auction storage auction = auctions[_auctionId] */\n      swap1\n      pop\n        /* \"contracts/Hairdressing.sol\":4870:4877  auction */\n      dup1\n        /* \"contracts/Hairdressing.sol\":4870:4888  auction.auctionEnd */\n      0x05\n      add\n      sload\n        /* \"contracts/Hairdressing.sol\":4852:4867  block.timestamp */\n      timestamp\n        /* \"contracts/Hairdressing.sol\":4852:4888  block.timestamp < auction.auctionEnd */\n      lt\n        /* \"contracts/Hairdressing.sol\":4844:4908  require(block.timestamp < auction.auctionEnd, \"Auction expired\") */\n      tag_157\n      jumpi\n      mload(0x40)\n      0x08c379a000000000000000000000000000000000000000000000000000000000\n      dup2\n      mstore\n      0x04\n      add\n      tag_158\n      swap1\n      tag_159\n      jump\t// in\n    tag_158:\n      mload(0x40)\n      dup1\n      swap2\n      sub\n      swap1\n      revert\n    tag_157:\n        /* \"contracts/Hairdressing.sol\":4954:4977  Offer storage bestOffer */\n      0x00\n        /* \"contracts/Hairdressing.sol\":4980:4986  offers */\n      0x02\n        /* \"contracts/Hairdressing.sol\":4980:5007  offers[auction.bestOfferId] */\n      0x00\n        /* \"contracts/Hairdressing.sol\":4987:4994  auction */\n      dup4\n        /* \"contracts/Hairdressing.sol\":4987:5006  auction.bestOfferId */\n      0x06\n      add\n      sload\n        /* \"contracts/Hairdressing.sol\":4980:5007  offers[auction.bestOfferId] */\n      dup2\n      mstore\n      0x20\n      add\n      swap1\n      dup2\n      mstore\n      0x20\n      add\n      0x00\n      keccak256\n        /* \"contracts/Hairdressing.sol\":4954:5007  Offer storage bestOffer = offers[auction.bestOfferId] */\n      swap1\n      pop\n        /* \"contracts/Hairdressing.sol\":5081:5102  uint newPossibleOffer */\n      0x00\n        /* \"contracts/Hairdressing.sol\":5105:5114  msg.value */\n      callvalue\n        /* \"contracts/Hairdressing.sol\":5081:5114  uint newPossibleOffer = msg.value */\n      swap1\n      pop\n        /* \"contracts/Hairdressing.sol\":5129:5135  uint i */\n      0x00\n        /* \"contracts/Hairdressing.sol\":5124:5363  for (uint i = 0; i < auction.offerIds.length; i++) {... */\n    tag_160:\n        /* \"contracts/Hairdressing.sol\":5145:5152  auction */\n      dup4\n        /* \"contracts/Hairdressing.sol\":5145:5161  auction.offerIds */\n      0x07\n      add\n        /* \"contracts/Hairdressing.sol\":5145:5168  auction.offerIds.length */\n      dup1\n      sload\n      swap1\n      pop\n        /* \"contracts/Hairdressing.sol\":5141:5142  i */\n      dup2\n        /* \"contracts/Hairdressing.sol\":5141:5168  i < auction.offerIds.length */\n      lt\n        /* \"contracts/Hairdressing.sol\":5124:5363  for (uint i = 0; i < auction.offerIds.length; i++) {... */\n      iszero\n      tag_161\n      jumpi\n        /* \"contracts/Hairdressing.sol\":5189:5208  Offer storage offer */\n      0x00\n        /* \"contracts/Hairdressing.sol\":5211:5217  offers */\n      0x02\n        /* \"contracts/Hairdressing.sol\":5211:5238  offers[auction.offerIds[i]] */\n      0x00\n        /* \"contracts/Hairdressing.sol\":5218:5225  auction */\n      dup7\n        /* \"contracts/Hairdressing.sol\":5218:5234  auction.offerIds */\n      0x07\n      add\n        /* \"contracts/Hairdressing.sol\":5235:5236  i */\n      dup5\n        /* \"contracts/Hairdressing.sol\":5218:5237  auction.offerIds[i] */\n      dup2\n      sload\n      dup2\n      lt\n      tag_163\n      jumpi\n      tag_164\n      tag_105\n      jump\t// in\n    tag_164:\n    tag_163:\n      swap1\n      0x00\n      mstore\n      keccak256(0x00, 0x20)\n      add\n      sload\n        /* \"contracts/Hairdressing.sol\":5211:5238  offers[auction.offerIds[i]] */\n      dup2\n      mstore\n      0x20\n      add\n      swap1\n      dup2\n      mstore\n      0x20\n      add\n      0x00\n      keccak256\n        /* \"contracts/Hairdressing.sol\":5189:5238  Offer storage offer = offers[auction.offerIds[i]] */\n      swap1\n      pop\n        /* \"contracts/Hairdressing.sol\":5272:5282  msg.sender */\n      caller\n        /* \"contracts/Hairdressing.sol\":5257:5282  offer.buyer == msg.sender */\n      0xffffffffffffffffffffffffffffffffffffffff\n      and\n        /* \"contracts/Hairdressing.sol\":5257:5262  offer */\n      dup2\n        /* \"contracts/Hairdressing.sol\":5257:5268  offer.buyer */\n      0x02\n      add\n      0x00\n      swap1\n      sload\n      swap1\n      0x0100\n      exp\n      swap1\n      div\n      0xffffffffffffffffffffffffffffffffffffffff\n      and\n        /* \"contracts/Hairdressing.sol\":5257:5282  offer.buyer == msg.sender */\n      0xffffffffffffffffffffffffffffffffffffffff\n      and\n      sub\n        /* \"contracts/Hairdressing.sol\":5253:5353  if (offer.buyer == msg.sender) {... */\n      tag_166\n      jumpi\n        /* \"contracts/Hairdressing.sol\":5322:5327  offer */\n      dup1\n        /* \"contracts/Hairdressing.sol\":5322:5338  offer.offerPrice */\n      0x03\n      add\n      sload\n        /* \"contracts/Hairdressing.sol\":5302:5338  newPossibleOffer += offer.offerPrice */\n      dup4\n      tag_167\n      swap2\n      swap1\n      tag_84\n      jump\t// in\n    tag_167:\n      swap3\n      pop\n        /* \"contracts/Hairdressing.sol\":5253:5353  if (offer.buyer == msg.sender) {... */\n    tag_166:\n        /* \"contracts/Hairdressing.sol\":5175:5363  {... */\n      pop\n        /* \"contracts/Hairdressing.sol\":5170:5173  i++ */\n      dup1\n      dup1\n      tag_168\n      swap1\n      tag_92\n      jump\t// in\n    tag_168:\n      swap2\n      pop\n      pop\n        /* \"contracts/Hairdressing.sol\":5124:5363  for (uint i = 0; i < auction.offerIds.length; i++) {... */\n      jump(tag_160)\n    tag_161:\n      pop\n        /* \"contracts/Hairdressing.sol\":5474:5481  auction */\n      dup3\n        /* \"contracts/Hairdressing.sol\":5474:5499  auction.minimumOfferPrice */\n      0x04\n      add\n      sload\n        /* \"contracts/Hairdressing.sol\":5454:5470  newPossibleOffer */\n      dup2\n        /* \"contracts/Hairdressing.sol\":5454:5499  newPossibleOffer >= auction.minimumOfferPrice */\n      lt\n      iszero\n        /* \"contracts/Hairdressing.sol\":5454:5558  newPossibleOffer >= auction.minimumOfferPrice &&... */\n      dup1\n      iszero\n      tag_169\n      jumpi\n      pop\n        /* \"contracts/Hairdressing.sol\":5538:5547  bestOffer */\n      dup2\n        /* \"contracts/Hairdressing.sol\":5538:5558  bestOffer.offerPrice */\n      0x03\n      add\n      sload\n        /* \"contracts/Hairdressing.sol\":5519:5535  newPossibleOffer */\n      dup2\n        /* \"contracts/Hairdressing.sol\":5519:5558  newPossibleOffer > bestOffer.offerPrice */\n      gt\n        /* \"contracts/Hairdressing.sol\":5454:5558  newPossibleOffer >= auction.minimumOfferPrice &&... */\n    tag_169:\n        /* \"contracts/Hairdressing.sol\":5433:5651  require(... */\n      tag_170\n      jumpi\n      mload(0x40)\n      0x08c379a000000000000000000000000000000000000000000000000000000000\n      dup2\n      mstore\n      0x04\n      add\n      tag_171\n      swap1\n      tag_172\n      jump\t// in\n    tag_171:\n      mload(0x40)\n      dup1\n      swap2\n      sub\n      swap1\n      revert\n    tag_170:\n        /* \"contracts/Hairdressing.sol\":5725:5736  nextOfferId */\n      sload(0x03)\n        /* \"contracts/Hairdressing.sol\":5703:5710  auction */\n      dup4\n        /* \"contracts/Hairdressing.sol\":5703:5722  auction.bestOfferId */\n      0x06\n      add\n        /* \"contracts/Hairdressing.sol\":5703:5736  auction.bestOfferId = nextOfferId */\n      dup2\n      swap1\n      sstore\n      pop\n        /* \"contracts/Hairdressing.sol\":5799:5917  Offer(... */\n      mload(0x40)\n      dup1\n      0x80\n      add\n      0x40\n      mstore\n      dup1\n        /* \"contracts/Hairdressing.sol\":5818:5829  nextOfferId */\n      sload(0x03)\n        /* \"contracts/Hairdressing.sol\":5799:5917  Offer(... */\n      dup2\n      mstore\n      0x20\n      add\n        /* \"contracts/Hairdressing.sol\":5843:5853  _auctionId */\n      dup7\n        /* \"contracts/Hairdressing.sol\":5799:5917  Offer(... */\n      dup2\n      mstore\n      0x20\n      add\n        /* \"contracts/Hairdressing.sol\":5867:5877  msg.sender */\n      caller\n        /* \"contracts/Hairdressing.sol\":5799:5917  Offer(... */\n      0xffffffffffffffffffffffffffffffffffffffff\n      and\n      dup2\n      mstore\n      0x20\n      add\n        /* \"contracts/Hairdressing.sol\":5891:5907  newPossibleOffer */\n      dup3\n        /* \"contracts/Hairdressing.sol\":5799:5917  Offer(... */\n      dup2\n      mstore\n      pop\n        /* \"contracts/Hairdressing.sol\":5777:5783  offers */\n      0x02\n        /* \"contracts/Hairdressing.sol\":5777:5796  offers[nextOfferId] */\n      0x00\n        /* \"contracts/Hairdressing.sol\":5784:5795  nextOfferId */\n      sload(0x03)\n        /* \"contracts/Hairdressing.sol\":5777:5796  offers[nextOfferId] */\n      dup2\n      mstore\n      0x20\n      add\n      swap1\n      dup2\n      mstore\n      0x20\n      add\n      0x00\n      keccak256\n        /* \"contracts/Hairdressing.sol\":5777:5917  offers[nextOfferId] = Offer(... */\n      0x00\n      dup3\n      add\n      mload\n      dup2\n      0x00\n      add\n      sstore\n      0x20\n      dup3\n      add\n      mload\n      dup2\n      0x01\n      add\n      sstore\n      0x40\n      dup3\n      add\n      mload\n      dup2\n      0x02\n      add\n      exp(0x0100, 0x00)\n      dup2\n      sload\n      dup2\n      0xffffffffffffffffffffffffffffffffffffffff\n      mul\n      not\n      and\n      swap1\n      dup4\n      0xffffffffffffffffffffffffffffffffffffffff\n      and\n      mul\n      or\n      swap1\n      sstore\n      pop\n      0x60\n      dup3\n      add\n      mload\n      dup2\n      0x03\n      add\n      sstore\n      swap1\n      pop\n      pop\n        /* \"contracts/Hairdressing.sol\":5928:5935  auction */\n      dup3\n        /* \"contracts/Hairdressing.sol\":5928:5944  auction.offerIds */\n      0x07\n      add\n        /* \"contracts/Hairdressing.sol\":5950:5961  nextOfferId */\n      sload(0x03)\n        /* \"contracts/Hairdressing.sol\":5928:5962  auction.offerIds.push(nextOfferId) */\n      swap1\n      dup1\n      0x01\n      dup2\n      sload\n      add\n      dup1\n      dup3\n      sstore\n      dup1\n      swap2\n      pop\n      pop\n      0x01\n      swap1\n      sub\n      swap1\n      0x00\n      mstore\n      keccak256(0x00, 0x20)\n      add\n      0x00\n      swap1\n      swap2\n      swap1\n      swap2\n      swap1\n      swap2\n      pop\n      sstore\n        /* \"contracts/Hairdressing.sol\":6091:6092  1 */\n      0x01\n        /* \"contracts/Hairdressing.sol\":6072:6088  newPossibleOffer */\n      dup2\n        /* \"contracts/Hairdressing.sol\":6072:6092  newPossibleOffer + 1 */\n      tag_174\n      swap2\n      swap1\n      tag_84\n      jump\t// in\n    tag_174:\n        /* \"contracts/Hairdressing.sol\":6044:6051  auction */\n      dup4\n        /* \"contracts/Hairdressing.sol\":6044:6069  auction.minimumOfferPrice */\n      0x04\n      add\n        /* \"contracts/Hairdressing.sol\":6044:6092  auction.minimumOfferPrice = newPossibleOffer + 1 */\n      dup2\n      swap1\n      sstore\n      pop\n        /* \"contracts/Hairdressing.sol\":6153:6163  userOffers */\n      0x05\n        /* \"contracts/Hairdressing.sol\":6153:6175  userOffers[msg.sender] */\n      0x00\n        /* \"contracts/Hairdressing.sol\":6164:6174  msg.sender */\n      caller\n        /* \"contracts/Hairdressing.sol\":6153:6175  userOffers[msg.sender] */\n      0xffffffffffffffffffffffffffffffffffffffff\n      and\n      0xffffffffffffffffffffffffffffffffffffffff\n      and\n      dup2\n      mstore\n      0x20\n      add\n      swap1\n      dup2\n      mstore\n      0x20\n      add\n      0x00\n      keccak256\n        /* \"contracts/Hairdressing.sol\":6181:6192  nextOfferId */\n      sload(0x03)\n        /* \"contracts/Hairdressing.sol\":6153:6193  userOffers[msg.sender].push(nextOfferId) */\n      swap1\n      dup1\n      0x01\n      dup2\n      sload\n      add\n      dup1\n      dup3\n      sstore\n      dup1\n      swap2\n      pop\n      pop\n      0x01\n      swap1\n      sub\n      swap1\n      0x00\n      mstore\n      keccak256(0x00, 0x20)\n      add\n      0x00\n      swap1\n      swap2\n      swap1\n      swap2\n      swap1\n      swap2\n      pop\n      sstore\n        /* \"contracts/Hairdressing.sol\":6243:6254  nextOfferId */\n      0x03\n      0x00\n        /* \"contracts/Hairdressing.sol\":6243:6256  nextOfferId++ */\n      dup2\n      sload\n      dup1\n      swap3\n      swap2\n      swap1\n      tag_176\n      swap1\n      tag_92\n      jump\t// in\n    tag_176:\n      swap2\n      swap1\n      pop\n      sstore\n      pop\n        /* \"contracts/Hairdressing.sol\":4702:6263  {   ... */\n      pop\n      pop\n      pop\n        /* \"contracts/Hairdressing.sol\":4485:6263  function createOffer(uint _auctionId)... */\n      pop\n      pop\n      jump\t// out\n        /* \"contracts/Hairdressing.sol\":8821:9373  function getAuctionOffers(uint _auctionId)... */\n    tag_48:\n        /* \"contracts/Hairdressing.sol\":8945:8959  Offer[] memory */\n      0x60\n        /* \"contracts/Hairdressing.sol\":8916:8926  _auctionId */\n      dup2\n        /* \"contracts/Hairdressing.sol\":1535:1536  0 */\n      0x00\n        /* \"contracts/Hairdressing.sol\":1522:1532  _auctionId */\n      dup2\n        /* \"contracts/Hairdressing.sol\":1522:1536  _auctionId > 0 */\n      gt\n        /* \"contracts/Hairdressing.sol\":1522:1566  _auctionId > 0 && _auctionId < nextAuctionId */\n      dup1\n      iszero\n      tag_178\n      jumpi\n      pop\n        /* \"contracts/Hairdressing.sol\":1553:1566  nextAuctionId */\n      sload(0x01)\n        /* \"contracts/Hairdressing.sol\":1540:1550  _auctionId */\n      dup2\n        /* \"contracts/Hairdressing.sol\":1540:1566  _auctionId < nextAuctionId */\n      lt\n        /* \"contracts/Hairdressing.sol\":1522:1566  _auctionId > 0 && _auctionId < nextAuctionId */\n    tag_178:\n        /* \"contracts/Hairdressing.sol\":1501:1614  require(... */\n      tag_179\n      jumpi\n      mload(0x40)\n      0x08c379a000000000000000000000000000000000000000000000000000000000\n      dup2\n      mstore\n      0x04\n      add\n      tag_180\n      swap1\n      tag_114\n      jump\t// in\n    tag_180:\n      mload(0x40)\n      dup1\n      swap2\n      sub\n      swap1\n      revert\n    tag_179:\n        /* \"contracts/Hairdressing.sol\":9007:9030  Auction storage auction */\n      0x00\n        /* \"contracts/Hairdressing.sol\":9033:9041  auctions */\n      dup1\n        /* \"contracts/Hairdressing.sol\":9033:9053  auctions[_auctionId] */\n      0x00\n        /* \"contracts/Hairdressing.sol\":9042:9052  _auctionId */\n      dup6\n        /* \"contracts/Hairdressing.sol\":9033:9053  auctions[_auctionId] */\n      dup2\n      mstore\n      0x20\n      add\n      swap1\n      dup2\n      mstore\n      0x20\n      add\n      0x00\n      keccak256\n        /* \"contracts/Hairdressing.sol\":9007:9053  Auction storage auction = auctions[_auctionId] */\n      swap1\n      pop\n        /* \"contracts/Hairdressing.sol\":9063:9093  uint[] storage auctionOfferIds */\n      0x00\n        /* \"contracts/Hairdressing.sol\":9096:9103  auction */\n      dup2\n        /* \"contracts/Hairdressing.sol\":9096:9112  auction.offerIds */\n      0x07\n      add\n        /* \"contracts/Hairdressing.sol\":9063:9112  uint[] storage auctionOfferIds = auction.offerIds */\n      swap1\n      pop\n        /* \"contracts/Hairdressing.sol\":9123:9145  Offer[] memory _offers */\n      0x00\n        /* \"contracts/Hairdressing.sol\":9160:9175  auctionOfferIds */\n      dup2\n        /* \"contracts/Hairdressing.sol\":9160:9182  auctionOfferIds.length */\n      dup1\n      sload\n      swap1\n      pop\n        /* \"contracts/Hairdressing.sol\":9148:9183  new Offer[](auctionOfferIds.length) */\n      0xffffffffffffffff\n      dup2\n      gt\n      iszero\n      tag_182\n      jumpi\n      tag_183\n      tag_81\n      jump\t// in\n    tag_183:\n    tag_182:\n      mload(0x40)\n      swap1\n      dup1\n      dup3\n      mstore\n      dup1\n      0x20\n      mul\n      0x20\n      add\n      dup3\n      add\n      0x40\n      mstore\n      dup1\n      iszero\n      tag_184\n      jumpi\n      dup2\n      0x20\n      add\n    tag_185:\n      tag_186\n      tag_99\n      jump\t// in\n    tag_186:\n      dup2\n      mstore\n      0x20\n      add\n      swap1\n      0x01\n      swap1\n      sub\n      swap1\n      dup2\n      tag_185\n      jumpi\n      swap1\n      pop\n    tag_184:\n      pop\n        /* \"contracts/Hairdressing.sol\":9123:9183  Offer[] memory _offers = new Offer[](auctionOfferIds.length) */\n      swap1\n      pop\n        /* \"contracts/Hairdressing.sol\":9198:9204  uint i */\n      0x00\n        /* \"contracts/Hairdressing.sol\":9193:9343  for (uint i = 0; i < auctionOfferIds.length; i++) {... */\n    tag_187:\n        /* \"contracts/Hairdressing.sol\":9214:9229  auctionOfferIds */\n      dup3\n        /* \"contracts/Hairdressing.sol\":9214:9236  auctionOfferIds.length */\n      dup1\n      sload\n      swap1\n      pop\n        /* \"contracts/Hairdressing.sol\":9210:9211  i */\n      dup2\n        /* \"contracts/Hairdressing.sol\":9210:9236  i < auctionOfferIds.length */\n      lt\n        /* \"contracts/Hairdressing.sol\":9193:9343  for (uint i = 0; i < auctionOfferIds.length; i++) {... */\n      iszero\n      tag_188\n      jumpi\n        /* \"contracts/Hairdressing.sol\":9257:9269  uint offerId */\n      0x00\n        /* \"contracts/Hairdressing.sol\":9272:9287  auctionOfferIds */\n      dup4\n        /* \"contracts/Hairdressing.sol\":9288:9289  i */\n      dup3\n        /* \"contracts/Hairdressing.sol\":9272:9290  auctionOfferIds[i] */\n      dup2\n      sload\n      dup2\n      lt\n      tag_190\n      jumpi\n      tag_191\n      tag_105\n      jump\t// in\n    tag_191:\n    tag_190:\n      swap1\n      0x00\n      mstore\n      keccak256(0x00, 0x20)\n      add\n      sload\n        /* \"contracts/Hairdressing.sol\":9257:9290  uint offerId = auctionOfferIds[i] */\n      swap1\n      pop\n        /* \"contracts/Hairdressing.sol\":9317:9323  offers */\n      0x02\n        /* \"contracts/Hairdressing.sol\":9317:9332  offers[offerId] */\n      0x00\n        /* \"contracts/Hairdressing.sol\":9324:9331  offerId */\n      dup3\n        /* \"contracts/Hairdressing.sol\":9317:9332  offers[offerId] */\n      dup2\n      mstore\n      0x20\n      add\n      swap1\n      dup2\n      mstore\n      0x20\n      add\n      0x00\n      keccak256\n        /* \"contracts/Hairdressing.sol\":9304:9332  _offers[i] = offers[offerId] */\n      mload(0x40)\n      dup1\n      0x80\n      add\n      0x40\n      mstore\n      swap1\n      dup2\n      0x00\n      dup3\n      add\n      sload\n      dup2\n      mstore\n      0x20\n      add\n      0x01\n      dup3\n      add\n      sload\n      dup2\n      mstore\n      0x20\n      add\n      0x02\n      dup3\n      add\n      0x00\n      swap1\n      sload\n      swap1\n      0x0100\n      exp\n      swap1\n      div\n      0xffffffffffffffffffffffffffffffffffffffff\n      and\n      0xffffffffffffffffffffffffffffffffffffffff\n      and\n      0xffffffffffffffffffffffffffffffffffffffff\n      and\n      dup2\n      mstore\n      0x20\n      add\n      0x03\n      dup3\n      add\n      sload\n      dup2\n      mstore\n      pop\n      pop\n        /* \"contracts/Hairdressing.sol\":9304:9311  _offers */\n      dup4\n        /* \"contracts/Hairdressing.sol\":9312:9313  i */\n      dup4\n        /* \"contracts/Hairdressing.sol\":9304:9314  _offers[i] */\n      dup2\n      mload\n      dup2\n      lt\n      tag_193\n      jumpi\n      tag_194\n      tag_105\n      jump\t// in\n    tag_194:\n    tag_193:\n      0x20\n      mul\n      0x20\n      add\n      add\n        /* \"contracts/Hairdressing.sol\":9304:9332  _offers[i] = offers[offerId] */\n      dup2\n      swap1\n      mstore\n      pop\n        /* \"contracts/Hairdressing.sol\":9243:9343  {... */\n      pop\n        /* \"contracts/Hairdressing.sol\":9238:9241  i++ */\n      dup1\n      dup1\n      tag_195\n      swap1\n      tag_92\n      jump\t// in\n    tag_195:\n      swap2\n      pop\n      pop\n        /* \"contracts/Hairdressing.sol\":9193:9343  for (uint i = 0; i < auctionOfferIds.length; i++) {... */\n      jump(tag_187)\n    tag_188:\n      pop\n        /* \"contracts/Hairdressing.sol\":9359:9366  _offers */\n      dup1\n        /* \"contracts/Hairdressing.sol\":9352:9366  return _offers */\n      swap5\n      pop\n      pop\n      pop\n      pop\n        /* \"contracts/Hairdressing.sol\":8821:9373  function getAuctionOffers(uint _auctionId)... */\n      pop\n      swap2\n      swap1\n      pop\n      jump\t// out\n        /* \"contracts/Hairdressing.sol\":7418:7691  function getAuctions() external view returns (Auction[] memory) {... */\n    tag_52:\n        /* \"contracts/Hairdressing.sol\":7464:7480  Auction[] memory */\n      0x60\n        /* \"contracts/Hairdressing.sol\":7492:7518  Auction[] memory _auctions */\n      0x00\n        /* \"contracts/Hairdressing.sol\":7551:7552  1 */\n      0x01\n        /* \"contracts/Hairdressing.sol\":7535:7548  nextAuctionId */\n      dup1\n      sload\n        /* \"contracts/Hairdressing.sol\":7535:7552  nextAuctionId - 1 */\n      tag_197\n      swap2\n      swap1\n      tag_198\n      jump\t// in\n    tag_197:\n        /* \"contracts/Hairdressing.sol\":7521:7553  new Auction[](nextAuctionId - 1) */\n      0xffffffffffffffff\n      dup2\n      gt\n      iszero\n      tag_199\n      jumpi\n      tag_200\n      tag_81\n      jump\t// in\n    tag_200:\n    tag_199:\n      mload(0x40)\n      swap1\n      dup1\n      dup3\n      mstore\n      dup1\n      0x20\n      mul\n      0x20\n      add\n      dup3\n      add\n      0x40\n      mstore\n      dup1\n      iszero\n      tag_201\n      jumpi\n      dup2\n      0x20\n      add\n    tag_202:\n      tag_203\n      tag_204\n      jump\t// in\n    tag_203:\n      dup2\n      mstore\n      0x20\n      add\n      swap1\n      0x01\n      swap1\n      sub\n      swap1\n      dup2\n      tag_202\n      jumpi\n      swap1\n      pop\n    tag_201:\n      pop\n        /* \"contracts/Hairdressing.sol\":7492:7553  Auction[] memory _auctions = new Auction[](nextAuctionId - 1) */\n      swap1\n      pop\n        /* \"contracts/Hairdressing.sol\":7568:7574  uint i */\n      0x00\n        /* \"contracts/Hairdressing.sol\":7577:7578  1 */\n      0x01\n        /* \"contracts/Hairdressing.sol\":7568:7578  uint i = 1 */\n      swap1\n      pop\n        /* \"contracts/Hairdressing.sol\":7563:7659  for (uint i = 1; i < nextAuctionId; i++) {... */\n    tag_205:\n        /* \"contracts/Hairdressing.sol\":7584:7597  nextAuctionId */\n      sload(0x01)\n        /* \"contracts/Hairdressing.sol\":7580:7581  i */\n      dup2\n        /* \"contracts/Hairdressing.sol\":7580:7597  i < nextAuctionId */\n      lt\n        /* \"contracts/Hairdressing.sol\":7563:7659  for (uint i = 1; i < nextAuctionId; i++) {... */\n      iszero\n      tag_206\n      jumpi\n        /* \"contracts/Hairdressing.sol\":7637:7645  auctions */\n      0x00\n        /* \"contracts/Hairdressing.sol\":7637:7648  auctions[i] */\n      dup1\n        /* \"contracts/Hairdressing.sol\":7646:7647  i */\n      dup3\n        /* \"contracts/Hairdressing.sol\":7637:7648  auctions[i] */\n      dup2\n      mstore\n      0x20\n      add\n      swap1\n      dup2\n      mstore\n      0x20\n      add\n      0x00\n      keccak256\n        /* \"contracts/Hairdressing.sol\":7618:7648  _auctions[i - 1] = auctions[i] */\n      mload(0x40)\n      dup1\n      0x0100\n      add\n      0x40\n      mstore\n      swap1\n      dup2\n      0x00\n      dup3\n      add\n      sload\n      dup2\n      mstore\n      0x20\n      add\n      0x01\n      dup3\n      add\n      0x00\n      swap1\n      sload\n      swap1\n      0x0100\n      exp\n      swap1\n      div\n      0xffffffffffffffffffffffffffffffffffffffff\n      and\n      0xffffffffffffffffffffffffffffffffffffffff\n      and\n      0xffffffffffffffffffffffffffffffffffffffff\n      and\n      dup2\n      mstore\n      0x20\n      add\n      0x02\n      dup3\n      add\n      dup1\n      sload\n      tag_208\n      swap1\n      tag_65\n      jump\t// in\n    tag_208:\n      dup1\n      0x1f\n      add\n      0x20\n      dup1\n      swap2\n      div\n      mul\n      0x20\n      add\n      mload(0x40)\n      swap1\n      dup2\n      add\n      0x40\n      mstore\n      dup1\n      swap3\n      swap2\n      swap1\n      dup2\n      dup2\n      mstore\n      0x20\n      add\n      dup3\n      dup1\n      sload\n      tag_209\n      swap1\n      tag_65\n      jump\t// in\n    tag_209:\n      dup1\n      iszero\n      tag_210\n      jumpi\n      dup1\n      0x1f\n      lt\n      tag_211\n      jumpi\n      0x0100\n      dup1\n      dup4\n      sload\n      div\n      mul\n      dup4\n      mstore\n      swap2\n      0x20\n      add\n      swap2\n      jump(tag_210)\n    tag_211:\n      dup3\n      add\n      swap2\n      swap1\n      0x00\n      mstore\n      keccak256(0x00, 0x20)\n      swap1\n    tag_212:\n      dup2\n      sload\n      dup2\n      mstore\n      swap1\n      0x01\n      add\n      swap1\n      0x20\n      add\n      dup1\n      dup4\n      gt\n      tag_212\n      jumpi\n      dup3\n      swap1\n      sub\n      0x1f\n      and\n      dup3\n      add\n      swap2\n    tag_210:\n      pop\n      pop\n      pop\n      pop\n      pop\n      dup2\n      mstore\n      0x20\n      add\n      0x03\n      dup3\n      add\n      dup1\n      sload\n      tag_213\n      swap1\n      tag_65\n      jump\t// in\n    tag_213:\n      dup1\n      0x1f\n      add\n      0x20\n      dup1\n      swap2\n      div\n      mul\n      0x20\n      add\n      mload(0x40)\n      swap1\n      dup2\n      add\n      0x40\n      mstore\n      dup1\n      swap3\n      swap2\n      swap1\n      dup2\n      dup2\n      mstore\n      0x20\n      add\n      dup3\n      dup1\n      sload\n      tag_214\n      swap1\n      tag_65\n      jump\t// in\n    tag_214:\n      dup1\n      iszero\n      tag_215\n      jumpi\n      dup1\n      0x1f\n      lt\n      tag_216\n      jumpi\n      0x0100\n      dup1\n      dup4\n      sload\n      div\n      mul\n      dup4\n      mstore\n      swap2\n      0x20\n      add\n      swap2\n      jump(tag_215)\n    tag_216:\n      dup3\n      add\n      swap2\n      swap1\n      0x00\n      mstore\n      keccak256(0x00, 0x20)\n      swap1\n    tag_217:\n      dup2\n      sload\n      dup2\n      mstore\n      swap1\n      0x01\n      add\n      swap1\n      0x20\n      add\n      dup1\n      dup4\n      gt\n      tag_217\n      jumpi\n      dup3\n      swap1\n      sub\n      0x1f\n      and\n      dup3\n      add\n      swap2\n    tag_215:\n      pop\n      pop\n      pop\n      pop\n      pop\n      dup2\n      mstore\n      0x20\n      add\n      0x04\n      dup3\n      add\n      sload\n      dup2\n      mstore\n      0x20\n      add\n      0x05\n      dup3\n      add\n      sload\n      dup2\n      mstore\n      0x20\n      add\n      0x06\n      dup3\n      add\n      sload\n      dup2\n      mstore\n      0x20\n      add\n      0x07\n      dup3\n      add\n      dup1\n      sload\n      dup1\n      0x20\n      mul\n      0x20\n      add\n      mload(0x40)\n      swap1\n      dup2\n      add\n      0x40\n      mstore\n      dup1\n      swap3\n      swap2\n      swap1\n      dup2\n      dup2\n      mstore\n      0x20\n      add\n      dup3\n      dup1\n      sload\n      dup1\n      iszero\n      tag_218\n      jumpi\n      0x20\n      mul\n      dup3\n      add\n      swap2\n      swap1\n      0x00\n      mstore\n      keccak256(0x00, 0x20)\n      swap1\n    tag_219:\n      dup2\n      sload\n      dup2\n      mstore\n      0x20\n      add\n      swap1\n      0x01\n      add\n      swap1\n      dup1\n      dup4\n      gt\n      tag_219\n      jumpi\n    tag_218:\n      pop\n      pop\n      pop\n      pop\n      pop\n      dup2\n      mstore\n      pop\n      pop\n        /* \"contracts/Hairdressing.sol\":7618:7627  _auctions */\n      dup3\n        /* \"contracts/Hairdressing.sol\":7632:7633  1 */\n      0x01\n        /* \"contracts/Hairdressing.sol\":7628:7629  i */\n      dup4\n        /* \"contracts/Hairdressing.sol\":7628:7633  i - 1 */\n      tag_220\n      swap2\n      swap1\n      tag_198\n      jump\t// in\n    tag_220:\n        /* \"contracts/Hairdressing.sol\":7618:7634  _auctions[i - 1] */\n      dup2\n      mload\n      dup2\n      lt\n      tag_221\n      jumpi\n      tag_222\n      tag_105\n      jump\t// in\n    tag_222:\n    tag_221:\n      0x20\n      mul\n      0x20\n      add\n      add\n        /* \"contracts/Hairdressing.sol\":7618:7648  _auctions[i - 1] = auctions[i] */\n      dup2\n      swap1\n      mstore\n      pop\n        /* \"contracts/Hairdressing.sol\":7599:7602  i++ */\n      dup1\n      dup1\n      tag_223\n      swap1\n      tag_92\n      jump\t// in\n    tag_223:\n      swap2\n      pop\n      pop\n        /* \"contracts/Hairdressing.sol\":7563:7659  for (uint i = 1; i < nextAuctionId; i++) {... */\n      jump(tag_205)\n    tag_206:\n      pop\n        /* \"contracts/Hairdressing.sol\":7675:7684  _auctions */\n      dup1\n        /* \"contracts/Hairdressing.sol\":7668:7684  return _auctions */\n      swap2\n      pop\n      pop\n        /* \"contracts/Hairdressing.sol\":7418:7691  function getAuctions() external view returns (Auction[] memory) {... */\n      swap1\n      jump\t// out\n        /* \"contracts/Hairdressing.sol\":6360:7317  function trade(uint _auctionId) external auctionExists(_auctionId) {... */\n    tag_58:\n        /* \"contracts/Hairdressing.sol\":6415:6425  _auctionId */\n      dup1\n        /* \"contracts/Hairdressing.sol\":1535:1536  0 */\n      0x00\n        /* \"contracts/Hairdressing.sol\":1522:1532  _auctionId */\n      dup2\n        /* \"contracts/Hairdressing.sol\":1522:1536  _auctionId > 0 */\n      gt\n        /* \"contracts/Hairdressing.sol\":1522:1566  _auctionId > 0 && _auctionId < nextAuctionId */\n      dup1\n      iszero\n      tag_225\n      jumpi\n      pop\n        /* \"contracts/Hairdressing.sol\":1553:1566  nextAuctionId */\n      sload(0x01)\n        /* \"contracts/Hairdressing.sol\":1540:1550  _auctionId */\n      dup2\n        /* \"contracts/Hairdressing.sol\":1540:1566  _auctionId < nextAuctionId */\n      lt\n        /* \"contracts/Hairdressing.sol\":1522:1566  _auctionId > 0 && _auctionId < nextAuctionId */\n    tag_225:\n        /* \"contracts/Hairdressing.sol\":1501:1614  require(... */\n      tag_226\n      jumpi\n      mload(0x40)\n      0x08c379a000000000000000000000000000000000000000000000000000000000\n      dup2\n      mstore\n      0x04\n      add\n      tag_227\n      swap1\n      tag_114\n      jump\t// in\n    tag_227:\n      mload(0x40)\n      dup1\n      swap2\n      sub\n      swap1\n      revert\n    tag_226:\n        /* \"contracts/Hairdressing.sol\":6469:6492  Auction storage auction */\n      0x00\n        /* \"contracts/Hairdressing.sol\":6495:6503  auctions */\n      dup1\n        /* \"contracts/Hairdressing.sol\":6495:6515  auctions[_auctionId] */\n      0x00\n        /* \"contracts/Hairdressing.sol\":6504:6514  _auctionId */\n      dup5\n        /* \"contracts/Hairdressing.sol\":6495:6515  auctions[_auctionId] */\n      dup2\n      mstore\n      0x20\n      add\n      swap1\n      dup2\n      mstore\n      0x20\n      add\n      0x00\n      keccak256\n        /* \"contracts/Hairdressing.sol\":6469:6515  Auction storage auction = auctions[_auctionId] */\n      swap1\n      pop\n        /* \"contracts/Hairdressing.sol\":6561:6584  Offer storage bestOffer */\n      0x00\n        /* \"contracts/Hairdressing.sol\":6587:6593  offers */\n      0x02\n        /* \"contracts/Hairdressing.sol\":6587:6614  offers[auction.bestOfferId] */\n      0x00\n        /* \"contracts/Hairdressing.sol\":6594:6601  auction */\n      dup4\n        /* \"contracts/Hairdressing.sol\":6594:6613  auction.bestOfferId */\n      0x06\n      add\n      sload\n        /* \"contracts/Hairdressing.sol\":6587:6614  offers[auction.bestOfferId] */\n      dup2\n      mstore\n      0x20\n      add\n      swap1\n      dup2\n      mstore\n      0x20\n      add\n      0x00\n      keccak256\n        /* \"contracts/Hairdressing.sol\":6561:6614  Offer storage bestOffer = offers[auction.bestOfferId] */\n      swap1\n      pop\n        /* \"contracts/Hairdressing.sol\":6702:6709  auction */\n      dup2\n        /* \"contracts/Hairdressing.sol\":6702:6720  auction.auctionEnd */\n      0x05\n      add\n      sload\n        /* \"contracts/Hairdressing.sol\":6684:6699  block.timestamp */\n      timestamp\n        /* \"contracts/Hairdressing.sol\":6684:6720  block.timestamp > auction.auctionEnd */\n      gt\n        /* \"contracts/Hairdressing.sol\":6663:6769  require(... */\n      tag_229\n      jumpi\n      mload(0x40)\n      0x08c379a000000000000000000000000000000000000000000000000000000000\n      dup2\n      mstore\n      0x04\n      add\n      tag_230\n      swap1\n      tag_231\n      jump\t// in\n    tag_230:\n      mload(0x40)\n      dup1\n      swap2\n      sub\n      swap1\n      revert\n    tag_229:\n        /* \"contracts/Hairdressing.sol\":6824:6830  uint i */\n      0x00\n        /* \"contracts/Hairdressing.sol\":6819:7196  for (uint i = 0; i < auction.offerIds.length; i++) {... */\n    tag_232:\n        /* \"contracts/Hairdressing.sol\":6840:6847  auction */\n      dup3\n        /* \"contracts/Hairdressing.sol\":6840:6856  auction.offerIds */\n      0x07\n      add\n        /* \"contracts/Hairdressing.sol\":6840:6863  auction.offerIds.length */\n      dup1\n      sload\n      swap1\n      pop\n        /* \"contracts/Hairdressing.sol\":6836:6837  i */\n      dup2\n        /* \"contracts/Hairdressing.sol\":6836:6863  i < auction.offerIds.length */\n      lt\n        /* \"contracts/Hairdressing.sol\":6819:7196  for (uint i = 0; i < auction.offerIds.length; i++) {... */\n      iszero\n      tag_233\n      jumpi\n        /* \"contracts/Hairdressing.sol\":6884:6896  uint offerId */\n      0x00\n        /* \"contracts/Hairdressing.sol\":6899:6906  auction */\n      dup4\n        /* \"contracts/Hairdressing.sol\":6899:6915  auction.offerIds */\n      0x07\n      add\n        /* \"contracts/Hairdressing.sol\":6916:6917  i */\n      dup3\n        /* \"contracts/Hairdressing.sol\":6899:6918  auction.offerIds[i] */\n      dup2\n      sload\n      dup2\n      lt\n      tag_235\n      jumpi\n      tag_236\n      tag_105\n      jump\t// in\n    tag_236:\n    tag_235:\n      swap1\n      0x00\n      mstore\n      keccak256(0x00, 0x20)\n      add\n      sload\n        /* \"contracts/Hairdressing.sol\":6884:6918  uint offerId = auction.offerIds[i] */\n      swap1\n      pop\n        /* \"contracts/Hairdressing.sol\":6932:6951  Offer storage offer */\n      0x00\n        /* \"contracts/Hairdressing.sol\":6954:6960  offers */\n      0x02\n        /* \"contracts/Hairdressing.sol\":6954:6969  offers[offerId] */\n      0x00\n        /* \"contracts/Hairdressing.sol\":6961:6968  offerId */\n      dup4\n        /* \"contracts/Hairdressing.sol\":6954:6969  offers[offerId] */\n      dup2\n      mstore\n      0x20\n      add\n      swap1\n      dup2\n      mstore\n      0x20\n      add\n      0x00\n      keccak256\n        /* \"contracts/Hairdressing.sol\":6932:6969  Offer storage offer = offers[offerId] */\n      swap1\n      pop\n        /* \"contracts/Hairdressing.sol\":7092:7101  bestOffer */\n      dup4\n        /* \"contracts/Hairdressing.sol\":7092:7104  bestOffer.id */\n      0x00\n      add\n      sload\n        /* \"contracts/Hairdressing.sol\":7081:7088  offerId */\n      dup3\n        /* \"contracts/Hairdressing.sol\":7081:7104  offerId != bestOffer.id */\n      eq\n        /* \"contracts/Hairdressing.sol\":7077:7186  if (offerId != bestOffer.id) {... */\n      tag_238\n      jumpi\n        /* \"contracts/Hairdressing.sol\":7132:7137  offer */\n      dup1\n        /* \"contracts/Hairdressing.sol\":7132:7143  offer.buyer */\n      0x02\n      add\n      0x00\n      swap1\n      sload\n      swap1\n      0x0100\n      exp\n      swap1\n      div\n      0xffffffffffffffffffffffffffffffffffffffff\n      and\n        /* \"contracts/Hairdressing.sol\":7124:7153  payable(offer.buyer).transfer */\n      0xffffffffffffffffffffffffffffffffffffffff\n      and\n        /* \"contracts/Hairdressing.sol\":7124:7171  payable(offer.buyer).transfer(offer.offerPrice) */\n      0x08fc\n        /* \"contracts/Hairdressing.sol\":7154:7159  offer */\n      dup3\n        /* \"contracts/Hairdressing.sol\":7154:7170  offer.offerPrice */\n      0x03\n      add\n      sload\n        /* \"contracts/Hairdressing.sol\":7124:7171  payable(offer.buyer).transfer(offer.offerPrice) */\n      swap1\n      dup2\n      iszero\n      mul\n      swap1\n      mload(0x40)\n      0x00\n      mload(0x40)\n      dup1\n      dup4\n      sub\n      dup2\n      dup6\n      dup9\n      dup9\n      call\n      swap4\n      pop\n      pop\n      pop\n      pop\n      iszero\n      dup1\n      iszero\n      tag_240\n      jumpi\n      returndatasize\n      0x00\n      dup1\n      returndatacopy\n      revert(0x00, returndatasize)\n    tag_240:\n      pop\n        /* \"contracts/Hairdressing.sol\":7077:7186  if (offerId != bestOffer.id) {... */\n    tag_238:\n        /* \"contracts/Hairdressing.sol\":6870:7196  {... */\n      pop\n      pop\n        /* \"contracts/Hairdressing.sol\":6865:6868  i++ */\n      dup1\n      dup1\n      tag_241\n      swap1\n      tag_92\n      jump\t// in\n    tag_241:\n      swap2\n      pop\n      pop\n        /* \"contracts/Hairdressing.sol\":6819:7196  for (uint i = 0; i < auction.offerIds.length; i++) {... */\n      jump(tag_232)\n    tag_233:\n      pop\n        /* \"contracts/Hairdressing.sol\":7264:7271  auction */\n      dup2\n        /* \"contracts/Hairdressing.sol\":7264:7278  auction.seller */\n      0x01\n      add\n      0x00\n      swap1\n      sload\n      swap1\n      0x0100\n      exp\n      swap1\n      div\n      0xffffffffffffffffffffffffffffffffffffffff\n      and\n        /* \"contracts/Hairdressing.sol\":7256:7288  payable(auction.seller).transfer */\n      0xffffffffffffffffffffffffffffffffffffffff\n      and\n        /* \"contracts/Hairdressing.sol\":7256:7310  payable(auction.seller).transfer(bestOffer.offerPrice) */\n      0x08fc\n        /* \"contracts/Hairdressing.sol\":7289:7298  bestOffer */\n      dup3\n        /* \"contracts/Hairdressing.sol\":7289:7309  bestOffer.offerPrice */\n      0x03\n      add\n      sload\n        /* \"contracts/Hairdressing.sol\":7256:7310  payable(auction.seller).transfer(bestOffer.offerPrice) */\n      swap1\n      dup2\n      iszero\n      mul\n      swap1\n      mload(0x40)\n      0x00\n      mload(0x40)\n      dup1\n      dup4\n      sub\n      dup2\n      dup6\n      dup9\n      dup9\n      call\n      swap4\n      pop\n      pop\n      pop\n      pop\n      iszero\n      dup1\n      iszero\n      tag_243\n      jumpi\n      returndatasize\n      0x00\n      dup1\n      returndatacopy\n      revert(0x00, returndatasize)\n    tag_243:\n      pop\n        /* \"contracts/Hairdressing.sol\":6427:7317  {... */\n      pop\n      pop\n        /* \"contracts/Hairdressing.sol\":6360:7317  function trade(uint _auctionId) external auctionExists(_auctionId) {... */\n      pop\n      pop\n      jump\t// out\n        /* \"contracts/Hairdressing.sol\":7783:8226  function getUserAuctions(address _user)... */\n    tag_62:\n        /* \"contracts/Hairdressing.sol\":7870:7886  Auction[] memory */\n      0x60\n        /* \"contracts/Hairdressing.sol\":7902:7931  uint[] storage userAuctionIds */\n      0x00\n        /* \"contracts/Hairdressing.sol\":7934:7946  userAuctions */\n      0x04\n        /* \"contracts/Hairdressing.sol\":7934:7953  userAuctions[_user] */\n      0x00\n        /* \"contracts/Hairdressing.sol\":7947:7952  _user */\n      dup5\n        /* \"contracts/Hairdressing.sol\":7934:7953  userAuctions[_user] */\n      0xffffffffffffffffffffffffffffffffffffffff\n      and\n      0xffffffffffffffffffffffffffffffffffffffff\n      and\n      dup2\n      mstore\n      0x20\n      add\n      swap1\n      dup2\n      mstore\n      0x20\n      add\n      0x00\n      keccak256\n        /* \"contracts/Hairdressing.sol\":7902:7953  uint[] storage userAuctionIds = userAuctions[_user] */\n      swap1\n      pop\n        /* \"contracts/Hairdressing.sol\":7963:7989  Auction[] memory _auctions */\n      0x00\n        /* \"contracts/Hairdressing.sol\":8006:8020  userAuctionIds */\n      dup2\n        /* \"contracts/Hairdressing.sol\":8006:8027  userAuctionIds.length */\n      dup1\n      sload\n      swap1\n      pop\n        /* \"contracts/Hairdressing.sol\":7992:8028  new Auction[](userAuctionIds.length) */\n      0xffffffffffffffff\n      dup2\n      gt\n      iszero\n      tag_245\n      jumpi\n      tag_246\n      tag_81\n      jump\t// in\n    tag_246:\n    tag_245:\n      mload(0x40)\n      swap1\n      dup1\n      dup3\n      mstore\n      dup1\n      0x20\n      mul\n      0x20\n      add\n      dup3\n      add\n      0x40\n      mstore\n      dup1\n      iszero\n      tag_247\n      jumpi\n      dup2\n      0x20\n      add\n    tag_248:\n      tag_249\n      tag_204\n      jump\t// in\n    tag_249:\n      dup2\n      mstore\n      0x20\n      add\n      swap1\n      0x01\n      swap1\n      sub\n      swap1\n      dup2\n      tag_248\n      jumpi\n      swap1\n      pop\n    tag_247:\n      pop\n        /* \"contracts/Hairdressing.sol\":7963:8028  Auction[] memory _auctions = new Auction[](userAuctionIds.length) */\n      swap1\n      pop\n        /* \"contracts/Hairdressing.sol\":8043:8049  uint i */\n      0x00\n        /* \"contracts/Hairdressing.sol\":8038:8194  for (uint i = 0; i < userAuctionIds.length; i++) {... */\n    tag_250:\n        /* \"contracts/Hairdressing.sol\":8059:8073  userAuctionIds */\n      dup3\n        /* \"contracts/Hairdressing.sol\":8059:8080  userAuctionIds.length */\n      dup1\n      sload\n      swap1\n      pop\n        /* \"contracts/Hairdressing.sol\":8055:8056  i */\n      dup2\n        /* \"contracts/Hairdressing.sol\":8055:8080  i < userAuctionIds.length */\n      lt\n        /* \"contracts/Hairdressing.sol\":8038:8194  for (uint i = 0; i < userAuctionIds.length; i++) {... */\n      iszero\n      tag_251\n      jumpi\n        /* \"contracts/Hairdressing.sol\":8101:8115  uint auctionId */\n      0x00\n        /* \"contracts/Hairdressing.sol\":8118:8132  userAuctionIds */\n      dup4\n        /* \"contracts/Hairdressing.sol\":8133:8134  i */\n      dup3\n        /* \"contracts/Hairdressing.sol\":8118:8135  userAuctionIds[i] */\n      dup2\n      sload\n      dup2\n      lt\n      tag_253\n      jumpi\n      tag_254\n      tag_105\n      jump\t// in\n    tag_254:\n    tag_253:\n      swap1\n      0x00\n      mstore\n      keccak256(0x00, 0x20)\n      add\n      sload\n        /* \"contracts/Hairdressing.sol\":8101:8135  uint auctionId = userAuctionIds[i] */\n      swap1\n      pop\n        /* \"contracts/Hairdressing.sol\":8164:8172  auctions */\n      0x00\n        /* \"contracts/Hairdressing.sol\":8164:8183  auctions[auctionId] */\n      dup1\n        /* \"contracts/Hairdressing.sol\":8173:8182  auctionId */\n      dup3\n        /* \"contracts/Hairdressing.sol\":8164:8183  auctions[auctionId] */\n      dup2\n      mstore\n      0x20\n      add\n      swap1\n      dup2\n      mstore\n      0x20\n      add\n      0x00\n      keccak256\n        /* \"contracts/Hairdressing.sol\":8149:8183  _auctions[i] = auctions[auctionId] */\n      mload(0x40)\n      dup1\n      0x0100\n      add\n      0x40\n      mstore\n      swap1\n      dup2\n      0x00\n      dup3\n      add\n      sload\n      dup2\n      mstore\n      0x20\n      add\n      0x01\n      dup3\n      add\n      0x00\n      swap1\n      sload\n      swap1\n      0x0100\n      exp\n      swap1\n      div\n      0xffffffffffffffffffffffffffffffffffffffff\n      and\n      0xffffffffffffffffffffffffffffffffffffffff\n      and\n      0xffffffffffffffffffffffffffffffffffffffff\n      and\n      dup2\n      mstore\n      0x20\n      add\n      0x02\n      dup3\n      add\n      dup1\n      sload\n      tag_256\n      swap1\n      tag_65\n      jump\t// in\n    tag_256:\n      dup1\n      0x1f\n      add\n      0x20\n      dup1\n      swap2\n      div\n      mul\n      0x20\n      add\n      mload(0x40)\n      swap1\n      dup2\n      add\n      0x40\n      mstore\n      dup1\n      swap3\n      swap2\n      swap1\n      dup2\n      dup2\n      mstore\n      0x20\n      add\n      dup3\n      dup1\n      sload\n      tag_257\n      swap1\n      tag_65\n      jump\t// in\n    tag_257:\n      dup1\n      iszero\n      tag_258\n      jumpi\n      dup1\n      0x1f\n      lt\n      tag_259\n      jumpi\n      0x0100\n      dup1\n      dup4\n      sload\n      div\n      mul\n      dup4\n      mstore\n      swap2\n      0x20\n      add\n      swap2\n      jump(tag_258)\n    tag_259:\n      dup3\n      add\n      swap2\n      swap1\n      0x00\n      mstore\n      keccak256(0x00, 0x20)\n      swap1\n    tag_260:\n      dup2\n      sload\n      dup2\n      mstore\n      swap1\n      0x01\n      add\n      swap1\n      0x20\n      add\n      dup1\n      dup4\n      gt\n      tag_260\n      jumpi\n      dup3\n      swap1\n      sub\n      0x1f\n      and\n      dup3\n      add\n      swap2\n    tag_258:\n      pop\n      pop\n      pop\n      pop\n      pop\n      dup2\n      mstore\n      0x20\n      add\n      0x03\n      dup3\n      add\n      dup1\n      sload\n      tag_261\n      swap1\n      tag_65\n      jump\t// in\n    tag_261:\n      dup1\n      0x1f\n      add\n      0x20\n      dup1\n      swap2\n      div\n      mul\n      0x20\n      add\n      mload(0x40)\n      swap1\n      dup2\n      add\n      0x40\n      mstore\n      dup1\n      swap3\n      swap2\n      swap1\n      dup2\n      dup2\n      mstore\n      0x20\n      add\n      dup3\n      dup1\n      sload\n      tag_262\n      swap1\n      tag_65\n      jump\t// in\n    tag_262:\n      dup1\n      iszero\n      tag_263\n      jumpi\n      dup1\n      0x1f\n      lt\n      tag_264\n      jumpi\n      0x0100\n      dup1\n      dup4\n      sload\n      div\n      mul\n      dup4\n      mstore\n      swap2\n      0x20\n      add\n      swap2\n      jump(tag_263)\n    tag_264:\n      dup3\n      add\n      swap2\n      swap1\n      0x00\n      mstore\n      keccak256(0x00, 0x20)\n      swap1\n    tag_265:\n      dup2\n      sload\n      dup2\n      mstore\n      swap1\n      0x01\n      add\n      swap1\n      0x20\n      add\n      dup1\n      dup4\n      gt\n      tag_265\n      jumpi\n      dup3\n      swap1\n      sub\n      0x1f\n      and\n      dup3\n      add\n      swap2\n    tag_263:\n      pop\n      pop\n      pop\n      pop\n      pop\n      dup2\n      mstore\n      0x20\n      add\n      0x04\n      dup3\n      add\n      sload\n      dup2\n      mstore\n      0x20\n      add\n      0x05\n      dup3\n      add\n      sload\n      dup2\n      mstore\n      0x20\n      add\n      0x06\n      dup3\n      add\n      sload\n      dup2\n      mstore\n      0x20\n      add\n      0x07\n      dup3\n      add\n      dup1\n      sload\n      dup1\n      0x20\n      mul\n      0x20\n      add\n      mload(0x40)\n      swap1\n      dup2\n      add\n      0x40\n      mstore\n      dup1\n      swap3\n      swap2\n      swap1\n      dup2\n      dup2\n      mstore\n      0x20\n      add\n      dup3\n      dup1\n      sload\n      dup1\n      iszero\n      tag_266\n      jumpi\n      0x20\n      mul\n      dup3\n      add\n      swap2\n      swap1\n      0x00\n      mstore\n      keccak256(0x00, 0x20)\n      swap1\n    tag_267:\n      dup2\n      sload\n      dup2\n      mstore\n      0x20\n      add\n      swap1\n      0x01\n      add\n      swap1\n      dup1\n      dup4\n      gt\n      tag_267\n      jumpi\n    tag_266:\n      pop\n      pop\n      pop\n      pop\n      pop\n      dup2\n      mstore\n      pop\n      pop\n        /* \"contracts/Hairdressing.sol\":8149:8158  _auctions */\n      dup4\n        /* \"contracts/Hairdressing.sol\":8159:8160  i */\n      dup4\n        /* \"contracts/Hairdressing.sol\":8149:8161  _auctions[i] */\n      dup2\n      mload\n      dup2\n      lt\n      tag_268\n      jumpi\n      tag_269\n      tag_105\n      jump\t// in\n    tag_269:\n    tag_268:\n      0x20\n      mul\n      0x20\n      add\n      add\n        /* \"contracts/Hairdressing.sol\":8149:8183  _auctions[i] = auctions[auctionId] */\n      dup2\n      swap1\n      mstore\n      pop\n        /* \"contracts/Hairdressing.sol\":8087:8194  {... */\n      pop\n        /* \"contracts/Hairdressing.sol\":8082:8085  i++ */\n      dup1\n      dup1\n      tag_270\n      swap1\n      tag_92\n      jump\t// in\n    tag_270:\n      swap2\n      pop\n      pop\n        /* \"contracts/Hairdressing.sol\":8038:8194  for (uint i = 0; i < userAuctionIds.length; i++) {... */\n      jump(tag_250)\n    tag_251:\n      pop\n        /* \"contracts/Hairdressing.sol\":8210:8219  _auctions */\n      dup1\n        /* \"contracts/Hairdressing.sol\":8203:8219  return _auctions */\n      swap3\n      pop\n      pop\n      pop\n        /* \"contracts/Hairdressing.sol\":7783:8226  function getUserAuctions(address _user)... */\n      swap2\n      swap1\n      pop\n      jump\t// out\n    tag_89:\n      dup3\n      dup1\n      sload\n      dup3\n      dup3\n      sstore\n      swap1\n      0x00\n      mstore\n      keccak256(0x00, 0x20)\n      swap1\n      dup2\n      add\n      swap3\n      dup3\n      iszero\n      tag_271\n      jumpi\n      swap2\n      0x20\n      mul\n      dup3\n      add\n    tag_272:\n      dup3\n      dup2\n      gt\n      iszero\n      tag_273\n      jumpi\n      dup3\n      mload\n      dup3\n      sstore\n      swap2\n      0x20\n      add\n      swap2\n      swap1\n      0x01\n      add\n      swap1\n      jump(tag_272)\n    tag_273:\n    tag_271:\n      pop\n      swap1\n      pop\n      tag_274\n      swap2\n      swap1\n      tag_275\n      jump\t// in\n    tag_274:\n      pop\n      swap1\n      jump\t// out\n    tag_99:\n      mload(0x40)\n      dup1\n      0x80\n      add\n      0x40\n      mstore\n      dup1\n      0x00\n      dup2\n      mstore\n      0x20\n      add\n      0x00\n      dup2\n      mstore\n      0x20\n      add\n      and(0xffffffffffffffffffffffffffffffffffffffff, 0x00)\n      dup2\n      mstore\n      0x20\n      add\n      0x00\n      dup2\n      mstore\n      pop\n      swap1\n      jump\t// out\n    tag_148:\n      pop\n      dup1\n      sload\n      tag_276\n      swap1\n      tag_65\n      jump\t// in\n    tag_276:\n      0x00\n      dup3\n      sstore\n      dup1\n      0x1f\n      lt\n      tag_278\n      jumpi\n      pop\n      jump(tag_277)\n    tag_278:\n      0x1f\n      add\n      0x20\n      swap1\n      div\n      swap1\n      0x00\n      mstore\n      keccak256(0x00, 0x20)\n      swap1\n      dup2\n      add\n      swap1\n      tag_279\n      swap2\n      swap1\n      tag_275\n      jump\t// in\n    tag_279:\n    tag_277:\n      pop\n      jump\t// out\n    tag_151:\n      pop\n      dup1\n      sload\n      0x00\n      dup3\n      sstore\n      swap1\n      0x00\n      mstore\n      keccak256(0x00, 0x20)\n      swap1\n      dup2\n      add\n      swap1\n      tag_281\n      swap2\n      swap1\n      tag_275\n      jump\t// in\n    tag_281:\n      pop\n      jump\t// out\n    tag_204:\n      mload(0x40)\n      dup1\n      0x0100\n      add\n      0x40\n      mstore\n      dup1\n      0x00\n      dup2\n      mstore\n      0x20\n      add\n      and(0xffffffffffffffffffffffffffffffffffffffff, 0x00)\n      dup2\n      mstore\n      0x20\n      add\n      0x60\n      dup2\n      mstore\n      0x20\n      add\n      0x60\n      dup2\n      mstore\n      0x20\n      add\n      0x00\n      dup2\n      mstore\n      0x20\n      add\n      0x00\n      dup2\n      mstore\n      0x20\n      add\n      0x00\n      dup2\n      mstore\n      0x20\n      add\n      0x60\n      dup2\n      mstore\n      pop\n      swap1\n      jump\t// out\n    tag_275:\n    tag_282:\n      dup1\n      dup3\n      gt\n      iszero\n      tag_283\n      jumpi\n      0x00\n      dup2\n      0x00\n      swap1\n      sstore\n      pop\n      0x01\n      add\n      jump(tag_282)\n    tag_283:\n      pop\n      swap1\n      jump\t// out\n        /* \"#utility.yul\":88:205   */\n    tag_285:\n        /* \"#utility.yul\":197:198   */\n      0x00\n        /* \"#utility.yul\":194:195   */\n      dup1\n        /* \"#utility.yul\":187:199   */\n      revert\n        /* \"#utility.yul\":211:328   */\n    tag_286:\n        /* \"#utility.yul\":320:321   */\n      0x00\n        /* \"#utility.yul\":317:318   */\n      dup1\n        /* \"#utility.yul\":310:322   */\n      revert\n        /* \"#utility.yul\":334:411   */\n    tag_287:\n        /* \"#utility.yul\":371:378   */\n      0x00\n        /* \"#utility.yul\":400:405   */\n      dup2\n        /* \"#utility.yul\":389:405   */\n      swap1\n      pop\n        /* \"#utility.yul\":334:411   */\n      swap2\n      swap1\n      pop\n      jump\t// out\n        /* \"#utility.yul\":417:539   */\n    tag_288:\n        /* \"#utility.yul\":490:514   */\n      tag_362\n        /* \"#utility.yul\":508:513   */\n      dup2\n        /* \"#utility.yul\":490:514   */\n      tag_287\n      jump\t// in\n    tag_362:\n        /* \"#utility.yul\":483:488   */\n      dup2\n        /* \"#utility.yul\":480:515   */\n      eq\n        /* \"#utility.yul\":470:533   */\n      tag_363\n      jumpi\n        /* \"#utility.yul\":529:530   */\n      0x00\n        /* \"#utility.yul\":526:527   */\n      dup1\n        /* \"#utility.yul\":519:531   */\n      revert\n        /* \"#utility.yul\":470:533   */\n    tag_363:\n        /* \"#utility.yul\":417:539   */\n      pop\n      jump\t// out\n        /* \"#utility.yul\":545:684   */\n    tag_289:\n        /* \"#utility.yul\":591:596   */\n      0x00\n        /* \"#utility.yul\":629:635   */\n      dup2\n        /* \"#utility.yul\":616:636   */\n      calldataload\n        /* \"#utility.yul\":607:636   */\n      swap1\n      pop\n        /* \"#utility.yul\":645:678   */\n      tag_365\n        /* \"#utility.yul\":672:677   */\n      dup2\n        /* \"#utility.yul\":645:678   */\n      tag_288\n      jump\t// in\n    tag_365:\n        /* \"#utility.yul\":545:684   */\n      swap3\n      swap2\n      pop\n      pop\n      jump\t// out\n        /* \"#utility.yul\":690:1019   */\n    tag_16:\n        /* \"#utility.yul\":749:755   */\n      0x00\n        /* \"#utility.yul\":798:800   */\n      0x20\n        /* \"#utility.yul\":786:795   */\n      dup3\n        /* \"#utility.yul\":777:784   */\n      dup5\n        /* \"#utility.yul\":773:796   */\n      sub\n        /* \"#utility.yul\":769:801   */\n      slt\n        /* \"#utility.yul\":766:885   */\n      iszero\n      tag_367\n      jumpi\n        /* \"#utility.yul\":804:883   */\n      tag_368\n      tag_285\n      jump\t// in\n    tag_368:\n        /* \"#utility.yul\":766:885   */\n    tag_367:\n        /* \"#utility.yul\":924:925   */\n      0x00\n        /* \"#utility.yul\":949:1002   */\n      tag_369\n        /* \"#utility.yul\":994:1001   */\n      dup5\n        /* \"#utility.yul\":985:991   */\n      dup3\n        /* \"#utility.yul\":974:983   */\n      dup6\n        /* \"#utility.yul\":970:992   */\n      add\n        /* \"#utility.yul\":949:1002   */\n      tag_289\n      jump\t// in\n    tag_369:\n        /* \"#utility.yul\":939:1002   */\n      swap2\n      pop\n        /* \"#utility.yul\":895:1012   */\n      pop\n        /* \"#utility.yul\":690:1019   */\n      swap3\n      swap2\n      pop\n      pop\n      jump\t// out\n        /* \"#utility.yul\":1025:1143   */\n    tag_290:\n        /* \"#utility.yul\":1112:1136   */\n      tag_371\n        /* \"#utility.yul\":1130:1135   */\n      dup2\n        /* \"#utility.yul\":1112:1136   */\n      tag_287\n      jump\t// in\n    tag_371:\n        /* \"#utility.yul\":1107:1110   */\n      dup3\n        /* \"#utility.yul\":1100:1137   */\n      mstore\n        /* \"#utility.yul\":1025:1143   */\n      pop\n      pop\n      jump\t// out\n        /* \"#utility.yul\":1149:1275   */\n    tag_291:\n        /* \"#utility.yul\":1186:1193   */\n      0x00\n        /* \"#utility.yul\":1226:1268   */\n      0xffffffffffffffffffffffffffffffffffffffff\n        /* \"#utility.yul\":1219:1224   */\n      dup3\n        /* \"#utility.yul\":1215:1269   */\n      and\n        /* \"#utility.yul\":1204:1269   */\n      swap1\n      pop\n        /* \"#utility.yul\":1149:1275   */\n      swap2\n      swap1\n      pop\n      jump\t// out\n        /* \"#utility.yul\":1281:1377   */\n    tag_292:\n        /* \"#utility.yul\":1318:1325   */\n      0x00\n        /* \"#utility.yul\":1347:1371   */\n      tag_374\n        /* \"#utility.yul\":1365:1370   */\n      dup3\n        /* \"#utility.yul\":1347:1371   */\n      tag_291\n      jump\t// in\n    tag_374:\n        /* \"#utility.yul\":1336:1371   */\n      swap1\n      pop\n        /* \"#utility.yul\":1281:1377   */\n      swap2\n      swap1\n      pop\n      jump\t// out\n        /* \"#utility.yul\":1383:1501   */\n    tag_293:\n        /* \"#utility.yul\":1470:1494   */\n      tag_376\n        /* \"#utility.yul\":1488:1493   */\n      dup2\n        /* \"#utility.yul\":1470:1494   */\n      tag_292\n      jump\t// in\n    tag_376:\n        /* \"#utility.yul\":1465:1468   */\n      dup3\n        /* \"#utility.yul\":1458:1495   */\n      mstore\n        /* \"#utility.yul\":1383:1501   */\n      pop\n      pop\n      jump\t// out\n        /* \"#utility.yul\":1507:1606   */\n    tag_294:\n        /* \"#utility.yul\":1559:1565   */\n      0x00\n        /* \"#utility.yul\":1593:1598   */\n      dup2\n        /* \"#utility.yul\":1587:1599   */\n      mload\n        /* \"#utility.yul\":1577:1599   */\n      swap1\n      pop\n        /* \"#utility.yul\":1507:1606   */\n      swap2\n      swap1\n      pop\n      jump\t// out\n        /* \"#utility.yul\":1612:1781   */\n    tag_295:\n        /* \"#utility.yul\":1696:1707   */\n      0x00\n        /* \"#utility.yul\":1730:1736   */\n      dup3\n        /* \"#utility.yul\":1725:1728   */\n      dup3\n        /* \"#utility.yul\":1718:1737   */\n      mstore\n        /* \"#utility.yul\":1770:1774   */\n      0x20\n        /* \"#utility.yul\":1765:1768   */\n      dup3\n        /* \"#utility.yul\":1761:1775   */\n      add\n        /* \"#utility.yul\":1746:1775   */\n      swap1\n      pop\n        /* \"#utility.yul\":1612:1781   */\n      swap3\n      swap2\n      pop\n      pop\n      jump\t// out\n        /* \"#utility.yul\":1787:2033   */\n    tag_296:\n        /* \"#utility.yul\":1868:1869   */\n      0x00\n        /* \"#utility.yul\":1878:1991   */\n    tag_380:\n        /* \"#utility.yul\":1892:1898   */\n      dup4\n        /* \"#utility.yul\":1889:1890   */\n      dup2\n        /* \"#utility.yul\":1886:1899   */\n      lt\n        /* \"#utility.yul\":1878:1991   */\n      iszero\n      tag_382\n      jumpi\n        /* \"#utility.yul\":1977:1978   */\n      dup1\n        /* \"#utility.yul\":1972:1975   */\n      dup3\n        /* \"#utility.yul\":1968:1979   */\n      add\n        /* \"#utility.yul\":1962:1980   */\n      mload\n        /* \"#utility.yul\":1958:1959   */\n      dup2\n        /* \"#utility.yul\":1953:1956   */\n      dup5\n        /* \"#utility.yul\":1949:1960   */\n      add\n        /* \"#utility.yul\":1942:1981   */\n      mstore\n        /* \"#utility.yul\":1914:1916   */\n      0x20\n        /* \"#utility.yul\":1911:1912   */\n      dup2\n        /* \"#utility.yul\":1907:1917   */\n      add\n        /* \"#utility.yul\":1902:1917   */\n      swap1\n      pop\n        /* \"#utility.yul\":1878:1991   */\n      jump(tag_380)\n    tag_382:\n        /* \"#utility.yul\":2025:2026   */\n      0x00\n        /* \"#utility.yul\":2016:2022   */\n      dup5\n        /* \"#utility.yul\":2011:2014   */\n      dup5\n        /* \"#utility.yul\":2007:2023   */\n      add\n        /* \"#utility.yul\":2000:2027   */\n      mstore\n        /* \"#utility.yul\":1849:2033   */\n      pop\n        /* \"#utility.yul\":1787:2033   */\n      pop\n      pop\n      pop\n      jump\t// out\n        /* \"#utility.yul\":2039:2141   */\n    tag_297:\n        /* \"#utility.yul\":2080:2086   */\n      0x00\n        /* \"#utility.yul\":2131:2133   */\n      0x1f\n        /* \"#utility.yul\":2127:2134   */\n      not\n        /* \"#utility.yul\":2122:2124   */\n      0x1f\n        /* \"#utility.yul\":2115:2120   */\n      dup4\n        /* \"#utility.yul\":2111:2125   */\n      add\n        /* \"#utility.yul\":2107:2135   */\n      and\n        /* \"#utility.yul\":2097:2135   */\n      swap1\n      pop\n        /* \"#utility.yul\":2039:2141   */\n      swap2\n      swap1\n      pop\n      jump\t// out\n        /* \"#utility.yul\":2147:2524   */\n    tag_298:\n        /* \"#utility.yul\":2235:2238   */\n      0x00\n        /* \"#utility.yul\":2263:2302   */\n      tag_385\n        /* \"#utility.yul\":2296:2301   */\n      dup3\n        /* \"#utility.yul\":2263:2302   */\n      tag_294\n      jump\t// in\n    tag_385:\n        /* \"#utility.yul\":2318:2389   */\n      tag_386\n        /* \"#utility.yul\":2382:2388   */\n      dup2\n        /* \"#utility.yul\":2377:2380   */\n      dup6\n        /* \"#utility.yul\":2318:2389   */\n      tag_295\n      jump\t// in\n    tag_386:\n        /* \"#utility.yul\":2311:2389   */\n      swap4\n      pop\n        /* \"#utility.yul\":2398:2463   */\n      tag_387\n        /* \"#utility.yul\":2456:2462   */\n      dup2\n        /* \"#utility.yul\":2451:2454   */\n      dup6\n        /* \"#utility.yul\":2444:2448   */\n      0x20\n        /* \"#utility.yul\":2437:2442   */\n      dup7\n        /* \"#utility.yul\":2433:2449   */\n      add\n        /* \"#utility.yul\":2398:2463   */\n      tag_296\n      jump\t// in\n    tag_387:\n        /* \"#utility.yul\":2488:2517   */\n      tag_388\n        /* \"#utility.yul\":2510:2516   */\n      dup2\n        /* \"#utility.yul\":2488:2517   */\n      tag_297\n      jump\t// in\n    tag_388:\n        /* \"#utility.yul\":2483:2486   */\n      dup5\n        /* \"#utility.yul\":2479:2518   */\n      add\n        /* \"#utility.yul\":2472:2518   */\n      swap2\n      pop\n        /* \"#utility.yul\":2239:2524   */\n      pop\n        /* \"#utility.yul\":2147:2524   */\n      swap3\n      swap2\n      pop\n      pop\n      jump\t// out\n        /* \"#utility.yul\":2530:3598   */\n    tag_19:\n        /* \"#utility.yul\":2831:2835   */\n      0x00\n        /* \"#utility.yul\":2869:2872   */\n      0xe0\n        /* \"#utility.yul\":2858:2867   */\n      dup3\n        /* \"#utility.yul\":2854:2873   */\n      add\n        /* \"#utility.yul\":2846:2873   */\n      swap1\n      pop\n        /* \"#utility.yul\":2883:2954   */\n      tag_390\n        /* \"#utility.yul\":2951:2952   */\n      0x00\n        /* \"#utility.yul\":2940:2949   */\n      dup4\n        /* \"#utility.yul\":2936:2953   */\n      add\n        /* \"#utility.yul\":2927:2933   */\n      dup11\n        /* \"#utility.yul\":2883:2954   */\n      tag_290\n      jump\t// in\n    tag_390:\n        /* \"#utility.yul\":2964:3036   */\n      tag_391\n        /* \"#utility.yul\":3032:3034   */\n      0x20\n        /* \"#utility.yul\":3021:3030   */\n      dup4\n        /* \"#utility.yul\":3017:3035   */\n      add\n        /* \"#utility.yul\":3008:3014   */\n      dup10\n        /* \"#utility.yul\":2964:3036   */\n      tag_293\n      jump\t// in\n    tag_391:\n        /* \"#utility.yul\":3083:3092   */\n      dup2\n        /* \"#utility.yul\":3077:3081   */\n      dup2\n        /* \"#utility.yul\":3073:3093   */\n      sub\n        /* \"#utility.yul\":3068:3070   */\n      0x40\n        /* \"#utility.yul\":3057:3066   */\n      dup4\n        /* \"#utility.yul\":3053:3071   */\n      add\n        /* \"#utility.yul\":3046:3094   */\n      mstore\n        /* \"#utility.yul\":3111:3189   */\n      tag_392\n        /* \"#utility.yul\":3184:3188   */\n      dup2\n        /* \"#utility.yul\":3175:3181   */\n      dup9\n        /* \"#utility.yul\":3111:3189   */\n      tag_298\n      jump\t// in\n    tag_392:\n        /* \"#utility.yul\":3103:3189   */\n      swap1\n      pop\n        /* \"#utility.yul\":3236:3245   */\n      dup2\n        /* \"#utility.yul\":3230:3234   */\n      dup2\n        /* \"#utility.yul\":3226:3246   */\n      sub\n        /* \"#utility.yul\":3221:3223   */\n      0x60\n        /* \"#utility.yul\":3210:3219   */\n      dup4\n        /* \"#utility.yul\":3206:3224   */\n      add\n        /* \"#utility.yul\":3199:3247   */\n      mstore\n        /* \"#utility.yul\":3264:3342   */\n      tag_393\n        /* \"#utility.yul\":3337:3341   */\n      dup2\n        /* \"#utility.yul\":3328:3334   */\n      dup8\n        /* \"#utility.yul\":3264:3342   */\n      tag_298\n      jump\t// in\n    tag_393:\n        /* \"#utility.yul\":3256:3342   */\n      swap1\n      pop\n        /* \"#utility.yul\":3352:3425   */\n      tag_394\n        /* \"#utility.yul\":3420:3423   */\n      0x80\n        /* \"#utility.yul\":3409:3418   */\n      dup4\n        /* \"#utility.yul\":3405:3424   */\n      add\n        /* \"#utility.yul\":3396:3402   */\n      dup7\n        /* \"#utility.yul\":3352:3425   */\n      tag_290\n      jump\t// in\n    tag_394:\n        /* \"#utility.yul\":3435:3508   */\n      tag_395\n        /* \"#utility.yul\":3503:3506   */\n      0xa0\n        /* \"#utility.yul\":3492:3501   */\n      dup4\n        /* \"#utility.yul\":3488:3507   */\n      add\n        /* \"#utility.yul\":3479:3485   */\n      dup6\n        /* \"#utility.yul\":3435:3508   */\n      tag_290\n      jump\t// in\n    tag_395:\n        /* \"#utility.yul\":3518:3591   */\n      tag_396\n        /* \"#utility.yul\":3586:3589   */\n      0xc0\n        /* \"#utility.yul\":3575:3584   */\n      dup4\n        /* \"#utility.yul\":3571:3590   */\n      add\n        /* \"#utility.yul\":3562:3568   */\n      dup5\n        /* \"#utility.yul\":3518:3591   */\n      tag_290\n      jump\t// in\n    tag_396:\n        /* \"#utility.yul\":2530:3598   */\n      swap9\n      swap8\n      pop\n      pop\n      pop\n      pop\n      pop\n      pop\n      pop\n      pop\n      jump\t// out\n        /* \"#utility.yul\":3604:3721   */\n    tag_299:\n        /* \"#utility.yul\":3713:3714   */\n      0x00\n        /* \"#utility.yul\":3710:3711   */\n      dup1\n        /* \"#utility.yul\":3703:3715   */\n      revert\n        /* \"#utility.yul\":3727:3844   */\n    tag_300:\n        /* \"#utility.yul\":3836:3837   */\n      0x00\n        /* \"#utility.yul\":3833:3834   */\n      dup1\n        /* \"#utility.yul\":3826:3838   */\n      revert\n        /* \"#utility.yul\":3850:3967   */\n    tag_301:\n        /* \"#utility.yul\":3959:3960   */\n      0x00\n        /* \"#utility.yul\":3956:3957   */\n      dup1\n        /* \"#utility.yul\":3949:3961   */\n      revert\n        /* \"#utility.yul\":3987:4540   */\n    tag_302:\n        /* \"#utility.yul\":4045:4053   */\n      0x00\n        /* \"#utility.yul\":4055:4061   */\n      dup1\n        /* \"#utility.yul\":4105:4108   */\n      dup4\n        /* \"#utility.yul\":4098:4102   */\n      0x1f\n        /* \"#utility.yul\":4090:4096   */\n      dup5\n        /* \"#utility.yul\":4086:4103   */\n      add\n        /* \"#utility.yul\":4082:4109   */\n      slt\n        /* \"#utility.yul\":4072:4194   */\n      tag_401\n      jumpi\n        /* \"#utility.yul\":4113:4192   */\n      tag_402\n      tag_299\n      jump\t// in\n    tag_402:\n        /* \"#utility.yul\":4072:4194   */\n    tag_401:\n        /* \"#utility.yul\":4226:4232   */\n      dup3\n        /* \"#utility.yul\":4213:4233   */\n      calldataload\n        /* \"#utility.yul\":4203:4233   */\n      swap1\n      pop\n        /* \"#utility.yul\":4256:4274   */\n      0xffffffffffffffff\n        /* \"#utility.yul\":4248:4254   */\n      dup2\n        /* \"#utility.yul\":4245:4275   */\n      gt\n        /* \"#utility.yul\":4242:4359   */\n      iszero\n      tag_403\n      jumpi\n        /* \"#utility.yul\":4278:4357   */\n      tag_404\n      tag_300\n      jump\t// in\n    tag_404:\n        /* \"#utility.yul\":4242:4359   */\n    tag_403:\n        /* \"#utility.yul\":4392:4396   */\n      0x20\n        /* \"#utility.yul\":4384:4390   */\n      dup4\n        /* \"#utility.yul\":4380:4397   */\n      add\n        /* \"#utility.yul\":4368:4397   */\n      swap2\n      pop\n        /* \"#utility.yul\":4446:4449   */\n      dup4\n        /* \"#utility.yul\":4438:4442   */\n      0x01\n        /* \"#utility.yul\":4430:4436   */\n      dup3\n        /* \"#utility.yul\":4426:4443   */\n      mul\n        /* \"#utility.yul\":4416:4424   */\n      dup4\n        /* \"#utility.yul\":4412:4444   */\n      add\n        /* \"#utility.yul\":4409:4450   */\n      gt\n        /* \"#utility.yul\":4406:4534   */\n      iszero\n      tag_405\n      jumpi\n        /* \"#utility.yul\":4453:4532   */\n      tag_406\n      tag_301\n      jump\t// in\n    tag_406:\n        /* \"#utility.yul\":4406:4534   */\n    tag_405:\n        /* \"#utility.yul\":3987:4540   */\n      swap3\n      pop\n      swap3\n      swap1\n      pop\n      jump\t// out\n        /* \"#utility.yul\":4546:5711   */\n    tag_23:\n        /* \"#utility.yul\":4656:4662   */\n      0x00\n        /* \"#utility.yul\":4664:4670   */\n      dup1\n        /* \"#utility.yul\":4672:4678   */\n      0x00\n        /* \"#utility.yul\":4680:4686   */\n      dup1\n        /* \"#utility.yul\":4688:4694   */\n      0x00\n        /* \"#utility.yul\":4696:4702   */\n      dup1\n        /* \"#utility.yul\":4745:4748   */\n      0x80\n        /* \"#utility.yul\":4733:4742   */\n      dup8\n        /* \"#utility.yul\":4724:4731   */\n      dup10\n        /* \"#utility.yul\":4720:4743   */\n      sub\n        /* \"#utility.yul\":4716:4749   */\n      slt\n        /* \"#utility.yul\":4713:4833   */\n      iszero\n      tag_408\n      jumpi\n        /* \"#utility.yul\":4752:4831   */\n      tag_409\n      tag_285\n      jump\t// in\n    tag_409:\n        /* \"#utility.yul\":4713:4833   */\n    tag_408:\n        /* \"#utility.yul\":4900:4901   */\n      0x00\n        /* \"#utility.yul\":4889:4898   */\n      dup8\n        /* \"#utility.yul\":4885:4902   */\n      add\n        /* \"#utility.yul\":4872:4903   */\n      calldataload\n        /* \"#utility.yul\":4930:4948   */\n      0xffffffffffffffff\n        /* \"#utility.yul\":4922:4928   */\n      dup2\n        /* \"#utility.yul\":4919:4949   */\n      gt\n        /* \"#utility.yul\":4916:5033   */\n      iszero\n      tag_410\n      jumpi\n        /* \"#utility.yul\":4952:5031   */\n      tag_411\n      tag_286\n      jump\t// in\n    tag_411:\n        /* \"#utility.yul\":4916:5033   */\n    tag_410:\n        /* \"#utility.yul\":5065:5130   */\n      tag_412\n        /* \"#utility.yul\":5122:5129   */\n      dup10\n        /* \"#utility.yul\":5113:5119   */\n      dup3\n        /* \"#utility.yul\":5102:5111   */\n      dup11\n        /* \"#utility.yul\":5098:5120   */\n      add\n        /* \"#utility.yul\":5065:5130   */\n      tag_302\n      jump\t// in\n    tag_412:\n        /* \"#utility.yul\":5047:5130   */\n      swap7\n      pop\n      swap7\n      pop\n        /* \"#utility.yul\":4843:5140   */\n      pop\n        /* \"#utility.yul\":5207:5209   */\n      0x20\n        /* \"#utility.yul\":5196:5205   */\n      dup8\n        /* \"#utility.yul\":5192:5210   */\n      add\n        /* \"#utility.yul\":5179:5211   */\n      calldataload\n        /* \"#utility.yul\":5238:5256   */\n      0xffffffffffffffff\n        /* \"#utility.yul\":5230:5236   */\n      dup2\n        /* \"#utility.yul\":5227:5257   */\n      gt\n        /* \"#utility.yul\":5224:5341   */\n      iszero\n      tag_413\n      jumpi\n        /* \"#utility.yul\":5260:5339   */\n      tag_414\n      tag_286\n      jump\t// in\n    tag_414:\n        /* \"#utility.yul\":5224:5341   */\n    tag_413:\n        /* \"#utility.yul\":5373:5438   */\n      tag_415\n        /* \"#utility.yul\":5430:5437   */\n      dup10\n        /* \"#utility.yul\":5421:5427   */\n      dup3\n        /* \"#utility.yul\":5410:5419   */\n      dup11\n        /* \"#utility.yul\":5406:5428   */\n      add\n        /* \"#utility.yul\":5373:5438   */\n      tag_302\n      jump\t// in\n    tag_415:\n        /* \"#utility.yul\":5355:5438   */\n      swap5\n      pop\n      swap5\n      pop\n        /* \"#utility.yul\":5150:5448   */\n      pop\n        /* \"#utility.yul\":5487:5489   */\n      0x40\n        /* \"#utility.yul\":5513:5566   */\n      tag_416\n        /* \"#utility.yul\":5558:5565   */\n      dup10\n        /* \"#utility.yul\":5549:5555   */\n      dup3\n        /* \"#utility.yul\":5538:5547   */\n      dup11\n        /* \"#utility.yul\":5534:5556   */\n      add\n        /* \"#utility.yul\":5513:5566   */\n      tag_289\n      jump\t// in\n    tag_416:\n        /* \"#utility.yul\":5503:5566   */\n      swap3\n      pop\n        /* \"#utility.yul\":5458:5576   */\n      pop\n        /* \"#utility.yul\":5615:5617   */\n      0x60\n        /* \"#utility.yul\":5641:5694   */\n      tag_417\n        /* \"#utility.yul\":5686:5693   */\n      dup10\n        /* \"#utility.yul\":5677:5683   */\n      dup3\n        /* \"#utility.yul\":5666:5675   */\n      dup11\n        /* \"#utility.yul\":5662:5684   */\n      add\n        /* \"#utility.yul\":5641:5694   */\n      tag_289\n      jump\t// in\n    tag_417:\n        /* \"#utility.yul\":5631:5694   */\n      swap2\n      pop\n        /* \"#utility.yul\":5586:5704   */\n      pop\n        /* \"#utility.yul\":4546:5711   */\n      swap3\n      swap6\n      pop\n      swap3\n      swap6\n      pop\n      swap3\n      swap6\n      jump\t// out\n        /* \"#utility.yul\":5717:5839   */\n    tag_303:\n        /* \"#utility.yul\":5790:5814   */\n      tag_419\n        /* \"#utility.yul\":5808:5813   */\n      dup2\n        /* \"#utility.yul\":5790:5814   */\n      tag_292\n      jump\t// in\n    tag_419:\n        /* \"#utility.yul\":5783:5788   */\n      dup2\n        /* \"#utility.yul\":5780:5815   */\n      eq\n        /* \"#utility.yul\":5770:5833   */\n      tag_420\n      jumpi\n        /* \"#utility.yul\":5829:5830   */\n      0x00\n        /* \"#utility.yul\":5826:5827   */\n      dup1\n        /* \"#utility.yul\":5819:5831   */\n      revert\n        /* \"#utility.yul\":5770:5833   */\n    tag_420:\n        /* \"#utility.yul\":5717:5839   */\n      pop\n      jump\t// out\n        /* \"#utility.yul\":5845:5984   */\n    tag_304:\n        /* \"#utility.yul\":5891:5896   */\n      0x00\n        /* \"#utility.yul\":5929:5935   */\n      dup2\n        /* \"#utility.yul\":5916:5936   */\n      calldataload\n        /* \"#utility.yul\":5907:5936   */\n      swap1\n      pop\n        /* \"#utility.yul\":5945:5978   */\n      tag_422\n        /* \"#utility.yul\":5972:5977   */\n      dup2\n        /* \"#utility.yul\":5945:5978   */\n      tag_303\n      jump\t// in\n    tag_422:\n        /* \"#utility.yul\":5845:5984   */\n      swap3\n      swap2\n      pop\n      pop\n      jump\t// out\n        /* \"#utility.yul\":5990:6319   */\n    tag_28:\n        /* \"#utility.yul\":6049:6055   */\n      0x00\n        /* \"#utility.yul\":6098:6100   */\n      0x20\n        /* \"#utility.yul\":6086:6095   */\n      dup3\n        /* \"#utility.yul\":6077:6084   */\n      dup5\n        /* \"#utility.yul\":6073:6096   */\n      sub\n        /* \"#utility.yul\":6069:6101   */\n      slt\n        /* \"#utility.yul\":6066:6185   */\n      iszero\n      tag_424\n      jumpi\n        /* \"#utility.yul\":6104:6183   */\n      tag_425\n      tag_285\n      jump\t// in\n    tag_425:\n        /* \"#utility.yul\":6066:6185   */\n    tag_424:\n        /* \"#utility.yul\":6224:6225   */\n      0x00\n        /* \"#utility.yul\":6249:6302   */\n      tag_426\n        /* \"#utility.yul\":6294:6301   */\n      dup5\n        /* \"#utility.yul\":6285:6291   */\n      dup3\n        /* \"#utility.yul\":6274:6283   */\n      dup6\n        /* \"#utility.yul\":6270:6292   */\n      add\n        /* \"#utility.yul\":6249:6302   */\n      tag_304\n      jump\t// in\n    tag_426:\n        /* \"#utility.yul\":6239:6302   */\n      swap2\n      pop\n        /* \"#utility.yul\":6195:6312   */\n      pop\n        /* \"#utility.yul\":5990:6319   */\n      swap3\n      swap2\n      pop\n      pop\n      jump\t// out\n        /* \"#utility.yul\":6325:6460   */\n    tag_305:\n        /* \"#utility.yul\":6413:6419   */\n      0x00\n        /* \"#utility.yul\":6447:6452   */\n      dup2\n        /* \"#utility.yul\":6441:6453   */\n      mload\n        /* \"#utility.yul\":6431:6453   */\n      swap1\n      pop\n        /* \"#utility.yul\":6325:6460   */\n      swap2\n      swap1\n      pop\n      jump\t// out\n        /* \"#utility.yul\":6466:6671   */\n    tag_306:\n        /* \"#utility.yul\":6586:6597   */\n      0x00\n        /* \"#utility.yul\":6620:6626   */\n      dup3\n        /* \"#utility.yul\":6615:6618   */\n      dup3\n        /* \"#utility.yul\":6608:6627   */\n      mstore\n        /* \"#utility.yul\":6660:6664   */\n      0x20\n        /* \"#utility.yul\":6655:6658   */\n      dup3\n        /* \"#utility.yul\":6651:6665   */\n      add\n        /* \"#utility.yul\":6636:6665   */\n      swap1\n      pop\n        /* \"#utility.yul\":6466:6671   */\n      swap3\n      swap2\n      pop\n      pop\n      jump\t// out\n        /* \"#utility.yul\":6677:6830   */\n    tag_307:\n        /* \"#utility.yul\":6765:6769   */\n      0x00\n        /* \"#utility.yul\":6788:6791   */\n      dup2\n        /* \"#utility.yul\":6780:6791   */\n      swap1\n      pop\n        /* \"#utility.yul\":6818:6822   */\n      0x20\n        /* \"#utility.yul\":6813:6816   */\n      dup3\n        /* \"#utility.yul\":6809:6823   */\n      add\n        /* \"#utility.yul\":6801:6823   */\n      swap1\n      pop\n        /* \"#utility.yul\":6677:6830   */\n      swap2\n      swap1\n      pop\n      jump\t// out\n        /* \"#utility.yul\":6836:6944   */\n    tag_308:\n        /* \"#utility.yul\":6913:6937   */\n      tag_431\n        /* \"#utility.yul\":6931:6936   */\n      dup2\n        /* \"#utility.yul\":6913:6937   */\n      tag_287\n      jump\t// in\n    tag_431:\n        /* \"#utility.yul\":6908:6911   */\n      dup3\n        /* \"#utility.yul\":6901:6938   */\n      mstore\n        /* \"#utility.yul\":6836:6944   */\n      pop\n      pop\n      jump\t// out\n        /* \"#utility.yul\":6950:7058   */\n    tag_309:\n        /* \"#utility.yul\":7027:7051   */\n      tag_433\n        /* \"#utility.yul\":7045:7050   */\n      dup2\n        /* \"#utility.yul\":7027:7051   */\n      tag_292\n      jump\t// in\n    tag_433:\n        /* \"#utility.yul\":7022:7025   */\n      dup3\n        /* \"#utility.yul\":7015:7052   */\n      mstore\n        /* \"#utility.yul\":6950:7058   */\n      pop\n      pop\n      jump\t// out\n        /* \"#utility.yul\":7126:7973   */\n    tag_310:\n        /* \"#utility.yul\":7255:7259   */\n      0x80\n        /* \"#utility.yul\":7250:7253   */\n      dup3\n        /* \"#utility.yul\":7246:7260   */\n      add\n        /* \"#utility.yul\":7340:7344   */\n      0x00\n        /* \"#utility.yul\":7333:7338   */\n      dup3\n        /* \"#utility.yul\":7329:7345   */\n      add\n        /* \"#utility.yul\":7323:7346   */\n      mload\n        /* \"#utility.yul\":7359:7422   */\n      tag_435\n        /* \"#utility.yul\":7416:7420   */\n      0x00\n        /* \"#utility.yul\":7411:7414   */\n      dup6\n        /* \"#utility.yul\":7407:7421   */\n      add\n        /* \"#utility.yul\":7393:7405   */\n      dup3\n        /* \"#utility.yul\":7359:7422   */\n      tag_308\n      jump\t// in\n    tag_435:\n        /* \"#utility.yul\":7270:7432   */\n      pop\n        /* \"#utility.yul\":7519:7523   */\n      0x20\n        /* \"#utility.yul\":7512:7517   */\n      dup3\n        /* \"#utility.yul\":7508:7524   */\n      add\n        /* \"#utility.yul\":7502:7525   */\n      mload\n        /* \"#utility.yul\":7538:7601   */\n      tag_436\n        /* \"#utility.yul\":7595:7599   */\n      0x20\n        /* \"#utility.yul\":7590:7593   */\n      dup6\n        /* \"#utility.yul\":7586:7600   */\n      add\n        /* \"#utility.yul\":7572:7584   */\n      dup3\n        /* \"#utility.yul\":7538:7601   */\n      tag_308\n      jump\t// in\n    tag_436:\n        /* \"#utility.yul\":7442:7611   */\n      pop\n        /* \"#utility.yul\":7694:7698   */\n      0x40\n        /* \"#utility.yul\":7687:7692   */\n      dup3\n        /* \"#utility.yul\":7683:7699   */\n      add\n        /* \"#utility.yul\":7677:7700   */\n      mload\n        /* \"#utility.yul\":7713:7776   */\n      tag_437\n        /* \"#utility.yul\":7770:7774   */\n      0x40\n        /* \"#utility.yul\":7765:7768   */\n      dup6\n        /* \"#utility.yul\":7761:7775   */\n      add\n        /* \"#utility.yul\":7747:7759   */\n      dup3\n        /* \"#utility.yul\":7713:7776   */\n      tag_309\n      jump\t// in\n    tag_437:\n        /* \"#utility.yul\":7621:7786   */\n      pop\n        /* \"#utility.yul\":7874:7878   */\n      0x60\n        /* \"#utility.yul\":7867:7872   */\n      dup3\n        /* \"#utility.yul\":7863:7879   */\n      add\n        /* \"#utility.yul\":7857:7880   */\n      mload\n        /* \"#utility.yul\":7893:7956   */\n      tag_438\n        /* \"#utility.yul\":7950:7954   */\n      0x60\n        /* \"#utility.yul\":7945:7948   */\n      dup6\n        /* \"#utility.yul\":7941:7955   */\n      add\n        /* \"#utility.yul\":7927:7939   */\n      dup3\n        /* \"#utility.yul\":7893:7956   */\n      tag_308\n      jump\t// in\n    tag_438:\n        /* \"#utility.yul\":7796:7966   */\n      pop\n        /* \"#utility.yul\":7224:7973   */\n      pop\n        /* \"#utility.yul\":7126:7973   */\n      pop\n      pop\n      jump\t// out\n        /* \"#utility.yul\":7979:8242   */\n    tag_311:\n        /* \"#utility.yul\":8090:8100   */\n      0x00\n        /* \"#utility.yul\":8111:8199   */\n      tag_440\n        /* \"#utility.yul\":8195:8198   */\n      dup4\n        /* \"#utility.yul\":8187:8193   */\n      dup4\n        /* \"#utility.yul\":8111:8199   */\n      tag_310\n      jump\t// in\n    tag_440:\n        /* \"#utility.yul\":8231:8235   */\n      0x80\n        /* \"#utility.yul\":8226:8229   */\n      dup4\n        /* \"#utility.yul\":8222:8236   */\n      add\n        /* \"#utility.yul\":8208:8236   */\n      swap1\n      pop\n        /* \"#utility.yul\":7979:8242   */\n      swap3\n      swap2\n      pop\n      pop\n      jump\t// out\n        /* \"#utility.yul\":8248:8382   */\n    tag_312:\n        /* \"#utility.yul\":8339:8343   */\n      0x00\n        /* \"#utility.yul\":8371:8375   */\n      0x20\n        /* \"#utility.yul\":8366:8369   */\n      dup3\n        /* \"#utility.yul\":8362:8376   */\n      add\n        /* \"#utility.yul\":8354:8376   */\n      swap1\n      pop\n        /* \"#utility.yul\":8248:8382   */\n      swap2\n      swap1\n      pop\n      jump\t// out\n        /* \"#utility.yul\":8454:9354   */\n    tag_313:\n        /* \"#utility.yul\":8615:8618   */\n      0x00\n        /* \"#utility.yul\":8644:8719   */\n      tag_443\n        /* \"#utility.yul\":8713:8718   */\n      dup3\n        /* \"#utility.yul\":8644:8719   */\n      tag_305\n      jump\t// in\n    tag_443:\n        /* \"#utility.yul\":8735:8842   */\n      tag_444\n        /* \"#utility.yul\":8835:8841   */\n      dup2\n        /* \"#utility.yul\":8830:8833   */\n      dup6\n        /* \"#utility.yul\":8735:8842   */\n      tag_306\n      jump\t// in\n    tag_444:\n        /* \"#utility.yul\":8728:8842   */\n      swap4\n      pop\n        /* \"#utility.yul\":8866:8943   */\n      tag_445\n        /* \"#utility.yul\":8937:8942   */\n      dup4\n        /* \"#utility.yul\":8866:8943   */\n      tag_307\n      jump\t// in\n    tag_445:\n        /* \"#utility.yul\":8966:8973   */\n      dup1\n        /* \"#utility.yul\":8997:8998   */\n      0x00\n        /* \"#utility.yul\":8982:9329   */\n    tag_446:\n        /* \"#utility.yul\":9007:9013   */\n      dup4\n        /* \"#utility.yul\":9004:9005   */\n      dup2\n        /* \"#utility.yul\":9001:9014   */\n      lt\n        /* \"#utility.yul\":8982:9329   */\n      iszero\n      tag_448\n      jumpi\n        /* \"#utility.yul\":9083:9089   */\n      dup2\n        /* \"#utility.yul\":9077:9090   */\n      mload\n        /* \"#utility.yul\":9110:9215   */\n      tag_449\n        /* \"#utility.yul\":9211:9214   */\n      dup9\n        /* \"#utility.yul\":9196:9209   */\n      dup3\n        /* \"#utility.yul\":9110:9215   */\n      tag_311\n      jump\t// in\n    tag_449:\n        /* \"#utility.yul\":9103:9215   */\n      swap8\n      pop\n        /* \"#utility.yul\":9238:9319   */\n      tag_450\n        /* \"#utility.yul\":9312:9318   */\n      dup4\n        /* \"#utility.yul\":9238:9319   */\n      tag_312\n      jump\t// in\n    tag_450:\n        /* \"#utility.yul\":9228:9319   */\n      swap3\n      pop\n        /* \"#utility.yul\":9042:9329   */\n      pop\n        /* \"#utility.yul\":9029:9030   */\n      0x01\n        /* \"#utility.yul\":9026:9027   */\n      dup2\n        /* \"#utility.yul\":9022:9031   */\n      add\n        /* \"#utility.yul\":9017:9031   */\n      swap1\n      pop\n        /* \"#utility.yul\":8982:9329   */\n      jump(tag_446)\n    tag_448:\n        /* \"#utility.yul\":8986:9000   */\n      pop\n        /* \"#utility.yul\":9345:9348   */\n      dup6\n        /* \"#utility.yul\":9338:9348   */\n      swap4\n      pop\n        /* \"#utility.yul\":8620:9354   */\n      pop\n      pop\n      pop\n        /* \"#utility.yul\":8454:9354   */\n      swap3\n      swap2\n      pop\n      pop\n      jump\t// out\n        /* \"#utility.yul\":9360:9817   */\n    tag_31:\n        /* \"#utility.yul\":9545:9549   */\n      0x00\n        /* \"#utility.yul\":9583:9585   */\n      0x20\n        /* \"#utility.yul\":9572:9581   */\n      dup3\n        /* \"#utility.yul\":9568:9586   */\n      add\n        /* \"#utility.yul\":9560:9586   */\n      swap1\n      pop\n        /* \"#utility.yul\":9632:9641   */\n      dup2\n        /* \"#utility.yul\":9626:9630   */\n      dup2\n        /* \"#utility.yul\":9622:9642   */\n      sub\n        /* \"#utility.yul\":9618:9619   */\n      0x00\n        /* \"#utility.yul\":9607:9616   */\n      dup4\n        /* \"#utility.yul\":9603:9620   */\n      add\n        /* \"#utility.yul\":9596:9643   */\n      mstore\n        /* \"#utility.yul\":9660:9810   */\n      tag_452\n        /* \"#utility.yul\":9805:9809   */\n      dup2\n        /* \"#utility.yul\":9796:9802   */\n      dup5\n        /* \"#utility.yul\":9660:9810   */\n      tag_313\n      jump\t// in\n    tag_452:\n        /* \"#utility.yul\":9652:9810   */\n      swap1\n      pop\n        /* \"#utility.yul\":9360:9817   */\n      swap3\n      swap2\n      pop\n      pop\n      jump\t// out\n        /* \"#utility.yul\":9823:10376   */\n    tag_37:\n        /* \"#utility.yul\":10000:10004   */\n      0x00\n        /* \"#utility.yul\":10038:10041   */\n      0x80\n        /* \"#utility.yul\":10027:10036   */\n      dup3\n        /* \"#utility.yul\":10023:10042   */\n      add\n        /* \"#utility.yul\":10015:10042   */\n      swap1\n      pop\n        /* \"#utility.yul\":10052:10123   */\n      tag_454\n        /* \"#utility.yul\":10120:10121   */\n      0x00\n        /* \"#utility.yul\":10109:10118   */\n      dup4\n        /* \"#utility.yul\":10105:10122   */\n      add\n        /* \"#utility.yul\":10096:10102   */\n      dup8\n        /* \"#utility.yul\":10052:10123   */\n      tag_290\n      jump\t// in\n    tag_454:\n        /* \"#utility.yul\":10133:10205   */\n      tag_455\n        /* \"#utility.yul\":10201:10203   */\n      0x20\n        /* \"#utility.yul\":10190:10199   */\n      dup4\n        /* \"#utility.yul\":10186:10204   */\n      add\n        /* \"#utility.yul\":10177:10183   */\n      dup7\n        /* \"#utility.yul\":10133:10205   */\n      tag_290\n      jump\t// in\n    tag_455:\n        /* \"#utility.yul\":10215:10287   */\n      tag_456\n        /* \"#utility.yul\":10283:10285   */\n      0x40\n        /* \"#utility.yul\":10272:10281   */\n      dup4\n        /* \"#utility.yul\":10268:10286   */\n      add\n        /* \"#utility.yul\":10259:10265   */\n      dup6\n        /* \"#utility.yul\":10215:10287   */\n      tag_293\n      jump\t// in\n    tag_456:\n        /* \"#utility.yul\":10297:10369   */\n      tag_457\n        /* \"#utility.yul\":10365:10367   */\n      0x60\n        /* \"#utility.yul\":10354:10363   */\n      dup4\n        /* \"#utility.yul\":10350:10368   */\n      add\n        /* \"#utility.yul\":10341:10347   */\n      dup5\n        /* \"#utility.yul\":10297:10369   */\n      tag_290\n      jump\t// in\n    tag_457:\n        /* \"#utility.yul\":9823:10376   */\n      swap6\n      swap5\n      pop\n      pop\n      pop\n      pop\n      pop\n      jump\t// out\n        /* \"#utility.yul\":10382:10519   */\n    tag_314:\n        /* \"#utility.yul\":10472:10478   */\n      0x00\n        /* \"#utility.yul\":10506:10511   */\n      dup2\n        /* \"#utility.yul\":10500:10512   */\n      mload\n        /* \"#utility.yul\":10490:10512   */\n      swap1\n      pop\n        /* \"#utility.yul\":10382:10519   */\n      swap2\n      swap1\n      pop\n      jump\t// out\n        /* \"#utility.yul\":10525:10732   */\n    tag_315:\n        /* \"#utility.yul\":10647:10658   */\n      0x00\n        /* \"#utility.yul\":10681:10687   */\n      dup3\n        /* \"#utility.yul\":10676:10679   */\n      dup3\n        /* \"#utility.yul\":10669:10688   */\n      mstore\n        /* \"#utility.yul\":10721:10725   */\n      0x20\n        /* \"#utility.yul\":10716:10719   */\n      dup3\n        /* \"#utility.yul\":10712:10726   */\n      add\n        /* \"#utility.yul\":10697:10726   */\n      swap1\n      pop\n        /* \"#utility.yul\":10525:10732   */\n      swap3\n      swap2\n      pop\n      pop\n      jump\t// out\n        /* \"#utility.yul\":10738:10893   */\n    tag_316:\n        /* \"#utility.yul\":10828:10832   */\n      0x00\n        /* \"#utility.yul\":10851:10854   */\n      dup2\n        /* \"#utility.yul\":10843:10854   */\n      swap1\n      pop\n        /* \"#utility.yul\":10881:10885   */\n      0x20\n        /* \"#utility.yul\":10876:10879   */\n      dup3\n        /* \"#utility.yul\":10872:10886   */\n      add\n        /* \"#utility.yul\":10864:10886   */\n      swap1\n      pop\n        /* \"#utility.yul\":10738:10893   */\n      swap2\n      swap1\n      pop\n      jump\t// out\n        /* \"#utility.yul\":10899:11058   */\n    tag_317:\n        /* \"#utility.yul\":10973:10984   */\n      0x00\n        /* \"#utility.yul\":11007:11013   */\n      dup3\n        /* \"#utility.yul\":11002:11005   */\n      dup3\n        /* \"#utility.yul\":10995:11014   */\n      mstore\n        /* \"#utility.yul\":11047:11051   */\n      0x20\n        /* \"#utility.yul\":11042:11045   */\n      dup3\n        /* \"#utility.yul\":11038:11052   */\n      add\n        /* \"#utility.yul\":11023:11052   */\n      swap1\n      pop\n        /* \"#utility.yul\":10899:11058   */\n      swap3\n      swap2\n      pop\n      pop\n      jump\t// out\n        /* \"#utility.yul\":11064:11421   */\n    tag_318:\n        /* \"#utility.yul\":11142:11145   */\n      0x00\n        /* \"#utility.yul\":11170:11209   */\n      tag_463\n        /* \"#utility.yul\":11203:11208   */\n      dup3\n        /* \"#utility.yul\":11170:11209   */\n      tag_294\n      jump\t// in\n    tag_463:\n        /* \"#utility.yul\":11225:11286   */\n      tag_464\n        /* \"#utility.yul\":11279:11285   */\n      dup2\n        /* \"#utility.yul\":11274:11277   */\n      dup6\n        /* \"#utility.yul\":11225:11286   */\n      tag_317\n      jump\t// in\n    tag_464:\n        /* \"#utility.yul\":11218:11286   */\n      swap4\n      pop\n        /* \"#utility.yul\":11295:11360   */\n      tag_465\n        /* \"#utility.yul\":11353:11359   */\n      dup2\n        /* \"#utility.yul\":11348:11351   */\n      dup6\n        /* \"#utility.yul\":11341:11345   */\n      0x20\n        /* \"#utility.yul\":11334:11339   */\n      dup7\n        /* \"#utility.yul\":11330:11346   */\n      add\n        /* \"#utility.yul\":11295:11360   */\n      tag_296\n      jump\t// in\n    tag_465:\n        /* \"#utility.yul\":11385:11414   */\n      tag_466\n        /* \"#utility.yul\":11407:11413   */\n      dup2\n        /* \"#utility.yul\":11385:11414   */\n      tag_297\n      jump\t// in\n    tag_466:\n        /* \"#utility.yul\":11380:11383   */\n      dup5\n        /* \"#utility.yul\":11376:11415   */\n      add\n        /* \"#utility.yul\":11369:11415   */\n      swap2\n      pop\n        /* \"#utility.yul\":11146:11421   */\n      pop\n        /* \"#utility.yul\":11064:11421   */\n      swap3\n      swap2\n      pop\n      pop\n      jump\t// out\n        /* \"#utility.yul\":11427:11541   */\n    tag_319:\n        /* \"#utility.yul\":11494:11500   */\n      0x00\n        /* \"#utility.yul\":11528:11533   */\n      dup2\n        /* \"#utility.yul\":11522:11534   */\n      mload\n        /* \"#utility.yul\":11512:11534   */\n      swap1\n      pop\n        /* \"#utility.yul\":11427:11541   */\n      swap2\n      swap1\n      pop\n      jump\t// out\n        /* \"#utility.yul\":11547:11721   */\n    tag_320:\n        /* \"#utility.yul\":11636:11647   */\n      0x00\n        /* \"#utility.yul\":11670:11676   */\n      dup3\n        /* \"#utility.yul\":11665:11668   */\n      dup3\n        /* \"#utility.yul\":11658:11677   */\n      mstore\n        /* \"#utility.yul\":11710:11714   */\n      0x20\n        /* \"#utility.yul\":11705:11708   */\n      dup3\n        /* \"#utility.yul\":11701:11715   */\n      add\n        /* \"#utility.yul\":11686:11715   */\n      swap1\n      pop\n        /* \"#utility.yul\":11547:11721   */\n      swap3\n      swap2\n      pop\n      pop\n      jump\t// out\n        /* \"#utility.yul\":11727:11859   */\n    tag_321:\n        /* \"#utility.yul\":11794:11798   */\n      0x00\n        /* \"#utility.yul\":11817:11820   */\n      dup2\n        /* \"#utility.yul\":11809:11820   */\n      swap1\n      pop\n        /* \"#utility.yul\":11847:11851   */\n      0x20\n        /* \"#utility.yul\":11842:11845   */\n      dup3\n        /* \"#utility.yul\":11838:11852   */\n      add\n        /* \"#utility.yul\":11830:11852   */\n      swap1\n      pop\n        /* \"#utility.yul\":11727:11859   */\n      swap2\n      swap1\n      pop\n      jump\t// out\n        /* \"#utility.yul\":11865:12044   */\n    tag_322:\n        /* \"#utility.yul\":11934:11944   */\n      0x00\n        /* \"#utility.yul\":11955:12001   */\n      tag_471\n        /* \"#utility.yul\":11997:12000   */\n      dup4\n        /* \"#utility.yul\":11989:11995   */\n      dup4\n        /* \"#utility.yul\":11955:12001   */\n      tag_308\n      jump\t// in\n    tag_471:\n        /* \"#utility.yul\":12033:12037   */\n      0x20\n        /* \"#utility.yul\":12028:12031   */\n      dup4\n        /* \"#utility.yul\":12024:12038   */\n      add\n        /* \"#utility.yul\":12010:12038   */\n      swap1\n      pop\n        /* \"#utility.yul\":11865:12044   */\n      swap3\n      swap2\n      pop\n      pop\n      jump\t// out\n        /* \"#utility.yul\":12050:12163   */\n    tag_323:\n        /* \"#utility.yul\":12120:12124   */\n      0x00\n        /* \"#utility.yul\":12152:12156   */\n      0x20\n        /* \"#utility.yul\":12147:12150   */\n      dup3\n        /* \"#utility.yul\":12143:12157   */\n      add\n        /* \"#utility.yul\":12135:12157   */\n      swap1\n      pop\n        /* \"#utility.yul\":12050:12163   */\n      swap2\n      swap1\n      pop\n      jump\t// out\n        /* \"#utility.yul\":12199:12911   */\n    tag_324:\n        /* \"#utility.yul\":12308:12311   */\n      0x00\n        /* \"#utility.yul\":12337:12391   */\n      tag_474\n        /* \"#utility.yul\":12385:12390   */\n      dup3\n        /* \"#utility.yul\":12337:12391   */\n      tag_319\n      jump\t// in\n    tag_474:\n        /* \"#utility.yul\":12407:12483   */\n      tag_475\n        /* \"#utility.yul\":12476:12482   */\n      dup2\n        /* \"#utility.yul\":12471:12474   */\n      dup6\n        /* \"#utility.yul\":12407:12483   */\n      tag_320\n      jump\t// in\n    tag_475:\n        /* \"#utility.yul\":12400:12483   */\n      swap4\n      pop\n        /* \"#utility.yul\":12507:12563   */\n      tag_476\n        /* \"#utility.yul\":12557:12562   */\n      dup4\n        /* \"#utility.yul\":12507:12563   */\n      tag_321\n      jump\t// in\n    tag_476:\n        /* \"#utility.yul\":12586:12593   */\n      dup1\n        /* \"#utility.yul\":12617:12618   */\n      0x00\n        /* \"#utility.yul\":12602:12886   */\n    tag_477:\n        /* \"#utility.yul\":12627:12633   */\n      dup4\n        /* \"#utility.yul\":12624:12625   */\n      dup2\n        /* \"#utility.yul\":12621:12634   */\n      lt\n        /* \"#utility.yul\":12602:12886   */\n      iszero\n      tag_479\n      jumpi\n        /* \"#utility.yul\":12703:12709   */\n      dup2\n        /* \"#utility.yul\":12697:12710   */\n      mload\n        /* \"#utility.yul\":12730:12793   */\n      tag_480\n        /* \"#utility.yul\":12789:12792   */\n      dup9\n        /* \"#utility.yul\":12774:12787   */\n      dup3\n        /* \"#utility.yul\":12730:12793   */\n      tag_322\n      jump\t// in\n    tag_480:\n        /* \"#utility.yul\":12723:12793   */\n      swap8\n      pop\n        /* \"#utility.yul\":12816:12876   */\n      tag_481\n        /* \"#utility.yul\":12869:12875   */\n      dup4\n        /* \"#utility.yul\":12816:12876   */\n      tag_323\n      jump\t// in\n    tag_481:\n        /* \"#utility.yul\":12806:12876   */\n      swap3\n      pop\n        /* \"#utility.yul\":12662:12886   */\n      pop\n        /* \"#utility.yul\":12649:12650   */\n      0x01\n        /* \"#utility.yul\":12646:12647   */\n      dup2\n        /* \"#utility.yul\":12642:12651   */\n      add\n        /* \"#utility.yul\":12637:12651   */\n      swap1\n      pop\n        /* \"#utility.yul\":12602:12886   */\n      jump(tag_477)\n    tag_479:\n        /* \"#utility.yul\":12606:12620   */\n      pop\n        /* \"#utility.yul\":12902:12905   */\n      dup6\n        /* \"#utility.yul\":12895:12905   */\n      swap4\n      pop\n        /* \"#utility.yul\":12313:12911   */\n      pop\n      pop\n      pop\n        /* \"#utility.yul\":12199:12911   */\n      swap3\n      swap2\n      pop\n      pop\n      jump\t// out\n        /* \"#utility.yul\":12983:14830   */\n    tag_325:\n        /* \"#utility.yul\":13088:13091   */\n      0x00\n        /* \"#utility.yul\":13124:13130   */\n      0x0100\n        /* \"#utility.yul\":13119:13122   */\n      dup4\n        /* \"#utility.yul\":13115:13131   */\n      add\n        /* \"#utility.yul\":13211:13215   */\n      0x00\n        /* \"#utility.yul\":13204:13209   */\n      dup4\n        /* \"#utility.yul\":13200:13216   */\n      add\n        /* \"#utility.yul\":13194:13217   */\n      mload\n        /* \"#utility.yul\":13230:13293   */\n      tag_483\n        /* \"#utility.yul\":13287:13291   */\n      0x00\n        /* \"#utility.yul\":13282:13285   */\n      dup7\n        /* \"#utility.yul\":13278:13292   */\n      add\n        /* \"#utility.yul\":13264:13276   */\n      dup3\n        /* \"#utility.yul\":13230:13293   */\n      tag_308\n      jump\t// in\n    tag_483:\n        /* \"#utility.yul\":13141:13303   */\n      pop\n        /* \"#utility.yul\":13387:13391   */\n      0x20\n        /* \"#utility.yul\":13380:13385   */\n      dup4\n        /* \"#utility.yul\":13376:13392   */\n      add\n        /* \"#utility.yul\":13370:13393   */\n      mload\n        /* \"#utility.yul\":13406:13469   */\n      tag_484\n        /* \"#utility.yul\":13463:13467   */\n      0x20\n        /* \"#utility.yul\":13458:13461   */\n      dup7\n        /* \"#utility.yul\":13454:13468   */\n      add\n        /* \"#utility.yul\":13440:13452   */\n      dup3\n        /* \"#utility.yul\":13406:13469   */\n      tag_309\n      jump\t// in\n    tag_484:\n        /* \"#utility.yul\":13313:13479   */\n      pop\n        /* \"#utility.yul\":13561:13565   */\n      0x40\n        /* \"#utility.yul\":13554:13559   */\n      dup4\n        /* \"#utility.yul\":13550:13566   */\n      add\n        /* \"#utility.yul\":13544:13567   */\n      mload\n        /* \"#utility.yul\":13614:13617   */\n      dup5\n        /* \"#utility.yul\":13608:13612   */\n      dup3\n        /* \"#utility.yul\":13604:13618   */\n      sub\n        /* \"#utility.yul\":13597:13601   */\n      0x40\n        /* \"#utility.yul\":13592:13595   */\n      dup7\n        /* \"#utility.yul\":13588:13602   */\n      add\n        /* \"#utility.yul\":13581:13619   */\n      mstore\n        /* \"#utility.yul\":13640:13713   */\n      tag_485\n        /* \"#utility.yul\":13708:13712   */\n      dup3\n        /* \"#utility.yul\":13694:13706   */\n      dup3\n        /* \"#utility.yul\":13640:13713   */\n      tag_318\n      jump\t// in\n    tag_485:\n        /* \"#utility.yul\":13632:13713   */\n      swap2\n      pop\n        /* \"#utility.yul\":13489:13724   */\n      pop\n        /* \"#utility.yul\":13813:13817   */\n      0x60\n        /* \"#utility.yul\":13806:13811   */\n      dup4\n        /* \"#utility.yul\":13802:13818   */\n      add\n        /* \"#utility.yul\":13796:13819   */\n      mload\n        /* \"#utility.yul\":13866:13869   */\n      dup5\n        /* \"#utility.yul\":13860:13864   */\n      dup3\n        /* \"#utility.yul\":13856:13870   */\n      sub\n        /* \"#utility.yul\":13849:13853   */\n      0x60\n        /* \"#utility.yul\":13844:13847   */\n      dup7\n        /* \"#utility.yul\":13840:13854   */\n      add\n        /* \"#utility.yul\":13833:13871   */\n      mstore\n        /* \"#utility.yul\":13892:13965   */\n      tag_486\n        /* \"#utility.yul\":13960:13964   */\n      dup3\n        /* \"#utility.yul\":13946:13958   */\n      dup3\n        /* \"#utility.yul\":13892:13965   */\n      tag_318\n      jump\t// in\n    tag_486:\n        /* \"#utility.yul\":13884:13965   */\n      swap2\n      pop\n        /* \"#utility.yul\":13734:13976   */\n      pop\n        /* \"#utility.yul\":14071:14075   */\n      0x80\n        /* \"#utility.yul\":14064:14069   */\n      dup4\n        /* \"#utility.yul\":14060:14076   */\n      add\n        /* \"#utility.yul\":14054:14077   */\n      mload\n        /* \"#utility.yul\":14090:14153   */\n      tag_487\n        /* \"#utility.yul\":14147:14151   */\n      0x80\n        /* \"#utility.yul\":14142:14145   */\n      dup7\n        /* \"#utility.yul\":14138:14152   */\n      add\n        /* \"#utility.yul\":14124:14136   */\n      dup3\n        /* \"#utility.yul\":14090:14153   */\n      tag_308\n      jump\t// in\n    tag_487:\n        /* \"#utility.yul\":13986:14163   */\n      pop\n        /* \"#utility.yul\":14251:14255   */\n      0xa0\n        /* \"#utility.yul\":14244:14249   */\n      dup4\n        /* \"#utility.yul\":14240:14256   */\n      add\n        /* \"#utility.yul\":14234:14257   */\n      mload\n        /* \"#utility.yul\":14270:14333   */\n      tag_488\n        /* \"#utility.yul\":14327:14331   */\n      0xa0\n        /* \"#utility.yul\":14322:14325   */\n      dup7\n        /* \"#utility.yul\":14318:14332   */\n      add\n        /* \"#utility.yul\":14304:14316   */\n      dup3\n        /* \"#utility.yul\":14270:14333   */\n      tag_308\n      jump\t// in\n    tag_488:\n        /* \"#utility.yul\":14173:14343   */\n      pop\n        /* \"#utility.yul\":14432:14436   */\n      0xc0\n        /* \"#utility.yul\":14425:14430   */\n      dup4\n        /* \"#utility.yul\":14421:14437   */\n      add\n        /* \"#utility.yul\":14415:14438   */\n      mload\n        /* \"#utility.yul\":14451:14514   */\n      tag_489\n        /* \"#utility.yul\":14508:14512   */\n      0xc0\n        /* \"#utility.yul\":14503:14506   */\n      dup7\n        /* \"#utility.yul\":14499:14513   */\n      add\n        /* \"#utility.yul\":14485:14497   */\n      dup3\n        /* \"#utility.yul\":14451:14514   */\n      tag_308\n      jump\t// in\n    tag_489:\n        /* \"#utility.yul\":14353:14524   */\n      pop\n        /* \"#utility.yul\":14610:14614   */\n      0xe0\n        /* \"#utility.yul\":14603:14608   */\n      dup4\n        /* \"#utility.yul\":14599:14615   */\n      add\n        /* \"#utility.yul\":14593:14616   */\n      mload\n        /* \"#utility.yul\":14663:14666   */\n      dup5\n        /* \"#utility.yul\":14657:14661   */\n      dup3\n        /* \"#utility.yul\":14653:14667   */\n      sub\n        /* \"#utility.yul\":14646:14650   */\n      0xe0\n        /* \"#utility.yul\":14641:14644   */\n      dup7\n        /* \"#utility.yul\":14637:14651   */\n      add\n        /* \"#utility.yul\":14630:14668   */\n      mstore\n        /* \"#utility.yul\":14689:14792   */\n      tag_490\n        /* \"#utility.yul\":14787:14791   */\n      dup3\n        /* \"#utility.yul\":14773:14785   */\n      dup3\n        /* \"#utility.yul\":14689:14792   */\n      tag_324\n      jump\t// in\n    tag_490:\n        /* \"#utility.yul\":14681:14792   */\n      swap2\n      pop\n        /* \"#utility.yul\":14534:14803   */\n      pop\n        /* \"#utility.yul\":14820:14824   */\n      dup1\n        /* \"#utility.yul\":14813:14824   */\n      swap2\n      pop\n        /* \"#utility.yul\":13093:14830   */\n      pop\n        /* \"#utility.yul\":12983:14830   */\n      swap3\n      swap2\n      pop\n      pop\n      jump\t// out\n        /* \"#utility.yul\":14836:15084   */\n    tag_326:\n        /* \"#utility.yul\":14951:14961   */\n      0x00\n        /* \"#utility.yul\":14986:15078   */\n      tag_492\n        /* \"#utility.yul\":15074:15077   */\n      dup4\n        /* \"#utility.yul\":15066:15072   */\n      dup4\n        /* \"#utility.yul\":14986:15078   */\n      tag_325\n      jump\t// in\n    tag_492:\n        /* \"#utility.yul\":14972:15078   */\n      swap1\n      pop\n        /* \"#utility.yul\":14836:15084   */\n      swap3\n      swap2\n      pop\n      pop\n      jump\t// out\n        /* \"#utility.yul\":15090:15226   */\n    tag_327:\n        /* \"#utility.yul\":15183:15187   */\n      0x00\n        /* \"#utility.yul\":15215:15219   */\n      0x20\n        /* \"#utility.yul\":15210:15213   */\n      dup3\n        /* \"#utility.yul\":15206:15220   */\n      add\n        /* \"#utility.yul\":15198:15220   */\n      swap1\n      pop\n        /* \"#utility.yul\":15090:15226   */\n      swap2\n      swap1\n      pop\n      jump\t// out\n        /* \"#utility.yul\":15302:16397   */\n    tag_328:\n        /* \"#utility.yul\":15467:15470   */\n      0x00\n        /* \"#utility.yul\":15496:15573   */\n      tag_495\n        /* \"#utility.yul\":15567:15572   */\n      dup3\n        /* \"#utility.yul\":15496:15573   */\n      tag_314\n      jump\t// in\n    tag_495:\n        /* \"#utility.yul\":15589:15698   */\n      tag_496\n        /* \"#utility.yul\":15691:15697   */\n      dup2\n        /* \"#utility.yul\":15686:15689   */\n      dup6\n        /* \"#utility.yul\":15589:15698   */\n      tag_315\n      jump\t// in\n    tag_496:\n        /* \"#utility.yul\":15582:15698   */\n      swap4\n      pop\n        /* \"#utility.yul\":15724:15727   */\n      dup4\n        /* \"#utility.yul\":15769:15773   */\n      0x20\n        /* \"#utility.yul\":15761:15767   */\n      dup3\n        /* \"#utility.yul\":15757:15774   */\n      mul\n        /* \"#utility.yul\":15752:15755   */\n      dup6\n        /* \"#utility.yul\":15748:15775   */\n      add\n        /* \"#utility.yul\":15799:15878   */\n      tag_497\n        /* \"#utility.yul\":15872:15877   */\n      dup6\n        /* \"#utility.yul\":15799:15878   */\n      tag_316\n      jump\t// in\n    tag_497:\n        /* \"#utility.yul\":15901:15908   */\n      dup1\n        /* \"#utility.yul\":15932:15933   */\n      0x00\n        /* \"#utility.yul\":15917:16352   */\n    tag_498:\n        /* \"#utility.yul\":15942:15948   */\n      dup6\n        /* \"#utility.yul\":15939:15940   */\n      dup2\n        /* \"#utility.yul\":15936:15949   */\n      lt\n        /* \"#utility.yul\":15917:16352   */\n      iszero\n      tag_500\n      jumpi\n        /* \"#utility.yul\":16013:16022   */\n      dup5\n        /* \"#utility.yul\":16007:16011   */\n      dup5\n        /* \"#utility.yul\":16003:16023   */\n      sub\n        /* \"#utility.yul\":15998:16001   */\n      dup10\n        /* \"#utility.yul\":15991:16024   */\n      mstore\n        /* \"#utility.yul\":16064:16070   */\n      dup2\n        /* \"#utility.yul\":16058:16071   */\n      mload\n        /* \"#utility.yul\":16092:16202   */\n      tag_501\n        /* \"#utility.yul\":16197:16201   */\n      dup6\n        /* \"#utility.yul\":16182:16195   */\n      dup3\n        /* \"#utility.yul\":16092:16202   */\n      tag_326\n      jump\t// in\n    tag_501:\n        /* \"#utility.yul\":16084:16202   */\n      swap5\n      pop\n        /* \"#utility.yul\":16225:16308   */\n      tag_502\n        /* \"#utility.yul\":16301:16307   */\n      dup4\n        /* \"#utility.yul\":16225:16308   */\n      tag_327\n      jump\t// in\n    tag_502:\n        /* \"#utility.yul\":16215:16308   */\n      swap3\n      pop\n        /* \"#utility.yul\":16337:16341   */\n      0x20\n        /* \"#utility.yul\":16332:16335   */\n      dup11\n        /* \"#utility.yul\":16328:16342   */\n      add\n        /* \"#utility.yul\":16321:16342   */\n      swap10\n      pop\n        /* \"#utility.yul\":15977:16352   */\n      pop\n        /* \"#utility.yul\":15964:15965   */\n      0x01\n        /* \"#utility.yul\":15961:15962   */\n      dup2\n        /* \"#utility.yul\":15957:15966   */\n      add\n        /* \"#utility.yul\":15952:15966   */\n      swap1\n      pop\n        /* \"#utility.yul\":15917:16352   */\n      jump(tag_498)\n    tag_500:\n        /* \"#utility.yul\":15921:15935   */\n      pop\n        /* \"#utility.yul\":16368:16372   */\n      dup3\n        /* \"#utility.yul\":16361:16372   */\n      swap8\n      pop\n        /* \"#utility.yul\":16388:16391   */\n      dup8\n        /* \"#utility.yul\":16381:16391   */\n      swap6\n      pop\n        /* \"#utility.yul\":15472:16397   */\n      pop\n      pop\n      pop\n      pop\n      pop\n        /* \"#utility.yul\":15302:16397   */\n      swap3\n      swap2\n      pop\n      pop\n      jump\t// out\n        /* \"#utility.yul\":16403:16868   */\n    tag_54:\n        /* \"#utility.yul\":16592:16596   */\n      0x00\n        /* \"#utility.yul\":16630:16632   */\n      0x20\n        /* \"#utility.yul\":16619:16628   */\n      dup3\n        /* \"#utility.yul\":16615:16633   */\n      add\n        /* \"#utility.yul\":16607:16633   */\n      swap1\n      pop\n        /* \"#utility.yul\":16679:16688   */\n      dup2\n        /* \"#utility.yul\":16673:16677   */\n      dup2\n        /* \"#utility.yul\":16669:16689   */\n      sub\n        /* \"#utility.yul\":16665:16666   */\n      0x00\n        /* \"#utility.yul\":16654:16663   */\n      dup4\n        /* \"#utility.yul\":16650:16667   */\n      add\n        /* \"#utility.yul\":16643:16690   */\n      mstore\n        /* \"#utility.yul\":16707:16861   */\n      tag_504\n        /* \"#utility.yul\":16856:16860   */\n      dup2\n        /* \"#utility.yul\":16847:16853   */\n      dup5\n        /* \"#utility.yul\":16707:16861   */\n      tag_328\n      jump\t// in\n    tag_504:\n        /* \"#utility.yul\":16699:16861   */\n      swap1\n      pop\n        /* \"#utility.yul\":16403:16868   */\n      swap3\n      swap2\n      pop\n      pop\n      jump\t// out\n        /* \"#utility.yul\":16874:17054   */\n    tag_329:\n        /* \"#utility.yul\":16922:16999   */\n      0x4e487b7100000000000000000000000000000000000000000000000000000000\n        /* \"#utility.yul\":16919:16920   */\n      0x00\n        /* \"#utility.yul\":16912:17000   */\n      mstore\n        /* \"#utility.yul\":17019:17023   */\n      0x22\n        /* \"#utility.yul\":17016:17017   */\n      0x04\n        /* \"#utility.yul\":17009:17024   */\n      mstore\n        /* \"#utility.yul\":17043:17047   */\n      0x24\n        /* \"#utility.yul\":17040:17041   */\n      0x00\n        /* \"#utility.yul\":17033:17048   */\n      revert\n        /* \"#utility.yul\":17060:17380   */\n    tag_65:\n        /* \"#utility.yul\":17104:17110   */\n      0x00\n        /* \"#utility.yul\":17141:17142   */\n      0x02\n        /* \"#utility.yul\":17135:17139   */\n      dup3\n        /* \"#utility.yul\":17131:17143   */\n      div\n        /* \"#utility.yul\":17121:17143   */\n      swap1\n      pop\n        /* \"#utility.yul\":17188:17189   */\n      0x01\n        /* \"#utility.yul\":17182:17186   */\n      dup3\n        /* \"#utility.yul\":17178:17190   */\n      and\n        /* \"#utility.yul\":17209:17227   */\n      dup1\n        /* \"#utility.yul\":17199:17280   */\n      tag_507\n      jumpi\n        /* \"#utility.yul\":17265:17269   */\n      0x7f\n        /* \"#utility.yul\":17257:17263   */\n      dup3\n        /* \"#utility.yul\":17253:17270   */\n      and\n        /* \"#utility.yul\":17243:17270   */\n      swap2\n      pop\n        /* \"#utility.yul\":17199:17280   */\n    tag_507:\n        /* \"#utility.yul\":17327:17329   */\n      0x20\n        /* \"#utility.yul\":17319:17325   */\n      dup3\n        /* \"#utility.yul\":17316:17330   */\n      lt\n        /* \"#utility.yul\":17296:17314   */\n      dup2\n        /* \"#utility.yul\":17293:17331   */\n      sub\n        /* \"#utility.yul\":17290:17374   */\n      tag_508\n      jumpi\n        /* \"#utility.yul\":17346:17364   */\n      tag_509\n      tag_329\n      jump\t// in\n    tag_509:\n        /* \"#utility.yul\":17290:17374   */\n    tag_508:\n        /* \"#utility.yul\":17111:17380   */\n      pop\n        /* \"#utility.yul\":17060:17380   */\n      swap2\n      swap1\n      pop\n      jump\t// out\n        /* \"#utility.yul\":17386:17617   */\n    tag_330:\n        /* \"#utility.yul\":17526:17560   */\n      0x4d696e696d756d206f666665722070726963652073686f756c64206265206772\n        /* \"#utility.yul\":17522:17523   */\n      0x00\n        /* \"#utility.yul\":17514:17520   */\n      dup3\n        /* \"#utility.yul\":17510:17524   */\n      add\n        /* \"#utility.yul\":17503:17561   */\n      mstore\n        /* \"#utility.yul\":17595:17609   */\n      0x6561746572207468616e20300000000000000000000000000000000000000000\n        /* \"#utility.yul\":17590:17592   */\n      0x20\n        /* \"#utility.yul\":17582:17588   */\n      dup3\n        /* \"#utility.yul\":17578:17593   */\n      add\n        /* \"#utility.yul\":17571:17610   */\n      mstore\n        /* \"#utility.yul\":17386:17617   */\n      pop\n      jump\t// out\n        /* \"#utility.yul\":17623:17989   */\n    tag_331:\n        /* \"#utility.yul\":17765:17768   */\n      0x00\n        /* \"#utility.yul\":17786:17853   */\n      tag_512\n        /* \"#utility.yul\":17850:17852   */\n      0x2c\n        /* \"#utility.yul\":17845:17848   */\n      dup4\n        /* \"#utility.yul\":17786:17853   */\n      tag_295\n      jump\t// in\n    tag_512:\n        /* \"#utility.yul\":17779:17853   */\n      swap2\n      pop\n        /* \"#utility.yul\":17862:17955   */\n      tag_513\n        /* \"#utility.yul\":17951:17954   */\n      dup3\n        /* \"#utility.yul\":17862:17955   */\n      tag_330\n      jump\t// in\n    tag_513:\n        /* \"#utility.yul\":17980:17982   */\n      0x40\n        /* \"#utility.yul\":17975:17978   */\n      dup3\n        /* \"#utility.yul\":17971:17983   */\n      add\n        /* \"#utility.yul\":17964:17983   */\n      swap1\n      pop\n        /* \"#utility.yul\":17623:17989   */\n      swap2\n      swap1\n      pop\n      jump\t// out\n        /* \"#utility.yul\":17995:18414   */\n    tag_78:\n        /* \"#utility.yul\":18161:18165   */\n      0x00\n        /* \"#utility.yul\":18199:18201   */\n      0x20\n        /* \"#utility.yul\":18188:18197   */\n      dup3\n        /* \"#utility.yul\":18184:18202   */\n      add\n        /* \"#utility.yul\":18176:18202   */\n      swap1\n      pop\n        /* \"#utility.yul\":18248:18257   */\n      dup2\n        /* \"#utility.yul\":18242:18246   */\n      dup2\n        /* \"#utility.yul\":18238:18258   */\n      sub\n        /* \"#utility.yul\":18234:18235   */\n      0x00\n        /* \"#utility.yul\":18223:18232   */\n      dup4\n        /* \"#utility.yul\":18219:18236   */\n      add\n        /* \"#utility.yul\":18212:18259   */\n      mstore\n        /* \"#utility.yul\":18276:18407   */\n      tag_515\n        /* \"#utility.yul\":18402:18406   */\n      dup2\n        /* \"#utility.yul\":18276:18407   */\n      tag_331\n      jump\t// in\n    tag_515:\n        /* \"#utility.yul\":18268:18407   */\n      swap1\n      pop\n        /* \"#utility.yul\":17995:18414   */\n      swap2\n      swap1\n      pop\n      jump\t// out\n        /* \"#utility.yul\":18420:18600   */\n    tag_81:\n        /* \"#utility.yul\":18468:18545   */\n      0x4e487b7100000000000000000000000000000000000000000000000000000000\n        /* \"#utility.yul\":18465:18466   */\n      0x00\n        /* \"#utility.yul\":18458:18546   */\n      mstore\n        /* \"#utility.yul\":18565:18569   */\n      0x41\n        /* \"#utility.yul\":18562:18563   */\n      0x04\n        /* \"#utility.yul\":18555:18570   */\n      mstore\n        /* \"#utility.yul\":18589:18593   */\n      0x24\n        /* \"#utility.yul\":18586:18587   */\n      0x00\n        /* \"#utility.yul\":18579:18594   */\n      revert\n        /* \"#utility.yul\":18606:18786   */\n    tag_332:\n        /* \"#utility.yul\":18654:18731   */\n      0x4e487b7100000000000000000000000000000000000000000000000000000000\n        /* \"#utility.yul\":18651:18652   */\n      0x00\n        /* \"#utility.yul\":18644:18732   */\n      mstore\n        /* \"#utility.yul\":18751:18755   */\n      0x11\n        /* \"#utility.yul\":18748:18749   */\n      0x04\n        /* \"#utility.yul\":18741:18756   */\n      mstore\n        /* \"#utility.yul\":18775:18779   */\n      0x24\n        /* \"#utility.yul\":18772:18773   */\n      0x00\n        /* \"#utility.yul\":18765:18780   */\n      revert\n        /* \"#utility.yul\":18792:18983   */\n    tag_84:\n        /* \"#utility.yul\":18832:18835   */\n      0x00\n        /* \"#utility.yul\":18851:18871   */\n      tag_519\n        /* \"#utility.yul\":18869:18870   */\n      dup3\n        /* \"#utility.yul\":18851:18871   */\n      tag_287\n      jump\t// in\n    tag_519:\n        /* \"#utility.yul\":18846:18871   */\n      swap2\n      pop\n        /* \"#utility.yul\":18885:18905   */\n      tag_520\n        /* \"#utility.yul\":18903:18904   */\n      dup4\n        /* \"#utility.yul\":18885:18905   */\n      tag_287\n      jump\t// in\n    tag_520:\n        /* \"#utility.yul\":18880:18905   */\n      swap3\n      pop\n        /* \"#utility.yul\":18928:18929   */\n      dup3\n        /* \"#utility.yul\":18925:18926   */\n      dup3\n        /* \"#utility.yul\":18921:18930   */\n      add\n        /* \"#utility.yul\":18914:18930   */\n      swap1\n      pop\n        /* \"#utility.yul\":18949:18952   */\n      dup1\n        /* \"#utility.yul\":18946:18947   */\n      dup3\n        /* \"#utility.yul\":18943:18953   */\n      gt\n        /* \"#utility.yul\":18940:18976   */\n      iszero\n      tag_521\n      jumpi\n        /* \"#utility.yul\":18956:18974   */\n      tag_522\n      tag_332\n      jump\t// in\n    tag_522:\n        /* \"#utility.yul\":18940:18976   */\n    tag_521:\n        /* \"#utility.yul\":18792:18983   */\n      swap3\n      swap2\n      pop\n      pop\n      jump\t// out\n        /* \"#utility.yul\":18989:19130   */\n    tag_333:\n        /* \"#utility.yul\":19038:19042   */\n      0x00\n        /* \"#utility.yul\":19061:19064   */\n      dup2\n        /* \"#utility.yul\":19053:19064   */\n      swap1\n      pop\n        /* \"#utility.yul\":19084:19087   */\n      dup2\n        /* \"#utility.yul\":19081:19082   */\n      0x00\n        /* \"#utility.yul\":19074:19088   */\n      mstore\n        /* \"#utility.yul\":19118:19122   */\n      0x20\n        /* \"#utility.yul\":19115:19116   */\n      0x00\n        /* \"#utility.yul\":19105:19123   */\n      keccak256\n        /* \"#utility.yul\":19097:19123   */\n      swap1\n      pop\n        /* \"#utility.yul\":18989:19130   */\n      swap2\n      swap1\n      pop\n      jump\t// out\n        /* \"#utility.yul\":19136:19229   */\n    tag_334:\n        /* \"#utility.yul\":19173:19179   */\n      0x00\n        /* \"#utility.yul\":19220:19222   */\n      0x20\n        /* \"#utility.yul\":19215:19217   */\n      0x1f\n        /* \"#utility.yul\":19208:19213   */\n      dup4\n        /* \"#utility.yul\":19204:19218   */\n      add\n        /* \"#utility.yul\":19200:19223   */\n      div\n        /* \"#utility.yul\":19190:19223   */\n      swap1\n      pop\n        /* \"#utility.yul\":19136:19229   */\n      swap2\n      swap1\n      pop\n      jump\t// out\n        /* \"#utility.yul\":19235:19342   */\n    tag_335:\n        /* \"#utility.yul\":19279:19287   */\n      0x00\n        /* \"#utility.yul\":19329:19334   */\n      dup3\n        /* \"#utility.yul\":19323:19327   */\n      dup3\n        /* \"#utility.yul\":19319:19335   */\n      shl\n        /* \"#utility.yul\":19298:19335   */\n      swap1\n      pop\n        /* \"#utility.yul\":19235:19342   */\n      swap3\n      swap2\n      pop\n      pop\n      jump\t// out\n        /* \"#utility.yul\":19348:19741   */\n    tag_336:\n        /* \"#utility.yul\":19417:19423   */\n      0x00\n        /* \"#utility.yul\":19467:19468   */\n      0x08\n        /* \"#utility.yul\":19455:19465   */\n      dup4\n        /* \"#utility.yul\":19451:19469   */\n      mul\n        /* \"#utility.yul\":19490:19587   */\n      tag_527\n        /* \"#utility.yul\":19520:19586   */\n      0xffffffffffffffffffffffffffffffffffffffffffffffffffffffffffffffff\n        /* \"#utility.yul\":19509:19518   */\n      dup3\n        /* \"#utility.yul\":19490:19587   */\n      tag_335\n      jump\t// in\n    tag_527:\n        /* \"#utility.yul\":19608:19647   */\n      tag_528\n        /* \"#utility.yul\":19638:19646   */\n      dup7\n        /* \"#utility.yul\":19627:19636   */\n      dup4\n        /* \"#utility.yul\":19608:19647   */\n      tag_335\n      jump\t// in\n    tag_528:\n        /* \"#utility.yul\":19596:19647   */\n      swap6\n      pop\n        /* \"#utility.yul\":19680:19684   */\n      dup1\n        /* \"#utility.yul\":19676:19685   */\n      not\n        /* \"#utility.yul\":19669:19674   */\n      dup5\n        /* \"#utility.yul\":19665:19686   */\n      and\n        /* \"#utility.yul\":19656:19686   */\n      swap4\n      pop\n        /* \"#utility.yul\":19729:19733   */\n      dup1\n        /* \"#utility.yul\":19719:19727   */\n      dup7\n        /* \"#utility.yul\":19715:19734   */\n      and\n        /* \"#utility.yul\":19708:19713   */\n      dup5\n        /* \"#utility.yul\":19705:19735   */\n      or\n        /* \"#utility.yul\":19695:19735   */\n      swap3\n      pop\n        /* \"#utility.yul\":19424:19741   */\n      pop\n      pop\n        /* \"#utility.yul\":19348:19741   */\n      swap4\n      swap3\n      pop\n      pop\n      pop\n      jump\t// out\n        /* \"#utility.yul\":19747:19807   */\n    tag_337:\n        /* \"#utility.yul\":19775:19778   */\n      0x00\n        /* \"#utility.yul\":19796:19801   */\n      dup2\n        /* \"#utility.yul\":19789:19801   */\n      swap1\n      pop\n        /* \"#utility.yul\":19747:19807   */\n      swap2\n      swap1\n      pop\n      jump\t// out\n        /* \"#utility.yul\":19813:19955   */\n    tag_338:\n        /* \"#utility.yul\":19863:19872   */\n      0x00\n        /* \"#utility.yul\":19896:19949   */\n      tag_531\n        /* \"#utility.yul\":19914:19948   */\n      tag_532\n        /* \"#utility.yul\":19923:19947   */\n      tag_533\n        /* \"#utility.yul\":19941:19946   */\n      dup5\n        /* \"#utility.yul\":19923:19947   */\n      tag_287\n      jump\t// in\n    tag_533:\n        /* \"#utility.yul\":19914:19948   */\n      tag_337\n      jump\t// in\n    tag_532:\n        /* \"#utility.yul\":19896:19949   */\n      tag_287\n      jump\t// in\n    tag_531:\n        /* \"#utility.yul\":19883:19949   */\n      swap1\n      pop\n        /* \"#utility.yul\":19813:19955   */\n      swap2\n      swap1\n      pop\n      jump\t// out\n        /* \"#utility.yul\":19961:20036   */\n    tag_339:\n        /* \"#utility.yul\":20004:20007   */\n      0x00\n        /* \"#utility.yul\":20025:20030   */\n      dup2\n        /* \"#utility.yul\":20018:20030   */\n      swap1\n      pop\n        /* \"#utility.yul\":19961:20036   */\n      swap2\n      swap1\n      pop\n      jump\t// out\n        /* \"#utility.yul\":20042:20311   */\n    tag_340:\n        /* \"#utility.yul\":20152:20191   */\n      tag_536\n        /* \"#utility.yul\":20183:20190   */\n      dup4\n        /* \"#utility.yul\":20152:20191   */\n      tag_338\n      jump\t// in\n    tag_536:\n        /* \"#utility.yul\":20213:20304   */\n      tag_537\n        /* \"#utility.yul\":20262:20303   */\n      tag_538\n        /* \"#utility.yul\":20286:20302   */\n      dup3\n        /* \"#utility.yul\":20262:20303   */\n      tag_339\n      jump\t// in\n    tag_538:\n        /* \"#utility.yul\":20254:20260   */\n      dup5\n        /* \"#utility.yul\":20247:20251   */\n      dup5\n        /* \"#utility.yul\":20241:20252   */\n      sload\n        /* \"#utility.yul\":20213:20304   */\n      tag_336\n      jump\t// in\n    tag_537:\n        /* \"#utility.yul\":20207:20211   */\n      dup3\n        /* \"#utility.yul\":20200:20305   */\n      sstore\n        /* \"#utility.yul\":20118:20311   */\n      pop\n        /* \"#utility.yul\":20042:20311   */\n      pop\n      pop\n      pop\n      jump\t// out\n        /* \"#utility.yul\":20317:20390   */\n    tag_341:\n        /* \"#utility.yul\":20362:20365   */\n      0x00\n        /* \"#utility.yul\":20317:20390   */\n      swap1\n      jump\t// out\n        /* \"#utility.yul\":20396:20585   */\n    tag_342:\n        /* \"#utility.yul\":20473:20505   */\n      tag_541\n      tag_341\n      jump\t// in\n    tag_541:\n        /* \"#utility.yul\":20514:20579   */\n      tag_542\n        /* \"#utility.yul\":20572:20578   */\n      dup2\n        /* \"#utility.yul\":20564:20570   */\n      dup5\n        /* \"#utility.yul\":20558:20562   */\n      dup5\n        /* \"#utility.yul\":20514:20579   */\n      tag_340\n      jump\t// in\n    tag_542:\n        /* \"#utility.yul\":20449:20585   */\n      pop\n        /* \"#utility.yul\":20396:20585   */\n      pop\n      pop\n      jump\t// out\n        /* \"#utility.yul\":20591:20777   */\n    tag_343:\n        /* \"#utility.yul\":20651:20771   */\n    tag_544:\n        /* \"#utility.yul\":20668:20671   */\n      dup2\n        /* \"#utility.yul\":20661:20666   */\n      dup2\n        /* \"#utility.yul\":20658:20672   */\n      lt\n        /* \"#utility.yul\":20651:20771   */\n      iszero\n      tag_546\n      jumpi\n        /* \"#utility.yul\":20722:20761   */\n      tag_547\n        /* \"#utility.yul\":20759:20760   */\n      0x00\n        /* \"#utility.yul\":20752:20757   */\n      dup3\n        /* \"#utility.yul\":20722:20761   */\n      tag_342\n      jump\t// in\n    tag_547:\n        /* \"#utility.yul\":20695:20696   */\n      0x01\n        /* \"#utility.yul\":20688:20693   */\n      dup2\n        /* \"#utility.yul\":20684:20697   */\n      add\n        /* \"#utility.yul\":20675:20697   */\n      swap1\n      pop\n        /* \"#utility.yul\":20651:20771   */\n      jump(tag_544)\n    tag_546:\n        /* \"#utility.yul\":20591:20777   */\n      pop\n      pop\n      jump\t// out\n        /* \"#utility.yul\":20783:21326   */\n    tag_344:\n        /* \"#utility.yul\":20884:20886   */\n      0x1f\n        /* \"#utility.yul\":20879:20882   */\n      dup3\n        /* \"#utility.yul\":20876:20887   */\n      gt\n        /* \"#utility.yul\":20873:21319   */\n      iszero\n      tag_549\n      jumpi\n        /* \"#utility.yul\":20918:20956   */\n      tag_550\n        /* \"#utility.yul\":20950:20955   */\n      dup2\n        /* \"#utility.yul\":20918:20956   */\n      tag_333\n      jump\t// in\n    tag_550:\n        /* \"#utility.yul\":21002:21031   */\n      tag_551\n        /* \"#utility.yul\":21020:21030   */\n      dup5\n        /* \"#utility.yul\":21002:21031   */\n      tag_334\n      jump\t// in\n    tag_551:\n        /* \"#utility.yul\":20992:21000   */\n      dup2\n        /* \"#utility.yul\":20988:21032   */\n      add\n        /* \"#utility.yul\":21185:21187   */\n      0x20\n        /* \"#utility.yul\":21173:21183   */\n      dup6\n        /* \"#utility.yul\":21170:21188   */\n      lt\n        /* \"#utility.yul\":21167:21216   */\n      iszero\n      tag_552\n      jumpi\n        /* \"#utility.yul\":21206:21214   */\n      dup2\n        /* \"#utility.yul\":21191:21214   */\n      swap1\n      pop\n        /* \"#utility.yul\":21167:21216   */\n    tag_552:\n        /* \"#utility.yul\":21229:21309   */\n      tag_553\n        /* \"#utility.yul\":21285:21307   */\n      tag_554\n        /* \"#utility.yul\":21303:21306   */\n      dup6\n        /* \"#utility.yul\":21285:21307   */\n      tag_334\n      jump\t// in\n    tag_554:\n        /* \"#utility.yul\":21275:21283   */\n      dup4\n        /* \"#utility.yul\":21271:21308   */\n      add\n        /* \"#utility.yul\":21258:21269   */\n      dup3\n        /* \"#utility.yul\":21229:21309   */\n      tag_343\n      jump\t// in\n    tag_553:\n        /* \"#utility.yul\":20888:21319   */\n      pop\n      pop\n        /* \"#utility.yul\":20873:21319   */\n    tag_549:\n        /* \"#utility.yul\":20783:21326   */\n      pop\n      pop\n      pop\n      jump\t// out\n        /* \"#utility.yul\":21332:21449   */\n    tag_345:\n        /* \"#utility.yul\":21386:21394   */\n      0x00\n        /* \"#utility.yul\":21436:21441   */\n      dup3\n        /* \"#utility.yul\":21430:21434   */\n      dup3\n        /* \"#utility.yul\":21426:21442   */\n      shr\n        /* \"#utility.yul\":21405:21442   */\n      swap1\n      pop\n        /* \"#utility.yul\":21332:21449   */\n      swap3\n      swap2\n      pop\n      pop\n      jump\t// out\n        /* \"#utility.yul\":21455:21624   */\n    tag_346:\n        /* \"#utility.yul\":21499:21505   */\n      0x00\n        /* \"#utility.yul\":21532:21583   */\n      tag_557\n        /* \"#utility.yul\":21580:21581   */\n      0x00\n        /* \"#utility.yul\":21576:21582   */\n      not\n        /* \"#utility.yul\":21568:21573   */\n      dup5\n        /* \"#utility.yul\":21565:21566   */\n      0x08\n        /* \"#utility.yul\":21561:21574   */\n      mul\n        /* \"#utility.yul\":21532:21583   */\n      tag_345\n      jump\t// in\n    tag_557:\n        /* \"#utility.yul\":21528:21584   */\n      not\n        /* \"#utility.yul\":21613:21617   */\n      dup1\n        /* \"#utility.yul\":21607:21611   */\n      dup4\n        /* \"#utility.yul\":21603:21618   */\n      and\n        /* \"#utility.yul\":21593:21618   */\n      swap2\n      pop\n        /* \"#utility.yul\":21506:21624   */\n      pop\n        /* \"#utility.yul\":21455:21624   */\n      swap3\n      swap2\n      pop\n      pop\n      jump\t// out\n        /* \"#utility.yul\":21629:21924   */\n    tag_347:\n        /* \"#utility.yul\":21705:21709   */\n      0x00\n        /* \"#utility.yul\":21851:21880   */\n      tag_559\n        /* \"#utility.yul\":21876:21879   */\n      dup4\n        /* \"#utility.yul\":21870:21874   */\n      dup4\n        /* \"#utility.yul\":21851:21880   */\n      tag_346\n      jump\t// in\n    tag_559:\n        /* \"#utility.yul\":21843:21880   */\n      swap2\n      pop\n        /* \"#utility.yul\":21913:21916   */\n      dup3\n        /* \"#utility.yul\":21910:21911   */\n      0x02\n        /* \"#utility.yul\":21906:21917   */\n      mul\n        /* \"#utility.yul\":21900:21904   */\n      dup3\n        /* \"#utility.yul\":21897:21918   */\n      or\n        /* \"#utility.yul\":21889:21918   */\n      swap1\n      pop\n        /* \"#utility.yul\":21629:21924   */\n      swap3\n      swap2\n      pop\n      pop\n      jump\t// out\n        /* \"#utility.yul\":21929:23324   */\n    tag_86:\n        /* \"#utility.yul\":22046:22083   */\n      tag_561\n        /* \"#utility.yul\":22079:22082   */\n      dup3\n        /* \"#utility.yul\":22046:22083   */\n      tag_294\n      jump\t// in\n    tag_561:\n        /* \"#utility.yul\":22148:22166   */\n      0xffffffffffffffff\n        /* \"#utility.yul\":22140:22146   */\n      dup2\n        /* \"#utility.yul\":22137:22167   */\n      gt\n        /* \"#utility.yul\":22134:22190   */\n      iszero\n      tag_562\n      jumpi\n        /* \"#utility.yul\":22170:22188   */\n      tag_563\n      tag_81\n      jump\t// in\n    tag_563:\n        /* \"#utility.yul\":22134:22190   */\n    tag_562:\n        /* \"#utility.yul\":22214:22252   */\n      tag_564\n        /* \"#utility.yul\":22246:22250   */\n      dup3\n        /* \"#utility.yul\":22240:22251   */\n      sload\n        /* \"#utility.yul\":22214:22252   */\n      tag_65\n      jump\t// in\n    tag_564:\n        /* \"#utility.yul\":22299:22366   */\n      tag_565\n        /* \"#utility.yul\":22359:22365   */\n      dup3\n        /* \"#utility.yul\":22351:22357   */\n      dup3\n        /* \"#utility.yul\":22345:22349   */\n      dup6\n        /* \"#utility.yul\":22299:22366   */\n      tag_344\n      jump\t// in\n    tag_565:\n        /* \"#utility.yul\":22393:22394   */\n      0x00\n        /* \"#utility.yul\":22417:22421   */\n      0x20\n        /* \"#utility.yul\":22404:22421   */\n      swap1\n      pop\n        /* \"#utility.yul\":22449:22451   */\n      0x1f\n        /* \"#utility.yul\":22441:22447   */\n      dup4\n        /* \"#utility.yul\":22438:22452   */\n      gt\n        /* \"#utility.yul\":22466:22467   */\n      0x01\n        /* \"#utility.yul\":22461:23079   */\n      dup2\n      eq\n      tag_567\n      jumpi\n        /* \"#utility.yul\":23123:23124   */\n      0x00\n        /* \"#utility.yul\":23140:23146   */\n      dup5\n        /* \"#utility.yul\":23137:23214   */\n      iszero\n      tag_568\n      jumpi\n        /* \"#utility.yul\":23189:23198   */\n      dup3\n        /* \"#utility.yul\":23184:23187   */\n      dup8\n        /* \"#utility.yul\":23180:23199   */\n      add\n        /* \"#utility.yul\":23174:23200   */\n      mload\n        /* \"#utility.yul\":23165:23200   */\n      swap1\n      pop\n        /* \"#utility.yul\":23137:23214   */\n    tag_568:\n        /* \"#utility.yul\":23240:23307   */\n      tag_569\n        /* \"#utility.yul\":23300:23306   */\n      dup6\n        /* \"#utility.yul\":23293:23298   */\n      dup3\n        /* \"#utility.yul\":23240:23307   */\n      tag_347\n      jump\t// in\n    tag_569:\n        /* \"#utility.yul\":23234:23238   */\n      dup7\n        /* \"#utility.yul\":23227:23308   */\n      sstore\n        /* \"#utility.yul\":23096:23318   */\n      pop\n        /* \"#utility.yul\":22431:23318   */\n      jump(tag_566)\n        /* \"#utility.yul\":22461:23079   */\n    tag_567:\n        /* \"#utility.yul\":22513:22517   */\n      0x1f\n        /* \"#utility.yul\":22509:22518   */\n      not\n        /* \"#utility.yul\":22501:22507   */\n      dup5\n        /* \"#utility.yul\":22497:22519   */\n      and\n        /* \"#utility.yul\":22547:22584   */\n      tag_570\n        /* \"#utility.yul\":22579:22583   */\n      dup7\n        /* \"#utility.yul\":22547:22584   */\n      tag_333\n      jump\t// in\n    tag_570:\n        /* \"#utility.yul\":22606:22607   */\n      0x00\n        /* \"#utility.yul\":22620:22828   */\n    tag_571:\n        /* \"#utility.yul\":22634:22641   */\n      dup3\n        /* \"#utility.yul\":22631:22632   */\n      dup2\n        /* \"#utility.yul\":22628:22642   */\n      lt\n        /* \"#utility.yul\":22620:22828   */\n      iszero\n      tag_573\n      jumpi\n        /* \"#utility.yul\":22713:22722   */\n      dup5\n        /* \"#utility.yul\":22708:22711   */\n      dup10\n        /* \"#utility.yul\":22704:22723   */\n      add\n        /* \"#utility.yul\":22698:22724   */\n      mload\n        /* \"#utility.yul\":22690:22696   */\n      dup3\n        /* \"#utility.yul\":22683:22725   */\n      sstore\n        /* \"#utility.yul\":22764:22765   */\n      0x01\n        /* \"#utility.yul\":22756:22762   */\n      dup3\n        /* \"#utility.yul\":22752:22766   */\n      add\n        /* \"#utility.yul\":22742:22766   */\n      swap2\n      pop\n        /* \"#utility.yul\":22811:22813   */\n      0x20\n        /* \"#utility.yul\":22800:22809   */\n      dup6\n        /* \"#utility.yul\":22796:22814   */\n      add\n        /* \"#utility.yul\":22783:22814   */\n      swap5\n      pop\n        /* \"#utility.yul\":22657:22661   */\n      0x20\n        /* \"#utility.yul\":22654:22655   */\n      dup2\n        /* \"#utility.yul\":22650:22662   */\n      add\n        /* \"#utility.yul\":22645:22662   */\n      swap1\n      pop\n        /* \"#utility.yul\":22620:22828   */\n      jump(tag_571)\n    tag_573:\n        /* \"#utility.yul\":22856:22862   */\n      dup7\n        /* \"#utility.yul\":22847:22854   */\n      dup4\n        /* \"#utility.yul\":22844:22863   */\n      lt\n        /* \"#utility.yul\":22841:23020   */\n      iszero\n      tag_574\n      jumpi\n        /* \"#utility.yul\":22914:22923   */\n      dup5\n        /* \"#utility.yul\":22909:22912   */\n      dup10\n        /* \"#utility.yul\":22905:22924   */\n      add\n        /* \"#utility.yul\":22899:22925   */\n      mload\n        /* \"#utility.yul\":22957:23005   */\n      tag_575\n        /* \"#utility.yul\":22999:23003   */\n      0x1f\n        /* \"#utility.yul\":22991:22997   */\n      dup10\n        /* \"#utility.yul\":22987:23004   */\n      and\n        /* \"#utility.yul\":22976:22985   */\n      dup3\n        /* \"#utility.yul\":22957:23005   */\n      tag_346\n      jump\t// in\n    tag_575:\n        /* \"#utility.yul\":22949:22955   */\n      dup4\n        /* \"#utility.yul\":22942:23006   */\n      sstore\n        /* \"#utility.yul\":22864:23020   */\n      pop\n        /* \"#utility.yul\":22841:23020   */\n    tag_574:\n        /* \"#utility.yul\":23066:23067   */\n      0x01\n        /* \"#utility.yul\":23062:23063   */\n      0x02\n        /* \"#utility.yul\":23054:23060   */\n      dup9\n        /* \"#utility.yul\":23050:23064   */\n      mul\n        /* \"#utility.yul\":23046:23068   */\n      add\n        /* \"#utility.yul\":23040:23044   */\n      dup9\n        /* \"#utility.yul\":23033:23069   */\n      sstore\n        /* \"#utility.yul\":22468:23079   */\n      pop\n      pop\n      pop\n        /* \"#utility.yul\":22431:23318   */\n    tag_566:\n      pop\n        /* \"#utility.yul\":22021:23324   */\n      pop\n      pop\n      pop\n        /* \"#utility.yul\":21929:23324   */\n      pop\n      pop\n      jump\t// out\n        /* \"#utility.yul\":23330:23563   */\n    tag_92:\n        /* \"#utility.yul\":23369:23372   */\n      0x00\n        /* \"#utility.yul\":23392:23416   */\n      tag_577\n        /* \"#utility.yul\":23410:23415   */\n      dup3\n        /* \"#utility.yul\":23392:23416   */\n      tag_287\n      jump\t// in\n    tag_577:\n        /* \"#utility.yul\":23383:23416   */\n      swap2\n      pop\n        /* \"#utility.yul\":23438:23504   */\n      0xffffffffffffffffffffffffffffffffffffffffffffffffffffffffffffffff\n        /* \"#utility.yul\":23431:23436   */\n      dup3\n        /* \"#utility.yul\":23428:23505   */\n      sub\n        /* \"#utility.yul\":23425:23528   */\n      tag_578\n      jumpi\n        /* \"#utility.yul\":23508:23526   */\n      tag_579\n      tag_332\n      jump\t// in\n    tag_579:\n        /* \"#utility.yul\":23425:23528   */\n    tag_578:\n        /* \"#utility.yul\":23555:23556   */\n      0x01\n        /* \"#utility.yul\":23548:23553   */\n      dup3\n        /* \"#utility.yul\":23544:23557   */\n      add\n        /* \"#utility.yul\":23537:23557   */\n      swap1\n      pop\n        /* \"#utility.yul\":23330:23563   */\n      swap2\n      swap1\n      pop\n      jump\t// out\n        /* \"#utility.yul\":23569:23749   */\n    tag_105:\n        /* \"#utility.yul\":23617:23694   */\n      0x4e487b7100000000000000000000000000000000000000000000000000000000\n        /* \"#utility.yul\":23614:23615   */\n      0x00\n        /* \"#utility.yul\":23607:23695   */\n      mstore\n        /* \"#utility.yul\":23714:23718   */\n      0x32\n        /* \"#utility.yul\":23711:23712   */\n      0x04\n        /* \"#utility.yul\":23704:23719   */\n      mstore\n        /* \"#utility.yul\":23738:23742   */\n      0x24\n        /* \"#utility.yul\":23735:23736   */\n      0x00\n        /* \"#utility.yul\":23728:23743   */\n      revert\n        /* \"#utility.yul\":23755:23927   */\n    tag_348:\n        /* \"#utility.yul\":23895:23919   */\n      0x41756374696f6e20646f6573206e6f7420657869737400000000000000000000\n        /* \"#utility.yul\":23891:23892   */\n      0x00\n        /* \"#utility.yul\":23883:23889   */\n      dup3\n        /* \"#utility.yul\":23879:23893   */\n      add\n        /* \"#utility.yul\":23872:23920   */\n      mstore\n        /* \"#utility.yul\":23755:23927   */\n      pop\n      jump\t// out\n        /* \"#utility.yul\":23933:24299   */\n    tag_349:\n        /* \"#utility.yul\":24075:24078   */\n      0x00\n        /* \"#utility.yul\":24096:24163   */\n      tag_583\n        /* \"#utility.yul\":24160:24162   */\n      0x16\n        /* \"#utility.yul\":24155:24158   */\n      dup4\n        /* \"#utility.yul\":24096:24163   */\n      tag_295\n      jump\t// in\n    tag_583:\n        /* \"#utility.yul\":24089:24163   */\n      swap2\n      pop\n        /* \"#utility.yul\":24172:24265   */\n      tag_584\n        /* \"#utility.yul\":24261:24264   */\n      dup3\n        /* \"#utility.yul\":24172:24265   */\n      tag_348\n      jump\t// in\n    tag_584:\n        /* \"#utility.yul\":24290:24292   */\n      0x20\n        /* \"#utility.yul\":24285:24288   */\n      dup3\n        /* \"#utility.yul\":24281:24293   */\n      add\n        /* \"#utility.yul\":24274:24293   */\n      swap1\n      pop\n        /* \"#utility.yul\":23933:24299   */\n      swap2\n      swap1\n      pop\n      jump\t// out\n        /* \"#utility.yul\":24305:24724   */\n    tag_114:\n        /* \"#utility.yul\":24471:24475   */\n      0x00\n        /* \"#utility.yul\":24509:24511   */\n      0x20\n        /* \"#utility.yul\":24498:24507   */\n      dup3\n        /* \"#utility.yul\":24494:24512   */\n      add\n        /* \"#utility.yul\":24486:24512   */\n      swap1\n      pop\n        /* \"#utility.yul\":24558:24567   */\n      dup2\n        /* \"#utility.yul\":24552:24556   */\n      dup2\n        /* \"#utility.yul\":24548:24568   */\n      sub\n        /* \"#utility.yul\":24544:24545   */\n      0x00\n        /* \"#utility.yul\":24533:24542   */\n      dup4\n        /* \"#utility.yul\":24529:24546   */\n      add\n        /* \"#utility.yul\":24522:24569   */\n      mstore\n        /* \"#utility.yul\":24586:24717   */\n      tag_586\n        /* \"#utility.yul\":24712:24716   */\n      dup2\n        /* \"#utility.yul\":24586:24717   */\n      tag_349\n      jump\t// in\n    tag_586:\n        /* \"#utility.yul\":24578:24717   */\n      swap1\n      pop\n        /* \"#utility.yul\":24305:24724   */\n      swap2\n      swap1\n      pop\n      jump\t// out\n        /* \"#utility.yul\":24730:24895   */\n    tag_350:\n        /* \"#utility.yul\":24870:24887   */\n      0x41756374696f6e20657870697265640000000000000000000000000000000000\n        /* \"#utility.yul\":24866:24867   */\n      0x00\n        /* \"#utility.yul\":24858:24864   */\n      dup3\n        /* \"#utility.yul\":24854:24868   */\n      add\n        /* \"#utility.yul\":24847:24888   */\n      mstore\n        /* \"#utility.yul\":24730:24895   */\n      pop\n      jump\t// out\n        /* \"#utility.yul\":24901:25267   */\n    tag_351:\n        /* \"#utility.yul\":25043:25046   */\n      0x00\n        /* \"#utility.yul\":25064:25131   */\n      tag_589\n        /* \"#utility.yul\":25128:25130   */\n      0x0f\n        /* \"#utility.yul\":25123:25126   */\n      dup4\n        /* \"#utility.yul\":25064:25131   */\n      tag_295\n      jump\t// in\n    tag_589:\n        /* \"#utility.yul\":25057:25131   */\n      swap2\n      pop\n        /* \"#utility.yul\":25140:25233   */\n      tag_590\n        /* \"#utility.yul\":25229:25232   */\n      dup3\n        /* \"#utility.yul\":25140:25233   */\n      tag_350\n      jump\t// in\n    tag_590:\n        /* \"#utility.yul\":25258:25260   */\n      0x20\n        /* \"#utility.yul\":25253:25256   */\n      dup3\n        /* \"#utility.yul\":25249:25261   */\n      add\n        /* \"#utility.yul\":25242:25261   */\n      swap1\n      pop\n        /* \"#utility.yul\":24901:25267   */\n      swap2\n      swap1\n      pop\n      jump\t// out\n        /* \"#utility.yul\":25273:25692   */\n    tag_159:\n        /* \"#utility.yul\":25439:25443   */\n      0x00\n        /* \"#utility.yul\":25477:25479   */\n      0x20\n        /* \"#utility.yul\":25466:25475   */\n      dup3\n        /* \"#utility.yul\":25462:25480   */\n      add\n        /* \"#utility.yul\":25454:25480   */\n      swap1\n      pop\n        /* \"#utility.yul\":25526:25535   */\n      dup2\n        /* \"#utility.yul\":25520:25524   */\n      dup2\n        /* \"#utility.yul\":25516:25536   */\n      sub\n        /* \"#utility.yul\":25512:25513   */\n      0x00\n        /* \"#utility.yul\":25501:25510   */\n      dup4\n        /* \"#utility.yul\":25497:25514   */\n      add\n        /* \"#utility.yul\":25490:25537   */\n      mstore\n        /* \"#utility.yul\":25554:25685   */\n      tag_592\n        /* \"#utility.yul\":25680:25684   */\n      dup2\n        /* \"#utility.yul\":25554:25685   */\n      tag_351\n      jump\t// in\n    tag_592:\n        /* \"#utility.yul\":25546:25685   */\n      swap1\n      pop\n        /* \"#utility.yul\":25273:25692   */\n      swap2\n      swap1\n      pop\n      jump\t// out\n        /* \"#utility.yul\":25698:25989   */\n    tag_352:\n        /* \"#utility.yul\":25838:25872   */\n      0x50726963652073686f756c642062652067726561746572207468616e206d696e\n        /* \"#utility.yul\":25834:25835   */\n      0x00\n        /* \"#utility.yul\":25826:25832   */\n      dup3\n        /* \"#utility.yul\":25822:25836   */\n      add\n        /* \"#utility.yul\":25815:25873   */\n      mstore\n        /* \"#utility.yul\":25907:25941   */\n      0x696d756d206f6666657220707269636520616e64207468652062657374206f66\n        /* \"#utility.yul\":25902:25904   */\n      0x20\n        /* \"#utility.yul\":25894:25900   */\n      dup3\n        /* \"#utility.yul\":25890:25905   */\n      add\n        /* \"#utility.yul\":25883:25942   */\n      mstore\n        /* \"#utility.yul\":25976:25981   */\n      0x6665720000000000000000000000000000000000000000000000000000000000\n        /* \"#utility.yul\":25971:25973   */\n      0x40\n        /* \"#utility.yul\":25963:25969   */\n      dup3\n        /* \"#utility.yul\":25959:25974   */\n      add\n        /* \"#utility.yul\":25952:25982   */\n      mstore\n        /* \"#utility.yul\":25698:25989   */\n      pop\n      jump\t// out\n        /* \"#utility.yul\":25995:26361   */\n    tag_353:\n        /* \"#utility.yul\":26137:26140   */\n      0x00\n        /* \"#utility.yul\":26158:26225   */\n      tag_595\n        /* \"#utility.yul\":26222:26224   */\n      0x43\n        /* \"#utility.yul\":26217:26220   */\n      dup4\n        /* \"#utility.yul\":26158:26225   */\n      tag_295\n      jump\t// in\n    tag_595:\n        /* \"#utility.yul\":26151:26225   */\n      swap2\n      pop\n        /* \"#utility.yul\":26234:26327   */\n      tag_596\n        /* \"#utility.yul\":26323:26326   */\n      dup3\n        /* \"#utility.yul\":26234:26327   */\n      tag_352\n      jump\t// in\n    tag_596:\n        /* \"#utility.yul\":26352:26354   */\n      0x60\n        /* \"#utility.yul\":26347:26350   */\n      dup3\n        /* \"#utility.yul\":26343:26355   */\n      add\n        /* \"#utility.yul\":26336:26355   */\n      swap1\n      pop\n        /* \"#utility.yul\":25995:26361   */\n      swap2\n      swap1\n      pop\n      jump\t// out\n        /* \"#utility.yul\":26367:26786   */\n    tag_172:\n        /* \"#utility.yul\":26533:26537   */\n      0x00\n        /* \"#utility.yul\":26571:26573   */\n      0x20\n        /* \"#utility.yul\":26560:26569   */\n      dup3\n        /* \"#utility.yul\":26556:26574   */\n      add\n        /* \"#utility.yul\":26548:26574   */\n      swap1\n      pop\n        /* \"#utility.yul\":26620:26629   */\n      dup2\n        /* \"#utility.yul\":26614:26618   */\n      dup2\n        /* \"#utility.yul\":26610:26630   */\n      sub\n        /* \"#utility.yul\":26606:26607   */\n      0x00\n        /* \"#utility.yul\":26595:26604   */\n      dup4\n        /* \"#utility.yul\":26591:26608   */\n      add\n        /* \"#utility.yul\":26584:26631   */\n      mstore\n        /* \"#utility.yul\":26648:26779   */\n      tag_598\n        /* \"#utility.yul\":26774:26778   */\n      dup2\n        /* \"#utility.yul\":26648:26779   */\n      tag_353\n      jump\t// in\n    tag_598:\n        /* \"#utility.yul\":26640:26779   */\n      swap1\n      pop\n        /* \"#utility.yul\":26367:26786   */\n      swap2\n      swap1\n      pop\n      jump\t// out\n        /* \"#utility.yul\":26792:26986   */\n    tag_198:\n        /* \"#utility.yul\":26832:26836   */\n      0x00\n        /* \"#utility.yul\":26852:26872   */\n      tag_600\n        /* \"#utility.yul\":26870:26871   */\n      dup3\n        /* \"#utility.yul\":26852:26872   */\n      tag_287\n      jump\t// in\n    tag_600:\n        /* \"#utility.yul\":26847:26872   */\n      swap2\n      pop\n        /* \"#utility.yul\":26886:26906   */\n      tag_601\n        /* \"#utility.yul\":26904:26905   */\n      dup4\n        /* \"#utility.yul\":26886:26906   */\n      tag_287\n      jump\t// in\n    tag_601:\n        /* \"#utility.yul\":26881:26906   */\n      swap3\n      pop\n        /* \"#utility.yul\":26930:26931   */\n      dup3\n        /* \"#utility.yul\":26927:26928   */\n      dup3\n        /* \"#utility.yul\":26923:26932   */\n      sub\n        /* \"#utility.yul\":26915:26932   */\n      swap1\n      pop\n        /* \"#utility.yul\":26954:26955   */\n      dup2\n        /* \"#utility.yul\":26948:26952   */\n      dup2\n        /* \"#utility.yul\":26945:26956   */\n      gt\n        /* \"#utility.yul\":26942:26979   */\n      iszero\n      tag_602\n      jumpi\n        /* \"#utility.yul\":26959:26977   */\n      tag_603\n      tag_332\n      jump\t// in\n    tag_603:\n        /* \"#utility.yul\":26942:26979   */\n    tag_602:\n        /* \"#utility.yul\":26792:26986   */\n      swap3\n      swap2\n      pop\n      pop\n      jump\t// out\n        /* \"#utility.yul\":26992:27165   */\n    tag_354:\n        /* \"#utility.yul\":27132:27157   */\n      0x41756374696f6e206973207374696c6c20616374697665000000000000000000\n        /* \"#utility.yul\":27128:27129   */\n      0x00\n        /* \"#utility.yul\":27120:27126   */\n      dup3\n        /* \"#utility.yul\":27116:27130   */\n      add\n        /* \"#utility.yul\":27109:27158   */\n      mstore\n        /* \"#utility.yul\":26992:27165   */\n      pop\n      jump\t// out\n        /* \"#utility.yul\":27171:27537   */\n    tag_355:\n        /* \"#utility.yul\":27313:27316   */\n      0x00\n        /* \"#utility.yul\":27334:27401   */\n      tag_606\n        /* \"#utility.yul\":27398:27400   */\n      0x17\n        /* \"#utility.yul\":27393:27396   */\n      dup4\n        /* \"#utility.yul\":27334:27401   */\n      tag_295\n      jump\t// in\n    tag_606:\n        /* \"#utility.yul\":27327:27401   */\n      swap2\n      pop\n        /* \"#utility.yul\":27410:27503   */\n      tag_607\n        /* \"#utility.yul\":27499:27502   */\n      dup3\n        /* \"#utility.yul\":27410:27503   */\n      tag_354\n      jump\t// in\n    tag_607:\n        /* \"#utility.yul\":27528:27530   */\n      0x20\n        /* \"#utility.yul\":27523:27526   */\n      dup3\n        /* \"#utility.yul\":27519:27531   */\n      add\n        /* \"#utility.yul\":27512:27531   */\n      swap1\n      pop\n        /* \"#utility.yul\":27171:27537   */\n      swap2\n      swap1\n      pop\n      jump\t// out\n        /* \"#utility.yul\":27543:27962   */\n    tag_231:\n        /* \"#utility.yul\":27709:27713   */\n      0x00\n        /* \"#utility.yul\":27747:27749   */\n      0x20\n        /* \"#utility.yul\":27736:27745   */\n      dup3\n        /* \"#utility.yul\":27732:27750   */\n      add\n        /* \"#utility.yul\":27724:27750   */\n      swap1\n      pop\n        /* \"#utility.yul\":27796:27805   */\n      dup2\n        /* \"#utility.yul\":27790:27794   */\n      dup2\n        /* \"#utility.yul\":27786:27806   */\n      sub\n        /* \"#utility.yul\":27782:27783   */\n      0x00\n        /* \"#utility.yul\":27771:27780   */\n      dup4\n        /* \"#utility.yul\":27767:27784   */\n      add\n        /* \"#utility.yul\":27760:27807   */\n      mstore\n        /* \"#utility.yul\":27824:27955   */\n      tag_609\n        /* \"#utility.yul\":27950:27954   */\n      dup2\n        /* \"#utility.yul\":27824:27955   */\n      tag_355\n      jump\t// in\n    tag_609:\n        /* \"#utility.yul\":27816:27955   */\n      swap1\n      pop\n        /* \"#utility.yul\":27543:27962   */\n      swap2\n      swap1\n      pop\n      jump\t// out\n\n    auxdata: 0xa264697066735822122064f464aede1fc1678049dd70bcc6a3ba0626ed4c74fb1c645cc79fec6a0057f464736f6c63430008100033\n}\n",
				"bytecode": {
					"linkReferences": {},
					"object": "608060405260018055600160035534801561001957600080fd5b50612a9e806100296000396000f3fe6080604052600436106100915760003560e01c8063a269993d11610059578063a269993d146101a8578063c43ede15146101c4578063d7c0691914610201578063df1dd8261461022c578063ff3ad0b41461025557610091565b8063571a26a01461009657806361e2db55146100d9578063661d2c2c146101025780638a72ea6a1461013f57806396b5a7551461017f575b600080fd5b3480156100a257600080fd5b506100bd60048036038101906100b89190611cac565b610292565b6040516100d09796959493929190611db9565b60405180910390f35b3480156100e557600080fd5b5061010060048036038101906100fb9190611e9b565b610404565b005b34801561010e57600080fd5b5061012960048036038101906101249190611f6e565b6106d2565b60405161013691906120bd565b60405180910390f35b34801561014b57600080fd5b5061016660048036038101906101619190611cac565b610873565b60405161017694939291906120df565b60405180910390f35b34801561018b57600080fd5b506101a660048036038101906101a19190611cac565b6108c3565b005b6101c260048036038101906101bd9190611cac565b610dac565b005b3480156101d057600080fd5b506101eb60048036038101906101e69190611cac565b611121565b6040516101f891906120bd565b60405180910390f35b34801561020d57600080fd5b506102166112f0565b604051610223919061239d565b60405180910390f35b34801561023857600080fd5b50610253600480360381019061024e9190611cac565b6115c5565b005b34801561026157600080fd5b5061027c60048036038101906102779190611f6e565b6117e1565b604051610289919061239d565b60405180910390f35b60006020528060005260406000206000915090508060000154908060010160009054906101000a900473ffffffffffffffffffffffffffffffffffffffff16908060020180546102e1906123ee565b80601f016020809104026020016040519081016040528092919081815260200182805461030d906123ee565b801561035a5780601f1061032f5761010080835404028352916020019161035a565b820191906000526020600020905b81548152906001019060200180831161033d57829003601f168201915b50505050509080600301805461036f906123ee565b80601f016020809104026020016040519081016040528092919081815260200182805461039b906123ee565b80156103e85780601f106103bd576101008083540402835291602001916103e8565b820191906000526020600020905b8154815290600101906020018083116103cb57829003601f168201915b5050505050908060040154908060050154908060060154905087565b60008211610447576040517f08c379a000000000000000000000000000000000000000000000000000000000815260040161043e90612491565b60405180910390fd5b60008067ffffffffffffffff811115610463576104626124b1565b5b6040519080825280602002602001820160405280156104915781602001602082028036833780820191505090505b50905060405180610100016040528060015481526020013373ffffffffffffffffffffffffffffffffffffffff16815260200188888080601f016020809104026020016040519081016040528093929190818152602001838380828437600081840152601f19601f82011690508083019250505050505050815260200186868080601f016020809104026020016040519081016040528093929190818152602001838380828437600081840152601f19601f820116905080830192505050505050508152602001848152602001834261056a919061250f565b8152602001600081526020018281525060008060015481526020019081526020016000206000820151816000015560208201518160010160006101000a81548173ffffffffffffffffffffffffffffffffffffffff021916908373ffffffffffffffffffffffffffffffffffffffff16021790555060408201518160020190816105f491906126ef565b50606082015181600301908161060a91906126ef565b506080820151816004015560a0820151816005015560c0820151816006015560e0820151816007019080519060200190610645929190611b08565b50905050600460003373ffffffffffffffffffffffffffffffffffffffff1673ffffffffffffffffffffffffffffffffffffffff1681526020019081526020016000206001549080600181540180825580915050600190039060005260206000200160009091909190915055600160008154809291906106c4906127c1565b919050555050505050505050565b60606000600560008473ffffffffffffffffffffffffffffffffffffffff1673ffffffffffffffffffffffffffffffffffffffff16815260200190815260200160002090506000818054905067ffffffffffffffff811115610737576107366124b1565b5b60405190808252806020026020018201604052801561077057816020015b61075d611b55565b8152602001906001900390816107555790505b50905060005b828054905081101561086857600083828154811061079757610796612809565b5b906000526020600020015490506002600082815260200190815260200160002060405180608001604052908160008201548152602001600182015481526020016002820160009054906101000a900473ffffffffffffffffffffffffffffffffffffffff1673ffffffffffffffffffffffffffffffffffffffff1673ffffffffffffffffffffffffffffffffffffffff16815260200160038201548152505083838151811061084957610848612809565b5b6020026020010181905250508080610860906127c1565b915050610776565b508092505050919050565b60026020528060005260406000206000915090508060000154908060010154908060020160009054906101000a900473ffffffffffffffffffffffffffffffffffffffff16908060030154905084565b806000811180156108d5575060015481105b610914576040517f08c379a000000000000000000000000000000000000000000000000000000000815260040161090b90612884565b60405180910390fd5b6000806000848152602001908152602001600020905060005b8160070180549050811015610b8b57600082600701828154811061095457610953612809565b5b9060005260206000200154905060006002600083815260200190815260200160002090508060020160009054906101000a900473ffffffffffffffffffffffffffffffffffffffff1673ffffffffffffffffffffffffffffffffffffffff166108fc82600301549081150290604051600060405180830381858888f193505050501580156109e6573d6000803e3d6000fd5b5060005b600560008360020160009054906101000a900473ffffffffffffffffffffffffffffffffffffffff1673ffffffffffffffffffffffffffffffffffffffff1673ffffffffffffffffffffffffffffffffffffffff16815260200190815260200160002080549050811015610b755782600560008460020160009054906101000a900473ffffffffffffffffffffffffffffffffffffffff1673ffffffffffffffffffffffffffffffffffffffff1673ffffffffffffffffffffffffffffffffffffffff1681526020019081526020016000208281548110610ace57610acd612809565b5b906000526020600020015403610b6257600560008360020160009054906101000a900473ffffffffffffffffffffffffffffffffffffffff1673ffffffffffffffffffffffffffffffffffffffff1673ffffffffffffffffffffffffffffffffffffffff1681526020019081526020016000208181548110610b5357610b52612809565b5b90600052602060002001600090555b8080610b6d906127c1565b9150506109ea565b5050508080610b83906127c1565b91505061092d565b5060005b600460008360010160009054906101000a900473ffffffffffffffffffffffffffffffffffffffff1673ffffffffffffffffffffffffffffffffffffffff1673ffffffffffffffffffffffffffffffffffffffff16815260200190815260200160002080549050811015610d1a5783600460008460010160009054906101000a900473ffffffffffffffffffffffffffffffffffffffff1673ffffffffffffffffffffffffffffffffffffffff1673ffffffffffffffffffffffffffffffffffffffff1681526020019081526020016000208281548110610c7357610c72612809565b5b906000526020600020015403610d0757600460008360010160009054906101000a900473ffffffffffffffffffffffffffffffffffffffff1673ffffffffffffffffffffffffffffffffffffffff1673ffffffffffffffffffffffffffffffffffffffff1681526020019081526020016000208181548110610cf857610cf7612809565b5b90600052602060002001600090555b8080610d12906127c1565b915050610b8f565b506000808481526020019081526020016000206000808201600090556001820160006101000a81549073ffffffffffffffffffffffffffffffffffffffff0219169055600282016000610d6d9190611b93565b600382016000610d7d9190611b93565b600482016000905560058201600090556006820160009055600782016000610da59190611bd3565b5050505050565b80600081118015610dbe575060015481105b610dfd576040517f08c379a0000000000000000000000000000000000000000000000000000000008152600401610df490612884565b60405180910390fd5b6000806000848152602001908152602001600020905080600501544210610e59576040517f08c379a0000000000000000000000000000000000000000000000000000000008152600401610e50906128f0565b60405180910390fd5b600060026000836006015481526020019081526020016000209050600034905060005b8360070180549050811015610f4057600060026000866007018481548110610ea757610ea6612809565b5b9060005260206000200154815260200190815260200160002090503373ffffffffffffffffffffffffffffffffffffffff168160020160009054906101000a900473ffffffffffffffffffffffffffffffffffffffff1673ffffffffffffffffffffffffffffffffffffffff1603610f2c57806003015483610f29919061250f565b92505b508080610f38906127c1565b915050610e7c565b5082600401548110158015610f585750816003015481115b610f97576040517f08c379a0000000000000000000000000000000000000000000000000000000008152600401610f8e906129a8565b60405180910390fd5b6003548360060181905550604051806080016040528060035481526020018681526020013373ffffffffffffffffffffffffffffffffffffffff16815260200182815250600260006003548152602001908152602001600020600082015181600001556020820151816001015560408201518160020160006101000a81548173ffffffffffffffffffffffffffffffffffffffff021916908373ffffffffffffffffffffffffffffffffffffffff16021790555060608201518160030155905050826007016003549080600181540180825580915050600190039060005260206000200160009091909190915055600181611092919061250f565b8360040181905550600560003373ffffffffffffffffffffffffffffffffffffffff1673ffffffffffffffffffffffffffffffffffffffff168152602001908152602001600020600354908060018154018082558091505060019003906000526020600020016000909190919091505560036000815480929190611115906127c1565b91905055505050505050565b606081600081118015611135575060015481105b611174576040517f08c379a000000000000000000000000000000000000000000000000000000000815260040161116b90612884565b60405180910390fd5b6000806000858152602001908152602001600020905060008160070190506000818054905067ffffffffffffffff8111156111b2576111b16124b1565b5b6040519080825280602002602001820160405280156111eb57816020015b6111d8611b55565b8152602001906001900390816111d05790505b50905060005b82805490508110156112e357600083828154811061121257611211612809565b5b906000526020600020015490506002600082815260200190815260200160002060405180608001604052908160008201548152602001600182015481526020016002820160009054906101000a900473ffffffffffffffffffffffffffffffffffffffff1673ffffffffffffffffffffffffffffffffffffffff1673ffffffffffffffffffffffffffffffffffffffff1681526020016003820154815250508383815181106112c4576112c3612809565b5b60200260200101819052505080806112db906127c1565b9150506111f1565b5080945050505050919050565b606060006001805461130291906129c8565b67ffffffffffffffff81111561131b5761131a6124b1565b5b60405190808252806020026020018201604052801561135457816020015b611341611bf4565b8152602001906001900390816113395790505b5090506000600190505b6001548110156115bd5760008082815260200190815260200160002060405180610100016040529081600082015481526020016001820160009054906101000a900473ffffffffffffffffffffffffffffffffffffffff1673ffffffffffffffffffffffffffffffffffffffff1673ffffffffffffffffffffffffffffffffffffffff1681526020016002820180546113f6906123ee565b80601f0160208091040260200160405190810160405280929190818152602001828054611422906123ee565b801561146f5780601f106114445761010080835404028352916020019161146f565b820191906000526020600020905b81548152906001019060200180831161145257829003601f168201915b50505050508152602001600382018054611488906123ee565b80601f01602080910402602001604051908101604052809291908181526020018280546114b4906123ee565b80156115015780601f106114d657610100808354040283529160200191611501565b820191906000526020600020905b8154815290600101906020018083116114e457829003601f168201915b505050505081526020016004820154815260200160058201548152602001600682015481526020016007820180548060200260200160405190810160405280929190818152602001828054801561157757602002820191906000526020600020905b815481526020019060010190808311611563575b5050505050815250508260018361158e91906129c8565b8151811061159f5761159e612809565b5b602002602001018190525080806115b5906127c1565b91505061135e565b508091505090565b806000811180156115d7575060015481105b611616576040517f08c379a000000000000000000000000000000000000000000000000000000000815260040161160d90612884565b60405180910390fd5b600080600084815260200190815260200160002090506000600260008360060154815260200190815260200160002090508160050154421161168d576040517f08c379a000000000000000000000000000000000000000000000000000000000815260040161168490612a48565b60405180910390fd5b60005b826007018054905081101561176b5760008360070182815481106116b7576116b6612809565b5b90600052602060002001549050600060026000838152602001908152602001600020905083600001548214611756578060020160009054906101000a900473ffffffffffffffffffffffffffffffffffffffff1673ffffffffffffffffffffffffffffffffffffffff166108fc82600301549081150290604051600060405180830381858888f19350505050158015611754573d6000803e3d6000fd5b505b50508080611763906127c1565b915050611690565b508160010160009054906101000a900473ffffffffffffffffffffffffffffffffffffffff1673ffffffffffffffffffffffffffffffffffffffff166108fc82600301549081150290604051600060405180830381858888f193505050501580156117da573d6000803e3d6000fd5b5050505050565b60606000600460008473ffffffffffffffffffffffffffffffffffffffff1673ffffffffffffffffffffffffffffffffffffffff16815260200190815260200160002090506000818054905067ffffffffffffffff811115611846576118456124b1565b5b60405190808252806020026020018201604052801561187f57816020015b61186c611bf4565b8152602001906001900390816118645790505b50905060005b8280549050811015611afd5760008382815481106118a6576118a5612809565b5b9060005260206000200154905060008082815260200190815260200160002060405180610100016040529081600082015481526020016001820160009054906101000a900473ffffffffffffffffffffffffffffffffffffffff1673ffffffffffffffffffffffffffffffffffffffff1673ffffffffffffffffffffffffffffffffffffffff168152602001600282018054611941906123ee565b80601f016020809104026020016040519081016040528092919081815260200182805461196d906123ee565b80156119ba5780601f1061198f576101008083540402835291602001916119ba565b820191906000526020600020905b81548152906001019060200180831161199d57829003601f168201915b505050505081526020016003820180546119d3906123ee565b80601f01602080910402602001604051908101604052809291908181526020018280546119ff906123ee565b8015611a4c5780601f10611a2157610100808354040283529160200191611a4c565b820191906000526020600020905b815481529060010190602001808311611a2f57829003601f168201915b5050505050815260200160048201548152602001600582015481526020016006820154815260200160078201805480602002602001604051908101604052809291908181526020018280548015611ac257602002820191906000526020600020905b815481526020019060010190808311611aae575b505050505081525050838381518110611ade57611add612809565b5b6020026020010181905250508080611af5906127c1565b915050611885565b508092505050919050565b828054828255906000526020600020908101928215611b44579160200282015b82811115611b43578251825591602001919060010190611b28565b5b509050611b519190611c4f565b5090565b60405180608001604052806000815260200160008152602001600073ffffffffffffffffffffffffffffffffffffffff168152602001600081525090565b508054611b9f906123ee565b6000825580601f10611bb15750611bd0565b601f016020900490600052602060002090810190611bcf9190611c4f565b5b50565b5080546000825590600052602060002090810190611bf19190611c4f565b50565b60405180610100016040528060008152602001600073ffffffffffffffffffffffffffffffffffffffff1681526020016060815260200160608152602001600081526020016000815260200160008152602001606081525090565b5b80821115611c68576000816000905550600101611c50565b5090565b600080fd5b600080fd5b6000819050919050565b611c8981611c76565b8114611c9457600080fd5b50565b600081359050611ca681611c80565b92915050565b600060208284031215611cc257611cc1611c6c565b5b6000611cd084828501611c97565b91505092915050565b611ce281611c76565b82525050565b600073ffffffffffffffffffffffffffffffffffffffff82169050919050565b6000611d1382611ce8565b9050919050565b611d2381611d08565b82525050565b600081519050919050565b600082825260208201905092915050565b60005b83811015611d63578082015181840152602081019050611d48565b60008484015250505050565b6000601f19601f8301169050919050565b6000611d8b82611d29565b611d958185611d34565b9350611da5818560208601611d45565b611dae81611d6f565b840191505092915050565b600060e082019050611dce600083018a611cd9565b611ddb6020830189611d1a565b8181036040830152611ded8188611d80565b90508181036060830152611e018187611d80565b9050611e106080830186611cd9565b611e1d60a0830185611cd9565b611e2a60c0830184611cd9565b98975050505050505050565b600080fd5b600080fd5b600080fd5b60008083601f840112611e5b57611e5a611e36565b5b8235905067ffffffffffffffff811115611e7857611e77611e3b565b5b602083019150836001820283011115611e9457611e93611e40565b5b9250929050565b60008060008060008060808789031215611eb857611eb7611c6c565b5b600087013567ffffffffffffffff811115611ed657611ed5611c71565b5b611ee289828a01611e45565b9650965050602087013567ffffffffffffffff811115611f0557611f04611c71565b5b611f1189828a01611e45565b94509450506040611f2489828a01611c97565b9250506060611f3589828a01611c97565b9150509295509295509295565b611f4b81611d08565b8114611f5657600080fd5b50565b600081359050611f6881611f42565b92915050565b600060208284031215611f8457611f83611c6c565b5b6000611f9284828501611f59565b91505092915050565b600081519050919050565b600082825260208201905092915050565b6000819050602082019050919050565b611fd081611c76565b82525050565b611fdf81611d08565b82525050565b608082016000820151611ffb6000850182611fc7565b50602082015161200e6020850182611fc7565b5060408201516120216040850182611fd6565b5060608201516120346060850182611fc7565b50505050565b60006120468383611fe5565b60808301905092915050565b6000602082019050919050565b600061206a82611f9b565b6120748185611fa6565b935061207f83611fb7565b8060005b838110156120b0578151612097888261203a565b97506120a283612052565b925050600181019050612083565b5085935050505092915050565b600060208201905081810360008301526120d7818461205f565b905092915050565b60006080820190506120f46000830187611cd9565b6121016020830186611cd9565b61210e6040830185611d1a565b61211b6060830184611cd9565b95945050505050565b600081519050919050565b600082825260208201905092915050565b6000819050602082019050919050565b600082825260208201905092915050565b600061216c82611d29565b6121768185612150565b9350612186818560208601611d45565b61218f81611d6f565b840191505092915050565b600081519050919050565b600082825260208201905092915050565b6000819050602082019050919050565b60006121d28383611fc7565b60208301905092915050565b6000602082019050919050565b60006121f68261219a565b61220081856121a5565b935061220b836121b6565b8060005b8381101561223c57815161222388826121c6565b975061222e836121de565b92505060018101905061220f565b5085935050505092915050565b6000610100830160008301516122626000860182611fc7565b5060208301516122756020860182611fd6565b506040830151848203604086015261228d8282612161565b915050606083015184820360608601526122a78282612161565b91505060808301516122bc6080860182611fc7565b5060a08301516122cf60a0860182611fc7565b5060c08301516122e260c0860182611fc7565b5060e083015184820360e08601526122fa82826121eb565b9150508091505092915050565b60006123138383612249565b905092915050565b6000602082019050919050565b600061233382612124565b61233d818561212f565b93508360208202850161234f85612140565b8060005b8581101561238b578484038952815161236c8582612307565b94506123778361231b565b925060208a01995050600181019050612353565b50829750879550505050505092915050565b600060208201905081810360008301526123b78184612328565b905092915050565b7f4e487b7100000000000000000000000000000000000000000000000000000000600052602260045260246000fd5b6000600282049050600182168061240657607f821691505b602082108103612419576124186123bf565b5b50919050565b7f4d696e696d756d206f666665722070726963652073686f756c6420626520677260008201527f6561746572207468616e20300000000000000000000000000000000000000000602082015250565b600061247b602c83611d34565b91506124868261241f565b604082019050919050565b600060208201905081810360008301526124aa8161246e565b9050919050565b7f4e487b7100000000000000000000000000000000000000000000000000000000600052604160045260246000fd5b7f4e487b7100000000000000000000000000000000000000000000000000000000600052601160045260246000fd5b600061251a82611c76565b915061252583611c76565b925082820190508082111561253d5761253c6124e0565b5b92915050565b60008190508160005260206000209050919050565b60006020601f8301049050919050565b600082821b905092915050565b6000600883026125a57fffffffffffffffffffffffffffffffffffffffffffffffffffffffffffffffff82612568565b6125af8683612568565b95508019841693508086168417925050509392505050565b6000819050919050565b60006125ec6125e76125e284611c76565b6125c7565b611c76565b9050919050565b6000819050919050565b612606836125d1565b61261a612612826125f3565b848454612575565b825550505050565b600090565b61262f612622565b61263a8184846125fd565b505050565b5b8181101561265e57612653600082612627565b600181019050612640565b5050565b601f8211156126a35761267481612543565b61267d84612558565b8101602085101561268c578190505b6126a061269885612558565b83018261263f565b50505b505050565b600082821c905092915050565b60006126c6600019846008026126a8565b1980831691505092915050565b60006126df83836126b5565b9150826002028217905092915050565b6126f882611d29565b67ffffffffffffffff811115612711576127106124b1565b5b61271b82546123ee565b612726828285612662565b600060209050601f8311600181146127595760008415612747578287015190505b61275185826126d3565b8655506127b9565b601f19841661276786612543565b60005b8281101561278f5784890151825560018201915060208501945060208101905061276a565b868310156127ac57848901516127a8601f8916826126b5565b8355505b6001600288020188555050505b505050505050565b60006127cc82611c76565b91507fffffffffffffffffffffffffffffffffffffffffffffffffffffffffffffffff82036127fe576127fd6124e0565b5b600182019050919050565b7f4e487b7100000000000000000000000000000000000000000000000000000000600052603260045260246000fd5b7f41756374696f6e20646f6573206e6f7420657869737400000000000000000000600082015250565b600061286e601683611d34565b915061287982612838565b602082019050919050565b6000602082019050818103600083015261289d81612861565b9050919050565b7f41756374696f6e20657870697265640000000000000000000000000000000000600082015250565b60006128da600f83611d34565b91506128e5826128a4565b602082019050919050565b60006020820190508181036000830152612909816128cd565b9050919050565b7f50726963652073686f756c642062652067726561746572207468616e206d696e60008201527f696d756d206f6666657220707269636520616e64207468652062657374206f6660208201527f6665720000000000000000000000000000000000000000000000000000000000604082015250565b6000612992604383611d34565b915061299d82612910565b606082019050919050565b600060208201905081810360008301526129c181612985565b9050919050565b60006129d382611c76565b91506129de83611c76565b92508282039050818111156129f6576129f56124e0565b5b92915050565b7f41756374696f6e206973207374696c6c20616374697665000000000000000000600082015250565b6000612a32601783611d34565b9150612a3d826129fc565b602082019050919050565b60006020820190508181036000830152612a6181612a25565b905091905056fea264697066735822122064f464aede1fc1678049dd70bcc6a3ba0626ed4c74fb1c645cc79fec6a0057f464736f6c63430008100033",
					"opcodes": "PUSH1 0x80 PUSH1 0x40 MSTORE PUSH1 0x1 DUP1 SSTORE PUSH1 0x1 PUSH1 0x3 SSTORE CALLVALUE DUP1 ISZERO PUSH2 0x19 JUMPI PUSH1 0x0 DUP1 REVERT JUMPDEST POP PUSH2 0x2A9E DUP1 PUSH2 0x29 PUSH1 0x0 CODECOPY PUSH1 0x0 RETURN INVALID PUSH1 0x80 PUSH1 0x40 MSTORE PUSH1 0x4 CALLDATASIZE LT PUSH2 0x91 JUMPI PUSH1 0x0 CALLDATALOAD PUSH1 0xE0 SHR DUP1 PUSH4 0xA269993D GT PUSH2 0x59 JUMPI DUP1 PUSH4 0xA269993D EQ PUSH2 0x1A8 JUMPI DUP1 PUSH4 0xC43EDE15 EQ PUSH2 0x1C4 JUMPI DUP1 PUSH4 0xD7C06919 EQ PUSH2 0x201 JUMPI DUP1 PUSH4 0xDF1DD826 EQ PUSH2 0x22C JUMPI DUP1 PUSH4 0xFF3AD0B4 EQ PUSH2 0x255 JUMPI PUSH2 0x91 JUMP JUMPDEST DUP1 PUSH4 0x571A26A0 EQ PUSH2 0x96 JUMPI DUP1 PUSH4 0x61E2DB55 EQ PUSH2 0xD9 JUMPI DUP1 PUSH4 0x661D2C2C EQ PUSH2 0x102 JUMPI DUP1 PUSH4 0x8A72EA6A EQ PUSH2 0x13F JUMPI DUP1 PUSH4 0x96B5A755 EQ PUSH2 0x17F JUMPI JUMPDEST PUSH1 0x0 DUP1 REVERT JUMPDEST CALLVALUE DUP1 ISZERO PUSH2 0xA2 JUMPI PUSH1 0x0 DUP1 REVERT JUMPDEST POP PUSH2 0xBD PUSH1 0x4 DUP1 CALLDATASIZE SUB DUP2 ADD SWAP1 PUSH2 0xB8 SWAP2 SWAP1 PUSH2 0x1CAC JUMP JUMPDEST PUSH2 0x292 JUMP JUMPDEST PUSH1 0x40 MLOAD PUSH2 0xD0 SWAP8 SWAP7 SWAP6 SWAP5 SWAP4 SWAP3 SWAP2 SWAP1 PUSH2 0x1DB9 JUMP JUMPDEST PUSH1 0x40 MLOAD DUP1 SWAP2 SUB SWAP1 RETURN JUMPDEST CALLVALUE DUP1 ISZERO PUSH2 0xE5 JUMPI PUSH1 0x0 DUP1 REVERT JUMPDEST POP PUSH2 0x100 PUSH1 0x4 DUP1 CALLDATASIZE SUB DUP2 ADD SWAP1 PUSH2 0xFB SWAP2 SWAP1 PUSH2 0x1E9B JUMP JUMPDEST PUSH2 0x404 JUMP JUMPDEST STOP JUMPDEST CALLVALUE DUP1 ISZERO PUSH2 0x10E JUMPI PUSH1 0x0 DUP1 REVERT JUMPDEST POP PUSH2 0x129 PUSH1 0x4 DUP1 CALLDATASIZE SUB DUP2 ADD SWAP1 PUSH2 0x124 SWAP2 SWAP1 PUSH2 0x1F6E JUMP JUMPDEST PUSH2 0x6D2 JUMP JUMPDEST PUSH1 0x40 MLOAD PUSH2 0x136 SWAP2 SWAP1 PUSH2 0x20BD JUMP JUMPDEST PUSH1 0x40 MLOAD DUP1 SWAP2 SUB SWAP1 RETURN JUMPDEST CALLVALUE DUP1 ISZERO PUSH2 0x14B JUMPI PUSH1 0x0 DUP1 REVERT JUMPDEST POP PUSH2 0x166 PUSH1 0x4 DUP1 CALLDATASIZE SUB DUP2 ADD SWAP1 PUSH2 0x161 SWAP2 SWAP1 PUSH2 0x1CAC JUMP JUMPDEST PUSH2 0x873 JUMP JUMPDEST PUSH1 0x40 MLOAD PUSH2 0x176 SWAP5 SWAP4 SWAP3 SWAP2 SWAP1 PUSH2 0x20DF JUMP JUMPDEST PUSH1 0x40 MLOAD DUP1 SWAP2 SUB SWAP1 RETURN JUMPDEST CALLVALUE DUP1 ISZERO PUSH2 0x18B JUMPI PUSH1 0x0 DUP1 REVERT JUMPDEST POP PUSH2 0x1A6 PUSH1 0x4 DUP1 CALLDATASIZE SUB DUP2 ADD SWAP1 PUSH2 0x1A1 SWAP2 SWAP1 PUSH2 0x1CAC JUMP JUMPDEST PUSH2 0x8C3 JUMP JUMPDEST STOP JUMPDEST PUSH2 0x1C2 PUSH1 0x4 DUP1 CALLDATASIZE SUB DUP2 ADD SWAP1 PUSH2 0x1BD SWAP2 SWAP1 PUSH2 0x1CAC JUMP JUMPDEST PUSH2 0xDAC JUMP JUMPDEST STOP JUMPDEST CALLVALUE DUP1 ISZERO PUSH2 0x1D0 JUMPI PUSH1 0x0 DUP1 REVERT JUMPDEST POP PUSH2 0x1EB PUSH1 0x4 DUP1 CALLDATASIZE SUB DUP2 ADD SWAP1 PUSH2 0x1E6 SWAP2 SWAP1 PUSH2 0x1CAC JUMP JUMPDEST PUSH2 0x1121 JUMP JUMPDEST PUSH1 0x40 MLOAD PUSH2 0x1F8 SWAP2 SWAP1 PUSH2 0x20BD JUMP JUMPDEST PUSH1 0x40 MLOAD DUP1 SWAP2 SUB SWAP1 RETURN JUMPDEST CALLVALUE DUP1 ISZERO PUSH2 0x20D JUMPI PUSH1 0x0 DUP1 REVERT JUMPDEST POP PUSH2 0x216 PUSH2 0x12F0 JUMP JUMPDEST PUSH1 0x40 MLOAD PUSH2 0x223 SWAP2 SWAP1 PUSH2 0x239D JUMP JUMPDEST PUSH1 0x40 MLOAD DUP1 SWAP2 SUB SWAP1 RETURN JUMPDEST CALLVALUE DUP1 ISZERO PUSH2 0x238 JUMPI PUSH1 0x0 DUP1 REVERT JUMPDEST POP PUSH2 0x253 PUSH1 0x4 DUP1 CALLDATASIZE SUB DUP2 ADD SWAP1 PUSH2 0x24E SWAP2 SWAP1 PUSH2 0x1CAC JUMP JUMPDEST PUSH2 0x15C5 JUMP JUMPDEST STOP JUMPDEST CALLVALUE DUP1 ISZERO PUSH2 0x261 JUMPI PUSH1 0x0 DUP1 REVERT JUMPDEST POP PUSH2 0x27C PUSH1 0x4 DUP1 CALLDATASIZE SUB DUP2 ADD SWAP1 PUSH2 0x277 SWAP2 SWAP1 PUSH2 0x1F6E JUMP JUMPDEST PUSH2 0x17E1 JUMP JUMPDEST PUSH1 0x40 MLOAD PUSH2 0x289 SWAP2 SWAP1 PUSH2 0x239D JUMP JUMPDEST PUSH1 0x40 MLOAD DUP1 SWAP2 SUB SWAP1 RETURN JUMPDEST PUSH1 0x0 PUSH1 0x20 MSTORE DUP1 PUSH1 0x0 MSTORE PUSH1 0x40 PUSH1 0x0 KECCAK256 PUSH1 0x0 SWAP2 POP SWAP1 POP DUP1 PUSH1 0x0 ADD SLOAD SWAP1 DUP1 PUSH1 0x1 ADD PUSH1 0x0 SWAP1 SLOAD SWAP1 PUSH2 0x100 EXP SWAP1 DIV PUSH20 0xFFFFFFFFFFFFFFFFFFFFFFFFFFFFFFFFFFFFFFFF AND SWAP1 DUP1 PUSH1 0x2 ADD DUP1 SLOAD PUSH2 0x2E1 SWAP1 PUSH2 0x23EE JUMP JUMPDEST DUP1 PUSH1 0x1F ADD PUSH1 0x20 DUP1 SWAP2 DIV MUL PUSH1 0x20 ADD PUSH1 0x40 MLOAD SWAP1 DUP2 ADD PUSH1 0x40 MSTORE DUP1 SWAP3 SWAP2 SWAP1 DUP2 DUP2 MSTORE PUSH1 0x20 ADD DUP3 DUP1 SLOAD PUSH2 0x30D SWAP1 PUSH2 0x23EE JUMP JUMPDEST DUP1 ISZERO PUSH2 0x35A JUMPI DUP1 PUSH1 0x1F LT PUSH2 0x32F JUMPI PUSH2 0x100 DUP1 DUP4 SLOAD DIV MUL DUP4 MSTORE SWAP2 PUSH1 0x20 ADD SWAP2 PUSH2 0x35A JUMP JUMPDEST DUP3 ADD SWAP2 SWAP1 PUSH1 0x0 MSTORE PUSH1 0x20 PUSH1 0x0 KECCAK256 SWAP1 JUMPDEST DUP2 SLOAD DUP2 MSTORE SWAP1 PUSH1 0x1 ADD SWAP1 PUSH1 0x20 ADD DUP1 DUP4 GT PUSH2 0x33D JUMPI DUP3 SWAP1 SUB PUSH1 0x1F AND DUP3 ADD SWAP2 JUMPDEST POP POP POP POP POP SWAP1 DUP1 PUSH1 0x3 ADD DUP1 SLOAD PUSH2 0x36F SWAP1 PUSH2 0x23EE JUMP JUMPDEST DUP1 PUSH1 0x1F ADD PUSH1 0x20 DUP1 SWAP2 DIV MUL PUSH1 0x20 ADD PUSH1 0x40 MLOAD SWAP1 DUP2 ADD PUSH1 0x40 MSTORE DUP1 SWAP3 SWAP2 SWAP1 DUP2 DUP2 MSTORE PUSH1 0x20 ADD DUP3 DUP1 SLOAD PUSH2 0x39B SWAP1 PUSH2 0x23EE JUMP JUMPDEST DUP1 ISZERO PUSH2 0x3E8 JUMPI DUP1 PUSH1 0x1F LT PUSH2 0x3BD JUMPI PUSH2 0x100 DUP1 DUP4 SLOAD DIV MUL DUP4 MSTORE SWAP2 PUSH1 0x20 ADD SWAP2 PUSH2 0x3E8 JUMP JUMPDEST DUP3 ADD SWAP2 SWAP1 PUSH1 0x0 MSTORE PUSH1 0x20 PUSH1 0x0 KECCAK256 SWAP1 JUMPDEST DUP2 SLOAD DUP2 MSTORE SWAP1 PUSH1 0x1 ADD SWAP1 PUSH1 0x20 ADD DUP1 DUP4 GT PUSH2 0x3CB JUMPI DUP3 SWAP1 SUB PUSH1 0x1F AND DUP3 ADD SWAP2 JUMPDEST POP POP POP POP POP SWAP1 DUP1 PUSH1 0x4 ADD SLOAD SWAP1 DUP1 PUSH1 0x5 ADD SLOAD SWAP1 DUP1 PUSH1 0x6 ADD SLOAD SWAP1 POP DUP8 JUMP JUMPDEST PUSH1 0x0 DUP3 GT PUSH2 0x447 JUMPI PUSH1 0x40 MLOAD PUSH32 0x8C379A000000000000000000000000000000000000000000000000000000000 DUP2 MSTORE PUSH1 0x4 ADD PUSH2 0x43E SWAP1 PUSH2 0x2491 JUMP JUMPDEST PUSH1 0x40 MLOAD DUP1 SWAP2 SUB SWAP1 REVERT JUMPDEST PUSH1 0x0 DUP1 PUSH8 0xFFFFFFFFFFFFFFFF DUP2 GT ISZERO PUSH2 0x463 JUMPI PUSH2 0x462 PUSH2 0x24B1 JUMP JUMPDEST JUMPDEST PUSH1 0x40 MLOAD SWAP1 DUP1 DUP3 MSTORE DUP1 PUSH1 0x20 MUL PUSH1 0x20 ADD DUP3 ADD PUSH1 0x40 MSTORE DUP1 ISZERO PUSH2 0x491 JUMPI DUP2 PUSH1 0x20 ADD PUSH1 0x20 DUP3 MUL DUP1 CALLDATASIZE DUP4 CALLDATACOPY DUP1 DUP3 ADD SWAP2 POP POP SWAP1 POP JUMPDEST POP SWAP1 POP PUSH1 0x40 MLOAD DUP1 PUSH2 0x100 ADD PUSH1 0x40 MSTORE DUP1 PUSH1 0x1 SLOAD DUP2 MSTORE PUSH1 0x20 ADD CALLER PUSH20 0xFFFFFFFFFFFFFFFFFFFFFFFFFFFFFFFFFFFFFFFF AND DUP2 MSTORE PUSH1 0x20 ADD DUP9 DUP9 DUP1 DUP1 PUSH1 0x1F ADD PUSH1 0x20 DUP1 SWAP2 DIV MUL PUSH1 0x20 ADD PUSH1 0x40 MLOAD SWAP1 DUP2 ADD PUSH1 0x40 MSTORE DUP1 SWAP4 SWAP3 SWAP2 SWAP1 DUP2 DUP2 MSTORE PUSH1 0x20 ADD DUP4 DUP4 DUP1 DUP3 DUP5 CALLDATACOPY PUSH1 0x0 DUP2 DUP5 ADD MSTORE PUSH1 0x1F NOT PUSH1 0x1F DUP3 ADD AND SWAP1 POP DUP1 DUP4 ADD SWAP3 POP POP POP POP POP POP POP DUP2 MSTORE PUSH1 0x20 ADD DUP7 DUP7 DUP1 DUP1 PUSH1 0x1F ADD PUSH1 0x20 DUP1 SWAP2 DIV MUL PUSH1 0x20 ADD PUSH1 0x40 MLOAD SWAP1 DUP2 ADD PUSH1 0x40 MSTORE DUP1 SWAP4 SWAP3 SWAP2 SWAP1 DUP2 DUP2 MSTORE PUSH1 0x20 ADD DUP4 DUP4 DUP1 DUP3 DUP5 CALLDATACOPY PUSH1 0x0 DUP2 DUP5 ADD MSTORE PUSH1 0x1F NOT PUSH1 0x1F DUP3 ADD AND SWAP1 POP DUP1 DUP4 ADD SWAP3 POP POP POP POP POP POP POP DUP2 MSTORE PUSH1 0x20 ADD DUP5 DUP2 MSTORE PUSH1 0x20 ADD DUP4 TIMESTAMP PUSH2 0x56A SWAP2 SWAP1 PUSH2 0x250F JUMP JUMPDEST DUP2 MSTORE PUSH1 0x20 ADD PUSH1 0x0 DUP2 MSTORE PUSH1 0x20 ADD DUP3 DUP2 MSTORE POP PUSH1 0x0 DUP1 PUSH1 0x1 SLOAD DUP2 MSTORE PUSH1 0x20 ADD SWAP1 DUP2 MSTORE PUSH1 0x20 ADD PUSH1 0x0 KECCAK256 PUSH1 0x0 DUP3 ADD MLOAD DUP2 PUSH1 0x0 ADD SSTORE PUSH1 0x20 DUP3 ADD MLOAD DUP2 PUSH1 0x1 ADD PUSH1 0x0 PUSH2 0x100 EXP DUP2 SLOAD DUP2 PUSH20 0xFFFFFFFFFFFFFFFFFFFFFFFFFFFFFFFFFFFFFFFF MUL NOT AND SWAP1 DUP4 PUSH20 0xFFFFFFFFFFFFFFFFFFFFFFFFFFFFFFFFFFFFFFFF AND MUL OR SWAP1 SSTORE POP PUSH1 0x40 DUP3 ADD MLOAD DUP2 PUSH1 0x2 ADD SWAP1 DUP2 PUSH2 0x5F4 SWAP2 SWAP1 PUSH2 0x26EF JUMP JUMPDEST POP PUSH1 0x60 DUP3 ADD MLOAD DUP2 PUSH1 0x3 ADD SWAP1 DUP2 PUSH2 0x60A SWAP2 SWAP1 PUSH2 0x26EF JUMP JUMPDEST POP PUSH1 0x80 DUP3 ADD MLOAD DUP2 PUSH1 0x4 ADD SSTORE PUSH1 0xA0 DUP3 ADD MLOAD DUP2 PUSH1 0x5 ADD SSTORE PUSH1 0xC0 DUP3 ADD MLOAD DUP2 PUSH1 0x6 ADD SSTORE PUSH1 0xE0 DUP3 ADD MLOAD DUP2 PUSH1 0x7 ADD SWAP1 DUP1 MLOAD SWAP1 PUSH1 0x20 ADD SWAP1 PUSH2 0x645 SWAP3 SWAP2 SWAP1 PUSH2 0x1B08 JUMP JUMPDEST POP SWAP1 POP POP PUSH1 0x4 PUSH1 0x0 CALLER PUSH20 0xFFFFFFFFFFFFFFFFFFFFFFFFFFFFFFFFFFFFFFFF AND PUSH20 0xFFFFFFFFFFFFFFFFFFFFFFFFFFFFFFFFFFFFFFFF AND DUP2 MSTORE PUSH1 0x20 ADD SWAP1 DUP2 MSTORE PUSH1 0x20 ADD PUSH1 0x0 KECCAK256 PUSH1 0x1 SLOAD SWAP1 DUP1 PUSH1 0x1 DUP2 SLOAD ADD DUP1 DUP3 SSTORE DUP1 SWAP2 POP POP PUSH1 0x1 SWAP1 SUB SWAP1 PUSH1 0x0 MSTORE PUSH1 0x20 PUSH1 0x0 KECCAK256 ADD PUSH1 0x0 SWAP1 SWAP2 SWAP1 SWAP2 SWAP1 SWAP2 POP SSTORE PUSH1 0x1 PUSH1 0x0 DUP2 SLOAD DUP1 SWAP3 SWAP2 SWAP1 PUSH2 0x6C4 SWAP1 PUSH2 0x27C1 JUMP JUMPDEST SWAP2 SWAP1 POP SSTORE POP POP POP POP POP POP POP POP JUMP JUMPDEST PUSH1 0x60 PUSH1 0x0 PUSH1 0x5 PUSH1 0x0 DUP5 PUSH20 0xFFFFFFFFFFFFFFFFFFFFFFFFFFFFFFFFFFFFFFFF AND PUSH20 0xFFFFFFFFFFFFFFFFFFFFFFFFFFFFFFFFFFFFFFFF AND DUP2 MSTORE PUSH1 0x20 ADD SWAP1 DUP2 MSTORE PUSH1 0x20 ADD PUSH1 0x0 KECCAK256 SWAP1 POP PUSH1 0x0 DUP2 DUP1 SLOAD SWAP1 POP PUSH8 0xFFFFFFFFFFFFFFFF DUP2 GT ISZERO PUSH2 0x737 JUMPI PUSH2 0x736 PUSH2 0x24B1 JUMP JUMPDEST JUMPDEST PUSH1 0x40 MLOAD SWAP1 DUP1 DUP3 MSTORE DUP1 PUSH1 0x20 MUL PUSH1 0x20 ADD DUP3 ADD PUSH1 0x40 MSTORE DUP1 ISZERO PUSH2 0x770 JUMPI DUP2 PUSH1 0x20 ADD JUMPDEST PUSH2 0x75D PUSH2 0x1B55 JUMP JUMPDEST DUP2 MSTORE PUSH1 0x20 ADD SWAP1 PUSH1 0x1 SWAP1 SUB SWAP1 DUP2 PUSH2 0x755 JUMPI SWAP1 POP JUMPDEST POP SWAP1 POP PUSH1 0x0 JUMPDEST DUP3 DUP1 SLOAD SWAP1 POP DUP2 LT ISZERO PUSH2 0x868 JUMPI PUSH1 0x0 DUP4 DUP3 DUP2 SLOAD DUP2 LT PUSH2 0x797 JUMPI PUSH2 0x796 PUSH2 0x2809 JUMP JUMPDEST JUMPDEST SWAP1 PUSH1 0x0 MSTORE PUSH1 0x20 PUSH1 0x0 KECCAK256 ADD SLOAD SWAP1 POP PUSH1 0x2 PUSH1 0x0 DUP3 DUP2 MSTORE PUSH1 0x20 ADD SWAP1 DUP2 MSTORE PUSH1 0x20 ADD PUSH1 0x0 KECCAK256 PUSH1 0x40 MLOAD DUP1 PUSH1 0x80 ADD PUSH1 0x40 MSTORE SWAP1 DUP2 PUSH1 0x0 DUP3 ADD SLOAD DUP2 MSTORE PUSH1 0x20 ADD PUSH1 0x1 DUP3 ADD SLOAD DUP2 MSTORE PUSH1 0x20 ADD PUSH1 0x2 DUP3 ADD PUSH1 0x0 SWAP1 SLOAD SWAP1 PUSH2 0x100 EXP SWAP1 DIV PUSH20 0xFFFFFFFFFFFFFFFFFFFFFFFFFFFFFFFFFFFFFFFF AND PUSH20 0xFFFFFFFFFFFFFFFFFFFFFFFFFFFFFFFFFFFFFFFF AND PUSH20 0xFFFFFFFFFFFFFFFFFFFFFFFFFFFFFFFFFFFFFFFF AND DUP2 MSTORE PUSH1 0x20 ADD PUSH1 0x3 DUP3 ADD SLOAD DUP2 MSTORE POP POP DUP4 DUP4 DUP2 MLOAD DUP2 LT PUSH2 0x849 JUMPI PUSH2 0x848 PUSH2 0x2809 JUMP JUMPDEST JUMPDEST PUSH1 0x20 MUL PUSH1 0x20 ADD ADD DUP2 SWAP1 MSTORE POP POP DUP1 DUP1 PUSH2 0x860 SWAP1 PUSH2 0x27C1 JUMP JUMPDEST SWAP2 POP POP PUSH2 0x776 JUMP JUMPDEST POP DUP1 SWAP3 POP POP POP SWAP2 SWAP1 POP JUMP JUMPDEST PUSH1 0x2 PUSH1 0x20 MSTORE DUP1 PUSH1 0x0 MSTORE PUSH1 0x40 PUSH1 0x0 KECCAK256 PUSH1 0x0 SWAP2 POP SWAP1 POP DUP1 PUSH1 0x0 ADD SLOAD SWAP1 DUP1 PUSH1 0x1 ADD SLOAD SWAP1 DUP1 PUSH1 0x2 ADD PUSH1 0x0 SWAP1 SLOAD SWAP1 PUSH2 0x100 EXP SWAP1 DIV PUSH20 0xFFFFFFFFFFFFFFFFFFFFFFFFFFFFFFFFFFFFFFFF AND SWAP1 DUP1 PUSH1 0x3 ADD SLOAD SWAP1 POP DUP5 JUMP JUMPDEST DUP1 PUSH1 0x0 DUP2 GT DUP1 ISZERO PUSH2 0x8D5 JUMPI POP PUSH1 0x1 SLOAD DUP2 LT JUMPDEST PUSH2 0x914 JUMPI PUSH1 0x40 MLOAD PUSH32 0x8C379A000000000000000000000000000000000000000000000000000000000 DUP2 MSTORE PUSH1 0x4 ADD PUSH2 0x90B SWAP1 PUSH2 0x2884 JUMP JUMPDEST PUSH1 0x40 MLOAD DUP1 SWAP2 SUB SWAP1 REVERT JUMPDEST PUSH1 0x0 DUP1 PUSH1 0x0 DUP5 DUP2 MSTORE PUSH1 0x20 ADD SWAP1 DUP2 MSTORE PUSH1 0x20 ADD PUSH1 0x0 KECCAK256 SWAP1 POP PUSH1 0x0 JUMPDEST DUP2 PUSH1 0x7 ADD DUP1 SLOAD SWAP1 POP DUP2 LT ISZERO PUSH2 0xB8B JUMPI PUSH1 0x0 DUP3 PUSH1 0x7 ADD DUP3 DUP2 SLOAD DUP2 LT PUSH2 0x954 JUMPI PUSH2 0x953 PUSH2 0x2809 JUMP JUMPDEST JUMPDEST SWAP1 PUSH1 0x0 MSTORE PUSH1 0x20 PUSH1 0x0 KECCAK256 ADD SLOAD SWAP1 POP PUSH1 0x0 PUSH1 0x2 PUSH1 0x0 DUP4 DUP2 MSTORE PUSH1 0x20 ADD SWAP1 DUP2 MSTORE PUSH1 0x20 ADD PUSH1 0x0 KECCAK256 SWAP1 POP DUP1 PUSH1 0x2 ADD PUSH1 0x0 SWAP1 SLOAD SWAP1 PUSH2 0x100 EXP SWAP1 DIV PUSH20 0xFFFFFFFFFFFFFFFFFFFFFFFFFFFFFFFFFFFFFFFF AND PUSH20 0xFFFFFFFFFFFFFFFFFFFFFFFFFFFFFFFFFFFFFFFF AND PUSH2 0x8FC DUP3 PUSH1 0x3 ADD SLOAD SWAP1 DUP2 ISZERO MUL SWAP1 PUSH1 0x40 MLOAD PUSH1 0x0 PUSH1 0x40 MLOAD DUP1 DUP4 SUB DUP2 DUP6 DUP9 DUP9 CALL SWAP4 POP POP POP POP ISZERO DUP1 ISZERO PUSH2 0x9E6 JUMPI RETURNDATASIZE PUSH1 0x0 DUP1 RETURNDATACOPY RETURNDATASIZE PUSH1 0x0 REVERT JUMPDEST POP PUSH1 0x0 JUMPDEST PUSH1 0x5 PUSH1 0x0 DUP4 PUSH1 0x2 ADD PUSH1 0x0 SWAP1 SLOAD SWAP1 PUSH2 0x100 EXP SWAP1 DIV PUSH20 0xFFFFFFFFFFFFFFFFFFFFFFFFFFFFFFFFFFFFFFFF AND PUSH20 0xFFFFFFFFFFFFFFFFFFFFFFFFFFFFFFFFFFFFFFFF AND PUSH20 0xFFFFFFFFFFFFFFFFFFFFFFFFFFFFFFFFFFFFFFFF AND DUP2 MSTORE PUSH1 0x20 ADD SWAP1 DUP2 MSTORE PUSH1 0x20 ADD PUSH1 0x0 KECCAK256 DUP1 SLOAD SWAP1 POP DUP2 LT ISZERO PUSH2 0xB75 JUMPI DUP3 PUSH1 0x5 PUSH1 0x0 DUP5 PUSH1 0x2 ADD PUSH1 0x0 SWAP1 SLOAD SWAP1 PUSH2 0x100 EXP SWAP1 DIV PUSH20 0xFFFFFFFFFFFFFFFFFFFFFFFFFFFFFFFFFFFFFFFF AND PUSH20 0xFFFFFFFFFFFFFFFFFFFFFFFFFFFFFFFFFFFFFFFF AND PUSH20 0xFFFFFFFFFFFFFFFFFFFFFFFFFFFFFFFFFFFFFFFF AND DUP2 MSTORE PUSH1 0x20 ADD SWAP1 DUP2 MSTORE PUSH1 0x20 ADD PUSH1 0x0 KECCAK256 DUP3 DUP2 SLOAD DUP2 LT PUSH2 0xACE JUMPI PUSH2 0xACD PUSH2 0x2809 JUMP JUMPDEST JUMPDEST SWAP1 PUSH1 0x0 MSTORE PUSH1 0x20 PUSH1 0x0 KECCAK256 ADD SLOAD SUB PUSH2 0xB62 JUMPI PUSH1 0x5 PUSH1 0x0 DUP4 PUSH1 0x2 ADD PUSH1 0x0 SWAP1 SLOAD SWAP1 PUSH2 0x100 EXP SWAP1 DIV PUSH20 0xFFFFFFFFFFFFFFFFFFFFFFFFFFFFFFFFFFFFFFFF AND PUSH20 0xFFFFFFFFFFFFFFFFFFFFFFFFFFFFFFFFFFFFFFFF AND PUSH20 0xFFFFFFFFFFFFFFFFFFFFFFFFFFFFFFFFFFFFFFFF AND DUP2 MSTORE PUSH1 0x20 ADD SWAP1 DUP2 MSTORE PUSH1 0x20 ADD PUSH1 0x0 KECCAK256 DUP2 DUP2 SLOAD DUP2 LT PUSH2 0xB53 JUMPI PUSH2 0xB52 PUSH2 0x2809 JUMP JUMPDEST JUMPDEST SWAP1 PUSH1 0x0 MSTORE PUSH1 0x20 PUSH1 0x0 KECCAK256 ADD PUSH1 0x0 SWAP1 SSTORE JUMPDEST DUP1 DUP1 PUSH2 0xB6D SWAP1 PUSH2 0x27C1 JUMP JUMPDEST SWAP2 POP POP PUSH2 0x9EA JUMP JUMPDEST POP POP POP DUP1 DUP1 PUSH2 0xB83 SWAP1 PUSH2 0x27C1 JUMP JUMPDEST SWAP2 POP POP PUSH2 0x92D JUMP JUMPDEST POP PUSH1 0x0 JUMPDEST PUSH1 0x4 PUSH1 0x0 DUP4 PUSH1 0x1 ADD PUSH1 0x0 SWAP1 SLOAD SWAP1 PUSH2 0x100 EXP SWAP1 DIV PUSH20 0xFFFFFFFFFFFFFFFFFFFFFFFFFFFFFFFFFFFFFFFF AND PUSH20 0xFFFFFFFFFFFFFFFFFFFFFFFFFFFFFFFFFFFFFFFF AND PUSH20 0xFFFFFFFFFFFFFFFFFFFFFFFFFFFFFFFFFFFFFFFF AND DUP2 MSTORE PUSH1 0x20 ADD SWAP1 DUP2 MSTORE PUSH1 0x20 ADD PUSH1 0x0 KECCAK256 DUP1 SLOAD SWAP1 POP DUP2 LT ISZERO PUSH2 0xD1A JUMPI DUP4 PUSH1 0x4 PUSH1 0x0 DUP5 PUSH1 0x1 ADD PUSH1 0x0 SWAP1 SLOAD SWAP1 PUSH2 0x100 EXP SWAP1 DIV PUSH20 0xFFFFFFFFFFFFFFFFFFFFFFFFFFFFFFFFFFFFFFFF AND PUSH20 0xFFFFFFFFFFFFFFFFFFFFFFFFFFFFFFFFFFFFFFFF AND PUSH20 0xFFFFFFFFFFFFFFFFFFFFFFFFFFFFFFFFFFFFFFFF AND DUP2 MSTORE PUSH1 0x20 ADD SWAP1 DUP2 MSTORE PUSH1 0x20 ADD PUSH1 0x0 KECCAK256 DUP3 DUP2 SLOAD DUP2 LT PUSH2 0xC73 JUMPI PUSH2 0xC72 PUSH2 0x2809 JUMP JUMPDEST JUMPDEST SWAP1 PUSH1 0x0 MSTORE PUSH1 0x20 PUSH1 0x0 KECCAK256 ADD SLOAD SUB PUSH2 0xD07 JUMPI PUSH1 0x4 PUSH1 0x0 DUP4 PUSH1 0x1 ADD PUSH1 0x0 SWAP1 SLOAD SWAP1 PUSH2 0x100 EXP SWAP1 DIV PUSH20 0xFFFFFFFFFFFFFFFFFFFFFFFFFFFFFFFFFFFFFFFF AND PUSH20 0xFFFFFFFFFFFFFFFFFFFFFFFFFFFFFFFFFFFFFFFF AND PUSH20 0xFFFFFFFFFFFFFFFFFFFFFFFFFFFFFFFFFFFFFFFF AND DUP2 MSTORE PUSH1 0x20 ADD SWAP1 DUP2 MSTORE PUSH1 0x20 ADD PUSH1 0x0 KECCAK256 DUP2 DUP2 SLOAD DUP2 LT PUSH2 0xCF8 JUMPI PUSH2 0xCF7 PUSH2 0x2809 JUMP JUMPDEST JUMPDEST SWAP1 PUSH1 0x0 MSTORE PUSH1 0x20 PUSH1 0x0 KECCAK256 ADD PUSH1 0x0 SWAP1 SSTORE JUMPDEST DUP1 DUP1 PUSH2 0xD12 SWAP1 PUSH2 0x27C1 JUMP JUMPDEST SWAP2 POP POP PUSH2 0xB8F JUMP JUMPDEST POP PUSH1 0x0 DUP1 DUP5 DUP2 MSTORE PUSH1 0x20 ADD SWAP1 DUP2 MSTORE PUSH1 0x20 ADD PUSH1 0x0 KECCAK256 PUSH1 0x0 DUP1 DUP3 ADD PUSH1 0x0 SWAP1 SSTORE PUSH1 0x1 DUP3 ADD PUSH1 0x0 PUSH2 0x100 EXP DUP2 SLOAD SWAP1 PUSH20 0xFFFFFFFFFFFFFFFFFFFFFFFFFFFFFFFFFFFFFFFF MUL NOT AND SWAP1 SSTORE PUSH1 0x2 DUP3 ADD PUSH1 0x0 PUSH2 0xD6D SWAP2 SWAP1 PUSH2 0x1B93 JUMP JUMPDEST PUSH1 0x3 DUP3 ADD PUSH1 0x0 PUSH2 0xD7D SWAP2 SWAP1 PUSH2 0x1B93 JUMP JUMPDEST PUSH1 0x4 DUP3 ADD PUSH1 0x0 SWAP1 SSTORE PUSH1 0x5 DUP3 ADD PUSH1 0x0 SWAP1 SSTORE PUSH1 0x6 DUP3 ADD PUSH1 0x0 SWAP1 SSTORE PUSH1 0x7 DUP3 ADD PUSH1 0x0 PUSH2 0xDA5 SWAP2 SWAP1 PUSH2 0x1BD3 JUMP JUMPDEST POP POP POP POP POP JUMP JUMPDEST DUP1 PUSH1 0x0 DUP2 GT DUP1 ISZERO PUSH2 0xDBE JUMPI POP PUSH1 0x1 SLOAD DUP2 LT JUMPDEST PUSH2 0xDFD JUMPI PUSH1 0x40 MLOAD PUSH32 0x8C379A000000000000000000000000000000000000000000000000000000000 DUP2 MSTORE PUSH1 0x4 ADD PUSH2 0xDF4 SWAP1 PUSH2 0x2884 JUMP JUMPDEST PUSH1 0x40 MLOAD DUP1 SWAP2 SUB SWAP1 REVERT JUMPDEST PUSH1 0x0 DUP1 PUSH1 0x0 DUP5 DUP2 MSTORE PUSH1 0x20 ADD SWAP1 DUP2 MSTORE PUSH1 0x20 ADD PUSH1 0x0 KECCAK256 SWAP1 POP DUP1 PUSH1 0x5 ADD SLOAD TIMESTAMP LT PUSH2 0xE59 JUMPI PUSH1 0x40 MLOAD PUSH32 0x8C379A000000000000000000000000000000000000000000000000000000000 DUP2 MSTORE PUSH1 0x4 ADD PUSH2 0xE50 SWAP1 PUSH2 0x28F0 JUMP JUMPDEST PUSH1 0x40 MLOAD DUP1 SWAP2 SUB SWAP1 REVERT JUMPDEST PUSH1 0x0 PUSH1 0x2 PUSH1 0x0 DUP4 PUSH1 0x6 ADD SLOAD DUP2 MSTORE PUSH1 0x20 ADD SWAP1 DUP2 MSTORE PUSH1 0x20 ADD PUSH1 0x0 KECCAK256 SWAP1 POP PUSH1 0x0 CALLVALUE SWAP1 POP PUSH1 0x0 JUMPDEST DUP4 PUSH1 0x7 ADD DUP1 SLOAD SWAP1 POP DUP2 LT ISZERO PUSH2 0xF40 JUMPI PUSH1 0x0 PUSH1 0x2 PUSH1 0x0 DUP7 PUSH1 0x7 ADD DUP5 DUP2 SLOAD DUP2 LT PUSH2 0xEA7 JUMPI PUSH2 0xEA6 PUSH2 0x2809 JUMP JUMPDEST JUMPDEST SWAP1 PUSH1 0x0 MSTORE PUSH1 0x20 PUSH1 0x0 KECCAK256 ADD SLOAD DUP2 MSTORE PUSH1 0x20 ADD SWAP1 DUP2 MSTORE PUSH1 0x20 ADD PUSH1 0x0 KECCAK256 SWAP1 POP CALLER PUSH20 0xFFFFFFFFFFFFFFFFFFFFFFFFFFFFFFFFFFFFFFFF AND DUP2 PUSH1 0x2 ADD PUSH1 0x0 SWAP1 SLOAD SWAP1 PUSH2 0x100 EXP SWAP1 DIV PUSH20 0xFFFFFFFFFFFFFFFFFFFFFFFFFFFFFFFFFFFFFFFF AND PUSH20 0xFFFFFFFFFFFFFFFFFFFFFFFFFFFFFFFFFFFFFFFF AND SUB PUSH2 0xF2C JUMPI DUP1 PUSH1 0x3 ADD SLOAD DUP4 PUSH2 0xF29 SWAP2 SWAP1 PUSH2 0x250F JUMP JUMPDEST SWAP3 POP JUMPDEST POP DUP1 DUP1 PUSH2 0xF38 SWAP1 PUSH2 0x27C1 JUMP JUMPDEST SWAP2 POP POP PUSH2 0xE7C JUMP JUMPDEST POP DUP3 PUSH1 0x4 ADD SLOAD DUP2 LT ISZERO DUP1 ISZERO PUSH2 0xF58 JUMPI POP DUP2 PUSH1 0x3 ADD SLOAD DUP2 GT JUMPDEST PUSH2 0xF97 JUMPI PUSH1 0x40 MLOAD PUSH32 0x8C379A000000000000000000000000000000000000000000000000000000000 DUP2 MSTORE PUSH1 0x4 ADD PUSH2 0xF8E SWAP1 PUSH2 0x29A8 JUMP JUMPDEST PUSH1 0x40 MLOAD DUP1 SWAP2 SUB SWAP1 REVERT JUMPDEST PUSH1 0x3 SLOAD DUP4 PUSH1 0x6 ADD DUP2 SWAP1 SSTORE POP PUSH1 0x40 MLOAD DUP1 PUSH1 0x80 ADD PUSH1 0x40 MSTORE DUP1 PUSH1 0x3 SLOAD DUP2 MSTORE PUSH1 0x20 ADD DUP7 DUP2 MSTORE PUSH1 0x20 ADD CALLER PUSH20 0xFFFFFFFFFFFFFFFFFFFFFFFFFFFFFFFFFFFFFFFF AND DUP2 MSTORE PUSH1 0x20 ADD DUP3 DUP2 MSTORE POP PUSH1 0x2 PUSH1 0x0 PUSH1 0x3 SLOAD DUP2 MSTORE PUSH1 0x20 ADD SWAP1 DUP2 MSTORE PUSH1 0x20 ADD PUSH1 0x0 KECCAK256 PUSH1 0x0 DUP3 ADD MLOAD DUP2 PUSH1 0x0 ADD SSTORE PUSH1 0x20 DUP3 ADD MLOAD DUP2 PUSH1 0x1 ADD SSTORE PUSH1 0x40 DUP3 ADD MLOAD DUP2 PUSH1 0x2 ADD PUSH1 0x0 PUSH2 0x100 EXP DUP2 SLOAD DUP2 PUSH20 0xFFFFFFFFFFFFFFFFFFFFFFFFFFFFFFFFFFFFFFFF MUL NOT AND SWAP1 DUP4 PUSH20 0xFFFFFFFFFFFFFFFFFFFFFFFFFFFFFFFFFFFFFFFF AND MUL OR SWAP1 SSTORE POP PUSH1 0x60 DUP3 ADD MLOAD DUP2 PUSH1 0x3 ADD SSTORE SWAP1 POP POP DUP3 PUSH1 0x7 ADD PUSH1 0x3 SLOAD SWAP1 DUP1 PUSH1 0x1 DUP2 SLOAD ADD DUP1 DUP3 SSTORE DUP1 SWAP2 POP POP PUSH1 0x1 SWAP1 SUB SWAP1 PUSH1 0x0 MSTORE PUSH1 0x20 PUSH1 0x0 KECCAK256 ADD PUSH1 0x0 SWAP1 SWAP2 SWAP1 SWAP2 SWAP1 SWAP2 POP SSTORE PUSH1 0x1 DUP2 PUSH2 0x1092 SWAP2 SWAP1 PUSH2 0x250F JUMP JUMPDEST DUP4 PUSH1 0x4 ADD DUP2 SWAP1 SSTORE POP PUSH1 0x5 PUSH1 0x0 CALLER PUSH20 0xFFFFFFFFFFFFFFFFFFFFFFFFFFFFFFFFFFFFFFFF AND PUSH20 0xFFFFFFFFFFFFFFFFFFFFFFFFFFFFFFFFFFFFFFFF AND DUP2 MSTORE PUSH1 0x20 ADD SWAP1 DUP2 MSTORE PUSH1 0x20 ADD PUSH1 0x0 KECCAK256 PUSH1 0x3 SLOAD SWAP1 DUP1 PUSH1 0x1 DUP2 SLOAD ADD DUP1 DUP3 SSTORE DUP1 SWAP2 POP POP PUSH1 0x1 SWAP1 SUB SWAP1 PUSH1 0x0 MSTORE PUSH1 0x20 PUSH1 0x0 KECCAK256 ADD PUSH1 0x0 SWAP1 SWAP2 SWAP1 SWAP2 SWAP1 SWAP2 POP SSTORE PUSH1 0x3 PUSH1 0x0 DUP2 SLOAD DUP1 SWAP3 SWAP2 SWAP1 PUSH2 0x1115 SWAP1 PUSH2 0x27C1 JUMP JUMPDEST SWAP2 SWAP1 POP SSTORE POP POP POP POP POP POP JUMP JUMPDEST PUSH1 0x60 DUP2 PUSH1 0x0 DUP2 GT DUP1 ISZERO PUSH2 0x1135 JUMPI POP PUSH1 0x1 SLOAD DUP2 LT JUMPDEST PUSH2 0x1174 JUMPI PUSH1 0x40 MLOAD PUSH32 0x8C379A000000000000000000000000000000000000000000000000000000000 DUP2 MSTORE PUSH1 0x4 ADD PUSH2 0x116B SWAP1 PUSH2 0x2884 JUMP JUMPDEST PUSH1 0x40 MLOAD DUP1 SWAP2 SUB SWAP1 REVERT JUMPDEST PUSH1 0x0 DUP1 PUSH1 0x0 DUP6 DUP2 MSTORE PUSH1 0x20 ADD SWAP1 DUP2 MSTORE PUSH1 0x20 ADD PUSH1 0x0 KECCAK256 SWAP1 POP PUSH1 0x0 DUP2 PUSH1 0x7 ADD SWAP1 POP PUSH1 0x0 DUP2 DUP1 SLOAD SWAP1 POP PUSH8 0xFFFFFFFFFFFFFFFF DUP2 GT ISZERO PUSH2 0x11B2 JUMPI PUSH2 0x11B1 PUSH2 0x24B1 JUMP JUMPDEST JUMPDEST PUSH1 0x40 MLOAD SWAP1 DUP1 DUP3 MSTORE DUP1 PUSH1 0x20 MUL PUSH1 0x20 ADD DUP3 ADD PUSH1 0x40 MSTORE DUP1 ISZERO PUSH2 0x11EB JUMPI DUP2 PUSH1 0x20 ADD JUMPDEST PUSH2 0x11D8 PUSH2 0x1B55 JUMP JUMPDEST DUP2 MSTORE PUSH1 0x20 ADD SWAP1 PUSH1 0x1 SWAP1 SUB SWAP1 DUP2 PUSH2 0x11D0 JUMPI SWAP1 POP JUMPDEST POP SWAP1 POP PUSH1 0x0 JUMPDEST DUP3 DUP1 SLOAD SWAP1 POP DUP2 LT ISZERO PUSH2 0x12E3 JUMPI PUSH1 0x0 DUP4 DUP3 DUP2 SLOAD DUP2 LT PUSH2 0x1212 JUMPI PUSH2 0x1211 PUSH2 0x2809 JUMP JUMPDEST JUMPDEST SWAP1 PUSH1 0x0 MSTORE PUSH1 0x20 PUSH1 0x0 KECCAK256 ADD SLOAD SWAP1 POP PUSH1 0x2 PUSH1 0x0 DUP3 DUP2 MSTORE PUSH1 0x20 ADD SWAP1 DUP2 MSTORE PUSH1 0x20 ADD PUSH1 0x0 KECCAK256 PUSH1 0x40 MLOAD DUP1 PUSH1 0x80 ADD PUSH1 0x40 MSTORE SWAP1 DUP2 PUSH1 0x0 DUP3 ADD SLOAD DUP2 MSTORE PUSH1 0x20 ADD PUSH1 0x1 DUP3 ADD SLOAD DUP2 MSTORE PUSH1 0x20 ADD PUSH1 0x2 DUP3 ADD PUSH1 0x0 SWAP1 SLOAD SWAP1 PUSH2 0x100 EXP SWAP1 DIV PUSH20 0xFFFFFFFFFFFFFFFFFFFFFFFFFFFFFFFFFFFFFFFF AND PUSH20 0xFFFFFFFFFFFFFFFFFFFFFFFFFFFFFFFFFFFFFFFF AND PUSH20 0xFFFFFFFFFFFFFFFFFFFFFFFFFFFFFFFFFFFFFFFF AND DUP2 MSTORE PUSH1 0x20 ADD PUSH1 0x3 DUP3 ADD SLOAD DUP2 MSTORE POP POP DUP4 DUP4 DUP2 MLOAD DUP2 LT PUSH2 0x12C4 JUMPI PUSH2 0x12C3 PUSH2 0x2809 JUMP JUMPDEST JUMPDEST PUSH1 0x20 MUL PUSH1 0x20 ADD ADD DUP2 SWAP1 MSTORE POP POP DUP1 DUP1 PUSH2 0x12DB SWAP1 PUSH2 0x27C1 JUMP JUMPDEST SWAP2 POP POP PUSH2 0x11F1 JUMP JUMPDEST POP DUP1 SWAP5 POP POP POP POP POP SWAP2 SWAP1 POP JUMP JUMPDEST PUSH1 0x60 PUSH1 0x0 PUSH1 0x1 DUP1 SLOAD PUSH2 0x1302 SWAP2 SWAP1 PUSH2 0x29C8 JUMP JUMPDEST PUSH8 0xFFFFFFFFFFFFFFFF DUP2 GT ISZERO PUSH2 0x131B JUMPI PUSH2 0x131A PUSH2 0x24B1 JUMP JUMPDEST JUMPDEST PUSH1 0x40 MLOAD SWAP1 DUP1 DUP3 MSTORE DUP1 PUSH1 0x20 MUL PUSH1 0x20 ADD DUP3 ADD PUSH1 0x40 MSTORE DUP1 ISZERO PUSH2 0x1354 JUMPI DUP2 PUSH1 0x20 ADD JUMPDEST PUSH2 0x1341 PUSH2 0x1BF4 JUMP JUMPDEST DUP2 MSTORE PUSH1 0x20 ADD SWAP1 PUSH1 0x1 SWAP1 SUB SWAP1 DUP2 PUSH2 0x1339 JUMPI SWAP1 POP JUMPDEST POP SWAP1 POP PUSH1 0x0 PUSH1 0x1 SWAP1 POP JUMPDEST PUSH1 0x1 SLOAD DUP2 LT ISZERO PUSH2 0x15BD JUMPI PUSH1 0x0 DUP1 DUP3 DUP2 MSTORE PUSH1 0x20 ADD SWAP1 DUP2 MSTORE PUSH1 0x20 ADD PUSH1 0x0 KECCAK256 PUSH1 0x40 MLOAD DUP1 PUSH2 0x100 ADD PUSH1 0x40 MSTORE SWAP1 DUP2 PUSH1 0x0 DUP3 ADD SLOAD DUP2 MSTORE PUSH1 0x20 ADD PUSH1 0x1 DUP3 ADD PUSH1 0x0 SWAP1 SLOAD SWAP1 PUSH2 0x100 EXP SWAP1 DIV PUSH20 0xFFFFFFFFFFFFFFFFFFFFFFFFFFFFFFFFFFFFFFFF AND PUSH20 0xFFFFFFFFFFFFFFFFFFFFFFFFFFFFFFFFFFFFFFFF AND PUSH20 0xFFFFFFFFFFFFFFFFFFFFFFFFFFFFFFFFFFFFFFFF AND DUP2 MSTORE PUSH1 0x20 ADD PUSH1 0x2 DUP3 ADD DUP1 SLOAD PUSH2 0x13F6 SWAP1 PUSH2 0x23EE JUMP JUMPDEST DUP1 PUSH1 0x1F ADD PUSH1 0x20 DUP1 SWAP2 DIV MUL PUSH1 0x20 ADD PUSH1 0x40 MLOAD SWAP1 DUP2 ADD PUSH1 0x40 MSTORE DUP1 SWAP3 SWAP2 SWAP1 DUP2 DUP2 MSTORE PUSH1 0x20 ADD DUP3 DUP1 SLOAD PUSH2 0x1422 SWAP1 PUSH2 0x23EE JUMP JUMPDEST DUP1 ISZERO PUSH2 0x146F JUMPI DUP1 PUSH1 0x1F LT PUSH2 0x1444 JUMPI PUSH2 0x100 DUP1 DUP4 SLOAD DIV MUL DUP4 MSTORE SWAP2 PUSH1 0x20 ADD SWAP2 PUSH2 0x146F JUMP JUMPDEST DUP3 ADD SWAP2 SWAP1 PUSH1 0x0 MSTORE PUSH1 0x20 PUSH1 0x0 KECCAK256 SWAP1 JUMPDEST DUP2 SLOAD DUP2 MSTORE SWAP1 PUSH1 0x1 ADD SWAP1 PUSH1 0x20 ADD DUP1 DUP4 GT PUSH2 0x1452 JUMPI DUP3 SWAP1 SUB PUSH1 0x1F AND DUP3 ADD SWAP2 JUMPDEST POP POP POP POP POP DUP2 MSTORE PUSH1 0x20 ADD PUSH1 0x3 DUP3 ADD DUP1 SLOAD PUSH2 0x1488 SWAP1 PUSH2 0x23EE JUMP JUMPDEST DUP1 PUSH1 0x1F ADD PUSH1 0x20 DUP1 SWAP2 DIV MUL PUSH1 0x20 ADD PUSH1 0x40 MLOAD SWAP1 DUP2 ADD PUSH1 0x40 MSTORE DUP1 SWAP3 SWAP2 SWAP1 DUP2 DUP2 MSTORE PUSH1 0x20 ADD DUP3 DUP1 SLOAD PUSH2 0x14B4 SWAP1 PUSH2 0x23EE JUMP JUMPDEST DUP1 ISZERO PUSH2 0x1501 JUMPI DUP1 PUSH1 0x1F LT PUSH2 0x14D6 JUMPI PUSH2 0x100 DUP1 DUP4 SLOAD DIV MUL DUP4 MSTORE SWAP2 PUSH1 0x20 ADD SWAP2 PUSH2 0x1501 JUMP JUMPDEST DUP3 ADD SWAP2 SWAP1 PUSH1 0x0 MSTORE PUSH1 0x20 PUSH1 0x0 KECCAK256 SWAP1 JUMPDEST DUP2 SLOAD DUP2 MSTORE SWAP1 PUSH1 0x1 ADD SWAP1 PUSH1 0x20 ADD DUP1 DUP4 GT PUSH2 0x14E4 JUMPI DUP3 SWAP1 SUB PUSH1 0x1F AND DUP3 ADD SWAP2 JUMPDEST POP POP POP POP POP DUP2 MSTORE PUSH1 0x20 ADD PUSH1 0x4 DUP3 ADD SLOAD DUP2 MSTORE PUSH1 0x20 ADD PUSH1 0x5 DUP3 ADD SLOAD DUP2 MSTORE PUSH1 0x20 ADD PUSH1 0x6 DUP3 ADD SLOAD DUP2 MSTORE PUSH1 0x20 ADD PUSH1 0x7 DUP3 ADD DUP1 SLOAD DUP1 PUSH1 0x20 MUL PUSH1 0x20 ADD PUSH1 0x40 MLOAD SWAP1 DUP2 ADD PUSH1 0x40 MSTORE DUP1 SWAP3 SWAP2 SWAP1 DUP2 DUP2 MSTORE PUSH1 0x20 ADD DUP3 DUP1 SLOAD DUP1 ISZERO PUSH2 0x1577 JUMPI PUSH1 0x20 MUL DUP3 ADD SWAP2 SWAP1 PUSH1 0x0 MSTORE PUSH1 0x20 PUSH1 0x0 KECCAK256 SWAP1 JUMPDEST DUP2 SLOAD DUP2 MSTORE PUSH1 0x20 ADD SWAP1 PUSH1 0x1 ADD SWAP1 DUP1 DUP4 GT PUSH2 0x1563 JUMPI JUMPDEST POP POP POP POP POP DUP2 MSTORE POP POP DUP3 PUSH1 0x1 DUP4 PUSH2 0x158E SWAP2 SWAP1 PUSH2 0x29C8 JUMP JUMPDEST DUP2 MLOAD DUP2 LT PUSH2 0x159F JUMPI PUSH2 0x159E PUSH2 0x2809 JUMP JUMPDEST JUMPDEST PUSH1 0x20 MUL PUSH1 0x20 ADD ADD DUP2 SWAP1 MSTORE POP DUP1 DUP1 PUSH2 0x15B5 SWAP1 PUSH2 0x27C1 JUMP JUMPDEST SWAP2 POP POP PUSH2 0x135E JUMP JUMPDEST POP DUP1 SWAP2 POP POP SWAP1 JUMP JUMPDEST DUP1 PUSH1 0x0 DUP2 GT DUP1 ISZERO PUSH2 0x15D7 JUMPI POP PUSH1 0x1 SLOAD DUP2 LT JUMPDEST PUSH2 0x1616 JUMPI PUSH1 0x40 MLOAD PUSH32 0x8C379A000000000000000000000000000000000000000000000000000000000 DUP2 MSTORE PUSH1 0x4 ADD PUSH2 0x160D SWAP1 PUSH2 0x2884 JUMP JUMPDEST PUSH1 0x40 MLOAD DUP1 SWAP2 SUB SWAP1 REVERT JUMPDEST PUSH1 0x0 DUP1 PUSH1 0x0 DUP5 DUP2 MSTORE PUSH1 0x20 ADD SWAP1 DUP2 MSTORE PUSH1 0x20 ADD PUSH1 0x0 KECCAK256 SWAP1 POP PUSH1 0x0 PUSH1 0x2 PUSH1 0x0 DUP4 PUSH1 0x6 ADD SLOAD DUP2 MSTORE PUSH1 0x20 ADD SWAP1 DUP2 MSTORE PUSH1 0x20 ADD PUSH1 0x0 KECCAK256 SWAP1 POP DUP2 PUSH1 0x5 ADD SLOAD TIMESTAMP GT PUSH2 0x168D JUMPI PUSH1 0x40 MLOAD PUSH32 0x8C379A000000000000000000000000000000000000000000000000000000000 DUP2 MSTORE PUSH1 0x4 ADD PUSH2 0x1684 SWAP1 PUSH2 0x2A48 JUMP JUMPDEST PUSH1 0x40 MLOAD DUP1 SWAP2 SUB SWAP1 REVERT JUMPDEST PUSH1 0x0 JUMPDEST DUP3 PUSH1 0x7 ADD DUP1 SLOAD SWAP1 POP DUP2 LT ISZERO PUSH2 0x176B JUMPI PUSH1 0x0 DUP4 PUSH1 0x7 ADD DUP3 DUP2 SLOAD DUP2 LT PUSH2 0x16B7 JUMPI PUSH2 0x16B6 PUSH2 0x2809 JUMP JUMPDEST JUMPDEST SWAP1 PUSH1 0x0 MSTORE PUSH1 0x20 PUSH1 0x0 KECCAK256 ADD SLOAD SWAP1 POP PUSH1 0x0 PUSH1 0x2 PUSH1 0x0 DUP4 DUP2 MSTORE PUSH1 0x20 ADD SWAP1 DUP2 MSTORE PUSH1 0x20 ADD PUSH1 0x0 KECCAK256 SWAP1 POP DUP4 PUSH1 0x0 ADD SLOAD DUP3 EQ PUSH2 0x1756 JUMPI DUP1 PUSH1 0x2 ADD PUSH1 0x0 SWAP1 SLOAD SWAP1 PUSH2 0x100 EXP SWAP1 DIV PUSH20 0xFFFFFFFFFFFFFFFFFFFFFFFFFFFFFFFFFFFFFFFF AND PUSH20 0xFFFFFFFFFFFFFFFFFFFFFFFFFFFFFFFFFFFFFFFF AND PUSH2 0x8FC DUP3 PUSH1 0x3 ADD SLOAD SWAP1 DUP2 ISZERO MUL SWAP1 PUSH1 0x40 MLOAD PUSH1 0x0 PUSH1 0x40 MLOAD DUP1 DUP4 SUB DUP2 DUP6 DUP9 DUP9 CALL SWAP4 POP POP POP POP ISZERO DUP1 ISZERO PUSH2 0x1754 JUMPI RETURNDATASIZE PUSH1 0x0 DUP1 RETURNDATACOPY RETURNDATASIZE PUSH1 0x0 REVERT JUMPDEST POP JUMPDEST POP POP DUP1 DUP1 PUSH2 0x1763 SWAP1 PUSH2 0x27C1 JUMP JUMPDEST SWAP2 POP POP PUSH2 0x1690 JUMP JUMPDEST POP DUP2 PUSH1 0x1 ADD PUSH1 0x0 SWAP1 SLOAD SWAP1 PUSH2 0x100 EXP SWAP1 DIV PUSH20 0xFFFFFFFFFFFFFFFFFFFFFFFFFFFFFFFFFFFFFFFF AND PUSH20 0xFFFFFFFFFFFFFFFFFFFFFFFFFFFFFFFFFFFFFFFF AND PUSH2 0x8FC DUP3 PUSH1 0x3 ADD SLOAD SWAP1 DUP2 ISZERO MUL SWAP1 PUSH1 0x40 MLOAD PUSH1 0x0 PUSH1 0x40 MLOAD DUP1 DUP4 SUB DUP2 DUP6 DUP9 DUP9 CALL SWAP4 POP POP POP POP ISZERO DUP1 ISZERO PUSH2 0x17DA JUMPI RETURNDATASIZE PUSH1 0x0 DUP1 RETURNDATACOPY RETURNDATASIZE PUSH1 0x0 REVERT JUMPDEST POP POP POP POP POP JUMP JUMPDEST PUSH1 0x60 PUSH1 0x0 PUSH1 0x4 PUSH1 0x0 DUP5 PUSH20 0xFFFFFFFFFFFFFFFFFFFFFFFFFFFFFFFFFFFFFFFF AND PUSH20 0xFFFFFFFFFFFFFFFFFFFFFFFFFFFFFFFFFFFFFFFF AND DUP2 MSTORE PUSH1 0x20 ADD SWAP1 DUP2 MSTORE PUSH1 0x20 ADD PUSH1 0x0 KECCAK256 SWAP1 POP PUSH1 0x0 DUP2 DUP1 SLOAD SWAP1 POP PUSH8 0xFFFFFFFFFFFFFFFF DUP2 GT ISZERO PUSH2 0x1846 JUMPI PUSH2 0x1845 PUSH2 0x24B1 JUMP JUMPDEST JUMPDEST PUSH1 0x40 MLOAD SWAP1 DUP1 DUP3 MSTORE DUP1 PUSH1 0x20 MUL PUSH1 0x20 ADD DUP3 ADD PUSH1 0x40 MSTORE DUP1 ISZERO PUSH2 0x187F JUMPI DUP2 PUSH1 0x20 ADD JUMPDEST PUSH2 0x186C PUSH2 0x1BF4 JUMP JUMPDEST DUP2 MSTORE PUSH1 0x20 ADD SWAP1 PUSH1 0x1 SWAP1 SUB SWAP1 DUP2 PUSH2 0x1864 JUMPI SWAP1 POP JUMPDEST POP SWAP1 POP PUSH1 0x0 JUMPDEST DUP3 DUP1 SLOAD SWAP1 POP DUP2 LT ISZERO PUSH2 0x1AFD JUMPI PUSH1 0x0 DUP4 DUP3 DUP2 SLOAD DUP2 LT PUSH2 0x18A6 JUMPI PUSH2 0x18A5 PUSH2 0x2809 JUMP JUMPDEST JUMPDEST SWAP1 PUSH1 0x0 MSTORE PUSH1 0x20 PUSH1 0x0 KECCAK256 ADD SLOAD SWAP1 POP PUSH1 0x0 DUP1 DUP3 DUP2 MSTORE PUSH1 0x20 ADD SWAP1 DUP2 MSTORE PUSH1 0x20 ADD PUSH1 0x0 KECCAK256 PUSH1 0x40 MLOAD DUP1 PUSH2 0x100 ADD PUSH1 0x40 MSTORE SWAP1 DUP2 PUSH1 0x0 DUP3 ADD SLOAD DUP2 MSTORE PUSH1 0x20 ADD PUSH1 0x1 DUP3 ADD PUSH1 0x0 SWAP1 SLOAD SWAP1 PUSH2 0x100 EXP SWAP1 DIV PUSH20 0xFFFFFFFFFFFFFFFFFFFFFFFFFFFFFFFFFFFFFFFF AND PUSH20 0xFFFFFFFFFFFFFFFFFFFFFFFFFFFFFFFFFFFFFFFF AND PUSH20 0xFFFFFFFFFFFFFFFFFFFFFFFFFFFFFFFFFFFFFFFF AND DUP2 MSTORE PUSH1 0x20 ADD PUSH1 0x2 DUP3 ADD DUP1 SLOAD PUSH2 0x1941 SWAP1 PUSH2 0x23EE JUMP JUMPDEST DUP1 PUSH1 0x1F ADD PUSH1 0x20 DUP1 SWAP2 DIV MUL PUSH1 0x20 ADD PUSH1 0x40 MLOAD SWAP1 DUP2 ADD PUSH1 0x40 MSTORE DUP1 SWAP3 SWAP2 SWAP1 DUP2 DUP2 MSTORE PUSH1 0x20 ADD DUP3 DUP1 SLOAD PUSH2 0x196D SWAP1 PUSH2 0x23EE JUMP JUMPDEST DUP1 ISZERO PUSH2 0x19BA JUMPI DUP1 PUSH1 0x1F LT PUSH2 0x198F JUMPI PUSH2 0x100 DUP1 DUP4 SLOAD DIV MUL DUP4 MSTORE SWAP2 PUSH1 0x20 ADD SWAP2 PUSH2 0x19BA JUMP JUMPDEST DUP3 ADD SWAP2 SWAP1 PUSH1 0x0 MSTORE PUSH1 0x20 PUSH1 0x0 KECCAK256 SWAP1 JUMPDEST DUP2 SLOAD DUP2 MSTORE SWAP1 PUSH1 0x1 ADD SWAP1 PUSH1 0x20 ADD DUP1 DUP4 GT PUSH2 0x199D JUMPI DUP3 SWAP1 SUB PUSH1 0x1F AND DUP3 ADD SWAP2 JUMPDEST POP POP POP POP POP DUP2 MSTORE PUSH1 0x20 ADD PUSH1 0x3 DUP3 ADD DUP1 SLOAD PUSH2 0x19D3 SWAP1 PUSH2 0x23EE JUMP JUMPDEST DUP1 PUSH1 0x1F ADD PUSH1 0x20 DUP1 SWAP2 DIV MUL PUSH1 0x20 ADD PUSH1 0x40 MLOAD SWAP1 DUP2 ADD PUSH1 0x40 MSTORE DUP1 SWAP3 SWAP2 SWAP1 DUP2 DUP2 MSTORE PUSH1 0x20 ADD DUP3 DUP1 SLOAD PUSH2 0x19FF SWAP1 PUSH2 0x23EE JUMP JUMPDEST DUP1 ISZERO PUSH2 0x1A4C JUMPI DUP1 PUSH1 0x1F LT PUSH2 0x1A21 JUMPI PUSH2 0x100 DUP1 DUP4 SLOAD DIV MUL DUP4 MSTORE SWAP2 PUSH1 0x20 ADD SWAP2 PUSH2 0x1A4C JUMP JUMPDEST DUP3 ADD SWAP2 SWAP1 PUSH1 0x0 MSTORE PUSH1 0x20 PUSH1 0x0 KECCAK256 SWAP1 JUMPDEST DUP2 SLOAD DUP2 MSTORE SWAP1 PUSH1 0x1 ADD SWAP1 PUSH1 0x20 ADD DUP1 DUP4 GT PUSH2 0x1A2F JUMPI DUP3 SWAP1 SUB PUSH1 0x1F AND DUP3 ADD SWAP2 JUMPDEST POP POP POP POP POP DUP2 MSTORE PUSH1 0x20 ADD PUSH1 0x4 DUP3 ADD SLOAD DUP2 MSTORE PUSH1 0x20 ADD PUSH1 0x5 DUP3 ADD SLOAD DUP2 MSTORE PUSH1 0x20 ADD PUSH1 0x6 DUP3 ADD SLOAD DUP2 MSTORE PUSH1 0x20 ADD PUSH1 0x7 DUP3 ADD DUP1 SLOAD DUP1 PUSH1 0x20 MUL PUSH1 0x20 ADD PUSH1 0x40 MLOAD SWAP1 DUP2 ADD PUSH1 0x40 MSTORE DUP1 SWAP3 SWAP2 SWAP1 DUP2 DUP2 MSTORE PUSH1 0x20 ADD DUP3 DUP1 SLOAD DUP1 ISZERO PUSH2 0x1AC2 JUMPI PUSH1 0x20 MUL DUP3 ADD SWAP2 SWAP1 PUSH1 0x0 MSTORE PUSH1 0x20 PUSH1 0x0 KECCAK256 SWAP1 JUMPDEST DUP2 SLOAD DUP2 MSTORE PUSH1 0x20 ADD SWAP1 PUSH1 0x1 ADD SWAP1 DUP1 DUP4 GT PUSH2 0x1AAE JUMPI JUMPDEST POP POP POP POP POP DUP2 MSTORE POP POP DUP4 DUP4 DUP2 MLOAD DUP2 LT PUSH2 0x1ADE JUMPI PUSH2 0x1ADD PUSH2 0x2809 JUMP JUMPDEST JUMPDEST PUSH1 0x20 MUL PUSH1 0x20 ADD ADD DUP2 SWAP1 MSTORE POP POP DUP1 DUP1 PUSH2 0x1AF5 SWAP1 PUSH2 0x27C1 JUMP JUMPDEST SWAP2 POP POP PUSH2 0x1885 JUMP JUMPDEST POP DUP1 SWAP3 POP POP POP SWAP2 SWAP1 POP JUMP JUMPDEST DUP3 DUP1 SLOAD DUP3 DUP3 SSTORE SWAP1 PUSH1 0x0 MSTORE PUSH1 0x20 PUSH1 0x0 KECCAK256 SWAP1 DUP2 ADD SWAP3 DUP3 ISZERO PUSH2 0x1B44 JUMPI SWAP2 PUSH1 0x20 MUL DUP3 ADD JUMPDEST DUP3 DUP2 GT ISZERO PUSH2 0x1B43 JUMPI DUP3 MLOAD DUP3 SSTORE SWAP2 PUSH1 0x20 ADD SWAP2 SWAP1 PUSH1 0x1 ADD SWAP1 PUSH2 0x1B28 JUMP JUMPDEST JUMPDEST POP SWAP1 POP PUSH2 0x1B51 SWAP2 SWAP1 PUSH2 0x1C4F JUMP JUMPDEST POP SWAP1 JUMP JUMPDEST PUSH1 0x40 MLOAD DUP1 PUSH1 0x80 ADD PUSH1 0x40 MSTORE DUP1 PUSH1 0x0 DUP2 MSTORE PUSH1 0x20 ADD PUSH1 0x0 DUP2 MSTORE PUSH1 0x20 ADD PUSH1 0x0 PUSH20 0xFFFFFFFFFFFFFFFFFFFFFFFFFFFFFFFFFFFFFFFF AND DUP2 MSTORE PUSH1 0x20 ADD PUSH1 0x0 DUP2 MSTORE POP SWAP1 JUMP JUMPDEST POP DUP1 SLOAD PUSH2 0x1B9F SWAP1 PUSH2 0x23EE JUMP JUMPDEST PUSH1 0x0 DUP3 SSTORE DUP1 PUSH1 0x1F LT PUSH2 0x1BB1 JUMPI POP PUSH2 0x1BD0 JUMP JUMPDEST PUSH1 0x1F ADD PUSH1 0x20 SWAP1 DIV SWAP1 PUSH1 0x0 MSTORE PUSH1 0x20 PUSH1 0x0 KECCAK256 SWAP1 DUP2 ADD SWAP1 PUSH2 0x1BCF SWAP2 SWAP1 PUSH2 0x1C4F JUMP JUMPDEST JUMPDEST POP JUMP JUMPDEST POP DUP1 SLOAD PUSH1 0x0 DUP3 SSTORE SWAP1 PUSH1 0x0 MSTORE PUSH1 0x20 PUSH1 0x0 KECCAK256 SWAP1 DUP2 ADD SWAP1 PUSH2 0x1BF1 SWAP2 SWAP1 PUSH2 0x1C4F JUMP JUMPDEST POP JUMP JUMPDEST PUSH1 0x40 MLOAD DUP1 PUSH2 0x100 ADD PUSH1 0x40 MSTORE DUP1 PUSH1 0x0 DUP2 MSTORE PUSH1 0x20 ADD PUSH1 0x0 PUSH20 0xFFFFFFFFFFFFFFFFFFFFFFFFFFFFFFFFFFFFFFFF AND DUP2 MSTORE PUSH1 0x20 ADD PUSH1 0x60 DUP2 MSTORE PUSH1 0x20 ADD PUSH1 0x60 DUP2 MSTORE PUSH1 0x20 ADD PUSH1 0x0 DUP2 MSTORE PUSH1 0x20 ADD PUSH1 0x0 DUP2 MSTORE PUSH1 0x20 ADD PUSH1 0x0 DUP2 MSTORE PUSH1 0x20 ADD PUSH1 0x60 DUP2 MSTORE POP SWAP1 JUMP JUMPDEST JUMPDEST DUP1 DUP3 GT ISZERO PUSH2 0x1C68 JUMPI PUSH1 0x0 DUP2 PUSH1 0x0 SWAP1 SSTORE POP PUSH1 0x1 ADD PUSH2 0x1C50 JUMP JUMPDEST POP SWAP1 JUMP JUMPDEST PUSH1 0x0 DUP1 REVERT JUMPDEST PUSH1 0x0 DUP1 REVERT JUMPDEST PUSH1 0x0 DUP2 SWAP1 POP SWAP2 SWAP1 POP JUMP JUMPDEST PUSH2 0x1C89 DUP2 PUSH2 0x1C76 JUMP JUMPDEST DUP2 EQ PUSH2 0x1C94 JUMPI PUSH1 0x0 DUP1 REVERT JUMPDEST POP JUMP JUMPDEST PUSH1 0x0 DUP2 CALLDATALOAD SWAP1 POP PUSH2 0x1CA6 DUP2 PUSH2 0x1C80 JUMP JUMPDEST SWAP3 SWAP2 POP POP JUMP JUMPDEST PUSH1 0x0 PUSH1 0x20 DUP3 DUP5 SUB SLT ISZERO PUSH2 0x1CC2 JUMPI PUSH2 0x1CC1 PUSH2 0x1C6C JUMP JUMPDEST JUMPDEST PUSH1 0x0 PUSH2 0x1CD0 DUP5 DUP3 DUP6 ADD PUSH2 0x1C97 JUMP JUMPDEST SWAP2 POP POP SWAP3 SWAP2 POP POP JUMP JUMPDEST PUSH2 0x1CE2 DUP2 PUSH2 0x1C76 JUMP JUMPDEST DUP3 MSTORE POP POP JUMP JUMPDEST PUSH1 0x0 PUSH20 0xFFFFFFFFFFFFFFFFFFFFFFFFFFFFFFFFFFFFFFFF DUP3 AND SWAP1 POP SWAP2 SWAP1 POP JUMP JUMPDEST PUSH1 0x0 PUSH2 0x1D13 DUP3 PUSH2 0x1CE8 JUMP JUMPDEST SWAP1 POP SWAP2 SWAP1 POP JUMP JUMPDEST PUSH2 0x1D23 DUP2 PUSH2 0x1D08 JUMP JUMPDEST DUP3 MSTORE POP POP JUMP JUMPDEST PUSH1 0x0 DUP2 MLOAD SWAP1 POP SWAP2 SWAP1 POP JUMP JUMPDEST PUSH1 0x0 DUP3 DUP3 MSTORE PUSH1 0x20 DUP3 ADD SWAP1 POP SWAP3 SWAP2 POP POP JUMP JUMPDEST PUSH1 0x0 JUMPDEST DUP4 DUP2 LT ISZERO PUSH2 0x1D63 JUMPI DUP1 DUP3 ADD MLOAD DUP2 DUP5 ADD MSTORE PUSH1 0x20 DUP2 ADD SWAP1 POP PUSH2 0x1D48 JUMP JUMPDEST PUSH1 0x0 DUP5 DUP5 ADD MSTORE POP POP POP POP JUMP JUMPDEST PUSH1 0x0 PUSH1 0x1F NOT PUSH1 0x1F DUP4 ADD AND SWAP1 POP SWAP2 SWAP1 POP JUMP JUMPDEST PUSH1 0x0 PUSH2 0x1D8B DUP3 PUSH2 0x1D29 JUMP JUMPDEST PUSH2 0x1D95 DUP2 DUP6 PUSH2 0x1D34 JUMP JUMPDEST SWAP4 POP PUSH2 0x1DA5 DUP2 DUP6 PUSH1 0x20 DUP7 ADD PUSH2 0x1D45 JUMP JUMPDEST PUSH2 0x1DAE DUP2 PUSH2 0x1D6F JUMP JUMPDEST DUP5 ADD SWAP2 POP POP SWAP3 SWAP2 POP POP JUMP JUMPDEST PUSH1 0x0 PUSH1 0xE0 DUP3 ADD SWAP1 POP PUSH2 0x1DCE PUSH1 0x0 DUP4 ADD DUP11 PUSH2 0x1CD9 JUMP JUMPDEST PUSH2 0x1DDB PUSH1 0x20 DUP4 ADD DUP10 PUSH2 0x1D1A JUMP JUMPDEST DUP2 DUP2 SUB PUSH1 0x40 DUP4 ADD MSTORE PUSH2 0x1DED DUP2 DUP9 PUSH2 0x1D80 JUMP JUMPDEST SWAP1 POP DUP2 DUP2 SUB PUSH1 0x60 DUP4 ADD MSTORE PUSH2 0x1E01 DUP2 DUP8 PUSH2 0x1D80 JUMP JUMPDEST SWAP1 POP PUSH2 0x1E10 PUSH1 0x80 DUP4 ADD DUP7 PUSH2 0x1CD9 JUMP JUMPDEST PUSH2 0x1E1D PUSH1 0xA0 DUP4 ADD DUP6 PUSH2 0x1CD9 JUMP JUMPDEST PUSH2 0x1E2A PUSH1 0xC0 DUP4 ADD DUP5 PUSH2 0x1CD9 JUMP JUMPDEST SWAP9 SWAP8 POP POP POP POP POP POP POP POP JUMP JUMPDEST PUSH1 0x0 DUP1 REVERT JUMPDEST PUSH1 0x0 DUP1 REVERT JUMPDEST PUSH1 0x0 DUP1 REVERT JUMPDEST PUSH1 0x0 DUP1 DUP4 PUSH1 0x1F DUP5 ADD SLT PUSH2 0x1E5B JUMPI PUSH2 0x1E5A PUSH2 0x1E36 JUMP JUMPDEST JUMPDEST DUP3 CALLDATALOAD SWAP1 POP PUSH8 0xFFFFFFFFFFFFFFFF DUP2 GT ISZERO PUSH2 0x1E78 JUMPI PUSH2 0x1E77 PUSH2 0x1E3B JUMP JUMPDEST JUMPDEST PUSH1 0x20 DUP4 ADD SWAP2 POP DUP4 PUSH1 0x1 DUP3 MUL DUP4 ADD GT ISZERO PUSH2 0x1E94 JUMPI PUSH2 0x1E93 PUSH2 0x1E40 JUMP JUMPDEST JUMPDEST SWAP3 POP SWAP3 SWAP1 POP JUMP JUMPDEST PUSH1 0x0 DUP1 PUSH1 0x0 DUP1 PUSH1 0x0 DUP1 PUSH1 0x80 DUP8 DUP10 SUB SLT ISZERO PUSH2 0x1EB8 JUMPI PUSH2 0x1EB7 PUSH2 0x1C6C JUMP JUMPDEST JUMPDEST PUSH1 0x0 DUP8 ADD CALLDATALOAD PUSH8 0xFFFFFFFFFFFFFFFF DUP2 GT ISZERO PUSH2 0x1ED6 JUMPI PUSH2 0x1ED5 PUSH2 0x1C71 JUMP JUMPDEST JUMPDEST PUSH2 0x1EE2 DUP10 DUP3 DUP11 ADD PUSH2 0x1E45 JUMP JUMPDEST SWAP7 POP SWAP7 POP POP PUSH1 0x20 DUP8 ADD CALLDATALOAD PUSH8 0xFFFFFFFFFFFFFFFF DUP2 GT ISZERO PUSH2 0x1F05 JUMPI PUSH2 0x1F04 PUSH2 0x1C71 JUMP JUMPDEST JUMPDEST PUSH2 0x1F11 DUP10 DUP3 DUP11 ADD PUSH2 0x1E45 JUMP JUMPDEST SWAP5 POP SWAP5 POP POP PUSH1 0x40 PUSH2 0x1F24 DUP10 DUP3 DUP11 ADD PUSH2 0x1C97 JUMP JUMPDEST SWAP3 POP POP PUSH1 0x60 PUSH2 0x1F35 DUP10 DUP3 DUP11 ADD PUSH2 0x1C97 JUMP JUMPDEST SWAP2 POP POP SWAP3 SWAP6 POP SWAP3 SWAP6 POP SWAP3 SWAP6 JUMP JUMPDEST PUSH2 0x1F4B DUP2 PUSH2 0x1D08 JUMP JUMPDEST DUP2 EQ PUSH2 0x1F56 JUMPI PUSH1 0x0 DUP1 REVERT JUMPDEST POP JUMP JUMPDEST PUSH1 0x0 DUP2 CALLDATALOAD SWAP1 POP PUSH2 0x1F68 DUP2 PUSH2 0x1F42 JUMP JUMPDEST SWAP3 SWAP2 POP POP JUMP JUMPDEST PUSH1 0x0 PUSH1 0x20 DUP3 DUP5 SUB SLT ISZERO PUSH2 0x1F84 JUMPI PUSH2 0x1F83 PUSH2 0x1C6C JUMP JUMPDEST JUMPDEST PUSH1 0x0 PUSH2 0x1F92 DUP5 DUP3 DUP6 ADD PUSH2 0x1F59 JUMP JUMPDEST SWAP2 POP POP SWAP3 SWAP2 POP POP JUMP JUMPDEST PUSH1 0x0 DUP2 MLOAD SWAP1 POP SWAP2 SWAP1 POP JUMP JUMPDEST PUSH1 0x0 DUP3 DUP3 MSTORE PUSH1 0x20 DUP3 ADD SWAP1 POP SWAP3 SWAP2 POP POP JUMP JUMPDEST PUSH1 0x0 DUP2 SWAP1 POP PUSH1 0x20 DUP3 ADD SWAP1 POP SWAP2 SWAP1 POP JUMP JUMPDEST PUSH2 0x1FD0 DUP2 PUSH2 0x1C76 JUMP JUMPDEST DUP3 MSTORE POP POP JUMP JUMPDEST PUSH2 0x1FDF DUP2 PUSH2 0x1D08 JUMP JUMPDEST DUP3 MSTORE POP POP JUMP JUMPDEST PUSH1 0x80 DUP3 ADD PUSH1 0x0 DUP3 ADD MLOAD PUSH2 0x1FFB PUSH1 0x0 DUP6 ADD DUP3 PUSH2 0x1FC7 JUMP JUMPDEST POP PUSH1 0x20 DUP3 ADD MLOAD PUSH2 0x200E PUSH1 0x20 DUP6 ADD DUP3 PUSH2 0x1FC7 JUMP JUMPDEST POP PUSH1 0x40 DUP3 ADD MLOAD PUSH2 0x2021 PUSH1 0x40 DUP6 ADD DUP3 PUSH2 0x1FD6 JUMP JUMPDEST POP PUSH1 0x60 DUP3 ADD MLOAD PUSH2 0x2034 PUSH1 0x60 DUP6 ADD DUP3 PUSH2 0x1FC7 JUMP JUMPDEST POP POP POP POP JUMP JUMPDEST PUSH1 0x0 PUSH2 0x2046 DUP4 DUP4 PUSH2 0x1FE5 JUMP JUMPDEST PUSH1 0x80 DUP4 ADD SWAP1 POP SWAP3 SWAP2 POP POP JUMP JUMPDEST PUSH1 0x0 PUSH1 0x20 DUP3 ADD SWAP1 POP SWAP2 SWAP1 POP JUMP JUMPDEST PUSH1 0x0 PUSH2 0x206A DUP3 PUSH2 0x1F9B JUMP JUMPDEST PUSH2 0x2074 DUP2 DUP6 PUSH2 0x1FA6 JUMP JUMPDEST SWAP4 POP PUSH2 0x207F DUP4 PUSH2 0x1FB7 JUMP JUMPDEST DUP1 PUSH1 0x0 JUMPDEST DUP4 DUP2 LT ISZERO PUSH2 0x20B0 JUMPI DUP2 MLOAD PUSH2 0x2097 DUP9 DUP3 PUSH2 0x203A JUMP JUMPDEST SWAP8 POP PUSH2 0x20A2 DUP4 PUSH2 0x2052 JUMP JUMPDEST SWAP3 POP POP PUSH1 0x1 DUP2 ADD SWAP1 POP PUSH2 0x2083 JUMP JUMPDEST POP DUP6 SWAP4 POP POP POP POP SWAP3 SWAP2 POP POP JUMP JUMPDEST PUSH1 0x0 PUSH1 0x20 DUP3 ADD SWAP1 POP DUP2 DUP2 SUB PUSH1 0x0 DUP4 ADD MSTORE PUSH2 0x20D7 DUP2 DUP5 PUSH2 0x205F JUMP JUMPDEST SWAP1 POP SWAP3 SWAP2 POP POP JUMP JUMPDEST PUSH1 0x0 PUSH1 0x80 DUP3 ADD SWAP1 POP PUSH2 0x20F4 PUSH1 0x0 DUP4 ADD DUP8 PUSH2 0x1CD9 JUMP JUMPDEST PUSH2 0x2101 PUSH1 0x20 DUP4 ADD DUP7 PUSH2 0x1CD9 JUMP JUMPDEST PUSH2 0x210E PUSH1 0x40 DUP4 ADD DUP6 PUSH2 0x1D1A JUMP JUMPDEST PUSH2 0x211B PUSH1 0x60 DUP4 ADD DUP5 PUSH2 0x1CD9 JUMP JUMPDEST SWAP6 SWAP5 POP POP POP POP POP JUMP JUMPDEST PUSH1 0x0 DUP2 MLOAD SWAP1 POP SWAP2 SWAP1 POP JUMP JUMPDEST PUSH1 0x0 DUP3 DUP3 MSTORE PUSH1 0x20 DUP3 ADD SWAP1 POP SWAP3 SWAP2 POP POP JUMP JUMPDEST PUSH1 0x0 DUP2 SWAP1 POP PUSH1 0x20 DUP3 ADD SWAP1 POP SWAP2 SWAP1 POP JUMP JUMPDEST PUSH1 0x0 DUP3 DUP3 MSTORE PUSH1 0x20 DUP3 ADD SWAP1 POP SWAP3 SWAP2 POP POP JUMP JUMPDEST PUSH1 0x0 PUSH2 0x216C DUP3 PUSH2 0x1D29 JUMP JUMPDEST PUSH2 0x2176 DUP2 DUP6 PUSH2 0x2150 JUMP JUMPDEST SWAP4 POP PUSH2 0x2186 DUP2 DUP6 PUSH1 0x20 DUP7 ADD PUSH2 0x1D45 JUMP JUMPDEST PUSH2 0x218F DUP2 PUSH2 0x1D6F JUMP JUMPDEST DUP5 ADD SWAP2 POP POP SWAP3 SWAP2 POP POP JUMP JUMPDEST PUSH1 0x0 DUP2 MLOAD SWAP1 POP SWAP2 SWAP1 POP JUMP JUMPDEST PUSH1 0x0 DUP3 DUP3 MSTORE PUSH1 0x20 DUP3 ADD SWAP1 POP SWAP3 SWAP2 POP POP JUMP JUMPDEST PUSH1 0x0 DUP2 SWAP1 POP PUSH1 0x20 DUP3 ADD SWAP1 POP SWAP2 SWAP1 POP JUMP JUMPDEST PUSH1 0x0 PUSH2 0x21D2 DUP4 DUP4 PUSH2 0x1FC7 JUMP JUMPDEST PUSH1 0x20 DUP4 ADD SWAP1 POP SWAP3 SWAP2 POP POP JUMP JUMPDEST PUSH1 0x0 PUSH1 0x20 DUP3 ADD SWAP1 POP SWAP2 SWAP1 POP JUMP JUMPDEST PUSH1 0x0 PUSH2 0x21F6 DUP3 PUSH2 0x219A JUMP JUMPDEST PUSH2 0x2200 DUP2 DUP6 PUSH2 0x21A5 JUMP JUMPDEST SWAP4 POP PUSH2 0x220B DUP4 PUSH2 0x21B6 JUMP JUMPDEST DUP1 PUSH1 0x0 JUMPDEST DUP4 DUP2 LT ISZERO PUSH2 0x223C JUMPI DUP2 MLOAD PUSH2 0x2223 DUP9 DUP3 PUSH2 0x21C6 JUMP JUMPDEST SWAP8 POP PUSH2 0x222E DUP4 PUSH2 0x21DE JUMP JUMPDEST SWAP3 POP POP PUSH1 0x1 DUP2 ADD SWAP1 POP PUSH2 0x220F JUMP JUMPDEST POP DUP6 SWAP4 POP POP POP POP SWAP3 SWAP2 POP POP JUMP JUMPDEST PUSH1 0x0 PUSH2 0x100 DUP4 ADD PUSH1 0x0 DUP4 ADD MLOAD PUSH2 0x2262 PUSH1 0x0 DUP7 ADD DUP3 PUSH2 0x1FC7 JUMP JUMPDEST POP PUSH1 0x20 DUP4 ADD MLOAD PUSH2 0x2275 PUSH1 0x20 DUP7 ADD DUP3 PUSH2 0x1FD6 JUMP JUMPDEST POP PUSH1 0x40 DUP4 ADD MLOAD DUP5 DUP3 SUB PUSH1 0x40 DUP7 ADD MSTORE PUSH2 0x228D DUP3 DUP3 PUSH2 0x2161 JUMP JUMPDEST SWAP2 POP POP PUSH1 0x60 DUP4 ADD MLOAD DUP5 DUP3 SUB PUSH1 0x60 DUP7 ADD MSTORE PUSH2 0x22A7 DUP3 DUP3 PUSH2 0x2161 JUMP JUMPDEST SWAP2 POP POP PUSH1 0x80 DUP4 ADD MLOAD PUSH2 0x22BC PUSH1 0x80 DUP7 ADD DUP3 PUSH2 0x1FC7 JUMP JUMPDEST POP PUSH1 0xA0 DUP4 ADD MLOAD PUSH2 0x22CF PUSH1 0xA0 DUP7 ADD DUP3 PUSH2 0x1FC7 JUMP JUMPDEST POP PUSH1 0xC0 DUP4 ADD MLOAD PUSH2 0x22E2 PUSH1 0xC0 DUP7 ADD DUP3 PUSH2 0x1FC7 JUMP JUMPDEST POP PUSH1 0xE0 DUP4 ADD MLOAD DUP5 DUP3 SUB PUSH1 0xE0 DUP7 ADD MSTORE PUSH2 0x22FA DUP3 DUP3 PUSH2 0x21EB JUMP JUMPDEST SWAP2 POP POP DUP1 SWAP2 POP POP SWAP3 SWAP2 POP POP JUMP JUMPDEST PUSH1 0x0 PUSH2 0x2313 DUP4 DUP4 PUSH2 0x2249 JUMP JUMPDEST SWAP1 POP SWAP3 SWAP2 POP POP JUMP JUMPDEST PUSH1 0x0 PUSH1 0x20 DUP3 ADD SWAP1 POP SWAP2 SWAP1 POP JUMP JUMPDEST PUSH1 0x0 PUSH2 0x2333 DUP3 PUSH2 0x2124 JUMP JUMPDEST PUSH2 0x233D DUP2 DUP6 PUSH2 0x212F JUMP JUMPDEST SWAP4 POP DUP4 PUSH1 0x20 DUP3 MUL DUP6 ADD PUSH2 0x234F DUP6 PUSH2 0x2140 JUMP JUMPDEST DUP1 PUSH1 0x0 JUMPDEST DUP6 DUP2 LT ISZERO PUSH2 0x238B JUMPI DUP5 DUP5 SUB DUP10 MSTORE DUP2 MLOAD PUSH2 0x236C DUP6 DUP3 PUSH2 0x2307 JUMP JUMPDEST SWAP5 POP PUSH2 0x2377 DUP4 PUSH2 0x231B JUMP JUMPDEST SWAP3 POP PUSH1 0x20 DUP11 ADD SWAP10 POP POP PUSH1 0x1 DUP2 ADD SWAP1 POP PUSH2 0x2353 JUMP JUMPDEST POP DUP3 SWAP8 POP DUP8 SWAP6 POP POP POP POP POP POP SWAP3 SWAP2 POP POP JUMP JUMPDEST PUSH1 0x0 PUSH1 0x20 DUP3 ADD SWAP1 POP DUP2 DUP2 SUB PUSH1 0x0 DUP4 ADD MSTORE PUSH2 0x23B7 DUP2 DUP5 PUSH2 0x2328 JUMP JUMPDEST SWAP1 POP SWAP3 SWAP2 POP POP JUMP JUMPDEST PUSH32 0x4E487B7100000000000000000000000000000000000000000000000000000000 PUSH1 0x0 MSTORE PUSH1 0x22 PUSH1 0x4 MSTORE PUSH1 0x24 PUSH1 0x0 REVERT JUMPDEST PUSH1 0x0 PUSH1 0x2 DUP3 DIV SWAP1 POP PUSH1 0x1 DUP3 AND DUP1 PUSH2 0x2406 JUMPI PUSH1 0x7F DUP3 AND SWAP2 POP JUMPDEST PUSH1 0x20 DUP3 LT DUP2 SUB PUSH2 0x2419 JUMPI PUSH2 0x2418 PUSH2 0x23BF JUMP JUMPDEST JUMPDEST POP SWAP2 SWAP1 POP JUMP JUMPDEST PUSH32 0x4D696E696D756D206F666665722070726963652073686F756C64206265206772 PUSH1 0x0 DUP3 ADD MSTORE PUSH32 0x6561746572207468616E20300000000000000000000000000000000000000000 PUSH1 0x20 DUP3 ADD MSTORE POP JUMP JUMPDEST PUSH1 0x0 PUSH2 0x247B PUSH1 0x2C DUP4 PUSH2 0x1D34 JUMP JUMPDEST SWAP2 POP PUSH2 0x2486 DUP3 PUSH2 0x241F JUMP JUMPDEST PUSH1 0x40 DUP3 ADD SWAP1 POP SWAP2 SWAP1 POP JUMP JUMPDEST PUSH1 0x0 PUSH1 0x20 DUP3 ADD SWAP1 POP DUP2 DUP2 SUB PUSH1 0x0 DUP4 ADD MSTORE PUSH2 0x24AA DUP2 PUSH2 0x246E JUMP JUMPDEST SWAP1 POP SWAP2 SWAP1 POP JUMP JUMPDEST PUSH32 0x4E487B7100000000000000000000000000000000000000000000000000000000 PUSH1 0x0 MSTORE PUSH1 0x41 PUSH1 0x4 MSTORE PUSH1 0x24 PUSH1 0x0 REVERT JUMPDEST PUSH32 0x4E487B7100000000000000000000000000000000000000000000000000000000 PUSH1 0x0 MSTORE PUSH1 0x11 PUSH1 0x4 MSTORE PUSH1 0x24 PUSH1 0x0 REVERT JUMPDEST PUSH1 0x0 PUSH2 0x251A DUP3 PUSH2 0x1C76 JUMP JUMPDEST SWAP2 POP PUSH2 0x2525 DUP4 PUSH2 0x1C76 JUMP JUMPDEST SWAP3 POP DUP3 DUP3 ADD SWAP1 POP DUP1 DUP3 GT ISZERO PUSH2 0x253D JUMPI PUSH2 0x253C PUSH2 0x24E0 JUMP JUMPDEST JUMPDEST SWAP3 SWAP2 POP POP JUMP JUMPDEST PUSH1 0x0 DUP2 SWAP1 POP DUP2 PUSH1 0x0 MSTORE PUSH1 0x20 PUSH1 0x0 KECCAK256 SWAP1 POP SWAP2 SWAP1 POP JUMP JUMPDEST PUSH1 0x0 PUSH1 0x20 PUSH1 0x1F DUP4 ADD DIV SWAP1 POP SWAP2 SWAP1 POP JUMP JUMPDEST PUSH1 0x0 DUP3 DUP3 SHL SWAP1 POP SWAP3 SWAP2 POP POP JUMP JUMPDEST PUSH1 0x0 PUSH1 0x8 DUP4 MUL PUSH2 0x25A5 PUSH32 0xFFFFFFFFFFFFFFFFFFFFFFFFFFFFFFFFFFFFFFFFFFFFFFFFFFFFFFFFFFFFFFFF DUP3 PUSH2 0x2568 JUMP JUMPDEST PUSH2 0x25AF DUP7 DUP4 PUSH2 0x2568 JUMP JUMPDEST SWAP6 POP DUP1 NOT DUP5 AND SWAP4 POP DUP1 DUP7 AND DUP5 OR SWAP3 POP POP POP SWAP4 SWAP3 POP POP POP JUMP JUMPDEST PUSH1 0x0 DUP2 SWAP1 POP SWAP2 SWAP1 POP JUMP JUMPDEST PUSH1 0x0 PUSH2 0x25EC PUSH2 0x25E7 PUSH2 0x25E2 DUP5 PUSH2 0x1C76 JUMP JUMPDEST PUSH2 0x25C7 JUMP JUMPDEST PUSH2 0x1C76 JUMP JUMPDEST SWAP1 POP SWAP2 SWAP1 POP JUMP JUMPDEST PUSH1 0x0 DUP2 SWAP1 POP SWAP2 SWAP1 POP JUMP JUMPDEST PUSH2 0x2606 DUP4 PUSH2 0x25D1 JUMP JUMPDEST PUSH2 0x261A PUSH2 0x2612 DUP3 PUSH2 0x25F3 JUMP JUMPDEST DUP5 DUP5 SLOAD PUSH2 0x2575 JUMP JUMPDEST DUP3 SSTORE POP POP POP POP JUMP JUMPDEST PUSH1 0x0 SWAP1 JUMP JUMPDEST PUSH2 0x262F PUSH2 0x2622 JUMP JUMPDEST PUSH2 0x263A DUP2 DUP5 DUP5 PUSH2 0x25FD JUMP JUMPDEST POP POP POP JUMP JUMPDEST JUMPDEST DUP2 DUP2 LT ISZERO PUSH2 0x265E JUMPI PUSH2 0x2653 PUSH1 0x0 DUP3 PUSH2 0x2627 JUMP JUMPDEST PUSH1 0x1 DUP2 ADD SWAP1 POP PUSH2 0x2640 JUMP JUMPDEST POP POP JUMP JUMPDEST PUSH1 0x1F DUP3 GT ISZERO PUSH2 0x26A3 JUMPI PUSH2 0x2674 DUP2 PUSH2 0x2543 JUMP JUMPDEST PUSH2 0x267D DUP5 PUSH2 0x2558 JUMP JUMPDEST DUP2 ADD PUSH1 0x20 DUP6 LT ISZERO PUSH2 0x268C JUMPI DUP2 SWAP1 POP JUMPDEST PUSH2 0x26A0 PUSH2 0x2698 DUP6 PUSH2 0x2558 JUMP JUMPDEST DUP4 ADD DUP3 PUSH2 0x263F JUMP JUMPDEST POP POP JUMPDEST POP POP POP JUMP JUMPDEST PUSH1 0x0 DUP3 DUP3 SHR SWAP1 POP SWAP3 SWAP2 POP POP JUMP JUMPDEST PUSH1 0x0 PUSH2 0x26C6 PUSH1 0x0 NOT DUP5 PUSH1 0x8 MUL PUSH2 0x26A8 JUMP JUMPDEST NOT DUP1 DUP4 AND SWAP2 POP POP SWAP3 SWAP2 POP POP JUMP JUMPDEST PUSH1 0x0 PUSH2 0x26DF DUP4 DUP4 PUSH2 0x26B5 JUMP JUMPDEST SWAP2 POP DUP3 PUSH1 0x2 MUL DUP3 OR SWAP1 POP SWAP3 SWAP2 POP POP JUMP JUMPDEST PUSH2 0x26F8 DUP3 PUSH2 0x1D29 JUMP JUMPDEST PUSH8 0xFFFFFFFFFFFFFFFF DUP2 GT ISZERO PUSH2 0x2711 JUMPI PUSH2 0x2710 PUSH2 0x24B1 JUMP JUMPDEST JUMPDEST PUSH2 0x271B DUP3 SLOAD PUSH2 0x23EE JUMP JUMPDEST PUSH2 0x2726 DUP3 DUP3 DUP6 PUSH2 0x2662 JUMP JUMPDEST PUSH1 0x0 PUSH1 0x20 SWAP1 POP PUSH1 0x1F DUP4 GT PUSH1 0x1 DUP2 EQ PUSH2 0x2759 JUMPI PUSH1 0x0 DUP5 ISZERO PUSH2 0x2747 JUMPI DUP3 DUP8 ADD MLOAD SWAP1 POP JUMPDEST PUSH2 0x2751 DUP6 DUP3 PUSH2 0x26D3 JUMP JUMPDEST DUP7 SSTORE POP PUSH2 0x27B9 JUMP JUMPDEST PUSH1 0x1F NOT DUP5 AND PUSH2 0x2767 DUP7 PUSH2 0x2543 JUMP JUMPDEST PUSH1 0x0 JUMPDEST DUP3 DUP2 LT ISZERO PUSH2 0x278F JUMPI DUP5 DUP10 ADD MLOAD DUP3 SSTORE PUSH1 0x1 DUP3 ADD SWAP2 POP PUSH1 0x20 DUP6 ADD SWAP5 POP PUSH1 0x20 DUP2 ADD SWAP1 POP PUSH2 0x276A JUMP JUMPDEST DUP7 DUP4 LT ISZERO PUSH2 0x27AC JUMPI DUP5 DUP10 ADD MLOAD PUSH2 0x27A8 PUSH1 0x1F DUP10 AND DUP3 PUSH2 0x26B5 JUMP JUMPDEST DUP4 SSTORE POP JUMPDEST PUSH1 0x1 PUSH1 0x2 DUP9 MUL ADD DUP9 SSTORE POP POP POP JUMPDEST POP POP POP POP POP POP JUMP JUMPDEST PUSH1 0x0 PUSH2 0x27CC DUP3 PUSH2 0x1C76 JUMP JUMPDEST SWAP2 POP PUSH32 0xFFFFFFFFFFFFFFFFFFFFFFFFFFFFFFFFFFFFFFFFFFFFFFFFFFFFFFFFFFFFFFFF DUP3 SUB PUSH2 0x27FE JUMPI PUSH2 0x27FD PUSH2 0x24E0 JUMP JUMPDEST JUMPDEST PUSH1 0x1 DUP3 ADD SWAP1 POP SWAP2 SWAP1 POP JUMP JUMPDEST PUSH32 0x4E487B7100000000000000000000000000000000000000000000000000000000 PUSH1 0x0 MSTORE PUSH1 0x32 PUSH1 0x4 MSTORE PUSH1 0x24 PUSH1 0x0 REVERT JUMPDEST PUSH32 0x41756374696F6E20646F6573206E6F7420657869737400000000000000000000 PUSH1 0x0 DUP3 ADD MSTORE POP JUMP JUMPDEST PUSH1 0x0 PUSH2 0x286E PUSH1 0x16 DUP4 PUSH2 0x1D34 JUMP JUMPDEST SWAP2 POP PUSH2 0x2879 DUP3 PUSH2 0x2838 JUMP JUMPDEST PUSH1 0x20 DUP3 ADD SWAP1 POP SWAP2 SWAP1 POP JUMP JUMPDEST PUSH1 0x0 PUSH1 0x20 DUP3 ADD SWAP1 POP DUP2 DUP2 SUB PUSH1 0x0 DUP4 ADD MSTORE PUSH2 0x289D DUP2 PUSH2 0x2861 JUMP JUMPDEST SWAP1 POP SWAP2 SWAP1 POP JUMP JUMPDEST PUSH32 0x41756374696F6E20657870697265640000000000000000000000000000000000 PUSH1 0x0 DUP3 ADD MSTORE POP JUMP JUMPDEST PUSH1 0x0 PUSH2 0x28DA PUSH1 0xF DUP4 PUSH2 0x1D34 JUMP JUMPDEST SWAP2 POP PUSH2 0x28E5 DUP3 PUSH2 0x28A4 JUMP JUMPDEST PUSH1 0x20 DUP3 ADD SWAP1 POP SWAP2 SWAP1 POP JUMP JUMPDEST PUSH1 0x0 PUSH1 0x20 DUP3 ADD SWAP1 POP DUP2 DUP2 SUB PUSH1 0x0 DUP4 ADD MSTORE PUSH2 0x2909 DUP2 PUSH2 0x28CD JUMP JUMPDEST SWAP1 POP SWAP2 SWAP1 POP JUMP JUMPDEST PUSH32 0x50726963652073686F756C642062652067726561746572207468616E206D696E PUSH1 0x0 DUP3 ADD MSTORE PUSH32 0x696D756D206F6666657220707269636520616E64207468652062657374206F66 PUSH1 0x20 DUP3 ADD MSTORE PUSH32 0x6665720000000000000000000000000000000000000000000000000000000000 PUSH1 0x40 DUP3 ADD MSTORE POP JUMP JUMPDEST PUSH1 0x0 PUSH2 0x2992 PUSH1 0x43 DUP4 PUSH2 0x1D34 JUMP JUMPDEST SWAP2 POP PUSH2 0x299D DUP3 PUSH2 0x2910 JUMP JUMPDEST PUSH1 0x60 DUP3 ADD SWAP1 POP SWAP2 SWAP1 POP JUMP JUMPDEST PUSH1 0x0 PUSH1 0x20 DUP3 ADD SWAP1 POP DUP2 DUP2 SUB PUSH1 0x0 DUP4 ADD MSTORE PUSH2 0x29C1 DUP2 PUSH2 0x2985 JUMP JUMPDEST SWAP1 POP SWAP2 SWAP1 POP JUMP JUMPDEST PUSH1 0x0 PUSH2 0x29D3 DUP3 PUSH2 0x1C76 JUMP JUMPDEST SWAP2 POP PUSH2 0x29DE DUP4 PUSH2 0x1C76 JUMP JUMPDEST SWAP3 POP DUP3 DUP3 SUB SWAP1 POP DUP2 DUP2 GT ISZERO PUSH2 0x29F6 JUMPI PUSH2 0x29F5 PUSH2 0x24E0 JUMP JUMPDEST JUMPDEST SWAP3 SWAP2 POP POP JUMP JUMPDEST PUSH32 0x41756374696F6E206973207374696C6C20616374697665000000000000000000 PUSH1 0x0 DUP3 ADD MSTORE POP JUMP JUMPDEST PUSH1 0x0 PUSH2 0x2A32 PUSH1 0x17 DUP4 PUSH2 0x1D34 JUMP JUMPDEST SWAP2 POP PUSH2 0x2A3D DUP3 PUSH2 0x29FC JUMP JUMPDEST PUSH1 0x20 DUP3 ADD SWAP1 POP SWAP2 SWAP1 POP JUMP JUMPDEST PUSH1 0x0 PUSH1 0x20 DUP3 ADD SWAP1 POP DUP2 DUP2 SUB PUSH1 0x0 DUP4 ADD MSTORE PUSH2 0x2A61 DUP2 PUSH2 0x2A25 JUMP JUMPDEST SWAP1 POP SWAP2 SWAP1 POP JUMP INVALID LOG2 PUSH5 0x6970667358 0x22 SLT KECCAK256 PUSH5 0xF464AEDE1F 0xC1 PUSH8 0x8049DD70BCC6A3BA MOD 0x26 0xED 0x4C PUSH21 0xFB1C645CC79FEC6A0057F464736F6C634300081000 CALLER "
				},
				"gasEstimates": {
					"creation": {
						"codeDepositCost": "2182000",
						"executionCost": "46536",
						"totalCost": "2228536"
					},
					"external": {
						"auctions(uint256)": "infinite",
						"cancelAuction(uint256)": "infinite",
						"createAuction(string,string,uint256,uint256)": "infinite",
						"createOffer(uint256)": "infinite",
						"getAuctionOffers(uint256)": "infinite",
						"getAuctions()": "infinite",
						"getUserAuctions(address)": "infinite",
						"getUserOffers(address)": "infinite",
						"offers(uint256)": "infinite",
						"trade(uint256)": "infinite"
					}
				},
				"methodIdentifiers": {
					"auctions(uint256)": "571a26a0",
					"cancelAuction(uint256)": "96b5a755",
					"createAuction(string,string,uint256,uint256)": "61e2db55",
					"createOffer(uint256)": "a269993d",
					"getAuctionOffers(uint256)": "c43ede15",
					"getAuctions()": "d7c06919",
					"getUserAuctions(address)": "ff3ad0b4",
					"getUserOffers(address)": "661d2c2c",
					"offers(uint256)": "8a72ea6a",
					"trade(uint256)": "df1dd826"
				}
			},
			"storageLayout": {
				"storage": [
					{
						"astId": 26,
						"contract": "contracts/Hairdressing.sol:Hairdressing",
						"label": "auctions",
						"offset": 0,
						"slot": "0",
						"type": "t_mapping(t_uint256,t_struct(Auction)20_storage)"
					},
					{
						"astId": 30,
						"contract": "contracts/Hairdressing.sol:Hairdressing",
						"label": "nextAuctionId",
						"offset": 0,
						"slot": "1",
						"type": "t_uint256"
					},
					{
						"astId": 45,
						"contract": "contracts/Hairdressing.sol:Hairdressing",
						"label": "offers",
						"offset": 0,
						"slot": "2",
						"type": "t_mapping(t_uint256,t_struct(Offer)39_storage)"
					},
					{
						"astId": 49,
						"contract": "contracts/Hairdressing.sol:Hairdressing",
						"label": "nextOfferId",
						"offset": 0,
						"slot": "3",
						"type": "t_uint256"
					},
					{
						"astId": 55,
						"contract": "contracts/Hairdressing.sol:Hairdressing",
						"label": "userAuctions",
						"offset": 0,
						"slot": "4",
						"type": "t_mapping(t_address,t_array(t_uint256)dyn_storage)"
					},
					{
						"astId": 61,
						"contract": "contracts/Hairdressing.sol:Hairdressing",
						"label": "userOffers",
						"offset": 0,
						"slot": "5",
						"type": "t_mapping(t_address,t_array(t_uint256)dyn_storage)"
					}
				],
				"types": {
					"t_address": {
						"encoding": "inplace",
						"label": "address",
						"numberOfBytes": "20"
					},
					"t_array(t_uint256)dyn_storage": {
						"base": "t_uint256",
						"encoding": "dynamic_array",
						"label": "uint256[]",
						"numberOfBytes": "32"
					},
					"t_mapping(t_address,t_array(t_uint256)dyn_storage)": {
						"encoding": "mapping",
						"key": "t_address",
						"label": "mapping(address => uint256[])",
						"numberOfBytes": "32",
						"value": "t_array(t_uint256)dyn_storage"
					},
					"t_mapping(t_uint256,t_struct(Auction)20_storage)": {
						"encoding": "mapping",
						"key": "t_uint256",
						"label": "mapping(uint256 => struct Hairdressing.Auction)",
						"numberOfBytes": "32",
						"value": "t_struct(Auction)20_storage"
					},
					"t_mapping(t_uint256,t_struct(Offer)39_storage)": {
						"encoding": "mapping",
						"key": "t_uint256",
						"label": "mapping(uint256 => struct Hairdressing.Offer)",
						"numberOfBytes": "32",
						"value": "t_struct(Offer)39_storage"
					},
					"t_string_storage": {
						"encoding": "bytes",
						"label": "string",
						"numberOfBytes": "32"
					},
					"t_struct(Auction)20_storage": {
						"encoding": "inplace",
						"label": "struct Hairdressing.Auction",
						"members": [
							{
								"astId": 4,
								"contract": "contracts/Hairdressing.sol:Hairdressing",
								"label": "id",
								"offset": 0,
								"slot": "0",
								"type": "t_uint256"
							},
							{
								"astId": 6,
								"contract": "contracts/Hairdressing.sol:Hairdressing",
								"label": "seller",
								"offset": 0,
								"slot": "1",
								"type": "t_address"
							},
							{
								"astId": 8,
								"contract": "contracts/Hairdressing.sol:Hairdressing",
								"label": "name",
								"offset": 0,
								"slot": "2",
								"type": "t_string_storage"
							},
							{
								"astId": 10,
								"contract": "contracts/Hairdressing.sol:Hairdressing",
								"label": "description",
								"offset": 0,
								"slot": "3",
								"type": "t_string_storage"
							},
							{
								"astId": 12,
								"contract": "contracts/Hairdressing.sol:Hairdressing",
								"label": "minimumOfferPrice",
								"offset": 0,
								"slot": "4",
								"type": "t_uint256"
							},
							{
								"astId": 14,
								"contract": "contracts/Hairdressing.sol:Hairdressing",
								"label": "auctionEnd",
								"offset": 0,
								"slot": "5",
								"type": "t_uint256"
							},
							{
								"astId": 16,
								"contract": "contracts/Hairdressing.sol:Hairdressing",
								"label": "bestOfferId",
								"offset": 0,
								"slot": "6",
								"type": "t_uint256"
							},
							{
								"astId": 19,
								"contract": "contracts/Hairdressing.sol:Hairdressing",
								"label": "offerIds",
								"offset": 0,
								"slot": "7",
								"type": "t_array(t_uint256)dyn_storage"
							}
						],
						"numberOfBytes": "256"
					},
					"t_struct(Offer)39_storage": {
						"encoding": "inplace",
						"label": "struct Hairdressing.Offer",
						"members": [
							{
								"astId": 32,
								"contract": "contracts/Hairdressing.sol:Hairdressing",
								"label": "id",
								"offset": 0,
								"slot": "0",
								"type": "t_uint256"
							},
							{
								"astId": 34,
								"contract": "contracts/Hairdressing.sol:Hairdressing",
								"label": "auctionId",
								"offset": 0,
								"slot": "1",
								"type": "t_uint256"
							},
							{
								"astId": 36,
								"contract": "contracts/Hairdressing.sol:Hairdressing",
								"label": "buyer",
								"offset": 0,
								"slot": "2",
								"type": "t_address"
							},
							{
								"astId": 38,
								"contract": "contracts/Hairdressing.sol:Hairdressing",
								"label": "offerPrice",
								"offset": 0,
								"slot": "3",
								"type": "t_uint256"
							}
						],
						"numberOfBytes": "128"
					},
					"t_uint256": {
						"encoding": "inplace",
						"label": "uint256",
						"numberOfBytes": "32"
					}
				}
			},
			"userdoc": {
				"kind": "user",
				"methods": {
					"auctions(uint256)": {
						"notice": "List of all services"
					},
					"cancelAuction(uint256)": {
						"notice": "PUI: Cancels an auction."
					},
					"createAuction(string,string,uint256,uint256)": {
						"notice": "Creates a new auction."
					},
					"createOffer(uint256)": {
						"notice": "Creates a new offer for an auction."
					},
					"getAuctionOffers(uint256)": {
						"notice": "- List of offers for an auction"
					},
					"getAuctions()": {
						"notice": "- List of all the auctions"
					},
					"getUserAuctions(address)": {
						"notice": "- List of auctions for a seller"
					},
					"getUserOffers(address)": {
						"notice": "- List of offers from a buyer"
					},
					"offers(uint256)": {
						"notice": "List of all Offer"
					},
					"trade(uint256)": {
						"notice": "Executes the auction trade."
					}
				},
				"notice": "Smart contract for the management of a hairdresser.",
				"version": 1
			}
		}
	}
}