{
	"contracts/Dex.sol": {
		"Dex": {
			"abi": [
				{
					"inputs": [],
					"stateMutability": "nonpayable",
					"type": "constructor"
				},
				{
					"anonymous": false,
					"inputs": [
						{
							"indexed": false,
							"internalType": "uint256",
							"name": "tradeId",
							"type": "uint256"
						},
						{
							"indexed": false,
							"internalType": "uint256",
							"name": "orderId",
							"type": "uint256"
						},
						{
							"indexed": true,
							"internalType": "bytes32",
							"name": "ticker",
							"type": "bytes32"
						},
						{
							"indexed": true,
							"internalType": "address",
							"name": "trader1",
							"type": "address"
						},
						{
							"indexed": true,
							"internalType": "address",
							"name": "trader2",
							"type": "address"
						},
						{
							"indexed": false,
							"internalType": "uint256",
							"name": "amount",
							"type": "uint256"
						},
						{
							"indexed": false,
							"internalType": "uint256",
							"name": "price",
							"type": "uint256"
						},
						{
							"indexed": false,
							"internalType": "uint256",
							"name": "date",
							"type": "uint256"
						}
					],
					"name": "NewTrade",
					"type": "event"
				},
				{
					"inputs": [
						{
							"internalType": "bytes32",
							"name": "ticker",
							"type": "bytes32"
						},
						{
							"internalType": "address",
							"name": "tokenAddress",
							"type": "address"
						}
					],
					"name": "addToken",
					"outputs": [],
					"stateMutability": "nonpayable",
					"type": "function"
				},
				{
					"inputs": [],
					"name": "admin",
					"outputs": [
						{
							"internalType": "address",
							"name": "",
							"type": "address"
						}
					],
					"stateMutability": "view",
					"type": "function"
				},
				{
					"inputs": [
						{
							"internalType": "bytes32",
							"name": "ticker",
							"type": "bytes32"
						},
						{
							"internalType": "uint256",
							"name": "amount",
							"type": "uint256"
						},
						{
							"internalType": "uint256",
							"name": "price",
							"type": "uint256"
						},
						{
							"internalType": "enum Dex.Side",
							"name": "side",
							"type": "uint8"
						}
					],
					"name": "createLimitOrder",
					"outputs": [],
					"stateMutability": "nonpayable",
					"type": "function"
				},
				{
					"inputs": [
						{
							"internalType": "bytes32",
							"name": "ticker",
							"type": "bytes32"
						},
						{
							"internalType": "uint256",
							"name": "amount",
							"type": "uint256"
						},
						{
							"internalType": "enum Dex.Side",
							"name": "side",
							"type": "uint8"
						}
					],
					"name": "createMarketOrder",
					"outputs": [],
					"stateMutability": "nonpayable",
					"type": "function"
				},
				{
					"inputs": [
						{
							"internalType": "uint256",
							"name": "amount",
							"type": "uint256"
						},
						{
							"internalType": "bytes32",
							"name": "ticker",
							"type": "bytes32"
						}
					],
					"name": "deposit",
					"outputs": [],
					"stateMutability": "nonpayable",
					"type": "function"
				},
				{
					"inputs": [
						{
							"internalType": "bytes32",
							"name": "ticker",
							"type": "bytes32"
						},
						{
							"internalType": "enum Dex.Side",
							"name": "side",
							"type": "uint8"
						}
					],
					"name": "getOrders",
					"outputs": [
						{
							"components": [
								{
									"internalType": "uint256",
									"name": "id",
									"type": "uint256"
								},
								{
									"internalType": "address",
									"name": "trader",
									"type": "address"
								},
								{
									"internalType": "enum Dex.Side",
									"name": "side",
									"type": "uint8"
								},
								{
									"internalType": "bytes32",
									"name": "ticker",
									"type": "bytes32"
								},
								{
									"internalType": "uint256",
									"name": "amount",
									"type": "uint256"
								},
								{
									"internalType": "uint256",
									"name": "filled",
									"type": "uint256"
								},
								{
									"internalType": "uint256",
									"name": "price",
									"type": "uint256"
								},
								{
									"internalType": "uint256",
									"name": "date",
									"type": "uint256"
								}
							],
							"internalType": "struct Dex.Order[]",
							"name": "",
							"type": "tuple[]"
						}
					],
					"stateMutability": "view",
					"type": "function"
				},
				{
					"inputs": [],
					"name": "getTokens",
					"outputs": [
						{
							"components": [
								{
									"internalType": "bytes32",
									"name": "ticker",
									"type": "bytes32"
								},
								{
									"internalType": "address",
									"name": "tokenAddress",
									"type": "address"
								}
							],
							"internalType": "struct Dex.Token[]",
							"name": "",
							"type": "tuple[]"
						}
					],
					"stateMutability": "view",
					"type": "function"
				},
				{
					"inputs": [],
					"name": "nextOrderId",
					"outputs": [
						{
							"internalType": "uint256",
							"name": "",
							"type": "uint256"
						}
					],
					"stateMutability": "view",
					"type": "function"
				},
				{
					"inputs": [
						{
							"internalType": "bytes32",
							"name": "",
							"type": "bytes32"
						},
						{
							"internalType": "uint256",
							"name": "",
							"type": "uint256"
						},
						{
							"internalType": "uint256",
							"name": "",
							"type": "uint256"
						}
					],
					"name": "orderBook",
					"outputs": [
						{
							"internalType": "uint256",
							"name": "id",
							"type": "uint256"
						},
						{
							"internalType": "address",
							"name": "trader",
							"type": "address"
						},
						{
							"internalType": "enum Dex.Side",
							"name": "side",
							"type": "uint8"
						},
						{
							"internalType": "bytes32",
							"name": "ticker",
							"type": "bytes32"
						},
						{
							"internalType": "uint256",
							"name": "amount",
							"type": "uint256"
						},
						{
							"internalType": "uint256",
							"name": "filled",
							"type": "uint256"
						},
						{
							"internalType": "uint256",
							"name": "price",
							"type": "uint256"
						},
						{
							"internalType": "uint256",
							"name": "date",
							"type": "uint256"
						}
					],
					"stateMutability": "view",
					"type": "function"
				},
				{
					"inputs": [
						{
							"internalType": "uint256",
							"name": "",
							"type": "uint256"
						}
					],
					"name": "tokenList",
					"outputs": [
						{
							"internalType": "bytes32",
							"name": "",
							"type": "bytes32"
						}
					],
					"stateMutability": "view",
					"type": "function"
				},
				{
					"inputs": [
						{
							"internalType": "bytes32",
							"name": "",
							"type": "bytes32"
						}
					],
					"name": "tokens",
					"outputs": [
						{
							"internalType": "bytes32",
							"name": "ticker",
							"type": "bytes32"
						},
						{
							"internalType": "address",
							"name": "tokenAddress",
							"type": "address"
						}
					],
					"stateMutability": "view",
					"type": "function"
				},
				{
					"inputs": [
						{
							"internalType": "address",
							"name": "",
							"type": "address"
						},
						{
							"internalType": "bytes32",
							"name": "",
							"type": "bytes32"
						}
					],
					"name": "traderBalances",
					"outputs": [
						{
							"internalType": "uint256",
							"name": "",
							"type": "uint256"
						}
					],
					"stateMutability": "view",
					"type": "function"
				},
				{
					"inputs": [
						{
							"internalType": "uint256",
							"name": "amount",
							"type": "uint256"
						},
						{
							"internalType": "bytes32",
							"name": "ticker",
							"type": "bytes32"
						}
					],
					"name": "withdraw",
					"outputs": [],
					"stateMutability": "nonpayable",
					"type": "function"
				}
			],
			"devdoc": {
				"kind": "dev",
				"methods": {},
				"version": 1
			},
			"evm": {
				"assembly": "    /* \"contracts/Dex.sol\":414:9923  contract Dex {\r... */\n  mstore(0x40, 0x80)\n    /* \"contracts/Dex.sol\":1854:1905  constructor() {\r... */\n  callvalue\n  dup1\n  iszero\n  tag_1\n  jumpi\n  0x00\n  dup1\n  revert\ntag_1:\n  pop\n    /* \"contracts/Dex.sol\":1887:1897  msg.sender */\n  caller\n    /* \"contracts/Dex.sol\":1879:1884  admin */\n  0x00\n  dup1\n    /* \"contracts/Dex.sol\":1879:1897  admin = msg.sender */\n  0x0100\n  exp\n  dup2\n  sload\n  dup2\n  0xffffffffffffffffffffffffffffffffffffffff\n  mul\n  not\n  and\n  swap1\n  dup4\n  0xffffffffffffffffffffffffffffffffffffffff\n  and\n  mul\n  or\n  swap1\n  sstore\n  pop\n    /* \"contracts/Dex.sol\":414:9923  contract Dex {\r... */\n  dataSize(sub_0)\n  dup1\n  dataOffset(sub_0)\n  0x00\n  codecopy\n  0x00\n  return\nstop\n\nsub_0: assembly {\n        /* \"contracts/Dex.sol\":414:9923  contract Dex {\r... */\n      mstore(0x40, 0x80)\n      callvalue\n      dup1\n      iszero\n      tag_1\n      jumpi\n      0x00\n      dup1\n      revert\n    tag_1:\n      pop\n      jumpi(tag_2, lt(calldatasize, 0x04))\n      shr(0xe0, calldataload(0x00))\n      dup1\n      0x9776aacf\n      gt\n      tag_16\n      jumpi\n      dup1\n      0xaa6ca808\n      gt\n      tag_17\n      jumpi\n      dup1\n      0xaa6ca808\n      eq\n      tag_12\n      jumpi\n      dup1\n      0xc9630cb0\n      eq\n      tag_13\n      jumpi\n      dup1\n      0xd9c0c950\n      eq\n      tag_14\n      jumpi\n      dup1\n      0xf851a440\n      eq\n      tag_15\n      jumpi\n      jump(tag_2)\n    tag_17:\n      dup1\n      0x9776aacf\n      eq\n      tag_9\n      jumpi\n      dup1\n      0x9ead7222\n      eq\n      tag_10\n      jumpi\n      dup1\n      0xa8d2021a\n      eq\n      tag_11\n      jumpi\n      jump(tag_2)\n    tag_16:\n      dup1\n      0x0bb431b6\n      eq\n      tag_3\n      jumpi\n      dup1\n      0x2a58b330\n      eq\n      tag_4\n      jumpi\n      dup1\n      0x46e9658b\n      eq\n      tag_5\n      jumpi\n      dup1\n      0x72ce957e\n      eq\n      tag_6\n      jumpi\n      dup1\n      0x7f2c6246\n      eq\n      tag_7\n      jumpi\n      dup1\n      0x904194a3\n      eq\n      tag_8\n      jumpi\n    tag_2:\n      0x00\n      dup1\n      revert\n        /* \"contracts/Dex.sol\":1272:1333  mapping(bytes32 => mapping(uint => Order[])) public orderBook */\n    tag_3:\n      tag_18\n      0x04\n      dup1\n      calldatasize\n      sub\n      dup2\n      add\n      swap1\n      tag_19\n      swap2\n      swap1\n      tag_20\n      jump\t// in\n    tag_19:\n      tag_21\n      jump\t// in\n    tag_18:\n      mload(0x40)\n      tag_22\n      swap9\n      swap8\n      swap7\n      swap6\n      swap5\n      swap4\n      swap3\n      swap2\n      swap1\n      tag_23\n      jump\t// in\n    tag_22:\n      mload(0x40)\n      dup1\n      swap2\n      sub\n      swap1\n      return\n        /* \"contracts/Dex.sol\":1386:1409  uint public nextOrderId */\n    tag_4:\n      tag_24\n      tag_25\n      jump\t// in\n    tag_24:\n      mload(0x40)\n      tag_26\n      swap2\n      swap1\n      tag_27\n      jump\t// in\n    tag_26:\n      mload(0x40)\n      dup1\n      swap2\n      sub\n      swap1\n      return\n        /* \"contracts/Dex.sol\":5921:6061  function getOrders(bytes32 ticker, Side side) external view returns (Order[] memory) {\r... */\n    tag_5:\n      tag_28\n      0x04\n      dup1\n      calldatasize\n      sub\n      dup2\n      add\n      swap1\n      tag_29\n      swap2\n      swap1\n      tag_30\n      jump\t// in\n    tag_29:\n      tag_31\n      jump\t// in\n    tag_28:\n      mload(0x40)\n      tag_32\n      swap2\n      swap1\n      tag_33\n      jump\t// in\n    tag_32:\n      mload(0x40)\n      dup1\n      swap2\n      sub\n      swap1\n      return\n        /* \"contracts/Dex.sol\":877:946  mapping(address => mapping(bytes32 => uint256)) public traderBalances */\n    tag_6:\n      tag_34\n      0x04\n      dup1\n      calldatasize\n      sub\n      dup2\n      add\n      swap1\n      tag_35\n      swap2\n      swap1\n      tag_36\n      jump\t// in\n    tag_35:\n      tag_37\n      jump\t// in\n    tag_34:\n      mload(0x40)\n      tag_38\n      swap2\n      swap1\n      tag_27\n      jump\t// in\n    tag_38:\n      mload(0x40)\n      dup1\n      swap2\n      sub\n      swap1\n      return\n        /* \"contracts/Dex.sol\":6101:9920  function createMarketOrder(bytes32 ticker, uint amount, Side side) tokenExist(ticker) tokenIsNotDAI(ticker) external {\r... */\n    tag_7:\n      tag_39\n      0x04\n      dup1\n      calldatasize\n      sub\n      dup2\n      add\n      swap1\n      tag_40\n      swap2\n      swap1\n      tag_41\n      jump\t// in\n    tag_40:\n      tag_42\n      jump\t// in\n    tag_39:\n      stop\n        /* \"contracts/Dex.sol\":685:724  mapping(bytes32 => Token) public tokens */\n    tag_8:\n      tag_43\n      0x04\n      dup1\n      calldatasize\n      sub\n      dup2\n      add\n      swap1\n      tag_44\n      swap2\n      swap1\n      tag_45\n      jump\t// in\n    tag_44:\n      tag_46\n      jump\t// in\n    tag_43:\n      mload(0x40)\n      tag_47\n      swap3\n      swap2\n      swap1\n      tag_48\n      jump\t// in\n    tag_47:\n      mload(0x40)\n      dup1\n      swap2\n      sub\n      swap1\n      return\n        /* \"contracts/Dex.sol\":2454:2627  function addToken(bytes32 ticker, address tokenAddress) onlyAdmin() external {\r... */\n    tag_9:\n      tag_49\n      0x04\n      dup1\n      calldatasize\n      sub\n      dup2\n      add\n      swap1\n      tag_50\n      swap2\n      swap1\n      tag_51\n      jump\t// in\n    tag_50:\n      tag_52\n      jump\t// in\n    tag_49:\n      stop\n        /* \"contracts/Dex.sol\":731:757  bytes32[] public tokenList */\n    tag_10:\n      tag_53\n      0x04\n      dup1\n      calldatasize\n      sub\n      dup2\n      add\n      swap1\n      tag_54\n      swap2\n      swap1\n      tag_55\n      jump\t// in\n    tag_54:\n      tag_56\n      jump\t// in\n    tag_53:\n      mload(0x40)\n      tag_57\n      swap2\n      swap1\n      tag_58\n      jump\t// in\n    tag_57:\n      mload(0x40)\n      dup1\n      swap2\n      sub\n      swap1\n      return\n        /* \"contracts/Dex.sol\":3674:4066  function withdraw(uint amount, bytes32 ticker) tokenExist(ticker) external {\r... */\n    tag_11:\n      tag_59\n      0x04\n      dup1\n      calldatasize\n      sub\n      dup2\n      add\n      swap1\n      tag_60\n      swap2\n      swap1\n      tag_61\n      jump\t// in\n    tag_60:\n      tag_62\n      jump\t// in\n    tag_59:\n      stop\n        /* \"contracts/Dex.sol\":2635:3117  function getTokens() external view returns (Token[] memory) {\r... */\n    tag_12:\n      tag_63\n      tag_64\n      jump\t// in\n    tag_63:\n      mload(0x40)\n      tag_65\n      swap2\n      swap1\n      tag_66\n      jump\t// in\n    tag_65:\n      mload(0x40)\n      dup1\n      swap2\n      sub\n      swap1\n      return\n        /* \"contracts/Dex.sol\":3151:3666  function deposit(uint amount, bytes32 ticker) tokenExist(ticker) external {\r... */\n    tag_13:\n      tag_67\n      0x04\n      dup1\n      calldatasize\n      sub\n      dup2\n      add\n      swap1\n      tag_68\n      swap2\n      swap1\n      tag_61\n      jump\t// in\n    tag_68:\n      tag_69\n      jump\t// in\n    tag_67:\n      stop\n        /* \"contracts/Dex.sol\":4105:5913  function createLimitOrder(bytes32 ticker, uint amount, uint price, Side side) tokenExist(ticker) tokenIsNotDAI(ticker) external {\r... */\n    tag_14:\n      tag_70\n      0x04\n      dup1\n      calldatasize\n      sub\n      dup2\n      add\n      swap1\n      tag_71\n      swap2\n      swap1\n      tag_72\n      jump\t// in\n    tag_71:\n      tag_73\n      jump\t// in\n    tag_70:\n      stop\n        /* \"contracts/Dex.sol\":503:523  address public admin */\n    tag_15:\n      tag_74\n      tag_75\n      jump\t// in\n    tag_74:\n      mload(0x40)\n      tag_76\n      swap2\n      swap1\n      tag_77\n      jump\t// in\n    tag_76:\n      mload(0x40)\n      dup1\n      swap2\n      sub\n      swap1\n      return\n        /* \"contracts/Dex.sol\":1272:1333  mapping(bytes32 => mapping(uint => Order[])) public orderBook */\n    tag_21:\n      mstore(0x20, 0x04)\n      dup3\n      0x00\n      mstore\n      mstore(0x20, keccak256(0x00, 0x40))\n      dup2\n      0x00\n      mstore\n      keccak256(0x00, 0x40)\n      dup2\n      dup2\n      sload\n      dup2\n      lt\n      tag_78\n      jumpi\n      0x00\n      dup1\n      revert\n    tag_78:\n      swap1\n      0x00\n      mstore\n      keccak256(0x00, 0x20)\n      swap1\n      0x07\n      mul\n      add\n      0x00\n      swap3\n      pop\n      swap3\n      pop\n      pop\n      pop\n      dup1\n      0x00\n      add\n      sload\n      swap1\n      dup1\n      0x01\n      add\n      0x00\n      swap1\n      sload\n      swap1\n      0x0100\n      exp\n      swap1\n      div\n      0xffffffffffffffffffffffffffffffffffffffff\n      and\n      swap1\n      dup1\n      0x01\n      add\n      0x14\n      swap1\n      sload\n      swap1\n      0x0100\n      exp\n      swap1\n      div\n      0xff\n      and\n      swap1\n      dup1\n      0x02\n      add\n      sload\n      swap1\n      dup1\n      0x03\n      add\n      sload\n      swap1\n      dup1\n      0x04\n      add\n      sload\n      swap1\n      dup1\n      0x05\n      add\n      sload\n      swap1\n      dup1\n      0x06\n      add\n      sload\n      swap1\n      pop\n      dup9\n      jump\t// out\n        /* \"contracts/Dex.sol\":1386:1409  uint public nextOrderId */\n    tag_25:\n      sload(0x05)\n      dup2\n      jump\t// out\n        /* \"contracts/Dex.sol\":5921:6061  function getOrders(bytes32 ticker, Side side) external view returns (Order[] memory) {\r... */\n    tag_31:\n        /* \"contracts/Dex.sol\":5990:6004  Order[] memory */\n      0x60\n        /* \"contracts/Dex.sol\":6024:6033  orderBook */\n      0x04\n        /* \"contracts/Dex.sol\":6024:6041  orderBook[ticker] */\n      0x00\n        /* \"contracts/Dex.sol\":6034:6040  ticker */\n      dup5\n        /* \"contracts/Dex.sol\":6024:6041  orderBook[ticker] */\n      dup2\n      mstore\n      0x20\n      add\n      swap1\n      dup2\n      mstore\n      0x20\n      add\n      0x00\n      keccak256\n        /* \"contracts/Dex.sol\":6024:6053  orderBook[ticker][uint(side)] */\n      0x00\n        /* \"contracts/Dex.sol\":6047:6051  side */\n      dup4\n        /* \"contracts/Dex.sol\":6042:6052  uint(side) */\n      0x01\n      dup2\n      gt\n      iszero\n      tag_81\n      jumpi\n      mstore(0x00, 0x4e487b7100000000000000000000000000000000000000000000000000000000)\n      mstore(0x04, 0x21)\n      revert(0x00, 0x24)\n    tag_81:\n        /* \"contracts/Dex.sol\":6024:6053  orderBook[ticker][uint(side)] */\n      dup2\n      mstore\n      0x20\n      add\n      swap1\n      dup2\n      mstore\n      0x20\n      add\n      0x00\n      keccak256\n        /* \"contracts/Dex.sol\":6017:6053  return orderBook[ticker][uint(side)] */\n      dup1\n      sload\n      dup1\n      0x20\n      mul\n      0x20\n      add\n      mload(0x40)\n      swap1\n      dup2\n      add\n      0x40\n      mstore\n      dup1\n      swap3\n      swap2\n      swap1\n      dup2\n      dup2\n      mstore\n      0x20\n      add\n      0x00\n      swap1\n    tag_82:\n      dup3\n      dup3\n      lt\n      iszero\n      tag_83\n      jumpi\n      dup4\n      dup3\n      swap1\n      0x00\n      mstore\n      keccak256(0x00, 0x20)\n      swap1\n      0x07\n      mul\n      add\n      mload(0x40)\n      dup1\n      0x0100\n      add\n      0x40\n      mstore\n      swap1\n      dup2\n      0x00\n      dup3\n      add\n      sload\n      dup2\n      mstore\n      0x20\n      add\n      0x01\n      dup3\n      add\n      0x00\n      swap1\n      sload\n      swap1\n      0x0100\n      exp\n      swap1\n      div\n      0xffffffffffffffffffffffffffffffffffffffff\n      and\n      0xffffffffffffffffffffffffffffffffffffffff\n      and\n      0xffffffffffffffffffffffffffffffffffffffff\n      and\n      dup2\n      mstore\n      0x20\n      add\n      0x01\n      dup3\n      add\n      0x14\n      swap1\n      sload\n      swap1\n      0x0100\n      exp\n      swap1\n      div\n      0xff\n      and\n      0x01\n      dup2\n      gt\n      iszero\n      tag_85\n      jumpi\n      mstore(0x00, 0x4e487b7100000000000000000000000000000000000000000000000000000000)\n      mstore(0x04, 0x21)\n      revert(0x00, 0x24)\n    tag_85:\n      0x01\n      dup2\n      gt\n      iszero\n      tag_86\n      jumpi\n      mstore(0x00, 0x4e487b7100000000000000000000000000000000000000000000000000000000)\n      mstore(0x04, 0x21)\n      revert(0x00, 0x24)\n    tag_86:\n      dup2\n      mstore\n      0x20\n      add\n      0x02\n      dup3\n      add\n      sload\n      dup2\n      mstore\n      0x20\n      add\n      0x03\n      dup3\n      add\n      sload\n      dup2\n      mstore\n      0x20\n      add\n      0x04\n      dup3\n      add\n      sload\n      dup2\n      mstore\n      0x20\n      add\n      0x05\n      dup3\n      add\n      sload\n      dup2\n      mstore\n      0x20\n      add\n      0x06\n      dup3\n      add\n      sload\n      dup2\n      mstore\n      pop\n      pop\n      dup2\n      mstore\n      0x20\n      add\n      swap1\n      0x01\n      add\n      swap1\n      jump(tag_82)\n    tag_83:\n      pop\n      pop\n      pop\n      pop\n      swap1\n      pop\n        /* \"contracts/Dex.sol\":5921:6061  function getOrders(bytes32 ticker, Side side) external view returns (Order[] memory) {\r... */\n      swap3\n      swap2\n      pop\n      pop\n      jump\t// out\n        /* \"contracts/Dex.sol\":877:946  mapping(address => mapping(bytes32 => uint256)) public traderBalances */\n    tag_37:\n      mstore(0x20, 0x03)\n      dup2\n      0x00\n      mstore\n      mstore(0x20, keccak256(0x00, 0x40))\n      dup1\n      0x00\n      mstore\n      keccak256(0x00, 0x40)\n      0x00\n      swap2\n      pop\n      swap2\n      pop\n      pop\n      sload\n      dup2\n      jump\t// out\n        /* \"contracts/Dex.sol\":6101:9920  function createMarketOrder(bytes32 ticker, uint amount, Side side) tokenExist(ticker) tokenIsNotDAI(ticker) external {\r... */\n    tag_42:\n        /* \"contracts/Dex.sol\":6179:6185  ticker */\n      dup3\n        /* \"contracts/Dex.sol\":2248:2249  0 */\n      0x00\n        /* \"contracts/Dex.sol\":2209:2250  tokens[ticker].tokenAddress != address(0) */\n      0xffffffffffffffffffffffffffffffffffffffff\n      and\n        /* \"contracts/Dex.sol\":2209:2215  tokens */\n      0x01\n        /* \"contracts/Dex.sol\":2209:2223  tokens[ticker] */\n      0x00\n        /* \"contracts/Dex.sol\":2216:2222  ticker */\n      dup4\n        /* \"contracts/Dex.sol\":2209:2223  tokens[ticker] */\n      dup2\n      mstore\n      0x20\n      add\n      swap1\n      dup2\n      mstore\n      0x20\n      add\n      0x00\n      keccak256\n        /* \"contracts/Dex.sol\":2209:2236  tokens[ticker].tokenAddress */\n      0x01\n      add\n      0x00\n      swap1\n      sload\n      swap1\n      0x0100\n      exp\n      swap1\n      div\n      0xffffffffffffffffffffffffffffffffffffffff\n      and\n        /* \"contracts/Dex.sol\":2209:2250  tokens[ticker].tokenAddress != address(0) */\n      0xffffffffffffffffffffffffffffffffffffffff\n      and\n      eq\n      iszero\n        /* \"contracts/Dex.sol\":2201:2280  require(tokens[ticker].tokenAddress != address(0), \"This token does not exist\") */\n      tag_88\n      jumpi\n      mload(0x40)\n      0x08c379a000000000000000000000000000000000000000000000000000000000\n      dup2\n      mstore\n      0x04\n      add\n      tag_89\n      swap1\n      tag_90\n      jump\t// in\n    tag_89:\n      mload(0x40)\n      dup1\n      swap2\n      sub\n      swap1\n      revert\n    tag_88:\n        /* \"contracts/Dex.sol\":6201:6207  ticker */\n      dup4\n        /* \"contracts/Dex.sol\":553:567  bytes32(\"DAI\") */\n      0x4441490000000000000000000000000000000000000000000000000000000000\n        /* \"contracts/Dex.sol\":2367:2373  ticker */\n      dup2\n        /* \"contracts/Dex.sol\":2367:2380  ticker != DAI */\n      eq\n      iszero\n        /* \"contracts/Dex.sol\":2359:2401  require(ticker != DAI, \"Cannot trade DAI\") */\n      tag_92\n      jumpi\n      mload(0x40)\n      0x08c379a000000000000000000000000000000000000000000000000000000000\n      dup2\n      mstore\n      0x04\n      add\n      tag_93\n      swap1\n      tag_94\n      jump\t// in\n    tag_93:\n      mload(0x40)\n      dup1\n      swap2\n      sub\n      swap1\n      revert\n    tag_92:\n        /* \"contracts/Dex.sol\":6307:6316  Side.SELL */\n      0x01\n        /* \"contracts/Dex.sol\":6299:6316  side == Side.SELL */\n      dup1\n      dup2\n      gt\n      iszero\n      tag_96\n      jumpi\n      mstore(0x00, 0x4e487b7100000000000000000000000000000000000000000000000000000000)\n      mstore(0x04, 0x21)\n      revert(0x00, 0x24)\n    tag_96:\n        /* \"contracts/Dex.sol\":6299:6303  side */\n      dup4\n        /* \"contracts/Dex.sol\":6299:6316  side == Side.SELL */\n      0x01\n      dup2\n      gt\n      iszero\n      tag_97\n      jumpi\n      mstore(0x00, 0x4e487b7100000000000000000000000000000000000000000000000000000000)\n      mstore(0x04, 0x21)\n      revert(0x00, 0x24)\n    tag_97:\n      eq\n        /* \"contracts/Dex.sol\":6295:6616  if (side == Side.SELL) {\r... */\n      iszero\n      tag_98\n      jumpi\n        /* \"contracts/Dex.sol\":6379:6385  amount */\n      dup4\n        /* \"contracts/Dex.sol\":6341:6355  traderBalances */\n      0x03\n        /* \"contracts/Dex.sol\":6341:6367  traderBalances[msg.sender] */\n      0x00\n        /* \"contracts/Dex.sol\":6356:6366  msg.sender */\n      caller\n        /* \"contracts/Dex.sol\":6341:6367  traderBalances[msg.sender] */\n      0xffffffffffffffffffffffffffffffffffffffff\n      and\n      0xffffffffffffffffffffffffffffffffffffffff\n      and\n      dup2\n      mstore\n      0x20\n      add\n      swap1\n      dup2\n      mstore\n      0x20\n      add\n      0x00\n      keccak256\n        /* \"contracts/Dex.sol\":6341:6375  traderBalances[msg.sender][ticker] */\n      0x00\n        /* \"contracts/Dex.sol\":6368:6374  ticker */\n      dup8\n        /* \"contracts/Dex.sol\":6341:6375  traderBalances[msg.sender][ticker] */\n      dup2\n      mstore\n      0x20\n      add\n      swap1\n      dup2\n      mstore\n      0x20\n      add\n      0x00\n      keccak256\n      sload\n        /* \"contracts/Dex.sol\":6341:6385  traderBalances[msg.sender][ticker] >= amount */\n      lt\n      iszero\n        /* \"contracts/Dex.sol\":6333:6411  require(traderBalances[msg.sender][ticker] >= amount, \"Token balance too low\") */\n      tag_99\n      jumpi\n      mload(0x40)\n      0x08c379a000000000000000000000000000000000000000000000000000000000\n      dup2\n      mstore\n      0x04\n      add\n      tag_100\n      swap1\n      tag_101\n      jump\t// in\n    tag_100:\n      mload(0x40)\n      dup1\n      swap2\n      sub\n      swap1\n      revert\n    tag_99:\n        /* \"contracts/Dex.sol\":6295:6616  if (side == Side.SELL) {\r... */\n      jump(tag_102)\n    tag_98:\n    tag_102:\n        /* \"contracts/Dex.sol\":6628:6650  Order[] storage orders */\n      0x00\n        /* \"contracts/Dex.sol\":6653:6662  orderBook */\n      0x04\n        /* \"contracts/Dex.sol\":6653:6670  orderBook[ticker] */\n      0x00\n        /* \"contracts/Dex.sol\":6663:6669  ticker */\n      dup8\n        /* \"contracts/Dex.sol\":6653:6670  orderBook[ticker] */\n      dup2\n      mstore\n      0x20\n      add\n      swap1\n      dup2\n      mstore\n      0x20\n      add\n      0x00\n      keccak256\n        /* \"contracts/Dex.sol\":6653:6717  orderBook[ticker][uint(side == Side.BUY ? Side.SELL : Side.BUY)] */\n      0x00\n        /* \"contracts/Dex.sol\":6684:6692  Side.BUY */\n      dup1\n        /* \"contracts/Dex.sol\":6676:6692  side == Side.BUY */\n      0x01\n      dup2\n      gt\n      iszero\n      tag_103\n      jumpi\n      mstore(0x00, 0x4e487b7100000000000000000000000000000000000000000000000000000000)\n      mstore(0x04, 0x21)\n      revert(0x00, 0x24)\n    tag_103:\n        /* \"contracts/Dex.sol\":6676:6680  side */\n      dup7\n        /* \"contracts/Dex.sol\":6676:6692  side == Side.BUY */\n      0x01\n      dup2\n      gt\n      iszero\n      tag_104\n      jumpi\n      mstore(0x00, 0x4e487b7100000000000000000000000000000000000000000000000000000000)\n      mstore(0x04, 0x21)\n      revert(0x00, 0x24)\n    tag_104:\n      eq\n        /* \"contracts/Dex.sol\":6676:6715  side == Side.BUY ? Side.SELL : Side.BUY */\n      tag_105\n      jumpi\n        /* \"contracts/Dex.sol\":6707:6715  Side.BUY */\n      0x00\n        /* \"contracts/Dex.sol\":6676:6715  side == Side.BUY ? Side.SELL : Side.BUY */\n      jump(tag_106)\n    tag_105:\n        /* \"contracts/Dex.sol\":6695:6704  Side.SELL */\n      0x01\n        /* \"contracts/Dex.sol\":6676:6715  side == Side.BUY ? Side.SELL : Side.BUY */\n    tag_106:\n        /* \"contracts/Dex.sol\":6671:6716  uint(side == Side.BUY ? Side.SELL : Side.BUY) */\n      0x01\n      dup2\n      gt\n      iszero\n      tag_107\n      jumpi\n      mstore(0x00, 0x4e487b7100000000000000000000000000000000000000000000000000000000)\n      mstore(0x04, 0x21)\n      revert(0x00, 0x24)\n    tag_107:\n        /* \"contracts/Dex.sol\":6653:6717  orderBook[ticker][uint(side == Side.BUY ? Side.SELL : Side.BUY)] */\n      dup2\n      mstore\n      0x20\n      add\n      swap1\n      dup2\n      mstore\n      0x20\n      add\n      0x00\n      keccak256\n        /* \"contracts/Dex.sol\":6628:6717  Order[] storage orders = orderBook[ticker][uint(side == Side.BUY ? Side.SELL : Side.BUY)] */\n      swap1\n      pop\n        /* \"contracts/Dex.sol\":6770:6776  uint i */\n      0x00\n        /* \"contracts/Dex.sol\":6787:6801  uint remaining */\n      dup1\n        /* \"contracts/Dex.sol\":6804:6810  amount */\n      dup7\n        /* \"contracts/Dex.sol\":6787:6810  uint remaining = amount */\n      swap1\n      pop\n        /* \"contracts/Dex.sol\":6867:9369  while(i < orders.length && remaining > 0) {\r... */\n    tag_108:\n        /* \"contracts/Dex.sol\":6877:6883  orders */\n      dup3\n        /* \"contracts/Dex.sol\":6877:6890  orders.length */\n      dup1\n      sload\n      swap1\n      pop\n        /* \"contracts/Dex.sol\":6873:6874  i */\n      dup3\n        /* \"contracts/Dex.sol\":6873:6890  i < orders.length */\n      lt\n        /* \"contracts/Dex.sol\":6873:6907  i < orders.length && remaining > 0 */\n      dup1\n      iszero\n      tag_110\n      jumpi\n      pop\n        /* \"contracts/Dex.sol\":6906:6907  0 */\n      0x00\n        /* \"contracts/Dex.sol\":6894:6903  remaining */\n      dup2\n        /* \"contracts/Dex.sol\":6894:6907  remaining > 0 */\n      gt\n        /* \"contracts/Dex.sol\":6873:6907  i < orders.length && remaining > 0 */\n    tag_110:\n        /* \"contracts/Dex.sol\":6867:9369  while(i < orders.length && remaining > 0) {\r... */\n      iszero\n      tag_109\n      jumpi\n        /* \"contracts/Dex.sol\":6924:6938  uint available */\n      0x00\n        /* \"contracts/Dex.sol\":6941:6979  orders[i].amount.sub(orders[i].filled) */\n      tag_111\n        /* \"contracts/Dex.sol\":6962:6968  orders */\n      dup5\n        /* \"contracts/Dex.sol\":6969:6970  i */\n      dup5\n        /* \"contracts/Dex.sol\":6962:6971  orders[i] */\n      dup2\n      sload\n      dup2\n      lt\n      tag_112\n      jumpi\n      mstore(0x00, 0x4e487b7100000000000000000000000000000000000000000000000000000000)\n      mstore(0x04, 0x32)\n      revert(0x00, 0x24)\n    tag_112:\n      swap1\n      0x00\n      mstore\n      keccak256(0x00, 0x20)\n      swap1\n      0x07\n      mul\n      add\n        /* \"contracts/Dex.sol\":6962:6978  orders[i].filled */\n      0x04\n      add\n      sload\n        /* \"contracts/Dex.sol\":6941:6947  orders */\n      dup6\n        /* \"contracts/Dex.sol\":6948:6949  i */\n      dup6\n        /* \"contracts/Dex.sol\":6941:6950  orders[i] */\n      dup2\n      sload\n      dup2\n      lt\n      tag_114\n      jumpi\n      mstore(0x00, 0x4e487b7100000000000000000000000000000000000000000000000000000000)\n      mstore(0x04, 0x32)\n      revert(0x00, 0x24)\n    tag_114:\n      swap1\n      0x00\n      mstore\n      keccak256(0x00, 0x20)\n      swap1\n      0x07\n      mul\n      add\n        /* \"contracts/Dex.sol\":6941:6957  orders[i].amount */\n      0x03\n      add\n      sload\n        /* \"contracts/Dex.sol\":6941:6961  orders[i].amount.sub */\n      tag_116\n      swap1\n        /* \"contracts/Dex.sol\":6941:6979  orders[i].amount.sub(orders[i].filled) */\n      swap2\n      swap1\n      0xffffffff\n      and\n      jump\t// in\n    tag_111:\n        /* \"contracts/Dex.sol\":6924:6979  uint available = orders[i].amount.sub(orders[i].filled) */\n      swap1\n      pop\n        /* \"contracts/Dex.sol\":7156:7168  uint matched */\n      0x00\n        /* \"contracts/Dex.sol\":7184:7193  available */\n      dup2\n        /* \"contracts/Dex.sol\":7172:7181  remaining */\n      dup4\n        /* \"contracts/Dex.sol\":7172:7193  remaining > available */\n      gt\n        /* \"contracts/Dex.sol\":7171:7218  (remaining > available) ? available : remaining */\n      tag_117\n      jumpi\n        /* \"contracts/Dex.sol\":7209:7218  remaining */\n      dup3\n        /* \"contracts/Dex.sol\":7171:7218  (remaining > available) ? available : remaining */\n      jump(tag_118)\n    tag_117:\n        /* \"contracts/Dex.sol\":7197:7206  available */\n      dup2\n        /* \"contracts/Dex.sol\":7171:7218  (remaining > available) ? available : remaining */\n    tag_118:\n        /* \"contracts/Dex.sol\":7156:7218  uint matched = (remaining > available) ? available : remaining */\n      swap1\n      pop\n        /* \"contracts/Dex.sol\":7305:7327  remaining.sub(matched) */\n      tag_119\n        /* \"contracts/Dex.sol\":7319:7326  matched */\n      dup2\n        /* \"contracts/Dex.sol\":7305:7314  remaining */\n      dup5\n        /* \"contracts/Dex.sol\":7305:7318  remaining.sub */\n      tag_116\n      swap1\n        /* \"contracts/Dex.sol\":7305:7327  remaining.sub(matched) */\n      swap2\n      swap1\n      0xffffffff\n      and\n      jump\t// in\n    tag_119:\n        /* \"contracts/Dex.sol\":7293:7327  remaining = remaining.sub(matched) */\n      swap3\n      pop\n        /* \"contracts/Dex.sol\":7361:7390  orders[i].filled.add(matched) */\n      tag_120\n        /* \"contracts/Dex.sol\":7382:7389  matched */\n      dup2\n        /* \"contracts/Dex.sol\":7361:7367  orders */\n      dup7\n        /* \"contracts/Dex.sol\":7368:7369  i */\n      dup7\n        /* \"contracts/Dex.sol\":7361:7370  orders[i] */\n      dup2\n      sload\n      dup2\n      lt\n      tag_121\n      jumpi\n      mstore(0x00, 0x4e487b7100000000000000000000000000000000000000000000000000000000)\n      mstore(0x04, 0x32)\n      revert(0x00, 0x24)\n    tag_121:\n      swap1\n      0x00\n      mstore\n      keccak256(0x00, 0x20)\n      swap1\n      0x07\n      mul\n      add\n        /* \"contracts/Dex.sol\":7361:7377  orders[i].filled */\n      0x04\n      add\n      sload\n        /* \"contracts/Dex.sol\":7361:7381  orders[i].filled.add */\n      tag_123\n      swap1\n        /* \"contracts/Dex.sol\":7361:7390  orders[i].filled.add(matched) */\n      swap2\n      swap1\n      0xffffffff\n      and\n      jump\t// in\n    tag_120:\n        /* \"contracts/Dex.sol\":7342:7348  orders */\n      dup6\n        /* \"contracts/Dex.sol\":7349:7350  i */\n      dup6\n        /* \"contracts/Dex.sol\":7342:7351  orders[i] */\n      dup2\n      sload\n      dup2\n      lt\n      tag_124\n      jumpi\n      mstore(0x00, 0x4e487b7100000000000000000000000000000000000000000000000000000000)\n      mstore(0x04, 0x32)\n      revert(0x00, 0x24)\n    tag_124:\n      swap1\n      0x00\n      mstore\n      keccak256(0x00, 0x20)\n      swap1\n      0x07\n      mul\n      add\n        /* \"contracts/Dex.sol\":7342:7358  orders[i].filled */\n      0x04\n      add\n        /* \"contracts/Dex.sol\":7342:7390  orders[i].filled = orders[i].filled.add(matched) */\n      dup2\n      swap1\n      sstore\n      pop\n        /* \"contracts/Dex.sol\":7561:7571  msg.sender */\n      caller\n        /* \"contracts/Dex.sol\":7412:7681  NewTrade(\r... */\n      0xffffffffffffffffffffffffffffffffffffffff\n      and\n        /* \"contracts/Dex.sol\":7526:7532  orders */\n      dup6\n        /* \"contracts/Dex.sol\":7533:7534  i */\n      dup6\n        /* \"contracts/Dex.sol\":7526:7535  orders[i] */\n      dup2\n      sload\n      dup2\n      lt\n      tag_126\n      jumpi\n      mstore(0x00, 0x4e487b7100000000000000000000000000000000000000000000000000000000)\n      mstore(0x04, 0x32)\n      revert(0x00, 0x24)\n    tag_126:\n      swap1\n      0x00\n      mstore\n      keccak256(0x00, 0x20)\n      swap1\n      0x07\n      mul\n      add\n        /* \"contracts/Dex.sol\":7526:7542  orders[i].trader */\n      0x01\n      add\n      0x00\n      swap1\n      sload\n      swap1\n      0x0100\n      exp\n      swap1\n      div\n      0xffffffffffffffffffffffffffffffffffffffff\n      and\n        /* \"contracts/Dex.sol\":7412:7681  NewTrade(\r... */\n      0xffffffffffffffffffffffffffffffffffffffff\n      and\n        /* \"contracts/Dex.sol\":7500:7506  ticker */\n      dup12\n        /* \"contracts/Dex.sol\":7412:7681  NewTrade(\r... */\n      0xdb0c486e680ba8026643e6a85f8d157b5e7bcd4b32b54d564542570a9eb20416\n        /* \"contracts/Dex.sol\":7439:7450  nextTradeId */\n      sload(0x06)\n        /* \"contracts/Dex.sol\":7469:7475  orders */\n      dup10\n        /* \"contracts/Dex.sol\":7476:7477  i */\n      dup10\n        /* \"contracts/Dex.sol\":7469:7478  orders[i] */\n      dup2\n      sload\n      dup2\n      lt\n      tag_128\n      jumpi\n      mstore(0x00, 0x4e487b7100000000000000000000000000000000000000000000000000000000)\n      mstore(0x04, 0x32)\n      revert(0x00, 0x24)\n    tag_128:\n      swap1\n      0x00\n      mstore\n      keccak256(0x00, 0x20)\n      swap1\n      0x07\n      mul\n      add\n        /* \"contracts/Dex.sol\":7469:7481  orders[i].id */\n      0x00\n      add\n      sload\n        /* \"contracts/Dex.sol\":7590:7597  matched */\n      dup7\n        /* \"contracts/Dex.sol\":7617:7623  orders */\n      dup12\n        /* \"contracts/Dex.sol\":7624:7625  i */\n      dup12\n        /* \"contracts/Dex.sol\":7617:7626  orders[i] */\n      dup2\n      sload\n      dup2\n      lt\n      tag_130\n      jumpi\n      mstore(0x00, 0x4e487b7100000000000000000000000000000000000000000000000000000000)\n      mstore(0x04, 0x32)\n      revert(0x00, 0x24)\n    tag_130:\n      swap1\n      0x00\n      mstore\n      keccak256(0x00, 0x20)\n      swap1\n      0x07\n      mul\n      add\n        /* \"contracts/Dex.sol\":7617:7632  orders[i].price */\n      0x05\n      add\n      sload\n        /* \"contracts/Dex.sol\":7651:7666  block.timestamp */\n      timestamp\n        /* \"contracts/Dex.sol\":7412:7681  NewTrade(\r... */\n      mload(0x40)\n      tag_132\n      swap6\n      swap5\n      swap4\n      swap3\n      swap2\n      swap1\n      tag_133\n      jump\t// in\n    tag_132:\n      mload(0x40)\n      dup1\n      swap2\n      sub\n      swap1\n      log4\n        /* \"contracts/Dex.sol\":7816:7825  Side.SELL */\n      0x01\n        /* \"contracts/Dex.sol\":7808:7825  side == Side.SELL */\n      dup1\n      dup2\n      gt\n      iszero\n      tag_134\n      jumpi\n      mstore(0x00, 0x4e487b7100000000000000000000000000000000000000000000000000000000)\n      mstore(0x04, 0x21)\n      revert(0x00, 0x24)\n    tag_134:\n        /* \"contracts/Dex.sol\":7808:7812  side */\n      dup9\n        /* \"contracts/Dex.sol\":7808:7825  side == Side.SELL */\n      0x01\n      dup2\n      gt\n      iszero\n      tag_135\n      jumpi\n      mstore(0x00, 0x4e487b7100000000000000000000000000000000000000000000000000000000)\n      mstore(0x04, 0x21)\n      revert(0x00, 0x24)\n    tag_135:\n      eq\n        /* \"contracts/Dex.sol\":7804:9282  if (side == Side.SELL) {\r... */\n      iszero\n      tag_136\n      jumpi\n        /* \"contracts/Dex.sol\":7926:7995  traderBalances[msg.sender][ticker].\r... */\n      tag_137\n        /* \"contracts/Dex.sol\":7987:7994  matched */\n      dup2\n        /* \"contracts/Dex.sol\":7926:7940  traderBalances */\n      0x03\n        /* \"contracts/Dex.sol\":7926:7952  traderBalances[msg.sender] */\n      0x00\n        /* \"contracts/Dex.sol\":7941:7951  msg.sender */\n      caller\n        /* \"contracts/Dex.sol\":7926:7952  traderBalances[msg.sender] */\n      0xffffffffffffffffffffffffffffffffffffffff\n      and\n      0xffffffffffffffffffffffffffffffffffffffff\n      and\n      dup2\n      mstore\n      0x20\n      add\n      swap1\n      dup2\n      mstore\n      0x20\n      add\n      0x00\n      keccak256\n        /* \"contracts/Dex.sol\":7926:7960  traderBalances[msg.sender][ticker] */\n      0x00\n        /* \"contracts/Dex.sol\":7953:7959  ticker */\n      dup14\n        /* \"contracts/Dex.sol\":7926:7960  traderBalances[msg.sender][ticker] */\n      dup2\n      mstore\n      0x20\n      add\n      swap1\n      dup2\n      mstore\n      0x20\n      add\n      0x00\n      keccak256\n      sload\n        /* \"contracts/Dex.sol\":7926:7986  traderBalances[msg.sender][ticker].\r... */\n      tag_116\n      swap1\n        /* \"contracts/Dex.sol\":7926:7995  traderBalances[msg.sender][ticker].\r... */\n      swap2\n      swap1\n      0xffffffff\n      and\n      jump\t// in\n    tag_137:\n        /* \"contracts/Dex.sol\":7889:7903  traderBalances */\n      0x03\n        /* \"contracts/Dex.sol\":7889:7915  traderBalances[msg.sender] */\n      0x00\n        /* \"contracts/Dex.sol\":7904:7914  msg.sender */\n      caller\n        /* \"contracts/Dex.sol\":7889:7915  traderBalances[msg.sender] */\n      0xffffffffffffffffffffffffffffffffffffffff\n      and\n      0xffffffffffffffffffffffffffffffffffffffff\n      and\n      dup2\n      mstore\n      0x20\n      add\n      swap1\n      dup2\n      mstore\n      0x20\n      add\n      0x00\n      keccak256\n        /* \"contracts/Dex.sol\":7889:7923  traderBalances[msg.sender][ticker] */\n      0x00\n        /* \"contracts/Dex.sol\":7916:7922  ticker */\n      dup13\n        /* \"contracts/Dex.sol\":7889:7923  traderBalances[msg.sender][ticker] */\n      dup2\n      mstore\n      0x20\n      add\n      swap1\n      dup2\n      mstore\n      0x20\n      add\n      0x00\n      keccak256\n        /* \"contracts/Dex.sol\":7889:7995  traderBalances[msg.sender][ticker] = traderBalances[msg.sender][ticker].\r... */\n      dup2\n      swap1\n      sstore\n      pop\n        /* \"contracts/Dex.sol\":8048:8135  traderBalances[msg.sender][DAI].\r... */\n      tag_138\n        /* \"contracts/Dex.sol\":8106:8134  matched.mul(orders[i].price) */\n      tag_139\n        /* \"contracts/Dex.sol\":8118:8124  orders */\n      dup7\n        /* \"contracts/Dex.sol\":8125:8126  i */\n      dup7\n        /* \"contracts/Dex.sol\":8118:8127  orders[i] */\n      dup2\n      sload\n      dup2\n      lt\n      tag_140\n      jumpi\n      mstore(0x00, 0x4e487b7100000000000000000000000000000000000000000000000000000000)\n      mstore(0x04, 0x32)\n      revert(0x00, 0x24)\n    tag_140:\n      swap1\n      0x00\n      mstore\n      keccak256(0x00, 0x20)\n      swap1\n      0x07\n      mul\n      add\n        /* \"contracts/Dex.sol\":8118:8133  orders[i].price */\n      0x05\n      add\n      sload\n        /* \"contracts/Dex.sol\":8106:8113  matched */\n      dup4\n        /* \"contracts/Dex.sol\":8106:8117  matched.mul */\n      tag_142\n      swap1\n        /* \"contracts/Dex.sol\":8106:8134  matched.mul(orders[i].price) */\n      swap2\n      swap1\n      0xffffffff\n      and\n      jump\t// in\n    tag_139:\n        /* \"contracts/Dex.sol\":8048:8062  traderBalances */\n      0x03\n        /* \"contracts/Dex.sol\":8048:8074  traderBalances[msg.sender] */\n      0x00\n        /* \"contracts/Dex.sol\":8063:8073  msg.sender */\n      caller\n        /* \"contracts/Dex.sol\":8048:8074  traderBalances[msg.sender] */\n      0xffffffffffffffffffffffffffffffffffffffff\n      and\n      0xffffffffffffffffffffffffffffffffffffffff\n      and\n      dup2\n      mstore\n      0x20\n      add\n      swap1\n      dup2\n      mstore\n      0x20\n      add\n      0x00\n      keccak256\n        /* \"contracts/Dex.sol\":8048:8079  traderBalances[msg.sender][DAI] */\n      0x00\n        /* \"contracts/Dex.sol\":553:567  bytes32(\"DAI\") */\n      0x4441490000000000000000000000000000000000000000000000000000000000\n        /* \"contracts/Dex.sol\":8048:8079  traderBalances[msg.sender][DAI] */\n      dup2\n      mstore\n      0x20\n      add\n      swap1\n      dup2\n      mstore\n      0x20\n      add\n      0x00\n      keccak256\n      sload\n        /* \"contracts/Dex.sol\":8048:8105  traderBalances[msg.sender][DAI].\r... */\n      tag_123\n      swap1\n        /* \"contracts/Dex.sol\":8048:8135  traderBalances[msg.sender][DAI].\r... */\n      swap2\n      swap1\n      0xffffffff\n      and\n      jump\t// in\n    tag_138:\n        /* \"contracts/Dex.sol\":8014:8028  traderBalances */\n      0x03\n        /* \"contracts/Dex.sol\":8014:8040  traderBalances[msg.sender] */\n      0x00\n        /* \"contracts/Dex.sol\":8029:8039  msg.sender */\n      caller\n        /* \"contracts/Dex.sol\":8014:8040  traderBalances[msg.sender] */\n      0xffffffffffffffffffffffffffffffffffffffff\n      and\n      0xffffffffffffffffffffffffffffffffffffffff\n      and\n      dup2\n      mstore\n      0x20\n      add\n      swap1\n      dup2\n      mstore\n      0x20\n      add\n      0x00\n      keccak256\n        /* \"contracts/Dex.sol\":8014:8045  traderBalances[msg.sender][DAI] */\n      0x00\n        /* \"contracts/Dex.sol\":553:567  bytes32(\"DAI\") */\n      0x4441490000000000000000000000000000000000000000000000000000000000\n        /* \"contracts/Dex.sol\":8014:8045  traderBalances[msg.sender][DAI] */\n      dup2\n      mstore\n      0x20\n      add\n      swap1\n      dup2\n      mstore\n      0x20\n      add\n      0x00\n      keccak256\n        /* \"contracts/Dex.sol\":8014:8135  traderBalances[msg.sender][DAI] = traderBalances[msg.sender][DAI].\r... */\n      dup2\n      swap1\n      sstore\n      pop\n        /* \"contracts/Dex.sol\":8234:8309  traderBalances[orders[i].trader][ticker].\r... */\n      tag_143\n        /* \"contracts/Dex.sol\":8301:8308  matched */\n      dup2\n        /* \"contracts/Dex.sol\":8234:8248  traderBalances */\n      0x03\n        /* \"contracts/Dex.sol\":8234:8266  traderBalances[orders[i].trader] */\n      0x00\n        /* \"contracts/Dex.sol\":8249:8255  orders */\n      dup9\n        /* \"contracts/Dex.sol\":8256:8257  i */\n      dup9\n        /* \"contracts/Dex.sol\":8249:8258  orders[i] */\n      dup2\n      sload\n      dup2\n      lt\n      tag_144\n      jumpi\n      mstore(0x00, 0x4e487b7100000000000000000000000000000000000000000000000000000000)\n      mstore(0x04, 0x32)\n      revert(0x00, 0x24)\n    tag_144:\n      swap1\n      0x00\n      mstore\n      keccak256(0x00, 0x20)\n      swap1\n      0x07\n      mul\n      add\n        /* \"contracts/Dex.sol\":8249:8265  orders[i].trader */\n      0x01\n      add\n      0x00\n      swap1\n      sload\n      swap1\n      0x0100\n      exp\n      swap1\n      div\n      0xffffffffffffffffffffffffffffffffffffffff\n      and\n        /* \"contracts/Dex.sol\":8234:8266  traderBalances[orders[i].trader] */\n      0xffffffffffffffffffffffffffffffffffffffff\n      and\n      0xffffffffffffffffffffffffffffffffffffffff\n      and\n      dup2\n      mstore\n      0x20\n      add\n      swap1\n      dup2\n      mstore\n      0x20\n      add\n      0x00\n      keccak256\n        /* \"contracts/Dex.sol\":8234:8274  traderBalances[orders[i].trader][ticker] */\n      0x00\n        /* \"contracts/Dex.sol\":8267:8273  ticker */\n      dup14\n        /* \"contracts/Dex.sol\":8234:8274  traderBalances[orders[i].trader][ticker] */\n      dup2\n      mstore\n      0x20\n      add\n      swap1\n      dup2\n      mstore\n      0x20\n      add\n      0x00\n      keccak256\n      sload\n        /* \"contracts/Dex.sol\":8234:8300  traderBalances[orders[i].trader][ticker].\r... */\n      tag_123\n      swap1\n        /* \"contracts/Dex.sol\":8234:8309  traderBalances[orders[i].trader][ticker].\r... */\n      swap2\n      swap1\n      0xffffffff\n      and\n      jump\t// in\n    tag_143:\n        /* \"contracts/Dex.sol\":8191:8205  traderBalances */\n      0x03\n        /* \"contracts/Dex.sol\":8191:8223  traderBalances[orders[i].trader] */\n      0x00\n        /* \"contracts/Dex.sol\":8206:8212  orders */\n      dup8\n        /* \"contracts/Dex.sol\":8213:8214  i */\n      dup8\n        /* \"contracts/Dex.sol\":8206:8215  orders[i] */\n      dup2\n      sload\n      dup2\n      lt\n      tag_146\n      jumpi\n      mstore(0x00, 0x4e487b7100000000000000000000000000000000000000000000000000000000)\n      mstore(0x04, 0x32)\n      revert(0x00, 0x24)\n    tag_146:\n      swap1\n      0x00\n      mstore\n      keccak256(0x00, 0x20)\n      swap1\n      0x07\n      mul\n      add\n        /* \"contracts/Dex.sol\":8206:8222  orders[i].trader */\n      0x01\n      add\n      0x00\n      swap1\n      sload\n      swap1\n      0x0100\n      exp\n      swap1\n      div\n      0xffffffffffffffffffffffffffffffffffffffff\n      and\n        /* \"contracts/Dex.sol\":8191:8223  traderBalances[orders[i].trader] */\n      0xffffffffffffffffffffffffffffffffffffffff\n      and\n      0xffffffffffffffffffffffffffffffffffffffff\n      and\n      dup2\n      mstore\n      0x20\n      add\n      swap1\n      dup2\n      mstore\n      0x20\n      add\n      0x00\n      keccak256\n        /* \"contracts/Dex.sol\":8191:8231  traderBalances[orders[i].trader][ticker] */\n      0x00\n        /* \"contracts/Dex.sol\":8224:8230  ticker */\n      dup13\n        /* \"contracts/Dex.sol\":8191:8231  traderBalances[orders[i].trader][ticker] */\n      dup2\n      mstore\n      0x20\n      add\n      swap1\n      dup2\n      mstore\n      0x20\n      add\n      0x00\n      keccak256\n        /* \"contracts/Dex.sol\":8191:8309  traderBalances[orders[i].trader][ticker] = traderBalances[orders[i].trader][ticker].\r... */\n      dup2\n      swap1\n      sstore\n      pop\n        /* \"contracts/Dex.sol\":8368:8461  traderBalances[orders[i].trader][DAI].\r... */\n      tag_148\n        /* \"contracts/Dex.sol\":8432:8460  matched.mul(orders[i].price) */\n      tag_149\n        /* \"contracts/Dex.sol\":8444:8450  orders */\n      dup7\n        /* \"contracts/Dex.sol\":8451:8452  i */\n      dup7\n        /* \"contracts/Dex.sol\":8444:8453  orders[i] */\n      dup2\n      sload\n      dup2\n      lt\n      tag_150\n      jumpi\n      mstore(0x00, 0x4e487b7100000000000000000000000000000000000000000000000000000000)\n      mstore(0x04, 0x32)\n      revert(0x00, 0x24)\n    tag_150:\n      swap1\n      0x00\n      mstore\n      keccak256(0x00, 0x20)\n      swap1\n      0x07\n      mul\n      add\n        /* \"contracts/Dex.sol\":8444:8459  orders[i].price */\n      0x05\n      add\n      sload\n        /* \"contracts/Dex.sol\":8432:8439  matched */\n      dup4\n        /* \"contracts/Dex.sol\":8432:8443  matched.mul */\n      tag_142\n      swap1\n        /* \"contracts/Dex.sol\":8432:8460  matched.mul(orders[i].price) */\n      swap2\n      swap1\n      0xffffffff\n      and\n      jump\t// in\n    tag_149:\n        /* \"contracts/Dex.sol\":8368:8382  traderBalances */\n      0x03\n        /* \"contracts/Dex.sol\":8368:8400  traderBalances[orders[i].trader] */\n      0x00\n        /* \"contracts/Dex.sol\":8383:8389  orders */\n      dup9\n        /* \"contracts/Dex.sol\":8390:8391  i */\n      dup9\n        /* \"contracts/Dex.sol\":8383:8392  orders[i] */\n      dup2\n      sload\n      dup2\n      lt\n      tag_152\n      jumpi\n      mstore(0x00, 0x4e487b7100000000000000000000000000000000000000000000000000000000)\n      mstore(0x04, 0x32)\n      revert(0x00, 0x24)\n    tag_152:\n      swap1\n      0x00\n      mstore\n      keccak256(0x00, 0x20)\n      swap1\n      0x07\n      mul\n      add\n        /* \"contracts/Dex.sol\":8383:8399  orders[i].trader */\n      0x01\n      add\n      0x00\n      swap1\n      sload\n      swap1\n      0x0100\n      exp\n      swap1\n      div\n      0xffffffffffffffffffffffffffffffffffffffff\n      and\n        /* \"contracts/Dex.sol\":8368:8400  traderBalances[orders[i].trader] */\n      0xffffffffffffffffffffffffffffffffffffffff\n      and\n      0xffffffffffffffffffffffffffffffffffffffff\n      and\n      dup2\n      mstore\n      0x20\n      add\n      swap1\n      dup2\n      mstore\n      0x20\n      add\n      0x00\n      keccak256\n        /* \"contracts/Dex.sol\":8368:8405  traderBalances[orders[i].trader][DAI] */\n      0x00\n        /* \"contracts/Dex.sol\":553:567  bytes32(\"DAI\") */\n      0x4441490000000000000000000000000000000000000000000000000000000000\n        /* \"contracts/Dex.sol\":8368:8405  traderBalances[orders[i].trader][DAI] */\n      dup2\n      mstore\n      0x20\n      add\n      swap1\n      dup2\n      mstore\n      0x20\n      add\n      0x00\n      keccak256\n      sload\n        /* \"contracts/Dex.sol\":8368:8431  traderBalances[orders[i].trader][DAI].\r... */\n      tag_116\n      swap1\n        /* \"contracts/Dex.sol\":8368:8461  traderBalances[orders[i].trader][DAI].\r... */\n      swap2\n      swap1\n      0xffffffff\n      and\n      jump\t// in\n    tag_148:\n        /* \"contracts/Dex.sol\":8328:8342  traderBalances */\n      0x03\n        /* \"contracts/Dex.sol\":8328:8360  traderBalances[orders[i].trader] */\n      0x00\n        /* \"contracts/Dex.sol\":8343:8349  orders */\n      dup8\n        /* \"contracts/Dex.sol\":8350:8351  i */\n      dup8\n        /* \"contracts/Dex.sol\":8343:8352  orders[i] */\n      dup2\n      sload\n      dup2\n      lt\n      tag_154\n      jumpi\n      mstore(0x00, 0x4e487b7100000000000000000000000000000000000000000000000000000000)\n      mstore(0x04, 0x32)\n      revert(0x00, 0x24)\n    tag_154:\n      swap1\n      0x00\n      mstore\n      keccak256(0x00, 0x20)\n      swap1\n      0x07\n      mul\n      add\n        /* \"contracts/Dex.sol\":8343:8359  orders[i].trader */\n      0x01\n      add\n      0x00\n      swap1\n      sload\n      swap1\n      0x0100\n      exp\n      swap1\n      div\n      0xffffffffffffffffffffffffffffffffffffffff\n      and\n        /* \"contracts/Dex.sol\":8328:8360  traderBalances[orders[i].trader] */\n      0xffffffffffffffffffffffffffffffffffffffff\n      and\n      0xffffffffffffffffffffffffffffffffffffffff\n      and\n      dup2\n      mstore\n      0x20\n      add\n      swap1\n      dup2\n      mstore\n      0x20\n      add\n      0x00\n      keccak256\n        /* \"contracts/Dex.sol\":8328:8365  traderBalances[orders[i].trader][DAI] */\n      0x00\n        /* \"contracts/Dex.sol\":553:567  bytes32(\"DAI\") */\n      0x4441490000000000000000000000000000000000000000000000000000000000\n        /* \"contracts/Dex.sol\":8328:8365  traderBalances[orders[i].trader][DAI] */\n      dup2\n      mstore\n      0x20\n      add\n      swap1\n      dup2\n      mstore\n      0x20\n      add\n      0x00\n      keccak256\n        /* \"contracts/Dex.sol\":8328:8461  traderBalances[orders[i].trader][DAI] = traderBalances[orders[i].trader][DAI].\r... */\n      dup2\n      swap1\n      sstore\n      pop\n        /* \"contracts/Dex.sol\":7804:9282  if (side == Side.SELL) {\r... */\n      jump(tag_156)\n    tag_136:\n        /* \"contracts/Dex.sol\":8578:8606  matched.mul(orders[i].price) */\n      tag_157\n        /* \"contracts/Dex.sol\":8590:8596  orders */\n      dup6\n        /* \"contracts/Dex.sol\":8597:8598  i */\n      dup6\n        /* \"contracts/Dex.sol\":8590:8599  orders[i] */\n      dup2\n      sload\n      dup2\n      lt\n      tag_158\n      jumpi\n      mstore(0x00, 0x4e487b7100000000000000000000000000000000000000000000000000000000)\n      mstore(0x04, 0x32)\n      revert(0x00, 0x24)\n    tag_158:\n      swap1\n      0x00\n      mstore\n      keccak256(0x00, 0x20)\n      swap1\n      0x07\n      mul\n      add\n        /* \"contracts/Dex.sol\":8590:8605  orders[i].price */\n      0x05\n      add\n      sload\n        /* \"contracts/Dex.sol\":8578:8585  matched */\n      dup3\n        /* \"contracts/Dex.sol\":8578:8589  matched.mul */\n      tag_142\n      swap1\n        /* \"contracts/Dex.sol\":8578:8606  matched.mul(orders[i].price) */\n      swap2\n      swap1\n      0xffffffff\n      and\n      jump\t// in\n    tag_157:\n        /* \"contracts/Dex.sol\":8543:8557  traderBalances */\n      0x03\n        /* \"contracts/Dex.sol\":8543:8569  traderBalances[msg.sender] */\n      0x00\n        /* \"contracts/Dex.sol\":8558:8568  msg.sender */\n      caller\n        /* \"contracts/Dex.sol\":8543:8569  traderBalances[msg.sender] */\n      0xffffffffffffffffffffffffffffffffffffffff\n      and\n      0xffffffffffffffffffffffffffffffffffffffff\n      and\n      dup2\n      mstore\n      0x20\n      add\n      swap1\n      dup2\n      mstore\n      0x20\n      add\n      0x00\n      keccak256\n        /* \"contracts/Dex.sol\":8543:8574  traderBalances[msg.sender][DAI] */\n      0x00\n        /* \"contracts/Dex.sol\":553:567  bytes32(\"DAI\") */\n      0x4441490000000000000000000000000000000000000000000000000000000000\n        /* \"contracts/Dex.sol\":8543:8574  traderBalances[msg.sender][DAI] */\n      dup2\n      mstore\n      0x20\n      add\n      swap1\n      dup2\n      mstore\n      0x20\n      add\n      0x00\n      keccak256\n      sload\n        /* \"contracts/Dex.sol\":8543:8606  traderBalances[msg.sender][DAI] >= matched.mul(orders[i].price) */\n      lt\n      iszero\n        /* \"contracts/Dex.sol\":8535:8630  require(traderBalances[msg.sender][DAI] >= matched.mul(orders[i].price), \"DAI balance too low\") */\n      tag_160\n      jumpi\n      mload(0x40)\n      0x08c379a000000000000000000000000000000000000000000000000000000000\n      dup2\n      mstore\n      0x04\n      add\n      tag_161\n      swap1\n      tag_162\n      jump\t// in\n    tag_161:\n      mload(0x40)\n      dup1\n      swap2\n      sub\n      swap1\n      revert\n    tag_160:\n        /* \"contracts/Dex.sol\":8730:8799  traderBalances[msg.sender][ticker].\r... */\n      tag_163\n        /* \"contracts/Dex.sol\":8791:8798  matched */\n      dup2\n        /* \"contracts/Dex.sol\":8730:8744  traderBalances */\n      0x03\n        /* \"contracts/Dex.sol\":8730:8756  traderBalances[msg.sender] */\n      0x00\n        /* \"contracts/Dex.sol\":8745:8755  msg.sender */\n      caller\n        /* \"contracts/Dex.sol\":8730:8756  traderBalances[msg.sender] */\n      0xffffffffffffffffffffffffffffffffffffffff\n      and\n      0xffffffffffffffffffffffffffffffffffffffff\n      and\n      dup2\n      mstore\n      0x20\n      add\n      swap1\n      dup2\n      mstore\n      0x20\n      add\n      0x00\n      keccak256\n        /* \"contracts/Dex.sol\":8730:8764  traderBalances[msg.sender][ticker] */\n      0x00\n        /* \"contracts/Dex.sol\":8757:8763  ticker */\n      dup14\n        /* \"contracts/Dex.sol\":8730:8764  traderBalances[msg.sender][ticker] */\n      dup2\n      mstore\n      0x20\n      add\n      swap1\n      dup2\n      mstore\n      0x20\n      add\n      0x00\n      keccak256\n      sload\n        /* \"contracts/Dex.sol\":8730:8790  traderBalances[msg.sender][ticker].\r... */\n      tag_123\n      swap1\n        /* \"contracts/Dex.sol\":8730:8799  traderBalances[msg.sender][ticker].\r... */\n      swap2\n      swap1\n      0xffffffff\n      and\n      jump\t// in\n    tag_163:\n        /* \"contracts/Dex.sol\":8693:8707  traderBalances */\n      0x03\n        /* \"contracts/Dex.sol\":8693:8719  traderBalances[msg.sender] */\n      0x00\n        /* \"contracts/Dex.sol\":8708:8718  msg.sender */\n      caller\n        /* \"contracts/Dex.sol\":8693:8719  traderBalances[msg.sender] */\n      0xffffffffffffffffffffffffffffffffffffffff\n      and\n      0xffffffffffffffffffffffffffffffffffffffff\n      and\n      dup2\n      mstore\n      0x20\n      add\n      swap1\n      dup2\n      mstore\n      0x20\n      add\n      0x00\n      keccak256\n        /* \"contracts/Dex.sol\":8693:8727  traderBalances[msg.sender][ticker] */\n      0x00\n        /* \"contracts/Dex.sol\":8720:8726  ticker */\n      dup13\n        /* \"contracts/Dex.sol\":8693:8727  traderBalances[msg.sender][ticker] */\n      dup2\n      mstore\n      0x20\n      add\n      swap1\n      dup2\n      mstore\n      0x20\n      add\n      0x00\n      keccak256\n        /* \"contracts/Dex.sol\":8693:8799  traderBalances[msg.sender][ticker] = traderBalances[msg.sender][ticker].\r... */\n      dup2\n      swap1\n      sstore\n      pop\n        /* \"contracts/Dex.sol\":8852:8939  traderBalances[msg.sender][DAI].\r... */\n      tag_164\n        /* \"contracts/Dex.sol\":8910:8938  matched.mul(orders[i].price) */\n      tag_165\n        /* \"contracts/Dex.sol\":8922:8928  orders */\n      dup7\n        /* \"contracts/Dex.sol\":8929:8930  i */\n      dup7\n        /* \"contracts/Dex.sol\":8922:8931  orders[i] */\n      dup2\n      sload\n      dup2\n      lt\n      tag_166\n      jumpi\n      mstore(0x00, 0x4e487b7100000000000000000000000000000000000000000000000000000000)\n      mstore(0x04, 0x32)\n      revert(0x00, 0x24)\n    tag_166:\n      swap1\n      0x00\n      mstore\n      keccak256(0x00, 0x20)\n      swap1\n      0x07\n      mul\n      add\n        /* \"contracts/Dex.sol\":8922:8937  orders[i].price */\n      0x05\n      add\n      sload\n        /* \"contracts/Dex.sol\":8910:8917  matched */\n      dup4\n        /* \"contracts/Dex.sol\":8910:8921  matched.mul */\n      tag_142\n      swap1\n        /* \"contracts/Dex.sol\":8910:8938  matched.mul(orders[i].price) */\n      swap2\n      swap1\n      0xffffffff\n      and\n      jump\t// in\n    tag_165:\n        /* \"contracts/Dex.sol\":8852:8866  traderBalances */\n      0x03\n        /* \"contracts/Dex.sol\":8852:8878  traderBalances[msg.sender] */\n      0x00\n        /* \"contracts/Dex.sol\":8867:8877  msg.sender */\n      caller\n        /* \"contracts/Dex.sol\":8852:8878  traderBalances[msg.sender] */\n      0xffffffffffffffffffffffffffffffffffffffff\n      and\n      0xffffffffffffffffffffffffffffffffffffffff\n      and\n      dup2\n      mstore\n      0x20\n      add\n      swap1\n      dup2\n      mstore\n      0x20\n      add\n      0x00\n      keccak256\n        /* \"contracts/Dex.sol\":8852:8883  traderBalances[msg.sender][DAI] */\n      0x00\n        /* \"contracts/Dex.sol\":553:567  bytes32(\"DAI\") */\n      0x4441490000000000000000000000000000000000000000000000000000000000\n        /* \"contracts/Dex.sol\":8852:8883  traderBalances[msg.sender][DAI] */\n      dup2\n      mstore\n      0x20\n      add\n      swap1\n      dup2\n      mstore\n      0x20\n      add\n      0x00\n      keccak256\n      sload\n        /* \"contracts/Dex.sol\":8852:8909  traderBalances[msg.sender][DAI].\r... */\n      tag_116\n      swap1\n        /* \"contracts/Dex.sol\":8852:8939  traderBalances[msg.sender][DAI].\r... */\n      swap2\n      swap1\n      0xffffffff\n      and\n      jump\t// in\n    tag_164:\n        /* \"contracts/Dex.sol\":8818:8832  traderBalances */\n      0x03\n        /* \"contracts/Dex.sol\":8818:8844  traderBalances[msg.sender] */\n      0x00\n        /* \"contracts/Dex.sol\":8833:8843  msg.sender */\n      caller\n        /* \"contracts/Dex.sol\":8818:8844  traderBalances[msg.sender] */\n      0xffffffffffffffffffffffffffffffffffffffff\n      and\n      0xffffffffffffffffffffffffffffffffffffffff\n      and\n      dup2\n      mstore\n      0x20\n      add\n      swap1\n      dup2\n      mstore\n      0x20\n      add\n      0x00\n      keccak256\n        /* \"contracts/Dex.sol\":8818:8849  traderBalances[msg.sender][DAI] */\n      0x00\n        /* \"contracts/Dex.sol\":553:567  bytes32(\"DAI\") */\n      0x4441490000000000000000000000000000000000000000000000000000000000\n        /* \"contracts/Dex.sol\":8818:8849  traderBalances[msg.sender][DAI] */\n      dup2\n      mstore\n      0x20\n      add\n      swap1\n      dup2\n      mstore\n      0x20\n      add\n      0x00\n      keccak256\n        /* \"contracts/Dex.sol\":8818:8939  traderBalances[msg.sender][DAI] = traderBalances[msg.sender][DAI].\r... */\n      dup2\n      swap1\n      sstore\n      pop\n        /* \"contracts/Dex.sol\":9039:9114  traderBalances[orders[i].trader][ticker].\r... */\n      tag_168\n        /* \"contracts/Dex.sol\":9106:9113  matched */\n      dup2\n        /* \"contracts/Dex.sol\":9039:9053  traderBalances */\n      0x03\n        /* \"contracts/Dex.sol\":9039:9071  traderBalances[orders[i].trader] */\n      0x00\n        /* \"contracts/Dex.sol\":9054:9060  orders */\n      dup9\n        /* \"contracts/Dex.sol\":9061:9062  i */\n      dup9\n        /* \"contracts/Dex.sol\":9054:9063  orders[i] */\n      dup2\n      sload\n      dup2\n      lt\n      tag_169\n      jumpi\n      mstore(0x00, 0x4e487b7100000000000000000000000000000000000000000000000000000000)\n      mstore(0x04, 0x32)\n      revert(0x00, 0x24)\n    tag_169:\n      swap1\n      0x00\n      mstore\n      keccak256(0x00, 0x20)\n      swap1\n      0x07\n      mul\n      add\n        /* \"contracts/Dex.sol\":9054:9070  orders[i].trader */\n      0x01\n      add\n      0x00\n      swap1\n      sload\n      swap1\n      0x0100\n      exp\n      swap1\n      div\n      0xffffffffffffffffffffffffffffffffffffffff\n      and\n        /* \"contracts/Dex.sol\":9039:9071  traderBalances[orders[i].trader] */\n      0xffffffffffffffffffffffffffffffffffffffff\n      and\n      0xffffffffffffffffffffffffffffffffffffffff\n      and\n      dup2\n      mstore\n      0x20\n      add\n      swap1\n      dup2\n      mstore\n      0x20\n      add\n      0x00\n      keccak256\n        /* \"contracts/Dex.sol\":9039:9079  traderBalances[orders[i].trader][ticker] */\n      0x00\n        /* \"contracts/Dex.sol\":9072:9078  ticker */\n      dup14\n        /* \"contracts/Dex.sol\":9039:9079  traderBalances[orders[i].trader][ticker] */\n      dup2\n      mstore\n      0x20\n      add\n      swap1\n      dup2\n      mstore\n      0x20\n      add\n      0x00\n      keccak256\n      sload\n        /* \"contracts/Dex.sol\":9039:9105  traderBalances[orders[i].trader][ticker].\r... */\n      tag_123\n      swap1\n        /* \"contracts/Dex.sol\":9039:9114  traderBalances[orders[i].trader][ticker].\r... */\n      swap2\n      swap1\n      0xffffffff\n      and\n      jump\t// in\n    tag_168:\n        /* \"contracts/Dex.sol\":8996:9010  traderBalances */\n      0x03\n        /* \"contracts/Dex.sol\":8996:9028  traderBalances[orders[i].trader] */\n      0x00\n        /* \"contracts/Dex.sol\":9011:9017  orders */\n      dup8\n        /* \"contracts/Dex.sol\":9018:9019  i */\n      dup8\n        /* \"contracts/Dex.sol\":9011:9020  orders[i] */\n      dup2\n      sload\n      dup2\n      lt\n      tag_171\n      jumpi\n      mstore(0x00, 0x4e487b7100000000000000000000000000000000000000000000000000000000)\n      mstore(0x04, 0x32)\n      revert(0x00, 0x24)\n    tag_171:\n      swap1\n      0x00\n      mstore\n      keccak256(0x00, 0x20)\n      swap1\n      0x07\n      mul\n      add\n        /* \"contracts/Dex.sol\":9011:9027  orders[i].trader */\n      0x01\n      add\n      0x00\n      swap1\n      sload\n      swap1\n      0x0100\n      exp\n      swap1\n      div\n      0xffffffffffffffffffffffffffffffffffffffff\n      and\n        /* \"contracts/Dex.sol\":8996:9028  traderBalances[orders[i].trader] */\n      0xffffffffffffffffffffffffffffffffffffffff\n      and\n      0xffffffffffffffffffffffffffffffffffffffff\n      and\n      dup2\n      mstore\n      0x20\n      add\n      swap1\n      dup2\n      mstore\n      0x20\n      add\n      0x00\n      keccak256\n        /* \"contracts/Dex.sol\":8996:9036  traderBalances[orders[i].trader][ticker] */\n      0x00\n        /* \"contracts/Dex.sol\":9029:9035  ticker */\n      dup13\n        /* \"contracts/Dex.sol\":8996:9036  traderBalances[orders[i].trader][ticker] */\n      dup2\n      mstore\n      0x20\n      add\n      swap1\n      dup2\n      mstore\n      0x20\n      add\n      0x00\n      keccak256\n        /* \"contracts/Dex.sol\":8996:9114  traderBalances[orders[i].trader][ticker] = traderBalances[orders[i].trader][ticker].\r... */\n      dup2\n      swap1\n      sstore\n      pop\n        /* \"contracts/Dex.sol\":9173:9266  traderBalances[orders[i].trader][DAI].\r... */\n      tag_173\n        /* \"contracts/Dex.sol\":9237:9265  matched.mul(orders[i].price) */\n      tag_174\n        /* \"contracts/Dex.sol\":9249:9255  orders */\n      dup7\n        /* \"contracts/Dex.sol\":9256:9257  i */\n      dup7\n        /* \"contracts/Dex.sol\":9249:9258  orders[i] */\n      dup2\n      sload\n      dup2\n      lt\n      tag_175\n      jumpi\n      mstore(0x00, 0x4e487b7100000000000000000000000000000000000000000000000000000000)\n      mstore(0x04, 0x32)\n      revert(0x00, 0x24)\n    tag_175:\n      swap1\n      0x00\n      mstore\n      keccak256(0x00, 0x20)\n      swap1\n      0x07\n      mul\n      add\n        /* \"contracts/Dex.sol\":9249:9264  orders[i].price */\n      0x05\n      add\n      sload\n        /* \"contracts/Dex.sol\":9237:9244  matched */\n      dup4\n        /* \"contracts/Dex.sol\":9237:9248  matched.mul */\n      tag_142\n      swap1\n        /* \"contracts/Dex.sol\":9237:9265  matched.mul(orders[i].price) */\n      swap2\n      swap1\n      0xffffffff\n      and\n      jump\t// in\n    tag_174:\n        /* \"contracts/Dex.sol\":9173:9187  traderBalances */\n      0x03\n        /* \"contracts/Dex.sol\":9173:9205  traderBalances[orders[i].trader] */\n      0x00\n        /* \"contracts/Dex.sol\":9188:9194  orders */\n      dup9\n        /* \"contracts/Dex.sol\":9195:9196  i */\n      dup9\n        /* \"contracts/Dex.sol\":9188:9197  orders[i] */\n      dup2\n      sload\n      dup2\n      lt\n      tag_177\n      jumpi\n      mstore(0x00, 0x4e487b7100000000000000000000000000000000000000000000000000000000)\n      mstore(0x04, 0x32)\n      revert(0x00, 0x24)\n    tag_177:\n      swap1\n      0x00\n      mstore\n      keccak256(0x00, 0x20)\n      swap1\n      0x07\n      mul\n      add\n        /* \"contracts/Dex.sol\":9188:9204  orders[i].trader */\n      0x01\n      add\n      0x00\n      swap1\n      sload\n      swap1\n      0x0100\n      exp\n      swap1\n      div\n      0xffffffffffffffffffffffffffffffffffffffff\n      and\n        /* \"contracts/Dex.sol\":9173:9205  traderBalances[orders[i].trader] */\n      0xffffffffffffffffffffffffffffffffffffffff\n      and\n      0xffffffffffffffffffffffffffffffffffffffff\n      and\n      dup2\n      mstore\n      0x20\n      add\n      swap1\n      dup2\n      mstore\n      0x20\n      add\n      0x00\n      keccak256\n        /* \"contracts/Dex.sol\":9173:9210  traderBalances[orders[i].trader][DAI] */\n      0x00\n        /* \"contracts/Dex.sol\":553:567  bytes32(\"DAI\") */\n      0x4441490000000000000000000000000000000000000000000000000000000000\n        /* \"contracts/Dex.sol\":9173:9210  traderBalances[orders[i].trader][DAI] */\n      dup2\n      mstore\n      0x20\n      add\n      swap1\n      dup2\n      mstore\n      0x20\n      add\n      0x00\n      keccak256\n      sload\n        /* \"contracts/Dex.sol\":9173:9236  traderBalances[orders[i].trader][DAI].\r... */\n      tag_116\n      swap1\n        /* \"contracts/Dex.sol\":9173:9266  traderBalances[orders[i].trader][DAI].\r... */\n      swap2\n      swap1\n      0xffffffff\n      and\n      jump\t// in\n    tag_173:\n        /* \"contracts/Dex.sol\":9133:9147  traderBalances */\n      0x03\n        /* \"contracts/Dex.sol\":9133:9165  traderBalances[orders[i].trader] */\n      0x00\n        /* \"contracts/Dex.sol\":9148:9154  orders */\n      dup8\n        /* \"contracts/Dex.sol\":9155:9156  i */\n      dup8\n        /* \"contracts/Dex.sol\":9148:9157  orders[i] */\n      dup2\n      sload\n      dup2\n      lt\n      tag_179\n      jumpi\n      mstore(0x00, 0x4e487b7100000000000000000000000000000000000000000000000000000000)\n      mstore(0x04, 0x32)\n      revert(0x00, 0x24)\n    tag_179:\n      swap1\n      0x00\n      mstore\n      keccak256(0x00, 0x20)\n      swap1\n      0x07\n      mul\n      add\n        /* \"contracts/Dex.sol\":9148:9164  orders[i].trader */\n      0x01\n      add\n      0x00\n      swap1\n      sload\n      swap1\n      0x0100\n      exp\n      swap1\n      div\n      0xffffffffffffffffffffffffffffffffffffffff\n      and\n        /* \"contracts/Dex.sol\":9133:9165  traderBalances[orders[i].trader] */\n      0xffffffffffffffffffffffffffffffffffffffff\n      and\n      0xffffffffffffffffffffffffffffffffffffffff\n      and\n      dup2\n      mstore\n      0x20\n      add\n      swap1\n      dup2\n      mstore\n      0x20\n      add\n      0x00\n      keccak256\n        /* \"contracts/Dex.sol\":9133:9170  traderBalances[orders[i].trader][DAI] */\n      0x00\n        /* \"contracts/Dex.sol\":553:567  bytes32(\"DAI\") */\n      0x4441490000000000000000000000000000000000000000000000000000000000\n        /* \"contracts/Dex.sol\":9133:9170  traderBalances[orders[i].trader][DAI] */\n      dup2\n      mstore\n      0x20\n      add\n      swap1\n      dup2\n      mstore\n      0x20\n      add\n      0x00\n      keccak256\n        /* \"contracts/Dex.sol\":9133:9266  traderBalances[orders[i].trader][DAI] = traderBalances[orders[i].trader][DAI].\r... */\n      dup2\n      swap1\n      sstore\n      pop\n        /* \"contracts/Dex.sol\":7804:9282  if (side == Side.SELL) {\r... */\n    tag_156:\n        /* \"contracts/Dex.sol\":9312:9330  nextTradeId.add(1) */\n      tag_181\n        /* \"contracts/Dex.sol\":9328:9329  1 */\n      0x01\n        /* \"contracts/Dex.sol\":9312:9323  nextTradeId */\n      sload(0x06)\n        /* \"contracts/Dex.sol\":9312:9327  nextTradeId.add */\n      tag_123\n      swap1\n        /* \"contracts/Dex.sol\":9312:9330  nextTradeId.add(1) */\n      swap2\n      swap1\n      0xffffffff\n      and\n      jump\t// in\n    tag_181:\n        /* \"contracts/Dex.sol\":9298:9309  nextTradeId */\n      0x06\n        /* \"contracts/Dex.sol\":9298:9330  nextTradeId = nextTradeId.add(1) */\n      dup2\n      swap1\n      sstore\n      pop\n        /* \"contracts/Dex.sol\":9349:9357  i.add(1) */\n      tag_182\n        /* \"contracts/Dex.sol\":9355:9356  1 */\n      0x01\n        /* \"contracts/Dex.sol\":9349:9350  i */\n      dup6\n        /* \"contracts/Dex.sol\":9349:9354  i.add */\n      tag_123\n      swap1\n        /* \"contracts/Dex.sol\":9349:9357  i.add(1) */\n      swap2\n      swap1\n      0xffffffff\n      and\n      jump\t// in\n    tag_182:\n        /* \"contracts/Dex.sol\":9345:9357  i = i.add(1) */\n      swap4\n      pop\n        /* \"contracts/Dex.sol\":6867:9369  while(i < orders.length && remaining > 0) {\r... */\n      pop\n      pop\n      jump(tag_108)\n    tag_109:\n        /* \"contracts/Dex.sol\":9650:9651  0 */\n      0x00\n        /* \"contracts/Dex.sol\":9646:9651  i = 0 */\n      swap2\n      pop\n        /* \"contracts/Dex.sol\":9662:9913  while (i < orders.length && orders[i].filled == orders[i].amount) {\r... */\n    tag_183:\n        /* \"contracts/Dex.sol\":9673:9679  orders */\n      dup3\n        /* \"contracts/Dex.sol\":9673:9686  orders.length */\n      dup1\n      sload\n      swap1\n      pop\n        /* \"contracts/Dex.sol\":9669:9670  i */\n      dup3\n        /* \"contracts/Dex.sol\":9669:9686  i < orders.length */\n      lt\n        /* \"contracts/Dex.sol\":9669:9726  i < orders.length && orders[i].filled == orders[i].amount */\n      dup1\n      iszero\n      tag_185\n      jumpi\n      pop\n        /* \"contracts/Dex.sol\":9710:9716  orders */\n      dup3\n        /* \"contracts/Dex.sol\":9717:9718  i */\n      dup3\n        /* \"contracts/Dex.sol\":9710:9719  orders[i] */\n      dup2\n      sload\n      dup2\n      lt\n      tag_186\n      jumpi\n      mstore(0x00, 0x4e487b7100000000000000000000000000000000000000000000000000000000)\n      mstore(0x04, 0x32)\n      revert(0x00, 0x24)\n    tag_186:\n      swap1\n      0x00\n      mstore\n      keccak256(0x00, 0x20)\n      swap1\n      0x07\n      mul\n      add\n        /* \"contracts/Dex.sol\":9710:9726  orders[i].amount */\n      0x03\n      add\n      sload\n        /* \"contracts/Dex.sol\":9690:9696  orders */\n      dup4\n        /* \"contracts/Dex.sol\":9697:9698  i */\n      dup4\n        /* \"contracts/Dex.sol\":9690:9699  orders[i] */\n      dup2\n      sload\n      dup2\n      lt\n      tag_188\n      jumpi\n      mstore(0x00, 0x4e487b7100000000000000000000000000000000000000000000000000000000)\n      mstore(0x04, 0x32)\n      revert(0x00, 0x24)\n    tag_188:\n      swap1\n      0x00\n      mstore\n      keccak256(0x00, 0x20)\n      swap1\n      0x07\n      mul\n      add\n        /* \"contracts/Dex.sol\":9690:9706  orders[i].filled */\n      0x04\n      add\n      sload\n        /* \"contracts/Dex.sol\":9690:9726  orders[i].filled == orders[i].amount */\n      eq\n        /* \"contracts/Dex.sol\":9669:9726  i < orders.length && orders[i].filled == orders[i].amount */\n    tag_185:\n        /* \"contracts/Dex.sol\":9662:9913  while (i < orders.length && orders[i].filled == orders[i].amount) {\r... */\n      iszero\n      tag_184\n      jumpi\n        /* \"contracts/Dex.sol\":9748:9754  uint j */\n      0x00\n        /* \"contracts/Dex.sol\":9757:9758  i */\n      dup3\n        /* \"contracts/Dex.sol\":9748:9758  uint j = i */\n      swap1\n      pop\n        /* \"contracts/Dex.sol\":9743:9848  for (uint j = i; j < orders.length - 1; j++) {\r... */\n    tag_190:\n        /* \"contracts/Dex.sol\":9780:9781  1 */\n      0x01\n        /* \"contracts/Dex.sol\":9764:9770  orders */\n      dup5\n        /* \"contracts/Dex.sol\":9764:9777  orders.length */\n      dup1\n      sload\n      swap1\n      pop\n        /* \"contracts/Dex.sol\":9764:9781  orders.length - 1 */\n      tag_193\n      swap2\n      swap1\n      tag_194\n      jump\t// in\n    tag_193:\n        /* \"contracts/Dex.sol\":9760:9761  j */\n      dup2\n        /* \"contracts/Dex.sol\":9760:9781  j < orders.length - 1 */\n      lt\n        /* \"contracts/Dex.sol\":9743:9848  for (uint j = i; j < orders.length - 1; j++) {\r... */\n      iszero\n      tag_191\n      jumpi\n        /* \"contracts/Dex.sol\":9819:9825  orders */\n      dup4\n        /* \"contracts/Dex.sol\":9830:9831  1 */\n      0x01\n        /* \"contracts/Dex.sol\":9826:9827  j */\n      dup3\n        /* \"contracts/Dex.sol\":9826:9831  j + 1 */\n      tag_195\n      swap2\n      swap1\n      tag_196\n      jump\t// in\n    tag_195:\n        /* \"contracts/Dex.sol\":9819:9832  orders[j + 1] */\n      dup2\n      sload\n      dup2\n      lt\n      tag_197\n      jumpi\n      mstore(0x00, 0x4e487b7100000000000000000000000000000000000000000000000000000000)\n      mstore(0x04, 0x32)\n      revert(0x00, 0x24)\n    tag_197:\n      swap1\n      0x00\n      mstore\n      keccak256(0x00, 0x20)\n      swap1\n      0x07\n      mul\n      add\n        /* \"contracts/Dex.sol\":9807:9813  orders */\n      dup5\n        /* \"contracts/Dex.sol\":9814:9815  j */\n      dup3\n        /* \"contracts/Dex.sol\":9807:9816  orders[j] */\n      dup2\n      sload\n      dup2\n      lt\n      tag_199\n      jumpi\n      mstore(0x00, 0x4e487b7100000000000000000000000000000000000000000000000000000000)\n      mstore(0x04, 0x32)\n      revert(0x00, 0x24)\n    tag_199:\n      swap1\n      0x00\n      mstore\n      keccak256(0x00, 0x20)\n      swap1\n      0x07\n      mul\n      add\n        /* \"contracts/Dex.sol\":9807:9832  orders[j] = orders[j + 1] */\n      0x00\n      dup3\n      add\n      sload\n      dup2\n      0x00\n      add\n      sstore\n      0x01\n      dup3\n      add\n      0x00\n      swap1\n      sload\n      swap1\n      0x0100\n      exp\n      swap1\n      div\n      0xffffffffffffffffffffffffffffffffffffffff\n      and\n      dup2\n      0x01\n      add\n      exp(0x0100, 0x00)\n      dup2\n      sload\n      dup2\n      0xffffffffffffffffffffffffffffffffffffffff\n      mul\n      not\n      and\n      swap1\n      dup4\n      0xffffffffffffffffffffffffffffffffffffffff\n      and\n      mul\n      or\n      swap1\n      sstore\n      pop\n      0x01\n      dup3\n      add\n      0x14\n      swap1\n      sload\n      swap1\n      0x0100\n      exp\n      swap1\n      div\n      0xff\n      and\n      dup2\n      0x01\n      add\n      exp(0x0100, 0x14)\n      dup2\n      sload\n      dup2\n      0xff\n      mul\n      not\n      and\n      swap1\n      dup4\n      0x01\n      dup2\n      gt\n      iszero\n      tag_201\n      jumpi\n      mstore(0x00, 0x4e487b7100000000000000000000000000000000000000000000000000000000)\n      mstore(0x04, 0x21)\n      revert(0x00, 0x24)\n    tag_201:\n      mul\n      or\n      swap1\n      sstore\n      pop\n      0x02\n      dup3\n      add\n      sload\n      dup2\n      0x02\n      add\n      sstore\n      0x03\n      dup3\n      add\n      sload\n      dup2\n      0x03\n      add\n      sstore\n      0x04\n      dup3\n      add\n      sload\n      dup2\n      0x04\n      add\n      sstore\n      0x05\n      dup3\n      add\n      sload\n      dup2\n      0x05\n      add\n      sstore\n      0x06\n      dup3\n      add\n      sload\n      dup2\n      0x06\n      add\n      sstore\n      swap1\n      pop\n      pop\n        /* \"contracts/Dex.sol\":9783:9786  j++ */\n      dup1\n      dup1\n      tag_202\n      swap1\n      tag_203\n      jump\t// in\n    tag_202:\n      swap2\n      pop\n      pop\n        /* \"contracts/Dex.sol\":9743:9848  for (uint j = i; j < orders.length - 1; j++) {\r... */\n      jump(tag_190)\n    tag_191:\n      pop\n        /* \"contracts/Dex.sol\":9862:9868  orders */\n      dup3\n        /* \"contracts/Dex.sol\":9862:9874  orders.pop() */\n      dup1\n      sload\n      dup1\n      tag_204\n      jumpi\n      mstore(0x00, 0x4e487b7100000000000000000000000000000000000000000000000000000000)\n      mstore(0x04, 0x31)\n      revert(0x00, 0x24)\n    tag_204:\n      0x01\n      swap1\n      sub\n      dup2\n      dup2\n      swap1\n      0x00\n      mstore\n      keccak256(0x00, 0x20)\n      swap1\n      0x07\n      mul\n      add\n      0x00\n      dup1\n      dup3\n      add\n      0x00\n      swap1\n      sstore\n      0x01\n      dup3\n      add\n      exp(0x0100, 0x00)\n      dup2\n      sload\n      swap1\n      0xffffffffffffffffffffffffffffffffffffffff\n      mul\n      not\n      and\n      swap1\n      sstore\n      0x01\n      dup3\n      add\n      exp(0x0100, 0x14)\n      dup2\n      sload\n      swap1\n      0xff\n      mul\n      not\n      and\n      swap1\n      sstore\n      0x02\n      dup3\n      add\n      0x00\n      swap1\n      sstore\n      0x03\n      dup3\n      add\n      0x00\n      swap1\n      sstore\n      0x04\n      dup3\n      add\n      0x00\n      swap1\n      sstore\n      0x05\n      dup3\n      add\n      0x00\n      swap1\n      sstore\n      0x06\n      dup3\n      add\n      0x00\n      swap1\n      sstore\n      pop\n      pop\n      swap1\n      sstore\n        /* \"contracts/Dex.sol\":9893:9901  i.add(1) */\n      tag_206\n        /* \"contracts/Dex.sol\":9899:9900  1 */\n      0x01\n        /* \"contracts/Dex.sol\":9893:9894  i */\n      dup4\n        /* \"contracts/Dex.sol\":9893:9898  i.add */\n      tag_123\n      swap1\n        /* \"contracts/Dex.sol\":9893:9901  i.add(1) */\n      swap2\n      swap1\n      0xffffffff\n      and\n      jump\t// in\n    tag_206:\n        /* \"contracts/Dex.sol\":9889:9901  i = i.add(1) */\n      swap2\n      pop\n        /* \"contracts/Dex.sol\":9662:9913  while (i < orders.length && orders[i].filled == orders[i].amount) {\r... */\n      jump(tag_183)\n    tag_184:\n        /* \"contracts/Dex.sol\":2412:2413  _ */\n      pop\n      pop\n      pop\n        /* \"contracts/Dex.sol\":2292:2293  _ */\n      pop\n        /* \"contracts/Dex.sol\":6101:9920  function createMarketOrder(bytes32 ticker, uint amount, Side side) tokenExist(ticker) tokenIsNotDAI(ticker) external {\r... */\n      pop\n      pop\n      pop\n      pop\n      jump\t// out\n        /* \"contracts/Dex.sol\":685:724  mapping(bytes32 => Token) public tokens */\n    tag_46:\n      mstore(0x20, 0x01)\n      dup1\n      0x00\n      mstore\n      keccak256(0x00, 0x40)\n      0x00\n      swap2\n      pop\n      swap1\n      pop\n      dup1\n      0x00\n      add\n      sload\n      swap1\n      dup1\n      0x01\n      add\n      0x00\n      swap1\n      sload\n      swap1\n      0x0100\n      exp\n      swap1\n      div\n      0xffffffffffffffffffffffffffffffffffffffff\n      and\n      swap1\n      pop\n      dup3\n      jump\t// out\n        /* \"contracts/Dex.sol\":2454:2627  function addToken(bytes32 ticker, address tokenAddress) onlyAdmin() external {\r... */\n    tag_52:\n        /* \"contracts/Dex.sol\":1985:1990  admin */\n      0x00\n      dup1\n      sload\n      swap1\n      0x0100\n      exp\n      swap1\n      div\n      0xffffffffffffffffffffffffffffffffffffffff\n      and\n        /* \"contracts/Dex.sol\":1971:1990  msg.sender == admin */\n      0xffffffffffffffffffffffffffffffffffffffff\n      and\n        /* \"contracts/Dex.sol\":1971:1981  msg.sender */\n      caller\n        /* \"contracts/Dex.sol\":1971:1990  msg.sender == admin */\n      0xffffffffffffffffffffffffffffffffffffffff\n      and\n      eq\n        /* \"contracts/Dex.sol\":1963:2005  require(msg.sender == admin, \"Only admin\") */\n      tag_208\n      jumpi\n      mload(0x40)\n      0x08c379a000000000000000000000000000000000000000000000000000000000\n      dup2\n      mstore\n      0x04\n      add\n      tag_209\n      swap1\n      tag_210\n      jump\t// in\n    tag_209:\n      mload(0x40)\n      dup1\n      swap2\n      sub\n      swap1\n      revert\n    tag_208:\n        /* \"contracts/Dex.sol\":2559:2586  Token(ticker, tokenAddress) */\n      mload(0x40)\n      dup1\n      0x40\n      add\n      0x40\n      mstore\n      dup1\n        /* \"contracts/Dex.sol\":2565:2571  ticker */\n      dup4\n        /* \"contracts/Dex.sol\":2559:2586  Token(ticker, tokenAddress) */\n      dup2\n      mstore\n      0x20\n      add\n        /* \"contracts/Dex.sol\":2573:2585  tokenAddress */\n      dup3\n        /* \"contracts/Dex.sol\":2559:2586  Token(ticker, tokenAddress) */\n      0xffffffffffffffffffffffffffffffffffffffff\n      and\n      dup2\n      mstore\n      pop\n        /* \"contracts/Dex.sol\":2542:2548  tokens */\n      0x01\n        /* \"contracts/Dex.sol\":2542:2556  tokens[ticker] */\n      0x00\n        /* \"contracts/Dex.sol\":2549:2555  ticker */\n      dup5\n        /* \"contracts/Dex.sol\":2542:2556  tokens[ticker] */\n      dup2\n      mstore\n      0x20\n      add\n      swap1\n      dup2\n      mstore\n      0x20\n      add\n      0x00\n      keccak256\n        /* \"contracts/Dex.sol\":2542:2586  tokens[ticker] = Token(ticker, tokenAddress) */\n      0x00\n      dup3\n      add\n      mload\n      dup2\n      0x00\n      add\n      sstore\n      0x20\n      dup3\n      add\n      mload\n      dup2\n      0x01\n      add\n      exp(0x0100, 0x00)\n      dup2\n      sload\n      dup2\n      0xffffffffffffffffffffffffffffffffffffffff\n      mul\n      not\n      and\n      swap1\n      dup4\n      0xffffffffffffffffffffffffffffffffffffffff\n      and\n      mul\n      or\n      swap1\n      sstore\n      pop\n      swap1\n      pop\n      pop\n        /* \"contracts/Dex.sol\":2597:2606  tokenList */\n      0x02\n        /* \"contracts/Dex.sol\":2612:2618  ticker */\n      dup3\n        /* \"contracts/Dex.sol\":2597:2619  tokenList.push(ticker) */\n      swap1\n      dup1\n      0x01\n      dup2\n      sload\n      add\n      dup1\n      dup3\n      sstore\n      dup1\n      swap2\n      pop\n      pop\n      0x01\n      swap1\n      sub\n      swap1\n      0x00\n      mstore\n      keccak256(0x00, 0x20)\n      add\n      0x00\n      swap1\n      swap2\n      swap1\n      swap2\n      swap1\n      swap2\n      pop\n      sstore\n        /* \"contracts/Dex.sol\":2454:2627  function addToken(bytes32 ticker, address tokenAddress) onlyAdmin() external {\r... */\n      pop\n      pop\n      jump\t// out\n        /* \"contracts/Dex.sol\":731:757  bytes32[] public tokenList */\n    tag_56:\n      0x02\n      dup2\n      dup2\n      sload\n      dup2\n      lt\n      tag_213\n      jumpi\n      0x00\n      dup1\n      revert\n    tag_213:\n      swap1\n      0x00\n      mstore\n      keccak256(0x00, 0x20)\n      add\n      0x00\n      swap2\n      pop\n      swap1\n      pop\n      sload\n      dup2\n      jump\t// out\n        /* \"contracts/Dex.sol\":3674:4066  function withdraw(uint amount, bytes32 ticker) tokenExist(ticker) external {\r... */\n    tag_62:\n        /* \"contracts/Dex.sol\":3732:3738  ticker */\n      dup1\n        /* \"contracts/Dex.sol\":2248:2249  0 */\n      0x00\n        /* \"contracts/Dex.sol\":2209:2250  tokens[ticker].tokenAddress != address(0) */\n      0xffffffffffffffffffffffffffffffffffffffff\n      and\n        /* \"contracts/Dex.sol\":2209:2215  tokens */\n      0x01\n        /* \"contracts/Dex.sol\":2209:2223  tokens[ticker] */\n      0x00\n        /* \"contracts/Dex.sol\":2216:2222  ticker */\n      dup4\n        /* \"contracts/Dex.sol\":2209:2223  tokens[ticker] */\n      dup2\n      mstore\n      0x20\n      add\n      swap1\n      dup2\n      mstore\n      0x20\n      add\n      0x00\n      keccak256\n        /* \"contracts/Dex.sol\":2209:2236  tokens[ticker].tokenAddress */\n      0x01\n      add\n      0x00\n      swap1\n      sload\n      swap1\n      0x0100\n      exp\n      swap1\n      div\n      0xffffffffffffffffffffffffffffffffffffffff\n      and\n        /* \"contracts/Dex.sol\":2209:2250  tokens[ticker].tokenAddress != address(0) */\n      0xffffffffffffffffffffffffffffffffffffffff\n      and\n      eq\n      iszero\n        /* \"contracts/Dex.sol\":2201:2280  require(tokens[ticker].tokenAddress != address(0), \"This token does not exist\") */\n      tag_216\n      jumpi\n      mload(0x40)\n      0x08c379a000000000000000000000000000000000000000000000000000000000\n      dup2\n      mstore\n      0x04\n      add\n      tag_217\n      swap1\n      tag_90\n      jump\t// in\n    tag_217:\n      mload(0x40)\n      dup1\n      swap2\n      sub\n      swap1\n      revert\n    tag_216:\n        /* \"contracts/Dex.sol\":3806:3812  amount */\n      dup3\n        /* \"contracts/Dex.sol\":3768:3782  traderBalances */\n      0x03\n        /* \"contracts/Dex.sol\":3768:3794  traderBalances[msg.sender] */\n      0x00\n        /* \"contracts/Dex.sol\":3783:3793  msg.sender */\n      caller\n        /* \"contracts/Dex.sol\":3768:3794  traderBalances[msg.sender] */\n      0xffffffffffffffffffffffffffffffffffffffff\n      and\n      0xffffffffffffffffffffffffffffffffffffffff\n      and\n      dup2\n      mstore\n      0x20\n      add\n      swap1\n      dup2\n      mstore\n      0x20\n      add\n      0x00\n      keccak256\n        /* \"contracts/Dex.sol\":3768:3802  traderBalances[msg.sender][ticker] */\n      0x00\n        /* \"contracts/Dex.sol\":3795:3801  ticker */\n      dup5\n        /* \"contracts/Dex.sol\":3768:3802  traderBalances[msg.sender][ticker] */\n      dup2\n      mstore\n      0x20\n      add\n      swap1\n      dup2\n      mstore\n      0x20\n      add\n      0x00\n      keccak256\n      sload\n        /* \"contracts/Dex.sol\":3768:3812  traderBalances[msg.sender][ticker] >= amount */\n      lt\n      iszero\n        /* \"contracts/Dex.sol\":3760:3832  require(traderBalances[msg.sender][ticker] >= amount, \"Balance too low\") */\n      tag_219\n      jumpi\n      mload(0x40)\n      0x08c379a000000000000000000000000000000000000000000000000000000000\n      dup2\n      mstore\n      0x04\n      add\n      tag_220\n      swap1\n      tag_221\n      jump\t// in\n    tag_220:\n      mload(0x40)\n      dup1\n      swap2\n      sub\n      swap1\n      revert\n    tag_219:\n        /* \"contracts/Dex.sol\":3937:3983  traderBalances[msg.sender][ticker].sub(amount) */\n      tag_222\n        /* \"contracts/Dex.sol\":3976:3982  amount */\n      dup4\n        /* \"contracts/Dex.sol\":3937:3951  traderBalances */\n      0x03\n        /* \"contracts/Dex.sol\":3937:3963  traderBalances[msg.sender] */\n      0x00\n        /* \"contracts/Dex.sol\":3952:3962  msg.sender */\n      caller\n        /* \"contracts/Dex.sol\":3937:3963  traderBalances[msg.sender] */\n      0xffffffffffffffffffffffffffffffffffffffff\n      and\n      0xffffffffffffffffffffffffffffffffffffffff\n      and\n      dup2\n      mstore\n      0x20\n      add\n      swap1\n      dup2\n      mstore\n      0x20\n      add\n      0x00\n      keccak256\n        /* \"contracts/Dex.sol\":3937:3971  traderBalances[msg.sender][ticker] */\n      0x00\n        /* \"contracts/Dex.sol\":3964:3970  ticker */\n      dup6\n        /* \"contracts/Dex.sol\":3937:3971  traderBalances[msg.sender][ticker] */\n      dup2\n      mstore\n      0x20\n      add\n      swap1\n      dup2\n      mstore\n      0x20\n      add\n      0x00\n      keccak256\n      sload\n        /* \"contracts/Dex.sol\":3937:3975  traderBalances[msg.sender][ticker].sub */\n      tag_116\n      swap1\n        /* \"contracts/Dex.sol\":3937:3983  traderBalances[msg.sender][ticker].sub(amount) */\n      swap2\n      swap1\n      0xffffffff\n      and\n      jump\t// in\n    tag_222:\n        /* \"contracts/Dex.sol\":3900:3914  traderBalances */\n      0x03\n        /* \"contracts/Dex.sol\":3900:3926  traderBalances[msg.sender] */\n      0x00\n        /* \"contracts/Dex.sol\":3915:3925  msg.sender */\n      caller\n        /* \"contracts/Dex.sol\":3900:3926  traderBalances[msg.sender] */\n      0xffffffffffffffffffffffffffffffffffffffff\n      and\n      0xffffffffffffffffffffffffffffffffffffffff\n      and\n      dup2\n      mstore\n      0x20\n      add\n      swap1\n      dup2\n      mstore\n      0x20\n      add\n      0x00\n      keccak256\n        /* \"contracts/Dex.sol\":3900:3934  traderBalances[msg.sender][ticker] */\n      0x00\n        /* \"contracts/Dex.sol\":3927:3933  ticker */\n      dup5\n        /* \"contracts/Dex.sol\":3900:3934  traderBalances[msg.sender][ticker] */\n      dup2\n      mstore\n      0x20\n      add\n      swap1\n      dup2\n      mstore\n      0x20\n      add\n      0x00\n      keccak256\n        /* \"contracts/Dex.sol\":3900:3983  traderBalances[msg.sender][ticker] = traderBalances[msg.sender][ticker].sub(amount) */\n      dup2\n      swap1\n      sstore\n      pop\n        /* \"contracts/Dex.sol\":4001:4007  tokens */\n      0x01\n        /* \"contracts/Dex.sol\":4001:4015  tokens[ticker] */\n      0x00\n        /* \"contracts/Dex.sol\":4008:4014  ticker */\n      dup4\n        /* \"contracts/Dex.sol\":4001:4015  tokens[ticker] */\n      dup2\n      mstore\n      0x20\n      add\n      swap1\n      dup2\n      mstore\n      0x20\n      add\n      0x00\n      keccak256\n        /* \"contracts/Dex.sol\":4001:4028  tokens[ticker].tokenAddress */\n      0x01\n      add\n      0x00\n      swap1\n      sload\n      swap1\n      0x0100\n      exp\n      swap1\n      div\n      0xffffffffffffffffffffffffffffffffffffffff\n      and\n        /* \"contracts/Dex.sol\":3994:4038  IERC20(tokens[ticker].tokenAddress).transfer */\n      0xffffffffffffffffffffffffffffffffffffffff\n      and\n      0xa9059cbb\n        /* \"contracts/Dex.sol\":4039:4049  msg.sender */\n      caller\n        /* \"contracts/Dex.sol\":4051:4057  amount */\n      dup6\n        /* \"contracts/Dex.sol\":3994:4058  IERC20(tokens[ticker].tokenAddress).transfer(msg.sender, amount) */\n      mload(0x40)\n      dup4\n      0xffffffff\n      and\n      0xe0\n      shl\n      dup2\n      mstore\n      0x04\n      add\n      tag_223\n      swap3\n      swap2\n      swap1\n      tag_224\n      jump\t// in\n    tag_223:\n      0x20\n      mload(0x40)\n      dup1\n      dup4\n      sub\n      dup2\n      0x00\n      dup8\n      dup1\n      extcodesize\n      iszero\n      dup1\n      iszero\n      tag_225\n      jumpi\n      0x00\n      dup1\n      revert\n    tag_225:\n      pop\n      gas\n      call\n      iszero\n      dup1\n      iszero\n      tag_227\n      jumpi\n      returndatasize\n      0x00\n      dup1\n      returndatacopy\n      revert(0x00, returndatasize)\n    tag_227:\n      pop\n      pop\n      pop\n      pop\n      mload(0x40)\n      returndatasize\n      not(0x1f)\n      0x1f\n      dup3\n      add\n      and\n      dup3\n      add\n      dup1\n      0x40\n      mstore\n      pop\n      dup2\n      add\n      swap1\n      tag_228\n      swap2\n      swap1\n      tag_229\n      jump\t// in\n    tag_228:\n      pop\n        /* \"contracts/Dex.sol\":3674:4066  function withdraw(uint amount, bytes32 ticker) tokenExist(ticker) external {\r... */\n      pop\n      pop\n      pop\n      jump\t// out\n        /* \"contracts/Dex.sol\":2635:3117  function getTokens() external view returns (Token[] memory) {\r... */\n    tag_64:\n        /* \"contracts/Dex.sol\":2679:2693  Token[] memory */\n      0x60\n        /* \"contracts/Dex.sol\":2706:2728  Token[] memory _tokens */\n      0x00\n        /* \"contracts/Dex.sol\":2743:2752  tokenList */\n      0x02\n        /* \"contracts/Dex.sol\":2743:2759  tokenList.length */\n      dup1\n      sload\n      swap1\n      pop\n        /* \"contracts/Dex.sol\":2731:2760  new Token[](tokenList.length) */\n      0xffffffffffffffff\n      dup2\n      gt\n      iszero\n      tag_231\n      jumpi\n      mstore(0x00, 0x4e487b7100000000000000000000000000000000000000000000000000000000)\n      mstore(0x04, 0x41)\n      revert(0x00, 0x24)\n    tag_231:\n      mload(0x40)\n      swap1\n      dup1\n      dup3\n      mstore\n      dup1\n      0x20\n      mul\n      0x20\n      add\n      dup3\n      add\n      0x40\n      mstore\n      dup1\n      iszero\n      tag_232\n      jumpi\n      dup2\n      0x20\n      add\n    tag_233:\n      tag_234\n      tag_235\n      jump\t// in\n    tag_234:\n      dup2\n      mstore\n      0x20\n      add\n      swap1\n      0x01\n      swap1\n      sub\n      swap1\n      dup2\n      tag_233\n      jumpi\n      swap1\n      pop\n    tag_232:\n      pop\n        /* \"contracts/Dex.sol\":2706:2760  Token[] memory _tokens = new Token[](tokenList.length) */\n      swap1\n      pop\n        /* \"contracts/Dex.sol\":2778:2784  uint i */\n      0x00\n        /* \"contracts/Dex.sol\":2773:3083  for (uint i = 0; i < tokenList.length; i++) {\r... */\n    tag_236:\n        /* \"contracts/Dex.sol\":2794:2803  tokenList */\n      0x02\n        /* \"contracts/Dex.sol\":2794:2810  tokenList.length */\n      dup1\n      sload\n      swap1\n      pop\n        /* \"contracts/Dex.sol\":2790:2791  i */\n      dup2\n        /* \"contracts/Dex.sol\":2790:2810  i < tokenList.length */\n      lt\n        /* \"contracts/Dex.sol\":2773:3083  for (uint i = 0; i < tokenList.length; i++) {\r... */\n      iszero\n      tag_237\n      jumpi\n        /* \"contracts/Dex.sol\":2953:3071  Token(\r... */\n      mload(0x40)\n      dup1\n      0x40\n      add\n      0x40\n      mstore\n      dup1\n        /* \"contracts/Dex.sol\":2977:2983  tokens */\n      0x01\n        /* \"contracts/Dex.sol\":2977:2997  tokens[tokenList[i]] */\n      0x00\n        /* \"contracts/Dex.sol\":2984:2993  tokenList */\n      0x02\n        /* \"contracts/Dex.sol\":2994:2995  i */\n      dup6\n        /* \"contracts/Dex.sol\":2984:2996  tokenList[i] */\n      dup2\n      sload\n      dup2\n      lt\n      tag_239\n      jumpi\n      mstore(0x00, 0x4e487b7100000000000000000000000000000000000000000000000000000000)\n      mstore(0x04, 0x32)\n      revert(0x00, 0x24)\n    tag_239:\n      swap1\n      0x00\n      mstore\n      keccak256(0x00, 0x20)\n      add\n      sload\n        /* \"contracts/Dex.sol\":2977:2997  tokens[tokenList[i]] */\n      dup2\n      mstore\n      0x20\n      add\n      swap1\n      dup2\n      mstore\n      0x20\n      add\n      0x00\n      keccak256\n        /* \"contracts/Dex.sol\":2977:3004  tokens[tokenList[i]].ticker */\n      0x00\n      add\n      sload\n        /* \"contracts/Dex.sol\":2953:3071  Token(\r... */\n      dup2\n      mstore\n      0x20\n      add\n        /* \"contracts/Dex.sol\":3023:3029  tokens */\n      0x01\n        /* \"contracts/Dex.sol\":3023:3043  tokens[tokenList[i]] */\n      0x00\n        /* \"contracts/Dex.sol\":3030:3039  tokenList */\n      0x02\n        /* \"contracts/Dex.sol\":3040:3041  i */\n      dup6\n        /* \"contracts/Dex.sol\":3030:3042  tokenList[i] */\n      dup2\n      sload\n      dup2\n      lt\n      tag_241\n      jumpi\n      mstore(0x00, 0x4e487b7100000000000000000000000000000000000000000000000000000000)\n      mstore(0x04, 0x32)\n      revert(0x00, 0x24)\n    tag_241:\n      swap1\n      0x00\n      mstore\n      keccak256(0x00, 0x20)\n      add\n      sload\n        /* \"contracts/Dex.sol\":3023:3043  tokens[tokenList[i]] */\n      dup2\n      mstore\n      0x20\n      add\n      swap1\n      dup2\n      mstore\n      0x20\n      add\n      0x00\n      keccak256\n        /* \"contracts/Dex.sol\":3023:3056  tokens[tokenList[i]].tokenAddress */\n      0x01\n      add\n      0x00\n      swap1\n      sload\n      swap1\n      0x0100\n      exp\n      swap1\n      div\n      0xffffffffffffffffffffffffffffffffffffffff\n      and\n        /* \"contracts/Dex.sol\":2953:3071  Token(\r... */\n      0xffffffffffffffffffffffffffffffffffffffff\n      and\n      dup2\n      mstore\n      pop\n        /* \"contracts/Dex.sol\":2940:2947  _tokens */\n      dup3\n        /* \"contracts/Dex.sol\":2948:2949  i */\n      dup3\n        /* \"contracts/Dex.sol\":2940:2950  _tokens[i] */\n      dup2\n      mload\n      dup2\n      lt\n      tag_243\n      jumpi\n      mstore(0x00, 0x4e487b7100000000000000000000000000000000000000000000000000000000)\n      mstore(0x04, 0x32)\n      revert(0x00, 0x24)\n    tag_243:\n      0x20\n      mul\n      0x20\n      add\n      add\n        /* \"contracts/Dex.sol\":2940:3071  _tokens[i] = Token(\r... */\n      dup2\n      swap1\n      mstore\n      pop\n        /* \"contracts/Dex.sol\":2812:2815  i++ */\n      dup1\n      dup1\n      tag_244\n      swap1\n      tag_203\n      jump\t// in\n    tag_244:\n      swap2\n      pop\n      pop\n        /* \"contracts/Dex.sol\":2773:3083  for (uint i = 0; i < tokenList.length; i++) {\r... */\n      jump(tag_236)\n    tag_237:\n      pop\n        /* \"contracts/Dex.sol\":3102:3109  _tokens */\n      dup1\n        /* \"contracts/Dex.sol\":3095:3109  return _tokens */\n      swap2\n      pop\n      pop\n        /* \"contracts/Dex.sol\":2635:3117  function getTokens() external view returns (Token[] memory) {\r... */\n      swap1\n      jump\t// out\n        /* \"contracts/Dex.sol\":3151:3666  function deposit(uint amount, bytes32 ticker) tokenExist(ticker) external {\r... */\n    tag_69:\n        /* \"contracts/Dex.sol\":3208:3214  ticker */\n      dup1\n        /* \"contracts/Dex.sol\":2248:2249  0 */\n      0x00\n        /* \"contracts/Dex.sol\":2209:2250  tokens[ticker].tokenAddress != address(0) */\n      0xffffffffffffffffffffffffffffffffffffffff\n      and\n        /* \"contracts/Dex.sol\":2209:2215  tokens */\n      0x01\n        /* \"contracts/Dex.sol\":2209:2223  tokens[ticker] */\n      0x00\n        /* \"contracts/Dex.sol\":2216:2222  ticker */\n      dup4\n        /* \"contracts/Dex.sol\":2209:2223  tokens[ticker] */\n      dup2\n      mstore\n      0x20\n      add\n      swap1\n      dup2\n      mstore\n      0x20\n      add\n      0x00\n      keccak256\n        /* \"contracts/Dex.sol\":2209:2236  tokens[ticker].tokenAddress */\n      0x01\n      add\n      0x00\n      swap1\n      sload\n      swap1\n      0x0100\n      exp\n      swap1\n      div\n      0xffffffffffffffffffffffffffffffffffffffff\n      and\n        /* \"contracts/Dex.sol\":2209:2250  tokens[ticker].tokenAddress != address(0) */\n      0xffffffffffffffffffffffffffffffffffffffff\n      and\n      eq\n      iszero\n        /* \"contracts/Dex.sol\":2201:2280  require(tokens[ticker].tokenAddress != address(0), \"This token does not exist\") */\n      tag_246\n      jumpi\n      mload(0x40)\n      0x08c379a000000000000000000000000000000000000000000000000000000000\n      dup2\n      mstore\n      0x04\n      add\n      tag_247\n      swap1\n      tag_90\n      jump\t// in\n    tag_247:\n      mload(0x40)\n      dup1\n      swap2\n      sub\n      swap1\n      revert\n    tag_246:\n        /* \"contracts/Dex.sol\":3431:3437  tokens */\n      0x01\n        /* \"contracts/Dex.sol\":3431:3445  tokens[ticker] */\n      0x00\n        /* \"contracts/Dex.sol\":3438:3444  ticker */\n      dup4\n        /* \"contracts/Dex.sol\":3431:3445  tokens[ticker] */\n      dup2\n      mstore\n      0x20\n      add\n      swap1\n      dup2\n      mstore\n      0x20\n      add\n      0x00\n      keccak256\n        /* \"contracts/Dex.sol\":3431:3458  tokens[ticker].tokenAddress */\n      0x01\n      add\n      0x00\n      swap1\n      sload\n      swap1\n      0x0100\n      exp\n      swap1\n      div\n      0xffffffffffffffffffffffffffffffffffffffff\n      and\n        /* \"contracts/Dex.sol\":3424:3472  IERC20(tokens[ticker].tokenAddress).transferFrom */\n      0xffffffffffffffffffffffffffffffffffffffff\n      and\n      0x23b872dd\n        /* \"contracts/Dex.sol\":3473:3483  msg.sender */\n      caller\n        /* \"contracts/Dex.sol\":3493:3497  this */\n      address\n        /* \"contracts/Dex.sol\":3500:3506  amount */\n      dup7\n        /* \"contracts/Dex.sol\":3424:3507  IERC20(tokens[ticker].tokenAddress).transferFrom(msg.sender, address(this), amount) */\n      mload(0x40)\n      dup5\n      0xffffffff\n      and\n      0xe0\n      shl\n      dup2\n      mstore\n      0x04\n      add\n      tag_249\n      swap4\n      swap3\n      swap2\n      swap1\n      tag_250\n      jump\t// in\n    tag_249:\n      0x20\n      mload(0x40)\n      dup1\n      dup4\n      sub\n      dup2\n      0x00\n      dup8\n      dup1\n      extcodesize\n      iszero\n      dup1\n      iszero\n      tag_251\n      jumpi\n      0x00\n      dup1\n      revert\n    tag_251:\n      pop\n      gas\n      call\n      iszero\n      dup1\n      iszero\n      tag_253\n      jumpi\n      returndatasize\n      0x00\n      dup1\n      returndatacopy\n      revert(0x00, returndatasize)\n    tag_253:\n      pop\n      pop\n      pop\n      pop\n      mload(0x40)\n      returndatasize\n      not(0x1f)\n      0x1f\n      dup3\n      add\n      and\n      dup3\n      add\n      dup1\n      0x40\n      mstore\n      pop\n      dup2\n      add\n      swap1\n      tag_254\n      swap2\n      swap1\n      tag_229\n      jump\t// in\n    tag_254:\n      pop\n        /* \"contracts/Dex.sol\":3612:3658  traderBalances[msg.sender][ticker].add(amount) */\n      tag_255\n        /* \"contracts/Dex.sol\":3651:3657  amount */\n      dup4\n        /* \"contracts/Dex.sol\":3612:3626  traderBalances */\n      0x03\n        /* \"contracts/Dex.sol\":3612:3638  traderBalances[msg.sender] */\n      0x00\n        /* \"contracts/Dex.sol\":3627:3637  msg.sender */\n      caller\n        /* \"contracts/Dex.sol\":3612:3638  traderBalances[msg.sender] */\n      0xffffffffffffffffffffffffffffffffffffffff\n      and\n      0xffffffffffffffffffffffffffffffffffffffff\n      and\n      dup2\n      mstore\n      0x20\n      add\n      swap1\n      dup2\n      mstore\n      0x20\n      add\n      0x00\n      keccak256\n        /* \"contracts/Dex.sol\":3612:3646  traderBalances[msg.sender][ticker] */\n      0x00\n        /* \"contracts/Dex.sol\":3639:3645  ticker */\n      dup6\n        /* \"contracts/Dex.sol\":3612:3646  traderBalances[msg.sender][ticker] */\n      dup2\n      mstore\n      0x20\n      add\n      swap1\n      dup2\n      mstore\n      0x20\n      add\n      0x00\n      keccak256\n      sload\n        /* \"contracts/Dex.sol\":3612:3650  traderBalances[msg.sender][ticker].add */\n      tag_123\n      swap1\n        /* \"contracts/Dex.sol\":3612:3658  traderBalances[msg.sender][ticker].add(amount) */\n      swap2\n      swap1\n      0xffffffff\n      and\n      jump\t// in\n    tag_255:\n        /* \"contracts/Dex.sol\":3575:3589  traderBalances */\n      0x03\n        /* \"contracts/Dex.sol\":3575:3601  traderBalances[msg.sender] */\n      0x00\n        /* \"contracts/Dex.sol\":3590:3600  msg.sender */\n      caller\n        /* \"contracts/Dex.sol\":3575:3601  traderBalances[msg.sender] */\n      0xffffffffffffffffffffffffffffffffffffffff\n      and\n      0xffffffffffffffffffffffffffffffffffffffff\n      and\n      dup2\n      mstore\n      0x20\n      add\n      swap1\n      dup2\n      mstore\n      0x20\n      add\n      0x00\n      keccak256\n        /* \"contracts/Dex.sol\":3575:3609  traderBalances[msg.sender][ticker] */\n      0x00\n        /* \"contracts/Dex.sol\":3602:3608  ticker */\n      dup5\n        /* \"contracts/Dex.sol\":3575:3609  traderBalances[msg.sender][ticker] */\n      dup2\n      mstore\n      0x20\n      add\n      swap1\n      dup2\n      mstore\n      0x20\n      add\n      0x00\n      keccak256\n        /* \"contracts/Dex.sol\":3575:3658  traderBalances[msg.sender][ticker] = traderBalances[msg.sender][ticker].add(amount) */\n      dup2\n      swap1\n      sstore\n      pop\n        /* \"contracts/Dex.sol\":3151:3666  function deposit(uint amount, bytes32 ticker) tokenExist(ticker) external {\r... */\n      pop\n      pop\n      pop\n      jump\t// out\n        /* \"contracts/Dex.sol\":4105:5913  function createLimitOrder(bytes32 ticker, uint amount, uint price, Side side) tokenExist(ticker) tokenIsNotDAI(ticker) external {\r... */\n    tag_73:\n        /* \"contracts/Dex.sol\":4194:4200  ticker */\n      dup4\n        /* \"contracts/Dex.sol\":2248:2249  0 */\n      0x00\n        /* \"contracts/Dex.sol\":2209:2250  tokens[ticker].tokenAddress != address(0) */\n      0xffffffffffffffffffffffffffffffffffffffff\n      and\n        /* \"contracts/Dex.sol\":2209:2215  tokens */\n      0x01\n        /* \"contracts/Dex.sol\":2209:2223  tokens[ticker] */\n      0x00\n        /* \"contracts/Dex.sol\":2216:2222  ticker */\n      dup4\n        /* \"contracts/Dex.sol\":2209:2223  tokens[ticker] */\n      dup2\n      mstore\n      0x20\n      add\n      swap1\n      dup2\n      mstore\n      0x20\n      add\n      0x00\n      keccak256\n        /* \"contracts/Dex.sol\":2209:2236  tokens[ticker].tokenAddress */\n      0x01\n      add\n      0x00\n      swap1\n      sload\n      swap1\n      0x0100\n      exp\n      swap1\n      div\n      0xffffffffffffffffffffffffffffffffffffffff\n      and\n        /* \"contracts/Dex.sol\":2209:2250  tokens[ticker].tokenAddress != address(0) */\n      0xffffffffffffffffffffffffffffffffffffffff\n      and\n      eq\n      iszero\n        /* \"contracts/Dex.sol\":2201:2280  require(tokens[ticker].tokenAddress != address(0), \"This token does not exist\") */\n      tag_257\n      jumpi\n      mload(0x40)\n      0x08c379a000000000000000000000000000000000000000000000000000000000\n      dup2\n      mstore\n      0x04\n      add\n      tag_258\n      swap1\n      tag_90\n      jump\t// in\n    tag_258:\n      mload(0x40)\n      dup1\n      swap2\n      sub\n      swap1\n      revert\n    tag_257:\n        /* \"contracts/Dex.sol\":4216:4222  ticker */\n      dup5\n        /* \"contracts/Dex.sol\":553:567  bytes32(\"DAI\") */\n      0x4441490000000000000000000000000000000000000000000000000000000000\n        /* \"contracts/Dex.sol\":2367:2373  ticker */\n      dup2\n        /* \"contracts/Dex.sol\":2367:2380  ticker != DAI */\n      eq\n      iszero\n        /* \"contracts/Dex.sol\":2359:2401  require(ticker != DAI, \"Cannot trade DAI\") */\n      tag_260\n      jumpi\n      mload(0x40)\n      0x08c379a000000000000000000000000000000000000000000000000000000000\n      dup2\n      mstore\n      0x04\n      add\n      tag_261\n      swap1\n      tag_94\n      jump\t// in\n    tag_261:\n      mload(0x40)\n      dup1\n      swap2\n      sub\n      swap1\n      revert\n    tag_260:\n        /* \"contracts/Dex.sol\":4381:4390  Side.SELL */\n      0x01\n        /* \"contracts/Dex.sol\":4373:4390  side == Side.SELL */\n      dup1\n      dup2\n      gt\n      iszero\n      tag_263\n      jumpi\n      mstore(0x00, 0x4e487b7100000000000000000000000000000000000000000000000000000000)\n      mstore(0x04, 0x21)\n      revert(0x00, 0x24)\n    tag_263:\n        /* \"contracts/Dex.sol\":4373:4377  side */\n      dup4\n        /* \"contracts/Dex.sol\":4373:4390  side == Side.SELL */\n      0x01\n      dup2\n      gt\n      iszero\n      tag_264\n      jumpi\n      mstore(0x00, 0x4e487b7100000000000000000000000000000000000000000000000000000000)\n      mstore(0x04, 0x21)\n      revert(0x00, 0x24)\n    tag_264:\n      eq\n        /* \"contracts/Dex.sol\":4369:4684  if (side == Side.SELL) {\r... */\n      iszero\n      tag_265\n      jumpi\n        /* \"contracts/Dex.sol\":4453:4459  amount */\n      dup5\n        /* \"contracts/Dex.sol\":4415:4429  traderBalances */\n      0x03\n        /* \"contracts/Dex.sol\":4415:4441  traderBalances[msg.sender] */\n      0x00\n        /* \"contracts/Dex.sol\":4430:4440  msg.sender */\n      caller\n        /* \"contracts/Dex.sol\":4415:4441  traderBalances[msg.sender] */\n      0xffffffffffffffffffffffffffffffffffffffff\n      and\n      0xffffffffffffffffffffffffffffffffffffffff\n      and\n      dup2\n      mstore\n      0x20\n      add\n      swap1\n      dup2\n      mstore\n      0x20\n      add\n      0x00\n      keccak256\n        /* \"contracts/Dex.sol\":4415:4449  traderBalances[msg.sender][ticker] */\n      0x00\n        /* \"contracts/Dex.sol\":4442:4448  ticker */\n      dup9\n        /* \"contracts/Dex.sol\":4415:4449  traderBalances[msg.sender][ticker] */\n      dup2\n      mstore\n      0x20\n      add\n      swap1\n      dup2\n      mstore\n      0x20\n      add\n      0x00\n      keccak256\n      sload\n        /* \"contracts/Dex.sol\":4415:4459  traderBalances[msg.sender][ticker] >= amount */\n      lt\n      iszero\n        /* \"contracts/Dex.sol\":4407:4485  require(traderBalances[msg.sender][ticker] >= amount, \"Token balance too low\") */\n      tag_266\n      jumpi\n      mload(0x40)\n      0x08c379a000000000000000000000000000000000000000000000000000000000\n      dup2\n      mstore\n      0x04\n      add\n      tag_267\n      swap1\n      tag_101\n      jump\t// in\n    tag_267:\n      mload(0x40)\n      dup1\n      swap2\n      sub\n      swap1\n      revert\n    tag_266:\n        /* \"contracts/Dex.sol\":4369:4684  if (side == Side.SELL) {\r... */\n      jump(tag_268)\n    tag_265:\n        /* \"contracts/Dex.sol\":4631:4648  amount.mul(price) */\n      tag_269\n        /* \"contracts/Dex.sol\":4642:4647  price */\n      dup5\n        /* \"contracts/Dex.sol\":4631:4637  amount */\n      dup7\n        /* \"contracts/Dex.sol\":4631:4641  amount.mul */\n      tag_142\n      swap1\n        /* \"contracts/Dex.sol\":4631:4648  amount.mul(price) */\n      swap2\n      swap1\n      0xffffffff\n      and\n      jump\t// in\n    tag_269:\n        /* \"contracts/Dex.sol\":4596:4610  traderBalances */\n      0x03\n        /* \"contracts/Dex.sol\":4596:4622  traderBalances[msg.sender] */\n      0x00\n        /* \"contracts/Dex.sol\":4611:4621  msg.sender */\n      caller\n        /* \"contracts/Dex.sol\":4596:4622  traderBalances[msg.sender] */\n      0xffffffffffffffffffffffffffffffffffffffff\n      and\n      0xffffffffffffffffffffffffffffffffffffffff\n      and\n      dup2\n      mstore\n      0x20\n      add\n      swap1\n      dup2\n      mstore\n      0x20\n      add\n      0x00\n      keccak256\n        /* \"contracts/Dex.sol\":4596:4627  traderBalances[msg.sender][DAI] */\n      0x00\n        /* \"contracts/Dex.sol\":553:567  bytes32(\"DAI\") */\n      0x4441490000000000000000000000000000000000000000000000000000000000\n        /* \"contracts/Dex.sol\":4596:4627  traderBalances[msg.sender][DAI] */\n      dup2\n      mstore\n      0x20\n      add\n      swap1\n      dup2\n      mstore\n      0x20\n      add\n      0x00\n      keccak256\n      sload\n        /* \"contracts/Dex.sol\":4596:4648  traderBalances[msg.sender][DAI] >= amount.mul(price) */\n      lt\n      iszero\n        /* \"contracts/Dex.sol\":4588:4672  require(traderBalances[msg.sender][DAI] >= amount.mul(price), \"DAI balance too low\") */\n      tag_270\n      jumpi\n      mload(0x40)\n      0x08c379a000000000000000000000000000000000000000000000000000000000\n      dup2\n      mstore\n      0x04\n      add\n      tag_271\n      swap1\n      tag_162\n      jump\t// in\n    tag_271:\n      mload(0x40)\n      dup1\n      swap2\n      sub\n      swap1\n      revert\n    tag_270:\n        /* \"contracts/Dex.sol\":4369:4684  if (side == Side.SELL) {\r... */\n    tag_268:\n        /* \"contracts/Dex.sol\":4696:4718  Order[] storage orders */\n      0x00\n        /* \"contracts/Dex.sol\":4721:4730  orderBook */\n      0x04\n        /* \"contracts/Dex.sol\":4721:4738  orderBook[ticker] */\n      0x00\n        /* \"contracts/Dex.sol\":4731:4737  ticker */\n      dup9\n        /* \"contracts/Dex.sol\":4721:4738  orderBook[ticker] */\n      dup2\n      mstore\n      0x20\n      add\n      swap1\n      dup2\n      mstore\n      0x20\n      add\n      0x00\n      keccak256\n        /* \"contracts/Dex.sol\":4721:4750  orderBook[ticker][uint(side)] */\n      0x00\n        /* \"contracts/Dex.sol\":4744:4748  side */\n      dup6\n        /* \"contracts/Dex.sol\":4739:4749  uint(side) */\n      0x01\n      dup2\n      gt\n      iszero\n      tag_272\n      jumpi\n      mstore(0x00, 0x4e487b7100000000000000000000000000000000000000000000000000000000)\n      mstore(0x04, 0x21)\n      revert(0x00, 0x24)\n    tag_272:\n        /* \"contracts/Dex.sol\":4721:4750  orderBook[ticker][uint(side)] */\n      dup2\n      mstore\n      0x20\n      add\n      swap1\n      dup2\n      mstore\n      0x20\n      add\n      0x00\n      keccak256\n        /* \"contracts/Dex.sol\":4696:4750  Order[] storage orders = orderBook[ticker][uint(side)] */\n      swap1\n      pop\n        /* \"contracts/Dex.sol\":4761:4767  orders */\n      dup1\n        /* \"contracts/Dex.sol\":4773:4967  Order(\r... */\n      mload(0x40)\n      dup1\n      0x0100\n      add\n      0x40\n      mstore\n      dup1\n        /* \"contracts/Dex.sol\":4793:4804  nextOrderId */\n      sload(0x05)\n        /* \"contracts/Dex.sol\":4773:4967  Order(\r... */\n      dup2\n      mstore\n      0x20\n      add\n        /* \"contracts/Dex.sol\":4819:4829  msg.sender */\n      caller\n        /* \"contracts/Dex.sol\":4773:4967  Order(\r... */\n      0xffffffffffffffffffffffffffffffffffffffff\n      and\n      dup2\n      mstore\n      0x20\n      add\n        /* \"contracts/Dex.sol\":4844:4848  side */\n      dup7\n        /* \"contracts/Dex.sol\":4773:4967  Order(\r... */\n      0x01\n      dup2\n      gt\n      iszero\n      tag_273\n      jumpi\n      mstore(0x00, 0x4e487b7100000000000000000000000000000000000000000000000000000000)\n      mstore(0x04, 0x21)\n      revert(0x00, 0x24)\n    tag_273:\n      dup2\n      mstore\n      0x20\n      add\n        /* \"contracts/Dex.sol\":4863:4869  ticker */\n      dup10\n        /* \"contracts/Dex.sol\":4773:4967  Order(\r... */\n      dup2\n      mstore\n      0x20\n      add\n        /* \"contracts/Dex.sol\":4884:4890  amount */\n      dup9\n        /* \"contracts/Dex.sol\":4773:4967  Order(\r... */\n      dup2\n      mstore\n      0x20\n      add\n        /* \"contracts/Dex.sol\":4905:4906  0 */\n      0x00\n        /* \"contracts/Dex.sol\":4773:4967  Order(\r... */\n      dup2\n      mstore\n      0x20\n      add\n        /* \"contracts/Dex.sol\":4921:4926  price */\n      dup8\n        /* \"contracts/Dex.sol\":4773:4967  Order(\r... */\n      dup2\n      mstore\n      0x20\n      add\n        /* \"contracts/Dex.sol\":4941:4956  block.timestamp */\n      timestamp\n        /* \"contracts/Dex.sol\":4773:4967  Order(\r... */\n      dup2\n      mstore\n      pop\n        /* \"contracts/Dex.sol\":4761:4968  orders.push(Order(\r... */\n      swap1\n      dup1\n      0x01\n      dup2\n      sload\n      add\n      dup1\n      dup3\n      sstore\n      dup1\n      swap2\n      pop\n      pop\n      0x01\n      swap1\n      sub\n      swap1\n      0x00\n      mstore\n      keccak256(0x00, 0x20)\n      swap1\n      0x07\n      mul\n      add\n      0x00\n      swap1\n      swap2\n      swap1\n      swap2\n      swap1\n      swap2\n      pop\n      0x00\n      dup3\n      add\n      mload\n      dup2\n      0x00\n      add\n      sstore\n      0x20\n      dup3\n      add\n      mload\n      dup2\n      0x01\n      add\n      exp(0x0100, 0x00)\n      dup2\n      sload\n      dup2\n      0xffffffffffffffffffffffffffffffffffffffff\n      mul\n      not\n      and\n      swap1\n      dup4\n      0xffffffffffffffffffffffffffffffffffffffff\n      and\n      mul\n      or\n      swap1\n      sstore\n      pop\n      0x40\n      dup3\n      add\n      mload\n      dup2\n      0x01\n      add\n      exp(0x0100, 0x14)\n      dup2\n      sload\n      dup2\n      0xff\n      mul\n      not\n      and\n      swap1\n      dup4\n      0x01\n      dup2\n      gt\n      iszero\n      tag_275\n      jumpi\n      mstore(0x00, 0x4e487b7100000000000000000000000000000000000000000000000000000000)\n      mstore(0x04, 0x21)\n      revert(0x00, 0x24)\n    tag_275:\n      mul\n      or\n      swap1\n      sstore\n      pop\n      0x60\n      dup3\n      add\n      mload\n      dup2\n      0x02\n      add\n      sstore\n      0x80\n      dup3\n      add\n      mload\n      dup2\n      0x03\n      add\n      sstore\n      0xa0\n      dup3\n      add\n      mload\n      dup2\n      0x04\n      add\n      sstore\n      0xc0\n      dup3\n      add\n      mload\n      dup2\n      0x05\n      add\n      sstore\n      0xe0\n      dup3\n      add\n      mload\n      dup2\n      0x06\n      add\n      sstore\n      pop\n      pop\n        /* \"contracts/Dex.sol\":5054:5060  uint i */\n      0x00\n        /* \"contracts/Dex.sol\":5079:5080  0 */\n      dup1\n        /* \"contracts/Dex.sol\":5063:5069  orders */\n      dup3\n        /* \"contracts/Dex.sol\":5063:5076  orders.length */\n      dup1\n      sload\n      swap1\n      pop\n        /* \"contracts/Dex.sol\":5063:5080  orders.length > 0 */\n      gt\n        /* \"contracts/Dex.sol\":5063:5104  orders.length > 0 ? orders.length - 1 : 0 */\n      tag_276\n      jumpi\n        /* \"contracts/Dex.sol\":5103:5104  0 */\n      0x00\n        /* \"contracts/Dex.sol\":5063:5104  orders.length > 0 ? orders.length - 1 : 0 */\n      jump(tag_277)\n    tag_276:\n        /* \"contracts/Dex.sol\":5099:5100  1 */\n      0x01\n        /* \"contracts/Dex.sol\":5083:5089  orders */\n      dup3\n        /* \"contracts/Dex.sol\":5083:5096  orders.length */\n      dup1\n      sload\n      swap1\n      pop\n        /* \"contracts/Dex.sol\":5083:5100  orders.length - 1 */\n      tag_278\n      swap2\n      swap1\n      tag_194\n      jump\t// in\n    tag_278:\n        /* \"contracts/Dex.sol\":5063:5104  orders.length > 0 ? orders.length - 1 : 0 */\n    tag_277:\n        /* \"contracts/Dex.sol\":5054:5104  uint i = orders.length > 0 ? orders.length - 1 : 0 */\n      swap1\n      pop\n        /* \"contracts/Dex.sol\":5115:5806  while(i > 0) {\r... */\n    tag_279:\n        /* \"contracts/Dex.sol\":5125:5126  0 */\n      0x00\n        /* \"contracts/Dex.sol\":5121:5122  i */\n      dup2\n        /* \"contracts/Dex.sol\":5121:5126  i > 0 */\n      gt\n        /* \"contracts/Dex.sol\":5115:5806  while(i > 0) {\r... */\n      iszero\n      tag_280\n      jumpi\n        /* \"contracts/Dex.sol\":5155:5163  Side.BUY */\n      0x00\n        /* \"contracts/Dex.sol\":5147:5163  side == Side.BUY */\n      0x01\n      dup2\n      gt\n      iszero\n      tag_281\n      jumpi\n      mstore(0x00, 0x4e487b7100000000000000000000000000000000000000000000000000000000)\n      mstore(0x04, 0x21)\n      revert(0x00, 0x24)\n    tag_281:\n        /* \"contracts/Dex.sol\":5147:5151  side */\n      dup6\n        /* \"contracts/Dex.sol\":5147:5163  side == Side.BUY */\n      0x01\n      dup2\n      gt\n      iszero\n      tag_282\n      jumpi\n      mstore(0x00, 0x4e487b7100000000000000000000000000000000000000000000000000000000)\n      mstore(0x04, 0x21)\n      revert(0x00, 0x24)\n    tag_282:\n      eq\n        /* \"contracts/Dex.sol\":5147:5204  side == Side.BUY && orders[i - 1].price > orders[i].price */\n      dup1\n      iszero\n      tag_283\n      jumpi\n      pop\n        /* \"contracts/Dex.sol\":5189:5195  orders */\n      dup2\n        /* \"contracts/Dex.sol\":5196:5197  i */\n      dup2\n        /* \"contracts/Dex.sol\":5189:5198  orders[i] */\n      dup2\n      sload\n      dup2\n      lt\n      tag_284\n      jumpi\n      mstore(0x00, 0x4e487b7100000000000000000000000000000000000000000000000000000000)\n      mstore(0x04, 0x32)\n      revert(0x00, 0x24)\n    tag_284:\n      swap1\n      0x00\n      mstore\n      keccak256(0x00, 0x20)\n      swap1\n      0x07\n      mul\n      add\n        /* \"contracts/Dex.sol\":5189:5204  orders[i].price */\n      0x05\n      add\n      sload\n        /* \"contracts/Dex.sol\":5167:5173  orders */\n      dup3\n        /* \"contracts/Dex.sol\":5178:5179  1 */\n      0x01\n        /* \"contracts/Dex.sol\":5174:5175  i */\n      dup4\n        /* \"contracts/Dex.sol\":5174:5179  i - 1 */\n      tag_286\n      swap2\n      swap1\n      tag_194\n      jump\t// in\n    tag_286:\n        /* \"contracts/Dex.sol\":5167:5180  orders[i - 1] */\n      dup2\n      sload\n      dup2\n      lt\n      tag_287\n      jumpi\n      mstore(0x00, 0x4e487b7100000000000000000000000000000000000000000000000000000000)\n      mstore(0x04, 0x32)\n      revert(0x00, 0x24)\n    tag_287:\n      swap1\n      0x00\n      mstore\n      keccak256(0x00, 0x20)\n      swap1\n      0x07\n      mul\n      add\n        /* \"contracts/Dex.sol\":5167:5186  orders[i - 1].price */\n      0x05\n      add\n      sload\n        /* \"contracts/Dex.sol\":5167:5204  orders[i - 1].price > orders[i].price */\n      gt\n        /* \"contracts/Dex.sol\":5147:5204  side == Side.BUY && orders[i - 1].price > orders[i].price */\n    tag_283:\n        /* \"contracts/Dex.sol\":5143:5311  if (side == Side.BUY && orders[i - 1].price > orders[i].price) { // For the sell orders we have to order from lower to lowe price\r... */\n      iszero\n      tag_289\n      jumpi\n        /* \"contracts/Dex.sol\":5290:5295  break */\n      jump(tag_280)\n        /* \"contracts/Dex.sol\":5143:5311  if (side == Side.BUY && orders[i - 1].price > orders[i].price) { // For the sell orders we have to order from lower to lowe price\r... */\n    tag_289:\n        /* \"contracts/Dex.sol\":5337:5346  Side.SELL */\n      0x01\n        /* \"contracts/Dex.sol\":5329:5346  side == Side.SELL */\n      dup1\n      dup2\n      gt\n      iszero\n      tag_290\n      jumpi\n      mstore(0x00, 0x4e487b7100000000000000000000000000000000000000000000000000000000)\n      mstore(0x04, 0x21)\n      revert(0x00, 0x24)\n    tag_290:\n        /* \"contracts/Dex.sol\":5329:5333  side */\n      dup6\n        /* \"contracts/Dex.sol\":5329:5346  side == Side.SELL */\n      0x01\n      dup2\n      gt\n      iszero\n      tag_291\n      jumpi\n      mstore(0x00, 0x4e487b7100000000000000000000000000000000000000000000000000000000)\n      mstore(0x04, 0x21)\n      revert(0x00, 0x24)\n    tag_291:\n      eq\n        /* \"contracts/Dex.sol\":5329:5387  side == Side.SELL && orders[i - 1].price < orders[i].price */\n      dup1\n      iszero\n      tag_292\n      jumpi\n      pop\n        /* \"contracts/Dex.sol\":5372:5378  orders */\n      dup2\n        /* \"contracts/Dex.sol\":5379:5380  i */\n      dup2\n        /* \"contracts/Dex.sol\":5372:5381  orders[i] */\n      dup2\n      sload\n      dup2\n      lt\n      tag_293\n      jumpi\n      mstore(0x00, 0x4e487b7100000000000000000000000000000000000000000000000000000000)\n      mstore(0x04, 0x32)\n      revert(0x00, 0x24)\n    tag_293:\n      swap1\n      0x00\n      mstore\n      keccak256(0x00, 0x20)\n      swap1\n      0x07\n      mul\n      add\n        /* \"contracts/Dex.sol\":5372:5387  orders[i].price */\n      0x05\n      add\n      sload\n        /* \"contracts/Dex.sol\":5350:5356  orders */\n      dup3\n        /* \"contracts/Dex.sol\":5361:5362  1 */\n      0x01\n        /* \"contracts/Dex.sol\":5357:5358  i */\n      dup4\n        /* \"contracts/Dex.sol\":5357:5362  i - 1 */\n      tag_295\n      swap2\n      swap1\n      tag_194\n      jump\t// in\n    tag_295:\n        /* \"contracts/Dex.sol\":5350:5363  orders[i - 1] */\n      dup2\n      sload\n      dup2\n      lt\n      tag_296\n      jumpi\n      mstore(0x00, 0x4e487b7100000000000000000000000000000000000000000000000000000000)\n      mstore(0x04, 0x32)\n      revert(0x00, 0x24)\n    tag_296:\n      swap1\n      0x00\n      mstore\n      keccak256(0x00, 0x20)\n      swap1\n      0x07\n      mul\n      add\n        /* \"contracts/Dex.sol\":5350:5369  orders[i - 1].price */\n      0x05\n      add\n      sload\n        /* \"contracts/Dex.sol\":5350:5387  orders[i - 1].price < orders[i].price */\n      lt\n        /* \"contracts/Dex.sol\":5329:5387  side == Side.SELL && orders[i - 1].price < orders[i].price */\n    tag_292:\n        /* \"contracts/Dex.sol\":5325:5494  if (side == Side.SELL && orders[i - 1].price < orders[i].price) { // For the sell orders we have to order from lower to lowe price\r... */\n      iszero\n      tag_298\n      jumpi\n        /* \"contracts/Dex.sol\":5473:5478  break */\n      jump(tag_280)\n        /* \"contracts/Dex.sol\":5325:5494  if (side == Side.SELL && orders[i - 1].price < orders[i].price) { // For the sell orders we have to order from lower to lowe price\r... */\n    tag_298:\n        /* \"contracts/Dex.sol\":5545:5563  Order memory order */\n      0x00\n        /* \"contracts/Dex.sol\":5566:5572  orders */\n      dup3\n        /* \"contracts/Dex.sol\":5577:5578  1 */\n      0x01\n        /* \"contracts/Dex.sol\":5573:5574  i */\n      dup4\n        /* \"contracts/Dex.sol\":5573:5578  i - 1 */\n      tag_299\n      swap2\n      swap1\n      tag_194\n      jump\t// in\n    tag_299:\n        /* \"contracts/Dex.sol\":5566:5579  orders[i - 1] */\n      dup2\n      sload\n      dup2\n      lt\n      tag_300\n      jumpi\n      mstore(0x00, 0x4e487b7100000000000000000000000000000000000000000000000000000000)\n      mstore(0x04, 0x32)\n      revert(0x00, 0x24)\n    tag_300:\n      swap1\n      0x00\n      mstore\n      keccak256(0x00, 0x20)\n      swap1\n      0x07\n      mul\n      add\n        /* \"contracts/Dex.sol\":5545:5579  Order memory order = orders[i - 1] */\n      mload(0x40)\n      dup1\n      0x0100\n      add\n      0x40\n      mstore\n      swap1\n      dup2\n      0x00\n      dup3\n      add\n      sload\n      dup2\n      mstore\n      0x20\n      add\n      0x01\n      dup3\n      add\n      0x00\n      swap1\n      sload\n      swap1\n      0x0100\n      exp\n      swap1\n      div\n      0xffffffffffffffffffffffffffffffffffffffff\n      and\n      0xffffffffffffffffffffffffffffffffffffffff\n      and\n      0xffffffffffffffffffffffffffffffffffffffff\n      and\n      dup2\n      mstore\n      0x20\n      add\n      0x01\n      dup3\n      add\n      0x14\n      swap1\n      sload\n      swap1\n      0x0100\n      exp\n      swap1\n      div\n      0xff\n      and\n      0x01\n      dup2\n      gt\n      iszero\n      tag_302\n      jumpi\n      mstore(0x00, 0x4e487b7100000000000000000000000000000000000000000000000000000000)\n      mstore(0x04, 0x21)\n      revert(0x00, 0x24)\n    tag_302:\n      0x01\n      dup2\n      gt\n      iszero\n      tag_303\n      jumpi\n      mstore(0x00, 0x4e487b7100000000000000000000000000000000000000000000000000000000)\n      mstore(0x04, 0x21)\n      revert(0x00, 0x24)\n    tag_303:\n      dup2\n      mstore\n      0x20\n      add\n      0x02\n      dup3\n      add\n      sload\n      dup2\n      mstore\n      0x20\n      add\n      0x03\n      dup3\n      add\n      sload\n      dup2\n      mstore\n      0x20\n      add\n      0x04\n      dup3\n      add\n      sload\n      dup2\n      mstore\n      0x20\n      add\n      0x05\n      dup3\n      add\n      sload\n      dup2\n      mstore\n      0x20\n      add\n      0x06\n      dup3\n      add\n      sload\n      dup2\n      mstore\n      pop\n      pop\n      swap1\n      pop\n        /* \"contracts/Dex.sol\":5610:5616  orders */\n      dup3\n        /* \"contracts/Dex.sol\":5617:5618  i */\n      dup3\n        /* \"contracts/Dex.sol\":5610:5619  orders[i] */\n      dup2\n      sload\n      dup2\n      lt\n      tag_304\n      jumpi\n      mstore(0x00, 0x4e487b7100000000000000000000000000000000000000000000000000000000)\n      mstore(0x04, 0x32)\n      revert(0x00, 0x24)\n    tag_304:\n      swap1\n      0x00\n      mstore\n      keccak256(0x00, 0x20)\n      swap1\n      0x07\n      mul\n      add\n        /* \"contracts/Dex.sol\":5594:5600  orders */\n      dup4\n        /* \"contracts/Dex.sol\":5605:5606  1 */\n      0x01\n        /* \"contracts/Dex.sol\":5601:5602  i */\n      dup5\n        /* \"contracts/Dex.sol\":5601:5606  i - 1 */\n      tag_306\n      swap2\n      swap1\n      tag_194\n      jump\t// in\n    tag_306:\n        /* \"contracts/Dex.sol\":5594:5607  orders[i - 1] */\n      dup2\n      sload\n      dup2\n      lt\n      tag_307\n      jumpi\n      mstore(0x00, 0x4e487b7100000000000000000000000000000000000000000000000000000000)\n      mstore(0x04, 0x32)\n      revert(0x00, 0x24)\n    tag_307:\n      swap1\n      0x00\n      mstore\n      keccak256(0x00, 0x20)\n      swap1\n      0x07\n      mul\n      add\n        /* \"contracts/Dex.sol\":5594:5619  orders[i - 1] = orders[i] */\n      0x00\n      dup3\n      add\n      sload\n      dup2\n      0x00\n      add\n      sstore\n      0x01\n      dup3\n      add\n      0x00\n      swap1\n      sload\n      swap1\n      0x0100\n      exp\n      swap1\n      div\n      0xffffffffffffffffffffffffffffffffffffffff\n      and\n      dup2\n      0x01\n      add\n      exp(0x0100, 0x00)\n      dup2\n      sload\n      dup2\n      0xffffffffffffffffffffffffffffffffffffffff\n      mul\n      not\n      and\n      swap1\n      dup4\n      0xffffffffffffffffffffffffffffffffffffffff\n      and\n      mul\n      or\n      swap1\n      sstore\n      pop\n      0x01\n      dup3\n      add\n      0x14\n      swap1\n      sload\n      swap1\n      0x0100\n      exp\n      swap1\n      div\n      0xff\n      and\n      dup2\n      0x01\n      add\n      exp(0x0100, 0x14)\n      dup2\n      sload\n      dup2\n      0xff\n      mul\n      not\n      and\n      swap1\n      dup4\n      0x01\n      dup2\n      gt\n      iszero\n      tag_309\n      jumpi\n      mstore(0x00, 0x4e487b7100000000000000000000000000000000000000000000000000000000)\n      mstore(0x04, 0x21)\n      revert(0x00, 0x24)\n    tag_309:\n      mul\n      or\n      swap1\n      sstore\n      pop\n      0x02\n      dup3\n      add\n      sload\n      dup2\n      0x02\n      add\n      sstore\n      0x03\n      dup3\n      add\n      sload\n      dup2\n      0x03\n      add\n      sstore\n      0x04\n      dup3\n      add\n      sload\n      dup2\n      0x04\n      add\n      sstore\n      0x05\n      dup3\n      add\n      sload\n      dup2\n      0x05\n      add\n      sstore\n      0x06\n      dup3\n      add\n      sload\n      dup2\n      0x06\n      add\n      sstore\n      swap1\n      pop\n      pop\n        /* \"contracts/Dex.sol\":5646:5651  order */\n      dup1\n        /* \"contracts/Dex.sol\":5634:5640  orders */\n      dup4\n        /* \"contracts/Dex.sol\":5641:5642  i */\n      dup4\n        /* \"contracts/Dex.sol\":5634:5643  orders[i] */\n      dup2\n      sload\n      dup2\n      lt\n      tag_310\n      jumpi\n      mstore(0x00, 0x4e487b7100000000000000000000000000000000000000000000000000000000)\n      mstore(0x04, 0x32)\n      revert(0x00, 0x24)\n    tag_310:\n      swap1\n      0x00\n      mstore\n      keccak256(0x00, 0x20)\n      swap1\n      0x07\n      mul\n      add\n        /* \"contracts/Dex.sol\":5634:5651  orders[i] = order */\n      0x00\n      dup3\n      add\n      mload\n      dup2\n      0x00\n      add\n      sstore\n      0x20\n      dup3\n      add\n      mload\n      dup2\n      0x01\n      add\n      exp(0x0100, 0x00)\n      dup2\n      sload\n      dup2\n      0xffffffffffffffffffffffffffffffffffffffff\n      mul\n      not\n      and\n      swap1\n      dup4\n      0xffffffffffffffffffffffffffffffffffffffff\n      and\n      mul\n      or\n      swap1\n      sstore\n      pop\n      0x40\n      dup3\n      add\n      mload\n      dup2\n      0x01\n      add\n      exp(0x0100, 0x14)\n      dup2\n      sload\n      dup2\n      0xff\n      mul\n      not\n      and\n      swap1\n      dup4\n      0x01\n      dup2\n      gt\n      iszero\n      tag_312\n      jumpi\n      mstore(0x00, 0x4e487b7100000000000000000000000000000000000000000000000000000000)\n      mstore(0x04, 0x21)\n      revert(0x00, 0x24)\n    tag_312:\n      mul\n      or\n      swap1\n      sstore\n      pop\n      0x60\n      dup3\n      add\n      mload\n      dup2\n      0x02\n      add\n      sstore\n      0x80\n      dup3\n      add\n      mload\n      dup2\n      0x03\n      add\n      sstore\n      0xa0\n      dup3\n      add\n      mload\n      dup2\n      0x04\n      add\n      sstore\n      0xc0\n      dup3\n      add\n      mload\n      dup2\n      0x05\n      add\n      sstore\n      0xe0\n      dup3\n      add\n      mload\n      dup2\n      0x06\n      add\n      sstore\n      swap1\n      pop\n      pop\n        /* \"contracts/Dex.sol\":5786:5794  i.sub(1) */\n      tag_313\n        /* \"contracts/Dex.sol\":5792:5793  1 */\n      0x01\n        /* \"contracts/Dex.sol\":5786:5787  i */\n      dup4\n        /* \"contracts/Dex.sol\":5786:5791  i.sub */\n      tag_116\n      swap1\n        /* \"contracts/Dex.sol\":5786:5794  i.sub(1) */\n      swap2\n      swap1\n      0xffffffff\n      and\n      jump\t// in\n    tag_313:\n        /* \"contracts/Dex.sol\":5782:5794  i = i.sub(1) */\n      swap2\n      pop\n        /* \"contracts/Dex.sol\":5115:5806  while(i > 0) {\r... */\n      pop\n      jump(tag_279)\n    tag_280:\n        /* \"contracts/Dex.sol\":5887:5905  nextOrderId.add(1) */\n      tag_314\n        /* \"contracts/Dex.sol\":5903:5904  1 */\n      0x01\n        /* \"contracts/Dex.sol\":5887:5898  nextOrderId */\n      sload(0x05)\n        /* \"contracts/Dex.sol\":5887:5902  nextOrderId.add */\n      tag_123\n      swap1\n        /* \"contracts/Dex.sol\":5887:5905  nextOrderId.add(1) */\n      swap2\n      swap1\n      0xffffffff\n      and\n      jump\t// in\n    tag_314:\n        /* \"contracts/Dex.sol\":5873:5884  nextOrderId */\n      0x05\n        /* \"contracts/Dex.sol\":5873:5905  nextOrderId = nextOrderId.add(1) */\n      dup2\n      swap1\n      sstore\n      pop\n        /* \"contracts/Dex.sol\":2412:2413  _ */\n      pop\n      pop\n        /* \"contracts/Dex.sol\":2292:2293  _ */\n      pop\n        /* \"contracts/Dex.sol\":4105:5913  function createLimitOrder(bytes32 ticker, uint amount, uint price, Side side) tokenExist(ticker) tokenIsNotDAI(ticker) external {\r... */\n      pop\n      pop\n      pop\n      pop\n      pop\n      jump\t// out\n        /* \"contracts/Dex.sol\":503:523  address public admin */\n    tag_75:\n      0x00\n      dup1\n      sload\n      swap1\n      0x0100\n      exp\n      swap1\n      div\n      0xffffffffffffffffffffffffffffffffffffffff\n      and\n      dup2\n      jump\t// out\n        /* \"@openzeppelin/contracts/utils/math/SafeMath.sol\":3122:3218  function sub(uint256 a, uint256 b) internal pure returns (uint256) {... */\n    tag_116:\n        /* \"@openzeppelin/contracts/utils/math/SafeMath.sol\":3180:3187  uint256 */\n      0x00\n        /* \"@openzeppelin/contracts/utils/math/SafeMath.sol\":3210:3211  b */\n      dup2\n        /* \"@openzeppelin/contracts/utils/math/SafeMath.sol\":3206:3207  a */\n      dup4\n        /* \"@openzeppelin/contracts/utils/math/SafeMath.sol\":3206:3211  a - b */\n      tag_316\n      swap2\n      swap1\n      tag_194\n      jump\t// in\n    tag_316:\n        /* \"@openzeppelin/contracts/utils/math/SafeMath.sol\":3199:3211  return a - b */\n      swap1\n      pop\n        /* \"@openzeppelin/contracts/utils/math/SafeMath.sol\":3122:3218  function sub(uint256 a, uint256 b) internal pure returns (uint256) {... */\n      swap3\n      swap2\n      pop\n      pop\n      jump\t// out\n        /* \"@openzeppelin/contracts/utils/math/SafeMath.sol\":2755:2851  function add(uint256 a, uint256 b) internal pure returns (uint256) {... */\n    tag_123:\n        /* \"@openzeppelin/contracts/utils/math/SafeMath.sol\":2813:2820  uint256 */\n      0x00\n        /* \"@openzeppelin/contracts/utils/math/SafeMath.sol\":2843:2844  b */\n      dup2\n        /* \"@openzeppelin/contracts/utils/math/SafeMath.sol\":2839:2840  a */\n      dup4\n        /* \"@openzeppelin/contracts/utils/math/SafeMath.sol\":2839:2844  a + b */\n      tag_318\n      swap2\n      swap1\n      tag_196\n      jump\t// in\n    tag_318:\n        /* \"@openzeppelin/contracts/utils/math/SafeMath.sol\":2832:2844  return a + b */\n      swap1\n      pop\n        /* \"@openzeppelin/contracts/utils/math/SafeMath.sol\":2755:2851  function add(uint256 a, uint256 b) internal pure returns (uint256) {... */\n      swap3\n      swap2\n      pop\n      pop\n      jump\t// out\n        /* \"@openzeppelin/contracts/utils/math/SafeMath.sol\":3465:3561  function mul(uint256 a, uint256 b) internal pure returns (uint256) {... */\n    tag_142:\n        /* \"@openzeppelin/contracts/utils/math/SafeMath.sol\":3523:3530  uint256 */\n      0x00\n        /* \"@openzeppelin/contracts/utils/math/SafeMath.sol\":3553:3554  b */\n      dup2\n        /* \"@openzeppelin/contracts/utils/math/SafeMath.sol\":3549:3550  a */\n      dup4\n        /* \"@openzeppelin/contracts/utils/math/SafeMath.sol\":3549:3554  a * b */\n      tag_320\n      swap2\n      swap1\n      tag_321\n      jump\t// in\n    tag_320:\n        /* \"@openzeppelin/contracts/utils/math/SafeMath.sol\":3542:3554  return a * b */\n      swap1\n      pop\n        /* \"@openzeppelin/contracts/utils/math/SafeMath.sol\":3465:3561  function mul(uint256 a, uint256 b) internal pure returns (uint256) {... */\n      swap3\n      swap2\n      pop\n      pop\n      jump\t// out\n    tag_235:\n      mload(0x40)\n      dup1\n      0x40\n      add\n      0x40\n      mstore\n      dup1\n      0x00\n      dup1\n      not\n      and\n      dup2\n      mstore\n      0x20\n      add\n      and(0xffffffffffffffffffffffffffffffffffffffff, 0x00)\n      dup2\n      mstore\n      pop\n      swap1\n      jump\t// out\n        /* \"#utility.yul\":7:146   */\n    tag_323:\n      0x00\n        /* \"#utility.yul\":91:97   */\n      dup2\n        /* \"#utility.yul\":78:98   */\n      calldataload\n        /* \"#utility.yul\":69:98   */\n      swap1\n      pop\n        /* \"#utility.yul\":107:140   */\n      tag_325\n        /* \"#utility.yul\":134:139   */\n      dup2\n        /* \"#utility.yul\":107:140   */\n      tag_326\n      jump\t// in\n    tag_325:\n        /* \"#utility.yul\":59:146   */\n      swap3\n      swap2\n      pop\n      pop\n      jump\t// out\n        /* \"#utility.yul\":152:289   */\n    tag_327:\n      0x00\n        /* \"#utility.yul\":237:243   */\n      dup2\n        /* \"#utility.yul\":231:244   */\n      mload\n        /* \"#utility.yul\":222:244   */\n      swap1\n      pop\n        /* \"#utility.yul\":253:283   */\n      tag_329\n        /* \"#utility.yul\":277:282   */\n      dup2\n        /* \"#utility.yul\":253:283   */\n      tag_330\n      jump\t// in\n    tag_329:\n        /* \"#utility.yul\":212:289   */\n      swap3\n      swap2\n      pop\n      pop\n      jump\t// out\n        /* \"#utility.yul\":295:434   */\n    tag_331:\n      0x00\n        /* \"#utility.yul\":379:385   */\n      dup2\n        /* \"#utility.yul\":366:386   */\n      calldataload\n        /* \"#utility.yul\":357:386   */\n      swap1\n      pop\n        /* \"#utility.yul\":395:428   */\n      tag_333\n        /* \"#utility.yul\":422:427   */\n      dup2\n        /* \"#utility.yul\":395:428   */\n      tag_334\n      jump\t// in\n    tag_333:\n        /* \"#utility.yul\":347:434   */\n      swap3\n      swap2\n      pop\n      pop\n      jump\t// out\n        /* \"#utility.yul\":440:595   */\n    tag_335:\n      0x00\n        /* \"#utility.yul\":532:538   */\n      dup2\n        /* \"#utility.yul\":519:539   */\n      calldataload\n        /* \"#utility.yul\":510:539   */\n      swap1\n      pop\n        /* \"#utility.yul\":548:589   */\n      tag_337\n        /* \"#utility.yul\":583:588   */\n      dup2\n        /* \"#utility.yul\":548:589   */\n      tag_338\n      jump\t// in\n    tag_337:\n        /* \"#utility.yul\":500:595   */\n      swap3\n      swap2\n      pop\n      pop\n      jump\t// out\n        /* \"#utility.yul\":601:740   */\n    tag_339:\n      0x00\n        /* \"#utility.yul\":685:691   */\n      dup2\n        /* \"#utility.yul\":672:692   */\n      calldataload\n        /* \"#utility.yul\":663:692   */\n      swap1\n      pop\n        /* \"#utility.yul\":701:734   */\n      tag_341\n        /* \"#utility.yul\":728:733   */\n      dup2\n        /* \"#utility.yul\":701:734   */\n      tag_342\n      jump\t// in\n    tag_341:\n        /* \"#utility.yul\":653:740   */\n      swap3\n      swap2\n      pop\n      pop\n      jump\t// out\n        /* \"#utility.yul\":746:1153   */\n    tag_36:\n      0x00\n      dup1\n        /* \"#utility.yul\":871:873   */\n      0x40\n        /* \"#utility.yul\":859:868   */\n      dup4\n        /* \"#utility.yul\":850:857   */\n      dup6\n        /* \"#utility.yul\":846:869   */\n      sub\n        /* \"#utility.yul\":842:874   */\n      slt\n        /* \"#utility.yul\":839:841   */\n      iszero\n      tag_344\n      jumpi\n        /* \"#utility.yul\":887:888   */\n      0x00\n        /* \"#utility.yul\":884:885   */\n      dup1\n        /* \"#utility.yul\":877:889   */\n      revert\n        /* \"#utility.yul\":839:841   */\n    tag_344:\n        /* \"#utility.yul\":930:931   */\n      0x00\n        /* \"#utility.yul\":955:1008   */\n      tag_345\n        /* \"#utility.yul\":1000:1007   */\n      dup6\n        /* \"#utility.yul\":991:997   */\n      dup3\n        /* \"#utility.yul\":980:989   */\n      dup7\n        /* \"#utility.yul\":976:998   */\n      add\n        /* \"#utility.yul\":955:1008   */\n      tag_323\n      jump\t// in\n    tag_345:\n        /* \"#utility.yul\":945:1008   */\n      swap3\n      pop\n        /* \"#utility.yul\":901:1018   */\n      pop\n        /* \"#utility.yul\":1057:1059   */\n      0x20\n        /* \"#utility.yul\":1083:1136   */\n      tag_346\n        /* \"#utility.yul\":1128:1135   */\n      dup6\n        /* \"#utility.yul\":1119:1125   */\n      dup3\n        /* \"#utility.yul\":1108:1117   */\n      dup7\n        /* \"#utility.yul\":1104:1126   */\n      add\n        /* \"#utility.yul\":1083:1136   */\n      tag_331\n      jump\t// in\n    tag_346:\n        /* \"#utility.yul\":1073:1136   */\n      swap2\n      pop\n        /* \"#utility.yul\":1028:1146   */\n      pop\n        /* \"#utility.yul\":829:1153   */\n      swap3\n      pop\n      swap3\n      swap1\n      pop\n      jump\t// out\n        /* \"#utility.yul\":1159:1437   */\n    tag_229:\n      0x00\n        /* \"#utility.yul\":1275:1277   */\n      0x20\n        /* \"#utility.yul\":1263:1272   */\n      dup3\n        /* \"#utility.yul\":1254:1261   */\n      dup5\n        /* \"#utility.yul\":1250:1273   */\n      sub\n        /* \"#utility.yul\":1246:1278   */\n      slt\n        /* \"#utility.yul\":1243:1245   */\n      iszero\n      tag_348\n      jumpi\n        /* \"#utility.yul\":1291:1292   */\n      0x00\n        /* \"#utility.yul\":1288:1289   */\n      dup1\n        /* \"#utility.yul\":1281:1293   */\n      revert\n        /* \"#utility.yul\":1243:1245   */\n    tag_348:\n        /* \"#utility.yul\":1334:1335   */\n      0x00\n        /* \"#utility.yul\":1359:1420   */\n      tag_349\n        /* \"#utility.yul\":1412:1419   */\n      dup5\n        /* \"#utility.yul\":1403:1409   */\n      dup3\n        /* \"#utility.yul\":1392:1401   */\n      dup6\n        /* \"#utility.yul\":1388:1410   */\n      add\n        /* \"#utility.yul\":1359:1420   */\n      tag_327\n      jump\t// in\n    tag_349:\n        /* \"#utility.yul\":1349:1420   */\n      swap2\n      pop\n        /* \"#utility.yul\":1305:1430   */\n      pop\n        /* \"#utility.yul\":1233:1437   */\n      swap3\n      swap2\n      pop\n      pop\n      jump\t// out\n        /* \"#utility.yul\":1443:1705   */\n    tag_45:\n      0x00\n        /* \"#utility.yul\":1551:1553   */\n      0x20\n        /* \"#utility.yul\":1539:1548   */\n      dup3\n        /* \"#utility.yul\":1530:1537   */\n      dup5\n        /* \"#utility.yul\":1526:1549   */\n      sub\n        /* \"#utility.yul\":1522:1554   */\n      slt\n        /* \"#utility.yul\":1519:1521   */\n      iszero\n      tag_351\n      jumpi\n        /* \"#utility.yul\":1567:1568   */\n      0x00\n        /* \"#utility.yul\":1564:1565   */\n      dup1\n        /* \"#utility.yul\":1557:1569   */\n      revert\n        /* \"#utility.yul\":1519:1521   */\n    tag_351:\n        /* \"#utility.yul\":1610:1611   */\n      0x00\n        /* \"#utility.yul\":1635:1688   */\n      tag_352\n        /* \"#utility.yul\":1680:1687   */\n      dup5\n        /* \"#utility.yul\":1671:1677   */\n      dup3\n        /* \"#utility.yul\":1660:1669   */\n      dup6\n        /* \"#utility.yul\":1656:1678   */\n      add\n        /* \"#utility.yul\":1635:1688   */\n      tag_331\n      jump\t// in\n    tag_352:\n        /* \"#utility.yul\":1625:1688   */\n      swap2\n      pop\n        /* \"#utility.yul\":1581:1698   */\n      pop\n        /* \"#utility.yul\":1509:1705   */\n      swap3\n      swap2\n      pop\n      pop\n      jump\t// out\n        /* \"#utility.yul\":1711:2118   */\n    tag_51:\n      0x00\n      dup1\n        /* \"#utility.yul\":1836:1838   */\n      0x40\n        /* \"#utility.yul\":1824:1833   */\n      dup4\n        /* \"#utility.yul\":1815:1822   */\n      dup6\n        /* \"#utility.yul\":1811:1834   */\n      sub\n        /* \"#utility.yul\":1807:1839   */\n      slt\n        /* \"#utility.yul\":1804:1806   */\n      iszero\n      tag_354\n      jumpi\n        /* \"#utility.yul\":1852:1853   */\n      0x00\n        /* \"#utility.yul\":1849:1850   */\n      dup1\n        /* \"#utility.yul\":1842:1854   */\n      revert\n        /* \"#utility.yul\":1804:1806   */\n    tag_354:\n        /* \"#utility.yul\":1895:1896   */\n      0x00\n        /* \"#utility.yul\":1920:1973   */\n      tag_355\n        /* \"#utility.yul\":1965:1972   */\n      dup6\n        /* \"#utility.yul\":1956:1962   */\n      dup3\n        /* \"#utility.yul\":1945:1954   */\n      dup7\n        /* \"#utility.yul\":1941:1963   */\n      add\n        /* \"#utility.yul\":1920:1973   */\n      tag_331\n      jump\t// in\n    tag_355:\n        /* \"#utility.yul\":1910:1973   */\n      swap3\n      pop\n        /* \"#utility.yul\":1866:1983   */\n      pop\n        /* \"#utility.yul\":2022:2024   */\n      0x20\n        /* \"#utility.yul\":2048:2101   */\n      tag_356\n        /* \"#utility.yul\":2093:2100   */\n      dup6\n        /* \"#utility.yul\":2084:2090   */\n      dup3\n        /* \"#utility.yul\":2073:2082   */\n      dup7\n        /* \"#utility.yul\":2069:2091   */\n      add\n        /* \"#utility.yul\":2048:2101   */\n      tag_323\n      jump\t// in\n    tag_356:\n        /* \"#utility.yul\":2038:2101   */\n      swap2\n      pop\n        /* \"#utility.yul\":1993:2111   */\n      pop\n        /* \"#utility.yul\":1794:2118   */\n      swap3\n      pop\n      swap3\n      swap1\n      pop\n      jump\t// out\n        /* \"#utility.yul\":2124:2547   */\n    tag_30:\n      0x00\n      dup1\n        /* \"#utility.yul\":2257:2259   */\n      0x40\n        /* \"#utility.yul\":2245:2254   */\n      dup4\n        /* \"#utility.yul\":2236:2243   */\n      dup6\n        /* \"#utility.yul\":2232:2255   */\n      sub\n        /* \"#utility.yul\":2228:2260   */\n      slt\n        /* \"#utility.yul\":2225:2227   */\n      iszero\n      tag_358\n      jumpi\n        /* \"#utility.yul\":2273:2274   */\n      0x00\n        /* \"#utility.yul\":2270:2271   */\n      dup1\n        /* \"#utility.yul\":2263:2275   */\n      revert\n        /* \"#utility.yul\":2225:2227   */\n    tag_358:\n        /* \"#utility.yul\":2316:2317   */\n      0x00\n        /* \"#utility.yul\":2341:2394   */\n      tag_359\n        /* \"#utility.yul\":2386:2393   */\n      dup6\n        /* \"#utility.yul\":2377:2383   */\n      dup3\n        /* \"#utility.yul\":2366:2375   */\n      dup7\n        /* \"#utility.yul\":2362:2384   */\n      add\n        /* \"#utility.yul\":2341:2394   */\n      tag_331\n      jump\t// in\n    tag_359:\n        /* \"#utility.yul\":2331:2394   */\n      swap3\n      pop\n        /* \"#utility.yul\":2287:2404   */\n      pop\n        /* \"#utility.yul\":2443:2445   */\n      0x20\n        /* \"#utility.yul\":2469:2530   */\n      tag_360\n        /* \"#utility.yul\":2522:2529   */\n      dup6\n        /* \"#utility.yul\":2513:2519   */\n      dup3\n        /* \"#utility.yul\":2502:2511   */\n      dup7\n        /* \"#utility.yul\":2498:2520   */\n      add\n        /* \"#utility.yul\":2469:2530   */\n      tag_335\n      jump\t// in\n    tag_360:\n        /* \"#utility.yul\":2459:2530   */\n      swap2\n      pop\n        /* \"#utility.yul\":2414:2540   */\n      pop\n        /* \"#utility.yul\":2215:2547   */\n      swap3\n      pop\n      swap3\n      swap1\n      pop\n      jump\t// out\n        /* \"#utility.yul\":2553:3121   */\n    tag_41:\n      0x00\n      dup1\n      0x00\n        /* \"#utility.yul\":2703:2705   */\n      0x60\n        /* \"#utility.yul\":2691:2700   */\n      dup5\n        /* \"#utility.yul\":2682:2689   */\n      dup7\n        /* \"#utility.yul\":2678:2701   */\n      sub\n        /* \"#utility.yul\":2674:2706   */\n      slt\n        /* \"#utility.yul\":2671:2673   */\n      iszero\n      tag_362\n      jumpi\n        /* \"#utility.yul\":2719:2720   */\n      0x00\n        /* \"#utility.yul\":2716:2717   */\n      dup1\n        /* \"#utility.yul\":2709:2721   */\n      revert\n        /* \"#utility.yul\":2671:2673   */\n    tag_362:\n        /* \"#utility.yul\":2762:2763   */\n      0x00\n        /* \"#utility.yul\":2787:2840   */\n      tag_363\n        /* \"#utility.yul\":2832:2839   */\n      dup7\n        /* \"#utility.yul\":2823:2829   */\n      dup3\n        /* \"#utility.yul\":2812:2821   */\n      dup8\n        /* \"#utility.yul\":2808:2830   */\n      add\n        /* \"#utility.yul\":2787:2840   */\n      tag_331\n      jump\t// in\n    tag_363:\n        /* \"#utility.yul\":2777:2840   */\n      swap4\n      pop\n        /* \"#utility.yul\":2733:2850   */\n      pop\n        /* \"#utility.yul\":2889:2891   */\n      0x20\n        /* \"#utility.yul\":2915:2968   */\n      tag_364\n        /* \"#utility.yul\":2960:2967   */\n      dup7\n        /* \"#utility.yul\":2951:2957   */\n      dup3\n        /* \"#utility.yul\":2940:2949   */\n      dup8\n        /* \"#utility.yul\":2936:2958   */\n      add\n        /* \"#utility.yul\":2915:2968   */\n      tag_339\n      jump\t// in\n    tag_364:\n        /* \"#utility.yul\":2905:2968   */\n      swap3\n      pop\n        /* \"#utility.yul\":2860:2978   */\n      pop\n        /* \"#utility.yul\":3017:3019   */\n      0x40\n        /* \"#utility.yul\":3043:3104   */\n      tag_365\n        /* \"#utility.yul\":3096:3103   */\n      dup7\n        /* \"#utility.yul\":3087:3093   */\n      dup3\n        /* \"#utility.yul\":3076:3085   */\n      dup8\n        /* \"#utility.yul\":3072:3094   */\n      add\n        /* \"#utility.yul\":3043:3104   */\n      tag_335\n      jump\t// in\n    tag_365:\n        /* \"#utility.yul\":3033:3104   */\n      swap2\n      pop\n        /* \"#utility.yul\":2988:3114   */\n      pop\n        /* \"#utility.yul\":2661:3121   */\n      swap3\n      pop\n      swap3\n      pop\n      swap3\n      jump\t// out\n        /* \"#utility.yul\":3127:3679   */\n    tag_20:\n      0x00\n      dup1\n      0x00\n        /* \"#utility.yul\":3269:3271   */\n      0x60\n        /* \"#utility.yul\":3257:3266   */\n      dup5\n        /* \"#utility.yul\":3248:3255   */\n      dup7\n        /* \"#utility.yul\":3244:3267   */\n      sub\n        /* \"#utility.yul\":3240:3272   */\n      slt\n        /* \"#utility.yul\":3237:3239   */\n      iszero\n      tag_367\n      jumpi\n        /* \"#utility.yul\":3285:3286   */\n      0x00\n        /* \"#utility.yul\":3282:3283   */\n      dup1\n        /* \"#utility.yul\":3275:3287   */\n      revert\n        /* \"#utility.yul\":3237:3239   */\n    tag_367:\n        /* \"#utility.yul\":3328:3329   */\n      0x00\n        /* \"#utility.yul\":3353:3406   */\n      tag_368\n        /* \"#utility.yul\":3398:3405   */\n      dup7\n        /* \"#utility.yul\":3389:3395   */\n      dup3\n        /* \"#utility.yul\":3378:3387   */\n      dup8\n        /* \"#utility.yul\":3374:3396   */\n      add\n        /* \"#utility.yul\":3353:3406   */\n      tag_331\n      jump\t// in\n    tag_368:\n        /* \"#utility.yul\":3343:3406   */\n      swap4\n      pop\n        /* \"#utility.yul\":3299:3416   */\n      pop\n        /* \"#utility.yul\":3455:3457   */\n      0x20\n        /* \"#utility.yul\":3481:3534   */\n      tag_369\n        /* \"#utility.yul\":3526:3533   */\n      dup7\n        /* \"#utility.yul\":3517:3523   */\n      dup3\n        /* \"#utility.yul\":3506:3515   */\n      dup8\n        /* \"#utility.yul\":3502:3524   */\n      add\n        /* \"#utility.yul\":3481:3534   */\n      tag_339\n      jump\t// in\n    tag_369:\n        /* \"#utility.yul\":3471:3534   */\n      swap3\n      pop\n        /* \"#utility.yul\":3426:3544   */\n      pop\n        /* \"#utility.yul\":3583:3585   */\n      0x40\n        /* \"#utility.yul\":3609:3662   */\n      tag_370\n        /* \"#utility.yul\":3654:3661   */\n      dup7\n        /* \"#utility.yul\":3645:3651   */\n      dup3\n        /* \"#utility.yul\":3634:3643   */\n      dup8\n        /* \"#utility.yul\":3630:3652   */\n      add\n        /* \"#utility.yul\":3609:3662   */\n      tag_339\n      jump\t// in\n    tag_370:\n        /* \"#utility.yul\":3599:3662   */\n      swap2\n      pop\n        /* \"#utility.yul\":3554:3672   */\n      pop\n        /* \"#utility.yul\":3227:3679   */\n      swap3\n      pop\n      swap3\n      pop\n      swap3\n      jump\t// out\n        /* \"#utility.yul\":3685:4399   */\n    tag_72:\n      0x00\n      dup1\n      0x00\n      dup1\n        /* \"#utility.yul\":3852:3855   */\n      0x80\n        /* \"#utility.yul\":3840:3849   */\n      dup6\n        /* \"#utility.yul\":3831:3838   */\n      dup8\n        /* \"#utility.yul\":3827:3850   */\n      sub\n        /* \"#utility.yul\":3823:3856   */\n      slt\n        /* \"#utility.yul\":3820:3822   */\n      iszero\n      tag_372\n      jumpi\n        /* \"#utility.yul\":3869:3870   */\n      0x00\n        /* \"#utility.yul\":3866:3867   */\n      dup1\n        /* \"#utility.yul\":3859:3871   */\n      revert\n        /* \"#utility.yul\":3820:3822   */\n    tag_372:\n        /* \"#utility.yul\":3912:3913   */\n      0x00\n        /* \"#utility.yul\":3937:3990   */\n      tag_373\n        /* \"#utility.yul\":3982:3989   */\n      dup8\n        /* \"#utility.yul\":3973:3979   */\n      dup3\n        /* \"#utility.yul\":3962:3971   */\n      dup9\n        /* \"#utility.yul\":3958:3980   */\n      add\n        /* \"#utility.yul\":3937:3990   */\n      tag_331\n      jump\t// in\n    tag_373:\n        /* \"#utility.yul\":3927:3990   */\n      swap5\n      pop\n        /* \"#utility.yul\":3883:4000   */\n      pop\n        /* \"#utility.yul\":4039:4041   */\n      0x20\n        /* \"#utility.yul\":4065:4118   */\n      tag_374\n        /* \"#utility.yul\":4110:4117   */\n      dup8\n        /* \"#utility.yul\":4101:4107   */\n      dup3\n        /* \"#utility.yul\":4090:4099   */\n      dup9\n        /* \"#utility.yul\":4086:4108   */\n      add\n        /* \"#utility.yul\":4065:4118   */\n      tag_339\n      jump\t// in\n    tag_374:\n        /* \"#utility.yul\":4055:4118   */\n      swap4\n      pop\n        /* \"#utility.yul\":4010:4128   */\n      pop\n        /* \"#utility.yul\":4167:4169   */\n      0x40\n        /* \"#utility.yul\":4193:4246   */\n      tag_375\n        /* \"#utility.yul\":4238:4245   */\n      dup8\n        /* \"#utility.yul\":4229:4235   */\n      dup3\n        /* \"#utility.yul\":4218:4227   */\n      dup9\n        /* \"#utility.yul\":4214:4236   */\n      add\n        /* \"#utility.yul\":4193:4246   */\n      tag_339\n      jump\t// in\n    tag_375:\n        /* \"#utility.yul\":4183:4246   */\n      swap3\n      pop\n        /* \"#utility.yul\":4138:4256   */\n      pop\n        /* \"#utility.yul\":4295:4297   */\n      0x60\n        /* \"#utility.yul\":4321:4382   */\n      tag_376\n        /* \"#utility.yul\":4374:4381   */\n      dup8\n        /* \"#utility.yul\":4365:4371   */\n      dup3\n        /* \"#utility.yul\":4354:4363   */\n      dup9\n        /* \"#utility.yul\":4350:4372   */\n      add\n        /* \"#utility.yul\":4321:4382   */\n      tag_335\n      jump\t// in\n    tag_376:\n        /* \"#utility.yul\":4311:4382   */\n      swap2\n      pop\n        /* \"#utility.yul\":4266:4392   */\n      pop\n        /* \"#utility.yul\":3810:4399   */\n      swap3\n      swap6\n      swap2\n      swap5\n      pop\n      swap3\n      pop\n      jump\t// out\n        /* \"#utility.yul\":4405:4667   */\n    tag_55:\n      0x00\n        /* \"#utility.yul\":4513:4515   */\n      0x20\n        /* \"#utility.yul\":4501:4510   */\n      dup3\n        /* \"#utility.yul\":4492:4499   */\n      dup5\n        /* \"#utility.yul\":4488:4511   */\n      sub\n        /* \"#utility.yul\":4484:4516   */\n      slt\n        /* \"#utility.yul\":4481:4483   */\n      iszero\n      tag_378\n      jumpi\n        /* \"#utility.yul\":4529:4530   */\n      0x00\n        /* \"#utility.yul\":4526:4527   */\n      dup1\n        /* \"#utility.yul\":4519:4531   */\n      revert\n        /* \"#utility.yul\":4481:4483   */\n    tag_378:\n        /* \"#utility.yul\":4572:4573   */\n      0x00\n        /* \"#utility.yul\":4597:4650   */\n      tag_379\n        /* \"#utility.yul\":4642:4649   */\n      dup5\n        /* \"#utility.yul\":4633:4639   */\n      dup3\n        /* \"#utility.yul\":4622:4631   */\n      dup6\n        /* \"#utility.yul\":4618:4640   */\n      add\n        /* \"#utility.yul\":4597:4650   */\n      tag_339\n      jump\t// in\n    tag_379:\n        /* \"#utility.yul\":4587:4650   */\n      swap2\n      pop\n        /* \"#utility.yul\":4543:4660   */\n      pop\n        /* \"#utility.yul\":4471:4667   */\n      swap3\n      swap2\n      pop\n      pop\n      jump\t// out\n        /* \"#utility.yul\":4673:5080   */\n    tag_61:\n      0x00\n      dup1\n        /* \"#utility.yul\":4798:4800   */\n      0x40\n        /* \"#utility.yul\":4786:4795   */\n      dup4\n        /* \"#utility.yul\":4777:4784   */\n      dup6\n        /* \"#utility.yul\":4773:4796   */\n      sub\n        /* \"#utility.yul\":4769:4801   */\n      slt\n        /* \"#utility.yul\":4766:4768   */\n      iszero\n      tag_381\n      jumpi\n        /* \"#utility.yul\":4814:4815   */\n      0x00\n        /* \"#utility.yul\":4811:4812   */\n      dup1\n        /* \"#utility.yul\":4804:4816   */\n      revert\n        /* \"#utility.yul\":4766:4768   */\n    tag_381:\n        /* \"#utility.yul\":4857:4858   */\n      0x00\n        /* \"#utility.yul\":4882:4935   */\n      tag_382\n        /* \"#utility.yul\":4927:4934   */\n      dup6\n        /* \"#utility.yul\":4918:4924   */\n      dup3\n        /* \"#utility.yul\":4907:4916   */\n      dup7\n        /* \"#utility.yul\":4903:4925   */\n      add\n        /* \"#utility.yul\":4882:4935   */\n      tag_339\n      jump\t// in\n    tag_382:\n        /* \"#utility.yul\":4872:4935   */\n      swap3\n      pop\n        /* \"#utility.yul\":4828:4945   */\n      pop\n        /* \"#utility.yul\":4984:4986   */\n      0x20\n        /* \"#utility.yul\":5010:5063   */\n      tag_383\n        /* \"#utility.yul\":5055:5062   */\n      dup6\n        /* \"#utility.yul\":5046:5052   */\n      dup3\n        /* \"#utility.yul\":5035:5044   */\n      dup7\n        /* \"#utility.yul\":5031:5053   */\n      add\n        /* \"#utility.yul\":5010:5063   */\n      tag_331\n      jump\t// in\n    tag_383:\n        /* \"#utility.yul\":5000:5063   */\n      swap2\n      pop\n        /* \"#utility.yul\":4955:5073   */\n      pop\n        /* \"#utility.yul\":4756:5080   */\n      swap3\n      pop\n      swap3\n      swap1\n      pop\n      jump\t// out\n        /* \"#utility.yul\":5086:5355   */\n    tag_384:\n      0x00\n        /* \"#utility.yul\":5220:5310   */\n      tag_386\n        /* \"#utility.yul\":5306:5309   */\n      dup4\n        /* \"#utility.yul\":5298:5304   */\n      dup4\n        /* \"#utility.yul\":5220:5310   */\n      tag_387\n      jump\t// in\n    tag_386:\n        /* \"#utility.yul\":5342:5348   */\n      0x0100\n        /* \"#utility.yul\":5337:5340   */\n      dup4\n        /* \"#utility.yul\":5333:5349   */\n      add\n        /* \"#utility.yul\":5319:5349   */\n      swap1\n      pop\n        /* \"#utility.yul\":5210:5355   */\n      swap3\n      swap2\n      pop\n      pop\n      jump\t// out\n        /* \"#utility.yul\":5361:5628   */\n    tag_388:\n      0x00\n        /* \"#utility.yul\":5495:5585   */\n      tag_390\n        /* \"#utility.yul\":5581:5584   */\n      dup4\n        /* \"#utility.yul\":5573:5579   */\n      dup4\n        /* \"#utility.yul\":5495:5585   */\n      tag_391\n      jump\t// in\n    tag_390:\n        /* \"#utility.yul\":5617:5621   */\n      0x40\n        /* \"#utility.yul\":5612:5615   */\n      dup4\n        /* \"#utility.yul\":5608:5622   */\n      add\n        /* \"#utility.yul\":5594:5622   */\n      swap1\n      pop\n        /* \"#utility.yul\":5485:5628   */\n      swap3\n      swap2\n      pop\n      pop\n      jump\t// out\n        /* \"#utility.yul\":5634:5742   */\n    tag_392:\n        /* \"#utility.yul\":5711:5735   */\n      tag_394\n        /* \"#utility.yul\":5729:5734   */\n      dup2\n        /* \"#utility.yul\":5711:5735   */\n      tag_395\n      jump\t// in\n    tag_394:\n        /* \"#utility.yul\":5706:5709   */\n      dup3\n        /* \"#utility.yul\":5699:5736   */\n      mstore\n        /* \"#utility.yul\":5689:5742   */\n      pop\n      pop\n      jump\t// out\n        /* \"#utility.yul\":5748:5866   */\n    tag_396:\n        /* \"#utility.yul\":5835:5859   */\n      tag_398\n        /* \"#utility.yul\":5853:5858   */\n      dup2\n        /* \"#utility.yul\":5835:5859   */\n      tag_395\n      jump\t// in\n    tag_398:\n        /* \"#utility.yul\":5830:5833   */\n      dup3\n        /* \"#utility.yul\":5823:5860   */\n      mstore\n        /* \"#utility.yul\":5813:5866   */\n      pop\n      pop\n      jump\t// out\n        /* \"#utility.yul\":5920:6828   */\n    tag_399:\n      0x00\n        /* \"#utility.yul\":6112:6188   */\n      tag_401\n        /* \"#utility.yul\":6182:6187   */\n      dup3\n        /* \"#utility.yul\":6112:6188   */\n      tag_402\n      jump\t// in\n    tag_401:\n        /* \"#utility.yul\":6204:6312   */\n      tag_403\n        /* \"#utility.yul\":6305:6311   */\n      dup2\n        /* \"#utility.yul\":6300:6303   */\n      dup6\n        /* \"#utility.yul\":6204:6312   */\n      tag_404\n      jump\t// in\n    tag_403:\n        /* \"#utility.yul\":6197:6312   */\n      swap4\n      pop\n        /* \"#utility.yul\":6336:6414   */\n      tag_405\n        /* \"#utility.yul\":6408:6413   */\n      dup4\n        /* \"#utility.yul\":6336:6414   */\n      tag_406\n      jump\t// in\n    tag_405:\n        /* \"#utility.yul\":6437:6444   */\n      dup1\n        /* \"#utility.yul\":6468:6469   */\n      0x00\n        /* \"#utility.yul\":6453:6803   */\n    tag_407:\n        /* \"#utility.yul\":6478:6484   */\n      dup4\n        /* \"#utility.yul\":6475:6476   */\n      dup2\n        /* \"#utility.yul\":6472:6485   */\n      lt\n        /* \"#utility.yul\":6453:6803   */\n      iszero\n      tag_409\n      jumpi\n        /* \"#utility.yul\":6554:6560   */\n      dup2\n        /* \"#utility.yul\":6548:6561   */\n      mload\n        /* \"#utility.yul\":6581:6688   */\n      tag_410\n        /* \"#utility.yul\":6684:6687   */\n      dup9\n        /* \"#utility.yul\":6669:6682   */\n      dup3\n        /* \"#utility.yul\":6581:6688   */\n      tag_384\n      jump\t// in\n    tag_410:\n        /* \"#utility.yul\":6574:6688   */\n      swap8\n      pop\n        /* \"#utility.yul\":6711:6793   */\n      tag_411\n        /* \"#utility.yul\":6786:6792   */\n      dup4\n        /* \"#utility.yul\":6711:6793   */\n      tag_412\n      jump\t// in\n    tag_411:\n        /* \"#utility.yul\":6701:6793   */\n      swap3\n      pop\n        /* \"#utility.yul\":6513:6803   */\n      pop\n        /* \"#utility.yul\":6500:6501   */\n      0x01\n        /* \"#utility.yul\":6497:6498   */\n      dup2\n        /* \"#utility.yul\":6493:6502   */\n      add\n        /* \"#utility.yul\":6488:6502   */\n      swap1\n      pop\n        /* \"#utility.yul\":6453:6803   */\n      jump(tag_407)\n    tag_409:\n        /* \"#utility.yul\":6457:6471   */\n      pop\n        /* \"#utility.yul\":6819:6822   */\n      dup6\n        /* \"#utility.yul\":6812:6822   */\n      swap4\n      pop\n        /* \"#utility.yul\":6088:6828   */\n      pop\n      pop\n      pop\n      swap3\n      swap2\n      pop\n      pop\n      jump\t// out\n        /* \"#utility.yul\":6882:7790   */\n    tag_413:\n      0x00\n        /* \"#utility.yul\":7074:7150   */\n      tag_415\n        /* \"#utility.yul\":7144:7149   */\n      dup3\n        /* \"#utility.yul\":7074:7150   */\n      tag_416\n      jump\t// in\n    tag_415:\n        /* \"#utility.yul\":7166:7274   */\n      tag_417\n        /* \"#utility.yul\":7267:7273   */\n      dup2\n        /* \"#utility.yul\":7262:7265   */\n      dup6\n        /* \"#utility.yul\":7166:7274   */\n      tag_418\n      jump\t// in\n    tag_417:\n        /* \"#utility.yul\":7159:7274   */\n      swap4\n      pop\n        /* \"#utility.yul\":7298:7376   */\n      tag_419\n        /* \"#utility.yul\":7370:7375   */\n      dup4\n        /* \"#utility.yul\":7298:7376   */\n      tag_420\n      jump\t// in\n    tag_419:\n        /* \"#utility.yul\":7399:7406   */\n      dup1\n        /* \"#utility.yul\":7430:7431   */\n      0x00\n        /* \"#utility.yul\":7415:7765   */\n    tag_421:\n        /* \"#utility.yul\":7440:7446   */\n      dup4\n        /* \"#utility.yul\":7437:7438   */\n      dup2\n        /* \"#utility.yul\":7434:7447   */\n      lt\n        /* \"#utility.yul\":7415:7765   */\n      iszero\n      tag_423\n      jumpi\n        /* \"#utility.yul\":7516:7522   */\n      dup2\n        /* \"#utility.yul\":7510:7523   */\n      mload\n        /* \"#utility.yul\":7543:7650   */\n      tag_424\n        /* \"#utility.yul\":7646:7649   */\n      dup9\n        /* \"#utility.yul\":7631:7644   */\n      dup3\n        /* \"#utility.yul\":7543:7650   */\n      tag_388\n      jump\t// in\n    tag_424:\n        /* \"#utility.yul\":7536:7650   */\n      swap8\n      pop\n        /* \"#utility.yul\":7673:7755   */\n      tag_425\n        /* \"#utility.yul\":7748:7754   */\n      dup4\n        /* \"#utility.yul\":7673:7755   */\n      tag_426\n      jump\t// in\n    tag_425:\n        /* \"#utility.yul\":7663:7755   */\n      swap3\n      pop\n        /* \"#utility.yul\":7475:7765   */\n      pop\n        /* \"#utility.yul\":7462:7463   */\n      0x01\n        /* \"#utility.yul\":7459:7460   */\n      dup2\n        /* \"#utility.yul\":7455:7464   */\n      add\n        /* \"#utility.yul\":7450:7464   */\n      swap1\n      pop\n        /* \"#utility.yul\":7415:7765   */\n      jump(tag_421)\n    tag_423:\n        /* \"#utility.yul\":7419:7433   */\n      pop\n        /* \"#utility.yul\":7781:7784   */\n      dup6\n        /* \"#utility.yul\":7774:7784   */\n      swap4\n      pop\n        /* \"#utility.yul\":7050:7790   */\n      pop\n      pop\n      pop\n      swap3\n      swap2\n      pop\n      pop\n      jump\t// out\n        /* \"#utility.yul\":7796:7904   */\n    tag_427:\n        /* \"#utility.yul\":7873:7897   */\n      tag_429\n        /* \"#utility.yul\":7891:7896   */\n      dup2\n        /* \"#utility.yul\":7873:7897   */\n      tag_430\n      jump\t// in\n    tag_429:\n        /* \"#utility.yul\":7868:7871   */\n      dup3\n        /* \"#utility.yul\":7861:7898   */\n      mstore\n        /* \"#utility.yul\":7851:7904   */\n      pop\n      pop\n      jump\t// out\n        /* \"#utility.yul\":7910:8028   */\n    tag_431:\n        /* \"#utility.yul\":7997:8021   */\n      tag_433\n        /* \"#utility.yul\":8015:8020   */\n      dup2\n        /* \"#utility.yul\":7997:8021   */\n      tag_430\n      jump\t// in\n    tag_433:\n        /* \"#utility.yul\":7992:7995   */\n      dup3\n        /* \"#utility.yul\":7985:8022   */\n      mstore\n        /* \"#utility.yul\":7975:8028   */\n      pop\n      pop\n      jump\t// out\n        /* \"#utility.yul\":8034:8167   */\n    tag_434:\n        /* \"#utility.yul\":8117:8160   */\n      tag_436\n        /* \"#utility.yul\":8154:8159   */\n      dup2\n        /* \"#utility.yul\":8117:8160   */\n      tag_437\n      jump\t// in\n    tag_436:\n        /* \"#utility.yul\":8112:8115   */\n      dup3\n        /* \"#utility.yul\":8105:8161   */\n      mstore\n        /* \"#utility.yul\":8095:8167   */\n      pop\n      pop\n      jump\t// out\n        /* \"#utility.yul\":8173:8316   */\n    tag_438:\n        /* \"#utility.yul\":8266:8309   */\n      tag_440\n        /* \"#utility.yul\":8303:8308   */\n      dup2\n        /* \"#utility.yul\":8266:8309   */\n      tag_437\n      jump\t// in\n    tag_440:\n        /* \"#utility.yul\":8261:8264   */\n      dup3\n        /* \"#utility.yul\":8254:8310   */\n      mstore\n        /* \"#utility.yul\":8244:8316   */\n      pop\n      pop\n      jump\t// out\n        /* \"#utility.yul\":8322:8635   */\n    tag_441:\n      0x00\n        /* \"#utility.yul\":8485:8552   */\n      tag_443\n        /* \"#utility.yul\":8549:8551   */\n      0x0f\n        /* \"#utility.yul\":8544:8547   */\n      dup4\n        /* \"#utility.yul\":8485:8552   */\n      tag_444\n      jump\t// in\n    tag_443:\n        /* \"#utility.yul\":8478:8552   */\n      swap2\n      pop\n        /* \"#utility.yul\":8582:8599   */\n      0x42616c616e636520746f6f206c6f770000000000000000000000000000000000\n        /* \"#utility.yul\":8578:8579   */\n      0x00\n        /* \"#utility.yul\":8573:8576   */\n      dup4\n        /* \"#utility.yul\":8569:8580   */\n      add\n        /* \"#utility.yul\":8562:8600   */\n      mstore\n        /* \"#utility.yul\":8626:8628   */\n      0x20\n        /* \"#utility.yul\":8621:8624   */\n      dup3\n        /* \"#utility.yul\":8617:8629   */\n      add\n        /* \"#utility.yul\":8610:8629   */\n      swap1\n      pop\n        /* \"#utility.yul\":8468:8635   */\n      swap2\n      swap1\n      pop\n      jump\t// out\n        /* \"#utility.yul\":8641:8949   */\n    tag_445:\n      0x00\n        /* \"#utility.yul\":8804:8871   */\n      tag_447\n        /* \"#utility.yul\":8868:8870   */\n      0x0a\n        /* \"#utility.yul\":8863:8866   */\n      dup4\n        /* \"#utility.yul\":8804:8871   */\n      tag_444\n      jump\t// in\n    tag_447:\n        /* \"#utility.yul\":8797:8871   */\n      swap2\n      pop\n        /* \"#utility.yul\":8901:8913   */\n      0x4f6e6c792061646d696e00000000000000000000000000000000000000000000\n        /* \"#utility.yul\":8897:8898   */\n      0x00\n        /* \"#utility.yul\":8892:8895   */\n      dup4\n        /* \"#utility.yul\":8888:8899   */\n      add\n        /* \"#utility.yul\":8881:8914   */\n      mstore\n        /* \"#utility.yul\":8940:8942   */\n      0x20\n        /* \"#utility.yul\":8935:8938   */\n      dup3\n        /* \"#utility.yul\":8931:8943   */\n      add\n        /* \"#utility.yul\":8924:8943   */\n      swap1\n      pop\n        /* \"#utility.yul\":8787:8949   */\n      swap2\n      swap1\n      pop\n      jump\t// out\n        /* \"#utility.yul\":8955:9272   */\n    tag_448:\n      0x00\n        /* \"#utility.yul\":9118:9185   */\n      tag_450\n        /* \"#utility.yul\":9182:9184   */\n      0x13\n        /* \"#utility.yul\":9177:9180   */\n      dup4\n        /* \"#utility.yul\":9118:9185   */\n      tag_444\n      jump\t// in\n    tag_450:\n        /* \"#utility.yul\":9111:9185   */\n      swap2\n      pop\n        /* \"#utility.yul\":9215:9236   */\n      0x4441492062616c616e636520746f6f206c6f7700000000000000000000000000\n        /* \"#utility.yul\":9211:9212   */\n      0x00\n        /* \"#utility.yul\":9206:9209   */\n      dup4\n        /* \"#utility.yul\":9202:9213   */\n      add\n        /* \"#utility.yul\":9195:9237   */\n      mstore\n        /* \"#utility.yul\":9263:9265   */\n      0x20\n        /* \"#utility.yul\":9258:9261   */\n      dup3\n        /* \"#utility.yul\":9254:9266   */\n      add\n        /* \"#utility.yul\":9247:9266   */\n      swap1\n      pop\n        /* \"#utility.yul\":9101:9272   */\n      swap2\n      swap1\n      pop\n      jump\t// out\n        /* \"#utility.yul\":9278:9601   */\n    tag_451:\n      0x00\n        /* \"#utility.yul\":9441:9508   */\n      tag_453\n        /* \"#utility.yul\":9505:9507   */\n      0x19\n        /* \"#utility.yul\":9500:9503   */\n      dup4\n        /* \"#utility.yul\":9441:9508   */\n      tag_444\n      jump\t// in\n    tag_453:\n        /* \"#utility.yul\":9434:9508   */\n      swap2\n      pop\n        /* \"#utility.yul\":9538:9565   */\n      0x5468697320746f6b656e20646f6573206e6f7420657869737400000000000000\n        /* \"#utility.yul\":9534:9535   */\n      0x00\n        /* \"#utility.yul\":9529:9532   */\n      dup4\n        /* \"#utility.yul\":9525:9536   */\n      add\n        /* \"#utility.yul\":9518:9566   */\n      mstore\n        /* \"#utility.yul\":9592:9594   */\n      0x20\n        /* \"#utility.yul\":9587:9590   */\n      dup3\n        /* \"#utility.yul\":9583:9595   */\n      add\n        /* \"#utility.yul\":9576:9595   */\n      swap1\n      pop\n        /* \"#utility.yul\":9424:9601   */\n      swap2\n      swap1\n      pop\n      jump\t// out\n        /* \"#utility.yul\":9607:9926   */\n    tag_454:\n      0x00\n        /* \"#utility.yul\":9770:9837   */\n      tag_456\n        /* \"#utility.yul\":9834:9836   */\n      0x15\n        /* \"#utility.yul\":9829:9832   */\n      dup4\n        /* \"#utility.yul\":9770:9837   */\n      tag_444\n      jump\t// in\n    tag_456:\n        /* \"#utility.yul\":9763:9837   */\n      swap2\n      pop\n        /* \"#utility.yul\":9867:9890   */\n      0x546f6b656e2062616c616e636520746f6f206c6f770000000000000000000000\n        /* \"#utility.yul\":9863:9864   */\n      0x00\n        /* \"#utility.yul\":9858:9861   */\n      dup4\n        /* \"#utility.yul\":9854:9865   */\n      add\n        /* \"#utility.yul\":9847:9891   */\n      mstore\n        /* \"#utility.yul\":9917:9919   */\n      0x20\n        /* \"#utility.yul\":9912:9915   */\n      dup3\n        /* \"#utility.yul\":9908:9920   */\n      add\n        /* \"#utility.yul\":9901:9920   */\n      swap1\n      pop\n        /* \"#utility.yul\":9753:9926   */\n      swap2\n      swap1\n      pop\n      jump\t// out\n        /* \"#utility.yul\":9932:10246   */\n    tag_457:\n      0x00\n        /* \"#utility.yul\":10095:10162   */\n      tag_459\n        /* \"#utility.yul\":10159:10161   */\n      0x10\n        /* \"#utility.yul\":10154:10157   */\n      dup4\n        /* \"#utility.yul\":10095:10162   */\n      tag_444\n      jump\t// in\n    tag_459:\n        /* \"#utility.yul\":10088:10162   */\n      swap2\n      pop\n        /* \"#utility.yul\":10192:10210   */\n      0x43616e6e6f742074726164652044414900000000000000000000000000000000\n        /* \"#utility.yul\":10188:10189   */\n      0x00\n        /* \"#utility.yul\":10183:10186   */\n      dup4\n        /* \"#utility.yul\":10179:10190   */\n      add\n        /* \"#utility.yul\":10172:10211   */\n      mstore\n        /* \"#utility.yul\":10237:10239   */\n      0x20\n        /* \"#utility.yul\":10232:10235   */\n      dup3\n        /* \"#utility.yul\":10228:10240   */\n      add\n        /* \"#utility.yul\":10221:10240   */\n      swap1\n      pop\n        /* \"#utility.yul\":10078:10246   */\n      swap2\n      swap1\n      pop\n      jump\t// out\n        /* \"#utility.yul\":10296:11846   */\n    tag_387:\n        /* \"#utility.yul\":10427:10433   */\n      0x0100\n        /* \"#utility.yul\":10422:10425   */\n      dup3\n        /* \"#utility.yul\":10418:10434   */\n      add\n        /* \"#utility.yul\":10514:10518   */\n      0x00\n        /* \"#utility.yul\":10507:10512   */\n      dup3\n        /* \"#utility.yul\":10503:10519   */\n      add\n        /* \"#utility.yul\":10497:10520   */\n      mload\n        /* \"#utility.yul\":10533:10596   */\n      tag_461\n        /* \"#utility.yul\":10590:10594   */\n      0x00\n        /* \"#utility.yul\":10585:10588   */\n      dup6\n        /* \"#utility.yul\":10581:10595   */\n      add\n        /* \"#utility.yul\":10567:10579   */\n      dup3\n        /* \"#utility.yul\":10533:10596   */\n      tag_462\n      jump\t// in\n    tag_461:\n        /* \"#utility.yul\":10444:10606   */\n      pop\n        /* \"#utility.yul\":10690:10694   */\n      0x20\n        /* \"#utility.yul\":10683:10688   */\n      dup3\n        /* \"#utility.yul\":10679:10695   */\n      add\n        /* \"#utility.yul\":10673:10696   */\n      mload\n        /* \"#utility.yul\":10709:10772   */\n      tag_463\n        /* \"#utility.yul\":10766:10770   */\n      0x20\n        /* \"#utility.yul\":10761:10764   */\n      dup6\n        /* \"#utility.yul\":10757:10771   */\n      add\n        /* \"#utility.yul\":10743:10755   */\n      dup3\n        /* \"#utility.yul\":10709:10772   */\n      tag_392\n      jump\t// in\n    tag_463:\n        /* \"#utility.yul\":10616:10782   */\n      pop\n        /* \"#utility.yul\":10864:10868   */\n      0x40\n        /* \"#utility.yul\":10857:10862   */\n      dup3\n        /* \"#utility.yul\":10853:10869   */\n      add\n        /* \"#utility.yul\":10847:10870   */\n      mload\n        /* \"#utility.yul\":10883:10952   */\n      tag_464\n        /* \"#utility.yul\":10946:10950   */\n      0x40\n        /* \"#utility.yul\":10941:10944   */\n      dup6\n        /* \"#utility.yul\":10937:10951   */\n      add\n        /* \"#utility.yul\":10923:10935   */\n      dup3\n        /* \"#utility.yul\":10883:10952   */\n      tag_434\n      jump\t// in\n    tag_464:\n        /* \"#utility.yul\":10792:10962   */\n      pop\n        /* \"#utility.yul\":11046:11050   */\n      0x60\n        /* \"#utility.yul\":11039:11044   */\n      dup3\n        /* \"#utility.yul\":11035:11051   */\n      add\n        /* \"#utility.yul\":11029:11052   */\n      mload\n        /* \"#utility.yul\":11065:11128   */\n      tag_465\n        /* \"#utility.yul\":11122:11126   */\n      0x60\n        /* \"#utility.yul\":11117:11120   */\n      dup6\n        /* \"#utility.yul\":11113:11127   */\n      add\n        /* \"#utility.yul\":11099:11111   */\n      dup3\n        /* \"#utility.yul\":11065:11128   */\n      tag_427\n      jump\t// in\n    tag_465:\n        /* \"#utility.yul\":10972:11138   */\n      pop\n        /* \"#utility.yul\":11222:11226   */\n      0x80\n        /* \"#utility.yul\":11215:11220   */\n      dup3\n        /* \"#utility.yul\":11211:11227   */\n      add\n        /* \"#utility.yul\":11205:11228   */\n      mload\n        /* \"#utility.yul\":11241:11304   */\n      tag_466\n        /* \"#utility.yul\":11298:11302   */\n      0x80\n        /* \"#utility.yul\":11293:11296   */\n      dup6\n        /* \"#utility.yul\":11289:11303   */\n      add\n        /* \"#utility.yul\":11275:11287   */\n      dup3\n        /* \"#utility.yul\":11241:11304   */\n      tag_462\n      jump\t// in\n    tag_466:\n        /* \"#utility.yul\":11148:11314   */\n      pop\n        /* \"#utility.yul\":11398:11402   */\n      0xa0\n        /* \"#utility.yul\":11391:11396   */\n      dup3\n        /* \"#utility.yul\":11387:11403   */\n      add\n        /* \"#utility.yul\":11381:11404   */\n      mload\n        /* \"#utility.yul\":11417:11480   */\n      tag_467\n        /* \"#utility.yul\":11474:11478   */\n      0xa0\n        /* \"#utility.yul\":11469:11472   */\n      dup6\n        /* \"#utility.yul\":11465:11479   */\n      add\n        /* \"#utility.yul\":11451:11463   */\n      dup3\n        /* \"#utility.yul\":11417:11480   */\n      tag_462\n      jump\t// in\n    tag_467:\n        /* \"#utility.yul\":11324:11490   */\n      pop\n        /* \"#utility.yul\":11573:11577   */\n      0xc0\n        /* \"#utility.yul\":11566:11571   */\n      dup3\n        /* \"#utility.yul\":11562:11578   */\n      add\n        /* \"#utility.yul\":11556:11579   */\n      mload\n        /* \"#utility.yul\":11592:11655   */\n      tag_468\n        /* \"#utility.yul\":11649:11653   */\n      0xc0\n        /* \"#utility.yul\":11644:11647   */\n      dup6\n        /* \"#utility.yul\":11640:11654   */\n      add\n        /* \"#utility.yul\":11626:11638   */\n      dup3\n        /* \"#utility.yul\":11592:11655   */\n      tag_462\n      jump\t// in\n    tag_468:\n        /* \"#utility.yul\":11500:11665   */\n      pop\n        /* \"#utility.yul\":11747:11751   */\n      0xe0\n        /* \"#utility.yul\":11740:11745   */\n      dup3\n        /* \"#utility.yul\":11736:11752   */\n      add\n        /* \"#utility.yul\":11730:11753   */\n      mload\n        /* \"#utility.yul\":11766:11829   */\n      tag_469\n        /* \"#utility.yul\":11823:11827   */\n      0xe0\n        /* \"#utility.yul\":11818:11821   */\n      dup6\n        /* \"#utility.yul\":11814:11828   */\n      add\n        /* \"#utility.yul\":11800:11812   */\n      dup3\n        /* \"#utility.yul\":11766:11829   */\n      tag_462\n      jump\t// in\n    tag_469:\n        /* \"#utility.yul\":11675:11839   */\n      pop\n        /* \"#utility.yul\":10396:11846   */\n      pop\n      pop\n      pop\n      jump\t// out\n        /* \"#utility.yul\":11896:12397   */\n    tag_391:\n        /* \"#utility.yul\":12027:12031   */\n      0x40\n        /* \"#utility.yul\":12022:12025   */\n      dup3\n        /* \"#utility.yul\":12018:12032   */\n      add\n        /* \"#utility.yul\":12116:12120   */\n      0x00\n        /* \"#utility.yul\":12109:12114   */\n      dup3\n        /* \"#utility.yul\":12105:12121   */\n      add\n        /* \"#utility.yul\":12099:12122   */\n      mload\n        /* \"#utility.yul\":12135:12198   */\n      tag_471\n        /* \"#utility.yul\":12192:12196   */\n      0x00\n        /* \"#utility.yul\":12187:12190   */\n      dup6\n        /* \"#utility.yul\":12183:12197   */\n      add\n        /* \"#utility.yul\":12169:12181   */\n      dup3\n        /* \"#utility.yul\":12135:12198   */\n      tag_427\n      jump\t// in\n    tag_471:\n        /* \"#utility.yul\":12042:12208   */\n      pop\n        /* \"#utility.yul\":12298:12302   */\n      0x20\n        /* \"#utility.yul\":12291:12296   */\n      dup3\n        /* \"#utility.yul\":12287:12303   */\n      add\n        /* \"#utility.yul\":12281:12304   */\n      mload\n        /* \"#utility.yul\":12317:12380   */\n      tag_472\n        /* \"#utility.yul\":12374:12378   */\n      0x20\n        /* \"#utility.yul\":12369:12372   */\n      dup6\n        /* \"#utility.yul\":12365:12379   */\n      add\n        /* \"#utility.yul\":12351:12363   */\n      dup3\n        /* \"#utility.yul\":12317:12380   */\n      tag_392\n      jump\t// in\n    tag_472:\n        /* \"#utility.yul\":12218:12390   */\n      pop\n        /* \"#utility.yul\":11996:12397   */\n      pop\n      pop\n      pop\n      jump\t// out\n        /* \"#utility.yul\":12403:12511   */\n    tag_462:\n        /* \"#utility.yul\":12480:12504   */\n      tag_474\n        /* \"#utility.yul\":12498:12503   */\n      dup2\n        /* \"#utility.yul\":12480:12504   */\n      tag_475\n      jump\t// in\n    tag_474:\n        /* \"#utility.yul\":12475:12478   */\n      dup3\n        /* \"#utility.yul\":12468:12505   */\n      mstore\n        /* \"#utility.yul\":12458:12511   */\n      pop\n      pop\n      jump\t// out\n        /* \"#utility.yul\":12517:12635   */\n    tag_476:\n        /* \"#utility.yul\":12604:12628   */\n      tag_478\n        /* \"#utility.yul\":12622:12627   */\n      dup2\n        /* \"#utility.yul\":12604:12628   */\n      tag_475\n      jump\t// in\n    tag_478:\n        /* \"#utility.yul\":12599:12602   */\n      dup3\n        /* \"#utility.yul\":12592:12629   */\n      mstore\n        /* \"#utility.yul\":12582:12635   */\n      pop\n      pop\n      jump\t// out\n        /* \"#utility.yul\":12641:12863   */\n    tag_77:\n      0x00\n        /* \"#utility.yul\":12772:12774   */\n      0x20\n        /* \"#utility.yul\":12761:12770   */\n      dup3\n        /* \"#utility.yul\":12757:12775   */\n      add\n        /* \"#utility.yul\":12749:12775   */\n      swap1\n      pop\n        /* \"#utility.yul\":12785:12856   */\n      tag_480\n        /* \"#utility.yul\":12853:12854   */\n      0x00\n        /* \"#utility.yul\":12842:12851   */\n      dup4\n        /* \"#utility.yul\":12838:12855   */\n      add\n        /* \"#utility.yul\":12829:12835   */\n      dup5\n        /* \"#utility.yul\":12785:12856   */\n      tag_396\n      jump\t// in\n    tag_480:\n        /* \"#utility.yul\":12739:12863   */\n      swap3\n      swap2\n      pop\n      pop\n      jump\t// out\n        /* \"#utility.yul\":12869:13311   */\n    tag_250:\n      0x00\n        /* \"#utility.yul\":13056:13058   */\n      0x60\n        /* \"#utility.yul\":13045:13054   */\n      dup3\n        /* \"#utility.yul\":13041:13059   */\n      add\n        /* \"#utility.yul\":13033:13059   */\n      swap1\n      pop\n        /* \"#utility.yul\":13069:13140   */\n      tag_482\n        /* \"#utility.yul\":13137:13138   */\n      0x00\n        /* \"#utility.yul\":13126:13135   */\n      dup4\n        /* \"#utility.yul\":13122:13139   */\n      add\n        /* \"#utility.yul\":13113:13119   */\n      dup7\n        /* \"#utility.yul\":13069:13140   */\n      tag_396\n      jump\t// in\n    tag_482:\n        /* \"#utility.yul\":13150:13222   */\n      tag_483\n        /* \"#utility.yul\":13218:13220   */\n      0x20\n        /* \"#utility.yul\":13207:13216   */\n      dup4\n        /* \"#utility.yul\":13203:13221   */\n      add\n        /* \"#utility.yul\":13194:13200   */\n      dup6\n        /* \"#utility.yul\":13150:13222   */\n      tag_396\n      jump\t// in\n    tag_483:\n        /* \"#utility.yul\":13232:13304   */\n      tag_484\n        /* \"#utility.yul\":13300:13302   */\n      0x40\n        /* \"#utility.yul\":13289:13298   */\n      dup4\n        /* \"#utility.yul\":13285:13303   */\n      add\n        /* \"#utility.yul\":13276:13282   */\n      dup5\n        /* \"#utility.yul\":13232:13304   */\n      tag_476\n      jump\t// in\n    tag_484:\n        /* \"#utility.yul\":13023:13311   */\n      swap5\n      swap4\n      pop\n      pop\n      pop\n      pop\n      jump\t// out\n        /* \"#utility.yul\":13317:13649   */\n    tag_224:\n      0x00\n        /* \"#utility.yul\":13476:13478   */\n      0x40\n        /* \"#utility.yul\":13465:13474   */\n      dup3\n        /* \"#utility.yul\":13461:13479   */\n      add\n        /* \"#utility.yul\":13453:13479   */\n      swap1\n      pop\n        /* \"#utility.yul\":13489:13560   */\n      tag_486\n        /* \"#utility.yul\":13557:13558   */\n      0x00\n        /* \"#utility.yul\":13546:13555   */\n      dup4\n        /* \"#utility.yul\":13542:13559   */\n      add\n        /* \"#utility.yul\":13533:13539   */\n      dup6\n        /* \"#utility.yul\":13489:13560   */\n      tag_396\n      jump\t// in\n    tag_486:\n        /* \"#utility.yul\":13570:13642   */\n      tag_487\n        /* \"#utility.yul\":13638:13640   */\n      0x20\n        /* \"#utility.yul\":13627:13636   */\n      dup4\n        /* \"#utility.yul\":13623:13641   */\n      add\n        /* \"#utility.yul\":13614:13620   */\n      dup5\n        /* \"#utility.yul\":13570:13642   */\n      tag_476\n      jump\t// in\n    tag_487:\n        /* \"#utility.yul\":13443:13649   */\n      swap4\n      swap3\n      pop\n      pop\n      pop\n      jump\t// out\n        /* \"#utility.yul\":13655:14116   */\n    tag_33:\n      0x00\n        /* \"#utility.yul\":13880:13882   */\n      0x20\n        /* \"#utility.yul\":13869:13878   */\n      dup3\n        /* \"#utility.yul\":13865:13883   */\n      add\n        /* \"#utility.yul\":13857:13883   */\n      swap1\n      pop\n        /* \"#utility.yul\":13929:13938   */\n      dup2\n        /* \"#utility.yul\":13923:13927   */\n      dup2\n        /* \"#utility.yul\":13919:13939   */\n      sub\n        /* \"#utility.yul\":13915:13916   */\n      0x00\n        /* \"#utility.yul\":13904:13913   */\n      dup4\n        /* \"#utility.yul\":13900:13917   */\n      add\n        /* \"#utility.yul\":13893:13940   */\n      mstore\n        /* \"#utility.yul\":13957:14109   */\n      tag_489\n        /* \"#utility.yul\":14104:14108   */\n      dup2\n        /* \"#utility.yul\":14095:14101   */\n      dup5\n        /* \"#utility.yul\":13957:14109   */\n      tag_399\n      jump\t// in\n    tag_489:\n        /* \"#utility.yul\":13949:14109   */\n      swap1\n      pop\n        /* \"#utility.yul\":13847:14116   */\n      swap3\n      swap2\n      pop\n      pop\n      jump\t// out\n        /* \"#utility.yul\":14122:14583   */\n    tag_66:\n      0x00\n        /* \"#utility.yul\":14347:14349   */\n      0x20\n        /* \"#utility.yul\":14336:14345   */\n      dup3\n        /* \"#utility.yul\":14332:14350   */\n      add\n        /* \"#utility.yul\":14324:14350   */\n      swap1\n      pop\n        /* \"#utility.yul\":14396:14405   */\n      dup2\n        /* \"#utility.yul\":14390:14394   */\n      dup2\n        /* \"#utility.yul\":14386:14406   */\n      sub\n        /* \"#utility.yul\":14382:14383   */\n      0x00\n        /* \"#utility.yul\":14371:14380   */\n      dup4\n        /* \"#utility.yul\":14367:14384   */\n      add\n        /* \"#utility.yul\":14360:14407   */\n      mstore\n        /* \"#utility.yul\":14424:14576   */\n      tag_491\n        /* \"#utility.yul\":14571:14575   */\n      dup2\n        /* \"#utility.yul\":14562:14568   */\n      dup5\n        /* \"#utility.yul\":14424:14576   */\n      tag_413\n      jump\t// in\n    tag_491:\n        /* \"#utility.yul\":14416:14576   */\n      swap1\n      pop\n        /* \"#utility.yul\":14314:14583   */\n      swap3\n      swap2\n      pop\n      pop\n      jump\t// out\n        /* \"#utility.yul\":14589:14811   */\n    tag_58:\n      0x00\n        /* \"#utility.yul\":14720:14722   */\n      0x20\n        /* \"#utility.yul\":14709:14718   */\n      dup3\n        /* \"#utility.yul\":14705:14723   */\n      add\n        /* \"#utility.yul\":14697:14723   */\n      swap1\n      pop\n        /* \"#utility.yul\":14733:14804   */\n      tag_493\n        /* \"#utility.yul\":14801:14802   */\n      0x00\n        /* \"#utility.yul\":14790:14799   */\n      dup4\n        /* \"#utility.yul\":14786:14803   */\n      add\n        /* \"#utility.yul\":14777:14783   */\n      dup5\n        /* \"#utility.yul\":14733:14804   */\n      tag_431\n      jump\t// in\n    tag_493:\n        /* \"#utility.yul\":14687:14811   */\n      swap3\n      swap2\n      pop\n      pop\n      jump\t// out\n        /* \"#utility.yul\":14817:15149   */\n    tag_48:\n      0x00\n        /* \"#utility.yul\":14976:14978   */\n      0x40\n        /* \"#utility.yul\":14965:14974   */\n      dup3\n        /* \"#utility.yul\":14961:14979   */\n      add\n        /* \"#utility.yul\":14953:14979   */\n      swap1\n      pop\n        /* \"#utility.yul\":14989:15060   */\n      tag_495\n        /* \"#utility.yul\":15057:15058   */\n      0x00\n        /* \"#utility.yul\":15046:15055   */\n      dup4\n        /* \"#utility.yul\":15042:15059   */\n      add\n        /* \"#utility.yul\":15033:15039   */\n      dup6\n        /* \"#utility.yul\":14989:15060   */\n      tag_431\n      jump\t// in\n    tag_495:\n        /* \"#utility.yul\":15070:15142   */\n      tag_496\n        /* \"#utility.yul\":15138:15140   */\n      0x20\n        /* \"#utility.yul\":15127:15136   */\n      dup4\n        /* \"#utility.yul\":15123:15141   */\n      add\n        /* \"#utility.yul\":15114:15120   */\n      dup5\n        /* \"#utility.yul\":15070:15142   */\n      tag_396\n      jump\t// in\n    tag_496:\n        /* \"#utility.yul\":14943:15149   */\n      swap4\n      swap3\n      pop\n      pop\n      pop\n      jump\t// out\n        /* \"#utility.yul\":15155:15574   */\n    tag_221:\n      0x00\n        /* \"#utility.yul\":15359:15361   */\n      0x20\n        /* \"#utility.yul\":15348:15357   */\n      dup3\n        /* \"#utility.yul\":15344:15362   */\n      add\n        /* \"#utility.yul\":15336:15362   */\n      swap1\n      pop\n        /* \"#utility.yul\":15408:15417   */\n      dup2\n        /* \"#utility.yul\":15402:15406   */\n      dup2\n        /* \"#utility.yul\":15398:15418   */\n      sub\n        /* \"#utility.yul\":15394:15395   */\n      0x00\n        /* \"#utility.yul\":15383:15392   */\n      dup4\n        /* \"#utility.yul\":15379:15396   */\n      add\n        /* \"#utility.yul\":15372:15419   */\n      mstore\n        /* \"#utility.yul\":15436:15567   */\n      tag_498\n        /* \"#utility.yul\":15562:15566   */\n      dup2\n        /* \"#utility.yul\":15436:15567   */\n      tag_441\n      jump\t// in\n    tag_498:\n        /* \"#utility.yul\":15428:15567   */\n      swap1\n      pop\n        /* \"#utility.yul\":15326:15574   */\n      swap2\n      swap1\n      pop\n      jump\t// out\n        /* \"#utility.yul\":15580:15999   */\n    tag_210:\n      0x00\n        /* \"#utility.yul\":15784:15786   */\n      0x20\n        /* \"#utility.yul\":15773:15782   */\n      dup3\n        /* \"#utility.yul\":15769:15787   */\n      add\n        /* \"#utility.yul\":15761:15787   */\n      swap1\n      pop\n        /* \"#utility.yul\":15833:15842   */\n      dup2\n        /* \"#utility.yul\":15827:15831   */\n      dup2\n        /* \"#utility.yul\":15823:15843   */\n      sub\n        /* \"#utility.yul\":15819:15820   */\n      0x00\n        /* \"#utility.yul\":15808:15817   */\n      dup4\n        /* \"#utility.yul\":15804:15821   */\n      add\n        /* \"#utility.yul\":15797:15844   */\n      mstore\n        /* \"#utility.yul\":15861:15992   */\n      tag_500\n        /* \"#utility.yul\":15987:15991   */\n      dup2\n        /* \"#utility.yul\":15861:15992   */\n      tag_445\n      jump\t// in\n    tag_500:\n        /* \"#utility.yul\":15853:15992   */\n      swap1\n      pop\n        /* \"#utility.yul\":15751:15999   */\n      swap2\n      swap1\n      pop\n      jump\t// out\n        /* \"#utility.yul\":16005:16424   */\n    tag_162:\n      0x00\n        /* \"#utility.yul\":16209:16211   */\n      0x20\n        /* \"#utility.yul\":16198:16207   */\n      dup3\n        /* \"#utility.yul\":16194:16212   */\n      add\n        /* \"#utility.yul\":16186:16212   */\n      swap1\n      pop\n        /* \"#utility.yul\":16258:16267   */\n      dup2\n        /* \"#utility.yul\":16252:16256   */\n      dup2\n        /* \"#utility.yul\":16248:16268   */\n      sub\n        /* \"#utility.yul\":16244:16245   */\n      0x00\n        /* \"#utility.yul\":16233:16242   */\n      dup4\n        /* \"#utility.yul\":16229:16246   */\n      add\n        /* \"#utility.yul\":16222:16269   */\n      mstore\n        /* \"#utility.yul\":16286:16417   */\n      tag_502\n        /* \"#utility.yul\":16412:16416   */\n      dup2\n        /* \"#utility.yul\":16286:16417   */\n      tag_448\n      jump\t// in\n    tag_502:\n        /* \"#utility.yul\":16278:16417   */\n      swap1\n      pop\n        /* \"#utility.yul\":16176:16424   */\n      swap2\n      swap1\n      pop\n      jump\t// out\n        /* \"#utility.yul\":16430:16849   */\n    tag_90:\n      0x00\n        /* \"#utility.yul\":16634:16636   */\n      0x20\n        /* \"#utility.yul\":16623:16632   */\n      dup3\n        /* \"#utility.yul\":16619:16637   */\n      add\n        /* \"#utility.yul\":16611:16637   */\n      swap1\n      pop\n        /* \"#utility.yul\":16683:16692   */\n      dup2\n        /* \"#utility.yul\":16677:16681   */\n      dup2\n        /* \"#utility.yul\":16673:16693   */\n      sub\n        /* \"#utility.yul\":16669:16670   */\n      0x00\n        /* \"#utility.yul\":16658:16667   */\n      dup4\n        /* \"#utility.yul\":16654:16671   */\n      add\n        /* \"#utility.yul\":16647:16694   */\n      mstore\n        /* \"#utility.yul\":16711:16842   */\n      tag_504\n        /* \"#utility.yul\":16837:16841   */\n      dup2\n        /* \"#utility.yul\":16711:16842   */\n      tag_451\n      jump\t// in\n    tag_504:\n        /* \"#utility.yul\":16703:16842   */\n      swap1\n      pop\n        /* \"#utility.yul\":16601:16849   */\n      swap2\n      swap1\n      pop\n      jump\t// out\n        /* \"#utility.yul\":16855:17274   */\n    tag_101:\n      0x00\n        /* \"#utility.yul\":17059:17061   */\n      0x20\n        /* \"#utility.yul\":17048:17057   */\n      dup3\n        /* \"#utility.yul\":17044:17062   */\n      add\n        /* \"#utility.yul\":17036:17062   */\n      swap1\n      pop\n        /* \"#utility.yul\":17108:17117   */\n      dup2\n        /* \"#utility.yul\":17102:17106   */\n      dup2\n        /* \"#utility.yul\":17098:17118   */\n      sub\n        /* \"#utility.yul\":17094:17095   */\n      0x00\n        /* \"#utility.yul\":17083:17092   */\n      dup4\n        /* \"#utility.yul\":17079:17096   */\n      add\n        /* \"#utility.yul\":17072:17119   */\n      mstore\n        /* \"#utility.yul\":17136:17267   */\n      tag_506\n        /* \"#utility.yul\":17262:17266   */\n      dup2\n        /* \"#utility.yul\":17136:17267   */\n      tag_454\n      jump\t// in\n    tag_506:\n        /* \"#utility.yul\":17128:17267   */\n      swap1\n      pop\n        /* \"#utility.yul\":17026:17274   */\n      swap2\n      swap1\n      pop\n      jump\t// out\n        /* \"#utility.yul\":17280:17699   */\n    tag_94:\n      0x00\n        /* \"#utility.yul\":17484:17486   */\n      0x20\n        /* \"#utility.yul\":17473:17482   */\n      dup3\n        /* \"#utility.yul\":17469:17487   */\n      add\n        /* \"#utility.yul\":17461:17487   */\n      swap1\n      pop\n        /* \"#utility.yul\":17533:17542   */\n      dup2\n        /* \"#utility.yul\":17527:17531   */\n      dup2\n        /* \"#utility.yul\":17523:17543   */\n      sub\n        /* \"#utility.yul\":17519:17520   */\n      0x00\n        /* \"#utility.yul\":17508:17517   */\n      dup4\n        /* \"#utility.yul\":17504:17521   */\n      add\n        /* \"#utility.yul\":17497:17544   */\n      mstore\n        /* \"#utility.yul\":17561:17692   */\n      tag_508\n        /* \"#utility.yul\":17687:17691   */\n      dup2\n        /* \"#utility.yul\":17561:17692   */\n      tag_457\n      jump\t// in\n    tag_508:\n        /* \"#utility.yul\":17553:17692   */\n      swap1\n      pop\n        /* \"#utility.yul\":17451:17699   */\n      swap2\n      swap1\n      pop\n      jump\t// out\n        /* \"#utility.yul\":17705:17927   */\n    tag_27:\n      0x00\n        /* \"#utility.yul\":17836:17838   */\n      0x20\n        /* \"#utility.yul\":17825:17834   */\n      dup3\n        /* \"#utility.yul\":17821:17839   */\n      add\n        /* \"#utility.yul\":17813:17839   */\n      swap1\n      pop\n        /* \"#utility.yul\":17849:17920   */\n      tag_510\n        /* \"#utility.yul\":17917:17918   */\n      0x00\n        /* \"#utility.yul\":17906:17915   */\n      dup4\n        /* \"#utility.yul\":17902:17919   */\n      add\n        /* \"#utility.yul\":17893:17899   */\n      dup5\n        /* \"#utility.yul\":17849:17920   */\n      tag_476\n      jump\t// in\n    tag_510:\n        /* \"#utility.yul\":17803:17927   */\n      swap3\n      swap2\n      pop\n      pop\n      jump\t// out\n        /* \"#utility.yul\":17933:18942   */\n    tag_23:\n      0x00\n        /* \"#utility.yul\":18266:18269   */\n      0x0100\n        /* \"#utility.yul\":18255:18264   */\n      dup3\n        /* \"#utility.yul\":18251:18270   */\n      add\n        /* \"#utility.yul\":18243:18270   */\n      swap1\n      pop\n        /* \"#utility.yul\":18280:18351   */\n      tag_512\n        /* \"#utility.yul\":18348:18349   */\n      0x00\n        /* \"#utility.yul\":18337:18346   */\n      dup4\n        /* \"#utility.yul\":18333:18350   */\n      add\n        /* \"#utility.yul\":18324:18330   */\n      dup12\n        /* \"#utility.yul\":18280:18351   */\n      tag_476\n      jump\t// in\n    tag_512:\n        /* \"#utility.yul\":18361:18433   */\n      tag_513\n        /* \"#utility.yul\":18429:18431   */\n      0x20\n        /* \"#utility.yul\":18418:18427   */\n      dup4\n        /* \"#utility.yul\":18414:18432   */\n      add\n        /* \"#utility.yul\":18405:18411   */\n      dup11\n        /* \"#utility.yul\":18361:18433   */\n      tag_396\n      jump\t// in\n    tag_513:\n        /* \"#utility.yul\":18443:18521   */\n      tag_514\n        /* \"#utility.yul\":18517:18519   */\n      0x40\n        /* \"#utility.yul\":18506:18515   */\n      dup4\n        /* \"#utility.yul\":18502:18520   */\n      add\n        /* \"#utility.yul\":18493:18499   */\n      dup10\n        /* \"#utility.yul\":18443:18521   */\n      tag_438\n      jump\t// in\n    tag_514:\n        /* \"#utility.yul\":18531:18603   */\n      tag_515\n        /* \"#utility.yul\":18599:18601   */\n      0x60\n        /* \"#utility.yul\":18588:18597   */\n      dup4\n        /* \"#utility.yul\":18584:18602   */\n      add\n        /* \"#utility.yul\":18575:18581   */\n      dup9\n        /* \"#utility.yul\":18531:18603   */\n      tag_431\n      jump\t// in\n    tag_515:\n        /* \"#utility.yul\":18613:18686   */\n      tag_516\n        /* \"#utility.yul\":18681:18684   */\n      0x80\n        /* \"#utility.yul\":18670:18679   */\n      dup4\n        /* \"#utility.yul\":18666:18685   */\n      add\n        /* \"#utility.yul\":18657:18663   */\n      dup8\n        /* \"#utility.yul\":18613:18686   */\n      tag_476\n      jump\t// in\n    tag_516:\n        /* \"#utility.yul\":18696:18769   */\n      tag_517\n        /* \"#utility.yul\":18764:18767   */\n      0xa0\n        /* \"#utility.yul\":18753:18762   */\n      dup4\n        /* \"#utility.yul\":18749:18768   */\n      add\n        /* \"#utility.yul\":18740:18746   */\n      dup7\n        /* \"#utility.yul\":18696:18769   */\n      tag_476\n      jump\t// in\n    tag_517:\n        /* \"#utility.yul\":18779:18852   */\n      tag_518\n        /* \"#utility.yul\":18847:18850   */\n      0xc0\n        /* \"#utility.yul\":18836:18845   */\n      dup4\n        /* \"#utility.yul\":18832:18851   */\n      add\n        /* \"#utility.yul\":18823:18829   */\n      dup6\n        /* \"#utility.yul\":18779:18852   */\n      tag_476\n      jump\t// in\n    tag_518:\n        /* \"#utility.yul\":18862:18935   */\n      tag_519\n        /* \"#utility.yul\":18930:18933   */\n      0xe0\n        /* \"#utility.yul\":18919:18928   */\n      dup4\n        /* \"#utility.yul\":18915:18934   */\n      add\n        /* \"#utility.yul\":18906:18912   */\n      dup5\n        /* \"#utility.yul\":18862:18935   */\n      tag_476\n      jump\t// in\n    tag_519:\n        /* \"#utility.yul\":18233:18942   */\n      swap10\n      swap9\n      pop\n      pop\n      pop\n      pop\n      pop\n      pop\n      pop\n      pop\n      pop\n      jump\t// out\n        /* \"#utility.yul\":18948:19612   */\n    tag_133:\n      0x00\n        /* \"#utility.yul\":19191:19194   */\n      0xa0\n        /* \"#utility.yul\":19180:19189   */\n      dup3\n        /* \"#utility.yul\":19176:19195   */\n      add\n        /* \"#utility.yul\":19168:19195   */\n      swap1\n      pop\n        /* \"#utility.yul\":19205:19276   */\n      tag_521\n        /* \"#utility.yul\":19273:19274   */\n      0x00\n        /* \"#utility.yul\":19262:19271   */\n      dup4\n        /* \"#utility.yul\":19258:19275   */\n      add\n        /* \"#utility.yul\":19249:19255   */\n      dup9\n        /* \"#utility.yul\":19205:19276   */\n      tag_476\n      jump\t// in\n    tag_521:\n        /* \"#utility.yul\":19286:19358   */\n      tag_522\n        /* \"#utility.yul\":19354:19356   */\n      0x20\n        /* \"#utility.yul\":19343:19352   */\n      dup4\n        /* \"#utility.yul\":19339:19357   */\n      add\n        /* \"#utility.yul\":19330:19336   */\n      dup8\n        /* \"#utility.yul\":19286:19358   */\n      tag_476\n      jump\t// in\n    tag_522:\n        /* \"#utility.yul\":19368:19440   */\n      tag_523\n        /* \"#utility.yul\":19436:19438   */\n      0x40\n        /* \"#utility.yul\":19425:19434   */\n      dup4\n        /* \"#utility.yul\":19421:19439   */\n      add\n        /* \"#utility.yul\":19412:19418   */\n      dup7\n        /* \"#utility.yul\":19368:19440   */\n      tag_476\n      jump\t// in\n    tag_523:\n        /* \"#utility.yul\":19450:19522   */\n      tag_524\n        /* \"#utility.yul\":19518:19520   */\n      0x60\n        /* \"#utility.yul\":19507:19516   */\n      dup4\n        /* \"#utility.yul\":19503:19521   */\n      add\n        /* \"#utility.yul\":19494:19500   */\n      dup6\n        /* \"#utility.yul\":19450:19522   */\n      tag_476\n      jump\t// in\n    tag_524:\n        /* \"#utility.yul\":19532:19605   */\n      tag_525\n        /* \"#utility.yul\":19600:19603   */\n      0x80\n        /* \"#utility.yul\":19589:19598   */\n      dup4\n        /* \"#utility.yul\":19585:19604   */\n      add\n        /* \"#utility.yul\":19576:19582   */\n      dup5\n        /* \"#utility.yul\":19532:19605   */\n      tag_476\n      jump\t// in\n    tag_525:\n        /* \"#utility.yul\":19158:19612   */\n      swap7\n      swap6\n      pop\n      pop\n      pop\n      pop\n      pop\n      pop\n      jump\t// out\n        /* \"#utility.yul\":19618:19772   */\n    tag_406:\n      0x00\n        /* \"#utility.yul\":19730:19733   */\n      dup2\n        /* \"#utility.yul\":19722:19733   */\n      swap1\n      pop\n        /* \"#utility.yul\":19760:19764   */\n      0x20\n        /* \"#utility.yul\":19755:19758   */\n      dup3\n        /* \"#utility.yul\":19751:19765   */\n      add\n        /* \"#utility.yul\":19743:19765   */\n      swap1\n      pop\n        /* \"#utility.yul\":19712:19772   */\n      swap2\n      swap1\n      pop\n      jump\t// out\n        /* \"#utility.yul\":19778:19932   */\n    tag_420:\n      0x00\n        /* \"#utility.yul\":19890:19893   */\n      dup2\n        /* \"#utility.yul\":19882:19893   */\n      swap1\n      pop\n        /* \"#utility.yul\":19920:19924   */\n      0x20\n        /* \"#utility.yul\":19915:19918   */\n      dup3\n        /* \"#utility.yul\":19911:19925   */\n      add\n        /* \"#utility.yul\":19903:19925   */\n      swap1\n      pop\n        /* \"#utility.yul\":19872:19932   */\n      swap2\n      swap1\n      pop\n      jump\t// out\n        /* \"#utility.yul\":19938:20074   */\n    tag_402:\n      0x00\n        /* \"#utility.yul\":20061:20066   */\n      dup2\n        /* \"#utility.yul\":20055:20067   */\n      mload\n        /* \"#utility.yul\":20045:20067   */\n      swap1\n      pop\n        /* \"#utility.yul\":20034:20074   */\n      swap2\n      swap1\n      pop\n      jump\t// out\n        /* \"#utility.yul\":20080:20216   */\n    tag_416:\n      0x00\n        /* \"#utility.yul\":20203:20208   */\n      dup2\n        /* \"#utility.yul\":20197:20209   */\n      mload\n        /* \"#utility.yul\":20187:20209   */\n      swap1\n      pop\n        /* \"#utility.yul\":20176:20216   */\n      swap2\n      swap1\n      pop\n      jump\t// out\n        /* \"#utility.yul\":20222:20357   */\n    tag_412:\n      0x00\n        /* \"#utility.yul\":20346:20350   */\n      0x20\n        /* \"#utility.yul\":20341:20344   */\n      dup3\n        /* \"#utility.yul\":20337:20351   */\n      add\n        /* \"#utility.yul\":20329:20351   */\n      swap1\n      pop\n        /* \"#utility.yul\":20319:20357   */\n      swap2\n      swap1\n      pop\n      jump\t// out\n        /* \"#utility.yul\":20363:20498   */\n    tag_426:\n      0x00\n        /* \"#utility.yul\":20487:20491   */\n      0x20\n        /* \"#utility.yul\":20482:20485   */\n      dup3\n        /* \"#utility.yul\":20478:20492   */\n      add\n        /* \"#utility.yul\":20470:20492   */\n      swap1\n      pop\n        /* \"#utility.yul\":20460:20498   */\n      swap2\n      swap1\n      pop\n      jump\t// out\n        /* \"#utility.yul\":20504:20710   */\n    tag_404:\n      0x00\n        /* \"#utility.yul\":20659:20665   */\n      dup3\n        /* \"#utility.yul\":20654:20657   */\n      dup3\n        /* \"#utility.yul\":20647:20666   */\n      mstore\n        /* \"#utility.yul\":20699:20703   */\n      0x20\n        /* \"#utility.yul\":20694:20697   */\n      dup3\n        /* \"#utility.yul\":20690:20704   */\n      add\n        /* \"#utility.yul\":20675:20704   */\n      swap1\n      pop\n        /* \"#utility.yul\":20637:20710   */\n      swap3\n      swap2\n      pop\n      pop\n      jump\t// out\n        /* \"#utility.yul\":20716:20922   */\n    tag_418:\n      0x00\n        /* \"#utility.yul\":20871:20877   */\n      dup3\n        /* \"#utility.yul\":20866:20869   */\n      dup3\n        /* \"#utility.yul\":20859:20878   */\n      mstore\n        /* \"#utility.yul\":20911:20915   */\n      0x20\n        /* \"#utility.yul\":20906:20909   */\n      dup3\n        /* \"#utility.yul\":20902:20916   */\n      add\n        /* \"#utility.yul\":20887:20916   */\n      swap1\n      pop\n        /* \"#utility.yul\":20849:20922   */\n      swap3\n      swap2\n      pop\n      pop\n      jump\t// out\n        /* \"#utility.yul\":20928:21097   */\n    tag_444:\n      0x00\n        /* \"#utility.yul\":21046:21052   */\n      dup3\n        /* \"#utility.yul\":21041:21044   */\n      dup3\n        /* \"#utility.yul\":21034:21053   */\n      mstore\n        /* \"#utility.yul\":21086:21090   */\n      0x20\n        /* \"#utility.yul\":21081:21084   */\n      dup3\n        /* \"#utility.yul\":21077:21091   */\n      add\n        /* \"#utility.yul\":21062:21091   */\n      swap1\n      pop\n        /* \"#utility.yul\":21024:21097   */\n      swap3\n      swap2\n      pop\n      pop\n      jump\t// out\n        /* \"#utility.yul\":21103:21408   */\n    tag_196:\n      0x00\n        /* \"#utility.yul\":21162:21182   */\n      tag_536\n        /* \"#utility.yul\":21180:21181   */\n      dup3\n        /* \"#utility.yul\":21162:21182   */\n      tag_475\n      jump\t// in\n    tag_536:\n        /* \"#utility.yul\":21157:21182   */\n      swap2\n      pop\n        /* \"#utility.yul\":21196:21216   */\n      tag_537\n        /* \"#utility.yul\":21214:21215   */\n      dup4\n        /* \"#utility.yul\":21196:21216   */\n      tag_475\n      jump\t// in\n    tag_537:\n        /* \"#utility.yul\":21191:21216   */\n      swap3\n      pop\n        /* \"#utility.yul\":21350:21351   */\n      dup3\n        /* \"#utility.yul\":21282:21348   */\n      0xffffffffffffffffffffffffffffffffffffffffffffffffffffffffffffffff\n        /* \"#utility.yul\":21278:21352   */\n      sub\n        /* \"#utility.yul\":21275:21276   */\n      dup3\n        /* \"#utility.yul\":21272:21353   */\n      gt\n        /* \"#utility.yul\":21269:21271   */\n      iszero\n      tag_538\n      jumpi\n        /* \"#utility.yul\":21356:21374   */\n      tag_539\n      tag_540\n      jump\t// in\n    tag_539:\n        /* \"#utility.yul\":21269:21271   */\n    tag_538:\n        /* \"#utility.yul\":21400:21401   */\n      dup3\n        /* \"#utility.yul\":21397:21398   */\n      dup3\n        /* \"#utility.yul\":21393:21402   */\n      add\n        /* \"#utility.yul\":21386:21402   */\n      swap1\n      pop\n        /* \"#utility.yul\":21147:21408   */\n      swap3\n      swap2\n      pop\n      pop\n      jump\t// out\n        /* \"#utility.yul\":21414:21762   */\n    tag_321:\n      0x00\n        /* \"#utility.yul\":21477:21497   */\n      tag_542\n        /* \"#utility.yul\":21495:21496   */\n      dup3\n        /* \"#utility.yul\":21477:21497   */\n      tag_475\n      jump\t// in\n    tag_542:\n        /* \"#utility.yul\":21472:21497   */\n      swap2\n      pop\n        /* \"#utility.yul\":21511:21531   */\n      tag_543\n        /* \"#utility.yul\":21529:21530   */\n      dup4\n        /* \"#utility.yul\":21511:21531   */\n      tag_475\n      jump\t// in\n    tag_543:\n        /* \"#utility.yul\":21506:21531   */\n      swap3\n      pop\n        /* \"#utility.yul\":21699:21700   */\n      dup2\n        /* \"#utility.yul\":21631:21697   */\n      0xffffffffffffffffffffffffffffffffffffffffffffffffffffffffffffffff\n        /* \"#utility.yul\":21627:21701   */\n      div\n        /* \"#utility.yul\":21624:21625   */\n      dup4\n        /* \"#utility.yul\":21621:21702   */\n      gt\n        /* \"#utility.yul\":21616:21617   */\n      dup3\n        /* \"#utility.yul\":21609:21618   */\n      iszero\n        /* \"#utility.yul\":21602:21619   */\n      iszero\n        /* \"#utility.yul\":21598:21703   */\n      and\n        /* \"#utility.yul\":21595:21597   */\n      iszero\n      tag_544\n      jumpi\n        /* \"#utility.yul\":21706:21724   */\n      tag_545\n      tag_540\n      jump\t// in\n    tag_545:\n        /* \"#utility.yul\":21595:21597   */\n    tag_544:\n        /* \"#utility.yul\":21754:21755   */\n      dup3\n        /* \"#utility.yul\":21751:21752   */\n      dup3\n        /* \"#utility.yul\":21747:21756   */\n      mul\n        /* \"#utility.yul\":21736:21756   */\n      swap1\n      pop\n        /* \"#utility.yul\":21462:21762   */\n      swap3\n      swap2\n      pop\n      pop\n      jump\t// out\n        /* \"#utility.yul\":21768:21959   */\n    tag_194:\n      0x00\n        /* \"#utility.yul\":21828:21848   */\n      tag_547\n        /* \"#utility.yul\":21846:21847   */\n      dup3\n        /* \"#utility.yul\":21828:21848   */\n      tag_475\n      jump\t// in\n    tag_547:\n        /* \"#utility.yul\":21823:21848   */\n      swap2\n      pop\n        /* \"#utility.yul\":21862:21882   */\n      tag_548\n        /* \"#utility.yul\":21880:21881   */\n      dup4\n        /* \"#utility.yul\":21862:21882   */\n      tag_475\n      jump\t// in\n    tag_548:\n        /* \"#utility.yul\":21857:21882   */\n      swap3\n      pop\n        /* \"#utility.yul\":21901:21902   */\n      dup3\n        /* \"#utility.yul\":21898:21899   */\n      dup3\n        /* \"#utility.yul\":21895:21903   */\n      lt\n        /* \"#utility.yul\":21892:21894   */\n      iszero\n      tag_549\n      jumpi\n        /* \"#utility.yul\":21906:21924   */\n      tag_550\n      tag_540\n      jump\t// in\n    tag_550:\n        /* \"#utility.yul\":21892:21894   */\n    tag_549:\n        /* \"#utility.yul\":21951:21952   */\n      dup3\n        /* \"#utility.yul\":21948:21949   */\n      dup3\n        /* \"#utility.yul\":21944:21953   */\n      sub\n        /* \"#utility.yul\":21936:21953   */\n      swap1\n      pop\n        /* \"#utility.yul\":21813:21959   */\n      swap3\n      swap2\n      pop\n      pop\n      jump\t// out\n        /* \"#utility.yul\":21965:22061   */\n    tag_395:\n      0x00\n        /* \"#utility.yul\":22031:22055   */\n      tag_552\n        /* \"#utility.yul\":22049:22054   */\n      dup3\n        /* \"#utility.yul\":22031:22055   */\n      tag_553\n      jump\t// in\n    tag_552:\n        /* \"#utility.yul\":22020:22055   */\n      swap1\n      pop\n        /* \"#utility.yul\":22010:22061   */\n      swap2\n      swap1\n      pop\n      jump\t// out\n        /* \"#utility.yul\":22067:22157   */\n    tag_554:\n      0x00\n        /* \"#utility.yul\":22144:22149   */\n      dup2\n        /* \"#utility.yul\":22137:22150   */\n      iszero\n        /* \"#utility.yul\":22130:22151   */\n      iszero\n        /* \"#utility.yul\":22119:22151   */\n      swap1\n      pop\n        /* \"#utility.yul\":22109:22157   */\n      swap2\n      swap1\n      pop\n      jump\t// out\n        /* \"#utility.yul\":22163:22240   */\n    tag_430:\n      0x00\n        /* \"#utility.yul\":22229:22234   */\n      dup2\n        /* \"#utility.yul\":22218:22234   */\n      swap1\n      pop\n        /* \"#utility.yul\":22208:22240   */\n      swap2\n      swap1\n      pop\n      jump\t// out\n        /* \"#utility.yul\":22246:22373   */\n    tag_557:\n      0x00\n        /* \"#utility.yul\":22320:22325   */\n      dup2\n        /* \"#utility.yul\":22309:22325   */\n      swap1\n      pop\n        /* \"#utility.yul\":22326:22367   */\n      tag_559\n        /* \"#utility.yul\":22361:22366   */\n      dup3\n        /* \"#utility.yul\":22326:22367   */\n      tag_560\n      jump\t// in\n    tag_559:\n        /* \"#utility.yul\":22299:22373   */\n      swap2\n      swap1\n      pop\n      jump\t// out\n        /* \"#utility.yul\":22379:22505   */\n    tag_553:\n      0x00\n        /* \"#utility.yul\":22456:22498   */\n      0xffffffffffffffffffffffffffffffffffffffff\n        /* \"#utility.yul\":22449:22454   */\n      dup3\n        /* \"#utility.yul\":22445:22499   */\n      and\n        /* \"#utility.yul\":22434:22499   */\n      swap1\n      pop\n        /* \"#utility.yul\":22424:22505   */\n      swap2\n      swap1\n      pop\n      jump\t// out\n        /* \"#utility.yul\":22511:22588   */\n    tag_475:\n      0x00\n        /* \"#utility.yul\":22577:22582   */\n      dup2\n        /* \"#utility.yul\":22566:22582   */\n      swap1\n      pop\n        /* \"#utility.yul\":22556:22588   */\n      swap2\n      swap1\n      pop\n      jump\t// out\n        /* \"#utility.yul\":22594:22721   */\n    tag_437:\n      0x00\n        /* \"#utility.yul\":22683:22715   */\n      tag_564\n        /* \"#utility.yul\":22709:22714   */\n      dup3\n        /* \"#utility.yul\":22683:22715   */\n      tag_557\n      jump\t// in\n    tag_564:\n        /* \"#utility.yul\":22670:22715   */\n      swap1\n      pop\n        /* \"#utility.yul\":22660:22721   */\n      swap2\n      swap1\n      pop\n      jump\t// out\n        /* \"#utility.yul\":22727:22960   */\n    tag_203:\n      0x00\n        /* \"#utility.yul\":22789:22813   */\n      tag_566\n        /* \"#utility.yul\":22807:22812   */\n      dup3\n        /* \"#utility.yul\":22789:22813   */\n      tag_475\n      jump\t// in\n    tag_566:\n        /* \"#utility.yul\":22780:22813   */\n      swap2\n      pop\n        /* \"#utility.yul\":22835:22901   */\n      0xffffffffffffffffffffffffffffffffffffffffffffffffffffffffffffffff\n        /* \"#utility.yul\":22828:22833   */\n      dup3\n        /* \"#utility.yul\":22825:22902   */\n      eq\n        /* \"#utility.yul\":22822:22824   */\n      iszero\n      tag_567\n      jumpi\n        /* \"#utility.yul\":22905:22923   */\n      tag_568\n      tag_540\n      jump\t// in\n    tag_568:\n        /* \"#utility.yul\":22822:22824   */\n    tag_567:\n        /* \"#utility.yul\":22952:22953   */\n      0x01\n        /* \"#utility.yul\":22945:22950   */\n      dup3\n        /* \"#utility.yul\":22941:22954   */\n      add\n        /* \"#utility.yul\":22934:22954   */\n      swap1\n      pop\n        /* \"#utility.yul\":22770:22960   */\n      swap2\n      swap1\n      pop\n      jump\t// out\n        /* \"#utility.yul\":22966:23146   */\n    tag_540:\n        /* \"#utility.yul\":23014:23091   */\n      0x4e487b7100000000000000000000000000000000000000000000000000000000\n        /* \"#utility.yul\":23011:23012   */\n      0x00\n        /* \"#utility.yul\":23004:23092   */\n      mstore\n        /* \"#utility.yul\":23111:23115   */\n      0x11\n        /* \"#utility.yul\":23108:23109   */\n      0x04\n        /* \"#utility.yul\":23101:23116   */\n      mstore\n        /* \"#utility.yul\":23135:23139   */\n      0x24\n        /* \"#utility.yul\":23132:23133   */\n      0x00\n        /* \"#utility.yul\":23125:23140   */\n      revert\n        /* \"#utility.yul\":23152:23332   */\n    tag_570:\n        /* \"#utility.yul\":23200:23277   */\n      0x4e487b7100000000000000000000000000000000000000000000000000000000\n        /* \"#utility.yul\":23197:23198   */\n      0x00\n        /* \"#utility.yul\":23190:23278   */\n      mstore\n        /* \"#utility.yul\":23297:23301   */\n      0x21\n        /* \"#utility.yul\":23294:23295   */\n      0x04\n        /* \"#utility.yul\":23287:23302   */\n      mstore\n        /* \"#utility.yul\":23321:23325   */\n      0x24\n        /* \"#utility.yul\":23318:23319   */\n      0x00\n        /* \"#utility.yul\":23311:23326   */\n      revert\n        /* \"#utility.yul\":23338:23451   */\n    tag_560:\n        /* \"#utility.yul\":23419:23420   */\n      0x02\n        /* \"#utility.yul\":23412:23417   */\n      dup2\n        /* \"#utility.yul\":23409:23421   */\n      lt\n        /* \"#utility.yul\":23399:23401   */\n      tag_573\n      jumpi\n        /* \"#utility.yul\":23425:23443   */\n      tag_574\n      tag_570\n      jump\t// in\n    tag_574:\n        /* \"#utility.yul\":23399:23401   */\n    tag_573:\n        /* \"#utility.yul\":23389:23451   */\n      pop\n      jump\t// out\n        /* \"#utility.yul\":23457:23579   */\n    tag_326:\n        /* \"#utility.yul\":23530:23554   */\n      tag_576\n        /* \"#utility.yul\":23548:23553   */\n      dup2\n        /* \"#utility.yul\":23530:23554   */\n      tag_395\n      jump\t// in\n    tag_576:\n        /* \"#utility.yul\":23523:23528   */\n      dup2\n        /* \"#utility.yul\":23520:23555   */\n      eq\n        /* \"#utility.yul\":23510:23512   */\n      tag_577\n      jumpi\n        /* \"#utility.yul\":23569:23570   */\n      0x00\n        /* \"#utility.yul\":23566:23567   */\n      dup1\n        /* \"#utility.yul\":23559:23571   */\n      revert\n        /* \"#utility.yul\":23510:23512   */\n    tag_577:\n        /* \"#utility.yul\":23500:23579   */\n      pop\n      jump\t// out\n        /* \"#utility.yul\":23585:23701   */\n    tag_330:\n        /* \"#utility.yul\":23655:23676   */\n      tag_579\n        /* \"#utility.yul\":23670:23675   */\n      dup2\n        /* \"#utility.yul\":23655:23676   */\n      tag_554\n      jump\t// in\n    tag_579:\n        /* \"#utility.yul\":23648:23653   */\n      dup2\n        /* \"#utility.yul\":23645:23677   */\n      eq\n        /* \"#utility.yul\":23635:23637   */\n      tag_580\n      jumpi\n        /* \"#utility.yul\":23691:23692   */\n      0x00\n        /* \"#utility.yul\":23688:23689   */\n      dup1\n        /* \"#utility.yul\":23681:23693   */\n      revert\n        /* \"#utility.yul\":23635:23637   */\n    tag_580:\n        /* \"#utility.yul\":23625:23701   */\n      pop\n      jump\t// out\n        /* \"#utility.yul\":23707:23829   */\n    tag_334:\n        /* \"#utility.yul\":23780:23804   */\n      tag_582\n        /* \"#utility.yul\":23798:23803   */\n      dup2\n        /* \"#utility.yul\":23780:23804   */\n      tag_430\n      jump\t// in\n    tag_582:\n        /* \"#utility.yul\":23773:23778   */\n      dup2\n        /* \"#utility.yul\":23770:23805   */\n      eq\n        /* \"#utility.yul\":23760:23762   */\n      tag_583\n      jumpi\n        /* \"#utility.yul\":23819:23820   */\n      0x00\n        /* \"#utility.yul\":23816:23817   */\n      dup1\n        /* \"#utility.yul\":23809:23821   */\n      revert\n        /* \"#utility.yul\":23760:23762   */\n    tag_583:\n        /* \"#utility.yul\":23750:23829   */\n      pop\n      jump\t// out\n        /* \"#utility.yul\":23835:23942   */\n    tag_338:\n        /* \"#utility.yul\":23916:23917   */\n      0x02\n        /* \"#utility.yul\":23909:23914   */\n      dup2\n        /* \"#utility.yul\":23906:23918   */\n      lt\n        /* \"#utility.yul\":23896:23898   */\n      tag_585\n      jumpi\n        /* \"#utility.yul\":23932:23933   */\n      0x00\n        /* \"#utility.yul\":23929:23930   */\n      dup1\n        /* \"#utility.yul\":23922:23934   */\n      revert\n        /* \"#utility.yul\":23896:23898   */\n    tag_585:\n        /* \"#utility.yul\":23886:23942   */\n      pop\n      jump\t// out\n        /* \"#utility.yul\":23948:24070   */\n    tag_342:\n        /* \"#utility.yul\":24021:24045   */\n      tag_587\n        /* \"#utility.yul\":24039:24044   */\n      dup2\n        /* \"#utility.yul\":24021:24045   */\n      tag_475\n      jump\t// in\n    tag_587:\n        /* \"#utility.yul\":24014:24019   */\n      dup2\n        /* \"#utility.yul\":24011:24046   */\n      eq\n        /* \"#utility.yul\":24001:24003   */\n      tag_588\n      jumpi\n        /* \"#utility.yul\":24060:24061   */\n      0x00\n        /* \"#utility.yul\":24057:24058   */\n      dup1\n        /* \"#utility.yul\":24050:24062   */\n      revert\n        /* \"#utility.yul\":24001:24003   */\n    tag_588:\n        /* \"#utility.yul\":23991:24070   */\n      pop\n      jump\t// out\n\n    auxdata: 0xa264697066735822122064c626f4d07c0acecb890c412b174b13f1872af354f33424475e7f3f628f664964736f6c63430008000033\n}\n",
				"bytecode": {
					"linkReferences": {},
					"object": "608060405234801561001057600080fd5b50336000806101000a81548173ffffffffffffffffffffffffffffffffffffffff021916908373ffffffffffffffffffffffffffffffffffffffff160217905550613d6e806100606000396000f3fe608060405234801561001057600080fd5b50600436106100cf5760003560e01c80639776aacf1161008c578063aa6ca80811610066578063aa6ca8081461023e578063c9630cb01461025c578063d9c0c95014610278578063f851a44014610294576100cf565b80639776aacf146101d65780639ead7222146101f2578063a8d2021a14610222576100cf565b80630bb431b6146100d45780632a58b3301461010b57806346e9658b1461012957806372ce957e146101595780637f2c624614610189578063904194a3146101a5575b600080fd5b6100ee60048036038101906100e991906132b7565b6102b2565b604051610102989796959493929190613962565b60405180910390f35b610113610351565b6040516101209190613947565b60405180910390f35b610143600480360381019061013e919061322c565b610357565b60405161015091906137ff565b60405180910390f35b610173600480360381019061016e9190613162565b61052d565b6040516101809190613947565b60405180910390f35b6101a3600480360381019061019e9190613268565b610552565b005b6101bf60048036038101906101ba91906131c7565b611bfc565b6040516101cd92919061385e565b60405180910390f35b6101f060048036038101906101eb91906131f0565b611c40565b005b61020c60048036038101906102079190613369565b611d8d565b6040516102199190613843565b60405180910390f35b61023c60048036038101906102379190613392565b611db1565b005b61024661206b565b6040516102539190613821565b60405180910390f35b61027660048036038101906102719190613392565b61225e565b005b610292600480360381019061028d9190613306565b612487565b005b61029c613060565b6040516102a99190613784565b60405180910390f35b600460205282600052604060002060205281600052604060002081815481106102da57600080fd5b906000526020600020906007020160009250925050508060000154908060010160009054906101000a900473ffffffffffffffffffffffffffffffffffffffff16908060010160149054906101000a900460ff16908060020154908060030154908060040154908060050154908060060154905088565b60055481565b60606004600084815260200190815260200160002060008360018111156103a7577f4e487b7100000000000000000000000000000000000000000000000000000000600052602160045260246000fd5b8152602001908152602001600020805480602002602001604051908101604052809291908181526020016000905b82821015610521578382906000526020600020906007020160405180610100016040529081600082015481526020016001820160009054906101000a900473ffffffffffffffffffffffffffffffffffffffff1673ffffffffffffffffffffffffffffffffffffffff1673ffffffffffffffffffffffffffffffffffffffff1681526020016001820160149054906101000a900460ff1660018111156104a4577f4e487b7100000000000000000000000000000000000000000000000000000000600052602160045260246000fd5b60018111156104dc577f4e487b7100000000000000000000000000000000000000000000000000000000600052602160045260246000fd5b815260200160028201548152602001600382015481526020016004820154815260200160058201548152602001600682015481525050815260200190600101906103d5565b50505050905092915050565b6003602052816000526040600020602052806000526040600020600091509150505481565b82600073ffffffffffffffffffffffffffffffffffffffff166001600083815260200190815260200160002060010160009054906101000a900473ffffffffffffffffffffffffffffffffffffffff1673ffffffffffffffffffffffffffffffffffffffff1614156105f9576040517f08c379a00000000000000000000000000000000000000000000000000000000081526004016105f0906138e7565b60405180910390fd5b837f444149000000000000000000000000000000000000000000000000000000000081141561065d576040517f08c379a000000000000000000000000000000000000000000000000000000000815260040161065490613927565b60405180910390fd5b600180811115610696577f4e487b7100000000000000000000000000000000000000000000000000000000600052602160045260246000fd5b8360018111156106cf577f4e487b7100000000000000000000000000000000000000000000000000000000600052602160045260246000fd5b141561076d5783600360003373ffffffffffffffffffffffffffffffffffffffff1673ffffffffffffffffffffffffffffffffffffffff1681526020019081526020016000206000878152602001908152602001600020541015610768576040517f08c379a000000000000000000000000000000000000000000000000000000000815260040161075f90613907565b60405180910390fd5b61076e565b5b60006004600087815260200190815260200160002060008060018111156107be577f4e487b7100000000000000000000000000000000000000000000000000000000600052602160045260246000fd5b8660018111156107f7577f4e487b7100000000000000000000000000000000000000000000000000000000600052602160045260246000fd5b14610803576000610806565b60015b600181111561083e577f4e487b7100000000000000000000000000000000000000000000000000000000600052602160045260246000fd5b815260200190815260200160002090506000808690505b8280549050821080156108685750600081115b156118975760006109168484815481106108ab577f4e487b7100000000000000000000000000000000000000000000000000000000600052603260045260246000fd5b9060005260206000209060070201600401548585815481106108f6577f4e487b7100000000000000000000000000000000000000000000000000000000600052603260045260246000fd5b90600052602060002090600702016003015461308490919063ffffffff16565b905060008183116109275782610929565b815b905061093e818461308490919063ffffffff16565b925061099d8186868154811061097d577f4e487b7100000000000000000000000000000000000000000000000000000000600052603260045260246000fd5b90600052602060002090600702016004015461309a90919063ffffffff16565b8585815481106109d6577f4e487b7100000000000000000000000000000000000000000000000000000000600052603260045260246000fd5b9060005260206000209060070201600401819055503373ffffffffffffffffffffffffffffffffffffffff16858581548110610a3b577f4e487b7100000000000000000000000000000000000000000000000000000000600052603260045260246000fd5b906000526020600020906007020160010160009054906101000a900473ffffffffffffffffffffffffffffffffffffffff1673ffffffffffffffffffffffffffffffffffffffff168b7fdb0c486e680ba8026643e6a85f8d157b5e7bcd4b32b54d564542570a9eb20416600654898981548110610ae1577f4e487b7100000000000000000000000000000000000000000000000000000000600052603260045260246000fd5b906000526020600020906007020160000154868b8b81548110610b2d577f4e487b7100000000000000000000000000000000000000000000000000000000600052603260045260246000fd5b90600052602060002090600702016005015442604051610b519594939291906139e0565b60405180910390a4600180811115610b92577f4e487b7100000000000000000000000000000000000000000000000000000000600052602160045260246000fd5b886001811115610bcb577f4e487b7100000000000000000000000000000000000000000000000000000000600052602160045260246000fd5b141561119257610c3481600360003373ffffffffffffffffffffffffffffffffffffffff1673ffffffffffffffffffffffffffffffffffffffff16815260200190815260200160002060008d81526020019081526020016000205461308490919063ffffffff16565b600360003373ffffffffffffffffffffffffffffffffffffffff1673ffffffffffffffffffffffffffffffffffffffff16815260200190815260200160002060008c815260200190815260200160002081905550610d67610ce8868681548110610cc7577f4e487b7100000000000000000000000000000000000000000000000000000000600052603260045260246000fd5b906000526020600020906007020160050154836130b090919063ffffffff16565b600360003373ffffffffffffffffffffffffffffffffffffffff1673ffffffffffffffffffffffffffffffffffffffff16815260200190815260200160002060007f444149000000000000000000000000000000000000000000000000000000000081526020019081526020016000205461309a90919063ffffffff16565b600360003373ffffffffffffffffffffffffffffffffffffffff1673ffffffffffffffffffffffffffffffffffffffff16815260200190815260200160002060007f4441490000000000000000000000000000000000000000000000000000000000815260200190815260200160002081905550610ea88160036000888881548110610e1c577f4e487b7100000000000000000000000000000000000000000000000000000000600052603260045260246000fd5b906000526020600020906007020160010160009054906101000a900473ffffffffffffffffffffffffffffffffffffffff1673ffffffffffffffffffffffffffffffffffffffff1673ffffffffffffffffffffffffffffffffffffffff16815260200190815260200160002060008d81526020019081526020016000205461309a90919063ffffffff16565b60036000878781548110610ee5577f4e487b7100000000000000000000000000000000000000000000000000000000600052603260045260246000fd5b906000526020600020906007020160010160009054906101000a900473ffffffffffffffffffffffffffffffffffffffff1673ffffffffffffffffffffffffffffffffffffffff1673ffffffffffffffffffffffffffffffffffffffff16815260200190815260200160002060008c8152602001908152602001600020819055506110af610fc6868681548110610fa5577f4e487b7100000000000000000000000000000000000000000000000000000000600052603260045260246000fd5b906000526020600020906007020160050154836130b090919063ffffffff16565b60036000888881548110611003577f4e487b7100000000000000000000000000000000000000000000000000000000600052603260045260246000fd5b906000526020600020906007020160010160009054906101000a900473ffffffffffffffffffffffffffffffffffffffff1673ffffffffffffffffffffffffffffffffffffffff1673ffffffffffffffffffffffffffffffffffffffff16815260200190815260200160002060007f444149000000000000000000000000000000000000000000000000000000000081526020019081526020016000205461308490919063ffffffff16565b600360008787815481106110ec577f4e487b7100000000000000000000000000000000000000000000000000000000600052603260045260246000fd5b906000526020600020906007020160010160009054906101000a900473ffffffffffffffffffffffffffffffffffffffff1673ffffffffffffffffffffffffffffffffffffffff1673ffffffffffffffffffffffffffffffffffffffff16815260200190815260200160002060007f444149000000000000000000000000000000000000000000000000000000000081526020019081526020016000208190555061185e565b6111ef8585815481106111ce577f4e487b7100000000000000000000000000000000000000000000000000000000600052603260045260246000fd5b906000526020600020906007020160050154826130b090919063ffffffff16565b600360003373ffffffffffffffffffffffffffffffffffffffff1673ffffffffffffffffffffffffffffffffffffffff16815260200190815260200160002060007f444149000000000000000000000000000000000000000000000000000000000081526020019081526020016000205410156112a1576040517f08c379a0000000000000000000000000000000000000000000000000000000008152600401611298906138c7565b60405180910390fd5b61130481600360003373ffffffffffffffffffffffffffffffffffffffff1673ffffffffffffffffffffffffffffffffffffffff16815260200190815260200160002060008d81526020019081526020016000205461309a90919063ffffffff16565b600360003373ffffffffffffffffffffffffffffffffffffffff1673ffffffffffffffffffffffffffffffffffffffff16815260200190815260200160002060008c8152602001908152602001600020819055506114376113b8868681548110611397577f4e487b7100000000000000000000000000000000000000000000000000000000600052603260045260246000fd5b906000526020600020906007020160050154836130b090919063ffffffff16565b600360003373ffffffffffffffffffffffffffffffffffffffff1673ffffffffffffffffffffffffffffffffffffffff16815260200190815260200160002060007f444149000000000000000000000000000000000000000000000000000000000081526020019081526020016000205461308490919063ffffffff16565b600360003373ffffffffffffffffffffffffffffffffffffffff1673ffffffffffffffffffffffffffffffffffffffff16815260200190815260200160002060007f444149000000000000000000000000000000000000000000000000000000000081526020019081526020016000208190555061157881600360008888815481106114ec577f4e487b7100000000000000000000000000000000000000000000000000000000600052603260045260246000fd5b906000526020600020906007020160010160009054906101000a900473ffffffffffffffffffffffffffffffffffffffff1673ffffffffffffffffffffffffffffffffffffffff1673ffffffffffffffffffffffffffffffffffffffff16815260200190815260200160002060008d81526020019081526020016000205461309a90919063ffffffff16565b600360008787815481106115b5577f4e487b7100000000000000000000000000000000000000000000000000000000600052603260045260246000fd5b906000526020600020906007020160010160009054906101000a900473ffffffffffffffffffffffffffffffffffffffff1673ffffffffffffffffffffffffffffffffffffffff1673ffffffffffffffffffffffffffffffffffffffff16815260200190815260200160002060008c81526020019081526020016000208190555061177f611696868681548110611675577f4e487b7100000000000000000000000000000000000000000000000000000000600052603260045260246000fd5b906000526020600020906007020160050154836130b090919063ffffffff16565b600360008888815481106116d3577f4e487b7100000000000000000000000000000000000000000000000000000000600052603260045260246000fd5b906000526020600020906007020160010160009054906101000a900473ffffffffffffffffffffffffffffffffffffffff1673ffffffffffffffffffffffffffffffffffffffff1673ffffffffffffffffffffffffffffffffffffffff16815260200190815260200160002060007f444149000000000000000000000000000000000000000000000000000000000081526020019081526020016000205461308490919063ffffffff16565b600360008787815481106117bc577f4e487b7100000000000000000000000000000000000000000000000000000000600052603260045260246000fd5b906000526020600020906007020160010160009054906101000a900473ffffffffffffffffffffffffffffffffffffffff1673ffffffffffffffffffffffffffffffffffffffff1673ffffffffffffffffffffffffffffffffffffffff16815260200190815260200160002060007f44414900000000000000000000000000000000000000000000000000000000008152602001908152602001600020819055505b611874600160065461309a90919063ffffffff16565b60068190555061188e60018561309a90919063ffffffff16565b93505050610855565b600091505b82805490508210801561194257508282815481106118e3577f4e487b7100000000000000000000000000000000000000000000000000000000600052603260045260246000fd5b90600052602060002090600702016003015483838154811061192e577f4e487b7100000000000000000000000000000000000000000000000000000000600052603260045260246000fd5b906000526020600020906007020160040154145b15611bf25760008290505b6001848054905061195e9190613b66565b811015611b1b57836001826119739190613ab6565b815481106119aa577f4e487b7100000000000000000000000000000000000000000000000000000000600052603260045260246000fd5b90600052602060002090600702018482815481106119f1577f4e487b7100000000000000000000000000000000000000000000000000000000600052603260045260246000fd5b9060005260206000209060070201600082015481600001556001820160009054906101000a900473ffffffffffffffffffffffffffffffffffffffff168160010160006101000a81548173ffffffffffffffffffffffffffffffffffffffff021916908373ffffffffffffffffffffffffffffffffffffffff1602179055506001820160149054906101000a900460ff168160010160146101000a81548160ff02191690836001811115611ace577f4e487b7100000000000000000000000000000000000000000000000000000000600052602160045260246000fd5b021790555060028201548160020155600382015481600301556004820154816004015560058201548160050155600682015481600601559050508080611b1390613c11565b91505061194d565b5082805480611b53577f4e487b7100000000000000000000000000000000000000000000000000000000600052603160045260246000fd5b60019003818190600052602060002090600702016000808201600090556001820160006101000a81549073ffffffffffffffffffffffffffffffffffffffff02191690556001820160146101000a81549060ff02191690556002820160009055600382016000905560048201600090556005820160009055600682016000905550509055611beb60018361309a90919063ffffffff16565b915061189c565b5050505050505050565b60016020528060005260406000206000915090508060000154908060010160009054906101000a900473ffffffffffffffffffffffffffffffffffffffff16905082565b60008054906101000a900473ffffffffffffffffffffffffffffffffffffffff1673ffffffffffffffffffffffffffffffffffffffff163373ffffffffffffffffffffffffffffffffffffffff1614611cce576040517f08c379a0000000000000000000000000000000000000000000000000000000008152600401611cc5906138a7565b60405180910390fd5b60405180604001604052808381526020018273ffffffffffffffffffffffffffffffffffffffff16815250600160008481526020019081526020016000206000820151816000015560208201518160010160006101000a81548173ffffffffffffffffffffffffffffffffffffffff021916908373ffffffffffffffffffffffffffffffffffffffff16021790555090505060028290806001815401808255809150506001900390600052602060002001600090919091909150555050565b60028181548110611d9d57600080fd5b906000526020600020016000915090505481565b80600073ffffffffffffffffffffffffffffffffffffffff166001600083815260200190815260200160002060010160009054906101000a900473ffffffffffffffffffffffffffffffffffffffff1673ffffffffffffffffffffffffffffffffffffffff161415611e58576040517f08c379a0000000000000000000000000000000000000000000000000000000008152600401611e4f906138e7565b60405180910390fd5b82600360003373ffffffffffffffffffffffffffffffffffffffff1673ffffffffffffffffffffffffffffffffffffffff1681526020019081526020016000206000848152602001908152602001600020541015611eeb576040517f08c379a0000000000000000000000000000000000000000000000000000000008152600401611ee290613887565b60405180910390fd5b611f4e83600360003373ffffffffffffffffffffffffffffffffffffffff1673ffffffffffffffffffffffffffffffffffffffff16815260200190815260200160002060008581526020019081526020016000205461308490919063ffffffff16565b600360003373ffffffffffffffffffffffffffffffffffffffff1673ffffffffffffffffffffffffffffffffffffffff1681526020019081526020016000206000848152602001908152602001600020819055506001600083815260200190815260200160002060010160009054906101000a900473ffffffffffffffffffffffffffffffffffffffff1673ffffffffffffffffffffffffffffffffffffffff1663a9059cbb33856040518363ffffffff1660e01b81526004016120139291906137d6565b602060405180830381600087803b15801561202d57600080fd5b505af1158015612041573d6000803e3d6000fd5b505050506040513d601f19601f82011682018060405250810190612065919061319e565b50505050565b6060600060028054905067ffffffffffffffff8111156120b4577f4e487b7100000000000000000000000000000000000000000000000000000000600052604160045260246000fd5b6040519080825280602002602001820160405280156120ed57816020015b6120da6130c6565b8152602001906001900390816120d25790505b50905060005b6002805490508110156122565760405180604001604052806001600060028581548110612149577f4e487b7100000000000000000000000000000000000000000000000000000000600052603260045260246000fd5b9060005260206000200154815260200190815260200160002060000154815260200160016000600285815481106121a9577f4e487b7100000000000000000000000000000000000000000000000000000000600052603260045260246000fd5b9060005260206000200154815260200190815260200160002060010160009054906101000a900473ffffffffffffffffffffffffffffffffffffffff1673ffffffffffffffffffffffffffffffffffffffff16815250828281518110612238577f4e487b7100000000000000000000000000000000000000000000000000000000600052603260045260246000fd5b6020026020010181905250808061224e90613c11565b9150506120f3565b508091505090565b80600073ffffffffffffffffffffffffffffffffffffffff166001600083815260200190815260200160002060010160009054906101000a900473ffffffffffffffffffffffffffffffffffffffff1673ffffffffffffffffffffffffffffffffffffffff161415612305576040517f08c379a00000000000000000000000000000000000000000000000000000000081526004016122fc906138e7565b60405180910390fd5b6001600083815260200190815260200160002060010160009054906101000a900473ffffffffffffffffffffffffffffffffffffffff1673ffffffffffffffffffffffffffffffffffffffff166323b872dd3330866040518463ffffffff1660e01b81526004016123789392919061379f565b602060405180830381600087803b15801561239257600080fd5b505af11580156123a6573d6000803e3d6000fd5b505050506040513d601f19601f820116820180604052508101906123ca919061319e565b5061242e83600360003373ffffffffffffffffffffffffffffffffffffffff1673ffffffffffffffffffffffffffffffffffffffff16815260200190815260200160002060008581526020019081526020016000205461309a90919063ffffffff16565b600360003373ffffffffffffffffffffffffffffffffffffffff1673ffffffffffffffffffffffffffffffffffffffff168152602001908152602001600020600084815260200190815260200160002081905550505050565b83600073ffffffffffffffffffffffffffffffffffffffff166001600083815260200190815260200160002060010160009054906101000a900473ffffffffffffffffffffffffffffffffffffffff1673ffffffffffffffffffffffffffffffffffffffff16141561252e576040517f08c379a0000000000000000000000000000000000000000000000000000000008152600401612525906138e7565b60405180910390fd5b847f4441490000000000000000000000000000000000000000000000000000000000811415612592576040517f08c379a000000000000000000000000000000000000000000000000000000000815260040161258990613927565b60405180910390fd5b6001808111156125cb577f4e487b7100000000000000000000000000000000000000000000000000000000600052602160045260246000fd5b836001811115612604577f4e487b7100000000000000000000000000000000000000000000000000000000600052602160045260246000fd5b14156126a25784600360003373ffffffffffffffffffffffffffffffffffffffff1673ffffffffffffffffffffffffffffffffffffffff168152602001908152602001600020600088815260200190815260200160002054101561269d576040517f08c379a000000000000000000000000000000000000000000000000000000000815260040161269490613907565b60405180910390fd5b612768565b6126b584866130b090919063ffffffff16565b600360003373ffffffffffffffffffffffffffffffffffffffff1673ffffffffffffffffffffffffffffffffffffffff16815260200190815260200160002060007f44414900000000000000000000000000000000000000000000000000000000008152602001908152602001600020541015612767576040517f08c379a000000000000000000000000000000000000000000000000000000000815260040161275e906138c7565b60405180910390fd5b5b60006004600088815260200190815260200160002060008560018111156127b8577f4e487b7100000000000000000000000000000000000000000000000000000000600052602160045260246000fd5b815260200190815260200160002090508060405180610100016040528060055481526020013373ffffffffffffffffffffffffffffffffffffffff168152602001866001811115612832577f4e487b7100000000000000000000000000000000000000000000000000000000600052602160045260246000fd5b8152602001898152602001888152602001600081526020018781526020014281525090806001815401808255809150506001900390600052602060002090600702016000909190919091506000820151816000015560208201518160010160006101000a81548173ffffffffffffffffffffffffffffffffffffffff021916908373ffffffffffffffffffffffffffffffffffffffff16021790555060408201518160010160146101000a81548160ff0219169083600181111561291f577f4e487b7100000000000000000000000000000000000000000000000000000000600052602160045260246000fd5b0217905550606082015181600201556080820151816003015560a0820151816004015560c0820151816005015560e08201518160060155505060008082805490501161296c57600061297e565b6001828054905061297d9190613b66565b5b90505b600081111561303a57600060018111156129c4577f4e487b7100000000000000000000000000000000000000000000000000000000600052602160045260246000fd5b8560018111156129fd577f4e487b7100000000000000000000000000000000000000000000000000000000600052602160045260246000fd5b148015612aa95750818181548110612a3e577f4e487b7100000000000000000000000000000000000000000000000000000000600052603260045260246000fd5b90600052602060002090600702016005015482600183612a5e9190613b66565b81548110612a95577f4e487b7100000000000000000000000000000000000000000000000000000000600052603260045260246000fd5b906000526020600020906007020160050154115b15612ab35761303a565b600180811115612aec577f4e487b7100000000000000000000000000000000000000000000000000000000600052602160045260246000fd5b856001811115612b25577f4e487b7100000000000000000000000000000000000000000000000000000000600052602160045260246000fd5b148015612bd15750818181548110612b66577f4e487b7100000000000000000000000000000000000000000000000000000000600052603260045260246000fd5b90600052602060002090600702016005015482600183612b869190613b66565b81548110612bbd577f4e487b7100000000000000000000000000000000000000000000000000000000600052603260045260246000fd5b906000526020600020906007020160050154105b15612bdb5761303a565b600082600183612beb9190613b66565b81548110612c22577f4e487b7100000000000000000000000000000000000000000000000000000000600052603260045260246000fd5b906000526020600020906007020160405180610100016040529081600082015481526020016001820160009054906101000a900473ffffffffffffffffffffffffffffffffffffffff1673ffffffffffffffffffffffffffffffffffffffff1673ffffffffffffffffffffffffffffffffffffffff1681526020016001820160149054906101000a900460ff166001811115612ce7577f4e487b7100000000000000000000000000000000000000000000000000000000600052602160045260246000fd5b6001811115612d1f577f4e487b7100000000000000000000000000000000000000000000000000000000600052602160045260246000fd5b8152602001600282015481526020016003820154815260200160048201548152602001600582015481526020016006820154815250509050828281548110612d90577f4e487b7100000000000000000000000000000000000000000000000000000000600052603260045260246000fd5b906000526020600020906007020183600184612dac9190613b66565b81548110612de3577f4e487b7100000000000000000000000000000000000000000000000000000000600052603260045260246000fd5b9060005260206000209060070201600082015481600001556001820160009054906101000a900473ffffffffffffffffffffffffffffffffffffffff168160010160006101000a81548173ffffffffffffffffffffffffffffffffffffffff021916908373ffffffffffffffffffffffffffffffffffffffff1602179055506001820160149054906101000a900460ff168160010160146101000a81548160ff02191690836001811115612ec0577f4e487b7100000000000000000000000000000000000000000000000000000000600052602160045260246000fd5b0217905550600282015481600201556003820154816003015560048201548160040155600582015481600501556006820154816006015590505080838381548110612f34577f4e487b7100000000000000000000000000000000000000000000000000000000600052603260045260246000fd5b90600052602060002090600702016000820151816000015560208201518160010160006101000a81548173ffffffffffffffffffffffffffffffffffffffff021916908373ffffffffffffffffffffffffffffffffffffffff16021790555060408201518160010160146101000a81548160ff02191690836001811115612fe4577f4e487b7100000000000000000000000000000000000000000000000000000000600052602160045260246000fd5b0217905550606082015181600201556080820151816003015560a0820151816004015560c0820151816005015560e0820151816006015590505061303260018361308490919063ffffffff16565b915050612981565b613050600160055461309a90919063ffffffff16565b6005819055505050505050505050565b60008054906101000a900473ffffffffffffffffffffffffffffffffffffffff1681565b600081836130929190613b66565b905092915050565b600081836130a89190613ab6565b905092915050565b600081836130be9190613b0c565b905092915050565b604051806040016040528060008019168152602001600073ffffffffffffffffffffffffffffffffffffffff1681525090565b60008135905061310881613ccc565b92915050565b60008151905061311d81613ce3565b92915050565b60008135905061313281613cfa565b92915050565b60008135905061314781613d11565b92915050565b60008135905061315c81613d21565b92915050565b6000806040838503121561317557600080fd5b6000613183858286016130f9565b925050602061319485828601613123565b9150509250929050565b6000602082840312156131b057600080fd5b60006131be8482850161310e565b91505092915050565b6000602082840312156131d957600080fd5b60006131e784828501613123565b91505092915050565b6000806040838503121561320357600080fd5b600061321185828601613123565b9250506020613222858286016130f9565b9150509250929050565b6000806040838503121561323f57600080fd5b600061324d85828601613123565b925050602061325e85828601613138565b9150509250929050565b60008060006060848603121561327d57600080fd5b600061328b86828701613123565b935050602061329c8682870161314d565b92505060406132ad86828701613138565b9150509250925092565b6000806000606084860312156132cc57600080fd5b60006132da86828701613123565b93505060206132eb8682870161314d565b92505060406132fc8682870161314d565b9150509250925092565b6000806000806080858703121561331c57600080fd5b600061332a87828801613123565b945050602061333b8782880161314d565b935050604061334c8782880161314d565b925050606061335d87828801613138565b91505092959194509250565b60006020828403121561337b57600080fd5b60006133898482850161314d565b91505092915050565b600080604083850312156133a557600080fd5b60006133b38582860161314d565b92505060206133c485828601613123565b9150509250929050565b60006133da8383613695565b6101008301905092915050565b60006133f38383613737565b60408301905092915050565b61340881613b9a565b82525050565b61341781613b9a565b82525050565b600061342882613a53565b6134328185613a83565b935061343d83613a33565b8060005b8381101561346e57815161345588826133ce565b975061346083613a69565b925050600181019050613441565b5085935050505092915050565b600061348682613a5e565b6134908185613a94565b935061349b83613a43565b8060005b838110156134cc5781516134b388826133e7565b97506134be83613a76565b92505060018101905061349f565b5085935050505092915050565b6134e281613bb8565b82525050565b6134f181613bb8565b82525050565b61350081613bff565b82525050565b61350f81613bff565b82525050565b6000613522600f83613aa5565b91507f42616c616e636520746f6f206c6f7700000000000000000000000000000000006000830152602082019050919050565b6000613562600a83613aa5565b91507f4f6e6c792061646d696e000000000000000000000000000000000000000000006000830152602082019050919050565b60006135a2601383613aa5565b91507f4441492062616c616e636520746f6f206c6f77000000000000000000000000006000830152602082019050919050565b60006135e2601983613aa5565b91507f5468697320746f6b656e20646f6573206e6f74206578697374000000000000006000830152602082019050919050565b6000613622601583613aa5565b91507f546f6b656e2062616c616e636520746f6f206c6f7700000000000000000000006000830152602082019050919050565b6000613662601083613aa5565b91507f43616e6e6f7420747261646520444149000000000000000000000000000000006000830152602082019050919050565b610100820160008201516136ac6000850182613766565b5060208201516136bf60208501826133ff565b5060408201516136d260408501826134f7565b5060608201516136e560608501826134d9565b5060808201516136f86080850182613766565b5060a082015161370b60a0850182613766565b5060c082015161371e60c0850182613766565b5060e082015161373160e0850182613766565b50505050565b60408201600082015161374d60008501826134d9565b50602082015161376060208501826133ff565b50505050565b61376f81613bf5565b82525050565b61377e81613bf5565b82525050565b6000602082019050613799600083018461340e565b92915050565b60006060820190506137b4600083018661340e565b6137c1602083018561340e565b6137ce6040830184613775565b949350505050565b60006040820190506137eb600083018561340e565b6137f86020830184613775565b9392505050565b60006020820190508181036000830152613819818461341d565b905092915050565b6000602082019050818103600083015261383b818461347b565b905092915050565b600060208201905061385860008301846134e8565b92915050565b600060408201905061387360008301856134e8565b613880602083018461340e565b9392505050565b600060208201905081810360008301526138a081613515565b9050919050565b600060208201905081810360008301526138c081613555565b9050919050565b600060208201905081810360008301526138e081613595565b9050919050565b60006020820190508181036000830152613900816135d5565b9050919050565b6000602082019050818103600083015261392081613615565b9050919050565b6000602082019050818103600083015261394081613655565b9050919050565b600060208201905061395c6000830184613775565b92915050565b600061010082019050613978600083018b613775565b613985602083018a61340e565b6139926040830189613506565b61399f60608301886134e8565b6139ac6080830187613775565b6139b960a0830186613775565b6139c660c0830185613775565b6139d360e0830184613775565b9998505050505050505050565b600060a0820190506139f56000830188613775565b613a026020830187613775565b613a0f6040830186613775565b613a1c6060830185613775565b613a296080830184613775565b9695505050505050565b6000819050602082019050919050565b6000819050602082019050919050565b600081519050919050565b600081519050919050565b6000602082019050919050565b6000602082019050919050565b600082825260208201905092915050565b600082825260208201905092915050565b600082825260208201905092915050565b6000613ac182613bf5565b9150613acc83613bf5565b9250827fffffffffffffffffffffffffffffffffffffffffffffffffffffffffffffffff03821115613b0157613b00613c5a565b5b828201905092915050565b6000613b1782613bf5565b9150613b2283613bf5565b9250817fffffffffffffffffffffffffffffffffffffffffffffffffffffffffffffffff0483118215151615613b5b57613b5a613c5a565b5b828202905092915050565b6000613b7182613bf5565b9150613b7c83613bf5565b925082821015613b8f57613b8e613c5a565b5b828203905092915050565b6000613ba582613bd5565b9050919050565b60008115159050919050565b6000819050919050565b6000819050613bd082613cb8565b919050565b600073ffffffffffffffffffffffffffffffffffffffff82169050919050565b6000819050919050565b6000613c0a82613bc2565b9050919050565b6000613c1c82613bf5565b91507fffffffffffffffffffffffffffffffffffffffffffffffffffffffffffffffff821415613c4f57613c4e613c5a565b5b600182019050919050565b7f4e487b7100000000000000000000000000000000000000000000000000000000600052601160045260246000fd5b7f4e487b7100000000000000000000000000000000000000000000000000000000600052602160045260246000fd5b60028110613cc957613cc8613c89565b5b50565b613cd581613b9a565b8114613ce057600080fd5b50565b613cec81613bac565b8114613cf757600080fd5b50565b613d0381613bb8565b8114613d0e57600080fd5b50565b60028110613d1e57600080fd5b50565b613d2a81613bf5565b8114613d3557600080fd5b5056fea264697066735822122064c626f4d07c0acecb890c412b174b13f1872af354f33424475e7f3f628f664964736f6c63430008000033",
					"opcodes": "PUSH1 0x80 PUSH1 0x40 MSTORE CALLVALUE DUP1 ISZERO PUSH2 0x10 JUMPI PUSH1 0x0 DUP1 REVERT JUMPDEST POP CALLER PUSH1 0x0 DUP1 PUSH2 0x100 EXP DUP2 SLOAD DUP2 PUSH20 0xFFFFFFFFFFFFFFFFFFFFFFFFFFFFFFFFFFFFFFFF MUL NOT AND SWAP1 DUP4 PUSH20 0xFFFFFFFFFFFFFFFFFFFFFFFFFFFFFFFFFFFFFFFF AND MUL OR SWAP1 SSTORE POP PUSH2 0x3D6E DUP1 PUSH2 0x60 PUSH1 0x0 CODECOPY PUSH1 0x0 RETURN INVALID PUSH1 0x80 PUSH1 0x40 MSTORE CALLVALUE DUP1 ISZERO PUSH2 0x10 JUMPI PUSH1 0x0 DUP1 REVERT JUMPDEST POP PUSH1 0x4 CALLDATASIZE LT PUSH2 0xCF JUMPI PUSH1 0x0 CALLDATALOAD PUSH1 0xE0 SHR DUP1 PUSH4 0x9776AACF GT PUSH2 0x8C JUMPI DUP1 PUSH4 0xAA6CA808 GT PUSH2 0x66 JUMPI DUP1 PUSH4 0xAA6CA808 EQ PUSH2 0x23E JUMPI DUP1 PUSH4 0xC9630CB0 EQ PUSH2 0x25C JUMPI DUP1 PUSH4 0xD9C0C950 EQ PUSH2 0x278 JUMPI DUP1 PUSH4 0xF851A440 EQ PUSH2 0x294 JUMPI PUSH2 0xCF JUMP JUMPDEST DUP1 PUSH4 0x9776AACF EQ PUSH2 0x1D6 JUMPI DUP1 PUSH4 0x9EAD7222 EQ PUSH2 0x1F2 JUMPI DUP1 PUSH4 0xA8D2021A EQ PUSH2 0x222 JUMPI PUSH2 0xCF JUMP JUMPDEST DUP1 PUSH4 0xBB431B6 EQ PUSH2 0xD4 JUMPI DUP1 PUSH4 0x2A58B330 EQ PUSH2 0x10B JUMPI DUP1 PUSH4 0x46E9658B EQ PUSH2 0x129 JUMPI DUP1 PUSH4 0x72CE957E EQ PUSH2 0x159 JUMPI DUP1 PUSH4 0x7F2C6246 EQ PUSH2 0x189 JUMPI DUP1 PUSH4 0x904194A3 EQ PUSH2 0x1A5 JUMPI JUMPDEST PUSH1 0x0 DUP1 REVERT JUMPDEST PUSH2 0xEE PUSH1 0x4 DUP1 CALLDATASIZE SUB DUP2 ADD SWAP1 PUSH2 0xE9 SWAP2 SWAP1 PUSH2 0x32B7 JUMP JUMPDEST PUSH2 0x2B2 JUMP JUMPDEST PUSH1 0x40 MLOAD PUSH2 0x102 SWAP9 SWAP8 SWAP7 SWAP6 SWAP5 SWAP4 SWAP3 SWAP2 SWAP1 PUSH2 0x3962 JUMP JUMPDEST PUSH1 0x40 MLOAD DUP1 SWAP2 SUB SWAP1 RETURN JUMPDEST PUSH2 0x113 PUSH2 0x351 JUMP JUMPDEST PUSH1 0x40 MLOAD PUSH2 0x120 SWAP2 SWAP1 PUSH2 0x3947 JUMP JUMPDEST PUSH1 0x40 MLOAD DUP1 SWAP2 SUB SWAP1 RETURN JUMPDEST PUSH2 0x143 PUSH1 0x4 DUP1 CALLDATASIZE SUB DUP2 ADD SWAP1 PUSH2 0x13E SWAP2 SWAP1 PUSH2 0x322C JUMP JUMPDEST PUSH2 0x357 JUMP JUMPDEST PUSH1 0x40 MLOAD PUSH2 0x150 SWAP2 SWAP1 PUSH2 0x37FF JUMP JUMPDEST PUSH1 0x40 MLOAD DUP1 SWAP2 SUB SWAP1 RETURN JUMPDEST PUSH2 0x173 PUSH1 0x4 DUP1 CALLDATASIZE SUB DUP2 ADD SWAP1 PUSH2 0x16E SWAP2 SWAP1 PUSH2 0x3162 JUMP JUMPDEST PUSH2 0x52D JUMP JUMPDEST PUSH1 0x40 MLOAD PUSH2 0x180 SWAP2 SWAP1 PUSH2 0x3947 JUMP JUMPDEST PUSH1 0x40 MLOAD DUP1 SWAP2 SUB SWAP1 RETURN JUMPDEST PUSH2 0x1A3 PUSH1 0x4 DUP1 CALLDATASIZE SUB DUP2 ADD SWAP1 PUSH2 0x19E SWAP2 SWAP1 PUSH2 0x3268 JUMP JUMPDEST PUSH2 0x552 JUMP JUMPDEST STOP JUMPDEST PUSH2 0x1BF PUSH1 0x4 DUP1 CALLDATASIZE SUB DUP2 ADD SWAP1 PUSH2 0x1BA SWAP2 SWAP1 PUSH2 0x31C7 JUMP JUMPDEST PUSH2 0x1BFC JUMP JUMPDEST PUSH1 0x40 MLOAD PUSH2 0x1CD SWAP3 SWAP2 SWAP1 PUSH2 0x385E JUMP JUMPDEST PUSH1 0x40 MLOAD DUP1 SWAP2 SUB SWAP1 RETURN JUMPDEST PUSH2 0x1F0 PUSH1 0x4 DUP1 CALLDATASIZE SUB DUP2 ADD SWAP1 PUSH2 0x1EB SWAP2 SWAP1 PUSH2 0x31F0 JUMP JUMPDEST PUSH2 0x1C40 JUMP JUMPDEST STOP JUMPDEST PUSH2 0x20C PUSH1 0x4 DUP1 CALLDATASIZE SUB DUP2 ADD SWAP1 PUSH2 0x207 SWAP2 SWAP1 PUSH2 0x3369 JUMP JUMPDEST PUSH2 0x1D8D JUMP JUMPDEST PUSH1 0x40 MLOAD PUSH2 0x219 SWAP2 SWAP1 PUSH2 0x3843 JUMP JUMPDEST PUSH1 0x40 MLOAD DUP1 SWAP2 SUB SWAP1 RETURN JUMPDEST PUSH2 0x23C PUSH1 0x4 DUP1 CALLDATASIZE SUB DUP2 ADD SWAP1 PUSH2 0x237 SWAP2 SWAP1 PUSH2 0x3392 JUMP JUMPDEST PUSH2 0x1DB1 JUMP JUMPDEST STOP JUMPDEST PUSH2 0x246 PUSH2 0x206B JUMP JUMPDEST PUSH1 0x40 MLOAD PUSH2 0x253 SWAP2 SWAP1 PUSH2 0x3821 JUMP JUMPDEST PUSH1 0x40 MLOAD DUP1 SWAP2 SUB SWAP1 RETURN JUMPDEST PUSH2 0x276 PUSH1 0x4 DUP1 CALLDATASIZE SUB DUP2 ADD SWAP1 PUSH2 0x271 SWAP2 SWAP1 PUSH2 0x3392 JUMP JUMPDEST PUSH2 0x225E JUMP JUMPDEST STOP JUMPDEST PUSH2 0x292 PUSH1 0x4 DUP1 CALLDATASIZE SUB DUP2 ADD SWAP1 PUSH2 0x28D SWAP2 SWAP1 PUSH2 0x3306 JUMP JUMPDEST PUSH2 0x2487 JUMP JUMPDEST STOP JUMPDEST PUSH2 0x29C PUSH2 0x3060 JUMP JUMPDEST PUSH1 0x40 MLOAD PUSH2 0x2A9 SWAP2 SWAP1 PUSH2 0x3784 JUMP JUMPDEST PUSH1 0x40 MLOAD DUP1 SWAP2 SUB SWAP1 RETURN JUMPDEST PUSH1 0x4 PUSH1 0x20 MSTORE DUP3 PUSH1 0x0 MSTORE PUSH1 0x40 PUSH1 0x0 KECCAK256 PUSH1 0x20 MSTORE DUP2 PUSH1 0x0 MSTORE PUSH1 0x40 PUSH1 0x0 KECCAK256 DUP2 DUP2 SLOAD DUP2 LT PUSH2 0x2DA JUMPI PUSH1 0x0 DUP1 REVERT JUMPDEST SWAP1 PUSH1 0x0 MSTORE PUSH1 0x20 PUSH1 0x0 KECCAK256 SWAP1 PUSH1 0x7 MUL ADD PUSH1 0x0 SWAP3 POP SWAP3 POP POP POP DUP1 PUSH1 0x0 ADD SLOAD SWAP1 DUP1 PUSH1 0x1 ADD PUSH1 0x0 SWAP1 SLOAD SWAP1 PUSH2 0x100 EXP SWAP1 DIV PUSH20 0xFFFFFFFFFFFFFFFFFFFFFFFFFFFFFFFFFFFFFFFF AND SWAP1 DUP1 PUSH1 0x1 ADD PUSH1 0x14 SWAP1 SLOAD SWAP1 PUSH2 0x100 EXP SWAP1 DIV PUSH1 0xFF AND SWAP1 DUP1 PUSH1 0x2 ADD SLOAD SWAP1 DUP1 PUSH1 0x3 ADD SLOAD SWAP1 DUP1 PUSH1 0x4 ADD SLOAD SWAP1 DUP1 PUSH1 0x5 ADD SLOAD SWAP1 DUP1 PUSH1 0x6 ADD SLOAD SWAP1 POP DUP9 JUMP JUMPDEST PUSH1 0x5 SLOAD DUP2 JUMP JUMPDEST PUSH1 0x60 PUSH1 0x4 PUSH1 0x0 DUP5 DUP2 MSTORE PUSH1 0x20 ADD SWAP1 DUP2 MSTORE PUSH1 0x20 ADD PUSH1 0x0 KECCAK256 PUSH1 0x0 DUP4 PUSH1 0x1 DUP2 GT ISZERO PUSH2 0x3A7 JUMPI PUSH32 0x4E487B7100000000000000000000000000000000000000000000000000000000 PUSH1 0x0 MSTORE PUSH1 0x21 PUSH1 0x4 MSTORE PUSH1 0x24 PUSH1 0x0 REVERT JUMPDEST DUP2 MSTORE PUSH1 0x20 ADD SWAP1 DUP2 MSTORE PUSH1 0x20 ADD PUSH1 0x0 KECCAK256 DUP1 SLOAD DUP1 PUSH1 0x20 MUL PUSH1 0x20 ADD PUSH1 0x40 MLOAD SWAP1 DUP2 ADD PUSH1 0x40 MSTORE DUP1 SWAP3 SWAP2 SWAP1 DUP2 DUP2 MSTORE PUSH1 0x20 ADD PUSH1 0x0 SWAP1 JUMPDEST DUP3 DUP3 LT ISZERO PUSH2 0x521 JUMPI DUP4 DUP3 SWAP1 PUSH1 0x0 MSTORE PUSH1 0x20 PUSH1 0x0 KECCAK256 SWAP1 PUSH1 0x7 MUL ADD PUSH1 0x40 MLOAD DUP1 PUSH2 0x100 ADD PUSH1 0x40 MSTORE SWAP1 DUP2 PUSH1 0x0 DUP3 ADD SLOAD DUP2 MSTORE PUSH1 0x20 ADD PUSH1 0x1 DUP3 ADD PUSH1 0x0 SWAP1 SLOAD SWAP1 PUSH2 0x100 EXP SWAP1 DIV PUSH20 0xFFFFFFFFFFFFFFFFFFFFFFFFFFFFFFFFFFFFFFFF AND PUSH20 0xFFFFFFFFFFFFFFFFFFFFFFFFFFFFFFFFFFFFFFFF AND PUSH20 0xFFFFFFFFFFFFFFFFFFFFFFFFFFFFFFFFFFFFFFFF AND DUP2 MSTORE PUSH1 0x20 ADD PUSH1 0x1 DUP3 ADD PUSH1 0x14 SWAP1 SLOAD SWAP1 PUSH2 0x100 EXP SWAP1 DIV PUSH1 0xFF AND PUSH1 0x1 DUP2 GT ISZERO PUSH2 0x4A4 JUMPI PUSH32 0x4E487B7100000000000000000000000000000000000000000000000000000000 PUSH1 0x0 MSTORE PUSH1 0x21 PUSH1 0x4 MSTORE PUSH1 0x24 PUSH1 0x0 REVERT JUMPDEST PUSH1 0x1 DUP2 GT ISZERO PUSH2 0x4DC JUMPI PUSH32 0x4E487B7100000000000000000000000000000000000000000000000000000000 PUSH1 0x0 MSTORE PUSH1 0x21 PUSH1 0x4 MSTORE PUSH1 0x24 PUSH1 0x0 REVERT JUMPDEST DUP2 MSTORE PUSH1 0x20 ADD PUSH1 0x2 DUP3 ADD SLOAD DUP2 MSTORE PUSH1 0x20 ADD PUSH1 0x3 DUP3 ADD SLOAD DUP2 MSTORE PUSH1 0x20 ADD PUSH1 0x4 DUP3 ADD SLOAD DUP2 MSTORE PUSH1 0x20 ADD PUSH1 0x5 DUP3 ADD SLOAD DUP2 MSTORE PUSH1 0x20 ADD PUSH1 0x6 DUP3 ADD SLOAD DUP2 MSTORE POP POP DUP2 MSTORE PUSH1 0x20 ADD SWAP1 PUSH1 0x1 ADD SWAP1 PUSH2 0x3D5 JUMP JUMPDEST POP POP POP POP SWAP1 POP SWAP3 SWAP2 POP POP JUMP JUMPDEST PUSH1 0x3 PUSH1 0x20 MSTORE DUP2 PUSH1 0x0 MSTORE PUSH1 0x40 PUSH1 0x0 KECCAK256 PUSH1 0x20 MSTORE DUP1 PUSH1 0x0 MSTORE PUSH1 0x40 PUSH1 0x0 KECCAK256 PUSH1 0x0 SWAP2 POP SWAP2 POP POP SLOAD DUP2 JUMP JUMPDEST DUP3 PUSH1 0x0 PUSH20 0xFFFFFFFFFFFFFFFFFFFFFFFFFFFFFFFFFFFFFFFF AND PUSH1 0x1 PUSH1 0x0 DUP4 DUP2 MSTORE PUSH1 0x20 ADD SWAP1 DUP2 MSTORE PUSH1 0x20 ADD PUSH1 0x0 KECCAK256 PUSH1 0x1 ADD PUSH1 0x0 SWAP1 SLOAD SWAP1 PUSH2 0x100 EXP SWAP1 DIV PUSH20 0xFFFFFFFFFFFFFFFFFFFFFFFFFFFFFFFFFFFFFFFF AND PUSH20 0xFFFFFFFFFFFFFFFFFFFFFFFFFFFFFFFFFFFFFFFF AND EQ ISZERO PUSH2 0x5F9 JUMPI PUSH1 0x40 MLOAD PUSH32 0x8C379A000000000000000000000000000000000000000000000000000000000 DUP2 MSTORE PUSH1 0x4 ADD PUSH2 0x5F0 SWAP1 PUSH2 0x38E7 JUMP JUMPDEST PUSH1 0x40 MLOAD DUP1 SWAP2 SUB SWAP1 REVERT JUMPDEST DUP4 PUSH32 0x4441490000000000000000000000000000000000000000000000000000000000 DUP2 EQ ISZERO PUSH2 0x65D JUMPI PUSH1 0x40 MLOAD PUSH32 0x8C379A000000000000000000000000000000000000000000000000000000000 DUP2 MSTORE PUSH1 0x4 ADD PUSH2 0x654 SWAP1 PUSH2 0x3927 JUMP JUMPDEST PUSH1 0x40 MLOAD DUP1 SWAP2 SUB SWAP1 REVERT JUMPDEST PUSH1 0x1 DUP1 DUP2 GT ISZERO PUSH2 0x696 JUMPI PUSH32 0x4E487B7100000000000000000000000000000000000000000000000000000000 PUSH1 0x0 MSTORE PUSH1 0x21 PUSH1 0x4 MSTORE PUSH1 0x24 PUSH1 0x0 REVERT JUMPDEST DUP4 PUSH1 0x1 DUP2 GT ISZERO PUSH2 0x6CF JUMPI PUSH32 0x4E487B7100000000000000000000000000000000000000000000000000000000 PUSH1 0x0 MSTORE PUSH1 0x21 PUSH1 0x4 MSTORE PUSH1 0x24 PUSH1 0x0 REVERT JUMPDEST EQ ISZERO PUSH2 0x76D JUMPI DUP4 PUSH1 0x3 PUSH1 0x0 CALLER PUSH20 0xFFFFFFFFFFFFFFFFFFFFFFFFFFFFFFFFFFFFFFFF AND PUSH20 0xFFFFFFFFFFFFFFFFFFFFFFFFFFFFFFFFFFFFFFFF AND DUP2 MSTORE PUSH1 0x20 ADD SWAP1 DUP2 MSTORE PUSH1 0x20 ADD PUSH1 0x0 KECCAK256 PUSH1 0x0 DUP8 DUP2 MSTORE PUSH1 0x20 ADD SWAP1 DUP2 MSTORE PUSH1 0x20 ADD PUSH1 0x0 KECCAK256 SLOAD LT ISZERO PUSH2 0x768 JUMPI PUSH1 0x40 MLOAD PUSH32 0x8C379A000000000000000000000000000000000000000000000000000000000 DUP2 MSTORE PUSH1 0x4 ADD PUSH2 0x75F SWAP1 PUSH2 0x3907 JUMP JUMPDEST PUSH1 0x40 MLOAD DUP1 SWAP2 SUB SWAP1 REVERT JUMPDEST PUSH2 0x76E JUMP JUMPDEST JUMPDEST PUSH1 0x0 PUSH1 0x4 PUSH1 0x0 DUP8 DUP2 MSTORE PUSH1 0x20 ADD SWAP1 DUP2 MSTORE PUSH1 0x20 ADD PUSH1 0x0 KECCAK256 PUSH1 0x0 DUP1 PUSH1 0x1 DUP2 GT ISZERO PUSH2 0x7BE JUMPI PUSH32 0x4E487B7100000000000000000000000000000000000000000000000000000000 PUSH1 0x0 MSTORE PUSH1 0x21 PUSH1 0x4 MSTORE PUSH1 0x24 PUSH1 0x0 REVERT JUMPDEST DUP7 PUSH1 0x1 DUP2 GT ISZERO PUSH2 0x7F7 JUMPI PUSH32 0x4E487B7100000000000000000000000000000000000000000000000000000000 PUSH1 0x0 MSTORE PUSH1 0x21 PUSH1 0x4 MSTORE PUSH1 0x24 PUSH1 0x0 REVERT JUMPDEST EQ PUSH2 0x803 JUMPI PUSH1 0x0 PUSH2 0x806 JUMP JUMPDEST PUSH1 0x1 JUMPDEST PUSH1 0x1 DUP2 GT ISZERO PUSH2 0x83E JUMPI PUSH32 0x4E487B7100000000000000000000000000000000000000000000000000000000 PUSH1 0x0 MSTORE PUSH1 0x21 PUSH1 0x4 MSTORE PUSH1 0x24 PUSH1 0x0 REVERT JUMPDEST DUP2 MSTORE PUSH1 0x20 ADD SWAP1 DUP2 MSTORE PUSH1 0x20 ADD PUSH1 0x0 KECCAK256 SWAP1 POP PUSH1 0x0 DUP1 DUP7 SWAP1 POP JUMPDEST DUP3 DUP1 SLOAD SWAP1 POP DUP3 LT DUP1 ISZERO PUSH2 0x868 JUMPI POP PUSH1 0x0 DUP2 GT JUMPDEST ISZERO PUSH2 0x1897 JUMPI PUSH1 0x0 PUSH2 0x916 DUP5 DUP5 DUP2 SLOAD DUP2 LT PUSH2 0x8AB JUMPI PUSH32 0x4E487B7100000000000000000000000000000000000000000000000000000000 PUSH1 0x0 MSTORE PUSH1 0x32 PUSH1 0x4 MSTORE PUSH1 0x24 PUSH1 0x0 REVERT JUMPDEST SWAP1 PUSH1 0x0 MSTORE PUSH1 0x20 PUSH1 0x0 KECCAK256 SWAP1 PUSH1 0x7 MUL ADD PUSH1 0x4 ADD SLOAD DUP6 DUP6 DUP2 SLOAD DUP2 LT PUSH2 0x8F6 JUMPI PUSH32 0x4E487B7100000000000000000000000000000000000000000000000000000000 PUSH1 0x0 MSTORE PUSH1 0x32 PUSH1 0x4 MSTORE PUSH1 0x24 PUSH1 0x0 REVERT JUMPDEST SWAP1 PUSH1 0x0 MSTORE PUSH1 0x20 PUSH1 0x0 KECCAK256 SWAP1 PUSH1 0x7 MUL ADD PUSH1 0x3 ADD SLOAD PUSH2 0x3084 SWAP1 SWAP2 SWAP1 PUSH4 0xFFFFFFFF AND JUMP JUMPDEST SWAP1 POP PUSH1 0x0 DUP2 DUP4 GT PUSH2 0x927 JUMPI DUP3 PUSH2 0x929 JUMP JUMPDEST DUP2 JUMPDEST SWAP1 POP PUSH2 0x93E DUP2 DUP5 PUSH2 0x3084 SWAP1 SWAP2 SWAP1 PUSH4 0xFFFFFFFF AND JUMP JUMPDEST SWAP3 POP PUSH2 0x99D DUP2 DUP7 DUP7 DUP2 SLOAD DUP2 LT PUSH2 0x97D JUMPI PUSH32 0x4E487B7100000000000000000000000000000000000000000000000000000000 PUSH1 0x0 MSTORE PUSH1 0x32 PUSH1 0x4 MSTORE PUSH1 0x24 PUSH1 0x0 REVERT JUMPDEST SWAP1 PUSH1 0x0 MSTORE PUSH1 0x20 PUSH1 0x0 KECCAK256 SWAP1 PUSH1 0x7 MUL ADD PUSH1 0x4 ADD SLOAD PUSH2 0x309A SWAP1 SWAP2 SWAP1 PUSH4 0xFFFFFFFF AND JUMP JUMPDEST DUP6 DUP6 DUP2 SLOAD DUP2 LT PUSH2 0x9D6 JUMPI PUSH32 0x4E487B7100000000000000000000000000000000000000000000000000000000 PUSH1 0x0 MSTORE PUSH1 0x32 PUSH1 0x4 MSTORE PUSH1 0x24 PUSH1 0x0 REVERT JUMPDEST SWAP1 PUSH1 0x0 MSTORE PUSH1 0x20 PUSH1 0x0 KECCAK256 SWAP1 PUSH1 0x7 MUL ADD PUSH1 0x4 ADD DUP2 SWAP1 SSTORE POP CALLER PUSH20 0xFFFFFFFFFFFFFFFFFFFFFFFFFFFFFFFFFFFFFFFF AND DUP6 DUP6 DUP2 SLOAD DUP2 LT PUSH2 0xA3B JUMPI PUSH32 0x4E487B7100000000000000000000000000000000000000000000000000000000 PUSH1 0x0 MSTORE PUSH1 0x32 PUSH1 0x4 MSTORE PUSH1 0x24 PUSH1 0x0 REVERT JUMPDEST SWAP1 PUSH1 0x0 MSTORE PUSH1 0x20 PUSH1 0x0 KECCAK256 SWAP1 PUSH1 0x7 MUL ADD PUSH1 0x1 ADD PUSH1 0x0 SWAP1 SLOAD SWAP1 PUSH2 0x100 EXP SWAP1 DIV PUSH20 0xFFFFFFFFFFFFFFFFFFFFFFFFFFFFFFFFFFFFFFFF AND PUSH20 0xFFFFFFFFFFFFFFFFFFFFFFFFFFFFFFFFFFFFFFFF AND DUP12 PUSH32 0xDB0C486E680BA8026643E6A85F8D157B5E7BCD4B32B54D564542570A9EB20416 PUSH1 0x6 SLOAD DUP10 DUP10 DUP2 SLOAD DUP2 LT PUSH2 0xAE1 JUMPI PUSH32 0x4E487B7100000000000000000000000000000000000000000000000000000000 PUSH1 0x0 MSTORE PUSH1 0x32 PUSH1 0x4 MSTORE PUSH1 0x24 PUSH1 0x0 REVERT JUMPDEST SWAP1 PUSH1 0x0 MSTORE PUSH1 0x20 PUSH1 0x0 KECCAK256 SWAP1 PUSH1 0x7 MUL ADD PUSH1 0x0 ADD SLOAD DUP7 DUP12 DUP12 DUP2 SLOAD DUP2 LT PUSH2 0xB2D JUMPI PUSH32 0x4E487B7100000000000000000000000000000000000000000000000000000000 PUSH1 0x0 MSTORE PUSH1 0x32 PUSH1 0x4 MSTORE PUSH1 0x24 PUSH1 0x0 REVERT JUMPDEST SWAP1 PUSH1 0x0 MSTORE PUSH1 0x20 PUSH1 0x0 KECCAK256 SWAP1 PUSH1 0x7 MUL ADD PUSH1 0x5 ADD SLOAD TIMESTAMP PUSH1 0x40 MLOAD PUSH2 0xB51 SWAP6 SWAP5 SWAP4 SWAP3 SWAP2 SWAP1 PUSH2 0x39E0 JUMP JUMPDEST PUSH1 0x40 MLOAD DUP1 SWAP2 SUB SWAP1 LOG4 PUSH1 0x1 DUP1 DUP2 GT ISZERO PUSH2 0xB92 JUMPI PUSH32 0x4E487B7100000000000000000000000000000000000000000000000000000000 PUSH1 0x0 MSTORE PUSH1 0x21 PUSH1 0x4 MSTORE PUSH1 0x24 PUSH1 0x0 REVERT JUMPDEST DUP9 PUSH1 0x1 DUP2 GT ISZERO PUSH2 0xBCB JUMPI PUSH32 0x4E487B7100000000000000000000000000000000000000000000000000000000 PUSH1 0x0 MSTORE PUSH1 0x21 PUSH1 0x4 MSTORE PUSH1 0x24 PUSH1 0x0 REVERT JUMPDEST EQ ISZERO PUSH2 0x1192 JUMPI PUSH2 0xC34 DUP2 PUSH1 0x3 PUSH1 0x0 CALLER PUSH20 0xFFFFFFFFFFFFFFFFFFFFFFFFFFFFFFFFFFFFFFFF AND PUSH20 0xFFFFFFFFFFFFFFFFFFFFFFFFFFFFFFFFFFFFFFFF AND DUP2 MSTORE PUSH1 0x20 ADD SWAP1 DUP2 MSTORE PUSH1 0x20 ADD PUSH1 0x0 KECCAK256 PUSH1 0x0 DUP14 DUP2 MSTORE PUSH1 0x20 ADD SWAP1 DUP2 MSTORE PUSH1 0x20 ADD PUSH1 0x0 KECCAK256 SLOAD PUSH2 0x3084 SWAP1 SWAP2 SWAP1 PUSH4 0xFFFFFFFF AND JUMP JUMPDEST PUSH1 0x3 PUSH1 0x0 CALLER PUSH20 0xFFFFFFFFFFFFFFFFFFFFFFFFFFFFFFFFFFFFFFFF AND PUSH20 0xFFFFFFFFFFFFFFFFFFFFFFFFFFFFFFFFFFFFFFFF AND DUP2 MSTORE PUSH1 0x20 ADD SWAP1 DUP2 MSTORE PUSH1 0x20 ADD PUSH1 0x0 KECCAK256 PUSH1 0x0 DUP13 DUP2 MSTORE PUSH1 0x20 ADD SWAP1 DUP2 MSTORE PUSH1 0x20 ADD PUSH1 0x0 KECCAK256 DUP2 SWAP1 SSTORE POP PUSH2 0xD67 PUSH2 0xCE8 DUP7 DUP7 DUP2 SLOAD DUP2 LT PUSH2 0xCC7 JUMPI PUSH32 0x4E487B7100000000000000000000000000000000000000000000000000000000 PUSH1 0x0 MSTORE PUSH1 0x32 PUSH1 0x4 MSTORE PUSH1 0x24 PUSH1 0x0 REVERT JUMPDEST SWAP1 PUSH1 0x0 MSTORE PUSH1 0x20 PUSH1 0x0 KECCAK256 SWAP1 PUSH1 0x7 MUL ADD PUSH1 0x5 ADD SLOAD DUP4 PUSH2 0x30B0 SWAP1 SWAP2 SWAP1 PUSH4 0xFFFFFFFF AND JUMP JUMPDEST PUSH1 0x3 PUSH1 0x0 CALLER PUSH20 0xFFFFFFFFFFFFFFFFFFFFFFFFFFFFFFFFFFFFFFFF AND PUSH20 0xFFFFFFFFFFFFFFFFFFFFFFFFFFFFFFFFFFFFFFFF AND DUP2 MSTORE PUSH1 0x20 ADD SWAP1 DUP2 MSTORE PUSH1 0x20 ADD PUSH1 0x0 KECCAK256 PUSH1 0x0 PUSH32 0x4441490000000000000000000000000000000000000000000000000000000000 DUP2 MSTORE PUSH1 0x20 ADD SWAP1 DUP2 MSTORE PUSH1 0x20 ADD PUSH1 0x0 KECCAK256 SLOAD PUSH2 0x309A SWAP1 SWAP2 SWAP1 PUSH4 0xFFFFFFFF AND JUMP JUMPDEST PUSH1 0x3 PUSH1 0x0 CALLER PUSH20 0xFFFFFFFFFFFFFFFFFFFFFFFFFFFFFFFFFFFFFFFF AND PUSH20 0xFFFFFFFFFFFFFFFFFFFFFFFFFFFFFFFFFFFFFFFF AND DUP2 MSTORE PUSH1 0x20 ADD SWAP1 DUP2 MSTORE PUSH1 0x20 ADD PUSH1 0x0 KECCAK256 PUSH1 0x0 PUSH32 0x4441490000000000000000000000000000000000000000000000000000000000 DUP2 MSTORE PUSH1 0x20 ADD SWAP1 DUP2 MSTORE PUSH1 0x20 ADD PUSH1 0x0 KECCAK256 DUP2 SWAP1 SSTORE POP PUSH2 0xEA8 DUP2 PUSH1 0x3 PUSH1 0x0 DUP9 DUP9 DUP2 SLOAD DUP2 LT PUSH2 0xE1C JUMPI PUSH32 0x4E487B7100000000000000000000000000000000000000000000000000000000 PUSH1 0x0 MSTORE PUSH1 0x32 PUSH1 0x4 MSTORE PUSH1 0x24 PUSH1 0x0 REVERT JUMPDEST SWAP1 PUSH1 0x0 MSTORE PUSH1 0x20 PUSH1 0x0 KECCAK256 SWAP1 PUSH1 0x7 MUL ADD PUSH1 0x1 ADD PUSH1 0x0 SWAP1 SLOAD SWAP1 PUSH2 0x100 EXP SWAP1 DIV PUSH20 0xFFFFFFFFFFFFFFFFFFFFFFFFFFFFFFFFFFFFFFFF AND PUSH20 0xFFFFFFFFFFFFFFFFFFFFFFFFFFFFFFFFFFFFFFFF AND PUSH20 0xFFFFFFFFFFFFFFFFFFFFFFFFFFFFFFFFFFFFFFFF AND DUP2 MSTORE PUSH1 0x20 ADD SWAP1 DUP2 MSTORE PUSH1 0x20 ADD PUSH1 0x0 KECCAK256 PUSH1 0x0 DUP14 DUP2 MSTORE PUSH1 0x20 ADD SWAP1 DUP2 MSTORE PUSH1 0x20 ADD PUSH1 0x0 KECCAK256 SLOAD PUSH2 0x309A SWAP1 SWAP2 SWAP1 PUSH4 0xFFFFFFFF AND JUMP JUMPDEST PUSH1 0x3 PUSH1 0x0 DUP8 DUP8 DUP2 SLOAD DUP2 LT PUSH2 0xEE5 JUMPI PUSH32 0x4E487B7100000000000000000000000000000000000000000000000000000000 PUSH1 0x0 MSTORE PUSH1 0x32 PUSH1 0x4 MSTORE PUSH1 0x24 PUSH1 0x0 REVERT JUMPDEST SWAP1 PUSH1 0x0 MSTORE PUSH1 0x20 PUSH1 0x0 KECCAK256 SWAP1 PUSH1 0x7 MUL ADD PUSH1 0x1 ADD PUSH1 0x0 SWAP1 SLOAD SWAP1 PUSH2 0x100 EXP SWAP1 DIV PUSH20 0xFFFFFFFFFFFFFFFFFFFFFFFFFFFFFFFFFFFFFFFF AND PUSH20 0xFFFFFFFFFFFFFFFFFFFFFFFFFFFFFFFFFFFFFFFF AND PUSH20 0xFFFFFFFFFFFFFFFFFFFFFFFFFFFFFFFFFFFFFFFF AND DUP2 MSTORE PUSH1 0x20 ADD SWAP1 DUP2 MSTORE PUSH1 0x20 ADD PUSH1 0x0 KECCAK256 PUSH1 0x0 DUP13 DUP2 MSTORE PUSH1 0x20 ADD SWAP1 DUP2 MSTORE PUSH1 0x20 ADD PUSH1 0x0 KECCAK256 DUP2 SWAP1 SSTORE POP PUSH2 0x10AF PUSH2 0xFC6 DUP7 DUP7 DUP2 SLOAD DUP2 LT PUSH2 0xFA5 JUMPI PUSH32 0x4E487B7100000000000000000000000000000000000000000000000000000000 PUSH1 0x0 MSTORE PUSH1 0x32 PUSH1 0x4 MSTORE PUSH1 0x24 PUSH1 0x0 REVERT JUMPDEST SWAP1 PUSH1 0x0 MSTORE PUSH1 0x20 PUSH1 0x0 KECCAK256 SWAP1 PUSH1 0x7 MUL ADD PUSH1 0x5 ADD SLOAD DUP4 PUSH2 0x30B0 SWAP1 SWAP2 SWAP1 PUSH4 0xFFFFFFFF AND JUMP JUMPDEST PUSH1 0x3 PUSH1 0x0 DUP9 DUP9 DUP2 SLOAD DUP2 LT PUSH2 0x1003 JUMPI PUSH32 0x4E487B7100000000000000000000000000000000000000000000000000000000 PUSH1 0x0 MSTORE PUSH1 0x32 PUSH1 0x4 MSTORE PUSH1 0x24 PUSH1 0x0 REVERT JUMPDEST SWAP1 PUSH1 0x0 MSTORE PUSH1 0x20 PUSH1 0x0 KECCAK256 SWAP1 PUSH1 0x7 MUL ADD PUSH1 0x1 ADD PUSH1 0x0 SWAP1 SLOAD SWAP1 PUSH2 0x100 EXP SWAP1 DIV PUSH20 0xFFFFFFFFFFFFFFFFFFFFFFFFFFFFFFFFFFFFFFFF AND PUSH20 0xFFFFFFFFFFFFFFFFFFFFFFFFFFFFFFFFFFFFFFFF AND PUSH20 0xFFFFFFFFFFFFFFFFFFFFFFFFFFFFFFFFFFFFFFFF AND DUP2 MSTORE PUSH1 0x20 ADD SWAP1 DUP2 MSTORE PUSH1 0x20 ADD PUSH1 0x0 KECCAK256 PUSH1 0x0 PUSH32 0x4441490000000000000000000000000000000000000000000000000000000000 DUP2 MSTORE PUSH1 0x20 ADD SWAP1 DUP2 MSTORE PUSH1 0x20 ADD PUSH1 0x0 KECCAK256 SLOAD PUSH2 0x3084 SWAP1 SWAP2 SWAP1 PUSH4 0xFFFFFFFF AND JUMP JUMPDEST PUSH1 0x3 PUSH1 0x0 DUP8 DUP8 DUP2 SLOAD DUP2 LT PUSH2 0x10EC JUMPI PUSH32 0x4E487B7100000000000000000000000000000000000000000000000000000000 PUSH1 0x0 MSTORE PUSH1 0x32 PUSH1 0x4 MSTORE PUSH1 0x24 PUSH1 0x0 REVERT JUMPDEST SWAP1 PUSH1 0x0 MSTORE PUSH1 0x20 PUSH1 0x0 KECCAK256 SWAP1 PUSH1 0x7 MUL ADD PUSH1 0x1 ADD PUSH1 0x0 SWAP1 SLOAD SWAP1 PUSH2 0x100 EXP SWAP1 DIV PUSH20 0xFFFFFFFFFFFFFFFFFFFFFFFFFFFFFFFFFFFFFFFF AND PUSH20 0xFFFFFFFFFFFFFFFFFFFFFFFFFFFFFFFFFFFFFFFF AND PUSH20 0xFFFFFFFFFFFFFFFFFFFFFFFFFFFFFFFFFFFFFFFF AND DUP2 MSTORE PUSH1 0x20 ADD SWAP1 DUP2 MSTORE PUSH1 0x20 ADD PUSH1 0x0 KECCAK256 PUSH1 0x0 PUSH32 0x4441490000000000000000000000000000000000000000000000000000000000 DUP2 MSTORE PUSH1 0x20 ADD SWAP1 DUP2 MSTORE PUSH1 0x20 ADD PUSH1 0x0 KECCAK256 DUP2 SWAP1 SSTORE POP PUSH2 0x185E JUMP JUMPDEST PUSH2 0x11EF DUP6 DUP6 DUP2 SLOAD DUP2 LT PUSH2 0x11CE JUMPI PUSH32 0x4E487B7100000000000000000000000000000000000000000000000000000000 PUSH1 0x0 MSTORE PUSH1 0x32 PUSH1 0x4 MSTORE PUSH1 0x24 PUSH1 0x0 REVERT JUMPDEST SWAP1 PUSH1 0x0 MSTORE PUSH1 0x20 PUSH1 0x0 KECCAK256 SWAP1 PUSH1 0x7 MUL ADD PUSH1 0x5 ADD SLOAD DUP3 PUSH2 0x30B0 SWAP1 SWAP2 SWAP1 PUSH4 0xFFFFFFFF AND JUMP JUMPDEST PUSH1 0x3 PUSH1 0x0 CALLER PUSH20 0xFFFFFFFFFFFFFFFFFFFFFFFFFFFFFFFFFFFFFFFF AND PUSH20 0xFFFFFFFFFFFFFFFFFFFFFFFFFFFFFFFFFFFFFFFF AND DUP2 MSTORE PUSH1 0x20 ADD SWAP1 DUP2 MSTORE PUSH1 0x20 ADD PUSH1 0x0 KECCAK256 PUSH1 0x0 PUSH32 0x4441490000000000000000000000000000000000000000000000000000000000 DUP2 MSTORE PUSH1 0x20 ADD SWAP1 DUP2 MSTORE PUSH1 0x20 ADD PUSH1 0x0 KECCAK256 SLOAD LT ISZERO PUSH2 0x12A1 JUMPI PUSH1 0x40 MLOAD PUSH32 0x8C379A000000000000000000000000000000000000000000000000000000000 DUP2 MSTORE PUSH1 0x4 ADD PUSH2 0x1298 SWAP1 PUSH2 0x38C7 JUMP JUMPDEST PUSH1 0x40 MLOAD DUP1 SWAP2 SUB SWAP1 REVERT JUMPDEST PUSH2 0x1304 DUP2 PUSH1 0x3 PUSH1 0x0 CALLER PUSH20 0xFFFFFFFFFFFFFFFFFFFFFFFFFFFFFFFFFFFFFFFF AND PUSH20 0xFFFFFFFFFFFFFFFFFFFFFFFFFFFFFFFFFFFFFFFF AND DUP2 MSTORE PUSH1 0x20 ADD SWAP1 DUP2 MSTORE PUSH1 0x20 ADD PUSH1 0x0 KECCAK256 PUSH1 0x0 DUP14 DUP2 MSTORE PUSH1 0x20 ADD SWAP1 DUP2 MSTORE PUSH1 0x20 ADD PUSH1 0x0 KECCAK256 SLOAD PUSH2 0x309A SWAP1 SWAP2 SWAP1 PUSH4 0xFFFFFFFF AND JUMP JUMPDEST PUSH1 0x3 PUSH1 0x0 CALLER PUSH20 0xFFFFFFFFFFFFFFFFFFFFFFFFFFFFFFFFFFFFFFFF AND PUSH20 0xFFFFFFFFFFFFFFFFFFFFFFFFFFFFFFFFFFFFFFFF AND DUP2 MSTORE PUSH1 0x20 ADD SWAP1 DUP2 MSTORE PUSH1 0x20 ADD PUSH1 0x0 KECCAK256 PUSH1 0x0 DUP13 DUP2 MSTORE PUSH1 0x20 ADD SWAP1 DUP2 MSTORE PUSH1 0x20 ADD PUSH1 0x0 KECCAK256 DUP2 SWAP1 SSTORE POP PUSH2 0x1437 PUSH2 0x13B8 DUP7 DUP7 DUP2 SLOAD DUP2 LT PUSH2 0x1397 JUMPI PUSH32 0x4E487B7100000000000000000000000000000000000000000000000000000000 PUSH1 0x0 MSTORE PUSH1 0x32 PUSH1 0x4 MSTORE PUSH1 0x24 PUSH1 0x0 REVERT JUMPDEST SWAP1 PUSH1 0x0 MSTORE PUSH1 0x20 PUSH1 0x0 KECCAK256 SWAP1 PUSH1 0x7 MUL ADD PUSH1 0x5 ADD SLOAD DUP4 PUSH2 0x30B0 SWAP1 SWAP2 SWAP1 PUSH4 0xFFFFFFFF AND JUMP JUMPDEST PUSH1 0x3 PUSH1 0x0 CALLER PUSH20 0xFFFFFFFFFFFFFFFFFFFFFFFFFFFFFFFFFFFFFFFF AND PUSH20 0xFFFFFFFFFFFFFFFFFFFFFFFFFFFFFFFFFFFFFFFF AND DUP2 MSTORE PUSH1 0x20 ADD SWAP1 DUP2 MSTORE PUSH1 0x20 ADD PUSH1 0x0 KECCAK256 PUSH1 0x0 PUSH32 0x4441490000000000000000000000000000000000000000000000000000000000 DUP2 MSTORE PUSH1 0x20 ADD SWAP1 DUP2 MSTORE PUSH1 0x20 ADD PUSH1 0x0 KECCAK256 SLOAD PUSH2 0x3084 SWAP1 SWAP2 SWAP1 PUSH4 0xFFFFFFFF AND JUMP JUMPDEST PUSH1 0x3 PUSH1 0x0 CALLER PUSH20 0xFFFFFFFFFFFFFFFFFFFFFFFFFFFFFFFFFFFFFFFF AND PUSH20 0xFFFFFFFFFFFFFFFFFFFFFFFFFFFFFFFFFFFFFFFF AND DUP2 MSTORE PUSH1 0x20 ADD SWAP1 DUP2 MSTORE PUSH1 0x20 ADD PUSH1 0x0 KECCAK256 PUSH1 0x0 PUSH32 0x4441490000000000000000000000000000000000000000000000000000000000 DUP2 MSTORE PUSH1 0x20 ADD SWAP1 DUP2 MSTORE PUSH1 0x20 ADD PUSH1 0x0 KECCAK256 DUP2 SWAP1 SSTORE POP PUSH2 0x1578 DUP2 PUSH1 0x3 PUSH1 0x0 DUP9 DUP9 DUP2 SLOAD DUP2 LT PUSH2 0x14EC JUMPI PUSH32 0x4E487B7100000000000000000000000000000000000000000000000000000000 PUSH1 0x0 MSTORE PUSH1 0x32 PUSH1 0x4 MSTORE PUSH1 0x24 PUSH1 0x0 REVERT JUMPDEST SWAP1 PUSH1 0x0 MSTORE PUSH1 0x20 PUSH1 0x0 KECCAK256 SWAP1 PUSH1 0x7 MUL ADD PUSH1 0x1 ADD PUSH1 0x0 SWAP1 SLOAD SWAP1 PUSH2 0x100 EXP SWAP1 DIV PUSH20 0xFFFFFFFFFFFFFFFFFFFFFFFFFFFFFFFFFFFFFFFF AND PUSH20 0xFFFFFFFFFFFFFFFFFFFFFFFFFFFFFFFFFFFFFFFF AND PUSH20 0xFFFFFFFFFFFFFFFFFFFFFFFFFFFFFFFFFFFFFFFF AND DUP2 MSTORE PUSH1 0x20 ADD SWAP1 DUP2 MSTORE PUSH1 0x20 ADD PUSH1 0x0 KECCAK256 PUSH1 0x0 DUP14 DUP2 MSTORE PUSH1 0x20 ADD SWAP1 DUP2 MSTORE PUSH1 0x20 ADD PUSH1 0x0 KECCAK256 SLOAD PUSH2 0x309A SWAP1 SWAP2 SWAP1 PUSH4 0xFFFFFFFF AND JUMP JUMPDEST PUSH1 0x3 PUSH1 0x0 DUP8 DUP8 DUP2 SLOAD DUP2 LT PUSH2 0x15B5 JUMPI PUSH32 0x4E487B7100000000000000000000000000000000000000000000000000000000 PUSH1 0x0 MSTORE PUSH1 0x32 PUSH1 0x4 MSTORE PUSH1 0x24 PUSH1 0x0 REVERT JUMPDEST SWAP1 PUSH1 0x0 MSTORE PUSH1 0x20 PUSH1 0x0 KECCAK256 SWAP1 PUSH1 0x7 MUL ADD PUSH1 0x1 ADD PUSH1 0x0 SWAP1 SLOAD SWAP1 PUSH2 0x100 EXP SWAP1 DIV PUSH20 0xFFFFFFFFFFFFFFFFFFFFFFFFFFFFFFFFFFFFFFFF AND PUSH20 0xFFFFFFFFFFFFFFFFFFFFFFFFFFFFFFFFFFFFFFFF AND PUSH20 0xFFFFFFFFFFFFFFFFFFFFFFFFFFFFFFFFFFFFFFFF AND DUP2 MSTORE PUSH1 0x20 ADD SWAP1 DUP2 MSTORE PUSH1 0x20 ADD PUSH1 0x0 KECCAK256 PUSH1 0x0 DUP13 DUP2 MSTORE PUSH1 0x20 ADD SWAP1 DUP2 MSTORE PUSH1 0x20 ADD PUSH1 0x0 KECCAK256 DUP2 SWAP1 SSTORE POP PUSH2 0x177F PUSH2 0x1696 DUP7 DUP7 DUP2 SLOAD DUP2 LT PUSH2 0x1675 JUMPI PUSH32 0x4E487B7100000000000000000000000000000000000000000000000000000000 PUSH1 0x0 MSTORE PUSH1 0x32 PUSH1 0x4 MSTORE PUSH1 0x24 PUSH1 0x0 REVERT JUMPDEST SWAP1 PUSH1 0x0 MSTORE PUSH1 0x20 PUSH1 0x0 KECCAK256 SWAP1 PUSH1 0x7 MUL ADD PUSH1 0x5 ADD SLOAD DUP4 PUSH2 0x30B0 SWAP1 SWAP2 SWAP1 PUSH4 0xFFFFFFFF AND JUMP JUMPDEST PUSH1 0x3 PUSH1 0x0 DUP9 DUP9 DUP2 SLOAD DUP2 LT PUSH2 0x16D3 JUMPI PUSH32 0x4E487B7100000000000000000000000000000000000000000000000000000000 PUSH1 0x0 MSTORE PUSH1 0x32 PUSH1 0x4 MSTORE PUSH1 0x24 PUSH1 0x0 REVERT JUMPDEST SWAP1 PUSH1 0x0 MSTORE PUSH1 0x20 PUSH1 0x0 KECCAK256 SWAP1 PUSH1 0x7 MUL ADD PUSH1 0x1 ADD PUSH1 0x0 SWAP1 SLOAD SWAP1 PUSH2 0x100 EXP SWAP1 DIV PUSH20 0xFFFFFFFFFFFFFFFFFFFFFFFFFFFFFFFFFFFFFFFF AND PUSH20 0xFFFFFFFFFFFFFFFFFFFFFFFFFFFFFFFFFFFFFFFF AND PUSH20 0xFFFFFFFFFFFFFFFFFFFFFFFFFFFFFFFFFFFFFFFF AND DUP2 MSTORE PUSH1 0x20 ADD SWAP1 DUP2 MSTORE PUSH1 0x20 ADD PUSH1 0x0 KECCAK256 PUSH1 0x0 PUSH32 0x4441490000000000000000000000000000000000000000000000000000000000 DUP2 MSTORE PUSH1 0x20 ADD SWAP1 DUP2 MSTORE PUSH1 0x20 ADD PUSH1 0x0 KECCAK256 SLOAD PUSH2 0x3084 SWAP1 SWAP2 SWAP1 PUSH4 0xFFFFFFFF AND JUMP JUMPDEST PUSH1 0x3 PUSH1 0x0 DUP8 DUP8 DUP2 SLOAD DUP2 LT PUSH2 0x17BC JUMPI PUSH32 0x4E487B7100000000000000000000000000000000000000000000000000000000 PUSH1 0x0 MSTORE PUSH1 0x32 PUSH1 0x4 MSTORE PUSH1 0x24 PUSH1 0x0 REVERT JUMPDEST SWAP1 PUSH1 0x0 MSTORE PUSH1 0x20 PUSH1 0x0 KECCAK256 SWAP1 PUSH1 0x7 MUL ADD PUSH1 0x1 ADD PUSH1 0x0 SWAP1 SLOAD SWAP1 PUSH2 0x100 EXP SWAP1 DIV PUSH20 0xFFFFFFFFFFFFFFFFFFFFFFFFFFFFFFFFFFFFFFFF AND PUSH20 0xFFFFFFFFFFFFFFFFFFFFFFFFFFFFFFFFFFFFFFFF AND PUSH20 0xFFFFFFFFFFFFFFFFFFFFFFFFFFFFFFFFFFFFFFFF AND DUP2 MSTORE PUSH1 0x20 ADD SWAP1 DUP2 MSTORE PUSH1 0x20 ADD PUSH1 0x0 KECCAK256 PUSH1 0x0 PUSH32 0x4441490000000000000000000000000000000000000000000000000000000000 DUP2 MSTORE PUSH1 0x20 ADD SWAP1 DUP2 MSTORE PUSH1 0x20 ADD PUSH1 0x0 KECCAK256 DUP2 SWAP1 SSTORE POP JUMPDEST PUSH2 0x1874 PUSH1 0x1 PUSH1 0x6 SLOAD PUSH2 0x309A SWAP1 SWAP2 SWAP1 PUSH4 0xFFFFFFFF AND JUMP JUMPDEST PUSH1 0x6 DUP2 SWAP1 SSTORE POP PUSH2 0x188E PUSH1 0x1 DUP6 PUSH2 0x309A SWAP1 SWAP2 SWAP1 PUSH4 0xFFFFFFFF AND JUMP JUMPDEST SWAP4 POP POP POP PUSH2 0x855 JUMP JUMPDEST PUSH1 0x0 SWAP2 POP JUMPDEST DUP3 DUP1 SLOAD SWAP1 POP DUP3 LT DUP1 ISZERO PUSH2 0x1942 JUMPI POP DUP3 DUP3 DUP2 SLOAD DUP2 LT PUSH2 0x18E3 JUMPI PUSH32 0x4E487B7100000000000000000000000000000000000000000000000000000000 PUSH1 0x0 MSTORE PUSH1 0x32 PUSH1 0x4 MSTORE PUSH1 0x24 PUSH1 0x0 REVERT JUMPDEST SWAP1 PUSH1 0x0 MSTORE PUSH1 0x20 PUSH1 0x0 KECCAK256 SWAP1 PUSH1 0x7 MUL ADD PUSH1 0x3 ADD SLOAD DUP4 DUP4 DUP2 SLOAD DUP2 LT PUSH2 0x192E JUMPI PUSH32 0x4E487B7100000000000000000000000000000000000000000000000000000000 PUSH1 0x0 MSTORE PUSH1 0x32 PUSH1 0x4 MSTORE PUSH1 0x24 PUSH1 0x0 REVERT JUMPDEST SWAP1 PUSH1 0x0 MSTORE PUSH1 0x20 PUSH1 0x0 KECCAK256 SWAP1 PUSH1 0x7 MUL ADD PUSH1 0x4 ADD SLOAD EQ JUMPDEST ISZERO PUSH2 0x1BF2 JUMPI PUSH1 0x0 DUP3 SWAP1 POP JUMPDEST PUSH1 0x1 DUP5 DUP1 SLOAD SWAP1 POP PUSH2 0x195E SWAP2 SWAP1 PUSH2 0x3B66 JUMP JUMPDEST DUP2 LT ISZERO PUSH2 0x1B1B JUMPI DUP4 PUSH1 0x1 DUP3 PUSH2 0x1973 SWAP2 SWAP1 PUSH2 0x3AB6 JUMP JUMPDEST DUP2 SLOAD DUP2 LT PUSH2 0x19AA JUMPI PUSH32 0x4E487B7100000000000000000000000000000000000000000000000000000000 PUSH1 0x0 MSTORE PUSH1 0x32 PUSH1 0x4 MSTORE PUSH1 0x24 PUSH1 0x0 REVERT JUMPDEST SWAP1 PUSH1 0x0 MSTORE PUSH1 0x20 PUSH1 0x0 KECCAK256 SWAP1 PUSH1 0x7 MUL ADD DUP5 DUP3 DUP2 SLOAD DUP2 LT PUSH2 0x19F1 JUMPI PUSH32 0x4E487B7100000000000000000000000000000000000000000000000000000000 PUSH1 0x0 MSTORE PUSH1 0x32 PUSH1 0x4 MSTORE PUSH1 0x24 PUSH1 0x0 REVERT JUMPDEST SWAP1 PUSH1 0x0 MSTORE PUSH1 0x20 PUSH1 0x0 KECCAK256 SWAP1 PUSH1 0x7 MUL ADD PUSH1 0x0 DUP3 ADD SLOAD DUP2 PUSH1 0x0 ADD SSTORE PUSH1 0x1 DUP3 ADD PUSH1 0x0 SWAP1 SLOAD SWAP1 PUSH2 0x100 EXP SWAP1 DIV PUSH20 0xFFFFFFFFFFFFFFFFFFFFFFFFFFFFFFFFFFFFFFFF AND DUP2 PUSH1 0x1 ADD PUSH1 0x0 PUSH2 0x100 EXP DUP2 SLOAD DUP2 PUSH20 0xFFFFFFFFFFFFFFFFFFFFFFFFFFFFFFFFFFFFFFFF MUL NOT AND SWAP1 DUP4 PUSH20 0xFFFFFFFFFFFFFFFFFFFFFFFFFFFFFFFFFFFFFFFF AND MUL OR SWAP1 SSTORE POP PUSH1 0x1 DUP3 ADD PUSH1 0x14 SWAP1 SLOAD SWAP1 PUSH2 0x100 EXP SWAP1 DIV PUSH1 0xFF AND DUP2 PUSH1 0x1 ADD PUSH1 0x14 PUSH2 0x100 EXP DUP2 SLOAD DUP2 PUSH1 0xFF MUL NOT AND SWAP1 DUP4 PUSH1 0x1 DUP2 GT ISZERO PUSH2 0x1ACE JUMPI PUSH32 0x4E487B7100000000000000000000000000000000000000000000000000000000 PUSH1 0x0 MSTORE PUSH1 0x21 PUSH1 0x4 MSTORE PUSH1 0x24 PUSH1 0x0 REVERT JUMPDEST MUL OR SWAP1 SSTORE POP PUSH1 0x2 DUP3 ADD SLOAD DUP2 PUSH1 0x2 ADD SSTORE PUSH1 0x3 DUP3 ADD SLOAD DUP2 PUSH1 0x3 ADD SSTORE PUSH1 0x4 DUP3 ADD SLOAD DUP2 PUSH1 0x4 ADD SSTORE PUSH1 0x5 DUP3 ADD SLOAD DUP2 PUSH1 0x5 ADD SSTORE PUSH1 0x6 DUP3 ADD SLOAD DUP2 PUSH1 0x6 ADD SSTORE SWAP1 POP POP DUP1 DUP1 PUSH2 0x1B13 SWAP1 PUSH2 0x3C11 JUMP JUMPDEST SWAP2 POP POP PUSH2 0x194D JUMP JUMPDEST POP DUP3 DUP1 SLOAD DUP1 PUSH2 0x1B53 JUMPI PUSH32 0x4E487B7100000000000000000000000000000000000000000000000000000000 PUSH1 0x0 MSTORE PUSH1 0x31 PUSH1 0x4 MSTORE PUSH1 0x24 PUSH1 0x0 REVERT JUMPDEST PUSH1 0x1 SWAP1 SUB DUP2 DUP2 SWAP1 PUSH1 0x0 MSTORE PUSH1 0x20 PUSH1 0x0 KECCAK256 SWAP1 PUSH1 0x7 MUL ADD PUSH1 0x0 DUP1 DUP3 ADD PUSH1 0x0 SWAP1 SSTORE PUSH1 0x1 DUP3 ADD PUSH1 0x0 PUSH2 0x100 EXP DUP2 SLOAD SWAP1 PUSH20 0xFFFFFFFFFFFFFFFFFFFFFFFFFFFFFFFFFFFFFFFF MUL NOT AND SWAP1 SSTORE PUSH1 0x1 DUP3 ADD PUSH1 0x14 PUSH2 0x100 EXP DUP2 SLOAD SWAP1 PUSH1 0xFF MUL NOT AND SWAP1 SSTORE PUSH1 0x2 DUP3 ADD PUSH1 0x0 SWAP1 SSTORE PUSH1 0x3 DUP3 ADD PUSH1 0x0 SWAP1 SSTORE PUSH1 0x4 DUP3 ADD PUSH1 0x0 SWAP1 SSTORE PUSH1 0x5 DUP3 ADD PUSH1 0x0 SWAP1 SSTORE PUSH1 0x6 DUP3 ADD PUSH1 0x0 SWAP1 SSTORE POP POP SWAP1 SSTORE PUSH2 0x1BEB PUSH1 0x1 DUP4 PUSH2 0x309A SWAP1 SWAP2 SWAP1 PUSH4 0xFFFFFFFF AND JUMP JUMPDEST SWAP2 POP PUSH2 0x189C JUMP JUMPDEST POP POP POP POP POP POP POP POP JUMP JUMPDEST PUSH1 0x1 PUSH1 0x20 MSTORE DUP1 PUSH1 0x0 MSTORE PUSH1 0x40 PUSH1 0x0 KECCAK256 PUSH1 0x0 SWAP2 POP SWAP1 POP DUP1 PUSH1 0x0 ADD SLOAD SWAP1 DUP1 PUSH1 0x1 ADD PUSH1 0x0 SWAP1 SLOAD SWAP1 PUSH2 0x100 EXP SWAP1 DIV PUSH20 0xFFFFFFFFFFFFFFFFFFFFFFFFFFFFFFFFFFFFFFFF AND SWAP1 POP DUP3 JUMP JUMPDEST PUSH1 0x0 DUP1 SLOAD SWAP1 PUSH2 0x100 EXP SWAP1 DIV PUSH20 0xFFFFFFFFFFFFFFFFFFFFFFFFFFFFFFFFFFFFFFFF AND PUSH20 0xFFFFFFFFFFFFFFFFFFFFFFFFFFFFFFFFFFFFFFFF AND CALLER PUSH20 0xFFFFFFFFFFFFFFFFFFFFFFFFFFFFFFFFFFFFFFFF AND EQ PUSH2 0x1CCE JUMPI PUSH1 0x40 MLOAD PUSH32 0x8C379A000000000000000000000000000000000000000000000000000000000 DUP2 MSTORE PUSH1 0x4 ADD PUSH2 0x1CC5 SWAP1 PUSH2 0x38A7 JUMP JUMPDEST PUSH1 0x40 MLOAD DUP1 SWAP2 SUB SWAP1 REVERT JUMPDEST PUSH1 0x40 MLOAD DUP1 PUSH1 0x40 ADD PUSH1 0x40 MSTORE DUP1 DUP4 DUP2 MSTORE PUSH1 0x20 ADD DUP3 PUSH20 0xFFFFFFFFFFFFFFFFFFFFFFFFFFFFFFFFFFFFFFFF AND DUP2 MSTORE POP PUSH1 0x1 PUSH1 0x0 DUP5 DUP2 MSTORE PUSH1 0x20 ADD SWAP1 DUP2 MSTORE PUSH1 0x20 ADD PUSH1 0x0 KECCAK256 PUSH1 0x0 DUP3 ADD MLOAD DUP2 PUSH1 0x0 ADD SSTORE PUSH1 0x20 DUP3 ADD MLOAD DUP2 PUSH1 0x1 ADD PUSH1 0x0 PUSH2 0x100 EXP DUP2 SLOAD DUP2 PUSH20 0xFFFFFFFFFFFFFFFFFFFFFFFFFFFFFFFFFFFFFFFF MUL NOT AND SWAP1 DUP4 PUSH20 0xFFFFFFFFFFFFFFFFFFFFFFFFFFFFFFFFFFFFFFFF AND MUL OR SWAP1 SSTORE POP SWAP1 POP POP PUSH1 0x2 DUP3 SWAP1 DUP1 PUSH1 0x1 DUP2 SLOAD ADD DUP1 DUP3 SSTORE DUP1 SWAP2 POP POP PUSH1 0x1 SWAP1 SUB SWAP1 PUSH1 0x0 MSTORE PUSH1 0x20 PUSH1 0x0 KECCAK256 ADD PUSH1 0x0 SWAP1 SWAP2 SWAP1 SWAP2 SWAP1 SWAP2 POP SSTORE POP POP JUMP JUMPDEST PUSH1 0x2 DUP2 DUP2 SLOAD DUP2 LT PUSH2 0x1D9D JUMPI PUSH1 0x0 DUP1 REVERT JUMPDEST SWAP1 PUSH1 0x0 MSTORE PUSH1 0x20 PUSH1 0x0 KECCAK256 ADD PUSH1 0x0 SWAP2 POP SWAP1 POP SLOAD DUP2 JUMP JUMPDEST DUP1 PUSH1 0x0 PUSH20 0xFFFFFFFFFFFFFFFFFFFFFFFFFFFFFFFFFFFFFFFF AND PUSH1 0x1 PUSH1 0x0 DUP4 DUP2 MSTORE PUSH1 0x20 ADD SWAP1 DUP2 MSTORE PUSH1 0x20 ADD PUSH1 0x0 KECCAK256 PUSH1 0x1 ADD PUSH1 0x0 SWAP1 SLOAD SWAP1 PUSH2 0x100 EXP SWAP1 DIV PUSH20 0xFFFFFFFFFFFFFFFFFFFFFFFFFFFFFFFFFFFFFFFF AND PUSH20 0xFFFFFFFFFFFFFFFFFFFFFFFFFFFFFFFFFFFFFFFF AND EQ ISZERO PUSH2 0x1E58 JUMPI PUSH1 0x40 MLOAD PUSH32 0x8C379A000000000000000000000000000000000000000000000000000000000 DUP2 MSTORE PUSH1 0x4 ADD PUSH2 0x1E4F SWAP1 PUSH2 0x38E7 JUMP JUMPDEST PUSH1 0x40 MLOAD DUP1 SWAP2 SUB SWAP1 REVERT JUMPDEST DUP3 PUSH1 0x3 PUSH1 0x0 CALLER PUSH20 0xFFFFFFFFFFFFFFFFFFFFFFFFFFFFFFFFFFFFFFFF AND PUSH20 0xFFFFFFFFFFFFFFFFFFFFFFFFFFFFFFFFFFFFFFFF AND DUP2 MSTORE PUSH1 0x20 ADD SWAP1 DUP2 MSTORE PUSH1 0x20 ADD PUSH1 0x0 KECCAK256 PUSH1 0x0 DUP5 DUP2 MSTORE PUSH1 0x20 ADD SWAP1 DUP2 MSTORE PUSH1 0x20 ADD PUSH1 0x0 KECCAK256 SLOAD LT ISZERO PUSH2 0x1EEB JUMPI PUSH1 0x40 MLOAD PUSH32 0x8C379A000000000000000000000000000000000000000000000000000000000 DUP2 MSTORE PUSH1 0x4 ADD PUSH2 0x1EE2 SWAP1 PUSH2 0x3887 JUMP JUMPDEST PUSH1 0x40 MLOAD DUP1 SWAP2 SUB SWAP1 REVERT JUMPDEST PUSH2 0x1F4E DUP4 PUSH1 0x3 PUSH1 0x0 CALLER PUSH20 0xFFFFFFFFFFFFFFFFFFFFFFFFFFFFFFFFFFFFFFFF AND PUSH20 0xFFFFFFFFFFFFFFFFFFFFFFFFFFFFFFFFFFFFFFFF AND DUP2 MSTORE PUSH1 0x20 ADD SWAP1 DUP2 MSTORE PUSH1 0x20 ADD PUSH1 0x0 KECCAK256 PUSH1 0x0 DUP6 DUP2 MSTORE PUSH1 0x20 ADD SWAP1 DUP2 MSTORE PUSH1 0x20 ADD PUSH1 0x0 KECCAK256 SLOAD PUSH2 0x3084 SWAP1 SWAP2 SWAP1 PUSH4 0xFFFFFFFF AND JUMP JUMPDEST PUSH1 0x3 PUSH1 0x0 CALLER PUSH20 0xFFFFFFFFFFFFFFFFFFFFFFFFFFFFFFFFFFFFFFFF AND PUSH20 0xFFFFFFFFFFFFFFFFFFFFFFFFFFFFFFFFFFFFFFFF AND DUP2 MSTORE PUSH1 0x20 ADD SWAP1 DUP2 MSTORE PUSH1 0x20 ADD PUSH1 0x0 KECCAK256 PUSH1 0x0 DUP5 DUP2 MSTORE PUSH1 0x20 ADD SWAP1 DUP2 MSTORE PUSH1 0x20 ADD PUSH1 0x0 KECCAK256 DUP2 SWAP1 SSTORE POP PUSH1 0x1 PUSH1 0x0 DUP4 DUP2 MSTORE PUSH1 0x20 ADD SWAP1 DUP2 MSTORE PUSH1 0x20 ADD PUSH1 0x0 KECCAK256 PUSH1 0x1 ADD PUSH1 0x0 SWAP1 SLOAD SWAP1 PUSH2 0x100 EXP SWAP1 DIV PUSH20 0xFFFFFFFFFFFFFFFFFFFFFFFFFFFFFFFFFFFFFFFF AND PUSH20 0xFFFFFFFFFFFFFFFFFFFFFFFFFFFFFFFFFFFFFFFF AND PUSH4 0xA9059CBB CALLER DUP6 PUSH1 0x40 MLOAD DUP4 PUSH4 0xFFFFFFFF AND PUSH1 0xE0 SHL DUP2 MSTORE PUSH1 0x4 ADD PUSH2 0x2013 SWAP3 SWAP2 SWAP1 PUSH2 0x37D6 JUMP JUMPDEST PUSH1 0x20 PUSH1 0x40 MLOAD DUP1 DUP4 SUB DUP2 PUSH1 0x0 DUP8 DUP1 EXTCODESIZE ISZERO DUP1 ISZERO PUSH2 0x202D JUMPI PUSH1 0x0 DUP1 REVERT JUMPDEST POP GAS CALL ISZERO DUP1 ISZERO PUSH2 0x2041 JUMPI RETURNDATASIZE PUSH1 0x0 DUP1 RETURNDATACOPY RETURNDATASIZE PUSH1 0x0 REVERT JUMPDEST POP POP POP POP PUSH1 0x40 MLOAD RETURNDATASIZE PUSH1 0x1F NOT PUSH1 0x1F DUP3 ADD AND DUP3 ADD DUP1 PUSH1 0x40 MSTORE POP DUP2 ADD SWAP1 PUSH2 0x2065 SWAP2 SWAP1 PUSH2 0x319E JUMP JUMPDEST POP POP POP POP JUMP JUMPDEST PUSH1 0x60 PUSH1 0x0 PUSH1 0x2 DUP1 SLOAD SWAP1 POP PUSH8 0xFFFFFFFFFFFFFFFF DUP2 GT ISZERO PUSH2 0x20B4 JUMPI PUSH32 0x4E487B7100000000000000000000000000000000000000000000000000000000 PUSH1 0x0 MSTORE PUSH1 0x41 PUSH1 0x4 MSTORE PUSH1 0x24 PUSH1 0x0 REVERT JUMPDEST PUSH1 0x40 MLOAD SWAP1 DUP1 DUP3 MSTORE DUP1 PUSH1 0x20 MUL PUSH1 0x20 ADD DUP3 ADD PUSH1 0x40 MSTORE DUP1 ISZERO PUSH2 0x20ED JUMPI DUP2 PUSH1 0x20 ADD JUMPDEST PUSH2 0x20DA PUSH2 0x30C6 JUMP JUMPDEST DUP2 MSTORE PUSH1 0x20 ADD SWAP1 PUSH1 0x1 SWAP1 SUB SWAP1 DUP2 PUSH2 0x20D2 JUMPI SWAP1 POP JUMPDEST POP SWAP1 POP PUSH1 0x0 JUMPDEST PUSH1 0x2 DUP1 SLOAD SWAP1 POP DUP2 LT ISZERO PUSH2 0x2256 JUMPI PUSH1 0x40 MLOAD DUP1 PUSH1 0x40 ADD PUSH1 0x40 MSTORE DUP1 PUSH1 0x1 PUSH1 0x0 PUSH1 0x2 DUP6 DUP2 SLOAD DUP2 LT PUSH2 0x2149 JUMPI PUSH32 0x4E487B7100000000000000000000000000000000000000000000000000000000 PUSH1 0x0 MSTORE PUSH1 0x32 PUSH1 0x4 MSTORE PUSH1 0x24 PUSH1 0x0 REVERT JUMPDEST SWAP1 PUSH1 0x0 MSTORE PUSH1 0x20 PUSH1 0x0 KECCAK256 ADD SLOAD DUP2 MSTORE PUSH1 0x20 ADD SWAP1 DUP2 MSTORE PUSH1 0x20 ADD PUSH1 0x0 KECCAK256 PUSH1 0x0 ADD SLOAD DUP2 MSTORE PUSH1 0x20 ADD PUSH1 0x1 PUSH1 0x0 PUSH1 0x2 DUP6 DUP2 SLOAD DUP2 LT PUSH2 0x21A9 JUMPI PUSH32 0x4E487B7100000000000000000000000000000000000000000000000000000000 PUSH1 0x0 MSTORE PUSH1 0x32 PUSH1 0x4 MSTORE PUSH1 0x24 PUSH1 0x0 REVERT JUMPDEST SWAP1 PUSH1 0x0 MSTORE PUSH1 0x20 PUSH1 0x0 KECCAK256 ADD SLOAD DUP2 MSTORE PUSH1 0x20 ADD SWAP1 DUP2 MSTORE PUSH1 0x20 ADD PUSH1 0x0 KECCAK256 PUSH1 0x1 ADD PUSH1 0x0 SWAP1 SLOAD SWAP1 PUSH2 0x100 EXP SWAP1 DIV PUSH20 0xFFFFFFFFFFFFFFFFFFFFFFFFFFFFFFFFFFFFFFFF AND PUSH20 0xFFFFFFFFFFFFFFFFFFFFFFFFFFFFFFFFFFFFFFFF AND DUP2 MSTORE POP DUP3 DUP3 DUP2 MLOAD DUP2 LT PUSH2 0x2238 JUMPI PUSH32 0x4E487B7100000000000000000000000000000000000000000000000000000000 PUSH1 0x0 MSTORE PUSH1 0x32 PUSH1 0x4 MSTORE PUSH1 0x24 PUSH1 0x0 REVERT JUMPDEST PUSH1 0x20 MUL PUSH1 0x20 ADD ADD DUP2 SWAP1 MSTORE POP DUP1 DUP1 PUSH2 0x224E SWAP1 PUSH2 0x3C11 JUMP JUMPDEST SWAP2 POP POP PUSH2 0x20F3 JUMP JUMPDEST POP DUP1 SWAP2 POP POP SWAP1 JUMP JUMPDEST DUP1 PUSH1 0x0 PUSH20 0xFFFFFFFFFFFFFFFFFFFFFFFFFFFFFFFFFFFFFFFF AND PUSH1 0x1 PUSH1 0x0 DUP4 DUP2 MSTORE PUSH1 0x20 ADD SWAP1 DUP2 MSTORE PUSH1 0x20 ADD PUSH1 0x0 KECCAK256 PUSH1 0x1 ADD PUSH1 0x0 SWAP1 SLOAD SWAP1 PUSH2 0x100 EXP SWAP1 DIV PUSH20 0xFFFFFFFFFFFFFFFFFFFFFFFFFFFFFFFFFFFFFFFF AND PUSH20 0xFFFFFFFFFFFFFFFFFFFFFFFFFFFFFFFFFFFFFFFF AND EQ ISZERO PUSH2 0x2305 JUMPI PUSH1 0x40 MLOAD PUSH32 0x8C379A000000000000000000000000000000000000000000000000000000000 DUP2 MSTORE PUSH1 0x4 ADD PUSH2 0x22FC SWAP1 PUSH2 0x38E7 JUMP JUMPDEST PUSH1 0x40 MLOAD DUP1 SWAP2 SUB SWAP1 REVERT JUMPDEST PUSH1 0x1 PUSH1 0x0 DUP4 DUP2 MSTORE PUSH1 0x20 ADD SWAP1 DUP2 MSTORE PUSH1 0x20 ADD PUSH1 0x0 KECCAK256 PUSH1 0x1 ADD PUSH1 0x0 SWAP1 SLOAD SWAP1 PUSH2 0x100 EXP SWAP1 DIV PUSH20 0xFFFFFFFFFFFFFFFFFFFFFFFFFFFFFFFFFFFFFFFF AND PUSH20 0xFFFFFFFFFFFFFFFFFFFFFFFFFFFFFFFFFFFFFFFF AND PUSH4 0x23B872DD CALLER ADDRESS DUP7 PUSH1 0x40 MLOAD DUP5 PUSH4 0xFFFFFFFF AND PUSH1 0xE0 SHL DUP2 MSTORE PUSH1 0x4 ADD PUSH2 0x2378 SWAP4 SWAP3 SWAP2 SWAP1 PUSH2 0x379F JUMP JUMPDEST PUSH1 0x20 PUSH1 0x40 MLOAD DUP1 DUP4 SUB DUP2 PUSH1 0x0 DUP8 DUP1 EXTCODESIZE ISZERO DUP1 ISZERO PUSH2 0x2392 JUMPI PUSH1 0x0 DUP1 REVERT JUMPDEST POP GAS CALL ISZERO DUP1 ISZERO PUSH2 0x23A6 JUMPI RETURNDATASIZE PUSH1 0x0 DUP1 RETURNDATACOPY RETURNDATASIZE PUSH1 0x0 REVERT JUMPDEST POP POP POP POP PUSH1 0x40 MLOAD RETURNDATASIZE PUSH1 0x1F NOT PUSH1 0x1F DUP3 ADD AND DUP3 ADD DUP1 PUSH1 0x40 MSTORE POP DUP2 ADD SWAP1 PUSH2 0x23CA SWAP2 SWAP1 PUSH2 0x319E JUMP JUMPDEST POP PUSH2 0x242E DUP4 PUSH1 0x3 PUSH1 0x0 CALLER PUSH20 0xFFFFFFFFFFFFFFFFFFFFFFFFFFFFFFFFFFFFFFFF AND PUSH20 0xFFFFFFFFFFFFFFFFFFFFFFFFFFFFFFFFFFFFFFFF AND DUP2 MSTORE PUSH1 0x20 ADD SWAP1 DUP2 MSTORE PUSH1 0x20 ADD PUSH1 0x0 KECCAK256 PUSH1 0x0 DUP6 DUP2 MSTORE PUSH1 0x20 ADD SWAP1 DUP2 MSTORE PUSH1 0x20 ADD PUSH1 0x0 KECCAK256 SLOAD PUSH2 0x309A SWAP1 SWAP2 SWAP1 PUSH4 0xFFFFFFFF AND JUMP JUMPDEST PUSH1 0x3 PUSH1 0x0 CALLER PUSH20 0xFFFFFFFFFFFFFFFFFFFFFFFFFFFFFFFFFFFFFFFF AND PUSH20 0xFFFFFFFFFFFFFFFFFFFFFFFFFFFFFFFFFFFFFFFF AND DUP2 MSTORE PUSH1 0x20 ADD SWAP1 DUP2 MSTORE PUSH1 0x20 ADD PUSH1 0x0 KECCAK256 PUSH1 0x0 DUP5 DUP2 MSTORE PUSH1 0x20 ADD SWAP1 DUP2 MSTORE PUSH1 0x20 ADD PUSH1 0x0 KECCAK256 DUP2 SWAP1 SSTORE POP POP POP POP JUMP JUMPDEST DUP4 PUSH1 0x0 PUSH20 0xFFFFFFFFFFFFFFFFFFFFFFFFFFFFFFFFFFFFFFFF AND PUSH1 0x1 PUSH1 0x0 DUP4 DUP2 MSTORE PUSH1 0x20 ADD SWAP1 DUP2 MSTORE PUSH1 0x20 ADD PUSH1 0x0 KECCAK256 PUSH1 0x1 ADD PUSH1 0x0 SWAP1 SLOAD SWAP1 PUSH2 0x100 EXP SWAP1 DIV PUSH20 0xFFFFFFFFFFFFFFFFFFFFFFFFFFFFFFFFFFFFFFFF AND PUSH20 0xFFFFFFFFFFFFFFFFFFFFFFFFFFFFFFFFFFFFFFFF AND EQ ISZERO PUSH2 0x252E JUMPI PUSH1 0x40 MLOAD PUSH32 0x8C379A000000000000000000000000000000000000000000000000000000000 DUP2 MSTORE PUSH1 0x4 ADD PUSH2 0x2525 SWAP1 PUSH2 0x38E7 JUMP JUMPDEST PUSH1 0x40 MLOAD DUP1 SWAP2 SUB SWAP1 REVERT JUMPDEST DUP5 PUSH32 0x4441490000000000000000000000000000000000000000000000000000000000 DUP2 EQ ISZERO PUSH2 0x2592 JUMPI PUSH1 0x40 MLOAD PUSH32 0x8C379A000000000000000000000000000000000000000000000000000000000 DUP2 MSTORE PUSH1 0x4 ADD PUSH2 0x2589 SWAP1 PUSH2 0x3927 JUMP JUMPDEST PUSH1 0x40 MLOAD DUP1 SWAP2 SUB SWAP1 REVERT JUMPDEST PUSH1 0x1 DUP1 DUP2 GT ISZERO PUSH2 0x25CB JUMPI PUSH32 0x4E487B7100000000000000000000000000000000000000000000000000000000 PUSH1 0x0 MSTORE PUSH1 0x21 PUSH1 0x4 MSTORE PUSH1 0x24 PUSH1 0x0 REVERT JUMPDEST DUP4 PUSH1 0x1 DUP2 GT ISZERO PUSH2 0x2604 JUMPI PUSH32 0x4E487B7100000000000000000000000000000000000000000000000000000000 PUSH1 0x0 MSTORE PUSH1 0x21 PUSH1 0x4 MSTORE PUSH1 0x24 PUSH1 0x0 REVERT JUMPDEST EQ ISZERO PUSH2 0x26A2 JUMPI DUP5 PUSH1 0x3 PUSH1 0x0 CALLER PUSH20 0xFFFFFFFFFFFFFFFFFFFFFFFFFFFFFFFFFFFFFFFF AND PUSH20 0xFFFFFFFFFFFFFFFFFFFFFFFFFFFFFFFFFFFFFFFF AND DUP2 MSTORE PUSH1 0x20 ADD SWAP1 DUP2 MSTORE PUSH1 0x20 ADD PUSH1 0x0 KECCAK256 PUSH1 0x0 DUP9 DUP2 MSTORE PUSH1 0x20 ADD SWAP1 DUP2 MSTORE PUSH1 0x20 ADD PUSH1 0x0 KECCAK256 SLOAD LT ISZERO PUSH2 0x269D JUMPI PUSH1 0x40 MLOAD PUSH32 0x8C379A000000000000000000000000000000000000000000000000000000000 DUP2 MSTORE PUSH1 0x4 ADD PUSH2 0x2694 SWAP1 PUSH2 0x3907 JUMP JUMPDEST PUSH1 0x40 MLOAD DUP1 SWAP2 SUB SWAP1 REVERT JUMPDEST PUSH2 0x2768 JUMP JUMPDEST PUSH2 0x26B5 DUP5 DUP7 PUSH2 0x30B0 SWAP1 SWAP2 SWAP1 PUSH4 0xFFFFFFFF AND JUMP JUMPDEST PUSH1 0x3 PUSH1 0x0 CALLER PUSH20 0xFFFFFFFFFFFFFFFFFFFFFFFFFFFFFFFFFFFFFFFF AND PUSH20 0xFFFFFFFFFFFFFFFFFFFFFFFFFFFFFFFFFFFFFFFF AND DUP2 MSTORE PUSH1 0x20 ADD SWAP1 DUP2 MSTORE PUSH1 0x20 ADD PUSH1 0x0 KECCAK256 PUSH1 0x0 PUSH32 0x4441490000000000000000000000000000000000000000000000000000000000 DUP2 MSTORE PUSH1 0x20 ADD SWAP1 DUP2 MSTORE PUSH1 0x20 ADD PUSH1 0x0 KECCAK256 SLOAD LT ISZERO PUSH2 0x2767 JUMPI PUSH1 0x40 MLOAD PUSH32 0x8C379A000000000000000000000000000000000000000000000000000000000 DUP2 MSTORE PUSH1 0x4 ADD PUSH2 0x275E SWAP1 PUSH2 0x38C7 JUMP JUMPDEST PUSH1 0x40 MLOAD DUP1 SWAP2 SUB SWAP1 REVERT JUMPDEST JUMPDEST PUSH1 0x0 PUSH1 0x4 PUSH1 0x0 DUP9 DUP2 MSTORE PUSH1 0x20 ADD SWAP1 DUP2 MSTORE PUSH1 0x20 ADD PUSH1 0x0 KECCAK256 PUSH1 0x0 DUP6 PUSH1 0x1 DUP2 GT ISZERO PUSH2 0x27B8 JUMPI PUSH32 0x4E487B7100000000000000000000000000000000000000000000000000000000 PUSH1 0x0 MSTORE PUSH1 0x21 PUSH1 0x4 MSTORE PUSH1 0x24 PUSH1 0x0 REVERT JUMPDEST DUP2 MSTORE PUSH1 0x20 ADD SWAP1 DUP2 MSTORE PUSH1 0x20 ADD PUSH1 0x0 KECCAK256 SWAP1 POP DUP1 PUSH1 0x40 MLOAD DUP1 PUSH2 0x100 ADD PUSH1 0x40 MSTORE DUP1 PUSH1 0x5 SLOAD DUP2 MSTORE PUSH1 0x20 ADD CALLER PUSH20 0xFFFFFFFFFFFFFFFFFFFFFFFFFFFFFFFFFFFFFFFF AND DUP2 MSTORE PUSH1 0x20 ADD DUP7 PUSH1 0x1 DUP2 GT ISZERO PUSH2 0x2832 JUMPI PUSH32 0x4E487B7100000000000000000000000000000000000000000000000000000000 PUSH1 0x0 MSTORE PUSH1 0x21 PUSH1 0x4 MSTORE PUSH1 0x24 PUSH1 0x0 REVERT JUMPDEST DUP2 MSTORE PUSH1 0x20 ADD DUP10 DUP2 MSTORE PUSH1 0x20 ADD DUP9 DUP2 MSTORE PUSH1 0x20 ADD PUSH1 0x0 DUP2 MSTORE PUSH1 0x20 ADD DUP8 DUP2 MSTORE PUSH1 0x20 ADD TIMESTAMP DUP2 MSTORE POP SWAP1 DUP1 PUSH1 0x1 DUP2 SLOAD ADD DUP1 DUP3 SSTORE DUP1 SWAP2 POP POP PUSH1 0x1 SWAP1 SUB SWAP1 PUSH1 0x0 MSTORE PUSH1 0x20 PUSH1 0x0 KECCAK256 SWAP1 PUSH1 0x7 MUL ADD PUSH1 0x0 SWAP1 SWAP2 SWAP1 SWAP2 SWAP1 SWAP2 POP PUSH1 0x0 DUP3 ADD MLOAD DUP2 PUSH1 0x0 ADD SSTORE PUSH1 0x20 DUP3 ADD MLOAD DUP2 PUSH1 0x1 ADD PUSH1 0x0 PUSH2 0x100 EXP DUP2 SLOAD DUP2 PUSH20 0xFFFFFFFFFFFFFFFFFFFFFFFFFFFFFFFFFFFFFFFF MUL NOT AND SWAP1 DUP4 PUSH20 0xFFFFFFFFFFFFFFFFFFFFFFFFFFFFFFFFFFFFFFFF AND MUL OR SWAP1 SSTORE POP PUSH1 0x40 DUP3 ADD MLOAD DUP2 PUSH1 0x1 ADD PUSH1 0x14 PUSH2 0x100 EXP DUP2 SLOAD DUP2 PUSH1 0xFF MUL NOT AND SWAP1 DUP4 PUSH1 0x1 DUP2 GT ISZERO PUSH2 0x291F JUMPI PUSH32 0x4E487B7100000000000000000000000000000000000000000000000000000000 PUSH1 0x0 MSTORE PUSH1 0x21 PUSH1 0x4 MSTORE PUSH1 0x24 PUSH1 0x0 REVERT JUMPDEST MUL OR SWAP1 SSTORE POP PUSH1 0x60 DUP3 ADD MLOAD DUP2 PUSH1 0x2 ADD SSTORE PUSH1 0x80 DUP3 ADD MLOAD DUP2 PUSH1 0x3 ADD SSTORE PUSH1 0xA0 DUP3 ADD MLOAD DUP2 PUSH1 0x4 ADD SSTORE PUSH1 0xC0 DUP3 ADD MLOAD DUP2 PUSH1 0x5 ADD SSTORE PUSH1 0xE0 DUP3 ADD MLOAD DUP2 PUSH1 0x6 ADD SSTORE POP POP PUSH1 0x0 DUP1 DUP3 DUP1 SLOAD SWAP1 POP GT PUSH2 0x296C JUMPI PUSH1 0x0 PUSH2 0x297E JUMP JUMPDEST PUSH1 0x1 DUP3 DUP1 SLOAD SWAP1 POP PUSH2 0x297D SWAP2 SWAP1 PUSH2 0x3B66 JUMP JUMPDEST JUMPDEST SWAP1 POP JUMPDEST PUSH1 0x0 DUP2 GT ISZERO PUSH2 0x303A JUMPI PUSH1 0x0 PUSH1 0x1 DUP2 GT ISZERO PUSH2 0x29C4 JUMPI PUSH32 0x4E487B7100000000000000000000000000000000000000000000000000000000 PUSH1 0x0 MSTORE PUSH1 0x21 PUSH1 0x4 MSTORE PUSH1 0x24 PUSH1 0x0 REVERT JUMPDEST DUP6 PUSH1 0x1 DUP2 GT ISZERO PUSH2 0x29FD JUMPI PUSH32 0x4E487B7100000000000000000000000000000000000000000000000000000000 PUSH1 0x0 MSTORE PUSH1 0x21 PUSH1 0x4 MSTORE PUSH1 0x24 PUSH1 0x0 REVERT JUMPDEST EQ DUP1 ISZERO PUSH2 0x2AA9 JUMPI POP DUP2 DUP2 DUP2 SLOAD DUP2 LT PUSH2 0x2A3E JUMPI PUSH32 0x4E487B7100000000000000000000000000000000000000000000000000000000 PUSH1 0x0 MSTORE PUSH1 0x32 PUSH1 0x4 MSTORE PUSH1 0x24 PUSH1 0x0 REVERT JUMPDEST SWAP1 PUSH1 0x0 MSTORE PUSH1 0x20 PUSH1 0x0 KECCAK256 SWAP1 PUSH1 0x7 MUL ADD PUSH1 0x5 ADD SLOAD DUP3 PUSH1 0x1 DUP4 PUSH2 0x2A5E SWAP2 SWAP1 PUSH2 0x3B66 JUMP JUMPDEST DUP2 SLOAD DUP2 LT PUSH2 0x2A95 JUMPI PUSH32 0x4E487B7100000000000000000000000000000000000000000000000000000000 PUSH1 0x0 MSTORE PUSH1 0x32 PUSH1 0x4 MSTORE PUSH1 0x24 PUSH1 0x0 REVERT JUMPDEST SWAP1 PUSH1 0x0 MSTORE PUSH1 0x20 PUSH1 0x0 KECCAK256 SWAP1 PUSH1 0x7 MUL ADD PUSH1 0x5 ADD SLOAD GT JUMPDEST ISZERO PUSH2 0x2AB3 JUMPI PUSH2 0x303A JUMP JUMPDEST PUSH1 0x1 DUP1 DUP2 GT ISZERO PUSH2 0x2AEC JUMPI PUSH32 0x4E487B7100000000000000000000000000000000000000000000000000000000 PUSH1 0x0 MSTORE PUSH1 0x21 PUSH1 0x4 MSTORE PUSH1 0x24 PUSH1 0x0 REVERT JUMPDEST DUP6 PUSH1 0x1 DUP2 GT ISZERO PUSH2 0x2B25 JUMPI PUSH32 0x4E487B7100000000000000000000000000000000000000000000000000000000 PUSH1 0x0 MSTORE PUSH1 0x21 PUSH1 0x4 MSTORE PUSH1 0x24 PUSH1 0x0 REVERT JUMPDEST EQ DUP1 ISZERO PUSH2 0x2BD1 JUMPI POP DUP2 DUP2 DUP2 SLOAD DUP2 LT PUSH2 0x2B66 JUMPI PUSH32 0x4E487B7100000000000000000000000000000000000000000000000000000000 PUSH1 0x0 MSTORE PUSH1 0x32 PUSH1 0x4 MSTORE PUSH1 0x24 PUSH1 0x0 REVERT JUMPDEST SWAP1 PUSH1 0x0 MSTORE PUSH1 0x20 PUSH1 0x0 KECCAK256 SWAP1 PUSH1 0x7 MUL ADD PUSH1 0x5 ADD SLOAD DUP3 PUSH1 0x1 DUP4 PUSH2 0x2B86 SWAP2 SWAP1 PUSH2 0x3B66 JUMP JUMPDEST DUP2 SLOAD DUP2 LT PUSH2 0x2BBD JUMPI PUSH32 0x4E487B7100000000000000000000000000000000000000000000000000000000 PUSH1 0x0 MSTORE PUSH1 0x32 PUSH1 0x4 MSTORE PUSH1 0x24 PUSH1 0x0 REVERT JUMPDEST SWAP1 PUSH1 0x0 MSTORE PUSH1 0x20 PUSH1 0x0 KECCAK256 SWAP1 PUSH1 0x7 MUL ADD PUSH1 0x5 ADD SLOAD LT JUMPDEST ISZERO PUSH2 0x2BDB JUMPI PUSH2 0x303A JUMP JUMPDEST PUSH1 0x0 DUP3 PUSH1 0x1 DUP4 PUSH2 0x2BEB SWAP2 SWAP1 PUSH2 0x3B66 JUMP JUMPDEST DUP2 SLOAD DUP2 LT PUSH2 0x2C22 JUMPI PUSH32 0x4E487B7100000000000000000000000000000000000000000000000000000000 PUSH1 0x0 MSTORE PUSH1 0x32 PUSH1 0x4 MSTORE PUSH1 0x24 PUSH1 0x0 REVERT JUMPDEST SWAP1 PUSH1 0x0 MSTORE PUSH1 0x20 PUSH1 0x0 KECCAK256 SWAP1 PUSH1 0x7 MUL ADD PUSH1 0x40 MLOAD DUP1 PUSH2 0x100 ADD PUSH1 0x40 MSTORE SWAP1 DUP2 PUSH1 0x0 DUP3 ADD SLOAD DUP2 MSTORE PUSH1 0x20 ADD PUSH1 0x1 DUP3 ADD PUSH1 0x0 SWAP1 SLOAD SWAP1 PUSH2 0x100 EXP SWAP1 DIV PUSH20 0xFFFFFFFFFFFFFFFFFFFFFFFFFFFFFFFFFFFFFFFF AND PUSH20 0xFFFFFFFFFFFFFFFFFFFFFFFFFFFFFFFFFFFFFFFF AND PUSH20 0xFFFFFFFFFFFFFFFFFFFFFFFFFFFFFFFFFFFFFFFF AND DUP2 MSTORE PUSH1 0x20 ADD PUSH1 0x1 DUP3 ADD PUSH1 0x14 SWAP1 SLOAD SWAP1 PUSH2 0x100 EXP SWAP1 DIV PUSH1 0xFF AND PUSH1 0x1 DUP2 GT ISZERO PUSH2 0x2CE7 JUMPI PUSH32 0x4E487B7100000000000000000000000000000000000000000000000000000000 PUSH1 0x0 MSTORE PUSH1 0x21 PUSH1 0x4 MSTORE PUSH1 0x24 PUSH1 0x0 REVERT JUMPDEST PUSH1 0x1 DUP2 GT ISZERO PUSH2 0x2D1F JUMPI PUSH32 0x4E487B7100000000000000000000000000000000000000000000000000000000 PUSH1 0x0 MSTORE PUSH1 0x21 PUSH1 0x4 MSTORE PUSH1 0x24 PUSH1 0x0 REVERT JUMPDEST DUP2 MSTORE PUSH1 0x20 ADD PUSH1 0x2 DUP3 ADD SLOAD DUP2 MSTORE PUSH1 0x20 ADD PUSH1 0x3 DUP3 ADD SLOAD DUP2 MSTORE PUSH1 0x20 ADD PUSH1 0x4 DUP3 ADD SLOAD DUP2 MSTORE PUSH1 0x20 ADD PUSH1 0x5 DUP3 ADD SLOAD DUP2 MSTORE PUSH1 0x20 ADD PUSH1 0x6 DUP3 ADD SLOAD DUP2 MSTORE POP POP SWAP1 POP DUP3 DUP3 DUP2 SLOAD DUP2 LT PUSH2 0x2D90 JUMPI PUSH32 0x4E487B7100000000000000000000000000000000000000000000000000000000 PUSH1 0x0 MSTORE PUSH1 0x32 PUSH1 0x4 MSTORE PUSH1 0x24 PUSH1 0x0 REVERT JUMPDEST SWAP1 PUSH1 0x0 MSTORE PUSH1 0x20 PUSH1 0x0 KECCAK256 SWAP1 PUSH1 0x7 MUL ADD DUP4 PUSH1 0x1 DUP5 PUSH2 0x2DAC SWAP2 SWAP1 PUSH2 0x3B66 JUMP JUMPDEST DUP2 SLOAD DUP2 LT PUSH2 0x2DE3 JUMPI PUSH32 0x4E487B7100000000000000000000000000000000000000000000000000000000 PUSH1 0x0 MSTORE PUSH1 0x32 PUSH1 0x4 MSTORE PUSH1 0x24 PUSH1 0x0 REVERT JUMPDEST SWAP1 PUSH1 0x0 MSTORE PUSH1 0x20 PUSH1 0x0 KECCAK256 SWAP1 PUSH1 0x7 MUL ADD PUSH1 0x0 DUP3 ADD SLOAD DUP2 PUSH1 0x0 ADD SSTORE PUSH1 0x1 DUP3 ADD PUSH1 0x0 SWAP1 SLOAD SWAP1 PUSH2 0x100 EXP SWAP1 DIV PUSH20 0xFFFFFFFFFFFFFFFFFFFFFFFFFFFFFFFFFFFFFFFF AND DUP2 PUSH1 0x1 ADD PUSH1 0x0 PUSH2 0x100 EXP DUP2 SLOAD DUP2 PUSH20 0xFFFFFFFFFFFFFFFFFFFFFFFFFFFFFFFFFFFFFFFF MUL NOT AND SWAP1 DUP4 PUSH20 0xFFFFFFFFFFFFFFFFFFFFFFFFFFFFFFFFFFFFFFFF AND MUL OR SWAP1 SSTORE POP PUSH1 0x1 DUP3 ADD PUSH1 0x14 SWAP1 SLOAD SWAP1 PUSH2 0x100 EXP SWAP1 DIV PUSH1 0xFF AND DUP2 PUSH1 0x1 ADD PUSH1 0x14 PUSH2 0x100 EXP DUP2 SLOAD DUP2 PUSH1 0xFF MUL NOT AND SWAP1 DUP4 PUSH1 0x1 DUP2 GT ISZERO PUSH2 0x2EC0 JUMPI PUSH32 0x4E487B7100000000000000000000000000000000000000000000000000000000 PUSH1 0x0 MSTORE PUSH1 0x21 PUSH1 0x4 MSTORE PUSH1 0x24 PUSH1 0x0 REVERT JUMPDEST MUL OR SWAP1 SSTORE POP PUSH1 0x2 DUP3 ADD SLOAD DUP2 PUSH1 0x2 ADD SSTORE PUSH1 0x3 DUP3 ADD SLOAD DUP2 PUSH1 0x3 ADD SSTORE PUSH1 0x4 DUP3 ADD SLOAD DUP2 PUSH1 0x4 ADD SSTORE PUSH1 0x5 DUP3 ADD SLOAD DUP2 PUSH1 0x5 ADD SSTORE PUSH1 0x6 DUP3 ADD SLOAD DUP2 PUSH1 0x6 ADD SSTORE SWAP1 POP POP DUP1 DUP4 DUP4 DUP2 SLOAD DUP2 LT PUSH2 0x2F34 JUMPI PUSH32 0x4E487B7100000000000000000000000000000000000000000000000000000000 PUSH1 0x0 MSTORE PUSH1 0x32 PUSH1 0x4 MSTORE PUSH1 0x24 PUSH1 0x0 REVERT JUMPDEST SWAP1 PUSH1 0x0 MSTORE PUSH1 0x20 PUSH1 0x0 KECCAK256 SWAP1 PUSH1 0x7 MUL ADD PUSH1 0x0 DUP3 ADD MLOAD DUP2 PUSH1 0x0 ADD SSTORE PUSH1 0x20 DUP3 ADD MLOAD DUP2 PUSH1 0x1 ADD PUSH1 0x0 PUSH2 0x100 EXP DUP2 SLOAD DUP2 PUSH20 0xFFFFFFFFFFFFFFFFFFFFFFFFFFFFFFFFFFFFFFFF MUL NOT AND SWAP1 DUP4 PUSH20 0xFFFFFFFFFFFFFFFFFFFFFFFFFFFFFFFFFFFFFFFF AND MUL OR SWAP1 SSTORE POP PUSH1 0x40 DUP3 ADD MLOAD DUP2 PUSH1 0x1 ADD PUSH1 0x14 PUSH2 0x100 EXP DUP2 SLOAD DUP2 PUSH1 0xFF MUL NOT AND SWAP1 DUP4 PUSH1 0x1 DUP2 GT ISZERO PUSH2 0x2FE4 JUMPI PUSH32 0x4E487B7100000000000000000000000000000000000000000000000000000000 PUSH1 0x0 MSTORE PUSH1 0x21 PUSH1 0x4 MSTORE PUSH1 0x24 PUSH1 0x0 REVERT JUMPDEST MUL OR SWAP1 SSTORE POP PUSH1 0x60 DUP3 ADD MLOAD DUP2 PUSH1 0x2 ADD SSTORE PUSH1 0x80 DUP3 ADD MLOAD DUP2 PUSH1 0x3 ADD SSTORE PUSH1 0xA0 DUP3 ADD MLOAD DUP2 PUSH1 0x4 ADD SSTORE PUSH1 0xC0 DUP3 ADD MLOAD DUP2 PUSH1 0x5 ADD SSTORE PUSH1 0xE0 DUP3 ADD MLOAD DUP2 PUSH1 0x6 ADD SSTORE SWAP1 POP POP PUSH2 0x3032 PUSH1 0x1 DUP4 PUSH2 0x3084 SWAP1 SWAP2 SWAP1 PUSH4 0xFFFFFFFF AND JUMP JUMPDEST SWAP2 POP POP PUSH2 0x2981 JUMP JUMPDEST PUSH2 0x3050 PUSH1 0x1 PUSH1 0x5 SLOAD PUSH2 0x309A SWAP1 SWAP2 SWAP1 PUSH4 0xFFFFFFFF AND JUMP JUMPDEST PUSH1 0x5 DUP2 SWAP1 SSTORE POP POP POP POP POP POP POP POP POP JUMP JUMPDEST PUSH1 0x0 DUP1 SLOAD SWAP1 PUSH2 0x100 EXP SWAP1 DIV PUSH20 0xFFFFFFFFFFFFFFFFFFFFFFFFFFFFFFFFFFFFFFFF AND DUP2 JUMP JUMPDEST PUSH1 0x0 DUP2 DUP4 PUSH2 0x3092 SWAP2 SWAP1 PUSH2 0x3B66 JUMP JUMPDEST SWAP1 POP SWAP3 SWAP2 POP POP JUMP JUMPDEST PUSH1 0x0 DUP2 DUP4 PUSH2 0x30A8 SWAP2 SWAP1 PUSH2 0x3AB6 JUMP JUMPDEST SWAP1 POP SWAP3 SWAP2 POP POP JUMP JUMPDEST PUSH1 0x0 DUP2 DUP4 PUSH2 0x30BE SWAP2 SWAP1 PUSH2 0x3B0C JUMP JUMPDEST SWAP1 POP SWAP3 SWAP2 POP POP JUMP JUMPDEST PUSH1 0x40 MLOAD DUP1 PUSH1 0x40 ADD PUSH1 0x40 MSTORE DUP1 PUSH1 0x0 DUP1 NOT AND DUP2 MSTORE PUSH1 0x20 ADD PUSH1 0x0 PUSH20 0xFFFFFFFFFFFFFFFFFFFFFFFFFFFFFFFFFFFFFFFF AND DUP2 MSTORE POP SWAP1 JUMP JUMPDEST PUSH1 0x0 DUP2 CALLDATALOAD SWAP1 POP PUSH2 0x3108 DUP2 PUSH2 0x3CCC JUMP JUMPDEST SWAP3 SWAP2 POP POP JUMP JUMPDEST PUSH1 0x0 DUP2 MLOAD SWAP1 POP PUSH2 0x311D DUP2 PUSH2 0x3CE3 JUMP JUMPDEST SWAP3 SWAP2 POP POP JUMP JUMPDEST PUSH1 0x0 DUP2 CALLDATALOAD SWAP1 POP PUSH2 0x3132 DUP2 PUSH2 0x3CFA JUMP JUMPDEST SWAP3 SWAP2 POP POP JUMP JUMPDEST PUSH1 0x0 DUP2 CALLDATALOAD SWAP1 POP PUSH2 0x3147 DUP2 PUSH2 0x3D11 JUMP JUMPDEST SWAP3 SWAP2 POP POP JUMP JUMPDEST PUSH1 0x0 DUP2 CALLDATALOAD SWAP1 POP PUSH2 0x315C DUP2 PUSH2 0x3D21 JUMP JUMPDEST SWAP3 SWAP2 POP POP JUMP JUMPDEST PUSH1 0x0 DUP1 PUSH1 0x40 DUP4 DUP6 SUB SLT ISZERO PUSH2 0x3175 JUMPI PUSH1 0x0 DUP1 REVERT JUMPDEST PUSH1 0x0 PUSH2 0x3183 DUP6 DUP3 DUP7 ADD PUSH2 0x30F9 JUMP JUMPDEST SWAP3 POP POP PUSH1 0x20 PUSH2 0x3194 DUP6 DUP3 DUP7 ADD PUSH2 0x3123 JUMP JUMPDEST SWAP2 POP POP SWAP3 POP SWAP3 SWAP1 POP JUMP JUMPDEST PUSH1 0x0 PUSH1 0x20 DUP3 DUP5 SUB SLT ISZERO PUSH2 0x31B0 JUMPI PUSH1 0x0 DUP1 REVERT JUMPDEST PUSH1 0x0 PUSH2 0x31BE DUP5 DUP3 DUP6 ADD PUSH2 0x310E JUMP JUMPDEST SWAP2 POP POP SWAP3 SWAP2 POP POP JUMP JUMPDEST PUSH1 0x0 PUSH1 0x20 DUP3 DUP5 SUB SLT ISZERO PUSH2 0x31D9 JUMPI PUSH1 0x0 DUP1 REVERT JUMPDEST PUSH1 0x0 PUSH2 0x31E7 DUP5 DUP3 DUP6 ADD PUSH2 0x3123 JUMP JUMPDEST SWAP2 POP POP SWAP3 SWAP2 POP POP JUMP JUMPDEST PUSH1 0x0 DUP1 PUSH1 0x40 DUP4 DUP6 SUB SLT ISZERO PUSH2 0x3203 JUMPI PUSH1 0x0 DUP1 REVERT JUMPDEST PUSH1 0x0 PUSH2 0x3211 DUP6 DUP3 DUP7 ADD PUSH2 0x3123 JUMP JUMPDEST SWAP3 POP POP PUSH1 0x20 PUSH2 0x3222 DUP6 DUP3 DUP7 ADD PUSH2 0x30F9 JUMP JUMPDEST SWAP2 POP POP SWAP3 POP SWAP3 SWAP1 POP JUMP JUMPDEST PUSH1 0x0 DUP1 PUSH1 0x40 DUP4 DUP6 SUB SLT ISZERO PUSH2 0x323F JUMPI PUSH1 0x0 DUP1 REVERT JUMPDEST PUSH1 0x0 PUSH2 0x324D DUP6 DUP3 DUP7 ADD PUSH2 0x3123 JUMP JUMPDEST SWAP3 POP POP PUSH1 0x20 PUSH2 0x325E DUP6 DUP3 DUP7 ADD PUSH2 0x3138 JUMP JUMPDEST SWAP2 POP POP SWAP3 POP SWAP3 SWAP1 POP JUMP JUMPDEST PUSH1 0x0 DUP1 PUSH1 0x0 PUSH1 0x60 DUP5 DUP7 SUB SLT ISZERO PUSH2 0x327D JUMPI PUSH1 0x0 DUP1 REVERT JUMPDEST PUSH1 0x0 PUSH2 0x328B DUP7 DUP3 DUP8 ADD PUSH2 0x3123 JUMP JUMPDEST SWAP4 POP POP PUSH1 0x20 PUSH2 0x329C DUP7 DUP3 DUP8 ADD PUSH2 0x314D JUMP JUMPDEST SWAP3 POP POP PUSH1 0x40 PUSH2 0x32AD DUP7 DUP3 DUP8 ADD PUSH2 0x3138 JUMP JUMPDEST SWAP2 POP POP SWAP3 POP SWAP3 POP SWAP3 JUMP JUMPDEST PUSH1 0x0 DUP1 PUSH1 0x0 PUSH1 0x60 DUP5 DUP7 SUB SLT ISZERO PUSH2 0x32CC JUMPI PUSH1 0x0 DUP1 REVERT JUMPDEST PUSH1 0x0 PUSH2 0x32DA DUP7 DUP3 DUP8 ADD PUSH2 0x3123 JUMP JUMPDEST SWAP4 POP POP PUSH1 0x20 PUSH2 0x32EB DUP7 DUP3 DUP8 ADD PUSH2 0x314D JUMP JUMPDEST SWAP3 POP POP PUSH1 0x40 PUSH2 0x32FC DUP7 DUP3 DUP8 ADD PUSH2 0x314D JUMP JUMPDEST SWAP2 POP POP SWAP3 POP SWAP3 POP SWAP3 JUMP JUMPDEST PUSH1 0x0 DUP1 PUSH1 0x0 DUP1 PUSH1 0x80 DUP6 DUP8 SUB SLT ISZERO PUSH2 0x331C JUMPI PUSH1 0x0 DUP1 REVERT JUMPDEST PUSH1 0x0 PUSH2 0x332A DUP8 DUP3 DUP9 ADD PUSH2 0x3123 JUMP JUMPDEST SWAP5 POP POP PUSH1 0x20 PUSH2 0x333B DUP8 DUP3 DUP9 ADD PUSH2 0x314D JUMP JUMPDEST SWAP4 POP POP PUSH1 0x40 PUSH2 0x334C DUP8 DUP3 DUP9 ADD PUSH2 0x314D JUMP JUMPDEST SWAP3 POP POP PUSH1 0x60 PUSH2 0x335D DUP8 DUP3 DUP9 ADD PUSH2 0x3138 JUMP JUMPDEST SWAP2 POP POP SWAP3 SWAP6 SWAP2 SWAP5 POP SWAP3 POP JUMP JUMPDEST PUSH1 0x0 PUSH1 0x20 DUP3 DUP5 SUB SLT ISZERO PUSH2 0x337B JUMPI PUSH1 0x0 DUP1 REVERT JUMPDEST PUSH1 0x0 PUSH2 0x3389 DUP5 DUP3 DUP6 ADD PUSH2 0x314D JUMP JUMPDEST SWAP2 POP POP SWAP3 SWAP2 POP POP JUMP JUMPDEST PUSH1 0x0 DUP1 PUSH1 0x40 DUP4 DUP6 SUB SLT ISZERO PUSH2 0x33A5 JUMPI PUSH1 0x0 DUP1 REVERT JUMPDEST PUSH1 0x0 PUSH2 0x33B3 DUP6 DUP3 DUP7 ADD PUSH2 0x314D JUMP JUMPDEST SWAP3 POP POP PUSH1 0x20 PUSH2 0x33C4 DUP6 DUP3 DUP7 ADD PUSH2 0x3123 JUMP JUMPDEST SWAP2 POP POP SWAP3 POP SWAP3 SWAP1 POP JUMP JUMPDEST PUSH1 0x0 PUSH2 0x33DA DUP4 DUP4 PUSH2 0x3695 JUMP JUMPDEST PUSH2 0x100 DUP4 ADD SWAP1 POP SWAP3 SWAP2 POP POP JUMP JUMPDEST PUSH1 0x0 PUSH2 0x33F3 DUP4 DUP4 PUSH2 0x3737 JUMP JUMPDEST PUSH1 0x40 DUP4 ADD SWAP1 POP SWAP3 SWAP2 POP POP JUMP JUMPDEST PUSH2 0x3408 DUP2 PUSH2 0x3B9A JUMP JUMPDEST DUP3 MSTORE POP POP JUMP JUMPDEST PUSH2 0x3417 DUP2 PUSH2 0x3B9A JUMP JUMPDEST DUP3 MSTORE POP POP JUMP JUMPDEST PUSH1 0x0 PUSH2 0x3428 DUP3 PUSH2 0x3A53 JUMP JUMPDEST PUSH2 0x3432 DUP2 DUP6 PUSH2 0x3A83 JUMP JUMPDEST SWAP4 POP PUSH2 0x343D DUP4 PUSH2 0x3A33 JUMP JUMPDEST DUP1 PUSH1 0x0 JUMPDEST DUP4 DUP2 LT ISZERO PUSH2 0x346E JUMPI DUP2 MLOAD PUSH2 0x3455 DUP9 DUP3 PUSH2 0x33CE JUMP JUMPDEST SWAP8 POP PUSH2 0x3460 DUP4 PUSH2 0x3A69 JUMP JUMPDEST SWAP3 POP POP PUSH1 0x1 DUP2 ADD SWAP1 POP PUSH2 0x3441 JUMP JUMPDEST POP DUP6 SWAP4 POP POP POP POP SWAP3 SWAP2 POP POP JUMP JUMPDEST PUSH1 0x0 PUSH2 0x3486 DUP3 PUSH2 0x3A5E JUMP JUMPDEST PUSH2 0x3490 DUP2 DUP6 PUSH2 0x3A94 JUMP JUMPDEST SWAP4 POP PUSH2 0x349B DUP4 PUSH2 0x3A43 JUMP JUMPDEST DUP1 PUSH1 0x0 JUMPDEST DUP4 DUP2 LT ISZERO PUSH2 0x34CC JUMPI DUP2 MLOAD PUSH2 0x34B3 DUP9 DUP3 PUSH2 0x33E7 JUMP JUMPDEST SWAP8 POP PUSH2 0x34BE DUP4 PUSH2 0x3A76 JUMP JUMPDEST SWAP3 POP POP PUSH1 0x1 DUP2 ADD SWAP1 POP PUSH2 0x349F JUMP JUMPDEST POP DUP6 SWAP4 POP POP POP POP SWAP3 SWAP2 POP POP JUMP JUMPDEST PUSH2 0x34E2 DUP2 PUSH2 0x3BB8 JUMP JUMPDEST DUP3 MSTORE POP POP JUMP JUMPDEST PUSH2 0x34F1 DUP2 PUSH2 0x3BB8 JUMP JUMPDEST DUP3 MSTORE POP POP JUMP JUMPDEST PUSH2 0x3500 DUP2 PUSH2 0x3BFF JUMP JUMPDEST DUP3 MSTORE POP POP JUMP JUMPDEST PUSH2 0x350F DUP2 PUSH2 0x3BFF JUMP JUMPDEST DUP3 MSTORE POP POP JUMP JUMPDEST PUSH1 0x0 PUSH2 0x3522 PUSH1 0xF DUP4 PUSH2 0x3AA5 JUMP JUMPDEST SWAP2 POP PUSH32 0x42616C616E636520746F6F206C6F770000000000000000000000000000000000 PUSH1 0x0 DUP4 ADD MSTORE PUSH1 0x20 DUP3 ADD SWAP1 POP SWAP2 SWAP1 POP JUMP JUMPDEST PUSH1 0x0 PUSH2 0x3562 PUSH1 0xA DUP4 PUSH2 0x3AA5 JUMP JUMPDEST SWAP2 POP PUSH32 0x4F6E6C792061646D696E00000000000000000000000000000000000000000000 PUSH1 0x0 DUP4 ADD MSTORE PUSH1 0x20 DUP3 ADD SWAP1 POP SWAP2 SWAP1 POP JUMP JUMPDEST PUSH1 0x0 PUSH2 0x35A2 PUSH1 0x13 DUP4 PUSH2 0x3AA5 JUMP JUMPDEST SWAP2 POP PUSH32 0x4441492062616C616E636520746F6F206C6F7700000000000000000000000000 PUSH1 0x0 DUP4 ADD MSTORE PUSH1 0x20 DUP3 ADD SWAP1 POP SWAP2 SWAP1 POP JUMP JUMPDEST PUSH1 0x0 PUSH2 0x35E2 PUSH1 0x19 DUP4 PUSH2 0x3AA5 JUMP JUMPDEST SWAP2 POP PUSH32 0x5468697320746F6B656E20646F6573206E6F7420657869737400000000000000 PUSH1 0x0 DUP4 ADD MSTORE PUSH1 0x20 DUP3 ADD SWAP1 POP SWAP2 SWAP1 POP JUMP JUMPDEST PUSH1 0x0 PUSH2 0x3622 PUSH1 0x15 DUP4 PUSH2 0x3AA5 JUMP JUMPDEST SWAP2 POP PUSH32 0x546F6B656E2062616C616E636520746F6F206C6F770000000000000000000000 PUSH1 0x0 DUP4 ADD MSTORE PUSH1 0x20 DUP3 ADD SWAP1 POP SWAP2 SWAP1 POP JUMP JUMPDEST PUSH1 0x0 PUSH2 0x3662 PUSH1 0x10 DUP4 PUSH2 0x3AA5 JUMP JUMPDEST SWAP2 POP PUSH32 0x43616E6E6F742074726164652044414900000000000000000000000000000000 PUSH1 0x0 DUP4 ADD MSTORE PUSH1 0x20 DUP3 ADD SWAP1 POP SWAP2 SWAP1 POP JUMP JUMPDEST PUSH2 0x100 DUP3 ADD PUSH1 0x0 DUP3 ADD MLOAD PUSH2 0x36AC PUSH1 0x0 DUP6 ADD DUP3 PUSH2 0x3766 JUMP JUMPDEST POP PUSH1 0x20 DUP3 ADD MLOAD PUSH2 0x36BF PUSH1 0x20 DUP6 ADD DUP3 PUSH2 0x33FF JUMP JUMPDEST POP PUSH1 0x40 DUP3 ADD MLOAD PUSH2 0x36D2 PUSH1 0x40 DUP6 ADD DUP3 PUSH2 0x34F7 JUMP JUMPDEST POP PUSH1 0x60 DUP3 ADD MLOAD PUSH2 0x36E5 PUSH1 0x60 DUP6 ADD DUP3 PUSH2 0x34D9 JUMP JUMPDEST POP PUSH1 0x80 DUP3 ADD MLOAD PUSH2 0x36F8 PUSH1 0x80 DUP6 ADD DUP3 PUSH2 0x3766 JUMP JUMPDEST POP PUSH1 0xA0 DUP3 ADD MLOAD PUSH2 0x370B PUSH1 0xA0 DUP6 ADD DUP3 PUSH2 0x3766 JUMP JUMPDEST POP PUSH1 0xC0 DUP3 ADD MLOAD PUSH2 0x371E PUSH1 0xC0 DUP6 ADD DUP3 PUSH2 0x3766 JUMP JUMPDEST POP PUSH1 0xE0 DUP3 ADD MLOAD PUSH2 0x3731 PUSH1 0xE0 DUP6 ADD DUP3 PUSH2 0x3766 JUMP JUMPDEST POP POP POP POP JUMP JUMPDEST PUSH1 0x40 DUP3 ADD PUSH1 0x0 DUP3 ADD MLOAD PUSH2 0x374D PUSH1 0x0 DUP6 ADD DUP3 PUSH2 0x34D9 JUMP JUMPDEST POP PUSH1 0x20 DUP3 ADD MLOAD PUSH2 0x3760 PUSH1 0x20 DUP6 ADD DUP3 PUSH2 0x33FF JUMP JUMPDEST POP POP POP POP JUMP JUMPDEST PUSH2 0x376F DUP2 PUSH2 0x3BF5 JUMP JUMPDEST DUP3 MSTORE POP POP JUMP JUMPDEST PUSH2 0x377E DUP2 PUSH2 0x3BF5 JUMP JUMPDEST DUP3 MSTORE POP POP JUMP JUMPDEST PUSH1 0x0 PUSH1 0x20 DUP3 ADD SWAP1 POP PUSH2 0x3799 PUSH1 0x0 DUP4 ADD DUP5 PUSH2 0x340E JUMP JUMPDEST SWAP3 SWAP2 POP POP JUMP JUMPDEST PUSH1 0x0 PUSH1 0x60 DUP3 ADD SWAP1 POP PUSH2 0x37B4 PUSH1 0x0 DUP4 ADD DUP7 PUSH2 0x340E JUMP JUMPDEST PUSH2 0x37C1 PUSH1 0x20 DUP4 ADD DUP6 PUSH2 0x340E JUMP JUMPDEST PUSH2 0x37CE PUSH1 0x40 DUP4 ADD DUP5 PUSH2 0x3775 JUMP JUMPDEST SWAP5 SWAP4 POP POP POP POP JUMP JUMPDEST PUSH1 0x0 PUSH1 0x40 DUP3 ADD SWAP1 POP PUSH2 0x37EB PUSH1 0x0 DUP4 ADD DUP6 PUSH2 0x340E JUMP JUMPDEST PUSH2 0x37F8 PUSH1 0x20 DUP4 ADD DUP5 PUSH2 0x3775 JUMP JUMPDEST SWAP4 SWAP3 POP POP POP JUMP JUMPDEST PUSH1 0x0 PUSH1 0x20 DUP3 ADD SWAP1 POP DUP2 DUP2 SUB PUSH1 0x0 DUP4 ADD MSTORE PUSH2 0x3819 DUP2 DUP5 PUSH2 0x341D JUMP JUMPDEST SWAP1 POP SWAP3 SWAP2 POP POP JUMP JUMPDEST PUSH1 0x0 PUSH1 0x20 DUP3 ADD SWAP1 POP DUP2 DUP2 SUB PUSH1 0x0 DUP4 ADD MSTORE PUSH2 0x383B DUP2 DUP5 PUSH2 0x347B JUMP JUMPDEST SWAP1 POP SWAP3 SWAP2 POP POP JUMP JUMPDEST PUSH1 0x0 PUSH1 0x20 DUP3 ADD SWAP1 POP PUSH2 0x3858 PUSH1 0x0 DUP4 ADD DUP5 PUSH2 0x34E8 JUMP JUMPDEST SWAP3 SWAP2 POP POP JUMP JUMPDEST PUSH1 0x0 PUSH1 0x40 DUP3 ADD SWAP1 POP PUSH2 0x3873 PUSH1 0x0 DUP4 ADD DUP6 PUSH2 0x34E8 JUMP JUMPDEST PUSH2 0x3880 PUSH1 0x20 DUP4 ADD DUP5 PUSH2 0x340E JUMP JUMPDEST SWAP4 SWAP3 POP POP POP JUMP JUMPDEST PUSH1 0x0 PUSH1 0x20 DUP3 ADD SWAP1 POP DUP2 DUP2 SUB PUSH1 0x0 DUP4 ADD MSTORE PUSH2 0x38A0 DUP2 PUSH2 0x3515 JUMP JUMPDEST SWAP1 POP SWAP2 SWAP1 POP JUMP JUMPDEST PUSH1 0x0 PUSH1 0x20 DUP3 ADD SWAP1 POP DUP2 DUP2 SUB PUSH1 0x0 DUP4 ADD MSTORE PUSH2 0x38C0 DUP2 PUSH2 0x3555 JUMP JUMPDEST SWAP1 POP SWAP2 SWAP1 POP JUMP JUMPDEST PUSH1 0x0 PUSH1 0x20 DUP3 ADD SWAP1 POP DUP2 DUP2 SUB PUSH1 0x0 DUP4 ADD MSTORE PUSH2 0x38E0 DUP2 PUSH2 0x3595 JUMP JUMPDEST SWAP1 POP SWAP2 SWAP1 POP JUMP JUMPDEST PUSH1 0x0 PUSH1 0x20 DUP3 ADD SWAP1 POP DUP2 DUP2 SUB PUSH1 0x0 DUP4 ADD MSTORE PUSH2 0x3900 DUP2 PUSH2 0x35D5 JUMP JUMPDEST SWAP1 POP SWAP2 SWAP1 POP JUMP JUMPDEST PUSH1 0x0 PUSH1 0x20 DUP3 ADD SWAP1 POP DUP2 DUP2 SUB PUSH1 0x0 DUP4 ADD MSTORE PUSH2 0x3920 DUP2 PUSH2 0x3615 JUMP JUMPDEST SWAP1 POP SWAP2 SWAP1 POP JUMP JUMPDEST PUSH1 0x0 PUSH1 0x20 DUP3 ADD SWAP1 POP DUP2 DUP2 SUB PUSH1 0x0 DUP4 ADD MSTORE PUSH2 0x3940 DUP2 PUSH2 0x3655 JUMP JUMPDEST SWAP1 POP SWAP2 SWAP1 POP JUMP JUMPDEST PUSH1 0x0 PUSH1 0x20 DUP3 ADD SWAP1 POP PUSH2 0x395C PUSH1 0x0 DUP4 ADD DUP5 PUSH2 0x3775 JUMP JUMPDEST SWAP3 SWAP2 POP POP JUMP JUMPDEST PUSH1 0x0 PUSH2 0x100 DUP3 ADD SWAP1 POP PUSH2 0x3978 PUSH1 0x0 DUP4 ADD DUP12 PUSH2 0x3775 JUMP JUMPDEST PUSH2 0x3985 PUSH1 0x20 DUP4 ADD DUP11 PUSH2 0x340E JUMP JUMPDEST PUSH2 0x3992 PUSH1 0x40 DUP4 ADD DUP10 PUSH2 0x3506 JUMP JUMPDEST PUSH2 0x399F PUSH1 0x60 DUP4 ADD DUP9 PUSH2 0x34E8 JUMP JUMPDEST PUSH2 0x39AC PUSH1 0x80 DUP4 ADD DUP8 PUSH2 0x3775 JUMP JUMPDEST PUSH2 0x39B9 PUSH1 0xA0 DUP4 ADD DUP7 PUSH2 0x3775 JUMP JUMPDEST PUSH2 0x39C6 PUSH1 0xC0 DUP4 ADD DUP6 PUSH2 0x3775 JUMP JUMPDEST PUSH2 0x39D3 PUSH1 0xE0 DUP4 ADD DUP5 PUSH2 0x3775 JUMP JUMPDEST SWAP10 SWAP9 POP POP POP POP POP POP POP POP POP JUMP JUMPDEST PUSH1 0x0 PUSH1 0xA0 DUP3 ADD SWAP1 POP PUSH2 0x39F5 PUSH1 0x0 DUP4 ADD DUP9 PUSH2 0x3775 JUMP JUMPDEST PUSH2 0x3A02 PUSH1 0x20 DUP4 ADD DUP8 PUSH2 0x3775 JUMP JUMPDEST PUSH2 0x3A0F PUSH1 0x40 DUP4 ADD DUP7 PUSH2 0x3775 JUMP JUMPDEST PUSH2 0x3A1C PUSH1 0x60 DUP4 ADD DUP6 PUSH2 0x3775 JUMP JUMPDEST PUSH2 0x3A29 PUSH1 0x80 DUP4 ADD DUP5 PUSH2 0x3775 JUMP JUMPDEST SWAP7 SWAP6 POP POP POP POP POP POP JUMP JUMPDEST PUSH1 0x0 DUP2 SWAP1 POP PUSH1 0x20 DUP3 ADD SWAP1 POP SWAP2 SWAP1 POP JUMP JUMPDEST PUSH1 0x0 DUP2 SWAP1 POP PUSH1 0x20 DUP3 ADD SWAP1 POP SWAP2 SWAP1 POP JUMP JUMPDEST PUSH1 0x0 DUP2 MLOAD SWAP1 POP SWAP2 SWAP1 POP JUMP JUMPDEST PUSH1 0x0 DUP2 MLOAD SWAP1 POP SWAP2 SWAP1 POP JUMP JUMPDEST PUSH1 0x0 PUSH1 0x20 DUP3 ADD SWAP1 POP SWAP2 SWAP1 POP JUMP JUMPDEST PUSH1 0x0 PUSH1 0x20 DUP3 ADD SWAP1 POP SWAP2 SWAP1 POP JUMP JUMPDEST PUSH1 0x0 DUP3 DUP3 MSTORE PUSH1 0x20 DUP3 ADD SWAP1 POP SWAP3 SWAP2 POP POP JUMP JUMPDEST PUSH1 0x0 DUP3 DUP3 MSTORE PUSH1 0x20 DUP3 ADD SWAP1 POP SWAP3 SWAP2 POP POP JUMP JUMPDEST PUSH1 0x0 DUP3 DUP3 MSTORE PUSH1 0x20 DUP3 ADD SWAP1 POP SWAP3 SWAP2 POP POP JUMP JUMPDEST PUSH1 0x0 PUSH2 0x3AC1 DUP3 PUSH2 0x3BF5 JUMP JUMPDEST SWAP2 POP PUSH2 0x3ACC DUP4 PUSH2 0x3BF5 JUMP JUMPDEST SWAP3 POP DUP3 PUSH32 0xFFFFFFFFFFFFFFFFFFFFFFFFFFFFFFFFFFFFFFFFFFFFFFFFFFFFFFFFFFFFFFFF SUB DUP3 GT ISZERO PUSH2 0x3B01 JUMPI PUSH2 0x3B00 PUSH2 0x3C5A JUMP JUMPDEST JUMPDEST DUP3 DUP3 ADD SWAP1 POP SWAP3 SWAP2 POP POP JUMP JUMPDEST PUSH1 0x0 PUSH2 0x3B17 DUP3 PUSH2 0x3BF5 JUMP JUMPDEST SWAP2 POP PUSH2 0x3B22 DUP4 PUSH2 0x3BF5 JUMP JUMPDEST SWAP3 POP DUP2 PUSH32 0xFFFFFFFFFFFFFFFFFFFFFFFFFFFFFFFFFFFFFFFFFFFFFFFFFFFFFFFFFFFFFFFF DIV DUP4 GT DUP3 ISZERO ISZERO AND ISZERO PUSH2 0x3B5B JUMPI PUSH2 0x3B5A PUSH2 0x3C5A JUMP JUMPDEST JUMPDEST DUP3 DUP3 MUL SWAP1 POP SWAP3 SWAP2 POP POP JUMP JUMPDEST PUSH1 0x0 PUSH2 0x3B71 DUP3 PUSH2 0x3BF5 JUMP JUMPDEST SWAP2 POP PUSH2 0x3B7C DUP4 PUSH2 0x3BF5 JUMP JUMPDEST SWAP3 POP DUP3 DUP3 LT ISZERO PUSH2 0x3B8F JUMPI PUSH2 0x3B8E PUSH2 0x3C5A JUMP JUMPDEST JUMPDEST DUP3 DUP3 SUB SWAP1 POP SWAP3 SWAP2 POP POP JUMP JUMPDEST PUSH1 0x0 PUSH2 0x3BA5 DUP3 PUSH2 0x3BD5 JUMP JUMPDEST SWAP1 POP SWAP2 SWAP1 POP JUMP JUMPDEST PUSH1 0x0 DUP2 ISZERO ISZERO SWAP1 POP SWAP2 SWAP1 POP JUMP JUMPDEST PUSH1 0x0 DUP2 SWAP1 POP SWAP2 SWAP1 POP JUMP JUMPDEST PUSH1 0x0 DUP2 SWAP1 POP PUSH2 0x3BD0 DUP3 PUSH2 0x3CB8 JUMP JUMPDEST SWAP2 SWAP1 POP JUMP JUMPDEST PUSH1 0x0 PUSH20 0xFFFFFFFFFFFFFFFFFFFFFFFFFFFFFFFFFFFFFFFF DUP3 AND SWAP1 POP SWAP2 SWAP1 POP JUMP JUMPDEST PUSH1 0x0 DUP2 SWAP1 POP SWAP2 SWAP1 POP JUMP JUMPDEST PUSH1 0x0 PUSH2 0x3C0A DUP3 PUSH2 0x3BC2 JUMP JUMPDEST SWAP1 POP SWAP2 SWAP1 POP JUMP JUMPDEST PUSH1 0x0 PUSH2 0x3C1C DUP3 PUSH2 0x3BF5 JUMP JUMPDEST SWAP2 POP PUSH32 0xFFFFFFFFFFFFFFFFFFFFFFFFFFFFFFFFFFFFFFFFFFFFFFFFFFFFFFFFFFFFFFFF DUP3 EQ ISZERO PUSH2 0x3C4F JUMPI PUSH2 0x3C4E PUSH2 0x3C5A JUMP JUMPDEST JUMPDEST PUSH1 0x1 DUP3 ADD SWAP1 POP SWAP2 SWAP1 POP JUMP JUMPDEST PUSH32 0x4E487B7100000000000000000000000000000000000000000000000000000000 PUSH1 0x0 MSTORE PUSH1 0x11 PUSH1 0x4 MSTORE PUSH1 0x24 PUSH1 0x0 REVERT JUMPDEST PUSH32 0x4E487B7100000000000000000000000000000000000000000000000000000000 PUSH1 0x0 MSTORE PUSH1 0x21 PUSH1 0x4 MSTORE PUSH1 0x24 PUSH1 0x0 REVERT JUMPDEST PUSH1 0x2 DUP2 LT PUSH2 0x3CC9 JUMPI PUSH2 0x3CC8 PUSH2 0x3C89 JUMP JUMPDEST JUMPDEST POP JUMP JUMPDEST PUSH2 0x3CD5 DUP2 PUSH2 0x3B9A JUMP JUMPDEST DUP2 EQ PUSH2 0x3CE0 JUMPI PUSH1 0x0 DUP1 REVERT JUMPDEST POP JUMP JUMPDEST PUSH2 0x3CEC DUP2 PUSH2 0x3BAC JUMP JUMPDEST DUP2 EQ PUSH2 0x3CF7 JUMPI PUSH1 0x0 DUP1 REVERT JUMPDEST POP JUMP JUMPDEST PUSH2 0x3D03 DUP2 PUSH2 0x3BB8 JUMP JUMPDEST DUP2 EQ PUSH2 0x3D0E JUMPI PUSH1 0x0 DUP1 REVERT JUMPDEST POP JUMP JUMPDEST PUSH1 0x2 DUP2 LT PUSH2 0x3D1E JUMPI PUSH1 0x0 DUP1 REVERT JUMPDEST POP JUMP JUMPDEST PUSH2 0x3D2A DUP2 PUSH2 0x3BF5 JUMP JUMPDEST DUP2 EQ PUSH2 0x3D35 JUMPI PUSH1 0x0 DUP1 REVERT JUMPDEST POP JUMP INVALID LOG2 PUSH5 0x6970667358 0x22 SLT KECCAK256 PUSH5 0xC626F4D07C EXP 0xCE 0xCB DUP10 0xC COINBASE 0x2B OR 0x4B SGT CALL DUP8 0x2A RETURN SLOAD RETURN CALLVALUE 0x24 SELFBALANCE 0x5E PUSH32 0x3F628F664964736F6C6343000800003300000000000000000000000000000000 "
				},
				"gasEstimates": {
					"creation": {
						"codeDepositCost": "3145200",
						"executionCost": "24341",
						"totalCost": "3169541"
					},
					"external": {
						"addToken(bytes32,address)": "83497",
						"admin()": "1299",
						"createLimitOrder(bytes32,uint256,uint256,uint8)": "infinite",
						"createMarketOrder(bytes32,uint256,uint8)": "infinite",
						"deposit(uint256,bytes32)": "infinite",
						"getOrders(bytes32,uint8)": "infinite",
						"getTokens()": "infinite",
						"nextOrderId()": "1152",
						"orderBook(bytes32,uint256,uint256)": "infinite",
						"tokenList(uint256)": "2327",
						"tokens(bytes32)": "infinite",
						"traderBalances(address,bytes32)": "1817",
						"withdraw(uint256,bytes32)": "infinite"
					}
				},
				"methodIdentifiers": {
					"addToken(bytes32,address)": "9776aacf",
					"admin()": "f851a440",
					"createLimitOrder(bytes32,uint256,uint256,uint8)": "d9c0c950",
					"createMarketOrder(bytes32,uint256,uint8)": "7f2c6246",
					"deposit(uint256,bytes32)": "c9630cb0",
					"getOrders(bytes32,uint8)": "46e9658b",
					"getTokens()": "aa6ca808",
					"nextOrderId()": "2a58b330",
					"orderBook(bytes32,uint256,uint256)": "0bb431b6",
					"tokenList(uint256)": "9ead7222",
					"tokens(bytes32)": "904194a3",
					"traderBalances(address,bytes32)": "72ce957e",
					"withdraw(uint256,bytes32)": "a8d2021a"
				}
			},
			"storageLayout": {
				"storage": [
					{
						"astId": 401,
						"contract": "contracts/Dex.sol:Dex",
						"label": "admin",
						"offset": 0,
						"slot": "0",
						"type": "t_address"
					},
					{
						"astId": 417,
						"contract": "contracts/Dex.sol:Dex",
						"label": "tokens",
						"offset": 0,
						"slot": "1",
						"type": "t_mapping(t_bytes32,t_struct(Token)412_storage)"
					},
					{
						"astId": 420,
						"contract": "contracts/Dex.sol:Dex",
						"label": "tokenList",
						"offset": 0,
						"slot": "2",
						"type": "t_array(t_bytes32)dyn_storage"
					},
					{
						"astId": 426,
						"contract": "contracts/Dex.sol:Dex",
						"label": "traderBalances",
						"offset": 0,
						"slot": "3",
						"type": "t_mapping(t_address,t_mapping(t_bytes32,t_uint256))"
					},
					{
						"astId": 455,
						"contract": "contracts/Dex.sol:Dex",
						"label": "orderBook",
						"offset": 0,
						"slot": "4",
						"type": "t_mapping(t_bytes32,t_mapping(t_uint256,t_array(t_struct(Order)447_storage)dyn_storage))"
					},
					{
						"astId": 457,
						"contract": "contracts/Dex.sol:Dex",
						"label": "nextOrderId",
						"offset": 0,
						"slot": "5",
						"type": "t_uint256"
					},
					{
						"astId": 459,
						"contract": "contracts/Dex.sol:Dex",
						"label": "nextTradeId",
						"offset": 0,
						"slot": "6",
						"type": "t_uint256"
					}
				],
				"types": {
					"t_address": {
						"encoding": "inplace",
						"label": "address",
						"numberOfBytes": "20"
					},
					"t_array(t_bytes32)dyn_storage": {
						"base": "t_bytes32",
						"encoding": "dynamic_array",
						"label": "bytes32[]",
						"numberOfBytes": "32"
					},
					"t_array(t_struct(Order)447_storage)dyn_storage": {
						"base": "t_struct(Order)447_storage",
						"encoding": "dynamic_array",
						"label": "struct Dex.Order[]",
						"numberOfBytes": "32"
					},
					"t_bytes32": {
						"encoding": "inplace",
						"label": "bytes32",
						"numberOfBytes": "32"
					},
					"t_enum(Side)429": {
						"encoding": "inplace",
						"label": "enum Dex.Side",
						"numberOfBytes": "1"
					},
					"t_mapping(t_address,t_mapping(t_bytes32,t_uint256))": {
						"encoding": "mapping",
						"key": "t_address",
						"label": "mapping(address => mapping(bytes32 => uint256))",
						"numberOfBytes": "32",
						"value": "t_mapping(t_bytes32,t_uint256)"
					},
					"t_mapping(t_bytes32,t_mapping(t_uint256,t_array(t_struct(Order)447_storage)dyn_storage))": {
						"encoding": "mapping",
						"key": "t_bytes32",
						"label": "mapping(bytes32 => mapping(uint256 => struct Dex.Order[]))",
						"numberOfBytes": "32",
						"value": "t_mapping(t_uint256,t_array(t_struct(Order)447_storage)dyn_storage)"
					},
					"t_mapping(t_bytes32,t_struct(Token)412_storage)": {
						"encoding": "mapping",
						"key": "t_bytes32",
						"label": "mapping(bytes32 => struct Dex.Token)",
						"numberOfBytes": "32",
						"value": "t_struct(Token)412_storage"
					},
					"t_mapping(t_bytes32,t_uint256)": {
						"encoding": "mapping",
						"key": "t_bytes32",
						"label": "mapping(bytes32 => uint256)",
						"numberOfBytes": "32",
						"value": "t_uint256"
					},
					"t_mapping(t_uint256,t_array(t_struct(Order)447_storage)dyn_storage)": {
						"encoding": "mapping",
						"key": "t_uint256",
						"label": "mapping(uint256 => struct Dex.Order[])",
						"numberOfBytes": "32",
						"value": "t_array(t_struct(Order)447_storage)dyn_storage"
					},
					"t_struct(Order)447_storage": {
						"encoding": "inplace",
						"label": "struct Dex.Order",
						"members": [
							{
								"astId": 431,
								"contract": "contracts/Dex.sol:Dex",
								"label": "id",
								"offset": 0,
								"slot": "0",
								"type": "t_uint256"
							},
							{
								"astId": 433,
								"contract": "contracts/Dex.sol:Dex",
								"label": "trader",
								"offset": 0,
								"slot": "1",
								"type": "t_address"
							},
							{
								"astId": 436,
								"contract": "contracts/Dex.sol:Dex",
								"label": "side",
								"offset": 20,
								"slot": "1",
								"type": "t_enum(Side)429"
							},
							{
								"astId": 438,
								"contract": "contracts/Dex.sol:Dex",
								"label": "ticker",
								"offset": 0,
								"slot": "2",
								"type": "t_bytes32"
							},
							{
								"astId": 440,
								"contract": "contracts/Dex.sol:Dex",
								"label": "amount",
								"offset": 0,
								"slot": "3",
								"type": "t_uint256"
							},
							{
								"astId": 442,
								"contract": "contracts/Dex.sol:Dex",
								"label": "filled",
								"offset": 0,
								"slot": "4",
								"type": "t_uint256"
							},
							{
								"astId": 444,
								"contract": "contracts/Dex.sol:Dex",
								"label": "price",
								"offset": 0,
								"slot": "5",
								"type": "t_uint256"
							},
							{
								"astId": 446,
								"contract": "contracts/Dex.sol:Dex",
								"label": "date",
								"offset": 0,
								"slot": "6",
								"type": "t_uint256"
							}
						],
						"numberOfBytes": "224"
					},
					"t_struct(Token)412_storage": {
						"encoding": "inplace",
						"label": "struct Dex.Token",
						"members": [
							{
								"astId": 409,
								"contract": "contracts/Dex.sol:Dex",
								"label": "ticker",
								"offset": 0,
								"slot": "0",
								"type": "t_bytes32"
							},
							{
								"astId": 411,
								"contract": "contracts/Dex.sol:Dex",
								"label": "tokenAddress",
								"offset": 0,
								"slot": "1",
								"type": "t_address"
							}
						],
						"numberOfBytes": "64"
					},
					"t_uint256": {
						"encoding": "inplace",
						"label": "uint256",
						"numberOfBytes": "32"
					}
				}
			},
			"userdoc": {
				"kind": "user",
				"methods": {},
				"version": 1
			}
		}
	}
}