{
	"contracts/Hairdressing.sol": {
		"Hairdressing": {
			"abi": [
				{
					"inputs": [],
					"stateMutability": "nonpayable",
					"type": "constructor"
				},
				{
					"inputs": [],
					"name": "admin",
					"outputs": [
						{
							"internalType": "address",
							"name": "",
							"type": "address"
						}
					],
					"stateMutability": "view",
					"type": "function"
				},
				{
					"inputs": [
						{
							"internalType": "uint256",
							"name": "",
							"type": "uint256"
						}
					],
					"name": "bookingList",
					"outputs": [
						{
							"internalType": "uint256",
							"name": "",
							"type": "uint256"
						}
					],
					"stateMutability": "view",
					"type": "function"
				},
				{
					"inputs": [
						{
							"internalType": "uint256",
							"name": "",
							"type": "uint256"
						}
					],
					"name": "bookings",
					"outputs": [
						{
							"internalType": "uint256",
							"name": "id",
							"type": "uint256"
						},
						{
							"internalType": "uint256",
							"name": "serviceId",
							"type": "uint256"
						},
						{
							"internalType": "uint256",
							"name": "date",
							"type": "uint256"
						},
						{
							"internalType": "address",
							"name": "client",
							"type": "address"
						}
					],
					"stateMutability": "view",
					"type": "function"
				},
				{
					"inputs": [
						{
							"internalType": "uint256",
							"name": "_date",
							"type": "uint256"
						},
						{
							"internalType": "uint256",
							"name": "_serviceId",
							"type": "uint256"
						}
					],
					"name": "createBooking",
					"outputs": [],
					"stateMutability": "nonpayable",
					"type": "function"
				},
				{
					"inputs": [
						{
							"internalType": "string",
							"name": "_name",
							"type": "string"
						},
						{
							"internalType": "string",
							"name": "_description",
							"type": "string"
						},
						{
							"internalType": "uint256",
							"name": "_price",
							"type": "uint256"
						},
						{
							"internalType": "uint256",
							"name": "_durability",
							"type": "uint256"
						}
					],
					"name": "createProduct",
					"outputs": [],
					"stateMutability": "nonpayable",
					"type": "function"
				},
				{
					"inputs": [
						{
							"internalType": "string",
							"name": "_name",
							"type": "string"
						},
						{
							"internalType": "string",
							"name": "_description",
							"type": "string"
						},
						{
							"internalType": "uint256",
							"name": "_price",
							"type": "uint256"
						},
						{
							"internalType": "uint256",
							"name": "_duration",
							"type": "uint256"
						},
						{
							"internalType": "uint256[]",
							"name": "_productIds",
							"type": "uint256[]"
						}
					],
					"name": "createService",
					"outputs": [],
					"stateMutability": "nonpayable",
					"type": "function"
				},
				{
					"inputs": [
						{
							"internalType": "uint256",
							"name": "_bookingId",
							"type": "uint256"
						}
					],
					"name": "deleteBooking",
					"outputs": [],
					"stateMutability": "nonpayable",
					"type": "function"
				},
				{
					"inputs": [
						{
							"internalType": "uint256",
							"name": "_productId",
							"type": "uint256"
						}
					],
					"name": "deleteProduct",
					"outputs": [],
					"stateMutability": "nonpayable",
					"type": "function"
				},
				{
					"inputs": [
						{
							"internalType": "uint256",
							"name": "_serviceId",
							"type": "uint256"
						}
					],
					"name": "deleteService",
					"outputs": [],
					"stateMutability": "nonpayable",
					"type": "function"
				},
				{
					"inputs": [],
					"name": "getProducts",
					"outputs": [
						{
							"components": [
								{
									"internalType": "uint256",
									"name": "id",
									"type": "uint256"
								},
								{
									"internalType": "string",
									"name": "name",
									"type": "string"
								},
								{
									"internalType": "string",
									"name": "description",
									"type": "string"
								},
								{
									"internalType": "uint256",
									"name": "price",
									"type": "uint256"
								},
								{
									"internalType": "uint256",
									"name": "durability",
									"type": "uint256"
								}
							],
							"internalType": "struct Hairdressing.Product[]",
							"name": "",
							"type": "tuple[]"
						}
					],
					"stateMutability": "view",
					"type": "function"
				},
				{
					"inputs": [],
					"name": "getServices",
					"outputs": [
						{
							"components": [
								{
									"internalType": "uint256",
									"name": "id",
									"type": "uint256"
								},
								{
									"internalType": "string",
									"name": "name",
									"type": "string"
								},
								{
									"internalType": "string",
									"name": "description",
									"type": "string"
								},
								{
									"internalType": "uint256",
									"name": "price",
									"type": "uint256"
								},
								{
									"internalType": "uint256",
									"name": "duration",
									"type": "uint256"
								},
								{
									"internalType": "uint256[]",
									"name": "productIds",
									"type": "uint256[]"
								}
							],
							"internalType": "struct Hairdressing.Service[]",
							"name": "",
							"type": "tuple[]"
						}
					],
					"stateMutability": "view",
					"type": "function"
				},
				{
					"inputs": [
						{
							"internalType": "address",
							"name": "_client",
							"type": "address"
						}
					],
					"name": "getUserBookings",
					"outputs": [
						{
							"components": [
								{
									"internalType": "uint256",
									"name": "id",
									"type": "uint256"
								},
								{
									"internalType": "uint256",
									"name": "serviceId",
									"type": "uint256"
								},
								{
									"internalType": "uint256",
									"name": "date",
									"type": "uint256"
								},
								{
									"internalType": "address",
									"name": "client",
									"type": "address"
								}
							],
							"internalType": "struct Hairdressing.Booking[]",
							"name": "",
							"type": "tuple[]"
						}
					],
					"stateMutability": "view",
					"type": "function"
				},
				{
					"inputs": [
						{
							"internalType": "uint256",
							"name": "",
							"type": "uint256"
						}
					],
					"name": "productList",
					"outputs": [
						{
							"internalType": "uint256",
							"name": "",
							"type": "uint256"
						}
					],
					"stateMutability": "view",
					"type": "function"
				},
				{
					"inputs": [
						{
							"internalType": "uint256",
							"name": "",
							"type": "uint256"
						}
					],
					"name": "products",
					"outputs": [
						{
							"internalType": "uint256",
							"name": "id",
							"type": "uint256"
						},
						{
							"internalType": "string",
							"name": "name",
							"type": "string"
						},
						{
							"internalType": "string",
							"name": "description",
							"type": "string"
						},
						{
							"internalType": "uint256",
							"name": "price",
							"type": "uint256"
						},
						{
							"internalType": "uint256",
							"name": "durability",
							"type": "uint256"
						}
					],
					"stateMutability": "view",
					"type": "function"
				},
				{
					"inputs": [
						{
							"internalType": "uint256",
							"name": "",
							"type": "uint256"
						}
					],
					"name": "serviceList",
					"outputs": [
						{
							"internalType": "uint256",
							"name": "",
							"type": "uint256"
						}
					],
					"stateMutability": "view",
					"type": "function"
				},
				{
					"inputs": [
						{
							"internalType": "uint256",
							"name": "",
							"type": "uint256"
						}
					],
					"name": "services",
					"outputs": [
						{
							"internalType": "uint256",
							"name": "id",
							"type": "uint256"
						},
						{
							"internalType": "string",
							"name": "name",
							"type": "string"
						},
						{
							"internalType": "string",
							"name": "description",
							"type": "string"
						},
						{
							"internalType": "uint256",
							"name": "price",
							"type": "uint256"
						},
						{
							"internalType": "uint256",
							"name": "duration",
							"type": "uint256"
						}
					],
					"stateMutability": "view",
					"type": "function"
				}
			],
			"devdoc": {
				"author": "Pablo Urriza",
				"kind": "dev",
				"methods": {
					"createBooking(uint256,uint256)": {
						"params": {
							"_date": "— date of the service.",
							"_serviceId": "— service id from the service to be booked."
						}
					},
					"createProduct(string,string,uint256,uint256)": {
						"params": {
							"_description": "— service description.",
							"_durability": "— the durability in uses.",
							"_name": "— name of the product.",
							"_price": "— price of the product."
						}
					},
					"createService(string,string,uint256,uint256,uint256[])": {
						"params": {
							"_description": "— service description.",
							"_duration": "— the duration, in seconds, for which the auction will accept offers.",
							"_name": "— name of the service.",
							"_price": "— price of the service.",
							"_productIds": "— array of the products needed for the service."
						}
					},
					"deleteBooking(uint256)": {
						"params": {
							"_bookingId": "— product id from the product to be deleted."
						}
					},
					"deleteProduct(uint256)": {
						"params": {
							"_productId": "— product id from the product to be deleted."
						}
					},
					"deleteService(uint256)": {
						"params": {
							"_serviceId": "— service id from the service to be deleted."
						}
					},
					"getUserBookings(address)": {
						"params": {
							"_client": "- Client address"
						}
					}
				},
				"title": "Hairdressing",
				"version": 1
			},
			"evm": {
				"assembly": "    /* \"contracts/Hairdressing.sol\":178:9095  contract Hairdressing {... */\n  mstore(0x40, 0x80)\n    /* \"contracts/Hairdressing.sol\":1104:1105  1 */\n  0x01\n    /* \"contracts/Hairdressing.sol\":1075:1105  uint private nextServiceId = 1 */\n  0x03\n  sstore\n    /* \"contracts/Hairdressing.sol\":1563:1564  1 */\n  0x01\n    /* \"contracts/Hairdressing.sol\":1534:1564  uint private nextProductId = 1 */\n  0x06\n  sstore\n    /* \"contracts/Hairdressing.sol\":1995:1996  1 */\n  0x01\n    /* \"contracts/Hairdressing.sol\":1966:1996  uint private nextBookingId = 1 */\n  0x09\n  sstore\n    /* \"contracts/Hairdressing.sol\":2164:2213  constructor() {... */\n  callvalue\n  dup1\n  iszero\n  tag_1\n  jumpi\n  0x00\n  dup1\n  revert\ntag_1:\n  pop\n    /* \"contracts/Hairdressing.sol\":2196:2206  msg.sender */\n  caller\n    /* \"contracts/Hairdressing.sol\":2188:2193  admin */\n  0x00\n  dup1\n    /* \"contracts/Hairdressing.sol\":2188:2206  admin = msg.sender */\n  0x0100\n  exp\n  dup2\n  sload\n  dup2\n  0xffffffffffffffffffffffffffffffffffffffff\n  mul\n  not\n  and\n  swap1\n  dup4\n  0xffffffffffffffffffffffffffffffffffffffff\n  and\n  mul\n  or\n  swap1\n  sstore\n  pop\n    /* \"contracts/Hairdressing.sol\":178:9095  contract Hairdressing {... */\n  dataSize(sub_0)\n  dup1\n  dataOffset(sub_0)\n  0x00\n  codecopy\n  0x00\n  return\nstop\n\nsub_0: assembly {\n        /* \"contracts/Hairdressing.sol\":178:9095  contract Hairdressing {... */\n      mstore(0x40, 0x80)\n      callvalue\n      dup1\n      iszero\n      tag_1\n      jumpi\n      0x00\n      dup1\n      revert\n    tag_1:\n      pop\n      jumpi(tag_2, lt(calldatasize, 0x04))\n      shr(0xe0, calldataload(0x00))\n      dup1\n      0xb91c7160\n      gt\n      tag_19\n      jumpi\n      dup1\n      0xc29b2f20\n      gt\n      tag_20\n      jumpi\n      dup1\n      0xc29b2f20\n      eq\n      tag_15\n      jumpi\n      dup1\n      0xed90c7b7\n      eq\n      tag_16\n      jumpi\n      dup1\n      0xef3197c8\n      eq\n      tag_17\n      jumpi\n      dup1\n      0xf851a440\n      eq\n      tag_18\n      jumpi\n      jump(tag_2)\n    tag_20:\n      dup1\n      0xb91c7160\n      eq\n      tag_11\n      jumpi\n      dup1\n      0xbc85b04c\n      eq\n      tag_12\n      jumpi\n      dup1\n      0xbd293dca\n      eq\n      tag_13\n      jumpi\n      dup1\n      0xc22c4f43\n      eq\n      tag_14\n      jumpi\n      jump(tag_2)\n    tag_19:\n      dup1\n      0x75417851\n      gt\n      tag_21\n      jumpi\n      dup1\n      0x75417851\n      eq\n      tag_7\n      jumpi\n      dup1\n      0x7acc0b20\n      eq\n      tag_8\n      jumpi\n      dup1\n      0x90d16cba\n      eq\n      tag_9\n      jumpi\n      dup1\n      0xa06a1f69\n      eq\n      tag_10\n      jumpi\n      jump(tag_2)\n    tag_21:\n      dup1\n      0x1dab301e\n      eq\n      tag_3\n      jumpi\n      dup1\n      0x3ae7f0df\n      eq\n      tag_4\n      jumpi\n      dup1\n      0x528c87d2\n      eq\n      tag_5\n      jumpi\n      dup1\n      0x74e29ee6\n      eq\n      tag_6\n      jumpi\n    tag_2:\n      0x00\n      dup1\n      revert\n        /* \"contracts/Hairdressing.sol\":1750:1790  mapping(uint => Booking) public bookings */\n    tag_3:\n      tag_22\n      0x04\n      dup1\n      calldatasize\n      sub\n      dup2\n      add\n      swap1\n      tag_23\n      swap2\n      swap1\n      tag_24\n      jump\t// in\n    tag_23:\n      tag_25\n      jump\t// in\n    tag_22:\n      mload(0x40)\n      tag_26\n      swap5\n      swap4\n      swap3\n      swap2\n      swap1\n      tag_27\n      jump\t// in\n    tag_26:\n      mload(0x40)\n      dup1\n      swap2\n      sub\n      swap1\n      return\n        /* \"contracts/Hairdressing.sol\":6770:6860  function deleteBooking(uint _bookingId) external bookingExists(_bookingId) {... */\n    tag_4:\n      tag_28\n      0x04\n      dup1\n      calldatasize\n      sub\n      dup2\n      add\n      swap1\n      tag_29\n      swap2\n      swap1\n      tag_24\n      jump\t// in\n    tag_29:\n      tag_30\n      jump\t// in\n    tag_28:\n      stop\n        /* \"contracts/Hairdressing.sol\":1463:1488  uint[] public productList */\n    tag_5:\n      tag_31\n      0x04\n      dup1\n      calldatasize\n      sub\n      dup2\n      add\n      swap1\n      tag_32\n      swap2\n      swap1\n      tag_24\n      jump\t// in\n    tag_32:\n      tag_33\n      jump\t// in\n    tag_31:\n      mload(0x40)\n      tag_34\n      swap2\n      swap1\n      tag_35\n      jump\t// in\n    tag_34:\n      mload(0x40)\n      dup1\n      swap2\n      sub\n      swap1\n      return\n        /* \"contracts/Hairdressing.sol\":5563:5722  function deleteService(uint _serviceId) external onlyAdmin() serviceExists(_serviceId) {... */\n    tag_6:\n      tag_36\n      0x04\n      dup1\n      calldatasize\n      sub\n      dup2\n      add\n      swap1\n      tag_37\n      swap2\n      swap1\n      tag_24\n      jump\t// in\n    tag_37:\n      tag_38\n      jump\t// in\n    tag_36:\n      stop\n        /* \"contracts/Hairdressing.sol\":6961:7768  function getServices() external view returns (Service[] memory) {... */\n    tag_7:\n      tag_39\n      tag_40\n      jump\t// in\n    tag_39:\n      mload(0x40)\n      tag_41\n      swap2\n      swap1\n      tag_42\n      jump\t// in\n    tag_41:\n      mload(0x40)\n      dup1\n      swap2\n      sub\n      swap1\n      return\n        /* \"contracts/Hairdressing.sol\":1318:1358  mapping(uint => Product) public products */\n    tag_8:\n      tag_43\n      0x04\n      dup1\n      calldatasize\n      sub\n      dup2\n      add\n      swap1\n      tag_44\n      swap2\n      swap1\n      tag_24\n      jump\t// in\n    tag_44:\n      tag_45\n      jump\t// in\n    tag_43:\n      mload(0x40)\n      tag_46\n      swap6\n      swap5\n      swap4\n      swap3\n      swap2\n      swap1\n      tag_47\n      jump\t// in\n    tag_46:\n      mload(0x40)\n      dup1\n      swap2\n      sub\n      swap1\n      return\n        /* \"contracts/Hairdressing.sol\":3491:3937  function createProduct(string calldata _name, string calldata _description, uint _price, uint _durability) external onlyAdmin() {... */\n    tag_9:\n      tag_48\n      0x04\n      dup1\n      calldatasize\n      sub\n      dup2\n      add\n      swap1\n      tag_49\n      swap2\n      swap1\n      tag_50\n      jump\t// in\n    tag_49:\n      tag_51\n      jump\t// in\n    tag_48:\n      stop\n        /* \"contracts/Hairdressing.sol\":1895:1920  uint[] public bookingList */\n    tag_10:\n      tag_52\n      0x04\n      dup1\n      calldatasize\n      sub\n      dup2\n      add\n      swap1\n      tag_53\n      swap2\n      swap1\n      tag_24\n      jump\t// in\n    tag_53:\n      tag_54\n      jump\t// in\n    tag_52:\n      mload(0x40)\n      tag_55\n      swap2\n      swap1\n      tag_35\n      jump\t// in\n    tag_55:\n      mload(0x40)\n      dup1\n      swap2\n      sub\n      swap1\n      return\n        /* \"contracts/Hairdressing.sol\":5903:6633  function createBooking(uint _date, uint _serviceId) external serviceExists(_serviceId) {... */\n    tag_11:\n      tag_56\n      0x04\n      dup1\n      calldatasize\n      sub\n      dup2\n      add\n      swap1\n      tag_57\n      swap2\n      swap1\n      tag_58\n      jump\t// in\n    tag_57:\n      tag_59\n      jump\t// in\n    tag_56:\n      stop\n        /* \"contracts/Hairdressing.sol\":4609:5426  function createService(string calldata _name, string calldata _description, uint _price, uint _duration, uint[] calldata _productIds) external onlyAdmin() {... */\n    tag_12:\n      tag_60\n      0x04\n      dup1\n      calldatasize\n      sub\n      dup2\n      add\n      swap1\n      tag_61\n      swap2\n      swap1\n      tag_62\n      jump\t// in\n    tag_61:\n      tag_63\n      jump\t// in\n    tag_60:\n      stop\n        /* \"contracts/Hairdressing.sol\":1004:1029  uint[] public serviceList */\n    tag_13:\n      tag_64\n      0x04\n      dup1\n      calldatasize\n      sub\n      dup2\n      add\n      swap1\n      tag_65\n      swap2\n      swap1\n      tag_24\n      jump\t// in\n    tag_65:\n      tag_66\n      jump\t// in\n    tag_64:\n      mload(0x40)\n      tag_67\n      swap2\n      swap1\n      tag_35\n      jump\t// in\n    tag_67:\n      mload(0x40)\n      dup1\n      swap2\n      sub\n      swap1\n      return\n        /* \"contracts/Hairdressing.sol\":858:898  mapping(uint => Service) public services */\n    tag_14:\n      tag_68\n      0x04\n      dup1\n      calldatasize\n      sub\n      dup2\n      add\n      swap1\n      tag_69\n      swap2\n      swap1\n      tag_24\n      jump\t// in\n    tag_69:\n      tag_70\n      jump\t// in\n    tag_68:\n      mload(0x40)\n      tag_71\n      swap6\n      swap5\n      swap4\n      swap3\n      swap2\n      swap1\n      tag_47\n      jump\t// in\n    tag_71:\n      mload(0x40)\n      dup1\n      swap2\n      sub\n      swap1\n      return\n        /* \"contracts/Hairdressing.sol\":7817:8578  function getProducts() external view returns (Product[] memory) {... */\n    tag_15:\n      tag_72\n      tag_73\n      jump\t// in\n    tag_72:\n      mload(0x40)\n      tag_74\n      swap2\n      swap1\n      tag_75\n      jump\t// in\n    tag_74:\n      mload(0x40)\n      dup1\n      swap2\n      sub\n      swap1\n      return\n        /* \"contracts/Hairdressing.sol\":4074:4225  function deleteProduct(uint _productId) external onlyAdmin() productExists(_productId) {... */\n    tag_16:\n      tag_76\n      0x04\n      dup1\n      calldatasize\n      sub\n      dup2\n      add\n      swap1\n      tag_77\n      swap2\n      swap1\n      tag_24\n      jump\t// in\n    tag_77:\n      tag_78\n      jump\t// in\n    tag_76:\n      stop\n        /* \"contracts/Hairdressing.sol\":8672:9093  function getUserBookings(address _client) external view returns (Booking[] memory) {... */\n    tag_17:\n      tag_79\n      0x04\n      dup1\n      calldatasize\n      sub\n      dup2\n      add\n      swap1\n      tag_80\n      swap2\n      swap1\n      tag_81\n      jump\t// in\n    tag_80:\n      tag_82\n      jump\t// in\n    tag_79:\n      mload(0x40)\n      tag_83\n      swap2\n      swap1\n      tag_84\n      jump\t// in\n    tag_83:\n      mload(0x40)\n      dup1\n      swap2\n      sub\n      swap1\n      return\n        /* \"contracts/Hairdressing.sol\":440:460  address public admin */\n    tag_18:\n      tag_85\n      tag_86\n      jump\t// in\n    tag_85:\n      mload(0x40)\n      tag_87\n      swap2\n      swap1\n      tag_88\n      jump\t// in\n    tag_87:\n      mload(0x40)\n      dup1\n      swap2\n      sub\n      swap1\n      return\n        /* \"contracts/Hairdressing.sol\":1750:1790  mapping(uint => Booking) public bookings */\n    tag_25:\n      mstore(0x20, 0x07)\n      dup1\n      0x00\n      mstore\n      keccak256(0x00, 0x40)\n      0x00\n      swap2\n      pop\n      swap1\n      pop\n      dup1\n      0x00\n      add\n      sload\n      swap1\n      dup1\n      0x01\n      add\n      sload\n      swap1\n      dup1\n      0x02\n      add\n      sload\n      swap1\n      dup1\n      0x03\n      add\n      0x00\n      swap1\n      sload\n      swap1\n      0x0100\n      exp\n      swap1\n      div\n      0xffffffffffffffffffffffffffffffffffffffff\n      and\n      swap1\n      pop\n      dup5\n      jump\t// out\n        /* \"contracts/Hairdressing.sol\":6770:6860  function deleteBooking(uint _bookingId) external bookingExists(_bookingId) {... */\n    tag_30:\n        /* \"contracts/Hairdressing.sol\":6833:6843  _bookingId */\n      dup1\n        /* \"contracts/Hairdressing.sol\":3085:3086  0 */\n      0x00\n        /* \"contracts/Hairdressing.sol\":3072:3082  _bookingId */\n      dup2\n        /* \"contracts/Hairdressing.sol\":3072:3086  _bookingId > 0 */\n      gt\n        /* \"contracts/Hairdressing.sol\":3072:3116  _bookingId > 0 && _bookingId < nextBookingId */\n      dup1\n      iszero\n      tag_90\n      jumpi\n      pop\n        /* \"contracts/Hairdressing.sol\":3103:3116  nextBookingId */\n      sload(0x09)\n        /* \"contracts/Hairdressing.sol\":3090:3100  _bookingId */\n      dup2\n        /* \"contracts/Hairdressing.sol\":3090:3116  _bookingId < nextBookingId */\n      lt\n        /* \"contracts/Hairdressing.sol\":3072:3116  _bookingId > 0 && _bookingId < nextBookingId */\n    tag_90:\n        /* \"contracts/Hairdressing.sol\":3051:3164  require(... */\n      tag_91\n      jumpi\n      mload(0x40)\n      0x08c379a000000000000000000000000000000000000000000000000000000000\n      dup2\n      mstore\n      0x04\n      add\n      tag_92\n      swap1\n      tag_93\n      jump\t// in\n    tag_92:\n      mload(0x40)\n      dup1\n      swap2\n      sub\n      swap1\n      revert\n    tag_91:\n        /* \"contracts/Hairdressing.sol\":6770:6860  function deleteBooking(uint _bookingId) external bookingExists(_bookingId) {... */\n      pop\n      pop\n      jump\t// out\n        /* \"contracts/Hairdressing.sol\":1463:1488  uint[] public productList */\n    tag_33:\n      0x05\n      dup2\n      dup2\n      sload\n      dup2\n      lt\n      tag_95\n      jumpi\n      0x00\n      dup1\n      revert\n    tag_95:\n      swap1\n      0x00\n      mstore\n      keccak256(0x00, 0x20)\n      add\n      0x00\n      swap2\n      pop\n      swap1\n      pop\n      sload\n      dup2\n      jump\t// out\n        /* \"contracts/Hairdressing.sol\":5563:5722  function deleteService(uint _serviceId) external onlyAdmin() serviceExists(_serviceId) {... */\n    tag_38:\n        /* \"contracts/Hairdressing.sol\":2351:2356  admin */\n      0x00\n      dup1\n      sload\n      swap1\n      0x0100\n      exp\n      swap1\n      div\n      0xffffffffffffffffffffffffffffffffffffffff\n      and\n        /* \"contracts/Hairdressing.sol\":2337:2356  msg.sender == admin */\n      0xffffffffffffffffffffffffffffffffffffffff\n      and\n        /* \"contracts/Hairdressing.sol\":2337:2347  msg.sender */\n      caller\n        /* \"contracts/Hairdressing.sol\":2337:2356  msg.sender == admin */\n      0xffffffffffffffffffffffffffffffffffffffff\n      and\n      eq\n        /* \"contracts/Hairdressing.sol\":2329:2371  require(msg.sender == admin, \"Only admin\") */\n      tag_98\n      jumpi\n      mload(0x40)\n      0x08c379a000000000000000000000000000000000000000000000000000000000\n      dup2\n      mstore\n      0x04\n      add\n      tag_99\n      swap1\n      tag_100\n      jump\t// in\n    tag_99:\n      mload(0x40)\n      dup1\n      swap2\n      sub\n      swap1\n      revert\n    tag_98:\n        /* \"contracts/Hairdressing.sol\":5638:5648  _serviceId */\n      dup1\n        /* \"contracts/Hairdressing.sol\":2556:2557  0 */\n      0x00\n        /* \"contracts/Hairdressing.sol\":2543:2553  _serviceId */\n      dup2\n        /* \"contracts/Hairdressing.sol\":2543:2557  _serviceId > 0 */\n      gt\n        /* \"contracts/Hairdressing.sol\":2543:2587  _serviceId > 0 && _serviceId < nextServiceId */\n      dup1\n      iszero\n      tag_102\n      jumpi\n      pop\n        /* \"contracts/Hairdressing.sol\":2574:2587  nextServiceId */\n      sload(0x03)\n        /* \"contracts/Hairdressing.sol\":2561:2571  _serviceId */\n      dup2\n        /* \"contracts/Hairdressing.sol\":2561:2587  _serviceId < nextServiceId */\n      lt\n        /* \"contracts/Hairdressing.sol\":2543:2587  _serviceId > 0 && _serviceId < nextServiceId */\n    tag_102:\n        /* \"contracts/Hairdressing.sol\":2522:2635  require(... */\n      tag_103\n      jumpi\n      mload(0x40)\n      0x08c379a000000000000000000000000000000000000000000000000000000000\n      dup2\n      mstore\n      0x04\n      add\n      tag_104\n      swap1\n      tag_105\n      jump\t// in\n    tag_104:\n      mload(0x40)\n      dup1\n      swap2\n      sub\n      swap1\n      revert\n    tag_103:\n        /* \"contracts/Hairdressing.sol\":2381:2382  _ */\n      pop\n        /* \"contracts/Hairdressing.sol\":5563:5722  function deleteService(uint _serviceId) external onlyAdmin() serviceExists(_serviceId) {... */\n      pop\n      jump\t// out\n        /* \"contracts/Hairdressing.sol\":6961:7768  function getServices() external view returns (Service[] memory) {... */\n    tag_40:\n        /* \"contracts/Hairdressing.sol\":7007:7023  Service[] memory */\n      0x60\n        /* \"contracts/Hairdressing.sol\":7035:7064  Service[] memory _allServices */\n      0x00\n        /* \"contracts/Hairdressing.sol\":7097:7098  1 */\n      0x01\n        /* \"contracts/Hairdressing.sol\":7081:7094  nextServiceId */\n      sload(0x03)\n        /* \"contracts/Hairdressing.sol\":7081:7098  nextServiceId - 1 */\n      tag_108\n      swap2\n      swap1\n      tag_109\n      jump\t// in\n    tag_108:\n        /* \"contracts/Hairdressing.sol\":7067:7099  new Service[](nextServiceId - 1) */\n      0xffffffffffffffff\n      dup2\n      gt\n      iszero\n      tag_110\n      jumpi\n      tag_111\n      tag_112\n      jump\t// in\n    tag_111:\n    tag_110:\n      mload(0x40)\n      swap1\n      dup1\n      dup3\n      mstore\n      dup1\n      0x20\n      mul\n      0x20\n      add\n      dup3\n      add\n      0x40\n      mstore\n      dup1\n      iszero\n      tag_113\n      jumpi\n      dup2\n      0x20\n      add\n    tag_114:\n      tag_115\n      tag_116\n      jump\t// in\n    tag_115:\n      dup2\n      mstore\n      0x20\n      add\n      swap1\n      0x01\n      swap1\n      sub\n      swap1\n      dup2\n      tag_114\n      jumpi\n      swap1\n      pop\n    tag_113:\n      pop\n        /* \"contracts/Hairdressing.sol\":7035:7099  Service[] memory _allServices = new Service[](nextServiceId - 1) */\n      swap1\n      pop\n        /* \"contracts/Hairdressing.sol\":7115:7121  uint i */\n      0x00\n        /* \"contracts/Hairdressing.sol\":7124:7125  1 */\n      0x01\n        /* \"contracts/Hairdressing.sol\":7115:7125  uint i = 1 */\n      swap1\n      pop\n        /* \"contracts/Hairdressing.sol\":7110:7209  for (uint i = 1; i < nextServiceId; i++) {... */\n    tag_117:\n        /* \"contracts/Hairdressing.sol\":7131:7144  nextServiceId */\n      sload(0x03)\n        /* \"contracts/Hairdressing.sol\":7127:7128  i */\n      dup2\n        /* \"contracts/Hairdressing.sol\":7127:7144  i < nextServiceId */\n      lt\n        /* \"contracts/Hairdressing.sol\":7110:7209  for (uint i = 1; i < nextServiceId; i++) {... */\n      iszero\n      tag_118\n      jumpi\n        /* \"contracts/Hairdressing.sol\":7187:7195  services */\n      0x01\n        /* \"contracts/Hairdressing.sol\":7187:7198  services[i] */\n      0x00\n        /* \"contracts/Hairdressing.sol\":7196:7197  i */\n      dup3\n        /* \"contracts/Hairdressing.sol\":7187:7198  services[i] */\n      dup2\n      mstore\n      0x20\n      add\n      swap1\n      dup2\n      mstore\n      0x20\n      add\n      0x00\n      keccak256\n        /* \"contracts/Hairdressing.sol\":7165:7198  _allServices[i - 1] = services[i] */\n      mload(0x40)\n      dup1\n      0xc0\n      add\n      0x40\n      mstore\n      swap1\n      dup2\n      0x00\n      dup3\n      add\n      sload\n      dup2\n      mstore\n      0x20\n      add\n      0x01\n      dup3\n      add\n      dup1\n      sload\n      tag_120\n      swap1\n      tag_121\n      jump\t// in\n    tag_120:\n      dup1\n      0x1f\n      add\n      0x20\n      dup1\n      swap2\n      div\n      mul\n      0x20\n      add\n      mload(0x40)\n      swap1\n      dup2\n      add\n      0x40\n      mstore\n      dup1\n      swap3\n      swap2\n      swap1\n      dup2\n      dup2\n      mstore\n      0x20\n      add\n      dup3\n      dup1\n      sload\n      tag_122\n      swap1\n      tag_121\n      jump\t// in\n    tag_122:\n      dup1\n      iszero\n      tag_123\n      jumpi\n      dup1\n      0x1f\n      lt\n      tag_124\n      jumpi\n      0x0100\n      dup1\n      dup4\n      sload\n      div\n      mul\n      dup4\n      mstore\n      swap2\n      0x20\n      add\n      swap2\n      jump(tag_123)\n    tag_124:\n      dup3\n      add\n      swap2\n      swap1\n      0x00\n      mstore\n      keccak256(0x00, 0x20)\n      swap1\n    tag_125:\n      dup2\n      sload\n      dup2\n      mstore\n      swap1\n      0x01\n      add\n      swap1\n      0x20\n      add\n      dup1\n      dup4\n      gt\n      tag_125\n      jumpi\n      dup3\n      swap1\n      sub\n      0x1f\n      and\n      dup3\n      add\n      swap2\n    tag_123:\n      pop\n      pop\n      pop\n      pop\n      pop\n      dup2\n      mstore\n      0x20\n      add\n      0x02\n      dup3\n      add\n      dup1\n      sload\n      tag_126\n      swap1\n      tag_121\n      jump\t// in\n    tag_126:\n      dup1\n      0x1f\n      add\n      0x20\n      dup1\n      swap2\n      div\n      mul\n      0x20\n      add\n      mload(0x40)\n      swap1\n      dup2\n      add\n      0x40\n      mstore\n      dup1\n      swap3\n      swap2\n      swap1\n      dup2\n      dup2\n      mstore\n      0x20\n      add\n      dup3\n      dup1\n      sload\n      tag_127\n      swap1\n      tag_121\n      jump\t// in\n    tag_127:\n      dup1\n      iszero\n      tag_128\n      jumpi\n      dup1\n      0x1f\n      lt\n      tag_129\n      jumpi\n      0x0100\n      dup1\n      dup4\n      sload\n      div\n      mul\n      dup4\n      mstore\n      swap2\n      0x20\n      add\n      swap2\n      jump(tag_128)\n    tag_129:\n      dup3\n      add\n      swap2\n      swap1\n      0x00\n      mstore\n      keccak256(0x00, 0x20)\n      swap1\n    tag_130:\n      dup2\n      sload\n      dup2\n      mstore\n      swap1\n      0x01\n      add\n      swap1\n      0x20\n      add\n      dup1\n      dup4\n      gt\n      tag_130\n      jumpi\n      dup3\n      swap1\n      sub\n      0x1f\n      and\n      dup3\n      add\n      swap2\n    tag_128:\n      pop\n      pop\n      pop\n      pop\n      pop\n      dup2\n      mstore\n      0x20\n      add\n      0x03\n      dup3\n      add\n      sload\n      dup2\n      mstore\n      0x20\n      add\n      0x04\n      dup3\n      add\n      sload\n      dup2\n      mstore\n      0x20\n      add\n      0x05\n      dup3\n      add\n      dup1\n      sload\n      dup1\n      0x20\n      mul\n      0x20\n      add\n      mload(0x40)\n      swap1\n      dup2\n      add\n      0x40\n      mstore\n      dup1\n      swap3\n      swap2\n      swap1\n      dup2\n      dup2\n      mstore\n      0x20\n      add\n      dup3\n      dup1\n      sload\n      dup1\n      iszero\n      tag_131\n      jumpi\n      0x20\n      mul\n      dup3\n      add\n      swap2\n      swap1\n      0x00\n      mstore\n      keccak256(0x00, 0x20)\n      swap1\n    tag_132:\n      dup2\n      sload\n      dup2\n      mstore\n      0x20\n      add\n      swap1\n      0x01\n      add\n      swap1\n      dup1\n      dup4\n      gt\n      tag_132\n      jumpi\n    tag_131:\n      pop\n      pop\n      pop\n      pop\n      pop\n      dup2\n      mstore\n      pop\n      pop\n        /* \"contracts/Hairdressing.sol\":7165:7177  _allServices */\n      dup3\n        /* \"contracts/Hairdressing.sol\":7182:7183  1 */\n      0x01\n        /* \"contracts/Hairdressing.sol\":7178:7179  i */\n      dup4\n        /* \"contracts/Hairdressing.sol\":7178:7183  i - 1 */\n      tag_133\n      swap2\n      swap1\n      tag_109\n      jump\t// in\n    tag_133:\n        /* \"contracts/Hairdressing.sol\":7165:7184  _allServices[i - 1] */\n      dup2\n      mload\n      dup2\n      lt\n      tag_134\n      jumpi\n      tag_135\n      tag_136\n      jump\t// in\n    tag_135:\n    tag_134:\n      0x20\n      mul\n      0x20\n      add\n      add\n        /* \"contracts/Hairdressing.sol\":7165:7198  _allServices[i - 1] = services[i] */\n      dup2\n      swap1\n      mstore\n      pop\n        /* \"contracts/Hairdressing.sol\":7146:7149  i++ */\n      dup1\n      dup1\n      tag_137\n      swap1\n      tag_138\n      jump\t// in\n    tag_137:\n      swap2\n      pop\n      pop\n        /* \"contracts/Hairdressing.sol\":7110:7209  for (uint i = 1; i < nextServiceId; i++) {... */\n      jump(tag_117)\n    tag_118:\n      pop\n        /* \"contracts/Hairdressing.sol\":7749:7761  _allServices */\n      dup1\n        /* \"contracts/Hairdressing.sol\":7742:7761  return _allServices */\n      swap2\n      pop\n      pop\n        /* \"contracts/Hairdressing.sol\":6961:7768  function getServices() external view returns (Service[] memory) {... */\n      swap1\n      jump\t// out\n        /* \"contracts/Hairdressing.sol\":1318:1358  mapping(uint => Product) public products */\n    tag_45:\n      mstore(0x20, 0x04)\n      dup1\n      0x00\n      mstore\n      keccak256(0x00, 0x40)\n      0x00\n      swap2\n      pop\n      swap1\n      pop\n      dup1\n      0x00\n      add\n      sload\n      swap1\n      dup1\n      0x01\n      add\n      dup1\n      sload\n      tag_139\n      swap1\n      tag_121\n      jump\t// in\n    tag_139:\n      dup1\n      0x1f\n      add\n      0x20\n      dup1\n      swap2\n      div\n      mul\n      0x20\n      add\n      mload(0x40)\n      swap1\n      dup2\n      add\n      0x40\n      mstore\n      dup1\n      swap3\n      swap2\n      swap1\n      dup2\n      dup2\n      mstore\n      0x20\n      add\n      dup3\n      dup1\n      sload\n      tag_140\n      swap1\n      tag_121\n      jump\t// in\n    tag_140:\n      dup1\n      iszero\n      tag_141\n      jumpi\n      dup1\n      0x1f\n      lt\n      tag_142\n      jumpi\n      0x0100\n      dup1\n      dup4\n      sload\n      div\n      mul\n      dup4\n      mstore\n      swap2\n      0x20\n      add\n      swap2\n      jump(tag_141)\n    tag_142:\n      dup3\n      add\n      swap2\n      swap1\n      0x00\n      mstore\n      keccak256(0x00, 0x20)\n      swap1\n    tag_143:\n      dup2\n      sload\n      dup2\n      mstore\n      swap1\n      0x01\n      add\n      swap1\n      0x20\n      add\n      dup1\n      dup4\n      gt\n      tag_143\n      jumpi\n      dup3\n      swap1\n      sub\n      0x1f\n      and\n      dup3\n      add\n      swap2\n    tag_141:\n      pop\n      pop\n      pop\n      pop\n      pop\n      swap1\n      dup1\n      0x02\n      add\n      dup1\n      sload\n      tag_144\n      swap1\n      tag_121\n      jump\t// in\n    tag_144:\n      dup1\n      0x1f\n      add\n      0x20\n      dup1\n      swap2\n      div\n      mul\n      0x20\n      add\n      mload(0x40)\n      swap1\n      dup2\n      add\n      0x40\n      mstore\n      dup1\n      swap3\n      swap2\n      swap1\n      dup2\n      dup2\n      mstore\n      0x20\n      add\n      dup3\n      dup1\n      sload\n      tag_145\n      swap1\n      tag_121\n      jump\t// in\n    tag_145:\n      dup1\n      iszero\n      tag_146\n      jumpi\n      dup1\n      0x1f\n      lt\n      tag_147\n      jumpi\n      0x0100\n      dup1\n      dup4\n      sload\n      div\n      mul\n      dup4\n      mstore\n      swap2\n      0x20\n      add\n      swap2\n      jump(tag_146)\n    tag_147:\n      dup3\n      add\n      swap2\n      swap1\n      0x00\n      mstore\n      keccak256(0x00, 0x20)\n      swap1\n    tag_148:\n      dup2\n      sload\n      dup2\n      mstore\n      swap1\n      0x01\n      add\n      swap1\n      0x20\n      add\n      dup1\n      dup4\n      gt\n      tag_148\n      jumpi\n      dup3\n      swap1\n      sub\n      0x1f\n      and\n      dup3\n      add\n      swap2\n    tag_146:\n      pop\n      pop\n      pop\n      pop\n      pop\n      swap1\n      dup1\n      0x03\n      add\n      sload\n      swap1\n      dup1\n      0x04\n      add\n      sload\n      swap1\n      pop\n      dup6\n      jump\t// out\n        /* \"contracts/Hairdressing.sol\":3491:3937  function createProduct(string calldata _name, string calldata _description, uint _price, uint _durability) external onlyAdmin() {... */\n    tag_51:\n        /* \"contracts/Hairdressing.sol\":2351:2356  admin */\n      0x00\n      dup1\n      sload\n      swap1\n      0x0100\n      exp\n      swap1\n      div\n      0xffffffffffffffffffffffffffffffffffffffff\n      and\n        /* \"contracts/Hairdressing.sol\":2337:2356  msg.sender == admin */\n      0xffffffffffffffffffffffffffffffffffffffff\n      and\n        /* \"contracts/Hairdressing.sol\":2337:2347  msg.sender */\n      caller\n        /* \"contracts/Hairdressing.sol\":2337:2356  msg.sender == admin */\n      0xffffffffffffffffffffffffffffffffffffffff\n      and\n      eq\n        /* \"contracts/Hairdressing.sol\":2329:2371  require(msg.sender == admin, \"Only admin\") */\n      tag_150\n      jumpi\n      mload(0x40)\n      0x08c379a000000000000000000000000000000000000000000000000000000000\n      dup2\n      mstore\n      0x04\n      add\n      tag_151\n      swap1\n      tag_100\n      jump\t// in\n    tag_151:\n      mload(0x40)\n      dup1\n      swap2\n      sub\n      swap1\n      revert\n    tag_150:\n        /* \"contracts/Hairdressing.sol\":3655:3789  Product(... */\n      mload(0x40)\n      dup1\n      0xa0\n      add\n      0x40\n      mstore\n      dup1\n        /* \"contracts/Hairdressing.sol\":3676:3689  nextProductId */\n      sload(0x06)\n        /* \"contracts/Hairdressing.sol\":3655:3789  Product(... */\n      dup2\n      mstore\n      0x20\n      add\n        /* \"contracts/Hairdressing.sol\":3703:3708  _name */\n      dup8\n      dup8\n        /* \"contracts/Hairdressing.sol\":3655:3789  Product(... */\n      dup1\n      dup1\n      0x1f\n      add\n      0x20\n      dup1\n      swap2\n      div\n      mul\n      0x20\n      add\n      mload(0x40)\n      swap1\n      dup2\n      add\n      0x40\n      mstore\n      dup1\n      swap4\n      swap3\n      swap2\n      swap1\n      dup2\n      dup2\n      mstore\n      0x20\n      add\n      dup4\n      dup4\n      dup1\n      dup3\n      dup5\n      calldatacopy\n      0x00\n      dup2\n      dup5\n      add\n      mstore\n      not(0x1f)\n      0x1f\n      dup3\n      add\n      and\n      swap1\n      pop\n      dup1\n      dup4\n      add\n      swap3\n      pop\n      pop\n      pop\n      pop\n      pop\n      pop\n      pop\n      dup2\n      mstore\n      0x20\n      add\n        /* \"contracts/Hairdressing.sol\":3722:3734  _description */\n      dup6\n      dup6\n        /* \"contracts/Hairdressing.sol\":3655:3789  Product(... */\n      dup1\n      dup1\n      0x1f\n      add\n      0x20\n      dup1\n      swap2\n      div\n      mul\n      0x20\n      add\n      mload(0x40)\n      swap1\n      dup2\n      add\n      0x40\n      mstore\n      dup1\n      swap4\n      swap3\n      swap2\n      swap1\n      dup2\n      dup2\n      mstore\n      0x20\n      add\n      dup4\n      dup4\n      dup1\n      dup3\n      dup5\n      calldatacopy\n      0x00\n      dup2\n      dup5\n      add\n      mstore\n      not(0x1f)\n      0x1f\n      dup3\n      add\n      and\n      swap1\n      pop\n      dup1\n      dup4\n      add\n      swap3\n      pop\n      pop\n      pop\n      pop\n      pop\n      pop\n      pop\n      dup2\n      mstore\n      0x20\n      add\n        /* \"contracts/Hairdressing.sol\":3748:3754  _price */\n      dup4\n        /* \"contracts/Hairdressing.sol\":3655:3789  Product(... */\n      dup2\n      mstore\n      0x20\n      add\n        /* \"contracts/Hairdressing.sol\":3768:3779  _durability */\n      dup3\n        /* \"contracts/Hairdressing.sol\":3655:3789  Product(... */\n      dup2\n      mstore\n      pop\n        /* \"contracts/Hairdressing.sol\":3629:3637  products */\n      0x04\n        /* \"contracts/Hairdressing.sol\":3629:3652  products[nextProductId] */\n      0x00\n        /* \"contracts/Hairdressing.sol\":3638:3651  nextProductId */\n      sload(0x06)\n        /* \"contracts/Hairdressing.sol\":3629:3652  products[nextProductId] */\n      dup2\n      mstore\n      0x20\n      add\n      swap1\n      dup2\n      mstore\n      0x20\n      add\n      0x00\n      keccak256\n        /* \"contracts/Hairdressing.sol\":3629:3789  products[nextProductId] = Product(... */\n      0x00\n      dup3\n      add\n      mload\n      dup2\n      0x00\n      add\n      sstore\n      0x20\n      dup3\n      add\n      mload\n      dup2\n      0x01\n      add\n      swap1\n      dup2\n      tag_153\n      swap2\n      swap1\n      tag_154\n      jump\t// in\n    tag_153:\n      pop\n      0x40\n      dup3\n      add\n      mload\n      dup2\n      0x02\n      add\n      swap1\n      dup2\n      tag_155\n      swap2\n      swap1\n      tag_154\n      jump\t// in\n    tag_155:\n      pop\n      0x60\n      dup3\n      add\n      mload\n      dup2\n      0x03\n      add\n      sstore\n      0x80\n      dup3\n      add\n      mload\n      dup2\n      0x04\n      add\n      sstore\n      swap1\n      pop\n      pop\n        /* \"contracts/Hairdressing.sol\":3832:3843  productList */\n      0x05\n        /* \"contracts/Hairdressing.sol\":3849:3862  nextProductId */\n      sload(0x06)\n        /* \"contracts/Hairdressing.sol\":3832:3863  productList.push(nextProductId) */\n      swap1\n      dup1\n      0x01\n      dup2\n      sload\n      add\n      dup1\n      dup3\n      sstore\n      dup1\n      swap2\n      pop\n      pop\n      0x01\n      swap1\n      sub\n      swap1\n      0x00\n      mstore\n      keccak256(0x00, 0x20)\n      add\n      0x00\n      swap1\n      swap2\n      swap1\n      swap2\n      swap1\n      swap2\n      pop\n      sstore\n        /* \"contracts/Hairdressing.sol\":3915:3928  nextProductId */\n      0x06\n      0x00\n        /* \"contracts/Hairdressing.sol\":3915:3930  nextProductId++ */\n      dup2\n      sload\n      dup1\n      swap3\n      swap2\n      swap1\n      tag_157\n      swap1\n      tag_138\n      jump\t// in\n    tag_157:\n      swap2\n      swap1\n      pop\n      sstore\n      pop\n        /* \"contracts/Hairdressing.sol\":3491:3937  function createProduct(string calldata _name, string calldata _description, uint _price, uint _durability) external onlyAdmin() {... */\n      pop\n      pop\n      pop\n      pop\n      pop\n      pop\n      jump\t// out\n        /* \"contracts/Hairdressing.sol\":1895:1920  uint[] public bookingList */\n    tag_54:\n      0x08\n      dup2\n      dup2\n      sload\n      dup2\n      lt\n      tag_158\n      jumpi\n      0x00\n      dup1\n      revert\n    tag_158:\n      swap1\n      0x00\n      mstore\n      keccak256(0x00, 0x20)\n      add\n      0x00\n      swap2\n      pop\n      swap1\n      pop\n      sload\n      dup2\n      jump\t// out\n        /* \"contracts/Hairdressing.sol\":5903:6633  function createBooking(uint _date, uint _serviceId) external serviceExists(_serviceId) {... */\n    tag_59:\n        /* \"contracts/Hairdressing.sol\":5978:5988  _serviceId */\n      dup1\n        /* \"contracts/Hairdressing.sol\":2556:2557  0 */\n      0x00\n        /* \"contracts/Hairdressing.sol\":2543:2553  _serviceId */\n      dup2\n        /* \"contracts/Hairdressing.sol\":2543:2557  _serviceId > 0 */\n      gt\n        /* \"contracts/Hairdressing.sol\":2543:2587  _serviceId > 0 && _serviceId < nextServiceId */\n      dup1\n      iszero\n      tag_161\n      jumpi\n      pop\n        /* \"contracts/Hairdressing.sol\":2574:2587  nextServiceId */\n      sload(0x03)\n        /* \"contracts/Hairdressing.sol\":2561:2571  _serviceId */\n      dup2\n        /* \"contracts/Hairdressing.sol\":2561:2587  _serviceId < nextServiceId */\n      lt\n        /* \"contracts/Hairdressing.sol\":2543:2587  _serviceId > 0 && _serviceId < nextServiceId */\n    tag_161:\n        /* \"contracts/Hairdressing.sol\":2522:2635  require(... */\n      tag_162\n      jumpi\n      mload(0x40)\n      0x08c379a000000000000000000000000000000000000000000000000000000000\n      dup2\n      mstore\n      0x04\n      add\n      tag_163\n      swap1\n      tag_105\n      jump\t// in\n    tag_163:\n      mload(0x40)\n      dup1\n      swap2\n      sub\n      swap1\n      revert\n    tag_162:\n        /* \"contracts/Hairdressing.sol\":6265:6377  Booking(... */\n      mload(0x40)\n      dup1\n      0x80\n      add\n      0x40\n      mstore\n      dup1\n        /* \"contracts/Hairdressing.sol\":6286:6299  nextBookingId */\n      sload(0x09)\n        /* \"contracts/Hairdressing.sol\":6265:6377  Booking(... */\n      dup2\n      mstore\n      0x20\n      add\n        /* \"contracts/Hairdressing.sol\":6313:6318  _date */\n      dup5\n        /* \"contracts/Hairdressing.sol\":6265:6377  Booking(... */\n      dup2\n      mstore\n      0x20\n      add\n        /* \"contracts/Hairdressing.sol\":6333:6343  _serviceId */\n      dup4\n        /* \"contracts/Hairdressing.sol\":6265:6377  Booking(... */\n      dup2\n      mstore\n      0x20\n      add\n        /* \"contracts/Hairdressing.sol\":6357:6367  msg.sender */\n      caller\n        /* \"contracts/Hairdressing.sol\":6265:6377  Booking(... */\n      0xffffffffffffffffffffffffffffffffffffffff\n      and\n      dup2\n      mstore\n      pop\n        /* \"contracts/Hairdressing.sol\":6239:6247  bookings */\n      0x07\n        /* \"contracts/Hairdressing.sol\":6239:6262  bookings[nextBookingId] */\n      0x00\n        /* \"contracts/Hairdressing.sol\":6248:6261  nextBookingId */\n      sload(0x09)\n        /* \"contracts/Hairdressing.sol\":6239:6262  bookings[nextBookingId] */\n      dup2\n      mstore\n      0x20\n      add\n      swap1\n      dup2\n      mstore\n      0x20\n      add\n      0x00\n      keccak256\n        /* \"contracts/Hairdressing.sol\":6239:6377  bookings[nextBookingId] = Booking(... */\n      0x00\n      dup3\n      add\n      mload\n      dup2\n      0x00\n      add\n      sstore\n      0x20\n      dup3\n      add\n      mload\n      dup2\n      0x01\n      add\n      sstore\n      0x40\n      dup3\n      add\n      mload\n      dup2\n      0x02\n      add\n      sstore\n      0x60\n      dup3\n      add\n      mload\n      dup2\n      0x03\n      add\n      exp(0x0100, 0x00)\n      dup2\n      sload\n      dup2\n      0xffffffffffffffffffffffffffffffffffffffff\n      mul\n      not\n      and\n      swap1\n      dup4\n      0xffffffffffffffffffffffffffffffffffffffff\n      and\n      mul\n      or\n      swap1\n      sstore\n      pop\n      swap1\n      pop\n      pop\n        /* \"contracts/Hairdressing.sol\":6528:6539  bookingList */\n      0x08\n        /* \"contracts/Hairdressing.sol\":6545:6558  nextBookingId */\n      sload(0x09)\n        /* \"contracts/Hairdressing.sol\":6528:6559  bookingList.push(nextBookingId) */\n      swap1\n      dup1\n      0x01\n      dup2\n      sload\n      add\n      dup1\n      dup3\n      sstore\n      dup1\n      swap2\n      pop\n      pop\n      0x01\n      swap1\n      sub\n      swap1\n      0x00\n      mstore\n      keccak256(0x00, 0x20)\n      add\n      0x00\n      swap1\n      swap2\n      swap1\n      swap2\n      swap1\n      swap2\n      pop\n      sstore\n        /* \"contracts/Hairdressing.sol\":6611:6624  nextBookingId */\n      0x09\n      0x00\n        /* \"contracts/Hairdressing.sol\":6611:6626  nextBookingId++ */\n      dup2\n      sload\n      dup1\n      swap3\n      swap2\n      swap1\n      tag_166\n      swap1\n      tag_138\n      jump\t// in\n    tag_166:\n      swap2\n      swap1\n      pop\n      sstore\n      pop\n        /* \"contracts/Hairdressing.sol\":5903:6633  function createBooking(uint _date, uint _serviceId) external serviceExists(_serviceId) {... */\n      pop\n      pop\n      pop\n      jump\t// out\n        /* \"contracts/Hairdressing.sol\":4609:5426  function createService(string calldata _name, string calldata _description, uint _price, uint _duration, uint[] calldata _productIds) external onlyAdmin() {... */\n    tag_63:\n        /* \"contracts/Hairdressing.sol\":2351:2356  admin */\n      0x00\n      dup1\n      sload\n      swap1\n      0x0100\n      exp\n      swap1\n      div\n      0xffffffffffffffffffffffffffffffffffffffff\n      and\n        /* \"contracts/Hairdressing.sol\":2337:2356  msg.sender == admin */\n      0xffffffffffffffffffffffffffffffffffffffff\n      and\n        /* \"contracts/Hairdressing.sol\":2337:2347  msg.sender */\n      caller\n        /* \"contracts/Hairdressing.sol\":2337:2356  msg.sender == admin */\n      0xffffffffffffffffffffffffffffffffffffffff\n      and\n      eq\n        /* \"contracts/Hairdressing.sol\":2329:2371  require(msg.sender == admin, \"Only admin\") */\n      tag_168\n      jumpi\n      mload(0x40)\n      0x08c379a000000000000000000000000000000000000000000000000000000000\n      dup2\n      mstore\n      0x04\n      add\n      tag_169\n      swap1\n      tag_100\n      jump\t// in\n    tag_169:\n      mload(0x40)\n      dup1\n      swap2\n      sub\n      swap1\n      revert\n    tag_168:\n        /* \"contracts/Hairdressing.sol\":4868:4877  5 minutes */\n      0x012c\n        /* \"contracts/Hairdressing.sol\":4855:4864  _duration */\n      dup4\n        /* \"contracts/Hairdressing.sol\":4855:4877  _duration >= 5 minutes */\n      lt\n      iszero\n        /* \"contracts/Hairdressing.sol\":4855:4901  _duration >= 5 minutes && _duration <= 2 hours */\n      dup1\n      iszero\n      tag_171\n      jumpi\n      pop\n        /* \"contracts/Hairdressing.sol\":4894:4901  2 hours */\n      0x1c20\n        /* \"contracts/Hairdressing.sol\":4881:4890  _duration */\n      dup4\n        /* \"contracts/Hairdressing.sol\":4881:4901  _duration <= 2 hours */\n      gt\n      iszero\n        /* \"contracts/Hairdressing.sol\":4855:4901  _duration >= 5 minutes && _duration <= 2 hours */\n    tag_171:\n        /* \"contracts/Hairdressing.sol\":4834:4975  require(... */\n      tag_172\n      jumpi\n      mload(0x40)\n      0x08c379a000000000000000000000000000000000000000000000000000000000\n      dup2\n      mstore\n      0x04\n      add\n      tag_173\n      swap1\n      tag_174\n      jump\t// in\n    tag_173:\n      mload(0x40)\n      dup1\n      swap2\n      sub\n      swap1\n      revert\n    tag_172:\n        /* \"contracts/Hairdressing.sol\":5012:5169  Service(... */\n      mload(0x40)\n      dup1\n      0xc0\n      add\n      0x40\n      mstore\n      dup1\n        /* \"contracts/Hairdressing.sol\":5033:5046  nextServiceId */\n      sload(0x03)\n        /* \"contracts/Hairdressing.sol\":5012:5169  Service(... */\n      dup2\n      mstore\n      0x20\n      add\n        /* \"contracts/Hairdressing.sol\":5060:5065  _name */\n      dup10\n      dup10\n        /* \"contracts/Hairdressing.sol\":5012:5169  Service(... */\n      dup1\n      dup1\n      0x1f\n      add\n      0x20\n      dup1\n      swap2\n      div\n      mul\n      0x20\n      add\n      mload(0x40)\n      swap1\n      dup2\n      add\n      0x40\n      mstore\n      dup1\n      swap4\n      swap3\n      swap2\n      swap1\n      dup2\n      dup2\n      mstore\n      0x20\n      add\n      dup4\n      dup4\n      dup1\n      dup3\n      dup5\n      calldatacopy\n      0x00\n      dup2\n      dup5\n      add\n      mstore\n      not(0x1f)\n      0x1f\n      dup3\n      add\n      and\n      swap1\n      pop\n      dup1\n      dup4\n      add\n      swap3\n      pop\n      pop\n      pop\n      pop\n      pop\n      pop\n      pop\n      dup2\n      mstore\n      0x20\n      add\n        /* \"contracts/Hairdressing.sol\":5079:5091  _description */\n      dup8\n      dup8\n        /* \"contracts/Hairdressing.sol\":5012:5169  Service(... */\n      dup1\n      dup1\n      0x1f\n      add\n      0x20\n      dup1\n      swap2\n      div\n      mul\n      0x20\n      add\n      mload(0x40)\n      swap1\n      dup2\n      add\n      0x40\n      mstore\n      dup1\n      swap4\n      swap3\n      swap2\n      swap1\n      dup2\n      dup2\n      mstore\n      0x20\n      add\n      dup4\n      dup4\n      dup1\n      dup3\n      dup5\n      calldatacopy\n      0x00\n      dup2\n      dup5\n      add\n      mstore\n      not(0x1f)\n      0x1f\n      dup3\n      add\n      and\n      swap1\n      pop\n      dup1\n      dup4\n      add\n      swap3\n      pop\n      pop\n      pop\n      pop\n      pop\n      pop\n      pop\n      dup2\n      mstore\n      0x20\n      add\n        /* \"contracts/Hairdressing.sol\":5105:5111  _price */\n      dup6\n        /* \"contracts/Hairdressing.sol\":5012:5169  Service(... */\n      dup2\n      mstore\n      0x20\n      add\n        /* \"contracts/Hairdressing.sol\":5125:5134  _duration */\n      dup5\n        /* \"contracts/Hairdressing.sol\":5012:5169  Service(... */\n      dup2\n      mstore\n      0x20\n      add\n        /* \"contracts/Hairdressing.sol\":5148:5159  _productIds */\n      dup4\n      dup4\n        /* \"contracts/Hairdressing.sol\":5012:5169  Service(... */\n      dup1\n      dup1\n      0x20\n      mul\n      0x20\n      add\n      mload(0x40)\n      swap1\n      dup2\n      add\n      0x40\n      mstore\n      dup1\n      swap4\n      swap3\n      swap2\n      swap1\n      dup2\n      dup2\n      mstore\n      0x20\n      add\n      dup4\n      dup4\n      0x20\n      mul\n      dup1\n      dup3\n      dup5\n      calldatacopy\n      0x00\n      dup2\n      dup5\n      add\n      mstore\n      not(0x1f)\n      0x1f\n      dup3\n      add\n      and\n      swap1\n      pop\n      dup1\n      dup4\n      add\n      swap3\n      pop\n      pop\n      pop\n      pop\n      pop\n      pop\n      pop\n      dup2\n      mstore\n      pop\n        /* \"contracts/Hairdressing.sol\":4986:4994  services */\n      0x01\n        /* \"contracts/Hairdressing.sol\":4986:5009  services[nextServiceId] */\n      0x00\n        /* \"contracts/Hairdressing.sol\":4995:5008  nextServiceId */\n      sload(0x03)\n        /* \"contracts/Hairdressing.sol\":4986:5009  services[nextServiceId] */\n      dup2\n      mstore\n      0x20\n      add\n      swap1\n      dup2\n      mstore\n      0x20\n      add\n      0x00\n      keccak256\n        /* \"contracts/Hairdressing.sol\":4986:5169  services[nextServiceId] = Service(... */\n      0x00\n      dup3\n      add\n      mload\n      dup2\n      0x00\n      add\n      sstore\n      0x20\n      dup3\n      add\n      mload\n      dup2\n      0x01\n      add\n      swap1\n      dup2\n      tag_175\n      swap2\n      swap1\n      tag_154\n      jump\t// in\n    tag_175:\n      pop\n      0x40\n      dup3\n      add\n      mload\n      dup2\n      0x02\n      add\n      swap1\n      dup2\n      tag_176\n      swap2\n      swap1\n      tag_154\n      jump\t// in\n    tag_176:\n      pop\n      0x60\n      dup3\n      add\n      mload\n      dup2\n      0x03\n      add\n      sstore\n      0x80\n      dup3\n      add\n      mload\n      dup2\n      0x04\n      add\n      sstore\n      0xa0\n      dup3\n      add\n      mload\n      dup2\n      0x05\n      add\n      swap1\n      dup1\n      mload\n      swap1\n      0x20\n      add\n      swap1\n      tag_177\n      swap3\n      swap2\n      swap1\n      tag_178\n      jump\t// in\n    tag_177:\n      pop\n      swap1\n      pop\n      pop\n        /* \"contracts/Hairdressing.sol\":5321:5332  serviceList */\n      0x02\n        /* \"contracts/Hairdressing.sol\":5338:5351  nextServiceId */\n      sload(0x03)\n        /* \"contracts/Hairdressing.sol\":5321:5352  serviceList.push(nextServiceId) */\n      swap1\n      dup1\n      0x01\n      dup2\n      sload\n      add\n      dup1\n      dup3\n      sstore\n      dup1\n      swap2\n      pop\n      pop\n      0x01\n      swap1\n      sub\n      swap1\n      0x00\n      mstore\n      keccak256(0x00, 0x20)\n      add\n      0x00\n      swap1\n      swap2\n      swap1\n      swap2\n      swap1\n      swap2\n      pop\n      sstore\n        /* \"contracts/Hairdressing.sol\":5404:5417  nextServiceId */\n      0x03\n      0x00\n        /* \"contracts/Hairdressing.sol\":5404:5419  nextServiceId++ */\n      dup2\n      sload\n      dup1\n      swap3\n      swap2\n      swap1\n      tag_180\n      swap1\n      tag_138\n      jump\t// in\n    tag_180:\n      swap2\n      swap1\n      pop\n      sstore\n      pop\n        /* \"contracts/Hairdressing.sol\":4609:5426  function createService(string calldata _name, string calldata _description, uint _price, uint _duration, uint[] calldata _productIds) external onlyAdmin() {... */\n      pop\n      pop\n      pop\n      pop\n      pop\n      pop\n      pop\n      pop\n      jump\t// out\n        /* \"contracts/Hairdressing.sol\":1004:1029  uint[] public serviceList */\n    tag_66:\n      0x02\n      dup2\n      dup2\n      sload\n      dup2\n      lt\n      tag_181\n      jumpi\n      0x00\n      dup1\n      revert\n    tag_181:\n      swap1\n      0x00\n      mstore\n      keccak256(0x00, 0x20)\n      add\n      0x00\n      swap2\n      pop\n      swap1\n      pop\n      sload\n      dup2\n      jump\t// out\n        /* \"contracts/Hairdressing.sol\":858:898  mapping(uint => Service) public services */\n    tag_70:\n      mstore(0x20, 0x01)\n      dup1\n      0x00\n      mstore\n      keccak256(0x00, 0x40)\n      0x00\n      swap2\n      pop\n      swap1\n      pop\n      dup1\n      0x00\n      add\n      sload\n      swap1\n      dup1\n      0x01\n      add\n      dup1\n      sload\n      tag_183\n      swap1\n      tag_121\n      jump\t// in\n    tag_183:\n      dup1\n      0x1f\n      add\n      0x20\n      dup1\n      swap2\n      div\n      mul\n      0x20\n      add\n      mload(0x40)\n      swap1\n      dup2\n      add\n      0x40\n      mstore\n      dup1\n      swap3\n      swap2\n      swap1\n      dup2\n      dup2\n      mstore\n      0x20\n      add\n      dup3\n      dup1\n      sload\n      tag_184\n      swap1\n      tag_121\n      jump\t// in\n    tag_184:\n      dup1\n      iszero\n      tag_185\n      jumpi\n      dup1\n      0x1f\n      lt\n      tag_186\n      jumpi\n      0x0100\n      dup1\n      dup4\n      sload\n      div\n      mul\n      dup4\n      mstore\n      swap2\n      0x20\n      add\n      swap2\n      jump(tag_185)\n    tag_186:\n      dup3\n      add\n      swap2\n      swap1\n      0x00\n      mstore\n      keccak256(0x00, 0x20)\n      swap1\n    tag_187:\n      dup2\n      sload\n      dup2\n      mstore\n      swap1\n      0x01\n      add\n      swap1\n      0x20\n      add\n      dup1\n      dup4\n      gt\n      tag_187\n      jumpi\n      dup3\n      swap1\n      sub\n      0x1f\n      and\n      dup3\n      add\n      swap2\n    tag_185:\n      pop\n      pop\n      pop\n      pop\n      pop\n      swap1\n      dup1\n      0x02\n      add\n      dup1\n      sload\n      tag_188\n      swap1\n      tag_121\n      jump\t// in\n    tag_188:\n      dup1\n      0x1f\n      add\n      0x20\n      dup1\n      swap2\n      div\n      mul\n      0x20\n      add\n      mload(0x40)\n      swap1\n      dup2\n      add\n      0x40\n      mstore\n      dup1\n      swap3\n      swap2\n      swap1\n      dup2\n      dup2\n      mstore\n      0x20\n      add\n      dup3\n      dup1\n      sload\n      tag_189\n      swap1\n      tag_121\n      jump\t// in\n    tag_189:\n      dup1\n      iszero\n      tag_190\n      jumpi\n      dup1\n      0x1f\n      lt\n      tag_191\n      jumpi\n      0x0100\n      dup1\n      dup4\n      sload\n      div\n      mul\n      dup4\n      mstore\n      swap2\n      0x20\n      add\n      swap2\n      jump(tag_190)\n    tag_191:\n      dup3\n      add\n      swap2\n      swap1\n      0x00\n      mstore\n      keccak256(0x00, 0x20)\n      swap1\n    tag_192:\n      dup2\n      sload\n      dup2\n      mstore\n      swap1\n      0x01\n      add\n      swap1\n      0x20\n      add\n      dup1\n      dup4\n      gt\n      tag_192\n      jumpi\n      dup3\n      swap1\n      sub\n      0x1f\n      and\n      dup3\n      add\n      swap2\n    tag_190:\n      pop\n      pop\n      pop\n      pop\n      pop\n      swap1\n      dup1\n      0x03\n      add\n      sload\n      swap1\n      dup1\n      0x04\n      add\n      sload\n      swap1\n      pop\n      dup6\n      jump\t// out\n        /* \"contracts/Hairdressing.sol\":7817:8578  function getProducts() external view returns (Product[] memory) {... */\n    tag_73:\n        /* \"contracts/Hairdressing.sol\":7863:7879  Product[] memory */\n      0x60\n        /* \"contracts/Hairdressing.sol\":7891:7920  Product[] memory _allProducts */\n      0x00\n        /* \"contracts/Hairdressing.sol\":7953:7954  1 */\n      0x01\n        /* \"contracts/Hairdressing.sol\":7937:7950  nextProductId */\n      sload(0x06)\n        /* \"contracts/Hairdressing.sol\":7937:7954  nextProductId - 1 */\n      tag_194\n      swap2\n      swap1\n      tag_109\n      jump\t// in\n    tag_194:\n        /* \"contracts/Hairdressing.sol\":7923:7955  new Product[](nextProductId - 1) */\n      0xffffffffffffffff\n      dup2\n      gt\n      iszero\n      tag_195\n      jumpi\n      tag_196\n      tag_112\n      jump\t// in\n    tag_196:\n    tag_195:\n      mload(0x40)\n      swap1\n      dup1\n      dup3\n      mstore\n      dup1\n      0x20\n      mul\n      0x20\n      add\n      dup3\n      add\n      0x40\n      mstore\n      dup1\n      iszero\n      tag_197\n      jumpi\n      dup2\n      0x20\n      add\n    tag_198:\n      tag_199\n      tag_200\n      jump\t// in\n    tag_199:\n      dup2\n      mstore\n      0x20\n      add\n      swap1\n      0x01\n      swap1\n      sub\n      swap1\n      dup2\n      tag_198\n      jumpi\n      swap1\n      pop\n    tag_197:\n      pop\n        /* \"contracts/Hairdressing.sol\":7891:7955  Product[] memory _allProducts = new Product[](nextProductId - 1) */\n      swap1\n      pop\n        /* \"contracts/Hairdressing.sol\":7971:7977  uint i */\n      0x00\n        /* \"contracts/Hairdressing.sol\":7980:7981  1 */\n      0x01\n        /* \"contracts/Hairdressing.sol\":7971:7981  uint i = 1 */\n      swap1\n      pop\n        /* \"contracts/Hairdressing.sol\":7966:8065  for (uint i = 1; i < nextProductId; i++) {... */\n    tag_201:\n        /* \"contracts/Hairdressing.sol\":7987:8000  nextProductId */\n      sload(0x06)\n        /* \"contracts/Hairdressing.sol\":7983:7984  i */\n      dup2\n        /* \"contracts/Hairdressing.sol\":7983:8000  i < nextProductId */\n      lt\n        /* \"contracts/Hairdressing.sol\":7966:8065  for (uint i = 1; i < nextProductId; i++) {... */\n      iszero\n      tag_202\n      jumpi\n        /* \"contracts/Hairdressing.sol\":8043:8051  products */\n      0x04\n        /* \"contracts/Hairdressing.sol\":8043:8054  products[i] */\n      0x00\n        /* \"contracts/Hairdressing.sol\":8052:8053  i */\n      dup3\n        /* \"contracts/Hairdressing.sol\":8043:8054  products[i] */\n      dup2\n      mstore\n      0x20\n      add\n      swap1\n      dup2\n      mstore\n      0x20\n      add\n      0x00\n      keccak256\n        /* \"contracts/Hairdressing.sol\":8021:8054  _allProducts[i - 1] = products[i] */\n      mload(0x40)\n      dup1\n      0xa0\n      add\n      0x40\n      mstore\n      swap1\n      dup2\n      0x00\n      dup3\n      add\n      sload\n      dup2\n      mstore\n      0x20\n      add\n      0x01\n      dup3\n      add\n      dup1\n      sload\n      tag_204\n      swap1\n      tag_121\n      jump\t// in\n    tag_204:\n      dup1\n      0x1f\n      add\n      0x20\n      dup1\n      swap2\n      div\n      mul\n      0x20\n      add\n      mload(0x40)\n      swap1\n      dup2\n      add\n      0x40\n      mstore\n      dup1\n      swap3\n      swap2\n      swap1\n      dup2\n      dup2\n      mstore\n      0x20\n      add\n      dup3\n      dup1\n      sload\n      tag_205\n      swap1\n      tag_121\n      jump\t// in\n    tag_205:\n      dup1\n      iszero\n      tag_206\n      jumpi\n      dup1\n      0x1f\n      lt\n      tag_207\n      jumpi\n      0x0100\n      dup1\n      dup4\n      sload\n      div\n      mul\n      dup4\n      mstore\n      swap2\n      0x20\n      add\n      swap2\n      jump(tag_206)\n    tag_207:\n      dup3\n      add\n      swap2\n      swap1\n      0x00\n      mstore\n      keccak256(0x00, 0x20)\n      swap1\n    tag_208:\n      dup2\n      sload\n      dup2\n      mstore\n      swap1\n      0x01\n      add\n      swap1\n      0x20\n      add\n      dup1\n      dup4\n      gt\n      tag_208\n      jumpi\n      dup3\n      swap1\n      sub\n      0x1f\n      and\n      dup3\n      add\n      swap2\n    tag_206:\n      pop\n      pop\n      pop\n      pop\n      pop\n      dup2\n      mstore\n      0x20\n      add\n      0x02\n      dup3\n      add\n      dup1\n      sload\n      tag_209\n      swap1\n      tag_121\n      jump\t// in\n    tag_209:\n      dup1\n      0x1f\n      add\n      0x20\n      dup1\n      swap2\n      div\n      mul\n      0x20\n      add\n      mload(0x40)\n      swap1\n      dup2\n      add\n      0x40\n      mstore\n      dup1\n      swap3\n      swap2\n      swap1\n      dup2\n      dup2\n      mstore\n      0x20\n      add\n      dup3\n      dup1\n      sload\n      tag_210\n      swap1\n      tag_121\n      jump\t// in\n    tag_210:\n      dup1\n      iszero\n      tag_211\n      jumpi\n      dup1\n      0x1f\n      lt\n      tag_212\n      jumpi\n      0x0100\n      dup1\n      dup4\n      sload\n      div\n      mul\n      dup4\n      mstore\n      swap2\n      0x20\n      add\n      swap2\n      jump(tag_211)\n    tag_212:\n      dup3\n      add\n      swap2\n      swap1\n      0x00\n      mstore\n      keccak256(0x00, 0x20)\n      swap1\n    tag_213:\n      dup2\n      sload\n      dup2\n      mstore\n      swap1\n      0x01\n      add\n      swap1\n      0x20\n      add\n      dup1\n      dup4\n      gt\n      tag_213\n      jumpi\n      dup3\n      swap1\n      sub\n      0x1f\n      and\n      dup3\n      add\n      swap2\n    tag_211:\n      pop\n      pop\n      pop\n      pop\n      pop\n      dup2\n      mstore\n      0x20\n      add\n      0x03\n      dup3\n      add\n      sload\n      dup2\n      mstore\n      0x20\n      add\n      0x04\n      dup3\n      add\n      sload\n      dup2\n      mstore\n      pop\n      pop\n        /* \"contracts/Hairdressing.sol\":8021:8033  _allProducts */\n      dup3\n        /* \"contracts/Hairdressing.sol\":8038:8039  1 */\n      0x01\n        /* \"contracts/Hairdressing.sol\":8034:8035  i */\n      dup4\n        /* \"contracts/Hairdressing.sol\":8034:8039  i - 1 */\n      tag_214\n      swap2\n      swap1\n      tag_109\n      jump\t// in\n    tag_214:\n        /* \"contracts/Hairdressing.sol\":8021:8040  _allProducts[i - 1] */\n      dup2\n      mload\n      dup2\n      lt\n      tag_215\n      jumpi\n      tag_216\n      tag_136\n      jump\t// in\n    tag_216:\n    tag_215:\n      0x20\n      mul\n      0x20\n      add\n      add\n        /* \"contracts/Hairdressing.sol\":8021:8054  _allProducts[i - 1] = products[i] */\n      dup2\n      swap1\n      mstore\n      pop\n        /* \"contracts/Hairdressing.sol\":8002:8005  i++ */\n      dup1\n      dup1\n      tag_217\n      swap1\n      tag_138\n      jump\t// in\n    tag_217:\n      swap2\n      pop\n      pop\n        /* \"contracts/Hairdressing.sol\":7966:8065  for (uint i = 1; i < nextProductId; i++) {... */\n      jump(tag_201)\n    tag_202:\n      pop\n        /* \"contracts/Hairdressing.sol\":8559:8571  _allProducts */\n      dup1\n        /* \"contracts/Hairdressing.sol\":8552:8571  return _allProducts */\n      swap2\n      pop\n      pop\n        /* \"contracts/Hairdressing.sol\":7817:8578  function getProducts() external view returns (Product[] memory) {... */\n      swap1\n      jump\t// out\n        /* \"contracts/Hairdressing.sol\":4074:4225  function deleteProduct(uint _productId) external onlyAdmin() productExists(_productId) {... */\n    tag_78:\n        /* \"contracts/Hairdressing.sol\":2351:2356  admin */\n      0x00\n      dup1\n      sload\n      swap1\n      0x0100\n      exp\n      swap1\n      div\n      0xffffffffffffffffffffffffffffffffffffffff\n      and\n        /* \"contracts/Hairdressing.sol\":2337:2356  msg.sender == admin */\n      0xffffffffffffffffffffffffffffffffffffffff\n      and\n        /* \"contracts/Hairdressing.sol\":2337:2347  msg.sender */\n      caller\n        /* \"contracts/Hairdressing.sol\":2337:2356  msg.sender == admin */\n      0xffffffffffffffffffffffffffffffffffffffff\n      and\n      eq\n        /* \"contracts/Hairdressing.sol\":2329:2371  require(msg.sender == admin, \"Only admin\") */\n      tag_219\n      jumpi\n      mload(0x40)\n      0x08c379a000000000000000000000000000000000000000000000000000000000\n      dup2\n      mstore\n      0x04\n      add\n      tag_220\n      swap1\n      tag_100\n      jump\t// in\n    tag_220:\n      mload(0x40)\n      dup1\n      swap2\n      sub\n      swap1\n      revert\n    tag_219:\n        /* \"contracts/Hairdressing.sol\":4149:4159  _productId */\n      dup1\n        /* \"contracts/Hairdressing.sol\":2820:2821  0 */\n      0x00\n        /* \"contracts/Hairdressing.sol\":2807:2817  _productId */\n      dup2\n        /* \"contracts/Hairdressing.sol\":2807:2821  _productId > 0 */\n      gt\n        /* \"contracts/Hairdressing.sol\":2807:2851  _productId > 0 && _productId < nextProductId */\n      dup1\n      iszero\n      tag_222\n      jumpi\n      pop\n        /* \"contracts/Hairdressing.sol\":2838:2851  nextProductId */\n      sload(0x06)\n        /* \"contracts/Hairdressing.sol\":2825:2835  _productId */\n      dup2\n        /* \"contracts/Hairdressing.sol\":2825:2851  _productId < nextProductId */\n      lt\n        /* \"contracts/Hairdressing.sol\":2807:2851  _productId > 0 && _productId < nextProductId */\n    tag_222:\n        /* \"contracts/Hairdressing.sol\":2786:2899  require(... */\n      tag_223\n      jumpi\n      mload(0x40)\n      0x08c379a000000000000000000000000000000000000000000000000000000000\n      dup2\n      mstore\n      0x04\n      add\n      tag_224\n      swap1\n      tag_225\n      jump\t// in\n    tag_224:\n      mload(0x40)\n      dup1\n      swap2\n      sub\n      swap1\n      revert\n    tag_223:\n        /* \"contracts/Hairdressing.sol\":2381:2382  _ */\n      pop\n        /* \"contracts/Hairdressing.sol\":4074:4225  function deleteProduct(uint _productId) external onlyAdmin() productExists(_productId) {... */\n      pop\n      jump\t// out\n        /* \"contracts/Hairdressing.sol\":8672:9093  function getUserBookings(address _client) external view returns (Booking[] memory) {... */\n    tag_82:\n        /* \"contracts/Hairdressing.sol\":8737:8753  Booking[] memory */\n      0x60\n        /* \"contracts/Hairdressing.sol\":8765:8794  uint[] storage userBookingIds */\n      0x00\n        /* \"contracts/Hairdressing.sol\":8797:8809  userBookings */\n      0x0a\n        /* \"contracts/Hairdressing.sol\":8797:8818  userBookings[_client] */\n      0x00\n        /* \"contracts/Hairdressing.sol\":8810:8817  _client */\n      dup5\n        /* \"contracts/Hairdressing.sol\":8797:8818  userBookings[_client] */\n      0xffffffffffffffffffffffffffffffffffffffff\n      and\n      0xffffffffffffffffffffffffffffffffffffffff\n      and\n      dup2\n      mstore\n      0x20\n      add\n      swap1\n      dup2\n      mstore\n      0x20\n      add\n      0x00\n      keccak256\n        /* \"contracts/Hairdressing.sol\":8765:8818  uint[] storage userBookingIds = userBookings[_client] */\n      swap1\n      pop\n        /* \"contracts/Hairdressing.sol\":8828:8854  Booking[] memory _bookings */\n      0x00\n        /* \"contracts/Hairdressing.sol\":8871:8885  userBookingIds */\n      dup2\n        /* \"contracts/Hairdressing.sol\":8871:8892  userBookingIds.length */\n      dup1\n      sload\n      swap1\n      pop\n        /* \"contracts/Hairdressing.sol\":8857:8893  new Booking[](userBookingIds.length) */\n      0xffffffffffffffff\n      dup2\n      gt\n      iszero\n      tag_228\n      jumpi\n      tag_229\n      tag_112\n      jump\t// in\n    tag_229:\n    tag_228:\n      mload(0x40)\n      swap1\n      dup1\n      dup3\n      mstore\n      dup1\n      0x20\n      mul\n      0x20\n      add\n      dup3\n      add\n      0x40\n      mstore\n      dup1\n      iszero\n      tag_230\n      jumpi\n      dup2\n      0x20\n      add\n    tag_231:\n      tag_232\n      tag_233\n      jump\t// in\n    tag_232:\n      dup2\n      mstore\n      0x20\n      add\n      swap1\n      0x01\n      swap1\n      sub\n      swap1\n      dup2\n      tag_231\n      jumpi\n      swap1\n      pop\n    tag_230:\n      pop\n        /* \"contracts/Hairdressing.sol\":8828:8893  Booking[] memory _bookings = new Booking[](userBookingIds.length) */\n      swap1\n      pop\n        /* \"contracts/Hairdressing.sol\":8909:8915  uint i */\n      0x00\n        /* \"contracts/Hairdressing.sol\":8904:9060  for (uint i = 0; i < userBookingIds.length; i++) {... */\n    tag_234:\n        /* \"contracts/Hairdressing.sol\":8925:8939  userBookingIds */\n      dup3\n        /* \"contracts/Hairdressing.sol\":8925:8946  userBookingIds.length */\n      dup1\n      sload\n      swap1\n      pop\n        /* \"contracts/Hairdressing.sol\":8921:8922  i */\n      dup2\n        /* \"contracts/Hairdressing.sol\":8921:8946  i < userBookingIds.length */\n      lt\n        /* \"contracts/Hairdressing.sol\":8904:9060  for (uint i = 0; i < userBookingIds.length; i++) {... */\n      iszero\n      tag_235\n      jumpi\n        /* \"contracts/Hairdressing.sol\":8967:8981  uint bookingId */\n      0x00\n        /* \"contracts/Hairdressing.sol\":8984:8998  userBookingIds */\n      dup4\n        /* \"contracts/Hairdressing.sol\":8999:9000  i */\n      dup3\n        /* \"contracts/Hairdressing.sol\":8984:9001  userBookingIds[i] */\n      dup2\n      sload\n      dup2\n      lt\n      tag_237\n      jumpi\n      tag_238\n      tag_136\n      jump\t// in\n    tag_238:\n    tag_237:\n      swap1\n      0x00\n      mstore\n      keccak256(0x00, 0x20)\n      add\n      sload\n        /* \"contracts/Hairdressing.sol\":8967:9001  uint bookingId = userBookingIds[i] */\n      swap1\n      pop\n        /* \"contracts/Hairdressing.sol\":9030:9038  bookings */\n      0x07\n        /* \"contracts/Hairdressing.sol\":9030:9049  bookings[bookingId] */\n      0x00\n        /* \"contracts/Hairdressing.sol\":9039:9048  bookingId */\n      dup3\n        /* \"contracts/Hairdressing.sol\":9030:9049  bookings[bookingId] */\n      dup2\n      mstore\n      0x20\n      add\n      swap1\n      dup2\n      mstore\n      0x20\n      add\n      0x00\n      keccak256\n        /* \"contracts/Hairdressing.sol\":9015:9049  _bookings[i] = bookings[bookingId] */\n      mload(0x40)\n      dup1\n      0x80\n      add\n      0x40\n      mstore\n      swap1\n      dup2\n      0x00\n      dup3\n      add\n      sload\n      dup2\n      mstore\n      0x20\n      add\n      0x01\n      dup3\n      add\n      sload\n      dup2\n      mstore\n      0x20\n      add\n      0x02\n      dup3\n      add\n      sload\n      dup2\n      mstore\n      0x20\n      add\n      0x03\n      dup3\n      add\n      0x00\n      swap1\n      sload\n      swap1\n      0x0100\n      exp\n      swap1\n      div\n      0xffffffffffffffffffffffffffffffffffffffff\n      and\n      0xffffffffffffffffffffffffffffffffffffffff\n      and\n      0xffffffffffffffffffffffffffffffffffffffff\n      and\n      dup2\n      mstore\n      pop\n      pop\n        /* \"contracts/Hairdressing.sol\":9015:9024  _bookings */\n      dup4\n        /* \"contracts/Hairdressing.sol\":9025:9026  i */\n      dup4\n        /* \"contracts/Hairdressing.sol\":9015:9027  _bookings[i] */\n      dup2\n      mload\n      dup2\n      lt\n      tag_240\n      jumpi\n      tag_241\n      tag_136\n      jump\t// in\n    tag_241:\n    tag_240:\n      0x20\n      mul\n      0x20\n      add\n      add\n        /* \"contracts/Hairdressing.sol\":9015:9049  _bookings[i] = bookings[bookingId] */\n      dup2\n      swap1\n      mstore\n      pop\n        /* \"contracts/Hairdressing.sol\":8953:9060  {... */\n      pop\n        /* \"contracts/Hairdressing.sol\":8948:8951  i++ */\n      dup1\n      dup1\n      tag_242\n      swap1\n      tag_138\n      jump\t// in\n    tag_242:\n      swap2\n      pop\n      pop\n        /* \"contracts/Hairdressing.sol\":8904:9060  for (uint i = 0; i < userBookingIds.length; i++) {... */\n      jump(tag_234)\n    tag_235:\n      pop\n        /* \"contracts/Hairdressing.sol\":9077:9086  _bookings */\n      dup1\n        /* \"contracts/Hairdressing.sol\":9070:9086  return _bookings */\n      swap3\n      pop\n      pop\n      pop\n        /* \"contracts/Hairdressing.sol\":8672:9093  function getUserBookings(address _client) external view returns (Booking[] memory) {... */\n      swap2\n      swap1\n      pop\n      jump\t// out\n        /* \"contracts/Hairdressing.sol\":440:460  address public admin */\n    tag_86:\n      0x00\n      dup1\n      sload\n      swap1\n      0x0100\n      exp\n      swap1\n      div\n      0xffffffffffffffffffffffffffffffffffffffff\n      and\n      dup2\n      jump\t// out\n    tag_116:\n      mload(0x40)\n      dup1\n      0xc0\n      add\n      0x40\n      mstore\n      dup1\n      0x00\n      dup2\n      mstore\n      0x20\n      add\n      0x60\n      dup2\n      mstore\n      0x20\n      add\n      0x60\n      dup2\n      mstore\n      0x20\n      add\n      0x00\n      dup2\n      mstore\n      0x20\n      add\n      0x00\n      dup2\n      mstore\n      0x20\n      add\n      0x60\n      dup2\n      mstore\n      pop\n      swap1\n      jump\t// out\n    tag_178:\n      dup3\n      dup1\n      sload\n      dup3\n      dup3\n      sstore\n      swap1\n      0x00\n      mstore\n      keccak256(0x00, 0x20)\n      swap1\n      dup2\n      add\n      swap3\n      dup3\n      iszero\n      tag_243\n      jumpi\n      swap2\n      0x20\n      mul\n      dup3\n      add\n    tag_244:\n      dup3\n      dup2\n      gt\n      iszero\n      tag_245\n      jumpi\n      dup3\n      mload\n      dup3\n      sstore\n      swap2\n      0x20\n      add\n      swap2\n      swap1\n      0x01\n      add\n      swap1\n      jump(tag_244)\n    tag_245:\n    tag_243:\n      pop\n      swap1\n      pop\n      tag_246\n      swap2\n      swap1\n      tag_247\n      jump\t// in\n    tag_246:\n      pop\n      swap1\n      jump\t// out\n    tag_200:\n      mload(0x40)\n      dup1\n      0xa0\n      add\n      0x40\n      mstore\n      dup1\n      0x00\n      dup2\n      mstore\n      0x20\n      add\n      0x60\n      dup2\n      mstore\n      0x20\n      add\n      0x60\n      dup2\n      mstore\n      0x20\n      add\n      0x00\n      dup2\n      mstore\n      0x20\n      add\n      0x00\n      dup2\n      mstore\n      pop\n      swap1\n      jump\t// out\n    tag_233:\n      mload(0x40)\n      dup1\n      0x80\n      add\n      0x40\n      mstore\n      dup1\n      0x00\n      dup2\n      mstore\n      0x20\n      add\n      0x00\n      dup2\n      mstore\n      0x20\n      add\n      0x00\n      dup2\n      mstore\n      0x20\n      add\n      and(0xffffffffffffffffffffffffffffffffffffffff, 0x00)\n      dup2\n      mstore\n      pop\n      swap1\n      jump\t// out\n    tag_247:\n    tag_248:\n      dup1\n      dup3\n      gt\n      iszero\n      tag_249\n      jumpi\n      0x00\n      dup2\n      0x00\n      swap1\n      sstore\n      pop\n      0x01\n      add\n      jump(tag_248)\n    tag_249:\n      pop\n      swap1\n      jump\t// out\n        /* \"#utility.yul\":88:205   */\n    tag_251:\n        /* \"#utility.yul\":197:198   */\n      0x00\n        /* \"#utility.yul\":194:195   */\n      dup1\n        /* \"#utility.yul\":187:199   */\n      revert\n        /* \"#utility.yul\":211:328   */\n    tag_252:\n        /* \"#utility.yul\":320:321   */\n      0x00\n        /* \"#utility.yul\":317:318   */\n      dup1\n        /* \"#utility.yul\":310:322   */\n      revert\n        /* \"#utility.yul\":334:411   */\n    tag_253:\n        /* \"#utility.yul\":371:378   */\n      0x00\n        /* \"#utility.yul\":400:405   */\n      dup2\n        /* \"#utility.yul\":389:405   */\n      swap1\n      pop\n        /* \"#utility.yul\":334:411   */\n      swap2\n      swap1\n      pop\n      jump\t// out\n        /* \"#utility.yul\":417:539   */\n    tag_254:\n        /* \"#utility.yul\":490:514   */\n      tag_336\n        /* \"#utility.yul\":508:513   */\n      dup2\n        /* \"#utility.yul\":490:514   */\n      tag_253\n      jump\t// in\n    tag_336:\n        /* \"#utility.yul\":483:488   */\n      dup2\n        /* \"#utility.yul\":480:515   */\n      eq\n        /* \"#utility.yul\":470:533   */\n      tag_337\n      jumpi\n        /* \"#utility.yul\":529:530   */\n      0x00\n        /* \"#utility.yul\":526:527   */\n      dup1\n        /* \"#utility.yul\":519:531   */\n      revert\n        /* \"#utility.yul\":470:533   */\n    tag_337:\n        /* \"#utility.yul\":417:539   */\n      pop\n      jump\t// out\n        /* \"#utility.yul\":545:684   */\n    tag_255:\n        /* \"#utility.yul\":591:596   */\n      0x00\n        /* \"#utility.yul\":629:635   */\n      dup2\n        /* \"#utility.yul\":616:636   */\n      calldataload\n        /* \"#utility.yul\":607:636   */\n      swap1\n      pop\n        /* \"#utility.yul\":645:678   */\n      tag_339\n        /* \"#utility.yul\":672:677   */\n      dup2\n        /* \"#utility.yul\":645:678   */\n      tag_254\n      jump\t// in\n    tag_339:\n        /* \"#utility.yul\":545:684   */\n      swap3\n      swap2\n      pop\n      pop\n      jump\t// out\n        /* \"#utility.yul\":690:1019   */\n    tag_24:\n        /* \"#utility.yul\":749:755   */\n      0x00\n        /* \"#utility.yul\":798:800   */\n      0x20\n        /* \"#utility.yul\":786:795   */\n      dup3\n        /* \"#utility.yul\":777:784   */\n      dup5\n        /* \"#utility.yul\":773:796   */\n      sub\n        /* \"#utility.yul\":769:801   */\n      slt\n        /* \"#utility.yul\":766:885   */\n      iszero\n      tag_341\n      jumpi\n        /* \"#utility.yul\":804:883   */\n      tag_342\n      tag_251\n      jump\t// in\n    tag_342:\n        /* \"#utility.yul\":766:885   */\n    tag_341:\n        /* \"#utility.yul\":924:925   */\n      0x00\n        /* \"#utility.yul\":949:1002   */\n      tag_343\n        /* \"#utility.yul\":994:1001   */\n      dup5\n        /* \"#utility.yul\":985:991   */\n      dup3\n        /* \"#utility.yul\":974:983   */\n      dup6\n        /* \"#utility.yul\":970:992   */\n      add\n        /* \"#utility.yul\":949:1002   */\n      tag_255\n      jump\t// in\n    tag_343:\n        /* \"#utility.yul\":939:1002   */\n      swap2\n      pop\n        /* \"#utility.yul\":895:1012   */\n      pop\n        /* \"#utility.yul\":690:1019   */\n      swap3\n      swap2\n      pop\n      pop\n      jump\t// out\n        /* \"#utility.yul\":1025:1143   */\n    tag_256:\n        /* \"#utility.yul\":1112:1136   */\n      tag_345\n        /* \"#utility.yul\":1130:1135   */\n      dup2\n        /* \"#utility.yul\":1112:1136   */\n      tag_253\n      jump\t// in\n    tag_345:\n        /* \"#utility.yul\":1107:1110   */\n      dup3\n        /* \"#utility.yul\":1100:1137   */\n      mstore\n        /* \"#utility.yul\":1025:1143   */\n      pop\n      pop\n      jump\t// out\n        /* \"#utility.yul\":1149:1275   */\n    tag_257:\n        /* \"#utility.yul\":1186:1193   */\n      0x00\n        /* \"#utility.yul\":1226:1268   */\n      0xffffffffffffffffffffffffffffffffffffffff\n        /* \"#utility.yul\":1219:1224   */\n      dup3\n        /* \"#utility.yul\":1215:1269   */\n      and\n        /* \"#utility.yul\":1204:1269   */\n      swap1\n      pop\n        /* \"#utility.yul\":1149:1275   */\n      swap2\n      swap1\n      pop\n      jump\t// out\n        /* \"#utility.yul\":1281:1377   */\n    tag_258:\n        /* \"#utility.yul\":1318:1325   */\n      0x00\n        /* \"#utility.yul\":1347:1371   */\n      tag_348\n        /* \"#utility.yul\":1365:1370   */\n      dup3\n        /* \"#utility.yul\":1347:1371   */\n      tag_257\n      jump\t// in\n    tag_348:\n        /* \"#utility.yul\":1336:1371   */\n      swap1\n      pop\n        /* \"#utility.yul\":1281:1377   */\n      swap2\n      swap1\n      pop\n      jump\t// out\n        /* \"#utility.yul\":1383:1501   */\n    tag_259:\n        /* \"#utility.yul\":1470:1494   */\n      tag_350\n        /* \"#utility.yul\":1488:1493   */\n      dup2\n        /* \"#utility.yul\":1470:1494   */\n      tag_258\n      jump\t// in\n    tag_350:\n        /* \"#utility.yul\":1465:1468   */\n      dup3\n        /* \"#utility.yul\":1458:1495   */\n      mstore\n        /* \"#utility.yul\":1383:1501   */\n      pop\n      pop\n      jump\t// out\n        /* \"#utility.yul\":1507:2060   */\n    tag_27:\n        /* \"#utility.yul\":1684:1688   */\n      0x00\n        /* \"#utility.yul\":1722:1725   */\n      0x80\n        /* \"#utility.yul\":1711:1720   */\n      dup3\n        /* \"#utility.yul\":1707:1726   */\n      add\n        /* \"#utility.yul\":1699:1726   */\n      swap1\n      pop\n        /* \"#utility.yul\":1736:1807   */\n      tag_352\n        /* \"#utility.yul\":1804:1805   */\n      0x00\n        /* \"#utility.yul\":1793:1802   */\n      dup4\n        /* \"#utility.yul\":1789:1806   */\n      add\n        /* \"#utility.yul\":1780:1786   */\n      dup8\n        /* \"#utility.yul\":1736:1807   */\n      tag_256\n      jump\t// in\n    tag_352:\n        /* \"#utility.yul\":1817:1889   */\n      tag_353\n        /* \"#utility.yul\":1885:1887   */\n      0x20\n        /* \"#utility.yul\":1874:1883   */\n      dup4\n        /* \"#utility.yul\":1870:1888   */\n      add\n        /* \"#utility.yul\":1861:1867   */\n      dup7\n        /* \"#utility.yul\":1817:1889   */\n      tag_256\n      jump\t// in\n    tag_353:\n        /* \"#utility.yul\":1899:1971   */\n      tag_354\n        /* \"#utility.yul\":1967:1969   */\n      0x40\n        /* \"#utility.yul\":1956:1965   */\n      dup4\n        /* \"#utility.yul\":1952:1970   */\n      add\n        /* \"#utility.yul\":1943:1949   */\n      dup6\n        /* \"#utility.yul\":1899:1971   */\n      tag_256\n      jump\t// in\n    tag_354:\n        /* \"#utility.yul\":1981:2053   */\n      tag_355\n        /* \"#utility.yul\":2049:2051   */\n      0x60\n        /* \"#utility.yul\":2038:2047   */\n      dup4\n        /* \"#utility.yul\":2034:2052   */\n      add\n        /* \"#utility.yul\":2025:2031   */\n      dup5\n        /* \"#utility.yul\":1981:2053   */\n      tag_259\n      jump\t// in\n    tag_355:\n        /* \"#utility.yul\":1507:2060   */\n      swap6\n      swap5\n      pop\n      pop\n      pop\n      pop\n      pop\n      jump\t// out\n        /* \"#utility.yul\":2066:2288   */\n    tag_35:\n        /* \"#utility.yul\":2159:2163   */\n      0x00\n        /* \"#utility.yul\":2197:2199   */\n      0x20\n        /* \"#utility.yul\":2186:2195   */\n      dup3\n        /* \"#utility.yul\":2182:2200   */\n      add\n        /* \"#utility.yul\":2174:2200   */\n      swap1\n      pop\n        /* \"#utility.yul\":2210:2281   */\n      tag_357\n        /* \"#utility.yul\":2278:2279   */\n      0x00\n        /* \"#utility.yul\":2267:2276   */\n      dup4\n        /* \"#utility.yul\":2263:2280   */\n      add\n        /* \"#utility.yul\":2254:2260   */\n      dup5\n        /* \"#utility.yul\":2210:2281   */\n      tag_256\n      jump\t// in\n    tag_357:\n        /* \"#utility.yul\":2066:2288   */\n      swap3\n      swap2\n      pop\n      pop\n      jump\t// out\n        /* \"#utility.yul\":2294:2431   */\n    tag_260:\n        /* \"#utility.yul\":2384:2390   */\n      0x00\n        /* \"#utility.yul\":2418:2423   */\n      dup2\n        /* \"#utility.yul\":2412:2424   */\n      mload\n        /* \"#utility.yul\":2402:2424   */\n      swap1\n      pop\n        /* \"#utility.yul\":2294:2431   */\n      swap2\n      swap1\n      pop\n      jump\t// out\n        /* \"#utility.yul\":2437:2644   */\n    tag_261:\n        /* \"#utility.yul\":2559:2570   */\n      0x00\n        /* \"#utility.yul\":2593:2599   */\n      dup3\n        /* \"#utility.yul\":2588:2591   */\n      dup3\n        /* \"#utility.yul\":2581:2600   */\n      mstore\n        /* \"#utility.yul\":2633:2637   */\n      0x20\n        /* \"#utility.yul\":2628:2631   */\n      dup3\n        /* \"#utility.yul\":2624:2638   */\n      add\n        /* \"#utility.yul\":2609:2638   */\n      swap1\n      pop\n        /* \"#utility.yul\":2437:2644   */\n      swap3\n      swap2\n      pop\n      pop\n      jump\t// out\n        /* \"#utility.yul\":2650:2805   */\n    tag_262:\n        /* \"#utility.yul\":2740:2744   */\n      0x00\n        /* \"#utility.yul\":2763:2766   */\n      dup2\n        /* \"#utility.yul\":2755:2766   */\n      swap1\n      pop\n        /* \"#utility.yul\":2793:2797   */\n      0x20\n        /* \"#utility.yul\":2788:2791   */\n      dup3\n        /* \"#utility.yul\":2784:2798   */\n      add\n        /* \"#utility.yul\":2776:2798   */\n      swap1\n      pop\n        /* \"#utility.yul\":2650:2805   */\n      swap2\n      swap1\n      pop\n      jump\t// out\n        /* \"#utility.yul\":2811:2919   */\n    tag_263:\n        /* \"#utility.yul\":2888:2912   */\n      tag_362\n        /* \"#utility.yul\":2906:2911   */\n      dup2\n        /* \"#utility.yul\":2888:2912   */\n      tag_253\n      jump\t// in\n    tag_362:\n        /* \"#utility.yul\":2883:2886   */\n      dup3\n        /* \"#utility.yul\":2876:2913   */\n      mstore\n        /* \"#utility.yul\":2811:2919   */\n      pop\n      pop\n      jump\t// out\n        /* \"#utility.yul\":2925:3024   */\n    tag_264:\n        /* \"#utility.yul\":2977:2983   */\n      0x00\n        /* \"#utility.yul\":3011:3016   */\n      dup2\n        /* \"#utility.yul\":3005:3017   */\n      mload\n        /* \"#utility.yul\":2995:3017   */\n      swap1\n      pop\n        /* \"#utility.yul\":2925:3024   */\n      swap2\n      swap1\n      pop\n      jump\t// out\n        /* \"#utility.yul\":3030:3189   */\n    tag_265:\n        /* \"#utility.yul\":3104:3115   */\n      0x00\n        /* \"#utility.yul\":3138:3144   */\n      dup3\n        /* \"#utility.yul\":3133:3136   */\n      dup3\n        /* \"#utility.yul\":3126:3145   */\n      mstore\n        /* \"#utility.yul\":3178:3182   */\n      0x20\n        /* \"#utility.yul\":3173:3176   */\n      dup3\n        /* \"#utility.yul\":3169:3183   */\n      add\n        /* \"#utility.yul\":3154:3183   */\n      swap1\n      pop\n        /* \"#utility.yul\":3030:3189   */\n      swap3\n      swap2\n      pop\n      pop\n      jump\t// out\n        /* \"#utility.yul\":3195:3441   */\n    tag_266:\n        /* \"#utility.yul\":3276:3277   */\n      0x00\n        /* \"#utility.yul\":3286:3399   */\n    tag_366:\n        /* \"#utility.yul\":3300:3306   */\n      dup4\n        /* \"#utility.yul\":3297:3298   */\n      dup2\n        /* \"#utility.yul\":3294:3307   */\n      lt\n        /* \"#utility.yul\":3286:3399   */\n      iszero\n      tag_368\n      jumpi\n        /* \"#utility.yul\":3385:3386   */\n      dup1\n        /* \"#utility.yul\":3380:3383   */\n      dup3\n        /* \"#utility.yul\":3376:3387   */\n      add\n        /* \"#utility.yul\":3370:3388   */\n      mload\n        /* \"#utility.yul\":3366:3367   */\n      dup2\n        /* \"#utility.yul\":3361:3364   */\n      dup5\n        /* \"#utility.yul\":3357:3368   */\n      add\n        /* \"#utility.yul\":3350:3389   */\n      mstore\n        /* \"#utility.yul\":3322:3324   */\n      0x20\n        /* \"#utility.yul\":3319:3320   */\n      dup2\n        /* \"#utility.yul\":3315:3325   */\n      add\n        /* \"#utility.yul\":3310:3325   */\n      swap1\n      pop\n        /* \"#utility.yul\":3286:3399   */\n      jump(tag_366)\n    tag_368:\n        /* \"#utility.yul\":3433:3434   */\n      0x00\n        /* \"#utility.yul\":3424:3430   */\n      dup5\n        /* \"#utility.yul\":3419:3422   */\n      dup5\n        /* \"#utility.yul\":3415:3431   */\n      add\n        /* \"#utility.yul\":3408:3435   */\n      mstore\n        /* \"#utility.yul\":3257:3441   */\n      pop\n        /* \"#utility.yul\":3195:3441   */\n      pop\n      pop\n      pop\n      jump\t// out\n        /* \"#utility.yul\":3447:3549   */\n    tag_267:\n        /* \"#utility.yul\":3488:3494   */\n      0x00\n        /* \"#utility.yul\":3539:3541   */\n      0x1f\n        /* \"#utility.yul\":3535:3542   */\n      not\n        /* \"#utility.yul\":3530:3532   */\n      0x1f\n        /* \"#utility.yul\":3523:3528   */\n      dup4\n        /* \"#utility.yul\":3519:3533   */\n      add\n        /* \"#utility.yul\":3515:3543   */\n      and\n        /* \"#utility.yul\":3505:3543   */\n      swap1\n      pop\n        /* \"#utility.yul\":3447:3549   */\n      swap2\n      swap1\n      pop\n      jump\t// out\n        /* \"#utility.yul\":3555:3912   */\n    tag_268:\n        /* \"#utility.yul\":3633:3636   */\n      0x00\n        /* \"#utility.yul\":3661:3700   */\n      tag_371\n        /* \"#utility.yul\":3694:3699   */\n      dup3\n        /* \"#utility.yul\":3661:3700   */\n      tag_264\n      jump\t// in\n    tag_371:\n        /* \"#utility.yul\":3716:3777   */\n      tag_372\n        /* \"#utility.yul\":3770:3776   */\n      dup2\n        /* \"#utility.yul\":3765:3768   */\n      dup6\n        /* \"#utility.yul\":3716:3777   */\n      tag_265\n      jump\t// in\n    tag_372:\n        /* \"#utility.yul\":3709:3777   */\n      swap4\n      pop\n        /* \"#utility.yul\":3786:3851   */\n      tag_373\n        /* \"#utility.yul\":3844:3850   */\n      dup2\n        /* \"#utility.yul\":3839:3842   */\n      dup6\n        /* \"#utility.yul\":3832:3836   */\n      0x20\n        /* \"#utility.yul\":3825:3830   */\n      dup7\n        /* \"#utility.yul\":3821:3837   */\n      add\n        /* \"#utility.yul\":3786:3851   */\n      tag_266\n      jump\t// in\n    tag_373:\n        /* \"#utility.yul\":3876:3905   */\n      tag_374\n        /* \"#utility.yul\":3898:3904   */\n      dup2\n        /* \"#utility.yul\":3876:3905   */\n      tag_267\n      jump\t// in\n    tag_374:\n        /* \"#utility.yul\":3871:3874   */\n      dup5\n        /* \"#utility.yul\":3867:3906   */\n      add\n        /* \"#utility.yul\":3860:3906   */\n      swap2\n      pop\n        /* \"#utility.yul\":3637:3912   */\n      pop\n        /* \"#utility.yul\":3555:3912   */\n      swap3\n      swap2\n      pop\n      pop\n      jump\t// out\n        /* \"#utility.yul\":3918:4032   */\n    tag_269:\n        /* \"#utility.yul\":3985:3991   */\n      0x00\n        /* \"#utility.yul\":4019:4024   */\n      dup2\n        /* \"#utility.yul\":4013:4025   */\n      mload\n        /* \"#utility.yul\":4003:4025   */\n      swap1\n      pop\n        /* \"#utility.yul\":3918:4032   */\n      swap2\n      swap1\n      pop\n      jump\t// out\n        /* \"#utility.yul\":4038:4212   */\n    tag_270:\n        /* \"#utility.yul\":4127:4138   */\n      0x00\n        /* \"#utility.yul\":4161:4167   */\n      dup3\n        /* \"#utility.yul\":4156:4159   */\n      dup3\n        /* \"#utility.yul\":4149:4168   */\n      mstore\n        /* \"#utility.yul\":4201:4205   */\n      0x20\n        /* \"#utility.yul\":4196:4199   */\n      dup3\n        /* \"#utility.yul\":4192:4206   */\n      add\n        /* \"#utility.yul\":4177:4206   */\n      swap1\n      pop\n        /* \"#utility.yul\":4038:4212   */\n      swap3\n      swap2\n      pop\n      pop\n      jump\t// out\n        /* \"#utility.yul\":4218:4350   */\n    tag_271:\n        /* \"#utility.yul\":4285:4289   */\n      0x00\n        /* \"#utility.yul\":4308:4311   */\n      dup2\n        /* \"#utility.yul\":4300:4311   */\n      swap1\n      pop\n        /* \"#utility.yul\":4338:4342   */\n      0x20\n        /* \"#utility.yul\":4333:4336   */\n      dup3\n        /* \"#utility.yul\":4329:4343   */\n      add\n        /* \"#utility.yul\":4321:4343   */\n      swap1\n      pop\n        /* \"#utility.yul\":4218:4350   */\n      swap2\n      swap1\n      pop\n      jump\t// out\n        /* \"#utility.yul\":4356:4535   */\n    tag_272:\n        /* \"#utility.yul\":4425:4435   */\n      0x00\n        /* \"#utility.yul\":4446:4492   */\n      tag_379\n        /* \"#utility.yul\":4488:4491   */\n      dup4\n        /* \"#utility.yul\":4480:4486   */\n      dup4\n        /* \"#utility.yul\":4446:4492   */\n      tag_263\n      jump\t// in\n    tag_379:\n        /* \"#utility.yul\":4524:4528   */\n      0x20\n        /* \"#utility.yul\":4519:4522   */\n      dup4\n        /* \"#utility.yul\":4515:4529   */\n      add\n        /* \"#utility.yul\":4501:4529   */\n      swap1\n      pop\n        /* \"#utility.yul\":4356:4535   */\n      swap3\n      swap2\n      pop\n      pop\n      jump\t// out\n        /* \"#utility.yul\":4541:4654   */\n    tag_273:\n        /* \"#utility.yul\":4611:4615   */\n      0x00\n        /* \"#utility.yul\":4643:4647   */\n      0x20\n        /* \"#utility.yul\":4638:4641   */\n      dup3\n        /* \"#utility.yul\":4634:4648   */\n      add\n        /* \"#utility.yul\":4626:4648   */\n      swap1\n      pop\n        /* \"#utility.yul\":4541:4654   */\n      swap2\n      swap1\n      pop\n      jump\t// out\n        /* \"#utility.yul\":4690:5402   */\n    tag_274:\n        /* \"#utility.yul\":4799:4802   */\n      0x00\n        /* \"#utility.yul\":4828:4882   */\n      tag_382\n        /* \"#utility.yul\":4876:4881   */\n      dup3\n        /* \"#utility.yul\":4828:4882   */\n      tag_269\n      jump\t// in\n    tag_382:\n        /* \"#utility.yul\":4898:4974   */\n      tag_383\n        /* \"#utility.yul\":4967:4973   */\n      dup2\n        /* \"#utility.yul\":4962:4965   */\n      dup6\n        /* \"#utility.yul\":4898:4974   */\n      tag_270\n      jump\t// in\n    tag_383:\n        /* \"#utility.yul\":4891:4974   */\n      swap4\n      pop\n        /* \"#utility.yul\":4998:5054   */\n      tag_384\n        /* \"#utility.yul\":5048:5053   */\n      dup4\n        /* \"#utility.yul\":4998:5054   */\n      tag_271\n      jump\t// in\n    tag_384:\n        /* \"#utility.yul\":5077:5084   */\n      dup1\n        /* \"#utility.yul\":5108:5109   */\n      0x00\n        /* \"#utility.yul\":5093:5377   */\n    tag_385:\n        /* \"#utility.yul\":5118:5124   */\n      dup4\n        /* \"#utility.yul\":5115:5116   */\n      dup2\n        /* \"#utility.yul\":5112:5125   */\n      lt\n        /* \"#utility.yul\":5093:5377   */\n      iszero\n      tag_387\n      jumpi\n        /* \"#utility.yul\":5194:5200   */\n      dup2\n        /* \"#utility.yul\":5188:5201   */\n      mload\n        /* \"#utility.yul\":5221:5284   */\n      tag_388\n        /* \"#utility.yul\":5280:5283   */\n      dup9\n        /* \"#utility.yul\":5265:5278   */\n      dup3\n        /* \"#utility.yul\":5221:5284   */\n      tag_272\n      jump\t// in\n    tag_388:\n        /* \"#utility.yul\":5214:5284   */\n      swap8\n      pop\n        /* \"#utility.yul\":5307:5367   */\n      tag_389\n        /* \"#utility.yul\":5360:5366   */\n      dup4\n        /* \"#utility.yul\":5307:5367   */\n      tag_273\n      jump\t// in\n    tag_389:\n        /* \"#utility.yul\":5297:5367   */\n      swap3\n      pop\n        /* \"#utility.yul\":5153:5377   */\n      pop\n        /* \"#utility.yul\":5140:5141   */\n      0x01\n        /* \"#utility.yul\":5137:5138   */\n      dup2\n        /* \"#utility.yul\":5133:5142   */\n      add\n        /* \"#utility.yul\":5128:5142   */\n      swap1\n      pop\n        /* \"#utility.yul\":5093:5377   */\n      jump(tag_385)\n    tag_387:\n        /* \"#utility.yul\":5097:5111   */\n      pop\n        /* \"#utility.yul\":5393:5396   */\n      dup6\n        /* \"#utility.yul\":5386:5396   */\n      swap4\n      pop\n        /* \"#utility.yul\":4804:5402   */\n      pop\n      pop\n      pop\n        /* \"#utility.yul\":4690:5402   */\n      swap3\n      swap2\n      pop\n      pop\n      jump\t// out\n        /* \"#utility.yul\":5474:6950   */\n    tag_275:\n        /* \"#utility.yul\":5579:5582   */\n      0x00\n        /* \"#utility.yul\":5615:5619   */\n      0xc0\n        /* \"#utility.yul\":5610:5613   */\n      dup4\n        /* \"#utility.yul\":5606:5620   */\n      add\n        /* \"#utility.yul\":5700:5704   */\n      0x00\n        /* \"#utility.yul\":5693:5698   */\n      dup4\n        /* \"#utility.yul\":5689:5705   */\n      add\n        /* \"#utility.yul\":5683:5706   */\n      mload\n        /* \"#utility.yul\":5719:5782   */\n      tag_391\n        /* \"#utility.yul\":5776:5780   */\n      0x00\n        /* \"#utility.yul\":5771:5774   */\n      dup7\n        /* \"#utility.yul\":5767:5781   */\n      add\n        /* \"#utility.yul\":5753:5765   */\n      dup3\n        /* \"#utility.yul\":5719:5782   */\n      tag_263\n      jump\t// in\n    tag_391:\n        /* \"#utility.yul\":5630:5792   */\n      pop\n        /* \"#utility.yul\":5874:5878   */\n      0x20\n        /* \"#utility.yul\":5867:5872   */\n      dup4\n        /* \"#utility.yul\":5863:5879   */\n      add\n        /* \"#utility.yul\":5857:5880   */\n      mload\n        /* \"#utility.yul\":5927:5930   */\n      dup5\n        /* \"#utility.yul\":5921:5925   */\n      dup3\n        /* \"#utility.yul\":5917:5931   */\n      sub\n        /* \"#utility.yul\":5910:5914   */\n      0x20\n        /* \"#utility.yul\":5905:5908   */\n      dup7\n        /* \"#utility.yul\":5901:5915   */\n      add\n        /* \"#utility.yul\":5894:5932   */\n      mstore\n        /* \"#utility.yul\":5953:6026   */\n      tag_392\n        /* \"#utility.yul\":6021:6025   */\n      dup3\n        /* \"#utility.yul\":6007:6019   */\n      dup3\n        /* \"#utility.yul\":5953:6026   */\n      tag_268\n      jump\t// in\n    tag_392:\n        /* \"#utility.yul\":5945:6026   */\n      swap2\n      pop\n        /* \"#utility.yul\":5802:6037   */\n      pop\n        /* \"#utility.yul\":6126:6130   */\n      0x40\n        /* \"#utility.yul\":6119:6124   */\n      dup4\n        /* \"#utility.yul\":6115:6131   */\n      add\n        /* \"#utility.yul\":6109:6132   */\n      mload\n        /* \"#utility.yul\":6179:6182   */\n      dup5\n        /* \"#utility.yul\":6173:6177   */\n      dup3\n        /* \"#utility.yul\":6169:6183   */\n      sub\n        /* \"#utility.yul\":6162:6166   */\n      0x40\n        /* \"#utility.yul\":6157:6160   */\n      dup7\n        /* \"#utility.yul\":6153:6167   */\n      add\n        /* \"#utility.yul\":6146:6184   */\n      mstore\n        /* \"#utility.yul\":6205:6278   */\n      tag_393\n        /* \"#utility.yul\":6273:6277   */\n      dup3\n        /* \"#utility.yul\":6259:6271   */\n      dup3\n        /* \"#utility.yul\":6205:6278   */\n      tag_268\n      jump\t// in\n    tag_393:\n        /* \"#utility.yul\":6197:6278   */\n      swap2\n      pop\n        /* \"#utility.yul\":6047:6289   */\n      pop\n        /* \"#utility.yul\":6372:6376   */\n      0x60\n        /* \"#utility.yul\":6365:6370   */\n      dup4\n        /* \"#utility.yul\":6361:6377   */\n      add\n        /* \"#utility.yul\":6355:6378   */\n      mload\n        /* \"#utility.yul\":6391:6454   */\n      tag_394\n        /* \"#utility.yul\":6448:6452   */\n      0x60\n        /* \"#utility.yul\":6443:6446   */\n      dup7\n        /* \"#utility.yul\":6439:6453   */\n      add\n        /* \"#utility.yul\":6425:6437   */\n      dup3\n        /* \"#utility.yul\":6391:6454   */\n      tag_263\n      jump\t// in\n    tag_394:\n        /* \"#utility.yul\":6299:6464   */\n      pop\n        /* \"#utility.yul\":6550:6554   */\n      0x80\n        /* \"#utility.yul\":6543:6548   */\n      dup4\n        /* \"#utility.yul\":6539:6555   */\n      add\n        /* \"#utility.yul\":6533:6556   */\n      mload\n        /* \"#utility.yul\":6569:6632   */\n      tag_395\n        /* \"#utility.yul\":6626:6630   */\n      0x80\n        /* \"#utility.yul\":6621:6624   */\n      dup7\n        /* \"#utility.yul\":6617:6631   */\n      add\n        /* \"#utility.yul\":6603:6615   */\n      dup3\n        /* \"#utility.yul\":6569:6632   */\n      tag_263\n      jump\t// in\n    tag_395:\n        /* \"#utility.yul\":6474:6642   */\n      pop\n        /* \"#utility.yul\":6730:6734   */\n      0xa0\n        /* \"#utility.yul\":6723:6728   */\n      dup4\n        /* \"#utility.yul\":6719:6735   */\n      add\n        /* \"#utility.yul\":6713:6736   */\n      mload\n        /* \"#utility.yul\":6783:6786   */\n      dup5\n        /* \"#utility.yul\":6777:6781   */\n      dup3\n        /* \"#utility.yul\":6773:6787   */\n      sub\n        /* \"#utility.yul\":6766:6770   */\n      0xa0\n        /* \"#utility.yul\":6761:6764   */\n      dup7\n        /* \"#utility.yul\":6757:6771   */\n      add\n        /* \"#utility.yul\":6750:6788   */\n      mstore\n        /* \"#utility.yul\":6809:6912   */\n      tag_396\n        /* \"#utility.yul\":6907:6911   */\n      dup3\n        /* \"#utility.yul\":6893:6905   */\n      dup3\n        /* \"#utility.yul\":6809:6912   */\n      tag_274\n      jump\t// in\n    tag_396:\n        /* \"#utility.yul\":6801:6912   */\n      swap2\n      pop\n        /* \"#utility.yul\":6652:6923   */\n      pop\n        /* \"#utility.yul\":6940:6944   */\n      dup1\n        /* \"#utility.yul\":6933:6944   */\n      swap2\n      pop\n        /* \"#utility.yul\":5584:6950   */\n      pop\n        /* \"#utility.yul\":5474:6950   */\n      swap3\n      swap2\n      pop\n      pop\n      jump\t// out\n        /* \"#utility.yul\":6956:7204   */\n    tag_276:\n        /* \"#utility.yul\":7071:7081   */\n      0x00\n        /* \"#utility.yul\":7106:7198   */\n      tag_398\n        /* \"#utility.yul\":7194:7197   */\n      dup4\n        /* \"#utility.yul\":7186:7192   */\n      dup4\n        /* \"#utility.yul\":7106:7198   */\n      tag_275\n      jump\t// in\n    tag_398:\n        /* \"#utility.yul\":7092:7198   */\n      swap1\n      pop\n        /* \"#utility.yul\":6956:7204   */\n      swap3\n      swap2\n      pop\n      pop\n      jump\t// out\n        /* \"#utility.yul\":7210:7346   */\n    tag_277:\n        /* \"#utility.yul\":7303:7307   */\n      0x00\n        /* \"#utility.yul\":7335:7339   */\n      0x20\n        /* \"#utility.yul\":7330:7333   */\n      dup3\n        /* \"#utility.yul\":7326:7340   */\n      add\n        /* \"#utility.yul\":7318:7340   */\n      swap1\n      pop\n        /* \"#utility.yul\":7210:7346   */\n      swap2\n      swap1\n      pop\n      jump\t// out\n        /* \"#utility.yul\":7422:8517   */\n    tag_278:\n        /* \"#utility.yul\":7587:7590   */\n      0x00\n        /* \"#utility.yul\":7616:7693   */\n      tag_401\n        /* \"#utility.yul\":7687:7692   */\n      dup3\n        /* \"#utility.yul\":7616:7693   */\n      tag_260\n      jump\t// in\n    tag_401:\n        /* \"#utility.yul\":7709:7818   */\n      tag_402\n        /* \"#utility.yul\":7811:7817   */\n      dup2\n        /* \"#utility.yul\":7806:7809   */\n      dup6\n        /* \"#utility.yul\":7709:7818   */\n      tag_261\n      jump\t// in\n    tag_402:\n        /* \"#utility.yul\":7702:7818   */\n      swap4\n      pop\n        /* \"#utility.yul\":7844:7847   */\n      dup4\n        /* \"#utility.yul\":7889:7893   */\n      0x20\n        /* \"#utility.yul\":7881:7887   */\n      dup3\n        /* \"#utility.yul\":7877:7894   */\n      mul\n        /* \"#utility.yul\":7872:7875   */\n      dup6\n        /* \"#utility.yul\":7868:7895   */\n      add\n        /* \"#utility.yul\":7919:7998   */\n      tag_403\n        /* \"#utility.yul\":7992:7997   */\n      dup6\n        /* \"#utility.yul\":7919:7998   */\n      tag_262\n      jump\t// in\n    tag_403:\n        /* \"#utility.yul\":8021:8028   */\n      dup1\n        /* \"#utility.yul\":8052:8053   */\n      0x00\n        /* \"#utility.yul\":8037:8472   */\n    tag_404:\n        /* \"#utility.yul\":8062:8068   */\n      dup6\n        /* \"#utility.yul\":8059:8060   */\n      dup2\n        /* \"#utility.yul\":8056:8069   */\n      lt\n        /* \"#utility.yul\":8037:8472   */\n      iszero\n      tag_406\n      jumpi\n        /* \"#utility.yul\":8133:8142   */\n      dup5\n        /* \"#utility.yul\":8127:8131   */\n      dup5\n        /* \"#utility.yul\":8123:8143   */\n      sub\n        /* \"#utility.yul\":8118:8121   */\n      dup10\n        /* \"#utility.yul\":8111:8144   */\n      mstore\n        /* \"#utility.yul\":8184:8190   */\n      dup2\n        /* \"#utility.yul\":8178:8191   */\n      mload\n        /* \"#utility.yul\":8212:8322   */\n      tag_407\n        /* \"#utility.yul\":8317:8321   */\n      dup6\n        /* \"#utility.yul\":8302:8315   */\n      dup3\n        /* \"#utility.yul\":8212:8322   */\n      tag_276\n      jump\t// in\n    tag_407:\n        /* \"#utility.yul\":8204:8322   */\n      swap5\n      pop\n        /* \"#utility.yul\":8345:8428   */\n      tag_408\n        /* \"#utility.yul\":8421:8427   */\n      dup4\n        /* \"#utility.yul\":8345:8428   */\n      tag_277\n      jump\t// in\n    tag_408:\n        /* \"#utility.yul\":8335:8428   */\n      swap3\n      pop\n        /* \"#utility.yul\":8457:8461   */\n      0x20\n        /* \"#utility.yul\":8452:8455   */\n      dup11\n        /* \"#utility.yul\":8448:8462   */\n      add\n        /* \"#utility.yul\":8441:8462   */\n      swap10\n      pop\n        /* \"#utility.yul\":8097:8472   */\n      pop\n        /* \"#utility.yul\":8084:8085   */\n      0x01\n        /* \"#utility.yul\":8081:8082   */\n      dup2\n        /* \"#utility.yul\":8077:8086   */\n      add\n        /* \"#utility.yul\":8072:8086   */\n      swap1\n      pop\n        /* \"#utility.yul\":8037:8472   */\n      jump(tag_404)\n    tag_406:\n        /* \"#utility.yul\":8041:8055   */\n      pop\n        /* \"#utility.yul\":8488:8492   */\n      dup3\n        /* \"#utility.yul\":8481:8492   */\n      swap8\n      pop\n        /* \"#utility.yul\":8508:8511   */\n      dup8\n        /* \"#utility.yul\":8501:8511   */\n      swap6\n      pop\n        /* \"#utility.yul\":7592:8517   */\n      pop\n      pop\n      pop\n      pop\n      pop\n        /* \"#utility.yul\":7422:8517   */\n      swap3\n      swap2\n      pop\n      pop\n      jump\t// out\n        /* \"#utility.yul\":8523:8988   */\n    tag_42:\n        /* \"#utility.yul\":8712:8716   */\n      0x00\n        /* \"#utility.yul\":8750:8752   */\n      0x20\n        /* \"#utility.yul\":8739:8748   */\n      dup3\n        /* \"#utility.yul\":8735:8753   */\n      add\n        /* \"#utility.yul\":8727:8753   */\n      swap1\n      pop\n        /* \"#utility.yul\":8799:8808   */\n      dup2\n        /* \"#utility.yul\":8793:8797   */\n      dup2\n        /* \"#utility.yul\":8789:8809   */\n      sub\n        /* \"#utility.yul\":8785:8786   */\n      0x00\n        /* \"#utility.yul\":8774:8783   */\n      dup4\n        /* \"#utility.yul\":8770:8787   */\n      add\n        /* \"#utility.yul\":8763:8810   */\n      mstore\n        /* \"#utility.yul\":8827:8981   */\n      tag_410\n        /* \"#utility.yul\":8976:8980   */\n      dup2\n        /* \"#utility.yul\":8967:8973   */\n      dup5\n        /* \"#utility.yul\":8827:8981   */\n      tag_278\n      jump\t// in\n    tag_410:\n        /* \"#utility.yul\":8819:8981   */\n      swap1\n      pop\n        /* \"#utility.yul\":8523:8988   */\n      swap3\n      swap2\n      pop\n      pop\n      jump\t// out\n        /* \"#utility.yul\":8994:9163   */\n    tag_279:\n        /* \"#utility.yul\":9078:9089   */\n      0x00\n        /* \"#utility.yul\":9112:9118   */\n      dup3\n        /* \"#utility.yul\":9107:9110   */\n      dup3\n        /* \"#utility.yul\":9100:9119   */\n      mstore\n        /* \"#utility.yul\":9152:9156   */\n      0x20\n        /* \"#utility.yul\":9147:9150   */\n      dup3\n        /* \"#utility.yul\":9143:9157   */\n      add\n        /* \"#utility.yul\":9128:9157   */\n      swap1\n      pop\n        /* \"#utility.yul\":8994:9163   */\n      swap3\n      swap2\n      pop\n      pop\n      jump\t// out\n        /* \"#utility.yul\":9169:9546   */\n    tag_280:\n        /* \"#utility.yul\":9257:9260   */\n      0x00\n        /* \"#utility.yul\":9285:9324   */\n      tag_413\n        /* \"#utility.yul\":9318:9323   */\n      dup3\n        /* \"#utility.yul\":9285:9324   */\n      tag_264\n      jump\t// in\n    tag_413:\n        /* \"#utility.yul\":9340:9411   */\n      tag_414\n        /* \"#utility.yul\":9404:9410   */\n      dup2\n        /* \"#utility.yul\":9399:9402   */\n      dup6\n        /* \"#utility.yul\":9340:9411   */\n      tag_279\n      jump\t// in\n    tag_414:\n        /* \"#utility.yul\":9333:9411   */\n      swap4\n      pop\n        /* \"#utility.yul\":9420:9485   */\n      tag_415\n        /* \"#utility.yul\":9478:9484   */\n      dup2\n        /* \"#utility.yul\":9473:9476   */\n      dup6\n        /* \"#utility.yul\":9466:9470   */\n      0x20\n        /* \"#utility.yul\":9459:9464   */\n      dup7\n        /* \"#utility.yul\":9455:9471   */\n      add\n        /* \"#utility.yul\":9420:9485   */\n      tag_266\n      jump\t// in\n    tag_415:\n        /* \"#utility.yul\":9510:9539   */\n      tag_416\n        /* \"#utility.yul\":9532:9538   */\n      dup2\n        /* \"#utility.yul\":9510:9539   */\n      tag_267\n      jump\t// in\n    tag_416:\n        /* \"#utility.yul\":9505:9508   */\n      dup5\n        /* \"#utility.yul\":9501:9540   */\n      add\n        /* \"#utility.yul\":9494:9540   */\n      swap2\n      pop\n        /* \"#utility.yul\":9261:9546   */\n      pop\n        /* \"#utility.yul\":9169:9546   */\n      swap3\n      swap2\n      pop\n      pop\n      jump\t// out\n        /* \"#utility.yul\":9552:10398   */\n    tag_47:\n        /* \"#utility.yul\":9797:9801   */\n      0x00\n        /* \"#utility.yul\":9835:9838   */\n      0xa0\n        /* \"#utility.yul\":9824:9833   */\n      dup3\n        /* \"#utility.yul\":9820:9839   */\n      add\n        /* \"#utility.yul\":9812:9839   */\n      swap1\n      pop\n        /* \"#utility.yul\":9849:9920   */\n      tag_418\n        /* \"#utility.yul\":9917:9918   */\n      0x00\n        /* \"#utility.yul\":9906:9915   */\n      dup4\n        /* \"#utility.yul\":9902:9919   */\n      add\n        /* \"#utility.yul\":9893:9899   */\n      dup9\n        /* \"#utility.yul\":9849:9920   */\n      tag_256\n      jump\t// in\n    tag_418:\n        /* \"#utility.yul\":9967:9976   */\n      dup2\n        /* \"#utility.yul\":9961:9965   */\n      dup2\n        /* \"#utility.yul\":9957:9977   */\n      sub\n        /* \"#utility.yul\":9952:9954   */\n      0x20\n        /* \"#utility.yul\":9941:9950   */\n      dup4\n        /* \"#utility.yul\":9937:9955   */\n      add\n        /* \"#utility.yul\":9930:9978   */\n      mstore\n        /* \"#utility.yul\":9995:10073   */\n      tag_419\n        /* \"#utility.yul\":10068:10072   */\n      dup2\n        /* \"#utility.yul\":10059:10065   */\n      dup8\n        /* \"#utility.yul\":9995:10073   */\n      tag_280\n      jump\t// in\n    tag_419:\n        /* \"#utility.yul\":9987:10073   */\n      swap1\n      pop\n        /* \"#utility.yul\":10120:10129   */\n      dup2\n        /* \"#utility.yul\":10114:10118   */\n      dup2\n        /* \"#utility.yul\":10110:10130   */\n      sub\n        /* \"#utility.yul\":10105:10107   */\n      0x40\n        /* \"#utility.yul\":10094:10103   */\n      dup4\n        /* \"#utility.yul\":10090:10108   */\n      add\n        /* \"#utility.yul\":10083:10131   */\n      mstore\n        /* \"#utility.yul\":10148:10226   */\n      tag_420\n        /* \"#utility.yul\":10221:10225   */\n      dup2\n        /* \"#utility.yul\":10212:10218   */\n      dup7\n        /* \"#utility.yul\":10148:10226   */\n      tag_280\n      jump\t// in\n    tag_420:\n        /* \"#utility.yul\":10140:10226   */\n      swap1\n      pop\n        /* \"#utility.yul\":10236:10308   */\n      tag_421\n        /* \"#utility.yul\":10304:10306   */\n      0x60\n        /* \"#utility.yul\":10293:10302   */\n      dup4\n        /* \"#utility.yul\":10289:10307   */\n      add\n        /* \"#utility.yul\":10280:10286   */\n      dup6\n        /* \"#utility.yul\":10236:10308   */\n      tag_256\n      jump\t// in\n    tag_421:\n        /* \"#utility.yul\":10318:10391   */\n      tag_422\n        /* \"#utility.yul\":10386:10389   */\n      0x80\n        /* \"#utility.yul\":10375:10384   */\n      dup4\n        /* \"#utility.yul\":10371:10390   */\n      add\n        /* \"#utility.yul\":10362:10368   */\n      dup5\n        /* \"#utility.yul\":10318:10391   */\n      tag_256\n      jump\t// in\n    tag_422:\n        /* \"#utility.yul\":9552:10398   */\n      swap7\n      swap6\n      pop\n      pop\n      pop\n      pop\n      pop\n      pop\n      jump\t// out\n        /* \"#utility.yul\":10404:10521   */\n    tag_281:\n        /* \"#utility.yul\":10513:10514   */\n      0x00\n        /* \"#utility.yul\":10510:10511   */\n      dup1\n        /* \"#utility.yul\":10503:10515   */\n      revert\n        /* \"#utility.yul\":10527:10644   */\n    tag_282:\n        /* \"#utility.yul\":10636:10637   */\n      0x00\n        /* \"#utility.yul\":10633:10634   */\n      dup1\n        /* \"#utility.yul\":10626:10638   */\n      revert\n        /* \"#utility.yul\":10650:10767   */\n    tag_283:\n        /* \"#utility.yul\":10759:10760   */\n      0x00\n        /* \"#utility.yul\":10756:10757   */\n      dup1\n        /* \"#utility.yul\":10749:10761   */\n      revert\n        /* \"#utility.yul\":10787:11340   */\n    tag_284:\n        /* \"#utility.yul\":10845:10853   */\n      0x00\n        /* \"#utility.yul\":10855:10861   */\n      dup1\n        /* \"#utility.yul\":10905:10908   */\n      dup4\n        /* \"#utility.yul\":10898:10902   */\n      0x1f\n        /* \"#utility.yul\":10890:10896   */\n      dup5\n        /* \"#utility.yul\":10886:10903   */\n      add\n        /* \"#utility.yul\":10882:10909   */\n      slt\n        /* \"#utility.yul\":10872:10994   */\n      tag_427\n      jumpi\n        /* \"#utility.yul\":10913:10992   */\n      tag_428\n      tag_281\n      jump\t// in\n    tag_428:\n        /* \"#utility.yul\":10872:10994   */\n    tag_427:\n        /* \"#utility.yul\":11026:11032   */\n      dup3\n        /* \"#utility.yul\":11013:11033   */\n      calldataload\n        /* \"#utility.yul\":11003:11033   */\n      swap1\n      pop\n        /* \"#utility.yul\":11056:11074   */\n      0xffffffffffffffff\n        /* \"#utility.yul\":11048:11054   */\n      dup2\n        /* \"#utility.yul\":11045:11075   */\n      gt\n        /* \"#utility.yul\":11042:11159   */\n      iszero\n      tag_429\n      jumpi\n        /* \"#utility.yul\":11078:11157   */\n      tag_430\n      tag_282\n      jump\t// in\n    tag_430:\n        /* \"#utility.yul\":11042:11159   */\n    tag_429:\n        /* \"#utility.yul\":11192:11196   */\n      0x20\n        /* \"#utility.yul\":11184:11190   */\n      dup4\n        /* \"#utility.yul\":11180:11197   */\n      add\n        /* \"#utility.yul\":11168:11197   */\n      swap2\n      pop\n        /* \"#utility.yul\":11246:11249   */\n      dup4\n        /* \"#utility.yul\":11238:11242   */\n      0x01\n        /* \"#utility.yul\":11230:11236   */\n      dup3\n        /* \"#utility.yul\":11226:11243   */\n      mul\n        /* \"#utility.yul\":11216:11224   */\n      dup4\n        /* \"#utility.yul\":11212:11244   */\n      add\n        /* \"#utility.yul\":11209:11250   */\n      gt\n        /* \"#utility.yul\":11206:11334   */\n      iszero\n      tag_431\n      jumpi\n        /* \"#utility.yul\":11253:11332   */\n      tag_432\n      tag_283\n      jump\t// in\n    tag_432:\n        /* \"#utility.yul\":11206:11334   */\n    tag_431:\n        /* \"#utility.yul\":10787:11340   */\n      swap3\n      pop\n      swap3\n      swap1\n      pop\n      jump\t// out\n        /* \"#utility.yul\":11346:12511   */\n    tag_50:\n        /* \"#utility.yul\":11456:11462   */\n      0x00\n        /* \"#utility.yul\":11464:11470   */\n      dup1\n        /* \"#utility.yul\":11472:11478   */\n      0x00\n        /* \"#utility.yul\":11480:11486   */\n      dup1\n        /* \"#utility.yul\":11488:11494   */\n      0x00\n        /* \"#utility.yul\":11496:11502   */\n      dup1\n        /* \"#utility.yul\":11545:11548   */\n      0x80\n        /* \"#utility.yul\":11533:11542   */\n      dup8\n        /* \"#utility.yul\":11524:11531   */\n      dup10\n        /* \"#utility.yul\":11520:11543   */\n      sub\n        /* \"#utility.yul\":11516:11549   */\n      slt\n        /* \"#utility.yul\":11513:11633   */\n      iszero\n      tag_434\n      jumpi\n        /* \"#utility.yul\":11552:11631   */\n      tag_435\n      tag_251\n      jump\t// in\n    tag_435:\n        /* \"#utility.yul\":11513:11633   */\n    tag_434:\n        /* \"#utility.yul\":11700:11701   */\n      0x00\n        /* \"#utility.yul\":11689:11698   */\n      dup8\n        /* \"#utility.yul\":11685:11702   */\n      add\n        /* \"#utility.yul\":11672:11703   */\n      calldataload\n        /* \"#utility.yul\":11730:11748   */\n      0xffffffffffffffff\n        /* \"#utility.yul\":11722:11728   */\n      dup2\n        /* \"#utility.yul\":11719:11749   */\n      gt\n        /* \"#utility.yul\":11716:11833   */\n      iszero\n      tag_436\n      jumpi\n        /* \"#utility.yul\":11752:11831   */\n      tag_437\n      tag_252\n      jump\t// in\n    tag_437:\n        /* \"#utility.yul\":11716:11833   */\n    tag_436:\n        /* \"#utility.yul\":11865:11930   */\n      tag_438\n        /* \"#utility.yul\":11922:11929   */\n      dup10\n        /* \"#utility.yul\":11913:11919   */\n      dup3\n        /* \"#utility.yul\":11902:11911   */\n      dup11\n        /* \"#utility.yul\":11898:11920   */\n      add\n        /* \"#utility.yul\":11865:11930   */\n      tag_284\n      jump\t// in\n    tag_438:\n        /* \"#utility.yul\":11847:11930   */\n      swap7\n      pop\n      swap7\n      pop\n        /* \"#utility.yul\":11643:11940   */\n      pop\n        /* \"#utility.yul\":12007:12009   */\n      0x20\n        /* \"#utility.yul\":11996:12005   */\n      dup8\n        /* \"#utility.yul\":11992:12010   */\n      add\n        /* \"#utility.yul\":11979:12011   */\n      calldataload\n        /* \"#utility.yul\":12038:12056   */\n      0xffffffffffffffff\n        /* \"#utility.yul\":12030:12036   */\n      dup2\n        /* \"#utility.yul\":12027:12057   */\n      gt\n        /* \"#utility.yul\":12024:12141   */\n      iszero\n      tag_439\n      jumpi\n        /* \"#utility.yul\":12060:12139   */\n      tag_440\n      tag_252\n      jump\t// in\n    tag_440:\n        /* \"#utility.yul\":12024:12141   */\n    tag_439:\n        /* \"#utility.yul\":12173:12238   */\n      tag_441\n        /* \"#utility.yul\":12230:12237   */\n      dup10\n        /* \"#utility.yul\":12221:12227   */\n      dup3\n        /* \"#utility.yul\":12210:12219   */\n      dup11\n        /* \"#utility.yul\":12206:12228   */\n      add\n        /* \"#utility.yul\":12173:12238   */\n      tag_284\n      jump\t// in\n    tag_441:\n        /* \"#utility.yul\":12155:12238   */\n      swap5\n      pop\n      swap5\n      pop\n        /* \"#utility.yul\":11950:12248   */\n      pop\n        /* \"#utility.yul\":12287:12289   */\n      0x40\n        /* \"#utility.yul\":12313:12366   */\n      tag_442\n        /* \"#utility.yul\":12358:12365   */\n      dup10\n        /* \"#utility.yul\":12349:12355   */\n      dup3\n        /* \"#utility.yul\":12338:12347   */\n      dup11\n        /* \"#utility.yul\":12334:12356   */\n      add\n        /* \"#utility.yul\":12313:12366   */\n      tag_255\n      jump\t// in\n    tag_442:\n        /* \"#utility.yul\":12303:12366   */\n      swap3\n      pop\n        /* \"#utility.yul\":12258:12376   */\n      pop\n        /* \"#utility.yul\":12415:12417   */\n      0x60\n        /* \"#utility.yul\":12441:12494   */\n      tag_443\n        /* \"#utility.yul\":12486:12493   */\n      dup10\n        /* \"#utility.yul\":12477:12483   */\n      dup3\n        /* \"#utility.yul\":12466:12475   */\n      dup11\n        /* \"#utility.yul\":12462:12484   */\n      add\n        /* \"#utility.yul\":12441:12494   */\n      tag_255\n      jump\t// in\n    tag_443:\n        /* \"#utility.yul\":12431:12494   */\n      swap2\n      pop\n        /* \"#utility.yul\":12386:12504   */\n      pop\n        /* \"#utility.yul\":11346:12511   */\n      swap3\n      swap6\n      pop\n      swap3\n      swap6\n      pop\n      swap3\n      swap6\n      jump\t// out\n        /* \"#utility.yul\":12517:12991   */\n    tag_58:\n        /* \"#utility.yul\":12585:12591   */\n      0x00\n        /* \"#utility.yul\":12593:12599   */\n      dup1\n        /* \"#utility.yul\":12642:12644   */\n      0x40\n        /* \"#utility.yul\":12630:12639   */\n      dup4\n        /* \"#utility.yul\":12621:12628   */\n      dup6\n        /* \"#utility.yul\":12617:12640   */\n      sub\n        /* \"#utility.yul\":12613:12645   */\n      slt\n        /* \"#utility.yul\":12610:12729   */\n      iszero\n      tag_445\n      jumpi\n        /* \"#utility.yul\":12648:12727   */\n      tag_446\n      tag_251\n      jump\t// in\n    tag_446:\n        /* \"#utility.yul\":12610:12729   */\n    tag_445:\n        /* \"#utility.yul\":12768:12769   */\n      0x00\n        /* \"#utility.yul\":12793:12846   */\n      tag_447\n        /* \"#utility.yul\":12838:12845   */\n      dup6\n        /* \"#utility.yul\":12829:12835   */\n      dup3\n        /* \"#utility.yul\":12818:12827   */\n      dup7\n        /* \"#utility.yul\":12814:12836   */\n      add\n        /* \"#utility.yul\":12793:12846   */\n      tag_255\n      jump\t// in\n    tag_447:\n        /* \"#utility.yul\":12783:12846   */\n      swap3\n      pop\n        /* \"#utility.yul\":12739:12856   */\n      pop\n        /* \"#utility.yul\":12895:12897   */\n      0x20\n        /* \"#utility.yul\":12921:12974   */\n      tag_448\n        /* \"#utility.yul\":12966:12973   */\n      dup6\n        /* \"#utility.yul\":12957:12963   */\n      dup3\n        /* \"#utility.yul\":12946:12955   */\n      dup7\n        /* \"#utility.yul\":12942:12964   */\n      add\n        /* \"#utility.yul\":12921:12974   */\n      tag_255\n      jump\t// in\n    tag_448:\n        /* \"#utility.yul\":12911:12974   */\n      swap2\n      pop\n        /* \"#utility.yul\":12866:12984   */\n      pop\n        /* \"#utility.yul\":12517:12991   */\n      swap3\n      pop\n      swap3\n      swap1\n      pop\n      jump\t// out\n        /* \"#utility.yul\":13014:13582   */\n    tag_285:\n        /* \"#utility.yul\":13087:13095   */\n      0x00\n        /* \"#utility.yul\":13097:13103   */\n      dup1\n        /* \"#utility.yul\":13147:13150   */\n      dup4\n        /* \"#utility.yul\":13140:13144   */\n      0x1f\n        /* \"#utility.yul\":13132:13138   */\n      dup5\n        /* \"#utility.yul\":13128:13145   */\n      add\n        /* \"#utility.yul\":13124:13151   */\n      slt\n        /* \"#utility.yul\":13114:13236   */\n      tag_450\n      jumpi\n        /* \"#utility.yul\":13155:13234   */\n      tag_451\n      tag_281\n      jump\t// in\n    tag_451:\n        /* \"#utility.yul\":13114:13236   */\n    tag_450:\n        /* \"#utility.yul\":13268:13274   */\n      dup3\n        /* \"#utility.yul\":13255:13275   */\n      calldataload\n        /* \"#utility.yul\":13245:13275   */\n      swap1\n      pop\n        /* \"#utility.yul\":13298:13316   */\n      0xffffffffffffffff\n        /* \"#utility.yul\":13290:13296   */\n      dup2\n        /* \"#utility.yul\":13287:13317   */\n      gt\n        /* \"#utility.yul\":13284:13401   */\n      iszero\n      tag_452\n      jumpi\n        /* \"#utility.yul\":13320:13399   */\n      tag_453\n      tag_282\n      jump\t// in\n    tag_453:\n        /* \"#utility.yul\":13284:13401   */\n    tag_452:\n        /* \"#utility.yul\":13434:13438   */\n      0x20\n        /* \"#utility.yul\":13426:13432   */\n      dup4\n        /* \"#utility.yul\":13422:13439   */\n      add\n        /* \"#utility.yul\":13410:13439   */\n      swap2\n      pop\n        /* \"#utility.yul\":13488:13491   */\n      dup4\n        /* \"#utility.yul\":13480:13484   */\n      0x20\n        /* \"#utility.yul\":13472:13478   */\n      dup3\n        /* \"#utility.yul\":13468:13485   */\n      mul\n        /* \"#utility.yul\":13458:13466   */\n      dup4\n        /* \"#utility.yul\":13454:13486   */\n      add\n        /* \"#utility.yul\":13451:13492   */\n      gt\n        /* \"#utility.yul\":13448:13576   */\n      iszero\n      tag_454\n      jumpi\n        /* \"#utility.yul\":13495:13574   */\n      tag_455\n      tag_283\n      jump\t// in\n    tag_455:\n        /* \"#utility.yul\":13448:13576   */\n    tag_454:\n        /* \"#utility.yul\":13014:13582   */\n      swap3\n      pop\n      swap3\n      swap1\n      pop\n      jump\t// out\n        /* \"#utility.yul\":13588:15129   */\n    tag_62:\n        /* \"#utility.yul\":13734:13740   */\n      0x00\n        /* \"#utility.yul\":13742:13748   */\n      dup1\n        /* \"#utility.yul\":13750:13756   */\n      0x00\n        /* \"#utility.yul\":13758:13764   */\n      dup1\n        /* \"#utility.yul\":13766:13772   */\n      0x00\n        /* \"#utility.yul\":13774:13780   */\n      dup1\n        /* \"#utility.yul\":13782:13788   */\n      0x00\n        /* \"#utility.yul\":13790:13796   */\n      dup1\n        /* \"#utility.yul\":13839:13842   */\n      0xa0\n        /* \"#utility.yul\":13827:13836   */\n      dup10\n        /* \"#utility.yul\":13818:13825   */\n      dup12\n        /* \"#utility.yul\":13814:13837   */\n      sub\n        /* \"#utility.yul\":13810:13843   */\n      slt\n        /* \"#utility.yul\":13807:13927   */\n      iszero\n      tag_457\n      jumpi\n        /* \"#utility.yul\":13846:13925   */\n      tag_458\n      tag_251\n      jump\t// in\n    tag_458:\n        /* \"#utility.yul\":13807:13927   */\n    tag_457:\n        /* \"#utility.yul\":13994:13995   */\n      0x00\n        /* \"#utility.yul\":13983:13992   */\n      dup10\n        /* \"#utility.yul\":13979:13996   */\n      add\n        /* \"#utility.yul\":13966:13997   */\n      calldataload\n        /* \"#utility.yul\":14024:14042   */\n      0xffffffffffffffff\n        /* \"#utility.yul\":14016:14022   */\n      dup2\n        /* \"#utility.yul\":14013:14043   */\n      gt\n        /* \"#utility.yul\":14010:14127   */\n      iszero\n      tag_459\n      jumpi\n        /* \"#utility.yul\":14046:14125   */\n      tag_460\n      tag_252\n      jump\t// in\n    tag_460:\n        /* \"#utility.yul\":14010:14127   */\n    tag_459:\n        /* \"#utility.yul\":14159:14224   */\n      tag_461\n        /* \"#utility.yul\":14216:14223   */\n      dup12\n        /* \"#utility.yul\":14207:14213   */\n      dup3\n        /* \"#utility.yul\":14196:14205   */\n      dup13\n        /* \"#utility.yul\":14192:14214   */\n      add\n        /* \"#utility.yul\":14159:14224   */\n      tag_284\n      jump\t// in\n    tag_461:\n        /* \"#utility.yul\":14141:14224   */\n      swap9\n      pop\n      swap9\n      pop\n        /* \"#utility.yul\":13937:14234   */\n      pop\n        /* \"#utility.yul\":14301:14303   */\n      0x20\n        /* \"#utility.yul\":14290:14299   */\n      dup10\n        /* \"#utility.yul\":14286:14304   */\n      add\n        /* \"#utility.yul\":14273:14305   */\n      calldataload\n        /* \"#utility.yul\":14332:14350   */\n      0xffffffffffffffff\n        /* \"#utility.yul\":14324:14330   */\n      dup2\n        /* \"#utility.yul\":14321:14351   */\n      gt\n        /* \"#utility.yul\":14318:14435   */\n      iszero\n      tag_462\n      jumpi\n        /* \"#utility.yul\":14354:14433   */\n      tag_463\n      tag_252\n      jump\t// in\n    tag_463:\n        /* \"#utility.yul\":14318:14435   */\n    tag_462:\n        /* \"#utility.yul\":14467:14532   */\n      tag_464\n        /* \"#utility.yul\":14524:14531   */\n      dup12\n        /* \"#utility.yul\":14515:14521   */\n      dup3\n        /* \"#utility.yul\":14504:14513   */\n      dup13\n        /* \"#utility.yul\":14500:14522   */\n      add\n        /* \"#utility.yul\":14467:14532   */\n      tag_284\n      jump\t// in\n    tag_464:\n        /* \"#utility.yul\":14449:14532   */\n      swap7\n      pop\n      swap7\n      pop\n        /* \"#utility.yul\":14244:14542   */\n      pop\n        /* \"#utility.yul\":14581:14583   */\n      0x40\n        /* \"#utility.yul\":14607:14660   */\n      tag_465\n        /* \"#utility.yul\":14652:14659   */\n      dup12\n        /* \"#utility.yul\":14643:14649   */\n      dup3\n        /* \"#utility.yul\":14632:14641   */\n      dup13\n        /* \"#utility.yul\":14628:14650   */\n      add\n        /* \"#utility.yul\":14607:14660   */\n      tag_255\n      jump\t// in\n    tag_465:\n        /* \"#utility.yul\":14597:14660   */\n      swap5\n      pop\n        /* \"#utility.yul\":14552:14670   */\n      pop\n        /* \"#utility.yul\":14709:14711   */\n      0x60\n        /* \"#utility.yul\":14735:14788   */\n      tag_466\n        /* \"#utility.yul\":14780:14787   */\n      dup12\n        /* \"#utility.yul\":14771:14777   */\n      dup3\n        /* \"#utility.yul\":14760:14769   */\n      dup13\n        /* \"#utility.yul\":14756:14778   */\n      add\n        /* \"#utility.yul\":14735:14788   */\n      tag_255\n      jump\t// in\n    tag_466:\n        /* \"#utility.yul\":14725:14788   */\n      swap4\n      pop\n        /* \"#utility.yul\":14680:14798   */\n      pop\n        /* \"#utility.yul\":14865:14868   */\n      0x80\n        /* \"#utility.yul\":14854:14863   */\n      dup10\n        /* \"#utility.yul\":14850:14869   */\n      add\n        /* \"#utility.yul\":14837:14870   */\n      calldataload\n        /* \"#utility.yul\":14897:14915   */\n      0xffffffffffffffff\n        /* \"#utility.yul\":14889:14895   */\n      dup2\n        /* \"#utility.yul\":14886:14916   */\n      gt\n        /* \"#utility.yul\":14883:15000   */\n      iszero\n      tag_467\n      jumpi\n        /* \"#utility.yul\":14919:14998   */\n      tag_468\n      tag_252\n      jump\t// in\n    tag_468:\n        /* \"#utility.yul\":14883:15000   */\n    tag_467:\n        /* \"#utility.yul\":15032:15112   */\n      tag_469\n        /* \"#utility.yul\":15104:15111   */\n      dup12\n        /* \"#utility.yul\":15095:15101   */\n      dup3\n        /* \"#utility.yul\":15084:15093   */\n      dup13\n        /* \"#utility.yul\":15080:15102   */\n      add\n        /* \"#utility.yul\":15032:15112   */\n      tag_285\n      jump\t// in\n    tag_469:\n        /* \"#utility.yul\":15014:15112   */\n      swap3\n      pop\n      swap3\n      pop\n        /* \"#utility.yul\":14808:15122   */\n      pop\n        /* \"#utility.yul\":13588:15129   */\n      swap3\n      swap6\n      swap9\n      pop\n      swap3\n      swap6\n      swap9\n      swap1\n      swap4\n      swap7\n      pop\n      jump\t// out\n        /* \"#utility.yul\":15135:15272   */\n    tag_286:\n        /* \"#utility.yul\":15225:15231   */\n      0x00\n        /* \"#utility.yul\":15259:15264   */\n      dup2\n        /* \"#utility.yul\":15253:15265   */\n      mload\n        /* \"#utility.yul\":15243:15265   */\n      swap1\n      pop\n        /* \"#utility.yul\":15135:15272   */\n      swap2\n      swap1\n      pop\n      jump\t// out\n        /* \"#utility.yul\":15278:15485   */\n    tag_287:\n        /* \"#utility.yul\":15400:15411   */\n      0x00\n        /* \"#utility.yul\":15434:15440   */\n      dup3\n        /* \"#utility.yul\":15429:15432   */\n      dup3\n        /* \"#utility.yul\":15422:15441   */\n      mstore\n        /* \"#utility.yul\":15474:15478   */\n      0x20\n        /* \"#utility.yul\":15469:15472   */\n      dup3\n        /* \"#utility.yul\":15465:15479   */\n      add\n        /* \"#utility.yul\":15450:15479   */\n      swap1\n      pop\n        /* \"#utility.yul\":15278:15485   */\n      swap3\n      swap2\n      pop\n      pop\n      jump\t// out\n        /* \"#utility.yul\":15491:15646   */\n    tag_288:\n        /* \"#utility.yul\":15581:15585   */\n      0x00\n        /* \"#utility.yul\":15604:15607   */\n      dup2\n        /* \"#utility.yul\":15596:15607   */\n      swap1\n      pop\n        /* \"#utility.yul\":15634:15638   */\n      0x20\n        /* \"#utility.yul\":15629:15632   */\n      dup3\n        /* \"#utility.yul\":15625:15639   */\n      add\n        /* \"#utility.yul\":15617:15639   */\n      swap1\n      pop\n        /* \"#utility.yul\":15491:15646   */\n      swap2\n      swap1\n      pop\n      jump\t// out\n        /* \"#utility.yul\":15718:16915   */\n    tag_289:\n        /* \"#utility.yul\":15823:15826   */\n      0x00\n        /* \"#utility.yul\":15859:15863   */\n      0xa0\n        /* \"#utility.yul\":15854:15857   */\n      dup4\n        /* \"#utility.yul\":15850:15864   */\n      add\n        /* \"#utility.yul\":15944:15948   */\n      0x00\n        /* \"#utility.yul\":15937:15942   */\n      dup4\n        /* \"#utility.yul\":15933:15949   */\n      add\n        /* \"#utility.yul\":15927:15950   */\n      mload\n        /* \"#utility.yul\":15963:16026   */\n      tag_474\n        /* \"#utility.yul\":16020:16024   */\n      0x00\n        /* \"#utility.yul\":16015:16018   */\n      dup7\n        /* \"#utility.yul\":16011:16025   */\n      add\n        /* \"#utility.yul\":15997:16009   */\n      dup3\n        /* \"#utility.yul\":15963:16026   */\n      tag_263\n      jump\t// in\n    tag_474:\n        /* \"#utility.yul\":15874:16036   */\n      pop\n        /* \"#utility.yul\":16118:16122   */\n      0x20\n        /* \"#utility.yul\":16111:16116   */\n      dup4\n        /* \"#utility.yul\":16107:16123   */\n      add\n        /* \"#utility.yul\":16101:16124   */\n      mload\n        /* \"#utility.yul\":16171:16174   */\n      dup5\n        /* \"#utility.yul\":16165:16169   */\n      dup3\n        /* \"#utility.yul\":16161:16175   */\n      sub\n        /* \"#utility.yul\":16154:16158   */\n      0x20\n        /* \"#utility.yul\":16149:16152   */\n      dup7\n        /* \"#utility.yul\":16145:16159   */\n      add\n        /* \"#utility.yul\":16138:16176   */\n      mstore\n        /* \"#utility.yul\":16197:16270   */\n      tag_475\n        /* \"#utility.yul\":16265:16269   */\n      dup3\n        /* \"#utility.yul\":16251:16263   */\n      dup3\n        /* \"#utility.yul\":16197:16270   */\n      tag_268\n      jump\t// in\n    tag_475:\n        /* \"#utility.yul\":16189:16270   */\n      swap2\n      pop\n        /* \"#utility.yul\":16046:16281   */\n      pop\n        /* \"#utility.yul\":16370:16374   */\n      0x40\n        /* \"#utility.yul\":16363:16368   */\n      dup4\n        /* \"#utility.yul\":16359:16375   */\n      add\n        /* \"#utility.yul\":16353:16376   */\n      mload\n        /* \"#utility.yul\":16423:16426   */\n      dup5\n        /* \"#utility.yul\":16417:16421   */\n      dup3\n        /* \"#utility.yul\":16413:16427   */\n      sub\n        /* \"#utility.yul\":16406:16410   */\n      0x40\n        /* \"#utility.yul\":16401:16404   */\n      dup7\n        /* \"#utility.yul\":16397:16411   */\n      add\n        /* \"#utility.yul\":16390:16428   */\n      mstore\n        /* \"#utility.yul\":16449:16522   */\n      tag_476\n        /* \"#utility.yul\":16517:16521   */\n      dup3\n        /* \"#utility.yul\":16503:16515   */\n      dup3\n        /* \"#utility.yul\":16449:16522   */\n      tag_268\n      jump\t// in\n    tag_476:\n        /* \"#utility.yul\":16441:16522   */\n      swap2\n      pop\n        /* \"#utility.yul\":16291:16533   */\n      pop\n        /* \"#utility.yul\":16616:16620   */\n      0x60\n        /* \"#utility.yul\":16609:16614   */\n      dup4\n        /* \"#utility.yul\":16605:16621   */\n      add\n        /* \"#utility.yul\":16599:16622   */\n      mload\n        /* \"#utility.yul\":16635:16698   */\n      tag_477\n        /* \"#utility.yul\":16692:16696   */\n      0x60\n        /* \"#utility.yul\":16687:16690   */\n      dup7\n        /* \"#utility.yul\":16683:16697   */\n      add\n        /* \"#utility.yul\":16669:16681   */\n      dup3\n        /* \"#utility.yul\":16635:16698   */\n      tag_263\n      jump\t// in\n    tag_477:\n        /* \"#utility.yul\":16543:16708   */\n      pop\n        /* \"#utility.yul\":16796:16800   */\n      0x80\n        /* \"#utility.yul\":16789:16794   */\n      dup4\n        /* \"#utility.yul\":16785:16801   */\n      add\n        /* \"#utility.yul\":16779:16802   */\n      mload\n        /* \"#utility.yul\":16815:16878   */\n      tag_478\n        /* \"#utility.yul\":16872:16876   */\n      0x80\n        /* \"#utility.yul\":16867:16870   */\n      dup7\n        /* \"#utility.yul\":16863:16877   */\n      add\n        /* \"#utility.yul\":16849:16861   */\n      dup3\n        /* \"#utility.yul\":16815:16878   */\n      tag_263\n      jump\t// in\n    tag_478:\n        /* \"#utility.yul\":16718:16888   */\n      pop\n        /* \"#utility.yul\":16905:16909   */\n      dup1\n        /* \"#utility.yul\":16898:16909   */\n      swap2\n      pop\n        /* \"#utility.yul\":15828:16915   */\n      pop\n        /* \"#utility.yul\":15718:16915   */\n      swap3\n      swap2\n      pop\n      pop\n      jump\t// out\n        /* \"#utility.yul\":16921:17169   */\n    tag_290:\n        /* \"#utility.yul\":17036:17046   */\n      0x00\n        /* \"#utility.yul\":17071:17163   */\n      tag_480\n        /* \"#utility.yul\":17159:17162   */\n      dup4\n        /* \"#utility.yul\":17151:17157   */\n      dup4\n        /* \"#utility.yul\":17071:17163   */\n      tag_289\n      jump\t// in\n    tag_480:\n        /* \"#utility.yul\":17057:17163   */\n      swap1\n      pop\n        /* \"#utility.yul\":16921:17169   */\n      swap3\n      swap2\n      pop\n      pop\n      jump\t// out\n        /* \"#utility.yul\":17175:17311   */\n    tag_291:\n        /* \"#utility.yul\":17268:17272   */\n      0x00\n        /* \"#utility.yul\":17300:17304   */\n      0x20\n        /* \"#utility.yul\":17295:17298   */\n      dup3\n        /* \"#utility.yul\":17291:17305   */\n      add\n        /* \"#utility.yul\":17283:17305   */\n      swap1\n      pop\n        /* \"#utility.yul\":17175:17311   */\n      swap2\n      swap1\n      pop\n      jump\t// out\n        /* \"#utility.yul\":17387:18482   */\n    tag_292:\n        /* \"#utility.yul\":17552:17555   */\n      0x00\n        /* \"#utility.yul\":17581:17658   */\n      tag_483\n        /* \"#utility.yul\":17652:17657   */\n      dup3\n        /* \"#utility.yul\":17581:17658   */\n      tag_286\n      jump\t// in\n    tag_483:\n        /* \"#utility.yul\":17674:17783   */\n      tag_484\n        /* \"#utility.yul\":17776:17782   */\n      dup2\n        /* \"#utility.yul\":17771:17774   */\n      dup6\n        /* \"#utility.yul\":17674:17783   */\n      tag_287\n      jump\t// in\n    tag_484:\n        /* \"#utility.yul\":17667:17783   */\n      swap4\n      pop\n        /* \"#utility.yul\":17809:17812   */\n      dup4\n        /* \"#utility.yul\":17854:17858   */\n      0x20\n        /* \"#utility.yul\":17846:17852   */\n      dup3\n        /* \"#utility.yul\":17842:17859   */\n      mul\n        /* \"#utility.yul\":17837:17840   */\n      dup6\n        /* \"#utility.yul\":17833:17860   */\n      add\n        /* \"#utility.yul\":17884:17963   */\n      tag_485\n        /* \"#utility.yul\":17957:17962   */\n      dup6\n        /* \"#utility.yul\":17884:17963   */\n      tag_288\n      jump\t// in\n    tag_485:\n        /* \"#utility.yul\":17986:17993   */\n      dup1\n        /* \"#utility.yul\":18017:18018   */\n      0x00\n        /* \"#utility.yul\":18002:18437   */\n    tag_486:\n        /* \"#utility.yul\":18027:18033   */\n      dup6\n        /* \"#utility.yul\":18024:18025   */\n      dup2\n        /* \"#utility.yul\":18021:18034   */\n      lt\n        /* \"#utility.yul\":18002:18437   */\n      iszero\n      tag_488\n      jumpi\n        /* \"#utility.yul\":18098:18107   */\n      dup5\n        /* \"#utility.yul\":18092:18096   */\n      dup5\n        /* \"#utility.yul\":18088:18108   */\n      sub\n        /* \"#utility.yul\":18083:18086   */\n      dup10\n        /* \"#utility.yul\":18076:18109   */\n      mstore\n        /* \"#utility.yul\":18149:18155   */\n      dup2\n        /* \"#utility.yul\":18143:18156   */\n      mload\n        /* \"#utility.yul\":18177:18287   */\n      tag_489\n        /* \"#utility.yul\":18282:18286   */\n      dup6\n        /* \"#utility.yul\":18267:18280   */\n      dup3\n        /* \"#utility.yul\":18177:18287   */\n      tag_290\n      jump\t// in\n    tag_489:\n        /* \"#utility.yul\":18169:18287   */\n      swap5\n      pop\n        /* \"#utility.yul\":18310:18393   */\n      tag_490\n        /* \"#utility.yul\":18386:18392   */\n      dup4\n        /* \"#utility.yul\":18310:18393   */\n      tag_291\n      jump\t// in\n    tag_490:\n        /* \"#utility.yul\":18300:18393   */\n      swap3\n      pop\n        /* \"#utility.yul\":18422:18426   */\n      0x20\n        /* \"#utility.yul\":18417:18420   */\n      dup11\n        /* \"#utility.yul\":18413:18427   */\n      add\n        /* \"#utility.yul\":18406:18427   */\n      swap10\n      pop\n        /* \"#utility.yul\":18062:18437   */\n      pop\n        /* \"#utility.yul\":18049:18050   */\n      0x01\n        /* \"#utility.yul\":18046:18047   */\n      dup2\n        /* \"#utility.yul\":18042:18051   */\n      add\n        /* \"#utility.yul\":18037:18051   */\n      swap1\n      pop\n        /* \"#utility.yul\":18002:18437   */\n      jump(tag_486)\n    tag_488:\n        /* \"#utility.yul\":18006:18020   */\n      pop\n        /* \"#utility.yul\":18453:18457   */\n      dup3\n        /* \"#utility.yul\":18446:18457   */\n      swap8\n      pop\n        /* \"#utility.yul\":18473:18476   */\n      dup8\n        /* \"#utility.yul\":18466:18476   */\n      swap6\n      pop\n        /* \"#utility.yul\":17557:18482   */\n      pop\n      pop\n      pop\n      pop\n      pop\n        /* \"#utility.yul\":17387:18482   */\n      swap3\n      swap2\n      pop\n      pop\n      jump\t// out\n        /* \"#utility.yul\":18488:18953   */\n    tag_75:\n        /* \"#utility.yul\":18677:18681   */\n      0x00\n        /* \"#utility.yul\":18715:18717   */\n      0x20\n        /* \"#utility.yul\":18704:18713   */\n      dup3\n        /* \"#utility.yul\":18700:18718   */\n      add\n        /* \"#utility.yul\":18692:18718   */\n      swap1\n      pop\n        /* \"#utility.yul\":18764:18773   */\n      dup2\n        /* \"#utility.yul\":18758:18762   */\n      dup2\n        /* \"#utility.yul\":18754:18774   */\n      sub\n        /* \"#utility.yul\":18750:18751   */\n      0x00\n        /* \"#utility.yul\":18739:18748   */\n      dup4\n        /* \"#utility.yul\":18735:18752   */\n      add\n        /* \"#utility.yul\":18728:18775   */\n      mstore\n        /* \"#utility.yul\":18792:18946   */\n      tag_492\n        /* \"#utility.yul\":18941:18945   */\n      dup2\n        /* \"#utility.yul\":18932:18938   */\n      dup5\n        /* \"#utility.yul\":18792:18946   */\n      tag_292\n      jump\t// in\n    tag_492:\n        /* \"#utility.yul\":18784:18946   */\n      swap1\n      pop\n        /* \"#utility.yul\":18488:18953   */\n      swap3\n      swap2\n      pop\n      pop\n      jump\t// out\n        /* \"#utility.yul\":18959:19081   */\n    tag_293:\n        /* \"#utility.yul\":19032:19056   */\n      tag_494\n        /* \"#utility.yul\":19050:19055   */\n      dup2\n        /* \"#utility.yul\":19032:19056   */\n      tag_258\n      jump\t// in\n    tag_494:\n        /* \"#utility.yul\":19025:19030   */\n      dup2\n        /* \"#utility.yul\":19022:19057   */\n      eq\n        /* \"#utility.yul\":19012:19075   */\n      tag_495\n      jumpi\n        /* \"#utility.yul\":19071:19072   */\n      0x00\n        /* \"#utility.yul\":19068:19069   */\n      dup1\n        /* \"#utility.yul\":19061:19073   */\n      revert\n        /* \"#utility.yul\":19012:19075   */\n    tag_495:\n        /* \"#utility.yul\":18959:19081   */\n      pop\n      jump\t// out\n        /* \"#utility.yul\":19087:19226   */\n    tag_294:\n        /* \"#utility.yul\":19133:19138   */\n      0x00\n        /* \"#utility.yul\":19171:19177   */\n      dup2\n        /* \"#utility.yul\":19158:19178   */\n      calldataload\n        /* \"#utility.yul\":19149:19178   */\n      swap1\n      pop\n        /* \"#utility.yul\":19187:19220   */\n      tag_497\n        /* \"#utility.yul\":19214:19219   */\n      dup2\n        /* \"#utility.yul\":19187:19220   */\n      tag_293\n      jump\t// in\n    tag_497:\n        /* \"#utility.yul\":19087:19226   */\n      swap3\n      swap2\n      pop\n      pop\n      jump\t// out\n        /* \"#utility.yul\":19232:19561   */\n    tag_81:\n        /* \"#utility.yul\":19291:19297   */\n      0x00\n        /* \"#utility.yul\":19340:19342   */\n      0x20\n        /* \"#utility.yul\":19328:19337   */\n      dup3\n        /* \"#utility.yul\":19319:19326   */\n      dup5\n        /* \"#utility.yul\":19315:19338   */\n      sub\n        /* \"#utility.yul\":19311:19343   */\n      slt\n        /* \"#utility.yul\":19308:19427   */\n      iszero\n      tag_499\n      jumpi\n        /* \"#utility.yul\":19346:19425   */\n      tag_500\n      tag_251\n      jump\t// in\n    tag_500:\n        /* \"#utility.yul\":19308:19427   */\n    tag_499:\n        /* \"#utility.yul\":19466:19467   */\n      0x00\n        /* \"#utility.yul\":19491:19544   */\n      tag_501\n        /* \"#utility.yul\":19536:19543   */\n      dup5\n        /* \"#utility.yul\":19527:19533   */\n      dup3\n        /* \"#utility.yul\":19516:19525   */\n      dup6\n        /* \"#utility.yul\":19512:19534   */\n      add\n        /* \"#utility.yul\":19491:19544   */\n      tag_294\n      jump\t// in\n    tag_501:\n        /* \"#utility.yul\":19481:19544   */\n      swap2\n      pop\n        /* \"#utility.yul\":19437:19554   */\n      pop\n        /* \"#utility.yul\":19232:19561   */\n      swap3\n      swap2\n      pop\n      pop\n      jump\t// out\n        /* \"#utility.yul\":19567:19704   */\n    tag_295:\n        /* \"#utility.yul\":19657:19663   */\n      0x00\n        /* \"#utility.yul\":19691:19696   */\n      dup2\n        /* \"#utility.yul\":19685:19697   */\n      mload\n        /* \"#utility.yul\":19675:19697   */\n      swap1\n      pop\n        /* \"#utility.yul\":19567:19704   */\n      swap2\n      swap1\n      pop\n      jump\t// out\n        /* \"#utility.yul\":19710:19917   */\n    tag_296:\n        /* \"#utility.yul\":19832:19843   */\n      0x00\n        /* \"#utility.yul\":19866:19872   */\n      dup3\n        /* \"#utility.yul\":19861:19864   */\n      dup3\n        /* \"#utility.yul\":19854:19873   */\n      mstore\n        /* \"#utility.yul\":19906:19910   */\n      0x20\n        /* \"#utility.yul\":19901:19904   */\n      dup3\n        /* \"#utility.yul\":19897:19911   */\n      add\n        /* \"#utility.yul\":19882:19911   */\n      swap1\n      pop\n        /* \"#utility.yul\":19710:19917   */\n      swap3\n      swap2\n      pop\n      pop\n      jump\t// out\n        /* \"#utility.yul\":19923:20078   */\n    tag_297:\n        /* \"#utility.yul\":20013:20017   */\n      0x00\n        /* \"#utility.yul\":20036:20039   */\n      dup2\n        /* \"#utility.yul\":20028:20039   */\n      swap1\n      pop\n        /* \"#utility.yul\":20066:20070   */\n      0x20\n        /* \"#utility.yul\":20061:20064   */\n      dup3\n        /* \"#utility.yul\":20057:20071   */\n      add\n        /* \"#utility.yul\":20049:20071   */\n      swap1\n      pop\n        /* \"#utility.yul\":19923:20078   */\n      swap2\n      swap1\n      pop\n      jump\t// out\n        /* \"#utility.yul\":20084:20192   */\n    tag_298:\n        /* \"#utility.yul\":20161:20185   */\n      tag_506\n        /* \"#utility.yul\":20179:20184   */\n      dup2\n        /* \"#utility.yul\":20161:20185   */\n      tag_258\n      jump\t// in\n    tag_506:\n        /* \"#utility.yul\":20156:20159   */\n      dup3\n        /* \"#utility.yul\":20149:20186   */\n      mstore\n        /* \"#utility.yul\":20084:20192   */\n      pop\n      pop\n      jump\t// out\n        /* \"#utility.yul\":20264:21110   */\n    tag_299:\n        /* \"#utility.yul\":20397:20401   */\n      0x80\n        /* \"#utility.yul\":20392:20395   */\n      dup3\n        /* \"#utility.yul\":20388:20402   */\n      add\n        /* \"#utility.yul\":20482:20486   */\n      0x00\n        /* \"#utility.yul\":20475:20480   */\n      dup3\n        /* \"#utility.yul\":20471:20487   */\n      add\n        /* \"#utility.yul\":20465:20488   */\n      mload\n        /* \"#utility.yul\":20501:20564   */\n      tag_508\n        /* \"#utility.yul\":20558:20562   */\n      0x00\n        /* \"#utility.yul\":20553:20556   */\n      dup6\n        /* \"#utility.yul\":20549:20563   */\n      add\n        /* \"#utility.yul\":20535:20547   */\n      dup3\n        /* \"#utility.yul\":20501:20564   */\n      tag_263\n      jump\t// in\n    tag_508:\n        /* \"#utility.yul\":20412:20574   */\n      pop\n        /* \"#utility.yul\":20661:20665   */\n      0x20\n        /* \"#utility.yul\":20654:20659   */\n      dup3\n        /* \"#utility.yul\":20650:20666   */\n      add\n        /* \"#utility.yul\":20644:20667   */\n      mload\n        /* \"#utility.yul\":20680:20743   */\n      tag_509\n        /* \"#utility.yul\":20737:20741   */\n      0x20\n        /* \"#utility.yul\":20732:20735   */\n      dup6\n        /* \"#utility.yul\":20728:20742   */\n      add\n        /* \"#utility.yul\":20714:20726   */\n      dup3\n        /* \"#utility.yul\":20680:20743   */\n      tag_263\n      jump\t// in\n    tag_509:\n        /* \"#utility.yul\":20584:20753   */\n      pop\n        /* \"#utility.yul\":20835:20839   */\n      0x40\n        /* \"#utility.yul\":20828:20833   */\n      dup3\n        /* \"#utility.yul\":20824:20840   */\n      add\n        /* \"#utility.yul\":20818:20841   */\n      mload\n        /* \"#utility.yul\":20854:20917   */\n      tag_510\n        /* \"#utility.yul\":20911:20915   */\n      0x40\n        /* \"#utility.yul\":20906:20909   */\n      dup6\n        /* \"#utility.yul\":20902:20916   */\n      add\n        /* \"#utility.yul\":20888:20900   */\n      dup3\n        /* \"#utility.yul\":20854:20917   */\n      tag_263\n      jump\t// in\n    tag_510:\n        /* \"#utility.yul\":20763:20927   */\n      pop\n        /* \"#utility.yul\":21011:21015   */\n      0x60\n        /* \"#utility.yul\":21004:21009   */\n      dup3\n        /* \"#utility.yul\":21000:21016   */\n      add\n        /* \"#utility.yul\":20994:21017   */\n      mload\n        /* \"#utility.yul\":21030:21093   */\n      tag_511\n        /* \"#utility.yul\":21087:21091   */\n      0x60\n        /* \"#utility.yul\":21082:21085   */\n      dup6\n        /* \"#utility.yul\":21078:21092   */\n      add\n        /* \"#utility.yul\":21064:21076   */\n      dup3\n        /* \"#utility.yul\":21030:21093   */\n      tag_298\n      jump\t// in\n    tag_511:\n        /* \"#utility.yul\":20937:21103   */\n      pop\n        /* \"#utility.yul\":20366:21110   */\n      pop\n        /* \"#utility.yul\":20264:21110   */\n      pop\n      pop\n      jump\t// out\n        /* \"#utility.yul\":21116:21387   */\n    tag_300:\n        /* \"#utility.yul\":21231:21241   */\n      0x00\n        /* \"#utility.yul\":21252:21344   */\n      tag_513\n        /* \"#utility.yul\":21340:21343   */\n      dup4\n        /* \"#utility.yul\":21332:21338   */\n      dup4\n        /* \"#utility.yul\":21252:21344   */\n      tag_299\n      jump\t// in\n    tag_513:\n        /* \"#utility.yul\":21376:21380   */\n      0x80\n        /* \"#utility.yul\":21371:21374   */\n      dup4\n        /* \"#utility.yul\":21367:21381   */\n      add\n        /* \"#utility.yul\":21353:21381   */\n      swap1\n      pop\n        /* \"#utility.yul\":21116:21387   */\n      swap3\n      swap2\n      pop\n      pop\n      jump\t// out\n        /* \"#utility.yul\":21393:21529   */\n    tag_301:\n        /* \"#utility.yul\":21486:21490   */\n      0x00\n        /* \"#utility.yul\":21518:21522   */\n      0x20\n        /* \"#utility.yul\":21513:21516   */\n      dup3\n        /* \"#utility.yul\":21509:21523   */\n      add\n        /* \"#utility.yul\":21501:21523   */\n      swap1\n      pop\n        /* \"#utility.yul\":21393:21529   */\n      swap2\n      swap1\n      pop\n      jump\t// out\n        /* \"#utility.yul\":21605:22521   */\n    tag_302:\n        /* \"#utility.yul\":21770:21773   */\n      0x00\n        /* \"#utility.yul\":21799:21876   */\n      tag_516\n        /* \"#utility.yul\":21870:21875   */\n      dup3\n        /* \"#utility.yul\":21799:21876   */\n      tag_295\n      jump\t// in\n    tag_516:\n        /* \"#utility.yul\":21892:22001   */\n      tag_517\n        /* \"#utility.yul\":21994:22000   */\n      dup2\n        /* \"#utility.yul\":21989:21992   */\n      dup6\n        /* \"#utility.yul\":21892:22001   */\n      tag_296\n      jump\t// in\n    tag_517:\n        /* \"#utility.yul\":21885:22001   */\n      swap4\n      pop\n        /* \"#utility.yul\":22025:22104   */\n      tag_518\n        /* \"#utility.yul\":22098:22103   */\n      dup4\n        /* \"#utility.yul\":22025:22104   */\n      tag_297\n      jump\t// in\n    tag_518:\n        /* \"#utility.yul\":22127:22134   */\n      dup1\n        /* \"#utility.yul\":22158:22159   */\n      0x00\n        /* \"#utility.yul\":22143:22496   */\n    tag_519:\n        /* \"#utility.yul\":22168:22174   */\n      dup4\n        /* \"#utility.yul\":22165:22166   */\n      dup2\n        /* \"#utility.yul\":22162:22175   */\n      lt\n        /* \"#utility.yul\":22143:22496   */\n      iszero\n      tag_521\n      jumpi\n        /* \"#utility.yul\":22244:22250   */\n      dup2\n        /* \"#utility.yul\":22238:22251   */\n      mload\n        /* \"#utility.yul\":22271:22380   */\n      tag_522\n        /* \"#utility.yul\":22376:22379   */\n      dup9\n        /* \"#utility.yul\":22361:22374   */\n      dup3\n        /* \"#utility.yul\":22271:22380   */\n      tag_300\n      jump\t// in\n    tag_522:\n        /* \"#utility.yul\":22264:22380   */\n      swap8\n      pop\n        /* \"#utility.yul\":22403:22486   */\n      tag_523\n        /* \"#utility.yul\":22479:22485   */\n      dup4\n        /* \"#utility.yul\":22403:22486   */\n      tag_301\n      jump\t// in\n    tag_523:\n        /* \"#utility.yul\":22393:22486   */\n      swap3\n      pop\n        /* \"#utility.yul\":22203:22496   */\n      pop\n        /* \"#utility.yul\":22190:22191   */\n      0x01\n        /* \"#utility.yul\":22187:22188   */\n      dup2\n        /* \"#utility.yul\":22183:22192   */\n      add\n        /* \"#utility.yul\":22178:22192   */\n      swap1\n      pop\n        /* \"#utility.yul\":22143:22496   */\n      jump(tag_519)\n    tag_521:\n        /* \"#utility.yul\":22147:22161   */\n      pop\n        /* \"#utility.yul\":22512:22515   */\n      dup6\n        /* \"#utility.yul\":22505:22515   */\n      swap4\n      pop\n        /* \"#utility.yul\":21775:22521   */\n      pop\n      pop\n      pop\n        /* \"#utility.yul\":21605:22521   */\n      swap3\n      swap2\n      pop\n      pop\n      jump\t// out\n        /* \"#utility.yul\":22527:22992   */\n    tag_84:\n        /* \"#utility.yul\":22716:22720   */\n      0x00\n        /* \"#utility.yul\":22754:22756   */\n      0x20\n        /* \"#utility.yul\":22743:22752   */\n      dup3\n        /* \"#utility.yul\":22739:22757   */\n      add\n        /* \"#utility.yul\":22731:22757   */\n      swap1\n      pop\n        /* \"#utility.yul\":22803:22812   */\n      dup2\n        /* \"#utility.yul\":22797:22801   */\n      dup2\n        /* \"#utility.yul\":22793:22813   */\n      sub\n        /* \"#utility.yul\":22789:22790   */\n      0x00\n        /* \"#utility.yul\":22778:22787   */\n      dup4\n        /* \"#utility.yul\":22774:22791   */\n      add\n        /* \"#utility.yul\":22767:22814   */\n      mstore\n        /* \"#utility.yul\":22831:22985   */\n      tag_525\n        /* \"#utility.yul\":22980:22984   */\n      dup2\n        /* \"#utility.yul\":22971:22977   */\n      dup5\n        /* \"#utility.yul\":22831:22985   */\n      tag_302\n      jump\t// in\n    tag_525:\n        /* \"#utility.yul\":22823:22985   */\n      swap1\n      pop\n        /* \"#utility.yul\":22527:22992   */\n      swap3\n      swap2\n      pop\n      pop\n      jump\t// out\n        /* \"#utility.yul\":22998:23220   */\n    tag_88:\n        /* \"#utility.yul\":23091:23095   */\n      0x00\n        /* \"#utility.yul\":23129:23131   */\n      0x20\n        /* \"#utility.yul\":23118:23127   */\n      dup3\n        /* \"#utility.yul\":23114:23132   */\n      add\n        /* \"#utility.yul\":23106:23132   */\n      swap1\n      pop\n        /* \"#utility.yul\":23142:23213   */\n      tag_527\n        /* \"#utility.yul\":23210:23211   */\n      0x00\n        /* \"#utility.yul\":23199:23208   */\n      dup4\n        /* \"#utility.yul\":23195:23212   */\n      add\n        /* \"#utility.yul\":23186:23192   */\n      dup5\n        /* \"#utility.yul\":23142:23213   */\n      tag_259\n      jump\t// in\n    tag_527:\n        /* \"#utility.yul\":22998:23220   */\n      swap3\n      swap2\n      pop\n      pop\n      jump\t// out\n        /* \"#utility.yul\":23226:23398   */\n    tag_303:\n        /* \"#utility.yul\":23366:23390   */\n      0x426f6f6b696e6720646f6573206e6f7420657869737400000000000000000000\n        /* \"#utility.yul\":23362:23363   */\n      0x00\n        /* \"#utility.yul\":23354:23360   */\n      dup3\n        /* \"#utility.yul\":23350:23364   */\n      add\n        /* \"#utility.yul\":23343:23391   */\n      mstore\n        /* \"#utility.yul\":23226:23398   */\n      pop\n      jump\t// out\n        /* \"#utility.yul\":23404:23770   */\n    tag_304:\n        /* \"#utility.yul\":23546:23549   */\n      0x00\n        /* \"#utility.yul\":23567:23634   */\n      tag_530\n        /* \"#utility.yul\":23631:23633   */\n      0x16\n        /* \"#utility.yul\":23626:23629   */\n      dup4\n        /* \"#utility.yul\":23567:23634   */\n      tag_279\n      jump\t// in\n    tag_530:\n        /* \"#utility.yul\":23560:23634   */\n      swap2\n      pop\n        /* \"#utility.yul\":23643:23736   */\n      tag_531\n        /* \"#utility.yul\":23732:23735   */\n      dup3\n        /* \"#utility.yul\":23643:23736   */\n      tag_303\n      jump\t// in\n    tag_531:\n        /* \"#utility.yul\":23761:23763   */\n      0x20\n        /* \"#utility.yul\":23756:23759   */\n      dup3\n        /* \"#utility.yul\":23752:23764   */\n      add\n        /* \"#utility.yul\":23745:23764   */\n      swap1\n      pop\n        /* \"#utility.yul\":23404:23770   */\n      swap2\n      swap1\n      pop\n      jump\t// out\n        /* \"#utility.yul\":23776:24195   */\n    tag_93:\n        /* \"#utility.yul\":23942:23946   */\n      0x00\n        /* \"#utility.yul\":23980:23982   */\n      0x20\n        /* \"#utility.yul\":23969:23978   */\n      dup3\n        /* \"#utility.yul\":23965:23983   */\n      add\n        /* \"#utility.yul\":23957:23983   */\n      swap1\n      pop\n        /* \"#utility.yul\":24029:24038   */\n      dup2\n        /* \"#utility.yul\":24023:24027   */\n      dup2\n        /* \"#utility.yul\":24019:24039   */\n      sub\n        /* \"#utility.yul\":24015:24016   */\n      0x00\n        /* \"#utility.yul\":24004:24013   */\n      dup4\n        /* \"#utility.yul\":24000:24017   */\n      add\n        /* \"#utility.yul\":23993:24040   */\n      mstore\n        /* \"#utility.yul\":24057:24188   */\n      tag_533\n        /* \"#utility.yul\":24183:24187   */\n      dup2\n        /* \"#utility.yul\":24057:24188   */\n      tag_304\n      jump\t// in\n    tag_533:\n        /* \"#utility.yul\":24049:24188   */\n      swap1\n      pop\n        /* \"#utility.yul\":23776:24195   */\n      swap2\n      swap1\n      pop\n      jump\t// out\n        /* \"#utility.yul\":24201:24361   */\n    tag_305:\n        /* \"#utility.yul\":24341:24353   */\n      0x4f6e6c792061646d696e00000000000000000000000000000000000000000000\n        /* \"#utility.yul\":24337:24338   */\n      0x00\n        /* \"#utility.yul\":24329:24335   */\n      dup3\n        /* \"#utility.yul\":24325:24339   */\n      add\n        /* \"#utility.yul\":24318:24354   */\n      mstore\n        /* \"#utility.yul\":24201:24361   */\n      pop\n      jump\t// out\n        /* \"#utility.yul\":24367:24733   */\n    tag_306:\n        /* \"#utility.yul\":24509:24512   */\n      0x00\n        /* \"#utility.yul\":24530:24597   */\n      tag_536\n        /* \"#utility.yul\":24594:24596   */\n      0x0a\n        /* \"#utility.yul\":24589:24592   */\n      dup4\n        /* \"#utility.yul\":24530:24597   */\n      tag_279\n      jump\t// in\n    tag_536:\n        /* \"#utility.yul\":24523:24597   */\n      swap2\n      pop\n        /* \"#utility.yul\":24606:24699   */\n      tag_537\n        /* \"#utility.yul\":24695:24698   */\n      dup3\n        /* \"#utility.yul\":24606:24699   */\n      tag_305\n      jump\t// in\n    tag_537:\n        /* \"#utility.yul\":24724:24726   */\n      0x20\n        /* \"#utility.yul\":24719:24722   */\n      dup3\n        /* \"#utility.yul\":24715:24727   */\n      add\n        /* \"#utility.yul\":24708:24727   */\n      swap1\n      pop\n        /* \"#utility.yul\":24367:24733   */\n      swap2\n      swap1\n      pop\n      jump\t// out\n        /* \"#utility.yul\":24739:25158   */\n    tag_100:\n        /* \"#utility.yul\":24905:24909   */\n      0x00\n        /* \"#utility.yul\":24943:24945   */\n      0x20\n        /* \"#utility.yul\":24932:24941   */\n      dup3\n        /* \"#utility.yul\":24928:24946   */\n      add\n        /* \"#utility.yul\":24920:24946   */\n      swap1\n      pop\n        /* \"#utility.yul\":24992:25001   */\n      dup2\n        /* \"#utility.yul\":24986:24990   */\n      dup2\n        /* \"#utility.yul\":24982:25002   */\n      sub\n        /* \"#utility.yul\":24978:24979   */\n      0x00\n        /* \"#utility.yul\":24967:24976   */\n      dup4\n        /* \"#utility.yul\":24963:24980   */\n      add\n        /* \"#utility.yul\":24956:25003   */\n      mstore\n        /* \"#utility.yul\":25020:25151   */\n      tag_539\n        /* \"#utility.yul\":25146:25150   */\n      dup2\n        /* \"#utility.yul\":25020:25151   */\n      tag_306\n      jump\t// in\n    tag_539:\n        /* \"#utility.yul\":25012:25151   */\n      swap1\n      pop\n        /* \"#utility.yul\":24739:25158   */\n      swap2\n      swap1\n      pop\n      jump\t// out\n        /* \"#utility.yul\":25164:25336   */\n    tag_307:\n        /* \"#utility.yul\":25304:25328   */\n      0x5365727669636520646f6573206e6f7420657869737400000000000000000000\n        /* \"#utility.yul\":25300:25301   */\n      0x00\n        /* \"#utility.yul\":25292:25298   */\n      dup3\n        /* \"#utility.yul\":25288:25302   */\n      add\n        /* \"#utility.yul\":25281:25329   */\n      mstore\n        /* \"#utility.yul\":25164:25336   */\n      pop\n      jump\t// out\n        /* \"#utility.yul\":25342:25708   */\n    tag_308:\n        /* \"#utility.yul\":25484:25487   */\n      0x00\n        /* \"#utility.yul\":25505:25572   */\n      tag_542\n        /* \"#utility.yul\":25569:25571   */\n      0x16\n        /* \"#utility.yul\":25564:25567   */\n      dup4\n        /* \"#utility.yul\":25505:25572   */\n      tag_279\n      jump\t// in\n    tag_542:\n        /* \"#utility.yul\":25498:25572   */\n      swap2\n      pop\n        /* \"#utility.yul\":25581:25674   */\n      tag_543\n        /* \"#utility.yul\":25670:25673   */\n      dup3\n        /* \"#utility.yul\":25581:25674   */\n      tag_307\n      jump\t// in\n    tag_543:\n        /* \"#utility.yul\":25699:25701   */\n      0x20\n        /* \"#utility.yul\":25694:25697   */\n      dup3\n        /* \"#utility.yul\":25690:25702   */\n      add\n        /* \"#utility.yul\":25683:25702   */\n      swap1\n      pop\n        /* \"#utility.yul\":25342:25708   */\n      swap2\n      swap1\n      pop\n      jump\t// out\n        /* \"#utility.yul\":25714:26133   */\n    tag_105:\n        /* \"#utility.yul\":25880:25884   */\n      0x00\n        /* \"#utility.yul\":25918:25920   */\n      0x20\n        /* \"#utility.yul\":25907:25916   */\n      dup3\n        /* \"#utility.yul\":25903:25921   */\n      add\n        /* \"#utility.yul\":25895:25921   */\n      swap1\n      pop\n        /* \"#utility.yul\":25967:25976   */\n      dup2\n        /* \"#utility.yul\":25961:25965   */\n      dup2\n        /* \"#utility.yul\":25957:25977   */\n      sub\n        /* \"#utility.yul\":25953:25954   */\n      0x00\n        /* \"#utility.yul\":25942:25951   */\n      dup4\n        /* \"#utility.yul\":25938:25955   */\n      add\n        /* \"#utility.yul\":25931:25978   */\n      mstore\n        /* \"#utility.yul\":25995:26126   */\n      tag_545\n        /* \"#utility.yul\":26121:26125   */\n      dup2\n        /* \"#utility.yul\":25995:26126   */\n      tag_308\n      jump\t// in\n    tag_545:\n        /* \"#utility.yul\":25987:26126   */\n      swap1\n      pop\n        /* \"#utility.yul\":25714:26133   */\n      swap2\n      swap1\n      pop\n      jump\t// out\n        /* \"#utility.yul\":26139:26319   */\n    tag_309:\n        /* \"#utility.yul\":26187:26264   */\n      0x4e487b7100000000000000000000000000000000000000000000000000000000\n        /* \"#utility.yul\":26184:26185   */\n      0x00\n        /* \"#utility.yul\":26177:26265   */\n      mstore\n        /* \"#utility.yul\":26284:26288   */\n      0x11\n        /* \"#utility.yul\":26281:26282   */\n      0x04\n        /* \"#utility.yul\":26274:26289   */\n      mstore\n        /* \"#utility.yul\":26308:26312   */\n      0x24\n        /* \"#utility.yul\":26305:26306   */\n      0x00\n        /* \"#utility.yul\":26298:26313   */\n      revert\n        /* \"#utility.yul\":26325:26519   */\n    tag_109:\n        /* \"#utility.yul\":26365:26369   */\n      0x00\n        /* \"#utility.yul\":26385:26405   */\n      tag_548\n        /* \"#utility.yul\":26403:26404   */\n      dup3\n        /* \"#utility.yul\":26385:26405   */\n      tag_253\n      jump\t// in\n    tag_548:\n        /* \"#utility.yul\":26380:26405   */\n      swap2\n      pop\n        /* \"#utility.yul\":26419:26439   */\n      tag_549\n        /* \"#utility.yul\":26437:26438   */\n      dup4\n        /* \"#utility.yul\":26419:26439   */\n      tag_253\n      jump\t// in\n    tag_549:\n        /* \"#utility.yul\":26414:26439   */\n      swap3\n      pop\n        /* \"#utility.yul\":26463:26464   */\n      dup3\n        /* \"#utility.yul\":26460:26461   */\n      dup3\n        /* \"#utility.yul\":26456:26465   */\n      sub\n        /* \"#utility.yul\":26448:26465   */\n      swap1\n      pop\n        /* \"#utility.yul\":26487:26488   */\n      dup2\n        /* \"#utility.yul\":26481:26485   */\n      dup2\n        /* \"#utility.yul\":26478:26489   */\n      gt\n        /* \"#utility.yul\":26475:26512   */\n      iszero\n      tag_550\n      jumpi\n        /* \"#utility.yul\":26492:26510   */\n      tag_551\n      tag_309\n      jump\t// in\n    tag_551:\n        /* \"#utility.yul\":26475:26512   */\n    tag_550:\n        /* \"#utility.yul\":26325:26519   */\n      swap3\n      swap2\n      pop\n      pop\n      jump\t// out\n        /* \"#utility.yul\":26525:26705   */\n    tag_112:\n        /* \"#utility.yul\":26573:26650   */\n      0x4e487b7100000000000000000000000000000000000000000000000000000000\n        /* \"#utility.yul\":26570:26571   */\n      0x00\n        /* \"#utility.yul\":26563:26651   */\n      mstore\n        /* \"#utility.yul\":26670:26674   */\n      0x41\n        /* \"#utility.yul\":26667:26668   */\n      0x04\n        /* \"#utility.yul\":26660:26675   */\n      mstore\n        /* \"#utility.yul\":26694:26698   */\n      0x24\n        /* \"#utility.yul\":26691:26692   */\n      0x00\n        /* \"#utility.yul\":26684:26699   */\n      revert\n        /* \"#utility.yul\":26711:26891   */\n    tag_310:\n        /* \"#utility.yul\":26759:26836   */\n      0x4e487b7100000000000000000000000000000000000000000000000000000000\n        /* \"#utility.yul\":26756:26757   */\n      0x00\n        /* \"#utility.yul\":26749:26837   */\n      mstore\n        /* \"#utility.yul\":26856:26860   */\n      0x22\n        /* \"#utility.yul\":26853:26854   */\n      0x04\n        /* \"#utility.yul\":26846:26861   */\n      mstore\n        /* \"#utility.yul\":26880:26884   */\n      0x24\n        /* \"#utility.yul\":26877:26878   */\n      0x00\n        /* \"#utility.yul\":26870:26885   */\n      revert\n        /* \"#utility.yul\":26897:27217   */\n    tag_121:\n        /* \"#utility.yul\":26941:26947   */\n      0x00\n        /* \"#utility.yul\":26978:26979   */\n      0x02\n        /* \"#utility.yul\":26972:26976   */\n      dup3\n        /* \"#utility.yul\":26968:26980   */\n      div\n        /* \"#utility.yul\":26958:26980   */\n      swap1\n      pop\n        /* \"#utility.yul\":27025:27026   */\n      0x01\n        /* \"#utility.yul\":27019:27023   */\n      dup3\n        /* \"#utility.yul\":27015:27027   */\n      and\n        /* \"#utility.yul\":27046:27064   */\n      dup1\n        /* \"#utility.yul\":27036:27117   */\n      tag_555\n      jumpi\n        /* \"#utility.yul\":27102:27106   */\n      0x7f\n        /* \"#utility.yul\":27094:27100   */\n      dup3\n        /* \"#utility.yul\":27090:27107   */\n      and\n        /* \"#utility.yul\":27080:27107   */\n      swap2\n      pop\n        /* \"#utility.yul\":27036:27117   */\n    tag_555:\n        /* \"#utility.yul\":27164:27166   */\n      0x20\n        /* \"#utility.yul\":27156:27162   */\n      dup3\n        /* \"#utility.yul\":27153:27167   */\n      lt\n        /* \"#utility.yul\":27133:27151   */\n      dup2\n        /* \"#utility.yul\":27130:27168   */\n      sub\n        /* \"#utility.yul\":27127:27211   */\n      tag_556\n      jumpi\n        /* \"#utility.yul\":27183:27201   */\n      tag_557\n      tag_310\n      jump\t// in\n    tag_557:\n        /* \"#utility.yul\":27127:27211   */\n    tag_556:\n        /* \"#utility.yul\":26948:27217   */\n      pop\n        /* \"#utility.yul\":26897:27217   */\n      swap2\n      swap1\n      pop\n      jump\t// out\n        /* \"#utility.yul\":27223:27403   */\n    tag_136:\n        /* \"#utility.yul\":27271:27348   */\n      0x4e487b7100000000000000000000000000000000000000000000000000000000\n        /* \"#utility.yul\":27268:27269   */\n      0x00\n        /* \"#utility.yul\":27261:27349   */\n      mstore\n        /* \"#utility.yul\":27368:27372   */\n      0x32\n        /* \"#utility.yul\":27365:27366   */\n      0x04\n        /* \"#utility.yul\":27358:27373   */\n      mstore\n        /* \"#utility.yul\":27392:27396   */\n      0x24\n        /* \"#utility.yul\":27389:27390   */\n      0x00\n        /* \"#utility.yul\":27382:27397   */\n      revert\n        /* \"#utility.yul\":27409:27642   */\n    tag_138:\n        /* \"#utility.yul\":27448:27451   */\n      0x00\n        /* \"#utility.yul\":27471:27495   */\n      tag_560\n        /* \"#utility.yul\":27489:27494   */\n      dup3\n        /* \"#utility.yul\":27471:27495   */\n      tag_253\n      jump\t// in\n    tag_560:\n        /* \"#utility.yul\":27462:27495   */\n      swap2\n      pop\n        /* \"#utility.yul\":27517:27583   */\n      0xffffffffffffffffffffffffffffffffffffffffffffffffffffffffffffffff\n        /* \"#utility.yul\":27510:27515   */\n      dup3\n        /* \"#utility.yul\":27507:27584   */\n      sub\n        /* \"#utility.yul\":27504:27607   */\n      tag_561\n      jumpi\n        /* \"#utility.yul\":27587:27605   */\n      tag_562\n      tag_309\n      jump\t// in\n    tag_562:\n        /* \"#utility.yul\":27504:27607   */\n    tag_561:\n        /* \"#utility.yul\":27634:27635   */\n      0x01\n        /* \"#utility.yul\":27627:27632   */\n      dup3\n        /* \"#utility.yul\":27623:27636   */\n      add\n        /* \"#utility.yul\":27616:27636   */\n      swap1\n      pop\n        /* \"#utility.yul\":27409:27642   */\n      swap2\n      swap1\n      pop\n      jump\t// out\n        /* \"#utility.yul\":27648:27789   */\n    tag_311:\n        /* \"#utility.yul\":27697:27701   */\n      0x00\n        /* \"#utility.yul\":27720:27723   */\n      dup2\n        /* \"#utility.yul\":27712:27723   */\n      swap1\n      pop\n        /* \"#utility.yul\":27743:27746   */\n      dup2\n        /* \"#utility.yul\":27740:27741   */\n      0x00\n        /* \"#utility.yul\":27733:27747   */\n      mstore\n        /* \"#utility.yul\":27777:27781   */\n      0x20\n        /* \"#utility.yul\":27774:27775   */\n      0x00\n        /* \"#utility.yul\":27764:27782   */\n      keccak256\n        /* \"#utility.yul\":27756:27782   */\n      swap1\n      pop\n        /* \"#utility.yul\":27648:27789   */\n      swap2\n      swap1\n      pop\n      jump\t// out\n        /* \"#utility.yul\":27795:27888   */\n    tag_312:\n        /* \"#utility.yul\":27832:27838   */\n      0x00\n        /* \"#utility.yul\":27879:27881   */\n      0x20\n        /* \"#utility.yul\":27874:27876   */\n      0x1f\n        /* \"#utility.yul\":27867:27872   */\n      dup4\n        /* \"#utility.yul\":27863:27877   */\n      add\n        /* \"#utility.yul\":27859:27882   */\n      div\n        /* \"#utility.yul\":27849:27882   */\n      swap1\n      pop\n        /* \"#utility.yul\":27795:27888   */\n      swap2\n      swap1\n      pop\n      jump\t// out\n        /* \"#utility.yul\":27894:28001   */\n    tag_313:\n        /* \"#utility.yul\":27938:27946   */\n      0x00\n        /* \"#utility.yul\":27988:27993   */\n      dup3\n        /* \"#utility.yul\":27982:27986   */\n      dup3\n        /* \"#utility.yul\":27978:27994   */\n      shl\n        /* \"#utility.yul\":27957:27994   */\n      swap1\n      pop\n        /* \"#utility.yul\":27894:28001   */\n      swap3\n      swap2\n      pop\n      pop\n      jump\t// out\n        /* \"#utility.yul\":28007:28400   */\n    tag_314:\n        /* \"#utility.yul\":28076:28082   */\n      0x00\n        /* \"#utility.yul\":28126:28127   */\n      0x08\n        /* \"#utility.yul\":28114:28124   */\n      dup4\n        /* \"#utility.yul\":28110:28128   */\n      mul\n        /* \"#utility.yul\":28149:28246   */\n      tag_567\n        /* \"#utility.yul\":28179:28245   */\n      0xffffffffffffffffffffffffffffffffffffffffffffffffffffffffffffffff\n        /* \"#utility.yul\":28168:28177   */\n      dup3\n        /* \"#utility.yul\":28149:28246   */\n      tag_313\n      jump\t// in\n    tag_567:\n        /* \"#utility.yul\":28267:28306   */\n      tag_568\n        /* \"#utility.yul\":28297:28305   */\n      dup7\n        /* \"#utility.yul\":28286:28295   */\n      dup4\n        /* \"#utility.yul\":28267:28306   */\n      tag_313\n      jump\t// in\n    tag_568:\n        /* \"#utility.yul\":28255:28306   */\n      swap6\n      pop\n        /* \"#utility.yul\":28339:28343   */\n      dup1\n        /* \"#utility.yul\":28335:28344   */\n      not\n        /* \"#utility.yul\":28328:28333   */\n      dup5\n        /* \"#utility.yul\":28324:28345   */\n      and\n        /* \"#utility.yul\":28315:28345   */\n      swap4\n      pop\n        /* \"#utility.yul\":28388:28392   */\n      dup1\n        /* \"#utility.yul\":28378:28386   */\n      dup7\n        /* \"#utility.yul\":28374:28393   */\n      and\n        /* \"#utility.yul\":28367:28372   */\n      dup5\n        /* \"#utility.yul\":28364:28394   */\n      or\n        /* \"#utility.yul\":28354:28394   */\n      swap3\n      pop\n        /* \"#utility.yul\":28083:28400   */\n      pop\n      pop\n        /* \"#utility.yul\":28007:28400   */\n      swap4\n      swap3\n      pop\n      pop\n      pop\n      jump\t// out\n        /* \"#utility.yul\":28406:28466   */\n    tag_315:\n        /* \"#utility.yul\":28434:28437   */\n      0x00\n        /* \"#utility.yul\":28455:28460   */\n      dup2\n        /* \"#utility.yul\":28448:28460   */\n      swap1\n      pop\n        /* \"#utility.yul\":28406:28466   */\n      swap2\n      swap1\n      pop\n      jump\t// out\n        /* \"#utility.yul\":28472:28614   */\n    tag_316:\n        /* \"#utility.yul\":28522:28531   */\n      0x00\n        /* \"#utility.yul\":28555:28608   */\n      tag_571\n        /* \"#utility.yul\":28573:28607   */\n      tag_572\n        /* \"#utility.yul\":28582:28606   */\n      tag_573\n        /* \"#utility.yul\":28600:28605   */\n      dup5\n        /* \"#utility.yul\":28582:28606   */\n      tag_253\n      jump\t// in\n    tag_573:\n        /* \"#utility.yul\":28573:28607   */\n      tag_315\n      jump\t// in\n    tag_572:\n        /* \"#utility.yul\":28555:28608   */\n      tag_253\n      jump\t// in\n    tag_571:\n        /* \"#utility.yul\":28542:28608   */\n      swap1\n      pop\n        /* \"#utility.yul\":28472:28614   */\n      swap2\n      swap1\n      pop\n      jump\t// out\n        /* \"#utility.yul\":28620:28695   */\n    tag_317:\n        /* \"#utility.yul\":28663:28666   */\n      0x00\n        /* \"#utility.yul\":28684:28689   */\n      dup2\n        /* \"#utility.yul\":28677:28689   */\n      swap1\n      pop\n        /* \"#utility.yul\":28620:28695   */\n      swap2\n      swap1\n      pop\n      jump\t// out\n        /* \"#utility.yul\":28701:28970   */\n    tag_318:\n        /* \"#utility.yul\":28811:28850   */\n      tag_576\n        /* \"#utility.yul\":28842:28849   */\n      dup4\n        /* \"#utility.yul\":28811:28850   */\n      tag_316\n      jump\t// in\n    tag_576:\n        /* \"#utility.yul\":28872:28963   */\n      tag_577\n        /* \"#utility.yul\":28921:28962   */\n      tag_578\n        /* \"#utility.yul\":28945:28961   */\n      dup3\n        /* \"#utility.yul\":28921:28962   */\n      tag_317\n      jump\t// in\n    tag_578:\n        /* \"#utility.yul\":28913:28919   */\n      dup5\n        /* \"#utility.yul\":28906:28910   */\n      dup5\n        /* \"#utility.yul\":28900:28911   */\n      sload\n        /* \"#utility.yul\":28872:28963   */\n      tag_314\n      jump\t// in\n    tag_577:\n        /* \"#utility.yul\":28866:28870   */\n      dup3\n        /* \"#utility.yul\":28859:28964   */\n      sstore\n        /* \"#utility.yul\":28777:28970   */\n      pop\n        /* \"#utility.yul\":28701:28970   */\n      pop\n      pop\n      pop\n      jump\t// out\n        /* \"#utility.yul\":28976:29049   */\n    tag_319:\n        /* \"#utility.yul\":29021:29024   */\n      0x00\n        /* \"#utility.yul\":28976:29049   */\n      swap1\n      jump\t// out\n        /* \"#utility.yul\":29055:29244   */\n    tag_320:\n        /* \"#utility.yul\":29132:29164   */\n      tag_581\n      tag_319\n      jump\t// in\n    tag_581:\n        /* \"#utility.yul\":29173:29238   */\n      tag_582\n        /* \"#utility.yul\":29231:29237   */\n      dup2\n        /* \"#utility.yul\":29223:29229   */\n      dup5\n        /* \"#utility.yul\":29217:29221   */\n      dup5\n        /* \"#utility.yul\":29173:29238   */\n      tag_318\n      jump\t// in\n    tag_582:\n        /* \"#utility.yul\":29108:29244   */\n      pop\n        /* \"#utility.yul\":29055:29244   */\n      pop\n      pop\n      jump\t// out\n        /* \"#utility.yul\":29250:29436   */\n    tag_321:\n        /* \"#utility.yul\":29310:29430   */\n    tag_584:\n        /* \"#utility.yul\":29327:29330   */\n      dup2\n        /* \"#utility.yul\":29320:29325   */\n      dup2\n        /* \"#utility.yul\":29317:29331   */\n      lt\n        /* \"#utility.yul\":29310:29430   */\n      iszero\n      tag_586\n      jumpi\n        /* \"#utility.yul\":29381:29420   */\n      tag_587\n        /* \"#utility.yul\":29418:29419   */\n      0x00\n        /* \"#utility.yul\":29411:29416   */\n      dup3\n        /* \"#utility.yul\":29381:29420   */\n      tag_320\n      jump\t// in\n    tag_587:\n        /* \"#utility.yul\":29354:29355   */\n      0x01\n        /* \"#utility.yul\":29347:29352   */\n      dup2\n        /* \"#utility.yul\":29343:29356   */\n      add\n        /* \"#utility.yul\":29334:29356   */\n      swap1\n      pop\n        /* \"#utility.yul\":29310:29430   */\n      jump(tag_584)\n    tag_586:\n        /* \"#utility.yul\":29250:29436   */\n      pop\n      pop\n      jump\t// out\n        /* \"#utility.yul\":29442:29985   */\n    tag_322:\n        /* \"#utility.yul\":29543:29545   */\n      0x1f\n        /* \"#utility.yul\":29538:29541   */\n      dup3\n        /* \"#utility.yul\":29535:29546   */\n      gt\n        /* \"#utility.yul\":29532:29978   */\n      iszero\n      tag_589\n      jumpi\n        /* \"#utility.yul\":29577:29615   */\n      tag_590\n        /* \"#utility.yul\":29609:29614   */\n      dup2\n        /* \"#utility.yul\":29577:29615   */\n      tag_311\n      jump\t// in\n    tag_590:\n        /* \"#utility.yul\":29661:29690   */\n      tag_591\n        /* \"#utility.yul\":29679:29689   */\n      dup5\n        /* \"#utility.yul\":29661:29690   */\n      tag_312\n      jump\t// in\n    tag_591:\n        /* \"#utility.yul\":29651:29659   */\n      dup2\n        /* \"#utility.yul\":29647:29691   */\n      add\n        /* \"#utility.yul\":29844:29846   */\n      0x20\n        /* \"#utility.yul\":29832:29842   */\n      dup6\n        /* \"#utility.yul\":29829:29847   */\n      lt\n        /* \"#utility.yul\":29826:29875   */\n      iszero\n      tag_592\n      jumpi\n        /* \"#utility.yul\":29865:29873   */\n      dup2\n        /* \"#utility.yul\":29850:29873   */\n      swap1\n      pop\n        /* \"#utility.yul\":29826:29875   */\n    tag_592:\n        /* \"#utility.yul\":29888:29968   */\n      tag_593\n        /* \"#utility.yul\":29944:29966   */\n      tag_594\n        /* \"#utility.yul\":29962:29965   */\n      dup6\n        /* \"#utility.yul\":29944:29966   */\n      tag_312\n      jump\t// in\n    tag_594:\n        /* \"#utility.yul\":29934:29942   */\n      dup4\n        /* \"#utility.yul\":29930:29967   */\n      add\n        /* \"#utility.yul\":29917:29928   */\n      dup3\n        /* \"#utility.yul\":29888:29968   */\n      tag_321\n      jump\t// in\n    tag_593:\n        /* \"#utility.yul\":29547:29978   */\n      pop\n      pop\n        /* \"#utility.yul\":29532:29978   */\n    tag_589:\n        /* \"#utility.yul\":29442:29985   */\n      pop\n      pop\n      pop\n      jump\t// out\n        /* \"#utility.yul\":29991:30108   */\n    tag_323:\n        /* \"#utility.yul\":30045:30053   */\n      0x00\n        /* \"#utility.yul\":30095:30100   */\n      dup3\n        /* \"#utility.yul\":30089:30093   */\n      dup3\n        /* \"#utility.yul\":30085:30101   */\n      shr\n        /* \"#utility.yul\":30064:30101   */\n      swap1\n      pop\n        /* \"#utility.yul\":29991:30108   */\n      swap3\n      swap2\n      pop\n      pop\n      jump\t// out\n        /* \"#utility.yul\":30114:30283   */\n    tag_324:\n        /* \"#utility.yul\":30158:30164   */\n      0x00\n        /* \"#utility.yul\":30191:30242   */\n      tag_597\n        /* \"#utility.yul\":30239:30240   */\n      0x00\n        /* \"#utility.yul\":30235:30241   */\n      not\n        /* \"#utility.yul\":30227:30232   */\n      dup5\n        /* \"#utility.yul\":30224:30225   */\n      0x08\n        /* \"#utility.yul\":30220:30233   */\n      mul\n        /* \"#utility.yul\":30191:30242   */\n      tag_323\n      jump\t// in\n    tag_597:\n        /* \"#utility.yul\":30187:30243   */\n      not\n        /* \"#utility.yul\":30272:30276   */\n      dup1\n        /* \"#utility.yul\":30266:30270   */\n      dup4\n        /* \"#utility.yul\":30262:30277   */\n      and\n        /* \"#utility.yul\":30252:30277   */\n      swap2\n      pop\n        /* \"#utility.yul\":30165:30283   */\n      pop\n        /* \"#utility.yul\":30114:30283   */\n      swap3\n      swap2\n      pop\n      pop\n      jump\t// out\n        /* \"#utility.yul\":30288:30583   */\n    tag_325:\n        /* \"#utility.yul\":30364:30368   */\n      0x00\n        /* \"#utility.yul\":30510:30539   */\n      tag_599\n        /* \"#utility.yul\":30535:30538   */\n      dup4\n        /* \"#utility.yul\":30529:30533   */\n      dup4\n        /* \"#utility.yul\":30510:30539   */\n      tag_324\n      jump\t// in\n    tag_599:\n        /* \"#utility.yul\":30502:30539   */\n      swap2\n      pop\n        /* \"#utility.yul\":30572:30575   */\n      dup3\n        /* \"#utility.yul\":30569:30570   */\n      0x02\n        /* \"#utility.yul\":30565:30576   */\n      mul\n        /* \"#utility.yul\":30559:30563   */\n      dup3\n        /* \"#utility.yul\":30556:30577   */\n      or\n        /* \"#utility.yul\":30548:30577   */\n      swap1\n      pop\n        /* \"#utility.yul\":30288:30583   */\n      swap3\n      swap2\n      pop\n      pop\n      jump\t// out\n        /* \"#utility.yul\":30588:31983   */\n    tag_154:\n        /* \"#utility.yul\":30705:30742   */\n      tag_601\n        /* \"#utility.yul\":30738:30741   */\n      dup3\n        /* \"#utility.yul\":30705:30742   */\n      tag_264\n      jump\t// in\n    tag_601:\n        /* \"#utility.yul\":30807:30825   */\n      0xffffffffffffffff\n        /* \"#utility.yul\":30799:30805   */\n      dup2\n        /* \"#utility.yul\":30796:30826   */\n      gt\n        /* \"#utility.yul\":30793:30849   */\n      iszero\n      tag_602\n      jumpi\n        /* \"#utility.yul\":30829:30847   */\n      tag_603\n      tag_112\n      jump\t// in\n    tag_603:\n        /* \"#utility.yul\":30793:30849   */\n    tag_602:\n        /* \"#utility.yul\":30873:30911   */\n      tag_604\n        /* \"#utility.yul\":30905:30909   */\n      dup3\n        /* \"#utility.yul\":30899:30910   */\n      sload\n        /* \"#utility.yul\":30873:30911   */\n      tag_121\n      jump\t// in\n    tag_604:\n        /* \"#utility.yul\":30958:31025   */\n      tag_605\n        /* \"#utility.yul\":31018:31024   */\n      dup3\n        /* \"#utility.yul\":31010:31016   */\n      dup3\n        /* \"#utility.yul\":31004:31008   */\n      dup6\n        /* \"#utility.yul\":30958:31025   */\n      tag_322\n      jump\t// in\n    tag_605:\n        /* \"#utility.yul\":31052:31053   */\n      0x00\n        /* \"#utility.yul\":31076:31080   */\n      0x20\n        /* \"#utility.yul\":31063:31080   */\n      swap1\n      pop\n        /* \"#utility.yul\":31108:31110   */\n      0x1f\n        /* \"#utility.yul\":31100:31106   */\n      dup4\n        /* \"#utility.yul\":31097:31111   */\n      gt\n        /* \"#utility.yul\":31125:31126   */\n      0x01\n        /* \"#utility.yul\":31120:31738   */\n      dup2\n      eq\n      tag_607\n      jumpi\n        /* \"#utility.yul\":31782:31783   */\n      0x00\n        /* \"#utility.yul\":31799:31805   */\n      dup5\n        /* \"#utility.yul\":31796:31873   */\n      iszero\n      tag_608\n      jumpi\n        /* \"#utility.yul\":31848:31857   */\n      dup3\n        /* \"#utility.yul\":31843:31846   */\n      dup8\n        /* \"#utility.yul\":31839:31858   */\n      add\n        /* \"#utility.yul\":31833:31859   */\n      mload\n        /* \"#utility.yul\":31824:31859   */\n      swap1\n      pop\n        /* \"#utility.yul\":31796:31873   */\n    tag_608:\n        /* \"#utility.yul\":31899:31966   */\n      tag_609\n        /* \"#utility.yul\":31959:31965   */\n      dup6\n        /* \"#utility.yul\":31952:31957   */\n      dup3\n        /* \"#utility.yul\":31899:31966   */\n      tag_325\n      jump\t// in\n    tag_609:\n        /* \"#utility.yul\":31893:31897   */\n      dup7\n        /* \"#utility.yul\":31886:31967   */\n      sstore\n        /* \"#utility.yul\":31755:31977   */\n      pop\n        /* \"#utility.yul\":31090:31977   */\n      jump(tag_606)\n        /* \"#utility.yul\":31120:31738   */\n    tag_607:\n        /* \"#utility.yul\":31172:31176   */\n      0x1f\n        /* \"#utility.yul\":31168:31177   */\n      not\n        /* \"#utility.yul\":31160:31166   */\n      dup5\n        /* \"#utility.yul\":31156:31178   */\n      and\n        /* \"#utility.yul\":31206:31243   */\n      tag_610\n        /* \"#utility.yul\":31238:31242   */\n      dup7\n        /* \"#utility.yul\":31206:31243   */\n      tag_311\n      jump\t// in\n    tag_610:\n        /* \"#utility.yul\":31265:31266   */\n      0x00\n        /* \"#utility.yul\":31279:31487   */\n    tag_611:\n        /* \"#utility.yul\":31293:31300   */\n      dup3\n        /* \"#utility.yul\":31290:31291   */\n      dup2\n        /* \"#utility.yul\":31287:31301   */\n      lt\n        /* \"#utility.yul\":31279:31487   */\n      iszero\n      tag_613\n      jumpi\n        /* \"#utility.yul\":31372:31381   */\n      dup5\n        /* \"#utility.yul\":31367:31370   */\n      dup10\n        /* \"#utility.yul\":31363:31382   */\n      add\n        /* \"#utility.yul\":31357:31383   */\n      mload\n        /* \"#utility.yul\":31349:31355   */\n      dup3\n        /* \"#utility.yul\":31342:31384   */\n      sstore\n        /* \"#utility.yul\":31423:31424   */\n      0x01\n        /* \"#utility.yul\":31415:31421   */\n      dup3\n        /* \"#utility.yul\":31411:31425   */\n      add\n        /* \"#utility.yul\":31401:31425   */\n      swap2\n      pop\n        /* \"#utility.yul\":31470:31472   */\n      0x20\n        /* \"#utility.yul\":31459:31468   */\n      dup6\n        /* \"#utility.yul\":31455:31473   */\n      add\n        /* \"#utility.yul\":31442:31473   */\n      swap5\n      pop\n        /* \"#utility.yul\":31316:31320   */\n      0x20\n        /* \"#utility.yul\":31313:31314   */\n      dup2\n        /* \"#utility.yul\":31309:31321   */\n      add\n        /* \"#utility.yul\":31304:31321   */\n      swap1\n      pop\n        /* \"#utility.yul\":31279:31487   */\n      jump(tag_611)\n    tag_613:\n        /* \"#utility.yul\":31515:31521   */\n      dup7\n        /* \"#utility.yul\":31506:31513   */\n      dup4\n        /* \"#utility.yul\":31503:31522   */\n      lt\n        /* \"#utility.yul\":31500:31679   */\n      iszero\n      tag_614\n      jumpi\n        /* \"#utility.yul\":31573:31582   */\n      dup5\n        /* \"#utility.yul\":31568:31571   */\n      dup10\n        /* \"#utility.yul\":31564:31583   */\n      add\n        /* \"#utility.yul\":31558:31584   */\n      mload\n        /* \"#utility.yul\":31616:31664   */\n      tag_615\n        /* \"#utility.yul\":31658:31662   */\n      0x1f\n        /* \"#utility.yul\":31650:31656   */\n      dup10\n        /* \"#utility.yul\":31646:31663   */\n      and\n        /* \"#utility.yul\":31635:31644   */\n      dup3\n        /* \"#utility.yul\":31616:31664   */\n      tag_324\n      jump\t// in\n    tag_615:\n        /* \"#utility.yul\":31608:31614   */\n      dup4\n        /* \"#utility.yul\":31601:31665   */\n      sstore\n        /* \"#utility.yul\":31523:31679   */\n      pop\n        /* \"#utility.yul\":31500:31679   */\n    tag_614:\n        /* \"#utility.yul\":31725:31726   */\n      0x01\n        /* \"#utility.yul\":31721:31722   */\n      0x02\n        /* \"#utility.yul\":31713:31719   */\n      dup9\n        /* \"#utility.yul\":31709:31723   */\n      mul\n        /* \"#utility.yul\":31705:31727   */\n      add\n        /* \"#utility.yul\":31699:31703   */\n      dup9\n        /* \"#utility.yul\":31692:31728   */\n      sstore\n        /* \"#utility.yul\":31127:31738   */\n      pop\n      pop\n      pop\n        /* \"#utility.yul\":31090:31977   */\n    tag_606:\n      pop\n        /* \"#utility.yul\":30680:31983   */\n      pop\n      pop\n      pop\n        /* \"#utility.yul\":30588:31983   */\n      pop\n      pop\n      jump\t// out\n        /* \"#utility.yul\":31989:32224   */\n    tag_326:\n        /* \"#utility.yul\":32129:32163   */\n      0x4475726174696f6e2073686f756c64206265206265747765656e2035206d696e\n        /* \"#utility.yul\":32125:32126   */\n      0x00\n        /* \"#utility.yul\":32117:32123   */\n      dup3\n        /* \"#utility.yul\":32113:32127   */\n      add\n        /* \"#utility.yul\":32106:32164   */\n      mstore\n        /* \"#utility.yul\":32198:32216   */\n      0x7574657320616e64203220686f75727300000000000000000000000000000000\n        /* \"#utility.yul\":32193:32195   */\n      0x20\n        /* \"#utility.yul\":32185:32191   */\n      dup3\n        /* \"#utility.yul\":32181:32196   */\n      add\n        /* \"#utility.yul\":32174:32217   */\n      mstore\n        /* \"#utility.yul\":31989:32224   */\n      pop\n      jump\t// out\n        /* \"#utility.yul\":32230:32596   */\n    tag_327:\n        /* \"#utility.yul\":32372:32375   */\n      0x00\n        /* \"#utility.yul\":32393:32460   */\n      tag_618\n        /* \"#utility.yul\":32457:32459   */\n      0x30\n        /* \"#utility.yul\":32452:32455   */\n      dup4\n        /* \"#utility.yul\":32393:32460   */\n      tag_279\n      jump\t// in\n    tag_618:\n        /* \"#utility.yul\":32386:32460   */\n      swap2\n      pop\n        /* \"#utility.yul\":32469:32562   */\n      tag_619\n        /* \"#utility.yul\":32558:32561   */\n      dup3\n        /* \"#utility.yul\":32469:32562   */\n      tag_326\n      jump\t// in\n    tag_619:\n        /* \"#utility.yul\":32587:32589   */\n      0x40\n        /* \"#utility.yul\":32582:32585   */\n      dup3\n        /* \"#utility.yul\":32578:32590   */\n      add\n        /* \"#utility.yul\":32571:32590   */\n      swap1\n      pop\n        /* \"#utility.yul\":32230:32596   */\n      swap2\n      swap1\n      pop\n      jump\t// out\n        /* \"#utility.yul\":32602:33021   */\n    tag_174:\n        /* \"#utility.yul\":32768:32772   */\n      0x00\n        /* \"#utility.yul\":32806:32808   */\n      0x20\n        /* \"#utility.yul\":32795:32804   */\n      dup3\n        /* \"#utility.yul\":32791:32809   */\n      add\n        /* \"#utility.yul\":32783:32809   */\n      swap1\n      pop\n        /* \"#utility.yul\":32855:32864   */\n      dup2\n        /* \"#utility.yul\":32849:32853   */\n      dup2\n        /* \"#utility.yul\":32845:32865   */\n      sub\n        /* \"#utility.yul\":32841:32842   */\n      0x00\n        /* \"#utility.yul\":32830:32839   */\n      dup4\n        /* \"#utility.yul\":32826:32843   */\n      add\n        /* \"#utility.yul\":32819:32866   */\n      mstore\n        /* \"#utility.yul\":32883:33014   */\n      tag_621\n        /* \"#utility.yul\":33009:33013   */\n      dup2\n        /* \"#utility.yul\":32883:33014   */\n      tag_327\n      jump\t// in\n    tag_621:\n        /* \"#utility.yul\":32875:33014   */\n      swap1\n      pop\n        /* \"#utility.yul\":32602:33021   */\n      swap2\n      swap1\n      pop\n      jump\t// out\n        /* \"#utility.yul\":33027:33199   */\n    tag_328:\n        /* \"#utility.yul\":33167:33191   */\n      0x50726f6475637420646f6573206e6f7420657869737400000000000000000000\n        /* \"#utility.yul\":33163:33164   */\n      0x00\n        /* \"#utility.yul\":33155:33161   */\n      dup3\n        /* \"#utility.yul\":33151:33165   */\n      add\n        /* \"#utility.yul\":33144:33192   */\n      mstore\n        /* \"#utility.yul\":33027:33199   */\n      pop\n      jump\t// out\n        /* \"#utility.yul\":33205:33571   */\n    tag_329:\n        /* \"#utility.yul\":33347:33350   */\n      0x00\n        /* \"#utility.yul\":33368:33435   */\n      tag_624\n        /* \"#utility.yul\":33432:33434   */\n      0x16\n        /* \"#utility.yul\":33427:33430   */\n      dup4\n        /* \"#utility.yul\":33368:33435   */\n      tag_279\n      jump\t// in\n    tag_624:\n        /* \"#utility.yul\":33361:33435   */\n      swap2\n      pop\n        /* \"#utility.yul\":33444:33537   */\n      tag_625\n        /* \"#utility.yul\":33533:33536   */\n      dup3\n        /* \"#utility.yul\":33444:33537   */\n      tag_328\n      jump\t// in\n    tag_625:\n        /* \"#utility.yul\":33562:33564   */\n      0x20\n        /* \"#utility.yul\":33557:33560   */\n      dup3\n        /* \"#utility.yul\":33553:33565   */\n      add\n        /* \"#utility.yul\":33546:33565   */\n      swap1\n      pop\n        /* \"#utility.yul\":33205:33571   */\n      swap2\n      swap1\n      pop\n      jump\t// out\n        /* \"#utility.yul\":33577:33996   */\n    tag_225:\n        /* \"#utility.yul\":33743:33747   */\n      0x00\n        /* \"#utility.yul\":33781:33783   */\n      0x20\n        /* \"#utility.yul\":33770:33779   */\n      dup3\n        /* \"#utility.yul\":33766:33784   */\n      add\n        /* \"#utility.yul\":33758:33784   */\n      swap1\n      pop\n        /* \"#utility.yul\":33830:33839   */\n      dup2\n        /* \"#utility.yul\":33824:33828   */\n      dup2\n        /* \"#utility.yul\":33820:33840   */\n      sub\n        /* \"#utility.yul\":33816:33817   */\n      0x00\n        /* \"#utility.yul\":33805:33814   */\n      dup4\n        /* \"#utility.yul\":33801:33818   */\n      add\n        /* \"#utility.yul\":33794:33841   */\n      mstore\n        /* \"#utility.yul\":33858:33989   */\n      tag_627\n        /* \"#utility.yul\":33984:33988   */\n      dup2\n        /* \"#utility.yul\":33858:33989   */\n      tag_329\n      jump\t// in\n    tag_627:\n        /* \"#utility.yul\":33850:33989   */\n      swap1\n      pop\n        /* \"#utility.yul\":33577:33996   */\n      swap2\n      swap1\n      pop\n      jump\t// out\n\n    auxdata: 0xa2646970667358221220d6f7fea014bb95b2da1a74f82dfef6d347c0c7a7be6f60d1da272b383923ee7164736f6c63430008100033\n}\n",
				"bytecode": {
					"linkReferences": {},
					"object": "608060405260016003556001600655600160095534801561001f57600080fd5b50336000806101000a81548173ffffffffffffffffffffffffffffffffffffffff021916908373ffffffffffffffffffffffffffffffffffffffff1602179055506126838061006f6000396000f3fe608060405234801561001057600080fd5b50600436106101005760003560e01c8063b91c716011610097578063c29b2f2011610066578063c29b2f20146102da578063ed90c7b7146102f8578063ef3197c814610314578063f851a4401461034457610100565b8063b91c71601461023e578063bc85b04c1461025a578063bd293dca14610276578063c22c4f43146102a657610100565b806375417851116100d357806375417851146101a05780637acc0b20146101be57806390d16cba146101f2578063a06a1f691461020e57610100565b80631dab301e146101055780633ae7f0df14610138578063528c87d21461015457806374e29ee614610184575b600080fd5b61011f600480360381019061011a919061164b565b610362565b60405161012f94939291906116c8565b60405180910390f35b610152600480360381019061014d919061164b565b6103b2565b005b61016e6004803603810190610169919061164b565b610407565b60405161017b919061170d565b60405180910390f35b61019e6004803603810190610199919061164b565b61042b565b005b6101a861050e565b6040516101b591906119cf565b60405180910390f35b6101d860048036038101906101d3919061164b565b610784565b6040516101e9959493929190611a3b565b60405180910390f35b61020c60048036038101906102079190611b01565b6108ca565b005b6102286004803603810190610223919061164b565b610ab6565b604051610235919061170d565b60405180910390f35b61025860048036038101906102539190611ba8565b610ada565b005b610274600480360381019061026f9190611c3e565b610c29565b005b610290600480360381019061028b919061164b565b610ece565b60405161029d919061170d565b60405180910390f35b6102c060048036038101906102bb919061164b565b610ef2565b6040516102d1959493929190611a3b565b60405180910390f35b6102e2611038565b6040516102ef9190611e59565b60405180910390f35b610312600480360381019061030d919061164b565b611256565b005b61032e60048036038101906103299190611ea7565b611339565b60405161033b9190611fe7565b60405180910390f35b61034c6114da565b6040516103599190612009565b60405180910390f35b60076020528060005260406000206000915090508060000154908060010154908060020154908060030160009054906101000a900473ffffffffffffffffffffffffffffffffffffffff16905084565b806000811180156103c4575060095481105b610403576040517f08c379a00000000000000000000000000000000000000000000000000000000081526004016103fa90612070565b60405180910390fd5b5050565b6005818154811061041757600080fd5b906000526020600020016000915090505481565b60008054906101000a900473ffffffffffffffffffffffffffffffffffffffff1673ffffffffffffffffffffffffffffffffffffffff163373ffffffffffffffffffffffffffffffffffffffff16146104b9576040517f08c379a00000000000000000000000000000000000000000000000000000000081526004016104b0906120dc565b60405180910390fd5b806000811180156104cb575060035481105b61050a576040517f08c379a000000000000000000000000000000000000000000000000000000000815260040161050190612148565b60405180910390fd5b5050565b6060600060016003546105219190612197565b67ffffffffffffffff81111561053a576105396121cb565b5b60405190808252806020026020018201604052801561057357816020015b6105606114fe565b8152602001906001900390816105585790505b5090506000600190505b60035481101561077c57600160008281526020019081526020016000206040518060c0016040529081600082015481526020016001820180546105bf90612229565b80601f01602080910402602001604051908101604052809291908181526020018280546105eb90612229565b80156106385780601f1061060d57610100808354040283529160200191610638565b820191906000526020600020905b81548152906001019060200180831161061b57829003601f168201915b5050505050815260200160028201805461065190612229565b80601f016020809104026020016040519081016040528092919081815260200182805461067d90612229565b80156106ca5780601f1061069f576101008083540402835291602001916106ca565b820191906000526020600020905b8154815290600101906020018083116106ad57829003601f168201915b5050505050815260200160038201548152602001600482015481526020016005820180548060200260200160405190810160405280929190818152602001828054801561073657602002820191906000526020600020905b815481526020019060010190808311610722575b5050505050815250508260018361074d9190612197565b8151811061075e5761075d61225a565b5b6020026020010181905250808061077490612289565b91505061057d565b508091505090565b60046020528060005260406000206000915090508060000154908060010180546107ad90612229565b80601f01602080910402602001604051908101604052809291908181526020018280546107d990612229565b80156108265780601f106107fb57610100808354040283529160200191610826565b820191906000526020600020905b81548152906001019060200180831161080957829003601f168201915b50505050509080600201805461083b90612229565b80601f016020809104026020016040519081016040528092919081815260200182805461086790612229565b80156108b45780601f10610889576101008083540402835291602001916108b4565b820191906000526020600020905b81548152906001019060200180831161089757829003601f168201915b5050505050908060030154908060040154905085565b60008054906101000a900473ffffffffffffffffffffffffffffffffffffffff1673ffffffffffffffffffffffffffffffffffffffff163373ffffffffffffffffffffffffffffffffffffffff1614610958576040517f08c379a000000000000000000000000000000000000000000000000000000000815260040161094f906120dc565b60405180910390fd5b6040518060a00160405280600654815260200187878080601f016020809104026020016040519081016040528093929190818152602001838380828437600081840152601f19601f82011690508083019250505050505050815260200185858080601f016020809104026020016040519081016040528093929190818152602001838380828437600081840152601f19601f82011690508083019250505050505050815260200183815260200182815250600460006006548152602001908152602001600020600082015181600001556020820151816001019081610a3d919061247d565b506040820151816002019081610a53919061247d565b5060608201518160030155608082015181600401559050506005600654908060018154018082558091505060019003906000526020600020016000909190919091505560066000815480929190610aa990612289565b9190505550505050505050565b60088181548110610ac657600080fd5b906000526020600020016000915090505481565b80600081118015610aec575060035481105b610b2b576040517f08c379a0000000000000000000000000000000000000000000000000000000008152600401610b2290612148565b60405180910390fd5b604051806080016040528060095481526020018481526020018381526020013373ffffffffffffffffffffffffffffffffffffffff1681525060076000600954815260200190815260200160002060008201518160000155602082015181600101556040820151816002015560608201518160030160006101000a81548173ffffffffffffffffffffffffffffffffffffffff021916908373ffffffffffffffffffffffffffffffffffffffff1602179055509050506008600954908060018154018082558091505060019003906000526020600020016000909190919091505560096000815480929190610c1f90612289565b9190505550505050565b60008054906101000a900473ffffffffffffffffffffffffffffffffffffffff1673ffffffffffffffffffffffffffffffffffffffff163373ffffffffffffffffffffffffffffffffffffffff1614610cb7576040517f08c379a0000000000000000000000000000000000000000000000000000000008152600401610cae906120dc565b60405180910390fd5b61012c8310158015610ccb5750611c208311155b610d0a576040517f08c379a0000000000000000000000000000000000000000000000000000000008152600401610d01906125c1565b60405180910390fd5b6040518060c00160405280600354815260200189898080601f016020809104026020016040519081016040528093929190818152602001838380828437600081840152601f19601f82011690508083019250505050505050815260200187878080601f016020809104026020016040519081016040528093929190818152602001838380828437600081840152601f19601f820116905080830192505050505050508152602001858152602001848152602001838380806020026020016040519081016040528093929190818152602001838360200280828437600081840152601f19601f82011690508083019250505050505050815250600160006003548152602001908152602001600020600082015181600001556020820151816001019081610e36919061247d565b506040820151816002019081610e4c919061247d565b50606082015181600301556080820151816004015560a0820151816005019080519060200190610e7d929190611534565b509050506002600354908060018154018082558091505060019003906000526020600020016000909190919091505560036000815480929190610ebf90612289565b91905055505050505050505050565b60028181548110610ede57600080fd5b906000526020600020016000915090505481565b6001602052806000526040600020600091509050806000015490806001018054610f1b90612229565b80601f0160208091040260200160405190810160405280929190818152602001828054610f4790612229565b8015610f945780601f10610f6957610100808354040283529160200191610f94565b820191906000526020600020905b815481529060010190602001808311610f7757829003601f168201915b505050505090806002018054610fa990612229565b80601f0160208091040260200160405190810160405280929190818152602001828054610fd590612229565b80156110225780601f10610ff757610100808354040283529160200191611022565b820191906000526020600020905b81548152906001019060200180831161100557829003601f168201915b5050505050908060030154908060040154905085565b60606000600160065461104b9190612197565b67ffffffffffffffff811115611064576110636121cb565b5b60405190808252806020026020018201604052801561109d57816020015b61108a611581565b8152602001906001900390816110825790505b5090506000600190505b60065481101561124e57600460008281526020019081526020016000206040518060a0016040529081600082015481526020016001820180546110e990612229565b80601f016020809104026020016040519081016040528092919081815260200182805461111590612229565b80156111625780601f1061113757610100808354040283529160200191611162565b820191906000526020600020905b81548152906001019060200180831161114557829003601f168201915b5050505050815260200160028201805461117b90612229565b80601f01602080910402602001604051908101604052809291908181526020018280546111a790612229565b80156111f45780601f106111c9576101008083540402835291602001916111f4565b820191906000526020600020905b8154815290600101906020018083116111d757829003601f168201915b50505050508152602001600382015481526020016004820154815250508260018361121f9190612197565b815181106112305761122f61225a565b5b6020026020010181905250808061124690612289565b9150506110a7565b508091505090565b60008054906101000a900473ffffffffffffffffffffffffffffffffffffffff1673ffffffffffffffffffffffffffffffffffffffff163373ffffffffffffffffffffffffffffffffffffffff16146112e4576040517f08c379a00000000000000000000000000000000000000000000000000000000081526004016112db906120dc565b60405180910390fd5b806000811180156112f6575060065481105b611335576040517f08c379a000000000000000000000000000000000000000000000000000000000815260040161132c9061262d565b60405180910390fd5b5050565b60606000600a60008473ffffffffffffffffffffffffffffffffffffffff1673ffffffffffffffffffffffffffffffffffffffff16815260200190815260200160002090506000818054905067ffffffffffffffff81111561139e5761139d6121cb565b5b6040519080825280602002602001820160405280156113d757816020015b6113c46115b0565b8152602001906001900390816113bc5790505b50905060005b82805490508110156114cf5760008382815481106113fe576113fd61225a565b5b90600052602060002001549050600760008281526020019081526020016000206040518060800160405290816000820154815260200160018201548152602001600282015481526020016003820160009054906101000a900473ffffffffffffffffffffffffffffffffffffffff1673ffffffffffffffffffffffffffffffffffffffff1673ffffffffffffffffffffffffffffffffffffffff16815250508383815181106114b0576114af61225a565b5b60200260200101819052505080806114c790612289565b9150506113dd565b508092505050919050565b60008054906101000a900473ffffffffffffffffffffffffffffffffffffffff1681565b6040518060c001604052806000815260200160608152602001606081526020016000815260200160008152602001606081525090565b828054828255906000526020600020908101928215611570579160200282015b8281111561156f578251825591602001919060010190611554565b5b50905061157d91906115ee565b5090565b6040518060a0016040528060008152602001606081526020016060815260200160008152602001600081525090565b6040518060800160405280600081526020016000815260200160008152602001600073ffffffffffffffffffffffffffffffffffffffff1681525090565b5b808211156116075760008160009055506001016115ef565b5090565b600080fd5b600080fd5b6000819050919050565b61162881611615565b811461163357600080fd5b50565b6000813590506116458161161f565b92915050565b6000602082840312156116615761166061160b565b5b600061166f84828501611636565b91505092915050565b61168181611615565b82525050565b600073ffffffffffffffffffffffffffffffffffffffff82169050919050565b60006116b282611687565b9050919050565b6116c2816116a7565b82525050565b60006080820190506116dd6000830187611678565b6116ea6020830186611678565b6116f76040830185611678565b61170460608301846116b9565b95945050505050565b60006020820190506117226000830184611678565b92915050565b600081519050919050565b600082825260208201905092915050565b6000819050602082019050919050565b61175d81611615565b82525050565b600081519050919050565b600082825260208201905092915050565b60005b8381101561179d578082015181840152602081019050611782565b60008484015250505050565b6000601f19601f8301169050919050565b60006117c582611763565b6117cf818561176e565b93506117df81856020860161177f565b6117e8816117a9565b840191505092915050565b600081519050919050565b600082825260208201905092915050565b6000819050602082019050919050565b600061182b8383611754565b60208301905092915050565b6000602082019050919050565b600061184f826117f3565b61185981856117fe565b93506118648361180f565b8060005b8381101561189557815161187c888261181f565b975061188783611837565b925050600181019050611868565b5085935050505092915050565b600060c0830160008301516118ba6000860182611754565b50602083015184820360208601526118d282826117ba565b915050604083015184820360408601526118ec82826117ba565b91505060608301516119016060860182611754565b5060808301516119146080860182611754565b5060a083015184820360a086015261192c8282611844565b9150508091505092915050565b600061194583836118a2565b905092915050565b6000602082019050919050565b600061196582611728565b61196f8185611733565b93508360208202850161198185611744565b8060005b858110156119bd578484038952815161199e8582611939565b94506119a98361194d565b925060208a01995050600181019050611985565b50829750879550505050505092915050565b600060208201905081810360008301526119e9818461195a565b905092915050565b600082825260208201905092915050565b6000611a0d82611763565b611a1781856119f1565b9350611a2781856020860161177f565b611a30816117a9565b840191505092915050565b600060a082019050611a506000830188611678565b8181036020830152611a628187611a02565b90508181036040830152611a768186611a02565b9050611a856060830185611678565b611a926080830184611678565b9695505050505050565b600080fd5b600080fd5b600080fd5b60008083601f840112611ac157611ac0611a9c565b5b8235905067ffffffffffffffff811115611ade57611add611aa1565b5b602083019150836001820283011115611afa57611af9611aa6565b5b9250929050565b60008060008060008060808789031215611b1e57611b1d61160b565b5b600087013567ffffffffffffffff811115611b3c57611b3b611610565b5b611b4889828a01611aab565b9650965050602087013567ffffffffffffffff811115611b6b57611b6a611610565b5b611b7789828a01611aab565b94509450506040611b8a89828a01611636565b9250506060611b9b89828a01611636565b9150509295509295509295565b60008060408385031215611bbf57611bbe61160b565b5b6000611bcd85828601611636565b9250506020611bde85828601611636565b9150509250929050565b60008083601f840112611bfe57611bfd611a9c565b5b8235905067ffffffffffffffff811115611c1b57611c1a611aa1565b5b602083019150836020820283011115611c3757611c36611aa6565b5b9250929050565b60008060008060008060008060a0898b031215611c5e57611c5d61160b565b5b600089013567ffffffffffffffff811115611c7c57611c7b611610565b5b611c888b828c01611aab565b9850985050602089013567ffffffffffffffff811115611cab57611caa611610565b5b611cb78b828c01611aab565b96509650506040611cca8b828c01611636565b9450506060611cdb8b828c01611636565b935050608089013567ffffffffffffffff811115611cfc57611cfb611610565b5b611d088b828c01611be8565b92509250509295985092959890939650565b600081519050919050565b600082825260208201905092915050565b6000819050602082019050919050565b600060a083016000830151611d5e6000860182611754565b5060208301518482036020860152611d7682826117ba565b91505060408301518482036040860152611d9082826117ba565b9150506060830151611da56060860182611754565b506080830151611db86080860182611754565b508091505092915050565b6000611dcf8383611d46565b905092915050565b6000602082019050919050565b6000611def82611d1a565b611df98185611d25565b935083602082028501611e0b85611d36565b8060005b85811015611e475784840389528151611e288582611dc3565b9450611e3383611dd7565b925060208a01995050600181019050611e0f565b50829750879550505050505092915050565b60006020820190508181036000830152611e738184611de4565b905092915050565b611e84816116a7565b8114611e8f57600080fd5b50565b600081359050611ea181611e7b565b92915050565b600060208284031215611ebd57611ebc61160b565b5b6000611ecb84828501611e92565b91505092915050565b600081519050919050565b600082825260208201905092915050565b6000819050602082019050919050565b611f09816116a7565b82525050565b608082016000820151611f256000850182611754565b506020820151611f386020850182611754565b506040820151611f4b6040850182611754565b506060820151611f5e6060850182611f00565b50505050565b6000611f708383611f0f565b60808301905092915050565b6000602082019050919050565b6000611f9482611ed4565b611f9e8185611edf565b9350611fa983611ef0565b8060005b83811015611fda578151611fc18882611f64565b9750611fcc83611f7c565b925050600181019050611fad565b5085935050505092915050565b600060208201905081810360008301526120018184611f89565b905092915050565b600060208201905061201e60008301846116b9565b92915050565b7f426f6f6b696e6720646f6573206e6f7420657869737400000000000000000000600082015250565b600061205a6016836119f1565b915061206582612024565b602082019050919050565b600060208201905081810360008301526120898161204d565b9050919050565b7f4f6e6c792061646d696e00000000000000000000000000000000000000000000600082015250565b60006120c6600a836119f1565b91506120d182612090565b602082019050919050565b600060208201905081810360008301526120f5816120b9565b9050919050565b7f5365727669636520646f6573206e6f7420657869737400000000000000000000600082015250565b60006121326016836119f1565b915061213d826120fc565b602082019050919050565b6000602082019050818103600083015261216181612125565b9050919050565b7f4e487b7100000000000000000000000000000000000000000000000000000000600052601160045260246000fd5b60006121a282611615565b91506121ad83611615565b92508282039050818111156121c5576121c4612168565b5b92915050565b7f4e487b7100000000000000000000000000000000000000000000000000000000600052604160045260246000fd5b7f4e487b7100000000000000000000000000000000000000000000000000000000600052602260045260246000fd5b6000600282049050600182168061224157607f821691505b602082108103612254576122536121fa565b5b50919050565b7f4e487b7100000000000000000000000000000000000000000000000000000000600052603260045260246000fd5b600061229482611615565b91507fffffffffffffffffffffffffffffffffffffffffffffffffffffffffffffffff82036122c6576122c5612168565b5b600182019050919050565b60008190508160005260206000209050919050565b60006020601f8301049050919050565b600082821b905092915050565b6000600883026123337fffffffffffffffffffffffffffffffffffffffffffffffffffffffffffffffff826122f6565b61233d86836122f6565b95508019841693508086168417925050509392505050565b6000819050919050565b600061237a61237561237084611615565b612355565b611615565b9050919050565b6000819050919050565b6123948361235f565b6123a86123a082612381565b848454612303565b825550505050565b600090565b6123bd6123b0565b6123c881848461238b565b505050565b5b818110156123ec576123e16000826123b5565b6001810190506123ce565b5050565b601f82111561243157612402816122d1565b61240b846122e6565b8101602085101561241a578190505b61242e612426856122e6565b8301826123cd565b50505b505050565b600082821c905092915050565b600061245460001984600802612436565b1980831691505092915050565b600061246d8383612443565b9150826002028217905092915050565b61248682611763565b67ffffffffffffffff81111561249f5761249e6121cb565b5b6124a98254612229565b6124b48282856123f0565b600060209050601f8311600181146124e757600084156124d5578287015190505b6124df8582612461565b865550612547565b601f1984166124f5866122d1565b60005b8281101561251d578489015182556001820191506020850194506020810190506124f8565b8683101561253a5784890151612536601f891682612443565b8355505b6001600288020188555050505b505050505050565b7f4475726174696f6e2073686f756c64206265206265747765656e2035206d696e60008201527f7574657320616e64203220686f75727300000000000000000000000000000000602082015250565b60006125ab6030836119f1565b91506125b68261254f565b604082019050919050565b600060208201905081810360008301526125da8161259e565b9050919050565b7f50726f6475637420646f6573206e6f7420657869737400000000000000000000600082015250565b60006126176016836119f1565b9150612622826125e1565b602082019050919050565b600060208201905081810360008301526126468161260a565b905091905056fea2646970667358221220d6f7fea014bb95b2da1a74f82dfef6d347c0c7a7be6f60d1da272b383923ee7164736f6c63430008100033",
					"opcodes": "PUSH1 0x80 PUSH1 0x40 MSTORE PUSH1 0x1 PUSH1 0x3 SSTORE PUSH1 0x1 PUSH1 0x6 SSTORE PUSH1 0x1 PUSH1 0x9 SSTORE CALLVALUE DUP1 ISZERO PUSH2 0x1F JUMPI PUSH1 0x0 DUP1 REVERT JUMPDEST POP CALLER PUSH1 0x0 DUP1 PUSH2 0x100 EXP DUP2 SLOAD DUP2 PUSH20 0xFFFFFFFFFFFFFFFFFFFFFFFFFFFFFFFFFFFFFFFF MUL NOT AND SWAP1 DUP4 PUSH20 0xFFFFFFFFFFFFFFFFFFFFFFFFFFFFFFFFFFFFFFFF AND MUL OR SWAP1 SSTORE POP PUSH2 0x2683 DUP1 PUSH2 0x6F PUSH1 0x0 CODECOPY PUSH1 0x0 RETURN INVALID PUSH1 0x80 PUSH1 0x40 MSTORE CALLVALUE DUP1 ISZERO PUSH2 0x10 JUMPI PUSH1 0x0 DUP1 REVERT JUMPDEST POP PUSH1 0x4 CALLDATASIZE LT PUSH2 0x100 JUMPI PUSH1 0x0 CALLDATALOAD PUSH1 0xE0 SHR DUP1 PUSH4 0xB91C7160 GT PUSH2 0x97 JUMPI DUP1 PUSH4 0xC29B2F20 GT PUSH2 0x66 JUMPI DUP1 PUSH4 0xC29B2F20 EQ PUSH2 0x2DA JUMPI DUP1 PUSH4 0xED90C7B7 EQ PUSH2 0x2F8 JUMPI DUP1 PUSH4 0xEF3197C8 EQ PUSH2 0x314 JUMPI DUP1 PUSH4 0xF851A440 EQ PUSH2 0x344 JUMPI PUSH2 0x100 JUMP JUMPDEST DUP1 PUSH4 0xB91C7160 EQ PUSH2 0x23E JUMPI DUP1 PUSH4 0xBC85B04C EQ PUSH2 0x25A JUMPI DUP1 PUSH4 0xBD293DCA EQ PUSH2 0x276 JUMPI DUP1 PUSH4 0xC22C4F43 EQ PUSH2 0x2A6 JUMPI PUSH2 0x100 JUMP JUMPDEST DUP1 PUSH4 0x75417851 GT PUSH2 0xD3 JUMPI DUP1 PUSH4 0x75417851 EQ PUSH2 0x1A0 JUMPI DUP1 PUSH4 0x7ACC0B20 EQ PUSH2 0x1BE JUMPI DUP1 PUSH4 0x90D16CBA EQ PUSH2 0x1F2 JUMPI DUP1 PUSH4 0xA06A1F69 EQ PUSH2 0x20E JUMPI PUSH2 0x100 JUMP JUMPDEST DUP1 PUSH4 0x1DAB301E EQ PUSH2 0x105 JUMPI DUP1 PUSH4 0x3AE7F0DF EQ PUSH2 0x138 JUMPI DUP1 PUSH4 0x528C87D2 EQ PUSH2 0x154 JUMPI DUP1 PUSH4 0x74E29EE6 EQ PUSH2 0x184 JUMPI JUMPDEST PUSH1 0x0 DUP1 REVERT JUMPDEST PUSH2 0x11F PUSH1 0x4 DUP1 CALLDATASIZE SUB DUP2 ADD SWAP1 PUSH2 0x11A SWAP2 SWAP1 PUSH2 0x164B JUMP JUMPDEST PUSH2 0x362 JUMP JUMPDEST PUSH1 0x40 MLOAD PUSH2 0x12F SWAP5 SWAP4 SWAP3 SWAP2 SWAP1 PUSH2 0x16C8 JUMP JUMPDEST PUSH1 0x40 MLOAD DUP1 SWAP2 SUB SWAP1 RETURN JUMPDEST PUSH2 0x152 PUSH1 0x4 DUP1 CALLDATASIZE SUB DUP2 ADD SWAP1 PUSH2 0x14D SWAP2 SWAP1 PUSH2 0x164B JUMP JUMPDEST PUSH2 0x3B2 JUMP JUMPDEST STOP JUMPDEST PUSH2 0x16E PUSH1 0x4 DUP1 CALLDATASIZE SUB DUP2 ADD SWAP1 PUSH2 0x169 SWAP2 SWAP1 PUSH2 0x164B JUMP JUMPDEST PUSH2 0x407 JUMP JUMPDEST PUSH1 0x40 MLOAD PUSH2 0x17B SWAP2 SWAP1 PUSH2 0x170D JUMP JUMPDEST PUSH1 0x40 MLOAD DUP1 SWAP2 SUB SWAP1 RETURN JUMPDEST PUSH2 0x19E PUSH1 0x4 DUP1 CALLDATASIZE SUB DUP2 ADD SWAP1 PUSH2 0x199 SWAP2 SWAP1 PUSH2 0x164B JUMP JUMPDEST PUSH2 0x42B JUMP JUMPDEST STOP JUMPDEST PUSH2 0x1A8 PUSH2 0x50E JUMP JUMPDEST PUSH1 0x40 MLOAD PUSH2 0x1B5 SWAP2 SWAP1 PUSH2 0x19CF JUMP JUMPDEST PUSH1 0x40 MLOAD DUP1 SWAP2 SUB SWAP1 RETURN JUMPDEST PUSH2 0x1D8 PUSH1 0x4 DUP1 CALLDATASIZE SUB DUP2 ADD SWAP1 PUSH2 0x1D3 SWAP2 SWAP1 PUSH2 0x164B JUMP JUMPDEST PUSH2 0x784 JUMP JUMPDEST PUSH1 0x40 MLOAD PUSH2 0x1E9 SWAP6 SWAP5 SWAP4 SWAP3 SWAP2 SWAP1 PUSH2 0x1A3B JUMP JUMPDEST PUSH1 0x40 MLOAD DUP1 SWAP2 SUB SWAP1 RETURN JUMPDEST PUSH2 0x20C PUSH1 0x4 DUP1 CALLDATASIZE SUB DUP2 ADD SWAP1 PUSH2 0x207 SWAP2 SWAP1 PUSH2 0x1B01 JUMP JUMPDEST PUSH2 0x8CA JUMP JUMPDEST STOP JUMPDEST PUSH2 0x228 PUSH1 0x4 DUP1 CALLDATASIZE SUB DUP2 ADD SWAP1 PUSH2 0x223 SWAP2 SWAP1 PUSH2 0x164B JUMP JUMPDEST PUSH2 0xAB6 JUMP JUMPDEST PUSH1 0x40 MLOAD PUSH2 0x235 SWAP2 SWAP1 PUSH2 0x170D JUMP JUMPDEST PUSH1 0x40 MLOAD DUP1 SWAP2 SUB SWAP1 RETURN JUMPDEST PUSH2 0x258 PUSH1 0x4 DUP1 CALLDATASIZE SUB DUP2 ADD SWAP1 PUSH2 0x253 SWAP2 SWAP1 PUSH2 0x1BA8 JUMP JUMPDEST PUSH2 0xADA JUMP JUMPDEST STOP JUMPDEST PUSH2 0x274 PUSH1 0x4 DUP1 CALLDATASIZE SUB DUP2 ADD SWAP1 PUSH2 0x26F SWAP2 SWAP1 PUSH2 0x1C3E JUMP JUMPDEST PUSH2 0xC29 JUMP JUMPDEST STOP JUMPDEST PUSH2 0x290 PUSH1 0x4 DUP1 CALLDATASIZE SUB DUP2 ADD SWAP1 PUSH2 0x28B SWAP2 SWAP1 PUSH2 0x164B JUMP JUMPDEST PUSH2 0xECE JUMP JUMPDEST PUSH1 0x40 MLOAD PUSH2 0x29D SWAP2 SWAP1 PUSH2 0x170D JUMP JUMPDEST PUSH1 0x40 MLOAD DUP1 SWAP2 SUB SWAP1 RETURN JUMPDEST PUSH2 0x2C0 PUSH1 0x4 DUP1 CALLDATASIZE SUB DUP2 ADD SWAP1 PUSH2 0x2BB SWAP2 SWAP1 PUSH2 0x164B JUMP JUMPDEST PUSH2 0xEF2 JUMP JUMPDEST PUSH1 0x40 MLOAD PUSH2 0x2D1 SWAP6 SWAP5 SWAP4 SWAP3 SWAP2 SWAP1 PUSH2 0x1A3B JUMP JUMPDEST PUSH1 0x40 MLOAD DUP1 SWAP2 SUB SWAP1 RETURN JUMPDEST PUSH2 0x2E2 PUSH2 0x1038 JUMP JUMPDEST PUSH1 0x40 MLOAD PUSH2 0x2EF SWAP2 SWAP1 PUSH2 0x1E59 JUMP JUMPDEST PUSH1 0x40 MLOAD DUP1 SWAP2 SUB SWAP1 RETURN JUMPDEST PUSH2 0x312 PUSH1 0x4 DUP1 CALLDATASIZE SUB DUP2 ADD SWAP1 PUSH2 0x30D SWAP2 SWAP1 PUSH2 0x164B JUMP JUMPDEST PUSH2 0x1256 JUMP JUMPDEST STOP JUMPDEST PUSH2 0x32E PUSH1 0x4 DUP1 CALLDATASIZE SUB DUP2 ADD SWAP1 PUSH2 0x329 SWAP2 SWAP1 PUSH2 0x1EA7 JUMP JUMPDEST PUSH2 0x1339 JUMP JUMPDEST PUSH1 0x40 MLOAD PUSH2 0x33B SWAP2 SWAP1 PUSH2 0x1FE7 JUMP JUMPDEST PUSH1 0x40 MLOAD DUP1 SWAP2 SUB SWAP1 RETURN JUMPDEST PUSH2 0x34C PUSH2 0x14DA JUMP JUMPDEST PUSH1 0x40 MLOAD PUSH2 0x359 SWAP2 SWAP1 PUSH2 0x2009 JUMP JUMPDEST PUSH1 0x40 MLOAD DUP1 SWAP2 SUB SWAP1 RETURN JUMPDEST PUSH1 0x7 PUSH1 0x20 MSTORE DUP1 PUSH1 0x0 MSTORE PUSH1 0x40 PUSH1 0x0 KECCAK256 PUSH1 0x0 SWAP2 POP SWAP1 POP DUP1 PUSH1 0x0 ADD SLOAD SWAP1 DUP1 PUSH1 0x1 ADD SLOAD SWAP1 DUP1 PUSH1 0x2 ADD SLOAD SWAP1 DUP1 PUSH1 0x3 ADD PUSH1 0x0 SWAP1 SLOAD SWAP1 PUSH2 0x100 EXP SWAP1 DIV PUSH20 0xFFFFFFFFFFFFFFFFFFFFFFFFFFFFFFFFFFFFFFFF AND SWAP1 POP DUP5 JUMP JUMPDEST DUP1 PUSH1 0x0 DUP2 GT DUP1 ISZERO PUSH2 0x3C4 JUMPI POP PUSH1 0x9 SLOAD DUP2 LT JUMPDEST PUSH2 0x403 JUMPI PUSH1 0x40 MLOAD PUSH32 0x8C379A000000000000000000000000000000000000000000000000000000000 DUP2 MSTORE PUSH1 0x4 ADD PUSH2 0x3FA SWAP1 PUSH2 0x2070 JUMP JUMPDEST PUSH1 0x40 MLOAD DUP1 SWAP2 SUB SWAP1 REVERT JUMPDEST POP POP JUMP JUMPDEST PUSH1 0x5 DUP2 DUP2 SLOAD DUP2 LT PUSH2 0x417 JUMPI PUSH1 0x0 DUP1 REVERT JUMPDEST SWAP1 PUSH1 0x0 MSTORE PUSH1 0x20 PUSH1 0x0 KECCAK256 ADD PUSH1 0x0 SWAP2 POP SWAP1 POP SLOAD DUP2 JUMP JUMPDEST PUSH1 0x0 DUP1 SLOAD SWAP1 PUSH2 0x100 EXP SWAP1 DIV PUSH20 0xFFFFFFFFFFFFFFFFFFFFFFFFFFFFFFFFFFFFFFFF AND PUSH20 0xFFFFFFFFFFFFFFFFFFFFFFFFFFFFFFFFFFFFFFFF AND CALLER PUSH20 0xFFFFFFFFFFFFFFFFFFFFFFFFFFFFFFFFFFFFFFFF AND EQ PUSH2 0x4B9 JUMPI PUSH1 0x40 MLOAD PUSH32 0x8C379A000000000000000000000000000000000000000000000000000000000 DUP2 MSTORE PUSH1 0x4 ADD PUSH2 0x4B0 SWAP1 PUSH2 0x20DC JUMP JUMPDEST PUSH1 0x40 MLOAD DUP1 SWAP2 SUB SWAP1 REVERT JUMPDEST DUP1 PUSH1 0x0 DUP2 GT DUP1 ISZERO PUSH2 0x4CB JUMPI POP PUSH1 0x3 SLOAD DUP2 LT JUMPDEST PUSH2 0x50A JUMPI PUSH1 0x40 MLOAD PUSH32 0x8C379A000000000000000000000000000000000000000000000000000000000 DUP2 MSTORE PUSH1 0x4 ADD PUSH2 0x501 SWAP1 PUSH2 0x2148 JUMP JUMPDEST PUSH1 0x40 MLOAD DUP1 SWAP2 SUB SWAP1 REVERT JUMPDEST POP POP JUMP JUMPDEST PUSH1 0x60 PUSH1 0x0 PUSH1 0x1 PUSH1 0x3 SLOAD PUSH2 0x521 SWAP2 SWAP1 PUSH2 0x2197 JUMP JUMPDEST PUSH8 0xFFFFFFFFFFFFFFFF DUP2 GT ISZERO PUSH2 0x53A JUMPI PUSH2 0x539 PUSH2 0x21CB JUMP JUMPDEST JUMPDEST PUSH1 0x40 MLOAD SWAP1 DUP1 DUP3 MSTORE DUP1 PUSH1 0x20 MUL PUSH1 0x20 ADD DUP3 ADD PUSH1 0x40 MSTORE DUP1 ISZERO PUSH2 0x573 JUMPI DUP2 PUSH1 0x20 ADD JUMPDEST PUSH2 0x560 PUSH2 0x14FE JUMP JUMPDEST DUP2 MSTORE PUSH1 0x20 ADD SWAP1 PUSH1 0x1 SWAP1 SUB SWAP1 DUP2 PUSH2 0x558 JUMPI SWAP1 POP JUMPDEST POP SWAP1 POP PUSH1 0x0 PUSH1 0x1 SWAP1 POP JUMPDEST PUSH1 0x3 SLOAD DUP2 LT ISZERO PUSH2 0x77C JUMPI PUSH1 0x1 PUSH1 0x0 DUP3 DUP2 MSTORE PUSH1 0x20 ADD SWAP1 DUP2 MSTORE PUSH1 0x20 ADD PUSH1 0x0 KECCAK256 PUSH1 0x40 MLOAD DUP1 PUSH1 0xC0 ADD PUSH1 0x40 MSTORE SWAP1 DUP2 PUSH1 0x0 DUP3 ADD SLOAD DUP2 MSTORE PUSH1 0x20 ADD PUSH1 0x1 DUP3 ADD DUP1 SLOAD PUSH2 0x5BF SWAP1 PUSH2 0x2229 JUMP JUMPDEST DUP1 PUSH1 0x1F ADD PUSH1 0x20 DUP1 SWAP2 DIV MUL PUSH1 0x20 ADD PUSH1 0x40 MLOAD SWAP1 DUP2 ADD PUSH1 0x40 MSTORE DUP1 SWAP3 SWAP2 SWAP1 DUP2 DUP2 MSTORE PUSH1 0x20 ADD DUP3 DUP1 SLOAD PUSH2 0x5EB SWAP1 PUSH2 0x2229 JUMP JUMPDEST DUP1 ISZERO PUSH2 0x638 JUMPI DUP1 PUSH1 0x1F LT PUSH2 0x60D JUMPI PUSH2 0x100 DUP1 DUP4 SLOAD DIV MUL DUP4 MSTORE SWAP2 PUSH1 0x20 ADD SWAP2 PUSH2 0x638 JUMP JUMPDEST DUP3 ADD SWAP2 SWAP1 PUSH1 0x0 MSTORE PUSH1 0x20 PUSH1 0x0 KECCAK256 SWAP1 JUMPDEST DUP2 SLOAD DUP2 MSTORE SWAP1 PUSH1 0x1 ADD SWAP1 PUSH1 0x20 ADD DUP1 DUP4 GT PUSH2 0x61B JUMPI DUP3 SWAP1 SUB PUSH1 0x1F AND DUP3 ADD SWAP2 JUMPDEST POP POP POP POP POP DUP2 MSTORE PUSH1 0x20 ADD PUSH1 0x2 DUP3 ADD DUP1 SLOAD PUSH2 0x651 SWAP1 PUSH2 0x2229 JUMP JUMPDEST DUP1 PUSH1 0x1F ADD PUSH1 0x20 DUP1 SWAP2 DIV MUL PUSH1 0x20 ADD PUSH1 0x40 MLOAD SWAP1 DUP2 ADD PUSH1 0x40 MSTORE DUP1 SWAP3 SWAP2 SWAP1 DUP2 DUP2 MSTORE PUSH1 0x20 ADD DUP3 DUP1 SLOAD PUSH2 0x67D SWAP1 PUSH2 0x2229 JUMP JUMPDEST DUP1 ISZERO PUSH2 0x6CA JUMPI DUP1 PUSH1 0x1F LT PUSH2 0x69F JUMPI PUSH2 0x100 DUP1 DUP4 SLOAD DIV MUL DUP4 MSTORE SWAP2 PUSH1 0x20 ADD SWAP2 PUSH2 0x6CA JUMP JUMPDEST DUP3 ADD SWAP2 SWAP1 PUSH1 0x0 MSTORE PUSH1 0x20 PUSH1 0x0 KECCAK256 SWAP1 JUMPDEST DUP2 SLOAD DUP2 MSTORE SWAP1 PUSH1 0x1 ADD SWAP1 PUSH1 0x20 ADD DUP1 DUP4 GT PUSH2 0x6AD JUMPI DUP3 SWAP1 SUB PUSH1 0x1F AND DUP3 ADD SWAP2 JUMPDEST POP POP POP POP POP DUP2 MSTORE PUSH1 0x20 ADD PUSH1 0x3 DUP3 ADD SLOAD DUP2 MSTORE PUSH1 0x20 ADD PUSH1 0x4 DUP3 ADD SLOAD DUP2 MSTORE PUSH1 0x20 ADD PUSH1 0x5 DUP3 ADD DUP1 SLOAD DUP1 PUSH1 0x20 MUL PUSH1 0x20 ADD PUSH1 0x40 MLOAD SWAP1 DUP2 ADD PUSH1 0x40 MSTORE DUP1 SWAP3 SWAP2 SWAP1 DUP2 DUP2 MSTORE PUSH1 0x20 ADD DUP3 DUP1 SLOAD DUP1 ISZERO PUSH2 0x736 JUMPI PUSH1 0x20 MUL DUP3 ADD SWAP2 SWAP1 PUSH1 0x0 MSTORE PUSH1 0x20 PUSH1 0x0 KECCAK256 SWAP1 JUMPDEST DUP2 SLOAD DUP2 MSTORE PUSH1 0x20 ADD SWAP1 PUSH1 0x1 ADD SWAP1 DUP1 DUP4 GT PUSH2 0x722 JUMPI JUMPDEST POP POP POP POP POP DUP2 MSTORE POP POP DUP3 PUSH1 0x1 DUP4 PUSH2 0x74D SWAP2 SWAP1 PUSH2 0x2197 JUMP JUMPDEST DUP2 MLOAD DUP2 LT PUSH2 0x75E JUMPI PUSH2 0x75D PUSH2 0x225A JUMP JUMPDEST JUMPDEST PUSH1 0x20 MUL PUSH1 0x20 ADD ADD DUP2 SWAP1 MSTORE POP DUP1 DUP1 PUSH2 0x774 SWAP1 PUSH2 0x2289 JUMP JUMPDEST SWAP2 POP POP PUSH2 0x57D JUMP JUMPDEST POP DUP1 SWAP2 POP POP SWAP1 JUMP JUMPDEST PUSH1 0x4 PUSH1 0x20 MSTORE DUP1 PUSH1 0x0 MSTORE PUSH1 0x40 PUSH1 0x0 KECCAK256 PUSH1 0x0 SWAP2 POP SWAP1 POP DUP1 PUSH1 0x0 ADD SLOAD SWAP1 DUP1 PUSH1 0x1 ADD DUP1 SLOAD PUSH2 0x7AD SWAP1 PUSH2 0x2229 JUMP JUMPDEST DUP1 PUSH1 0x1F ADD PUSH1 0x20 DUP1 SWAP2 DIV MUL PUSH1 0x20 ADD PUSH1 0x40 MLOAD SWAP1 DUP2 ADD PUSH1 0x40 MSTORE DUP1 SWAP3 SWAP2 SWAP1 DUP2 DUP2 MSTORE PUSH1 0x20 ADD DUP3 DUP1 SLOAD PUSH2 0x7D9 SWAP1 PUSH2 0x2229 JUMP JUMPDEST DUP1 ISZERO PUSH2 0x826 JUMPI DUP1 PUSH1 0x1F LT PUSH2 0x7FB JUMPI PUSH2 0x100 DUP1 DUP4 SLOAD DIV MUL DUP4 MSTORE SWAP2 PUSH1 0x20 ADD SWAP2 PUSH2 0x826 JUMP JUMPDEST DUP3 ADD SWAP2 SWAP1 PUSH1 0x0 MSTORE PUSH1 0x20 PUSH1 0x0 KECCAK256 SWAP1 JUMPDEST DUP2 SLOAD DUP2 MSTORE SWAP1 PUSH1 0x1 ADD SWAP1 PUSH1 0x20 ADD DUP1 DUP4 GT PUSH2 0x809 JUMPI DUP3 SWAP1 SUB PUSH1 0x1F AND DUP3 ADD SWAP2 JUMPDEST POP POP POP POP POP SWAP1 DUP1 PUSH1 0x2 ADD DUP1 SLOAD PUSH2 0x83B SWAP1 PUSH2 0x2229 JUMP JUMPDEST DUP1 PUSH1 0x1F ADD PUSH1 0x20 DUP1 SWAP2 DIV MUL PUSH1 0x20 ADD PUSH1 0x40 MLOAD SWAP1 DUP2 ADD PUSH1 0x40 MSTORE DUP1 SWAP3 SWAP2 SWAP1 DUP2 DUP2 MSTORE PUSH1 0x20 ADD DUP3 DUP1 SLOAD PUSH2 0x867 SWAP1 PUSH2 0x2229 JUMP JUMPDEST DUP1 ISZERO PUSH2 0x8B4 JUMPI DUP1 PUSH1 0x1F LT PUSH2 0x889 JUMPI PUSH2 0x100 DUP1 DUP4 SLOAD DIV MUL DUP4 MSTORE SWAP2 PUSH1 0x20 ADD SWAP2 PUSH2 0x8B4 JUMP JUMPDEST DUP3 ADD SWAP2 SWAP1 PUSH1 0x0 MSTORE PUSH1 0x20 PUSH1 0x0 KECCAK256 SWAP1 JUMPDEST DUP2 SLOAD DUP2 MSTORE SWAP1 PUSH1 0x1 ADD SWAP1 PUSH1 0x20 ADD DUP1 DUP4 GT PUSH2 0x897 JUMPI DUP3 SWAP1 SUB PUSH1 0x1F AND DUP3 ADD SWAP2 JUMPDEST POP POP POP POP POP SWAP1 DUP1 PUSH1 0x3 ADD SLOAD SWAP1 DUP1 PUSH1 0x4 ADD SLOAD SWAP1 POP DUP6 JUMP JUMPDEST PUSH1 0x0 DUP1 SLOAD SWAP1 PUSH2 0x100 EXP SWAP1 DIV PUSH20 0xFFFFFFFFFFFFFFFFFFFFFFFFFFFFFFFFFFFFFFFF AND PUSH20 0xFFFFFFFFFFFFFFFFFFFFFFFFFFFFFFFFFFFFFFFF AND CALLER PUSH20 0xFFFFFFFFFFFFFFFFFFFFFFFFFFFFFFFFFFFFFFFF AND EQ PUSH2 0x958 JUMPI PUSH1 0x40 MLOAD PUSH32 0x8C379A000000000000000000000000000000000000000000000000000000000 DUP2 MSTORE PUSH1 0x4 ADD PUSH2 0x94F SWAP1 PUSH2 0x20DC JUMP JUMPDEST PUSH1 0x40 MLOAD DUP1 SWAP2 SUB SWAP1 REVERT JUMPDEST PUSH1 0x40 MLOAD DUP1 PUSH1 0xA0 ADD PUSH1 0x40 MSTORE DUP1 PUSH1 0x6 SLOAD DUP2 MSTORE PUSH1 0x20 ADD DUP8 DUP8 DUP1 DUP1 PUSH1 0x1F ADD PUSH1 0x20 DUP1 SWAP2 DIV MUL PUSH1 0x20 ADD PUSH1 0x40 MLOAD SWAP1 DUP2 ADD PUSH1 0x40 MSTORE DUP1 SWAP4 SWAP3 SWAP2 SWAP1 DUP2 DUP2 MSTORE PUSH1 0x20 ADD DUP4 DUP4 DUP1 DUP3 DUP5 CALLDATACOPY PUSH1 0x0 DUP2 DUP5 ADD MSTORE PUSH1 0x1F NOT PUSH1 0x1F DUP3 ADD AND SWAP1 POP DUP1 DUP4 ADD SWAP3 POP POP POP POP POP POP POP DUP2 MSTORE PUSH1 0x20 ADD DUP6 DUP6 DUP1 DUP1 PUSH1 0x1F ADD PUSH1 0x20 DUP1 SWAP2 DIV MUL PUSH1 0x20 ADD PUSH1 0x40 MLOAD SWAP1 DUP2 ADD PUSH1 0x40 MSTORE DUP1 SWAP4 SWAP3 SWAP2 SWAP1 DUP2 DUP2 MSTORE PUSH1 0x20 ADD DUP4 DUP4 DUP1 DUP3 DUP5 CALLDATACOPY PUSH1 0x0 DUP2 DUP5 ADD MSTORE PUSH1 0x1F NOT PUSH1 0x1F DUP3 ADD AND SWAP1 POP DUP1 DUP4 ADD SWAP3 POP POP POP POP POP POP POP DUP2 MSTORE PUSH1 0x20 ADD DUP4 DUP2 MSTORE PUSH1 0x20 ADD DUP3 DUP2 MSTORE POP PUSH1 0x4 PUSH1 0x0 PUSH1 0x6 SLOAD DUP2 MSTORE PUSH1 0x20 ADD SWAP1 DUP2 MSTORE PUSH1 0x20 ADD PUSH1 0x0 KECCAK256 PUSH1 0x0 DUP3 ADD MLOAD DUP2 PUSH1 0x0 ADD SSTORE PUSH1 0x20 DUP3 ADD MLOAD DUP2 PUSH1 0x1 ADD SWAP1 DUP2 PUSH2 0xA3D SWAP2 SWAP1 PUSH2 0x247D JUMP JUMPDEST POP PUSH1 0x40 DUP3 ADD MLOAD DUP2 PUSH1 0x2 ADD SWAP1 DUP2 PUSH2 0xA53 SWAP2 SWAP1 PUSH2 0x247D JUMP JUMPDEST POP PUSH1 0x60 DUP3 ADD MLOAD DUP2 PUSH1 0x3 ADD SSTORE PUSH1 0x80 DUP3 ADD MLOAD DUP2 PUSH1 0x4 ADD SSTORE SWAP1 POP POP PUSH1 0x5 PUSH1 0x6 SLOAD SWAP1 DUP1 PUSH1 0x1 DUP2 SLOAD ADD DUP1 DUP3 SSTORE DUP1 SWAP2 POP POP PUSH1 0x1 SWAP1 SUB SWAP1 PUSH1 0x0 MSTORE PUSH1 0x20 PUSH1 0x0 KECCAK256 ADD PUSH1 0x0 SWAP1 SWAP2 SWAP1 SWAP2 SWAP1 SWAP2 POP SSTORE PUSH1 0x6 PUSH1 0x0 DUP2 SLOAD DUP1 SWAP3 SWAP2 SWAP1 PUSH2 0xAA9 SWAP1 PUSH2 0x2289 JUMP JUMPDEST SWAP2 SWAP1 POP SSTORE POP POP POP POP POP POP POP JUMP JUMPDEST PUSH1 0x8 DUP2 DUP2 SLOAD DUP2 LT PUSH2 0xAC6 JUMPI PUSH1 0x0 DUP1 REVERT JUMPDEST SWAP1 PUSH1 0x0 MSTORE PUSH1 0x20 PUSH1 0x0 KECCAK256 ADD PUSH1 0x0 SWAP2 POP SWAP1 POP SLOAD DUP2 JUMP JUMPDEST DUP1 PUSH1 0x0 DUP2 GT DUP1 ISZERO PUSH2 0xAEC JUMPI POP PUSH1 0x3 SLOAD DUP2 LT JUMPDEST PUSH2 0xB2B JUMPI PUSH1 0x40 MLOAD PUSH32 0x8C379A000000000000000000000000000000000000000000000000000000000 DUP2 MSTORE PUSH1 0x4 ADD PUSH2 0xB22 SWAP1 PUSH2 0x2148 JUMP JUMPDEST PUSH1 0x40 MLOAD DUP1 SWAP2 SUB SWAP1 REVERT JUMPDEST PUSH1 0x40 MLOAD DUP1 PUSH1 0x80 ADD PUSH1 0x40 MSTORE DUP1 PUSH1 0x9 SLOAD DUP2 MSTORE PUSH1 0x20 ADD DUP5 DUP2 MSTORE PUSH1 0x20 ADD DUP4 DUP2 MSTORE PUSH1 0x20 ADD CALLER PUSH20 0xFFFFFFFFFFFFFFFFFFFFFFFFFFFFFFFFFFFFFFFF AND DUP2 MSTORE POP PUSH1 0x7 PUSH1 0x0 PUSH1 0x9 SLOAD DUP2 MSTORE PUSH1 0x20 ADD SWAP1 DUP2 MSTORE PUSH1 0x20 ADD PUSH1 0x0 KECCAK256 PUSH1 0x0 DUP3 ADD MLOAD DUP2 PUSH1 0x0 ADD SSTORE PUSH1 0x20 DUP3 ADD MLOAD DUP2 PUSH1 0x1 ADD SSTORE PUSH1 0x40 DUP3 ADD MLOAD DUP2 PUSH1 0x2 ADD SSTORE PUSH1 0x60 DUP3 ADD MLOAD DUP2 PUSH1 0x3 ADD PUSH1 0x0 PUSH2 0x100 EXP DUP2 SLOAD DUP2 PUSH20 0xFFFFFFFFFFFFFFFFFFFFFFFFFFFFFFFFFFFFFFFF MUL NOT AND SWAP1 DUP4 PUSH20 0xFFFFFFFFFFFFFFFFFFFFFFFFFFFFFFFFFFFFFFFF AND MUL OR SWAP1 SSTORE POP SWAP1 POP POP PUSH1 0x8 PUSH1 0x9 SLOAD SWAP1 DUP1 PUSH1 0x1 DUP2 SLOAD ADD DUP1 DUP3 SSTORE DUP1 SWAP2 POP POP PUSH1 0x1 SWAP1 SUB SWAP1 PUSH1 0x0 MSTORE PUSH1 0x20 PUSH1 0x0 KECCAK256 ADD PUSH1 0x0 SWAP1 SWAP2 SWAP1 SWAP2 SWAP1 SWAP2 POP SSTORE PUSH1 0x9 PUSH1 0x0 DUP2 SLOAD DUP1 SWAP3 SWAP2 SWAP1 PUSH2 0xC1F SWAP1 PUSH2 0x2289 JUMP JUMPDEST SWAP2 SWAP1 POP SSTORE POP POP POP POP JUMP JUMPDEST PUSH1 0x0 DUP1 SLOAD SWAP1 PUSH2 0x100 EXP SWAP1 DIV PUSH20 0xFFFFFFFFFFFFFFFFFFFFFFFFFFFFFFFFFFFFFFFF AND PUSH20 0xFFFFFFFFFFFFFFFFFFFFFFFFFFFFFFFFFFFFFFFF AND CALLER PUSH20 0xFFFFFFFFFFFFFFFFFFFFFFFFFFFFFFFFFFFFFFFF AND EQ PUSH2 0xCB7 JUMPI PUSH1 0x40 MLOAD PUSH32 0x8C379A000000000000000000000000000000000000000000000000000000000 DUP2 MSTORE PUSH1 0x4 ADD PUSH2 0xCAE SWAP1 PUSH2 0x20DC JUMP JUMPDEST PUSH1 0x40 MLOAD DUP1 SWAP2 SUB SWAP1 REVERT JUMPDEST PUSH2 0x12C DUP4 LT ISZERO DUP1 ISZERO PUSH2 0xCCB JUMPI POP PUSH2 0x1C20 DUP4 GT ISZERO JUMPDEST PUSH2 0xD0A JUMPI PUSH1 0x40 MLOAD PUSH32 0x8C379A000000000000000000000000000000000000000000000000000000000 DUP2 MSTORE PUSH1 0x4 ADD PUSH2 0xD01 SWAP1 PUSH2 0x25C1 JUMP JUMPDEST PUSH1 0x40 MLOAD DUP1 SWAP2 SUB SWAP1 REVERT JUMPDEST PUSH1 0x40 MLOAD DUP1 PUSH1 0xC0 ADD PUSH1 0x40 MSTORE DUP1 PUSH1 0x3 SLOAD DUP2 MSTORE PUSH1 0x20 ADD DUP10 DUP10 DUP1 DUP1 PUSH1 0x1F ADD PUSH1 0x20 DUP1 SWAP2 DIV MUL PUSH1 0x20 ADD PUSH1 0x40 MLOAD SWAP1 DUP2 ADD PUSH1 0x40 MSTORE DUP1 SWAP4 SWAP3 SWAP2 SWAP1 DUP2 DUP2 MSTORE PUSH1 0x20 ADD DUP4 DUP4 DUP1 DUP3 DUP5 CALLDATACOPY PUSH1 0x0 DUP2 DUP5 ADD MSTORE PUSH1 0x1F NOT PUSH1 0x1F DUP3 ADD AND SWAP1 POP DUP1 DUP4 ADD SWAP3 POP POP POP POP POP POP POP DUP2 MSTORE PUSH1 0x20 ADD DUP8 DUP8 DUP1 DUP1 PUSH1 0x1F ADD PUSH1 0x20 DUP1 SWAP2 DIV MUL PUSH1 0x20 ADD PUSH1 0x40 MLOAD SWAP1 DUP2 ADD PUSH1 0x40 MSTORE DUP1 SWAP4 SWAP3 SWAP2 SWAP1 DUP2 DUP2 MSTORE PUSH1 0x20 ADD DUP4 DUP4 DUP1 DUP3 DUP5 CALLDATACOPY PUSH1 0x0 DUP2 DUP5 ADD MSTORE PUSH1 0x1F NOT PUSH1 0x1F DUP3 ADD AND SWAP1 POP DUP1 DUP4 ADD SWAP3 POP POP POP POP POP POP POP DUP2 MSTORE PUSH1 0x20 ADD DUP6 DUP2 MSTORE PUSH1 0x20 ADD DUP5 DUP2 MSTORE PUSH1 0x20 ADD DUP4 DUP4 DUP1 DUP1 PUSH1 0x20 MUL PUSH1 0x20 ADD PUSH1 0x40 MLOAD SWAP1 DUP2 ADD PUSH1 0x40 MSTORE DUP1 SWAP4 SWAP3 SWAP2 SWAP1 DUP2 DUP2 MSTORE PUSH1 0x20 ADD DUP4 DUP4 PUSH1 0x20 MUL DUP1 DUP3 DUP5 CALLDATACOPY PUSH1 0x0 DUP2 DUP5 ADD MSTORE PUSH1 0x1F NOT PUSH1 0x1F DUP3 ADD AND SWAP1 POP DUP1 DUP4 ADD SWAP3 POP POP POP POP POP POP POP DUP2 MSTORE POP PUSH1 0x1 PUSH1 0x0 PUSH1 0x3 SLOAD DUP2 MSTORE PUSH1 0x20 ADD SWAP1 DUP2 MSTORE PUSH1 0x20 ADD PUSH1 0x0 KECCAK256 PUSH1 0x0 DUP3 ADD MLOAD DUP2 PUSH1 0x0 ADD SSTORE PUSH1 0x20 DUP3 ADD MLOAD DUP2 PUSH1 0x1 ADD SWAP1 DUP2 PUSH2 0xE36 SWAP2 SWAP1 PUSH2 0x247D JUMP JUMPDEST POP PUSH1 0x40 DUP3 ADD MLOAD DUP2 PUSH1 0x2 ADD SWAP1 DUP2 PUSH2 0xE4C SWAP2 SWAP1 PUSH2 0x247D JUMP JUMPDEST POP PUSH1 0x60 DUP3 ADD MLOAD DUP2 PUSH1 0x3 ADD SSTORE PUSH1 0x80 DUP3 ADD MLOAD DUP2 PUSH1 0x4 ADD SSTORE PUSH1 0xA0 DUP3 ADD MLOAD DUP2 PUSH1 0x5 ADD SWAP1 DUP1 MLOAD SWAP1 PUSH1 0x20 ADD SWAP1 PUSH2 0xE7D SWAP3 SWAP2 SWAP1 PUSH2 0x1534 JUMP JUMPDEST POP SWAP1 POP POP PUSH1 0x2 PUSH1 0x3 SLOAD SWAP1 DUP1 PUSH1 0x1 DUP2 SLOAD ADD DUP1 DUP3 SSTORE DUP1 SWAP2 POP POP PUSH1 0x1 SWAP1 SUB SWAP1 PUSH1 0x0 MSTORE PUSH1 0x20 PUSH1 0x0 KECCAK256 ADD PUSH1 0x0 SWAP1 SWAP2 SWAP1 SWAP2 SWAP1 SWAP2 POP SSTORE PUSH1 0x3 PUSH1 0x0 DUP2 SLOAD DUP1 SWAP3 SWAP2 SWAP1 PUSH2 0xEBF SWAP1 PUSH2 0x2289 JUMP JUMPDEST SWAP2 SWAP1 POP SSTORE POP POP POP POP POP POP POP POP POP JUMP JUMPDEST PUSH1 0x2 DUP2 DUP2 SLOAD DUP2 LT PUSH2 0xEDE JUMPI PUSH1 0x0 DUP1 REVERT JUMPDEST SWAP1 PUSH1 0x0 MSTORE PUSH1 0x20 PUSH1 0x0 KECCAK256 ADD PUSH1 0x0 SWAP2 POP SWAP1 POP SLOAD DUP2 JUMP JUMPDEST PUSH1 0x1 PUSH1 0x20 MSTORE DUP1 PUSH1 0x0 MSTORE PUSH1 0x40 PUSH1 0x0 KECCAK256 PUSH1 0x0 SWAP2 POP SWAP1 POP DUP1 PUSH1 0x0 ADD SLOAD SWAP1 DUP1 PUSH1 0x1 ADD DUP1 SLOAD PUSH2 0xF1B SWAP1 PUSH2 0x2229 JUMP JUMPDEST DUP1 PUSH1 0x1F ADD PUSH1 0x20 DUP1 SWAP2 DIV MUL PUSH1 0x20 ADD PUSH1 0x40 MLOAD SWAP1 DUP2 ADD PUSH1 0x40 MSTORE DUP1 SWAP3 SWAP2 SWAP1 DUP2 DUP2 MSTORE PUSH1 0x20 ADD DUP3 DUP1 SLOAD PUSH2 0xF47 SWAP1 PUSH2 0x2229 JUMP JUMPDEST DUP1 ISZERO PUSH2 0xF94 JUMPI DUP1 PUSH1 0x1F LT PUSH2 0xF69 JUMPI PUSH2 0x100 DUP1 DUP4 SLOAD DIV MUL DUP4 MSTORE SWAP2 PUSH1 0x20 ADD SWAP2 PUSH2 0xF94 JUMP JUMPDEST DUP3 ADD SWAP2 SWAP1 PUSH1 0x0 MSTORE PUSH1 0x20 PUSH1 0x0 KECCAK256 SWAP1 JUMPDEST DUP2 SLOAD DUP2 MSTORE SWAP1 PUSH1 0x1 ADD SWAP1 PUSH1 0x20 ADD DUP1 DUP4 GT PUSH2 0xF77 JUMPI DUP3 SWAP1 SUB PUSH1 0x1F AND DUP3 ADD SWAP2 JUMPDEST POP POP POP POP POP SWAP1 DUP1 PUSH1 0x2 ADD DUP1 SLOAD PUSH2 0xFA9 SWAP1 PUSH2 0x2229 JUMP JUMPDEST DUP1 PUSH1 0x1F ADD PUSH1 0x20 DUP1 SWAP2 DIV MUL PUSH1 0x20 ADD PUSH1 0x40 MLOAD SWAP1 DUP2 ADD PUSH1 0x40 MSTORE DUP1 SWAP3 SWAP2 SWAP1 DUP2 DUP2 MSTORE PUSH1 0x20 ADD DUP3 DUP1 SLOAD PUSH2 0xFD5 SWAP1 PUSH2 0x2229 JUMP JUMPDEST DUP1 ISZERO PUSH2 0x1022 JUMPI DUP1 PUSH1 0x1F LT PUSH2 0xFF7 JUMPI PUSH2 0x100 DUP1 DUP4 SLOAD DIV MUL DUP4 MSTORE SWAP2 PUSH1 0x20 ADD SWAP2 PUSH2 0x1022 JUMP JUMPDEST DUP3 ADD SWAP2 SWAP1 PUSH1 0x0 MSTORE PUSH1 0x20 PUSH1 0x0 KECCAK256 SWAP1 JUMPDEST DUP2 SLOAD DUP2 MSTORE SWAP1 PUSH1 0x1 ADD SWAP1 PUSH1 0x20 ADD DUP1 DUP4 GT PUSH2 0x1005 JUMPI DUP3 SWAP1 SUB PUSH1 0x1F AND DUP3 ADD SWAP2 JUMPDEST POP POP POP POP POP SWAP1 DUP1 PUSH1 0x3 ADD SLOAD SWAP1 DUP1 PUSH1 0x4 ADD SLOAD SWAP1 POP DUP6 JUMP JUMPDEST PUSH1 0x60 PUSH1 0x0 PUSH1 0x1 PUSH1 0x6 SLOAD PUSH2 0x104B SWAP2 SWAP1 PUSH2 0x2197 JUMP JUMPDEST PUSH8 0xFFFFFFFFFFFFFFFF DUP2 GT ISZERO PUSH2 0x1064 JUMPI PUSH2 0x1063 PUSH2 0x21CB JUMP JUMPDEST JUMPDEST PUSH1 0x40 MLOAD SWAP1 DUP1 DUP3 MSTORE DUP1 PUSH1 0x20 MUL PUSH1 0x20 ADD DUP3 ADD PUSH1 0x40 MSTORE DUP1 ISZERO PUSH2 0x109D JUMPI DUP2 PUSH1 0x20 ADD JUMPDEST PUSH2 0x108A PUSH2 0x1581 JUMP JUMPDEST DUP2 MSTORE PUSH1 0x20 ADD SWAP1 PUSH1 0x1 SWAP1 SUB SWAP1 DUP2 PUSH2 0x1082 JUMPI SWAP1 POP JUMPDEST POP SWAP1 POP PUSH1 0x0 PUSH1 0x1 SWAP1 POP JUMPDEST PUSH1 0x6 SLOAD DUP2 LT ISZERO PUSH2 0x124E JUMPI PUSH1 0x4 PUSH1 0x0 DUP3 DUP2 MSTORE PUSH1 0x20 ADD SWAP1 DUP2 MSTORE PUSH1 0x20 ADD PUSH1 0x0 KECCAK256 PUSH1 0x40 MLOAD DUP1 PUSH1 0xA0 ADD PUSH1 0x40 MSTORE SWAP1 DUP2 PUSH1 0x0 DUP3 ADD SLOAD DUP2 MSTORE PUSH1 0x20 ADD PUSH1 0x1 DUP3 ADD DUP1 SLOAD PUSH2 0x10E9 SWAP1 PUSH2 0x2229 JUMP JUMPDEST DUP1 PUSH1 0x1F ADD PUSH1 0x20 DUP1 SWAP2 DIV MUL PUSH1 0x20 ADD PUSH1 0x40 MLOAD SWAP1 DUP2 ADD PUSH1 0x40 MSTORE DUP1 SWAP3 SWAP2 SWAP1 DUP2 DUP2 MSTORE PUSH1 0x20 ADD DUP3 DUP1 SLOAD PUSH2 0x1115 SWAP1 PUSH2 0x2229 JUMP JUMPDEST DUP1 ISZERO PUSH2 0x1162 JUMPI DUP1 PUSH1 0x1F LT PUSH2 0x1137 JUMPI PUSH2 0x100 DUP1 DUP4 SLOAD DIV MUL DUP4 MSTORE SWAP2 PUSH1 0x20 ADD SWAP2 PUSH2 0x1162 JUMP JUMPDEST DUP3 ADD SWAP2 SWAP1 PUSH1 0x0 MSTORE PUSH1 0x20 PUSH1 0x0 KECCAK256 SWAP1 JUMPDEST DUP2 SLOAD DUP2 MSTORE SWAP1 PUSH1 0x1 ADD SWAP1 PUSH1 0x20 ADD DUP1 DUP4 GT PUSH2 0x1145 JUMPI DUP3 SWAP1 SUB PUSH1 0x1F AND DUP3 ADD SWAP2 JUMPDEST POP POP POP POP POP DUP2 MSTORE PUSH1 0x20 ADD PUSH1 0x2 DUP3 ADD DUP1 SLOAD PUSH2 0x117B SWAP1 PUSH2 0x2229 JUMP JUMPDEST DUP1 PUSH1 0x1F ADD PUSH1 0x20 DUP1 SWAP2 DIV MUL PUSH1 0x20 ADD PUSH1 0x40 MLOAD SWAP1 DUP2 ADD PUSH1 0x40 MSTORE DUP1 SWAP3 SWAP2 SWAP1 DUP2 DUP2 MSTORE PUSH1 0x20 ADD DUP3 DUP1 SLOAD PUSH2 0x11A7 SWAP1 PUSH2 0x2229 JUMP JUMPDEST DUP1 ISZERO PUSH2 0x11F4 JUMPI DUP1 PUSH1 0x1F LT PUSH2 0x11C9 JUMPI PUSH2 0x100 DUP1 DUP4 SLOAD DIV MUL DUP4 MSTORE SWAP2 PUSH1 0x20 ADD SWAP2 PUSH2 0x11F4 JUMP JUMPDEST DUP3 ADD SWAP2 SWAP1 PUSH1 0x0 MSTORE PUSH1 0x20 PUSH1 0x0 KECCAK256 SWAP1 JUMPDEST DUP2 SLOAD DUP2 MSTORE SWAP1 PUSH1 0x1 ADD SWAP1 PUSH1 0x20 ADD DUP1 DUP4 GT PUSH2 0x11D7 JUMPI DUP3 SWAP1 SUB PUSH1 0x1F AND DUP3 ADD SWAP2 JUMPDEST POP POP POP POP POP DUP2 MSTORE PUSH1 0x20 ADD PUSH1 0x3 DUP3 ADD SLOAD DUP2 MSTORE PUSH1 0x20 ADD PUSH1 0x4 DUP3 ADD SLOAD DUP2 MSTORE POP POP DUP3 PUSH1 0x1 DUP4 PUSH2 0x121F SWAP2 SWAP1 PUSH2 0x2197 JUMP JUMPDEST DUP2 MLOAD DUP2 LT PUSH2 0x1230 JUMPI PUSH2 0x122F PUSH2 0x225A JUMP JUMPDEST JUMPDEST PUSH1 0x20 MUL PUSH1 0x20 ADD ADD DUP2 SWAP1 MSTORE POP DUP1 DUP1 PUSH2 0x1246 SWAP1 PUSH2 0x2289 JUMP JUMPDEST SWAP2 POP POP PUSH2 0x10A7 JUMP JUMPDEST POP DUP1 SWAP2 POP POP SWAP1 JUMP JUMPDEST PUSH1 0x0 DUP1 SLOAD SWAP1 PUSH2 0x100 EXP SWAP1 DIV PUSH20 0xFFFFFFFFFFFFFFFFFFFFFFFFFFFFFFFFFFFFFFFF AND PUSH20 0xFFFFFFFFFFFFFFFFFFFFFFFFFFFFFFFFFFFFFFFF AND CALLER PUSH20 0xFFFFFFFFFFFFFFFFFFFFFFFFFFFFFFFFFFFFFFFF AND EQ PUSH2 0x12E4 JUMPI PUSH1 0x40 MLOAD PUSH32 0x8C379A000000000000000000000000000000000000000000000000000000000 DUP2 MSTORE PUSH1 0x4 ADD PUSH2 0x12DB SWAP1 PUSH2 0x20DC JUMP JUMPDEST PUSH1 0x40 MLOAD DUP1 SWAP2 SUB SWAP1 REVERT JUMPDEST DUP1 PUSH1 0x0 DUP2 GT DUP1 ISZERO PUSH2 0x12F6 JUMPI POP PUSH1 0x6 SLOAD DUP2 LT JUMPDEST PUSH2 0x1335 JUMPI PUSH1 0x40 MLOAD PUSH32 0x8C379A000000000000000000000000000000000000000000000000000000000 DUP2 MSTORE PUSH1 0x4 ADD PUSH2 0x132C SWAP1 PUSH2 0x262D JUMP JUMPDEST PUSH1 0x40 MLOAD DUP1 SWAP2 SUB SWAP1 REVERT JUMPDEST POP POP JUMP JUMPDEST PUSH1 0x60 PUSH1 0x0 PUSH1 0xA PUSH1 0x0 DUP5 PUSH20 0xFFFFFFFFFFFFFFFFFFFFFFFFFFFFFFFFFFFFFFFF AND PUSH20 0xFFFFFFFFFFFFFFFFFFFFFFFFFFFFFFFFFFFFFFFF AND DUP2 MSTORE PUSH1 0x20 ADD SWAP1 DUP2 MSTORE PUSH1 0x20 ADD PUSH1 0x0 KECCAK256 SWAP1 POP PUSH1 0x0 DUP2 DUP1 SLOAD SWAP1 POP PUSH8 0xFFFFFFFFFFFFFFFF DUP2 GT ISZERO PUSH2 0x139E JUMPI PUSH2 0x139D PUSH2 0x21CB JUMP JUMPDEST JUMPDEST PUSH1 0x40 MLOAD SWAP1 DUP1 DUP3 MSTORE DUP1 PUSH1 0x20 MUL PUSH1 0x20 ADD DUP3 ADD PUSH1 0x40 MSTORE DUP1 ISZERO PUSH2 0x13D7 JUMPI DUP2 PUSH1 0x20 ADD JUMPDEST PUSH2 0x13C4 PUSH2 0x15B0 JUMP JUMPDEST DUP2 MSTORE PUSH1 0x20 ADD SWAP1 PUSH1 0x1 SWAP1 SUB SWAP1 DUP2 PUSH2 0x13BC JUMPI SWAP1 POP JUMPDEST POP SWAP1 POP PUSH1 0x0 JUMPDEST DUP3 DUP1 SLOAD SWAP1 POP DUP2 LT ISZERO PUSH2 0x14CF JUMPI PUSH1 0x0 DUP4 DUP3 DUP2 SLOAD DUP2 LT PUSH2 0x13FE JUMPI PUSH2 0x13FD PUSH2 0x225A JUMP JUMPDEST JUMPDEST SWAP1 PUSH1 0x0 MSTORE PUSH1 0x20 PUSH1 0x0 KECCAK256 ADD SLOAD SWAP1 POP PUSH1 0x7 PUSH1 0x0 DUP3 DUP2 MSTORE PUSH1 0x20 ADD SWAP1 DUP2 MSTORE PUSH1 0x20 ADD PUSH1 0x0 KECCAK256 PUSH1 0x40 MLOAD DUP1 PUSH1 0x80 ADD PUSH1 0x40 MSTORE SWAP1 DUP2 PUSH1 0x0 DUP3 ADD SLOAD DUP2 MSTORE PUSH1 0x20 ADD PUSH1 0x1 DUP3 ADD SLOAD DUP2 MSTORE PUSH1 0x20 ADD PUSH1 0x2 DUP3 ADD SLOAD DUP2 MSTORE PUSH1 0x20 ADD PUSH1 0x3 DUP3 ADD PUSH1 0x0 SWAP1 SLOAD SWAP1 PUSH2 0x100 EXP SWAP1 DIV PUSH20 0xFFFFFFFFFFFFFFFFFFFFFFFFFFFFFFFFFFFFFFFF AND PUSH20 0xFFFFFFFFFFFFFFFFFFFFFFFFFFFFFFFFFFFFFFFF AND PUSH20 0xFFFFFFFFFFFFFFFFFFFFFFFFFFFFFFFFFFFFFFFF AND DUP2 MSTORE POP POP DUP4 DUP4 DUP2 MLOAD DUP2 LT PUSH2 0x14B0 JUMPI PUSH2 0x14AF PUSH2 0x225A JUMP JUMPDEST JUMPDEST PUSH1 0x20 MUL PUSH1 0x20 ADD ADD DUP2 SWAP1 MSTORE POP POP DUP1 DUP1 PUSH2 0x14C7 SWAP1 PUSH2 0x2289 JUMP JUMPDEST SWAP2 POP POP PUSH2 0x13DD JUMP JUMPDEST POP DUP1 SWAP3 POP POP POP SWAP2 SWAP1 POP JUMP JUMPDEST PUSH1 0x0 DUP1 SLOAD SWAP1 PUSH2 0x100 EXP SWAP1 DIV PUSH20 0xFFFFFFFFFFFFFFFFFFFFFFFFFFFFFFFFFFFFFFFF AND DUP2 JUMP JUMPDEST PUSH1 0x40 MLOAD DUP1 PUSH1 0xC0 ADD PUSH1 0x40 MSTORE DUP1 PUSH1 0x0 DUP2 MSTORE PUSH1 0x20 ADD PUSH1 0x60 DUP2 MSTORE PUSH1 0x20 ADD PUSH1 0x60 DUP2 MSTORE PUSH1 0x20 ADD PUSH1 0x0 DUP2 MSTORE PUSH1 0x20 ADD PUSH1 0x0 DUP2 MSTORE PUSH1 0x20 ADD PUSH1 0x60 DUP2 MSTORE POP SWAP1 JUMP JUMPDEST DUP3 DUP1 SLOAD DUP3 DUP3 SSTORE SWAP1 PUSH1 0x0 MSTORE PUSH1 0x20 PUSH1 0x0 KECCAK256 SWAP1 DUP2 ADD SWAP3 DUP3 ISZERO PUSH2 0x1570 JUMPI SWAP2 PUSH1 0x20 MUL DUP3 ADD JUMPDEST DUP3 DUP2 GT ISZERO PUSH2 0x156F JUMPI DUP3 MLOAD DUP3 SSTORE SWAP2 PUSH1 0x20 ADD SWAP2 SWAP1 PUSH1 0x1 ADD SWAP1 PUSH2 0x1554 JUMP JUMPDEST JUMPDEST POP SWAP1 POP PUSH2 0x157D SWAP2 SWAP1 PUSH2 0x15EE JUMP JUMPDEST POP SWAP1 JUMP JUMPDEST PUSH1 0x40 MLOAD DUP1 PUSH1 0xA0 ADD PUSH1 0x40 MSTORE DUP1 PUSH1 0x0 DUP2 MSTORE PUSH1 0x20 ADD PUSH1 0x60 DUP2 MSTORE PUSH1 0x20 ADD PUSH1 0x60 DUP2 MSTORE PUSH1 0x20 ADD PUSH1 0x0 DUP2 MSTORE PUSH1 0x20 ADD PUSH1 0x0 DUP2 MSTORE POP SWAP1 JUMP JUMPDEST PUSH1 0x40 MLOAD DUP1 PUSH1 0x80 ADD PUSH1 0x40 MSTORE DUP1 PUSH1 0x0 DUP2 MSTORE PUSH1 0x20 ADD PUSH1 0x0 DUP2 MSTORE PUSH1 0x20 ADD PUSH1 0x0 DUP2 MSTORE PUSH1 0x20 ADD PUSH1 0x0 PUSH20 0xFFFFFFFFFFFFFFFFFFFFFFFFFFFFFFFFFFFFFFFF AND DUP2 MSTORE POP SWAP1 JUMP JUMPDEST JUMPDEST DUP1 DUP3 GT ISZERO PUSH2 0x1607 JUMPI PUSH1 0x0 DUP2 PUSH1 0x0 SWAP1 SSTORE POP PUSH1 0x1 ADD PUSH2 0x15EF JUMP JUMPDEST POP SWAP1 JUMP JUMPDEST PUSH1 0x0 DUP1 REVERT JUMPDEST PUSH1 0x0 DUP1 REVERT JUMPDEST PUSH1 0x0 DUP2 SWAP1 POP SWAP2 SWAP1 POP JUMP JUMPDEST PUSH2 0x1628 DUP2 PUSH2 0x1615 JUMP JUMPDEST DUP2 EQ PUSH2 0x1633 JUMPI PUSH1 0x0 DUP1 REVERT JUMPDEST POP JUMP JUMPDEST PUSH1 0x0 DUP2 CALLDATALOAD SWAP1 POP PUSH2 0x1645 DUP2 PUSH2 0x161F JUMP JUMPDEST SWAP3 SWAP2 POP POP JUMP JUMPDEST PUSH1 0x0 PUSH1 0x20 DUP3 DUP5 SUB SLT ISZERO PUSH2 0x1661 JUMPI PUSH2 0x1660 PUSH2 0x160B JUMP JUMPDEST JUMPDEST PUSH1 0x0 PUSH2 0x166F DUP5 DUP3 DUP6 ADD PUSH2 0x1636 JUMP JUMPDEST SWAP2 POP POP SWAP3 SWAP2 POP POP JUMP JUMPDEST PUSH2 0x1681 DUP2 PUSH2 0x1615 JUMP JUMPDEST DUP3 MSTORE POP POP JUMP JUMPDEST PUSH1 0x0 PUSH20 0xFFFFFFFFFFFFFFFFFFFFFFFFFFFFFFFFFFFFFFFF DUP3 AND SWAP1 POP SWAP2 SWAP1 POP JUMP JUMPDEST PUSH1 0x0 PUSH2 0x16B2 DUP3 PUSH2 0x1687 JUMP JUMPDEST SWAP1 POP SWAP2 SWAP1 POP JUMP JUMPDEST PUSH2 0x16C2 DUP2 PUSH2 0x16A7 JUMP JUMPDEST DUP3 MSTORE POP POP JUMP JUMPDEST PUSH1 0x0 PUSH1 0x80 DUP3 ADD SWAP1 POP PUSH2 0x16DD PUSH1 0x0 DUP4 ADD DUP8 PUSH2 0x1678 JUMP JUMPDEST PUSH2 0x16EA PUSH1 0x20 DUP4 ADD DUP7 PUSH2 0x1678 JUMP JUMPDEST PUSH2 0x16F7 PUSH1 0x40 DUP4 ADD DUP6 PUSH2 0x1678 JUMP JUMPDEST PUSH2 0x1704 PUSH1 0x60 DUP4 ADD DUP5 PUSH2 0x16B9 JUMP JUMPDEST SWAP6 SWAP5 POP POP POP POP POP JUMP JUMPDEST PUSH1 0x0 PUSH1 0x20 DUP3 ADD SWAP1 POP PUSH2 0x1722 PUSH1 0x0 DUP4 ADD DUP5 PUSH2 0x1678 JUMP JUMPDEST SWAP3 SWAP2 POP POP JUMP JUMPDEST PUSH1 0x0 DUP2 MLOAD SWAP1 POP SWAP2 SWAP1 POP JUMP JUMPDEST PUSH1 0x0 DUP3 DUP3 MSTORE PUSH1 0x20 DUP3 ADD SWAP1 POP SWAP3 SWAP2 POP POP JUMP JUMPDEST PUSH1 0x0 DUP2 SWAP1 POP PUSH1 0x20 DUP3 ADD SWAP1 POP SWAP2 SWAP1 POP JUMP JUMPDEST PUSH2 0x175D DUP2 PUSH2 0x1615 JUMP JUMPDEST DUP3 MSTORE POP POP JUMP JUMPDEST PUSH1 0x0 DUP2 MLOAD SWAP1 POP SWAP2 SWAP1 POP JUMP JUMPDEST PUSH1 0x0 DUP3 DUP3 MSTORE PUSH1 0x20 DUP3 ADD SWAP1 POP SWAP3 SWAP2 POP POP JUMP JUMPDEST PUSH1 0x0 JUMPDEST DUP4 DUP2 LT ISZERO PUSH2 0x179D JUMPI DUP1 DUP3 ADD MLOAD DUP2 DUP5 ADD MSTORE PUSH1 0x20 DUP2 ADD SWAP1 POP PUSH2 0x1782 JUMP JUMPDEST PUSH1 0x0 DUP5 DUP5 ADD MSTORE POP POP POP POP JUMP JUMPDEST PUSH1 0x0 PUSH1 0x1F NOT PUSH1 0x1F DUP4 ADD AND SWAP1 POP SWAP2 SWAP1 POP JUMP JUMPDEST PUSH1 0x0 PUSH2 0x17C5 DUP3 PUSH2 0x1763 JUMP JUMPDEST PUSH2 0x17CF DUP2 DUP6 PUSH2 0x176E JUMP JUMPDEST SWAP4 POP PUSH2 0x17DF DUP2 DUP6 PUSH1 0x20 DUP7 ADD PUSH2 0x177F JUMP JUMPDEST PUSH2 0x17E8 DUP2 PUSH2 0x17A9 JUMP JUMPDEST DUP5 ADD SWAP2 POP POP SWAP3 SWAP2 POP POP JUMP JUMPDEST PUSH1 0x0 DUP2 MLOAD SWAP1 POP SWAP2 SWAP1 POP JUMP JUMPDEST PUSH1 0x0 DUP3 DUP3 MSTORE PUSH1 0x20 DUP3 ADD SWAP1 POP SWAP3 SWAP2 POP POP JUMP JUMPDEST PUSH1 0x0 DUP2 SWAP1 POP PUSH1 0x20 DUP3 ADD SWAP1 POP SWAP2 SWAP1 POP JUMP JUMPDEST PUSH1 0x0 PUSH2 0x182B DUP4 DUP4 PUSH2 0x1754 JUMP JUMPDEST PUSH1 0x20 DUP4 ADD SWAP1 POP SWAP3 SWAP2 POP POP JUMP JUMPDEST PUSH1 0x0 PUSH1 0x20 DUP3 ADD SWAP1 POP SWAP2 SWAP1 POP JUMP JUMPDEST PUSH1 0x0 PUSH2 0x184F DUP3 PUSH2 0x17F3 JUMP JUMPDEST PUSH2 0x1859 DUP2 DUP6 PUSH2 0x17FE JUMP JUMPDEST SWAP4 POP PUSH2 0x1864 DUP4 PUSH2 0x180F JUMP JUMPDEST DUP1 PUSH1 0x0 JUMPDEST DUP4 DUP2 LT ISZERO PUSH2 0x1895 JUMPI DUP2 MLOAD PUSH2 0x187C DUP9 DUP3 PUSH2 0x181F JUMP JUMPDEST SWAP8 POP PUSH2 0x1887 DUP4 PUSH2 0x1837 JUMP JUMPDEST SWAP3 POP POP PUSH1 0x1 DUP2 ADD SWAP1 POP PUSH2 0x1868 JUMP JUMPDEST POP DUP6 SWAP4 POP POP POP POP SWAP3 SWAP2 POP POP JUMP JUMPDEST PUSH1 0x0 PUSH1 0xC0 DUP4 ADD PUSH1 0x0 DUP4 ADD MLOAD PUSH2 0x18BA PUSH1 0x0 DUP7 ADD DUP3 PUSH2 0x1754 JUMP JUMPDEST POP PUSH1 0x20 DUP4 ADD MLOAD DUP5 DUP3 SUB PUSH1 0x20 DUP7 ADD MSTORE PUSH2 0x18D2 DUP3 DUP3 PUSH2 0x17BA JUMP JUMPDEST SWAP2 POP POP PUSH1 0x40 DUP4 ADD MLOAD DUP5 DUP3 SUB PUSH1 0x40 DUP7 ADD MSTORE PUSH2 0x18EC DUP3 DUP3 PUSH2 0x17BA JUMP JUMPDEST SWAP2 POP POP PUSH1 0x60 DUP4 ADD MLOAD PUSH2 0x1901 PUSH1 0x60 DUP7 ADD DUP3 PUSH2 0x1754 JUMP JUMPDEST POP PUSH1 0x80 DUP4 ADD MLOAD PUSH2 0x1914 PUSH1 0x80 DUP7 ADD DUP3 PUSH2 0x1754 JUMP JUMPDEST POP PUSH1 0xA0 DUP4 ADD MLOAD DUP5 DUP3 SUB PUSH1 0xA0 DUP7 ADD MSTORE PUSH2 0x192C DUP3 DUP3 PUSH2 0x1844 JUMP JUMPDEST SWAP2 POP POP DUP1 SWAP2 POP POP SWAP3 SWAP2 POP POP JUMP JUMPDEST PUSH1 0x0 PUSH2 0x1945 DUP4 DUP4 PUSH2 0x18A2 JUMP JUMPDEST SWAP1 POP SWAP3 SWAP2 POP POP JUMP JUMPDEST PUSH1 0x0 PUSH1 0x20 DUP3 ADD SWAP1 POP SWAP2 SWAP1 POP JUMP JUMPDEST PUSH1 0x0 PUSH2 0x1965 DUP3 PUSH2 0x1728 JUMP JUMPDEST PUSH2 0x196F DUP2 DUP6 PUSH2 0x1733 JUMP JUMPDEST SWAP4 POP DUP4 PUSH1 0x20 DUP3 MUL DUP6 ADD PUSH2 0x1981 DUP6 PUSH2 0x1744 JUMP JUMPDEST DUP1 PUSH1 0x0 JUMPDEST DUP6 DUP2 LT ISZERO PUSH2 0x19BD JUMPI DUP5 DUP5 SUB DUP10 MSTORE DUP2 MLOAD PUSH2 0x199E DUP6 DUP3 PUSH2 0x1939 JUMP JUMPDEST SWAP5 POP PUSH2 0x19A9 DUP4 PUSH2 0x194D JUMP JUMPDEST SWAP3 POP PUSH1 0x20 DUP11 ADD SWAP10 POP POP PUSH1 0x1 DUP2 ADD SWAP1 POP PUSH2 0x1985 JUMP JUMPDEST POP DUP3 SWAP8 POP DUP8 SWAP6 POP POP POP POP POP POP SWAP3 SWAP2 POP POP JUMP JUMPDEST PUSH1 0x0 PUSH1 0x20 DUP3 ADD SWAP1 POP DUP2 DUP2 SUB PUSH1 0x0 DUP4 ADD MSTORE PUSH2 0x19E9 DUP2 DUP5 PUSH2 0x195A JUMP JUMPDEST SWAP1 POP SWAP3 SWAP2 POP POP JUMP JUMPDEST PUSH1 0x0 DUP3 DUP3 MSTORE PUSH1 0x20 DUP3 ADD SWAP1 POP SWAP3 SWAP2 POP POP JUMP JUMPDEST PUSH1 0x0 PUSH2 0x1A0D DUP3 PUSH2 0x1763 JUMP JUMPDEST PUSH2 0x1A17 DUP2 DUP6 PUSH2 0x19F1 JUMP JUMPDEST SWAP4 POP PUSH2 0x1A27 DUP2 DUP6 PUSH1 0x20 DUP7 ADD PUSH2 0x177F JUMP JUMPDEST PUSH2 0x1A30 DUP2 PUSH2 0x17A9 JUMP JUMPDEST DUP5 ADD SWAP2 POP POP SWAP3 SWAP2 POP POP JUMP JUMPDEST PUSH1 0x0 PUSH1 0xA0 DUP3 ADD SWAP1 POP PUSH2 0x1A50 PUSH1 0x0 DUP4 ADD DUP9 PUSH2 0x1678 JUMP JUMPDEST DUP2 DUP2 SUB PUSH1 0x20 DUP4 ADD MSTORE PUSH2 0x1A62 DUP2 DUP8 PUSH2 0x1A02 JUMP JUMPDEST SWAP1 POP DUP2 DUP2 SUB PUSH1 0x40 DUP4 ADD MSTORE PUSH2 0x1A76 DUP2 DUP7 PUSH2 0x1A02 JUMP JUMPDEST SWAP1 POP PUSH2 0x1A85 PUSH1 0x60 DUP4 ADD DUP6 PUSH2 0x1678 JUMP JUMPDEST PUSH2 0x1A92 PUSH1 0x80 DUP4 ADD DUP5 PUSH2 0x1678 JUMP JUMPDEST SWAP7 SWAP6 POP POP POP POP POP POP JUMP JUMPDEST PUSH1 0x0 DUP1 REVERT JUMPDEST PUSH1 0x0 DUP1 REVERT JUMPDEST PUSH1 0x0 DUP1 REVERT JUMPDEST PUSH1 0x0 DUP1 DUP4 PUSH1 0x1F DUP5 ADD SLT PUSH2 0x1AC1 JUMPI PUSH2 0x1AC0 PUSH2 0x1A9C JUMP JUMPDEST JUMPDEST DUP3 CALLDATALOAD SWAP1 POP PUSH8 0xFFFFFFFFFFFFFFFF DUP2 GT ISZERO PUSH2 0x1ADE JUMPI PUSH2 0x1ADD PUSH2 0x1AA1 JUMP JUMPDEST JUMPDEST PUSH1 0x20 DUP4 ADD SWAP2 POP DUP4 PUSH1 0x1 DUP3 MUL DUP4 ADD GT ISZERO PUSH2 0x1AFA JUMPI PUSH2 0x1AF9 PUSH2 0x1AA6 JUMP JUMPDEST JUMPDEST SWAP3 POP SWAP3 SWAP1 POP JUMP JUMPDEST PUSH1 0x0 DUP1 PUSH1 0x0 DUP1 PUSH1 0x0 DUP1 PUSH1 0x80 DUP8 DUP10 SUB SLT ISZERO PUSH2 0x1B1E JUMPI PUSH2 0x1B1D PUSH2 0x160B JUMP JUMPDEST JUMPDEST PUSH1 0x0 DUP8 ADD CALLDATALOAD PUSH8 0xFFFFFFFFFFFFFFFF DUP2 GT ISZERO PUSH2 0x1B3C JUMPI PUSH2 0x1B3B PUSH2 0x1610 JUMP JUMPDEST JUMPDEST PUSH2 0x1B48 DUP10 DUP3 DUP11 ADD PUSH2 0x1AAB JUMP JUMPDEST SWAP7 POP SWAP7 POP POP PUSH1 0x20 DUP8 ADD CALLDATALOAD PUSH8 0xFFFFFFFFFFFFFFFF DUP2 GT ISZERO PUSH2 0x1B6B JUMPI PUSH2 0x1B6A PUSH2 0x1610 JUMP JUMPDEST JUMPDEST PUSH2 0x1B77 DUP10 DUP3 DUP11 ADD PUSH2 0x1AAB JUMP JUMPDEST SWAP5 POP SWAP5 POP POP PUSH1 0x40 PUSH2 0x1B8A DUP10 DUP3 DUP11 ADD PUSH2 0x1636 JUMP JUMPDEST SWAP3 POP POP PUSH1 0x60 PUSH2 0x1B9B DUP10 DUP3 DUP11 ADD PUSH2 0x1636 JUMP JUMPDEST SWAP2 POP POP SWAP3 SWAP6 POP SWAP3 SWAP6 POP SWAP3 SWAP6 JUMP JUMPDEST PUSH1 0x0 DUP1 PUSH1 0x40 DUP4 DUP6 SUB SLT ISZERO PUSH2 0x1BBF JUMPI PUSH2 0x1BBE PUSH2 0x160B JUMP JUMPDEST JUMPDEST PUSH1 0x0 PUSH2 0x1BCD DUP6 DUP3 DUP7 ADD PUSH2 0x1636 JUMP JUMPDEST SWAP3 POP POP PUSH1 0x20 PUSH2 0x1BDE DUP6 DUP3 DUP7 ADD PUSH2 0x1636 JUMP JUMPDEST SWAP2 POP POP SWAP3 POP SWAP3 SWAP1 POP JUMP JUMPDEST PUSH1 0x0 DUP1 DUP4 PUSH1 0x1F DUP5 ADD SLT PUSH2 0x1BFE JUMPI PUSH2 0x1BFD PUSH2 0x1A9C JUMP JUMPDEST JUMPDEST DUP3 CALLDATALOAD SWAP1 POP PUSH8 0xFFFFFFFFFFFFFFFF DUP2 GT ISZERO PUSH2 0x1C1B JUMPI PUSH2 0x1C1A PUSH2 0x1AA1 JUMP JUMPDEST JUMPDEST PUSH1 0x20 DUP4 ADD SWAP2 POP DUP4 PUSH1 0x20 DUP3 MUL DUP4 ADD GT ISZERO PUSH2 0x1C37 JUMPI PUSH2 0x1C36 PUSH2 0x1AA6 JUMP JUMPDEST JUMPDEST SWAP3 POP SWAP3 SWAP1 POP JUMP JUMPDEST PUSH1 0x0 DUP1 PUSH1 0x0 DUP1 PUSH1 0x0 DUP1 PUSH1 0x0 DUP1 PUSH1 0xA0 DUP10 DUP12 SUB SLT ISZERO PUSH2 0x1C5E JUMPI PUSH2 0x1C5D PUSH2 0x160B JUMP JUMPDEST JUMPDEST PUSH1 0x0 DUP10 ADD CALLDATALOAD PUSH8 0xFFFFFFFFFFFFFFFF DUP2 GT ISZERO PUSH2 0x1C7C JUMPI PUSH2 0x1C7B PUSH2 0x1610 JUMP JUMPDEST JUMPDEST PUSH2 0x1C88 DUP12 DUP3 DUP13 ADD PUSH2 0x1AAB JUMP JUMPDEST SWAP9 POP SWAP9 POP POP PUSH1 0x20 DUP10 ADD CALLDATALOAD PUSH8 0xFFFFFFFFFFFFFFFF DUP2 GT ISZERO PUSH2 0x1CAB JUMPI PUSH2 0x1CAA PUSH2 0x1610 JUMP JUMPDEST JUMPDEST PUSH2 0x1CB7 DUP12 DUP3 DUP13 ADD PUSH2 0x1AAB JUMP JUMPDEST SWAP7 POP SWAP7 POP POP PUSH1 0x40 PUSH2 0x1CCA DUP12 DUP3 DUP13 ADD PUSH2 0x1636 JUMP JUMPDEST SWAP5 POP POP PUSH1 0x60 PUSH2 0x1CDB DUP12 DUP3 DUP13 ADD PUSH2 0x1636 JUMP JUMPDEST SWAP4 POP POP PUSH1 0x80 DUP10 ADD CALLDATALOAD PUSH8 0xFFFFFFFFFFFFFFFF DUP2 GT ISZERO PUSH2 0x1CFC JUMPI PUSH2 0x1CFB PUSH2 0x1610 JUMP JUMPDEST JUMPDEST PUSH2 0x1D08 DUP12 DUP3 DUP13 ADD PUSH2 0x1BE8 JUMP JUMPDEST SWAP3 POP SWAP3 POP POP SWAP3 SWAP6 SWAP9 POP SWAP3 SWAP6 SWAP9 SWAP1 SWAP4 SWAP7 POP JUMP JUMPDEST PUSH1 0x0 DUP2 MLOAD SWAP1 POP SWAP2 SWAP1 POP JUMP JUMPDEST PUSH1 0x0 DUP3 DUP3 MSTORE PUSH1 0x20 DUP3 ADD SWAP1 POP SWAP3 SWAP2 POP POP JUMP JUMPDEST PUSH1 0x0 DUP2 SWAP1 POP PUSH1 0x20 DUP3 ADD SWAP1 POP SWAP2 SWAP1 POP JUMP JUMPDEST PUSH1 0x0 PUSH1 0xA0 DUP4 ADD PUSH1 0x0 DUP4 ADD MLOAD PUSH2 0x1D5E PUSH1 0x0 DUP7 ADD DUP3 PUSH2 0x1754 JUMP JUMPDEST POP PUSH1 0x20 DUP4 ADD MLOAD DUP5 DUP3 SUB PUSH1 0x20 DUP7 ADD MSTORE PUSH2 0x1D76 DUP3 DUP3 PUSH2 0x17BA JUMP JUMPDEST SWAP2 POP POP PUSH1 0x40 DUP4 ADD MLOAD DUP5 DUP3 SUB PUSH1 0x40 DUP7 ADD MSTORE PUSH2 0x1D90 DUP3 DUP3 PUSH2 0x17BA JUMP JUMPDEST SWAP2 POP POP PUSH1 0x60 DUP4 ADD MLOAD PUSH2 0x1DA5 PUSH1 0x60 DUP7 ADD DUP3 PUSH2 0x1754 JUMP JUMPDEST POP PUSH1 0x80 DUP4 ADD MLOAD PUSH2 0x1DB8 PUSH1 0x80 DUP7 ADD DUP3 PUSH2 0x1754 JUMP JUMPDEST POP DUP1 SWAP2 POP POP SWAP3 SWAP2 POP POP JUMP JUMPDEST PUSH1 0x0 PUSH2 0x1DCF DUP4 DUP4 PUSH2 0x1D46 JUMP JUMPDEST SWAP1 POP SWAP3 SWAP2 POP POP JUMP JUMPDEST PUSH1 0x0 PUSH1 0x20 DUP3 ADD SWAP1 POP SWAP2 SWAP1 POP JUMP JUMPDEST PUSH1 0x0 PUSH2 0x1DEF DUP3 PUSH2 0x1D1A JUMP JUMPDEST PUSH2 0x1DF9 DUP2 DUP6 PUSH2 0x1D25 JUMP JUMPDEST SWAP4 POP DUP4 PUSH1 0x20 DUP3 MUL DUP6 ADD PUSH2 0x1E0B DUP6 PUSH2 0x1D36 JUMP JUMPDEST DUP1 PUSH1 0x0 JUMPDEST DUP6 DUP2 LT ISZERO PUSH2 0x1E47 JUMPI DUP5 DUP5 SUB DUP10 MSTORE DUP2 MLOAD PUSH2 0x1E28 DUP6 DUP3 PUSH2 0x1DC3 JUMP JUMPDEST SWAP5 POP PUSH2 0x1E33 DUP4 PUSH2 0x1DD7 JUMP JUMPDEST SWAP3 POP PUSH1 0x20 DUP11 ADD SWAP10 POP POP PUSH1 0x1 DUP2 ADD SWAP1 POP PUSH2 0x1E0F JUMP JUMPDEST POP DUP3 SWAP8 POP DUP8 SWAP6 POP POP POP POP POP POP SWAP3 SWAP2 POP POP JUMP JUMPDEST PUSH1 0x0 PUSH1 0x20 DUP3 ADD SWAP1 POP DUP2 DUP2 SUB PUSH1 0x0 DUP4 ADD MSTORE PUSH2 0x1E73 DUP2 DUP5 PUSH2 0x1DE4 JUMP JUMPDEST SWAP1 POP SWAP3 SWAP2 POP POP JUMP JUMPDEST PUSH2 0x1E84 DUP2 PUSH2 0x16A7 JUMP JUMPDEST DUP2 EQ PUSH2 0x1E8F JUMPI PUSH1 0x0 DUP1 REVERT JUMPDEST POP JUMP JUMPDEST PUSH1 0x0 DUP2 CALLDATALOAD SWAP1 POP PUSH2 0x1EA1 DUP2 PUSH2 0x1E7B JUMP JUMPDEST SWAP3 SWAP2 POP POP JUMP JUMPDEST PUSH1 0x0 PUSH1 0x20 DUP3 DUP5 SUB SLT ISZERO PUSH2 0x1EBD JUMPI PUSH2 0x1EBC PUSH2 0x160B JUMP JUMPDEST JUMPDEST PUSH1 0x0 PUSH2 0x1ECB DUP5 DUP3 DUP6 ADD PUSH2 0x1E92 JUMP JUMPDEST SWAP2 POP POP SWAP3 SWAP2 POP POP JUMP JUMPDEST PUSH1 0x0 DUP2 MLOAD SWAP1 POP SWAP2 SWAP1 POP JUMP JUMPDEST PUSH1 0x0 DUP3 DUP3 MSTORE PUSH1 0x20 DUP3 ADD SWAP1 POP SWAP3 SWAP2 POP POP JUMP JUMPDEST PUSH1 0x0 DUP2 SWAP1 POP PUSH1 0x20 DUP3 ADD SWAP1 POP SWAP2 SWAP1 POP JUMP JUMPDEST PUSH2 0x1F09 DUP2 PUSH2 0x16A7 JUMP JUMPDEST DUP3 MSTORE POP POP JUMP JUMPDEST PUSH1 0x80 DUP3 ADD PUSH1 0x0 DUP3 ADD MLOAD PUSH2 0x1F25 PUSH1 0x0 DUP6 ADD DUP3 PUSH2 0x1754 JUMP JUMPDEST POP PUSH1 0x20 DUP3 ADD MLOAD PUSH2 0x1F38 PUSH1 0x20 DUP6 ADD DUP3 PUSH2 0x1754 JUMP JUMPDEST POP PUSH1 0x40 DUP3 ADD MLOAD PUSH2 0x1F4B PUSH1 0x40 DUP6 ADD DUP3 PUSH2 0x1754 JUMP JUMPDEST POP PUSH1 0x60 DUP3 ADD MLOAD PUSH2 0x1F5E PUSH1 0x60 DUP6 ADD DUP3 PUSH2 0x1F00 JUMP JUMPDEST POP POP POP POP JUMP JUMPDEST PUSH1 0x0 PUSH2 0x1F70 DUP4 DUP4 PUSH2 0x1F0F JUMP JUMPDEST PUSH1 0x80 DUP4 ADD SWAP1 POP SWAP3 SWAP2 POP POP JUMP JUMPDEST PUSH1 0x0 PUSH1 0x20 DUP3 ADD SWAP1 POP SWAP2 SWAP1 POP JUMP JUMPDEST PUSH1 0x0 PUSH2 0x1F94 DUP3 PUSH2 0x1ED4 JUMP JUMPDEST PUSH2 0x1F9E DUP2 DUP6 PUSH2 0x1EDF JUMP JUMPDEST SWAP4 POP PUSH2 0x1FA9 DUP4 PUSH2 0x1EF0 JUMP JUMPDEST DUP1 PUSH1 0x0 JUMPDEST DUP4 DUP2 LT ISZERO PUSH2 0x1FDA JUMPI DUP2 MLOAD PUSH2 0x1FC1 DUP9 DUP3 PUSH2 0x1F64 JUMP JUMPDEST SWAP8 POP PUSH2 0x1FCC DUP4 PUSH2 0x1F7C JUMP JUMPDEST SWAP3 POP POP PUSH1 0x1 DUP2 ADD SWAP1 POP PUSH2 0x1FAD JUMP JUMPDEST POP DUP6 SWAP4 POP POP POP POP SWAP3 SWAP2 POP POP JUMP JUMPDEST PUSH1 0x0 PUSH1 0x20 DUP3 ADD SWAP1 POP DUP2 DUP2 SUB PUSH1 0x0 DUP4 ADD MSTORE PUSH2 0x2001 DUP2 DUP5 PUSH2 0x1F89 JUMP JUMPDEST SWAP1 POP SWAP3 SWAP2 POP POP JUMP JUMPDEST PUSH1 0x0 PUSH1 0x20 DUP3 ADD SWAP1 POP PUSH2 0x201E PUSH1 0x0 DUP4 ADD DUP5 PUSH2 0x16B9 JUMP JUMPDEST SWAP3 SWAP2 POP POP JUMP JUMPDEST PUSH32 0x426F6F6B696E6720646F6573206E6F7420657869737400000000000000000000 PUSH1 0x0 DUP3 ADD MSTORE POP JUMP JUMPDEST PUSH1 0x0 PUSH2 0x205A PUSH1 0x16 DUP4 PUSH2 0x19F1 JUMP JUMPDEST SWAP2 POP PUSH2 0x2065 DUP3 PUSH2 0x2024 JUMP JUMPDEST PUSH1 0x20 DUP3 ADD SWAP1 POP SWAP2 SWAP1 POP JUMP JUMPDEST PUSH1 0x0 PUSH1 0x20 DUP3 ADD SWAP1 POP DUP2 DUP2 SUB PUSH1 0x0 DUP4 ADD MSTORE PUSH2 0x2089 DUP2 PUSH2 0x204D JUMP JUMPDEST SWAP1 POP SWAP2 SWAP1 POP JUMP JUMPDEST PUSH32 0x4F6E6C792061646D696E00000000000000000000000000000000000000000000 PUSH1 0x0 DUP3 ADD MSTORE POP JUMP JUMPDEST PUSH1 0x0 PUSH2 0x20C6 PUSH1 0xA DUP4 PUSH2 0x19F1 JUMP JUMPDEST SWAP2 POP PUSH2 0x20D1 DUP3 PUSH2 0x2090 JUMP JUMPDEST PUSH1 0x20 DUP3 ADD SWAP1 POP SWAP2 SWAP1 POP JUMP JUMPDEST PUSH1 0x0 PUSH1 0x20 DUP3 ADD SWAP1 POP DUP2 DUP2 SUB PUSH1 0x0 DUP4 ADD MSTORE PUSH2 0x20F5 DUP2 PUSH2 0x20B9 JUMP JUMPDEST SWAP1 POP SWAP2 SWAP1 POP JUMP JUMPDEST PUSH32 0x5365727669636520646F6573206E6F7420657869737400000000000000000000 PUSH1 0x0 DUP3 ADD MSTORE POP JUMP JUMPDEST PUSH1 0x0 PUSH2 0x2132 PUSH1 0x16 DUP4 PUSH2 0x19F1 JUMP JUMPDEST SWAP2 POP PUSH2 0x213D DUP3 PUSH2 0x20FC JUMP JUMPDEST PUSH1 0x20 DUP3 ADD SWAP1 POP SWAP2 SWAP1 POP JUMP JUMPDEST PUSH1 0x0 PUSH1 0x20 DUP3 ADD SWAP1 POP DUP2 DUP2 SUB PUSH1 0x0 DUP4 ADD MSTORE PUSH2 0x2161 DUP2 PUSH2 0x2125 JUMP JUMPDEST SWAP1 POP SWAP2 SWAP1 POP JUMP JUMPDEST PUSH32 0x4E487B7100000000000000000000000000000000000000000000000000000000 PUSH1 0x0 MSTORE PUSH1 0x11 PUSH1 0x4 MSTORE PUSH1 0x24 PUSH1 0x0 REVERT JUMPDEST PUSH1 0x0 PUSH2 0x21A2 DUP3 PUSH2 0x1615 JUMP JUMPDEST SWAP2 POP PUSH2 0x21AD DUP4 PUSH2 0x1615 JUMP JUMPDEST SWAP3 POP DUP3 DUP3 SUB SWAP1 POP DUP2 DUP2 GT ISZERO PUSH2 0x21C5 JUMPI PUSH2 0x21C4 PUSH2 0x2168 JUMP JUMPDEST JUMPDEST SWAP3 SWAP2 POP POP JUMP JUMPDEST PUSH32 0x4E487B7100000000000000000000000000000000000000000000000000000000 PUSH1 0x0 MSTORE PUSH1 0x41 PUSH1 0x4 MSTORE PUSH1 0x24 PUSH1 0x0 REVERT JUMPDEST PUSH32 0x4E487B7100000000000000000000000000000000000000000000000000000000 PUSH1 0x0 MSTORE PUSH1 0x22 PUSH1 0x4 MSTORE PUSH1 0x24 PUSH1 0x0 REVERT JUMPDEST PUSH1 0x0 PUSH1 0x2 DUP3 DIV SWAP1 POP PUSH1 0x1 DUP3 AND DUP1 PUSH2 0x2241 JUMPI PUSH1 0x7F DUP3 AND SWAP2 POP JUMPDEST PUSH1 0x20 DUP3 LT DUP2 SUB PUSH2 0x2254 JUMPI PUSH2 0x2253 PUSH2 0x21FA JUMP JUMPDEST JUMPDEST POP SWAP2 SWAP1 POP JUMP JUMPDEST PUSH32 0x4E487B7100000000000000000000000000000000000000000000000000000000 PUSH1 0x0 MSTORE PUSH1 0x32 PUSH1 0x4 MSTORE PUSH1 0x24 PUSH1 0x0 REVERT JUMPDEST PUSH1 0x0 PUSH2 0x2294 DUP3 PUSH2 0x1615 JUMP JUMPDEST SWAP2 POP PUSH32 0xFFFFFFFFFFFFFFFFFFFFFFFFFFFFFFFFFFFFFFFFFFFFFFFFFFFFFFFFFFFFFFFF DUP3 SUB PUSH2 0x22C6 JUMPI PUSH2 0x22C5 PUSH2 0x2168 JUMP JUMPDEST JUMPDEST PUSH1 0x1 DUP3 ADD SWAP1 POP SWAP2 SWAP1 POP JUMP JUMPDEST PUSH1 0x0 DUP2 SWAP1 POP DUP2 PUSH1 0x0 MSTORE PUSH1 0x20 PUSH1 0x0 KECCAK256 SWAP1 POP SWAP2 SWAP1 POP JUMP JUMPDEST PUSH1 0x0 PUSH1 0x20 PUSH1 0x1F DUP4 ADD DIV SWAP1 POP SWAP2 SWAP1 POP JUMP JUMPDEST PUSH1 0x0 DUP3 DUP3 SHL SWAP1 POP SWAP3 SWAP2 POP POP JUMP JUMPDEST PUSH1 0x0 PUSH1 0x8 DUP4 MUL PUSH2 0x2333 PUSH32 0xFFFFFFFFFFFFFFFFFFFFFFFFFFFFFFFFFFFFFFFFFFFFFFFFFFFFFFFFFFFFFFFF DUP3 PUSH2 0x22F6 JUMP JUMPDEST PUSH2 0x233D DUP7 DUP4 PUSH2 0x22F6 JUMP JUMPDEST SWAP6 POP DUP1 NOT DUP5 AND SWAP4 POP DUP1 DUP7 AND DUP5 OR SWAP3 POP POP POP SWAP4 SWAP3 POP POP POP JUMP JUMPDEST PUSH1 0x0 DUP2 SWAP1 POP SWAP2 SWAP1 POP JUMP JUMPDEST PUSH1 0x0 PUSH2 0x237A PUSH2 0x2375 PUSH2 0x2370 DUP5 PUSH2 0x1615 JUMP JUMPDEST PUSH2 0x2355 JUMP JUMPDEST PUSH2 0x1615 JUMP JUMPDEST SWAP1 POP SWAP2 SWAP1 POP JUMP JUMPDEST PUSH1 0x0 DUP2 SWAP1 POP SWAP2 SWAP1 POP JUMP JUMPDEST PUSH2 0x2394 DUP4 PUSH2 0x235F JUMP JUMPDEST PUSH2 0x23A8 PUSH2 0x23A0 DUP3 PUSH2 0x2381 JUMP JUMPDEST DUP5 DUP5 SLOAD PUSH2 0x2303 JUMP JUMPDEST DUP3 SSTORE POP POP POP POP JUMP JUMPDEST PUSH1 0x0 SWAP1 JUMP JUMPDEST PUSH2 0x23BD PUSH2 0x23B0 JUMP JUMPDEST PUSH2 0x23C8 DUP2 DUP5 DUP5 PUSH2 0x238B JUMP JUMPDEST POP POP POP JUMP JUMPDEST JUMPDEST DUP2 DUP2 LT ISZERO PUSH2 0x23EC JUMPI PUSH2 0x23E1 PUSH1 0x0 DUP3 PUSH2 0x23B5 JUMP JUMPDEST PUSH1 0x1 DUP2 ADD SWAP1 POP PUSH2 0x23CE JUMP JUMPDEST POP POP JUMP JUMPDEST PUSH1 0x1F DUP3 GT ISZERO PUSH2 0x2431 JUMPI PUSH2 0x2402 DUP2 PUSH2 0x22D1 JUMP JUMPDEST PUSH2 0x240B DUP5 PUSH2 0x22E6 JUMP JUMPDEST DUP2 ADD PUSH1 0x20 DUP6 LT ISZERO PUSH2 0x241A JUMPI DUP2 SWAP1 POP JUMPDEST PUSH2 0x242E PUSH2 0x2426 DUP6 PUSH2 0x22E6 JUMP JUMPDEST DUP4 ADD DUP3 PUSH2 0x23CD JUMP JUMPDEST POP POP JUMPDEST POP POP POP JUMP JUMPDEST PUSH1 0x0 DUP3 DUP3 SHR SWAP1 POP SWAP3 SWAP2 POP POP JUMP JUMPDEST PUSH1 0x0 PUSH2 0x2454 PUSH1 0x0 NOT DUP5 PUSH1 0x8 MUL PUSH2 0x2436 JUMP JUMPDEST NOT DUP1 DUP4 AND SWAP2 POP POP SWAP3 SWAP2 POP POP JUMP JUMPDEST PUSH1 0x0 PUSH2 0x246D DUP4 DUP4 PUSH2 0x2443 JUMP JUMPDEST SWAP2 POP DUP3 PUSH1 0x2 MUL DUP3 OR SWAP1 POP SWAP3 SWAP2 POP POP JUMP JUMPDEST PUSH2 0x2486 DUP3 PUSH2 0x1763 JUMP JUMPDEST PUSH8 0xFFFFFFFFFFFFFFFF DUP2 GT ISZERO PUSH2 0x249F JUMPI PUSH2 0x249E PUSH2 0x21CB JUMP JUMPDEST JUMPDEST PUSH2 0x24A9 DUP3 SLOAD PUSH2 0x2229 JUMP JUMPDEST PUSH2 0x24B4 DUP3 DUP3 DUP6 PUSH2 0x23F0 JUMP JUMPDEST PUSH1 0x0 PUSH1 0x20 SWAP1 POP PUSH1 0x1F DUP4 GT PUSH1 0x1 DUP2 EQ PUSH2 0x24E7 JUMPI PUSH1 0x0 DUP5 ISZERO PUSH2 0x24D5 JUMPI DUP3 DUP8 ADD MLOAD SWAP1 POP JUMPDEST PUSH2 0x24DF DUP6 DUP3 PUSH2 0x2461 JUMP JUMPDEST DUP7 SSTORE POP PUSH2 0x2547 JUMP JUMPDEST PUSH1 0x1F NOT DUP5 AND PUSH2 0x24F5 DUP7 PUSH2 0x22D1 JUMP JUMPDEST PUSH1 0x0 JUMPDEST DUP3 DUP2 LT ISZERO PUSH2 0x251D JUMPI DUP5 DUP10 ADD MLOAD DUP3 SSTORE PUSH1 0x1 DUP3 ADD SWAP2 POP PUSH1 0x20 DUP6 ADD SWAP5 POP PUSH1 0x20 DUP2 ADD SWAP1 POP PUSH2 0x24F8 JUMP JUMPDEST DUP7 DUP4 LT ISZERO PUSH2 0x253A JUMPI DUP5 DUP10 ADD MLOAD PUSH2 0x2536 PUSH1 0x1F DUP10 AND DUP3 PUSH2 0x2443 JUMP JUMPDEST DUP4 SSTORE POP JUMPDEST PUSH1 0x1 PUSH1 0x2 DUP9 MUL ADD DUP9 SSTORE POP POP POP JUMPDEST POP POP POP POP POP POP JUMP JUMPDEST PUSH32 0x4475726174696F6E2073686F756C64206265206265747765656E2035206D696E PUSH1 0x0 DUP3 ADD MSTORE PUSH32 0x7574657320616E64203220686F75727300000000000000000000000000000000 PUSH1 0x20 DUP3 ADD MSTORE POP JUMP JUMPDEST PUSH1 0x0 PUSH2 0x25AB PUSH1 0x30 DUP4 PUSH2 0x19F1 JUMP JUMPDEST SWAP2 POP PUSH2 0x25B6 DUP3 PUSH2 0x254F JUMP JUMPDEST PUSH1 0x40 DUP3 ADD SWAP1 POP SWAP2 SWAP1 POP JUMP JUMPDEST PUSH1 0x0 PUSH1 0x20 DUP3 ADD SWAP1 POP DUP2 DUP2 SUB PUSH1 0x0 DUP4 ADD MSTORE PUSH2 0x25DA DUP2 PUSH2 0x259E JUMP JUMPDEST SWAP1 POP SWAP2 SWAP1 POP JUMP JUMPDEST PUSH32 0x50726F6475637420646F6573206E6F7420657869737400000000000000000000 PUSH1 0x0 DUP3 ADD MSTORE POP JUMP JUMPDEST PUSH1 0x0 PUSH2 0x2617 PUSH1 0x16 DUP4 PUSH2 0x19F1 JUMP JUMPDEST SWAP2 POP PUSH2 0x2622 DUP3 PUSH2 0x25E1 JUMP JUMPDEST PUSH1 0x20 DUP3 ADD SWAP1 POP SWAP2 SWAP1 POP JUMP JUMPDEST PUSH1 0x0 PUSH1 0x20 DUP3 ADD SWAP1 POP DUP2 DUP2 SUB PUSH1 0x0 DUP4 ADD MSTORE PUSH2 0x2646 DUP2 PUSH2 0x260A JUMP JUMPDEST SWAP1 POP SWAP2 SWAP1 POP JUMP INVALID LOG2 PUSH5 0x6970667358 0x22 SLT KECCAK256 0xD6 0xF7 INVALID LOG0 EQ 0xBB SWAP6 0xB2 0xDA BYTE PUSH21 0xF82DFEF6D347C0C7A7BE6F60D1DA272B383923EE71 PUSH5 0x736F6C6343 STOP ADDMOD LT STOP CALLER "
				},
				"gasEstimates": {
					"creation": {
						"codeDepositCost": "1971800",
						"executionCost": "92675",
						"totalCost": "2064475"
					},
					"external": {
						"admin()": "2599",
						"bookingList(uint256)": "infinite",
						"bookings(uint256)": "infinite",
						"createBooking(uint256,uint256)": "infinite",
						"createProduct(string,string,uint256,uint256)": "infinite",
						"createService(string,string,uint256,uint256,uint256[])": "infinite",
						"deleteBooking(uint256)": "2896",
						"deleteProduct(uint256)": "5061",
						"deleteService(uint256)": "5107",
						"getProducts()": "infinite",
						"getServices()": "infinite",
						"getUserBookings(address)": "infinite",
						"productList(uint256)": "infinite",
						"products(uint256)": "infinite",
						"serviceList(uint256)": "infinite",
						"services(uint256)": "infinite"
					}
				},
				"methodIdentifiers": {
					"admin()": "f851a440",
					"bookingList(uint256)": "a06a1f69",
					"bookings(uint256)": "1dab301e",
					"createBooking(uint256,uint256)": "b91c7160",
					"createProduct(string,string,uint256,uint256)": "90d16cba",
					"createService(string,string,uint256,uint256,uint256[])": "bc85b04c",
					"deleteBooking(uint256)": "3ae7f0df",
					"deleteProduct(uint256)": "ed90c7b7",
					"deleteService(uint256)": "74e29ee6",
					"getProducts()": "c29b2f20",
					"getServices()": "75417851",
					"getUserBookings(address)": "ef3197c8",
					"productList(uint256)": "528c87d2",
					"products(uint256)": "7acc0b20",
					"serviceList(uint256)": "bd293dca",
					"services(uint256)": "c22c4f43"
				}
			},
			"storageLayout": {
				"storage": [
					{
						"astId": 5,
						"contract": "contracts/Hairdressing.sol:Hairdressing",
						"label": "admin",
						"offset": 0,
						"slot": "0",
						"type": "t_address"
					},
					{
						"astId": 25,
						"contract": "contracts/Hairdressing.sol:Hairdressing",
						"label": "services",
						"offset": 0,
						"slot": "1",
						"type": "t_mapping(t_uint256,t_struct(Service)19_storage)"
					},
					{
						"astId": 29,
						"contract": "contracts/Hairdressing.sol:Hairdressing",
						"label": "serviceList",
						"offset": 0,
						"slot": "2",
						"type": "t_array(t_uint256)dyn_storage"
					},
					{
						"astId": 33,
						"contract": "contracts/Hairdressing.sol:Hairdressing",
						"label": "nextServiceId",
						"offset": 0,
						"slot": "3",
						"type": "t_uint256"
					},
					{
						"astId": 50,
						"contract": "contracts/Hairdressing.sol:Hairdressing",
						"label": "products",
						"offset": 0,
						"slot": "4",
						"type": "t_mapping(t_uint256,t_struct(Product)44_storage)"
					},
					{
						"astId": 54,
						"contract": "contracts/Hairdressing.sol:Hairdressing",
						"label": "productList",
						"offset": 0,
						"slot": "5",
						"type": "t_array(t_uint256)dyn_storage"
					},
					{
						"astId": 58,
						"contract": "contracts/Hairdressing.sol:Hairdressing",
						"label": "nextProductId",
						"offset": 0,
						"slot": "6",
						"type": "t_uint256"
					},
					{
						"astId": 73,
						"contract": "contracts/Hairdressing.sol:Hairdressing",
						"label": "bookings",
						"offset": 0,
						"slot": "7",
						"type": "t_mapping(t_uint256,t_struct(Booking)67_storage)"
					},
					{
						"astId": 77,
						"contract": "contracts/Hairdressing.sol:Hairdressing",
						"label": "bookingList",
						"offset": 0,
						"slot": "8",
						"type": "t_array(t_uint256)dyn_storage"
					},
					{
						"astId": 81,
						"contract": "contracts/Hairdressing.sol:Hairdressing",
						"label": "nextBookingId",
						"offset": 0,
						"slot": "9",
						"type": "t_uint256"
					},
					{
						"astId": 87,
						"contract": "contracts/Hairdressing.sol:Hairdressing",
						"label": "userBookings",
						"offset": 0,
						"slot": "10",
						"type": "t_mapping(t_address,t_array(t_uint256)dyn_storage)"
					}
				],
				"types": {
					"t_address": {
						"encoding": "inplace",
						"label": "address",
						"numberOfBytes": "20"
					},
					"t_array(t_uint256)dyn_storage": {
						"base": "t_uint256",
						"encoding": "dynamic_array",
						"label": "uint256[]",
						"numberOfBytes": "32"
					},
					"t_mapping(t_address,t_array(t_uint256)dyn_storage)": {
						"encoding": "mapping",
						"key": "t_address",
						"label": "mapping(address => uint256[])",
						"numberOfBytes": "32",
						"value": "t_array(t_uint256)dyn_storage"
					},
					"t_mapping(t_uint256,t_struct(Booking)67_storage)": {
						"encoding": "mapping",
						"key": "t_uint256",
						"label": "mapping(uint256 => struct Hairdressing.Booking)",
						"numberOfBytes": "32",
						"value": "t_struct(Booking)67_storage"
					},
					"t_mapping(t_uint256,t_struct(Product)44_storage)": {
						"encoding": "mapping",
						"key": "t_uint256",
						"label": "mapping(uint256 => struct Hairdressing.Product)",
						"numberOfBytes": "32",
						"value": "t_struct(Product)44_storage"
					},
					"t_mapping(t_uint256,t_struct(Service)19_storage)": {
						"encoding": "mapping",
						"key": "t_uint256",
						"label": "mapping(uint256 => struct Hairdressing.Service)",
						"numberOfBytes": "32",
						"value": "t_struct(Service)19_storage"
					},
					"t_string_storage": {
						"encoding": "bytes",
						"label": "string",
						"numberOfBytes": "32"
					},
					"t_struct(Booking)67_storage": {
						"encoding": "inplace",
						"label": "struct Hairdressing.Booking",
						"members": [
							{
								"astId": 60,
								"contract": "contracts/Hairdressing.sol:Hairdressing",
								"label": "id",
								"offset": 0,
								"slot": "0",
								"type": "t_uint256"
							},
							{
								"astId": 62,
								"contract": "contracts/Hairdressing.sol:Hairdressing",
								"label": "serviceId",
								"offset": 0,
								"slot": "1",
								"type": "t_uint256"
							},
							{
								"astId": 64,
								"contract": "contracts/Hairdressing.sol:Hairdressing",
								"label": "date",
								"offset": 0,
								"slot": "2",
								"type": "t_uint256"
							},
							{
								"astId": 66,
								"contract": "contracts/Hairdressing.sol:Hairdressing",
								"label": "client",
								"offset": 0,
								"slot": "3",
								"type": "t_address"
							}
						],
						"numberOfBytes": "128"
					},
					"t_struct(Product)44_storage": {
						"encoding": "inplace",
						"label": "struct Hairdressing.Product",
						"members": [
							{
								"astId": 35,
								"contract": "contracts/Hairdressing.sol:Hairdressing",
								"label": "id",
								"offset": 0,
								"slot": "0",
								"type": "t_uint256"
							},
							{
								"astId": 37,
								"contract": "contracts/Hairdressing.sol:Hairdressing",
								"label": "name",
								"offset": 0,
								"slot": "1",
								"type": "t_string_storage"
							},
							{
								"astId": 39,
								"contract": "contracts/Hairdressing.sol:Hairdressing",
								"label": "description",
								"offset": 0,
								"slot": "2",
								"type": "t_string_storage"
							},
							{
								"astId": 41,
								"contract": "contracts/Hairdressing.sol:Hairdressing",
								"label": "price",
								"offset": 0,
								"slot": "3",
								"type": "t_uint256"
							},
							{
								"astId": 43,
								"contract": "contracts/Hairdressing.sol:Hairdressing",
								"label": "durability",
								"offset": 0,
								"slot": "4",
								"type": "t_uint256"
							}
						],
						"numberOfBytes": "160"
					},
					"t_struct(Service)19_storage": {
						"encoding": "inplace",
						"label": "struct Hairdressing.Service",
						"members": [
							{
								"astId": 7,
								"contract": "contracts/Hairdressing.sol:Hairdressing",
								"label": "id",
								"offset": 0,
								"slot": "0",
								"type": "t_uint256"
							},
							{
								"astId": 9,
								"contract": "contracts/Hairdressing.sol:Hairdressing",
								"label": "name",
								"offset": 0,
								"slot": "1",
								"type": "t_string_storage"
							},
							{
								"astId": 11,
								"contract": "contracts/Hairdressing.sol:Hairdressing",
								"label": "description",
								"offset": 0,
								"slot": "2",
								"type": "t_string_storage"
							},
							{
								"astId": 13,
								"contract": "contracts/Hairdressing.sol:Hairdressing",
								"label": "price",
								"offset": 0,
								"slot": "3",
								"type": "t_uint256"
							},
							{
								"astId": 15,
								"contract": "contracts/Hairdressing.sol:Hairdressing",
								"label": "duration",
								"offset": 0,
								"slot": "4",
								"type": "t_uint256"
							},
							{
								"astId": 18,
								"contract": "contracts/Hairdressing.sol:Hairdressing",
								"label": "productIds",
								"offset": 0,
								"slot": "5",
								"type": "t_array(t_uint256)dyn_storage"
							}
						],
						"numberOfBytes": "192"
					},
					"t_uint256": {
						"encoding": "inplace",
						"label": "uint256",
						"numberOfBytes": "32"
					}
				}
			},
			"userdoc": {
				"kind": "user",
				"methods": {
					"admin()": {
						"notice": "=============== Variables ==============="
					},
					"bookingList(uint256)": {
						"notice": "List to keep track of the Bookings in order to be able to loop through the mapping"
					},
					"bookings(uint256)": {
						"notice": "List of all Bookings"
					},
					"constructor": {
						"notice": "=========== Constructor ==========="
					},
					"createBooking(uint256,uint256)": {
						"notice": "Creates a new booking."
					},
					"createProduct(string,string,uint256,uint256)": {
						"notice": "ProductsCreates a new product."
					},
					"createService(string,string,uint256,uint256,uint256[])": {
						"notice": "Creates a new service."
					},
					"deleteBooking(uint256)": {
						"notice": "Deletes an existing booking."
					},
					"deleteProduct(uint256)": {
						"notice": "Deletes an existing product."
					},
					"deleteService(uint256)": {
						"notice": "Deletes an existing service."
					},
					"getProducts()": {
						"notice": "- List of all the products"
					},
					"getServices()": {
						"notice": "- List of all the services"
					},
					"getUserBookings(address)": {
						"notice": "- List of bookings for a client"
					},
					"productList(uint256)": {
						"notice": "List to keep track of the Products in order to be able to loop through the mapping"
					},
					"products(uint256)": {
						"notice": "List of all Products"
					},
					"serviceList(uint256)": {
						"notice": "List to keep track of the Services in order to be able to loop through the mapping "
					},
					"services(uint256)": {
						"notice": "List of all services"
					}
				},
				"notice": "Smart contract for the management of a hairdresser.",
				"version": 1
			}
		}
	}
}