{
	"contracts/Ebay.sol": {
		"Ebay": {
			"abi": [
				{
					"inputs": [
						{
							"internalType": "uint256",
							"name": "",
							"type": "uint256"
						}
					],
					"name": "auctions",
					"outputs": [
						{
							"internalType": "uint256",
							"name": "id",
							"type": "uint256"
						},
						{
							"internalType": "address",
							"name": "seller",
							"type": "address"
						},
						{
							"internalType": "string",
							"name": "name",
							"type": "string"
						},
						{
							"internalType": "string",
							"name": "description",
							"type": "string"
						},
						{
							"internalType": "uint256",
							"name": "minimumOfferPrice",
							"type": "uint256"
						},
						{
							"internalType": "uint256",
							"name": "auctionEnd",
							"type": "uint256"
						},
						{
							"internalType": "uint256",
							"name": "bestOfferId",
							"type": "uint256"
						}
					],
					"stateMutability": "view",
					"type": "function"
				},
				{
					"inputs": [
						{
							"internalType": "string",
							"name": "_name",
							"type": "string"
						},
						{
							"internalType": "string",
							"name": "_description",
							"type": "string"
						},
						{
							"internalType": "uint256",
							"name": "_minimumOfferPrice",
							"type": "uint256"
						},
						{
							"internalType": "uint256",
							"name": "_duration",
							"type": "uint256"
						}
					],
					"name": "createAuction",
					"outputs": [],
					"stateMutability": "nonpayable",
					"type": "function"
				},
				{
					"inputs": [
						{
							"internalType": "uint256",
							"name": "_auctionId",
							"type": "uint256"
						}
					],
					"name": "createOffer",
					"outputs": [],
					"stateMutability": "payable",
					"type": "function"
				},
				{
					"inputs": [
						{
							"internalType": "uint256",
							"name": "_auctionId",
							"type": "uint256"
						}
					],
					"name": "getAuctionOffers",
					"outputs": [
						{
							"components": [
								{
									"internalType": "uint256",
									"name": "id",
									"type": "uint256"
								},
								{
									"internalType": "uint256",
									"name": "auctionId",
									"type": "uint256"
								},
								{
									"internalType": "address",
									"name": "buyer",
									"type": "address"
								},
								{
									"internalType": "uint256",
									"name": "offerPrice",
									"type": "uint256"
								}
							],
							"internalType": "struct Ebay.Offer[]",
							"name": "",
							"type": "tuple[]"
						}
					],
					"stateMutability": "view",
					"type": "function"
				},
				{
					"inputs": [],
					"name": "getAuctions",
					"outputs": [
						{
							"components": [
								{
									"internalType": "uint256",
									"name": "id",
									"type": "uint256"
								},
								{
									"internalType": "address",
									"name": "seller",
									"type": "address"
								},
								{
									"internalType": "string",
									"name": "name",
									"type": "string"
								},
								{
									"internalType": "string",
									"name": "description",
									"type": "string"
								},
								{
									"internalType": "uint256",
									"name": "minimumOfferPrice",
									"type": "uint256"
								},
								{
									"internalType": "uint256",
									"name": "auctionEnd",
									"type": "uint256"
								},
								{
									"internalType": "uint256",
									"name": "bestOfferId",
									"type": "uint256"
								},
								{
									"internalType": "uint256[]",
									"name": "offerIds",
									"type": "uint256[]"
								}
							],
							"internalType": "struct Ebay.Auction[]",
							"name": "",
							"type": "tuple[]"
						}
					],
					"stateMutability": "view",
					"type": "function"
				},
				{
					"inputs": [
						{
							"internalType": "address",
							"name": "_user",
							"type": "address"
						}
					],
					"name": "getUserAuctions",
					"outputs": [
						{
							"components": [
								{
									"internalType": "uint256",
									"name": "id",
									"type": "uint256"
								},
								{
									"internalType": "address",
									"name": "seller",
									"type": "address"
								},
								{
									"internalType": "string",
									"name": "name",
									"type": "string"
								},
								{
									"internalType": "string",
									"name": "description",
									"type": "string"
								},
								{
									"internalType": "uint256",
									"name": "minimumOfferPrice",
									"type": "uint256"
								},
								{
									"internalType": "uint256",
									"name": "auctionEnd",
									"type": "uint256"
								},
								{
									"internalType": "uint256",
									"name": "bestOfferId",
									"type": "uint256"
								},
								{
									"internalType": "uint256[]",
									"name": "offerIds",
									"type": "uint256[]"
								}
							],
							"internalType": "struct Ebay.Auction[]",
							"name": "",
							"type": "tuple[]"
						}
					],
					"stateMutability": "view",
					"type": "function"
				},
				{
					"inputs": [
						{
							"internalType": "address",
							"name": "_user",
							"type": "address"
						}
					],
					"name": "getUserOffers",
					"outputs": [
						{
							"components": [
								{
									"internalType": "uint256",
									"name": "id",
									"type": "uint256"
								},
								{
									"internalType": "uint256",
									"name": "auctionId",
									"type": "uint256"
								},
								{
									"internalType": "address",
									"name": "buyer",
									"type": "address"
								},
								{
									"internalType": "uint256",
									"name": "offerPrice",
									"type": "uint256"
								}
							],
							"internalType": "struct Ebay.Offer[]",
							"name": "",
							"type": "tuple[]"
						}
					],
					"stateMutability": "view",
					"type": "function"
				},
				{
					"inputs": [
						{
							"internalType": "uint256",
							"name": "",
							"type": "uint256"
						}
					],
					"name": "offers",
					"outputs": [
						{
							"internalType": "uint256",
							"name": "id",
							"type": "uint256"
						},
						{
							"internalType": "uint256",
							"name": "auctionId",
							"type": "uint256"
						},
						{
							"internalType": "address",
							"name": "buyer",
							"type": "address"
						},
						{
							"internalType": "uint256",
							"name": "offerPrice",
							"type": "uint256"
						}
					],
					"stateMutability": "view",
					"type": "function"
				},
				{
					"inputs": [
						{
							"internalType": "uint256",
							"name": "_auctionId",
							"type": "uint256"
						}
					],
					"name": "trade",
					"outputs": [],
					"stateMutability": "nonpayable",
					"type": "function"
				}
			],
			"devdoc": {
				"kind": "dev",
				"methods": {
					"createAuction(string,string,uint256,uint256)": {
						"params": {
							"_description": "— auction description.",
							"_duration": "— the duration, in seconds, for which the auction will accept offers.",
							"_minimumOfferPrice": "— the minimum offer price this auction will accept.",
							"_name": "— name of the auction."
						}
					},
					"createOffer(uint256)": {
						"params": {
							"_auctionId": "- id of the auction"
						}
					},
					"getAuctionOffers(uint256)": {
						"params": {
							"_auctionId": "- Auction Id"
						}
					},
					"getUserAuctions(address)": {
						"params": {
							"_user": "- Seller address"
						}
					},
					"getUserOffers(address)": {
						"params": {
							"_user": "- Buyer address"
						}
					},
					"trade(uint256)": {
						"params": {
							"_auctionId": "- id of the auction."
						}
					}
				},
				"title": "Ebay",
				"version": 1
			},
			"evm": {
				"assembly": "    /* \"contracts/Ebay.sol\":132:7532  contract Ebay {... */\n  mstore(0x40, 0x80)\n    /* \"contracts/Ebay.sol\":830:831  1 */\n  0x01\n    /* \"contracts/Ebay.sol\":801:831  uint private nextAuctionId = 1 */\n  dup1\n  sstore\n    /* \"contracts/Ebay.sol\":1123:1124  1 */\n  0x01\n    /* \"contracts/Ebay.sol\":1096:1124  uint private nextOfferId = 1 */\n  0x03\n  sstore\n    /* \"contracts/Ebay.sol\":132:7532  contract Ebay {... */\n  callvalue\n  dup1\n  iszero\n  tag_1\n  jumpi\n  0x00\n  dup1\n  revert\ntag_1:\n  pop\n  dataSize(sub_0)\n  dup1\n  dataOffset(sub_0)\n  0x00\n  codecopy\n  0x00\n  return\nstop\n\nsub_0: assembly {\n        /* \"contracts/Ebay.sol\":132:7532  contract Ebay {... */\n      mstore(0x40, 0x80)\n      jumpi(tag_1, lt(calldatasize, 0x04))\n      shr(0xe0, calldataload(0x00))\n      dup1\n      0xa269993d\n      gt\n      tag_11\n      jumpi\n      dup1\n      0xa269993d\n      eq\n      tag_6\n      jumpi\n      dup1\n      0xc43ede15\n      eq\n      tag_7\n      jumpi\n      dup1\n      0xd7c06919\n      eq\n      tag_8\n      jumpi\n      dup1\n      0xdf1dd826\n      eq\n      tag_9\n      jumpi\n      dup1\n      0xff3ad0b4\n      eq\n      tag_10\n      jumpi\n      jump(tag_1)\n    tag_11:\n      dup1\n      0x571a26a0\n      eq\n      tag_2\n      jumpi\n      dup1\n      0x61e2db55\n      eq\n      tag_3\n      jumpi\n      dup1\n      0x661d2c2c\n      eq\n      tag_4\n      jumpi\n      dup1\n      0x8a72ea6a\n      eq\n      tag_5\n      jumpi\n    tag_1:\n      0x00\n      dup1\n      revert\n        /* \"contracts/Ebay.sol\":715:755  mapping(uint => Auction) public auctions */\n    tag_2:\n      callvalue\n      dup1\n      iszero\n      tag_12\n      jumpi\n      0x00\n      dup1\n      revert\n    tag_12:\n      pop\n      tag_13\n      0x04\n      dup1\n      calldatasize\n      sub\n      dup2\n      add\n      swap1\n      tag_14\n      swap2\n      swap1\n      tag_15\n      jump\t// in\n    tag_14:\n      tag_16\n      jump\t// in\n    tag_13:\n      mload(0x40)\n      tag_17\n      swap8\n      swap7\n      swap6\n      swap5\n      swap4\n      swap3\n      swap2\n      swap1\n      tag_18\n      jump\t// in\n    tag_17:\n      mload(0x40)\n      dup1\n      swap2\n      sub\n      swap1\n      return\n        /* \"contracts/Ebay.sol\":2019:3090  function createAuction(... */\n    tag_3:\n      callvalue\n      dup1\n      iszero\n      tag_19\n      jumpi\n      0x00\n      dup1\n      revert\n    tag_19:\n      pop\n      tag_20\n      0x04\n      dup1\n      calldatasize\n      sub\n      dup2\n      add\n      swap1\n      tag_21\n      swap2\n      swap1\n      tag_22\n      jump\t// in\n    tag_21:\n      tag_23\n      jump\t// in\n    tag_20:\n      stop\n        /* \"contracts/Ebay.sol\":6472:6885  function getUserOffers(address _user)... */\n    tag_4:\n      callvalue\n      dup1\n      iszero\n      tag_24\n      jumpi\n      0x00\n      dup1\n      revert\n    tag_24:\n      pop\n      tag_25\n      0x04\n      dup1\n      calldatasize\n      sub\n      dup2\n      add\n      swap1\n      tag_26\n      swap2\n      swap1\n      tag_27\n      jump\t// in\n    tag_26:\n      tag_28\n      jump\t// in\n    tag_25:\n      mload(0x40)\n      tag_29\n      swap2\n      swap1\n      tag_30\n      jump\t// in\n    tag_29:\n      mload(0x40)\n      dup1\n      swap2\n      sub\n      swap1\n      return\n        /* \"contracts/Ebay.sol\":1016:1052  mapping(uint => Offer) public offers */\n    tag_5:\n      callvalue\n      dup1\n      iszero\n      tag_31\n      jumpi\n      0x00\n      dup1\n      revert\n    tag_31:\n      pop\n      tag_32\n      0x04\n      dup1\n      calldatasize\n      sub\n      dup2\n      add\n      swap1\n      tag_33\n      swap2\n      swap1\n      tag_15\n      jump\t// in\n    tag_33:\n      tag_34\n      jump\t// in\n    tag_32:\n      mload(0x40)\n      tag_35\n      swap5\n      swap4\n      swap3\n      swap2\n      swap1\n      tag_36\n      jump\t// in\n    tag_35:\n      mload(0x40)\n      dup1\n      swap2\n      sub\n      swap1\n      return\n        /* \"contracts/Ebay.sol\":3194:4420  function createOffer(uint _auctionId)... */\n    tag_6:\n      tag_37\n      0x04\n      dup1\n      calldatasize\n      sub\n      dup2\n      add\n      swap1\n      tag_38\n      swap2\n      swap1\n      tag_15\n      jump\t// in\n    tag_38:\n      tag_39\n      jump\t// in\n    tag_37:\n      stop\n        /* \"contracts/Ebay.sol\":6978:7530  function getAuctionOffers(uint _auctionId)... */\n    tag_7:\n      callvalue\n      dup1\n      iszero\n      tag_40\n      jumpi\n      0x00\n      dup1\n      revert\n    tag_40:\n      pop\n      tag_41\n      0x04\n      dup1\n      calldatasize\n      sub\n      dup2\n      add\n      swap1\n      tag_42\n      swap2\n      swap1\n      tag_15\n      jump\t// in\n    tag_42:\n      tag_43\n      jump\t// in\n    tag_41:\n      mload(0x40)\n      tag_44\n      swap2\n      swap1\n      tag_30\n      jump\t// in\n    tag_44:\n      mload(0x40)\n      dup1\n      swap2\n      sub\n      swap1\n      return\n        /* \"contracts/Ebay.sol\":5575:5848  function getAuctions() external view returns (Auction[] memory) {... */\n    tag_8:\n      callvalue\n      dup1\n      iszero\n      tag_45\n      jumpi\n      0x00\n      dup1\n      revert\n    tag_45:\n      pop\n      tag_46\n      tag_47\n      jump\t// in\n    tag_46:\n      mload(0x40)\n      tag_48\n      swap2\n      swap1\n      tag_49\n      jump\t// in\n    tag_48:\n      mload(0x40)\n      dup1\n      swap2\n      sub\n      swap1\n      return\n        /* \"contracts/Ebay.sol\":4517:5474  function trade(uint _auctionId) external auctionExists(_auctionId) {... */\n    tag_9:\n      callvalue\n      dup1\n      iszero\n      tag_50\n      jumpi\n      0x00\n      dup1\n      revert\n    tag_50:\n      pop\n      tag_51\n      0x04\n      dup1\n      calldatasize\n      sub\n      dup2\n      add\n      swap1\n      tag_52\n      swap2\n      swap1\n      tag_15\n      jump\t// in\n    tag_52:\n      tag_53\n      jump\t// in\n    tag_51:\n      stop\n        /* \"contracts/Ebay.sol\":5940:6383  function getUserAuctions(address _user)... */\n    tag_10:\n      callvalue\n      dup1\n      iszero\n      tag_54\n      jumpi\n      0x00\n      dup1\n      revert\n    tag_54:\n      pop\n      tag_55\n      0x04\n      dup1\n      calldatasize\n      sub\n      dup2\n      add\n      swap1\n      tag_56\n      swap2\n      swap1\n      tag_27\n      jump\t// in\n    tag_56:\n      tag_57\n      jump\t// in\n    tag_55:\n      mload(0x40)\n      tag_58\n      swap2\n      swap1\n      tag_49\n      jump\t// in\n    tag_58:\n      mload(0x40)\n      dup1\n      swap2\n      sub\n      swap1\n      return\n        /* \"contracts/Ebay.sol\":715:755  mapping(uint => Auction) public auctions */\n    tag_16:\n      mstore(0x20, 0x00)\n      dup1\n      0x00\n      mstore\n      keccak256(0x00, 0x40)\n      0x00\n      swap2\n      pop\n      swap1\n      pop\n      dup1\n      0x00\n      add\n      sload\n      swap1\n      dup1\n      0x01\n      add\n      0x00\n      swap1\n      sload\n      swap1\n      0x0100\n      exp\n      swap1\n      div\n      0xffffffffffffffffffffffffffffffffffffffff\n      and\n      swap1\n      dup1\n      0x02\n      add\n      dup1\n      sload\n      tag_59\n      swap1\n      tag_60\n      jump\t// in\n    tag_59:\n      dup1\n      0x1f\n      add\n      0x20\n      dup1\n      swap2\n      div\n      mul\n      0x20\n      add\n      mload(0x40)\n      swap1\n      dup2\n      add\n      0x40\n      mstore\n      dup1\n      swap3\n      swap2\n      swap1\n      dup2\n      dup2\n      mstore\n      0x20\n      add\n      dup3\n      dup1\n      sload\n      tag_61\n      swap1\n      tag_60\n      jump\t// in\n    tag_61:\n      dup1\n      iszero\n      tag_62\n      jumpi\n      dup1\n      0x1f\n      lt\n      tag_63\n      jumpi\n      0x0100\n      dup1\n      dup4\n      sload\n      div\n      mul\n      dup4\n      mstore\n      swap2\n      0x20\n      add\n      swap2\n      jump(tag_62)\n    tag_63:\n      dup3\n      add\n      swap2\n      swap1\n      0x00\n      mstore\n      keccak256(0x00, 0x20)\n      swap1\n    tag_64:\n      dup2\n      sload\n      dup2\n      mstore\n      swap1\n      0x01\n      add\n      swap1\n      0x20\n      add\n      dup1\n      dup4\n      gt\n      tag_64\n      jumpi\n      dup3\n      swap1\n      sub\n      0x1f\n      and\n      dup3\n      add\n      swap2\n    tag_62:\n      pop\n      pop\n      pop\n      pop\n      pop\n      swap1\n      dup1\n      0x03\n      add\n      dup1\n      sload\n      tag_65\n      swap1\n      tag_60\n      jump\t// in\n    tag_65:\n      dup1\n      0x1f\n      add\n      0x20\n      dup1\n      swap2\n      div\n      mul\n      0x20\n      add\n      mload(0x40)\n      swap1\n      dup2\n      add\n      0x40\n      mstore\n      dup1\n      swap3\n      swap2\n      swap1\n      dup2\n      dup2\n      mstore\n      0x20\n      add\n      dup3\n      dup1\n      sload\n      tag_66\n      swap1\n      tag_60\n      jump\t// in\n    tag_66:\n      dup1\n      iszero\n      tag_67\n      jumpi\n      dup1\n      0x1f\n      lt\n      tag_68\n      jumpi\n      0x0100\n      dup1\n      dup4\n      sload\n      div\n      mul\n      dup4\n      mstore\n      swap2\n      0x20\n      add\n      swap2\n      jump(tag_67)\n    tag_68:\n      dup3\n      add\n      swap2\n      swap1\n      0x00\n      mstore\n      keccak256(0x00, 0x20)\n      swap1\n    tag_69:\n      dup2\n      sload\n      dup2\n      mstore\n      swap1\n      0x01\n      add\n      swap1\n      0x20\n      add\n      dup1\n      dup4\n      gt\n      tag_69\n      jumpi\n      dup3\n      swap1\n      sub\n      0x1f\n      and\n      dup3\n      add\n      swap2\n    tag_67:\n      pop\n      pop\n      pop\n      pop\n      pop\n      swap1\n      dup1\n      0x04\n      add\n      sload\n      swap1\n      dup1\n      0x05\n      add\n      sload\n      swap1\n      dup1\n      0x06\n      add\n      sload\n      swap1\n      pop\n      dup8\n      jump\t// out\n        /* \"contracts/Ebay.sol\":2019:3090  function createAuction(... */\n    tag_23:\n        /* \"contracts/Ebay.sol\":2291:2292  0 */\n      0x00\n        /* \"contracts/Ebay.sol\":2270:2288  _minimumOfferPrice */\n      dup3\n        /* \"contracts/Ebay.sol\":2270:2292  _minimumOfferPrice > 0 */\n      gt\n        /* \"contracts/Ebay.sol\":2249:2409  require(... */\n      tag_71\n      jumpi\n      mload(0x40)\n      0x08c379a000000000000000000000000000000000000000000000000000000000\n      dup2\n      mstore\n      0x04\n      add\n      tag_72\n      swap1\n      tag_73\n      jump\t// in\n    tag_72:\n      mload(0x40)\n      dup1\n      swap2\n      sub\n      swap1\n      revert\n    tag_71:\n        /* \"contracts/Ebay.sol\":2505:2511  1 days */\n      0x015180\n        /* \"contracts/Ebay.sol\":2492:2501  _duration */\n      dup2\n        /* \"contracts/Ebay.sol\":2492:2511  _duration >= 1 days */\n      lt\n      iszero\n        /* \"contracts/Ebay.sol\":2492:2535  _duration >= 1 days && _duration <= 10 days */\n      dup1\n      iszero\n      tag_74\n      jumpi\n      pop\n        /* \"contracts/Ebay.sol\":2528:2535  10 days */\n      0x0d2f00\n        /* \"contracts/Ebay.sol\":2515:2524  _duration */\n      dup2\n        /* \"contracts/Ebay.sol\":2515:2535  _duration <= 10 days */\n      gt\n      iszero\n        /* \"contracts/Ebay.sol\":2492:2535  _duration >= 1 days && _duration <= 10 days */\n    tag_74:\n        /* \"contracts/Ebay.sol\":2471:2600  require(... */\n      tag_75\n      jumpi\n      mload(0x40)\n      0x08c379a000000000000000000000000000000000000000000000000000000000\n      dup2\n      mstore\n      0x04\n      add\n      tag_76\n      swap1\n      tag_77\n      jump\t// in\n    tag_76:\n      mload(0x40)\n      dup1\n      swap2\n      sub\n      swap1\n      revert\n    tag_75:\n        /* \"contracts/Ebay.sol\":2611:2633  uint[] memory offerIds */\n      0x00\n        /* \"contracts/Ebay.sol\":2647:2648  0 */\n      dup1\n        /* \"contracts/Ebay.sol\":2636:2649  new uint[](0) */\n      0xffffffffffffffff\n      dup2\n      gt\n      iszero\n      tag_78\n      jumpi\n      tag_79\n      tag_80\n      jump\t// in\n    tag_79:\n    tag_78:\n      mload(0x40)\n      swap1\n      dup1\n      dup3\n      mstore\n      dup1\n      0x20\n      mul\n      0x20\n      add\n      dup3\n      add\n      0x40\n      mstore\n      dup1\n      iszero\n      tag_81\n      jumpi\n      dup2\n      0x20\n      add\n      0x20\n      dup3\n      mul\n      dup1\n      calldatasize\n      dup4\n      calldatacopy\n      dup1\n      dup3\n      add\n      swap2\n      pop\n      pop\n      swap1\n      pop\n    tag_81:\n      pop\n        /* \"contracts/Ebay.sol\":2611:2649  uint[] memory offerIds = new uint[](0) */\n      swap1\n      pop\n        /* \"contracts/Ebay.sol\":2686:2909  Auction(... */\n      mload(0x40)\n      dup1\n      0x0100\n      add\n      0x40\n      mstore\n      dup1\n        /* \"contracts/Ebay.sol\":2707:2720  nextAuctionId */\n      sload(0x01)\n        /* \"contracts/Ebay.sol\":2686:2909  Auction(... */\n      dup2\n      mstore\n      0x20\n      add\n        /* \"contracts/Ebay.sol\":2734:2744  msg.sender */\n      caller\n        /* \"contracts/Ebay.sol\":2686:2909  Auction(... */\n      0xffffffffffffffffffffffffffffffffffffffff\n      and\n      dup2\n      mstore\n      0x20\n      add\n        /* \"contracts/Ebay.sol\":2758:2763  _name */\n      dup9\n      dup9\n        /* \"contracts/Ebay.sol\":2686:2909  Auction(... */\n      dup1\n      dup1\n      0x1f\n      add\n      0x20\n      dup1\n      swap2\n      div\n      mul\n      0x20\n      add\n      mload(0x40)\n      swap1\n      dup2\n      add\n      0x40\n      mstore\n      dup1\n      swap4\n      swap3\n      swap2\n      swap1\n      dup2\n      dup2\n      mstore\n      0x20\n      add\n      dup4\n      dup4\n      dup1\n      dup3\n      dup5\n      calldatacopy\n      0x00\n      dup2\n      dup5\n      add\n      mstore\n      not(0x1f)\n      0x1f\n      dup3\n      add\n      and\n      swap1\n      pop\n      dup1\n      dup4\n      add\n      swap3\n      pop\n      pop\n      pop\n      pop\n      pop\n      pop\n      pop\n      dup2\n      mstore\n      0x20\n      add\n        /* \"contracts/Ebay.sol\":2777:2789  _description */\n      dup7\n      dup7\n        /* \"contracts/Ebay.sol\":2686:2909  Auction(... */\n      dup1\n      dup1\n      0x1f\n      add\n      0x20\n      dup1\n      swap2\n      div\n      mul\n      0x20\n      add\n      mload(0x40)\n      swap1\n      dup2\n      add\n      0x40\n      mstore\n      dup1\n      swap4\n      swap3\n      swap2\n      swap1\n      dup2\n      dup2\n      mstore\n      0x20\n      add\n      dup4\n      dup4\n      dup1\n      dup3\n      dup5\n      calldatacopy\n      0x00\n      dup2\n      dup5\n      add\n      mstore\n      not(0x1f)\n      0x1f\n      dup3\n      add\n      and\n      swap1\n      pop\n      dup1\n      dup4\n      add\n      swap3\n      pop\n      pop\n      pop\n      pop\n      pop\n      pop\n      pop\n      dup2\n      mstore\n      0x20\n      add\n        /* \"contracts/Ebay.sol\":2803:2821  _minimumOfferPrice */\n      dup5\n        /* \"contracts/Ebay.sol\":2686:2909  Auction(... */\n      dup2\n      mstore\n      0x20\n      add\n        /* \"contracts/Ebay.sol\":2853:2862  _duration */\n      dup4\n        /* \"contracts/Ebay.sol\":2835:2850  block.timestamp */\n      timestamp\n        /* \"contracts/Ebay.sol\":2835:2862  block.timestamp + _duration */\n      tag_82\n      swap2\n      swap1\n      tag_83\n      jump\t// in\n    tag_82:\n        /* \"contracts/Ebay.sol\":2686:2909  Auction(... */\n      dup2\n      mstore\n      0x20\n      add\n        /* \"contracts/Ebay.sol\":2876:2877  0 */\n      0x00\n        /* \"contracts/Ebay.sol\":2686:2909  Auction(... */\n      dup2\n      mstore\n      0x20\n      add\n        /* \"contracts/Ebay.sol\":2891:2899  offerIds */\n      dup3\n        /* \"contracts/Ebay.sol\":2686:2909  Auction(... */\n      dup2\n      mstore\n      pop\n        /* \"contracts/Ebay.sol\":2660:2668  auctions */\n      0x00\n        /* \"contracts/Ebay.sol\":2660:2683  auctions[nextAuctionId] */\n      dup1\n        /* \"contracts/Ebay.sol\":2669:2682  nextAuctionId */\n      sload(0x01)\n        /* \"contracts/Ebay.sol\":2660:2683  auctions[nextAuctionId] */\n      dup2\n      mstore\n      0x20\n      add\n      swap1\n      dup2\n      mstore\n      0x20\n      add\n      0x00\n      keccak256\n        /* \"contracts/Ebay.sol\":2660:2909  auctions[nextAuctionId] = Auction(... */\n      0x00\n      dup3\n      add\n      mload\n      dup2\n      0x00\n      add\n      sstore\n      0x20\n      dup3\n      add\n      mload\n      dup2\n      0x01\n      add\n      exp(0x0100, 0x00)\n      dup2\n      sload\n      dup2\n      0xffffffffffffffffffffffffffffffffffffffff\n      mul\n      not\n      and\n      swap1\n      dup4\n      0xffffffffffffffffffffffffffffffffffffffff\n      and\n      mul\n      or\n      swap1\n      sstore\n      pop\n      0x40\n      dup3\n      add\n      mload\n      dup2\n      0x02\n      add\n      swap1\n      dup2\n      tag_84\n      swap2\n      swap1\n      tag_85\n      jump\t// in\n    tag_84:\n      pop\n      0x60\n      dup3\n      add\n      mload\n      dup2\n      0x03\n      add\n      swap1\n      dup2\n      tag_86\n      swap2\n      swap1\n      tag_85\n      jump\t// in\n    tag_86:\n      pop\n      0x80\n      dup3\n      add\n      mload\n      dup2\n      0x04\n      add\n      sstore\n      0xa0\n      dup3\n      add\n      mload\n      dup2\n      0x05\n      add\n      sstore\n      0xc0\n      dup3\n      add\n      mload\n      dup2\n      0x06\n      add\n      sstore\n      0xe0\n      dup3\n      add\n      mload\n      dup2\n      0x07\n      add\n      swap1\n      dup1\n      mload\n      swap1\n      0x20\n      add\n      swap1\n      tag_87\n      swap3\n      swap2\n      swap1\n      tag_88\n      jump\t// in\n    tag_87:\n      pop\n      swap1\n      pop\n      pop\n        /* \"contracts/Ebay.sol\":2972:2984  userAuctions */\n      0x04\n        /* \"contracts/Ebay.sol\":2972:2996  userAuctions[msg.sender] */\n      0x00\n        /* \"contracts/Ebay.sol\":2985:2995  msg.sender */\n      caller\n        /* \"contracts/Ebay.sol\":2972:2996  userAuctions[msg.sender] */\n      0xffffffffffffffffffffffffffffffffffffffff\n      and\n      0xffffffffffffffffffffffffffffffffffffffff\n      and\n      dup2\n      mstore\n      0x20\n      add\n      swap1\n      dup2\n      mstore\n      0x20\n      add\n      0x00\n      keccak256\n        /* \"contracts/Ebay.sol\":3002:3015  nextAuctionId */\n      sload(0x01)\n        /* \"contracts/Ebay.sol\":2972:3016  userAuctions[msg.sender].push(nextAuctionId) */\n      swap1\n      dup1\n      0x01\n      dup2\n      sload\n      add\n      dup1\n      dup3\n      sstore\n      dup1\n      swap2\n      pop\n      pop\n      0x01\n      swap1\n      sub\n      swap1\n      0x00\n      mstore\n      keccak256(0x00, 0x20)\n      add\n      0x00\n      swap1\n      swap2\n      swap1\n      swap2\n      swap1\n      swap2\n      pop\n      sstore\n        /* \"contracts/Ebay.sol\":3068:3081  nextAuctionId */\n      0x01\n      0x00\n        /* \"contracts/Ebay.sol\":3068:3083  nextAuctionId++ */\n      dup2\n      sload\n      dup1\n      swap3\n      swap2\n      swap1\n      tag_90\n      swap1\n      tag_91\n      jump\t// in\n    tag_90:\n      swap2\n      swap1\n      pop\n      sstore\n      pop\n        /* \"contracts/Ebay.sol\":2183:3090  {... */\n      pop\n        /* \"contracts/Ebay.sol\":2019:3090  function createAuction(... */\n      pop\n      pop\n      pop\n      pop\n      pop\n      pop\n      jump\t// out\n        /* \"contracts/Ebay.sol\":6472:6885  function getUserOffers(address _user)... */\n    tag_28:\n        /* \"contracts/Ebay.sol\":6557:6571  Offer[] memory */\n      0x60\n        /* \"contracts/Ebay.sol\":6587:6614  uint[] storage userOfferIds */\n      0x00\n        /* \"contracts/Ebay.sol\":6617:6627  userOffers */\n      0x05\n        /* \"contracts/Ebay.sol\":6617:6634  userOffers[_user] */\n      0x00\n        /* \"contracts/Ebay.sol\":6628:6633  _user */\n      dup5\n        /* \"contracts/Ebay.sol\":6617:6634  userOffers[_user] */\n      0xffffffffffffffffffffffffffffffffffffffff\n      and\n      0xffffffffffffffffffffffffffffffffffffffff\n      and\n      dup2\n      mstore\n      0x20\n      add\n      swap1\n      dup2\n      mstore\n      0x20\n      add\n      0x00\n      keccak256\n        /* \"contracts/Ebay.sol\":6587:6634  uint[] storage userOfferIds = userOffers[_user] */\n      swap1\n      pop\n        /* \"contracts/Ebay.sol\":6644:6666  Offer[] memory _offers */\n      0x00\n        /* \"contracts/Ebay.sol\":6681:6693  userOfferIds */\n      dup2\n        /* \"contracts/Ebay.sol\":6681:6700  userOfferIds.length */\n      dup1\n      sload\n      swap1\n      pop\n        /* \"contracts/Ebay.sol\":6669:6701  new Offer[](userOfferIds.length) */\n      0xffffffffffffffff\n      dup2\n      gt\n      iszero\n      tag_93\n      jumpi\n      tag_94\n      tag_80\n      jump\t// in\n    tag_94:\n    tag_93:\n      mload(0x40)\n      swap1\n      dup1\n      dup3\n      mstore\n      dup1\n      0x20\n      mul\n      0x20\n      add\n      dup3\n      add\n      0x40\n      mstore\n      dup1\n      iszero\n      tag_95\n      jumpi\n      dup2\n      0x20\n      add\n    tag_96:\n      tag_97\n      tag_98\n      jump\t// in\n    tag_97:\n      dup2\n      mstore\n      0x20\n      add\n      swap1\n      0x01\n      swap1\n      sub\n      swap1\n      dup2\n      tag_96\n      jumpi\n      swap1\n      pop\n    tag_95:\n      pop\n        /* \"contracts/Ebay.sol\":6644:6701  Offer[] memory _offers = new Offer[](userOfferIds.length) */\n      swap1\n      pop\n        /* \"contracts/Ebay.sol\":6716:6722  uint i */\n      0x00\n        /* \"contracts/Ebay.sol\":6711:6855  for (uint i = 0; i < userOfferIds.length; i++) {... */\n    tag_99:\n        /* \"contracts/Ebay.sol\":6732:6744  userOfferIds */\n      dup3\n        /* \"contracts/Ebay.sol\":6732:6751  userOfferIds.length */\n      dup1\n      sload\n      swap1\n      pop\n        /* \"contracts/Ebay.sol\":6728:6729  i */\n      dup2\n        /* \"contracts/Ebay.sol\":6728:6751  i < userOfferIds.length */\n      lt\n        /* \"contracts/Ebay.sol\":6711:6855  for (uint i = 0; i < userOfferIds.length; i++) {... */\n      iszero\n      tag_100\n      jumpi\n        /* \"contracts/Ebay.sol\":6772:6784  uint offerId */\n      0x00\n        /* \"contracts/Ebay.sol\":6787:6799  userOfferIds */\n      dup4\n        /* \"contracts/Ebay.sol\":6800:6801  i */\n      dup3\n        /* \"contracts/Ebay.sol\":6787:6802  userOfferIds[i] */\n      dup2\n      sload\n      dup2\n      lt\n      tag_102\n      jumpi\n      tag_103\n      tag_104\n      jump\t// in\n    tag_103:\n    tag_102:\n      swap1\n      0x00\n      mstore\n      keccak256(0x00, 0x20)\n      add\n      sload\n        /* \"contracts/Ebay.sol\":6772:6802  uint offerId = userOfferIds[i] */\n      swap1\n      pop\n        /* \"contracts/Ebay.sol\":6829:6835  offers */\n      0x02\n        /* \"contracts/Ebay.sol\":6829:6844  offers[offerId] */\n      0x00\n        /* \"contracts/Ebay.sol\":6836:6843  offerId */\n      dup3\n        /* \"contracts/Ebay.sol\":6829:6844  offers[offerId] */\n      dup2\n      mstore\n      0x20\n      add\n      swap1\n      dup2\n      mstore\n      0x20\n      add\n      0x00\n      keccak256\n        /* \"contracts/Ebay.sol\":6816:6844  _offers[i] = offers[offerId] */\n      mload(0x40)\n      dup1\n      0x80\n      add\n      0x40\n      mstore\n      swap1\n      dup2\n      0x00\n      dup3\n      add\n      sload\n      dup2\n      mstore\n      0x20\n      add\n      0x01\n      dup3\n      add\n      sload\n      dup2\n      mstore\n      0x20\n      add\n      0x02\n      dup3\n      add\n      0x00\n      swap1\n      sload\n      swap1\n      0x0100\n      exp\n      swap1\n      div\n      0xffffffffffffffffffffffffffffffffffffffff\n      and\n      0xffffffffffffffffffffffffffffffffffffffff\n      and\n      0xffffffffffffffffffffffffffffffffffffffff\n      and\n      dup2\n      mstore\n      0x20\n      add\n      0x03\n      dup3\n      add\n      sload\n      dup2\n      mstore\n      pop\n      pop\n        /* \"contracts/Ebay.sol\":6816:6823  _offers */\n      dup4\n        /* \"contracts/Ebay.sol\":6824:6825  i */\n      dup4\n        /* \"contracts/Ebay.sol\":6816:6826  _offers[i] */\n      dup2\n      mload\n      dup2\n      lt\n      tag_106\n      jumpi\n      tag_107\n      tag_104\n      jump\t// in\n    tag_107:\n    tag_106:\n      0x20\n      mul\n      0x20\n      add\n      add\n        /* \"contracts/Ebay.sol\":6816:6844  _offers[i] = offers[offerId] */\n      dup2\n      swap1\n      mstore\n      pop\n        /* \"contracts/Ebay.sol\":6758:6855  {... */\n      pop\n        /* \"contracts/Ebay.sol\":6753:6756  i++ */\n      dup1\n      dup1\n      tag_108\n      swap1\n      tag_91\n      jump\t// in\n    tag_108:\n      swap2\n      pop\n      pop\n        /* \"contracts/Ebay.sol\":6711:6855  for (uint i = 0; i < userOfferIds.length; i++) {... */\n      jump(tag_99)\n    tag_100:\n      pop\n        /* \"contracts/Ebay.sol\":6871:6878  _offers */\n      dup1\n        /* \"contracts/Ebay.sol\":6864:6878  return _offers */\n      swap3\n      pop\n      pop\n      pop\n        /* \"contracts/Ebay.sol\":6472:6885  function getUserOffers(address _user)... */\n      swap2\n      swap1\n      pop\n      jump\t// out\n        /* \"contracts/Ebay.sol\":1016:1052  mapping(uint => Offer) public offers */\n    tag_34:\n      mstore(0x20, 0x02)\n      dup1\n      0x00\n      mstore\n      keccak256(0x00, 0x40)\n      0x00\n      swap2\n      pop\n      swap1\n      pop\n      dup1\n      0x00\n      add\n      sload\n      swap1\n      dup1\n      0x01\n      add\n      sload\n      swap1\n      dup1\n      0x02\n      add\n      0x00\n      swap1\n      sload\n      swap1\n      0x0100\n      exp\n      swap1\n      div\n      0xffffffffffffffffffffffffffffffffffffffff\n      and\n      swap1\n      dup1\n      0x03\n      add\n      sload\n      swap1\n      pop\n      dup5\n      jump\t// out\n        /* \"contracts/Ebay.sol\":3194:4420  function createOffer(uint _auctionId)... */\n    tag_39:\n        /* \"contracts/Ebay.sol\":3352:3362  _auctionId */\n      dup1\n        /* \"contracts/Ebay.sol\":1548:1549  0 */\n      0x00\n        /* \"contracts/Ebay.sol\":1535:1545  _auctionId */\n      dup2\n        /* \"contracts/Ebay.sol\":1535:1549  _auctionId > 0 */\n      gt\n        /* \"contracts/Ebay.sol\":1535:1579  _auctionId > 0 && _auctionId < nextAuctionId */\n      dup1\n      iszero\n      tag_110\n      jumpi\n      pop\n        /* \"contracts/Ebay.sol\":1566:1579  nextAuctionId */\n      sload(0x01)\n        /* \"contracts/Ebay.sol\":1553:1563  _auctionId */\n      dup2\n        /* \"contracts/Ebay.sol\":1553:1579  _auctionId < nextAuctionId */\n      lt\n        /* \"contracts/Ebay.sol\":1535:1579  _auctionId > 0 && _auctionId < nextAuctionId */\n    tag_110:\n        /* \"contracts/Ebay.sol\":1514:1627  require(... */\n      tag_111\n      jumpi\n      mload(0x40)\n      0x08c379a000000000000000000000000000000000000000000000000000000000\n      dup2\n      mstore\n      0x04\n      add\n      tag_112\n      swap1\n      tag_113\n      jump\t// in\n    tag_112:\n      mload(0x40)\n      dup1\n      swap2\n      sub\n      swap1\n      revert\n    tag_111:\n        /* \"contracts/Ebay.sol\":3410:3433  Auction storage auction */\n      0x00\n        /* \"contracts/Ebay.sol\":3436:3444  auctions */\n      dup1\n        /* \"contracts/Ebay.sol\":3436:3456  auctions[_auctionId] */\n      0x00\n        /* \"contracts/Ebay.sol\":3445:3455  _auctionId */\n      dup5\n        /* \"contracts/Ebay.sol\":3436:3456  auctions[_auctionId] */\n      dup2\n      mstore\n      0x20\n      add\n      swap1\n      dup2\n      mstore\n      0x20\n      add\n      0x00\n      keccak256\n        /* \"contracts/Ebay.sol\":3410:3456  Auction storage auction = auctions[_auctionId] */\n      swap1\n      pop\n        /* \"contracts/Ebay.sol\":3533:3540  auction */\n      dup1\n        /* \"contracts/Ebay.sol\":3533:3551  auction.auctionEnd */\n      0x05\n      add\n      sload\n        /* \"contracts/Ebay.sol\":3515:3530  block.timestamp */\n      timestamp\n        /* \"contracts/Ebay.sol\":3515:3551  block.timestamp < auction.auctionEnd */\n      lt\n        /* \"contracts/Ebay.sol\":3507:3571  require(block.timestamp < auction.auctionEnd, \"Auction expired\") */\n      tag_115\n      jumpi\n      mload(0x40)\n      0x08c379a000000000000000000000000000000000000000000000000000000000\n      dup2\n      mstore\n      0x04\n      add\n      tag_116\n      swap1\n      tag_117\n      jump\t// in\n    tag_116:\n      mload(0x40)\n      dup1\n      swap2\n      sub\n      swap1\n      revert\n    tag_115:\n        /* \"contracts/Ebay.sol\":3617:3640  Offer storage bestOffer */\n      0x00\n        /* \"contracts/Ebay.sol\":3643:3649  offers */\n      0x02\n        /* \"contracts/Ebay.sol\":3643:3670  offers[auction.bestOfferId] */\n      0x00\n        /* \"contracts/Ebay.sol\":3650:3657  auction */\n      dup4\n        /* \"contracts/Ebay.sol\":3650:3669  auction.bestOfferId */\n      0x06\n      add\n      sload\n        /* \"contracts/Ebay.sol\":3643:3670  offers[auction.bestOfferId] */\n      dup2\n      mstore\n      0x20\n      add\n      swap1\n      dup2\n      mstore\n      0x20\n      add\n      0x00\n      keccak256\n        /* \"contracts/Ebay.sol\":3617:3670  Offer storage bestOffer = offers[auction.bestOfferId] */\n      swap1\n      pop\n        /* \"contracts/Ebay.sol\":3775:3782  auction */\n      dup2\n        /* \"contracts/Ebay.sol\":3775:3800  auction.minimumOfferPrice */\n      0x04\n      add\n      sload\n        /* \"contracts/Ebay.sol\":3762:3771  msg.value */\n      callvalue\n        /* \"contracts/Ebay.sol\":3762:3800  msg.value >= auction.minimumOfferPrice */\n      lt\n      iszero\n        /* \"contracts/Ebay.sol\":3762:3852  msg.value >= auction.minimumOfferPrice &&... */\n      dup1\n      iszero\n      tag_118\n      jumpi\n      pop\n        /* \"contracts/Ebay.sol\":3832:3841  bestOffer */\n      dup1\n        /* \"contracts/Ebay.sol\":3832:3852  bestOffer.offerPrice */\n      0x03\n      add\n      sload\n        /* \"contracts/Ebay.sol\":3820:3829  msg.value */\n      callvalue\n        /* \"contracts/Ebay.sol\":3820:3852  msg.value > bestOffer.offerPrice */\n      gt\n        /* \"contracts/Ebay.sol\":3762:3852  msg.value >= auction.minimumOfferPrice &&... */\n    tag_118:\n        /* \"contracts/Ebay.sol\":3741:3945  require(... */\n      tag_119\n      jumpi\n      mload(0x40)\n      0x08c379a000000000000000000000000000000000000000000000000000000000\n      dup2\n      mstore\n      0x04\n      add\n      tag_120\n      swap1\n      tag_121\n      jump\t// in\n    tag_120:\n      mload(0x40)\n      dup1\n      swap2\n      sub\n      swap1\n      revert\n    tag_119:\n        /* \"contracts/Ebay.sol\":4019:4030  nextOfferId */\n      sload(0x03)\n        /* \"contracts/Ebay.sol\":3997:4004  auction */\n      dup3\n        /* \"contracts/Ebay.sol\":3997:4016  auction.bestOfferId */\n      0x06\n      add\n        /* \"contracts/Ebay.sol\":3997:4030  auction.bestOfferId = nextOfferId */\n      dup2\n      swap1\n      sstore\n      pop\n        /* \"contracts/Ebay.sol\":4093:4204  Offer(... */\n      mload(0x40)\n      dup1\n      0x80\n      add\n      0x40\n      mstore\n      dup1\n        /* \"contracts/Ebay.sol\":4112:4123  nextOfferId */\n      sload(0x03)\n        /* \"contracts/Ebay.sol\":4093:4204  Offer(... */\n      dup2\n      mstore\n      0x20\n      add\n        /* \"contracts/Ebay.sol\":4137:4147  _auctionId */\n      dup6\n        /* \"contracts/Ebay.sol\":4093:4204  Offer(... */\n      dup2\n      mstore\n      0x20\n      add\n        /* \"contracts/Ebay.sol\":4161:4171  msg.sender */\n      caller\n        /* \"contracts/Ebay.sol\":4093:4204  Offer(... */\n      0xffffffffffffffffffffffffffffffffffffffff\n      and\n      dup2\n      mstore\n      0x20\n      add\n        /* \"contracts/Ebay.sol\":4185:4194  msg.value */\n      callvalue\n        /* \"contracts/Ebay.sol\":4093:4204  Offer(... */\n      dup2\n      mstore\n      pop\n        /* \"contracts/Ebay.sol\":4071:4077  offers */\n      0x02\n        /* \"contracts/Ebay.sol\":4071:4090  offers[nextOfferId] */\n      0x00\n        /* \"contracts/Ebay.sol\":4078:4089  nextOfferId */\n      sload(0x03)\n        /* \"contracts/Ebay.sol\":4071:4090  offers[nextOfferId] */\n      dup2\n      mstore\n      0x20\n      add\n      swap1\n      dup2\n      mstore\n      0x20\n      add\n      0x00\n      keccak256\n        /* \"contracts/Ebay.sol\":4071:4204  offers[nextOfferId] = Offer(... */\n      0x00\n      dup3\n      add\n      mload\n      dup2\n      0x00\n      add\n      sstore\n      0x20\n      dup3\n      add\n      mload\n      dup2\n      0x01\n      add\n      sstore\n      0x40\n      dup3\n      add\n      mload\n      dup2\n      0x02\n      add\n      exp(0x0100, 0x00)\n      dup2\n      sload\n      dup2\n      0xffffffffffffffffffffffffffffffffffffffff\n      mul\n      not\n      and\n      swap1\n      dup4\n      0xffffffffffffffffffffffffffffffffffffffff\n      and\n      mul\n      or\n      swap1\n      sstore\n      pop\n      0x60\n      dup3\n      add\n      mload\n      dup2\n      0x03\n      add\n      sstore\n      swap1\n      pop\n      pop\n        /* \"contracts/Ebay.sol\":4215:4222  auction */\n      dup2\n        /* \"contracts/Ebay.sol\":4215:4231  auction.offerIds */\n      0x07\n      add\n        /* \"contracts/Ebay.sol\":4237:4248  nextOfferId */\n      sload(0x03)\n        /* \"contracts/Ebay.sol\":4215:4249  auction.offerIds.push(nextOfferId) */\n      swap1\n      dup1\n      0x01\n      dup2\n      sload\n      add\n      dup1\n      dup3\n      sstore\n      dup1\n      swap2\n      pop\n      pop\n      0x01\n      swap1\n      sub\n      swap1\n      0x00\n      mstore\n      keccak256(0x00, 0x20)\n      add\n      0x00\n      swap1\n      swap2\n      swap1\n      swap2\n      swap1\n      swap2\n      pop\n      sstore\n        /* \"contracts/Ebay.sol\":4310:4320  userOffers */\n      0x05\n        /* \"contracts/Ebay.sol\":4310:4332  userOffers[msg.sender] */\n      0x00\n        /* \"contracts/Ebay.sol\":4321:4331  msg.sender */\n      caller\n        /* \"contracts/Ebay.sol\":4310:4332  userOffers[msg.sender] */\n      0xffffffffffffffffffffffffffffffffffffffff\n      and\n      0xffffffffffffffffffffffffffffffffffffffff\n      and\n      dup2\n      mstore\n      0x20\n      add\n      swap1\n      dup2\n      mstore\n      0x20\n      add\n      0x00\n      keccak256\n        /* \"contracts/Ebay.sol\":4338:4349  nextOfferId */\n      sload(0x03)\n        /* \"contracts/Ebay.sol\":4310:4350  userOffers[msg.sender].push(nextOfferId) */\n      swap1\n      dup1\n      0x01\n      dup2\n      sload\n      add\n      dup1\n      dup3\n      sstore\n      dup1\n      swap2\n      pop\n      pop\n      0x01\n      swap1\n      sub\n      swap1\n      0x00\n      mstore\n      keccak256(0x00, 0x20)\n      add\n      0x00\n      swap1\n      swap2\n      swap1\n      swap2\n      swap1\n      swap2\n      pop\n      sstore\n        /* \"contracts/Ebay.sol\":4400:4411  nextOfferId */\n      0x03\n      0x00\n        /* \"contracts/Ebay.sol\":4400:4413  nextOfferId++ */\n      dup2\n      sload\n      dup1\n      swap3\n      swap2\n      swap1\n      tag_124\n      swap1\n      tag_91\n      jump\t// in\n    tag_124:\n      swap2\n      swap1\n      pop\n      sstore\n      pop\n        /* \"contracts/Ebay.sol\":3368:4420  {... */\n      pop\n      pop\n        /* \"contracts/Ebay.sol\":3194:4420  function createOffer(uint _auctionId)... */\n      pop\n      pop\n      jump\t// out\n        /* \"contracts/Ebay.sol\":6978:7530  function getAuctionOffers(uint _auctionId)... */\n    tag_43:\n        /* \"contracts/Ebay.sol\":7102:7116  Offer[] memory */\n      0x60\n        /* \"contracts/Ebay.sol\":7073:7083  _auctionId */\n      dup2\n        /* \"contracts/Ebay.sol\":1548:1549  0 */\n      0x00\n        /* \"contracts/Ebay.sol\":1535:1545  _auctionId */\n      dup2\n        /* \"contracts/Ebay.sol\":1535:1549  _auctionId > 0 */\n      gt\n        /* \"contracts/Ebay.sol\":1535:1579  _auctionId > 0 && _auctionId < nextAuctionId */\n      dup1\n      iszero\n      tag_126\n      jumpi\n      pop\n        /* \"contracts/Ebay.sol\":1566:1579  nextAuctionId */\n      sload(0x01)\n        /* \"contracts/Ebay.sol\":1553:1563  _auctionId */\n      dup2\n        /* \"contracts/Ebay.sol\":1553:1579  _auctionId < nextAuctionId */\n      lt\n        /* \"contracts/Ebay.sol\":1535:1579  _auctionId > 0 && _auctionId < nextAuctionId */\n    tag_126:\n        /* \"contracts/Ebay.sol\":1514:1627  require(... */\n      tag_127\n      jumpi\n      mload(0x40)\n      0x08c379a000000000000000000000000000000000000000000000000000000000\n      dup2\n      mstore\n      0x04\n      add\n      tag_128\n      swap1\n      tag_113\n      jump\t// in\n    tag_128:\n      mload(0x40)\n      dup1\n      swap2\n      sub\n      swap1\n      revert\n    tag_127:\n        /* \"contracts/Ebay.sol\":7164:7187  Auction storage auction */\n      0x00\n        /* \"contracts/Ebay.sol\":7190:7198  auctions */\n      dup1\n        /* \"contracts/Ebay.sol\":7190:7210  auctions[_auctionId] */\n      0x00\n        /* \"contracts/Ebay.sol\":7199:7209  _auctionId */\n      dup6\n        /* \"contracts/Ebay.sol\":7190:7210  auctions[_auctionId] */\n      dup2\n      mstore\n      0x20\n      add\n      swap1\n      dup2\n      mstore\n      0x20\n      add\n      0x00\n      keccak256\n        /* \"contracts/Ebay.sol\":7164:7210  Auction storage auction = auctions[_auctionId] */\n      swap1\n      pop\n        /* \"contracts/Ebay.sol\":7220:7250  uint[] storage auctionOfferIds */\n      0x00\n        /* \"contracts/Ebay.sol\":7253:7260  auction */\n      dup2\n        /* \"contracts/Ebay.sol\":7253:7269  auction.offerIds */\n      0x07\n      add\n        /* \"contracts/Ebay.sol\":7220:7269  uint[] storage auctionOfferIds = auction.offerIds */\n      swap1\n      pop\n        /* \"contracts/Ebay.sol\":7280:7302  Offer[] memory _offers */\n      0x00\n        /* \"contracts/Ebay.sol\":7317:7332  auctionOfferIds */\n      dup2\n        /* \"contracts/Ebay.sol\":7317:7339  auctionOfferIds.length */\n      dup1\n      sload\n      swap1\n      pop\n        /* \"contracts/Ebay.sol\":7305:7340  new Offer[](auctionOfferIds.length) */\n      0xffffffffffffffff\n      dup2\n      gt\n      iszero\n      tag_130\n      jumpi\n      tag_131\n      tag_80\n      jump\t// in\n    tag_131:\n    tag_130:\n      mload(0x40)\n      swap1\n      dup1\n      dup3\n      mstore\n      dup1\n      0x20\n      mul\n      0x20\n      add\n      dup3\n      add\n      0x40\n      mstore\n      dup1\n      iszero\n      tag_132\n      jumpi\n      dup2\n      0x20\n      add\n    tag_133:\n      tag_134\n      tag_98\n      jump\t// in\n    tag_134:\n      dup2\n      mstore\n      0x20\n      add\n      swap1\n      0x01\n      swap1\n      sub\n      swap1\n      dup2\n      tag_133\n      jumpi\n      swap1\n      pop\n    tag_132:\n      pop\n        /* \"contracts/Ebay.sol\":7280:7340  Offer[] memory _offers = new Offer[](auctionOfferIds.length) */\n      swap1\n      pop\n        /* \"contracts/Ebay.sol\":7355:7361  uint i */\n      0x00\n        /* \"contracts/Ebay.sol\":7350:7500  for (uint i = 0; i < auctionOfferIds.length; i++) {... */\n    tag_135:\n        /* \"contracts/Ebay.sol\":7371:7386  auctionOfferIds */\n      dup3\n        /* \"contracts/Ebay.sol\":7371:7393  auctionOfferIds.length */\n      dup1\n      sload\n      swap1\n      pop\n        /* \"contracts/Ebay.sol\":7367:7368  i */\n      dup2\n        /* \"contracts/Ebay.sol\":7367:7393  i < auctionOfferIds.length */\n      lt\n        /* \"contracts/Ebay.sol\":7350:7500  for (uint i = 0; i < auctionOfferIds.length; i++) {... */\n      iszero\n      tag_136\n      jumpi\n        /* \"contracts/Ebay.sol\":7414:7426  uint offerId */\n      0x00\n        /* \"contracts/Ebay.sol\":7429:7444  auctionOfferIds */\n      dup4\n        /* \"contracts/Ebay.sol\":7445:7446  i */\n      dup3\n        /* \"contracts/Ebay.sol\":7429:7447  auctionOfferIds[i] */\n      dup2\n      sload\n      dup2\n      lt\n      tag_138\n      jumpi\n      tag_139\n      tag_104\n      jump\t// in\n    tag_139:\n    tag_138:\n      swap1\n      0x00\n      mstore\n      keccak256(0x00, 0x20)\n      add\n      sload\n        /* \"contracts/Ebay.sol\":7414:7447  uint offerId = auctionOfferIds[i] */\n      swap1\n      pop\n        /* \"contracts/Ebay.sol\":7474:7480  offers */\n      0x02\n        /* \"contracts/Ebay.sol\":7474:7489  offers[offerId] */\n      0x00\n        /* \"contracts/Ebay.sol\":7481:7488  offerId */\n      dup3\n        /* \"contracts/Ebay.sol\":7474:7489  offers[offerId] */\n      dup2\n      mstore\n      0x20\n      add\n      swap1\n      dup2\n      mstore\n      0x20\n      add\n      0x00\n      keccak256\n        /* \"contracts/Ebay.sol\":7461:7489  _offers[i] = offers[offerId] */\n      mload(0x40)\n      dup1\n      0x80\n      add\n      0x40\n      mstore\n      swap1\n      dup2\n      0x00\n      dup3\n      add\n      sload\n      dup2\n      mstore\n      0x20\n      add\n      0x01\n      dup3\n      add\n      sload\n      dup2\n      mstore\n      0x20\n      add\n      0x02\n      dup3\n      add\n      0x00\n      swap1\n      sload\n      swap1\n      0x0100\n      exp\n      swap1\n      div\n      0xffffffffffffffffffffffffffffffffffffffff\n      and\n      0xffffffffffffffffffffffffffffffffffffffff\n      and\n      0xffffffffffffffffffffffffffffffffffffffff\n      and\n      dup2\n      mstore\n      0x20\n      add\n      0x03\n      dup3\n      add\n      sload\n      dup2\n      mstore\n      pop\n      pop\n        /* \"contracts/Ebay.sol\":7461:7468  _offers */\n      dup4\n        /* \"contracts/Ebay.sol\":7469:7470  i */\n      dup4\n        /* \"contracts/Ebay.sol\":7461:7471  _offers[i] */\n      dup2\n      mload\n      dup2\n      lt\n      tag_141\n      jumpi\n      tag_142\n      tag_104\n      jump\t// in\n    tag_142:\n    tag_141:\n      0x20\n      mul\n      0x20\n      add\n      add\n        /* \"contracts/Ebay.sol\":7461:7489  _offers[i] = offers[offerId] */\n      dup2\n      swap1\n      mstore\n      pop\n        /* \"contracts/Ebay.sol\":7400:7500  {... */\n      pop\n        /* \"contracts/Ebay.sol\":7395:7398  i++ */\n      dup1\n      dup1\n      tag_143\n      swap1\n      tag_91\n      jump\t// in\n    tag_143:\n      swap2\n      pop\n      pop\n        /* \"contracts/Ebay.sol\":7350:7500  for (uint i = 0; i < auctionOfferIds.length; i++) {... */\n      jump(tag_135)\n    tag_136:\n      pop\n        /* \"contracts/Ebay.sol\":7516:7523  _offers */\n      dup1\n        /* \"contracts/Ebay.sol\":7509:7523  return _offers */\n      swap5\n      pop\n      pop\n      pop\n      pop\n        /* \"contracts/Ebay.sol\":6978:7530  function getAuctionOffers(uint _auctionId)... */\n      pop\n      swap2\n      swap1\n      pop\n      jump\t// out\n        /* \"contracts/Ebay.sol\":5575:5848  function getAuctions() external view returns (Auction[] memory) {... */\n    tag_47:\n        /* \"contracts/Ebay.sol\":5621:5637  Auction[] memory */\n      0x60\n        /* \"contracts/Ebay.sol\":5649:5675  Auction[] memory _auctions */\n      0x00\n        /* \"contracts/Ebay.sol\":5708:5709  1 */\n      0x01\n        /* \"contracts/Ebay.sol\":5692:5705  nextAuctionId */\n      dup1\n      sload\n        /* \"contracts/Ebay.sol\":5692:5709  nextAuctionId - 1 */\n      tag_145\n      swap2\n      swap1\n      tag_146\n      jump\t// in\n    tag_145:\n        /* \"contracts/Ebay.sol\":5678:5710  new Auction[](nextAuctionId - 1) */\n      0xffffffffffffffff\n      dup2\n      gt\n      iszero\n      tag_147\n      jumpi\n      tag_148\n      tag_80\n      jump\t// in\n    tag_148:\n    tag_147:\n      mload(0x40)\n      swap1\n      dup1\n      dup3\n      mstore\n      dup1\n      0x20\n      mul\n      0x20\n      add\n      dup3\n      add\n      0x40\n      mstore\n      dup1\n      iszero\n      tag_149\n      jumpi\n      dup2\n      0x20\n      add\n    tag_150:\n      tag_151\n      tag_152\n      jump\t// in\n    tag_151:\n      dup2\n      mstore\n      0x20\n      add\n      swap1\n      0x01\n      swap1\n      sub\n      swap1\n      dup2\n      tag_150\n      jumpi\n      swap1\n      pop\n    tag_149:\n      pop\n        /* \"contracts/Ebay.sol\":5649:5710  Auction[] memory _auctions = new Auction[](nextAuctionId - 1) */\n      swap1\n      pop\n        /* \"contracts/Ebay.sol\":5725:5731  uint i */\n      0x00\n        /* \"contracts/Ebay.sol\":5734:5735  1 */\n      0x01\n        /* \"contracts/Ebay.sol\":5725:5735  uint i = 1 */\n      swap1\n      pop\n        /* \"contracts/Ebay.sol\":5720:5816  for (uint i = 1; i < nextAuctionId; i++) {... */\n    tag_153:\n        /* \"contracts/Ebay.sol\":5741:5754  nextAuctionId */\n      sload(0x01)\n        /* \"contracts/Ebay.sol\":5737:5738  i */\n      dup2\n        /* \"contracts/Ebay.sol\":5737:5754  i < nextAuctionId */\n      lt\n        /* \"contracts/Ebay.sol\":5720:5816  for (uint i = 1; i < nextAuctionId; i++) {... */\n      iszero\n      tag_154\n      jumpi\n        /* \"contracts/Ebay.sol\":5794:5802  auctions */\n      0x00\n        /* \"contracts/Ebay.sol\":5794:5805  auctions[i] */\n      dup1\n        /* \"contracts/Ebay.sol\":5803:5804  i */\n      dup3\n        /* \"contracts/Ebay.sol\":5794:5805  auctions[i] */\n      dup2\n      mstore\n      0x20\n      add\n      swap1\n      dup2\n      mstore\n      0x20\n      add\n      0x00\n      keccak256\n        /* \"contracts/Ebay.sol\":5775:5805  _auctions[i - 1] = auctions[i] */\n      mload(0x40)\n      dup1\n      0x0100\n      add\n      0x40\n      mstore\n      swap1\n      dup2\n      0x00\n      dup3\n      add\n      sload\n      dup2\n      mstore\n      0x20\n      add\n      0x01\n      dup3\n      add\n      0x00\n      swap1\n      sload\n      swap1\n      0x0100\n      exp\n      swap1\n      div\n      0xffffffffffffffffffffffffffffffffffffffff\n      and\n      0xffffffffffffffffffffffffffffffffffffffff\n      and\n      0xffffffffffffffffffffffffffffffffffffffff\n      and\n      dup2\n      mstore\n      0x20\n      add\n      0x02\n      dup3\n      add\n      dup1\n      sload\n      tag_156\n      swap1\n      tag_60\n      jump\t// in\n    tag_156:\n      dup1\n      0x1f\n      add\n      0x20\n      dup1\n      swap2\n      div\n      mul\n      0x20\n      add\n      mload(0x40)\n      swap1\n      dup2\n      add\n      0x40\n      mstore\n      dup1\n      swap3\n      swap2\n      swap1\n      dup2\n      dup2\n      mstore\n      0x20\n      add\n      dup3\n      dup1\n      sload\n      tag_157\n      swap1\n      tag_60\n      jump\t// in\n    tag_157:\n      dup1\n      iszero\n      tag_158\n      jumpi\n      dup1\n      0x1f\n      lt\n      tag_159\n      jumpi\n      0x0100\n      dup1\n      dup4\n      sload\n      div\n      mul\n      dup4\n      mstore\n      swap2\n      0x20\n      add\n      swap2\n      jump(tag_158)\n    tag_159:\n      dup3\n      add\n      swap2\n      swap1\n      0x00\n      mstore\n      keccak256(0x00, 0x20)\n      swap1\n    tag_160:\n      dup2\n      sload\n      dup2\n      mstore\n      swap1\n      0x01\n      add\n      swap1\n      0x20\n      add\n      dup1\n      dup4\n      gt\n      tag_160\n      jumpi\n      dup3\n      swap1\n      sub\n      0x1f\n      and\n      dup3\n      add\n      swap2\n    tag_158:\n      pop\n      pop\n      pop\n      pop\n      pop\n      dup2\n      mstore\n      0x20\n      add\n      0x03\n      dup3\n      add\n      dup1\n      sload\n      tag_161\n      swap1\n      tag_60\n      jump\t// in\n    tag_161:\n      dup1\n      0x1f\n      add\n      0x20\n      dup1\n      swap2\n      div\n      mul\n      0x20\n      add\n      mload(0x40)\n      swap1\n      dup2\n      add\n      0x40\n      mstore\n      dup1\n      swap3\n      swap2\n      swap1\n      dup2\n      dup2\n      mstore\n      0x20\n      add\n      dup3\n      dup1\n      sload\n      tag_162\n      swap1\n      tag_60\n      jump\t// in\n    tag_162:\n      dup1\n      iszero\n      tag_163\n      jumpi\n      dup1\n      0x1f\n      lt\n      tag_164\n      jumpi\n      0x0100\n      dup1\n      dup4\n      sload\n      div\n      mul\n      dup4\n      mstore\n      swap2\n      0x20\n      add\n      swap2\n      jump(tag_163)\n    tag_164:\n      dup3\n      add\n      swap2\n      swap1\n      0x00\n      mstore\n      keccak256(0x00, 0x20)\n      swap1\n    tag_165:\n      dup2\n      sload\n      dup2\n      mstore\n      swap1\n      0x01\n      add\n      swap1\n      0x20\n      add\n      dup1\n      dup4\n      gt\n      tag_165\n      jumpi\n      dup3\n      swap1\n      sub\n      0x1f\n      and\n      dup3\n      add\n      swap2\n    tag_163:\n      pop\n      pop\n      pop\n      pop\n      pop\n      dup2\n      mstore\n      0x20\n      add\n      0x04\n      dup3\n      add\n      sload\n      dup2\n      mstore\n      0x20\n      add\n      0x05\n      dup3\n      add\n      sload\n      dup2\n      mstore\n      0x20\n      add\n      0x06\n      dup3\n      add\n      sload\n      dup2\n      mstore\n      0x20\n      add\n      0x07\n      dup3\n      add\n      dup1\n      sload\n      dup1\n      0x20\n      mul\n      0x20\n      add\n      mload(0x40)\n      swap1\n      dup2\n      add\n      0x40\n      mstore\n      dup1\n      swap3\n      swap2\n      swap1\n      dup2\n      dup2\n      mstore\n      0x20\n      add\n      dup3\n      dup1\n      sload\n      dup1\n      iszero\n      tag_166\n      jumpi\n      0x20\n      mul\n      dup3\n      add\n      swap2\n      swap1\n      0x00\n      mstore\n      keccak256(0x00, 0x20)\n      swap1\n    tag_167:\n      dup2\n      sload\n      dup2\n      mstore\n      0x20\n      add\n      swap1\n      0x01\n      add\n      swap1\n      dup1\n      dup4\n      gt\n      tag_167\n      jumpi\n    tag_166:\n      pop\n      pop\n      pop\n      pop\n      pop\n      dup2\n      mstore\n      pop\n      pop\n        /* \"contracts/Ebay.sol\":5775:5784  _auctions */\n      dup3\n        /* \"contracts/Ebay.sol\":5789:5790  1 */\n      0x01\n        /* \"contracts/Ebay.sol\":5785:5786  i */\n      dup4\n        /* \"contracts/Ebay.sol\":5785:5790  i - 1 */\n      tag_168\n      swap2\n      swap1\n      tag_146\n      jump\t// in\n    tag_168:\n        /* \"contracts/Ebay.sol\":5775:5791  _auctions[i - 1] */\n      dup2\n      mload\n      dup2\n      lt\n      tag_169\n      jumpi\n      tag_170\n      tag_104\n      jump\t// in\n    tag_170:\n    tag_169:\n      0x20\n      mul\n      0x20\n      add\n      add\n        /* \"contracts/Ebay.sol\":5775:5805  _auctions[i - 1] = auctions[i] */\n      dup2\n      swap1\n      mstore\n      pop\n        /* \"contracts/Ebay.sol\":5756:5759  i++ */\n      dup1\n      dup1\n      tag_171\n      swap1\n      tag_91\n      jump\t// in\n    tag_171:\n      swap2\n      pop\n      pop\n        /* \"contracts/Ebay.sol\":5720:5816  for (uint i = 1; i < nextAuctionId; i++) {... */\n      jump(tag_153)\n    tag_154:\n      pop\n        /* \"contracts/Ebay.sol\":5832:5841  _auctions */\n      dup1\n        /* \"contracts/Ebay.sol\":5825:5841  return _auctions */\n      swap2\n      pop\n      pop\n        /* \"contracts/Ebay.sol\":5575:5848  function getAuctions() external view returns (Auction[] memory) {... */\n      swap1\n      jump\t// out\n        /* \"contracts/Ebay.sol\":4517:5474  function trade(uint _auctionId) external auctionExists(_auctionId) {... */\n    tag_53:\n        /* \"contracts/Ebay.sol\":4572:4582  _auctionId */\n      dup1\n        /* \"contracts/Ebay.sol\":1548:1549  0 */\n      0x00\n        /* \"contracts/Ebay.sol\":1535:1545  _auctionId */\n      dup2\n        /* \"contracts/Ebay.sol\":1535:1549  _auctionId > 0 */\n      gt\n        /* \"contracts/Ebay.sol\":1535:1579  _auctionId > 0 && _auctionId < nextAuctionId */\n      dup1\n      iszero\n      tag_173\n      jumpi\n      pop\n        /* \"contracts/Ebay.sol\":1566:1579  nextAuctionId */\n      sload(0x01)\n        /* \"contracts/Ebay.sol\":1553:1563  _auctionId */\n      dup2\n        /* \"contracts/Ebay.sol\":1553:1579  _auctionId < nextAuctionId */\n      lt\n        /* \"contracts/Ebay.sol\":1535:1579  _auctionId > 0 && _auctionId < nextAuctionId */\n    tag_173:\n        /* \"contracts/Ebay.sol\":1514:1627  require(... */\n      tag_174\n      jumpi\n      mload(0x40)\n      0x08c379a000000000000000000000000000000000000000000000000000000000\n      dup2\n      mstore\n      0x04\n      add\n      tag_175\n      swap1\n      tag_113\n      jump\t// in\n    tag_175:\n      mload(0x40)\n      dup1\n      swap2\n      sub\n      swap1\n      revert\n    tag_174:\n        /* \"contracts/Ebay.sol\":4626:4649  Auction storage auction */\n      0x00\n        /* \"contracts/Ebay.sol\":4652:4660  auctions */\n      dup1\n        /* \"contracts/Ebay.sol\":4652:4672  auctions[_auctionId] */\n      0x00\n        /* \"contracts/Ebay.sol\":4661:4671  _auctionId */\n      dup5\n        /* \"contracts/Ebay.sol\":4652:4672  auctions[_auctionId] */\n      dup2\n      mstore\n      0x20\n      add\n      swap1\n      dup2\n      mstore\n      0x20\n      add\n      0x00\n      keccak256\n        /* \"contracts/Ebay.sol\":4626:4672  Auction storage auction = auctions[_auctionId] */\n      swap1\n      pop\n        /* \"contracts/Ebay.sol\":4718:4741  Offer storage bestOffer */\n      0x00\n        /* \"contracts/Ebay.sol\":4744:4750  offers */\n      0x02\n        /* \"contracts/Ebay.sol\":4744:4771  offers[auction.bestOfferId] */\n      0x00\n        /* \"contracts/Ebay.sol\":4751:4758  auction */\n      dup4\n        /* \"contracts/Ebay.sol\":4751:4770  auction.bestOfferId */\n      0x06\n      add\n      sload\n        /* \"contracts/Ebay.sol\":4744:4771  offers[auction.bestOfferId] */\n      dup2\n      mstore\n      0x20\n      add\n      swap1\n      dup2\n      mstore\n      0x20\n      add\n      0x00\n      keccak256\n        /* \"contracts/Ebay.sol\":4718:4771  Offer storage bestOffer = offers[auction.bestOfferId] */\n      swap1\n      pop\n        /* \"contracts/Ebay.sol\":4859:4866  auction */\n      dup2\n        /* \"contracts/Ebay.sol\":4859:4877  auction.auctionEnd */\n      0x05\n      add\n      sload\n        /* \"contracts/Ebay.sol\":4841:4856  block.timestamp */\n      timestamp\n        /* \"contracts/Ebay.sol\":4841:4877  block.timestamp > auction.auctionEnd */\n      gt\n        /* \"contracts/Ebay.sol\":4820:4926  require(... */\n      tag_177\n      jumpi\n      mload(0x40)\n      0x08c379a000000000000000000000000000000000000000000000000000000000\n      dup2\n      mstore\n      0x04\n      add\n      tag_178\n      swap1\n      tag_179\n      jump\t// in\n    tag_178:\n      mload(0x40)\n      dup1\n      swap2\n      sub\n      swap1\n      revert\n    tag_177:\n        /* \"contracts/Ebay.sol\":4981:4987  uint i */\n      0x00\n        /* \"contracts/Ebay.sol\":4976:5353  for (uint i = 0; i < auction.offerIds.length; i++) {... */\n    tag_180:\n        /* \"contracts/Ebay.sol\":4997:5004  auction */\n      dup3\n        /* \"contracts/Ebay.sol\":4997:5013  auction.offerIds */\n      0x07\n      add\n        /* \"contracts/Ebay.sol\":4997:5020  auction.offerIds.length */\n      dup1\n      sload\n      swap1\n      pop\n        /* \"contracts/Ebay.sol\":4993:4994  i */\n      dup2\n        /* \"contracts/Ebay.sol\":4993:5020  i < auction.offerIds.length */\n      lt\n        /* \"contracts/Ebay.sol\":4976:5353  for (uint i = 0; i < auction.offerIds.length; i++) {... */\n      iszero\n      tag_181\n      jumpi\n        /* \"contracts/Ebay.sol\":5041:5053  uint offerId */\n      0x00\n        /* \"contracts/Ebay.sol\":5056:5063  auction */\n      dup4\n        /* \"contracts/Ebay.sol\":5056:5072  auction.offerIds */\n      0x07\n      add\n        /* \"contracts/Ebay.sol\":5073:5074  i */\n      dup3\n        /* \"contracts/Ebay.sol\":5056:5075  auction.offerIds[i] */\n      dup2\n      sload\n      dup2\n      lt\n      tag_183\n      jumpi\n      tag_184\n      tag_104\n      jump\t// in\n    tag_184:\n    tag_183:\n      swap1\n      0x00\n      mstore\n      keccak256(0x00, 0x20)\n      add\n      sload\n        /* \"contracts/Ebay.sol\":5041:5075  uint offerId = auction.offerIds[i] */\n      swap1\n      pop\n        /* \"contracts/Ebay.sol\":5089:5108  Offer storage offer */\n      0x00\n        /* \"contracts/Ebay.sol\":5111:5117  offers */\n      0x02\n        /* \"contracts/Ebay.sol\":5111:5126  offers[offerId] */\n      0x00\n        /* \"contracts/Ebay.sol\":5118:5125  offerId */\n      dup4\n        /* \"contracts/Ebay.sol\":5111:5126  offers[offerId] */\n      dup2\n      mstore\n      0x20\n      add\n      swap1\n      dup2\n      mstore\n      0x20\n      add\n      0x00\n      keccak256\n        /* \"contracts/Ebay.sol\":5089:5126  Offer storage offer = offers[offerId] */\n      swap1\n      pop\n        /* \"contracts/Ebay.sol\":5249:5258  bestOffer */\n      dup4\n        /* \"contracts/Ebay.sol\":5249:5261  bestOffer.id */\n      0x00\n      add\n      sload\n        /* \"contracts/Ebay.sol\":5238:5245  offerId */\n      dup3\n        /* \"contracts/Ebay.sol\":5238:5261  offerId != bestOffer.id */\n      eq\n        /* \"contracts/Ebay.sol\":5234:5343  if (offerId != bestOffer.id) {... */\n      tag_186\n      jumpi\n        /* \"contracts/Ebay.sol\":5289:5294  offer */\n      dup1\n        /* \"contracts/Ebay.sol\":5289:5300  offer.buyer */\n      0x02\n      add\n      0x00\n      swap1\n      sload\n      swap1\n      0x0100\n      exp\n      swap1\n      div\n      0xffffffffffffffffffffffffffffffffffffffff\n      and\n        /* \"contracts/Ebay.sol\":5281:5310  payable(offer.buyer).transfer */\n      0xffffffffffffffffffffffffffffffffffffffff\n      and\n        /* \"contracts/Ebay.sol\":5281:5328  payable(offer.buyer).transfer(offer.offerPrice) */\n      0x08fc\n        /* \"contracts/Ebay.sol\":5311:5316  offer */\n      dup3\n        /* \"contracts/Ebay.sol\":5311:5327  offer.offerPrice */\n      0x03\n      add\n      sload\n        /* \"contracts/Ebay.sol\":5281:5328  payable(offer.buyer).transfer(offer.offerPrice) */\n      swap1\n      dup2\n      iszero\n      mul\n      swap1\n      mload(0x40)\n      0x00\n      mload(0x40)\n      dup1\n      dup4\n      sub\n      dup2\n      dup6\n      dup9\n      dup9\n      call\n      swap4\n      pop\n      pop\n      pop\n      pop\n      iszero\n      dup1\n      iszero\n      tag_188\n      jumpi\n      returndatasize\n      0x00\n      dup1\n      returndatacopy\n      revert(0x00, returndatasize)\n    tag_188:\n      pop\n        /* \"contracts/Ebay.sol\":5234:5343  if (offerId != bestOffer.id) {... */\n    tag_186:\n        /* \"contracts/Ebay.sol\":5027:5353  {... */\n      pop\n      pop\n        /* \"contracts/Ebay.sol\":5022:5025  i++ */\n      dup1\n      dup1\n      tag_189\n      swap1\n      tag_91\n      jump\t// in\n    tag_189:\n      swap2\n      pop\n      pop\n        /* \"contracts/Ebay.sol\":4976:5353  for (uint i = 0; i < auction.offerIds.length; i++) {... */\n      jump(tag_180)\n    tag_181:\n      pop\n        /* \"contracts/Ebay.sol\":5421:5428  auction */\n      dup2\n        /* \"contracts/Ebay.sol\":5421:5435  auction.seller */\n      0x01\n      add\n      0x00\n      swap1\n      sload\n      swap1\n      0x0100\n      exp\n      swap1\n      div\n      0xffffffffffffffffffffffffffffffffffffffff\n      and\n        /* \"contracts/Ebay.sol\":5413:5445  payable(auction.seller).transfer */\n      0xffffffffffffffffffffffffffffffffffffffff\n      and\n        /* \"contracts/Ebay.sol\":5413:5467  payable(auction.seller).transfer(bestOffer.offerPrice) */\n      0x08fc\n        /* \"contracts/Ebay.sol\":5446:5455  bestOffer */\n      dup3\n        /* \"contracts/Ebay.sol\":5446:5466  bestOffer.offerPrice */\n      0x03\n      add\n      sload\n        /* \"contracts/Ebay.sol\":5413:5467  payable(auction.seller).transfer(bestOffer.offerPrice) */\n      swap1\n      dup2\n      iszero\n      mul\n      swap1\n      mload(0x40)\n      0x00\n      mload(0x40)\n      dup1\n      dup4\n      sub\n      dup2\n      dup6\n      dup9\n      dup9\n      call\n      swap4\n      pop\n      pop\n      pop\n      pop\n      iszero\n      dup1\n      iszero\n      tag_191\n      jumpi\n      returndatasize\n      0x00\n      dup1\n      returndatacopy\n      revert(0x00, returndatasize)\n    tag_191:\n      pop\n        /* \"contracts/Ebay.sol\":4584:5474  {... */\n      pop\n      pop\n        /* \"contracts/Ebay.sol\":4517:5474  function trade(uint _auctionId) external auctionExists(_auctionId) {... */\n      pop\n      pop\n      jump\t// out\n        /* \"contracts/Ebay.sol\":5940:6383  function getUserAuctions(address _user)... */\n    tag_57:\n        /* \"contracts/Ebay.sol\":6027:6043  Auction[] memory */\n      0x60\n        /* \"contracts/Ebay.sol\":6059:6088  uint[] storage userAuctionIds */\n      0x00\n        /* \"contracts/Ebay.sol\":6091:6103  userAuctions */\n      0x04\n        /* \"contracts/Ebay.sol\":6091:6110  userAuctions[_user] */\n      0x00\n        /* \"contracts/Ebay.sol\":6104:6109  _user */\n      dup5\n        /* \"contracts/Ebay.sol\":6091:6110  userAuctions[_user] */\n      0xffffffffffffffffffffffffffffffffffffffff\n      and\n      0xffffffffffffffffffffffffffffffffffffffff\n      and\n      dup2\n      mstore\n      0x20\n      add\n      swap1\n      dup2\n      mstore\n      0x20\n      add\n      0x00\n      keccak256\n        /* \"contracts/Ebay.sol\":6059:6110  uint[] storage userAuctionIds = userAuctions[_user] */\n      swap1\n      pop\n        /* \"contracts/Ebay.sol\":6120:6146  Auction[] memory _auctions */\n      0x00\n        /* \"contracts/Ebay.sol\":6163:6177  userAuctionIds */\n      dup2\n        /* \"contracts/Ebay.sol\":6163:6184  userAuctionIds.length */\n      dup1\n      sload\n      swap1\n      pop\n        /* \"contracts/Ebay.sol\":6149:6185  new Auction[](userAuctionIds.length) */\n      0xffffffffffffffff\n      dup2\n      gt\n      iszero\n      tag_193\n      jumpi\n      tag_194\n      tag_80\n      jump\t// in\n    tag_194:\n    tag_193:\n      mload(0x40)\n      swap1\n      dup1\n      dup3\n      mstore\n      dup1\n      0x20\n      mul\n      0x20\n      add\n      dup3\n      add\n      0x40\n      mstore\n      dup1\n      iszero\n      tag_195\n      jumpi\n      dup2\n      0x20\n      add\n    tag_196:\n      tag_197\n      tag_152\n      jump\t// in\n    tag_197:\n      dup2\n      mstore\n      0x20\n      add\n      swap1\n      0x01\n      swap1\n      sub\n      swap1\n      dup2\n      tag_196\n      jumpi\n      swap1\n      pop\n    tag_195:\n      pop\n        /* \"contracts/Ebay.sol\":6120:6185  Auction[] memory _auctions = new Auction[](userAuctionIds.length) */\n      swap1\n      pop\n        /* \"contracts/Ebay.sol\":6200:6206  uint i */\n      0x00\n        /* \"contracts/Ebay.sol\":6195:6351  for (uint i = 0; i < userAuctionIds.length; i++) {... */\n    tag_198:\n        /* \"contracts/Ebay.sol\":6216:6230  userAuctionIds */\n      dup3\n        /* \"contracts/Ebay.sol\":6216:6237  userAuctionIds.length */\n      dup1\n      sload\n      swap1\n      pop\n        /* \"contracts/Ebay.sol\":6212:6213  i */\n      dup2\n        /* \"contracts/Ebay.sol\":6212:6237  i < userAuctionIds.length */\n      lt\n        /* \"contracts/Ebay.sol\":6195:6351  for (uint i = 0; i < userAuctionIds.length; i++) {... */\n      iszero\n      tag_199\n      jumpi\n        /* \"contracts/Ebay.sol\":6258:6272  uint auctionId */\n      0x00\n        /* \"contracts/Ebay.sol\":6275:6289  userAuctionIds */\n      dup4\n        /* \"contracts/Ebay.sol\":6290:6291  i */\n      dup3\n        /* \"contracts/Ebay.sol\":6275:6292  userAuctionIds[i] */\n      dup2\n      sload\n      dup2\n      lt\n      tag_201\n      jumpi\n      tag_202\n      tag_104\n      jump\t// in\n    tag_202:\n    tag_201:\n      swap1\n      0x00\n      mstore\n      keccak256(0x00, 0x20)\n      add\n      sload\n        /* \"contracts/Ebay.sol\":6258:6292  uint auctionId = userAuctionIds[i] */\n      swap1\n      pop\n        /* \"contracts/Ebay.sol\":6321:6329  auctions */\n      0x00\n        /* \"contracts/Ebay.sol\":6321:6340  auctions[auctionId] */\n      dup1\n        /* \"contracts/Ebay.sol\":6330:6339  auctionId */\n      dup3\n        /* \"contracts/Ebay.sol\":6321:6340  auctions[auctionId] */\n      dup2\n      mstore\n      0x20\n      add\n      swap1\n      dup2\n      mstore\n      0x20\n      add\n      0x00\n      keccak256\n        /* \"contracts/Ebay.sol\":6306:6340  _auctions[i] = auctions[auctionId] */\n      mload(0x40)\n      dup1\n      0x0100\n      add\n      0x40\n      mstore\n      swap1\n      dup2\n      0x00\n      dup3\n      add\n      sload\n      dup2\n      mstore\n      0x20\n      add\n      0x01\n      dup3\n      add\n      0x00\n      swap1\n      sload\n      swap1\n      0x0100\n      exp\n      swap1\n      div\n      0xffffffffffffffffffffffffffffffffffffffff\n      and\n      0xffffffffffffffffffffffffffffffffffffffff\n      and\n      0xffffffffffffffffffffffffffffffffffffffff\n      and\n      dup2\n      mstore\n      0x20\n      add\n      0x02\n      dup3\n      add\n      dup1\n      sload\n      tag_204\n      swap1\n      tag_60\n      jump\t// in\n    tag_204:\n      dup1\n      0x1f\n      add\n      0x20\n      dup1\n      swap2\n      div\n      mul\n      0x20\n      add\n      mload(0x40)\n      swap1\n      dup2\n      add\n      0x40\n      mstore\n      dup1\n      swap3\n      swap2\n      swap1\n      dup2\n      dup2\n      mstore\n      0x20\n      add\n      dup3\n      dup1\n      sload\n      tag_205\n      swap1\n      tag_60\n      jump\t// in\n    tag_205:\n      dup1\n      iszero\n      tag_206\n      jumpi\n      dup1\n      0x1f\n      lt\n      tag_207\n      jumpi\n      0x0100\n      dup1\n      dup4\n      sload\n      div\n      mul\n      dup4\n      mstore\n      swap2\n      0x20\n      add\n      swap2\n      jump(tag_206)\n    tag_207:\n      dup3\n      add\n      swap2\n      swap1\n      0x00\n      mstore\n      keccak256(0x00, 0x20)\n      swap1\n    tag_208:\n      dup2\n      sload\n      dup2\n      mstore\n      swap1\n      0x01\n      add\n      swap1\n      0x20\n      add\n      dup1\n      dup4\n      gt\n      tag_208\n      jumpi\n      dup3\n      swap1\n      sub\n      0x1f\n      and\n      dup3\n      add\n      swap2\n    tag_206:\n      pop\n      pop\n      pop\n      pop\n      pop\n      dup2\n      mstore\n      0x20\n      add\n      0x03\n      dup3\n      add\n      dup1\n      sload\n      tag_209\n      swap1\n      tag_60\n      jump\t// in\n    tag_209:\n      dup1\n      0x1f\n      add\n      0x20\n      dup1\n      swap2\n      div\n      mul\n      0x20\n      add\n      mload(0x40)\n      swap1\n      dup2\n      add\n      0x40\n      mstore\n      dup1\n      swap3\n      swap2\n      swap1\n      dup2\n      dup2\n      mstore\n      0x20\n      add\n      dup3\n      dup1\n      sload\n      tag_210\n      swap1\n      tag_60\n      jump\t// in\n    tag_210:\n      dup1\n      iszero\n      tag_211\n      jumpi\n      dup1\n      0x1f\n      lt\n      tag_212\n      jumpi\n      0x0100\n      dup1\n      dup4\n      sload\n      div\n      mul\n      dup4\n      mstore\n      swap2\n      0x20\n      add\n      swap2\n      jump(tag_211)\n    tag_212:\n      dup3\n      add\n      swap2\n      swap1\n      0x00\n      mstore\n      keccak256(0x00, 0x20)\n      swap1\n    tag_213:\n      dup2\n      sload\n      dup2\n      mstore\n      swap1\n      0x01\n      add\n      swap1\n      0x20\n      add\n      dup1\n      dup4\n      gt\n      tag_213\n      jumpi\n      dup3\n      swap1\n      sub\n      0x1f\n      and\n      dup3\n      add\n      swap2\n    tag_211:\n      pop\n      pop\n      pop\n      pop\n      pop\n      dup2\n      mstore\n      0x20\n      add\n      0x04\n      dup3\n      add\n      sload\n      dup2\n      mstore\n      0x20\n      add\n      0x05\n      dup3\n      add\n      sload\n      dup2\n      mstore\n      0x20\n      add\n      0x06\n      dup3\n      add\n      sload\n      dup2\n      mstore\n      0x20\n      add\n      0x07\n      dup3\n      add\n      dup1\n      sload\n      dup1\n      0x20\n      mul\n      0x20\n      add\n      mload(0x40)\n      swap1\n      dup2\n      add\n      0x40\n      mstore\n      dup1\n      swap3\n      swap2\n      swap1\n      dup2\n      dup2\n      mstore\n      0x20\n      add\n      dup3\n      dup1\n      sload\n      dup1\n      iszero\n      tag_214\n      jumpi\n      0x20\n      mul\n      dup3\n      add\n      swap2\n      swap1\n      0x00\n      mstore\n      keccak256(0x00, 0x20)\n      swap1\n    tag_215:\n      dup2\n      sload\n      dup2\n      mstore\n      0x20\n      add\n      swap1\n      0x01\n      add\n      swap1\n      dup1\n      dup4\n      gt\n      tag_215\n      jumpi\n    tag_214:\n      pop\n      pop\n      pop\n      pop\n      pop\n      dup2\n      mstore\n      pop\n      pop\n        /* \"contracts/Ebay.sol\":6306:6315  _auctions */\n      dup4\n        /* \"contracts/Ebay.sol\":6316:6317  i */\n      dup4\n        /* \"contracts/Ebay.sol\":6306:6318  _auctions[i] */\n      dup2\n      mload\n      dup2\n      lt\n      tag_216\n      jumpi\n      tag_217\n      tag_104\n      jump\t// in\n    tag_217:\n    tag_216:\n      0x20\n      mul\n      0x20\n      add\n      add\n        /* \"contracts/Ebay.sol\":6306:6340  _auctions[i] = auctions[auctionId] */\n      dup2\n      swap1\n      mstore\n      pop\n        /* \"contracts/Ebay.sol\":6244:6351  {... */\n      pop\n        /* \"contracts/Ebay.sol\":6239:6242  i++ */\n      dup1\n      dup1\n      tag_218\n      swap1\n      tag_91\n      jump\t// in\n    tag_218:\n      swap2\n      pop\n      pop\n        /* \"contracts/Ebay.sol\":6195:6351  for (uint i = 0; i < userAuctionIds.length; i++) {... */\n      jump(tag_198)\n    tag_199:\n      pop\n        /* \"contracts/Ebay.sol\":6367:6376  _auctions */\n      dup1\n        /* \"contracts/Ebay.sol\":6360:6376  return _auctions */\n      swap3\n      pop\n      pop\n      pop\n        /* \"contracts/Ebay.sol\":5940:6383  function getUserAuctions(address _user)... */\n      swap2\n      swap1\n      pop\n      jump\t// out\n    tag_88:\n      dup3\n      dup1\n      sload\n      dup3\n      dup3\n      sstore\n      swap1\n      0x00\n      mstore\n      keccak256(0x00, 0x20)\n      swap1\n      dup2\n      add\n      swap3\n      dup3\n      iszero\n      tag_219\n      jumpi\n      swap2\n      0x20\n      mul\n      dup3\n      add\n    tag_220:\n      dup3\n      dup2\n      gt\n      iszero\n      tag_221\n      jumpi\n      dup3\n      mload\n      dup3\n      sstore\n      swap2\n      0x20\n      add\n      swap2\n      swap1\n      0x01\n      add\n      swap1\n      jump(tag_220)\n    tag_221:\n    tag_219:\n      pop\n      swap1\n      pop\n      tag_222\n      swap2\n      swap1\n      tag_223\n      jump\t// in\n    tag_222:\n      pop\n      swap1\n      jump\t// out\n    tag_98:\n      mload(0x40)\n      dup1\n      0x80\n      add\n      0x40\n      mstore\n      dup1\n      0x00\n      dup2\n      mstore\n      0x20\n      add\n      0x00\n      dup2\n      mstore\n      0x20\n      add\n      and(0xffffffffffffffffffffffffffffffffffffffff, 0x00)\n      dup2\n      mstore\n      0x20\n      add\n      0x00\n      dup2\n      mstore\n      pop\n      swap1\n      jump\t// out\n    tag_152:\n      mload(0x40)\n      dup1\n      0x0100\n      add\n      0x40\n      mstore\n      dup1\n      0x00\n      dup2\n      mstore\n      0x20\n      add\n      and(0xffffffffffffffffffffffffffffffffffffffff, 0x00)\n      dup2\n      mstore\n      0x20\n      add\n      0x60\n      dup2\n      mstore\n      0x20\n      add\n      0x60\n      dup2\n      mstore\n      0x20\n      add\n      0x00\n      dup2\n      mstore\n      0x20\n      add\n      0x00\n      dup2\n      mstore\n      0x20\n      add\n      0x00\n      dup2\n      mstore\n      0x20\n      add\n      0x60\n      dup2\n      mstore\n      pop\n      swap1\n      jump\t// out\n    tag_223:\n    tag_224:\n      dup1\n      dup3\n      gt\n      iszero\n      tag_225\n      jumpi\n      0x00\n      dup2\n      0x00\n      swap1\n      sstore\n      pop\n      0x01\n      add\n      jump(tag_224)\n    tag_225:\n      pop\n      swap1\n      jump\t// out\n        /* \"#utility.yul\":88:205   */\n    tag_227:\n        /* \"#utility.yul\":197:198   */\n      0x00\n        /* \"#utility.yul\":194:195   */\n      dup1\n        /* \"#utility.yul\":187:199   */\n      revert\n        /* \"#utility.yul\":211:328   */\n    tag_228:\n        /* \"#utility.yul\":320:321   */\n      0x00\n        /* \"#utility.yul\":317:318   */\n      dup1\n        /* \"#utility.yul\":310:322   */\n      revert\n        /* \"#utility.yul\":334:411   */\n    tag_229:\n        /* \"#utility.yul\":371:378   */\n      0x00\n        /* \"#utility.yul\":400:405   */\n      dup2\n        /* \"#utility.yul\":389:405   */\n      swap1\n      pop\n        /* \"#utility.yul\":334:411   */\n      swap2\n      swap1\n      pop\n      jump\t// out\n        /* \"#utility.yul\":417:539   */\n    tag_230:\n        /* \"#utility.yul\":490:514   */\n      tag_306\n        /* \"#utility.yul\":508:513   */\n      dup2\n        /* \"#utility.yul\":490:514   */\n      tag_229\n      jump\t// in\n    tag_306:\n        /* \"#utility.yul\":483:488   */\n      dup2\n        /* \"#utility.yul\":480:515   */\n      eq\n        /* \"#utility.yul\":470:533   */\n      tag_307\n      jumpi\n        /* \"#utility.yul\":529:530   */\n      0x00\n        /* \"#utility.yul\":526:527   */\n      dup1\n        /* \"#utility.yul\":519:531   */\n      revert\n        /* \"#utility.yul\":470:533   */\n    tag_307:\n        /* \"#utility.yul\":417:539   */\n      pop\n      jump\t// out\n        /* \"#utility.yul\":545:684   */\n    tag_231:\n        /* \"#utility.yul\":591:596   */\n      0x00\n        /* \"#utility.yul\":629:635   */\n      dup2\n        /* \"#utility.yul\":616:636   */\n      calldataload\n        /* \"#utility.yul\":607:636   */\n      swap1\n      pop\n        /* \"#utility.yul\":645:678   */\n      tag_309\n        /* \"#utility.yul\":672:677   */\n      dup2\n        /* \"#utility.yul\":645:678   */\n      tag_230\n      jump\t// in\n    tag_309:\n        /* \"#utility.yul\":545:684   */\n      swap3\n      swap2\n      pop\n      pop\n      jump\t// out\n        /* \"#utility.yul\":690:1019   */\n    tag_15:\n        /* \"#utility.yul\":749:755   */\n      0x00\n        /* \"#utility.yul\":798:800   */\n      0x20\n        /* \"#utility.yul\":786:795   */\n      dup3\n        /* \"#utility.yul\":777:784   */\n      dup5\n        /* \"#utility.yul\":773:796   */\n      sub\n        /* \"#utility.yul\":769:801   */\n      slt\n        /* \"#utility.yul\":766:885   */\n      iszero\n      tag_311\n      jumpi\n        /* \"#utility.yul\":804:883   */\n      tag_312\n      tag_227\n      jump\t// in\n    tag_312:\n        /* \"#utility.yul\":766:885   */\n    tag_311:\n        /* \"#utility.yul\":924:925   */\n      0x00\n        /* \"#utility.yul\":949:1002   */\n      tag_313\n        /* \"#utility.yul\":994:1001   */\n      dup5\n        /* \"#utility.yul\":985:991   */\n      dup3\n        /* \"#utility.yul\":974:983   */\n      dup6\n        /* \"#utility.yul\":970:992   */\n      add\n        /* \"#utility.yul\":949:1002   */\n      tag_231\n      jump\t// in\n    tag_313:\n        /* \"#utility.yul\":939:1002   */\n      swap2\n      pop\n        /* \"#utility.yul\":895:1012   */\n      pop\n        /* \"#utility.yul\":690:1019   */\n      swap3\n      swap2\n      pop\n      pop\n      jump\t// out\n        /* \"#utility.yul\":1025:1143   */\n    tag_232:\n        /* \"#utility.yul\":1112:1136   */\n      tag_315\n        /* \"#utility.yul\":1130:1135   */\n      dup2\n        /* \"#utility.yul\":1112:1136   */\n      tag_229\n      jump\t// in\n    tag_315:\n        /* \"#utility.yul\":1107:1110   */\n      dup3\n        /* \"#utility.yul\":1100:1137   */\n      mstore\n        /* \"#utility.yul\":1025:1143   */\n      pop\n      pop\n      jump\t// out\n        /* \"#utility.yul\":1149:1275   */\n    tag_233:\n        /* \"#utility.yul\":1186:1193   */\n      0x00\n        /* \"#utility.yul\":1226:1268   */\n      0xffffffffffffffffffffffffffffffffffffffff\n        /* \"#utility.yul\":1219:1224   */\n      dup3\n        /* \"#utility.yul\":1215:1269   */\n      and\n        /* \"#utility.yul\":1204:1269   */\n      swap1\n      pop\n        /* \"#utility.yul\":1149:1275   */\n      swap2\n      swap1\n      pop\n      jump\t// out\n        /* \"#utility.yul\":1281:1377   */\n    tag_234:\n        /* \"#utility.yul\":1318:1325   */\n      0x00\n        /* \"#utility.yul\":1347:1371   */\n      tag_318\n        /* \"#utility.yul\":1365:1370   */\n      dup3\n        /* \"#utility.yul\":1347:1371   */\n      tag_233\n      jump\t// in\n    tag_318:\n        /* \"#utility.yul\":1336:1371   */\n      swap1\n      pop\n        /* \"#utility.yul\":1281:1377   */\n      swap2\n      swap1\n      pop\n      jump\t// out\n        /* \"#utility.yul\":1383:1501   */\n    tag_235:\n        /* \"#utility.yul\":1470:1494   */\n      tag_320\n        /* \"#utility.yul\":1488:1493   */\n      dup2\n        /* \"#utility.yul\":1470:1494   */\n      tag_234\n      jump\t// in\n    tag_320:\n        /* \"#utility.yul\":1465:1468   */\n      dup3\n        /* \"#utility.yul\":1458:1495   */\n      mstore\n        /* \"#utility.yul\":1383:1501   */\n      pop\n      pop\n      jump\t// out\n        /* \"#utility.yul\":1507:1606   */\n    tag_236:\n        /* \"#utility.yul\":1559:1565   */\n      0x00\n        /* \"#utility.yul\":1593:1598   */\n      dup2\n        /* \"#utility.yul\":1587:1599   */\n      mload\n        /* \"#utility.yul\":1577:1599   */\n      swap1\n      pop\n        /* \"#utility.yul\":1507:1606   */\n      swap2\n      swap1\n      pop\n      jump\t// out\n        /* \"#utility.yul\":1612:1781   */\n    tag_237:\n        /* \"#utility.yul\":1696:1707   */\n      0x00\n        /* \"#utility.yul\":1730:1736   */\n      dup3\n        /* \"#utility.yul\":1725:1728   */\n      dup3\n        /* \"#utility.yul\":1718:1737   */\n      mstore\n        /* \"#utility.yul\":1770:1774   */\n      0x20\n        /* \"#utility.yul\":1765:1768   */\n      dup3\n        /* \"#utility.yul\":1761:1775   */\n      add\n        /* \"#utility.yul\":1746:1775   */\n      swap1\n      pop\n        /* \"#utility.yul\":1612:1781   */\n      swap3\n      swap2\n      pop\n      pop\n      jump\t// out\n        /* \"#utility.yul\":1787:2094   */\n    tag_238:\n        /* \"#utility.yul\":1855:1856   */\n      0x00\n        /* \"#utility.yul\":1865:1978   */\n    tag_324:\n        /* \"#utility.yul\":1879:1885   */\n      dup4\n        /* \"#utility.yul\":1876:1877   */\n      dup2\n        /* \"#utility.yul\":1873:1886   */\n      lt\n        /* \"#utility.yul\":1865:1978   */\n      iszero\n      tag_326\n      jumpi\n        /* \"#utility.yul\":1964:1965   */\n      dup1\n        /* \"#utility.yul\":1959:1962   */\n      dup3\n        /* \"#utility.yul\":1955:1966   */\n      add\n        /* \"#utility.yul\":1949:1967   */\n      mload\n        /* \"#utility.yul\":1945:1946   */\n      dup2\n        /* \"#utility.yul\":1940:1943   */\n      dup5\n        /* \"#utility.yul\":1936:1947   */\n      add\n        /* \"#utility.yul\":1929:1968   */\n      mstore\n        /* \"#utility.yul\":1901:1903   */\n      0x20\n        /* \"#utility.yul\":1898:1899   */\n      dup2\n        /* \"#utility.yul\":1894:1904   */\n      add\n        /* \"#utility.yul\":1889:1904   */\n      swap1\n      pop\n        /* \"#utility.yul\":1865:1978   */\n      jump(tag_324)\n    tag_326:\n        /* \"#utility.yul\":1996:2002   */\n      dup4\n        /* \"#utility.yul\":1993:1994   */\n      dup2\n        /* \"#utility.yul\":1990:2003   */\n      gt\n        /* \"#utility.yul\":1987:2088   */\n      iszero\n      tag_327\n      jumpi\n        /* \"#utility.yul\":2076:2077   */\n      0x00\n        /* \"#utility.yul\":2067:2073   */\n      dup5\n        /* \"#utility.yul\":2062:2065   */\n      dup5\n        /* \"#utility.yul\":2058:2074   */\n      add\n        /* \"#utility.yul\":2051:2078   */\n      mstore\n        /* \"#utility.yul\":1987:2088   */\n    tag_327:\n        /* \"#utility.yul\":1836:2094   */\n      pop\n        /* \"#utility.yul\":1787:2094   */\n      pop\n      pop\n      pop\n      jump\t// out\n        /* \"#utility.yul\":2100:2202   */\n    tag_239:\n        /* \"#utility.yul\":2141:2147   */\n      0x00\n        /* \"#utility.yul\":2192:2194   */\n      0x1f\n        /* \"#utility.yul\":2188:2195   */\n      not\n        /* \"#utility.yul\":2183:2185   */\n      0x1f\n        /* \"#utility.yul\":2176:2181   */\n      dup4\n        /* \"#utility.yul\":2172:2186   */\n      add\n        /* \"#utility.yul\":2168:2196   */\n      and\n        /* \"#utility.yul\":2158:2196   */\n      swap1\n      pop\n        /* \"#utility.yul\":2100:2202   */\n      swap2\n      swap1\n      pop\n      jump\t// out\n        /* \"#utility.yul\":2208:2572   */\n    tag_240:\n        /* \"#utility.yul\":2296:2299   */\n      0x00\n        /* \"#utility.yul\":2324:2363   */\n      tag_330\n        /* \"#utility.yul\":2357:2362   */\n      dup3\n        /* \"#utility.yul\":2324:2363   */\n      tag_236\n      jump\t// in\n    tag_330:\n        /* \"#utility.yul\":2379:2450   */\n      tag_331\n        /* \"#utility.yul\":2443:2449   */\n      dup2\n        /* \"#utility.yul\":2438:2441   */\n      dup6\n        /* \"#utility.yul\":2379:2450   */\n      tag_237\n      jump\t// in\n    tag_331:\n        /* \"#utility.yul\":2372:2450   */\n      swap4\n      pop\n        /* \"#utility.yul\":2459:2511   */\n      tag_332\n        /* \"#utility.yul\":2504:2510   */\n      dup2\n        /* \"#utility.yul\":2499:2502   */\n      dup6\n        /* \"#utility.yul\":2492:2496   */\n      0x20\n        /* \"#utility.yul\":2485:2490   */\n      dup7\n        /* \"#utility.yul\":2481:2497   */\n      add\n        /* \"#utility.yul\":2459:2511   */\n      tag_238\n      jump\t// in\n    tag_332:\n        /* \"#utility.yul\":2536:2565   */\n      tag_333\n        /* \"#utility.yul\":2558:2564   */\n      dup2\n        /* \"#utility.yul\":2536:2565   */\n      tag_239\n      jump\t// in\n    tag_333:\n        /* \"#utility.yul\":2531:2534   */\n      dup5\n        /* \"#utility.yul\":2527:2566   */\n      add\n        /* \"#utility.yul\":2520:2566   */\n      swap2\n      pop\n        /* \"#utility.yul\":2300:2572   */\n      pop\n        /* \"#utility.yul\":2208:2572   */\n      swap3\n      swap2\n      pop\n      pop\n      jump\t// out\n        /* \"#utility.yul\":2578:3646   */\n    tag_18:\n        /* \"#utility.yul\":2879:2883   */\n      0x00\n        /* \"#utility.yul\":2917:2920   */\n      0xe0\n        /* \"#utility.yul\":2906:2915   */\n      dup3\n        /* \"#utility.yul\":2902:2921   */\n      add\n        /* \"#utility.yul\":2894:2921   */\n      swap1\n      pop\n        /* \"#utility.yul\":2931:3002   */\n      tag_335\n        /* \"#utility.yul\":2999:3000   */\n      0x00\n        /* \"#utility.yul\":2988:2997   */\n      dup4\n        /* \"#utility.yul\":2984:3001   */\n      add\n        /* \"#utility.yul\":2975:2981   */\n      dup11\n        /* \"#utility.yul\":2931:3002   */\n      tag_232\n      jump\t// in\n    tag_335:\n        /* \"#utility.yul\":3012:3084   */\n      tag_336\n        /* \"#utility.yul\":3080:3082   */\n      0x20\n        /* \"#utility.yul\":3069:3078   */\n      dup4\n        /* \"#utility.yul\":3065:3083   */\n      add\n        /* \"#utility.yul\":3056:3062   */\n      dup10\n        /* \"#utility.yul\":3012:3084   */\n      tag_235\n      jump\t// in\n    tag_336:\n        /* \"#utility.yul\":3131:3140   */\n      dup2\n        /* \"#utility.yul\":3125:3129   */\n      dup2\n        /* \"#utility.yul\":3121:3141   */\n      sub\n        /* \"#utility.yul\":3116:3118   */\n      0x40\n        /* \"#utility.yul\":3105:3114   */\n      dup4\n        /* \"#utility.yul\":3101:3119   */\n      add\n        /* \"#utility.yul\":3094:3142   */\n      mstore\n        /* \"#utility.yul\":3159:3237   */\n      tag_337\n        /* \"#utility.yul\":3232:3236   */\n      dup2\n        /* \"#utility.yul\":3223:3229   */\n      dup9\n        /* \"#utility.yul\":3159:3237   */\n      tag_240\n      jump\t// in\n    tag_337:\n        /* \"#utility.yul\":3151:3237   */\n      swap1\n      pop\n        /* \"#utility.yul\":3284:3293   */\n      dup2\n        /* \"#utility.yul\":3278:3282   */\n      dup2\n        /* \"#utility.yul\":3274:3294   */\n      sub\n        /* \"#utility.yul\":3269:3271   */\n      0x60\n        /* \"#utility.yul\":3258:3267   */\n      dup4\n        /* \"#utility.yul\":3254:3272   */\n      add\n        /* \"#utility.yul\":3247:3295   */\n      mstore\n        /* \"#utility.yul\":3312:3390   */\n      tag_338\n        /* \"#utility.yul\":3385:3389   */\n      dup2\n        /* \"#utility.yul\":3376:3382   */\n      dup8\n        /* \"#utility.yul\":3312:3390   */\n      tag_240\n      jump\t// in\n    tag_338:\n        /* \"#utility.yul\":3304:3390   */\n      swap1\n      pop\n        /* \"#utility.yul\":3400:3473   */\n      tag_339\n        /* \"#utility.yul\":3468:3471   */\n      0x80\n        /* \"#utility.yul\":3457:3466   */\n      dup4\n        /* \"#utility.yul\":3453:3472   */\n      add\n        /* \"#utility.yul\":3444:3450   */\n      dup7\n        /* \"#utility.yul\":3400:3473   */\n      tag_232\n      jump\t// in\n    tag_339:\n        /* \"#utility.yul\":3483:3556   */\n      tag_340\n        /* \"#utility.yul\":3551:3554   */\n      0xa0\n        /* \"#utility.yul\":3540:3549   */\n      dup4\n        /* \"#utility.yul\":3536:3555   */\n      add\n        /* \"#utility.yul\":3527:3533   */\n      dup6\n        /* \"#utility.yul\":3483:3556   */\n      tag_232\n      jump\t// in\n    tag_340:\n        /* \"#utility.yul\":3566:3639   */\n      tag_341\n        /* \"#utility.yul\":3634:3637   */\n      0xc0\n        /* \"#utility.yul\":3623:3632   */\n      dup4\n        /* \"#utility.yul\":3619:3638   */\n      add\n        /* \"#utility.yul\":3610:3616   */\n      dup5\n        /* \"#utility.yul\":3566:3639   */\n      tag_232\n      jump\t// in\n    tag_341:\n        /* \"#utility.yul\":2578:3646   */\n      swap9\n      swap8\n      pop\n      pop\n      pop\n      pop\n      pop\n      pop\n      pop\n      pop\n      jump\t// out\n        /* \"#utility.yul\":3652:3769   */\n    tag_241:\n        /* \"#utility.yul\":3761:3762   */\n      0x00\n        /* \"#utility.yul\":3758:3759   */\n      dup1\n        /* \"#utility.yul\":3751:3763   */\n      revert\n        /* \"#utility.yul\":3775:3892   */\n    tag_242:\n        /* \"#utility.yul\":3884:3885   */\n      0x00\n        /* \"#utility.yul\":3881:3882   */\n      dup1\n        /* \"#utility.yul\":3874:3886   */\n      revert\n        /* \"#utility.yul\":3898:4015   */\n    tag_243:\n        /* \"#utility.yul\":4007:4008   */\n      0x00\n        /* \"#utility.yul\":4004:4005   */\n      dup1\n        /* \"#utility.yul\":3997:4009   */\n      revert\n        /* \"#utility.yul\":4035:4588   */\n    tag_244:\n        /* \"#utility.yul\":4093:4101   */\n      0x00\n        /* \"#utility.yul\":4103:4109   */\n      dup1\n        /* \"#utility.yul\":4153:4156   */\n      dup4\n        /* \"#utility.yul\":4146:4150   */\n      0x1f\n        /* \"#utility.yul\":4138:4144   */\n      dup5\n        /* \"#utility.yul\":4134:4151   */\n      add\n        /* \"#utility.yul\":4130:4157   */\n      slt\n        /* \"#utility.yul\":4120:4242   */\n      tag_346\n      jumpi\n        /* \"#utility.yul\":4161:4240   */\n      tag_347\n      tag_241\n      jump\t// in\n    tag_347:\n        /* \"#utility.yul\":4120:4242   */\n    tag_346:\n        /* \"#utility.yul\":4274:4280   */\n      dup3\n        /* \"#utility.yul\":4261:4281   */\n      calldataload\n        /* \"#utility.yul\":4251:4281   */\n      swap1\n      pop\n        /* \"#utility.yul\":4304:4322   */\n      0xffffffffffffffff\n        /* \"#utility.yul\":4296:4302   */\n      dup2\n        /* \"#utility.yul\":4293:4323   */\n      gt\n        /* \"#utility.yul\":4290:4407   */\n      iszero\n      tag_348\n      jumpi\n        /* \"#utility.yul\":4326:4405   */\n      tag_349\n      tag_242\n      jump\t// in\n    tag_349:\n        /* \"#utility.yul\":4290:4407   */\n    tag_348:\n        /* \"#utility.yul\":4440:4444   */\n      0x20\n        /* \"#utility.yul\":4432:4438   */\n      dup4\n        /* \"#utility.yul\":4428:4445   */\n      add\n        /* \"#utility.yul\":4416:4445   */\n      swap2\n      pop\n        /* \"#utility.yul\":4494:4497   */\n      dup4\n        /* \"#utility.yul\":4486:4490   */\n      0x01\n        /* \"#utility.yul\":4478:4484   */\n      dup3\n        /* \"#utility.yul\":4474:4491   */\n      mul\n        /* \"#utility.yul\":4464:4472   */\n      dup4\n        /* \"#utility.yul\":4460:4492   */\n      add\n        /* \"#utility.yul\":4457:4498   */\n      gt\n        /* \"#utility.yul\":4454:4582   */\n      iszero\n      tag_350\n      jumpi\n        /* \"#utility.yul\":4501:4580   */\n      tag_351\n      tag_243\n      jump\t// in\n    tag_351:\n        /* \"#utility.yul\":4454:4582   */\n    tag_350:\n        /* \"#utility.yul\":4035:4588   */\n      swap3\n      pop\n      swap3\n      swap1\n      pop\n      jump\t// out\n        /* \"#utility.yul\":4594:5759   */\n    tag_22:\n        /* \"#utility.yul\":4704:4710   */\n      0x00\n        /* \"#utility.yul\":4712:4718   */\n      dup1\n        /* \"#utility.yul\":4720:4726   */\n      0x00\n        /* \"#utility.yul\":4728:4734   */\n      dup1\n        /* \"#utility.yul\":4736:4742   */\n      0x00\n        /* \"#utility.yul\":4744:4750   */\n      dup1\n        /* \"#utility.yul\":4793:4796   */\n      0x80\n        /* \"#utility.yul\":4781:4790   */\n      dup8\n        /* \"#utility.yul\":4772:4779   */\n      dup10\n        /* \"#utility.yul\":4768:4791   */\n      sub\n        /* \"#utility.yul\":4764:4797   */\n      slt\n        /* \"#utility.yul\":4761:4881   */\n      iszero\n      tag_353\n      jumpi\n        /* \"#utility.yul\":4800:4879   */\n      tag_354\n      tag_227\n      jump\t// in\n    tag_354:\n        /* \"#utility.yul\":4761:4881   */\n    tag_353:\n        /* \"#utility.yul\":4948:4949   */\n      0x00\n        /* \"#utility.yul\":4937:4946   */\n      dup8\n        /* \"#utility.yul\":4933:4950   */\n      add\n        /* \"#utility.yul\":4920:4951   */\n      calldataload\n        /* \"#utility.yul\":4978:4996   */\n      0xffffffffffffffff\n        /* \"#utility.yul\":4970:4976   */\n      dup2\n        /* \"#utility.yul\":4967:4997   */\n      gt\n        /* \"#utility.yul\":4964:5081   */\n      iszero\n      tag_355\n      jumpi\n        /* \"#utility.yul\":5000:5079   */\n      tag_356\n      tag_228\n      jump\t// in\n    tag_356:\n        /* \"#utility.yul\":4964:5081   */\n    tag_355:\n        /* \"#utility.yul\":5113:5178   */\n      tag_357\n        /* \"#utility.yul\":5170:5177   */\n      dup10\n        /* \"#utility.yul\":5161:5167   */\n      dup3\n        /* \"#utility.yul\":5150:5159   */\n      dup11\n        /* \"#utility.yul\":5146:5168   */\n      add\n        /* \"#utility.yul\":5113:5178   */\n      tag_244\n      jump\t// in\n    tag_357:\n        /* \"#utility.yul\":5095:5178   */\n      swap7\n      pop\n      swap7\n      pop\n        /* \"#utility.yul\":4891:5188   */\n      pop\n        /* \"#utility.yul\":5255:5257   */\n      0x20\n        /* \"#utility.yul\":5244:5253   */\n      dup8\n        /* \"#utility.yul\":5240:5258   */\n      add\n        /* \"#utility.yul\":5227:5259   */\n      calldataload\n        /* \"#utility.yul\":5286:5304   */\n      0xffffffffffffffff\n        /* \"#utility.yul\":5278:5284   */\n      dup2\n        /* \"#utility.yul\":5275:5305   */\n      gt\n        /* \"#utility.yul\":5272:5389   */\n      iszero\n      tag_358\n      jumpi\n        /* \"#utility.yul\":5308:5387   */\n      tag_359\n      tag_228\n      jump\t// in\n    tag_359:\n        /* \"#utility.yul\":5272:5389   */\n    tag_358:\n        /* \"#utility.yul\":5421:5486   */\n      tag_360\n        /* \"#utility.yul\":5478:5485   */\n      dup10\n        /* \"#utility.yul\":5469:5475   */\n      dup3\n        /* \"#utility.yul\":5458:5467   */\n      dup11\n        /* \"#utility.yul\":5454:5476   */\n      add\n        /* \"#utility.yul\":5421:5486   */\n      tag_244\n      jump\t// in\n    tag_360:\n        /* \"#utility.yul\":5403:5486   */\n      swap5\n      pop\n      swap5\n      pop\n        /* \"#utility.yul\":5198:5496   */\n      pop\n        /* \"#utility.yul\":5535:5537   */\n      0x40\n        /* \"#utility.yul\":5561:5614   */\n      tag_361\n        /* \"#utility.yul\":5606:5613   */\n      dup10\n        /* \"#utility.yul\":5597:5603   */\n      dup3\n        /* \"#utility.yul\":5586:5595   */\n      dup11\n        /* \"#utility.yul\":5582:5604   */\n      add\n        /* \"#utility.yul\":5561:5614   */\n      tag_231\n      jump\t// in\n    tag_361:\n        /* \"#utility.yul\":5551:5614   */\n      swap3\n      pop\n        /* \"#utility.yul\":5506:5624   */\n      pop\n        /* \"#utility.yul\":5663:5665   */\n      0x60\n        /* \"#utility.yul\":5689:5742   */\n      tag_362\n        /* \"#utility.yul\":5734:5741   */\n      dup10\n        /* \"#utility.yul\":5725:5731   */\n      dup3\n        /* \"#utility.yul\":5714:5723   */\n      dup11\n        /* \"#utility.yul\":5710:5732   */\n      add\n        /* \"#utility.yul\":5689:5742   */\n      tag_231\n      jump\t// in\n    tag_362:\n        /* \"#utility.yul\":5679:5742   */\n      swap2\n      pop\n        /* \"#utility.yul\":5634:5752   */\n      pop\n        /* \"#utility.yul\":4594:5759   */\n      swap3\n      swap6\n      pop\n      swap3\n      swap6\n      pop\n      swap3\n      swap6\n      jump\t// out\n        /* \"#utility.yul\":5765:5887   */\n    tag_245:\n        /* \"#utility.yul\":5838:5862   */\n      tag_364\n        /* \"#utility.yul\":5856:5861   */\n      dup2\n        /* \"#utility.yul\":5838:5862   */\n      tag_234\n      jump\t// in\n    tag_364:\n        /* \"#utility.yul\":5831:5836   */\n      dup2\n        /* \"#utility.yul\":5828:5863   */\n      eq\n        /* \"#utility.yul\":5818:5881   */\n      tag_365\n      jumpi\n        /* \"#utility.yul\":5877:5878   */\n      0x00\n        /* \"#utility.yul\":5874:5875   */\n      dup1\n        /* \"#utility.yul\":5867:5879   */\n      revert\n        /* \"#utility.yul\":5818:5881   */\n    tag_365:\n        /* \"#utility.yul\":5765:5887   */\n      pop\n      jump\t// out\n        /* \"#utility.yul\":5893:6032   */\n    tag_246:\n        /* \"#utility.yul\":5939:5944   */\n      0x00\n        /* \"#utility.yul\":5977:5983   */\n      dup2\n        /* \"#utility.yul\":5964:5984   */\n      calldataload\n        /* \"#utility.yul\":5955:5984   */\n      swap1\n      pop\n        /* \"#utility.yul\":5993:6026   */\n      tag_367\n        /* \"#utility.yul\":6020:6025   */\n      dup2\n        /* \"#utility.yul\":5993:6026   */\n      tag_245\n      jump\t// in\n    tag_367:\n        /* \"#utility.yul\":5893:6032   */\n      swap3\n      swap2\n      pop\n      pop\n      jump\t// out\n        /* \"#utility.yul\":6038:6367   */\n    tag_27:\n        /* \"#utility.yul\":6097:6103   */\n      0x00\n        /* \"#utility.yul\":6146:6148   */\n      0x20\n        /* \"#utility.yul\":6134:6143   */\n      dup3\n        /* \"#utility.yul\":6125:6132   */\n      dup5\n        /* \"#utility.yul\":6121:6144   */\n      sub\n        /* \"#utility.yul\":6117:6149   */\n      slt\n        /* \"#utility.yul\":6114:6233   */\n      iszero\n      tag_369\n      jumpi\n        /* \"#utility.yul\":6152:6231   */\n      tag_370\n      tag_227\n      jump\t// in\n    tag_370:\n        /* \"#utility.yul\":6114:6233   */\n    tag_369:\n        /* \"#utility.yul\":6272:6273   */\n      0x00\n        /* \"#utility.yul\":6297:6350   */\n      tag_371\n        /* \"#utility.yul\":6342:6349   */\n      dup5\n        /* \"#utility.yul\":6333:6339   */\n      dup3\n        /* \"#utility.yul\":6322:6331   */\n      dup6\n        /* \"#utility.yul\":6318:6340   */\n      add\n        /* \"#utility.yul\":6297:6350   */\n      tag_246\n      jump\t// in\n    tag_371:\n        /* \"#utility.yul\":6287:6350   */\n      swap2\n      pop\n        /* \"#utility.yul\":6243:6360   */\n      pop\n        /* \"#utility.yul\":6038:6367   */\n      swap3\n      swap2\n      pop\n      pop\n      jump\t// out\n        /* \"#utility.yul\":6373:6508   */\n    tag_247:\n        /* \"#utility.yul\":6461:6467   */\n      0x00\n        /* \"#utility.yul\":6495:6500   */\n      dup2\n        /* \"#utility.yul\":6489:6501   */\n      mload\n        /* \"#utility.yul\":6479:6501   */\n      swap1\n      pop\n        /* \"#utility.yul\":6373:6508   */\n      swap2\n      swap1\n      pop\n      jump\t// out\n        /* \"#utility.yul\":6514:6719   */\n    tag_248:\n        /* \"#utility.yul\":6634:6645   */\n      0x00\n        /* \"#utility.yul\":6668:6674   */\n      dup3\n        /* \"#utility.yul\":6663:6666   */\n      dup3\n        /* \"#utility.yul\":6656:6675   */\n      mstore\n        /* \"#utility.yul\":6708:6712   */\n      0x20\n        /* \"#utility.yul\":6703:6706   */\n      dup3\n        /* \"#utility.yul\":6699:6713   */\n      add\n        /* \"#utility.yul\":6684:6713   */\n      swap1\n      pop\n        /* \"#utility.yul\":6514:6719   */\n      swap3\n      swap2\n      pop\n      pop\n      jump\t// out\n        /* \"#utility.yul\":6725:6878   */\n    tag_249:\n        /* \"#utility.yul\":6813:6817   */\n      0x00\n        /* \"#utility.yul\":6836:6839   */\n      dup2\n        /* \"#utility.yul\":6828:6839   */\n      swap1\n      pop\n        /* \"#utility.yul\":6866:6870   */\n      0x20\n        /* \"#utility.yul\":6861:6864   */\n      dup3\n        /* \"#utility.yul\":6857:6871   */\n      add\n        /* \"#utility.yul\":6849:6871   */\n      swap1\n      pop\n        /* \"#utility.yul\":6725:6878   */\n      swap2\n      swap1\n      pop\n      jump\t// out\n        /* \"#utility.yul\":6884:6992   */\n    tag_250:\n        /* \"#utility.yul\":6961:6985   */\n      tag_376\n        /* \"#utility.yul\":6979:6984   */\n      dup2\n        /* \"#utility.yul\":6961:6985   */\n      tag_229\n      jump\t// in\n    tag_376:\n        /* \"#utility.yul\":6956:6959   */\n      dup3\n        /* \"#utility.yul\":6949:6986   */\n      mstore\n        /* \"#utility.yul\":6884:6992   */\n      pop\n      pop\n      jump\t// out\n        /* \"#utility.yul\":6998:7106   */\n    tag_251:\n        /* \"#utility.yul\":7075:7099   */\n      tag_378\n        /* \"#utility.yul\":7093:7098   */\n      dup2\n        /* \"#utility.yul\":7075:7099   */\n      tag_234\n      jump\t// in\n    tag_378:\n        /* \"#utility.yul\":7070:7073   */\n      dup3\n        /* \"#utility.yul\":7063:7100   */\n      mstore\n        /* \"#utility.yul\":6998:7106   */\n      pop\n      pop\n      jump\t// out\n        /* \"#utility.yul\":7158:8005   */\n    tag_252:\n        /* \"#utility.yul\":7287:7291   */\n      0x80\n        /* \"#utility.yul\":7282:7285   */\n      dup3\n        /* \"#utility.yul\":7278:7292   */\n      add\n        /* \"#utility.yul\":7372:7376   */\n      0x00\n        /* \"#utility.yul\":7365:7370   */\n      dup3\n        /* \"#utility.yul\":7361:7377   */\n      add\n        /* \"#utility.yul\":7355:7378   */\n      mload\n        /* \"#utility.yul\":7391:7454   */\n      tag_380\n        /* \"#utility.yul\":7448:7452   */\n      0x00\n        /* \"#utility.yul\":7443:7446   */\n      dup6\n        /* \"#utility.yul\":7439:7453   */\n      add\n        /* \"#utility.yul\":7425:7437   */\n      dup3\n        /* \"#utility.yul\":7391:7454   */\n      tag_250\n      jump\t// in\n    tag_380:\n        /* \"#utility.yul\":7302:7464   */\n      pop\n        /* \"#utility.yul\":7551:7555   */\n      0x20\n        /* \"#utility.yul\":7544:7549   */\n      dup3\n        /* \"#utility.yul\":7540:7556   */\n      add\n        /* \"#utility.yul\":7534:7557   */\n      mload\n        /* \"#utility.yul\":7570:7633   */\n      tag_381\n        /* \"#utility.yul\":7627:7631   */\n      0x20\n        /* \"#utility.yul\":7622:7625   */\n      dup6\n        /* \"#utility.yul\":7618:7632   */\n      add\n        /* \"#utility.yul\":7604:7616   */\n      dup3\n        /* \"#utility.yul\":7570:7633   */\n      tag_250\n      jump\t// in\n    tag_381:\n        /* \"#utility.yul\":7474:7643   */\n      pop\n        /* \"#utility.yul\":7726:7730   */\n      0x40\n        /* \"#utility.yul\":7719:7724   */\n      dup3\n        /* \"#utility.yul\":7715:7731   */\n      add\n        /* \"#utility.yul\":7709:7732   */\n      mload\n        /* \"#utility.yul\":7745:7808   */\n      tag_382\n        /* \"#utility.yul\":7802:7806   */\n      0x40\n        /* \"#utility.yul\":7797:7800   */\n      dup6\n        /* \"#utility.yul\":7793:7807   */\n      add\n        /* \"#utility.yul\":7779:7791   */\n      dup3\n        /* \"#utility.yul\":7745:7808   */\n      tag_251\n      jump\t// in\n    tag_382:\n        /* \"#utility.yul\":7653:7818   */\n      pop\n        /* \"#utility.yul\":7906:7910   */\n      0x60\n        /* \"#utility.yul\":7899:7904   */\n      dup3\n        /* \"#utility.yul\":7895:7911   */\n      add\n        /* \"#utility.yul\":7889:7912   */\n      mload\n        /* \"#utility.yul\":7925:7988   */\n      tag_383\n        /* \"#utility.yul\":7982:7986   */\n      0x60\n        /* \"#utility.yul\":7977:7980   */\n      dup6\n        /* \"#utility.yul\":7973:7987   */\n      add\n        /* \"#utility.yul\":7959:7971   */\n      dup3\n        /* \"#utility.yul\":7925:7988   */\n      tag_250\n      jump\t// in\n    tag_383:\n        /* \"#utility.yul\":7828:7998   */\n      pop\n        /* \"#utility.yul\":7256:8005   */\n      pop\n        /* \"#utility.yul\":7158:8005   */\n      pop\n      pop\n      jump\t// out\n        /* \"#utility.yul\":8011:8274   */\n    tag_253:\n        /* \"#utility.yul\":8122:8132   */\n      0x00\n        /* \"#utility.yul\":8143:8231   */\n      tag_385\n        /* \"#utility.yul\":8227:8230   */\n      dup4\n        /* \"#utility.yul\":8219:8225   */\n      dup4\n        /* \"#utility.yul\":8143:8231   */\n      tag_252\n      jump\t// in\n    tag_385:\n        /* \"#utility.yul\":8263:8267   */\n      0x80\n        /* \"#utility.yul\":8258:8261   */\n      dup4\n        /* \"#utility.yul\":8254:8268   */\n      add\n        /* \"#utility.yul\":8240:8268   */\n      swap1\n      pop\n        /* \"#utility.yul\":8011:8274   */\n      swap3\n      swap2\n      pop\n      pop\n      jump\t// out\n        /* \"#utility.yul\":8280:8414   */\n    tag_254:\n        /* \"#utility.yul\":8371:8375   */\n      0x00\n        /* \"#utility.yul\":8403:8407   */\n      0x20\n        /* \"#utility.yul\":8398:8401   */\n      dup3\n        /* \"#utility.yul\":8394:8408   */\n      add\n        /* \"#utility.yul\":8386:8408   */\n      swap1\n      pop\n        /* \"#utility.yul\":8280:8414   */\n      swap2\n      swap1\n      pop\n      jump\t// out\n        /* \"#utility.yul\":8470:9370   */\n    tag_255:\n        /* \"#utility.yul\":8631:8634   */\n      0x00\n        /* \"#utility.yul\":8660:8735   */\n      tag_388\n        /* \"#utility.yul\":8729:8734   */\n      dup3\n        /* \"#utility.yul\":8660:8735   */\n      tag_247\n      jump\t// in\n    tag_388:\n        /* \"#utility.yul\":8751:8858   */\n      tag_389\n        /* \"#utility.yul\":8851:8857   */\n      dup2\n        /* \"#utility.yul\":8846:8849   */\n      dup6\n        /* \"#utility.yul\":8751:8858   */\n      tag_248\n      jump\t// in\n    tag_389:\n        /* \"#utility.yul\":8744:8858   */\n      swap4\n      pop\n        /* \"#utility.yul\":8882:8959   */\n      tag_390\n        /* \"#utility.yul\":8953:8958   */\n      dup4\n        /* \"#utility.yul\":8882:8959   */\n      tag_249\n      jump\t// in\n    tag_390:\n        /* \"#utility.yul\":8982:8989   */\n      dup1\n        /* \"#utility.yul\":9013:9014   */\n      0x00\n        /* \"#utility.yul\":8998:9345   */\n    tag_391:\n        /* \"#utility.yul\":9023:9029   */\n      dup4\n        /* \"#utility.yul\":9020:9021   */\n      dup2\n        /* \"#utility.yul\":9017:9030   */\n      lt\n        /* \"#utility.yul\":8998:9345   */\n      iszero\n      tag_393\n      jumpi\n        /* \"#utility.yul\":9099:9105   */\n      dup2\n        /* \"#utility.yul\":9093:9106   */\n      mload\n        /* \"#utility.yul\":9126:9231   */\n      tag_394\n        /* \"#utility.yul\":9227:9230   */\n      dup9\n        /* \"#utility.yul\":9212:9225   */\n      dup3\n        /* \"#utility.yul\":9126:9231   */\n      tag_253\n      jump\t// in\n    tag_394:\n        /* \"#utility.yul\":9119:9231   */\n      swap8\n      pop\n        /* \"#utility.yul\":9254:9335   */\n      tag_395\n        /* \"#utility.yul\":9328:9334   */\n      dup4\n        /* \"#utility.yul\":9254:9335   */\n      tag_254\n      jump\t// in\n    tag_395:\n        /* \"#utility.yul\":9244:9335   */\n      swap3\n      pop\n        /* \"#utility.yul\":9058:9345   */\n      pop\n        /* \"#utility.yul\":9045:9046   */\n      0x01\n        /* \"#utility.yul\":9042:9043   */\n      dup2\n        /* \"#utility.yul\":9038:9047   */\n      add\n        /* \"#utility.yul\":9033:9047   */\n      swap1\n      pop\n        /* \"#utility.yul\":8998:9345   */\n      jump(tag_391)\n    tag_393:\n        /* \"#utility.yul\":9002:9016   */\n      pop\n        /* \"#utility.yul\":9361:9364   */\n      dup6\n        /* \"#utility.yul\":9354:9364   */\n      swap4\n      pop\n        /* \"#utility.yul\":8636:9370   */\n      pop\n      pop\n      pop\n        /* \"#utility.yul\":8470:9370   */\n      swap3\n      swap2\n      pop\n      pop\n      jump\t// out\n        /* \"#utility.yul\":9376:9833   */\n    tag_30:\n        /* \"#utility.yul\":9561:9565   */\n      0x00\n        /* \"#utility.yul\":9599:9601   */\n      0x20\n        /* \"#utility.yul\":9588:9597   */\n      dup3\n        /* \"#utility.yul\":9584:9602   */\n      add\n        /* \"#utility.yul\":9576:9602   */\n      swap1\n      pop\n        /* \"#utility.yul\":9648:9657   */\n      dup2\n        /* \"#utility.yul\":9642:9646   */\n      dup2\n        /* \"#utility.yul\":9638:9658   */\n      sub\n        /* \"#utility.yul\":9634:9635   */\n      0x00\n        /* \"#utility.yul\":9623:9632   */\n      dup4\n        /* \"#utility.yul\":9619:9636   */\n      add\n        /* \"#utility.yul\":9612:9659   */\n      mstore\n        /* \"#utility.yul\":9676:9826   */\n      tag_397\n        /* \"#utility.yul\":9821:9825   */\n      dup2\n        /* \"#utility.yul\":9812:9818   */\n      dup5\n        /* \"#utility.yul\":9676:9826   */\n      tag_255\n      jump\t// in\n    tag_397:\n        /* \"#utility.yul\":9668:9826   */\n      swap1\n      pop\n        /* \"#utility.yul\":9376:9833   */\n      swap3\n      swap2\n      pop\n      pop\n      jump\t// out\n        /* \"#utility.yul\":9839:10392   */\n    tag_36:\n        /* \"#utility.yul\":10016:10020   */\n      0x00\n        /* \"#utility.yul\":10054:10057   */\n      0x80\n        /* \"#utility.yul\":10043:10052   */\n      dup3\n        /* \"#utility.yul\":10039:10058   */\n      add\n        /* \"#utility.yul\":10031:10058   */\n      swap1\n      pop\n        /* \"#utility.yul\":10068:10139   */\n      tag_399\n        /* \"#utility.yul\":10136:10137   */\n      0x00\n        /* \"#utility.yul\":10125:10134   */\n      dup4\n        /* \"#utility.yul\":10121:10138   */\n      add\n        /* \"#utility.yul\":10112:10118   */\n      dup8\n        /* \"#utility.yul\":10068:10139   */\n      tag_232\n      jump\t// in\n    tag_399:\n        /* \"#utility.yul\":10149:10221   */\n      tag_400\n        /* \"#utility.yul\":10217:10219   */\n      0x20\n        /* \"#utility.yul\":10206:10215   */\n      dup4\n        /* \"#utility.yul\":10202:10220   */\n      add\n        /* \"#utility.yul\":10193:10199   */\n      dup7\n        /* \"#utility.yul\":10149:10221   */\n      tag_232\n      jump\t// in\n    tag_400:\n        /* \"#utility.yul\":10231:10303   */\n      tag_401\n        /* \"#utility.yul\":10299:10301   */\n      0x40\n        /* \"#utility.yul\":10288:10297   */\n      dup4\n        /* \"#utility.yul\":10284:10302   */\n      add\n        /* \"#utility.yul\":10275:10281   */\n      dup6\n        /* \"#utility.yul\":10231:10303   */\n      tag_235\n      jump\t// in\n    tag_401:\n        /* \"#utility.yul\":10313:10385   */\n      tag_402\n        /* \"#utility.yul\":10381:10383   */\n      0x60\n        /* \"#utility.yul\":10370:10379   */\n      dup4\n        /* \"#utility.yul\":10366:10384   */\n      add\n        /* \"#utility.yul\":10357:10363   */\n      dup5\n        /* \"#utility.yul\":10313:10385   */\n      tag_232\n      jump\t// in\n    tag_402:\n        /* \"#utility.yul\":9839:10392   */\n      swap6\n      swap5\n      pop\n      pop\n      pop\n      pop\n      pop\n      jump\t// out\n        /* \"#utility.yul\":10398:10535   */\n    tag_256:\n        /* \"#utility.yul\":10488:10494   */\n      0x00\n        /* \"#utility.yul\":10522:10527   */\n      dup2\n        /* \"#utility.yul\":10516:10528   */\n      mload\n        /* \"#utility.yul\":10506:10528   */\n      swap1\n      pop\n        /* \"#utility.yul\":10398:10535   */\n      swap2\n      swap1\n      pop\n      jump\t// out\n        /* \"#utility.yul\":10541:10748   */\n    tag_257:\n        /* \"#utility.yul\":10663:10674   */\n      0x00\n        /* \"#utility.yul\":10697:10703   */\n      dup3\n        /* \"#utility.yul\":10692:10695   */\n      dup3\n        /* \"#utility.yul\":10685:10704   */\n      mstore\n        /* \"#utility.yul\":10737:10741   */\n      0x20\n        /* \"#utility.yul\":10732:10735   */\n      dup3\n        /* \"#utility.yul\":10728:10742   */\n      add\n        /* \"#utility.yul\":10713:10742   */\n      swap1\n      pop\n        /* \"#utility.yul\":10541:10748   */\n      swap3\n      swap2\n      pop\n      pop\n      jump\t// out\n        /* \"#utility.yul\":10754:10909   */\n    tag_258:\n        /* \"#utility.yul\":10844:10848   */\n      0x00\n        /* \"#utility.yul\":10867:10870   */\n      dup2\n        /* \"#utility.yul\":10859:10870   */\n      swap1\n      pop\n        /* \"#utility.yul\":10897:10901   */\n      0x20\n        /* \"#utility.yul\":10892:10895   */\n      dup3\n        /* \"#utility.yul\":10888:10902   */\n      add\n        /* \"#utility.yul\":10880:10902   */\n      swap1\n      pop\n        /* \"#utility.yul\":10754:10909   */\n      swap2\n      swap1\n      pop\n      jump\t// out\n        /* \"#utility.yul\":10915:11074   */\n    tag_259:\n        /* \"#utility.yul\":10989:11000   */\n      0x00\n        /* \"#utility.yul\":11023:11029   */\n      dup3\n        /* \"#utility.yul\":11018:11021   */\n      dup3\n        /* \"#utility.yul\":11011:11030   */\n      mstore\n        /* \"#utility.yul\":11063:11067   */\n      0x20\n        /* \"#utility.yul\":11058:11061   */\n      dup3\n        /* \"#utility.yul\":11054:11068   */\n      add\n        /* \"#utility.yul\":11039:11068   */\n      swap1\n      pop\n        /* \"#utility.yul\":10915:11074   */\n      swap3\n      swap2\n      pop\n      pop\n      jump\t// out\n        /* \"#utility.yul\":11080:11424   */\n    tag_260:\n        /* \"#utility.yul\":11158:11161   */\n      0x00\n        /* \"#utility.yul\":11186:11225   */\n      tag_408\n        /* \"#utility.yul\":11219:11224   */\n      dup3\n        /* \"#utility.yul\":11186:11225   */\n      tag_236\n      jump\t// in\n    tag_408:\n        /* \"#utility.yul\":11241:11302   */\n      tag_409\n        /* \"#utility.yul\":11295:11301   */\n      dup2\n        /* \"#utility.yul\":11290:11293   */\n      dup6\n        /* \"#utility.yul\":11241:11302   */\n      tag_259\n      jump\t// in\n    tag_409:\n        /* \"#utility.yul\":11234:11302   */\n      swap4\n      pop\n        /* \"#utility.yul\":11311:11363   */\n      tag_410\n        /* \"#utility.yul\":11356:11362   */\n      dup2\n        /* \"#utility.yul\":11351:11354   */\n      dup6\n        /* \"#utility.yul\":11344:11348   */\n      0x20\n        /* \"#utility.yul\":11337:11342   */\n      dup7\n        /* \"#utility.yul\":11333:11349   */\n      add\n        /* \"#utility.yul\":11311:11363   */\n      tag_238\n      jump\t// in\n    tag_410:\n        /* \"#utility.yul\":11388:11417   */\n      tag_411\n        /* \"#utility.yul\":11410:11416   */\n      dup2\n        /* \"#utility.yul\":11388:11417   */\n      tag_239\n      jump\t// in\n    tag_411:\n        /* \"#utility.yul\":11383:11386   */\n      dup5\n        /* \"#utility.yul\":11379:11418   */\n      add\n        /* \"#utility.yul\":11372:11418   */\n      swap2\n      pop\n        /* \"#utility.yul\":11162:11424   */\n      pop\n        /* \"#utility.yul\":11080:11424   */\n      swap3\n      swap2\n      pop\n      pop\n      jump\t// out\n        /* \"#utility.yul\":11430:11544   */\n    tag_261:\n        /* \"#utility.yul\":11497:11503   */\n      0x00\n        /* \"#utility.yul\":11531:11536   */\n      dup2\n        /* \"#utility.yul\":11525:11537   */\n      mload\n        /* \"#utility.yul\":11515:11537   */\n      swap1\n      pop\n        /* \"#utility.yul\":11430:11544   */\n      swap2\n      swap1\n      pop\n      jump\t// out\n        /* \"#utility.yul\":11550:11724   */\n    tag_262:\n        /* \"#utility.yul\":11639:11650   */\n      0x00\n        /* \"#utility.yul\":11673:11679   */\n      dup3\n        /* \"#utility.yul\":11668:11671   */\n      dup3\n        /* \"#utility.yul\":11661:11680   */\n      mstore\n        /* \"#utility.yul\":11713:11717   */\n      0x20\n        /* \"#utility.yul\":11708:11711   */\n      dup3\n        /* \"#utility.yul\":11704:11718   */\n      add\n        /* \"#utility.yul\":11689:11718   */\n      swap1\n      pop\n        /* \"#utility.yul\":11550:11724   */\n      swap3\n      swap2\n      pop\n      pop\n      jump\t// out\n        /* \"#utility.yul\":11730:11862   */\n    tag_263:\n        /* \"#utility.yul\":11797:11801   */\n      0x00\n        /* \"#utility.yul\":11820:11823   */\n      dup2\n        /* \"#utility.yul\":11812:11823   */\n      swap1\n      pop\n        /* \"#utility.yul\":11850:11854   */\n      0x20\n        /* \"#utility.yul\":11845:11848   */\n      dup3\n        /* \"#utility.yul\":11841:11855   */\n      add\n        /* \"#utility.yul\":11833:11855   */\n      swap1\n      pop\n        /* \"#utility.yul\":11730:11862   */\n      swap2\n      swap1\n      pop\n      jump\t// out\n        /* \"#utility.yul\":11868:12047   */\n    tag_264:\n        /* \"#utility.yul\":11937:11947   */\n      0x00\n        /* \"#utility.yul\":11958:12004   */\n      tag_416\n        /* \"#utility.yul\":12000:12003   */\n      dup4\n        /* \"#utility.yul\":11992:11998   */\n      dup4\n        /* \"#utility.yul\":11958:12004   */\n      tag_250\n      jump\t// in\n    tag_416:\n        /* \"#utility.yul\":12036:12040   */\n      0x20\n        /* \"#utility.yul\":12031:12034   */\n      dup4\n        /* \"#utility.yul\":12027:12041   */\n      add\n        /* \"#utility.yul\":12013:12041   */\n      swap1\n      pop\n        /* \"#utility.yul\":11868:12047   */\n      swap3\n      swap2\n      pop\n      pop\n      jump\t// out\n        /* \"#utility.yul\":12053:12166   */\n    tag_265:\n        /* \"#utility.yul\":12123:12127   */\n      0x00\n        /* \"#utility.yul\":12155:12159   */\n      0x20\n        /* \"#utility.yul\":12150:12153   */\n      dup3\n        /* \"#utility.yul\":12146:12160   */\n      add\n        /* \"#utility.yul\":12138:12160   */\n      swap1\n      pop\n        /* \"#utility.yul\":12053:12166   */\n      swap2\n      swap1\n      pop\n      jump\t// out\n        /* \"#utility.yul\":12202:12914   */\n    tag_266:\n        /* \"#utility.yul\":12311:12314   */\n      0x00\n        /* \"#utility.yul\":12340:12394   */\n      tag_419\n        /* \"#utility.yul\":12388:12393   */\n      dup3\n        /* \"#utility.yul\":12340:12394   */\n      tag_261\n      jump\t// in\n    tag_419:\n        /* \"#utility.yul\":12410:12486   */\n      tag_420\n        /* \"#utility.yul\":12479:12485   */\n      dup2\n        /* \"#utility.yul\":12474:12477   */\n      dup6\n        /* \"#utility.yul\":12410:12486   */\n      tag_262\n      jump\t// in\n    tag_420:\n        /* \"#utility.yul\":12403:12486   */\n      swap4\n      pop\n        /* \"#utility.yul\":12510:12566   */\n      tag_421\n        /* \"#utility.yul\":12560:12565   */\n      dup4\n        /* \"#utility.yul\":12510:12566   */\n      tag_263\n      jump\t// in\n    tag_421:\n        /* \"#utility.yul\":12589:12596   */\n      dup1\n        /* \"#utility.yul\":12620:12621   */\n      0x00\n        /* \"#utility.yul\":12605:12889   */\n    tag_422:\n        /* \"#utility.yul\":12630:12636   */\n      dup4\n        /* \"#utility.yul\":12627:12628   */\n      dup2\n        /* \"#utility.yul\":12624:12637   */\n      lt\n        /* \"#utility.yul\":12605:12889   */\n      iszero\n      tag_424\n      jumpi\n        /* \"#utility.yul\":12706:12712   */\n      dup2\n        /* \"#utility.yul\":12700:12713   */\n      mload\n        /* \"#utility.yul\":12733:12796   */\n      tag_425\n        /* \"#utility.yul\":12792:12795   */\n      dup9\n        /* \"#utility.yul\":12777:12790   */\n      dup3\n        /* \"#utility.yul\":12733:12796   */\n      tag_264\n      jump\t// in\n    tag_425:\n        /* \"#utility.yul\":12726:12796   */\n      swap8\n      pop\n        /* \"#utility.yul\":12819:12879   */\n      tag_426\n        /* \"#utility.yul\":12872:12878   */\n      dup4\n        /* \"#utility.yul\":12819:12879   */\n      tag_265\n      jump\t// in\n    tag_426:\n        /* \"#utility.yul\":12809:12879   */\n      swap3\n      pop\n        /* \"#utility.yul\":12665:12889   */\n      pop\n        /* \"#utility.yul\":12652:12653   */\n      0x01\n        /* \"#utility.yul\":12649:12650   */\n      dup2\n        /* \"#utility.yul\":12645:12654   */\n      add\n        /* \"#utility.yul\":12640:12654   */\n      swap1\n      pop\n        /* \"#utility.yul\":12605:12889   */\n      jump(tag_422)\n    tag_424:\n        /* \"#utility.yul\":12609:12623   */\n      pop\n        /* \"#utility.yul\":12905:12908   */\n      dup6\n        /* \"#utility.yul\":12898:12908   */\n      swap4\n      pop\n        /* \"#utility.yul\":12316:12914   */\n      pop\n      pop\n      pop\n        /* \"#utility.yul\":12202:12914   */\n      swap3\n      swap2\n      pop\n      pop\n      jump\t// out\n        /* \"#utility.yul\":12970:14817   */\n    tag_267:\n        /* \"#utility.yul\":13075:13078   */\n      0x00\n        /* \"#utility.yul\":13111:13117   */\n      0x0100\n        /* \"#utility.yul\":13106:13109   */\n      dup4\n        /* \"#utility.yul\":13102:13118   */\n      add\n        /* \"#utility.yul\":13198:13202   */\n      0x00\n        /* \"#utility.yul\":13191:13196   */\n      dup4\n        /* \"#utility.yul\":13187:13203   */\n      add\n        /* \"#utility.yul\":13181:13204   */\n      mload\n        /* \"#utility.yul\":13217:13280   */\n      tag_428\n        /* \"#utility.yul\":13274:13278   */\n      0x00\n        /* \"#utility.yul\":13269:13272   */\n      dup7\n        /* \"#utility.yul\":13265:13279   */\n      add\n        /* \"#utility.yul\":13251:13263   */\n      dup3\n        /* \"#utility.yul\":13217:13280   */\n      tag_250\n      jump\t// in\n    tag_428:\n        /* \"#utility.yul\":13128:13290   */\n      pop\n        /* \"#utility.yul\":13374:13378   */\n      0x20\n        /* \"#utility.yul\":13367:13372   */\n      dup4\n        /* \"#utility.yul\":13363:13379   */\n      add\n        /* \"#utility.yul\":13357:13380   */\n      mload\n        /* \"#utility.yul\":13393:13456   */\n      tag_429\n        /* \"#utility.yul\":13450:13454   */\n      0x20\n        /* \"#utility.yul\":13445:13448   */\n      dup7\n        /* \"#utility.yul\":13441:13455   */\n      add\n        /* \"#utility.yul\":13427:13439   */\n      dup3\n        /* \"#utility.yul\":13393:13456   */\n      tag_251\n      jump\t// in\n    tag_429:\n        /* \"#utility.yul\":13300:13466   */\n      pop\n        /* \"#utility.yul\":13548:13552   */\n      0x40\n        /* \"#utility.yul\":13541:13546   */\n      dup4\n        /* \"#utility.yul\":13537:13553   */\n      add\n        /* \"#utility.yul\":13531:13554   */\n      mload\n        /* \"#utility.yul\":13601:13604   */\n      dup5\n        /* \"#utility.yul\":13595:13599   */\n      dup3\n        /* \"#utility.yul\":13591:13605   */\n      sub\n        /* \"#utility.yul\":13584:13588   */\n      0x40\n        /* \"#utility.yul\":13579:13582   */\n      dup7\n        /* \"#utility.yul\":13575:13589   */\n      add\n        /* \"#utility.yul\":13568:13606   */\n      mstore\n        /* \"#utility.yul\":13627:13700   */\n      tag_430\n        /* \"#utility.yul\":13695:13699   */\n      dup3\n        /* \"#utility.yul\":13681:13693   */\n      dup3\n        /* \"#utility.yul\":13627:13700   */\n      tag_260\n      jump\t// in\n    tag_430:\n        /* \"#utility.yul\":13619:13700   */\n      swap2\n      pop\n        /* \"#utility.yul\":13476:13711   */\n      pop\n        /* \"#utility.yul\":13800:13804   */\n      0x60\n        /* \"#utility.yul\":13793:13798   */\n      dup4\n        /* \"#utility.yul\":13789:13805   */\n      add\n        /* \"#utility.yul\":13783:13806   */\n      mload\n        /* \"#utility.yul\":13853:13856   */\n      dup5\n        /* \"#utility.yul\":13847:13851   */\n      dup3\n        /* \"#utility.yul\":13843:13857   */\n      sub\n        /* \"#utility.yul\":13836:13840   */\n      0x60\n        /* \"#utility.yul\":13831:13834   */\n      dup7\n        /* \"#utility.yul\":13827:13841   */\n      add\n        /* \"#utility.yul\":13820:13858   */\n      mstore\n        /* \"#utility.yul\":13879:13952   */\n      tag_431\n        /* \"#utility.yul\":13947:13951   */\n      dup3\n        /* \"#utility.yul\":13933:13945   */\n      dup3\n        /* \"#utility.yul\":13879:13952   */\n      tag_260\n      jump\t// in\n    tag_431:\n        /* \"#utility.yul\":13871:13952   */\n      swap2\n      pop\n        /* \"#utility.yul\":13721:13963   */\n      pop\n        /* \"#utility.yul\":14058:14062   */\n      0x80\n        /* \"#utility.yul\":14051:14056   */\n      dup4\n        /* \"#utility.yul\":14047:14063   */\n      add\n        /* \"#utility.yul\":14041:14064   */\n      mload\n        /* \"#utility.yul\":14077:14140   */\n      tag_432\n        /* \"#utility.yul\":14134:14138   */\n      0x80\n        /* \"#utility.yul\":14129:14132   */\n      dup7\n        /* \"#utility.yul\":14125:14139   */\n      add\n        /* \"#utility.yul\":14111:14123   */\n      dup3\n        /* \"#utility.yul\":14077:14140   */\n      tag_250\n      jump\t// in\n    tag_432:\n        /* \"#utility.yul\":13973:14150   */\n      pop\n        /* \"#utility.yul\":14238:14242   */\n      0xa0\n        /* \"#utility.yul\":14231:14236   */\n      dup4\n        /* \"#utility.yul\":14227:14243   */\n      add\n        /* \"#utility.yul\":14221:14244   */\n      mload\n        /* \"#utility.yul\":14257:14320   */\n      tag_433\n        /* \"#utility.yul\":14314:14318   */\n      0xa0\n        /* \"#utility.yul\":14309:14312   */\n      dup7\n        /* \"#utility.yul\":14305:14319   */\n      add\n        /* \"#utility.yul\":14291:14303   */\n      dup3\n        /* \"#utility.yul\":14257:14320   */\n      tag_250\n      jump\t// in\n    tag_433:\n        /* \"#utility.yul\":14160:14330   */\n      pop\n        /* \"#utility.yul\":14419:14423   */\n      0xc0\n        /* \"#utility.yul\":14412:14417   */\n      dup4\n        /* \"#utility.yul\":14408:14424   */\n      add\n        /* \"#utility.yul\":14402:14425   */\n      mload\n        /* \"#utility.yul\":14438:14501   */\n      tag_434\n        /* \"#utility.yul\":14495:14499   */\n      0xc0\n        /* \"#utility.yul\":14490:14493   */\n      dup7\n        /* \"#utility.yul\":14486:14500   */\n      add\n        /* \"#utility.yul\":14472:14484   */\n      dup3\n        /* \"#utility.yul\":14438:14501   */\n      tag_250\n      jump\t// in\n    tag_434:\n        /* \"#utility.yul\":14340:14511   */\n      pop\n        /* \"#utility.yul\":14597:14601   */\n      0xe0\n        /* \"#utility.yul\":14590:14595   */\n      dup4\n        /* \"#utility.yul\":14586:14602   */\n      add\n        /* \"#utility.yul\":14580:14603   */\n      mload\n        /* \"#utility.yul\":14650:14653   */\n      dup5\n        /* \"#utility.yul\":14644:14648   */\n      dup3\n        /* \"#utility.yul\":14640:14654   */\n      sub\n        /* \"#utility.yul\":14633:14637   */\n      0xe0\n        /* \"#utility.yul\":14628:14631   */\n      dup7\n        /* \"#utility.yul\":14624:14638   */\n      add\n        /* \"#utility.yul\":14617:14655   */\n      mstore\n        /* \"#utility.yul\":14676:14779   */\n      tag_435\n        /* \"#utility.yul\":14774:14778   */\n      dup3\n        /* \"#utility.yul\":14760:14772   */\n      dup3\n        /* \"#utility.yul\":14676:14779   */\n      tag_266\n      jump\t// in\n    tag_435:\n        /* \"#utility.yul\":14668:14779   */\n      swap2\n      pop\n        /* \"#utility.yul\":14521:14790   */\n      pop\n        /* \"#utility.yul\":14807:14811   */\n      dup1\n        /* \"#utility.yul\":14800:14811   */\n      swap2\n      pop\n        /* \"#utility.yul\":13080:14817   */\n      pop\n        /* \"#utility.yul\":12970:14817   */\n      swap3\n      swap2\n      pop\n      pop\n      jump\t// out\n        /* \"#utility.yul\":14823:15071   */\n    tag_268:\n        /* \"#utility.yul\":14938:14948   */\n      0x00\n        /* \"#utility.yul\":14973:15065   */\n      tag_437\n        /* \"#utility.yul\":15061:15064   */\n      dup4\n        /* \"#utility.yul\":15053:15059   */\n      dup4\n        /* \"#utility.yul\":14973:15065   */\n      tag_267\n      jump\t// in\n    tag_437:\n        /* \"#utility.yul\":14959:15065   */\n      swap1\n      pop\n        /* \"#utility.yul\":14823:15071   */\n      swap3\n      swap2\n      pop\n      pop\n      jump\t// out\n        /* \"#utility.yul\":15077:15213   */\n    tag_269:\n        /* \"#utility.yul\":15170:15174   */\n      0x00\n        /* \"#utility.yul\":15202:15206   */\n      0x20\n        /* \"#utility.yul\":15197:15200   */\n      dup3\n        /* \"#utility.yul\":15193:15207   */\n      add\n        /* \"#utility.yul\":15185:15207   */\n      swap1\n      pop\n        /* \"#utility.yul\":15077:15213   */\n      swap2\n      swap1\n      pop\n      jump\t// out\n        /* \"#utility.yul\":15273:16368   */\n    tag_270:\n        /* \"#utility.yul\":15438:15441   */\n      0x00\n        /* \"#utility.yul\":15467:15544   */\n      tag_440\n        /* \"#utility.yul\":15538:15543   */\n      dup3\n        /* \"#utility.yul\":15467:15544   */\n      tag_256\n      jump\t// in\n    tag_440:\n        /* \"#utility.yul\":15560:15669   */\n      tag_441\n        /* \"#utility.yul\":15662:15668   */\n      dup2\n        /* \"#utility.yul\":15657:15660   */\n      dup6\n        /* \"#utility.yul\":15560:15669   */\n      tag_257\n      jump\t// in\n    tag_441:\n        /* \"#utility.yul\":15553:15669   */\n      swap4\n      pop\n        /* \"#utility.yul\":15695:15698   */\n      dup4\n        /* \"#utility.yul\":15740:15744   */\n      0x20\n        /* \"#utility.yul\":15732:15738   */\n      dup3\n        /* \"#utility.yul\":15728:15745   */\n      mul\n        /* \"#utility.yul\":15723:15726   */\n      dup6\n        /* \"#utility.yul\":15719:15746   */\n      add\n        /* \"#utility.yul\":15770:15849   */\n      tag_442\n        /* \"#utility.yul\":15843:15848   */\n      dup6\n        /* \"#utility.yul\":15770:15849   */\n      tag_258\n      jump\t// in\n    tag_442:\n        /* \"#utility.yul\":15872:15879   */\n      dup1\n        /* \"#utility.yul\":15903:15904   */\n      0x00\n        /* \"#utility.yul\":15888:16323   */\n    tag_443:\n        /* \"#utility.yul\":15913:15919   */\n      dup6\n        /* \"#utility.yul\":15910:15911   */\n      dup2\n        /* \"#utility.yul\":15907:15920   */\n      lt\n        /* \"#utility.yul\":15888:16323   */\n      iszero\n      tag_445\n      jumpi\n        /* \"#utility.yul\":15984:15993   */\n      dup5\n        /* \"#utility.yul\":15978:15982   */\n      dup5\n        /* \"#utility.yul\":15974:15994   */\n      sub\n        /* \"#utility.yul\":15969:15972   */\n      dup10\n        /* \"#utility.yul\":15962:15995   */\n      mstore\n        /* \"#utility.yul\":16035:16041   */\n      dup2\n        /* \"#utility.yul\":16029:16042   */\n      mload\n        /* \"#utility.yul\":16063:16173   */\n      tag_446\n        /* \"#utility.yul\":16168:16172   */\n      dup6\n        /* \"#utility.yul\":16153:16166   */\n      dup3\n        /* \"#utility.yul\":16063:16173   */\n      tag_268\n      jump\t// in\n    tag_446:\n        /* \"#utility.yul\":16055:16173   */\n      swap5\n      pop\n        /* \"#utility.yul\":16196:16279   */\n      tag_447\n        /* \"#utility.yul\":16272:16278   */\n      dup4\n        /* \"#utility.yul\":16196:16279   */\n      tag_269\n      jump\t// in\n    tag_447:\n        /* \"#utility.yul\":16186:16279   */\n      swap3\n      pop\n        /* \"#utility.yul\":16308:16312   */\n      0x20\n        /* \"#utility.yul\":16303:16306   */\n      dup11\n        /* \"#utility.yul\":16299:16313   */\n      add\n        /* \"#utility.yul\":16292:16313   */\n      swap10\n      pop\n        /* \"#utility.yul\":15948:16323   */\n      pop\n        /* \"#utility.yul\":15935:15936   */\n      0x01\n        /* \"#utility.yul\":15932:15933   */\n      dup2\n        /* \"#utility.yul\":15928:15937   */\n      add\n        /* \"#utility.yul\":15923:15937   */\n      swap1\n      pop\n        /* \"#utility.yul\":15888:16323   */\n      jump(tag_443)\n    tag_445:\n        /* \"#utility.yul\":15892:15906   */\n      pop\n        /* \"#utility.yul\":16339:16343   */\n      dup3\n        /* \"#utility.yul\":16332:16343   */\n      swap8\n      pop\n        /* \"#utility.yul\":16359:16362   */\n      dup8\n        /* \"#utility.yul\":16352:16362   */\n      swap6\n      pop\n        /* \"#utility.yul\":15443:16368   */\n      pop\n      pop\n      pop\n      pop\n      pop\n        /* \"#utility.yul\":15273:16368   */\n      swap3\n      swap2\n      pop\n      pop\n      jump\t// out\n        /* \"#utility.yul\":16374:16839   */\n    tag_49:\n        /* \"#utility.yul\":16563:16567   */\n      0x00\n        /* \"#utility.yul\":16601:16603   */\n      0x20\n        /* \"#utility.yul\":16590:16599   */\n      dup3\n        /* \"#utility.yul\":16586:16604   */\n      add\n        /* \"#utility.yul\":16578:16604   */\n      swap1\n      pop\n        /* \"#utility.yul\":16650:16659   */\n      dup2\n        /* \"#utility.yul\":16644:16648   */\n      dup2\n        /* \"#utility.yul\":16640:16660   */\n      sub\n        /* \"#utility.yul\":16636:16637   */\n      0x00\n        /* \"#utility.yul\":16625:16634   */\n      dup4\n        /* \"#utility.yul\":16621:16638   */\n      add\n        /* \"#utility.yul\":16614:16661   */\n      mstore\n        /* \"#utility.yul\":16678:16832   */\n      tag_449\n        /* \"#utility.yul\":16827:16831   */\n      dup2\n        /* \"#utility.yul\":16818:16824   */\n      dup5\n        /* \"#utility.yul\":16678:16832   */\n      tag_270\n      jump\t// in\n    tag_449:\n        /* \"#utility.yul\":16670:16832   */\n      swap1\n      pop\n        /* \"#utility.yul\":16374:16839   */\n      swap3\n      swap2\n      pop\n      pop\n      jump\t// out\n        /* \"#utility.yul\":16845:17025   */\n    tag_271:\n        /* \"#utility.yul\":16893:16970   */\n      0x4e487b7100000000000000000000000000000000000000000000000000000000\n        /* \"#utility.yul\":16890:16891   */\n      0x00\n        /* \"#utility.yul\":16883:16971   */\n      mstore\n        /* \"#utility.yul\":16990:16994   */\n      0x22\n        /* \"#utility.yul\":16987:16988   */\n      0x04\n        /* \"#utility.yul\":16980:16995   */\n      mstore\n        /* \"#utility.yul\":17014:17018   */\n      0x24\n        /* \"#utility.yul\":17011:17012   */\n      0x00\n        /* \"#utility.yul\":17004:17019   */\n      revert\n        /* \"#utility.yul\":17031:17351   */\n    tag_60:\n        /* \"#utility.yul\":17075:17081   */\n      0x00\n        /* \"#utility.yul\":17112:17113   */\n      0x02\n        /* \"#utility.yul\":17106:17110   */\n      dup3\n        /* \"#utility.yul\":17102:17114   */\n      div\n        /* \"#utility.yul\":17092:17114   */\n      swap1\n      pop\n        /* \"#utility.yul\":17159:17160   */\n      0x01\n        /* \"#utility.yul\":17153:17157   */\n      dup3\n        /* \"#utility.yul\":17149:17161   */\n      and\n        /* \"#utility.yul\":17180:17198   */\n      dup1\n        /* \"#utility.yul\":17170:17251   */\n      tag_452\n      jumpi\n        /* \"#utility.yul\":17236:17240   */\n      0x7f\n        /* \"#utility.yul\":17228:17234   */\n      dup3\n        /* \"#utility.yul\":17224:17241   */\n      and\n        /* \"#utility.yul\":17214:17241   */\n      swap2\n      pop\n        /* \"#utility.yul\":17170:17251   */\n    tag_452:\n        /* \"#utility.yul\":17298:17300   */\n      0x20\n        /* \"#utility.yul\":17290:17296   */\n      dup3\n        /* \"#utility.yul\":17287:17301   */\n      lt\n        /* \"#utility.yul\":17267:17285   */\n      dup2\n        /* \"#utility.yul\":17264:17302   */\n      sub\n        /* \"#utility.yul\":17261:17345   */\n      tag_453\n      jumpi\n        /* \"#utility.yul\":17317:17335   */\n      tag_454\n      tag_271\n      jump\t// in\n    tag_454:\n        /* \"#utility.yul\":17261:17345   */\n    tag_453:\n        /* \"#utility.yul\":17082:17351   */\n      pop\n        /* \"#utility.yul\":17031:17351   */\n      swap2\n      swap1\n      pop\n      jump\t// out\n        /* \"#utility.yul\":17357:17588   */\n    tag_272:\n        /* \"#utility.yul\":17497:17531   */\n      0x4d696e696d756d206f666665722070726963652073686f756c64206265206772\n        /* \"#utility.yul\":17493:17494   */\n      0x00\n        /* \"#utility.yul\":17485:17491   */\n      dup3\n        /* \"#utility.yul\":17481:17495   */\n      add\n        /* \"#utility.yul\":17474:17532   */\n      mstore\n        /* \"#utility.yul\":17566:17580   */\n      0x6561746572207468616e20300000000000000000000000000000000000000000\n        /* \"#utility.yul\":17561:17563   */\n      0x20\n        /* \"#utility.yul\":17553:17559   */\n      dup3\n        /* \"#utility.yul\":17549:17564   */\n      add\n        /* \"#utility.yul\":17542:17581   */\n      mstore\n        /* \"#utility.yul\":17357:17588   */\n      pop\n      jump\t// out\n        /* \"#utility.yul\":17594:17960   */\n    tag_273:\n        /* \"#utility.yul\":17736:17739   */\n      0x00\n        /* \"#utility.yul\":17757:17824   */\n      tag_457\n        /* \"#utility.yul\":17821:17823   */\n      0x2c\n        /* \"#utility.yul\":17816:17819   */\n      dup4\n        /* \"#utility.yul\":17757:17824   */\n      tag_237\n      jump\t// in\n    tag_457:\n        /* \"#utility.yul\":17750:17824   */\n      swap2\n      pop\n        /* \"#utility.yul\":17833:17926   */\n      tag_458\n        /* \"#utility.yul\":17922:17925   */\n      dup3\n        /* \"#utility.yul\":17833:17926   */\n      tag_272\n      jump\t// in\n    tag_458:\n        /* \"#utility.yul\":17951:17953   */\n      0x40\n        /* \"#utility.yul\":17946:17949   */\n      dup3\n        /* \"#utility.yul\":17942:17954   */\n      add\n        /* \"#utility.yul\":17935:17954   */\n      swap1\n      pop\n        /* \"#utility.yul\":17594:17960   */\n      swap2\n      swap1\n      pop\n      jump\t// out\n        /* \"#utility.yul\":17966:18385   */\n    tag_73:\n        /* \"#utility.yul\":18132:18136   */\n      0x00\n        /* \"#utility.yul\":18170:18172   */\n      0x20\n        /* \"#utility.yul\":18159:18168   */\n      dup3\n        /* \"#utility.yul\":18155:18173   */\n      add\n        /* \"#utility.yul\":18147:18173   */\n      swap1\n      pop\n        /* \"#utility.yul\":18219:18228   */\n      dup2\n        /* \"#utility.yul\":18213:18217   */\n      dup2\n        /* \"#utility.yul\":18209:18229   */\n      sub\n        /* \"#utility.yul\":18205:18206   */\n      0x00\n        /* \"#utility.yul\":18194:18203   */\n      dup4\n        /* \"#utility.yul\":18190:18207   */\n      add\n        /* \"#utility.yul\":18183:18230   */\n      mstore\n        /* \"#utility.yul\":18247:18378   */\n      tag_460\n        /* \"#utility.yul\":18373:18377   */\n      dup2\n        /* \"#utility.yul\":18247:18378   */\n      tag_273\n      jump\t// in\n    tag_460:\n        /* \"#utility.yul\":18239:18378   */\n      swap1\n      pop\n        /* \"#utility.yul\":17966:18385   */\n      swap2\n      swap1\n      pop\n      jump\t// out\n        /* \"#utility.yul\":18391:18617   */\n    tag_274:\n        /* \"#utility.yul\":18531:18565   */\n      0x4475726174696f6e2073686f756c64206265206265747765656e203120746f20\n        /* \"#utility.yul\":18527:18528   */\n      0x00\n        /* \"#utility.yul\":18519:18525   */\n      dup3\n        /* \"#utility.yul\":18515:18529   */\n      add\n        /* \"#utility.yul\":18508:18566   */\n      mstore\n        /* \"#utility.yul\":18600:18609   */\n      0x3130206461797300000000000000000000000000000000000000000000000000\n        /* \"#utility.yul\":18595:18597   */\n      0x20\n        /* \"#utility.yul\":18587:18593   */\n      dup3\n        /* \"#utility.yul\":18583:18598   */\n      add\n        /* \"#utility.yul\":18576:18610   */\n      mstore\n        /* \"#utility.yul\":18391:18617   */\n      pop\n      jump\t// out\n        /* \"#utility.yul\":18623:18989   */\n    tag_275:\n        /* \"#utility.yul\":18765:18768   */\n      0x00\n        /* \"#utility.yul\":18786:18853   */\n      tag_463\n        /* \"#utility.yul\":18850:18852   */\n      0x27\n        /* \"#utility.yul\":18845:18848   */\n      dup4\n        /* \"#utility.yul\":18786:18853   */\n      tag_237\n      jump\t// in\n    tag_463:\n        /* \"#utility.yul\":18779:18853   */\n      swap2\n      pop\n        /* \"#utility.yul\":18862:18955   */\n      tag_464\n        /* \"#utility.yul\":18951:18954   */\n      dup3\n        /* \"#utility.yul\":18862:18955   */\n      tag_274\n      jump\t// in\n    tag_464:\n        /* \"#utility.yul\":18980:18982   */\n      0x40\n        /* \"#utility.yul\":18975:18978   */\n      dup3\n        /* \"#utility.yul\":18971:18983   */\n      add\n        /* \"#utility.yul\":18964:18983   */\n      swap1\n      pop\n        /* \"#utility.yul\":18623:18989   */\n      swap2\n      swap1\n      pop\n      jump\t// out\n        /* \"#utility.yul\":18995:19414   */\n    tag_77:\n        /* \"#utility.yul\":19161:19165   */\n      0x00\n        /* \"#utility.yul\":19199:19201   */\n      0x20\n        /* \"#utility.yul\":19188:19197   */\n      dup3\n        /* \"#utility.yul\":19184:19202   */\n      add\n        /* \"#utility.yul\":19176:19202   */\n      swap1\n      pop\n        /* \"#utility.yul\":19248:19257   */\n      dup2\n        /* \"#utility.yul\":19242:19246   */\n      dup2\n        /* \"#utility.yul\":19238:19258   */\n      sub\n        /* \"#utility.yul\":19234:19235   */\n      0x00\n        /* \"#utility.yul\":19223:19232   */\n      dup4\n        /* \"#utility.yul\":19219:19236   */\n      add\n        /* \"#utility.yul\":19212:19259   */\n      mstore\n        /* \"#utility.yul\":19276:19407   */\n      tag_466\n        /* \"#utility.yul\":19402:19406   */\n      dup2\n        /* \"#utility.yul\":19276:19407   */\n      tag_275\n      jump\t// in\n    tag_466:\n        /* \"#utility.yul\":19268:19407   */\n      swap1\n      pop\n        /* \"#utility.yul\":18995:19414   */\n      swap2\n      swap1\n      pop\n      jump\t// out\n        /* \"#utility.yul\":19420:19600   */\n    tag_80:\n        /* \"#utility.yul\":19468:19545   */\n      0x4e487b7100000000000000000000000000000000000000000000000000000000\n        /* \"#utility.yul\":19465:19466   */\n      0x00\n        /* \"#utility.yul\":19458:19546   */\n      mstore\n        /* \"#utility.yul\":19565:19569   */\n      0x41\n        /* \"#utility.yul\":19562:19563   */\n      0x04\n        /* \"#utility.yul\":19555:19570   */\n      mstore\n        /* \"#utility.yul\":19589:19593   */\n      0x24\n        /* \"#utility.yul\":19586:19587   */\n      0x00\n        /* \"#utility.yul\":19579:19594   */\n      revert\n        /* \"#utility.yul\":19606:19786   */\n    tag_276:\n        /* \"#utility.yul\":19654:19731   */\n      0x4e487b7100000000000000000000000000000000000000000000000000000000\n        /* \"#utility.yul\":19651:19652   */\n      0x00\n        /* \"#utility.yul\":19644:19732   */\n      mstore\n        /* \"#utility.yul\":19751:19755   */\n      0x11\n        /* \"#utility.yul\":19748:19749   */\n      0x04\n        /* \"#utility.yul\":19741:19756   */\n      mstore\n        /* \"#utility.yul\":19775:19779   */\n      0x24\n        /* \"#utility.yul\":19772:19773   */\n      0x00\n        /* \"#utility.yul\":19765:19780   */\n      revert\n        /* \"#utility.yul\":19792:20097   */\n    tag_83:\n        /* \"#utility.yul\":19832:19835   */\n      0x00\n        /* \"#utility.yul\":19851:19871   */\n      tag_470\n        /* \"#utility.yul\":19869:19870   */\n      dup3\n        /* \"#utility.yul\":19851:19871   */\n      tag_229\n      jump\t// in\n    tag_470:\n        /* \"#utility.yul\":19846:19871   */\n      swap2\n      pop\n        /* \"#utility.yul\":19885:19905   */\n      tag_471\n        /* \"#utility.yul\":19903:19904   */\n      dup4\n        /* \"#utility.yul\":19885:19905   */\n      tag_229\n      jump\t// in\n    tag_471:\n        /* \"#utility.yul\":19880:19905   */\n      swap3\n      pop\n        /* \"#utility.yul\":20039:20040   */\n      dup3\n        /* \"#utility.yul\":19971:20037   */\n      0xffffffffffffffffffffffffffffffffffffffffffffffffffffffffffffffff\n        /* \"#utility.yul\":19967:20041   */\n      sub\n        /* \"#utility.yul\":19964:19965   */\n      dup3\n        /* \"#utility.yul\":19961:20042   */\n      gt\n        /* \"#utility.yul\":19958:20065   */\n      iszero\n      tag_472\n      jumpi\n        /* \"#utility.yul\":20045:20063   */\n      tag_473\n      tag_276\n      jump\t// in\n    tag_473:\n        /* \"#utility.yul\":19958:20065   */\n    tag_472:\n        /* \"#utility.yul\":20089:20090   */\n      dup3\n        /* \"#utility.yul\":20086:20087   */\n      dup3\n        /* \"#utility.yul\":20082:20091   */\n      add\n        /* \"#utility.yul\":20075:20091   */\n      swap1\n      pop\n        /* \"#utility.yul\":19792:20097   */\n      swap3\n      swap2\n      pop\n      pop\n      jump\t// out\n        /* \"#utility.yul\":20103:20244   */\n    tag_277:\n        /* \"#utility.yul\":20152:20156   */\n      0x00\n        /* \"#utility.yul\":20175:20178   */\n      dup2\n        /* \"#utility.yul\":20167:20178   */\n      swap1\n      pop\n        /* \"#utility.yul\":20198:20201   */\n      dup2\n        /* \"#utility.yul\":20195:20196   */\n      0x00\n        /* \"#utility.yul\":20188:20202   */\n      mstore\n        /* \"#utility.yul\":20232:20236   */\n      0x20\n        /* \"#utility.yul\":20229:20230   */\n      0x00\n        /* \"#utility.yul\":20219:20237   */\n      keccak256\n        /* \"#utility.yul\":20211:20237   */\n      swap1\n      pop\n        /* \"#utility.yul\":20103:20244   */\n      swap2\n      swap1\n      pop\n      jump\t// out\n        /* \"#utility.yul\":20250:20343   */\n    tag_278:\n        /* \"#utility.yul\":20287:20293   */\n      0x00\n        /* \"#utility.yul\":20334:20336   */\n      0x20\n        /* \"#utility.yul\":20329:20331   */\n      0x1f\n        /* \"#utility.yul\":20322:20327   */\n      dup4\n        /* \"#utility.yul\":20318:20332   */\n      add\n        /* \"#utility.yul\":20314:20337   */\n      div\n        /* \"#utility.yul\":20304:20337   */\n      swap1\n      pop\n        /* \"#utility.yul\":20250:20343   */\n      swap2\n      swap1\n      pop\n      jump\t// out\n        /* \"#utility.yul\":20349:20456   */\n    tag_279:\n        /* \"#utility.yul\":20393:20401   */\n      0x00\n        /* \"#utility.yul\":20443:20448   */\n      dup3\n        /* \"#utility.yul\":20437:20441   */\n      dup3\n        /* \"#utility.yul\":20433:20449   */\n      shl\n        /* \"#utility.yul\":20412:20449   */\n      swap1\n      pop\n        /* \"#utility.yul\":20349:20456   */\n      swap3\n      swap2\n      pop\n      pop\n      jump\t// out\n        /* \"#utility.yul\":20462:20855   */\n    tag_280:\n        /* \"#utility.yul\":20531:20537   */\n      0x00\n        /* \"#utility.yul\":20581:20582   */\n      0x08\n        /* \"#utility.yul\":20569:20579   */\n      dup4\n        /* \"#utility.yul\":20565:20583   */\n      mul\n        /* \"#utility.yul\":20604:20701   */\n      tag_478\n        /* \"#utility.yul\":20634:20700   */\n      0xffffffffffffffffffffffffffffffffffffffffffffffffffffffffffffffff\n        /* \"#utility.yul\":20623:20632   */\n      dup3\n        /* \"#utility.yul\":20604:20701   */\n      tag_279\n      jump\t// in\n    tag_478:\n        /* \"#utility.yul\":20722:20761   */\n      tag_479\n        /* \"#utility.yul\":20752:20760   */\n      dup7\n        /* \"#utility.yul\":20741:20750   */\n      dup4\n        /* \"#utility.yul\":20722:20761   */\n      tag_279\n      jump\t// in\n    tag_479:\n        /* \"#utility.yul\":20710:20761   */\n      swap6\n      pop\n        /* \"#utility.yul\":20794:20798   */\n      dup1\n        /* \"#utility.yul\":20790:20799   */\n      not\n        /* \"#utility.yul\":20783:20788   */\n      dup5\n        /* \"#utility.yul\":20779:20800   */\n      and\n        /* \"#utility.yul\":20770:20800   */\n      swap4\n      pop\n        /* \"#utility.yul\":20843:20847   */\n      dup1\n        /* \"#utility.yul\":20833:20841   */\n      dup7\n        /* \"#utility.yul\":20829:20848   */\n      and\n        /* \"#utility.yul\":20822:20827   */\n      dup5\n        /* \"#utility.yul\":20819:20849   */\n      or\n        /* \"#utility.yul\":20809:20849   */\n      swap3\n      pop\n        /* \"#utility.yul\":20538:20855   */\n      pop\n      pop\n        /* \"#utility.yul\":20462:20855   */\n      swap4\n      swap3\n      pop\n      pop\n      pop\n      jump\t// out\n        /* \"#utility.yul\":20861:20921   */\n    tag_281:\n        /* \"#utility.yul\":20889:20892   */\n      0x00\n        /* \"#utility.yul\":20910:20915   */\n      dup2\n        /* \"#utility.yul\":20903:20915   */\n      swap1\n      pop\n        /* \"#utility.yul\":20861:20921   */\n      swap2\n      swap1\n      pop\n      jump\t// out\n        /* \"#utility.yul\":20927:21069   */\n    tag_282:\n        /* \"#utility.yul\":20977:20986   */\n      0x00\n        /* \"#utility.yul\":21010:21063   */\n      tag_482\n        /* \"#utility.yul\":21028:21062   */\n      tag_483\n        /* \"#utility.yul\":21037:21061   */\n      tag_484\n        /* \"#utility.yul\":21055:21060   */\n      dup5\n        /* \"#utility.yul\":21037:21061   */\n      tag_229\n      jump\t// in\n    tag_484:\n        /* \"#utility.yul\":21028:21062   */\n      tag_281\n      jump\t// in\n    tag_483:\n        /* \"#utility.yul\":21010:21063   */\n      tag_229\n      jump\t// in\n    tag_482:\n        /* \"#utility.yul\":20997:21063   */\n      swap1\n      pop\n        /* \"#utility.yul\":20927:21069   */\n      swap2\n      swap1\n      pop\n      jump\t// out\n        /* \"#utility.yul\":21075:21150   */\n    tag_283:\n        /* \"#utility.yul\":21118:21121   */\n      0x00\n        /* \"#utility.yul\":21139:21144   */\n      dup2\n        /* \"#utility.yul\":21132:21144   */\n      swap1\n      pop\n        /* \"#utility.yul\":21075:21150   */\n      swap2\n      swap1\n      pop\n      jump\t// out\n        /* \"#utility.yul\":21156:21425   */\n    tag_284:\n        /* \"#utility.yul\":21266:21305   */\n      tag_487\n        /* \"#utility.yul\":21297:21304   */\n      dup4\n        /* \"#utility.yul\":21266:21305   */\n      tag_282\n      jump\t// in\n    tag_487:\n        /* \"#utility.yul\":21327:21418   */\n      tag_488\n        /* \"#utility.yul\":21376:21417   */\n      tag_489\n        /* \"#utility.yul\":21400:21416   */\n      dup3\n        /* \"#utility.yul\":21376:21417   */\n      tag_283\n      jump\t// in\n    tag_489:\n        /* \"#utility.yul\":21368:21374   */\n      dup5\n        /* \"#utility.yul\":21361:21365   */\n      dup5\n        /* \"#utility.yul\":21355:21366   */\n      sload\n        /* \"#utility.yul\":21327:21418   */\n      tag_280\n      jump\t// in\n    tag_488:\n        /* \"#utility.yul\":21321:21325   */\n      dup3\n        /* \"#utility.yul\":21314:21419   */\n      sstore\n        /* \"#utility.yul\":21232:21425   */\n      pop\n        /* \"#utility.yul\":21156:21425   */\n      pop\n      pop\n      pop\n      jump\t// out\n        /* \"#utility.yul\":21431:21504   */\n    tag_285:\n        /* \"#utility.yul\":21476:21479   */\n      0x00\n        /* \"#utility.yul\":21431:21504   */\n      swap1\n      jump\t// out\n        /* \"#utility.yul\":21510:21699   */\n    tag_286:\n        /* \"#utility.yul\":21587:21619   */\n      tag_492\n      tag_285\n      jump\t// in\n    tag_492:\n        /* \"#utility.yul\":21628:21693   */\n      tag_493\n        /* \"#utility.yul\":21686:21692   */\n      dup2\n        /* \"#utility.yul\":21678:21684   */\n      dup5\n        /* \"#utility.yul\":21672:21676   */\n      dup5\n        /* \"#utility.yul\":21628:21693   */\n      tag_284\n      jump\t// in\n    tag_493:\n        /* \"#utility.yul\":21563:21699   */\n      pop\n        /* \"#utility.yul\":21510:21699   */\n      pop\n      pop\n      jump\t// out\n        /* \"#utility.yul\":21705:21891   */\n    tag_287:\n        /* \"#utility.yul\":21765:21885   */\n    tag_495:\n        /* \"#utility.yul\":21782:21785   */\n      dup2\n        /* \"#utility.yul\":21775:21780   */\n      dup2\n        /* \"#utility.yul\":21772:21786   */\n      lt\n        /* \"#utility.yul\":21765:21885   */\n      iszero\n      tag_497\n      jumpi\n        /* \"#utility.yul\":21836:21875   */\n      tag_498\n        /* \"#utility.yul\":21873:21874   */\n      0x00\n        /* \"#utility.yul\":21866:21871   */\n      dup3\n        /* \"#utility.yul\":21836:21875   */\n      tag_286\n      jump\t// in\n    tag_498:\n        /* \"#utility.yul\":21809:21810   */\n      0x01\n        /* \"#utility.yul\":21802:21807   */\n      dup2\n        /* \"#utility.yul\":21798:21811   */\n      add\n        /* \"#utility.yul\":21789:21811   */\n      swap1\n      pop\n        /* \"#utility.yul\":21765:21885   */\n      jump(tag_495)\n    tag_497:\n        /* \"#utility.yul\":21705:21891   */\n      pop\n      pop\n      jump\t// out\n        /* \"#utility.yul\":21897:22440   */\n    tag_288:\n        /* \"#utility.yul\":21998:22000   */\n      0x1f\n        /* \"#utility.yul\":21993:21996   */\n      dup3\n        /* \"#utility.yul\":21990:22001   */\n      gt\n        /* \"#utility.yul\":21987:22433   */\n      iszero\n      tag_500\n      jumpi\n        /* \"#utility.yul\":22032:22070   */\n      tag_501\n        /* \"#utility.yul\":22064:22069   */\n      dup2\n        /* \"#utility.yul\":22032:22070   */\n      tag_277\n      jump\t// in\n    tag_501:\n        /* \"#utility.yul\":22116:22145   */\n      tag_502\n        /* \"#utility.yul\":22134:22144   */\n      dup5\n        /* \"#utility.yul\":22116:22145   */\n      tag_278\n      jump\t// in\n    tag_502:\n        /* \"#utility.yul\":22106:22114   */\n      dup2\n        /* \"#utility.yul\":22102:22146   */\n      add\n        /* \"#utility.yul\":22299:22301   */\n      0x20\n        /* \"#utility.yul\":22287:22297   */\n      dup6\n        /* \"#utility.yul\":22284:22302   */\n      lt\n        /* \"#utility.yul\":22281:22330   */\n      iszero\n      tag_503\n      jumpi\n        /* \"#utility.yul\":22320:22328   */\n      dup2\n        /* \"#utility.yul\":22305:22328   */\n      swap1\n      pop\n        /* \"#utility.yul\":22281:22330   */\n    tag_503:\n        /* \"#utility.yul\":22343:22423   */\n      tag_504\n        /* \"#utility.yul\":22399:22421   */\n      tag_505\n        /* \"#utility.yul\":22417:22420   */\n      dup6\n        /* \"#utility.yul\":22399:22421   */\n      tag_278\n      jump\t// in\n    tag_505:\n        /* \"#utility.yul\":22389:22397   */\n      dup4\n        /* \"#utility.yul\":22385:22422   */\n      add\n        /* \"#utility.yul\":22372:22383   */\n      dup3\n        /* \"#utility.yul\":22343:22423   */\n      tag_287\n      jump\t// in\n    tag_504:\n        /* \"#utility.yul\":22002:22433   */\n      pop\n      pop\n        /* \"#utility.yul\":21987:22433   */\n    tag_500:\n        /* \"#utility.yul\":21897:22440   */\n      pop\n      pop\n      pop\n      jump\t// out\n        /* \"#utility.yul\":22446:22563   */\n    tag_289:\n        /* \"#utility.yul\":22500:22508   */\n      0x00\n        /* \"#utility.yul\":22550:22555   */\n      dup3\n        /* \"#utility.yul\":22544:22548   */\n      dup3\n        /* \"#utility.yul\":22540:22556   */\n      shr\n        /* \"#utility.yul\":22519:22556   */\n      swap1\n      pop\n        /* \"#utility.yul\":22446:22563   */\n      swap3\n      swap2\n      pop\n      pop\n      jump\t// out\n        /* \"#utility.yul\":22569:22738   */\n    tag_290:\n        /* \"#utility.yul\":22613:22619   */\n      0x00\n        /* \"#utility.yul\":22646:22697   */\n      tag_508\n        /* \"#utility.yul\":22694:22695   */\n      0x00\n        /* \"#utility.yul\":22690:22696   */\n      not\n        /* \"#utility.yul\":22682:22687   */\n      dup5\n        /* \"#utility.yul\":22679:22680   */\n      0x08\n        /* \"#utility.yul\":22675:22688   */\n      mul\n        /* \"#utility.yul\":22646:22697   */\n      tag_289\n      jump\t// in\n    tag_508:\n        /* \"#utility.yul\":22642:22698   */\n      not\n        /* \"#utility.yul\":22727:22731   */\n      dup1\n        /* \"#utility.yul\":22721:22725   */\n      dup4\n        /* \"#utility.yul\":22717:22732   */\n      and\n        /* \"#utility.yul\":22707:22732   */\n      swap2\n      pop\n        /* \"#utility.yul\":22620:22738   */\n      pop\n        /* \"#utility.yul\":22569:22738   */\n      swap3\n      swap2\n      pop\n      pop\n      jump\t// out\n        /* \"#utility.yul\":22743:23038   */\n    tag_291:\n        /* \"#utility.yul\":22819:22823   */\n      0x00\n        /* \"#utility.yul\":22965:22994   */\n      tag_510\n        /* \"#utility.yul\":22990:22993   */\n      dup4\n        /* \"#utility.yul\":22984:22988   */\n      dup4\n        /* \"#utility.yul\":22965:22994   */\n      tag_290\n      jump\t// in\n    tag_510:\n        /* \"#utility.yul\":22957:22994   */\n      swap2\n      pop\n        /* \"#utility.yul\":23027:23030   */\n      dup3\n        /* \"#utility.yul\":23024:23025   */\n      0x02\n        /* \"#utility.yul\":23020:23031   */\n      mul\n        /* \"#utility.yul\":23014:23018   */\n      dup3\n        /* \"#utility.yul\":23011:23032   */\n      or\n        /* \"#utility.yul\":23003:23032   */\n      swap1\n      pop\n        /* \"#utility.yul\":22743:23038   */\n      swap3\n      swap2\n      pop\n      pop\n      jump\t// out\n        /* \"#utility.yul\":23043:24438   */\n    tag_85:\n        /* \"#utility.yul\":23160:23197   */\n      tag_512\n        /* \"#utility.yul\":23193:23196   */\n      dup3\n        /* \"#utility.yul\":23160:23197   */\n      tag_236\n      jump\t// in\n    tag_512:\n        /* \"#utility.yul\":23262:23280   */\n      0xffffffffffffffff\n        /* \"#utility.yul\":23254:23260   */\n      dup2\n        /* \"#utility.yul\":23251:23281   */\n      gt\n        /* \"#utility.yul\":23248:23304   */\n      iszero\n      tag_513\n      jumpi\n        /* \"#utility.yul\":23284:23302   */\n      tag_514\n      tag_80\n      jump\t// in\n    tag_514:\n        /* \"#utility.yul\":23248:23304   */\n    tag_513:\n        /* \"#utility.yul\":23328:23366   */\n      tag_515\n        /* \"#utility.yul\":23360:23364   */\n      dup3\n        /* \"#utility.yul\":23354:23365   */\n      sload\n        /* \"#utility.yul\":23328:23366   */\n      tag_60\n      jump\t// in\n    tag_515:\n        /* \"#utility.yul\":23413:23480   */\n      tag_516\n        /* \"#utility.yul\":23473:23479   */\n      dup3\n        /* \"#utility.yul\":23465:23471   */\n      dup3\n        /* \"#utility.yul\":23459:23463   */\n      dup6\n        /* \"#utility.yul\":23413:23480   */\n      tag_288\n      jump\t// in\n    tag_516:\n        /* \"#utility.yul\":23507:23508   */\n      0x00\n        /* \"#utility.yul\":23531:23535   */\n      0x20\n        /* \"#utility.yul\":23518:23535   */\n      swap1\n      pop\n        /* \"#utility.yul\":23563:23565   */\n      0x1f\n        /* \"#utility.yul\":23555:23561   */\n      dup4\n        /* \"#utility.yul\":23552:23566   */\n      gt\n        /* \"#utility.yul\":23580:23581   */\n      0x01\n        /* \"#utility.yul\":23575:24193   */\n      dup2\n      eq\n      tag_518\n      jumpi\n        /* \"#utility.yul\":24237:24238   */\n      0x00\n        /* \"#utility.yul\":24254:24260   */\n      dup5\n        /* \"#utility.yul\":24251:24328   */\n      iszero\n      tag_519\n      jumpi\n        /* \"#utility.yul\":24303:24312   */\n      dup3\n        /* \"#utility.yul\":24298:24301   */\n      dup8\n        /* \"#utility.yul\":24294:24313   */\n      add\n        /* \"#utility.yul\":24288:24314   */\n      mload\n        /* \"#utility.yul\":24279:24314   */\n      swap1\n      pop\n        /* \"#utility.yul\":24251:24328   */\n    tag_519:\n        /* \"#utility.yul\":24354:24421   */\n      tag_520\n        /* \"#utility.yul\":24414:24420   */\n      dup6\n        /* \"#utility.yul\":24407:24412   */\n      dup3\n        /* \"#utility.yul\":24354:24421   */\n      tag_291\n      jump\t// in\n    tag_520:\n        /* \"#utility.yul\":24348:24352   */\n      dup7\n        /* \"#utility.yul\":24341:24422   */\n      sstore\n        /* \"#utility.yul\":24210:24432   */\n      pop\n        /* \"#utility.yul\":23545:24432   */\n      jump(tag_517)\n        /* \"#utility.yul\":23575:24193   */\n    tag_518:\n        /* \"#utility.yul\":23627:23631   */\n      0x1f\n        /* \"#utility.yul\":23623:23632   */\n      not\n        /* \"#utility.yul\":23615:23621   */\n      dup5\n        /* \"#utility.yul\":23611:23633   */\n      and\n        /* \"#utility.yul\":23661:23698   */\n      tag_521\n        /* \"#utility.yul\":23693:23697   */\n      dup7\n        /* \"#utility.yul\":23661:23698   */\n      tag_277\n      jump\t// in\n    tag_521:\n        /* \"#utility.yul\":23720:23721   */\n      0x00\n        /* \"#utility.yul\":23734:23942   */\n    tag_522:\n        /* \"#utility.yul\":23748:23755   */\n      dup3\n        /* \"#utility.yul\":23745:23746   */\n      dup2\n        /* \"#utility.yul\":23742:23756   */\n      lt\n        /* \"#utility.yul\":23734:23942   */\n      iszero\n      tag_524\n      jumpi\n        /* \"#utility.yul\":23827:23836   */\n      dup5\n        /* \"#utility.yul\":23822:23825   */\n      dup10\n        /* \"#utility.yul\":23818:23837   */\n      add\n        /* \"#utility.yul\":23812:23838   */\n      mload\n        /* \"#utility.yul\":23804:23810   */\n      dup3\n        /* \"#utility.yul\":23797:23839   */\n      sstore\n        /* \"#utility.yul\":23878:23879   */\n      0x01\n        /* \"#utility.yul\":23870:23876   */\n      dup3\n        /* \"#utility.yul\":23866:23880   */\n      add\n        /* \"#utility.yul\":23856:23880   */\n      swap2\n      pop\n        /* \"#utility.yul\":23925:23927   */\n      0x20\n        /* \"#utility.yul\":23914:23923   */\n      dup6\n        /* \"#utility.yul\":23910:23928   */\n      add\n        /* \"#utility.yul\":23897:23928   */\n      swap5\n      pop\n        /* \"#utility.yul\":23771:23775   */\n      0x20\n        /* \"#utility.yul\":23768:23769   */\n      dup2\n        /* \"#utility.yul\":23764:23776   */\n      add\n        /* \"#utility.yul\":23759:23776   */\n      swap1\n      pop\n        /* \"#utility.yul\":23734:23942   */\n      jump(tag_522)\n    tag_524:\n        /* \"#utility.yul\":23970:23976   */\n      dup7\n        /* \"#utility.yul\":23961:23968   */\n      dup4\n        /* \"#utility.yul\":23958:23977   */\n      lt\n        /* \"#utility.yul\":23955:24134   */\n      iszero\n      tag_525\n      jumpi\n        /* \"#utility.yul\":24028:24037   */\n      dup5\n        /* \"#utility.yul\":24023:24026   */\n      dup10\n        /* \"#utility.yul\":24019:24038   */\n      add\n        /* \"#utility.yul\":24013:24039   */\n      mload\n        /* \"#utility.yul\":24071:24119   */\n      tag_526\n        /* \"#utility.yul\":24113:24117   */\n      0x1f\n        /* \"#utility.yul\":24105:24111   */\n      dup10\n        /* \"#utility.yul\":24101:24118   */\n      and\n        /* \"#utility.yul\":24090:24099   */\n      dup3\n        /* \"#utility.yul\":24071:24119   */\n      tag_290\n      jump\t// in\n    tag_526:\n        /* \"#utility.yul\":24063:24069   */\n      dup4\n        /* \"#utility.yul\":24056:24120   */\n      sstore\n        /* \"#utility.yul\":23978:24134   */\n      pop\n        /* \"#utility.yul\":23955:24134   */\n    tag_525:\n        /* \"#utility.yul\":24180:24181   */\n      0x01\n        /* \"#utility.yul\":24176:24177   */\n      0x02\n        /* \"#utility.yul\":24168:24174   */\n      dup9\n        /* \"#utility.yul\":24164:24178   */\n      mul\n        /* \"#utility.yul\":24160:24182   */\n      add\n        /* \"#utility.yul\":24154:24158   */\n      dup9\n        /* \"#utility.yul\":24147:24183   */\n      sstore\n        /* \"#utility.yul\":23582:24193   */\n      pop\n      pop\n      pop\n        /* \"#utility.yul\":23545:24432   */\n    tag_517:\n      pop\n        /* \"#utility.yul\":23135:24438   */\n      pop\n      pop\n      pop\n        /* \"#utility.yul\":23043:24438   */\n      pop\n      pop\n      jump\t// out\n        /* \"#utility.yul\":24444:24677   */\n    tag_91:\n        /* \"#utility.yul\":24483:24486   */\n      0x00\n        /* \"#utility.yul\":24506:24530   */\n      tag_528\n        /* \"#utility.yul\":24524:24529   */\n      dup3\n        /* \"#utility.yul\":24506:24530   */\n      tag_229\n      jump\t// in\n    tag_528:\n        /* \"#utility.yul\":24497:24530   */\n      swap2\n      pop\n        /* \"#utility.yul\":24552:24618   */\n      0xffffffffffffffffffffffffffffffffffffffffffffffffffffffffffffffff\n        /* \"#utility.yul\":24545:24550   */\n      dup3\n        /* \"#utility.yul\":24542:24619   */\n      sub\n        /* \"#utility.yul\":24539:24642   */\n      tag_529\n      jumpi\n        /* \"#utility.yul\":24622:24640   */\n      tag_530\n      tag_276\n      jump\t// in\n    tag_530:\n        /* \"#utility.yul\":24539:24642   */\n    tag_529:\n        /* \"#utility.yul\":24669:24670   */\n      0x01\n        /* \"#utility.yul\":24662:24667   */\n      dup3\n        /* \"#utility.yul\":24658:24671   */\n      add\n        /* \"#utility.yul\":24651:24671   */\n      swap1\n      pop\n        /* \"#utility.yul\":24444:24677   */\n      swap2\n      swap1\n      pop\n      jump\t// out\n        /* \"#utility.yul\":24683:24863   */\n    tag_104:\n        /* \"#utility.yul\":24731:24808   */\n      0x4e487b7100000000000000000000000000000000000000000000000000000000\n        /* \"#utility.yul\":24728:24729   */\n      0x00\n        /* \"#utility.yul\":24721:24809   */\n      mstore\n        /* \"#utility.yul\":24828:24832   */\n      0x32\n        /* \"#utility.yul\":24825:24826   */\n      0x04\n        /* \"#utility.yul\":24818:24833   */\n      mstore\n        /* \"#utility.yul\":24852:24856   */\n      0x24\n        /* \"#utility.yul\":24849:24850   */\n      0x00\n        /* \"#utility.yul\":24842:24857   */\n      revert\n        /* \"#utility.yul\":24869:25041   */\n    tag_292:\n        /* \"#utility.yul\":25009:25033   */\n      0x41756374696f6e20646f6573206e6f7420657869737400000000000000000000\n        /* \"#utility.yul\":25005:25006   */\n      0x00\n        /* \"#utility.yul\":24997:25003   */\n      dup3\n        /* \"#utility.yul\":24993:25007   */\n      add\n        /* \"#utility.yul\":24986:25034   */\n      mstore\n        /* \"#utility.yul\":24869:25041   */\n      pop\n      jump\t// out\n        /* \"#utility.yul\":25047:25413   */\n    tag_293:\n        /* \"#utility.yul\":25189:25192   */\n      0x00\n        /* \"#utility.yul\":25210:25277   */\n      tag_534\n        /* \"#utility.yul\":25274:25276   */\n      0x16\n        /* \"#utility.yul\":25269:25272   */\n      dup4\n        /* \"#utility.yul\":25210:25277   */\n      tag_237\n      jump\t// in\n    tag_534:\n        /* \"#utility.yul\":25203:25277   */\n      swap2\n      pop\n        /* \"#utility.yul\":25286:25379   */\n      tag_535\n        /* \"#utility.yul\":25375:25378   */\n      dup3\n        /* \"#utility.yul\":25286:25379   */\n      tag_292\n      jump\t// in\n    tag_535:\n        /* \"#utility.yul\":25404:25406   */\n      0x20\n        /* \"#utility.yul\":25399:25402   */\n      dup3\n        /* \"#utility.yul\":25395:25407   */\n      add\n        /* \"#utility.yul\":25388:25407   */\n      swap1\n      pop\n        /* \"#utility.yul\":25047:25413   */\n      swap2\n      swap1\n      pop\n      jump\t// out\n        /* \"#utility.yul\":25419:25838   */\n    tag_113:\n        /* \"#utility.yul\":25585:25589   */\n      0x00\n        /* \"#utility.yul\":25623:25625   */\n      0x20\n        /* \"#utility.yul\":25612:25621   */\n      dup3\n        /* \"#utility.yul\":25608:25626   */\n      add\n        /* \"#utility.yul\":25600:25626   */\n      swap1\n      pop\n        /* \"#utility.yul\":25672:25681   */\n      dup2\n        /* \"#utility.yul\":25666:25670   */\n      dup2\n        /* \"#utility.yul\":25662:25682   */\n      sub\n        /* \"#utility.yul\":25658:25659   */\n      0x00\n        /* \"#utility.yul\":25647:25656   */\n      dup4\n        /* \"#utility.yul\":25643:25660   */\n      add\n        /* \"#utility.yul\":25636:25683   */\n      mstore\n        /* \"#utility.yul\":25700:25831   */\n      tag_537\n        /* \"#utility.yul\":25826:25830   */\n      dup2\n        /* \"#utility.yul\":25700:25831   */\n      tag_293\n      jump\t// in\n    tag_537:\n        /* \"#utility.yul\":25692:25831   */\n      swap1\n      pop\n        /* \"#utility.yul\":25419:25838   */\n      swap2\n      swap1\n      pop\n      jump\t// out\n        /* \"#utility.yul\":25844:26009   */\n    tag_294:\n        /* \"#utility.yul\":25984:26001   */\n      0x41756374696f6e20657870697265640000000000000000000000000000000000\n        /* \"#utility.yul\":25980:25981   */\n      0x00\n        /* \"#utility.yul\":25972:25978   */\n      dup3\n        /* \"#utility.yul\":25968:25982   */\n      add\n        /* \"#utility.yul\":25961:26002   */\n      mstore\n        /* \"#utility.yul\":25844:26009   */\n      pop\n      jump\t// out\n        /* \"#utility.yul\":26015:26381   */\n    tag_295:\n        /* \"#utility.yul\":26157:26160   */\n      0x00\n        /* \"#utility.yul\":26178:26245   */\n      tag_540\n        /* \"#utility.yul\":26242:26244   */\n      0x0f\n        /* \"#utility.yul\":26237:26240   */\n      dup4\n        /* \"#utility.yul\":26178:26245   */\n      tag_237\n      jump\t// in\n    tag_540:\n        /* \"#utility.yul\":26171:26245   */\n      swap2\n      pop\n        /* \"#utility.yul\":26254:26347   */\n      tag_541\n        /* \"#utility.yul\":26343:26346   */\n      dup3\n        /* \"#utility.yul\":26254:26347   */\n      tag_294\n      jump\t// in\n    tag_541:\n        /* \"#utility.yul\":26372:26374   */\n      0x20\n        /* \"#utility.yul\":26367:26370   */\n      dup3\n        /* \"#utility.yul\":26363:26375   */\n      add\n        /* \"#utility.yul\":26356:26375   */\n      swap1\n      pop\n        /* \"#utility.yul\":26015:26381   */\n      swap2\n      swap1\n      pop\n      jump\t// out\n        /* \"#utility.yul\":26387:26806   */\n    tag_117:\n        /* \"#utility.yul\":26553:26557   */\n      0x00\n        /* \"#utility.yul\":26591:26593   */\n      0x20\n        /* \"#utility.yul\":26580:26589   */\n      dup3\n        /* \"#utility.yul\":26576:26594   */\n      add\n        /* \"#utility.yul\":26568:26594   */\n      swap1\n      pop\n        /* \"#utility.yul\":26640:26649   */\n      dup2\n        /* \"#utility.yul\":26634:26638   */\n      dup2\n        /* \"#utility.yul\":26630:26650   */\n      sub\n        /* \"#utility.yul\":26626:26627   */\n      0x00\n        /* \"#utility.yul\":26615:26624   */\n      dup4\n        /* \"#utility.yul\":26611:26628   */\n      add\n        /* \"#utility.yul\":26604:26651   */\n      mstore\n        /* \"#utility.yul\":26668:26799   */\n      tag_543\n        /* \"#utility.yul\":26794:26798   */\n      dup2\n        /* \"#utility.yul\":26668:26799   */\n      tag_295\n      jump\t// in\n    tag_543:\n        /* \"#utility.yul\":26660:26799   */\n      swap1\n      pop\n        /* \"#utility.yul\":26387:26806   */\n      swap2\n      swap1\n      pop\n      jump\t// out\n        /* \"#utility.yul\":26812:27103   */\n    tag_296:\n        /* \"#utility.yul\":26952:26986   */\n      0x50726963652073686f756c642062652067726561746572207468616e206d696e\n        /* \"#utility.yul\":26948:26949   */\n      0x00\n        /* \"#utility.yul\":26940:26946   */\n      dup3\n        /* \"#utility.yul\":26936:26950   */\n      add\n        /* \"#utility.yul\":26929:26987   */\n      mstore\n        /* \"#utility.yul\":27021:27055   */\n      0x696d756d206f6666657220707269636520616e64207468652062657374206f66\n        /* \"#utility.yul\":27016:27018   */\n      0x20\n        /* \"#utility.yul\":27008:27014   */\n      dup3\n        /* \"#utility.yul\":27004:27019   */\n      add\n        /* \"#utility.yul\":26997:27056   */\n      mstore\n        /* \"#utility.yul\":27090:27095   */\n      0x6665720000000000000000000000000000000000000000000000000000000000\n        /* \"#utility.yul\":27085:27087   */\n      0x40\n        /* \"#utility.yul\":27077:27083   */\n      dup3\n        /* \"#utility.yul\":27073:27088   */\n      add\n        /* \"#utility.yul\":27066:27096   */\n      mstore\n        /* \"#utility.yul\":26812:27103   */\n      pop\n      jump\t// out\n        /* \"#utility.yul\":27109:27475   */\n    tag_297:\n        /* \"#utility.yul\":27251:27254   */\n      0x00\n        /* \"#utility.yul\":27272:27339   */\n      tag_546\n        /* \"#utility.yul\":27336:27338   */\n      0x43\n        /* \"#utility.yul\":27331:27334   */\n      dup4\n        /* \"#utility.yul\":27272:27339   */\n      tag_237\n      jump\t// in\n    tag_546:\n        /* \"#utility.yul\":27265:27339   */\n      swap2\n      pop\n        /* \"#utility.yul\":27348:27441   */\n      tag_547\n        /* \"#utility.yul\":27437:27440   */\n      dup3\n        /* \"#utility.yul\":27348:27441   */\n      tag_296\n      jump\t// in\n    tag_547:\n        /* \"#utility.yul\":27466:27468   */\n      0x60\n        /* \"#utility.yul\":27461:27464   */\n      dup3\n        /* \"#utility.yul\":27457:27469   */\n      add\n        /* \"#utility.yul\":27450:27469   */\n      swap1\n      pop\n        /* \"#utility.yul\":27109:27475   */\n      swap2\n      swap1\n      pop\n      jump\t// out\n        /* \"#utility.yul\":27481:27900   */\n    tag_121:\n        /* \"#utility.yul\":27647:27651   */\n      0x00\n        /* \"#utility.yul\":27685:27687   */\n      0x20\n        /* \"#utility.yul\":27674:27683   */\n      dup3\n        /* \"#utility.yul\":27670:27688   */\n      add\n        /* \"#utility.yul\":27662:27688   */\n      swap1\n      pop\n        /* \"#utility.yul\":27734:27743   */\n      dup2\n        /* \"#utility.yul\":27728:27732   */\n      dup2\n        /* \"#utility.yul\":27724:27744   */\n      sub\n        /* \"#utility.yul\":27720:27721   */\n      0x00\n        /* \"#utility.yul\":27709:27718   */\n      dup4\n        /* \"#utility.yul\":27705:27722   */\n      add\n        /* \"#utility.yul\":27698:27745   */\n      mstore\n        /* \"#utility.yul\":27762:27893   */\n      tag_549\n        /* \"#utility.yul\":27888:27892   */\n      dup2\n        /* \"#utility.yul\":27762:27893   */\n      tag_297\n      jump\t// in\n    tag_549:\n        /* \"#utility.yul\":27754:27893   */\n      swap1\n      pop\n        /* \"#utility.yul\":27481:27900   */\n      swap2\n      swap1\n      pop\n      jump\t// out\n        /* \"#utility.yul\":27906:28097   */\n    tag_146:\n        /* \"#utility.yul\":27946:27950   */\n      0x00\n        /* \"#utility.yul\":27966:27986   */\n      tag_551\n        /* \"#utility.yul\":27984:27985   */\n      dup3\n        /* \"#utility.yul\":27966:27986   */\n      tag_229\n      jump\t// in\n    tag_551:\n        /* \"#utility.yul\":27961:27986   */\n      swap2\n      pop\n        /* \"#utility.yul\":28000:28020   */\n      tag_552\n        /* \"#utility.yul\":28018:28019   */\n      dup4\n        /* \"#utility.yul\":28000:28020   */\n      tag_229\n      jump\t// in\n    tag_552:\n        /* \"#utility.yul\":27995:28020   */\n      swap3\n      pop\n        /* \"#utility.yul\":28039:28040   */\n      dup3\n        /* \"#utility.yul\":28036:28037   */\n      dup3\n        /* \"#utility.yul\":28033:28041   */\n      lt\n        /* \"#utility.yul\":28030:28064   */\n      iszero\n      tag_553\n      jumpi\n        /* \"#utility.yul\":28044:28062   */\n      tag_554\n      tag_276\n      jump\t// in\n    tag_554:\n        /* \"#utility.yul\":28030:28064   */\n    tag_553:\n        /* \"#utility.yul\":28089:28090   */\n      dup3\n        /* \"#utility.yul\":28086:28087   */\n      dup3\n        /* \"#utility.yul\":28082:28091   */\n      sub\n        /* \"#utility.yul\":28074:28091   */\n      swap1\n      pop\n        /* \"#utility.yul\":27906:28097   */\n      swap3\n      swap2\n      pop\n      pop\n      jump\t// out\n        /* \"#utility.yul\":28103:28276   */\n    tag_298:\n        /* \"#utility.yul\":28243:28268   */\n      0x41756374696f6e206973207374696c6c20616374697665000000000000000000\n        /* \"#utility.yul\":28239:28240   */\n      0x00\n        /* \"#utility.yul\":28231:28237   */\n      dup3\n        /* \"#utility.yul\":28227:28241   */\n      add\n        /* \"#utility.yul\":28220:28269   */\n      mstore\n        /* \"#utility.yul\":28103:28276   */\n      pop\n      jump\t// out\n        /* \"#utility.yul\":28282:28648   */\n    tag_299:\n        /* \"#utility.yul\":28424:28427   */\n      0x00\n        /* \"#utility.yul\":28445:28512   */\n      tag_557\n        /* \"#utility.yul\":28509:28511   */\n      0x17\n        /* \"#utility.yul\":28504:28507   */\n      dup4\n        /* \"#utility.yul\":28445:28512   */\n      tag_237\n      jump\t// in\n    tag_557:\n        /* \"#utility.yul\":28438:28512   */\n      swap2\n      pop\n        /* \"#utility.yul\":28521:28614   */\n      tag_558\n        /* \"#utility.yul\":28610:28613   */\n      dup3\n        /* \"#utility.yul\":28521:28614   */\n      tag_298\n      jump\t// in\n    tag_558:\n        /* \"#utility.yul\":28639:28641   */\n      0x20\n        /* \"#utility.yul\":28634:28637   */\n      dup3\n        /* \"#utility.yul\":28630:28642   */\n      add\n        /* \"#utility.yul\":28623:28642   */\n      swap1\n      pop\n        /* \"#utility.yul\":28282:28648   */\n      swap2\n      swap1\n      pop\n      jump\t// out\n        /* \"#utility.yul\":28654:29073   */\n    tag_179:\n        /* \"#utility.yul\":28820:28824   */\n      0x00\n        /* \"#utility.yul\":28858:28860   */\n      0x20\n        /* \"#utility.yul\":28847:28856   */\n      dup3\n        /* \"#utility.yul\":28843:28861   */\n      add\n        /* \"#utility.yul\":28835:28861   */\n      swap1\n      pop\n        /* \"#utility.yul\":28907:28916   */\n      dup2\n        /* \"#utility.yul\":28901:28905   */\n      dup2\n        /* \"#utility.yul\":28897:28917   */\n      sub\n        /* \"#utility.yul\":28893:28894   */\n      0x00\n        /* \"#utility.yul\":28882:28891   */\n      dup4\n        /* \"#utility.yul\":28878:28895   */\n      add\n        /* \"#utility.yul\":28871:28918   */\n      mstore\n        /* \"#utility.yul\":28935:29066   */\n      tag_560\n        /* \"#utility.yul\":29061:29065   */\n      dup2\n        /* \"#utility.yul\":28935:29066   */\n      tag_299\n      jump\t// in\n    tag_560:\n        /* \"#utility.yul\":28927:29066   */\n      swap1\n      pop\n        /* \"#utility.yul\":28654:29073   */\n      swap2\n      swap1\n      pop\n      jump\t// out\n\n    auxdata: 0xa26469706673582212201effbc103d280ffdeca877f9961a74d071dbc8d50f8770007a7d3bacd23f4d5d64736f6c634300080f0033\n}\n",
				"bytecode": {
					"linkReferences": {},
					"object": "608060405260018055600160035534801561001957600080fd5b5061254f806100296000396000f3fe6080604052600436106100865760003560e01c8063a269993d11610059578063a269993d14610174578063c43ede1514610190578063d7c06919146101cd578063df1dd826146101f8578063ff3ad0b41461022157610086565b8063571a26a01461008b57806361e2db55146100ce578063661d2c2c146100f75780638a72ea6a14610134575b600080fd5b34801561009757600080fd5b506100b260048036038101906100ad91906116a0565b61025e565b6040516100c597969594939291906117b6565b60405180910390f35b3480156100da57600080fd5b506100f560048036038101906100f09190611898565b6103d0565b005b34801561010357600080fd5b5061011e6004803603810190610119919061196b565b6106f3565b60405161012b9190611aba565b60405180910390f35b34801561014057600080fd5b5061015b600480360381019061015691906116a0565b610894565b60405161016b9493929190611adc565b60405180910390f35b61018e600480360381019061018991906116a0565b6108e4565b005b34801561019c57600080fd5b506101b760048036038101906101b291906116a0565b610b76565b6040516101c49190611aba565b60405180910390f35b3480156101d957600080fd5b506101e2610d45565b6040516101ef9190611d9a565b60405180910390f35b34801561020457600080fd5b5061021f600480360381019061021a91906116a0565b61101a565b005b34801561022d57600080fd5b506102486004803603810190610243919061196b565b611236565b6040516102559190611d9a565b60405180910390f35b60006020528060005260406000206000915090508060000154908060010160009054906101000a900473ffffffffffffffffffffffffffffffffffffffff16908060020180546102ad90611deb565b80601f01602080910402602001604051908101604052809291908181526020018280546102d990611deb565b80156103265780601f106102fb57610100808354040283529160200191610326565b820191906000526020600020905b81548152906001019060200180831161030957829003601f168201915b50505050509080600301805461033b90611deb565b80601f016020809104026020016040519081016040528092919081815260200182805461036790611deb565b80156103b45780601f10610389576101008083540402835291602001916103b4565b820191906000526020600020905b81548152906001019060200180831161039757829003601f168201915b5050505050908060040154908060050154908060060154905087565b60008211610413576040517f08c379a000000000000000000000000000000000000000000000000000000000815260040161040a90611e8e565b60405180910390fd5b6201518081101580156104295750620d2f008111155b610468576040517f08c379a000000000000000000000000000000000000000000000000000000000815260040161045f90611f20565b60405180910390fd5b60008067ffffffffffffffff81111561048457610483611f40565b5b6040519080825280602002602001820160405280156104b25781602001602082028036833780820191505090505b50905060405180610100016040528060015481526020013373ffffffffffffffffffffffffffffffffffffffff16815260200188888080601f016020809104026020016040519081016040528093929190818152602001838380828437600081840152601f19601f82011690508083019250505050505050815260200186868080601f016020809104026020016040519081016040528093929190818152602001838380828437600081840152601f19601f820116905080830192505050505050508152602001848152602001834261058b9190611f9e565b8152602001600081526020018281525060008060015481526020019081526020016000206000820151816000015560208201518160010160006101000a81548173ffffffffffffffffffffffffffffffffffffffff021916908373ffffffffffffffffffffffffffffffffffffffff160217905550604082015181600201908161061591906121a0565b50606082015181600301908161062b91906121a0565b506080820151816004015560a0820151816005015560c0820151816006015560e082015181600701908051906020019061066692919061155d565b50905050600460003373ffffffffffffffffffffffffffffffffffffffff1673ffffffffffffffffffffffffffffffffffffffff1681526020019081526020016000206001549080600181540180825580915050600190039060005260206000200160009091909190915055600160008154809291906106e590612272565b919050555050505050505050565b60606000600560008473ffffffffffffffffffffffffffffffffffffffff1673ffffffffffffffffffffffffffffffffffffffff16815260200190815260200160002090506000818054905067ffffffffffffffff81111561075857610757611f40565b5b60405190808252806020026020018201604052801561079157816020015b61077e6115aa565b8152602001906001900390816107765790505b50905060005b82805490508110156108895760008382815481106107b8576107b76122ba565b5b906000526020600020015490506002600082815260200190815260200160002060405180608001604052908160008201548152602001600182015481526020016002820160009054906101000a900473ffffffffffffffffffffffffffffffffffffffff1673ffffffffffffffffffffffffffffffffffffffff1673ffffffffffffffffffffffffffffffffffffffff16815260200160038201548152505083838151811061086a576108696122ba565b5b602002602001018190525050808061088190612272565b915050610797565b508092505050919050565b60026020528060005260406000206000915090508060000154908060010154908060020160009054906101000a900473ffffffffffffffffffffffffffffffffffffffff16908060030154905084565b806000811180156108f6575060015481105b610935576040517f08c379a000000000000000000000000000000000000000000000000000000000815260040161092c90612335565b60405180910390fd5b6000806000848152602001908152602001600020905080600501544210610991576040517f08c379a0000000000000000000000000000000000000000000000000000000008152600401610988906123a1565b60405180910390fd5b600060026000836006015481526020019081526020016000209050816004015434101580156109c35750806003015434115b610a02576040517f08c379a00000000000000000000000000000000000000000000000000000000081526004016109f990612459565b60405180910390fd5b6003548260060181905550604051806080016040528060035481526020018581526020013373ffffffffffffffffffffffffffffffffffffffff16815260200134815250600260006003548152602001908152602001600020600082015181600001556020820151816001015560408201518160020160006101000a81548173ffffffffffffffffffffffffffffffffffffffff021916908373ffffffffffffffffffffffffffffffffffffffff16021790555060608201518160030155905050816007016003549080600181540180825580915050600190039060005260206000200160009091909190915055600560003373ffffffffffffffffffffffffffffffffffffffff1673ffffffffffffffffffffffffffffffffffffffff168152602001908152602001600020600354908060018154018082558091505060019003906000526020600020016000909190919091505560036000815480929190610b6b90612272565b919050555050505050565b606081600081118015610b8a575060015481105b610bc9576040517f08c379a0000000000000000000000000000000000000000000000000000000008152600401610bc090612335565b60405180910390fd5b6000806000858152602001908152602001600020905060008160070190506000818054905067ffffffffffffffff811115610c0757610c06611f40565b5b604051908082528060200260200182016040528015610c4057816020015b610c2d6115aa565b815260200190600190039081610c255790505b50905060005b8280549050811015610d38576000838281548110610c6757610c666122ba565b5b906000526020600020015490506002600082815260200190815260200160002060405180608001604052908160008201548152602001600182015481526020016002820160009054906101000a900473ffffffffffffffffffffffffffffffffffffffff1673ffffffffffffffffffffffffffffffffffffffff1673ffffffffffffffffffffffffffffffffffffffff168152602001600382015481525050838381518110610d1957610d186122ba565b5b6020026020010181905250508080610d3090612272565b915050610c46565b5080945050505050919050565b6060600060018054610d579190612479565b67ffffffffffffffff811115610d7057610d6f611f40565b5b604051908082528060200260200182016040528015610da957816020015b610d966115e8565b815260200190600190039081610d8e5790505b5090506000600190505b6001548110156110125760008082815260200190815260200160002060405180610100016040529081600082015481526020016001820160009054906101000a900473ffffffffffffffffffffffffffffffffffffffff1673ffffffffffffffffffffffffffffffffffffffff1673ffffffffffffffffffffffffffffffffffffffff168152602001600282018054610e4b90611deb565b80601f0160208091040260200160405190810160405280929190818152602001828054610e7790611deb565b8015610ec45780601f10610e9957610100808354040283529160200191610ec4565b820191906000526020600020905b815481529060010190602001808311610ea757829003601f168201915b50505050508152602001600382018054610edd90611deb565b80601f0160208091040260200160405190810160405280929190818152602001828054610f0990611deb565b8015610f565780601f10610f2b57610100808354040283529160200191610f56565b820191906000526020600020905b815481529060010190602001808311610f3957829003601f168201915b5050505050815260200160048201548152602001600582015481526020016006820154815260200160078201805480602002602001604051908101604052809291908181526020018280548015610fcc57602002820191906000526020600020905b815481526020019060010190808311610fb8575b50505050508152505082600183610fe39190612479565b81518110610ff457610ff36122ba565b5b6020026020010181905250808061100a90612272565b915050610db3565b508091505090565b8060008111801561102c575060015481105b61106b576040517f08c379a000000000000000000000000000000000000000000000000000000000815260040161106290612335565b60405180910390fd5b60008060008481526020019081526020016000209050600060026000836006015481526020019081526020016000209050816005015442116110e2576040517f08c379a00000000000000000000000000000000000000000000000000000000081526004016110d9906124f9565b60405180910390fd5b60005b82600701805490508110156111c057600083600701828154811061110c5761110b6122ba565b5b906000526020600020015490506000600260008381526020019081526020016000209050836000015482146111ab578060020160009054906101000a900473ffffffffffffffffffffffffffffffffffffffff1673ffffffffffffffffffffffffffffffffffffffff166108fc82600301549081150290604051600060405180830381858888f193505050501580156111a9573d6000803e3d6000fd5b505b505080806111b890612272565b9150506110e5565b508160010160009054906101000a900473ffffffffffffffffffffffffffffffffffffffff1673ffffffffffffffffffffffffffffffffffffffff166108fc82600301549081150290604051600060405180830381858888f1935050505015801561122f573d6000803e3d6000fd5b5050505050565b60606000600460008473ffffffffffffffffffffffffffffffffffffffff1673ffffffffffffffffffffffffffffffffffffffff16815260200190815260200160002090506000818054905067ffffffffffffffff81111561129b5761129a611f40565b5b6040519080825280602002602001820160405280156112d457816020015b6112c16115e8565b8152602001906001900390816112b95790505b50905060005b82805490508110156115525760008382815481106112fb576112fa6122ba565b5b9060005260206000200154905060008082815260200190815260200160002060405180610100016040529081600082015481526020016001820160009054906101000a900473ffffffffffffffffffffffffffffffffffffffff1673ffffffffffffffffffffffffffffffffffffffff1673ffffffffffffffffffffffffffffffffffffffff16815260200160028201805461139690611deb565b80601f01602080910402602001604051908101604052809291908181526020018280546113c290611deb565b801561140f5780601f106113e45761010080835404028352916020019161140f565b820191906000526020600020905b8154815290600101906020018083116113f257829003601f168201915b5050505050815260200160038201805461142890611deb565b80601f016020809104026020016040519081016040528092919081815260200182805461145490611deb565b80156114a15780601f10611476576101008083540402835291602001916114a1565b820191906000526020600020905b81548152906001019060200180831161148457829003601f168201915b505050505081526020016004820154815260200160058201548152602001600682015481526020016007820180548060200260200160405190810160405280929190818152602001828054801561151757602002820191906000526020600020905b815481526020019060010190808311611503575b505050505081525050838381518110611533576115326122ba565b5b602002602001018190525050808061154a90612272565b9150506112da565b508092505050919050565b828054828255906000526020600020908101928215611599579160200282015b8281111561159857825182559160200191906001019061157d565b5b5090506115a69190611643565b5090565b60405180608001604052806000815260200160008152602001600073ffffffffffffffffffffffffffffffffffffffff168152602001600081525090565b60405180610100016040528060008152602001600073ffffffffffffffffffffffffffffffffffffffff1681526020016060815260200160608152602001600081526020016000815260200160008152602001606081525090565b5b8082111561165c576000816000905550600101611644565b5090565b600080fd5b600080fd5b6000819050919050565b61167d8161166a565b811461168857600080fd5b50565b60008135905061169a81611674565b92915050565b6000602082840312156116b6576116b5611660565b5b60006116c48482850161168b565b91505092915050565b6116d68161166a565b82525050565b600073ffffffffffffffffffffffffffffffffffffffff82169050919050565b6000611707826116dc565b9050919050565b611717816116fc565b82525050565b600081519050919050565b600082825260208201905092915050565b60005b8381101561175757808201518184015260208101905061173c565b83811115611766576000848401525b50505050565b6000601f19601f8301169050919050565b60006117888261171d565b6117928185611728565b93506117a2818560208601611739565b6117ab8161176c565b840191505092915050565b600060e0820190506117cb600083018a6116cd565b6117d8602083018961170e565b81810360408301526117ea818861177d565b905081810360608301526117fe818761177d565b905061180d60808301866116cd565b61181a60a08301856116cd565b61182760c08301846116cd565b98975050505050505050565b600080fd5b600080fd5b600080fd5b60008083601f84011261185857611857611833565b5b8235905067ffffffffffffffff81111561187557611874611838565b5b6020830191508360018202830111156118915761189061183d565b5b9250929050565b600080600080600080608087890312156118b5576118b4611660565b5b600087013567ffffffffffffffff8111156118d3576118d2611665565b5b6118df89828a01611842565b9650965050602087013567ffffffffffffffff81111561190257611901611665565b5b61190e89828a01611842565b9450945050604061192189828a0161168b565b925050606061193289828a0161168b565b9150509295509295509295565b611948816116fc565b811461195357600080fd5b50565b6000813590506119658161193f565b92915050565b60006020828403121561198157611980611660565b5b600061198f84828501611956565b91505092915050565b600081519050919050565b600082825260208201905092915050565b6000819050602082019050919050565b6119cd8161166a565b82525050565b6119dc816116fc565b82525050565b6080820160008201516119f860008501826119c4565b506020820151611a0b60208501826119c4565b506040820151611a1e60408501826119d3565b506060820151611a3160608501826119c4565b50505050565b6000611a4383836119e2565b60808301905092915050565b6000602082019050919050565b6000611a6782611998565b611a7181856119a3565b9350611a7c836119b4565b8060005b83811015611aad578151611a948882611a37565b9750611a9f83611a4f565b925050600181019050611a80565b5085935050505092915050565b60006020820190508181036000830152611ad48184611a5c565b905092915050565b6000608082019050611af160008301876116cd565b611afe60208301866116cd565b611b0b604083018561170e565b611b1860608301846116cd565b95945050505050565b600081519050919050565b600082825260208201905092915050565b6000819050602082019050919050565b600082825260208201905092915050565b6000611b698261171d565b611b738185611b4d565b9350611b83818560208601611739565b611b8c8161176c565b840191505092915050565b600081519050919050565b600082825260208201905092915050565b6000819050602082019050919050565b6000611bcf83836119c4565b60208301905092915050565b6000602082019050919050565b6000611bf382611b97565b611bfd8185611ba2565b9350611c0883611bb3565b8060005b83811015611c39578151611c208882611bc3565b9750611c2b83611bdb565b925050600181019050611c0c565b5085935050505092915050565b600061010083016000830151611c5f60008601826119c4565b506020830151611c7260208601826119d3565b5060408301518482036040860152611c8a8282611b5e565b91505060608301518482036060860152611ca48282611b5e565b9150506080830151611cb960808601826119c4565b5060a0830151611ccc60a08601826119c4565b5060c0830151611cdf60c08601826119c4565b5060e083015184820360e0860152611cf78282611be8565b9150508091505092915050565b6000611d108383611c46565b905092915050565b6000602082019050919050565b6000611d3082611b21565b611d3a8185611b2c565b935083602082028501611d4c85611b3d565b8060005b85811015611d885784840389528151611d698582611d04565b9450611d7483611d18565b925060208a01995050600181019050611d50565b50829750879550505050505092915050565b60006020820190508181036000830152611db48184611d25565b905092915050565b7f4e487b7100000000000000000000000000000000000000000000000000000000600052602260045260246000fd5b60006002820490506001821680611e0357607f821691505b602082108103611e1657611e15611dbc565b5b50919050565b7f4d696e696d756d206f666665722070726963652073686f756c6420626520677260008201527f6561746572207468616e20300000000000000000000000000000000000000000602082015250565b6000611e78602c83611728565b9150611e8382611e1c565b604082019050919050565b60006020820190508181036000830152611ea781611e6b565b9050919050565b7f4475726174696f6e2073686f756c64206265206265747765656e203120746f2060008201527f3130206461797300000000000000000000000000000000000000000000000000602082015250565b6000611f0a602783611728565b9150611f1582611eae565b604082019050919050565b60006020820190508181036000830152611f3981611efd565b9050919050565b7f4e487b7100000000000000000000000000000000000000000000000000000000600052604160045260246000fd5b7f4e487b7100000000000000000000000000000000000000000000000000000000600052601160045260246000fd5b6000611fa98261166a565b9150611fb48361166a565b9250827fffffffffffffffffffffffffffffffffffffffffffffffffffffffffffffffff03821115611fe957611fe8611f6f565b5b828201905092915050565b60008190508160005260206000209050919050565b60006020601f8301049050919050565b600082821b905092915050565b6000600883026120567fffffffffffffffffffffffffffffffffffffffffffffffffffffffffffffffff82612019565b6120608683612019565b95508019841693508086168417925050509392505050565b6000819050919050565b600061209d6120986120938461166a565b612078565b61166a565b9050919050565b6000819050919050565b6120b783612082565b6120cb6120c3826120a4565b848454612026565b825550505050565b600090565b6120e06120d3565b6120eb8184846120ae565b505050565b5b8181101561210f576121046000826120d8565b6001810190506120f1565b5050565b601f8211156121545761212581611ff4565b61212e84612009565b8101602085101561213d578190505b61215161214985612009565b8301826120f0565b50505b505050565b600082821c905092915050565b600061217760001984600802612159565b1980831691505092915050565b60006121908383612166565b9150826002028217905092915050565b6121a98261171d565b67ffffffffffffffff8111156121c2576121c1611f40565b5b6121cc8254611deb565b6121d7828285612113565b600060209050601f83116001811461220a57600084156121f8578287015190505b6122028582612184565b86555061226a565b601f19841661221886611ff4565b60005b828110156122405784890151825560018201915060208501945060208101905061221b565b8683101561225d5784890151612259601f891682612166565b8355505b6001600288020188555050505b505050505050565b600061227d8261166a565b91507fffffffffffffffffffffffffffffffffffffffffffffffffffffffffffffffff82036122af576122ae611f6f565b5b600182019050919050565b7f4e487b7100000000000000000000000000000000000000000000000000000000600052603260045260246000fd5b7f41756374696f6e20646f6573206e6f7420657869737400000000000000000000600082015250565b600061231f601683611728565b915061232a826122e9565b602082019050919050565b6000602082019050818103600083015261234e81612312565b9050919050565b7f41756374696f6e20657870697265640000000000000000000000000000000000600082015250565b600061238b600f83611728565b915061239682612355565b602082019050919050565b600060208201905081810360008301526123ba8161237e565b9050919050565b7f50726963652073686f756c642062652067726561746572207468616e206d696e60008201527f696d756d206f6666657220707269636520616e64207468652062657374206f6660208201527f6665720000000000000000000000000000000000000000000000000000000000604082015250565b6000612443604383611728565b915061244e826123c1565b606082019050919050565b6000602082019050818103600083015261247281612436565b9050919050565b60006124848261166a565b915061248f8361166a565b9250828210156124a2576124a1611f6f565b5b828203905092915050565b7f41756374696f6e206973207374696c6c20616374697665000000000000000000600082015250565b60006124e3601783611728565b91506124ee826124ad565b602082019050919050565b60006020820190508181036000830152612512816124d6565b905091905056fea26469706673582212201effbc103d280ffdeca877f9961a74d071dbc8d50f8770007a7d3bacd23f4d5d64736f6c634300080f0033",
					"opcodes": "PUSH1 0x80 PUSH1 0x40 MSTORE PUSH1 0x1 DUP1 SSTORE PUSH1 0x1 PUSH1 0x3 SSTORE CALLVALUE DUP1 ISZERO PUSH2 0x19 JUMPI PUSH1 0x0 DUP1 REVERT JUMPDEST POP PUSH2 0x254F DUP1 PUSH2 0x29 PUSH1 0x0 CODECOPY PUSH1 0x0 RETURN INVALID PUSH1 0x80 PUSH1 0x40 MSTORE PUSH1 0x4 CALLDATASIZE LT PUSH2 0x86 JUMPI PUSH1 0x0 CALLDATALOAD PUSH1 0xE0 SHR DUP1 PUSH4 0xA269993D GT PUSH2 0x59 JUMPI DUP1 PUSH4 0xA269993D EQ PUSH2 0x174 JUMPI DUP1 PUSH4 0xC43EDE15 EQ PUSH2 0x190 JUMPI DUP1 PUSH4 0xD7C06919 EQ PUSH2 0x1CD JUMPI DUP1 PUSH4 0xDF1DD826 EQ PUSH2 0x1F8 JUMPI DUP1 PUSH4 0xFF3AD0B4 EQ PUSH2 0x221 JUMPI PUSH2 0x86 JUMP JUMPDEST DUP1 PUSH4 0x571A26A0 EQ PUSH2 0x8B JUMPI DUP1 PUSH4 0x61E2DB55 EQ PUSH2 0xCE JUMPI DUP1 PUSH4 0x661D2C2C EQ PUSH2 0xF7 JUMPI DUP1 PUSH4 0x8A72EA6A EQ PUSH2 0x134 JUMPI JUMPDEST PUSH1 0x0 DUP1 REVERT JUMPDEST CALLVALUE DUP1 ISZERO PUSH2 0x97 JUMPI PUSH1 0x0 DUP1 REVERT JUMPDEST POP PUSH2 0xB2 PUSH1 0x4 DUP1 CALLDATASIZE SUB DUP2 ADD SWAP1 PUSH2 0xAD SWAP2 SWAP1 PUSH2 0x16A0 JUMP JUMPDEST PUSH2 0x25E JUMP JUMPDEST PUSH1 0x40 MLOAD PUSH2 0xC5 SWAP8 SWAP7 SWAP6 SWAP5 SWAP4 SWAP3 SWAP2 SWAP1 PUSH2 0x17B6 JUMP JUMPDEST PUSH1 0x40 MLOAD DUP1 SWAP2 SUB SWAP1 RETURN JUMPDEST CALLVALUE DUP1 ISZERO PUSH2 0xDA JUMPI PUSH1 0x0 DUP1 REVERT JUMPDEST POP PUSH2 0xF5 PUSH1 0x4 DUP1 CALLDATASIZE SUB DUP2 ADD SWAP1 PUSH2 0xF0 SWAP2 SWAP1 PUSH2 0x1898 JUMP JUMPDEST PUSH2 0x3D0 JUMP JUMPDEST STOP JUMPDEST CALLVALUE DUP1 ISZERO PUSH2 0x103 JUMPI PUSH1 0x0 DUP1 REVERT JUMPDEST POP PUSH2 0x11E PUSH1 0x4 DUP1 CALLDATASIZE SUB DUP2 ADD SWAP1 PUSH2 0x119 SWAP2 SWAP1 PUSH2 0x196B JUMP JUMPDEST PUSH2 0x6F3 JUMP JUMPDEST PUSH1 0x40 MLOAD PUSH2 0x12B SWAP2 SWAP1 PUSH2 0x1ABA JUMP JUMPDEST PUSH1 0x40 MLOAD DUP1 SWAP2 SUB SWAP1 RETURN JUMPDEST CALLVALUE DUP1 ISZERO PUSH2 0x140 JUMPI PUSH1 0x0 DUP1 REVERT JUMPDEST POP PUSH2 0x15B PUSH1 0x4 DUP1 CALLDATASIZE SUB DUP2 ADD SWAP1 PUSH2 0x156 SWAP2 SWAP1 PUSH2 0x16A0 JUMP JUMPDEST PUSH2 0x894 JUMP JUMPDEST PUSH1 0x40 MLOAD PUSH2 0x16B SWAP5 SWAP4 SWAP3 SWAP2 SWAP1 PUSH2 0x1ADC JUMP JUMPDEST PUSH1 0x40 MLOAD DUP1 SWAP2 SUB SWAP1 RETURN JUMPDEST PUSH2 0x18E PUSH1 0x4 DUP1 CALLDATASIZE SUB DUP2 ADD SWAP1 PUSH2 0x189 SWAP2 SWAP1 PUSH2 0x16A0 JUMP JUMPDEST PUSH2 0x8E4 JUMP JUMPDEST STOP JUMPDEST CALLVALUE DUP1 ISZERO PUSH2 0x19C JUMPI PUSH1 0x0 DUP1 REVERT JUMPDEST POP PUSH2 0x1B7 PUSH1 0x4 DUP1 CALLDATASIZE SUB DUP2 ADD SWAP1 PUSH2 0x1B2 SWAP2 SWAP1 PUSH2 0x16A0 JUMP JUMPDEST PUSH2 0xB76 JUMP JUMPDEST PUSH1 0x40 MLOAD PUSH2 0x1C4 SWAP2 SWAP1 PUSH2 0x1ABA JUMP JUMPDEST PUSH1 0x40 MLOAD DUP1 SWAP2 SUB SWAP1 RETURN JUMPDEST CALLVALUE DUP1 ISZERO PUSH2 0x1D9 JUMPI PUSH1 0x0 DUP1 REVERT JUMPDEST POP PUSH2 0x1E2 PUSH2 0xD45 JUMP JUMPDEST PUSH1 0x40 MLOAD PUSH2 0x1EF SWAP2 SWAP1 PUSH2 0x1D9A JUMP JUMPDEST PUSH1 0x40 MLOAD DUP1 SWAP2 SUB SWAP1 RETURN JUMPDEST CALLVALUE DUP1 ISZERO PUSH2 0x204 JUMPI PUSH1 0x0 DUP1 REVERT JUMPDEST POP PUSH2 0x21F PUSH1 0x4 DUP1 CALLDATASIZE SUB DUP2 ADD SWAP1 PUSH2 0x21A SWAP2 SWAP1 PUSH2 0x16A0 JUMP JUMPDEST PUSH2 0x101A JUMP JUMPDEST STOP JUMPDEST CALLVALUE DUP1 ISZERO PUSH2 0x22D JUMPI PUSH1 0x0 DUP1 REVERT JUMPDEST POP PUSH2 0x248 PUSH1 0x4 DUP1 CALLDATASIZE SUB DUP2 ADD SWAP1 PUSH2 0x243 SWAP2 SWAP1 PUSH2 0x196B JUMP JUMPDEST PUSH2 0x1236 JUMP JUMPDEST PUSH1 0x40 MLOAD PUSH2 0x255 SWAP2 SWAP1 PUSH2 0x1D9A JUMP JUMPDEST PUSH1 0x40 MLOAD DUP1 SWAP2 SUB SWAP1 RETURN JUMPDEST PUSH1 0x0 PUSH1 0x20 MSTORE DUP1 PUSH1 0x0 MSTORE PUSH1 0x40 PUSH1 0x0 KECCAK256 PUSH1 0x0 SWAP2 POP SWAP1 POP DUP1 PUSH1 0x0 ADD SLOAD SWAP1 DUP1 PUSH1 0x1 ADD PUSH1 0x0 SWAP1 SLOAD SWAP1 PUSH2 0x100 EXP SWAP1 DIV PUSH20 0xFFFFFFFFFFFFFFFFFFFFFFFFFFFFFFFFFFFFFFFF AND SWAP1 DUP1 PUSH1 0x2 ADD DUP1 SLOAD PUSH2 0x2AD SWAP1 PUSH2 0x1DEB JUMP JUMPDEST DUP1 PUSH1 0x1F ADD PUSH1 0x20 DUP1 SWAP2 DIV MUL PUSH1 0x20 ADD PUSH1 0x40 MLOAD SWAP1 DUP2 ADD PUSH1 0x40 MSTORE DUP1 SWAP3 SWAP2 SWAP1 DUP2 DUP2 MSTORE PUSH1 0x20 ADD DUP3 DUP1 SLOAD PUSH2 0x2D9 SWAP1 PUSH2 0x1DEB JUMP JUMPDEST DUP1 ISZERO PUSH2 0x326 JUMPI DUP1 PUSH1 0x1F LT PUSH2 0x2FB JUMPI PUSH2 0x100 DUP1 DUP4 SLOAD DIV MUL DUP4 MSTORE SWAP2 PUSH1 0x20 ADD SWAP2 PUSH2 0x326 JUMP JUMPDEST DUP3 ADD SWAP2 SWAP1 PUSH1 0x0 MSTORE PUSH1 0x20 PUSH1 0x0 KECCAK256 SWAP1 JUMPDEST DUP2 SLOAD DUP2 MSTORE SWAP1 PUSH1 0x1 ADD SWAP1 PUSH1 0x20 ADD DUP1 DUP4 GT PUSH2 0x309 JUMPI DUP3 SWAP1 SUB PUSH1 0x1F AND DUP3 ADD SWAP2 JUMPDEST POP POP POP POP POP SWAP1 DUP1 PUSH1 0x3 ADD DUP1 SLOAD PUSH2 0x33B SWAP1 PUSH2 0x1DEB JUMP JUMPDEST DUP1 PUSH1 0x1F ADD PUSH1 0x20 DUP1 SWAP2 DIV MUL PUSH1 0x20 ADD PUSH1 0x40 MLOAD SWAP1 DUP2 ADD PUSH1 0x40 MSTORE DUP1 SWAP3 SWAP2 SWAP1 DUP2 DUP2 MSTORE PUSH1 0x20 ADD DUP3 DUP1 SLOAD PUSH2 0x367 SWAP1 PUSH2 0x1DEB JUMP JUMPDEST DUP1 ISZERO PUSH2 0x3B4 JUMPI DUP1 PUSH1 0x1F LT PUSH2 0x389 JUMPI PUSH2 0x100 DUP1 DUP4 SLOAD DIV MUL DUP4 MSTORE SWAP2 PUSH1 0x20 ADD SWAP2 PUSH2 0x3B4 JUMP JUMPDEST DUP3 ADD SWAP2 SWAP1 PUSH1 0x0 MSTORE PUSH1 0x20 PUSH1 0x0 KECCAK256 SWAP1 JUMPDEST DUP2 SLOAD DUP2 MSTORE SWAP1 PUSH1 0x1 ADD SWAP1 PUSH1 0x20 ADD DUP1 DUP4 GT PUSH2 0x397 JUMPI DUP3 SWAP1 SUB PUSH1 0x1F AND DUP3 ADD SWAP2 JUMPDEST POP POP POP POP POP SWAP1 DUP1 PUSH1 0x4 ADD SLOAD SWAP1 DUP1 PUSH1 0x5 ADD SLOAD SWAP1 DUP1 PUSH1 0x6 ADD SLOAD SWAP1 POP DUP8 JUMP JUMPDEST PUSH1 0x0 DUP3 GT PUSH2 0x413 JUMPI PUSH1 0x40 MLOAD PUSH32 0x8C379A000000000000000000000000000000000000000000000000000000000 DUP2 MSTORE PUSH1 0x4 ADD PUSH2 0x40A SWAP1 PUSH2 0x1E8E JUMP JUMPDEST PUSH1 0x40 MLOAD DUP1 SWAP2 SUB SWAP1 REVERT JUMPDEST PUSH3 0x15180 DUP2 LT ISZERO DUP1 ISZERO PUSH2 0x429 JUMPI POP PUSH3 0xD2F00 DUP2 GT ISZERO JUMPDEST PUSH2 0x468 JUMPI PUSH1 0x40 MLOAD PUSH32 0x8C379A000000000000000000000000000000000000000000000000000000000 DUP2 MSTORE PUSH1 0x4 ADD PUSH2 0x45F SWAP1 PUSH2 0x1F20 JUMP JUMPDEST PUSH1 0x40 MLOAD DUP1 SWAP2 SUB SWAP1 REVERT JUMPDEST PUSH1 0x0 DUP1 PUSH8 0xFFFFFFFFFFFFFFFF DUP2 GT ISZERO PUSH2 0x484 JUMPI PUSH2 0x483 PUSH2 0x1F40 JUMP JUMPDEST JUMPDEST PUSH1 0x40 MLOAD SWAP1 DUP1 DUP3 MSTORE DUP1 PUSH1 0x20 MUL PUSH1 0x20 ADD DUP3 ADD PUSH1 0x40 MSTORE DUP1 ISZERO PUSH2 0x4B2 JUMPI DUP2 PUSH1 0x20 ADD PUSH1 0x20 DUP3 MUL DUP1 CALLDATASIZE DUP4 CALLDATACOPY DUP1 DUP3 ADD SWAP2 POP POP SWAP1 POP JUMPDEST POP SWAP1 POP PUSH1 0x40 MLOAD DUP1 PUSH2 0x100 ADD PUSH1 0x40 MSTORE DUP1 PUSH1 0x1 SLOAD DUP2 MSTORE PUSH1 0x20 ADD CALLER PUSH20 0xFFFFFFFFFFFFFFFFFFFFFFFFFFFFFFFFFFFFFFFF AND DUP2 MSTORE PUSH1 0x20 ADD DUP9 DUP9 DUP1 DUP1 PUSH1 0x1F ADD PUSH1 0x20 DUP1 SWAP2 DIV MUL PUSH1 0x20 ADD PUSH1 0x40 MLOAD SWAP1 DUP2 ADD PUSH1 0x40 MSTORE DUP1 SWAP4 SWAP3 SWAP2 SWAP1 DUP2 DUP2 MSTORE PUSH1 0x20 ADD DUP4 DUP4 DUP1 DUP3 DUP5 CALLDATACOPY PUSH1 0x0 DUP2 DUP5 ADD MSTORE PUSH1 0x1F NOT PUSH1 0x1F DUP3 ADD AND SWAP1 POP DUP1 DUP4 ADD SWAP3 POP POP POP POP POP POP POP DUP2 MSTORE PUSH1 0x20 ADD DUP7 DUP7 DUP1 DUP1 PUSH1 0x1F ADD PUSH1 0x20 DUP1 SWAP2 DIV MUL PUSH1 0x20 ADD PUSH1 0x40 MLOAD SWAP1 DUP2 ADD PUSH1 0x40 MSTORE DUP1 SWAP4 SWAP3 SWAP2 SWAP1 DUP2 DUP2 MSTORE PUSH1 0x20 ADD DUP4 DUP4 DUP1 DUP3 DUP5 CALLDATACOPY PUSH1 0x0 DUP2 DUP5 ADD MSTORE PUSH1 0x1F NOT PUSH1 0x1F DUP3 ADD AND SWAP1 POP DUP1 DUP4 ADD SWAP3 POP POP POP POP POP POP POP DUP2 MSTORE PUSH1 0x20 ADD DUP5 DUP2 MSTORE PUSH1 0x20 ADD DUP4 TIMESTAMP PUSH2 0x58B SWAP2 SWAP1 PUSH2 0x1F9E JUMP JUMPDEST DUP2 MSTORE PUSH1 0x20 ADD PUSH1 0x0 DUP2 MSTORE PUSH1 0x20 ADD DUP3 DUP2 MSTORE POP PUSH1 0x0 DUP1 PUSH1 0x1 SLOAD DUP2 MSTORE PUSH1 0x20 ADD SWAP1 DUP2 MSTORE PUSH1 0x20 ADD PUSH1 0x0 KECCAK256 PUSH1 0x0 DUP3 ADD MLOAD DUP2 PUSH1 0x0 ADD SSTORE PUSH1 0x20 DUP3 ADD MLOAD DUP2 PUSH1 0x1 ADD PUSH1 0x0 PUSH2 0x100 EXP DUP2 SLOAD DUP2 PUSH20 0xFFFFFFFFFFFFFFFFFFFFFFFFFFFFFFFFFFFFFFFF MUL NOT AND SWAP1 DUP4 PUSH20 0xFFFFFFFFFFFFFFFFFFFFFFFFFFFFFFFFFFFFFFFF AND MUL OR SWAP1 SSTORE POP PUSH1 0x40 DUP3 ADD MLOAD DUP2 PUSH1 0x2 ADD SWAP1 DUP2 PUSH2 0x615 SWAP2 SWAP1 PUSH2 0x21A0 JUMP JUMPDEST POP PUSH1 0x60 DUP3 ADD MLOAD DUP2 PUSH1 0x3 ADD SWAP1 DUP2 PUSH2 0x62B SWAP2 SWAP1 PUSH2 0x21A0 JUMP JUMPDEST POP PUSH1 0x80 DUP3 ADD MLOAD DUP2 PUSH1 0x4 ADD SSTORE PUSH1 0xA0 DUP3 ADD MLOAD DUP2 PUSH1 0x5 ADD SSTORE PUSH1 0xC0 DUP3 ADD MLOAD DUP2 PUSH1 0x6 ADD SSTORE PUSH1 0xE0 DUP3 ADD MLOAD DUP2 PUSH1 0x7 ADD SWAP1 DUP1 MLOAD SWAP1 PUSH1 0x20 ADD SWAP1 PUSH2 0x666 SWAP3 SWAP2 SWAP1 PUSH2 0x155D JUMP JUMPDEST POP SWAP1 POP POP PUSH1 0x4 PUSH1 0x0 CALLER PUSH20 0xFFFFFFFFFFFFFFFFFFFFFFFFFFFFFFFFFFFFFFFF AND PUSH20 0xFFFFFFFFFFFFFFFFFFFFFFFFFFFFFFFFFFFFFFFF AND DUP2 MSTORE PUSH1 0x20 ADD SWAP1 DUP2 MSTORE PUSH1 0x20 ADD PUSH1 0x0 KECCAK256 PUSH1 0x1 SLOAD SWAP1 DUP1 PUSH1 0x1 DUP2 SLOAD ADD DUP1 DUP3 SSTORE DUP1 SWAP2 POP POP PUSH1 0x1 SWAP1 SUB SWAP1 PUSH1 0x0 MSTORE PUSH1 0x20 PUSH1 0x0 KECCAK256 ADD PUSH1 0x0 SWAP1 SWAP2 SWAP1 SWAP2 SWAP1 SWAP2 POP SSTORE PUSH1 0x1 PUSH1 0x0 DUP2 SLOAD DUP1 SWAP3 SWAP2 SWAP1 PUSH2 0x6E5 SWAP1 PUSH2 0x2272 JUMP JUMPDEST SWAP2 SWAP1 POP SSTORE POP POP POP POP POP POP POP POP JUMP JUMPDEST PUSH1 0x60 PUSH1 0x0 PUSH1 0x5 PUSH1 0x0 DUP5 PUSH20 0xFFFFFFFFFFFFFFFFFFFFFFFFFFFFFFFFFFFFFFFF AND PUSH20 0xFFFFFFFFFFFFFFFFFFFFFFFFFFFFFFFFFFFFFFFF AND DUP2 MSTORE PUSH1 0x20 ADD SWAP1 DUP2 MSTORE PUSH1 0x20 ADD PUSH1 0x0 KECCAK256 SWAP1 POP PUSH1 0x0 DUP2 DUP1 SLOAD SWAP1 POP PUSH8 0xFFFFFFFFFFFFFFFF DUP2 GT ISZERO PUSH2 0x758 JUMPI PUSH2 0x757 PUSH2 0x1F40 JUMP JUMPDEST JUMPDEST PUSH1 0x40 MLOAD SWAP1 DUP1 DUP3 MSTORE DUP1 PUSH1 0x20 MUL PUSH1 0x20 ADD DUP3 ADD PUSH1 0x40 MSTORE DUP1 ISZERO PUSH2 0x791 JUMPI DUP2 PUSH1 0x20 ADD JUMPDEST PUSH2 0x77E PUSH2 0x15AA JUMP JUMPDEST DUP2 MSTORE PUSH1 0x20 ADD SWAP1 PUSH1 0x1 SWAP1 SUB SWAP1 DUP2 PUSH2 0x776 JUMPI SWAP1 POP JUMPDEST POP SWAP1 POP PUSH1 0x0 JUMPDEST DUP3 DUP1 SLOAD SWAP1 POP DUP2 LT ISZERO PUSH2 0x889 JUMPI PUSH1 0x0 DUP4 DUP3 DUP2 SLOAD DUP2 LT PUSH2 0x7B8 JUMPI PUSH2 0x7B7 PUSH2 0x22BA JUMP JUMPDEST JUMPDEST SWAP1 PUSH1 0x0 MSTORE PUSH1 0x20 PUSH1 0x0 KECCAK256 ADD SLOAD SWAP1 POP PUSH1 0x2 PUSH1 0x0 DUP3 DUP2 MSTORE PUSH1 0x20 ADD SWAP1 DUP2 MSTORE PUSH1 0x20 ADD PUSH1 0x0 KECCAK256 PUSH1 0x40 MLOAD DUP1 PUSH1 0x80 ADD PUSH1 0x40 MSTORE SWAP1 DUP2 PUSH1 0x0 DUP3 ADD SLOAD DUP2 MSTORE PUSH1 0x20 ADD PUSH1 0x1 DUP3 ADD SLOAD DUP2 MSTORE PUSH1 0x20 ADD PUSH1 0x2 DUP3 ADD PUSH1 0x0 SWAP1 SLOAD SWAP1 PUSH2 0x100 EXP SWAP1 DIV PUSH20 0xFFFFFFFFFFFFFFFFFFFFFFFFFFFFFFFFFFFFFFFF AND PUSH20 0xFFFFFFFFFFFFFFFFFFFFFFFFFFFFFFFFFFFFFFFF AND PUSH20 0xFFFFFFFFFFFFFFFFFFFFFFFFFFFFFFFFFFFFFFFF AND DUP2 MSTORE PUSH1 0x20 ADD PUSH1 0x3 DUP3 ADD SLOAD DUP2 MSTORE POP POP DUP4 DUP4 DUP2 MLOAD DUP2 LT PUSH2 0x86A JUMPI PUSH2 0x869 PUSH2 0x22BA JUMP JUMPDEST JUMPDEST PUSH1 0x20 MUL PUSH1 0x20 ADD ADD DUP2 SWAP1 MSTORE POP POP DUP1 DUP1 PUSH2 0x881 SWAP1 PUSH2 0x2272 JUMP JUMPDEST SWAP2 POP POP PUSH2 0x797 JUMP JUMPDEST POP DUP1 SWAP3 POP POP POP SWAP2 SWAP1 POP JUMP JUMPDEST PUSH1 0x2 PUSH1 0x20 MSTORE DUP1 PUSH1 0x0 MSTORE PUSH1 0x40 PUSH1 0x0 KECCAK256 PUSH1 0x0 SWAP2 POP SWAP1 POP DUP1 PUSH1 0x0 ADD SLOAD SWAP1 DUP1 PUSH1 0x1 ADD SLOAD SWAP1 DUP1 PUSH1 0x2 ADD PUSH1 0x0 SWAP1 SLOAD SWAP1 PUSH2 0x100 EXP SWAP1 DIV PUSH20 0xFFFFFFFFFFFFFFFFFFFFFFFFFFFFFFFFFFFFFFFF AND SWAP1 DUP1 PUSH1 0x3 ADD SLOAD SWAP1 POP DUP5 JUMP JUMPDEST DUP1 PUSH1 0x0 DUP2 GT DUP1 ISZERO PUSH2 0x8F6 JUMPI POP PUSH1 0x1 SLOAD DUP2 LT JUMPDEST PUSH2 0x935 JUMPI PUSH1 0x40 MLOAD PUSH32 0x8C379A000000000000000000000000000000000000000000000000000000000 DUP2 MSTORE PUSH1 0x4 ADD PUSH2 0x92C SWAP1 PUSH2 0x2335 JUMP JUMPDEST PUSH1 0x40 MLOAD DUP1 SWAP2 SUB SWAP1 REVERT JUMPDEST PUSH1 0x0 DUP1 PUSH1 0x0 DUP5 DUP2 MSTORE PUSH1 0x20 ADD SWAP1 DUP2 MSTORE PUSH1 0x20 ADD PUSH1 0x0 KECCAK256 SWAP1 POP DUP1 PUSH1 0x5 ADD SLOAD TIMESTAMP LT PUSH2 0x991 JUMPI PUSH1 0x40 MLOAD PUSH32 0x8C379A000000000000000000000000000000000000000000000000000000000 DUP2 MSTORE PUSH1 0x4 ADD PUSH2 0x988 SWAP1 PUSH2 0x23A1 JUMP JUMPDEST PUSH1 0x40 MLOAD DUP1 SWAP2 SUB SWAP1 REVERT JUMPDEST PUSH1 0x0 PUSH1 0x2 PUSH1 0x0 DUP4 PUSH1 0x6 ADD SLOAD DUP2 MSTORE PUSH1 0x20 ADD SWAP1 DUP2 MSTORE PUSH1 0x20 ADD PUSH1 0x0 KECCAK256 SWAP1 POP DUP2 PUSH1 0x4 ADD SLOAD CALLVALUE LT ISZERO DUP1 ISZERO PUSH2 0x9C3 JUMPI POP DUP1 PUSH1 0x3 ADD SLOAD CALLVALUE GT JUMPDEST PUSH2 0xA02 JUMPI PUSH1 0x40 MLOAD PUSH32 0x8C379A000000000000000000000000000000000000000000000000000000000 DUP2 MSTORE PUSH1 0x4 ADD PUSH2 0x9F9 SWAP1 PUSH2 0x2459 JUMP JUMPDEST PUSH1 0x40 MLOAD DUP1 SWAP2 SUB SWAP1 REVERT JUMPDEST PUSH1 0x3 SLOAD DUP3 PUSH1 0x6 ADD DUP2 SWAP1 SSTORE POP PUSH1 0x40 MLOAD DUP1 PUSH1 0x80 ADD PUSH1 0x40 MSTORE DUP1 PUSH1 0x3 SLOAD DUP2 MSTORE PUSH1 0x20 ADD DUP6 DUP2 MSTORE PUSH1 0x20 ADD CALLER PUSH20 0xFFFFFFFFFFFFFFFFFFFFFFFFFFFFFFFFFFFFFFFF AND DUP2 MSTORE PUSH1 0x20 ADD CALLVALUE DUP2 MSTORE POP PUSH1 0x2 PUSH1 0x0 PUSH1 0x3 SLOAD DUP2 MSTORE PUSH1 0x20 ADD SWAP1 DUP2 MSTORE PUSH1 0x20 ADD PUSH1 0x0 KECCAK256 PUSH1 0x0 DUP3 ADD MLOAD DUP2 PUSH1 0x0 ADD SSTORE PUSH1 0x20 DUP3 ADD MLOAD DUP2 PUSH1 0x1 ADD SSTORE PUSH1 0x40 DUP3 ADD MLOAD DUP2 PUSH1 0x2 ADD PUSH1 0x0 PUSH2 0x100 EXP DUP2 SLOAD DUP2 PUSH20 0xFFFFFFFFFFFFFFFFFFFFFFFFFFFFFFFFFFFFFFFF MUL NOT AND SWAP1 DUP4 PUSH20 0xFFFFFFFFFFFFFFFFFFFFFFFFFFFFFFFFFFFFFFFF AND MUL OR SWAP1 SSTORE POP PUSH1 0x60 DUP3 ADD MLOAD DUP2 PUSH1 0x3 ADD SSTORE SWAP1 POP POP DUP2 PUSH1 0x7 ADD PUSH1 0x3 SLOAD SWAP1 DUP1 PUSH1 0x1 DUP2 SLOAD ADD DUP1 DUP3 SSTORE DUP1 SWAP2 POP POP PUSH1 0x1 SWAP1 SUB SWAP1 PUSH1 0x0 MSTORE PUSH1 0x20 PUSH1 0x0 KECCAK256 ADD PUSH1 0x0 SWAP1 SWAP2 SWAP1 SWAP2 SWAP1 SWAP2 POP SSTORE PUSH1 0x5 PUSH1 0x0 CALLER PUSH20 0xFFFFFFFFFFFFFFFFFFFFFFFFFFFFFFFFFFFFFFFF AND PUSH20 0xFFFFFFFFFFFFFFFFFFFFFFFFFFFFFFFFFFFFFFFF AND DUP2 MSTORE PUSH1 0x20 ADD SWAP1 DUP2 MSTORE PUSH1 0x20 ADD PUSH1 0x0 KECCAK256 PUSH1 0x3 SLOAD SWAP1 DUP1 PUSH1 0x1 DUP2 SLOAD ADD DUP1 DUP3 SSTORE DUP1 SWAP2 POP POP PUSH1 0x1 SWAP1 SUB SWAP1 PUSH1 0x0 MSTORE PUSH1 0x20 PUSH1 0x0 KECCAK256 ADD PUSH1 0x0 SWAP1 SWAP2 SWAP1 SWAP2 SWAP1 SWAP2 POP SSTORE PUSH1 0x3 PUSH1 0x0 DUP2 SLOAD DUP1 SWAP3 SWAP2 SWAP1 PUSH2 0xB6B SWAP1 PUSH2 0x2272 JUMP JUMPDEST SWAP2 SWAP1 POP SSTORE POP POP POP POP POP JUMP JUMPDEST PUSH1 0x60 DUP2 PUSH1 0x0 DUP2 GT DUP1 ISZERO PUSH2 0xB8A JUMPI POP PUSH1 0x1 SLOAD DUP2 LT JUMPDEST PUSH2 0xBC9 JUMPI PUSH1 0x40 MLOAD PUSH32 0x8C379A000000000000000000000000000000000000000000000000000000000 DUP2 MSTORE PUSH1 0x4 ADD PUSH2 0xBC0 SWAP1 PUSH2 0x2335 JUMP JUMPDEST PUSH1 0x40 MLOAD DUP1 SWAP2 SUB SWAP1 REVERT JUMPDEST PUSH1 0x0 DUP1 PUSH1 0x0 DUP6 DUP2 MSTORE PUSH1 0x20 ADD SWAP1 DUP2 MSTORE PUSH1 0x20 ADD PUSH1 0x0 KECCAK256 SWAP1 POP PUSH1 0x0 DUP2 PUSH1 0x7 ADD SWAP1 POP PUSH1 0x0 DUP2 DUP1 SLOAD SWAP1 POP PUSH8 0xFFFFFFFFFFFFFFFF DUP2 GT ISZERO PUSH2 0xC07 JUMPI PUSH2 0xC06 PUSH2 0x1F40 JUMP JUMPDEST JUMPDEST PUSH1 0x40 MLOAD SWAP1 DUP1 DUP3 MSTORE DUP1 PUSH1 0x20 MUL PUSH1 0x20 ADD DUP3 ADD PUSH1 0x40 MSTORE DUP1 ISZERO PUSH2 0xC40 JUMPI DUP2 PUSH1 0x20 ADD JUMPDEST PUSH2 0xC2D PUSH2 0x15AA JUMP JUMPDEST DUP2 MSTORE PUSH1 0x20 ADD SWAP1 PUSH1 0x1 SWAP1 SUB SWAP1 DUP2 PUSH2 0xC25 JUMPI SWAP1 POP JUMPDEST POP SWAP1 POP PUSH1 0x0 JUMPDEST DUP3 DUP1 SLOAD SWAP1 POP DUP2 LT ISZERO PUSH2 0xD38 JUMPI PUSH1 0x0 DUP4 DUP3 DUP2 SLOAD DUP2 LT PUSH2 0xC67 JUMPI PUSH2 0xC66 PUSH2 0x22BA JUMP JUMPDEST JUMPDEST SWAP1 PUSH1 0x0 MSTORE PUSH1 0x20 PUSH1 0x0 KECCAK256 ADD SLOAD SWAP1 POP PUSH1 0x2 PUSH1 0x0 DUP3 DUP2 MSTORE PUSH1 0x20 ADD SWAP1 DUP2 MSTORE PUSH1 0x20 ADD PUSH1 0x0 KECCAK256 PUSH1 0x40 MLOAD DUP1 PUSH1 0x80 ADD PUSH1 0x40 MSTORE SWAP1 DUP2 PUSH1 0x0 DUP3 ADD SLOAD DUP2 MSTORE PUSH1 0x20 ADD PUSH1 0x1 DUP3 ADD SLOAD DUP2 MSTORE PUSH1 0x20 ADD PUSH1 0x2 DUP3 ADD PUSH1 0x0 SWAP1 SLOAD SWAP1 PUSH2 0x100 EXP SWAP1 DIV PUSH20 0xFFFFFFFFFFFFFFFFFFFFFFFFFFFFFFFFFFFFFFFF AND PUSH20 0xFFFFFFFFFFFFFFFFFFFFFFFFFFFFFFFFFFFFFFFF AND PUSH20 0xFFFFFFFFFFFFFFFFFFFFFFFFFFFFFFFFFFFFFFFF AND DUP2 MSTORE PUSH1 0x20 ADD PUSH1 0x3 DUP3 ADD SLOAD DUP2 MSTORE POP POP DUP4 DUP4 DUP2 MLOAD DUP2 LT PUSH2 0xD19 JUMPI PUSH2 0xD18 PUSH2 0x22BA JUMP JUMPDEST JUMPDEST PUSH1 0x20 MUL PUSH1 0x20 ADD ADD DUP2 SWAP1 MSTORE POP POP DUP1 DUP1 PUSH2 0xD30 SWAP1 PUSH2 0x2272 JUMP JUMPDEST SWAP2 POP POP PUSH2 0xC46 JUMP JUMPDEST POP DUP1 SWAP5 POP POP POP POP POP SWAP2 SWAP1 POP JUMP JUMPDEST PUSH1 0x60 PUSH1 0x0 PUSH1 0x1 DUP1 SLOAD PUSH2 0xD57 SWAP2 SWAP1 PUSH2 0x2479 JUMP JUMPDEST PUSH8 0xFFFFFFFFFFFFFFFF DUP2 GT ISZERO PUSH2 0xD70 JUMPI PUSH2 0xD6F PUSH2 0x1F40 JUMP JUMPDEST JUMPDEST PUSH1 0x40 MLOAD SWAP1 DUP1 DUP3 MSTORE DUP1 PUSH1 0x20 MUL PUSH1 0x20 ADD DUP3 ADD PUSH1 0x40 MSTORE DUP1 ISZERO PUSH2 0xDA9 JUMPI DUP2 PUSH1 0x20 ADD JUMPDEST PUSH2 0xD96 PUSH2 0x15E8 JUMP JUMPDEST DUP2 MSTORE PUSH1 0x20 ADD SWAP1 PUSH1 0x1 SWAP1 SUB SWAP1 DUP2 PUSH2 0xD8E JUMPI SWAP1 POP JUMPDEST POP SWAP1 POP PUSH1 0x0 PUSH1 0x1 SWAP1 POP JUMPDEST PUSH1 0x1 SLOAD DUP2 LT ISZERO PUSH2 0x1012 JUMPI PUSH1 0x0 DUP1 DUP3 DUP2 MSTORE PUSH1 0x20 ADD SWAP1 DUP2 MSTORE PUSH1 0x20 ADD PUSH1 0x0 KECCAK256 PUSH1 0x40 MLOAD DUP1 PUSH2 0x100 ADD PUSH1 0x40 MSTORE SWAP1 DUP2 PUSH1 0x0 DUP3 ADD SLOAD DUP2 MSTORE PUSH1 0x20 ADD PUSH1 0x1 DUP3 ADD PUSH1 0x0 SWAP1 SLOAD SWAP1 PUSH2 0x100 EXP SWAP1 DIV PUSH20 0xFFFFFFFFFFFFFFFFFFFFFFFFFFFFFFFFFFFFFFFF AND PUSH20 0xFFFFFFFFFFFFFFFFFFFFFFFFFFFFFFFFFFFFFFFF AND PUSH20 0xFFFFFFFFFFFFFFFFFFFFFFFFFFFFFFFFFFFFFFFF AND DUP2 MSTORE PUSH1 0x20 ADD PUSH1 0x2 DUP3 ADD DUP1 SLOAD PUSH2 0xE4B SWAP1 PUSH2 0x1DEB JUMP JUMPDEST DUP1 PUSH1 0x1F ADD PUSH1 0x20 DUP1 SWAP2 DIV MUL PUSH1 0x20 ADD PUSH1 0x40 MLOAD SWAP1 DUP2 ADD PUSH1 0x40 MSTORE DUP1 SWAP3 SWAP2 SWAP1 DUP2 DUP2 MSTORE PUSH1 0x20 ADD DUP3 DUP1 SLOAD PUSH2 0xE77 SWAP1 PUSH2 0x1DEB JUMP JUMPDEST DUP1 ISZERO PUSH2 0xEC4 JUMPI DUP1 PUSH1 0x1F LT PUSH2 0xE99 JUMPI PUSH2 0x100 DUP1 DUP4 SLOAD DIV MUL DUP4 MSTORE SWAP2 PUSH1 0x20 ADD SWAP2 PUSH2 0xEC4 JUMP JUMPDEST DUP3 ADD SWAP2 SWAP1 PUSH1 0x0 MSTORE PUSH1 0x20 PUSH1 0x0 KECCAK256 SWAP1 JUMPDEST DUP2 SLOAD DUP2 MSTORE SWAP1 PUSH1 0x1 ADD SWAP1 PUSH1 0x20 ADD DUP1 DUP4 GT PUSH2 0xEA7 JUMPI DUP3 SWAP1 SUB PUSH1 0x1F AND DUP3 ADD SWAP2 JUMPDEST POP POP POP POP POP DUP2 MSTORE PUSH1 0x20 ADD PUSH1 0x3 DUP3 ADD DUP1 SLOAD PUSH2 0xEDD SWAP1 PUSH2 0x1DEB JUMP JUMPDEST DUP1 PUSH1 0x1F ADD PUSH1 0x20 DUP1 SWAP2 DIV MUL PUSH1 0x20 ADD PUSH1 0x40 MLOAD SWAP1 DUP2 ADD PUSH1 0x40 MSTORE DUP1 SWAP3 SWAP2 SWAP1 DUP2 DUP2 MSTORE PUSH1 0x20 ADD DUP3 DUP1 SLOAD PUSH2 0xF09 SWAP1 PUSH2 0x1DEB JUMP JUMPDEST DUP1 ISZERO PUSH2 0xF56 JUMPI DUP1 PUSH1 0x1F LT PUSH2 0xF2B JUMPI PUSH2 0x100 DUP1 DUP4 SLOAD DIV MUL DUP4 MSTORE SWAP2 PUSH1 0x20 ADD SWAP2 PUSH2 0xF56 JUMP JUMPDEST DUP3 ADD SWAP2 SWAP1 PUSH1 0x0 MSTORE PUSH1 0x20 PUSH1 0x0 KECCAK256 SWAP1 JUMPDEST DUP2 SLOAD DUP2 MSTORE SWAP1 PUSH1 0x1 ADD SWAP1 PUSH1 0x20 ADD DUP1 DUP4 GT PUSH2 0xF39 JUMPI DUP3 SWAP1 SUB PUSH1 0x1F AND DUP3 ADD SWAP2 JUMPDEST POP POP POP POP POP DUP2 MSTORE PUSH1 0x20 ADD PUSH1 0x4 DUP3 ADD SLOAD DUP2 MSTORE PUSH1 0x20 ADD PUSH1 0x5 DUP3 ADD SLOAD DUP2 MSTORE PUSH1 0x20 ADD PUSH1 0x6 DUP3 ADD SLOAD DUP2 MSTORE PUSH1 0x20 ADD PUSH1 0x7 DUP3 ADD DUP1 SLOAD DUP1 PUSH1 0x20 MUL PUSH1 0x20 ADD PUSH1 0x40 MLOAD SWAP1 DUP2 ADD PUSH1 0x40 MSTORE DUP1 SWAP3 SWAP2 SWAP1 DUP2 DUP2 MSTORE PUSH1 0x20 ADD DUP3 DUP1 SLOAD DUP1 ISZERO PUSH2 0xFCC JUMPI PUSH1 0x20 MUL DUP3 ADD SWAP2 SWAP1 PUSH1 0x0 MSTORE PUSH1 0x20 PUSH1 0x0 KECCAK256 SWAP1 JUMPDEST DUP2 SLOAD DUP2 MSTORE PUSH1 0x20 ADD SWAP1 PUSH1 0x1 ADD SWAP1 DUP1 DUP4 GT PUSH2 0xFB8 JUMPI JUMPDEST POP POP POP POP POP DUP2 MSTORE POP POP DUP3 PUSH1 0x1 DUP4 PUSH2 0xFE3 SWAP2 SWAP1 PUSH2 0x2479 JUMP JUMPDEST DUP2 MLOAD DUP2 LT PUSH2 0xFF4 JUMPI PUSH2 0xFF3 PUSH2 0x22BA JUMP JUMPDEST JUMPDEST PUSH1 0x20 MUL PUSH1 0x20 ADD ADD DUP2 SWAP1 MSTORE POP DUP1 DUP1 PUSH2 0x100A SWAP1 PUSH2 0x2272 JUMP JUMPDEST SWAP2 POP POP PUSH2 0xDB3 JUMP JUMPDEST POP DUP1 SWAP2 POP POP SWAP1 JUMP JUMPDEST DUP1 PUSH1 0x0 DUP2 GT DUP1 ISZERO PUSH2 0x102C JUMPI POP PUSH1 0x1 SLOAD DUP2 LT JUMPDEST PUSH2 0x106B JUMPI PUSH1 0x40 MLOAD PUSH32 0x8C379A000000000000000000000000000000000000000000000000000000000 DUP2 MSTORE PUSH1 0x4 ADD PUSH2 0x1062 SWAP1 PUSH2 0x2335 JUMP JUMPDEST PUSH1 0x40 MLOAD DUP1 SWAP2 SUB SWAP1 REVERT JUMPDEST PUSH1 0x0 DUP1 PUSH1 0x0 DUP5 DUP2 MSTORE PUSH1 0x20 ADD SWAP1 DUP2 MSTORE PUSH1 0x20 ADD PUSH1 0x0 KECCAK256 SWAP1 POP PUSH1 0x0 PUSH1 0x2 PUSH1 0x0 DUP4 PUSH1 0x6 ADD SLOAD DUP2 MSTORE PUSH1 0x20 ADD SWAP1 DUP2 MSTORE PUSH1 0x20 ADD PUSH1 0x0 KECCAK256 SWAP1 POP DUP2 PUSH1 0x5 ADD SLOAD TIMESTAMP GT PUSH2 0x10E2 JUMPI PUSH1 0x40 MLOAD PUSH32 0x8C379A000000000000000000000000000000000000000000000000000000000 DUP2 MSTORE PUSH1 0x4 ADD PUSH2 0x10D9 SWAP1 PUSH2 0x24F9 JUMP JUMPDEST PUSH1 0x40 MLOAD DUP1 SWAP2 SUB SWAP1 REVERT JUMPDEST PUSH1 0x0 JUMPDEST DUP3 PUSH1 0x7 ADD DUP1 SLOAD SWAP1 POP DUP2 LT ISZERO PUSH2 0x11C0 JUMPI PUSH1 0x0 DUP4 PUSH1 0x7 ADD DUP3 DUP2 SLOAD DUP2 LT PUSH2 0x110C JUMPI PUSH2 0x110B PUSH2 0x22BA JUMP JUMPDEST JUMPDEST SWAP1 PUSH1 0x0 MSTORE PUSH1 0x20 PUSH1 0x0 KECCAK256 ADD SLOAD SWAP1 POP PUSH1 0x0 PUSH1 0x2 PUSH1 0x0 DUP4 DUP2 MSTORE PUSH1 0x20 ADD SWAP1 DUP2 MSTORE PUSH1 0x20 ADD PUSH1 0x0 KECCAK256 SWAP1 POP DUP4 PUSH1 0x0 ADD SLOAD DUP3 EQ PUSH2 0x11AB JUMPI DUP1 PUSH1 0x2 ADD PUSH1 0x0 SWAP1 SLOAD SWAP1 PUSH2 0x100 EXP SWAP1 DIV PUSH20 0xFFFFFFFFFFFFFFFFFFFFFFFFFFFFFFFFFFFFFFFF AND PUSH20 0xFFFFFFFFFFFFFFFFFFFFFFFFFFFFFFFFFFFFFFFF AND PUSH2 0x8FC DUP3 PUSH1 0x3 ADD SLOAD SWAP1 DUP2 ISZERO MUL SWAP1 PUSH1 0x40 MLOAD PUSH1 0x0 PUSH1 0x40 MLOAD DUP1 DUP4 SUB DUP2 DUP6 DUP9 DUP9 CALL SWAP4 POP POP POP POP ISZERO DUP1 ISZERO PUSH2 0x11A9 JUMPI RETURNDATASIZE PUSH1 0x0 DUP1 RETURNDATACOPY RETURNDATASIZE PUSH1 0x0 REVERT JUMPDEST POP JUMPDEST POP POP DUP1 DUP1 PUSH2 0x11B8 SWAP1 PUSH2 0x2272 JUMP JUMPDEST SWAP2 POP POP PUSH2 0x10E5 JUMP JUMPDEST POP DUP2 PUSH1 0x1 ADD PUSH1 0x0 SWAP1 SLOAD SWAP1 PUSH2 0x100 EXP SWAP1 DIV PUSH20 0xFFFFFFFFFFFFFFFFFFFFFFFFFFFFFFFFFFFFFFFF AND PUSH20 0xFFFFFFFFFFFFFFFFFFFFFFFFFFFFFFFFFFFFFFFF AND PUSH2 0x8FC DUP3 PUSH1 0x3 ADD SLOAD SWAP1 DUP2 ISZERO MUL SWAP1 PUSH1 0x40 MLOAD PUSH1 0x0 PUSH1 0x40 MLOAD DUP1 DUP4 SUB DUP2 DUP6 DUP9 DUP9 CALL SWAP4 POP POP POP POP ISZERO DUP1 ISZERO PUSH2 0x122F JUMPI RETURNDATASIZE PUSH1 0x0 DUP1 RETURNDATACOPY RETURNDATASIZE PUSH1 0x0 REVERT JUMPDEST POP POP POP POP POP JUMP JUMPDEST PUSH1 0x60 PUSH1 0x0 PUSH1 0x4 PUSH1 0x0 DUP5 PUSH20 0xFFFFFFFFFFFFFFFFFFFFFFFFFFFFFFFFFFFFFFFF AND PUSH20 0xFFFFFFFFFFFFFFFFFFFFFFFFFFFFFFFFFFFFFFFF AND DUP2 MSTORE PUSH1 0x20 ADD SWAP1 DUP2 MSTORE PUSH1 0x20 ADD PUSH1 0x0 KECCAK256 SWAP1 POP PUSH1 0x0 DUP2 DUP1 SLOAD SWAP1 POP PUSH8 0xFFFFFFFFFFFFFFFF DUP2 GT ISZERO PUSH2 0x129B JUMPI PUSH2 0x129A PUSH2 0x1F40 JUMP JUMPDEST JUMPDEST PUSH1 0x40 MLOAD SWAP1 DUP1 DUP3 MSTORE DUP1 PUSH1 0x20 MUL PUSH1 0x20 ADD DUP3 ADD PUSH1 0x40 MSTORE DUP1 ISZERO PUSH2 0x12D4 JUMPI DUP2 PUSH1 0x20 ADD JUMPDEST PUSH2 0x12C1 PUSH2 0x15E8 JUMP JUMPDEST DUP2 MSTORE PUSH1 0x20 ADD SWAP1 PUSH1 0x1 SWAP1 SUB SWAP1 DUP2 PUSH2 0x12B9 JUMPI SWAP1 POP JUMPDEST POP SWAP1 POP PUSH1 0x0 JUMPDEST DUP3 DUP1 SLOAD SWAP1 POP DUP2 LT ISZERO PUSH2 0x1552 JUMPI PUSH1 0x0 DUP4 DUP3 DUP2 SLOAD DUP2 LT PUSH2 0x12FB JUMPI PUSH2 0x12FA PUSH2 0x22BA JUMP JUMPDEST JUMPDEST SWAP1 PUSH1 0x0 MSTORE PUSH1 0x20 PUSH1 0x0 KECCAK256 ADD SLOAD SWAP1 POP PUSH1 0x0 DUP1 DUP3 DUP2 MSTORE PUSH1 0x20 ADD SWAP1 DUP2 MSTORE PUSH1 0x20 ADD PUSH1 0x0 KECCAK256 PUSH1 0x40 MLOAD DUP1 PUSH2 0x100 ADD PUSH1 0x40 MSTORE SWAP1 DUP2 PUSH1 0x0 DUP3 ADD SLOAD DUP2 MSTORE PUSH1 0x20 ADD PUSH1 0x1 DUP3 ADD PUSH1 0x0 SWAP1 SLOAD SWAP1 PUSH2 0x100 EXP SWAP1 DIV PUSH20 0xFFFFFFFFFFFFFFFFFFFFFFFFFFFFFFFFFFFFFFFF AND PUSH20 0xFFFFFFFFFFFFFFFFFFFFFFFFFFFFFFFFFFFFFFFF AND PUSH20 0xFFFFFFFFFFFFFFFFFFFFFFFFFFFFFFFFFFFFFFFF AND DUP2 MSTORE PUSH1 0x20 ADD PUSH1 0x2 DUP3 ADD DUP1 SLOAD PUSH2 0x1396 SWAP1 PUSH2 0x1DEB JUMP JUMPDEST DUP1 PUSH1 0x1F ADD PUSH1 0x20 DUP1 SWAP2 DIV MUL PUSH1 0x20 ADD PUSH1 0x40 MLOAD SWAP1 DUP2 ADD PUSH1 0x40 MSTORE DUP1 SWAP3 SWAP2 SWAP1 DUP2 DUP2 MSTORE PUSH1 0x20 ADD DUP3 DUP1 SLOAD PUSH2 0x13C2 SWAP1 PUSH2 0x1DEB JUMP JUMPDEST DUP1 ISZERO PUSH2 0x140F JUMPI DUP1 PUSH1 0x1F LT PUSH2 0x13E4 JUMPI PUSH2 0x100 DUP1 DUP4 SLOAD DIV MUL DUP4 MSTORE SWAP2 PUSH1 0x20 ADD SWAP2 PUSH2 0x140F JUMP JUMPDEST DUP3 ADD SWAP2 SWAP1 PUSH1 0x0 MSTORE PUSH1 0x20 PUSH1 0x0 KECCAK256 SWAP1 JUMPDEST DUP2 SLOAD DUP2 MSTORE SWAP1 PUSH1 0x1 ADD SWAP1 PUSH1 0x20 ADD DUP1 DUP4 GT PUSH2 0x13F2 JUMPI DUP3 SWAP1 SUB PUSH1 0x1F AND DUP3 ADD SWAP2 JUMPDEST POP POP POP POP POP DUP2 MSTORE PUSH1 0x20 ADD PUSH1 0x3 DUP3 ADD DUP1 SLOAD PUSH2 0x1428 SWAP1 PUSH2 0x1DEB JUMP JUMPDEST DUP1 PUSH1 0x1F ADD PUSH1 0x20 DUP1 SWAP2 DIV MUL PUSH1 0x20 ADD PUSH1 0x40 MLOAD SWAP1 DUP2 ADD PUSH1 0x40 MSTORE DUP1 SWAP3 SWAP2 SWAP1 DUP2 DUP2 MSTORE PUSH1 0x20 ADD DUP3 DUP1 SLOAD PUSH2 0x1454 SWAP1 PUSH2 0x1DEB JUMP JUMPDEST DUP1 ISZERO PUSH2 0x14A1 JUMPI DUP1 PUSH1 0x1F LT PUSH2 0x1476 JUMPI PUSH2 0x100 DUP1 DUP4 SLOAD DIV MUL DUP4 MSTORE SWAP2 PUSH1 0x20 ADD SWAP2 PUSH2 0x14A1 JUMP JUMPDEST DUP3 ADD SWAP2 SWAP1 PUSH1 0x0 MSTORE PUSH1 0x20 PUSH1 0x0 KECCAK256 SWAP1 JUMPDEST DUP2 SLOAD DUP2 MSTORE SWAP1 PUSH1 0x1 ADD SWAP1 PUSH1 0x20 ADD DUP1 DUP4 GT PUSH2 0x1484 JUMPI DUP3 SWAP1 SUB PUSH1 0x1F AND DUP3 ADD SWAP2 JUMPDEST POP POP POP POP POP DUP2 MSTORE PUSH1 0x20 ADD PUSH1 0x4 DUP3 ADD SLOAD DUP2 MSTORE PUSH1 0x20 ADD PUSH1 0x5 DUP3 ADD SLOAD DUP2 MSTORE PUSH1 0x20 ADD PUSH1 0x6 DUP3 ADD SLOAD DUP2 MSTORE PUSH1 0x20 ADD PUSH1 0x7 DUP3 ADD DUP1 SLOAD DUP1 PUSH1 0x20 MUL PUSH1 0x20 ADD PUSH1 0x40 MLOAD SWAP1 DUP2 ADD PUSH1 0x40 MSTORE DUP1 SWAP3 SWAP2 SWAP1 DUP2 DUP2 MSTORE PUSH1 0x20 ADD DUP3 DUP1 SLOAD DUP1 ISZERO PUSH2 0x1517 JUMPI PUSH1 0x20 MUL DUP3 ADD SWAP2 SWAP1 PUSH1 0x0 MSTORE PUSH1 0x20 PUSH1 0x0 KECCAK256 SWAP1 JUMPDEST DUP2 SLOAD DUP2 MSTORE PUSH1 0x20 ADD SWAP1 PUSH1 0x1 ADD SWAP1 DUP1 DUP4 GT PUSH2 0x1503 JUMPI JUMPDEST POP POP POP POP POP DUP2 MSTORE POP POP DUP4 DUP4 DUP2 MLOAD DUP2 LT PUSH2 0x1533 JUMPI PUSH2 0x1532 PUSH2 0x22BA JUMP JUMPDEST JUMPDEST PUSH1 0x20 MUL PUSH1 0x20 ADD ADD DUP2 SWAP1 MSTORE POP POP DUP1 DUP1 PUSH2 0x154A SWAP1 PUSH2 0x2272 JUMP JUMPDEST SWAP2 POP POP PUSH2 0x12DA JUMP JUMPDEST POP DUP1 SWAP3 POP POP POP SWAP2 SWAP1 POP JUMP JUMPDEST DUP3 DUP1 SLOAD DUP3 DUP3 SSTORE SWAP1 PUSH1 0x0 MSTORE PUSH1 0x20 PUSH1 0x0 KECCAK256 SWAP1 DUP2 ADD SWAP3 DUP3 ISZERO PUSH2 0x1599 JUMPI SWAP2 PUSH1 0x20 MUL DUP3 ADD JUMPDEST DUP3 DUP2 GT ISZERO PUSH2 0x1598 JUMPI DUP3 MLOAD DUP3 SSTORE SWAP2 PUSH1 0x20 ADD SWAP2 SWAP1 PUSH1 0x1 ADD SWAP1 PUSH2 0x157D JUMP JUMPDEST JUMPDEST POP SWAP1 POP PUSH2 0x15A6 SWAP2 SWAP1 PUSH2 0x1643 JUMP JUMPDEST POP SWAP1 JUMP JUMPDEST PUSH1 0x40 MLOAD DUP1 PUSH1 0x80 ADD PUSH1 0x40 MSTORE DUP1 PUSH1 0x0 DUP2 MSTORE PUSH1 0x20 ADD PUSH1 0x0 DUP2 MSTORE PUSH1 0x20 ADD PUSH1 0x0 PUSH20 0xFFFFFFFFFFFFFFFFFFFFFFFFFFFFFFFFFFFFFFFF AND DUP2 MSTORE PUSH1 0x20 ADD PUSH1 0x0 DUP2 MSTORE POP SWAP1 JUMP JUMPDEST PUSH1 0x40 MLOAD DUP1 PUSH2 0x100 ADD PUSH1 0x40 MSTORE DUP1 PUSH1 0x0 DUP2 MSTORE PUSH1 0x20 ADD PUSH1 0x0 PUSH20 0xFFFFFFFFFFFFFFFFFFFFFFFFFFFFFFFFFFFFFFFF AND DUP2 MSTORE PUSH1 0x20 ADD PUSH1 0x60 DUP2 MSTORE PUSH1 0x20 ADD PUSH1 0x60 DUP2 MSTORE PUSH1 0x20 ADD PUSH1 0x0 DUP2 MSTORE PUSH1 0x20 ADD PUSH1 0x0 DUP2 MSTORE PUSH1 0x20 ADD PUSH1 0x0 DUP2 MSTORE PUSH1 0x20 ADD PUSH1 0x60 DUP2 MSTORE POP SWAP1 JUMP JUMPDEST JUMPDEST DUP1 DUP3 GT ISZERO PUSH2 0x165C JUMPI PUSH1 0x0 DUP2 PUSH1 0x0 SWAP1 SSTORE POP PUSH1 0x1 ADD PUSH2 0x1644 JUMP JUMPDEST POP SWAP1 JUMP JUMPDEST PUSH1 0x0 DUP1 REVERT JUMPDEST PUSH1 0x0 DUP1 REVERT JUMPDEST PUSH1 0x0 DUP2 SWAP1 POP SWAP2 SWAP1 POP JUMP JUMPDEST PUSH2 0x167D DUP2 PUSH2 0x166A JUMP JUMPDEST DUP2 EQ PUSH2 0x1688 JUMPI PUSH1 0x0 DUP1 REVERT JUMPDEST POP JUMP JUMPDEST PUSH1 0x0 DUP2 CALLDATALOAD SWAP1 POP PUSH2 0x169A DUP2 PUSH2 0x1674 JUMP JUMPDEST SWAP3 SWAP2 POP POP JUMP JUMPDEST PUSH1 0x0 PUSH1 0x20 DUP3 DUP5 SUB SLT ISZERO PUSH2 0x16B6 JUMPI PUSH2 0x16B5 PUSH2 0x1660 JUMP JUMPDEST JUMPDEST PUSH1 0x0 PUSH2 0x16C4 DUP5 DUP3 DUP6 ADD PUSH2 0x168B JUMP JUMPDEST SWAP2 POP POP SWAP3 SWAP2 POP POP JUMP JUMPDEST PUSH2 0x16D6 DUP2 PUSH2 0x166A JUMP JUMPDEST DUP3 MSTORE POP POP JUMP JUMPDEST PUSH1 0x0 PUSH20 0xFFFFFFFFFFFFFFFFFFFFFFFFFFFFFFFFFFFFFFFF DUP3 AND SWAP1 POP SWAP2 SWAP1 POP JUMP JUMPDEST PUSH1 0x0 PUSH2 0x1707 DUP3 PUSH2 0x16DC JUMP JUMPDEST SWAP1 POP SWAP2 SWAP1 POP JUMP JUMPDEST PUSH2 0x1717 DUP2 PUSH2 0x16FC JUMP JUMPDEST DUP3 MSTORE POP POP JUMP JUMPDEST PUSH1 0x0 DUP2 MLOAD SWAP1 POP SWAP2 SWAP1 POP JUMP JUMPDEST PUSH1 0x0 DUP3 DUP3 MSTORE PUSH1 0x20 DUP3 ADD SWAP1 POP SWAP3 SWAP2 POP POP JUMP JUMPDEST PUSH1 0x0 JUMPDEST DUP4 DUP2 LT ISZERO PUSH2 0x1757 JUMPI DUP1 DUP3 ADD MLOAD DUP2 DUP5 ADD MSTORE PUSH1 0x20 DUP2 ADD SWAP1 POP PUSH2 0x173C JUMP JUMPDEST DUP4 DUP2 GT ISZERO PUSH2 0x1766 JUMPI PUSH1 0x0 DUP5 DUP5 ADD MSTORE JUMPDEST POP POP POP POP JUMP JUMPDEST PUSH1 0x0 PUSH1 0x1F NOT PUSH1 0x1F DUP4 ADD AND SWAP1 POP SWAP2 SWAP1 POP JUMP JUMPDEST PUSH1 0x0 PUSH2 0x1788 DUP3 PUSH2 0x171D JUMP JUMPDEST PUSH2 0x1792 DUP2 DUP6 PUSH2 0x1728 JUMP JUMPDEST SWAP4 POP PUSH2 0x17A2 DUP2 DUP6 PUSH1 0x20 DUP7 ADD PUSH2 0x1739 JUMP JUMPDEST PUSH2 0x17AB DUP2 PUSH2 0x176C JUMP JUMPDEST DUP5 ADD SWAP2 POP POP SWAP3 SWAP2 POP POP JUMP JUMPDEST PUSH1 0x0 PUSH1 0xE0 DUP3 ADD SWAP1 POP PUSH2 0x17CB PUSH1 0x0 DUP4 ADD DUP11 PUSH2 0x16CD JUMP JUMPDEST PUSH2 0x17D8 PUSH1 0x20 DUP4 ADD DUP10 PUSH2 0x170E JUMP JUMPDEST DUP2 DUP2 SUB PUSH1 0x40 DUP4 ADD MSTORE PUSH2 0x17EA DUP2 DUP9 PUSH2 0x177D JUMP JUMPDEST SWAP1 POP DUP2 DUP2 SUB PUSH1 0x60 DUP4 ADD MSTORE PUSH2 0x17FE DUP2 DUP8 PUSH2 0x177D JUMP JUMPDEST SWAP1 POP PUSH2 0x180D PUSH1 0x80 DUP4 ADD DUP7 PUSH2 0x16CD JUMP JUMPDEST PUSH2 0x181A PUSH1 0xA0 DUP4 ADD DUP6 PUSH2 0x16CD JUMP JUMPDEST PUSH2 0x1827 PUSH1 0xC0 DUP4 ADD DUP5 PUSH2 0x16CD JUMP JUMPDEST SWAP9 SWAP8 POP POP POP POP POP POP POP POP JUMP JUMPDEST PUSH1 0x0 DUP1 REVERT JUMPDEST PUSH1 0x0 DUP1 REVERT JUMPDEST PUSH1 0x0 DUP1 REVERT JUMPDEST PUSH1 0x0 DUP1 DUP4 PUSH1 0x1F DUP5 ADD SLT PUSH2 0x1858 JUMPI PUSH2 0x1857 PUSH2 0x1833 JUMP JUMPDEST JUMPDEST DUP3 CALLDATALOAD SWAP1 POP PUSH8 0xFFFFFFFFFFFFFFFF DUP2 GT ISZERO PUSH2 0x1875 JUMPI PUSH2 0x1874 PUSH2 0x1838 JUMP JUMPDEST JUMPDEST PUSH1 0x20 DUP4 ADD SWAP2 POP DUP4 PUSH1 0x1 DUP3 MUL DUP4 ADD GT ISZERO PUSH2 0x1891 JUMPI PUSH2 0x1890 PUSH2 0x183D JUMP JUMPDEST JUMPDEST SWAP3 POP SWAP3 SWAP1 POP JUMP JUMPDEST PUSH1 0x0 DUP1 PUSH1 0x0 DUP1 PUSH1 0x0 DUP1 PUSH1 0x80 DUP8 DUP10 SUB SLT ISZERO PUSH2 0x18B5 JUMPI PUSH2 0x18B4 PUSH2 0x1660 JUMP JUMPDEST JUMPDEST PUSH1 0x0 DUP8 ADD CALLDATALOAD PUSH8 0xFFFFFFFFFFFFFFFF DUP2 GT ISZERO PUSH2 0x18D3 JUMPI PUSH2 0x18D2 PUSH2 0x1665 JUMP JUMPDEST JUMPDEST PUSH2 0x18DF DUP10 DUP3 DUP11 ADD PUSH2 0x1842 JUMP JUMPDEST SWAP7 POP SWAP7 POP POP PUSH1 0x20 DUP8 ADD CALLDATALOAD PUSH8 0xFFFFFFFFFFFFFFFF DUP2 GT ISZERO PUSH2 0x1902 JUMPI PUSH2 0x1901 PUSH2 0x1665 JUMP JUMPDEST JUMPDEST PUSH2 0x190E DUP10 DUP3 DUP11 ADD PUSH2 0x1842 JUMP JUMPDEST SWAP5 POP SWAP5 POP POP PUSH1 0x40 PUSH2 0x1921 DUP10 DUP3 DUP11 ADD PUSH2 0x168B JUMP JUMPDEST SWAP3 POP POP PUSH1 0x60 PUSH2 0x1932 DUP10 DUP3 DUP11 ADD PUSH2 0x168B JUMP JUMPDEST SWAP2 POP POP SWAP3 SWAP6 POP SWAP3 SWAP6 POP SWAP3 SWAP6 JUMP JUMPDEST PUSH2 0x1948 DUP2 PUSH2 0x16FC JUMP JUMPDEST DUP2 EQ PUSH2 0x1953 JUMPI PUSH1 0x0 DUP1 REVERT JUMPDEST POP JUMP JUMPDEST PUSH1 0x0 DUP2 CALLDATALOAD SWAP1 POP PUSH2 0x1965 DUP2 PUSH2 0x193F JUMP JUMPDEST SWAP3 SWAP2 POP POP JUMP JUMPDEST PUSH1 0x0 PUSH1 0x20 DUP3 DUP5 SUB SLT ISZERO PUSH2 0x1981 JUMPI PUSH2 0x1980 PUSH2 0x1660 JUMP JUMPDEST JUMPDEST PUSH1 0x0 PUSH2 0x198F DUP5 DUP3 DUP6 ADD PUSH2 0x1956 JUMP JUMPDEST SWAP2 POP POP SWAP3 SWAP2 POP POP JUMP JUMPDEST PUSH1 0x0 DUP2 MLOAD SWAP1 POP SWAP2 SWAP1 POP JUMP JUMPDEST PUSH1 0x0 DUP3 DUP3 MSTORE PUSH1 0x20 DUP3 ADD SWAP1 POP SWAP3 SWAP2 POP POP JUMP JUMPDEST PUSH1 0x0 DUP2 SWAP1 POP PUSH1 0x20 DUP3 ADD SWAP1 POP SWAP2 SWAP1 POP JUMP JUMPDEST PUSH2 0x19CD DUP2 PUSH2 0x166A JUMP JUMPDEST DUP3 MSTORE POP POP JUMP JUMPDEST PUSH2 0x19DC DUP2 PUSH2 0x16FC JUMP JUMPDEST DUP3 MSTORE POP POP JUMP JUMPDEST PUSH1 0x80 DUP3 ADD PUSH1 0x0 DUP3 ADD MLOAD PUSH2 0x19F8 PUSH1 0x0 DUP6 ADD DUP3 PUSH2 0x19C4 JUMP JUMPDEST POP PUSH1 0x20 DUP3 ADD MLOAD PUSH2 0x1A0B PUSH1 0x20 DUP6 ADD DUP3 PUSH2 0x19C4 JUMP JUMPDEST POP PUSH1 0x40 DUP3 ADD MLOAD PUSH2 0x1A1E PUSH1 0x40 DUP6 ADD DUP3 PUSH2 0x19D3 JUMP JUMPDEST POP PUSH1 0x60 DUP3 ADD MLOAD PUSH2 0x1A31 PUSH1 0x60 DUP6 ADD DUP3 PUSH2 0x19C4 JUMP JUMPDEST POP POP POP POP JUMP JUMPDEST PUSH1 0x0 PUSH2 0x1A43 DUP4 DUP4 PUSH2 0x19E2 JUMP JUMPDEST PUSH1 0x80 DUP4 ADD SWAP1 POP SWAP3 SWAP2 POP POP JUMP JUMPDEST PUSH1 0x0 PUSH1 0x20 DUP3 ADD SWAP1 POP SWAP2 SWAP1 POP JUMP JUMPDEST PUSH1 0x0 PUSH2 0x1A67 DUP3 PUSH2 0x1998 JUMP JUMPDEST PUSH2 0x1A71 DUP2 DUP6 PUSH2 0x19A3 JUMP JUMPDEST SWAP4 POP PUSH2 0x1A7C DUP4 PUSH2 0x19B4 JUMP JUMPDEST DUP1 PUSH1 0x0 JUMPDEST DUP4 DUP2 LT ISZERO PUSH2 0x1AAD JUMPI DUP2 MLOAD PUSH2 0x1A94 DUP9 DUP3 PUSH2 0x1A37 JUMP JUMPDEST SWAP8 POP PUSH2 0x1A9F DUP4 PUSH2 0x1A4F JUMP JUMPDEST SWAP3 POP POP PUSH1 0x1 DUP2 ADD SWAP1 POP PUSH2 0x1A80 JUMP JUMPDEST POP DUP6 SWAP4 POP POP POP POP SWAP3 SWAP2 POP POP JUMP JUMPDEST PUSH1 0x0 PUSH1 0x20 DUP3 ADD SWAP1 POP DUP2 DUP2 SUB PUSH1 0x0 DUP4 ADD MSTORE PUSH2 0x1AD4 DUP2 DUP5 PUSH2 0x1A5C JUMP JUMPDEST SWAP1 POP SWAP3 SWAP2 POP POP JUMP JUMPDEST PUSH1 0x0 PUSH1 0x80 DUP3 ADD SWAP1 POP PUSH2 0x1AF1 PUSH1 0x0 DUP4 ADD DUP8 PUSH2 0x16CD JUMP JUMPDEST PUSH2 0x1AFE PUSH1 0x20 DUP4 ADD DUP7 PUSH2 0x16CD JUMP JUMPDEST PUSH2 0x1B0B PUSH1 0x40 DUP4 ADD DUP6 PUSH2 0x170E JUMP JUMPDEST PUSH2 0x1B18 PUSH1 0x60 DUP4 ADD DUP5 PUSH2 0x16CD JUMP JUMPDEST SWAP6 SWAP5 POP POP POP POP POP JUMP JUMPDEST PUSH1 0x0 DUP2 MLOAD SWAP1 POP SWAP2 SWAP1 POP JUMP JUMPDEST PUSH1 0x0 DUP3 DUP3 MSTORE PUSH1 0x20 DUP3 ADD SWAP1 POP SWAP3 SWAP2 POP POP JUMP JUMPDEST PUSH1 0x0 DUP2 SWAP1 POP PUSH1 0x20 DUP3 ADD SWAP1 POP SWAP2 SWAP1 POP JUMP JUMPDEST PUSH1 0x0 DUP3 DUP3 MSTORE PUSH1 0x20 DUP3 ADD SWAP1 POP SWAP3 SWAP2 POP POP JUMP JUMPDEST PUSH1 0x0 PUSH2 0x1B69 DUP3 PUSH2 0x171D JUMP JUMPDEST PUSH2 0x1B73 DUP2 DUP6 PUSH2 0x1B4D JUMP JUMPDEST SWAP4 POP PUSH2 0x1B83 DUP2 DUP6 PUSH1 0x20 DUP7 ADD PUSH2 0x1739 JUMP JUMPDEST PUSH2 0x1B8C DUP2 PUSH2 0x176C JUMP JUMPDEST DUP5 ADD SWAP2 POP POP SWAP3 SWAP2 POP POP JUMP JUMPDEST PUSH1 0x0 DUP2 MLOAD SWAP1 POP SWAP2 SWAP1 POP JUMP JUMPDEST PUSH1 0x0 DUP3 DUP3 MSTORE PUSH1 0x20 DUP3 ADD SWAP1 POP SWAP3 SWAP2 POP POP JUMP JUMPDEST PUSH1 0x0 DUP2 SWAP1 POP PUSH1 0x20 DUP3 ADD SWAP1 POP SWAP2 SWAP1 POP JUMP JUMPDEST PUSH1 0x0 PUSH2 0x1BCF DUP4 DUP4 PUSH2 0x19C4 JUMP JUMPDEST PUSH1 0x20 DUP4 ADD SWAP1 POP SWAP3 SWAP2 POP POP JUMP JUMPDEST PUSH1 0x0 PUSH1 0x20 DUP3 ADD SWAP1 POP SWAP2 SWAP1 POP JUMP JUMPDEST PUSH1 0x0 PUSH2 0x1BF3 DUP3 PUSH2 0x1B97 JUMP JUMPDEST PUSH2 0x1BFD DUP2 DUP6 PUSH2 0x1BA2 JUMP JUMPDEST SWAP4 POP PUSH2 0x1C08 DUP4 PUSH2 0x1BB3 JUMP JUMPDEST DUP1 PUSH1 0x0 JUMPDEST DUP4 DUP2 LT ISZERO PUSH2 0x1C39 JUMPI DUP2 MLOAD PUSH2 0x1C20 DUP9 DUP3 PUSH2 0x1BC3 JUMP JUMPDEST SWAP8 POP PUSH2 0x1C2B DUP4 PUSH2 0x1BDB JUMP JUMPDEST SWAP3 POP POP PUSH1 0x1 DUP2 ADD SWAP1 POP PUSH2 0x1C0C JUMP JUMPDEST POP DUP6 SWAP4 POP POP POP POP SWAP3 SWAP2 POP POP JUMP JUMPDEST PUSH1 0x0 PUSH2 0x100 DUP4 ADD PUSH1 0x0 DUP4 ADD MLOAD PUSH2 0x1C5F PUSH1 0x0 DUP7 ADD DUP3 PUSH2 0x19C4 JUMP JUMPDEST POP PUSH1 0x20 DUP4 ADD MLOAD PUSH2 0x1C72 PUSH1 0x20 DUP7 ADD DUP3 PUSH2 0x19D3 JUMP JUMPDEST POP PUSH1 0x40 DUP4 ADD MLOAD DUP5 DUP3 SUB PUSH1 0x40 DUP7 ADD MSTORE PUSH2 0x1C8A DUP3 DUP3 PUSH2 0x1B5E JUMP JUMPDEST SWAP2 POP POP PUSH1 0x60 DUP4 ADD MLOAD DUP5 DUP3 SUB PUSH1 0x60 DUP7 ADD MSTORE PUSH2 0x1CA4 DUP3 DUP3 PUSH2 0x1B5E JUMP JUMPDEST SWAP2 POP POP PUSH1 0x80 DUP4 ADD MLOAD PUSH2 0x1CB9 PUSH1 0x80 DUP7 ADD DUP3 PUSH2 0x19C4 JUMP JUMPDEST POP PUSH1 0xA0 DUP4 ADD MLOAD PUSH2 0x1CCC PUSH1 0xA0 DUP7 ADD DUP3 PUSH2 0x19C4 JUMP JUMPDEST POP PUSH1 0xC0 DUP4 ADD MLOAD PUSH2 0x1CDF PUSH1 0xC0 DUP7 ADD DUP3 PUSH2 0x19C4 JUMP JUMPDEST POP PUSH1 0xE0 DUP4 ADD MLOAD DUP5 DUP3 SUB PUSH1 0xE0 DUP7 ADD MSTORE PUSH2 0x1CF7 DUP3 DUP3 PUSH2 0x1BE8 JUMP JUMPDEST SWAP2 POP POP DUP1 SWAP2 POP POP SWAP3 SWAP2 POP POP JUMP JUMPDEST PUSH1 0x0 PUSH2 0x1D10 DUP4 DUP4 PUSH2 0x1C46 JUMP JUMPDEST SWAP1 POP SWAP3 SWAP2 POP POP JUMP JUMPDEST PUSH1 0x0 PUSH1 0x20 DUP3 ADD SWAP1 POP SWAP2 SWAP1 POP JUMP JUMPDEST PUSH1 0x0 PUSH2 0x1D30 DUP3 PUSH2 0x1B21 JUMP JUMPDEST PUSH2 0x1D3A DUP2 DUP6 PUSH2 0x1B2C JUMP JUMPDEST SWAP4 POP DUP4 PUSH1 0x20 DUP3 MUL DUP6 ADD PUSH2 0x1D4C DUP6 PUSH2 0x1B3D JUMP JUMPDEST DUP1 PUSH1 0x0 JUMPDEST DUP6 DUP2 LT ISZERO PUSH2 0x1D88 JUMPI DUP5 DUP5 SUB DUP10 MSTORE DUP2 MLOAD PUSH2 0x1D69 DUP6 DUP3 PUSH2 0x1D04 JUMP JUMPDEST SWAP5 POP PUSH2 0x1D74 DUP4 PUSH2 0x1D18 JUMP JUMPDEST SWAP3 POP PUSH1 0x20 DUP11 ADD SWAP10 POP POP PUSH1 0x1 DUP2 ADD SWAP1 POP PUSH2 0x1D50 JUMP JUMPDEST POP DUP3 SWAP8 POP DUP8 SWAP6 POP POP POP POP POP POP SWAP3 SWAP2 POP POP JUMP JUMPDEST PUSH1 0x0 PUSH1 0x20 DUP3 ADD SWAP1 POP DUP2 DUP2 SUB PUSH1 0x0 DUP4 ADD MSTORE PUSH2 0x1DB4 DUP2 DUP5 PUSH2 0x1D25 JUMP JUMPDEST SWAP1 POP SWAP3 SWAP2 POP POP JUMP JUMPDEST PUSH32 0x4E487B7100000000000000000000000000000000000000000000000000000000 PUSH1 0x0 MSTORE PUSH1 0x22 PUSH1 0x4 MSTORE PUSH1 0x24 PUSH1 0x0 REVERT JUMPDEST PUSH1 0x0 PUSH1 0x2 DUP3 DIV SWAP1 POP PUSH1 0x1 DUP3 AND DUP1 PUSH2 0x1E03 JUMPI PUSH1 0x7F DUP3 AND SWAP2 POP JUMPDEST PUSH1 0x20 DUP3 LT DUP2 SUB PUSH2 0x1E16 JUMPI PUSH2 0x1E15 PUSH2 0x1DBC JUMP JUMPDEST JUMPDEST POP SWAP2 SWAP1 POP JUMP JUMPDEST PUSH32 0x4D696E696D756D206F666665722070726963652073686F756C64206265206772 PUSH1 0x0 DUP3 ADD MSTORE PUSH32 0x6561746572207468616E20300000000000000000000000000000000000000000 PUSH1 0x20 DUP3 ADD MSTORE POP JUMP JUMPDEST PUSH1 0x0 PUSH2 0x1E78 PUSH1 0x2C DUP4 PUSH2 0x1728 JUMP JUMPDEST SWAP2 POP PUSH2 0x1E83 DUP3 PUSH2 0x1E1C JUMP JUMPDEST PUSH1 0x40 DUP3 ADD SWAP1 POP SWAP2 SWAP1 POP JUMP JUMPDEST PUSH1 0x0 PUSH1 0x20 DUP3 ADD SWAP1 POP DUP2 DUP2 SUB PUSH1 0x0 DUP4 ADD MSTORE PUSH2 0x1EA7 DUP2 PUSH2 0x1E6B JUMP JUMPDEST SWAP1 POP SWAP2 SWAP1 POP JUMP JUMPDEST PUSH32 0x4475726174696F6E2073686F756C64206265206265747765656E203120746F20 PUSH1 0x0 DUP3 ADD MSTORE PUSH32 0x3130206461797300000000000000000000000000000000000000000000000000 PUSH1 0x20 DUP3 ADD MSTORE POP JUMP JUMPDEST PUSH1 0x0 PUSH2 0x1F0A PUSH1 0x27 DUP4 PUSH2 0x1728 JUMP JUMPDEST SWAP2 POP PUSH2 0x1F15 DUP3 PUSH2 0x1EAE JUMP JUMPDEST PUSH1 0x40 DUP3 ADD SWAP1 POP SWAP2 SWAP1 POP JUMP JUMPDEST PUSH1 0x0 PUSH1 0x20 DUP3 ADD SWAP1 POP DUP2 DUP2 SUB PUSH1 0x0 DUP4 ADD MSTORE PUSH2 0x1F39 DUP2 PUSH2 0x1EFD JUMP JUMPDEST SWAP1 POP SWAP2 SWAP1 POP JUMP JUMPDEST PUSH32 0x4E487B7100000000000000000000000000000000000000000000000000000000 PUSH1 0x0 MSTORE PUSH1 0x41 PUSH1 0x4 MSTORE PUSH1 0x24 PUSH1 0x0 REVERT JUMPDEST PUSH32 0x4E487B7100000000000000000000000000000000000000000000000000000000 PUSH1 0x0 MSTORE PUSH1 0x11 PUSH1 0x4 MSTORE PUSH1 0x24 PUSH1 0x0 REVERT JUMPDEST PUSH1 0x0 PUSH2 0x1FA9 DUP3 PUSH2 0x166A JUMP JUMPDEST SWAP2 POP PUSH2 0x1FB4 DUP4 PUSH2 0x166A JUMP JUMPDEST SWAP3 POP DUP3 PUSH32 0xFFFFFFFFFFFFFFFFFFFFFFFFFFFFFFFFFFFFFFFFFFFFFFFFFFFFFFFFFFFFFFFF SUB DUP3 GT ISZERO PUSH2 0x1FE9 JUMPI PUSH2 0x1FE8 PUSH2 0x1F6F JUMP JUMPDEST JUMPDEST DUP3 DUP3 ADD SWAP1 POP SWAP3 SWAP2 POP POP JUMP JUMPDEST PUSH1 0x0 DUP2 SWAP1 POP DUP2 PUSH1 0x0 MSTORE PUSH1 0x20 PUSH1 0x0 KECCAK256 SWAP1 POP SWAP2 SWAP1 POP JUMP JUMPDEST PUSH1 0x0 PUSH1 0x20 PUSH1 0x1F DUP4 ADD DIV SWAP1 POP SWAP2 SWAP1 POP JUMP JUMPDEST PUSH1 0x0 DUP3 DUP3 SHL SWAP1 POP SWAP3 SWAP2 POP POP JUMP JUMPDEST PUSH1 0x0 PUSH1 0x8 DUP4 MUL PUSH2 0x2056 PUSH32 0xFFFFFFFFFFFFFFFFFFFFFFFFFFFFFFFFFFFFFFFFFFFFFFFFFFFFFFFFFFFFFFFF DUP3 PUSH2 0x2019 JUMP JUMPDEST PUSH2 0x2060 DUP7 DUP4 PUSH2 0x2019 JUMP JUMPDEST SWAP6 POP DUP1 NOT DUP5 AND SWAP4 POP DUP1 DUP7 AND DUP5 OR SWAP3 POP POP POP SWAP4 SWAP3 POP POP POP JUMP JUMPDEST PUSH1 0x0 DUP2 SWAP1 POP SWAP2 SWAP1 POP JUMP JUMPDEST PUSH1 0x0 PUSH2 0x209D PUSH2 0x2098 PUSH2 0x2093 DUP5 PUSH2 0x166A JUMP JUMPDEST PUSH2 0x2078 JUMP JUMPDEST PUSH2 0x166A JUMP JUMPDEST SWAP1 POP SWAP2 SWAP1 POP JUMP JUMPDEST PUSH1 0x0 DUP2 SWAP1 POP SWAP2 SWAP1 POP JUMP JUMPDEST PUSH2 0x20B7 DUP4 PUSH2 0x2082 JUMP JUMPDEST PUSH2 0x20CB PUSH2 0x20C3 DUP3 PUSH2 0x20A4 JUMP JUMPDEST DUP5 DUP5 SLOAD PUSH2 0x2026 JUMP JUMPDEST DUP3 SSTORE POP POP POP POP JUMP JUMPDEST PUSH1 0x0 SWAP1 JUMP JUMPDEST PUSH2 0x20E0 PUSH2 0x20D3 JUMP JUMPDEST PUSH2 0x20EB DUP2 DUP5 DUP5 PUSH2 0x20AE JUMP JUMPDEST POP POP POP JUMP JUMPDEST JUMPDEST DUP2 DUP2 LT ISZERO PUSH2 0x210F JUMPI PUSH2 0x2104 PUSH1 0x0 DUP3 PUSH2 0x20D8 JUMP JUMPDEST PUSH1 0x1 DUP2 ADD SWAP1 POP PUSH2 0x20F1 JUMP JUMPDEST POP POP JUMP JUMPDEST PUSH1 0x1F DUP3 GT ISZERO PUSH2 0x2154 JUMPI PUSH2 0x2125 DUP2 PUSH2 0x1FF4 JUMP JUMPDEST PUSH2 0x212E DUP5 PUSH2 0x2009 JUMP JUMPDEST DUP2 ADD PUSH1 0x20 DUP6 LT ISZERO PUSH2 0x213D JUMPI DUP2 SWAP1 POP JUMPDEST PUSH2 0x2151 PUSH2 0x2149 DUP6 PUSH2 0x2009 JUMP JUMPDEST DUP4 ADD DUP3 PUSH2 0x20F0 JUMP JUMPDEST POP POP JUMPDEST POP POP POP JUMP JUMPDEST PUSH1 0x0 DUP3 DUP3 SHR SWAP1 POP SWAP3 SWAP2 POP POP JUMP JUMPDEST PUSH1 0x0 PUSH2 0x2177 PUSH1 0x0 NOT DUP5 PUSH1 0x8 MUL PUSH2 0x2159 JUMP JUMPDEST NOT DUP1 DUP4 AND SWAP2 POP POP SWAP3 SWAP2 POP POP JUMP JUMPDEST PUSH1 0x0 PUSH2 0x2190 DUP4 DUP4 PUSH2 0x2166 JUMP JUMPDEST SWAP2 POP DUP3 PUSH1 0x2 MUL DUP3 OR SWAP1 POP SWAP3 SWAP2 POP POP JUMP JUMPDEST PUSH2 0x21A9 DUP3 PUSH2 0x171D JUMP JUMPDEST PUSH8 0xFFFFFFFFFFFFFFFF DUP2 GT ISZERO PUSH2 0x21C2 JUMPI PUSH2 0x21C1 PUSH2 0x1F40 JUMP JUMPDEST JUMPDEST PUSH2 0x21CC DUP3 SLOAD PUSH2 0x1DEB JUMP JUMPDEST PUSH2 0x21D7 DUP3 DUP3 DUP6 PUSH2 0x2113 JUMP JUMPDEST PUSH1 0x0 PUSH1 0x20 SWAP1 POP PUSH1 0x1F DUP4 GT PUSH1 0x1 DUP2 EQ PUSH2 0x220A JUMPI PUSH1 0x0 DUP5 ISZERO PUSH2 0x21F8 JUMPI DUP3 DUP8 ADD MLOAD SWAP1 POP JUMPDEST PUSH2 0x2202 DUP6 DUP3 PUSH2 0x2184 JUMP JUMPDEST DUP7 SSTORE POP PUSH2 0x226A JUMP JUMPDEST PUSH1 0x1F NOT DUP5 AND PUSH2 0x2218 DUP7 PUSH2 0x1FF4 JUMP JUMPDEST PUSH1 0x0 JUMPDEST DUP3 DUP2 LT ISZERO PUSH2 0x2240 JUMPI DUP5 DUP10 ADD MLOAD DUP3 SSTORE PUSH1 0x1 DUP3 ADD SWAP2 POP PUSH1 0x20 DUP6 ADD SWAP5 POP PUSH1 0x20 DUP2 ADD SWAP1 POP PUSH2 0x221B JUMP JUMPDEST DUP7 DUP4 LT ISZERO PUSH2 0x225D JUMPI DUP5 DUP10 ADD MLOAD PUSH2 0x2259 PUSH1 0x1F DUP10 AND DUP3 PUSH2 0x2166 JUMP JUMPDEST DUP4 SSTORE POP JUMPDEST PUSH1 0x1 PUSH1 0x2 DUP9 MUL ADD DUP9 SSTORE POP POP POP JUMPDEST POP POP POP POP POP POP JUMP JUMPDEST PUSH1 0x0 PUSH2 0x227D DUP3 PUSH2 0x166A JUMP JUMPDEST SWAP2 POP PUSH32 0xFFFFFFFFFFFFFFFFFFFFFFFFFFFFFFFFFFFFFFFFFFFFFFFFFFFFFFFFFFFFFFFF DUP3 SUB PUSH2 0x22AF JUMPI PUSH2 0x22AE PUSH2 0x1F6F JUMP JUMPDEST JUMPDEST PUSH1 0x1 DUP3 ADD SWAP1 POP SWAP2 SWAP1 POP JUMP JUMPDEST PUSH32 0x4E487B7100000000000000000000000000000000000000000000000000000000 PUSH1 0x0 MSTORE PUSH1 0x32 PUSH1 0x4 MSTORE PUSH1 0x24 PUSH1 0x0 REVERT JUMPDEST PUSH32 0x41756374696F6E20646F6573206E6F7420657869737400000000000000000000 PUSH1 0x0 DUP3 ADD MSTORE POP JUMP JUMPDEST PUSH1 0x0 PUSH2 0x231F PUSH1 0x16 DUP4 PUSH2 0x1728 JUMP JUMPDEST SWAP2 POP PUSH2 0x232A DUP3 PUSH2 0x22E9 JUMP JUMPDEST PUSH1 0x20 DUP3 ADD SWAP1 POP SWAP2 SWAP1 POP JUMP JUMPDEST PUSH1 0x0 PUSH1 0x20 DUP3 ADD SWAP1 POP DUP2 DUP2 SUB PUSH1 0x0 DUP4 ADD MSTORE PUSH2 0x234E DUP2 PUSH2 0x2312 JUMP JUMPDEST SWAP1 POP SWAP2 SWAP1 POP JUMP JUMPDEST PUSH32 0x41756374696F6E20657870697265640000000000000000000000000000000000 PUSH1 0x0 DUP3 ADD MSTORE POP JUMP JUMPDEST PUSH1 0x0 PUSH2 0x238B PUSH1 0xF DUP4 PUSH2 0x1728 JUMP JUMPDEST SWAP2 POP PUSH2 0x2396 DUP3 PUSH2 0x2355 JUMP JUMPDEST PUSH1 0x20 DUP3 ADD SWAP1 POP SWAP2 SWAP1 POP JUMP JUMPDEST PUSH1 0x0 PUSH1 0x20 DUP3 ADD SWAP1 POP DUP2 DUP2 SUB PUSH1 0x0 DUP4 ADD MSTORE PUSH2 0x23BA DUP2 PUSH2 0x237E JUMP JUMPDEST SWAP1 POP SWAP2 SWAP1 POP JUMP JUMPDEST PUSH32 0x50726963652073686F756C642062652067726561746572207468616E206D696E PUSH1 0x0 DUP3 ADD MSTORE PUSH32 0x696D756D206F6666657220707269636520616E64207468652062657374206F66 PUSH1 0x20 DUP3 ADD MSTORE PUSH32 0x6665720000000000000000000000000000000000000000000000000000000000 PUSH1 0x40 DUP3 ADD MSTORE POP JUMP JUMPDEST PUSH1 0x0 PUSH2 0x2443 PUSH1 0x43 DUP4 PUSH2 0x1728 JUMP JUMPDEST SWAP2 POP PUSH2 0x244E DUP3 PUSH2 0x23C1 JUMP JUMPDEST PUSH1 0x60 DUP3 ADD SWAP1 POP SWAP2 SWAP1 POP JUMP JUMPDEST PUSH1 0x0 PUSH1 0x20 DUP3 ADD SWAP1 POP DUP2 DUP2 SUB PUSH1 0x0 DUP4 ADD MSTORE PUSH2 0x2472 DUP2 PUSH2 0x2436 JUMP JUMPDEST SWAP1 POP SWAP2 SWAP1 POP JUMP JUMPDEST PUSH1 0x0 PUSH2 0x2484 DUP3 PUSH2 0x166A JUMP JUMPDEST SWAP2 POP PUSH2 0x248F DUP4 PUSH2 0x166A JUMP JUMPDEST SWAP3 POP DUP3 DUP3 LT ISZERO PUSH2 0x24A2 JUMPI PUSH2 0x24A1 PUSH2 0x1F6F JUMP JUMPDEST JUMPDEST DUP3 DUP3 SUB SWAP1 POP SWAP3 SWAP2 POP POP JUMP JUMPDEST PUSH32 0x41756374696F6E206973207374696C6C20616374697665000000000000000000 PUSH1 0x0 DUP3 ADD MSTORE POP JUMP JUMPDEST PUSH1 0x0 PUSH2 0x24E3 PUSH1 0x17 DUP4 PUSH2 0x1728 JUMP JUMPDEST SWAP2 POP PUSH2 0x24EE DUP3 PUSH2 0x24AD JUMP JUMPDEST PUSH1 0x20 DUP3 ADD SWAP1 POP SWAP2 SWAP1 POP JUMP JUMPDEST PUSH1 0x0 PUSH1 0x20 DUP3 ADD SWAP1 POP DUP2 DUP2 SUB PUSH1 0x0 DUP4 ADD MSTORE PUSH2 0x2512 DUP2 PUSH2 0x24D6 JUMP JUMPDEST SWAP1 POP SWAP2 SWAP1 POP JUMP INVALID LOG2 PUSH5 0x6970667358 0x22 SLT KECCAK256 0x1E SELFDESTRUCT 0xBC LT RETURNDATASIZE 0x28 0xF REVERT 0xEC 0xA8 PUSH24 0xF9961A74D071DBC8D50F8770007A7D3BACD23F4D5D64736F PUSH13 0x634300080F0033000000000000 "
				},
				"gasEstimates": {
					"creation": {
						"codeDepositCost": "1910200",
						"executionCost": "46231",
						"totalCost": "1956431"
					},
					"external": {
						"auctions(uint256)": "infinite",
						"createAuction(string,string,uint256,uint256)": "infinite",
						"createOffer(uint256)": "infinite",
						"getAuctionOffers(uint256)": "infinite",
						"getAuctions()": "infinite",
						"getUserAuctions(address)": "infinite",
						"getUserOffers(address)": "infinite",
						"offers(uint256)": "infinite",
						"trade(uint256)": "infinite"
					}
				},
				"methodIdentifiers": {
					"auctions(uint256)": "571a26a0",
					"createAuction(string,string,uint256,uint256)": "61e2db55",
					"createOffer(uint256)": "a269993d",
					"getAuctionOffers(uint256)": "c43ede15",
					"getAuctions()": "d7c06919",
					"getUserAuctions(address)": "ff3ad0b4",
					"getUserOffers(address)": "661d2c2c",
					"offers(uint256)": "8a72ea6a",
					"trade(uint256)": "df1dd826"
				}
			},
			"storageLayout": {
				"storage": [
					{
						"astId": 26,
						"contract": "contracts/Ebay.sol:Ebay",
						"label": "auctions",
						"offset": 0,
						"slot": "0",
						"type": "t_mapping(t_uint256,t_struct(Auction)20_storage)"
					},
					{
						"astId": 30,
						"contract": "contracts/Ebay.sol:Ebay",
						"label": "nextAuctionId",
						"offset": 0,
						"slot": "1",
						"type": "t_uint256"
					},
					{
						"astId": 45,
						"contract": "contracts/Ebay.sol:Ebay",
						"label": "offers",
						"offset": 0,
						"slot": "2",
						"type": "t_mapping(t_uint256,t_struct(Offer)39_storage)"
					},
					{
						"astId": 49,
						"contract": "contracts/Ebay.sol:Ebay",
						"label": "nextOfferId",
						"offset": 0,
						"slot": "3",
						"type": "t_uint256"
					},
					{
						"astId": 55,
						"contract": "contracts/Ebay.sol:Ebay",
						"label": "userAuctions",
						"offset": 0,
						"slot": "4",
						"type": "t_mapping(t_address,t_array(t_uint256)dyn_storage)"
					},
					{
						"astId": 61,
						"contract": "contracts/Ebay.sol:Ebay",
						"label": "userOffers",
						"offset": 0,
						"slot": "5",
						"type": "t_mapping(t_address,t_array(t_uint256)dyn_storage)"
					}
				],
				"types": {
					"t_address": {
						"encoding": "inplace",
						"label": "address",
						"numberOfBytes": "20"
					},
					"t_array(t_uint256)dyn_storage": {
						"base": "t_uint256",
						"encoding": "dynamic_array",
						"label": "uint256[]",
						"numberOfBytes": "32"
					},
					"t_mapping(t_address,t_array(t_uint256)dyn_storage)": {
						"encoding": "mapping",
						"key": "t_address",
						"label": "mapping(address => uint256[])",
						"numberOfBytes": "32",
						"value": "t_array(t_uint256)dyn_storage"
					},
					"t_mapping(t_uint256,t_struct(Auction)20_storage)": {
						"encoding": "mapping",
						"key": "t_uint256",
						"label": "mapping(uint256 => struct Ebay.Auction)",
						"numberOfBytes": "32",
						"value": "t_struct(Auction)20_storage"
					},
					"t_mapping(t_uint256,t_struct(Offer)39_storage)": {
						"encoding": "mapping",
						"key": "t_uint256",
						"label": "mapping(uint256 => struct Ebay.Offer)",
						"numberOfBytes": "32",
						"value": "t_struct(Offer)39_storage"
					},
					"t_string_storage": {
						"encoding": "bytes",
						"label": "string",
						"numberOfBytes": "32"
					},
					"t_struct(Auction)20_storage": {
						"encoding": "inplace",
						"label": "struct Ebay.Auction",
						"members": [
							{
								"astId": 4,
								"contract": "contracts/Ebay.sol:Ebay",
								"label": "id",
								"offset": 0,
								"slot": "0",
								"type": "t_uint256"
							},
							{
								"astId": 6,
								"contract": "contracts/Ebay.sol:Ebay",
								"label": "seller",
								"offset": 0,
								"slot": "1",
								"type": "t_address"
							},
							{
								"astId": 8,
								"contract": "contracts/Ebay.sol:Ebay",
								"label": "name",
								"offset": 0,
								"slot": "2",
								"type": "t_string_storage"
							},
							{
								"astId": 10,
								"contract": "contracts/Ebay.sol:Ebay",
								"label": "description",
								"offset": 0,
								"slot": "3",
								"type": "t_string_storage"
							},
							{
								"astId": 12,
								"contract": "contracts/Ebay.sol:Ebay",
								"label": "minimumOfferPrice",
								"offset": 0,
								"slot": "4",
								"type": "t_uint256"
							},
							{
								"astId": 14,
								"contract": "contracts/Ebay.sol:Ebay",
								"label": "auctionEnd",
								"offset": 0,
								"slot": "5",
								"type": "t_uint256"
							},
							{
								"astId": 16,
								"contract": "contracts/Ebay.sol:Ebay",
								"label": "bestOfferId",
								"offset": 0,
								"slot": "6",
								"type": "t_uint256"
							},
							{
								"astId": 19,
								"contract": "contracts/Ebay.sol:Ebay",
								"label": "offerIds",
								"offset": 0,
								"slot": "7",
								"type": "t_array(t_uint256)dyn_storage"
							}
						],
						"numberOfBytes": "256"
					},
					"t_struct(Offer)39_storage": {
						"encoding": "inplace",
						"label": "struct Ebay.Offer",
						"members": [
							{
								"astId": 32,
								"contract": "contracts/Ebay.sol:Ebay",
								"label": "id",
								"offset": 0,
								"slot": "0",
								"type": "t_uint256"
							},
							{
								"astId": 34,
								"contract": "contracts/Ebay.sol:Ebay",
								"label": "auctionId",
								"offset": 0,
								"slot": "1",
								"type": "t_uint256"
							},
							{
								"astId": 36,
								"contract": "contracts/Ebay.sol:Ebay",
								"label": "buyer",
								"offset": 0,
								"slot": "2",
								"type": "t_address"
							},
							{
								"astId": 38,
								"contract": "contracts/Ebay.sol:Ebay",
								"label": "offerPrice",
								"offset": 0,
								"slot": "3",
								"type": "t_uint256"
							}
						],
						"numberOfBytes": "128"
					},
					"t_uint256": {
						"encoding": "inplace",
						"label": "uint256",
						"numberOfBytes": "32"
					}
				}
			},
			"userdoc": {
				"kind": "user",
				"methods": {
					"auctions(uint256)": {
						"notice": "List of all auctions"
					},
					"createAuction(string,string,uint256,uint256)": {
						"notice": "Creates a new auction."
					},
					"createOffer(uint256)": {
						"notice": "Creates a new offer for an auction."
					},
					"getAuctionOffers(uint256)": {
						"notice": "- List of offers for an auction"
					},
					"getAuctions()": {
						"notice": "- List of all the auctions"
					},
					"getUserAuctions(address)": {
						"notice": "- List of auctions for a seller"
					},
					"getUserOffers(address)": {
						"notice": "- List of offers from a buyer"
					},
					"offers(uint256)": {
						"notice": "List of all Offer"
					},
					"trade(uint256)": {
						"notice": "Executes the auction trade."
					}
				},
				"notice": "Smart contract for auction based market place.",
				"version": 1
			}
		}
	}
}