{
	"contracts/Ebay.sol": {
		"Ebay": {
			"abi": [
				{
					"inputs": [
						{
							"internalType": "uint256",
							"name": "",
							"type": "uint256"
						}
					],
					"name": "auctions",
					"outputs": [
						{
							"internalType": "uint256",
							"name": "id",
							"type": "uint256"
						},
						{
							"internalType": "address",
							"name": "seller",
							"type": "address"
						},
						{
							"internalType": "string",
							"name": "name",
							"type": "string"
						},
						{
							"internalType": "string",
							"name": "description",
							"type": "string"
						},
						{
							"internalType": "uint256",
							"name": "minimumOfferPrice",
							"type": "uint256"
						},
						{
							"internalType": "uint256",
							"name": "auctionEnd",
							"type": "uint256"
						},
						{
							"internalType": "uint256",
							"name": "bestOfferId",
							"type": "uint256"
						}
					],
					"stateMutability": "view",
					"type": "function"
				},
				{
					"inputs": [
						{
							"internalType": "uint256",
							"name": "_auctionId",
							"type": "uint256"
						}
					],
					"name": "cancelAuction",
					"outputs": [],
					"stateMutability": "nonpayable",
					"type": "function"
				},
				{
					"inputs": [
						{
							"internalType": "string",
							"name": "_name",
							"type": "string"
						},
						{
							"internalType": "string",
							"name": "_description",
							"type": "string"
						},
						{
							"internalType": "uint256",
							"name": "_minimumOfferPrice",
							"type": "uint256"
						},
						{
							"internalType": "uint256",
							"name": "_duration",
							"type": "uint256"
						}
					],
					"name": "createAuction",
					"outputs": [],
					"stateMutability": "nonpayable",
					"type": "function"
				},
				{
					"inputs": [
						{
							"internalType": "uint256",
							"name": "_auctionId",
							"type": "uint256"
						}
					],
					"name": "createOffer",
					"outputs": [],
					"stateMutability": "payable",
					"type": "function"
				},
				{
					"inputs": [
						{
							"internalType": "uint256",
							"name": "_auctionId",
							"type": "uint256"
						}
					],
					"name": "getAuctionOffers",
					"outputs": [
						{
							"components": [
								{
									"internalType": "uint256",
									"name": "id",
									"type": "uint256"
								},
								{
									"internalType": "uint256",
									"name": "auctionId",
									"type": "uint256"
								},
								{
									"internalType": "address",
									"name": "buyer",
									"type": "address"
								},
								{
									"internalType": "uint256",
									"name": "offerPrice",
									"type": "uint256"
								}
							],
							"internalType": "struct Ebay.Offer[]",
							"name": "",
							"type": "tuple[]"
						}
					],
					"stateMutability": "view",
					"type": "function"
				},
				{
					"inputs": [],
					"name": "getAuctions",
					"outputs": [
						{
							"components": [
								{
									"internalType": "uint256",
									"name": "id",
									"type": "uint256"
								},
								{
									"internalType": "address",
									"name": "seller",
									"type": "address"
								},
								{
									"internalType": "string",
									"name": "name",
									"type": "string"
								},
								{
									"internalType": "string",
									"name": "description",
									"type": "string"
								},
								{
									"internalType": "uint256",
									"name": "minimumOfferPrice",
									"type": "uint256"
								},
								{
									"internalType": "uint256",
									"name": "auctionEnd",
									"type": "uint256"
								},
								{
									"internalType": "uint256",
									"name": "bestOfferId",
									"type": "uint256"
								},
								{
									"internalType": "uint256[]",
									"name": "offerIds",
									"type": "uint256[]"
								}
							],
							"internalType": "struct Ebay.Auction[]",
							"name": "",
							"type": "tuple[]"
						}
					],
					"stateMutability": "view",
					"type": "function"
				},
				{
					"inputs": [
						{
							"internalType": "address",
							"name": "_user",
							"type": "address"
						}
					],
					"name": "getUserAuctions",
					"outputs": [
						{
							"components": [
								{
									"internalType": "uint256",
									"name": "id",
									"type": "uint256"
								},
								{
									"internalType": "address",
									"name": "seller",
									"type": "address"
								},
								{
									"internalType": "string",
									"name": "name",
									"type": "string"
								},
								{
									"internalType": "string",
									"name": "description",
									"type": "string"
								},
								{
									"internalType": "uint256",
									"name": "minimumOfferPrice",
									"type": "uint256"
								},
								{
									"internalType": "uint256",
									"name": "auctionEnd",
									"type": "uint256"
								},
								{
									"internalType": "uint256",
									"name": "bestOfferId",
									"type": "uint256"
								},
								{
									"internalType": "uint256[]",
									"name": "offerIds",
									"type": "uint256[]"
								}
							],
							"internalType": "struct Ebay.Auction[]",
							"name": "",
							"type": "tuple[]"
						}
					],
					"stateMutability": "view",
					"type": "function"
				},
				{
					"inputs": [
						{
							"internalType": "address",
							"name": "_user",
							"type": "address"
						}
					],
					"name": "getUserOffers",
					"outputs": [
						{
							"components": [
								{
									"internalType": "uint256",
									"name": "id",
									"type": "uint256"
								},
								{
									"internalType": "uint256",
									"name": "auctionId",
									"type": "uint256"
								},
								{
									"internalType": "address",
									"name": "buyer",
									"type": "address"
								},
								{
									"internalType": "uint256",
									"name": "offerPrice",
									"type": "uint256"
								}
							],
							"internalType": "struct Ebay.Offer[]",
							"name": "",
							"type": "tuple[]"
						}
					],
					"stateMutability": "view",
					"type": "function"
				},
				{
					"inputs": [
						{
							"internalType": "uint256",
							"name": "",
							"type": "uint256"
						}
					],
					"name": "offers",
					"outputs": [
						{
							"internalType": "uint256",
							"name": "id",
							"type": "uint256"
						},
						{
							"internalType": "uint256",
							"name": "auctionId",
							"type": "uint256"
						},
						{
							"internalType": "address",
							"name": "buyer",
							"type": "address"
						},
						{
							"internalType": "uint256",
							"name": "offerPrice",
							"type": "uint256"
						}
					],
					"stateMutability": "view",
					"type": "function"
				},
				{
					"inputs": [
						{
							"internalType": "uint256",
							"name": "_auctionId",
							"type": "uint256"
						}
					],
					"name": "trade",
					"outputs": [],
					"stateMutability": "nonpayable",
					"type": "function"
				}
			],
			"devdoc": {
				"kind": "dev",
				"methods": {
					"cancelAuction(uint256)": {
						"params": {
							"_auctionId": "- id of the auction"
						}
					},
					"createAuction(string,string,uint256,uint256)": {
						"params": {
							"_description": "— auction description.",
							"_duration": "— the duration, in seconds, for which the auction will accept offers.",
							"_minimumOfferPrice": "— the minimum offer price this auction will accept.",
							"_name": "— name of the auction."
						}
					},
					"createOffer(uint256)": {
						"params": {
							"_auctionId": "- id of the auction"
						}
					},
					"getAuctionOffers(uint256)": {
						"params": {
							"_auctionId": "- Auction Id"
						}
					},
					"getUserAuctions(address)": {
						"params": {
							"_user": "- Seller address"
						}
					},
					"getUserOffers(address)": {
						"params": {
							"_user": "- Buyer address"
						}
					},
					"trade(uint256)": {
						"params": {
							"_auctionId": "- id of the auction."
						}
					}
				},
				"title": "Barbers",
				"version": 1
			},
			"evm": {
				"assembly": "    /* \"contracts/Ebay.sol\":135:9391  contract Ebay {... */\n  mstore(0x40, 0x80)\n    /* \"contracts/Ebay.sol\":833:834  1 */\n  0x01\n    /* \"contracts/Ebay.sol\":804:834  uint private nextAuctionId = 1 */\n  dup1\n  sstore\n    /* \"contracts/Ebay.sol\":1126:1127  1 */\n  0x01\n    /* \"contracts/Ebay.sol\":1099:1127  uint private nextOfferId = 1 */\n  0x03\n  sstore\n    /* \"contracts/Ebay.sol\":135:9391  contract Ebay {... */\n  callvalue\n  dup1\n  iszero\n  tag_1\n  jumpi\n  0x00\n  dup1\n  revert\ntag_1:\n  pop\n  dataSize(sub_0)\n  dup1\n  dataOffset(sub_0)\n  0x00\n  codecopy\n  0x00\n  return\nstop\n\nsub_0: assembly {\n        /* \"contracts/Ebay.sol\":135:9391  contract Ebay {... */\n      mstore(0x40, 0x80)\n      jumpi(tag_1, lt(calldatasize, 0x04))\n      shr(0xe0, calldataload(0x00))\n      dup1\n      0xa269993d\n      gt\n      tag_12\n      jumpi\n      dup1\n      0xa269993d\n      eq\n      tag_7\n      jumpi\n      dup1\n      0xc43ede15\n      eq\n      tag_8\n      jumpi\n      dup1\n      0xd7c06919\n      eq\n      tag_9\n      jumpi\n      dup1\n      0xdf1dd826\n      eq\n      tag_10\n      jumpi\n      dup1\n      0xff3ad0b4\n      eq\n      tag_11\n      jumpi\n      jump(tag_1)\n    tag_12:\n      dup1\n      0x571a26a0\n      eq\n      tag_2\n      jumpi\n      dup1\n      0x61e2db55\n      eq\n      tag_3\n      jumpi\n      dup1\n      0x661d2c2c\n      eq\n      tag_4\n      jumpi\n      dup1\n      0x8a72ea6a\n      eq\n      tag_5\n      jumpi\n      dup1\n      0x96b5a755\n      eq\n      tag_6\n      jumpi\n    tag_1:\n      0x00\n      dup1\n      revert\n        /* \"contracts/Ebay.sol\":718:758  mapping(uint => Auction) public auctions */\n    tag_2:\n      callvalue\n      dup1\n      iszero\n      tag_13\n      jumpi\n      0x00\n      dup1\n      revert\n    tag_13:\n      pop\n      tag_14\n      0x04\n      dup1\n      calldatasize\n      sub\n      dup2\n      add\n      swap1\n      tag_15\n      swap2\n      swap1\n      tag_16\n      jump\t// in\n    tag_15:\n      tag_17\n      jump\t// in\n    tag_14:\n      mload(0x40)\n      tag_18\n      swap8\n      swap7\n      swap6\n      swap5\n      swap4\n      swap3\n      swap2\n      swap1\n      tag_19\n      jump\t// in\n    tag_18:\n      mload(0x40)\n      dup1\n      swap2\n      sub\n      swap1\n      return\n        /* \"contracts/Ebay.sol\":2022:3097  function createAuction(... */\n    tag_3:\n      callvalue\n      dup1\n      iszero\n      tag_20\n      jumpi\n      0x00\n      dup1\n      revert\n    tag_20:\n      pop\n      tag_21\n      0x04\n      dup1\n      calldatasize\n      sub\n      dup2\n      add\n      swap1\n      tag_22\n      swap2\n      swap1\n      tag_23\n      jump\t// in\n    tag_22:\n      tag_24\n      jump\t// in\n    tag_21:\n      stop\n        /* \"contracts/Ebay.sol\":8331:8744  function getUserOffers(address _user)... */\n    tag_4:\n      callvalue\n      dup1\n      iszero\n      tag_25\n      jumpi\n      0x00\n      dup1\n      revert\n    tag_25:\n      pop\n      tag_26\n      0x04\n      dup1\n      calldatasize\n      sub\n      dup2\n      add\n      swap1\n      tag_27\n      swap2\n      swap1\n      tag_28\n      jump\t// in\n    tag_27:\n      tag_29\n      jump\t// in\n    tag_26:\n      mload(0x40)\n      tag_30\n      swap2\n      swap1\n      tag_31\n      jump\t// in\n    tag_30:\n      mload(0x40)\n      dup1\n      swap2\n      sub\n      swap1\n      return\n        /* \"contracts/Ebay.sol\":1019:1055  mapping(uint => Offer) public offers */\n    tag_5:\n      callvalue\n      dup1\n      iszero\n      tag_32\n      jumpi\n      0x00\n      dup1\n      revert\n    tag_32:\n      pop\n      tag_33\n      0x04\n      dup1\n      calldatasize\n      sub\n      dup2\n      add\n      swap1\n      tag_34\n      swap2\n      swap1\n      tag_16\n      jump\t// in\n    tag_34:\n      tag_35\n      jump\t// in\n    tag_33:\n      mload(0x40)\n      tag_36\n      swap5\n      swap4\n      swap3\n      swap2\n      swap1\n      tag_37\n      jump\t// in\n    tag_36:\n      mload(0x40)\n      dup1\n      swap2\n      sub\n      swap1\n      return\n        /* \"contracts/Ebay.sol\":3190:4397  function cancelAuction(uint _auctionId) external auctionExists(_auctionId) {... */\n    tag_6:\n      callvalue\n      dup1\n      iszero\n      tag_38\n      jumpi\n      0x00\n      dup1\n      revert\n    tag_38:\n      pop\n      tag_39\n      0x04\n      dup1\n      calldatasize\n      sub\n      dup2\n      add\n      swap1\n      tag_40\n      swap2\n      swap1\n      tag_16\n      jump\t// in\n    tag_40:\n      tag_41\n      jump\t// in\n    tag_39:\n      stop\n        /* \"contracts/Ebay.sol\":4501:6279  function createOffer(uint _auctionId)... */\n    tag_7:\n      tag_42\n      0x04\n      dup1\n      calldatasize\n      sub\n      dup2\n      add\n      swap1\n      tag_43\n      swap2\n      swap1\n      tag_16\n      jump\t// in\n    tag_43:\n      tag_44\n      jump\t// in\n    tag_42:\n      stop\n        /* \"contracts/Ebay.sol\":8837:9389  function getAuctionOffers(uint _auctionId)... */\n    tag_8:\n      callvalue\n      dup1\n      iszero\n      tag_45\n      jumpi\n      0x00\n      dup1\n      revert\n    tag_45:\n      pop\n      tag_46\n      0x04\n      dup1\n      calldatasize\n      sub\n      dup2\n      add\n      swap1\n      tag_47\n      swap2\n      swap1\n      tag_16\n      jump\t// in\n    tag_47:\n      tag_48\n      jump\t// in\n    tag_46:\n      mload(0x40)\n      tag_49\n      swap2\n      swap1\n      tag_31\n      jump\t// in\n    tag_49:\n      mload(0x40)\n      dup1\n      swap2\n      sub\n      swap1\n      return\n        /* \"contracts/Ebay.sol\":7434:7707  function getAuctions() external view returns (Auction[] memory) {... */\n    tag_9:\n      callvalue\n      dup1\n      iszero\n      tag_50\n      jumpi\n      0x00\n      dup1\n      revert\n    tag_50:\n      pop\n      tag_51\n      tag_52\n      jump\t// in\n    tag_51:\n      mload(0x40)\n      tag_53\n      swap2\n      swap1\n      tag_54\n      jump\t// in\n    tag_53:\n      mload(0x40)\n      dup1\n      swap2\n      sub\n      swap1\n      return\n        /* \"contracts/Ebay.sol\":6376:7333  function trade(uint _auctionId) external auctionExists(_auctionId) {... */\n    tag_10:\n      callvalue\n      dup1\n      iszero\n      tag_55\n      jumpi\n      0x00\n      dup1\n      revert\n    tag_55:\n      pop\n      tag_56\n      0x04\n      dup1\n      calldatasize\n      sub\n      dup2\n      add\n      swap1\n      tag_57\n      swap2\n      swap1\n      tag_16\n      jump\t// in\n    tag_57:\n      tag_58\n      jump\t// in\n    tag_56:\n      stop\n        /* \"contracts/Ebay.sol\":7799:8242  function getUserAuctions(address _user)... */\n    tag_11:\n      callvalue\n      dup1\n      iszero\n      tag_59\n      jumpi\n      0x00\n      dup1\n      revert\n    tag_59:\n      pop\n      tag_60\n      0x04\n      dup1\n      calldatasize\n      sub\n      dup2\n      add\n      swap1\n      tag_61\n      swap2\n      swap1\n      tag_28\n      jump\t// in\n    tag_61:\n      tag_62\n      jump\t// in\n    tag_60:\n      mload(0x40)\n      tag_63\n      swap2\n      swap1\n      tag_54\n      jump\t// in\n    tag_63:\n      mload(0x40)\n      dup1\n      swap2\n      sub\n      swap1\n      return\n        /* \"contracts/Ebay.sol\":718:758  mapping(uint => Auction) public auctions */\n    tag_17:\n      mstore(0x20, 0x00)\n      dup1\n      0x00\n      mstore\n      keccak256(0x00, 0x40)\n      0x00\n      swap2\n      pop\n      swap1\n      pop\n      dup1\n      0x00\n      add\n      sload\n      swap1\n      dup1\n      0x01\n      add\n      0x00\n      swap1\n      sload\n      swap1\n      0x0100\n      exp\n      swap1\n      div\n      0xffffffffffffffffffffffffffffffffffffffff\n      and\n      swap1\n      dup1\n      0x02\n      add\n      dup1\n      sload\n      tag_64\n      swap1\n      tag_65\n      jump\t// in\n    tag_64:\n      dup1\n      0x1f\n      add\n      0x20\n      dup1\n      swap2\n      div\n      mul\n      0x20\n      add\n      mload(0x40)\n      swap1\n      dup2\n      add\n      0x40\n      mstore\n      dup1\n      swap3\n      swap2\n      swap1\n      dup2\n      dup2\n      mstore\n      0x20\n      add\n      dup3\n      dup1\n      sload\n      tag_66\n      swap1\n      tag_65\n      jump\t// in\n    tag_66:\n      dup1\n      iszero\n      tag_67\n      jumpi\n      dup1\n      0x1f\n      lt\n      tag_68\n      jumpi\n      0x0100\n      dup1\n      dup4\n      sload\n      div\n      mul\n      dup4\n      mstore\n      swap2\n      0x20\n      add\n      swap2\n      jump(tag_67)\n    tag_68:\n      dup3\n      add\n      swap2\n      swap1\n      0x00\n      mstore\n      keccak256(0x00, 0x20)\n      swap1\n    tag_69:\n      dup2\n      sload\n      dup2\n      mstore\n      swap1\n      0x01\n      add\n      swap1\n      0x20\n      add\n      dup1\n      dup4\n      gt\n      tag_69\n      jumpi\n      dup3\n      swap1\n      sub\n      0x1f\n      and\n      dup3\n      add\n      swap2\n    tag_67:\n      pop\n      pop\n      pop\n      pop\n      pop\n      swap1\n      dup1\n      0x03\n      add\n      dup1\n      sload\n      tag_70\n      swap1\n      tag_65\n      jump\t// in\n    tag_70:\n      dup1\n      0x1f\n      add\n      0x20\n      dup1\n      swap2\n      div\n      mul\n      0x20\n      add\n      mload(0x40)\n      swap1\n      dup2\n      add\n      0x40\n      mstore\n      dup1\n      swap3\n      swap2\n      swap1\n      dup2\n      dup2\n      mstore\n      0x20\n      add\n      dup3\n      dup1\n      sload\n      tag_71\n      swap1\n      tag_65\n      jump\t// in\n    tag_71:\n      dup1\n      iszero\n      tag_72\n      jumpi\n      dup1\n      0x1f\n      lt\n      tag_73\n      jumpi\n      0x0100\n      dup1\n      dup4\n      sload\n      div\n      mul\n      dup4\n      mstore\n      swap2\n      0x20\n      add\n      swap2\n      jump(tag_72)\n    tag_73:\n      dup3\n      add\n      swap2\n      swap1\n      0x00\n      mstore\n      keccak256(0x00, 0x20)\n      swap1\n    tag_74:\n      dup2\n      sload\n      dup2\n      mstore\n      swap1\n      0x01\n      add\n      swap1\n      0x20\n      add\n      dup1\n      dup4\n      gt\n      tag_74\n      jumpi\n      dup3\n      swap1\n      sub\n      0x1f\n      and\n      dup3\n      add\n      swap2\n    tag_72:\n      pop\n      pop\n      pop\n      pop\n      pop\n      swap1\n      dup1\n      0x04\n      add\n      sload\n      swap1\n      dup1\n      0x05\n      add\n      sload\n      swap1\n      dup1\n      0x06\n      add\n      sload\n      swap1\n      pop\n      dup8\n      jump\t// out\n        /* \"contracts/Ebay.sol\":2022:3097  function createAuction(... */\n    tag_24:\n        /* \"contracts/Ebay.sol\":2294:2295  0 */\n      0x00\n        /* \"contracts/Ebay.sol\":2273:2291  _minimumOfferPrice */\n      dup3\n        /* \"contracts/Ebay.sol\":2273:2295  _minimumOfferPrice > 0 */\n      gt\n        /* \"contracts/Ebay.sol\":2252:2412  require(... */\n      tag_76\n      jumpi\n      mload(0x40)\n      0x08c379a000000000000000000000000000000000000000000000000000000000\n      dup2\n      mstore\n      0x04\n      add\n      tag_77\n      swap1\n      tag_78\n      jump\t// in\n    tag_77:\n      mload(0x40)\n      dup1\n      swap2\n      sub\n      swap1\n      revert\n    tag_76:\n        /* \"contracts/Ebay.sol\":2618:2640  uint[] memory offerIds */\n      0x00\n        /* \"contracts/Ebay.sol\":2654:2655  0 */\n      dup1\n        /* \"contracts/Ebay.sol\":2643:2656  new uint[](0) */\n      0xffffffffffffffff\n      dup2\n      gt\n      iszero\n      tag_79\n      jumpi\n      tag_80\n      tag_81\n      jump\t// in\n    tag_80:\n    tag_79:\n      mload(0x40)\n      swap1\n      dup1\n      dup3\n      mstore\n      dup1\n      0x20\n      mul\n      0x20\n      add\n      dup3\n      add\n      0x40\n      mstore\n      dup1\n      iszero\n      tag_82\n      jumpi\n      dup2\n      0x20\n      add\n      0x20\n      dup3\n      mul\n      dup1\n      calldatasize\n      dup4\n      calldatacopy\n      dup1\n      dup3\n      add\n      swap2\n      pop\n      pop\n      swap1\n      pop\n    tag_82:\n      pop\n        /* \"contracts/Ebay.sol\":2618:2656  uint[] memory offerIds = new uint[](0) */\n      swap1\n      pop\n        /* \"contracts/Ebay.sol\":2693:2916  Auction(... */\n      mload(0x40)\n      dup1\n      0x0100\n      add\n      0x40\n      mstore\n      dup1\n        /* \"contracts/Ebay.sol\":2714:2727  nextAuctionId */\n      sload(0x01)\n        /* \"contracts/Ebay.sol\":2693:2916  Auction(... */\n      dup2\n      mstore\n      0x20\n      add\n        /* \"contracts/Ebay.sol\":2741:2751  msg.sender */\n      caller\n        /* \"contracts/Ebay.sol\":2693:2916  Auction(... */\n      0xffffffffffffffffffffffffffffffffffffffff\n      and\n      dup2\n      mstore\n      0x20\n      add\n        /* \"contracts/Ebay.sol\":2765:2770  _name */\n      dup9\n      dup9\n        /* \"contracts/Ebay.sol\":2693:2916  Auction(... */\n      dup1\n      dup1\n      0x1f\n      add\n      0x20\n      dup1\n      swap2\n      div\n      mul\n      0x20\n      add\n      mload(0x40)\n      swap1\n      dup2\n      add\n      0x40\n      mstore\n      dup1\n      swap4\n      swap3\n      swap2\n      swap1\n      dup2\n      dup2\n      mstore\n      0x20\n      add\n      dup4\n      dup4\n      dup1\n      dup3\n      dup5\n      calldatacopy\n      0x00\n      dup2\n      dup5\n      add\n      mstore\n      not(0x1f)\n      0x1f\n      dup3\n      add\n      and\n      swap1\n      pop\n      dup1\n      dup4\n      add\n      swap3\n      pop\n      pop\n      pop\n      pop\n      pop\n      pop\n      pop\n      dup2\n      mstore\n      0x20\n      add\n        /* \"contracts/Ebay.sol\":2784:2796  _description */\n      dup7\n      dup7\n        /* \"contracts/Ebay.sol\":2693:2916  Auction(... */\n      dup1\n      dup1\n      0x1f\n      add\n      0x20\n      dup1\n      swap2\n      div\n      mul\n      0x20\n      add\n      mload(0x40)\n      swap1\n      dup2\n      add\n      0x40\n      mstore\n      dup1\n      swap4\n      swap3\n      swap2\n      swap1\n      dup2\n      dup2\n      mstore\n      0x20\n      add\n      dup4\n      dup4\n      dup1\n      dup3\n      dup5\n      calldatacopy\n      0x00\n      dup2\n      dup5\n      add\n      mstore\n      not(0x1f)\n      0x1f\n      dup3\n      add\n      and\n      swap1\n      pop\n      dup1\n      dup4\n      add\n      swap3\n      pop\n      pop\n      pop\n      pop\n      pop\n      pop\n      pop\n      dup2\n      mstore\n      0x20\n      add\n        /* \"contracts/Ebay.sol\":2810:2828  _minimumOfferPrice */\n      dup5\n        /* \"contracts/Ebay.sol\":2693:2916  Auction(... */\n      dup2\n      mstore\n      0x20\n      add\n        /* \"contracts/Ebay.sol\":2860:2869  _duration */\n      dup4\n        /* \"contracts/Ebay.sol\":2842:2857  block.timestamp */\n      timestamp\n        /* \"contracts/Ebay.sol\":2842:2869  block.timestamp + _duration */\n      tag_83\n      swap2\n      swap1\n      tag_84\n      jump\t// in\n    tag_83:\n        /* \"contracts/Ebay.sol\":2693:2916  Auction(... */\n      dup2\n      mstore\n      0x20\n      add\n        /* \"contracts/Ebay.sol\":2883:2884  0 */\n      0x00\n        /* \"contracts/Ebay.sol\":2693:2916  Auction(... */\n      dup2\n      mstore\n      0x20\n      add\n        /* \"contracts/Ebay.sol\":2898:2906  offerIds */\n      dup3\n        /* \"contracts/Ebay.sol\":2693:2916  Auction(... */\n      dup2\n      mstore\n      pop\n        /* \"contracts/Ebay.sol\":2667:2675  auctions */\n      0x00\n        /* \"contracts/Ebay.sol\":2667:2690  auctions[nextAuctionId] */\n      dup1\n        /* \"contracts/Ebay.sol\":2676:2689  nextAuctionId */\n      sload(0x01)\n        /* \"contracts/Ebay.sol\":2667:2690  auctions[nextAuctionId] */\n      dup2\n      mstore\n      0x20\n      add\n      swap1\n      dup2\n      mstore\n      0x20\n      add\n      0x00\n      keccak256\n        /* \"contracts/Ebay.sol\":2667:2916  auctions[nextAuctionId] = Auction(... */\n      0x00\n      dup3\n      add\n      mload\n      dup2\n      0x00\n      add\n      sstore\n      0x20\n      dup3\n      add\n      mload\n      dup2\n      0x01\n      add\n      exp(0x0100, 0x00)\n      dup2\n      sload\n      dup2\n      0xffffffffffffffffffffffffffffffffffffffff\n      mul\n      not\n      and\n      swap1\n      dup4\n      0xffffffffffffffffffffffffffffffffffffffff\n      and\n      mul\n      or\n      swap1\n      sstore\n      pop\n      0x40\n      dup3\n      add\n      mload\n      dup2\n      0x02\n      add\n      swap1\n      dup2\n      tag_85\n      swap2\n      swap1\n      tag_86\n      jump\t// in\n    tag_85:\n      pop\n      0x60\n      dup3\n      add\n      mload\n      dup2\n      0x03\n      add\n      swap1\n      dup2\n      tag_87\n      swap2\n      swap1\n      tag_86\n      jump\t// in\n    tag_87:\n      pop\n      0x80\n      dup3\n      add\n      mload\n      dup2\n      0x04\n      add\n      sstore\n      0xa0\n      dup3\n      add\n      mload\n      dup2\n      0x05\n      add\n      sstore\n      0xc0\n      dup3\n      add\n      mload\n      dup2\n      0x06\n      add\n      sstore\n      0xe0\n      dup3\n      add\n      mload\n      dup2\n      0x07\n      add\n      swap1\n      dup1\n      mload\n      swap1\n      0x20\n      add\n      swap1\n      tag_88\n      swap3\n      swap2\n      swap1\n      tag_89\n      jump\t// in\n    tag_88:\n      pop\n      swap1\n      pop\n      pop\n        /* \"contracts/Ebay.sol\":2979:2991  userAuctions */\n      0x04\n        /* \"contracts/Ebay.sol\":2979:3003  userAuctions[msg.sender] */\n      0x00\n        /* \"contracts/Ebay.sol\":2992:3002  msg.sender */\n      caller\n        /* \"contracts/Ebay.sol\":2979:3003  userAuctions[msg.sender] */\n      0xffffffffffffffffffffffffffffffffffffffff\n      and\n      0xffffffffffffffffffffffffffffffffffffffff\n      and\n      dup2\n      mstore\n      0x20\n      add\n      swap1\n      dup2\n      mstore\n      0x20\n      add\n      0x00\n      keccak256\n        /* \"contracts/Ebay.sol\":3009:3022  nextAuctionId */\n      sload(0x01)\n        /* \"contracts/Ebay.sol\":2979:3023  userAuctions[msg.sender].push(nextAuctionId) */\n      swap1\n      dup1\n      0x01\n      dup2\n      sload\n      add\n      dup1\n      dup3\n      sstore\n      dup1\n      swap2\n      pop\n      pop\n      0x01\n      swap1\n      sub\n      swap1\n      0x00\n      mstore\n      keccak256(0x00, 0x20)\n      add\n      0x00\n      swap1\n      swap2\n      swap1\n      swap2\n      swap1\n      swap2\n      pop\n      sstore\n        /* \"contracts/Ebay.sol\":3075:3088  nextAuctionId */\n      0x01\n      0x00\n        /* \"contracts/Ebay.sol\":3075:3090  nextAuctionId++ */\n      dup2\n      sload\n      dup1\n      swap3\n      swap2\n      swap1\n      tag_91\n      swap1\n      tag_92\n      jump\t// in\n    tag_91:\n      swap2\n      swap1\n      pop\n      sstore\n      pop\n        /* \"contracts/Ebay.sol\":2186:3097  {... */\n      pop\n        /* \"contracts/Ebay.sol\":2022:3097  function createAuction(... */\n      pop\n      pop\n      pop\n      pop\n      pop\n      pop\n      jump\t// out\n        /* \"contracts/Ebay.sol\":8331:8744  function getUserOffers(address _user)... */\n    tag_29:\n        /* \"contracts/Ebay.sol\":8416:8430  Offer[] memory */\n      0x60\n        /* \"contracts/Ebay.sol\":8446:8473  uint[] storage userOfferIds */\n      0x00\n        /* \"contracts/Ebay.sol\":8476:8486  userOffers */\n      0x05\n        /* \"contracts/Ebay.sol\":8476:8493  userOffers[_user] */\n      0x00\n        /* \"contracts/Ebay.sol\":8487:8492  _user */\n      dup5\n        /* \"contracts/Ebay.sol\":8476:8493  userOffers[_user] */\n      0xffffffffffffffffffffffffffffffffffffffff\n      and\n      0xffffffffffffffffffffffffffffffffffffffff\n      and\n      dup2\n      mstore\n      0x20\n      add\n      swap1\n      dup2\n      mstore\n      0x20\n      add\n      0x00\n      keccak256\n        /* \"contracts/Ebay.sol\":8446:8493  uint[] storage userOfferIds = userOffers[_user] */\n      swap1\n      pop\n        /* \"contracts/Ebay.sol\":8503:8525  Offer[] memory _offers */\n      0x00\n        /* \"contracts/Ebay.sol\":8540:8552  userOfferIds */\n      dup2\n        /* \"contracts/Ebay.sol\":8540:8559  userOfferIds.length */\n      dup1\n      sload\n      swap1\n      pop\n        /* \"contracts/Ebay.sol\":8528:8560  new Offer[](userOfferIds.length) */\n      0xffffffffffffffff\n      dup2\n      gt\n      iszero\n      tag_94\n      jumpi\n      tag_95\n      tag_81\n      jump\t// in\n    tag_95:\n    tag_94:\n      mload(0x40)\n      swap1\n      dup1\n      dup3\n      mstore\n      dup1\n      0x20\n      mul\n      0x20\n      add\n      dup3\n      add\n      0x40\n      mstore\n      dup1\n      iszero\n      tag_96\n      jumpi\n      dup2\n      0x20\n      add\n    tag_97:\n      tag_98\n      tag_99\n      jump\t// in\n    tag_98:\n      dup2\n      mstore\n      0x20\n      add\n      swap1\n      0x01\n      swap1\n      sub\n      swap1\n      dup2\n      tag_97\n      jumpi\n      swap1\n      pop\n    tag_96:\n      pop\n        /* \"contracts/Ebay.sol\":8503:8560  Offer[] memory _offers = new Offer[](userOfferIds.length) */\n      swap1\n      pop\n        /* \"contracts/Ebay.sol\":8575:8581  uint i */\n      0x00\n        /* \"contracts/Ebay.sol\":8570:8714  for (uint i = 0; i < userOfferIds.length; i++) {... */\n    tag_100:\n        /* \"contracts/Ebay.sol\":8591:8603  userOfferIds */\n      dup3\n        /* \"contracts/Ebay.sol\":8591:8610  userOfferIds.length */\n      dup1\n      sload\n      swap1\n      pop\n        /* \"contracts/Ebay.sol\":8587:8588  i */\n      dup2\n        /* \"contracts/Ebay.sol\":8587:8610  i < userOfferIds.length */\n      lt\n        /* \"contracts/Ebay.sol\":8570:8714  for (uint i = 0; i < userOfferIds.length; i++) {... */\n      iszero\n      tag_101\n      jumpi\n        /* \"contracts/Ebay.sol\":8631:8643  uint offerId */\n      0x00\n        /* \"contracts/Ebay.sol\":8646:8658  userOfferIds */\n      dup4\n        /* \"contracts/Ebay.sol\":8659:8660  i */\n      dup3\n        /* \"contracts/Ebay.sol\":8646:8661  userOfferIds[i] */\n      dup2\n      sload\n      dup2\n      lt\n      tag_103\n      jumpi\n      tag_104\n      tag_105\n      jump\t// in\n    tag_104:\n    tag_103:\n      swap1\n      0x00\n      mstore\n      keccak256(0x00, 0x20)\n      add\n      sload\n        /* \"contracts/Ebay.sol\":8631:8661  uint offerId = userOfferIds[i] */\n      swap1\n      pop\n        /* \"contracts/Ebay.sol\":8688:8694  offers */\n      0x02\n        /* \"contracts/Ebay.sol\":8688:8703  offers[offerId] */\n      0x00\n        /* \"contracts/Ebay.sol\":8695:8702  offerId */\n      dup3\n        /* \"contracts/Ebay.sol\":8688:8703  offers[offerId] */\n      dup2\n      mstore\n      0x20\n      add\n      swap1\n      dup2\n      mstore\n      0x20\n      add\n      0x00\n      keccak256\n        /* \"contracts/Ebay.sol\":8675:8703  _offers[i] = offers[offerId] */\n      mload(0x40)\n      dup1\n      0x80\n      add\n      0x40\n      mstore\n      swap1\n      dup2\n      0x00\n      dup3\n      add\n      sload\n      dup2\n      mstore\n      0x20\n      add\n      0x01\n      dup3\n      add\n      sload\n      dup2\n      mstore\n      0x20\n      add\n      0x02\n      dup3\n      add\n      0x00\n      swap1\n      sload\n      swap1\n      0x0100\n      exp\n      swap1\n      div\n      0xffffffffffffffffffffffffffffffffffffffff\n      and\n      0xffffffffffffffffffffffffffffffffffffffff\n      and\n      0xffffffffffffffffffffffffffffffffffffffff\n      and\n      dup2\n      mstore\n      0x20\n      add\n      0x03\n      dup3\n      add\n      sload\n      dup2\n      mstore\n      pop\n      pop\n        /* \"contracts/Ebay.sol\":8675:8682  _offers */\n      dup4\n        /* \"contracts/Ebay.sol\":8683:8684  i */\n      dup4\n        /* \"contracts/Ebay.sol\":8675:8685  _offers[i] */\n      dup2\n      mload\n      dup2\n      lt\n      tag_107\n      jumpi\n      tag_108\n      tag_105\n      jump\t// in\n    tag_108:\n    tag_107:\n      0x20\n      mul\n      0x20\n      add\n      add\n        /* \"contracts/Ebay.sol\":8675:8703  _offers[i] = offers[offerId] */\n      dup2\n      swap1\n      mstore\n      pop\n        /* \"contracts/Ebay.sol\":8617:8714  {... */\n      pop\n        /* \"contracts/Ebay.sol\":8612:8615  i++ */\n      dup1\n      dup1\n      tag_109\n      swap1\n      tag_92\n      jump\t// in\n    tag_109:\n      swap2\n      pop\n      pop\n        /* \"contracts/Ebay.sol\":8570:8714  for (uint i = 0; i < userOfferIds.length; i++) {... */\n      jump(tag_100)\n    tag_101:\n      pop\n        /* \"contracts/Ebay.sol\":8730:8737  _offers */\n      dup1\n        /* \"contracts/Ebay.sol\":8723:8737  return _offers */\n      swap3\n      pop\n      pop\n      pop\n        /* \"contracts/Ebay.sol\":8331:8744  function getUserOffers(address _user)... */\n      swap2\n      swap1\n      pop\n      jump\t// out\n        /* \"contracts/Ebay.sol\":1019:1055  mapping(uint => Offer) public offers */\n    tag_35:\n      mstore(0x20, 0x02)\n      dup1\n      0x00\n      mstore\n      keccak256(0x00, 0x40)\n      0x00\n      swap2\n      pop\n      swap1\n      pop\n      dup1\n      0x00\n      add\n      sload\n      swap1\n      dup1\n      0x01\n      add\n      sload\n      swap1\n      dup1\n      0x02\n      add\n      0x00\n      swap1\n      sload\n      swap1\n      0x0100\n      exp\n      swap1\n      div\n      0xffffffffffffffffffffffffffffffffffffffff\n      and\n      swap1\n      dup1\n      0x03\n      add\n      sload\n      swap1\n      pop\n      dup5\n      jump\t// out\n        /* \"contracts/Ebay.sol\":3190:4397  function cancelAuction(uint _auctionId) external auctionExists(_auctionId) {... */\n    tag_41:\n        /* \"contracts/Ebay.sol\":3253:3263  _auctionId */\n      dup1\n        /* \"contracts/Ebay.sol\":1551:1552  0 */\n      0x00\n        /* \"contracts/Ebay.sol\":1538:1548  _auctionId */\n      dup2\n        /* \"contracts/Ebay.sol\":1538:1552  _auctionId > 0 */\n      gt\n        /* \"contracts/Ebay.sol\":1538:1582  _auctionId > 0 && _auctionId < nextAuctionId */\n      dup1\n      iszero\n      tag_111\n      jumpi\n      pop\n        /* \"contracts/Ebay.sol\":1569:1582  nextAuctionId */\n      sload(0x01)\n        /* \"contracts/Ebay.sol\":1556:1566  _auctionId */\n      dup2\n        /* \"contracts/Ebay.sol\":1556:1582  _auctionId < nextAuctionId */\n      lt\n        /* \"contracts/Ebay.sol\":1538:1582  _auctionId > 0 && _auctionId < nextAuctionId */\n    tag_111:\n        /* \"contracts/Ebay.sol\":1517:1630  require(... */\n      tag_112\n      jumpi\n      mload(0x40)\n      0x08c379a000000000000000000000000000000000000000000000000000000000\n      dup2\n      mstore\n      0x04\n      add\n      tag_113\n      swap1\n      tag_114\n      jump\t// in\n    tag_113:\n      mload(0x40)\n      dup1\n      swap2\n      sub\n      swap1\n      revert\n    tag_112:\n        /* \"contracts/Ebay.sol\":3308:3331  Auction storage auction */\n      0x00\n        /* \"contracts/Ebay.sol\":3334:3342  auctions */\n      dup1\n        /* \"contracts/Ebay.sol\":3334:3354  auctions[_auctionId] */\n      0x00\n        /* \"contracts/Ebay.sol\":3343:3353  _auctionId */\n      dup5\n        /* \"contracts/Ebay.sol\":3334:3354  auctions[_auctionId] */\n      dup2\n      mstore\n      0x20\n      add\n      swap1\n      dup2\n      mstore\n      0x20\n      add\n      0x00\n      keccak256\n        /* \"contracts/Ebay.sol\":3308:3354  Auction storage auction = auctions[_auctionId] */\n      swap1\n      pop\n        /* \"contracts/Ebay.sol\":3545:3551  uint i */\n      0x00\n        /* \"contracts/Ebay.sol\":3540:4063  for (uint i = 0; i < auction.offerIds.length; i++) {... */\n    tag_116:\n        /* \"contracts/Ebay.sol\":3561:3568  auction */\n      dup2\n        /* \"contracts/Ebay.sol\":3561:3577  auction.offerIds */\n      0x07\n      add\n        /* \"contracts/Ebay.sol\":3561:3584  auction.offerIds.length */\n      dup1\n      sload\n      swap1\n      pop\n        /* \"contracts/Ebay.sol\":3557:3558  i */\n      dup2\n        /* \"contracts/Ebay.sol\":3557:3584  i < auction.offerIds.length */\n      lt\n        /* \"contracts/Ebay.sol\":3540:4063  for (uint i = 0; i < auction.offerIds.length; i++) {... */\n      iszero\n      tag_117\n      jumpi\n        /* \"contracts/Ebay.sol\":3605:3617  uint offerId */\n      0x00\n        /* \"contracts/Ebay.sol\":3620:3627  auction */\n      dup3\n        /* \"contracts/Ebay.sol\":3620:3636  auction.offerIds */\n      0x07\n      add\n        /* \"contracts/Ebay.sol\":3637:3638  i */\n      dup3\n        /* \"contracts/Ebay.sol\":3620:3639  auction.offerIds[i] */\n      dup2\n      sload\n      dup2\n      lt\n      tag_119\n      jumpi\n      tag_120\n      tag_105\n      jump\t// in\n    tag_120:\n    tag_119:\n      swap1\n      0x00\n      mstore\n      keccak256(0x00, 0x20)\n      add\n      sload\n        /* \"contracts/Ebay.sol\":3605:3639  uint offerId = auction.offerIds[i] */\n      swap1\n      pop\n        /* \"contracts/Ebay.sol\":3653:3672  Offer storage offer */\n      0x00\n        /* \"contracts/Ebay.sol\":3675:3681  offers */\n      0x02\n        /* \"contracts/Ebay.sol\":3675:3690  offers[offerId] */\n      0x00\n        /* \"contracts/Ebay.sol\":3682:3689  offerId */\n      dup4\n        /* \"contracts/Ebay.sol\":3675:3690  offers[offerId] */\n      dup2\n      mstore\n      0x20\n      add\n      swap1\n      dup2\n      mstore\n      0x20\n      add\n      0x00\n      keccak256\n        /* \"contracts/Ebay.sol\":3653:3690  Offer storage offer = offers[offerId] */\n      swap1\n      pop\n        /* \"contracts/Ebay.sol\":3749:3754  offer */\n      dup1\n        /* \"contracts/Ebay.sol\":3749:3760  offer.buyer */\n      0x02\n      add\n      0x00\n      swap1\n      sload\n      swap1\n      0x0100\n      exp\n      swap1\n      div\n      0xffffffffffffffffffffffffffffffffffffffff\n      and\n        /* \"contracts/Ebay.sol\":3741:3770  payable(offer.buyer).transfer */\n      0xffffffffffffffffffffffffffffffffffffffff\n      and\n        /* \"contracts/Ebay.sol\":3741:3788  payable(offer.buyer).transfer(offer.offerPrice) */\n      0x08fc\n        /* \"contracts/Ebay.sol\":3771:3776  offer */\n      dup3\n        /* \"contracts/Ebay.sol\":3771:3787  offer.offerPrice */\n      0x03\n      add\n      sload\n        /* \"contracts/Ebay.sol\":3741:3788  payable(offer.buyer).transfer(offer.offerPrice) */\n      swap1\n      dup2\n      iszero\n      mul\n      swap1\n      mload(0x40)\n      0x00\n      mload(0x40)\n      dup1\n      dup4\n      sub\n      dup2\n      dup6\n      dup9\n      dup9\n      call\n      swap4\n      pop\n      pop\n      pop\n      pop\n      iszero\n      dup1\n      iszero\n      tag_123\n      jumpi\n      returndatasize\n      0x00\n      dup1\n      returndatacopy\n      revert(0x00, returndatasize)\n    tag_123:\n      pop\n        /* \"contracts/Ebay.sol\":3851:3857  uint j */\n      0x00\n        /* \"contracts/Ebay.sol\":3846:4053  for (uint j = 0; j < userOffers[offer.buyer].length; j++) {... */\n    tag_124:\n        /* \"contracts/Ebay.sol\":3867:3877  userOffers */\n      0x05\n        /* \"contracts/Ebay.sol\":3867:3890  userOffers[offer.buyer] */\n      0x00\n        /* \"contracts/Ebay.sol\":3878:3883  offer */\n      dup4\n        /* \"contracts/Ebay.sol\":3878:3889  offer.buyer */\n      0x02\n      add\n      0x00\n      swap1\n      sload\n      swap1\n      0x0100\n      exp\n      swap1\n      div\n      0xffffffffffffffffffffffffffffffffffffffff\n      and\n        /* \"contracts/Ebay.sol\":3867:3890  userOffers[offer.buyer] */\n      0xffffffffffffffffffffffffffffffffffffffff\n      and\n      0xffffffffffffffffffffffffffffffffffffffff\n      and\n      dup2\n      mstore\n      0x20\n      add\n      swap1\n      dup2\n      mstore\n      0x20\n      add\n      0x00\n      keccak256\n        /* \"contracts/Ebay.sol\":3867:3897  userOffers[offer.buyer].length */\n      dup1\n      sload\n      swap1\n      pop\n        /* \"contracts/Ebay.sol\":3863:3864  j */\n      dup2\n        /* \"contracts/Ebay.sol\":3863:3897  j < userOffers[offer.buyer].length */\n      lt\n        /* \"contracts/Ebay.sol\":3846:4053  for (uint j = 0; j < userOffers[offer.buyer].length; j++) {... */\n      iszero\n      tag_125\n      jumpi\n        /* \"contracts/Ebay.sol\":3956:3963  offerId */\n      dup3\n        /* \"contracts/Ebay.sol\":3926:3936  userOffers */\n      0x05\n        /* \"contracts/Ebay.sol\":3926:3949  userOffers[offer.buyer] */\n      0x00\n        /* \"contracts/Ebay.sol\":3937:3942  offer */\n      dup5\n        /* \"contracts/Ebay.sol\":3937:3948  offer.buyer */\n      0x02\n      add\n      0x00\n      swap1\n      sload\n      swap1\n      0x0100\n      exp\n      swap1\n      div\n      0xffffffffffffffffffffffffffffffffffffffff\n      and\n        /* \"contracts/Ebay.sol\":3926:3949  userOffers[offer.buyer] */\n      0xffffffffffffffffffffffffffffffffffffffff\n      and\n      0xffffffffffffffffffffffffffffffffffffffff\n      and\n      dup2\n      mstore\n      0x20\n      add\n      swap1\n      dup2\n      mstore\n      0x20\n      add\n      0x00\n      keccak256\n        /* \"contracts/Ebay.sol\":3950:3951  j */\n      dup3\n        /* \"contracts/Ebay.sol\":3926:3952  userOffers[offer.buyer][j] */\n      dup2\n      sload\n      dup2\n      lt\n      tag_127\n      jumpi\n      tag_128\n      tag_105\n      jump\t// in\n    tag_128:\n    tag_127:\n      swap1\n      0x00\n      mstore\n      keccak256(0x00, 0x20)\n      add\n      sload\n        /* \"contracts/Ebay.sol\":3926:3963  userOffers[offer.buyer][j] == offerId */\n      sub\n        /* \"contracts/Ebay.sol\":3922:4039  if (userOffers[offer.buyer][j] == offerId) {... */\n      tag_130\n      jumpi\n        /* \"contracts/Ebay.sol\":3994:4004  userOffers */\n      0x05\n        /* \"contracts/Ebay.sol\":3994:4017  userOffers[offer.buyer] */\n      0x00\n        /* \"contracts/Ebay.sol\":4005:4010  offer */\n      dup4\n        /* \"contracts/Ebay.sol\":4005:4016  offer.buyer */\n      0x02\n      add\n      0x00\n      swap1\n      sload\n      swap1\n      0x0100\n      exp\n      swap1\n      div\n      0xffffffffffffffffffffffffffffffffffffffff\n      and\n        /* \"contracts/Ebay.sol\":3994:4017  userOffers[offer.buyer] */\n      0xffffffffffffffffffffffffffffffffffffffff\n      and\n      0xffffffffffffffffffffffffffffffffffffffff\n      and\n      dup2\n      mstore\n      0x20\n      add\n      swap1\n      dup2\n      mstore\n      0x20\n      add\n      0x00\n      keccak256\n        /* \"contracts/Ebay.sol\":4018:4019  j */\n      dup2\n        /* \"contracts/Ebay.sol\":3994:4020  userOffers[offer.buyer][j] */\n      dup2\n      sload\n      dup2\n      lt\n      tag_131\n      jumpi\n      tag_132\n      tag_105\n      jump\t// in\n    tag_132:\n    tag_131:\n      swap1\n      0x00\n      mstore\n      keccak256(0x00, 0x20)\n      add\n        /* \"contracts/Ebay.sol\":3987:4020  delete userOffers[offer.buyer][j] */\n      0x00\n      swap1\n      sstore\n        /* \"contracts/Ebay.sol\":3922:4039  if (userOffers[offer.buyer][j] == offerId) {... */\n    tag_130:\n        /* \"contracts/Ebay.sol\":3899:3902  j++ */\n      dup1\n      dup1\n      tag_134\n      swap1\n      tag_92\n      jump\t// in\n    tag_134:\n      swap2\n      pop\n      pop\n        /* \"contracts/Ebay.sol\":3846:4053  for (uint j = 0; j < userOffers[offer.buyer].length; j++) {... */\n      jump(tag_124)\n    tag_125:\n      pop\n        /* \"contracts/Ebay.sol\":3591:4063  {... */\n      pop\n      pop\n        /* \"contracts/Ebay.sol\":3586:3589  i++ */\n      dup1\n      dup1\n      tag_135\n      swap1\n      tag_92\n      jump\t// in\n    tag_135:\n      swap2\n      pop\n      pop\n        /* \"contracts/Ebay.sol\":3540:4063  for (uint i = 0; i < auction.offerIds.length; i++) {... */\n      jump(tag_116)\n    tag_117:\n      pop\n        /* \"contracts/Ebay.sol\":4116:4122  uint k */\n      0x00\n        /* \"contracts/Ebay.sol\":4111:4320  for (uint k = 0; k < userAuctions[auction.seller].length; k++) {... */\n    tag_136:\n        /* \"contracts/Ebay.sol\":4132:4144  userAuctions */\n      0x04\n        /* \"contracts/Ebay.sol\":4132:4160  userAuctions[auction.seller] */\n      0x00\n        /* \"contracts/Ebay.sol\":4145:4152  auction */\n      dup4\n        /* \"contracts/Ebay.sol\":4145:4159  auction.seller */\n      0x01\n      add\n      0x00\n      swap1\n      sload\n      swap1\n      0x0100\n      exp\n      swap1\n      div\n      0xffffffffffffffffffffffffffffffffffffffff\n      and\n        /* \"contracts/Ebay.sol\":4132:4160  userAuctions[auction.seller] */\n      0xffffffffffffffffffffffffffffffffffffffff\n      and\n      0xffffffffffffffffffffffffffffffffffffffff\n      and\n      dup2\n      mstore\n      0x20\n      add\n      swap1\n      dup2\n      mstore\n      0x20\n      add\n      0x00\n      keccak256\n        /* \"contracts/Ebay.sol\":4132:4167  userAuctions[auction.seller].length */\n      dup1\n      sload\n      swap1\n      pop\n        /* \"contracts/Ebay.sol\":4128:4129  k */\n      dup2\n        /* \"contracts/Ebay.sol\":4128:4167  k < userAuctions[auction.seller].length */\n      lt\n        /* \"contracts/Ebay.sol\":4111:4320  for (uint k = 0; k < userAuctions[auction.seller].length; k++) {... */\n      iszero\n      tag_137\n      jumpi\n        /* \"contracts/Ebay.sol\":4227:4237  _auctionId */\n      dup4\n        /* \"contracts/Ebay.sol\":4192:4204  userAuctions */\n      0x04\n        /* \"contracts/Ebay.sol\":4192:4220  userAuctions[auction.seller] */\n      0x00\n        /* \"contracts/Ebay.sol\":4205:4212  auction */\n      dup5\n        /* \"contracts/Ebay.sol\":4205:4219  auction.seller */\n      0x01\n      add\n      0x00\n      swap1\n      sload\n      swap1\n      0x0100\n      exp\n      swap1\n      div\n      0xffffffffffffffffffffffffffffffffffffffff\n      and\n        /* \"contracts/Ebay.sol\":4192:4220  userAuctions[auction.seller] */\n      0xffffffffffffffffffffffffffffffffffffffff\n      and\n      0xffffffffffffffffffffffffffffffffffffffff\n      and\n      dup2\n      mstore\n      0x20\n      add\n      swap1\n      dup2\n      mstore\n      0x20\n      add\n      0x00\n      keccak256\n        /* \"contracts/Ebay.sol\":4221:4222  k */\n      dup3\n        /* \"contracts/Ebay.sol\":4192:4223  userAuctions[auction.seller][k] */\n      dup2\n      sload\n      dup2\n      lt\n      tag_139\n      jumpi\n      tag_140\n      tag_105\n      jump\t// in\n    tag_140:\n    tag_139:\n      swap1\n      0x00\n      mstore\n      keccak256(0x00, 0x20)\n      add\n      sload\n        /* \"contracts/Ebay.sol\":4192:4237  userAuctions[auction.seller][k] == _auctionId */\n      sub\n        /* \"contracts/Ebay.sol\":4188:4310  if (userAuctions[auction.seller][k] == _auctionId) {... */\n      tag_142\n      jumpi\n        /* \"contracts/Ebay.sol\":4264:4276  userAuctions */\n      0x04\n        /* \"contracts/Ebay.sol\":4264:4292  userAuctions[auction.seller] */\n      0x00\n        /* \"contracts/Ebay.sol\":4277:4284  auction */\n      dup4\n        /* \"contracts/Ebay.sol\":4277:4291  auction.seller */\n      0x01\n      add\n      0x00\n      swap1\n      sload\n      swap1\n      0x0100\n      exp\n      swap1\n      div\n      0xffffffffffffffffffffffffffffffffffffffff\n      and\n        /* \"contracts/Ebay.sol\":4264:4292  userAuctions[auction.seller] */\n      0xffffffffffffffffffffffffffffffffffffffff\n      and\n      0xffffffffffffffffffffffffffffffffffffffff\n      and\n      dup2\n      mstore\n      0x20\n      add\n      swap1\n      dup2\n      mstore\n      0x20\n      add\n      0x00\n      keccak256\n        /* \"contracts/Ebay.sol\":4293:4294  k */\n      dup2\n        /* \"contracts/Ebay.sol\":4264:4295  userAuctions[auction.seller][k] */\n      dup2\n      sload\n      dup2\n      lt\n      tag_143\n      jumpi\n      tag_144\n      tag_105\n      jump\t// in\n    tag_144:\n    tag_143:\n      swap1\n      0x00\n      mstore\n      keccak256(0x00, 0x20)\n      add\n        /* \"contracts/Ebay.sol\":4257:4295  delete userAuctions[auction.seller][k] */\n      0x00\n      swap1\n      sstore\n        /* \"contracts/Ebay.sol\":4188:4310  if (userAuctions[auction.seller][k] == _auctionId) {... */\n    tag_142:\n        /* \"contracts/Ebay.sol\":4169:4172  k++ */\n      dup1\n      dup1\n      tag_146\n      swap1\n      tag_92\n      jump\t// in\n    tag_146:\n      swap2\n      pop\n      pop\n        /* \"contracts/Ebay.sol\":4111:4320  for (uint k = 0; k < userAuctions[auction.seller].length; k++) {... */\n      jump(tag_136)\n    tag_137:\n      pop\n        /* \"contracts/Ebay.sol\":4370:4378  auctions */\n      0x00\n        /* \"contracts/Ebay.sol\":4370:4390  auctions[_auctionId] */\n      dup1\n        /* \"contracts/Ebay.sol\":4379:4389  _auctionId */\n      dup5\n        /* \"contracts/Ebay.sol\":4370:4390  auctions[_auctionId] */\n      dup2\n      mstore\n      0x20\n      add\n      swap1\n      dup2\n      mstore\n      0x20\n      add\n      0x00\n      keccak256\n      0x00\n        /* \"contracts/Ebay.sol\":4363:4390  delete auctions[_auctionId] */\n      dup1\n      dup3\n      add\n      0x00\n      swap1\n      sstore\n      0x01\n      dup3\n      add\n      exp(0x0100, 0x00)\n      dup2\n      sload\n      swap1\n      0xffffffffffffffffffffffffffffffffffffffff\n      mul\n      not\n      and\n      swap1\n      sstore\n      0x02\n      dup3\n      add\n      0x00\n      tag_147\n      swap2\n      swap1\n      tag_148\n      jump\t// in\n    tag_147:\n      0x03\n      dup3\n      add\n      0x00\n      tag_149\n      swap2\n      swap1\n      tag_148\n      jump\t// in\n    tag_149:\n      0x04\n      dup3\n      add\n      0x00\n      swap1\n      sstore\n      0x05\n      dup3\n      add\n      0x00\n      swap1\n      sstore\n      0x06\n      dup3\n      add\n      0x00\n      swap1\n      sstore\n      0x07\n      dup3\n      add\n      0x00\n      tag_150\n      swap2\n      swap1\n      tag_151\n      jump\t// in\n    tag_150:\n      pop\n      pop\n        /* \"contracts/Ebay.sol\":3265:4397  {... */\n      pop\n        /* \"contracts/Ebay.sol\":3190:4397  function cancelAuction(uint _auctionId) external auctionExists(_auctionId) {... */\n      pop\n      pop\n      jump\t// out\n        /* \"contracts/Ebay.sol\":4501:6279  function createOffer(uint _auctionId)... */\n    tag_44:\n        /* \"contracts/Ebay.sol\":4702:4712  _auctionId */\n      dup1\n        /* \"contracts/Ebay.sol\":1551:1552  0 */\n      0x00\n        /* \"contracts/Ebay.sol\":1538:1548  _auctionId */\n      dup2\n        /* \"contracts/Ebay.sol\":1538:1552  _auctionId > 0 */\n      gt\n        /* \"contracts/Ebay.sol\":1538:1582  _auctionId > 0 && _auctionId < nextAuctionId */\n      dup1\n      iszero\n      tag_153\n      jumpi\n      pop\n        /* \"contracts/Ebay.sol\":1569:1582  nextAuctionId */\n      sload(0x01)\n        /* \"contracts/Ebay.sol\":1556:1566  _auctionId */\n      dup2\n        /* \"contracts/Ebay.sol\":1556:1582  _auctionId < nextAuctionId */\n      lt\n        /* \"contracts/Ebay.sol\":1538:1582  _auctionId > 0 && _auctionId < nextAuctionId */\n    tag_153:\n        /* \"contracts/Ebay.sol\":1517:1630  require(... */\n      tag_154\n      jumpi\n      mload(0x40)\n      0x08c379a000000000000000000000000000000000000000000000000000000000\n      dup2\n      mstore\n      0x04\n      add\n      tag_155\n      swap1\n      tag_114\n      jump\t// in\n    tag_155:\n      mload(0x40)\n      dup1\n      swap2\n      sub\n      swap1\n      revert\n    tag_154:\n        /* \"contracts/Ebay.sol\":4763:4786  Auction storage auction */\n      0x00\n        /* \"contracts/Ebay.sol\":4789:4797  auctions */\n      dup1\n        /* \"contracts/Ebay.sol\":4789:4809  auctions[_auctionId] */\n      0x00\n        /* \"contracts/Ebay.sol\":4798:4808  _auctionId */\n      dup5\n        /* \"contracts/Ebay.sol\":4789:4809  auctions[_auctionId] */\n      dup2\n      mstore\n      0x20\n      add\n      swap1\n      dup2\n      mstore\n      0x20\n      add\n      0x00\n      keccak256\n        /* \"contracts/Ebay.sol\":4763:4809  Auction storage auction = auctions[_auctionId] */\n      swap1\n      pop\n        /* \"contracts/Ebay.sol\":4886:4893  auction */\n      dup1\n        /* \"contracts/Ebay.sol\":4886:4904  auction.auctionEnd */\n      0x05\n      add\n      sload\n        /* \"contracts/Ebay.sol\":4868:4883  block.timestamp */\n      timestamp\n        /* \"contracts/Ebay.sol\":4868:4904  block.timestamp < auction.auctionEnd */\n      lt\n        /* \"contracts/Ebay.sol\":4860:4924  require(block.timestamp < auction.auctionEnd, \"Auction expired\") */\n      tag_157\n      jumpi\n      mload(0x40)\n      0x08c379a000000000000000000000000000000000000000000000000000000000\n      dup2\n      mstore\n      0x04\n      add\n      tag_158\n      swap1\n      tag_159\n      jump\t// in\n    tag_158:\n      mload(0x40)\n      dup1\n      swap2\n      sub\n      swap1\n      revert\n    tag_157:\n        /* \"contracts/Ebay.sol\":4970:4993  Offer storage bestOffer */\n      0x00\n        /* \"contracts/Ebay.sol\":4996:5002  offers */\n      0x02\n        /* \"contracts/Ebay.sol\":4996:5023  offers[auction.bestOfferId] */\n      0x00\n        /* \"contracts/Ebay.sol\":5003:5010  auction */\n      dup4\n        /* \"contracts/Ebay.sol\":5003:5022  auction.bestOfferId */\n      0x06\n      add\n      sload\n        /* \"contracts/Ebay.sol\":4996:5023  offers[auction.bestOfferId] */\n      dup2\n      mstore\n      0x20\n      add\n      swap1\n      dup2\n      mstore\n      0x20\n      add\n      0x00\n      keccak256\n        /* \"contracts/Ebay.sol\":4970:5023  Offer storage bestOffer = offers[auction.bestOfferId] */\n      swap1\n      pop\n        /* \"contracts/Ebay.sol\":5097:5118  uint newPossibleOffer */\n      0x00\n        /* \"contracts/Ebay.sol\":5121:5130  msg.value */\n      callvalue\n        /* \"contracts/Ebay.sol\":5097:5130  uint newPossibleOffer = msg.value */\n      swap1\n      pop\n        /* \"contracts/Ebay.sol\":5145:5151  uint i */\n      0x00\n        /* \"contracts/Ebay.sol\":5140:5379  for (uint i = 0; i < auction.offerIds.length; i++) {... */\n    tag_160:\n        /* \"contracts/Ebay.sol\":5161:5168  auction */\n      dup4\n        /* \"contracts/Ebay.sol\":5161:5177  auction.offerIds */\n      0x07\n      add\n        /* \"contracts/Ebay.sol\":5161:5184  auction.offerIds.length */\n      dup1\n      sload\n      swap1\n      pop\n        /* \"contracts/Ebay.sol\":5157:5158  i */\n      dup2\n        /* \"contracts/Ebay.sol\":5157:5184  i < auction.offerIds.length */\n      lt\n        /* \"contracts/Ebay.sol\":5140:5379  for (uint i = 0; i < auction.offerIds.length; i++) {... */\n      iszero\n      tag_161\n      jumpi\n        /* \"contracts/Ebay.sol\":5205:5224  Offer storage offer */\n      0x00\n        /* \"contracts/Ebay.sol\":5227:5233  offers */\n      0x02\n        /* \"contracts/Ebay.sol\":5227:5254  offers[auction.offerIds[i]] */\n      0x00\n        /* \"contracts/Ebay.sol\":5234:5241  auction */\n      dup7\n        /* \"contracts/Ebay.sol\":5234:5250  auction.offerIds */\n      0x07\n      add\n        /* \"contracts/Ebay.sol\":5251:5252  i */\n      dup5\n        /* \"contracts/Ebay.sol\":5234:5253  auction.offerIds[i] */\n      dup2\n      sload\n      dup2\n      lt\n      tag_163\n      jumpi\n      tag_164\n      tag_105\n      jump\t// in\n    tag_164:\n    tag_163:\n      swap1\n      0x00\n      mstore\n      keccak256(0x00, 0x20)\n      add\n      sload\n        /* \"contracts/Ebay.sol\":5227:5254  offers[auction.offerIds[i]] */\n      dup2\n      mstore\n      0x20\n      add\n      swap1\n      dup2\n      mstore\n      0x20\n      add\n      0x00\n      keccak256\n        /* \"contracts/Ebay.sol\":5205:5254  Offer storage offer = offers[auction.offerIds[i]] */\n      swap1\n      pop\n        /* \"contracts/Ebay.sol\":5288:5298  msg.sender */\n      caller\n        /* \"contracts/Ebay.sol\":5273:5298  offer.buyer == msg.sender */\n      0xffffffffffffffffffffffffffffffffffffffff\n      and\n        /* \"contracts/Ebay.sol\":5273:5278  offer */\n      dup2\n        /* \"contracts/Ebay.sol\":5273:5284  offer.buyer */\n      0x02\n      add\n      0x00\n      swap1\n      sload\n      swap1\n      0x0100\n      exp\n      swap1\n      div\n      0xffffffffffffffffffffffffffffffffffffffff\n      and\n        /* \"contracts/Ebay.sol\":5273:5298  offer.buyer == msg.sender */\n      0xffffffffffffffffffffffffffffffffffffffff\n      and\n      sub\n        /* \"contracts/Ebay.sol\":5269:5369  if (offer.buyer == msg.sender) {... */\n      tag_166\n      jumpi\n        /* \"contracts/Ebay.sol\":5338:5343  offer */\n      dup1\n        /* \"contracts/Ebay.sol\":5338:5354  offer.offerPrice */\n      0x03\n      add\n      sload\n        /* \"contracts/Ebay.sol\":5318:5354  newPossibleOffer += offer.offerPrice */\n      dup4\n      tag_167\n      swap2\n      swap1\n      tag_84\n      jump\t// in\n    tag_167:\n      swap3\n      pop\n        /* \"contracts/Ebay.sol\":5269:5369  if (offer.buyer == msg.sender) {... */\n    tag_166:\n        /* \"contracts/Ebay.sol\":5191:5379  {... */\n      pop\n        /* \"contracts/Ebay.sol\":5186:5189  i++ */\n      dup1\n      dup1\n      tag_168\n      swap1\n      tag_92\n      jump\t// in\n    tag_168:\n      swap2\n      pop\n      pop\n        /* \"contracts/Ebay.sol\":5140:5379  for (uint i = 0; i < auction.offerIds.length; i++) {... */\n      jump(tag_160)\n    tag_161:\n      pop\n        /* \"contracts/Ebay.sol\":5490:5497  auction */\n      dup3\n        /* \"contracts/Ebay.sol\":5490:5515  auction.minimumOfferPrice */\n      0x04\n      add\n      sload\n        /* \"contracts/Ebay.sol\":5470:5486  newPossibleOffer */\n      dup2\n        /* \"contracts/Ebay.sol\":5470:5515  newPossibleOffer >= auction.minimumOfferPrice */\n      lt\n      iszero\n        /* \"contracts/Ebay.sol\":5470:5574  newPossibleOffer >= auction.minimumOfferPrice &&... */\n      dup1\n      iszero\n      tag_169\n      jumpi\n      pop\n        /* \"contracts/Ebay.sol\":5554:5563  bestOffer */\n      dup2\n        /* \"contracts/Ebay.sol\":5554:5574  bestOffer.offerPrice */\n      0x03\n      add\n      sload\n        /* \"contracts/Ebay.sol\":5535:5551  newPossibleOffer */\n      dup2\n        /* \"contracts/Ebay.sol\":5535:5574  newPossibleOffer > bestOffer.offerPrice */\n      gt\n        /* \"contracts/Ebay.sol\":5470:5574  newPossibleOffer >= auction.minimumOfferPrice &&... */\n    tag_169:\n        /* \"contracts/Ebay.sol\":5449:5667  require(... */\n      tag_170\n      jumpi\n      mload(0x40)\n      0x08c379a000000000000000000000000000000000000000000000000000000000\n      dup2\n      mstore\n      0x04\n      add\n      tag_171\n      swap1\n      tag_172\n      jump\t// in\n    tag_171:\n      mload(0x40)\n      dup1\n      swap2\n      sub\n      swap1\n      revert\n    tag_170:\n        /* \"contracts/Ebay.sol\":5741:5752  nextOfferId */\n      sload(0x03)\n        /* \"contracts/Ebay.sol\":5719:5726  auction */\n      dup4\n        /* \"contracts/Ebay.sol\":5719:5738  auction.bestOfferId */\n      0x06\n      add\n        /* \"contracts/Ebay.sol\":5719:5752  auction.bestOfferId = nextOfferId */\n      dup2\n      swap1\n      sstore\n      pop\n        /* \"contracts/Ebay.sol\":5815:5933  Offer(... */\n      mload(0x40)\n      dup1\n      0x80\n      add\n      0x40\n      mstore\n      dup1\n        /* \"contracts/Ebay.sol\":5834:5845  nextOfferId */\n      sload(0x03)\n        /* \"contracts/Ebay.sol\":5815:5933  Offer(... */\n      dup2\n      mstore\n      0x20\n      add\n        /* \"contracts/Ebay.sol\":5859:5869  _auctionId */\n      dup7\n        /* \"contracts/Ebay.sol\":5815:5933  Offer(... */\n      dup2\n      mstore\n      0x20\n      add\n        /* \"contracts/Ebay.sol\":5883:5893  msg.sender */\n      caller\n        /* \"contracts/Ebay.sol\":5815:5933  Offer(... */\n      0xffffffffffffffffffffffffffffffffffffffff\n      and\n      dup2\n      mstore\n      0x20\n      add\n        /* \"contracts/Ebay.sol\":5907:5923  newPossibleOffer */\n      dup3\n        /* \"contracts/Ebay.sol\":5815:5933  Offer(... */\n      dup2\n      mstore\n      pop\n        /* \"contracts/Ebay.sol\":5793:5799  offers */\n      0x02\n        /* \"contracts/Ebay.sol\":5793:5812  offers[nextOfferId] */\n      0x00\n        /* \"contracts/Ebay.sol\":5800:5811  nextOfferId */\n      sload(0x03)\n        /* \"contracts/Ebay.sol\":5793:5812  offers[nextOfferId] */\n      dup2\n      mstore\n      0x20\n      add\n      swap1\n      dup2\n      mstore\n      0x20\n      add\n      0x00\n      keccak256\n        /* \"contracts/Ebay.sol\":5793:5933  offers[nextOfferId] = Offer(... */\n      0x00\n      dup3\n      add\n      mload\n      dup2\n      0x00\n      add\n      sstore\n      0x20\n      dup3\n      add\n      mload\n      dup2\n      0x01\n      add\n      sstore\n      0x40\n      dup3\n      add\n      mload\n      dup2\n      0x02\n      add\n      exp(0x0100, 0x00)\n      dup2\n      sload\n      dup2\n      0xffffffffffffffffffffffffffffffffffffffff\n      mul\n      not\n      and\n      swap1\n      dup4\n      0xffffffffffffffffffffffffffffffffffffffff\n      and\n      mul\n      or\n      swap1\n      sstore\n      pop\n      0x60\n      dup3\n      add\n      mload\n      dup2\n      0x03\n      add\n      sstore\n      swap1\n      pop\n      pop\n        /* \"contracts/Ebay.sol\":5944:5951  auction */\n      dup3\n        /* \"contracts/Ebay.sol\":5944:5960  auction.offerIds */\n      0x07\n      add\n        /* \"contracts/Ebay.sol\":5966:5977  nextOfferId */\n      sload(0x03)\n        /* \"contracts/Ebay.sol\":5944:5978  auction.offerIds.push(nextOfferId) */\n      swap1\n      dup1\n      0x01\n      dup2\n      sload\n      add\n      dup1\n      dup3\n      sstore\n      dup1\n      swap2\n      pop\n      pop\n      0x01\n      swap1\n      sub\n      swap1\n      0x00\n      mstore\n      keccak256(0x00, 0x20)\n      add\n      0x00\n      swap1\n      swap2\n      swap1\n      swap2\n      swap1\n      swap2\n      pop\n      sstore\n        /* \"contracts/Ebay.sol\":6107:6108  1 */\n      0x01\n        /* \"contracts/Ebay.sol\":6088:6104  newPossibleOffer */\n      dup2\n        /* \"contracts/Ebay.sol\":6088:6108  newPossibleOffer + 1 */\n      tag_174\n      swap2\n      swap1\n      tag_84\n      jump\t// in\n    tag_174:\n        /* \"contracts/Ebay.sol\":6060:6067  auction */\n      dup4\n        /* \"contracts/Ebay.sol\":6060:6085  auction.minimumOfferPrice */\n      0x04\n      add\n        /* \"contracts/Ebay.sol\":6060:6108  auction.minimumOfferPrice = newPossibleOffer + 1 */\n      dup2\n      swap1\n      sstore\n      pop\n        /* \"contracts/Ebay.sol\":6169:6179  userOffers */\n      0x05\n        /* \"contracts/Ebay.sol\":6169:6191  userOffers[msg.sender] */\n      0x00\n        /* \"contracts/Ebay.sol\":6180:6190  msg.sender */\n      caller\n        /* \"contracts/Ebay.sol\":6169:6191  userOffers[msg.sender] */\n      0xffffffffffffffffffffffffffffffffffffffff\n      and\n      0xffffffffffffffffffffffffffffffffffffffff\n      and\n      dup2\n      mstore\n      0x20\n      add\n      swap1\n      dup2\n      mstore\n      0x20\n      add\n      0x00\n      keccak256\n        /* \"contracts/Ebay.sol\":6197:6208  nextOfferId */\n      sload(0x03)\n        /* \"contracts/Ebay.sol\":6169:6209  userOffers[msg.sender].push(nextOfferId) */\n      swap1\n      dup1\n      0x01\n      dup2\n      sload\n      add\n      dup1\n      dup3\n      sstore\n      dup1\n      swap2\n      pop\n      pop\n      0x01\n      swap1\n      sub\n      swap1\n      0x00\n      mstore\n      keccak256(0x00, 0x20)\n      add\n      0x00\n      swap1\n      swap2\n      swap1\n      swap2\n      swap1\n      swap2\n      pop\n      sstore\n        /* \"contracts/Ebay.sol\":6259:6270  nextOfferId */\n      0x03\n      0x00\n        /* \"contracts/Ebay.sol\":6259:6272  nextOfferId++ */\n      dup2\n      sload\n      dup1\n      swap3\n      swap2\n      swap1\n      tag_176\n      swap1\n      tag_92\n      jump\t// in\n    tag_176:\n      swap2\n      swap1\n      pop\n      sstore\n      pop\n        /* \"contracts/Ebay.sol\":4718:6279  {   ... */\n      pop\n      pop\n      pop\n        /* \"contracts/Ebay.sol\":4501:6279  function createOffer(uint _auctionId)... */\n      pop\n      pop\n      jump\t// out\n        /* \"contracts/Ebay.sol\":8837:9389  function getAuctionOffers(uint _auctionId)... */\n    tag_48:\n        /* \"contracts/Ebay.sol\":8961:8975  Offer[] memory */\n      0x60\n        /* \"contracts/Ebay.sol\":8932:8942  _auctionId */\n      dup2\n        /* \"contracts/Ebay.sol\":1551:1552  0 */\n      0x00\n        /* \"contracts/Ebay.sol\":1538:1548  _auctionId */\n      dup2\n        /* \"contracts/Ebay.sol\":1538:1552  _auctionId > 0 */\n      gt\n        /* \"contracts/Ebay.sol\":1538:1582  _auctionId > 0 && _auctionId < nextAuctionId */\n      dup1\n      iszero\n      tag_178\n      jumpi\n      pop\n        /* \"contracts/Ebay.sol\":1569:1582  nextAuctionId */\n      sload(0x01)\n        /* \"contracts/Ebay.sol\":1556:1566  _auctionId */\n      dup2\n        /* \"contracts/Ebay.sol\":1556:1582  _auctionId < nextAuctionId */\n      lt\n        /* \"contracts/Ebay.sol\":1538:1582  _auctionId > 0 && _auctionId < nextAuctionId */\n    tag_178:\n        /* \"contracts/Ebay.sol\":1517:1630  require(... */\n      tag_179\n      jumpi\n      mload(0x40)\n      0x08c379a000000000000000000000000000000000000000000000000000000000\n      dup2\n      mstore\n      0x04\n      add\n      tag_180\n      swap1\n      tag_114\n      jump\t// in\n    tag_180:\n      mload(0x40)\n      dup1\n      swap2\n      sub\n      swap1\n      revert\n    tag_179:\n        /* \"contracts/Ebay.sol\":9023:9046  Auction storage auction */\n      0x00\n        /* \"contracts/Ebay.sol\":9049:9057  auctions */\n      dup1\n        /* \"contracts/Ebay.sol\":9049:9069  auctions[_auctionId] */\n      0x00\n        /* \"contracts/Ebay.sol\":9058:9068  _auctionId */\n      dup6\n        /* \"contracts/Ebay.sol\":9049:9069  auctions[_auctionId] */\n      dup2\n      mstore\n      0x20\n      add\n      swap1\n      dup2\n      mstore\n      0x20\n      add\n      0x00\n      keccak256\n        /* \"contracts/Ebay.sol\":9023:9069  Auction storage auction = auctions[_auctionId] */\n      swap1\n      pop\n        /* \"contracts/Ebay.sol\":9079:9109  uint[] storage auctionOfferIds */\n      0x00\n        /* \"contracts/Ebay.sol\":9112:9119  auction */\n      dup2\n        /* \"contracts/Ebay.sol\":9112:9128  auction.offerIds */\n      0x07\n      add\n        /* \"contracts/Ebay.sol\":9079:9128  uint[] storage auctionOfferIds = auction.offerIds */\n      swap1\n      pop\n        /* \"contracts/Ebay.sol\":9139:9161  Offer[] memory _offers */\n      0x00\n        /* \"contracts/Ebay.sol\":9176:9191  auctionOfferIds */\n      dup2\n        /* \"contracts/Ebay.sol\":9176:9198  auctionOfferIds.length */\n      dup1\n      sload\n      swap1\n      pop\n        /* \"contracts/Ebay.sol\":9164:9199  new Offer[](auctionOfferIds.length) */\n      0xffffffffffffffff\n      dup2\n      gt\n      iszero\n      tag_182\n      jumpi\n      tag_183\n      tag_81\n      jump\t// in\n    tag_183:\n    tag_182:\n      mload(0x40)\n      swap1\n      dup1\n      dup3\n      mstore\n      dup1\n      0x20\n      mul\n      0x20\n      add\n      dup3\n      add\n      0x40\n      mstore\n      dup1\n      iszero\n      tag_184\n      jumpi\n      dup2\n      0x20\n      add\n    tag_185:\n      tag_186\n      tag_99\n      jump\t// in\n    tag_186:\n      dup2\n      mstore\n      0x20\n      add\n      swap1\n      0x01\n      swap1\n      sub\n      swap1\n      dup2\n      tag_185\n      jumpi\n      swap1\n      pop\n    tag_184:\n      pop\n        /* \"contracts/Ebay.sol\":9139:9199  Offer[] memory _offers = new Offer[](auctionOfferIds.length) */\n      swap1\n      pop\n        /* \"contracts/Ebay.sol\":9214:9220  uint i */\n      0x00\n        /* \"contracts/Ebay.sol\":9209:9359  for (uint i = 0; i < auctionOfferIds.length; i++) {... */\n    tag_187:\n        /* \"contracts/Ebay.sol\":9230:9245  auctionOfferIds */\n      dup3\n        /* \"contracts/Ebay.sol\":9230:9252  auctionOfferIds.length */\n      dup1\n      sload\n      swap1\n      pop\n        /* \"contracts/Ebay.sol\":9226:9227  i */\n      dup2\n        /* \"contracts/Ebay.sol\":9226:9252  i < auctionOfferIds.length */\n      lt\n        /* \"contracts/Ebay.sol\":9209:9359  for (uint i = 0; i < auctionOfferIds.length; i++) {... */\n      iszero\n      tag_188\n      jumpi\n        /* \"contracts/Ebay.sol\":9273:9285  uint offerId */\n      0x00\n        /* \"contracts/Ebay.sol\":9288:9303  auctionOfferIds */\n      dup4\n        /* \"contracts/Ebay.sol\":9304:9305  i */\n      dup3\n        /* \"contracts/Ebay.sol\":9288:9306  auctionOfferIds[i] */\n      dup2\n      sload\n      dup2\n      lt\n      tag_190\n      jumpi\n      tag_191\n      tag_105\n      jump\t// in\n    tag_191:\n    tag_190:\n      swap1\n      0x00\n      mstore\n      keccak256(0x00, 0x20)\n      add\n      sload\n        /* \"contracts/Ebay.sol\":9273:9306  uint offerId = auctionOfferIds[i] */\n      swap1\n      pop\n        /* \"contracts/Ebay.sol\":9333:9339  offers */\n      0x02\n        /* \"contracts/Ebay.sol\":9333:9348  offers[offerId] */\n      0x00\n        /* \"contracts/Ebay.sol\":9340:9347  offerId */\n      dup3\n        /* \"contracts/Ebay.sol\":9333:9348  offers[offerId] */\n      dup2\n      mstore\n      0x20\n      add\n      swap1\n      dup2\n      mstore\n      0x20\n      add\n      0x00\n      keccak256\n        /* \"contracts/Ebay.sol\":9320:9348  _offers[i] = offers[offerId] */\n      mload(0x40)\n      dup1\n      0x80\n      add\n      0x40\n      mstore\n      swap1\n      dup2\n      0x00\n      dup3\n      add\n      sload\n      dup2\n      mstore\n      0x20\n      add\n      0x01\n      dup3\n      add\n      sload\n      dup2\n      mstore\n      0x20\n      add\n      0x02\n      dup3\n      add\n      0x00\n      swap1\n      sload\n      swap1\n      0x0100\n      exp\n      swap1\n      div\n      0xffffffffffffffffffffffffffffffffffffffff\n      and\n      0xffffffffffffffffffffffffffffffffffffffff\n      and\n      0xffffffffffffffffffffffffffffffffffffffff\n      and\n      dup2\n      mstore\n      0x20\n      add\n      0x03\n      dup3\n      add\n      sload\n      dup2\n      mstore\n      pop\n      pop\n        /* \"contracts/Ebay.sol\":9320:9327  _offers */\n      dup4\n        /* \"contracts/Ebay.sol\":9328:9329  i */\n      dup4\n        /* \"contracts/Ebay.sol\":9320:9330  _offers[i] */\n      dup2\n      mload\n      dup2\n      lt\n      tag_193\n      jumpi\n      tag_194\n      tag_105\n      jump\t// in\n    tag_194:\n    tag_193:\n      0x20\n      mul\n      0x20\n      add\n      add\n        /* \"contracts/Ebay.sol\":9320:9348  _offers[i] = offers[offerId] */\n      dup2\n      swap1\n      mstore\n      pop\n        /* \"contracts/Ebay.sol\":9259:9359  {... */\n      pop\n        /* \"contracts/Ebay.sol\":9254:9257  i++ */\n      dup1\n      dup1\n      tag_195\n      swap1\n      tag_92\n      jump\t// in\n    tag_195:\n      swap2\n      pop\n      pop\n        /* \"contracts/Ebay.sol\":9209:9359  for (uint i = 0; i < auctionOfferIds.length; i++) {... */\n      jump(tag_187)\n    tag_188:\n      pop\n        /* \"contracts/Ebay.sol\":9375:9382  _offers */\n      dup1\n        /* \"contracts/Ebay.sol\":9368:9382  return _offers */\n      swap5\n      pop\n      pop\n      pop\n      pop\n        /* \"contracts/Ebay.sol\":8837:9389  function getAuctionOffers(uint _auctionId)... */\n      pop\n      swap2\n      swap1\n      pop\n      jump\t// out\n        /* \"contracts/Ebay.sol\":7434:7707  function getAuctions() external view returns (Auction[] memory) {... */\n    tag_52:\n        /* \"contracts/Ebay.sol\":7480:7496  Auction[] memory */\n      0x60\n        /* \"contracts/Ebay.sol\":7508:7534  Auction[] memory _auctions */\n      0x00\n        /* \"contracts/Ebay.sol\":7567:7568  1 */\n      0x01\n        /* \"contracts/Ebay.sol\":7551:7564  nextAuctionId */\n      dup1\n      sload\n        /* \"contracts/Ebay.sol\":7551:7568  nextAuctionId - 1 */\n      tag_197\n      swap2\n      swap1\n      tag_198\n      jump\t// in\n    tag_197:\n        /* \"contracts/Ebay.sol\":7537:7569  new Auction[](nextAuctionId - 1) */\n      0xffffffffffffffff\n      dup2\n      gt\n      iszero\n      tag_199\n      jumpi\n      tag_200\n      tag_81\n      jump\t// in\n    tag_200:\n    tag_199:\n      mload(0x40)\n      swap1\n      dup1\n      dup3\n      mstore\n      dup1\n      0x20\n      mul\n      0x20\n      add\n      dup3\n      add\n      0x40\n      mstore\n      dup1\n      iszero\n      tag_201\n      jumpi\n      dup2\n      0x20\n      add\n    tag_202:\n      tag_203\n      tag_204\n      jump\t// in\n    tag_203:\n      dup2\n      mstore\n      0x20\n      add\n      swap1\n      0x01\n      swap1\n      sub\n      swap1\n      dup2\n      tag_202\n      jumpi\n      swap1\n      pop\n    tag_201:\n      pop\n        /* \"contracts/Ebay.sol\":7508:7569  Auction[] memory _auctions = new Auction[](nextAuctionId - 1) */\n      swap1\n      pop\n        /* \"contracts/Ebay.sol\":7584:7590  uint i */\n      0x00\n        /* \"contracts/Ebay.sol\":7593:7594  1 */\n      0x01\n        /* \"contracts/Ebay.sol\":7584:7594  uint i = 1 */\n      swap1\n      pop\n        /* \"contracts/Ebay.sol\":7579:7675  for (uint i = 1; i < nextAuctionId; i++) {... */\n    tag_205:\n        /* \"contracts/Ebay.sol\":7600:7613  nextAuctionId */\n      sload(0x01)\n        /* \"contracts/Ebay.sol\":7596:7597  i */\n      dup2\n        /* \"contracts/Ebay.sol\":7596:7613  i < nextAuctionId */\n      lt\n        /* \"contracts/Ebay.sol\":7579:7675  for (uint i = 1; i < nextAuctionId; i++) {... */\n      iszero\n      tag_206\n      jumpi\n        /* \"contracts/Ebay.sol\":7653:7661  auctions */\n      0x00\n        /* \"contracts/Ebay.sol\":7653:7664  auctions[i] */\n      dup1\n        /* \"contracts/Ebay.sol\":7662:7663  i */\n      dup3\n        /* \"contracts/Ebay.sol\":7653:7664  auctions[i] */\n      dup2\n      mstore\n      0x20\n      add\n      swap1\n      dup2\n      mstore\n      0x20\n      add\n      0x00\n      keccak256\n        /* \"contracts/Ebay.sol\":7634:7664  _auctions[i - 1] = auctions[i] */\n      mload(0x40)\n      dup1\n      0x0100\n      add\n      0x40\n      mstore\n      swap1\n      dup2\n      0x00\n      dup3\n      add\n      sload\n      dup2\n      mstore\n      0x20\n      add\n      0x01\n      dup3\n      add\n      0x00\n      swap1\n      sload\n      swap1\n      0x0100\n      exp\n      swap1\n      div\n      0xffffffffffffffffffffffffffffffffffffffff\n      and\n      0xffffffffffffffffffffffffffffffffffffffff\n      and\n      0xffffffffffffffffffffffffffffffffffffffff\n      and\n      dup2\n      mstore\n      0x20\n      add\n      0x02\n      dup3\n      add\n      dup1\n      sload\n      tag_208\n      swap1\n      tag_65\n      jump\t// in\n    tag_208:\n      dup1\n      0x1f\n      add\n      0x20\n      dup1\n      swap2\n      div\n      mul\n      0x20\n      add\n      mload(0x40)\n      swap1\n      dup2\n      add\n      0x40\n      mstore\n      dup1\n      swap3\n      swap2\n      swap1\n      dup2\n      dup2\n      mstore\n      0x20\n      add\n      dup3\n      dup1\n      sload\n      tag_209\n      swap1\n      tag_65\n      jump\t// in\n    tag_209:\n      dup1\n      iszero\n      tag_210\n      jumpi\n      dup1\n      0x1f\n      lt\n      tag_211\n      jumpi\n      0x0100\n      dup1\n      dup4\n      sload\n      div\n      mul\n      dup4\n      mstore\n      swap2\n      0x20\n      add\n      swap2\n      jump(tag_210)\n    tag_211:\n      dup3\n      add\n      swap2\n      swap1\n      0x00\n      mstore\n      keccak256(0x00, 0x20)\n      swap1\n    tag_212:\n      dup2\n      sload\n      dup2\n      mstore\n      swap1\n      0x01\n      add\n      swap1\n      0x20\n      add\n      dup1\n      dup4\n      gt\n      tag_212\n      jumpi\n      dup3\n      swap1\n      sub\n      0x1f\n      and\n      dup3\n      add\n      swap2\n    tag_210:\n      pop\n      pop\n      pop\n      pop\n      pop\n      dup2\n      mstore\n      0x20\n      add\n      0x03\n      dup3\n      add\n      dup1\n      sload\n      tag_213\n      swap1\n      tag_65\n      jump\t// in\n    tag_213:\n      dup1\n      0x1f\n      add\n      0x20\n      dup1\n      swap2\n      div\n      mul\n      0x20\n      add\n      mload(0x40)\n      swap1\n      dup2\n      add\n      0x40\n      mstore\n      dup1\n      swap3\n      swap2\n      swap1\n      dup2\n      dup2\n      mstore\n      0x20\n      add\n      dup3\n      dup1\n      sload\n      tag_214\n      swap1\n      tag_65\n      jump\t// in\n    tag_214:\n      dup1\n      iszero\n      tag_215\n      jumpi\n      dup1\n      0x1f\n      lt\n      tag_216\n      jumpi\n      0x0100\n      dup1\n      dup4\n      sload\n      div\n      mul\n      dup4\n      mstore\n      swap2\n      0x20\n      add\n      swap2\n      jump(tag_215)\n    tag_216:\n      dup3\n      add\n      swap2\n      swap1\n      0x00\n      mstore\n      keccak256(0x00, 0x20)\n      swap1\n    tag_217:\n      dup2\n      sload\n      dup2\n      mstore\n      swap1\n      0x01\n      add\n      swap1\n      0x20\n      add\n      dup1\n      dup4\n      gt\n      tag_217\n      jumpi\n      dup3\n      swap1\n      sub\n      0x1f\n      and\n      dup3\n      add\n      swap2\n    tag_215:\n      pop\n      pop\n      pop\n      pop\n      pop\n      dup2\n      mstore\n      0x20\n      add\n      0x04\n      dup3\n      add\n      sload\n      dup2\n      mstore\n      0x20\n      add\n      0x05\n      dup3\n      add\n      sload\n      dup2\n      mstore\n      0x20\n      add\n      0x06\n      dup3\n      add\n      sload\n      dup2\n      mstore\n      0x20\n      add\n      0x07\n      dup3\n      add\n      dup1\n      sload\n      dup1\n      0x20\n      mul\n      0x20\n      add\n      mload(0x40)\n      swap1\n      dup2\n      add\n      0x40\n      mstore\n      dup1\n      swap3\n      swap2\n      swap1\n      dup2\n      dup2\n      mstore\n      0x20\n      add\n      dup3\n      dup1\n      sload\n      dup1\n      iszero\n      tag_218\n      jumpi\n      0x20\n      mul\n      dup3\n      add\n      swap2\n      swap1\n      0x00\n      mstore\n      keccak256(0x00, 0x20)\n      swap1\n    tag_219:\n      dup2\n      sload\n      dup2\n      mstore\n      0x20\n      add\n      swap1\n      0x01\n      add\n      swap1\n      dup1\n      dup4\n      gt\n      tag_219\n      jumpi\n    tag_218:\n      pop\n      pop\n      pop\n      pop\n      pop\n      dup2\n      mstore\n      pop\n      pop\n        /* \"contracts/Ebay.sol\":7634:7643  _auctions */\n      dup3\n        /* \"contracts/Ebay.sol\":7648:7649  1 */\n      0x01\n        /* \"contracts/Ebay.sol\":7644:7645  i */\n      dup4\n        /* \"contracts/Ebay.sol\":7644:7649  i - 1 */\n      tag_220\n      swap2\n      swap1\n      tag_198\n      jump\t// in\n    tag_220:\n        /* \"contracts/Ebay.sol\":7634:7650  _auctions[i - 1] */\n      dup2\n      mload\n      dup2\n      lt\n      tag_221\n      jumpi\n      tag_222\n      tag_105\n      jump\t// in\n    tag_222:\n    tag_221:\n      0x20\n      mul\n      0x20\n      add\n      add\n        /* \"contracts/Ebay.sol\":7634:7664  _auctions[i - 1] = auctions[i] */\n      dup2\n      swap1\n      mstore\n      pop\n        /* \"contracts/Ebay.sol\":7615:7618  i++ */\n      dup1\n      dup1\n      tag_223\n      swap1\n      tag_92\n      jump\t// in\n    tag_223:\n      swap2\n      pop\n      pop\n        /* \"contracts/Ebay.sol\":7579:7675  for (uint i = 1; i < nextAuctionId; i++) {... */\n      jump(tag_205)\n    tag_206:\n      pop\n        /* \"contracts/Ebay.sol\":7691:7700  _auctions */\n      dup1\n        /* \"contracts/Ebay.sol\":7684:7700  return _auctions */\n      swap2\n      pop\n      pop\n        /* \"contracts/Ebay.sol\":7434:7707  function getAuctions() external view returns (Auction[] memory) {... */\n      swap1\n      jump\t// out\n        /* \"contracts/Ebay.sol\":6376:7333  function trade(uint _auctionId) external auctionExists(_auctionId) {... */\n    tag_58:\n        /* \"contracts/Ebay.sol\":6431:6441  _auctionId */\n      dup1\n        /* \"contracts/Ebay.sol\":1551:1552  0 */\n      0x00\n        /* \"contracts/Ebay.sol\":1538:1548  _auctionId */\n      dup2\n        /* \"contracts/Ebay.sol\":1538:1552  _auctionId > 0 */\n      gt\n        /* \"contracts/Ebay.sol\":1538:1582  _auctionId > 0 && _auctionId < nextAuctionId */\n      dup1\n      iszero\n      tag_225\n      jumpi\n      pop\n        /* \"contracts/Ebay.sol\":1569:1582  nextAuctionId */\n      sload(0x01)\n        /* \"contracts/Ebay.sol\":1556:1566  _auctionId */\n      dup2\n        /* \"contracts/Ebay.sol\":1556:1582  _auctionId < nextAuctionId */\n      lt\n        /* \"contracts/Ebay.sol\":1538:1582  _auctionId > 0 && _auctionId < nextAuctionId */\n    tag_225:\n        /* \"contracts/Ebay.sol\":1517:1630  require(... */\n      tag_226\n      jumpi\n      mload(0x40)\n      0x08c379a000000000000000000000000000000000000000000000000000000000\n      dup2\n      mstore\n      0x04\n      add\n      tag_227\n      swap1\n      tag_114\n      jump\t// in\n    tag_227:\n      mload(0x40)\n      dup1\n      swap2\n      sub\n      swap1\n      revert\n    tag_226:\n        /* \"contracts/Ebay.sol\":6485:6508  Auction storage auction */\n      0x00\n        /* \"contracts/Ebay.sol\":6511:6519  auctions */\n      dup1\n        /* \"contracts/Ebay.sol\":6511:6531  auctions[_auctionId] */\n      0x00\n        /* \"contracts/Ebay.sol\":6520:6530  _auctionId */\n      dup5\n        /* \"contracts/Ebay.sol\":6511:6531  auctions[_auctionId] */\n      dup2\n      mstore\n      0x20\n      add\n      swap1\n      dup2\n      mstore\n      0x20\n      add\n      0x00\n      keccak256\n        /* \"contracts/Ebay.sol\":6485:6531  Auction storage auction = auctions[_auctionId] */\n      swap1\n      pop\n        /* \"contracts/Ebay.sol\":6577:6600  Offer storage bestOffer */\n      0x00\n        /* \"contracts/Ebay.sol\":6603:6609  offers */\n      0x02\n        /* \"contracts/Ebay.sol\":6603:6630  offers[auction.bestOfferId] */\n      0x00\n        /* \"contracts/Ebay.sol\":6610:6617  auction */\n      dup4\n        /* \"contracts/Ebay.sol\":6610:6629  auction.bestOfferId */\n      0x06\n      add\n      sload\n        /* \"contracts/Ebay.sol\":6603:6630  offers[auction.bestOfferId] */\n      dup2\n      mstore\n      0x20\n      add\n      swap1\n      dup2\n      mstore\n      0x20\n      add\n      0x00\n      keccak256\n        /* \"contracts/Ebay.sol\":6577:6630  Offer storage bestOffer = offers[auction.bestOfferId] */\n      swap1\n      pop\n        /* \"contracts/Ebay.sol\":6718:6725  auction */\n      dup2\n        /* \"contracts/Ebay.sol\":6718:6736  auction.auctionEnd */\n      0x05\n      add\n      sload\n        /* \"contracts/Ebay.sol\":6700:6715  block.timestamp */\n      timestamp\n        /* \"contracts/Ebay.sol\":6700:6736  block.timestamp > auction.auctionEnd */\n      gt\n        /* \"contracts/Ebay.sol\":6679:6785  require(... */\n      tag_229\n      jumpi\n      mload(0x40)\n      0x08c379a000000000000000000000000000000000000000000000000000000000\n      dup2\n      mstore\n      0x04\n      add\n      tag_230\n      swap1\n      tag_231\n      jump\t// in\n    tag_230:\n      mload(0x40)\n      dup1\n      swap2\n      sub\n      swap1\n      revert\n    tag_229:\n        /* \"contracts/Ebay.sol\":6840:6846  uint i */\n      0x00\n        /* \"contracts/Ebay.sol\":6835:7212  for (uint i = 0; i < auction.offerIds.length; i++) {... */\n    tag_232:\n        /* \"contracts/Ebay.sol\":6856:6863  auction */\n      dup3\n        /* \"contracts/Ebay.sol\":6856:6872  auction.offerIds */\n      0x07\n      add\n        /* \"contracts/Ebay.sol\":6856:6879  auction.offerIds.length */\n      dup1\n      sload\n      swap1\n      pop\n        /* \"contracts/Ebay.sol\":6852:6853  i */\n      dup2\n        /* \"contracts/Ebay.sol\":6852:6879  i < auction.offerIds.length */\n      lt\n        /* \"contracts/Ebay.sol\":6835:7212  for (uint i = 0; i < auction.offerIds.length; i++) {... */\n      iszero\n      tag_233\n      jumpi\n        /* \"contracts/Ebay.sol\":6900:6912  uint offerId */\n      0x00\n        /* \"contracts/Ebay.sol\":6915:6922  auction */\n      dup4\n        /* \"contracts/Ebay.sol\":6915:6931  auction.offerIds */\n      0x07\n      add\n        /* \"contracts/Ebay.sol\":6932:6933  i */\n      dup3\n        /* \"contracts/Ebay.sol\":6915:6934  auction.offerIds[i] */\n      dup2\n      sload\n      dup2\n      lt\n      tag_235\n      jumpi\n      tag_236\n      tag_105\n      jump\t// in\n    tag_236:\n    tag_235:\n      swap1\n      0x00\n      mstore\n      keccak256(0x00, 0x20)\n      add\n      sload\n        /* \"contracts/Ebay.sol\":6900:6934  uint offerId = auction.offerIds[i] */\n      swap1\n      pop\n        /* \"contracts/Ebay.sol\":6948:6967  Offer storage offer */\n      0x00\n        /* \"contracts/Ebay.sol\":6970:6976  offers */\n      0x02\n        /* \"contracts/Ebay.sol\":6970:6985  offers[offerId] */\n      0x00\n        /* \"contracts/Ebay.sol\":6977:6984  offerId */\n      dup4\n        /* \"contracts/Ebay.sol\":6970:6985  offers[offerId] */\n      dup2\n      mstore\n      0x20\n      add\n      swap1\n      dup2\n      mstore\n      0x20\n      add\n      0x00\n      keccak256\n        /* \"contracts/Ebay.sol\":6948:6985  Offer storage offer = offers[offerId] */\n      swap1\n      pop\n        /* \"contracts/Ebay.sol\":7108:7117  bestOffer */\n      dup4\n        /* \"contracts/Ebay.sol\":7108:7120  bestOffer.id */\n      0x00\n      add\n      sload\n        /* \"contracts/Ebay.sol\":7097:7104  offerId */\n      dup3\n        /* \"contracts/Ebay.sol\":7097:7120  offerId != bestOffer.id */\n      eq\n        /* \"contracts/Ebay.sol\":7093:7202  if (offerId != bestOffer.id) {... */\n      tag_238\n      jumpi\n        /* \"contracts/Ebay.sol\":7148:7153  offer */\n      dup1\n        /* \"contracts/Ebay.sol\":7148:7159  offer.buyer */\n      0x02\n      add\n      0x00\n      swap1\n      sload\n      swap1\n      0x0100\n      exp\n      swap1\n      div\n      0xffffffffffffffffffffffffffffffffffffffff\n      and\n        /* \"contracts/Ebay.sol\":7140:7169  payable(offer.buyer).transfer */\n      0xffffffffffffffffffffffffffffffffffffffff\n      and\n        /* \"contracts/Ebay.sol\":7140:7187  payable(offer.buyer).transfer(offer.offerPrice) */\n      0x08fc\n        /* \"contracts/Ebay.sol\":7170:7175  offer */\n      dup3\n        /* \"contracts/Ebay.sol\":7170:7186  offer.offerPrice */\n      0x03\n      add\n      sload\n        /* \"contracts/Ebay.sol\":7140:7187  payable(offer.buyer).transfer(offer.offerPrice) */\n      swap1\n      dup2\n      iszero\n      mul\n      swap1\n      mload(0x40)\n      0x00\n      mload(0x40)\n      dup1\n      dup4\n      sub\n      dup2\n      dup6\n      dup9\n      dup9\n      call\n      swap4\n      pop\n      pop\n      pop\n      pop\n      iszero\n      dup1\n      iszero\n      tag_240\n      jumpi\n      returndatasize\n      0x00\n      dup1\n      returndatacopy\n      revert(0x00, returndatasize)\n    tag_240:\n      pop\n        /* \"contracts/Ebay.sol\":7093:7202  if (offerId != bestOffer.id) {... */\n    tag_238:\n        /* \"contracts/Ebay.sol\":6886:7212  {... */\n      pop\n      pop\n        /* \"contracts/Ebay.sol\":6881:6884  i++ */\n      dup1\n      dup1\n      tag_241\n      swap1\n      tag_92\n      jump\t// in\n    tag_241:\n      swap2\n      pop\n      pop\n        /* \"contracts/Ebay.sol\":6835:7212  for (uint i = 0; i < auction.offerIds.length; i++) {... */\n      jump(tag_232)\n    tag_233:\n      pop\n        /* \"contracts/Ebay.sol\":7280:7287  auction */\n      dup2\n        /* \"contracts/Ebay.sol\":7280:7294  auction.seller */\n      0x01\n      add\n      0x00\n      swap1\n      sload\n      swap1\n      0x0100\n      exp\n      swap1\n      div\n      0xffffffffffffffffffffffffffffffffffffffff\n      and\n        /* \"contracts/Ebay.sol\":7272:7304  payable(auction.seller).transfer */\n      0xffffffffffffffffffffffffffffffffffffffff\n      and\n        /* \"contracts/Ebay.sol\":7272:7326  payable(auction.seller).transfer(bestOffer.offerPrice) */\n      0x08fc\n        /* \"contracts/Ebay.sol\":7305:7314  bestOffer */\n      dup3\n        /* \"contracts/Ebay.sol\":7305:7325  bestOffer.offerPrice */\n      0x03\n      add\n      sload\n        /* \"contracts/Ebay.sol\":7272:7326  payable(auction.seller).transfer(bestOffer.offerPrice) */\n      swap1\n      dup2\n      iszero\n      mul\n      swap1\n      mload(0x40)\n      0x00\n      mload(0x40)\n      dup1\n      dup4\n      sub\n      dup2\n      dup6\n      dup9\n      dup9\n      call\n      swap4\n      pop\n      pop\n      pop\n      pop\n      iszero\n      dup1\n      iszero\n      tag_243\n      jumpi\n      returndatasize\n      0x00\n      dup1\n      returndatacopy\n      revert(0x00, returndatasize)\n    tag_243:\n      pop\n        /* \"contracts/Ebay.sol\":6443:7333  {... */\n      pop\n      pop\n        /* \"contracts/Ebay.sol\":6376:7333  function trade(uint _auctionId) external auctionExists(_auctionId) {... */\n      pop\n      pop\n      jump\t// out\n        /* \"contracts/Ebay.sol\":7799:8242  function getUserAuctions(address _user)... */\n    tag_62:\n        /* \"contracts/Ebay.sol\":7886:7902  Auction[] memory */\n      0x60\n        /* \"contracts/Ebay.sol\":7918:7947  uint[] storage userAuctionIds */\n      0x00\n        /* \"contracts/Ebay.sol\":7950:7962  userAuctions */\n      0x04\n        /* \"contracts/Ebay.sol\":7950:7969  userAuctions[_user] */\n      0x00\n        /* \"contracts/Ebay.sol\":7963:7968  _user */\n      dup5\n        /* \"contracts/Ebay.sol\":7950:7969  userAuctions[_user] */\n      0xffffffffffffffffffffffffffffffffffffffff\n      and\n      0xffffffffffffffffffffffffffffffffffffffff\n      and\n      dup2\n      mstore\n      0x20\n      add\n      swap1\n      dup2\n      mstore\n      0x20\n      add\n      0x00\n      keccak256\n        /* \"contracts/Ebay.sol\":7918:7969  uint[] storage userAuctionIds = userAuctions[_user] */\n      swap1\n      pop\n        /* \"contracts/Ebay.sol\":7979:8005  Auction[] memory _auctions */\n      0x00\n        /* \"contracts/Ebay.sol\":8022:8036  userAuctionIds */\n      dup2\n        /* \"contracts/Ebay.sol\":8022:8043  userAuctionIds.length */\n      dup1\n      sload\n      swap1\n      pop\n        /* \"contracts/Ebay.sol\":8008:8044  new Auction[](userAuctionIds.length) */\n      0xffffffffffffffff\n      dup2\n      gt\n      iszero\n      tag_245\n      jumpi\n      tag_246\n      tag_81\n      jump\t// in\n    tag_246:\n    tag_245:\n      mload(0x40)\n      swap1\n      dup1\n      dup3\n      mstore\n      dup1\n      0x20\n      mul\n      0x20\n      add\n      dup3\n      add\n      0x40\n      mstore\n      dup1\n      iszero\n      tag_247\n      jumpi\n      dup2\n      0x20\n      add\n    tag_248:\n      tag_249\n      tag_204\n      jump\t// in\n    tag_249:\n      dup2\n      mstore\n      0x20\n      add\n      swap1\n      0x01\n      swap1\n      sub\n      swap1\n      dup2\n      tag_248\n      jumpi\n      swap1\n      pop\n    tag_247:\n      pop\n        /* \"contracts/Ebay.sol\":7979:8044  Auction[] memory _auctions = new Auction[](userAuctionIds.length) */\n      swap1\n      pop\n        /* \"contracts/Ebay.sol\":8059:8065  uint i */\n      0x00\n        /* \"contracts/Ebay.sol\":8054:8210  for (uint i = 0; i < userAuctionIds.length; i++) {... */\n    tag_250:\n        /* \"contracts/Ebay.sol\":8075:8089  userAuctionIds */\n      dup3\n        /* \"contracts/Ebay.sol\":8075:8096  userAuctionIds.length */\n      dup1\n      sload\n      swap1\n      pop\n        /* \"contracts/Ebay.sol\":8071:8072  i */\n      dup2\n        /* \"contracts/Ebay.sol\":8071:8096  i < userAuctionIds.length */\n      lt\n        /* \"contracts/Ebay.sol\":8054:8210  for (uint i = 0; i < userAuctionIds.length; i++) {... */\n      iszero\n      tag_251\n      jumpi\n        /* \"contracts/Ebay.sol\":8117:8131  uint auctionId */\n      0x00\n        /* \"contracts/Ebay.sol\":8134:8148  userAuctionIds */\n      dup4\n        /* \"contracts/Ebay.sol\":8149:8150  i */\n      dup3\n        /* \"contracts/Ebay.sol\":8134:8151  userAuctionIds[i] */\n      dup2\n      sload\n      dup2\n      lt\n      tag_253\n      jumpi\n      tag_254\n      tag_105\n      jump\t// in\n    tag_254:\n    tag_253:\n      swap1\n      0x00\n      mstore\n      keccak256(0x00, 0x20)\n      add\n      sload\n        /* \"contracts/Ebay.sol\":8117:8151  uint auctionId = userAuctionIds[i] */\n      swap1\n      pop\n        /* \"contracts/Ebay.sol\":8180:8188  auctions */\n      0x00\n        /* \"contracts/Ebay.sol\":8180:8199  auctions[auctionId] */\n      dup1\n        /* \"contracts/Ebay.sol\":8189:8198  auctionId */\n      dup3\n        /* \"contracts/Ebay.sol\":8180:8199  auctions[auctionId] */\n      dup2\n      mstore\n      0x20\n      add\n      swap1\n      dup2\n      mstore\n      0x20\n      add\n      0x00\n      keccak256\n        /* \"contracts/Ebay.sol\":8165:8199  _auctions[i] = auctions[auctionId] */\n      mload(0x40)\n      dup1\n      0x0100\n      add\n      0x40\n      mstore\n      swap1\n      dup2\n      0x00\n      dup3\n      add\n      sload\n      dup2\n      mstore\n      0x20\n      add\n      0x01\n      dup3\n      add\n      0x00\n      swap1\n      sload\n      swap1\n      0x0100\n      exp\n      swap1\n      div\n      0xffffffffffffffffffffffffffffffffffffffff\n      and\n      0xffffffffffffffffffffffffffffffffffffffff\n      and\n      0xffffffffffffffffffffffffffffffffffffffff\n      and\n      dup2\n      mstore\n      0x20\n      add\n      0x02\n      dup3\n      add\n      dup1\n      sload\n      tag_256\n      swap1\n      tag_65\n      jump\t// in\n    tag_256:\n      dup1\n      0x1f\n      add\n      0x20\n      dup1\n      swap2\n      div\n      mul\n      0x20\n      add\n      mload(0x40)\n      swap1\n      dup2\n      add\n      0x40\n      mstore\n      dup1\n      swap3\n      swap2\n      swap1\n      dup2\n      dup2\n      mstore\n      0x20\n      add\n      dup3\n      dup1\n      sload\n      tag_257\n      swap1\n      tag_65\n      jump\t// in\n    tag_257:\n      dup1\n      iszero\n      tag_258\n      jumpi\n      dup1\n      0x1f\n      lt\n      tag_259\n      jumpi\n      0x0100\n      dup1\n      dup4\n      sload\n      div\n      mul\n      dup4\n      mstore\n      swap2\n      0x20\n      add\n      swap2\n      jump(tag_258)\n    tag_259:\n      dup3\n      add\n      swap2\n      swap1\n      0x00\n      mstore\n      keccak256(0x00, 0x20)\n      swap1\n    tag_260:\n      dup2\n      sload\n      dup2\n      mstore\n      swap1\n      0x01\n      add\n      swap1\n      0x20\n      add\n      dup1\n      dup4\n      gt\n      tag_260\n      jumpi\n      dup3\n      swap1\n      sub\n      0x1f\n      and\n      dup3\n      add\n      swap2\n    tag_258:\n      pop\n      pop\n      pop\n      pop\n      pop\n      dup2\n      mstore\n      0x20\n      add\n      0x03\n      dup3\n      add\n      dup1\n      sload\n      tag_261\n      swap1\n      tag_65\n      jump\t// in\n    tag_261:\n      dup1\n      0x1f\n      add\n      0x20\n      dup1\n      swap2\n      div\n      mul\n      0x20\n      add\n      mload(0x40)\n      swap1\n      dup2\n      add\n      0x40\n      mstore\n      dup1\n      swap3\n      swap2\n      swap1\n      dup2\n      dup2\n      mstore\n      0x20\n      add\n      dup3\n      dup1\n      sload\n      tag_262\n      swap1\n      tag_65\n      jump\t// in\n    tag_262:\n      dup1\n      iszero\n      tag_263\n      jumpi\n      dup1\n      0x1f\n      lt\n      tag_264\n      jumpi\n      0x0100\n      dup1\n      dup4\n      sload\n      div\n      mul\n      dup4\n      mstore\n      swap2\n      0x20\n      add\n      swap2\n      jump(tag_263)\n    tag_264:\n      dup3\n      add\n      swap2\n      swap1\n      0x00\n      mstore\n      keccak256(0x00, 0x20)\n      swap1\n    tag_265:\n      dup2\n      sload\n      dup2\n      mstore\n      swap1\n      0x01\n      add\n      swap1\n      0x20\n      add\n      dup1\n      dup4\n      gt\n      tag_265\n      jumpi\n      dup3\n      swap1\n      sub\n      0x1f\n      and\n      dup3\n      add\n      swap2\n    tag_263:\n      pop\n      pop\n      pop\n      pop\n      pop\n      dup2\n      mstore\n      0x20\n      add\n      0x04\n      dup3\n      add\n      sload\n      dup2\n      mstore\n      0x20\n      add\n      0x05\n      dup3\n      add\n      sload\n      dup2\n      mstore\n      0x20\n      add\n      0x06\n      dup3\n      add\n      sload\n      dup2\n      mstore\n      0x20\n      add\n      0x07\n      dup3\n      add\n      dup1\n      sload\n      dup1\n      0x20\n      mul\n      0x20\n      add\n      mload(0x40)\n      swap1\n      dup2\n      add\n      0x40\n      mstore\n      dup1\n      swap3\n      swap2\n      swap1\n      dup2\n      dup2\n      mstore\n      0x20\n      add\n      dup3\n      dup1\n      sload\n      dup1\n      iszero\n      tag_266\n      jumpi\n      0x20\n      mul\n      dup3\n      add\n      swap2\n      swap1\n      0x00\n      mstore\n      keccak256(0x00, 0x20)\n      swap1\n    tag_267:\n      dup2\n      sload\n      dup2\n      mstore\n      0x20\n      add\n      swap1\n      0x01\n      add\n      swap1\n      dup1\n      dup4\n      gt\n      tag_267\n      jumpi\n    tag_266:\n      pop\n      pop\n      pop\n      pop\n      pop\n      dup2\n      mstore\n      pop\n      pop\n        /* \"contracts/Ebay.sol\":8165:8174  _auctions */\n      dup4\n        /* \"contracts/Ebay.sol\":8175:8176  i */\n      dup4\n        /* \"contracts/Ebay.sol\":8165:8177  _auctions[i] */\n      dup2\n      mload\n      dup2\n      lt\n      tag_268\n      jumpi\n      tag_269\n      tag_105\n      jump\t// in\n    tag_269:\n    tag_268:\n      0x20\n      mul\n      0x20\n      add\n      add\n        /* \"contracts/Ebay.sol\":8165:8199  _auctions[i] = auctions[auctionId] */\n      dup2\n      swap1\n      mstore\n      pop\n        /* \"contracts/Ebay.sol\":8103:8210  {... */\n      pop\n        /* \"contracts/Ebay.sol\":8098:8101  i++ */\n      dup1\n      dup1\n      tag_270\n      swap1\n      tag_92\n      jump\t// in\n    tag_270:\n      swap2\n      pop\n      pop\n        /* \"contracts/Ebay.sol\":8054:8210  for (uint i = 0; i < userAuctionIds.length; i++) {... */\n      jump(tag_250)\n    tag_251:\n      pop\n        /* \"contracts/Ebay.sol\":8226:8235  _auctions */\n      dup1\n        /* \"contracts/Ebay.sol\":8219:8235  return _auctions */\n      swap3\n      pop\n      pop\n      pop\n        /* \"contracts/Ebay.sol\":7799:8242  function getUserAuctions(address _user)... */\n      swap2\n      swap1\n      pop\n      jump\t// out\n    tag_89:\n      dup3\n      dup1\n      sload\n      dup3\n      dup3\n      sstore\n      swap1\n      0x00\n      mstore\n      keccak256(0x00, 0x20)\n      swap1\n      dup2\n      add\n      swap3\n      dup3\n      iszero\n      tag_271\n      jumpi\n      swap2\n      0x20\n      mul\n      dup3\n      add\n    tag_272:\n      dup3\n      dup2\n      gt\n      iszero\n      tag_273\n      jumpi\n      dup3\n      mload\n      dup3\n      sstore\n      swap2\n      0x20\n      add\n      swap2\n      swap1\n      0x01\n      add\n      swap1\n      jump(tag_272)\n    tag_273:\n    tag_271:\n      pop\n      swap1\n      pop\n      tag_274\n      swap2\n      swap1\n      tag_275\n      jump\t// in\n    tag_274:\n      pop\n      swap1\n      jump\t// out\n    tag_99:\n      mload(0x40)\n      dup1\n      0x80\n      add\n      0x40\n      mstore\n      dup1\n      0x00\n      dup2\n      mstore\n      0x20\n      add\n      0x00\n      dup2\n      mstore\n      0x20\n      add\n      and(0xffffffffffffffffffffffffffffffffffffffff, 0x00)\n      dup2\n      mstore\n      0x20\n      add\n      0x00\n      dup2\n      mstore\n      pop\n      swap1\n      jump\t// out\n    tag_148:\n      pop\n      dup1\n      sload\n      tag_276\n      swap1\n      tag_65\n      jump\t// in\n    tag_276:\n      0x00\n      dup3\n      sstore\n      dup1\n      0x1f\n      lt\n      tag_278\n      jumpi\n      pop\n      jump(tag_277)\n    tag_278:\n      0x1f\n      add\n      0x20\n      swap1\n      div\n      swap1\n      0x00\n      mstore\n      keccak256(0x00, 0x20)\n      swap1\n      dup2\n      add\n      swap1\n      tag_279\n      swap2\n      swap1\n      tag_275\n      jump\t// in\n    tag_279:\n    tag_277:\n      pop\n      jump\t// out\n    tag_151:\n      pop\n      dup1\n      sload\n      0x00\n      dup3\n      sstore\n      swap1\n      0x00\n      mstore\n      keccak256(0x00, 0x20)\n      swap1\n      dup2\n      add\n      swap1\n      tag_281\n      swap2\n      swap1\n      tag_275\n      jump\t// in\n    tag_281:\n      pop\n      jump\t// out\n    tag_204:\n      mload(0x40)\n      dup1\n      0x0100\n      add\n      0x40\n      mstore\n      dup1\n      0x00\n      dup2\n      mstore\n      0x20\n      add\n      and(0xffffffffffffffffffffffffffffffffffffffff, 0x00)\n      dup2\n      mstore\n      0x20\n      add\n      0x60\n      dup2\n      mstore\n      0x20\n      add\n      0x60\n      dup2\n      mstore\n      0x20\n      add\n      0x00\n      dup2\n      mstore\n      0x20\n      add\n      0x00\n      dup2\n      mstore\n      0x20\n      add\n      0x00\n      dup2\n      mstore\n      0x20\n      add\n      0x60\n      dup2\n      mstore\n      pop\n      swap1\n      jump\t// out\n    tag_275:\n    tag_282:\n      dup1\n      dup3\n      gt\n      iszero\n      tag_283\n      jumpi\n      0x00\n      dup2\n      0x00\n      swap1\n      sstore\n      pop\n      0x01\n      add\n      jump(tag_282)\n    tag_283:\n      pop\n      swap1\n      jump\t// out\n        /* \"#utility.yul\":88:205   */\n    tag_285:\n        /* \"#utility.yul\":197:198   */\n      0x00\n        /* \"#utility.yul\":194:195   */\n      dup1\n        /* \"#utility.yul\":187:199   */\n      revert\n        /* \"#utility.yul\":211:328   */\n    tag_286:\n        /* \"#utility.yul\":320:321   */\n      0x00\n        /* \"#utility.yul\":317:318   */\n      dup1\n        /* \"#utility.yul\":310:322   */\n      revert\n        /* \"#utility.yul\":334:411   */\n    tag_287:\n        /* \"#utility.yul\":371:378   */\n      0x00\n        /* \"#utility.yul\":400:405   */\n      dup2\n        /* \"#utility.yul\":389:405   */\n      swap1\n      pop\n        /* \"#utility.yul\":334:411   */\n      swap2\n      swap1\n      pop\n      jump\t// out\n        /* \"#utility.yul\":417:539   */\n    tag_288:\n        /* \"#utility.yul\":490:514   */\n      tag_362\n        /* \"#utility.yul\":508:513   */\n      dup2\n        /* \"#utility.yul\":490:514   */\n      tag_287\n      jump\t// in\n    tag_362:\n        /* \"#utility.yul\":483:488   */\n      dup2\n        /* \"#utility.yul\":480:515   */\n      eq\n        /* \"#utility.yul\":470:533   */\n      tag_363\n      jumpi\n        /* \"#utility.yul\":529:530   */\n      0x00\n        /* \"#utility.yul\":526:527   */\n      dup1\n        /* \"#utility.yul\":519:531   */\n      revert\n        /* \"#utility.yul\":470:533   */\n    tag_363:\n        /* \"#utility.yul\":417:539   */\n      pop\n      jump\t// out\n        /* \"#utility.yul\":545:684   */\n    tag_289:\n        /* \"#utility.yul\":591:596   */\n      0x00\n        /* \"#utility.yul\":629:635   */\n      dup2\n        /* \"#utility.yul\":616:636   */\n      calldataload\n        /* \"#utility.yul\":607:636   */\n      swap1\n      pop\n        /* \"#utility.yul\":645:678   */\n      tag_365\n        /* \"#utility.yul\":672:677   */\n      dup2\n        /* \"#utility.yul\":645:678   */\n      tag_288\n      jump\t// in\n    tag_365:\n        /* \"#utility.yul\":545:684   */\n      swap3\n      swap2\n      pop\n      pop\n      jump\t// out\n        /* \"#utility.yul\":690:1019   */\n    tag_16:\n        /* \"#utility.yul\":749:755   */\n      0x00\n        /* \"#utility.yul\":798:800   */\n      0x20\n        /* \"#utility.yul\":786:795   */\n      dup3\n        /* \"#utility.yul\":777:784   */\n      dup5\n        /* \"#utility.yul\":773:796   */\n      sub\n        /* \"#utility.yul\":769:801   */\n      slt\n        /* \"#utility.yul\":766:885   */\n      iszero\n      tag_367\n      jumpi\n        /* \"#utility.yul\":804:883   */\n      tag_368\n      tag_285\n      jump\t// in\n    tag_368:\n        /* \"#utility.yul\":766:885   */\n    tag_367:\n        /* \"#utility.yul\":924:925   */\n      0x00\n        /* \"#utility.yul\":949:1002   */\n      tag_369\n        /* \"#utility.yul\":994:1001   */\n      dup5\n        /* \"#utility.yul\":985:991   */\n      dup3\n        /* \"#utility.yul\":974:983   */\n      dup6\n        /* \"#utility.yul\":970:992   */\n      add\n        /* \"#utility.yul\":949:1002   */\n      tag_289\n      jump\t// in\n    tag_369:\n        /* \"#utility.yul\":939:1002   */\n      swap2\n      pop\n        /* \"#utility.yul\":895:1012   */\n      pop\n        /* \"#utility.yul\":690:1019   */\n      swap3\n      swap2\n      pop\n      pop\n      jump\t// out\n        /* \"#utility.yul\":1025:1143   */\n    tag_290:\n        /* \"#utility.yul\":1112:1136   */\n      tag_371\n        /* \"#utility.yul\":1130:1135   */\n      dup2\n        /* \"#utility.yul\":1112:1136   */\n      tag_287\n      jump\t// in\n    tag_371:\n        /* \"#utility.yul\":1107:1110   */\n      dup3\n        /* \"#utility.yul\":1100:1137   */\n      mstore\n        /* \"#utility.yul\":1025:1143   */\n      pop\n      pop\n      jump\t// out\n        /* \"#utility.yul\":1149:1275   */\n    tag_291:\n        /* \"#utility.yul\":1186:1193   */\n      0x00\n        /* \"#utility.yul\":1226:1268   */\n      0xffffffffffffffffffffffffffffffffffffffff\n        /* \"#utility.yul\":1219:1224   */\n      dup3\n        /* \"#utility.yul\":1215:1269   */\n      and\n        /* \"#utility.yul\":1204:1269   */\n      swap1\n      pop\n        /* \"#utility.yul\":1149:1275   */\n      swap2\n      swap1\n      pop\n      jump\t// out\n        /* \"#utility.yul\":1281:1377   */\n    tag_292:\n        /* \"#utility.yul\":1318:1325   */\n      0x00\n        /* \"#utility.yul\":1347:1371   */\n      tag_374\n        /* \"#utility.yul\":1365:1370   */\n      dup3\n        /* \"#utility.yul\":1347:1371   */\n      tag_291\n      jump\t// in\n    tag_374:\n        /* \"#utility.yul\":1336:1371   */\n      swap1\n      pop\n        /* \"#utility.yul\":1281:1377   */\n      swap2\n      swap1\n      pop\n      jump\t// out\n        /* \"#utility.yul\":1383:1501   */\n    tag_293:\n        /* \"#utility.yul\":1470:1494   */\n      tag_376\n        /* \"#utility.yul\":1488:1493   */\n      dup2\n        /* \"#utility.yul\":1470:1494   */\n      tag_292\n      jump\t// in\n    tag_376:\n        /* \"#utility.yul\":1465:1468   */\n      dup3\n        /* \"#utility.yul\":1458:1495   */\n      mstore\n        /* \"#utility.yul\":1383:1501   */\n      pop\n      pop\n      jump\t// out\n        /* \"#utility.yul\":1507:1606   */\n    tag_294:\n        /* \"#utility.yul\":1559:1565   */\n      0x00\n        /* \"#utility.yul\":1593:1598   */\n      dup2\n        /* \"#utility.yul\":1587:1599   */\n      mload\n        /* \"#utility.yul\":1577:1599   */\n      swap1\n      pop\n        /* \"#utility.yul\":1507:1606   */\n      swap2\n      swap1\n      pop\n      jump\t// out\n        /* \"#utility.yul\":1612:1781   */\n    tag_295:\n        /* \"#utility.yul\":1696:1707   */\n      0x00\n        /* \"#utility.yul\":1730:1736   */\n      dup3\n        /* \"#utility.yul\":1725:1728   */\n      dup3\n        /* \"#utility.yul\":1718:1737   */\n      mstore\n        /* \"#utility.yul\":1770:1774   */\n      0x20\n        /* \"#utility.yul\":1765:1768   */\n      dup3\n        /* \"#utility.yul\":1761:1775   */\n      add\n        /* \"#utility.yul\":1746:1775   */\n      swap1\n      pop\n        /* \"#utility.yul\":1612:1781   */\n      swap3\n      swap2\n      pop\n      pop\n      jump\t// out\n        /* \"#utility.yul\":1787:2033   */\n    tag_296:\n        /* \"#utility.yul\":1868:1869   */\n      0x00\n        /* \"#utility.yul\":1878:1991   */\n    tag_380:\n        /* \"#utility.yul\":1892:1898   */\n      dup4\n        /* \"#utility.yul\":1889:1890   */\n      dup2\n        /* \"#utility.yul\":1886:1899   */\n      lt\n        /* \"#utility.yul\":1878:1991   */\n      iszero\n      tag_382\n      jumpi\n        /* \"#utility.yul\":1977:1978   */\n      dup1\n        /* \"#utility.yul\":1972:1975   */\n      dup3\n        /* \"#utility.yul\":1968:1979   */\n      add\n        /* \"#utility.yul\":1962:1980   */\n      mload\n        /* \"#utility.yul\":1958:1959   */\n      dup2\n        /* \"#utility.yul\":1953:1956   */\n      dup5\n        /* \"#utility.yul\":1949:1960   */\n      add\n        /* \"#utility.yul\":1942:1981   */\n      mstore\n        /* \"#utility.yul\":1914:1916   */\n      0x20\n        /* \"#utility.yul\":1911:1912   */\n      dup2\n        /* \"#utility.yul\":1907:1917   */\n      add\n        /* \"#utility.yul\":1902:1917   */\n      swap1\n      pop\n        /* \"#utility.yul\":1878:1991   */\n      jump(tag_380)\n    tag_382:\n        /* \"#utility.yul\":2025:2026   */\n      0x00\n        /* \"#utility.yul\":2016:2022   */\n      dup5\n        /* \"#utility.yul\":2011:2014   */\n      dup5\n        /* \"#utility.yul\":2007:2023   */\n      add\n        /* \"#utility.yul\":2000:2027   */\n      mstore\n        /* \"#utility.yul\":1849:2033   */\n      pop\n        /* \"#utility.yul\":1787:2033   */\n      pop\n      pop\n      pop\n      jump\t// out\n        /* \"#utility.yul\":2039:2141   */\n    tag_297:\n        /* \"#utility.yul\":2080:2086   */\n      0x00\n        /* \"#utility.yul\":2131:2133   */\n      0x1f\n        /* \"#utility.yul\":2127:2134   */\n      not\n        /* \"#utility.yul\":2122:2124   */\n      0x1f\n        /* \"#utility.yul\":2115:2120   */\n      dup4\n        /* \"#utility.yul\":2111:2125   */\n      add\n        /* \"#utility.yul\":2107:2135   */\n      and\n        /* \"#utility.yul\":2097:2135   */\n      swap1\n      pop\n        /* \"#utility.yul\":2039:2141   */\n      swap2\n      swap1\n      pop\n      jump\t// out\n        /* \"#utility.yul\":2147:2524   */\n    tag_298:\n        /* \"#utility.yul\":2235:2238   */\n      0x00\n        /* \"#utility.yul\":2263:2302   */\n      tag_385\n        /* \"#utility.yul\":2296:2301   */\n      dup3\n        /* \"#utility.yul\":2263:2302   */\n      tag_294\n      jump\t// in\n    tag_385:\n        /* \"#utility.yul\":2318:2389   */\n      tag_386\n        /* \"#utility.yul\":2382:2388   */\n      dup2\n        /* \"#utility.yul\":2377:2380   */\n      dup6\n        /* \"#utility.yul\":2318:2389   */\n      tag_295\n      jump\t// in\n    tag_386:\n        /* \"#utility.yul\":2311:2389   */\n      swap4\n      pop\n        /* \"#utility.yul\":2398:2463   */\n      tag_387\n        /* \"#utility.yul\":2456:2462   */\n      dup2\n        /* \"#utility.yul\":2451:2454   */\n      dup6\n        /* \"#utility.yul\":2444:2448   */\n      0x20\n        /* \"#utility.yul\":2437:2442   */\n      dup7\n        /* \"#utility.yul\":2433:2449   */\n      add\n        /* \"#utility.yul\":2398:2463   */\n      tag_296\n      jump\t// in\n    tag_387:\n        /* \"#utility.yul\":2488:2517   */\n      tag_388\n        /* \"#utility.yul\":2510:2516   */\n      dup2\n        /* \"#utility.yul\":2488:2517   */\n      tag_297\n      jump\t// in\n    tag_388:\n        /* \"#utility.yul\":2483:2486   */\n      dup5\n        /* \"#utility.yul\":2479:2518   */\n      add\n        /* \"#utility.yul\":2472:2518   */\n      swap2\n      pop\n        /* \"#utility.yul\":2239:2524   */\n      pop\n        /* \"#utility.yul\":2147:2524   */\n      swap3\n      swap2\n      pop\n      pop\n      jump\t// out\n        /* \"#utility.yul\":2530:3598   */\n    tag_19:\n        /* \"#utility.yul\":2831:2835   */\n      0x00\n        /* \"#utility.yul\":2869:2872   */\n      0xe0\n        /* \"#utility.yul\":2858:2867   */\n      dup3\n        /* \"#utility.yul\":2854:2873   */\n      add\n        /* \"#utility.yul\":2846:2873   */\n      swap1\n      pop\n        /* \"#utility.yul\":2883:2954   */\n      tag_390\n        /* \"#utility.yul\":2951:2952   */\n      0x00\n        /* \"#utility.yul\":2940:2949   */\n      dup4\n        /* \"#utility.yul\":2936:2953   */\n      add\n        /* \"#utility.yul\":2927:2933   */\n      dup11\n        /* \"#utility.yul\":2883:2954   */\n      tag_290\n      jump\t// in\n    tag_390:\n        /* \"#utility.yul\":2964:3036   */\n      tag_391\n        /* \"#utility.yul\":3032:3034   */\n      0x20\n        /* \"#utility.yul\":3021:3030   */\n      dup4\n        /* \"#utility.yul\":3017:3035   */\n      add\n        /* \"#utility.yul\":3008:3014   */\n      dup10\n        /* \"#utility.yul\":2964:3036   */\n      tag_293\n      jump\t// in\n    tag_391:\n        /* \"#utility.yul\":3083:3092   */\n      dup2\n        /* \"#utility.yul\":3077:3081   */\n      dup2\n        /* \"#utility.yul\":3073:3093   */\n      sub\n        /* \"#utility.yul\":3068:3070   */\n      0x40\n        /* \"#utility.yul\":3057:3066   */\n      dup4\n        /* \"#utility.yul\":3053:3071   */\n      add\n        /* \"#utility.yul\":3046:3094   */\n      mstore\n        /* \"#utility.yul\":3111:3189   */\n      tag_392\n        /* \"#utility.yul\":3184:3188   */\n      dup2\n        /* \"#utility.yul\":3175:3181   */\n      dup9\n        /* \"#utility.yul\":3111:3189   */\n      tag_298\n      jump\t// in\n    tag_392:\n        /* \"#utility.yul\":3103:3189   */\n      swap1\n      pop\n        /* \"#utility.yul\":3236:3245   */\n      dup2\n        /* \"#utility.yul\":3230:3234   */\n      dup2\n        /* \"#utility.yul\":3226:3246   */\n      sub\n        /* \"#utility.yul\":3221:3223   */\n      0x60\n        /* \"#utility.yul\":3210:3219   */\n      dup4\n        /* \"#utility.yul\":3206:3224   */\n      add\n        /* \"#utility.yul\":3199:3247   */\n      mstore\n        /* \"#utility.yul\":3264:3342   */\n      tag_393\n        /* \"#utility.yul\":3337:3341   */\n      dup2\n        /* \"#utility.yul\":3328:3334   */\n      dup8\n        /* \"#utility.yul\":3264:3342   */\n      tag_298\n      jump\t// in\n    tag_393:\n        /* \"#utility.yul\":3256:3342   */\n      swap1\n      pop\n        /* \"#utility.yul\":3352:3425   */\n      tag_394\n        /* \"#utility.yul\":3420:3423   */\n      0x80\n        /* \"#utility.yul\":3409:3418   */\n      dup4\n        /* \"#utility.yul\":3405:3424   */\n      add\n        /* \"#utility.yul\":3396:3402   */\n      dup7\n        /* \"#utility.yul\":3352:3425   */\n      tag_290\n      jump\t// in\n    tag_394:\n        /* \"#utility.yul\":3435:3508   */\n      tag_395\n        /* \"#utility.yul\":3503:3506   */\n      0xa0\n        /* \"#utility.yul\":3492:3501   */\n      dup4\n        /* \"#utility.yul\":3488:3507   */\n      add\n        /* \"#utility.yul\":3479:3485   */\n      dup6\n        /* \"#utility.yul\":3435:3508   */\n      tag_290\n      jump\t// in\n    tag_395:\n        /* \"#utility.yul\":3518:3591   */\n      tag_396\n        /* \"#utility.yul\":3586:3589   */\n      0xc0\n        /* \"#utility.yul\":3575:3584   */\n      dup4\n        /* \"#utility.yul\":3571:3590   */\n      add\n        /* \"#utility.yul\":3562:3568   */\n      dup5\n        /* \"#utility.yul\":3518:3591   */\n      tag_290\n      jump\t// in\n    tag_396:\n        /* \"#utility.yul\":2530:3598   */\n      swap9\n      swap8\n      pop\n      pop\n      pop\n      pop\n      pop\n      pop\n      pop\n      pop\n      jump\t// out\n        /* \"#utility.yul\":3604:3721   */\n    tag_299:\n        /* \"#utility.yul\":3713:3714   */\n      0x00\n        /* \"#utility.yul\":3710:3711   */\n      dup1\n        /* \"#utility.yul\":3703:3715   */\n      revert\n        /* \"#utility.yul\":3727:3844   */\n    tag_300:\n        /* \"#utility.yul\":3836:3837   */\n      0x00\n        /* \"#utility.yul\":3833:3834   */\n      dup1\n        /* \"#utility.yul\":3826:3838   */\n      revert\n        /* \"#utility.yul\":3850:3967   */\n    tag_301:\n        /* \"#utility.yul\":3959:3960   */\n      0x00\n        /* \"#utility.yul\":3956:3957   */\n      dup1\n        /* \"#utility.yul\":3949:3961   */\n      revert\n        /* \"#utility.yul\":3987:4540   */\n    tag_302:\n        /* \"#utility.yul\":4045:4053   */\n      0x00\n        /* \"#utility.yul\":4055:4061   */\n      dup1\n        /* \"#utility.yul\":4105:4108   */\n      dup4\n        /* \"#utility.yul\":4098:4102   */\n      0x1f\n        /* \"#utility.yul\":4090:4096   */\n      dup5\n        /* \"#utility.yul\":4086:4103   */\n      add\n        /* \"#utility.yul\":4082:4109   */\n      slt\n        /* \"#utility.yul\":4072:4194   */\n      tag_401\n      jumpi\n        /* \"#utility.yul\":4113:4192   */\n      tag_402\n      tag_299\n      jump\t// in\n    tag_402:\n        /* \"#utility.yul\":4072:4194   */\n    tag_401:\n        /* \"#utility.yul\":4226:4232   */\n      dup3\n        /* \"#utility.yul\":4213:4233   */\n      calldataload\n        /* \"#utility.yul\":4203:4233   */\n      swap1\n      pop\n        /* \"#utility.yul\":4256:4274   */\n      0xffffffffffffffff\n        /* \"#utility.yul\":4248:4254   */\n      dup2\n        /* \"#utility.yul\":4245:4275   */\n      gt\n        /* \"#utility.yul\":4242:4359   */\n      iszero\n      tag_403\n      jumpi\n        /* \"#utility.yul\":4278:4357   */\n      tag_404\n      tag_300\n      jump\t// in\n    tag_404:\n        /* \"#utility.yul\":4242:4359   */\n    tag_403:\n        /* \"#utility.yul\":4392:4396   */\n      0x20\n        /* \"#utility.yul\":4384:4390   */\n      dup4\n        /* \"#utility.yul\":4380:4397   */\n      add\n        /* \"#utility.yul\":4368:4397   */\n      swap2\n      pop\n        /* \"#utility.yul\":4446:4449   */\n      dup4\n        /* \"#utility.yul\":4438:4442   */\n      0x01\n        /* \"#utility.yul\":4430:4436   */\n      dup3\n        /* \"#utility.yul\":4426:4443   */\n      mul\n        /* \"#utility.yul\":4416:4424   */\n      dup4\n        /* \"#utility.yul\":4412:4444   */\n      add\n        /* \"#utility.yul\":4409:4450   */\n      gt\n        /* \"#utility.yul\":4406:4534   */\n      iszero\n      tag_405\n      jumpi\n        /* \"#utility.yul\":4453:4532   */\n      tag_406\n      tag_301\n      jump\t// in\n    tag_406:\n        /* \"#utility.yul\":4406:4534   */\n    tag_405:\n        /* \"#utility.yul\":3987:4540   */\n      swap3\n      pop\n      swap3\n      swap1\n      pop\n      jump\t// out\n        /* \"#utility.yul\":4546:5711   */\n    tag_23:\n        /* \"#utility.yul\":4656:4662   */\n      0x00\n        /* \"#utility.yul\":4664:4670   */\n      dup1\n        /* \"#utility.yul\":4672:4678   */\n      0x00\n        /* \"#utility.yul\":4680:4686   */\n      dup1\n        /* \"#utility.yul\":4688:4694   */\n      0x00\n        /* \"#utility.yul\":4696:4702   */\n      dup1\n        /* \"#utility.yul\":4745:4748   */\n      0x80\n        /* \"#utility.yul\":4733:4742   */\n      dup8\n        /* \"#utility.yul\":4724:4731   */\n      dup10\n        /* \"#utility.yul\":4720:4743   */\n      sub\n        /* \"#utility.yul\":4716:4749   */\n      slt\n        /* \"#utility.yul\":4713:4833   */\n      iszero\n      tag_408\n      jumpi\n        /* \"#utility.yul\":4752:4831   */\n      tag_409\n      tag_285\n      jump\t// in\n    tag_409:\n        /* \"#utility.yul\":4713:4833   */\n    tag_408:\n        /* \"#utility.yul\":4900:4901   */\n      0x00\n        /* \"#utility.yul\":4889:4898   */\n      dup8\n        /* \"#utility.yul\":4885:4902   */\n      add\n        /* \"#utility.yul\":4872:4903   */\n      calldataload\n        /* \"#utility.yul\":4930:4948   */\n      0xffffffffffffffff\n        /* \"#utility.yul\":4922:4928   */\n      dup2\n        /* \"#utility.yul\":4919:4949   */\n      gt\n        /* \"#utility.yul\":4916:5033   */\n      iszero\n      tag_410\n      jumpi\n        /* \"#utility.yul\":4952:5031   */\n      tag_411\n      tag_286\n      jump\t// in\n    tag_411:\n        /* \"#utility.yul\":4916:5033   */\n    tag_410:\n        /* \"#utility.yul\":5065:5130   */\n      tag_412\n        /* \"#utility.yul\":5122:5129   */\n      dup10\n        /* \"#utility.yul\":5113:5119   */\n      dup3\n        /* \"#utility.yul\":5102:5111   */\n      dup11\n        /* \"#utility.yul\":5098:5120   */\n      add\n        /* \"#utility.yul\":5065:5130   */\n      tag_302\n      jump\t// in\n    tag_412:\n        /* \"#utility.yul\":5047:5130   */\n      swap7\n      pop\n      swap7\n      pop\n        /* \"#utility.yul\":4843:5140   */\n      pop\n        /* \"#utility.yul\":5207:5209   */\n      0x20\n        /* \"#utility.yul\":5196:5205   */\n      dup8\n        /* \"#utility.yul\":5192:5210   */\n      add\n        /* \"#utility.yul\":5179:5211   */\n      calldataload\n        /* \"#utility.yul\":5238:5256   */\n      0xffffffffffffffff\n        /* \"#utility.yul\":5230:5236   */\n      dup2\n        /* \"#utility.yul\":5227:5257   */\n      gt\n        /* \"#utility.yul\":5224:5341   */\n      iszero\n      tag_413\n      jumpi\n        /* \"#utility.yul\":5260:5339   */\n      tag_414\n      tag_286\n      jump\t// in\n    tag_414:\n        /* \"#utility.yul\":5224:5341   */\n    tag_413:\n        /* \"#utility.yul\":5373:5438   */\n      tag_415\n        /* \"#utility.yul\":5430:5437   */\n      dup10\n        /* \"#utility.yul\":5421:5427   */\n      dup3\n        /* \"#utility.yul\":5410:5419   */\n      dup11\n        /* \"#utility.yul\":5406:5428   */\n      add\n        /* \"#utility.yul\":5373:5438   */\n      tag_302\n      jump\t// in\n    tag_415:\n        /* \"#utility.yul\":5355:5438   */\n      swap5\n      pop\n      swap5\n      pop\n        /* \"#utility.yul\":5150:5448   */\n      pop\n        /* \"#utility.yul\":5487:5489   */\n      0x40\n        /* \"#utility.yul\":5513:5566   */\n      tag_416\n        /* \"#utility.yul\":5558:5565   */\n      dup10\n        /* \"#utility.yul\":5549:5555   */\n      dup3\n        /* \"#utility.yul\":5538:5547   */\n      dup11\n        /* \"#utility.yul\":5534:5556   */\n      add\n        /* \"#utility.yul\":5513:5566   */\n      tag_289\n      jump\t// in\n    tag_416:\n        /* \"#utility.yul\":5503:5566   */\n      swap3\n      pop\n        /* \"#utility.yul\":5458:5576   */\n      pop\n        /* \"#utility.yul\":5615:5617   */\n      0x60\n        /* \"#utility.yul\":5641:5694   */\n      tag_417\n        /* \"#utility.yul\":5686:5693   */\n      dup10\n        /* \"#utility.yul\":5677:5683   */\n      dup3\n        /* \"#utility.yul\":5666:5675   */\n      dup11\n        /* \"#utility.yul\":5662:5684   */\n      add\n        /* \"#utility.yul\":5641:5694   */\n      tag_289\n      jump\t// in\n    tag_417:\n        /* \"#utility.yul\":5631:5694   */\n      swap2\n      pop\n        /* \"#utility.yul\":5586:5704   */\n      pop\n        /* \"#utility.yul\":4546:5711   */\n      swap3\n      swap6\n      pop\n      swap3\n      swap6\n      pop\n      swap3\n      swap6\n      jump\t// out\n        /* \"#utility.yul\":5717:5839   */\n    tag_303:\n        /* \"#utility.yul\":5790:5814   */\n      tag_419\n        /* \"#utility.yul\":5808:5813   */\n      dup2\n        /* \"#utility.yul\":5790:5814   */\n      tag_292\n      jump\t// in\n    tag_419:\n        /* \"#utility.yul\":5783:5788   */\n      dup2\n        /* \"#utility.yul\":5780:5815   */\n      eq\n        /* \"#utility.yul\":5770:5833   */\n      tag_420\n      jumpi\n        /* \"#utility.yul\":5829:5830   */\n      0x00\n        /* \"#utility.yul\":5826:5827   */\n      dup1\n        /* \"#utility.yul\":5819:5831   */\n      revert\n        /* \"#utility.yul\":5770:5833   */\n    tag_420:\n        /* \"#utility.yul\":5717:5839   */\n      pop\n      jump\t// out\n        /* \"#utility.yul\":5845:5984   */\n    tag_304:\n        /* \"#utility.yul\":5891:5896   */\n      0x00\n        /* \"#utility.yul\":5929:5935   */\n      dup2\n        /* \"#utility.yul\":5916:5936   */\n      calldataload\n        /* \"#utility.yul\":5907:5936   */\n      swap1\n      pop\n        /* \"#utility.yul\":5945:5978   */\n      tag_422\n        /* \"#utility.yul\":5972:5977   */\n      dup2\n        /* \"#utility.yul\":5945:5978   */\n      tag_303\n      jump\t// in\n    tag_422:\n        /* \"#utility.yul\":5845:5984   */\n      swap3\n      swap2\n      pop\n      pop\n      jump\t// out\n        /* \"#utility.yul\":5990:6319   */\n    tag_28:\n        /* \"#utility.yul\":6049:6055   */\n      0x00\n        /* \"#utility.yul\":6098:6100   */\n      0x20\n        /* \"#utility.yul\":6086:6095   */\n      dup3\n        /* \"#utility.yul\":6077:6084   */\n      dup5\n        /* \"#utility.yul\":6073:6096   */\n      sub\n        /* \"#utility.yul\":6069:6101   */\n      slt\n        /* \"#utility.yul\":6066:6185   */\n      iszero\n      tag_424\n      jumpi\n        /* \"#utility.yul\":6104:6183   */\n      tag_425\n      tag_285\n      jump\t// in\n    tag_425:\n        /* \"#utility.yul\":6066:6185   */\n    tag_424:\n        /* \"#utility.yul\":6224:6225   */\n      0x00\n        /* \"#utility.yul\":6249:6302   */\n      tag_426\n        /* \"#utility.yul\":6294:6301   */\n      dup5\n        /* \"#utility.yul\":6285:6291   */\n      dup3\n        /* \"#utility.yul\":6274:6283   */\n      dup6\n        /* \"#utility.yul\":6270:6292   */\n      add\n        /* \"#utility.yul\":6249:6302   */\n      tag_304\n      jump\t// in\n    tag_426:\n        /* \"#utility.yul\":6239:6302   */\n      swap2\n      pop\n        /* \"#utility.yul\":6195:6312   */\n      pop\n        /* \"#utility.yul\":5990:6319   */\n      swap3\n      swap2\n      pop\n      pop\n      jump\t// out\n        /* \"#utility.yul\":6325:6460   */\n    tag_305:\n        /* \"#utility.yul\":6413:6419   */\n      0x00\n        /* \"#utility.yul\":6447:6452   */\n      dup2\n        /* \"#utility.yul\":6441:6453   */\n      mload\n        /* \"#utility.yul\":6431:6453   */\n      swap1\n      pop\n        /* \"#utility.yul\":6325:6460   */\n      swap2\n      swap1\n      pop\n      jump\t// out\n        /* \"#utility.yul\":6466:6671   */\n    tag_306:\n        /* \"#utility.yul\":6586:6597   */\n      0x00\n        /* \"#utility.yul\":6620:6626   */\n      dup3\n        /* \"#utility.yul\":6615:6618   */\n      dup3\n        /* \"#utility.yul\":6608:6627   */\n      mstore\n        /* \"#utility.yul\":6660:6664   */\n      0x20\n        /* \"#utility.yul\":6655:6658   */\n      dup3\n        /* \"#utility.yul\":6651:6665   */\n      add\n        /* \"#utility.yul\":6636:6665   */\n      swap1\n      pop\n        /* \"#utility.yul\":6466:6671   */\n      swap3\n      swap2\n      pop\n      pop\n      jump\t// out\n        /* \"#utility.yul\":6677:6830   */\n    tag_307:\n        /* \"#utility.yul\":6765:6769   */\n      0x00\n        /* \"#utility.yul\":6788:6791   */\n      dup2\n        /* \"#utility.yul\":6780:6791   */\n      swap1\n      pop\n        /* \"#utility.yul\":6818:6822   */\n      0x20\n        /* \"#utility.yul\":6813:6816   */\n      dup3\n        /* \"#utility.yul\":6809:6823   */\n      add\n        /* \"#utility.yul\":6801:6823   */\n      swap1\n      pop\n        /* \"#utility.yul\":6677:6830   */\n      swap2\n      swap1\n      pop\n      jump\t// out\n        /* \"#utility.yul\":6836:6944   */\n    tag_308:\n        /* \"#utility.yul\":6913:6937   */\n      tag_431\n        /* \"#utility.yul\":6931:6936   */\n      dup2\n        /* \"#utility.yul\":6913:6937   */\n      tag_287\n      jump\t// in\n    tag_431:\n        /* \"#utility.yul\":6908:6911   */\n      dup3\n        /* \"#utility.yul\":6901:6938   */\n      mstore\n        /* \"#utility.yul\":6836:6944   */\n      pop\n      pop\n      jump\t// out\n        /* \"#utility.yul\":6950:7058   */\n    tag_309:\n        /* \"#utility.yul\":7027:7051   */\n      tag_433\n        /* \"#utility.yul\":7045:7050   */\n      dup2\n        /* \"#utility.yul\":7027:7051   */\n      tag_292\n      jump\t// in\n    tag_433:\n        /* \"#utility.yul\":7022:7025   */\n      dup3\n        /* \"#utility.yul\":7015:7052   */\n      mstore\n        /* \"#utility.yul\":6950:7058   */\n      pop\n      pop\n      jump\t// out\n        /* \"#utility.yul\":7110:7957   */\n    tag_310:\n        /* \"#utility.yul\":7239:7243   */\n      0x80\n        /* \"#utility.yul\":7234:7237   */\n      dup3\n        /* \"#utility.yul\":7230:7244   */\n      add\n        /* \"#utility.yul\":7324:7328   */\n      0x00\n        /* \"#utility.yul\":7317:7322   */\n      dup3\n        /* \"#utility.yul\":7313:7329   */\n      add\n        /* \"#utility.yul\":7307:7330   */\n      mload\n        /* \"#utility.yul\":7343:7406   */\n      tag_435\n        /* \"#utility.yul\":7400:7404   */\n      0x00\n        /* \"#utility.yul\":7395:7398   */\n      dup6\n        /* \"#utility.yul\":7391:7405   */\n      add\n        /* \"#utility.yul\":7377:7389   */\n      dup3\n        /* \"#utility.yul\":7343:7406   */\n      tag_308\n      jump\t// in\n    tag_435:\n        /* \"#utility.yul\":7254:7416   */\n      pop\n        /* \"#utility.yul\":7503:7507   */\n      0x20\n        /* \"#utility.yul\":7496:7501   */\n      dup3\n        /* \"#utility.yul\":7492:7508   */\n      add\n        /* \"#utility.yul\":7486:7509   */\n      mload\n        /* \"#utility.yul\":7522:7585   */\n      tag_436\n        /* \"#utility.yul\":7579:7583   */\n      0x20\n        /* \"#utility.yul\":7574:7577   */\n      dup6\n        /* \"#utility.yul\":7570:7584   */\n      add\n        /* \"#utility.yul\":7556:7568   */\n      dup3\n        /* \"#utility.yul\":7522:7585   */\n      tag_308\n      jump\t// in\n    tag_436:\n        /* \"#utility.yul\":7426:7595   */\n      pop\n        /* \"#utility.yul\":7678:7682   */\n      0x40\n        /* \"#utility.yul\":7671:7676   */\n      dup3\n        /* \"#utility.yul\":7667:7683   */\n      add\n        /* \"#utility.yul\":7661:7684   */\n      mload\n        /* \"#utility.yul\":7697:7760   */\n      tag_437\n        /* \"#utility.yul\":7754:7758   */\n      0x40\n        /* \"#utility.yul\":7749:7752   */\n      dup6\n        /* \"#utility.yul\":7745:7759   */\n      add\n        /* \"#utility.yul\":7731:7743   */\n      dup3\n        /* \"#utility.yul\":7697:7760   */\n      tag_309\n      jump\t// in\n    tag_437:\n        /* \"#utility.yul\":7605:7770   */\n      pop\n        /* \"#utility.yul\":7858:7862   */\n      0x60\n        /* \"#utility.yul\":7851:7856   */\n      dup3\n        /* \"#utility.yul\":7847:7863   */\n      add\n        /* \"#utility.yul\":7841:7864   */\n      mload\n        /* \"#utility.yul\":7877:7940   */\n      tag_438\n        /* \"#utility.yul\":7934:7938   */\n      0x60\n        /* \"#utility.yul\":7929:7932   */\n      dup6\n        /* \"#utility.yul\":7925:7939   */\n      add\n        /* \"#utility.yul\":7911:7923   */\n      dup3\n        /* \"#utility.yul\":7877:7940   */\n      tag_308\n      jump\t// in\n    tag_438:\n        /* \"#utility.yul\":7780:7950   */\n      pop\n        /* \"#utility.yul\":7208:7957   */\n      pop\n        /* \"#utility.yul\":7110:7957   */\n      pop\n      pop\n      jump\t// out\n        /* \"#utility.yul\":7963:8226   */\n    tag_311:\n        /* \"#utility.yul\":8074:8084   */\n      0x00\n        /* \"#utility.yul\":8095:8183   */\n      tag_440\n        /* \"#utility.yul\":8179:8182   */\n      dup4\n        /* \"#utility.yul\":8171:8177   */\n      dup4\n        /* \"#utility.yul\":8095:8183   */\n      tag_310\n      jump\t// in\n    tag_440:\n        /* \"#utility.yul\":8215:8219   */\n      0x80\n        /* \"#utility.yul\":8210:8213   */\n      dup4\n        /* \"#utility.yul\":8206:8220   */\n      add\n        /* \"#utility.yul\":8192:8220   */\n      swap1\n      pop\n        /* \"#utility.yul\":7963:8226   */\n      swap3\n      swap2\n      pop\n      pop\n      jump\t// out\n        /* \"#utility.yul\":8232:8366   */\n    tag_312:\n        /* \"#utility.yul\":8323:8327   */\n      0x00\n        /* \"#utility.yul\":8355:8359   */\n      0x20\n        /* \"#utility.yul\":8350:8353   */\n      dup3\n        /* \"#utility.yul\":8346:8360   */\n      add\n        /* \"#utility.yul\":8338:8360   */\n      swap1\n      pop\n        /* \"#utility.yul\":8232:8366   */\n      swap2\n      swap1\n      pop\n      jump\t// out\n        /* \"#utility.yul\":8422:9322   */\n    tag_313:\n        /* \"#utility.yul\":8583:8586   */\n      0x00\n        /* \"#utility.yul\":8612:8687   */\n      tag_443\n        /* \"#utility.yul\":8681:8686   */\n      dup3\n        /* \"#utility.yul\":8612:8687   */\n      tag_305\n      jump\t// in\n    tag_443:\n        /* \"#utility.yul\":8703:8810   */\n      tag_444\n        /* \"#utility.yul\":8803:8809   */\n      dup2\n        /* \"#utility.yul\":8798:8801   */\n      dup6\n        /* \"#utility.yul\":8703:8810   */\n      tag_306\n      jump\t// in\n    tag_444:\n        /* \"#utility.yul\":8696:8810   */\n      swap4\n      pop\n        /* \"#utility.yul\":8834:8911   */\n      tag_445\n        /* \"#utility.yul\":8905:8910   */\n      dup4\n        /* \"#utility.yul\":8834:8911   */\n      tag_307\n      jump\t// in\n    tag_445:\n        /* \"#utility.yul\":8934:8941   */\n      dup1\n        /* \"#utility.yul\":8965:8966   */\n      0x00\n        /* \"#utility.yul\":8950:9297   */\n    tag_446:\n        /* \"#utility.yul\":8975:8981   */\n      dup4\n        /* \"#utility.yul\":8972:8973   */\n      dup2\n        /* \"#utility.yul\":8969:8982   */\n      lt\n        /* \"#utility.yul\":8950:9297   */\n      iszero\n      tag_448\n      jumpi\n        /* \"#utility.yul\":9051:9057   */\n      dup2\n        /* \"#utility.yul\":9045:9058   */\n      mload\n        /* \"#utility.yul\":9078:9183   */\n      tag_449\n        /* \"#utility.yul\":9179:9182   */\n      dup9\n        /* \"#utility.yul\":9164:9177   */\n      dup3\n        /* \"#utility.yul\":9078:9183   */\n      tag_311\n      jump\t// in\n    tag_449:\n        /* \"#utility.yul\":9071:9183   */\n      swap8\n      pop\n        /* \"#utility.yul\":9206:9287   */\n      tag_450\n        /* \"#utility.yul\":9280:9286   */\n      dup4\n        /* \"#utility.yul\":9206:9287   */\n      tag_312\n      jump\t// in\n    tag_450:\n        /* \"#utility.yul\":9196:9287   */\n      swap3\n      pop\n        /* \"#utility.yul\":9010:9297   */\n      pop\n        /* \"#utility.yul\":8997:8998   */\n      0x01\n        /* \"#utility.yul\":8994:8995   */\n      dup2\n        /* \"#utility.yul\":8990:8999   */\n      add\n        /* \"#utility.yul\":8985:8999   */\n      swap1\n      pop\n        /* \"#utility.yul\":8950:9297   */\n      jump(tag_446)\n    tag_448:\n        /* \"#utility.yul\":8954:8968   */\n      pop\n        /* \"#utility.yul\":9313:9316   */\n      dup6\n        /* \"#utility.yul\":9306:9316   */\n      swap4\n      pop\n        /* \"#utility.yul\":8588:9322   */\n      pop\n      pop\n      pop\n        /* \"#utility.yul\":8422:9322   */\n      swap3\n      swap2\n      pop\n      pop\n      jump\t// out\n        /* \"#utility.yul\":9328:9785   */\n    tag_31:\n        /* \"#utility.yul\":9513:9517   */\n      0x00\n        /* \"#utility.yul\":9551:9553   */\n      0x20\n        /* \"#utility.yul\":9540:9549   */\n      dup3\n        /* \"#utility.yul\":9536:9554   */\n      add\n        /* \"#utility.yul\":9528:9554   */\n      swap1\n      pop\n        /* \"#utility.yul\":9600:9609   */\n      dup2\n        /* \"#utility.yul\":9594:9598   */\n      dup2\n        /* \"#utility.yul\":9590:9610   */\n      sub\n        /* \"#utility.yul\":9586:9587   */\n      0x00\n        /* \"#utility.yul\":9575:9584   */\n      dup4\n        /* \"#utility.yul\":9571:9588   */\n      add\n        /* \"#utility.yul\":9564:9611   */\n      mstore\n        /* \"#utility.yul\":9628:9778   */\n      tag_452\n        /* \"#utility.yul\":9773:9777   */\n      dup2\n        /* \"#utility.yul\":9764:9770   */\n      dup5\n        /* \"#utility.yul\":9628:9778   */\n      tag_313\n      jump\t// in\n    tag_452:\n        /* \"#utility.yul\":9620:9778   */\n      swap1\n      pop\n        /* \"#utility.yul\":9328:9785   */\n      swap3\n      swap2\n      pop\n      pop\n      jump\t// out\n        /* \"#utility.yul\":9791:10344   */\n    tag_37:\n        /* \"#utility.yul\":9968:9972   */\n      0x00\n        /* \"#utility.yul\":10006:10009   */\n      0x80\n        /* \"#utility.yul\":9995:10004   */\n      dup3\n        /* \"#utility.yul\":9991:10010   */\n      add\n        /* \"#utility.yul\":9983:10010   */\n      swap1\n      pop\n        /* \"#utility.yul\":10020:10091   */\n      tag_454\n        /* \"#utility.yul\":10088:10089   */\n      0x00\n        /* \"#utility.yul\":10077:10086   */\n      dup4\n        /* \"#utility.yul\":10073:10090   */\n      add\n        /* \"#utility.yul\":10064:10070   */\n      dup8\n        /* \"#utility.yul\":10020:10091   */\n      tag_290\n      jump\t// in\n    tag_454:\n        /* \"#utility.yul\":10101:10173   */\n      tag_455\n        /* \"#utility.yul\":10169:10171   */\n      0x20\n        /* \"#utility.yul\":10158:10167   */\n      dup4\n        /* \"#utility.yul\":10154:10172   */\n      add\n        /* \"#utility.yul\":10145:10151   */\n      dup7\n        /* \"#utility.yul\":10101:10173   */\n      tag_290\n      jump\t// in\n    tag_455:\n        /* \"#utility.yul\":10183:10255   */\n      tag_456\n        /* \"#utility.yul\":10251:10253   */\n      0x40\n        /* \"#utility.yul\":10240:10249   */\n      dup4\n        /* \"#utility.yul\":10236:10254   */\n      add\n        /* \"#utility.yul\":10227:10233   */\n      dup6\n        /* \"#utility.yul\":10183:10255   */\n      tag_293\n      jump\t// in\n    tag_456:\n        /* \"#utility.yul\":10265:10337   */\n      tag_457\n        /* \"#utility.yul\":10333:10335   */\n      0x60\n        /* \"#utility.yul\":10322:10331   */\n      dup4\n        /* \"#utility.yul\":10318:10336   */\n      add\n        /* \"#utility.yul\":10309:10315   */\n      dup5\n        /* \"#utility.yul\":10265:10337   */\n      tag_290\n      jump\t// in\n    tag_457:\n        /* \"#utility.yul\":9791:10344   */\n      swap6\n      swap5\n      pop\n      pop\n      pop\n      pop\n      pop\n      jump\t// out\n        /* \"#utility.yul\":10350:10487   */\n    tag_314:\n        /* \"#utility.yul\":10440:10446   */\n      0x00\n        /* \"#utility.yul\":10474:10479   */\n      dup2\n        /* \"#utility.yul\":10468:10480   */\n      mload\n        /* \"#utility.yul\":10458:10480   */\n      swap1\n      pop\n        /* \"#utility.yul\":10350:10487   */\n      swap2\n      swap1\n      pop\n      jump\t// out\n        /* \"#utility.yul\":10493:10700   */\n    tag_315:\n        /* \"#utility.yul\":10615:10626   */\n      0x00\n        /* \"#utility.yul\":10649:10655   */\n      dup3\n        /* \"#utility.yul\":10644:10647   */\n      dup3\n        /* \"#utility.yul\":10637:10656   */\n      mstore\n        /* \"#utility.yul\":10689:10693   */\n      0x20\n        /* \"#utility.yul\":10684:10687   */\n      dup3\n        /* \"#utility.yul\":10680:10694   */\n      add\n        /* \"#utility.yul\":10665:10694   */\n      swap1\n      pop\n        /* \"#utility.yul\":10493:10700   */\n      swap3\n      swap2\n      pop\n      pop\n      jump\t// out\n        /* \"#utility.yul\":10706:10861   */\n    tag_316:\n        /* \"#utility.yul\":10796:10800   */\n      0x00\n        /* \"#utility.yul\":10819:10822   */\n      dup2\n        /* \"#utility.yul\":10811:10822   */\n      swap1\n      pop\n        /* \"#utility.yul\":10849:10853   */\n      0x20\n        /* \"#utility.yul\":10844:10847   */\n      dup3\n        /* \"#utility.yul\":10840:10854   */\n      add\n        /* \"#utility.yul\":10832:10854   */\n      swap1\n      pop\n        /* \"#utility.yul\":10706:10861   */\n      swap2\n      swap1\n      pop\n      jump\t// out\n        /* \"#utility.yul\":10867:11026   */\n    tag_317:\n        /* \"#utility.yul\":10941:10952   */\n      0x00\n        /* \"#utility.yul\":10975:10981   */\n      dup3\n        /* \"#utility.yul\":10970:10973   */\n      dup3\n        /* \"#utility.yul\":10963:10982   */\n      mstore\n        /* \"#utility.yul\":11015:11019   */\n      0x20\n        /* \"#utility.yul\":11010:11013   */\n      dup3\n        /* \"#utility.yul\":11006:11020   */\n      add\n        /* \"#utility.yul\":10991:11020   */\n      swap1\n      pop\n        /* \"#utility.yul\":10867:11026   */\n      swap3\n      swap2\n      pop\n      pop\n      jump\t// out\n        /* \"#utility.yul\":11032:11389   */\n    tag_318:\n        /* \"#utility.yul\":11110:11113   */\n      0x00\n        /* \"#utility.yul\":11138:11177   */\n      tag_463\n        /* \"#utility.yul\":11171:11176   */\n      dup3\n        /* \"#utility.yul\":11138:11177   */\n      tag_294\n      jump\t// in\n    tag_463:\n        /* \"#utility.yul\":11193:11254   */\n      tag_464\n        /* \"#utility.yul\":11247:11253   */\n      dup2\n        /* \"#utility.yul\":11242:11245   */\n      dup6\n        /* \"#utility.yul\":11193:11254   */\n      tag_317\n      jump\t// in\n    tag_464:\n        /* \"#utility.yul\":11186:11254   */\n      swap4\n      pop\n        /* \"#utility.yul\":11263:11328   */\n      tag_465\n        /* \"#utility.yul\":11321:11327   */\n      dup2\n        /* \"#utility.yul\":11316:11319   */\n      dup6\n        /* \"#utility.yul\":11309:11313   */\n      0x20\n        /* \"#utility.yul\":11302:11307   */\n      dup7\n        /* \"#utility.yul\":11298:11314   */\n      add\n        /* \"#utility.yul\":11263:11328   */\n      tag_296\n      jump\t// in\n    tag_465:\n        /* \"#utility.yul\":11353:11382   */\n      tag_466\n        /* \"#utility.yul\":11375:11381   */\n      dup2\n        /* \"#utility.yul\":11353:11382   */\n      tag_297\n      jump\t// in\n    tag_466:\n        /* \"#utility.yul\":11348:11351   */\n      dup5\n        /* \"#utility.yul\":11344:11383   */\n      add\n        /* \"#utility.yul\":11337:11383   */\n      swap2\n      pop\n        /* \"#utility.yul\":11114:11389   */\n      pop\n        /* \"#utility.yul\":11032:11389   */\n      swap3\n      swap2\n      pop\n      pop\n      jump\t// out\n        /* \"#utility.yul\":11395:11509   */\n    tag_319:\n        /* \"#utility.yul\":11462:11468   */\n      0x00\n        /* \"#utility.yul\":11496:11501   */\n      dup2\n        /* \"#utility.yul\":11490:11502   */\n      mload\n        /* \"#utility.yul\":11480:11502   */\n      swap1\n      pop\n        /* \"#utility.yul\":11395:11509   */\n      swap2\n      swap1\n      pop\n      jump\t// out\n        /* \"#utility.yul\":11515:11689   */\n    tag_320:\n        /* \"#utility.yul\":11604:11615   */\n      0x00\n        /* \"#utility.yul\":11638:11644   */\n      dup3\n        /* \"#utility.yul\":11633:11636   */\n      dup3\n        /* \"#utility.yul\":11626:11645   */\n      mstore\n        /* \"#utility.yul\":11678:11682   */\n      0x20\n        /* \"#utility.yul\":11673:11676   */\n      dup3\n        /* \"#utility.yul\":11669:11683   */\n      add\n        /* \"#utility.yul\":11654:11683   */\n      swap1\n      pop\n        /* \"#utility.yul\":11515:11689   */\n      swap3\n      swap2\n      pop\n      pop\n      jump\t// out\n        /* \"#utility.yul\":11695:11827   */\n    tag_321:\n        /* \"#utility.yul\":11762:11766   */\n      0x00\n        /* \"#utility.yul\":11785:11788   */\n      dup2\n        /* \"#utility.yul\":11777:11788   */\n      swap1\n      pop\n        /* \"#utility.yul\":11815:11819   */\n      0x20\n        /* \"#utility.yul\":11810:11813   */\n      dup3\n        /* \"#utility.yul\":11806:11820   */\n      add\n        /* \"#utility.yul\":11798:11820   */\n      swap1\n      pop\n        /* \"#utility.yul\":11695:11827   */\n      swap2\n      swap1\n      pop\n      jump\t// out\n        /* \"#utility.yul\":11833:12012   */\n    tag_322:\n        /* \"#utility.yul\":11902:11912   */\n      0x00\n        /* \"#utility.yul\":11923:11969   */\n      tag_471\n        /* \"#utility.yul\":11965:11968   */\n      dup4\n        /* \"#utility.yul\":11957:11963   */\n      dup4\n        /* \"#utility.yul\":11923:11969   */\n      tag_308\n      jump\t// in\n    tag_471:\n        /* \"#utility.yul\":12001:12005   */\n      0x20\n        /* \"#utility.yul\":11996:11999   */\n      dup4\n        /* \"#utility.yul\":11992:12006   */\n      add\n        /* \"#utility.yul\":11978:12006   */\n      swap1\n      pop\n        /* \"#utility.yul\":11833:12012   */\n      swap3\n      swap2\n      pop\n      pop\n      jump\t// out\n        /* \"#utility.yul\":12018:12131   */\n    tag_323:\n        /* \"#utility.yul\":12088:12092   */\n      0x00\n        /* \"#utility.yul\":12120:12124   */\n      0x20\n        /* \"#utility.yul\":12115:12118   */\n      dup3\n        /* \"#utility.yul\":12111:12125   */\n      add\n        /* \"#utility.yul\":12103:12125   */\n      swap1\n      pop\n        /* \"#utility.yul\":12018:12131   */\n      swap2\n      swap1\n      pop\n      jump\t// out\n        /* \"#utility.yul\":12167:12879   */\n    tag_324:\n        /* \"#utility.yul\":12276:12279   */\n      0x00\n        /* \"#utility.yul\":12305:12359   */\n      tag_474\n        /* \"#utility.yul\":12353:12358   */\n      dup3\n        /* \"#utility.yul\":12305:12359   */\n      tag_319\n      jump\t// in\n    tag_474:\n        /* \"#utility.yul\":12375:12451   */\n      tag_475\n        /* \"#utility.yul\":12444:12450   */\n      dup2\n        /* \"#utility.yul\":12439:12442   */\n      dup6\n        /* \"#utility.yul\":12375:12451   */\n      tag_320\n      jump\t// in\n    tag_475:\n        /* \"#utility.yul\":12368:12451   */\n      swap4\n      pop\n        /* \"#utility.yul\":12475:12531   */\n      tag_476\n        /* \"#utility.yul\":12525:12530   */\n      dup4\n        /* \"#utility.yul\":12475:12531   */\n      tag_321\n      jump\t// in\n    tag_476:\n        /* \"#utility.yul\":12554:12561   */\n      dup1\n        /* \"#utility.yul\":12585:12586   */\n      0x00\n        /* \"#utility.yul\":12570:12854   */\n    tag_477:\n        /* \"#utility.yul\":12595:12601   */\n      dup4\n        /* \"#utility.yul\":12592:12593   */\n      dup2\n        /* \"#utility.yul\":12589:12602   */\n      lt\n        /* \"#utility.yul\":12570:12854   */\n      iszero\n      tag_479\n      jumpi\n        /* \"#utility.yul\":12671:12677   */\n      dup2\n        /* \"#utility.yul\":12665:12678   */\n      mload\n        /* \"#utility.yul\":12698:12761   */\n      tag_480\n        /* \"#utility.yul\":12757:12760   */\n      dup9\n        /* \"#utility.yul\":12742:12755   */\n      dup3\n        /* \"#utility.yul\":12698:12761   */\n      tag_322\n      jump\t// in\n    tag_480:\n        /* \"#utility.yul\":12691:12761   */\n      swap8\n      pop\n        /* \"#utility.yul\":12784:12844   */\n      tag_481\n        /* \"#utility.yul\":12837:12843   */\n      dup4\n        /* \"#utility.yul\":12784:12844   */\n      tag_323\n      jump\t// in\n    tag_481:\n        /* \"#utility.yul\":12774:12844   */\n      swap3\n      pop\n        /* \"#utility.yul\":12630:12854   */\n      pop\n        /* \"#utility.yul\":12617:12618   */\n      0x01\n        /* \"#utility.yul\":12614:12615   */\n      dup2\n        /* \"#utility.yul\":12610:12619   */\n      add\n        /* \"#utility.yul\":12605:12619   */\n      swap1\n      pop\n        /* \"#utility.yul\":12570:12854   */\n      jump(tag_477)\n    tag_479:\n        /* \"#utility.yul\":12574:12588   */\n      pop\n        /* \"#utility.yul\":12870:12873   */\n      dup6\n        /* \"#utility.yul\":12863:12873   */\n      swap4\n      pop\n        /* \"#utility.yul\":12281:12879   */\n      pop\n      pop\n      pop\n        /* \"#utility.yul\":12167:12879   */\n      swap3\n      swap2\n      pop\n      pop\n      jump\t// out\n        /* \"#utility.yul\":12935:14782   */\n    tag_325:\n        /* \"#utility.yul\":13040:13043   */\n      0x00\n        /* \"#utility.yul\":13076:13082   */\n      0x0100\n        /* \"#utility.yul\":13071:13074   */\n      dup4\n        /* \"#utility.yul\":13067:13083   */\n      add\n        /* \"#utility.yul\":13163:13167   */\n      0x00\n        /* \"#utility.yul\":13156:13161   */\n      dup4\n        /* \"#utility.yul\":13152:13168   */\n      add\n        /* \"#utility.yul\":13146:13169   */\n      mload\n        /* \"#utility.yul\":13182:13245   */\n      tag_483\n        /* \"#utility.yul\":13239:13243   */\n      0x00\n        /* \"#utility.yul\":13234:13237   */\n      dup7\n        /* \"#utility.yul\":13230:13244   */\n      add\n        /* \"#utility.yul\":13216:13228   */\n      dup3\n        /* \"#utility.yul\":13182:13245   */\n      tag_308\n      jump\t// in\n    tag_483:\n        /* \"#utility.yul\":13093:13255   */\n      pop\n        /* \"#utility.yul\":13339:13343   */\n      0x20\n        /* \"#utility.yul\":13332:13337   */\n      dup4\n        /* \"#utility.yul\":13328:13344   */\n      add\n        /* \"#utility.yul\":13322:13345   */\n      mload\n        /* \"#utility.yul\":13358:13421   */\n      tag_484\n        /* \"#utility.yul\":13415:13419   */\n      0x20\n        /* \"#utility.yul\":13410:13413   */\n      dup7\n        /* \"#utility.yul\":13406:13420   */\n      add\n        /* \"#utility.yul\":13392:13404   */\n      dup3\n        /* \"#utility.yul\":13358:13421   */\n      tag_309\n      jump\t// in\n    tag_484:\n        /* \"#utility.yul\":13265:13431   */\n      pop\n        /* \"#utility.yul\":13513:13517   */\n      0x40\n        /* \"#utility.yul\":13506:13511   */\n      dup4\n        /* \"#utility.yul\":13502:13518   */\n      add\n        /* \"#utility.yul\":13496:13519   */\n      mload\n        /* \"#utility.yul\":13566:13569   */\n      dup5\n        /* \"#utility.yul\":13560:13564   */\n      dup3\n        /* \"#utility.yul\":13556:13570   */\n      sub\n        /* \"#utility.yul\":13549:13553   */\n      0x40\n        /* \"#utility.yul\":13544:13547   */\n      dup7\n        /* \"#utility.yul\":13540:13554   */\n      add\n        /* \"#utility.yul\":13533:13571   */\n      mstore\n        /* \"#utility.yul\":13592:13665   */\n      tag_485\n        /* \"#utility.yul\":13660:13664   */\n      dup3\n        /* \"#utility.yul\":13646:13658   */\n      dup3\n        /* \"#utility.yul\":13592:13665   */\n      tag_318\n      jump\t// in\n    tag_485:\n        /* \"#utility.yul\":13584:13665   */\n      swap2\n      pop\n        /* \"#utility.yul\":13441:13676   */\n      pop\n        /* \"#utility.yul\":13765:13769   */\n      0x60\n        /* \"#utility.yul\":13758:13763   */\n      dup4\n        /* \"#utility.yul\":13754:13770   */\n      add\n        /* \"#utility.yul\":13748:13771   */\n      mload\n        /* \"#utility.yul\":13818:13821   */\n      dup5\n        /* \"#utility.yul\":13812:13816   */\n      dup3\n        /* \"#utility.yul\":13808:13822   */\n      sub\n        /* \"#utility.yul\":13801:13805   */\n      0x60\n        /* \"#utility.yul\":13796:13799   */\n      dup7\n        /* \"#utility.yul\":13792:13806   */\n      add\n        /* \"#utility.yul\":13785:13823   */\n      mstore\n        /* \"#utility.yul\":13844:13917   */\n      tag_486\n        /* \"#utility.yul\":13912:13916   */\n      dup3\n        /* \"#utility.yul\":13898:13910   */\n      dup3\n        /* \"#utility.yul\":13844:13917   */\n      tag_318\n      jump\t// in\n    tag_486:\n        /* \"#utility.yul\":13836:13917   */\n      swap2\n      pop\n        /* \"#utility.yul\":13686:13928   */\n      pop\n        /* \"#utility.yul\":14023:14027   */\n      0x80\n        /* \"#utility.yul\":14016:14021   */\n      dup4\n        /* \"#utility.yul\":14012:14028   */\n      add\n        /* \"#utility.yul\":14006:14029   */\n      mload\n        /* \"#utility.yul\":14042:14105   */\n      tag_487\n        /* \"#utility.yul\":14099:14103   */\n      0x80\n        /* \"#utility.yul\":14094:14097   */\n      dup7\n        /* \"#utility.yul\":14090:14104   */\n      add\n        /* \"#utility.yul\":14076:14088   */\n      dup3\n        /* \"#utility.yul\":14042:14105   */\n      tag_308\n      jump\t// in\n    tag_487:\n        /* \"#utility.yul\":13938:14115   */\n      pop\n        /* \"#utility.yul\":14203:14207   */\n      0xa0\n        /* \"#utility.yul\":14196:14201   */\n      dup4\n        /* \"#utility.yul\":14192:14208   */\n      add\n        /* \"#utility.yul\":14186:14209   */\n      mload\n        /* \"#utility.yul\":14222:14285   */\n      tag_488\n        /* \"#utility.yul\":14279:14283   */\n      0xa0\n        /* \"#utility.yul\":14274:14277   */\n      dup7\n        /* \"#utility.yul\":14270:14284   */\n      add\n        /* \"#utility.yul\":14256:14268   */\n      dup3\n        /* \"#utility.yul\":14222:14285   */\n      tag_308\n      jump\t// in\n    tag_488:\n        /* \"#utility.yul\":14125:14295   */\n      pop\n        /* \"#utility.yul\":14384:14388   */\n      0xc0\n        /* \"#utility.yul\":14377:14382   */\n      dup4\n        /* \"#utility.yul\":14373:14389   */\n      add\n        /* \"#utility.yul\":14367:14390   */\n      mload\n        /* \"#utility.yul\":14403:14466   */\n      tag_489\n        /* \"#utility.yul\":14460:14464   */\n      0xc0\n        /* \"#utility.yul\":14455:14458   */\n      dup7\n        /* \"#utility.yul\":14451:14465   */\n      add\n        /* \"#utility.yul\":14437:14449   */\n      dup3\n        /* \"#utility.yul\":14403:14466   */\n      tag_308\n      jump\t// in\n    tag_489:\n        /* \"#utility.yul\":14305:14476   */\n      pop\n        /* \"#utility.yul\":14562:14566   */\n      0xe0\n        /* \"#utility.yul\":14555:14560   */\n      dup4\n        /* \"#utility.yul\":14551:14567   */\n      add\n        /* \"#utility.yul\":14545:14568   */\n      mload\n        /* \"#utility.yul\":14615:14618   */\n      dup5\n        /* \"#utility.yul\":14609:14613   */\n      dup3\n        /* \"#utility.yul\":14605:14619   */\n      sub\n        /* \"#utility.yul\":14598:14602   */\n      0xe0\n        /* \"#utility.yul\":14593:14596   */\n      dup7\n        /* \"#utility.yul\":14589:14603   */\n      add\n        /* \"#utility.yul\":14582:14620   */\n      mstore\n        /* \"#utility.yul\":14641:14744   */\n      tag_490\n        /* \"#utility.yul\":14739:14743   */\n      dup3\n        /* \"#utility.yul\":14725:14737   */\n      dup3\n        /* \"#utility.yul\":14641:14744   */\n      tag_324\n      jump\t// in\n    tag_490:\n        /* \"#utility.yul\":14633:14744   */\n      swap2\n      pop\n        /* \"#utility.yul\":14486:14755   */\n      pop\n        /* \"#utility.yul\":14772:14776   */\n      dup1\n        /* \"#utility.yul\":14765:14776   */\n      swap2\n      pop\n        /* \"#utility.yul\":13045:14782   */\n      pop\n        /* \"#utility.yul\":12935:14782   */\n      swap3\n      swap2\n      pop\n      pop\n      jump\t// out\n        /* \"#utility.yul\":14788:15036   */\n    tag_326:\n        /* \"#utility.yul\":14903:14913   */\n      0x00\n        /* \"#utility.yul\":14938:15030   */\n      tag_492\n        /* \"#utility.yul\":15026:15029   */\n      dup4\n        /* \"#utility.yul\":15018:15024   */\n      dup4\n        /* \"#utility.yul\":14938:15030   */\n      tag_325\n      jump\t// in\n    tag_492:\n        /* \"#utility.yul\":14924:15030   */\n      swap1\n      pop\n        /* \"#utility.yul\":14788:15036   */\n      swap3\n      swap2\n      pop\n      pop\n      jump\t// out\n        /* \"#utility.yul\":15042:15178   */\n    tag_327:\n        /* \"#utility.yul\":15135:15139   */\n      0x00\n        /* \"#utility.yul\":15167:15171   */\n      0x20\n        /* \"#utility.yul\":15162:15165   */\n      dup3\n        /* \"#utility.yul\":15158:15172   */\n      add\n        /* \"#utility.yul\":15150:15172   */\n      swap1\n      pop\n        /* \"#utility.yul\":15042:15178   */\n      swap2\n      swap1\n      pop\n      jump\t// out\n        /* \"#utility.yul\":15238:16333   */\n    tag_328:\n        /* \"#utility.yul\":15403:15406   */\n      0x00\n        /* \"#utility.yul\":15432:15509   */\n      tag_495\n        /* \"#utility.yul\":15503:15508   */\n      dup3\n        /* \"#utility.yul\":15432:15509   */\n      tag_314\n      jump\t// in\n    tag_495:\n        /* \"#utility.yul\":15525:15634   */\n      tag_496\n        /* \"#utility.yul\":15627:15633   */\n      dup2\n        /* \"#utility.yul\":15622:15625   */\n      dup6\n        /* \"#utility.yul\":15525:15634   */\n      tag_315\n      jump\t// in\n    tag_496:\n        /* \"#utility.yul\":15518:15634   */\n      swap4\n      pop\n        /* \"#utility.yul\":15660:15663   */\n      dup4\n        /* \"#utility.yul\":15705:15709   */\n      0x20\n        /* \"#utility.yul\":15697:15703   */\n      dup3\n        /* \"#utility.yul\":15693:15710   */\n      mul\n        /* \"#utility.yul\":15688:15691   */\n      dup6\n        /* \"#utility.yul\":15684:15711   */\n      add\n        /* \"#utility.yul\":15735:15814   */\n      tag_497\n        /* \"#utility.yul\":15808:15813   */\n      dup6\n        /* \"#utility.yul\":15735:15814   */\n      tag_316\n      jump\t// in\n    tag_497:\n        /* \"#utility.yul\":15837:15844   */\n      dup1\n        /* \"#utility.yul\":15868:15869   */\n      0x00\n        /* \"#utility.yul\":15853:16288   */\n    tag_498:\n        /* \"#utility.yul\":15878:15884   */\n      dup6\n        /* \"#utility.yul\":15875:15876   */\n      dup2\n        /* \"#utility.yul\":15872:15885   */\n      lt\n        /* \"#utility.yul\":15853:16288   */\n      iszero\n      tag_500\n      jumpi\n        /* \"#utility.yul\":15949:15958   */\n      dup5\n        /* \"#utility.yul\":15943:15947   */\n      dup5\n        /* \"#utility.yul\":15939:15959   */\n      sub\n        /* \"#utility.yul\":15934:15937   */\n      dup10\n        /* \"#utility.yul\":15927:15960   */\n      mstore\n        /* \"#utility.yul\":16000:16006   */\n      dup2\n        /* \"#utility.yul\":15994:16007   */\n      mload\n        /* \"#utility.yul\":16028:16138   */\n      tag_501\n        /* \"#utility.yul\":16133:16137   */\n      dup6\n        /* \"#utility.yul\":16118:16131   */\n      dup3\n        /* \"#utility.yul\":16028:16138   */\n      tag_326\n      jump\t// in\n    tag_501:\n        /* \"#utility.yul\":16020:16138   */\n      swap5\n      pop\n        /* \"#utility.yul\":16161:16244   */\n      tag_502\n        /* \"#utility.yul\":16237:16243   */\n      dup4\n        /* \"#utility.yul\":16161:16244   */\n      tag_327\n      jump\t// in\n    tag_502:\n        /* \"#utility.yul\":16151:16244   */\n      swap3\n      pop\n        /* \"#utility.yul\":16273:16277   */\n      0x20\n        /* \"#utility.yul\":16268:16271   */\n      dup11\n        /* \"#utility.yul\":16264:16278   */\n      add\n        /* \"#utility.yul\":16257:16278   */\n      swap10\n      pop\n        /* \"#utility.yul\":15913:16288   */\n      pop\n        /* \"#utility.yul\":15900:15901   */\n      0x01\n        /* \"#utility.yul\":15897:15898   */\n      dup2\n        /* \"#utility.yul\":15893:15902   */\n      add\n        /* \"#utility.yul\":15888:15902   */\n      swap1\n      pop\n        /* \"#utility.yul\":15853:16288   */\n      jump(tag_498)\n    tag_500:\n        /* \"#utility.yul\":15857:15871   */\n      pop\n        /* \"#utility.yul\":16304:16308   */\n      dup3\n        /* \"#utility.yul\":16297:16308   */\n      swap8\n      pop\n        /* \"#utility.yul\":16324:16327   */\n      dup8\n        /* \"#utility.yul\":16317:16327   */\n      swap6\n      pop\n        /* \"#utility.yul\":15408:16333   */\n      pop\n      pop\n      pop\n      pop\n      pop\n        /* \"#utility.yul\":15238:16333   */\n      swap3\n      swap2\n      pop\n      pop\n      jump\t// out\n        /* \"#utility.yul\":16339:16804   */\n    tag_54:\n        /* \"#utility.yul\":16528:16532   */\n      0x00\n        /* \"#utility.yul\":16566:16568   */\n      0x20\n        /* \"#utility.yul\":16555:16564   */\n      dup3\n        /* \"#utility.yul\":16551:16569   */\n      add\n        /* \"#utility.yul\":16543:16569   */\n      swap1\n      pop\n        /* \"#utility.yul\":16615:16624   */\n      dup2\n        /* \"#utility.yul\":16609:16613   */\n      dup2\n        /* \"#utility.yul\":16605:16625   */\n      sub\n        /* \"#utility.yul\":16601:16602   */\n      0x00\n        /* \"#utility.yul\":16590:16599   */\n      dup4\n        /* \"#utility.yul\":16586:16603   */\n      add\n        /* \"#utility.yul\":16579:16626   */\n      mstore\n        /* \"#utility.yul\":16643:16797   */\n      tag_504\n        /* \"#utility.yul\":16792:16796   */\n      dup2\n        /* \"#utility.yul\":16783:16789   */\n      dup5\n        /* \"#utility.yul\":16643:16797   */\n      tag_328\n      jump\t// in\n    tag_504:\n        /* \"#utility.yul\":16635:16797   */\n      swap1\n      pop\n        /* \"#utility.yul\":16339:16804   */\n      swap3\n      swap2\n      pop\n      pop\n      jump\t// out\n        /* \"#utility.yul\":16810:16990   */\n    tag_329:\n        /* \"#utility.yul\":16858:16935   */\n      0x4e487b7100000000000000000000000000000000000000000000000000000000\n        /* \"#utility.yul\":16855:16856   */\n      0x00\n        /* \"#utility.yul\":16848:16936   */\n      mstore\n        /* \"#utility.yul\":16955:16959   */\n      0x22\n        /* \"#utility.yul\":16952:16953   */\n      0x04\n        /* \"#utility.yul\":16945:16960   */\n      mstore\n        /* \"#utility.yul\":16979:16983   */\n      0x24\n        /* \"#utility.yul\":16976:16977   */\n      0x00\n        /* \"#utility.yul\":16969:16984   */\n      revert\n        /* \"#utility.yul\":16996:17316   */\n    tag_65:\n        /* \"#utility.yul\":17040:17046   */\n      0x00\n        /* \"#utility.yul\":17077:17078   */\n      0x02\n        /* \"#utility.yul\":17071:17075   */\n      dup3\n        /* \"#utility.yul\":17067:17079   */\n      div\n        /* \"#utility.yul\":17057:17079   */\n      swap1\n      pop\n        /* \"#utility.yul\":17124:17125   */\n      0x01\n        /* \"#utility.yul\":17118:17122   */\n      dup3\n        /* \"#utility.yul\":17114:17126   */\n      and\n        /* \"#utility.yul\":17145:17163   */\n      dup1\n        /* \"#utility.yul\":17135:17216   */\n      tag_507\n      jumpi\n        /* \"#utility.yul\":17201:17205   */\n      0x7f\n        /* \"#utility.yul\":17193:17199   */\n      dup3\n        /* \"#utility.yul\":17189:17206   */\n      and\n        /* \"#utility.yul\":17179:17206   */\n      swap2\n      pop\n        /* \"#utility.yul\":17135:17216   */\n    tag_507:\n        /* \"#utility.yul\":17263:17265   */\n      0x20\n        /* \"#utility.yul\":17255:17261   */\n      dup3\n        /* \"#utility.yul\":17252:17266   */\n      lt\n        /* \"#utility.yul\":17232:17250   */\n      dup2\n        /* \"#utility.yul\":17229:17267   */\n      sub\n        /* \"#utility.yul\":17226:17310   */\n      tag_508\n      jumpi\n        /* \"#utility.yul\":17282:17300   */\n      tag_509\n      tag_329\n      jump\t// in\n    tag_509:\n        /* \"#utility.yul\":17226:17310   */\n    tag_508:\n        /* \"#utility.yul\":17047:17316   */\n      pop\n        /* \"#utility.yul\":16996:17316   */\n      swap2\n      swap1\n      pop\n      jump\t// out\n        /* \"#utility.yul\":17322:17553   */\n    tag_330:\n        /* \"#utility.yul\":17462:17496   */\n      0x4d696e696d756d206f666665722070726963652073686f756c64206265206772\n        /* \"#utility.yul\":17458:17459   */\n      0x00\n        /* \"#utility.yul\":17450:17456   */\n      dup3\n        /* \"#utility.yul\":17446:17460   */\n      add\n        /* \"#utility.yul\":17439:17497   */\n      mstore\n        /* \"#utility.yul\":17531:17545   */\n      0x6561746572207468616e20300000000000000000000000000000000000000000\n        /* \"#utility.yul\":17526:17528   */\n      0x20\n        /* \"#utility.yul\":17518:17524   */\n      dup3\n        /* \"#utility.yul\":17514:17529   */\n      add\n        /* \"#utility.yul\":17507:17546   */\n      mstore\n        /* \"#utility.yul\":17322:17553   */\n      pop\n      jump\t// out\n        /* \"#utility.yul\":17559:17925   */\n    tag_331:\n        /* \"#utility.yul\":17701:17704   */\n      0x00\n        /* \"#utility.yul\":17722:17789   */\n      tag_512\n        /* \"#utility.yul\":17786:17788   */\n      0x2c\n        /* \"#utility.yul\":17781:17784   */\n      dup4\n        /* \"#utility.yul\":17722:17789   */\n      tag_295\n      jump\t// in\n    tag_512:\n        /* \"#utility.yul\":17715:17789   */\n      swap2\n      pop\n        /* \"#utility.yul\":17798:17891   */\n      tag_513\n        /* \"#utility.yul\":17887:17890   */\n      dup3\n        /* \"#utility.yul\":17798:17891   */\n      tag_330\n      jump\t// in\n    tag_513:\n        /* \"#utility.yul\":17916:17918   */\n      0x40\n        /* \"#utility.yul\":17911:17914   */\n      dup3\n        /* \"#utility.yul\":17907:17919   */\n      add\n        /* \"#utility.yul\":17900:17919   */\n      swap1\n      pop\n        /* \"#utility.yul\":17559:17925   */\n      swap2\n      swap1\n      pop\n      jump\t// out\n        /* \"#utility.yul\":17931:18350   */\n    tag_78:\n        /* \"#utility.yul\":18097:18101   */\n      0x00\n        /* \"#utility.yul\":18135:18137   */\n      0x20\n        /* \"#utility.yul\":18124:18133   */\n      dup3\n        /* \"#utility.yul\":18120:18138   */\n      add\n        /* \"#utility.yul\":18112:18138   */\n      swap1\n      pop\n        /* \"#utility.yul\":18184:18193   */\n      dup2\n        /* \"#utility.yul\":18178:18182   */\n      dup2\n        /* \"#utility.yul\":18174:18194   */\n      sub\n        /* \"#utility.yul\":18170:18171   */\n      0x00\n        /* \"#utility.yul\":18159:18168   */\n      dup4\n        /* \"#utility.yul\":18155:18172   */\n      add\n        /* \"#utility.yul\":18148:18195   */\n      mstore\n        /* \"#utility.yul\":18212:18343   */\n      tag_515\n        /* \"#utility.yul\":18338:18342   */\n      dup2\n        /* \"#utility.yul\":18212:18343   */\n      tag_331\n      jump\t// in\n    tag_515:\n        /* \"#utility.yul\":18204:18343   */\n      swap1\n      pop\n        /* \"#utility.yul\":17931:18350   */\n      swap2\n      swap1\n      pop\n      jump\t// out\n        /* \"#utility.yul\":18356:18536   */\n    tag_81:\n        /* \"#utility.yul\":18404:18481   */\n      0x4e487b7100000000000000000000000000000000000000000000000000000000\n        /* \"#utility.yul\":18401:18402   */\n      0x00\n        /* \"#utility.yul\":18394:18482   */\n      mstore\n        /* \"#utility.yul\":18501:18505   */\n      0x41\n        /* \"#utility.yul\":18498:18499   */\n      0x04\n        /* \"#utility.yul\":18491:18506   */\n      mstore\n        /* \"#utility.yul\":18525:18529   */\n      0x24\n        /* \"#utility.yul\":18522:18523   */\n      0x00\n        /* \"#utility.yul\":18515:18530   */\n      revert\n        /* \"#utility.yul\":18542:18722   */\n    tag_332:\n        /* \"#utility.yul\":18590:18667   */\n      0x4e487b7100000000000000000000000000000000000000000000000000000000\n        /* \"#utility.yul\":18587:18588   */\n      0x00\n        /* \"#utility.yul\":18580:18668   */\n      mstore\n        /* \"#utility.yul\":18687:18691   */\n      0x11\n        /* \"#utility.yul\":18684:18685   */\n      0x04\n        /* \"#utility.yul\":18677:18692   */\n      mstore\n        /* \"#utility.yul\":18711:18715   */\n      0x24\n        /* \"#utility.yul\":18708:18709   */\n      0x00\n        /* \"#utility.yul\":18701:18716   */\n      revert\n        /* \"#utility.yul\":18728:18919   */\n    tag_84:\n        /* \"#utility.yul\":18768:18771   */\n      0x00\n        /* \"#utility.yul\":18787:18807   */\n      tag_519\n        /* \"#utility.yul\":18805:18806   */\n      dup3\n        /* \"#utility.yul\":18787:18807   */\n      tag_287\n      jump\t// in\n    tag_519:\n        /* \"#utility.yul\":18782:18807   */\n      swap2\n      pop\n        /* \"#utility.yul\":18821:18841   */\n      tag_520\n        /* \"#utility.yul\":18839:18840   */\n      dup4\n        /* \"#utility.yul\":18821:18841   */\n      tag_287\n      jump\t// in\n    tag_520:\n        /* \"#utility.yul\":18816:18841   */\n      swap3\n      pop\n        /* \"#utility.yul\":18864:18865   */\n      dup3\n        /* \"#utility.yul\":18861:18862   */\n      dup3\n        /* \"#utility.yul\":18857:18866   */\n      add\n        /* \"#utility.yul\":18850:18866   */\n      swap1\n      pop\n        /* \"#utility.yul\":18885:18888   */\n      dup1\n        /* \"#utility.yul\":18882:18883   */\n      dup3\n        /* \"#utility.yul\":18879:18889   */\n      gt\n        /* \"#utility.yul\":18876:18912   */\n      iszero\n      tag_521\n      jumpi\n        /* \"#utility.yul\":18892:18910   */\n      tag_522\n      tag_332\n      jump\t// in\n    tag_522:\n        /* \"#utility.yul\":18876:18912   */\n    tag_521:\n        /* \"#utility.yul\":18728:18919   */\n      swap3\n      swap2\n      pop\n      pop\n      jump\t// out\n        /* \"#utility.yul\":18925:19066   */\n    tag_333:\n        /* \"#utility.yul\":18974:18978   */\n      0x00\n        /* \"#utility.yul\":18997:19000   */\n      dup2\n        /* \"#utility.yul\":18989:19000   */\n      swap1\n      pop\n        /* \"#utility.yul\":19020:19023   */\n      dup2\n        /* \"#utility.yul\":19017:19018   */\n      0x00\n        /* \"#utility.yul\":19010:19024   */\n      mstore\n        /* \"#utility.yul\":19054:19058   */\n      0x20\n        /* \"#utility.yul\":19051:19052   */\n      0x00\n        /* \"#utility.yul\":19041:19059   */\n      keccak256\n        /* \"#utility.yul\":19033:19059   */\n      swap1\n      pop\n        /* \"#utility.yul\":18925:19066   */\n      swap2\n      swap1\n      pop\n      jump\t// out\n        /* \"#utility.yul\":19072:19165   */\n    tag_334:\n        /* \"#utility.yul\":19109:19115   */\n      0x00\n        /* \"#utility.yul\":19156:19158   */\n      0x20\n        /* \"#utility.yul\":19151:19153   */\n      0x1f\n        /* \"#utility.yul\":19144:19149   */\n      dup4\n        /* \"#utility.yul\":19140:19154   */\n      add\n        /* \"#utility.yul\":19136:19159   */\n      div\n        /* \"#utility.yul\":19126:19159   */\n      swap1\n      pop\n        /* \"#utility.yul\":19072:19165   */\n      swap2\n      swap1\n      pop\n      jump\t// out\n        /* \"#utility.yul\":19171:19278   */\n    tag_335:\n        /* \"#utility.yul\":19215:19223   */\n      0x00\n        /* \"#utility.yul\":19265:19270   */\n      dup3\n        /* \"#utility.yul\":19259:19263   */\n      dup3\n        /* \"#utility.yul\":19255:19271   */\n      shl\n        /* \"#utility.yul\":19234:19271   */\n      swap1\n      pop\n        /* \"#utility.yul\":19171:19278   */\n      swap3\n      swap2\n      pop\n      pop\n      jump\t// out\n        /* \"#utility.yul\":19284:19677   */\n    tag_336:\n        /* \"#utility.yul\":19353:19359   */\n      0x00\n        /* \"#utility.yul\":19403:19404   */\n      0x08\n        /* \"#utility.yul\":19391:19401   */\n      dup4\n        /* \"#utility.yul\":19387:19405   */\n      mul\n        /* \"#utility.yul\":19426:19523   */\n      tag_527\n        /* \"#utility.yul\":19456:19522   */\n      0xffffffffffffffffffffffffffffffffffffffffffffffffffffffffffffffff\n        /* \"#utility.yul\":19445:19454   */\n      dup3\n        /* \"#utility.yul\":19426:19523   */\n      tag_335\n      jump\t// in\n    tag_527:\n        /* \"#utility.yul\":19544:19583   */\n      tag_528\n        /* \"#utility.yul\":19574:19582   */\n      dup7\n        /* \"#utility.yul\":19563:19572   */\n      dup4\n        /* \"#utility.yul\":19544:19583   */\n      tag_335\n      jump\t// in\n    tag_528:\n        /* \"#utility.yul\":19532:19583   */\n      swap6\n      pop\n        /* \"#utility.yul\":19616:19620   */\n      dup1\n        /* \"#utility.yul\":19612:19621   */\n      not\n        /* \"#utility.yul\":19605:19610   */\n      dup5\n        /* \"#utility.yul\":19601:19622   */\n      and\n        /* \"#utility.yul\":19592:19622   */\n      swap4\n      pop\n        /* \"#utility.yul\":19665:19669   */\n      dup1\n        /* \"#utility.yul\":19655:19663   */\n      dup7\n        /* \"#utility.yul\":19651:19670   */\n      and\n        /* \"#utility.yul\":19644:19649   */\n      dup5\n        /* \"#utility.yul\":19641:19671   */\n      or\n        /* \"#utility.yul\":19631:19671   */\n      swap3\n      pop\n        /* \"#utility.yul\":19360:19677   */\n      pop\n      pop\n        /* \"#utility.yul\":19284:19677   */\n      swap4\n      swap3\n      pop\n      pop\n      pop\n      jump\t// out\n        /* \"#utility.yul\":19683:19743   */\n    tag_337:\n        /* \"#utility.yul\":19711:19714   */\n      0x00\n        /* \"#utility.yul\":19732:19737   */\n      dup2\n        /* \"#utility.yul\":19725:19737   */\n      swap1\n      pop\n        /* \"#utility.yul\":19683:19743   */\n      swap2\n      swap1\n      pop\n      jump\t// out\n        /* \"#utility.yul\":19749:19891   */\n    tag_338:\n        /* \"#utility.yul\":19799:19808   */\n      0x00\n        /* \"#utility.yul\":19832:19885   */\n      tag_531\n        /* \"#utility.yul\":19850:19884   */\n      tag_532\n        /* \"#utility.yul\":19859:19883   */\n      tag_533\n        /* \"#utility.yul\":19877:19882   */\n      dup5\n        /* \"#utility.yul\":19859:19883   */\n      tag_287\n      jump\t// in\n    tag_533:\n        /* \"#utility.yul\":19850:19884   */\n      tag_337\n      jump\t// in\n    tag_532:\n        /* \"#utility.yul\":19832:19885   */\n      tag_287\n      jump\t// in\n    tag_531:\n        /* \"#utility.yul\":19819:19885   */\n      swap1\n      pop\n        /* \"#utility.yul\":19749:19891   */\n      swap2\n      swap1\n      pop\n      jump\t// out\n        /* \"#utility.yul\":19897:19972   */\n    tag_339:\n        /* \"#utility.yul\":19940:19943   */\n      0x00\n        /* \"#utility.yul\":19961:19966   */\n      dup2\n        /* \"#utility.yul\":19954:19966   */\n      swap1\n      pop\n        /* \"#utility.yul\":19897:19972   */\n      swap2\n      swap1\n      pop\n      jump\t// out\n        /* \"#utility.yul\":19978:20247   */\n    tag_340:\n        /* \"#utility.yul\":20088:20127   */\n      tag_536\n        /* \"#utility.yul\":20119:20126   */\n      dup4\n        /* \"#utility.yul\":20088:20127   */\n      tag_338\n      jump\t// in\n    tag_536:\n        /* \"#utility.yul\":20149:20240   */\n      tag_537\n        /* \"#utility.yul\":20198:20239   */\n      tag_538\n        /* \"#utility.yul\":20222:20238   */\n      dup3\n        /* \"#utility.yul\":20198:20239   */\n      tag_339\n      jump\t// in\n    tag_538:\n        /* \"#utility.yul\":20190:20196   */\n      dup5\n        /* \"#utility.yul\":20183:20187   */\n      dup5\n        /* \"#utility.yul\":20177:20188   */\n      sload\n        /* \"#utility.yul\":20149:20240   */\n      tag_336\n      jump\t// in\n    tag_537:\n        /* \"#utility.yul\":20143:20147   */\n      dup3\n        /* \"#utility.yul\":20136:20241   */\n      sstore\n        /* \"#utility.yul\":20054:20247   */\n      pop\n        /* \"#utility.yul\":19978:20247   */\n      pop\n      pop\n      pop\n      jump\t// out\n        /* \"#utility.yul\":20253:20326   */\n    tag_341:\n        /* \"#utility.yul\":20298:20301   */\n      0x00\n        /* \"#utility.yul\":20253:20326   */\n      swap1\n      jump\t// out\n        /* \"#utility.yul\":20332:20521   */\n    tag_342:\n        /* \"#utility.yul\":20409:20441   */\n      tag_541\n      tag_341\n      jump\t// in\n    tag_541:\n        /* \"#utility.yul\":20450:20515   */\n      tag_542\n        /* \"#utility.yul\":20508:20514   */\n      dup2\n        /* \"#utility.yul\":20500:20506   */\n      dup5\n        /* \"#utility.yul\":20494:20498   */\n      dup5\n        /* \"#utility.yul\":20450:20515   */\n      tag_340\n      jump\t// in\n    tag_542:\n        /* \"#utility.yul\":20385:20521   */\n      pop\n        /* \"#utility.yul\":20332:20521   */\n      pop\n      pop\n      jump\t// out\n        /* \"#utility.yul\":20527:20713   */\n    tag_343:\n        /* \"#utility.yul\":20587:20707   */\n    tag_544:\n        /* \"#utility.yul\":20604:20607   */\n      dup2\n        /* \"#utility.yul\":20597:20602   */\n      dup2\n        /* \"#utility.yul\":20594:20608   */\n      lt\n        /* \"#utility.yul\":20587:20707   */\n      iszero\n      tag_546\n      jumpi\n        /* \"#utility.yul\":20658:20697   */\n      tag_547\n        /* \"#utility.yul\":20695:20696   */\n      0x00\n        /* \"#utility.yul\":20688:20693   */\n      dup3\n        /* \"#utility.yul\":20658:20697   */\n      tag_342\n      jump\t// in\n    tag_547:\n        /* \"#utility.yul\":20631:20632   */\n      0x01\n        /* \"#utility.yul\":20624:20629   */\n      dup2\n        /* \"#utility.yul\":20620:20633   */\n      add\n        /* \"#utility.yul\":20611:20633   */\n      swap1\n      pop\n        /* \"#utility.yul\":20587:20707   */\n      jump(tag_544)\n    tag_546:\n        /* \"#utility.yul\":20527:20713   */\n      pop\n      pop\n      jump\t// out\n        /* \"#utility.yul\":20719:21262   */\n    tag_344:\n        /* \"#utility.yul\":20820:20822   */\n      0x1f\n        /* \"#utility.yul\":20815:20818   */\n      dup3\n        /* \"#utility.yul\":20812:20823   */\n      gt\n        /* \"#utility.yul\":20809:21255   */\n      iszero\n      tag_549\n      jumpi\n        /* \"#utility.yul\":20854:20892   */\n      tag_550\n        /* \"#utility.yul\":20886:20891   */\n      dup2\n        /* \"#utility.yul\":20854:20892   */\n      tag_333\n      jump\t// in\n    tag_550:\n        /* \"#utility.yul\":20938:20967   */\n      tag_551\n        /* \"#utility.yul\":20956:20966   */\n      dup5\n        /* \"#utility.yul\":20938:20967   */\n      tag_334\n      jump\t// in\n    tag_551:\n        /* \"#utility.yul\":20928:20936   */\n      dup2\n        /* \"#utility.yul\":20924:20968   */\n      add\n        /* \"#utility.yul\":21121:21123   */\n      0x20\n        /* \"#utility.yul\":21109:21119   */\n      dup6\n        /* \"#utility.yul\":21106:21124   */\n      lt\n        /* \"#utility.yul\":21103:21152   */\n      iszero\n      tag_552\n      jumpi\n        /* \"#utility.yul\":21142:21150   */\n      dup2\n        /* \"#utility.yul\":21127:21150   */\n      swap1\n      pop\n        /* \"#utility.yul\":21103:21152   */\n    tag_552:\n        /* \"#utility.yul\":21165:21245   */\n      tag_553\n        /* \"#utility.yul\":21221:21243   */\n      tag_554\n        /* \"#utility.yul\":21239:21242   */\n      dup6\n        /* \"#utility.yul\":21221:21243   */\n      tag_334\n      jump\t// in\n    tag_554:\n        /* \"#utility.yul\":21211:21219   */\n      dup4\n        /* \"#utility.yul\":21207:21244   */\n      add\n        /* \"#utility.yul\":21194:21205   */\n      dup3\n        /* \"#utility.yul\":21165:21245   */\n      tag_343\n      jump\t// in\n    tag_553:\n        /* \"#utility.yul\":20824:21255   */\n      pop\n      pop\n        /* \"#utility.yul\":20809:21255   */\n    tag_549:\n        /* \"#utility.yul\":20719:21262   */\n      pop\n      pop\n      pop\n      jump\t// out\n        /* \"#utility.yul\":21268:21385   */\n    tag_345:\n        /* \"#utility.yul\":21322:21330   */\n      0x00\n        /* \"#utility.yul\":21372:21377   */\n      dup3\n        /* \"#utility.yul\":21366:21370   */\n      dup3\n        /* \"#utility.yul\":21362:21378   */\n      shr\n        /* \"#utility.yul\":21341:21378   */\n      swap1\n      pop\n        /* \"#utility.yul\":21268:21385   */\n      swap3\n      swap2\n      pop\n      pop\n      jump\t// out\n        /* \"#utility.yul\":21391:21560   */\n    tag_346:\n        /* \"#utility.yul\":21435:21441   */\n      0x00\n        /* \"#utility.yul\":21468:21519   */\n      tag_557\n        /* \"#utility.yul\":21516:21517   */\n      0x00\n        /* \"#utility.yul\":21512:21518   */\n      not\n        /* \"#utility.yul\":21504:21509   */\n      dup5\n        /* \"#utility.yul\":21501:21502   */\n      0x08\n        /* \"#utility.yul\":21497:21510   */\n      mul\n        /* \"#utility.yul\":21468:21519   */\n      tag_345\n      jump\t// in\n    tag_557:\n        /* \"#utility.yul\":21464:21520   */\n      not\n        /* \"#utility.yul\":21549:21553   */\n      dup1\n        /* \"#utility.yul\":21543:21547   */\n      dup4\n        /* \"#utility.yul\":21539:21554   */\n      and\n        /* \"#utility.yul\":21529:21554   */\n      swap2\n      pop\n        /* \"#utility.yul\":21442:21560   */\n      pop\n        /* \"#utility.yul\":21391:21560   */\n      swap3\n      swap2\n      pop\n      pop\n      jump\t// out\n        /* \"#utility.yul\":21565:21860   */\n    tag_347:\n        /* \"#utility.yul\":21641:21645   */\n      0x00\n        /* \"#utility.yul\":21787:21816   */\n      tag_559\n        /* \"#utility.yul\":21812:21815   */\n      dup4\n        /* \"#utility.yul\":21806:21810   */\n      dup4\n        /* \"#utility.yul\":21787:21816   */\n      tag_346\n      jump\t// in\n    tag_559:\n        /* \"#utility.yul\":21779:21816   */\n      swap2\n      pop\n        /* \"#utility.yul\":21849:21852   */\n      dup3\n        /* \"#utility.yul\":21846:21847   */\n      0x02\n        /* \"#utility.yul\":21842:21853   */\n      mul\n        /* \"#utility.yul\":21836:21840   */\n      dup3\n        /* \"#utility.yul\":21833:21854   */\n      or\n        /* \"#utility.yul\":21825:21854   */\n      swap1\n      pop\n        /* \"#utility.yul\":21565:21860   */\n      swap3\n      swap2\n      pop\n      pop\n      jump\t// out\n        /* \"#utility.yul\":21865:23260   */\n    tag_86:\n        /* \"#utility.yul\":21982:22019   */\n      tag_561\n        /* \"#utility.yul\":22015:22018   */\n      dup3\n        /* \"#utility.yul\":21982:22019   */\n      tag_294\n      jump\t// in\n    tag_561:\n        /* \"#utility.yul\":22084:22102   */\n      0xffffffffffffffff\n        /* \"#utility.yul\":22076:22082   */\n      dup2\n        /* \"#utility.yul\":22073:22103   */\n      gt\n        /* \"#utility.yul\":22070:22126   */\n      iszero\n      tag_562\n      jumpi\n        /* \"#utility.yul\":22106:22124   */\n      tag_563\n      tag_81\n      jump\t// in\n    tag_563:\n        /* \"#utility.yul\":22070:22126   */\n    tag_562:\n        /* \"#utility.yul\":22150:22188   */\n      tag_564\n        /* \"#utility.yul\":22182:22186   */\n      dup3\n        /* \"#utility.yul\":22176:22187   */\n      sload\n        /* \"#utility.yul\":22150:22188   */\n      tag_65\n      jump\t// in\n    tag_564:\n        /* \"#utility.yul\":22235:22302   */\n      tag_565\n        /* \"#utility.yul\":22295:22301   */\n      dup3\n        /* \"#utility.yul\":22287:22293   */\n      dup3\n        /* \"#utility.yul\":22281:22285   */\n      dup6\n        /* \"#utility.yul\":22235:22302   */\n      tag_344\n      jump\t// in\n    tag_565:\n        /* \"#utility.yul\":22329:22330   */\n      0x00\n        /* \"#utility.yul\":22353:22357   */\n      0x20\n        /* \"#utility.yul\":22340:22357   */\n      swap1\n      pop\n        /* \"#utility.yul\":22385:22387   */\n      0x1f\n        /* \"#utility.yul\":22377:22383   */\n      dup4\n        /* \"#utility.yul\":22374:22388   */\n      gt\n        /* \"#utility.yul\":22402:22403   */\n      0x01\n        /* \"#utility.yul\":22397:23015   */\n      dup2\n      eq\n      tag_567\n      jumpi\n        /* \"#utility.yul\":23059:23060   */\n      0x00\n        /* \"#utility.yul\":23076:23082   */\n      dup5\n        /* \"#utility.yul\":23073:23150   */\n      iszero\n      tag_568\n      jumpi\n        /* \"#utility.yul\":23125:23134   */\n      dup3\n        /* \"#utility.yul\":23120:23123   */\n      dup8\n        /* \"#utility.yul\":23116:23135   */\n      add\n        /* \"#utility.yul\":23110:23136   */\n      mload\n        /* \"#utility.yul\":23101:23136   */\n      swap1\n      pop\n        /* \"#utility.yul\":23073:23150   */\n    tag_568:\n        /* \"#utility.yul\":23176:23243   */\n      tag_569\n        /* \"#utility.yul\":23236:23242   */\n      dup6\n        /* \"#utility.yul\":23229:23234   */\n      dup3\n        /* \"#utility.yul\":23176:23243   */\n      tag_347\n      jump\t// in\n    tag_569:\n        /* \"#utility.yul\":23170:23174   */\n      dup7\n        /* \"#utility.yul\":23163:23244   */\n      sstore\n        /* \"#utility.yul\":23032:23254   */\n      pop\n        /* \"#utility.yul\":22367:23254   */\n      jump(tag_566)\n        /* \"#utility.yul\":22397:23015   */\n    tag_567:\n        /* \"#utility.yul\":22449:22453   */\n      0x1f\n        /* \"#utility.yul\":22445:22454   */\n      not\n        /* \"#utility.yul\":22437:22443   */\n      dup5\n        /* \"#utility.yul\":22433:22455   */\n      and\n        /* \"#utility.yul\":22483:22520   */\n      tag_570\n        /* \"#utility.yul\":22515:22519   */\n      dup7\n        /* \"#utility.yul\":22483:22520   */\n      tag_333\n      jump\t// in\n    tag_570:\n        /* \"#utility.yul\":22542:22543   */\n      0x00\n        /* \"#utility.yul\":22556:22764   */\n    tag_571:\n        /* \"#utility.yul\":22570:22577   */\n      dup3\n        /* \"#utility.yul\":22567:22568   */\n      dup2\n        /* \"#utility.yul\":22564:22578   */\n      lt\n        /* \"#utility.yul\":22556:22764   */\n      iszero\n      tag_573\n      jumpi\n        /* \"#utility.yul\":22649:22658   */\n      dup5\n        /* \"#utility.yul\":22644:22647   */\n      dup10\n        /* \"#utility.yul\":22640:22659   */\n      add\n        /* \"#utility.yul\":22634:22660   */\n      mload\n        /* \"#utility.yul\":22626:22632   */\n      dup3\n        /* \"#utility.yul\":22619:22661   */\n      sstore\n        /* \"#utility.yul\":22700:22701   */\n      0x01\n        /* \"#utility.yul\":22692:22698   */\n      dup3\n        /* \"#utility.yul\":22688:22702   */\n      add\n        /* \"#utility.yul\":22678:22702   */\n      swap2\n      pop\n        /* \"#utility.yul\":22747:22749   */\n      0x20\n        /* \"#utility.yul\":22736:22745   */\n      dup6\n        /* \"#utility.yul\":22732:22750   */\n      add\n        /* \"#utility.yul\":22719:22750   */\n      swap5\n      pop\n        /* \"#utility.yul\":22593:22597   */\n      0x20\n        /* \"#utility.yul\":22590:22591   */\n      dup2\n        /* \"#utility.yul\":22586:22598   */\n      add\n        /* \"#utility.yul\":22581:22598   */\n      swap1\n      pop\n        /* \"#utility.yul\":22556:22764   */\n      jump(tag_571)\n    tag_573:\n        /* \"#utility.yul\":22792:22798   */\n      dup7\n        /* \"#utility.yul\":22783:22790   */\n      dup4\n        /* \"#utility.yul\":22780:22799   */\n      lt\n        /* \"#utility.yul\":22777:22956   */\n      iszero\n      tag_574\n      jumpi\n        /* \"#utility.yul\":22850:22859   */\n      dup5\n        /* \"#utility.yul\":22845:22848   */\n      dup10\n        /* \"#utility.yul\":22841:22860   */\n      add\n        /* \"#utility.yul\":22835:22861   */\n      mload\n        /* \"#utility.yul\":22893:22941   */\n      tag_575\n        /* \"#utility.yul\":22935:22939   */\n      0x1f\n        /* \"#utility.yul\":22927:22933   */\n      dup10\n        /* \"#utility.yul\":22923:22940   */\n      and\n        /* \"#utility.yul\":22912:22921   */\n      dup3\n        /* \"#utility.yul\":22893:22941   */\n      tag_346\n      jump\t// in\n    tag_575:\n        /* \"#utility.yul\":22885:22891   */\n      dup4\n        /* \"#utility.yul\":22878:22942   */\n      sstore\n        /* \"#utility.yul\":22800:22956   */\n      pop\n        /* \"#utility.yul\":22777:22956   */\n    tag_574:\n        /* \"#utility.yul\":23002:23003   */\n      0x01\n        /* \"#utility.yul\":22998:22999   */\n      0x02\n        /* \"#utility.yul\":22990:22996   */\n      dup9\n        /* \"#utility.yul\":22986:23000   */\n      mul\n        /* \"#utility.yul\":22982:23004   */\n      add\n        /* \"#utility.yul\":22976:22980   */\n      dup9\n        /* \"#utility.yul\":22969:23005   */\n      sstore\n        /* \"#utility.yul\":22404:23015   */\n      pop\n      pop\n      pop\n        /* \"#utility.yul\":22367:23254   */\n    tag_566:\n      pop\n        /* \"#utility.yul\":21957:23260   */\n      pop\n      pop\n      pop\n        /* \"#utility.yul\":21865:23260   */\n      pop\n      pop\n      jump\t// out\n        /* \"#utility.yul\":23266:23499   */\n    tag_92:\n        /* \"#utility.yul\":23305:23308   */\n      0x00\n        /* \"#utility.yul\":23328:23352   */\n      tag_577\n        /* \"#utility.yul\":23346:23351   */\n      dup3\n        /* \"#utility.yul\":23328:23352   */\n      tag_287\n      jump\t// in\n    tag_577:\n        /* \"#utility.yul\":23319:23352   */\n      swap2\n      pop\n        /* \"#utility.yul\":23374:23440   */\n      0xffffffffffffffffffffffffffffffffffffffffffffffffffffffffffffffff\n        /* \"#utility.yul\":23367:23372   */\n      dup3\n        /* \"#utility.yul\":23364:23441   */\n      sub\n        /* \"#utility.yul\":23361:23464   */\n      tag_578\n      jumpi\n        /* \"#utility.yul\":23444:23462   */\n      tag_579\n      tag_332\n      jump\t// in\n    tag_579:\n        /* \"#utility.yul\":23361:23464   */\n    tag_578:\n        /* \"#utility.yul\":23491:23492   */\n      0x01\n        /* \"#utility.yul\":23484:23489   */\n      dup3\n        /* \"#utility.yul\":23480:23493   */\n      add\n        /* \"#utility.yul\":23473:23493   */\n      swap1\n      pop\n        /* \"#utility.yul\":23266:23499   */\n      swap2\n      swap1\n      pop\n      jump\t// out\n        /* \"#utility.yul\":23505:23685   */\n    tag_105:\n        /* \"#utility.yul\":23553:23630   */\n      0x4e487b7100000000000000000000000000000000000000000000000000000000\n        /* \"#utility.yul\":23550:23551   */\n      0x00\n        /* \"#utility.yul\":23543:23631   */\n      mstore\n        /* \"#utility.yul\":23650:23654   */\n      0x32\n        /* \"#utility.yul\":23647:23648   */\n      0x04\n        /* \"#utility.yul\":23640:23655   */\n      mstore\n        /* \"#utility.yul\":23674:23678   */\n      0x24\n        /* \"#utility.yul\":23671:23672   */\n      0x00\n        /* \"#utility.yul\":23664:23679   */\n      revert\n        /* \"#utility.yul\":23691:23863   */\n    tag_348:\n        /* \"#utility.yul\":23831:23855   */\n      0x41756374696f6e20646f6573206e6f7420657869737400000000000000000000\n        /* \"#utility.yul\":23827:23828   */\n      0x00\n        /* \"#utility.yul\":23819:23825   */\n      dup3\n        /* \"#utility.yul\":23815:23829   */\n      add\n        /* \"#utility.yul\":23808:23856   */\n      mstore\n        /* \"#utility.yul\":23691:23863   */\n      pop\n      jump\t// out\n        /* \"#utility.yul\":23869:24235   */\n    tag_349:\n        /* \"#utility.yul\":24011:24014   */\n      0x00\n        /* \"#utility.yul\":24032:24099   */\n      tag_583\n        /* \"#utility.yul\":24096:24098   */\n      0x16\n        /* \"#utility.yul\":24091:24094   */\n      dup4\n        /* \"#utility.yul\":24032:24099   */\n      tag_295\n      jump\t// in\n    tag_583:\n        /* \"#utility.yul\":24025:24099   */\n      swap2\n      pop\n        /* \"#utility.yul\":24108:24201   */\n      tag_584\n        /* \"#utility.yul\":24197:24200   */\n      dup3\n        /* \"#utility.yul\":24108:24201   */\n      tag_348\n      jump\t// in\n    tag_584:\n        /* \"#utility.yul\":24226:24228   */\n      0x20\n        /* \"#utility.yul\":24221:24224   */\n      dup3\n        /* \"#utility.yul\":24217:24229   */\n      add\n        /* \"#utility.yul\":24210:24229   */\n      swap1\n      pop\n        /* \"#utility.yul\":23869:24235   */\n      swap2\n      swap1\n      pop\n      jump\t// out\n        /* \"#utility.yul\":24241:24660   */\n    tag_114:\n        /* \"#utility.yul\":24407:24411   */\n      0x00\n        /* \"#utility.yul\":24445:24447   */\n      0x20\n        /* \"#utility.yul\":24434:24443   */\n      dup3\n        /* \"#utility.yul\":24430:24448   */\n      add\n        /* \"#utility.yul\":24422:24448   */\n      swap1\n      pop\n        /* \"#utility.yul\":24494:24503   */\n      dup2\n        /* \"#utility.yul\":24488:24492   */\n      dup2\n        /* \"#utility.yul\":24484:24504   */\n      sub\n        /* \"#utility.yul\":24480:24481   */\n      0x00\n        /* \"#utility.yul\":24469:24478   */\n      dup4\n        /* \"#utility.yul\":24465:24482   */\n      add\n        /* \"#utility.yul\":24458:24505   */\n      mstore\n        /* \"#utility.yul\":24522:24653   */\n      tag_586\n        /* \"#utility.yul\":24648:24652   */\n      dup2\n        /* \"#utility.yul\":24522:24653   */\n      tag_349\n      jump\t// in\n    tag_586:\n        /* \"#utility.yul\":24514:24653   */\n      swap1\n      pop\n        /* \"#utility.yul\":24241:24660   */\n      swap2\n      swap1\n      pop\n      jump\t// out\n        /* \"#utility.yul\":24666:24831   */\n    tag_350:\n        /* \"#utility.yul\":24806:24823   */\n      0x41756374696f6e20657870697265640000000000000000000000000000000000\n        /* \"#utility.yul\":24802:24803   */\n      0x00\n        /* \"#utility.yul\":24794:24800   */\n      dup3\n        /* \"#utility.yul\":24790:24804   */\n      add\n        /* \"#utility.yul\":24783:24824   */\n      mstore\n        /* \"#utility.yul\":24666:24831   */\n      pop\n      jump\t// out\n        /* \"#utility.yul\":24837:25203   */\n    tag_351:\n        /* \"#utility.yul\":24979:24982   */\n      0x00\n        /* \"#utility.yul\":25000:25067   */\n      tag_589\n        /* \"#utility.yul\":25064:25066   */\n      0x0f\n        /* \"#utility.yul\":25059:25062   */\n      dup4\n        /* \"#utility.yul\":25000:25067   */\n      tag_295\n      jump\t// in\n    tag_589:\n        /* \"#utility.yul\":24993:25067   */\n      swap2\n      pop\n        /* \"#utility.yul\":25076:25169   */\n      tag_590\n        /* \"#utility.yul\":25165:25168   */\n      dup3\n        /* \"#utility.yul\":25076:25169   */\n      tag_350\n      jump\t// in\n    tag_590:\n        /* \"#utility.yul\":25194:25196   */\n      0x20\n        /* \"#utility.yul\":25189:25192   */\n      dup3\n        /* \"#utility.yul\":25185:25197   */\n      add\n        /* \"#utility.yul\":25178:25197   */\n      swap1\n      pop\n        /* \"#utility.yul\":24837:25203   */\n      swap2\n      swap1\n      pop\n      jump\t// out\n        /* \"#utility.yul\":25209:25628   */\n    tag_159:\n        /* \"#utility.yul\":25375:25379   */\n      0x00\n        /* \"#utility.yul\":25413:25415   */\n      0x20\n        /* \"#utility.yul\":25402:25411   */\n      dup3\n        /* \"#utility.yul\":25398:25416   */\n      add\n        /* \"#utility.yul\":25390:25416   */\n      swap1\n      pop\n        /* \"#utility.yul\":25462:25471   */\n      dup2\n        /* \"#utility.yul\":25456:25460   */\n      dup2\n        /* \"#utility.yul\":25452:25472   */\n      sub\n        /* \"#utility.yul\":25448:25449   */\n      0x00\n        /* \"#utility.yul\":25437:25446   */\n      dup4\n        /* \"#utility.yul\":25433:25450   */\n      add\n        /* \"#utility.yul\":25426:25473   */\n      mstore\n        /* \"#utility.yul\":25490:25621   */\n      tag_592\n        /* \"#utility.yul\":25616:25620   */\n      dup2\n        /* \"#utility.yul\":25490:25621   */\n      tag_351\n      jump\t// in\n    tag_592:\n        /* \"#utility.yul\":25482:25621   */\n      swap1\n      pop\n        /* \"#utility.yul\":25209:25628   */\n      swap2\n      swap1\n      pop\n      jump\t// out\n        /* \"#utility.yul\":25634:25925   */\n    tag_352:\n        /* \"#utility.yul\":25774:25808   */\n      0x50726963652073686f756c642062652067726561746572207468616e206d696e\n        /* \"#utility.yul\":25770:25771   */\n      0x00\n        /* \"#utility.yul\":25762:25768   */\n      dup3\n        /* \"#utility.yul\":25758:25772   */\n      add\n        /* \"#utility.yul\":25751:25809   */\n      mstore\n        /* \"#utility.yul\":25843:25877   */\n      0x696d756d206f6666657220707269636520616e64207468652062657374206f66\n        /* \"#utility.yul\":25838:25840   */\n      0x20\n        /* \"#utility.yul\":25830:25836   */\n      dup3\n        /* \"#utility.yul\":25826:25841   */\n      add\n        /* \"#utility.yul\":25819:25878   */\n      mstore\n        /* \"#utility.yul\":25912:25917   */\n      0x6665720000000000000000000000000000000000000000000000000000000000\n        /* \"#utility.yul\":25907:25909   */\n      0x40\n        /* \"#utility.yul\":25899:25905   */\n      dup3\n        /* \"#utility.yul\":25895:25910   */\n      add\n        /* \"#utility.yul\":25888:25918   */\n      mstore\n        /* \"#utility.yul\":25634:25925   */\n      pop\n      jump\t// out\n        /* \"#utility.yul\":25931:26297   */\n    tag_353:\n        /* \"#utility.yul\":26073:26076   */\n      0x00\n        /* \"#utility.yul\":26094:26161   */\n      tag_595\n        /* \"#utility.yul\":26158:26160   */\n      0x43\n        /* \"#utility.yul\":26153:26156   */\n      dup4\n        /* \"#utility.yul\":26094:26161   */\n      tag_295\n      jump\t// in\n    tag_595:\n        /* \"#utility.yul\":26087:26161   */\n      swap2\n      pop\n        /* \"#utility.yul\":26170:26263   */\n      tag_596\n        /* \"#utility.yul\":26259:26262   */\n      dup3\n        /* \"#utility.yul\":26170:26263   */\n      tag_352\n      jump\t// in\n    tag_596:\n        /* \"#utility.yul\":26288:26290   */\n      0x60\n        /* \"#utility.yul\":26283:26286   */\n      dup3\n        /* \"#utility.yul\":26279:26291   */\n      add\n        /* \"#utility.yul\":26272:26291   */\n      swap1\n      pop\n        /* \"#utility.yul\":25931:26297   */\n      swap2\n      swap1\n      pop\n      jump\t// out\n        /* \"#utility.yul\":26303:26722   */\n    tag_172:\n        /* \"#utility.yul\":26469:26473   */\n      0x00\n        /* \"#utility.yul\":26507:26509   */\n      0x20\n        /* \"#utility.yul\":26496:26505   */\n      dup3\n        /* \"#utility.yul\":26492:26510   */\n      add\n        /* \"#utility.yul\":26484:26510   */\n      swap1\n      pop\n        /* \"#utility.yul\":26556:26565   */\n      dup2\n        /* \"#utility.yul\":26550:26554   */\n      dup2\n        /* \"#utility.yul\":26546:26566   */\n      sub\n        /* \"#utility.yul\":26542:26543   */\n      0x00\n        /* \"#utility.yul\":26531:26540   */\n      dup4\n        /* \"#utility.yul\":26527:26544   */\n      add\n        /* \"#utility.yul\":26520:26567   */\n      mstore\n        /* \"#utility.yul\":26584:26715   */\n      tag_598\n        /* \"#utility.yul\":26710:26714   */\n      dup2\n        /* \"#utility.yul\":26584:26715   */\n      tag_353\n      jump\t// in\n    tag_598:\n        /* \"#utility.yul\":26576:26715   */\n      swap1\n      pop\n        /* \"#utility.yul\":26303:26722   */\n      swap2\n      swap1\n      pop\n      jump\t// out\n        /* \"#utility.yul\":26728:26922   */\n    tag_198:\n        /* \"#utility.yul\":26768:26772   */\n      0x00\n        /* \"#utility.yul\":26788:26808   */\n      tag_600\n        /* \"#utility.yul\":26806:26807   */\n      dup3\n        /* \"#utility.yul\":26788:26808   */\n      tag_287\n      jump\t// in\n    tag_600:\n        /* \"#utility.yul\":26783:26808   */\n      swap2\n      pop\n        /* \"#utility.yul\":26822:26842   */\n      tag_601\n        /* \"#utility.yul\":26840:26841   */\n      dup4\n        /* \"#utility.yul\":26822:26842   */\n      tag_287\n      jump\t// in\n    tag_601:\n        /* \"#utility.yul\":26817:26842   */\n      swap3\n      pop\n        /* \"#utility.yul\":26866:26867   */\n      dup3\n        /* \"#utility.yul\":26863:26864   */\n      dup3\n        /* \"#utility.yul\":26859:26868   */\n      sub\n        /* \"#utility.yul\":26851:26868   */\n      swap1\n      pop\n        /* \"#utility.yul\":26890:26891   */\n      dup2\n        /* \"#utility.yul\":26884:26888   */\n      dup2\n        /* \"#utility.yul\":26881:26892   */\n      gt\n        /* \"#utility.yul\":26878:26915   */\n      iszero\n      tag_602\n      jumpi\n        /* \"#utility.yul\":26895:26913   */\n      tag_603\n      tag_332\n      jump\t// in\n    tag_603:\n        /* \"#utility.yul\":26878:26915   */\n    tag_602:\n        /* \"#utility.yul\":26728:26922   */\n      swap3\n      swap2\n      pop\n      pop\n      jump\t// out\n        /* \"#utility.yul\":26928:27101   */\n    tag_354:\n        /* \"#utility.yul\":27068:27093   */\n      0x41756374696f6e206973207374696c6c20616374697665000000000000000000\n        /* \"#utility.yul\":27064:27065   */\n      0x00\n        /* \"#utility.yul\":27056:27062   */\n      dup3\n        /* \"#utility.yul\":27052:27066   */\n      add\n        /* \"#utility.yul\":27045:27094   */\n      mstore\n        /* \"#utility.yul\":26928:27101   */\n      pop\n      jump\t// out\n        /* \"#utility.yul\":27107:27473   */\n    tag_355:\n        /* \"#utility.yul\":27249:27252   */\n      0x00\n        /* \"#utility.yul\":27270:27337   */\n      tag_606\n        /* \"#utility.yul\":27334:27336   */\n      0x17\n        /* \"#utility.yul\":27329:27332   */\n      dup4\n        /* \"#utility.yul\":27270:27337   */\n      tag_295\n      jump\t// in\n    tag_606:\n        /* \"#utility.yul\":27263:27337   */\n      swap2\n      pop\n        /* \"#utility.yul\":27346:27439   */\n      tag_607\n        /* \"#utility.yul\":27435:27438   */\n      dup3\n        /* \"#utility.yul\":27346:27439   */\n      tag_354\n      jump\t// in\n    tag_607:\n        /* \"#utility.yul\":27464:27466   */\n      0x20\n        /* \"#utility.yul\":27459:27462   */\n      dup3\n        /* \"#utility.yul\":27455:27467   */\n      add\n        /* \"#utility.yul\":27448:27467   */\n      swap1\n      pop\n        /* \"#utility.yul\":27107:27473   */\n      swap2\n      swap1\n      pop\n      jump\t// out\n        /* \"#utility.yul\":27479:27898   */\n    tag_231:\n        /* \"#utility.yul\":27645:27649   */\n      0x00\n        /* \"#utility.yul\":27683:27685   */\n      0x20\n        /* \"#utility.yul\":27672:27681   */\n      dup3\n        /* \"#utility.yul\":27668:27686   */\n      add\n        /* \"#utility.yul\":27660:27686   */\n      swap1\n      pop\n        /* \"#utility.yul\":27732:27741   */\n      dup2\n        /* \"#utility.yul\":27726:27730   */\n      dup2\n        /* \"#utility.yul\":27722:27742   */\n      sub\n        /* \"#utility.yul\":27718:27719   */\n      0x00\n        /* \"#utility.yul\":27707:27716   */\n      dup4\n        /* \"#utility.yul\":27703:27720   */\n      add\n        /* \"#utility.yul\":27696:27743   */\n      mstore\n        /* \"#utility.yul\":27760:27891   */\n      tag_609\n        /* \"#utility.yul\":27886:27890   */\n      dup2\n        /* \"#utility.yul\":27760:27891   */\n      tag_355\n      jump\t// in\n    tag_609:\n        /* \"#utility.yul\":27752:27891   */\n      swap1\n      pop\n        /* \"#utility.yul\":27479:27898   */\n      swap2\n      swap1\n      pop\n      jump\t// out\n\n    auxdata: 0xa26469706673582212208510e371c0caafcf49e363be780c92c71c4c2c9beef53838186391c9d52b458d64736f6c63430008100033\n}\n",
				"bytecode": {
					"linkReferences": {},
					"object": "608060405260018055600160035534801561001957600080fd5b50612a9e806100296000396000f3fe6080604052600436106100915760003560e01c8063a269993d11610059578063a269993d146101a8578063c43ede15146101c4578063d7c0691914610201578063df1dd8261461022c578063ff3ad0b41461025557610091565b8063571a26a01461009657806361e2db55146100d9578063661d2c2c146101025780638a72ea6a1461013f57806396b5a7551461017f575b600080fd5b3480156100a257600080fd5b506100bd60048036038101906100b89190611cac565b610292565b6040516100d09796959493929190611db9565b60405180910390f35b3480156100e557600080fd5b5061010060048036038101906100fb9190611e9b565b610404565b005b34801561010e57600080fd5b5061012960048036038101906101249190611f6e565b6106d2565b60405161013691906120bd565b60405180910390f35b34801561014b57600080fd5b5061016660048036038101906101619190611cac565b610873565b60405161017694939291906120df565b60405180910390f35b34801561018b57600080fd5b506101a660048036038101906101a19190611cac565b6108c3565b005b6101c260048036038101906101bd9190611cac565b610dac565b005b3480156101d057600080fd5b506101eb60048036038101906101e69190611cac565b611121565b6040516101f891906120bd565b60405180910390f35b34801561020d57600080fd5b506102166112f0565b604051610223919061239d565b60405180910390f35b34801561023857600080fd5b50610253600480360381019061024e9190611cac565b6115c5565b005b34801561026157600080fd5b5061027c60048036038101906102779190611f6e565b6117e1565b604051610289919061239d565b60405180910390f35b60006020528060005260406000206000915090508060000154908060010160009054906101000a900473ffffffffffffffffffffffffffffffffffffffff16908060020180546102e1906123ee565b80601f016020809104026020016040519081016040528092919081815260200182805461030d906123ee565b801561035a5780601f1061032f5761010080835404028352916020019161035a565b820191906000526020600020905b81548152906001019060200180831161033d57829003601f168201915b50505050509080600301805461036f906123ee565b80601f016020809104026020016040519081016040528092919081815260200182805461039b906123ee565b80156103e85780601f106103bd576101008083540402835291602001916103e8565b820191906000526020600020905b8154815290600101906020018083116103cb57829003601f168201915b5050505050908060040154908060050154908060060154905087565b60008211610447576040517f08c379a000000000000000000000000000000000000000000000000000000000815260040161043e90612491565b60405180910390fd5b60008067ffffffffffffffff811115610463576104626124b1565b5b6040519080825280602002602001820160405280156104915781602001602082028036833780820191505090505b50905060405180610100016040528060015481526020013373ffffffffffffffffffffffffffffffffffffffff16815260200188888080601f016020809104026020016040519081016040528093929190818152602001838380828437600081840152601f19601f82011690508083019250505050505050815260200186868080601f016020809104026020016040519081016040528093929190818152602001838380828437600081840152601f19601f820116905080830192505050505050508152602001848152602001834261056a919061250f565b8152602001600081526020018281525060008060015481526020019081526020016000206000820151816000015560208201518160010160006101000a81548173ffffffffffffffffffffffffffffffffffffffff021916908373ffffffffffffffffffffffffffffffffffffffff16021790555060408201518160020190816105f491906126ef565b50606082015181600301908161060a91906126ef565b506080820151816004015560a0820151816005015560c0820151816006015560e0820151816007019080519060200190610645929190611b08565b50905050600460003373ffffffffffffffffffffffffffffffffffffffff1673ffffffffffffffffffffffffffffffffffffffff1681526020019081526020016000206001549080600181540180825580915050600190039060005260206000200160009091909190915055600160008154809291906106c4906127c1565b919050555050505050505050565b60606000600560008473ffffffffffffffffffffffffffffffffffffffff1673ffffffffffffffffffffffffffffffffffffffff16815260200190815260200160002090506000818054905067ffffffffffffffff811115610737576107366124b1565b5b60405190808252806020026020018201604052801561077057816020015b61075d611b55565b8152602001906001900390816107555790505b50905060005b828054905081101561086857600083828154811061079757610796612809565b5b906000526020600020015490506002600082815260200190815260200160002060405180608001604052908160008201548152602001600182015481526020016002820160009054906101000a900473ffffffffffffffffffffffffffffffffffffffff1673ffffffffffffffffffffffffffffffffffffffff1673ffffffffffffffffffffffffffffffffffffffff16815260200160038201548152505083838151811061084957610848612809565b5b6020026020010181905250508080610860906127c1565b915050610776565b508092505050919050565b60026020528060005260406000206000915090508060000154908060010154908060020160009054906101000a900473ffffffffffffffffffffffffffffffffffffffff16908060030154905084565b806000811180156108d5575060015481105b610914576040517f08c379a000000000000000000000000000000000000000000000000000000000815260040161090b90612884565b60405180910390fd5b6000806000848152602001908152602001600020905060005b8160070180549050811015610b8b57600082600701828154811061095457610953612809565b5b9060005260206000200154905060006002600083815260200190815260200160002090508060020160009054906101000a900473ffffffffffffffffffffffffffffffffffffffff1673ffffffffffffffffffffffffffffffffffffffff166108fc82600301549081150290604051600060405180830381858888f193505050501580156109e6573d6000803e3d6000fd5b5060005b600560008360020160009054906101000a900473ffffffffffffffffffffffffffffffffffffffff1673ffffffffffffffffffffffffffffffffffffffff1673ffffffffffffffffffffffffffffffffffffffff16815260200190815260200160002080549050811015610b755782600560008460020160009054906101000a900473ffffffffffffffffffffffffffffffffffffffff1673ffffffffffffffffffffffffffffffffffffffff1673ffffffffffffffffffffffffffffffffffffffff1681526020019081526020016000208281548110610ace57610acd612809565b5b906000526020600020015403610b6257600560008360020160009054906101000a900473ffffffffffffffffffffffffffffffffffffffff1673ffffffffffffffffffffffffffffffffffffffff1673ffffffffffffffffffffffffffffffffffffffff1681526020019081526020016000208181548110610b5357610b52612809565b5b90600052602060002001600090555b8080610b6d906127c1565b9150506109ea565b5050508080610b83906127c1565b91505061092d565b5060005b600460008360010160009054906101000a900473ffffffffffffffffffffffffffffffffffffffff1673ffffffffffffffffffffffffffffffffffffffff1673ffffffffffffffffffffffffffffffffffffffff16815260200190815260200160002080549050811015610d1a5783600460008460010160009054906101000a900473ffffffffffffffffffffffffffffffffffffffff1673ffffffffffffffffffffffffffffffffffffffff1673ffffffffffffffffffffffffffffffffffffffff1681526020019081526020016000208281548110610c7357610c72612809565b5b906000526020600020015403610d0757600460008360010160009054906101000a900473ffffffffffffffffffffffffffffffffffffffff1673ffffffffffffffffffffffffffffffffffffffff1673ffffffffffffffffffffffffffffffffffffffff1681526020019081526020016000208181548110610cf857610cf7612809565b5b90600052602060002001600090555b8080610d12906127c1565b915050610b8f565b506000808481526020019081526020016000206000808201600090556001820160006101000a81549073ffffffffffffffffffffffffffffffffffffffff0219169055600282016000610d6d9190611b93565b600382016000610d7d9190611b93565b600482016000905560058201600090556006820160009055600782016000610da59190611bd3565b5050505050565b80600081118015610dbe575060015481105b610dfd576040517f08c379a0000000000000000000000000000000000000000000000000000000008152600401610df490612884565b60405180910390fd5b6000806000848152602001908152602001600020905080600501544210610e59576040517f08c379a0000000000000000000000000000000000000000000000000000000008152600401610e50906128f0565b60405180910390fd5b600060026000836006015481526020019081526020016000209050600034905060005b8360070180549050811015610f4057600060026000866007018481548110610ea757610ea6612809565b5b9060005260206000200154815260200190815260200160002090503373ffffffffffffffffffffffffffffffffffffffff168160020160009054906101000a900473ffffffffffffffffffffffffffffffffffffffff1673ffffffffffffffffffffffffffffffffffffffff1603610f2c57806003015483610f29919061250f565b92505b508080610f38906127c1565b915050610e7c565b5082600401548110158015610f585750816003015481115b610f97576040517f08c379a0000000000000000000000000000000000000000000000000000000008152600401610f8e906129a8565b60405180910390fd5b6003548360060181905550604051806080016040528060035481526020018681526020013373ffffffffffffffffffffffffffffffffffffffff16815260200182815250600260006003548152602001908152602001600020600082015181600001556020820151816001015560408201518160020160006101000a81548173ffffffffffffffffffffffffffffffffffffffff021916908373ffffffffffffffffffffffffffffffffffffffff16021790555060608201518160030155905050826007016003549080600181540180825580915050600190039060005260206000200160009091909190915055600181611092919061250f565b8360040181905550600560003373ffffffffffffffffffffffffffffffffffffffff1673ffffffffffffffffffffffffffffffffffffffff168152602001908152602001600020600354908060018154018082558091505060019003906000526020600020016000909190919091505560036000815480929190611115906127c1565b91905055505050505050565b606081600081118015611135575060015481105b611174576040517f08c379a000000000000000000000000000000000000000000000000000000000815260040161116b90612884565b60405180910390fd5b6000806000858152602001908152602001600020905060008160070190506000818054905067ffffffffffffffff8111156111b2576111b16124b1565b5b6040519080825280602002602001820160405280156111eb57816020015b6111d8611b55565b8152602001906001900390816111d05790505b50905060005b82805490508110156112e357600083828154811061121257611211612809565b5b906000526020600020015490506002600082815260200190815260200160002060405180608001604052908160008201548152602001600182015481526020016002820160009054906101000a900473ffffffffffffffffffffffffffffffffffffffff1673ffffffffffffffffffffffffffffffffffffffff1673ffffffffffffffffffffffffffffffffffffffff1681526020016003820154815250508383815181106112c4576112c3612809565b5b60200260200101819052505080806112db906127c1565b9150506111f1565b5080945050505050919050565b606060006001805461130291906129c8565b67ffffffffffffffff81111561131b5761131a6124b1565b5b60405190808252806020026020018201604052801561135457816020015b611341611bf4565b8152602001906001900390816113395790505b5090506000600190505b6001548110156115bd5760008082815260200190815260200160002060405180610100016040529081600082015481526020016001820160009054906101000a900473ffffffffffffffffffffffffffffffffffffffff1673ffffffffffffffffffffffffffffffffffffffff1673ffffffffffffffffffffffffffffffffffffffff1681526020016002820180546113f6906123ee565b80601f0160208091040260200160405190810160405280929190818152602001828054611422906123ee565b801561146f5780601f106114445761010080835404028352916020019161146f565b820191906000526020600020905b81548152906001019060200180831161145257829003601f168201915b50505050508152602001600382018054611488906123ee565b80601f01602080910402602001604051908101604052809291908181526020018280546114b4906123ee565b80156115015780601f106114d657610100808354040283529160200191611501565b820191906000526020600020905b8154815290600101906020018083116114e457829003601f168201915b505050505081526020016004820154815260200160058201548152602001600682015481526020016007820180548060200260200160405190810160405280929190818152602001828054801561157757602002820191906000526020600020905b815481526020019060010190808311611563575b5050505050815250508260018361158e91906129c8565b8151811061159f5761159e612809565b5b602002602001018190525080806115b5906127c1565b91505061135e565b508091505090565b806000811180156115d7575060015481105b611616576040517f08c379a000000000000000000000000000000000000000000000000000000000815260040161160d90612884565b60405180910390fd5b600080600084815260200190815260200160002090506000600260008360060154815260200190815260200160002090508160050154421161168d576040517f08c379a000000000000000000000000000000000000000000000000000000000815260040161168490612a48565b60405180910390fd5b60005b826007018054905081101561176b5760008360070182815481106116b7576116b6612809565b5b90600052602060002001549050600060026000838152602001908152602001600020905083600001548214611756578060020160009054906101000a900473ffffffffffffffffffffffffffffffffffffffff1673ffffffffffffffffffffffffffffffffffffffff166108fc82600301549081150290604051600060405180830381858888f19350505050158015611754573d6000803e3d6000fd5b505b50508080611763906127c1565b915050611690565b508160010160009054906101000a900473ffffffffffffffffffffffffffffffffffffffff1673ffffffffffffffffffffffffffffffffffffffff166108fc82600301549081150290604051600060405180830381858888f193505050501580156117da573d6000803e3d6000fd5b5050505050565b60606000600460008473ffffffffffffffffffffffffffffffffffffffff1673ffffffffffffffffffffffffffffffffffffffff16815260200190815260200160002090506000818054905067ffffffffffffffff811115611846576118456124b1565b5b60405190808252806020026020018201604052801561187f57816020015b61186c611bf4565b8152602001906001900390816118645790505b50905060005b8280549050811015611afd5760008382815481106118a6576118a5612809565b5b9060005260206000200154905060008082815260200190815260200160002060405180610100016040529081600082015481526020016001820160009054906101000a900473ffffffffffffffffffffffffffffffffffffffff1673ffffffffffffffffffffffffffffffffffffffff1673ffffffffffffffffffffffffffffffffffffffff168152602001600282018054611941906123ee565b80601f016020809104026020016040519081016040528092919081815260200182805461196d906123ee565b80156119ba5780601f1061198f576101008083540402835291602001916119ba565b820191906000526020600020905b81548152906001019060200180831161199d57829003601f168201915b505050505081526020016003820180546119d3906123ee565b80601f01602080910402602001604051908101604052809291908181526020018280546119ff906123ee565b8015611a4c5780601f10611a2157610100808354040283529160200191611a4c565b820191906000526020600020905b815481529060010190602001808311611a2f57829003601f168201915b5050505050815260200160048201548152602001600582015481526020016006820154815260200160078201805480602002602001604051908101604052809291908181526020018280548015611ac257602002820191906000526020600020905b815481526020019060010190808311611aae575b505050505081525050838381518110611ade57611add612809565b5b6020026020010181905250508080611af5906127c1565b915050611885565b508092505050919050565b828054828255906000526020600020908101928215611b44579160200282015b82811115611b43578251825591602001919060010190611b28565b5b509050611b519190611c4f565b5090565b60405180608001604052806000815260200160008152602001600073ffffffffffffffffffffffffffffffffffffffff168152602001600081525090565b508054611b9f906123ee565b6000825580601f10611bb15750611bd0565b601f016020900490600052602060002090810190611bcf9190611c4f565b5b50565b5080546000825590600052602060002090810190611bf19190611c4f565b50565b60405180610100016040528060008152602001600073ffffffffffffffffffffffffffffffffffffffff1681526020016060815260200160608152602001600081526020016000815260200160008152602001606081525090565b5b80821115611c68576000816000905550600101611c50565b5090565b600080fd5b600080fd5b6000819050919050565b611c8981611c76565b8114611c9457600080fd5b50565b600081359050611ca681611c80565b92915050565b600060208284031215611cc257611cc1611c6c565b5b6000611cd084828501611c97565b91505092915050565b611ce281611c76565b82525050565b600073ffffffffffffffffffffffffffffffffffffffff82169050919050565b6000611d1382611ce8565b9050919050565b611d2381611d08565b82525050565b600081519050919050565b600082825260208201905092915050565b60005b83811015611d63578082015181840152602081019050611d48565b60008484015250505050565b6000601f19601f8301169050919050565b6000611d8b82611d29565b611d958185611d34565b9350611da5818560208601611d45565b611dae81611d6f565b840191505092915050565b600060e082019050611dce600083018a611cd9565b611ddb6020830189611d1a565b8181036040830152611ded8188611d80565b90508181036060830152611e018187611d80565b9050611e106080830186611cd9565b611e1d60a0830185611cd9565b611e2a60c0830184611cd9565b98975050505050505050565b600080fd5b600080fd5b600080fd5b60008083601f840112611e5b57611e5a611e36565b5b8235905067ffffffffffffffff811115611e7857611e77611e3b565b5b602083019150836001820283011115611e9457611e93611e40565b5b9250929050565b60008060008060008060808789031215611eb857611eb7611c6c565b5b600087013567ffffffffffffffff811115611ed657611ed5611c71565b5b611ee289828a01611e45565b9650965050602087013567ffffffffffffffff811115611f0557611f04611c71565b5b611f1189828a01611e45565b94509450506040611f2489828a01611c97565b9250506060611f3589828a01611c97565b9150509295509295509295565b611f4b81611d08565b8114611f5657600080fd5b50565b600081359050611f6881611f42565b92915050565b600060208284031215611f8457611f83611c6c565b5b6000611f9284828501611f59565b91505092915050565b600081519050919050565b600082825260208201905092915050565b6000819050602082019050919050565b611fd081611c76565b82525050565b611fdf81611d08565b82525050565b608082016000820151611ffb6000850182611fc7565b50602082015161200e6020850182611fc7565b5060408201516120216040850182611fd6565b5060608201516120346060850182611fc7565b50505050565b60006120468383611fe5565b60808301905092915050565b6000602082019050919050565b600061206a82611f9b565b6120748185611fa6565b935061207f83611fb7565b8060005b838110156120b0578151612097888261203a565b97506120a283612052565b925050600181019050612083565b5085935050505092915050565b600060208201905081810360008301526120d7818461205f565b905092915050565b60006080820190506120f46000830187611cd9565b6121016020830186611cd9565b61210e6040830185611d1a565b61211b6060830184611cd9565b95945050505050565b600081519050919050565b600082825260208201905092915050565b6000819050602082019050919050565b600082825260208201905092915050565b600061216c82611d29565b6121768185612150565b9350612186818560208601611d45565b61218f81611d6f565b840191505092915050565b600081519050919050565b600082825260208201905092915050565b6000819050602082019050919050565b60006121d28383611fc7565b60208301905092915050565b6000602082019050919050565b60006121f68261219a565b61220081856121a5565b935061220b836121b6565b8060005b8381101561223c57815161222388826121c6565b975061222e836121de565b92505060018101905061220f565b5085935050505092915050565b6000610100830160008301516122626000860182611fc7565b5060208301516122756020860182611fd6565b506040830151848203604086015261228d8282612161565b915050606083015184820360608601526122a78282612161565b91505060808301516122bc6080860182611fc7565b5060a08301516122cf60a0860182611fc7565b5060c08301516122e260c0860182611fc7565b5060e083015184820360e08601526122fa82826121eb565b9150508091505092915050565b60006123138383612249565b905092915050565b6000602082019050919050565b600061233382612124565b61233d818561212f565b93508360208202850161234f85612140565b8060005b8581101561238b578484038952815161236c8582612307565b94506123778361231b565b925060208a01995050600181019050612353565b50829750879550505050505092915050565b600060208201905081810360008301526123b78184612328565b905092915050565b7f4e487b7100000000000000000000000000000000000000000000000000000000600052602260045260246000fd5b6000600282049050600182168061240657607f821691505b602082108103612419576124186123bf565b5b50919050565b7f4d696e696d756d206f666665722070726963652073686f756c6420626520677260008201527f6561746572207468616e20300000000000000000000000000000000000000000602082015250565b600061247b602c83611d34565b91506124868261241f565b604082019050919050565b600060208201905081810360008301526124aa8161246e565b9050919050565b7f4e487b7100000000000000000000000000000000000000000000000000000000600052604160045260246000fd5b7f4e487b7100000000000000000000000000000000000000000000000000000000600052601160045260246000fd5b600061251a82611c76565b915061252583611c76565b925082820190508082111561253d5761253c6124e0565b5b92915050565b60008190508160005260206000209050919050565b60006020601f8301049050919050565b600082821b905092915050565b6000600883026125a57fffffffffffffffffffffffffffffffffffffffffffffffffffffffffffffffff82612568565b6125af8683612568565b95508019841693508086168417925050509392505050565b6000819050919050565b60006125ec6125e76125e284611c76565b6125c7565b611c76565b9050919050565b6000819050919050565b612606836125d1565b61261a612612826125f3565b848454612575565b825550505050565b600090565b61262f612622565b61263a8184846125fd565b505050565b5b8181101561265e57612653600082612627565b600181019050612640565b5050565b601f8211156126a35761267481612543565b61267d84612558565b8101602085101561268c578190505b6126a061269885612558565b83018261263f565b50505b505050565b600082821c905092915050565b60006126c6600019846008026126a8565b1980831691505092915050565b60006126df83836126b5565b9150826002028217905092915050565b6126f882611d29565b67ffffffffffffffff811115612711576127106124b1565b5b61271b82546123ee565b612726828285612662565b600060209050601f8311600181146127595760008415612747578287015190505b61275185826126d3565b8655506127b9565b601f19841661276786612543565b60005b8281101561278f5784890151825560018201915060208501945060208101905061276a565b868310156127ac57848901516127a8601f8916826126b5565b8355505b6001600288020188555050505b505050505050565b60006127cc82611c76565b91507fffffffffffffffffffffffffffffffffffffffffffffffffffffffffffffffff82036127fe576127fd6124e0565b5b600182019050919050565b7f4e487b7100000000000000000000000000000000000000000000000000000000600052603260045260246000fd5b7f41756374696f6e20646f6573206e6f7420657869737400000000000000000000600082015250565b600061286e601683611d34565b915061287982612838565b602082019050919050565b6000602082019050818103600083015261289d81612861565b9050919050565b7f41756374696f6e20657870697265640000000000000000000000000000000000600082015250565b60006128da600f83611d34565b91506128e5826128a4565b602082019050919050565b60006020820190508181036000830152612909816128cd565b9050919050565b7f50726963652073686f756c642062652067726561746572207468616e206d696e60008201527f696d756d206f6666657220707269636520616e64207468652062657374206f6660208201527f6665720000000000000000000000000000000000000000000000000000000000604082015250565b6000612992604383611d34565b915061299d82612910565b606082019050919050565b600060208201905081810360008301526129c181612985565b9050919050565b60006129d382611c76565b91506129de83611c76565b92508282039050818111156129f6576129f56124e0565b5b92915050565b7f41756374696f6e206973207374696c6c20616374697665000000000000000000600082015250565b6000612a32601783611d34565b9150612a3d826129fc565b602082019050919050565b60006020820190508181036000830152612a6181612a25565b905091905056fea26469706673582212208510e371c0caafcf49e363be780c92c71c4c2c9beef53838186391c9d52b458d64736f6c63430008100033",
					"opcodes": "PUSH1 0x80 PUSH1 0x40 MSTORE PUSH1 0x1 DUP1 SSTORE PUSH1 0x1 PUSH1 0x3 SSTORE CALLVALUE DUP1 ISZERO PUSH2 0x19 JUMPI PUSH1 0x0 DUP1 REVERT JUMPDEST POP PUSH2 0x2A9E DUP1 PUSH2 0x29 PUSH1 0x0 CODECOPY PUSH1 0x0 RETURN INVALID PUSH1 0x80 PUSH1 0x40 MSTORE PUSH1 0x4 CALLDATASIZE LT PUSH2 0x91 JUMPI PUSH1 0x0 CALLDATALOAD PUSH1 0xE0 SHR DUP1 PUSH4 0xA269993D GT PUSH2 0x59 JUMPI DUP1 PUSH4 0xA269993D EQ PUSH2 0x1A8 JUMPI DUP1 PUSH4 0xC43EDE15 EQ PUSH2 0x1C4 JUMPI DUP1 PUSH4 0xD7C06919 EQ PUSH2 0x201 JUMPI DUP1 PUSH4 0xDF1DD826 EQ PUSH2 0x22C JUMPI DUP1 PUSH4 0xFF3AD0B4 EQ PUSH2 0x255 JUMPI PUSH2 0x91 JUMP JUMPDEST DUP1 PUSH4 0x571A26A0 EQ PUSH2 0x96 JUMPI DUP1 PUSH4 0x61E2DB55 EQ PUSH2 0xD9 JUMPI DUP1 PUSH4 0x661D2C2C EQ PUSH2 0x102 JUMPI DUP1 PUSH4 0x8A72EA6A EQ PUSH2 0x13F JUMPI DUP1 PUSH4 0x96B5A755 EQ PUSH2 0x17F JUMPI JUMPDEST PUSH1 0x0 DUP1 REVERT JUMPDEST CALLVALUE DUP1 ISZERO PUSH2 0xA2 JUMPI PUSH1 0x0 DUP1 REVERT JUMPDEST POP PUSH2 0xBD PUSH1 0x4 DUP1 CALLDATASIZE SUB DUP2 ADD SWAP1 PUSH2 0xB8 SWAP2 SWAP1 PUSH2 0x1CAC JUMP JUMPDEST PUSH2 0x292 JUMP JUMPDEST PUSH1 0x40 MLOAD PUSH2 0xD0 SWAP8 SWAP7 SWAP6 SWAP5 SWAP4 SWAP3 SWAP2 SWAP1 PUSH2 0x1DB9 JUMP JUMPDEST PUSH1 0x40 MLOAD DUP1 SWAP2 SUB SWAP1 RETURN JUMPDEST CALLVALUE DUP1 ISZERO PUSH2 0xE5 JUMPI PUSH1 0x0 DUP1 REVERT JUMPDEST POP PUSH2 0x100 PUSH1 0x4 DUP1 CALLDATASIZE SUB DUP2 ADD SWAP1 PUSH2 0xFB SWAP2 SWAP1 PUSH2 0x1E9B JUMP JUMPDEST PUSH2 0x404 JUMP JUMPDEST STOP JUMPDEST CALLVALUE DUP1 ISZERO PUSH2 0x10E JUMPI PUSH1 0x0 DUP1 REVERT JUMPDEST POP PUSH2 0x129 PUSH1 0x4 DUP1 CALLDATASIZE SUB DUP2 ADD SWAP1 PUSH2 0x124 SWAP2 SWAP1 PUSH2 0x1F6E JUMP JUMPDEST PUSH2 0x6D2 JUMP JUMPDEST PUSH1 0x40 MLOAD PUSH2 0x136 SWAP2 SWAP1 PUSH2 0x20BD JUMP JUMPDEST PUSH1 0x40 MLOAD DUP1 SWAP2 SUB SWAP1 RETURN JUMPDEST CALLVALUE DUP1 ISZERO PUSH2 0x14B JUMPI PUSH1 0x0 DUP1 REVERT JUMPDEST POP PUSH2 0x166 PUSH1 0x4 DUP1 CALLDATASIZE SUB DUP2 ADD SWAP1 PUSH2 0x161 SWAP2 SWAP1 PUSH2 0x1CAC JUMP JUMPDEST PUSH2 0x873 JUMP JUMPDEST PUSH1 0x40 MLOAD PUSH2 0x176 SWAP5 SWAP4 SWAP3 SWAP2 SWAP1 PUSH2 0x20DF JUMP JUMPDEST PUSH1 0x40 MLOAD DUP1 SWAP2 SUB SWAP1 RETURN JUMPDEST CALLVALUE DUP1 ISZERO PUSH2 0x18B JUMPI PUSH1 0x0 DUP1 REVERT JUMPDEST POP PUSH2 0x1A6 PUSH1 0x4 DUP1 CALLDATASIZE SUB DUP2 ADD SWAP1 PUSH2 0x1A1 SWAP2 SWAP1 PUSH2 0x1CAC JUMP JUMPDEST PUSH2 0x8C3 JUMP JUMPDEST STOP JUMPDEST PUSH2 0x1C2 PUSH1 0x4 DUP1 CALLDATASIZE SUB DUP2 ADD SWAP1 PUSH2 0x1BD SWAP2 SWAP1 PUSH2 0x1CAC JUMP JUMPDEST PUSH2 0xDAC JUMP JUMPDEST STOP JUMPDEST CALLVALUE DUP1 ISZERO PUSH2 0x1D0 JUMPI PUSH1 0x0 DUP1 REVERT JUMPDEST POP PUSH2 0x1EB PUSH1 0x4 DUP1 CALLDATASIZE SUB DUP2 ADD SWAP1 PUSH2 0x1E6 SWAP2 SWAP1 PUSH2 0x1CAC JUMP JUMPDEST PUSH2 0x1121 JUMP JUMPDEST PUSH1 0x40 MLOAD PUSH2 0x1F8 SWAP2 SWAP1 PUSH2 0x20BD JUMP JUMPDEST PUSH1 0x40 MLOAD DUP1 SWAP2 SUB SWAP1 RETURN JUMPDEST CALLVALUE DUP1 ISZERO PUSH2 0x20D JUMPI PUSH1 0x0 DUP1 REVERT JUMPDEST POP PUSH2 0x216 PUSH2 0x12F0 JUMP JUMPDEST PUSH1 0x40 MLOAD PUSH2 0x223 SWAP2 SWAP1 PUSH2 0x239D JUMP JUMPDEST PUSH1 0x40 MLOAD DUP1 SWAP2 SUB SWAP1 RETURN JUMPDEST CALLVALUE DUP1 ISZERO PUSH2 0x238 JUMPI PUSH1 0x0 DUP1 REVERT JUMPDEST POP PUSH2 0x253 PUSH1 0x4 DUP1 CALLDATASIZE SUB DUP2 ADD SWAP1 PUSH2 0x24E SWAP2 SWAP1 PUSH2 0x1CAC JUMP JUMPDEST PUSH2 0x15C5 JUMP JUMPDEST STOP JUMPDEST CALLVALUE DUP1 ISZERO PUSH2 0x261 JUMPI PUSH1 0x0 DUP1 REVERT JUMPDEST POP PUSH2 0x27C PUSH1 0x4 DUP1 CALLDATASIZE SUB DUP2 ADD SWAP1 PUSH2 0x277 SWAP2 SWAP1 PUSH2 0x1F6E JUMP JUMPDEST PUSH2 0x17E1 JUMP JUMPDEST PUSH1 0x40 MLOAD PUSH2 0x289 SWAP2 SWAP1 PUSH2 0x239D JUMP JUMPDEST PUSH1 0x40 MLOAD DUP1 SWAP2 SUB SWAP1 RETURN JUMPDEST PUSH1 0x0 PUSH1 0x20 MSTORE DUP1 PUSH1 0x0 MSTORE PUSH1 0x40 PUSH1 0x0 KECCAK256 PUSH1 0x0 SWAP2 POP SWAP1 POP DUP1 PUSH1 0x0 ADD SLOAD SWAP1 DUP1 PUSH1 0x1 ADD PUSH1 0x0 SWAP1 SLOAD SWAP1 PUSH2 0x100 EXP SWAP1 DIV PUSH20 0xFFFFFFFFFFFFFFFFFFFFFFFFFFFFFFFFFFFFFFFF AND SWAP1 DUP1 PUSH1 0x2 ADD DUP1 SLOAD PUSH2 0x2E1 SWAP1 PUSH2 0x23EE JUMP JUMPDEST DUP1 PUSH1 0x1F ADD PUSH1 0x20 DUP1 SWAP2 DIV MUL PUSH1 0x20 ADD PUSH1 0x40 MLOAD SWAP1 DUP2 ADD PUSH1 0x40 MSTORE DUP1 SWAP3 SWAP2 SWAP1 DUP2 DUP2 MSTORE PUSH1 0x20 ADD DUP3 DUP1 SLOAD PUSH2 0x30D SWAP1 PUSH2 0x23EE JUMP JUMPDEST DUP1 ISZERO PUSH2 0x35A JUMPI DUP1 PUSH1 0x1F LT PUSH2 0x32F JUMPI PUSH2 0x100 DUP1 DUP4 SLOAD DIV MUL DUP4 MSTORE SWAP2 PUSH1 0x20 ADD SWAP2 PUSH2 0x35A JUMP JUMPDEST DUP3 ADD SWAP2 SWAP1 PUSH1 0x0 MSTORE PUSH1 0x20 PUSH1 0x0 KECCAK256 SWAP1 JUMPDEST DUP2 SLOAD DUP2 MSTORE SWAP1 PUSH1 0x1 ADD SWAP1 PUSH1 0x20 ADD DUP1 DUP4 GT PUSH2 0x33D JUMPI DUP3 SWAP1 SUB PUSH1 0x1F AND DUP3 ADD SWAP2 JUMPDEST POP POP POP POP POP SWAP1 DUP1 PUSH1 0x3 ADD DUP1 SLOAD PUSH2 0x36F SWAP1 PUSH2 0x23EE JUMP JUMPDEST DUP1 PUSH1 0x1F ADD PUSH1 0x20 DUP1 SWAP2 DIV MUL PUSH1 0x20 ADD PUSH1 0x40 MLOAD SWAP1 DUP2 ADD PUSH1 0x40 MSTORE DUP1 SWAP3 SWAP2 SWAP1 DUP2 DUP2 MSTORE PUSH1 0x20 ADD DUP3 DUP1 SLOAD PUSH2 0x39B SWAP1 PUSH2 0x23EE JUMP JUMPDEST DUP1 ISZERO PUSH2 0x3E8 JUMPI DUP1 PUSH1 0x1F LT PUSH2 0x3BD JUMPI PUSH2 0x100 DUP1 DUP4 SLOAD DIV MUL DUP4 MSTORE SWAP2 PUSH1 0x20 ADD SWAP2 PUSH2 0x3E8 JUMP JUMPDEST DUP3 ADD SWAP2 SWAP1 PUSH1 0x0 MSTORE PUSH1 0x20 PUSH1 0x0 KECCAK256 SWAP1 JUMPDEST DUP2 SLOAD DUP2 MSTORE SWAP1 PUSH1 0x1 ADD SWAP1 PUSH1 0x20 ADD DUP1 DUP4 GT PUSH2 0x3CB JUMPI DUP3 SWAP1 SUB PUSH1 0x1F AND DUP3 ADD SWAP2 JUMPDEST POP POP POP POP POP SWAP1 DUP1 PUSH1 0x4 ADD SLOAD SWAP1 DUP1 PUSH1 0x5 ADD SLOAD SWAP1 DUP1 PUSH1 0x6 ADD SLOAD SWAP1 POP DUP8 JUMP JUMPDEST PUSH1 0x0 DUP3 GT PUSH2 0x447 JUMPI PUSH1 0x40 MLOAD PUSH32 0x8C379A000000000000000000000000000000000000000000000000000000000 DUP2 MSTORE PUSH1 0x4 ADD PUSH2 0x43E SWAP1 PUSH2 0x2491 JUMP JUMPDEST PUSH1 0x40 MLOAD DUP1 SWAP2 SUB SWAP1 REVERT JUMPDEST PUSH1 0x0 DUP1 PUSH8 0xFFFFFFFFFFFFFFFF DUP2 GT ISZERO PUSH2 0x463 JUMPI PUSH2 0x462 PUSH2 0x24B1 JUMP JUMPDEST JUMPDEST PUSH1 0x40 MLOAD SWAP1 DUP1 DUP3 MSTORE DUP1 PUSH1 0x20 MUL PUSH1 0x20 ADD DUP3 ADD PUSH1 0x40 MSTORE DUP1 ISZERO PUSH2 0x491 JUMPI DUP2 PUSH1 0x20 ADD PUSH1 0x20 DUP3 MUL DUP1 CALLDATASIZE DUP4 CALLDATACOPY DUP1 DUP3 ADD SWAP2 POP POP SWAP1 POP JUMPDEST POP SWAP1 POP PUSH1 0x40 MLOAD DUP1 PUSH2 0x100 ADD PUSH1 0x40 MSTORE DUP1 PUSH1 0x1 SLOAD DUP2 MSTORE PUSH1 0x20 ADD CALLER PUSH20 0xFFFFFFFFFFFFFFFFFFFFFFFFFFFFFFFFFFFFFFFF AND DUP2 MSTORE PUSH1 0x20 ADD DUP9 DUP9 DUP1 DUP1 PUSH1 0x1F ADD PUSH1 0x20 DUP1 SWAP2 DIV MUL PUSH1 0x20 ADD PUSH1 0x40 MLOAD SWAP1 DUP2 ADD PUSH1 0x40 MSTORE DUP1 SWAP4 SWAP3 SWAP2 SWAP1 DUP2 DUP2 MSTORE PUSH1 0x20 ADD DUP4 DUP4 DUP1 DUP3 DUP5 CALLDATACOPY PUSH1 0x0 DUP2 DUP5 ADD MSTORE PUSH1 0x1F NOT PUSH1 0x1F DUP3 ADD AND SWAP1 POP DUP1 DUP4 ADD SWAP3 POP POP POP POP POP POP POP DUP2 MSTORE PUSH1 0x20 ADD DUP7 DUP7 DUP1 DUP1 PUSH1 0x1F ADD PUSH1 0x20 DUP1 SWAP2 DIV MUL PUSH1 0x20 ADD PUSH1 0x40 MLOAD SWAP1 DUP2 ADD PUSH1 0x40 MSTORE DUP1 SWAP4 SWAP3 SWAP2 SWAP1 DUP2 DUP2 MSTORE PUSH1 0x20 ADD DUP4 DUP4 DUP1 DUP3 DUP5 CALLDATACOPY PUSH1 0x0 DUP2 DUP5 ADD MSTORE PUSH1 0x1F NOT PUSH1 0x1F DUP3 ADD AND SWAP1 POP DUP1 DUP4 ADD SWAP3 POP POP POP POP POP POP POP DUP2 MSTORE PUSH1 0x20 ADD DUP5 DUP2 MSTORE PUSH1 0x20 ADD DUP4 TIMESTAMP PUSH2 0x56A SWAP2 SWAP1 PUSH2 0x250F JUMP JUMPDEST DUP2 MSTORE PUSH1 0x20 ADD PUSH1 0x0 DUP2 MSTORE PUSH1 0x20 ADD DUP3 DUP2 MSTORE POP PUSH1 0x0 DUP1 PUSH1 0x1 SLOAD DUP2 MSTORE PUSH1 0x20 ADD SWAP1 DUP2 MSTORE PUSH1 0x20 ADD PUSH1 0x0 KECCAK256 PUSH1 0x0 DUP3 ADD MLOAD DUP2 PUSH1 0x0 ADD SSTORE PUSH1 0x20 DUP3 ADD MLOAD DUP2 PUSH1 0x1 ADD PUSH1 0x0 PUSH2 0x100 EXP DUP2 SLOAD DUP2 PUSH20 0xFFFFFFFFFFFFFFFFFFFFFFFFFFFFFFFFFFFFFFFF MUL NOT AND SWAP1 DUP4 PUSH20 0xFFFFFFFFFFFFFFFFFFFFFFFFFFFFFFFFFFFFFFFF AND MUL OR SWAP1 SSTORE POP PUSH1 0x40 DUP3 ADD MLOAD DUP2 PUSH1 0x2 ADD SWAP1 DUP2 PUSH2 0x5F4 SWAP2 SWAP1 PUSH2 0x26EF JUMP JUMPDEST POP PUSH1 0x60 DUP3 ADD MLOAD DUP2 PUSH1 0x3 ADD SWAP1 DUP2 PUSH2 0x60A SWAP2 SWAP1 PUSH2 0x26EF JUMP JUMPDEST POP PUSH1 0x80 DUP3 ADD MLOAD DUP2 PUSH1 0x4 ADD SSTORE PUSH1 0xA0 DUP3 ADD MLOAD DUP2 PUSH1 0x5 ADD SSTORE PUSH1 0xC0 DUP3 ADD MLOAD DUP2 PUSH1 0x6 ADD SSTORE PUSH1 0xE0 DUP3 ADD MLOAD DUP2 PUSH1 0x7 ADD SWAP1 DUP1 MLOAD SWAP1 PUSH1 0x20 ADD SWAP1 PUSH2 0x645 SWAP3 SWAP2 SWAP1 PUSH2 0x1B08 JUMP JUMPDEST POP SWAP1 POP POP PUSH1 0x4 PUSH1 0x0 CALLER PUSH20 0xFFFFFFFFFFFFFFFFFFFFFFFFFFFFFFFFFFFFFFFF AND PUSH20 0xFFFFFFFFFFFFFFFFFFFFFFFFFFFFFFFFFFFFFFFF AND DUP2 MSTORE PUSH1 0x20 ADD SWAP1 DUP2 MSTORE PUSH1 0x20 ADD PUSH1 0x0 KECCAK256 PUSH1 0x1 SLOAD SWAP1 DUP1 PUSH1 0x1 DUP2 SLOAD ADD DUP1 DUP3 SSTORE DUP1 SWAP2 POP POP PUSH1 0x1 SWAP1 SUB SWAP1 PUSH1 0x0 MSTORE PUSH1 0x20 PUSH1 0x0 KECCAK256 ADD PUSH1 0x0 SWAP1 SWAP2 SWAP1 SWAP2 SWAP1 SWAP2 POP SSTORE PUSH1 0x1 PUSH1 0x0 DUP2 SLOAD DUP1 SWAP3 SWAP2 SWAP1 PUSH2 0x6C4 SWAP1 PUSH2 0x27C1 JUMP JUMPDEST SWAP2 SWAP1 POP SSTORE POP POP POP POP POP POP POP POP JUMP JUMPDEST PUSH1 0x60 PUSH1 0x0 PUSH1 0x5 PUSH1 0x0 DUP5 PUSH20 0xFFFFFFFFFFFFFFFFFFFFFFFFFFFFFFFFFFFFFFFF AND PUSH20 0xFFFFFFFFFFFFFFFFFFFFFFFFFFFFFFFFFFFFFFFF AND DUP2 MSTORE PUSH1 0x20 ADD SWAP1 DUP2 MSTORE PUSH1 0x20 ADD PUSH1 0x0 KECCAK256 SWAP1 POP PUSH1 0x0 DUP2 DUP1 SLOAD SWAP1 POP PUSH8 0xFFFFFFFFFFFFFFFF DUP2 GT ISZERO PUSH2 0x737 JUMPI PUSH2 0x736 PUSH2 0x24B1 JUMP JUMPDEST JUMPDEST PUSH1 0x40 MLOAD SWAP1 DUP1 DUP3 MSTORE DUP1 PUSH1 0x20 MUL PUSH1 0x20 ADD DUP3 ADD PUSH1 0x40 MSTORE DUP1 ISZERO PUSH2 0x770 JUMPI DUP2 PUSH1 0x20 ADD JUMPDEST PUSH2 0x75D PUSH2 0x1B55 JUMP JUMPDEST DUP2 MSTORE PUSH1 0x20 ADD SWAP1 PUSH1 0x1 SWAP1 SUB SWAP1 DUP2 PUSH2 0x755 JUMPI SWAP1 POP JUMPDEST POP SWAP1 POP PUSH1 0x0 JUMPDEST DUP3 DUP1 SLOAD SWAP1 POP DUP2 LT ISZERO PUSH2 0x868 JUMPI PUSH1 0x0 DUP4 DUP3 DUP2 SLOAD DUP2 LT PUSH2 0x797 JUMPI PUSH2 0x796 PUSH2 0x2809 JUMP JUMPDEST JUMPDEST SWAP1 PUSH1 0x0 MSTORE PUSH1 0x20 PUSH1 0x0 KECCAK256 ADD SLOAD SWAP1 POP PUSH1 0x2 PUSH1 0x0 DUP3 DUP2 MSTORE PUSH1 0x20 ADD SWAP1 DUP2 MSTORE PUSH1 0x20 ADD PUSH1 0x0 KECCAK256 PUSH1 0x40 MLOAD DUP1 PUSH1 0x80 ADD PUSH1 0x40 MSTORE SWAP1 DUP2 PUSH1 0x0 DUP3 ADD SLOAD DUP2 MSTORE PUSH1 0x20 ADD PUSH1 0x1 DUP3 ADD SLOAD DUP2 MSTORE PUSH1 0x20 ADD PUSH1 0x2 DUP3 ADD PUSH1 0x0 SWAP1 SLOAD SWAP1 PUSH2 0x100 EXP SWAP1 DIV PUSH20 0xFFFFFFFFFFFFFFFFFFFFFFFFFFFFFFFFFFFFFFFF AND PUSH20 0xFFFFFFFFFFFFFFFFFFFFFFFFFFFFFFFFFFFFFFFF AND PUSH20 0xFFFFFFFFFFFFFFFFFFFFFFFFFFFFFFFFFFFFFFFF AND DUP2 MSTORE PUSH1 0x20 ADD PUSH1 0x3 DUP3 ADD SLOAD DUP2 MSTORE POP POP DUP4 DUP4 DUP2 MLOAD DUP2 LT PUSH2 0x849 JUMPI PUSH2 0x848 PUSH2 0x2809 JUMP JUMPDEST JUMPDEST PUSH1 0x20 MUL PUSH1 0x20 ADD ADD DUP2 SWAP1 MSTORE POP POP DUP1 DUP1 PUSH2 0x860 SWAP1 PUSH2 0x27C1 JUMP JUMPDEST SWAP2 POP POP PUSH2 0x776 JUMP JUMPDEST POP DUP1 SWAP3 POP POP POP SWAP2 SWAP1 POP JUMP JUMPDEST PUSH1 0x2 PUSH1 0x20 MSTORE DUP1 PUSH1 0x0 MSTORE PUSH1 0x40 PUSH1 0x0 KECCAK256 PUSH1 0x0 SWAP2 POP SWAP1 POP DUP1 PUSH1 0x0 ADD SLOAD SWAP1 DUP1 PUSH1 0x1 ADD SLOAD SWAP1 DUP1 PUSH1 0x2 ADD PUSH1 0x0 SWAP1 SLOAD SWAP1 PUSH2 0x100 EXP SWAP1 DIV PUSH20 0xFFFFFFFFFFFFFFFFFFFFFFFFFFFFFFFFFFFFFFFF AND SWAP1 DUP1 PUSH1 0x3 ADD SLOAD SWAP1 POP DUP5 JUMP JUMPDEST DUP1 PUSH1 0x0 DUP2 GT DUP1 ISZERO PUSH2 0x8D5 JUMPI POP PUSH1 0x1 SLOAD DUP2 LT JUMPDEST PUSH2 0x914 JUMPI PUSH1 0x40 MLOAD PUSH32 0x8C379A000000000000000000000000000000000000000000000000000000000 DUP2 MSTORE PUSH1 0x4 ADD PUSH2 0x90B SWAP1 PUSH2 0x2884 JUMP JUMPDEST PUSH1 0x40 MLOAD DUP1 SWAP2 SUB SWAP1 REVERT JUMPDEST PUSH1 0x0 DUP1 PUSH1 0x0 DUP5 DUP2 MSTORE PUSH1 0x20 ADD SWAP1 DUP2 MSTORE PUSH1 0x20 ADD PUSH1 0x0 KECCAK256 SWAP1 POP PUSH1 0x0 JUMPDEST DUP2 PUSH1 0x7 ADD DUP1 SLOAD SWAP1 POP DUP2 LT ISZERO PUSH2 0xB8B JUMPI PUSH1 0x0 DUP3 PUSH1 0x7 ADD DUP3 DUP2 SLOAD DUP2 LT PUSH2 0x954 JUMPI PUSH2 0x953 PUSH2 0x2809 JUMP JUMPDEST JUMPDEST SWAP1 PUSH1 0x0 MSTORE PUSH1 0x20 PUSH1 0x0 KECCAK256 ADD SLOAD SWAP1 POP PUSH1 0x0 PUSH1 0x2 PUSH1 0x0 DUP4 DUP2 MSTORE PUSH1 0x20 ADD SWAP1 DUP2 MSTORE PUSH1 0x20 ADD PUSH1 0x0 KECCAK256 SWAP1 POP DUP1 PUSH1 0x2 ADD PUSH1 0x0 SWAP1 SLOAD SWAP1 PUSH2 0x100 EXP SWAP1 DIV PUSH20 0xFFFFFFFFFFFFFFFFFFFFFFFFFFFFFFFFFFFFFFFF AND PUSH20 0xFFFFFFFFFFFFFFFFFFFFFFFFFFFFFFFFFFFFFFFF AND PUSH2 0x8FC DUP3 PUSH1 0x3 ADD SLOAD SWAP1 DUP2 ISZERO MUL SWAP1 PUSH1 0x40 MLOAD PUSH1 0x0 PUSH1 0x40 MLOAD DUP1 DUP4 SUB DUP2 DUP6 DUP9 DUP9 CALL SWAP4 POP POP POP POP ISZERO DUP1 ISZERO PUSH2 0x9E6 JUMPI RETURNDATASIZE PUSH1 0x0 DUP1 RETURNDATACOPY RETURNDATASIZE PUSH1 0x0 REVERT JUMPDEST POP PUSH1 0x0 JUMPDEST PUSH1 0x5 PUSH1 0x0 DUP4 PUSH1 0x2 ADD PUSH1 0x0 SWAP1 SLOAD SWAP1 PUSH2 0x100 EXP SWAP1 DIV PUSH20 0xFFFFFFFFFFFFFFFFFFFFFFFFFFFFFFFFFFFFFFFF AND PUSH20 0xFFFFFFFFFFFFFFFFFFFFFFFFFFFFFFFFFFFFFFFF AND PUSH20 0xFFFFFFFFFFFFFFFFFFFFFFFFFFFFFFFFFFFFFFFF AND DUP2 MSTORE PUSH1 0x20 ADD SWAP1 DUP2 MSTORE PUSH1 0x20 ADD PUSH1 0x0 KECCAK256 DUP1 SLOAD SWAP1 POP DUP2 LT ISZERO PUSH2 0xB75 JUMPI DUP3 PUSH1 0x5 PUSH1 0x0 DUP5 PUSH1 0x2 ADD PUSH1 0x0 SWAP1 SLOAD SWAP1 PUSH2 0x100 EXP SWAP1 DIV PUSH20 0xFFFFFFFFFFFFFFFFFFFFFFFFFFFFFFFFFFFFFFFF AND PUSH20 0xFFFFFFFFFFFFFFFFFFFFFFFFFFFFFFFFFFFFFFFF AND PUSH20 0xFFFFFFFFFFFFFFFFFFFFFFFFFFFFFFFFFFFFFFFF AND DUP2 MSTORE PUSH1 0x20 ADD SWAP1 DUP2 MSTORE PUSH1 0x20 ADD PUSH1 0x0 KECCAK256 DUP3 DUP2 SLOAD DUP2 LT PUSH2 0xACE JUMPI PUSH2 0xACD PUSH2 0x2809 JUMP JUMPDEST JUMPDEST SWAP1 PUSH1 0x0 MSTORE PUSH1 0x20 PUSH1 0x0 KECCAK256 ADD SLOAD SUB PUSH2 0xB62 JUMPI PUSH1 0x5 PUSH1 0x0 DUP4 PUSH1 0x2 ADD PUSH1 0x0 SWAP1 SLOAD SWAP1 PUSH2 0x100 EXP SWAP1 DIV PUSH20 0xFFFFFFFFFFFFFFFFFFFFFFFFFFFFFFFFFFFFFFFF AND PUSH20 0xFFFFFFFFFFFFFFFFFFFFFFFFFFFFFFFFFFFFFFFF AND PUSH20 0xFFFFFFFFFFFFFFFFFFFFFFFFFFFFFFFFFFFFFFFF AND DUP2 MSTORE PUSH1 0x20 ADD SWAP1 DUP2 MSTORE PUSH1 0x20 ADD PUSH1 0x0 KECCAK256 DUP2 DUP2 SLOAD DUP2 LT PUSH2 0xB53 JUMPI PUSH2 0xB52 PUSH2 0x2809 JUMP JUMPDEST JUMPDEST SWAP1 PUSH1 0x0 MSTORE PUSH1 0x20 PUSH1 0x0 KECCAK256 ADD PUSH1 0x0 SWAP1 SSTORE JUMPDEST DUP1 DUP1 PUSH2 0xB6D SWAP1 PUSH2 0x27C1 JUMP JUMPDEST SWAP2 POP POP PUSH2 0x9EA JUMP JUMPDEST POP POP POP DUP1 DUP1 PUSH2 0xB83 SWAP1 PUSH2 0x27C1 JUMP JUMPDEST SWAP2 POP POP PUSH2 0x92D JUMP JUMPDEST POP PUSH1 0x0 JUMPDEST PUSH1 0x4 PUSH1 0x0 DUP4 PUSH1 0x1 ADD PUSH1 0x0 SWAP1 SLOAD SWAP1 PUSH2 0x100 EXP SWAP1 DIV PUSH20 0xFFFFFFFFFFFFFFFFFFFFFFFFFFFFFFFFFFFFFFFF AND PUSH20 0xFFFFFFFFFFFFFFFFFFFFFFFFFFFFFFFFFFFFFFFF AND PUSH20 0xFFFFFFFFFFFFFFFFFFFFFFFFFFFFFFFFFFFFFFFF AND DUP2 MSTORE PUSH1 0x20 ADD SWAP1 DUP2 MSTORE PUSH1 0x20 ADD PUSH1 0x0 KECCAK256 DUP1 SLOAD SWAP1 POP DUP2 LT ISZERO PUSH2 0xD1A JUMPI DUP4 PUSH1 0x4 PUSH1 0x0 DUP5 PUSH1 0x1 ADD PUSH1 0x0 SWAP1 SLOAD SWAP1 PUSH2 0x100 EXP SWAP1 DIV PUSH20 0xFFFFFFFFFFFFFFFFFFFFFFFFFFFFFFFFFFFFFFFF AND PUSH20 0xFFFFFFFFFFFFFFFFFFFFFFFFFFFFFFFFFFFFFFFF AND PUSH20 0xFFFFFFFFFFFFFFFFFFFFFFFFFFFFFFFFFFFFFFFF AND DUP2 MSTORE PUSH1 0x20 ADD SWAP1 DUP2 MSTORE PUSH1 0x20 ADD PUSH1 0x0 KECCAK256 DUP3 DUP2 SLOAD DUP2 LT PUSH2 0xC73 JUMPI PUSH2 0xC72 PUSH2 0x2809 JUMP JUMPDEST JUMPDEST SWAP1 PUSH1 0x0 MSTORE PUSH1 0x20 PUSH1 0x0 KECCAK256 ADD SLOAD SUB PUSH2 0xD07 JUMPI PUSH1 0x4 PUSH1 0x0 DUP4 PUSH1 0x1 ADD PUSH1 0x0 SWAP1 SLOAD SWAP1 PUSH2 0x100 EXP SWAP1 DIV PUSH20 0xFFFFFFFFFFFFFFFFFFFFFFFFFFFFFFFFFFFFFFFF AND PUSH20 0xFFFFFFFFFFFFFFFFFFFFFFFFFFFFFFFFFFFFFFFF AND PUSH20 0xFFFFFFFFFFFFFFFFFFFFFFFFFFFFFFFFFFFFFFFF AND DUP2 MSTORE PUSH1 0x20 ADD SWAP1 DUP2 MSTORE PUSH1 0x20 ADD PUSH1 0x0 KECCAK256 DUP2 DUP2 SLOAD DUP2 LT PUSH2 0xCF8 JUMPI PUSH2 0xCF7 PUSH2 0x2809 JUMP JUMPDEST JUMPDEST SWAP1 PUSH1 0x0 MSTORE PUSH1 0x20 PUSH1 0x0 KECCAK256 ADD PUSH1 0x0 SWAP1 SSTORE JUMPDEST DUP1 DUP1 PUSH2 0xD12 SWAP1 PUSH2 0x27C1 JUMP JUMPDEST SWAP2 POP POP PUSH2 0xB8F JUMP JUMPDEST POP PUSH1 0x0 DUP1 DUP5 DUP2 MSTORE PUSH1 0x20 ADD SWAP1 DUP2 MSTORE PUSH1 0x20 ADD PUSH1 0x0 KECCAK256 PUSH1 0x0 DUP1 DUP3 ADD PUSH1 0x0 SWAP1 SSTORE PUSH1 0x1 DUP3 ADD PUSH1 0x0 PUSH2 0x100 EXP DUP2 SLOAD SWAP1 PUSH20 0xFFFFFFFFFFFFFFFFFFFFFFFFFFFFFFFFFFFFFFFF MUL NOT AND SWAP1 SSTORE PUSH1 0x2 DUP3 ADD PUSH1 0x0 PUSH2 0xD6D SWAP2 SWAP1 PUSH2 0x1B93 JUMP JUMPDEST PUSH1 0x3 DUP3 ADD PUSH1 0x0 PUSH2 0xD7D SWAP2 SWAP1 PUSH2 0x1B93 JUMP JUMPDEST PUSH1 0x4 DUP3 ADD PUSH1 0x0 SWAP1 SSTORE PUSH1 0x5 DUP3 ADD PUSH1 0x0 SWAP1 SSTORE PUSH1 0x6 DUP3 ADD PUSH1 0x0 SWAP1 SSTORE PUSH1 0x7 DUP3 ADD PUSH1 0x0 PUSH2 0xDA5 SWAP2 SWAP1 PUSH2 0x1BD3 JUMP JUMPDEST POP POP POP POP POP JUMP JUMPDEST DUP1 PUSH1 0x0 DUP2 GT DUP1 ISZERO PUSH2 0xDBE JUMPI POP PUSH1 0x1 SLOAD DUP2 LT JUMPDEST PUSH2 0xDFD JUMPI PUSH1 0x40 MLOAD PUSH32 0x8C379A000000000000000000000000000000000000000000000000000000000 DUP2 MSTORE PUSH1 0x4 ADD PUSH2 0xDF4 SWAP1 PUSH2 0x2884 JUMP JUMPDEST PUSH1 0x40 MLOAD DUP1 SWAP2 SUB SWAP1 REVERT JUMPDEST PUSH1 0x0 DUP1 PUSH1 0x0 DUP5 DUP2 MSTORE PUSH1 0x20 ADD SWAP1 DUP2 MSTORE PUSH1 0x20 ADD PUSH1 0x0 KECCAK256 SWAP1 POP DUP1 PUSH1 0x5 ADD SLOAD TIMESTAMP LT PUSH2 0xE59 JUMPI PUSH1 0x40 MLOAD PUSH32 0x8C379A000000000000000000000000000000000000000000000000000000000 DUP2 MSTORE PUSH1 0x4 ADD PUSH2 0xE50 SWAP1 PUSH2 0x28F0 JUMP JUMPDEST PUSH1 0x40 MLOAD DUP1 SWAP2 SUB SWAP1 REVERT JUMPDEST PUSH1 0x0 PUSH1 0x2 PUSH1 0x0 DUP4 PUSH1 0x6 ADD SLOAD DUP2 MSTORE PUSH1 0x20 ADD SWAP1 DUP2 MSTORE PUSH1 0x20 ADD PUSH1 0x0 KECCAK256 SWAP1 POP PUSH1 0x0 CALLVALUE SWAP1 POP PUSH1 0x0 JUMPDEST DUP4 PUSH1 0x7 ADD DUP1 SLOAD SWAP1 POP DUP2 LT ISZERO PUSH2 0xF40 JUMPI PUSH1 0x0 PUSH1 0x2 PUSH1 0x0 DUP7 PUSH1 0x7 ADD DUP5 DUP2 SLOAD DUP2 LT PUSH2 0xEA7 JUMPI PUSH2 0xEA6 PUSH2 0x2809 JUMP JUMPDEST JUMPDEST SWAP1 PUSH1 0x0 MSTORE PUSH1 0x20 PUSH1 0x0 KECCAK256 ADD SLOAD DUP2 MSTORE PUSH1 0x20 ADD SWAP1 DUP2 MSTORE PUSH1 0x20 ADD PUSH1 0x0 KECCAK256 SWAP1 POP CALLER PUSH20 0xFFFFFFFFFFFFFFFFFFFFFFFFFFFFFFFFFFFFFFFF AND DUP2 PUSH1 0x2 ADD PUSH1 0x0 SWAP1 SLOAD SWAP1 PUSH2 0x100 EXP SWAP1 DIV PUSH20 0xFFFFFFFFFFFFFFFFFFFFFFFFFFFFFFFFFFFFFFFF AND PUSH20 0xFFFFFFFFFFFFFFFFFFFFFFFFFFFFFFFFFFFFFFFF AND SUB PUSH2 0xF2C JUMPI DUP1 PUSH1 0x3 ADD SLOAD DUP4 PUSH2 0xF29 SWAP2 SWAP1 PUSH2 0x250F JUMP JUMPDEST SWAP3 POP JUMPDEST POP DUP1 DUP1 PUSH2 0xF38 SWAP1 PUSH2 0x27C1 JUMP JUMPDEST SWAP2 POP POP PUSH2 0xE7C JUMP JUMPDEST POP DUP3 PUSH1 0x4 ADD SLOAD DUP2 LT ISZERO DUP1 ISZERO PUSH2 0xF58 JUMPI POP DUP2 PUSH1 0x3 ADD SLOAD DUP2 GT JUMPDEST PUSH2 0xF97 JUMPI PUSH1 0x40 MLOAD PUSH32 0x8C379A000000000000000000000000000000000000000000000000000000000 DUP2 MSTORE PUSH1 0x4 ADD PUSH2 0xF8E SWAP1 PUSH2 0x29A8 JUMP JUMPDEST PUSH1 0x40 MLOAD DUP1 SWAP2 SUB SWAP1 REVERT JUMPDEST PUSH1 0x3 SLOAD DUP4 PUSH1 0x6 ADD DUP2 SWAP1 SSTORE POP PUSH1 0x40 MLOAD DUP1 PUSH1 0x80 ADD PUSH1 0x40 MSTORE DUP1 PUSH1 0x3 SLOAD DUP2 MSTORE PUSH1 0x20 ADD DUP7 DUP2 MSTORE PUSH1 0x20 ADD CALLER PUSH20 0xFFFFFFFFFFFFFFFFFFFFFFFFFFFFFFFFFFFFFFFF AND DUP2 MSTORE PUSH1 0x20 ADD DUP3 DUP2 MSTORE POP PUSH1 0x2 PUSH1 0x0 PUSH1 0x3 SLOAD DUP2 MSTORE PUSH1 0x20 ADD SWAP1 DUP2 MSTORE PUSH1 0x20 ADD PUSH1 0x0 KECCAK256 PUSH1 0x0 DUP3 ADD MLOAD DUP2 PUSH1 0x0 ADD SSTORE PUSH1 0x20 DUP3 ADD MLOAD DUP2 PUSH1 0x1 ADD SSTORE PUSH1 0x40 DUP3 ADD MLOAD DUP2 PUSH1 0x2 ADD PUSH1 0x0 PUSH2 0x100 EXP DUP2 SLOAD DUP2 PUSH20 0xFFFFFFFFFFFFFFFFFFFFFFFFFFFFFFFFFFFFFFFF MUL NOT AND SWAP1 DUP4 PUSH20 0xFFFFFFFFFFFFFFFFFFFFFFFFFFFFFFFFFFFFFFFF AND MUL OR SWAP1 SSTORE POP PUSH1 0x60 DUP3 ADD MLOAD DUP2 PUSH1 0x3 ADD SSTORE SWAP1 POP POP DUP3 PUSH1 0x7 ADD PUSH1 0x3 SLOAD SWAP1 DUP1 PUSH1 0x1 DUP2 SLOAD ADD DUP1 DUP3 SSTORE DUP1 SWAP2 POP POP PUSH1 0x1 SWAP1 SUB SWAP1 PUSH1 0x0 MSTORE PUSH1 0x20 PUSH1 0x0 KECCAK256 ADD PUSH1 0x0 SWAP1 SWAP2 SWAP1 SWAP2 SWAP1 SWAP2 POP SSTORE PUSH1 0x1 DUP2 PUSH2 0x1092 SWAP2 SWAP1 PUSH2 0x250F JUMP JUMPDEST DUP4 PUSH1 0x4 ADD DUP2 SWAP1 SSTORE POP PUSH1 0x5 PUSH1 0x0 CALLER PUSH20 0xFFFFFFFFFFFFFFFFFFFFFFFFFFFFFFFFFFFFFFFF AND PUSH20 0xFFFFFFFFFFFFFFFFFFFFFFFFFFFFFFFFFFFFFFFF AND DUP2 MSTORE PUSH1 0x20 ADD SWAP1 DUP2 MSTORE PUSH1 0x20 ADD PUSH1 0x0 KECCAK256 PUSH1 0x3 SLOAD SWAP1 DUP1 PUSH1 0x1 DUP2 SLOAD ADD DUP1 DUP3 SSTORE DUP1 SWAP2 POP POP PUSH1 0x1 SWAP1 SUB SWAP1 PUSH1 0x0 MSTORE PUSH1 0x20 PUSH1 0x0 KECCAK256 ADD PUSH1 0x0 SWAP1 SWAP2 SWAP1 SWAP2 SWAP1 SWAP2 POP SSTORE PUSH1 0x3 PUSH1 0x0 DUP2 SLOAD DUP1 SWAP3 SWAP2 SWAP1 PUSH2 0x1115 SWAP1 PUSH2 0x27C1 JUMP JUMPDEST SWAP2 SWAP1 POP SSTORE POP POP POP POP POP POP JUMP JUMPDEST PUSH1 0x60 DUP2 PUSH1 0x0 DUP2 GT DUP1 ISZERO PUSH2 0x1135 JUMPI POP PUSH1 0x1 SLOAD DUP2 LT JUMPDEST PUSH2 0x1174 JUMPI PUSH1 0x40 MLOAD PUSH32 0x8C379A000000000000000000000000000000000000000000000000000000000 DUP2 MSTORE PUSH1 0x4 ADD PUSH2 0x116B SWAP1 PUSH2 0x2884 JUMP JUMPDEST PUSH1 0x40 MLOAD DUP1 SWAP2 SUB SWAP1 REVERT JUMPDEST PUSH1 0x0 DUP1 PUSH1 0x0 DUP6 DUP2 MSTORE PUSH1 0x20 ADD SWAP1 DUP2 MSTORE PUSH1 0x20 ADD PUSH1 0x0 KECCAK256 SWAP1 POP PUSH1 0x0 DUP2 PUSH1 0x7 ADD SWAP1 POP PUSH1 0x0 DUP2 DUP1 SLOAD SWAP1 POP PUSH8 0xFFFFFFFFFFFFFFFF DUP2 GT ISZERO PUSH2 0x11B2 JUMPI PUSH2 0x11B1 PUSH2 0x24B1 JUMP JUMPDEST JUMPDEST PUSH1 0x40 MLOAD SWAP1 DUP1 DUP3 MSTORE DUP1 PUSH1 0x20 MUL PUSH1 0x20 ADD DUP3 ADD PUSH1 0x40 MSTORE DUP1 ISZERO PUSH2 0x11EB JUMPI DUP2 PUSH1 0x20 ADD JUMPDEST PUSH2 0x11D8 PUSH2 0x1B55 JUMP JUMPDEST DUP2 MSTORE PUSH1 0x20 ADD SWAP1 PUSH1 0x1 SWAP1 SUB SWAP1 DUP2 PUSH2 0x11D0 JUMPI SWAP1 POP JUMPDEST POP SWAP1 POP PUSH1 0x0 JUMPDEST DUP3 DUP1 SLOAD SWAP1 POP DUP2 LT ISZERO PUSH2 0x12E3 JUMPI PUSH1 0x0 DUP4 DUP3 DUP2 SLOAD DUP2 LT PUSH2 0x1212 JUMPI PUSH2 0x1211 PUSH2 0x2809 JUMP JUMPDEST JUMPDEST SWAP1 PUSH1 0x0 MSTORE PUSH1 0x20 PUSH1 0x0 KECCAK256 ADD SLOAD SWAP1 POP PUSH1 0x2 PUSH1 0x0 DUP3 DUP2 MSTORE PUSH1 0x20 ADD SWAP1 DUP2 MSTORE PUSH1 0x20 ADD PUSH1 0x0 KECCAK256 PUSH1 0x40 MLOAD DUP1 PUSH1 0x80 ADD PUSH1 0x40 MSTORE SWAP1 DUP2 PUSH1 0x0 DUP3 ADD SLOAD DUP2 MSTORE PUSH1 0x20 ADD PUSH1 0x1 DUP3 ADD SLOAD DUP2 MSTORE PUSH1 0x20 ADD PUSH1 0x2 DUP3 ADD PUSH1 0x0 SWAP1 SLOAD SWAP1 PUSH2 0x100 EXP SWAP1 DIV PUSH20 0xFFFFFFFFFFFFFFFFFFFFFFFFFFFFFFFFFFFFFFFF AND PUSH20 0xFFFFFFFFFFFFFFFFFFFFFFFFFFFFFFFFFFFFFFFF AND PUSH20 0xFFFFFFFFFFFFFFFFFFFFFFFFFFFFFFFFFFFFFFFF AND DUP2 MSTORE PUSH1 0x20 ADD PUSH1 0x3 DUP3 ADD SLOAD DUP2 MSTORE POP POP DUP4 DUP4 DUP2 MLOAD DUP2 LT PUSH2 0x12C4 JUMPI PUSH2 0x12C3 PUSH2 0x2809 JUMP JUMPDEST JUMPDEST PUSH1 0x20 MUL PUSH1 0x20 ADD ADD DUP2 SWAP1 MSTORE POP POP DUP1 DUP1 PUSH2 0x12DB SWAP1 PUSH2 0x27C1 JUMP JUMPDEST SWAP2 POP POP PUSH2 0x11F1 JUMP JUMPDEST POP DUP1 SWAP5 POP POP POP POP POP SWAP2 SWAP1 POP JUMP JUMPDEST PUSH1 0x60 PUSH1 0x0 PUSH1 0x1 DUP1 SLOAD PUSH2 0x1302 SWAP2 SWAP1 PUSH2 0x29C8 JUMP JUMPDEST PUSH8 0xFFFFFFFFFFFFFFFF DUP2 GT ISZERO PUSH2 0x131B JUMPI PUSH2 0x131A PUSH2 0x24B1 JUMP JUMPDEST JUMPDEST PUSH1 0x40 MLOAD SWAP1 DUP1 DUP3 MSTORE DUP1 PUSH1 0x20 MUL PUSH1 0x20 ADD DUP3 ADD PUSH1 0x40 MSTORE DUP1 ISZERO PUSH2 0x1354 JUMPI DUP2 PUSH1 0x20 ADD JUMPDEST PUSH2 0x1341 PUSH2 0x1BF4 JUMP JUMPDEST DUP2 MSTORE PUSH1 0x20 ADD SWAP1 PUSH1 0x1 SWAP1 SUB SWAP1 DUP2 PUSH2 0x1339 JUMPI SWAP1 POP JUMPDEST POP SWAP1 POP PUSH1 0x0 PUSH1 0x1 SWAP1 POP JUMPDEST PUSH1 0x1 SLOAD DUP2 LT ISZERO PUSH2 0x15BD JUMPI PUSH1 0x0 DUP1 DUP3 DUP2 MSTORE PUSH1 0x20 ADD SWAP1 DUP2 MSTORE PUSH1 0x20 ADD PUSH1 0x0 KECCAK256 PUSH1 0x40 MLOAD DUP1 PUSH2 0x100 ADD PUSH1 0x40 MSTORE SWAP1 DUP2 PUSH1 0x0 DUP3 ADD SLOAD DUP2 MSTORE PUSH1 0x20 ADD PUSH1 0x1 DUP3 ADD PUSH1 0x0 SWAP1 SLOAD SWAP1 PUSH2 0x100 EXP SWAP1 DIV PUSH20 0xFFFFFFFFFFFFFFFFFFFFFFFFFFFFFFFFFFFFFFFF AND PUSH20 0xFFFFFFFFFFFFFFFFFFFFFFFFFFFFFFFFFFFFFFFF AND PUSH20 0xFFFFFFFFFFFFFFFFFFFFFFFFFFFFFFFFFFFFFFFF AND DUP2 MSTORE PUSH1 0x20 ADD PUSH1 0x2 DUP3 ADD DUP1 SLOAD PUSH2 0x13F6 SWAP1 PUSH2 0x23EE JUMP JUMPDEST DUP1 PUSH1 0x1F ADD PUSH1 0x20 DUP1 SWAP2 DIV MUL PUSH1 0x20 ADD PUSH1 0x40 MLOAD SWAP1 DUP2 ADD PUSH1 0x40 MSTORE DUP1 SWAP3 SWAP2 SWAP1 DUP2 DUP2 MSTORE PUSH1 0x20 ADD DUP3 DUP1 SLOAD PUSH2 0x1422 SWAP1 PUSH2 0x23EE JUMP JUMPDEST DUP1 ISZERO PUSH2 0x146F JUMPI DUP1 PUSH1 0x1F LT PUSH2 0x1444 JUMPI PUSH2 0x100 DUP1 DUP4 SLOAD DIV MUL DUP4 MSTORE SWAP2 PUSH1 0x20 ADD SWAP2 PUSH2 0x146F JUMP JUMPDEST DUP3 ADD SWAP2 SWAP1 PUSH1 0x0 MSTORE PUSH1 0x20 PUSH1 0x0 KECCAK256 SWAP1 JUMPDEST DUP2 SLOAD DUP2 MSTORE SWAP1 PUSH1 0x1 ADD SWAP1 PUSH1 0x20 ADD DUP1 DUP4 GT PUSH2 0x1452 JUMPI DUP3 SWAP1 SUB PUSH1 0x1F AND DUP3 ADD SWAP2 JUMPDEST POP POP POP POP POP DUP2 MSTORE PUSH1 0x20 ADD PUSH1 0x3 DUP3 ADD DUP1 SLOAD PUSH2 0x1488 SWAP1 PUSH2 0x23EE JUMP JUMPDEST DUP1 PUSH1 0x1F ADD PUSH1 0x20 DUP1 SWAP2 DIV MUL PUSH1 0x20 ADD PUSH1 0x40 MLOAD SWAP1 DUP2 ADD PUSH1 0x40 MSTORE DUP1 SWAP3 SWAP2 SWAP1 DUP2 DUP2 MSTORE PUSH1 0x20 ADD DUP3 DUP1 SLOAD PUSH2 0x14B4 SWAP1 PUSH2 0x23EE JUMP JUMPDEST DUP1 ISZERO PUSH2 0x1501 JUMPI DUP1 PUSH1 0x1F LT PUSH2 0x14D6 JUMPI PUSH2 0x100 DUP1 DUP4 SLOAD DIV MUL DUP4 MSTORE SWAP2 PUSH1 0x20 ADD SWAP2 PUSH2 0x1501 JUMP JUMPDEST DUP3 ADD SWAP2 SWAP1 PUSH1 0x0 MSTORE PUSH1 0x20 PUSH1 0x0 KECCAK256 SWAP1 JUMPDEST DUP2 SLOAD DUP2 MSTORE SWAP1 PUSH1 0x1 ADD SWAP1 PUSH1 0x20 ADD DUP1 DUP4 GT PUSH2 0x14E4 JUMPI DUP3 SWAP1 SUB PUSH1 0x1F AND DUP3 ADD SWAP2 JUMPDEST POP POP POP POP POP DUP2 MSTORE PUSH1 0x20 ADD PUSH1 0x4 DUP3 ADD SLOAD DUP2 MSTORE PUSH1 0x20 ADD PUSH1 0x5 DUP3 ADD SLOAD DUP2 MSTORE PUSH1 0x20 ADD PUSH1 0x6 DUP3 ADD SLOAD DUP2 MSTORE PUSH1 0x20 ADD PUSH1 0x7 DUP3 ADD DUP1 SLOAD DUP1 PUSH1 0x20 MUL PUSH1 0x20 ADD PUSH1 0x40 MLOAD SWAP1 DUP2 ADD PUSH1 0x40 MSTORE DUP1 SWAP3 SWAP2 SWAP1 DUP2 DUP2 MSTORE PUSH1 0x20 ADD DUP3 DUP1 SLOAD DUP1 ISZERO PUSH2 0x1577 JUMPI PUSH1 0x20 MUL DUP3 ADD SWAP2 SWAP1 PUSH1 0x0 MSTORE PUSH1 0x20 PUSH1 0x0 KECCAK256 SWAP1 JUMPDEST DUP2 SLOAD DUP2 MSTORE PUSH1 0x20 ADD SWAP1 PUSH1 0x1 ADD SWAP1 DUP1 DUP4 GT PUSH2 0x1563 JUMPI JUMPDEST POP POP POP POP POP DUP2 MSTORE POP POP DUP3 PUSH1 0x1 DUP4 PUSH2 0x158E SWAP2 SWAP1 PUSH2 0x29C8 JUMP JUMPDEST DUP2 MLOAD DUP2 LT PUSH2 0x159F JUMPI PUSH2 0x159E PUSH2 0x2809 JUMP JUMPDEST JUMPDEST PUSH1 0x20 MUL PUSH1 0x20 ADD ADD DUP2 SWAP1 MSTORE POP DUP1 DUP1 PUSH2 0x15B5 SWAP1 PUSH2 0x27C1 JUMP JUMPDEST SWAP2 POP POP PUSH2 0x135E JUMP JUMPDEST POP DUP1 SWAP2 POP POP SWAP1 JUMP JUMPDEST DUP1 PUSH1 0x0 DUP2 GT DUP1 ISZERO PUSH2 0x15D7 JUMPI POP PUSH1 0x1 SLOAD DUP2 LT JUMPDEST PUSH2 0x1616 JUMPI PUSH1 0x40 MLOAD PUSH32 0x8C379A000000000000000000000000000000000000000000000000000000000 DUP2 MSTORE PUSH1 0x4 ADD PUSH2 0x160D SWAP1 PUSH2 0x2884 JUMP JUMPDEST PUSH1 0x40 MLOAD DUP1 SWAP2 SUB SWAP1 REVERT JUMPDEST PUSH1 0x0 DUP1 PUSH1 0x0 DUP5 DUP2 MSTORE PUSH1 0x20 ADD SWAP1 DUP2 MSTORE PUSH1 0x20 ADD PUSH1 0x0 KECCAK256 SWAP1 POP PUSH1 0x0 PUSH1 0x2 PUSH1 0x0 DUP4 PUSH1 0x6 ADD SLOAD DUP2 MSTORE PUSH1 0x20 ADD SWAP1 DUP2 MSTORE PUSH1 0x20 ADD PUSH1 0x0 KECCAK256 SWAP1 POP DUP2 PUSH1 0x5 ADD SLOAD TIMESTAMP GT PUSH2 0x168D JUMPI PUSH1 0x40 MLOAD PUSH32 0x8C379A000000000000000000000000000000000000000000000000000000000 DUP2 MSTORE PUSH1 0x4 ADD PUSH2 0x1684 SWAP1 PUSH2 0x2A48 JUMP JUMPDEST PUSH1 0x40 MLOAD DUP1 SWAP2 SUB SWAP1 REVERT JUMPDEST PUSH1 0x0 JUMPDEST DUP3 PUSH1 0x7 ADD DUP1 SLOAD SWAP1 POP DUP2 LT ISZERO PUSH2 0x176B JUMPI PUSH1 0x0 DUP4 PUSH1 0x7 ADD DUP3 DUP2 SLOAD DUP2 LT PUSH2 0x16B7 JUMPI PUSH2 0x16B6 PUSH2 0x2809 JUMP JUMPDEST JUMPDEST SWAP1 PUSH1 0x0 MSTORE PUSH1 0x20 PUSH1 0x0 KECCAK256 ADD SLOAD SWAP1 POP PUSH1 0x0 PUSH1 0x2 PUSH1 0x0 DUP4 DUP2 MSTORE PUSH1 0x20 ADD SWAP1 DUP2 MSTORE PUSH1 0x20 ADD PUSH1 0x0 KECCAK256 SWAP1 POP DUP4 PUSH1 0x0 ADD SLOAD DUP3 EQ PUSH2 0x1756 JUMPI DUP1 PUSH1 0x2 ADD PUSH1 0x0 SWAP1 SLOAD SWAP1 PUSH2 0x100 EXP SWAP1 DIV PUSH20 0xFFFFFFFFFFFFFFFFFFFFFFFFFFFFFFFFFFFFFFFF AND PUSH20 0xFFFFFFFFFFFFFFFFFFFFFFFFFFFFFFFFFFFFFFFF AND PUSH2 0x8FC DUP3 PUSH1 0x3 ADD SLOAD SWAP1 DUP2 ISZERO MUL SWAP1 PUSH1 0x40 MLOAD PUSH1 0x0 PUSH1 0x40 MLOAD DUP1 DUP4 SUB DUP2 DUP6 DUP9 DUP9 CALL SWAP4 POP POP POP POP ISZERO DUP1 ISZERO PUSH2 0x1754 JUMPI RETURNDATASIZE PUSH1 0x0 DUP1 RETURNDATACOPY RETURNDATASIZE PUSH1 0x0 REVERT JUMPDEST POP JUMPDEST POP POP DUP1 DUP1 PUSH2 0x1763 SWAP1 PUSH2 0x27C1 JUMP JUMPDEST SWAP2 POP POP PUSH2 0x1690 JUMP JUMPDEST POP DUP2 PUSH1 0x1 ADD PUSH1 0x0 SWAP1 SLOAD SWAP1 PUSH2 0x100 EXP SWAP1 DIV PUSH20 0xFFFFFFFFFFFFFFFFFFFFFFFFFFFFFFFFFFFFFFFF AND PUSH20 0xFFFFFFFFFFFFFFFFFFFFFFFFFFFFFFFFFFFFFFFF AND PUSH2 0x8FC DUP3 PUSH1 0x3 ADD SLOAD SWAP1 DUP2 ISZERO MUL SWAP1 PUSH1 0x40 MLOAD PUSH1 0x0 PUSH1 0x40 MLOAD DUP1 DUP4 SUB DUP2 DUP6 DUP9 DUP9 CALL SWAP4 POP POP POP POP ISZERO DUP1 ISZERO PUSH2 0x17DA JUMPI RETURNDATASIZE PUSH1 0x0 DUP1 RETURNDATACOPY RETURNDATASIZE PUSH1 0x0 REVERT JUMPDEST POP POP POP POP POP JUMP JUMPDEST PUSH1 0x60 PUSH1 0x0 PUSH1 0x4 PUSH1 0x0 DUP5 PUSH20 0xFFFFFFFFFFFFFFFFFFFFFFFFFFFFFFFFFFFFFFFF AND PUSH20 0xFFFFFFFFFFFFFFFFFFFFFFFFFFFFFFFFFFFFFFFF AND DUP2 MSTORE PUSH1 0x20 ADD SWAP1 DUP2 MSTORE PUSH1 0x20 ADD PUSH1 0x0 KECCAK256 SWAP1 POP PUSH1 0x0 DUP2 DUP1 SLOAD SWAP1 POP PUSH8 0xFFFFFFFFFFFFFFFF DUP2 GT ISZERO PUSH2 0x1846 JUMPI PUSH2 0x1845 PUSH2 0x24B1 JUMP JUMPDEST JUMPDEST PUSH1 0x40 MLOAD SWAP1 DUP1 DUP3 MSTORE DUP1 PUSH1 0x20 MUL PUSH1 0x20 ADD DUP3 ADD PUSH1 0x40 MSTORE DUP1 ISZERO PUSH2 0x187F JUMPI DUP2 PUSH1 0x20 ADD JUMPDEST PUSH2 0x186C PUSH2 0x1BF4 JUMP JUMPDEST DUP2 MSTORE PUSH1 0x20 ADD SWAP1 PUSH1 0x1 SWAP1 SUB SWAP1 DUP2 PUSH2 0x1864 JUMPI SWAP1 POP JUMPDEST POP SWAP1 POP PUSH1 0x0 JUMPDEST DUP3 DUP1 SLOAD SWAP1 POP DUP2 LT ISZERO PUSH2 0x1AFD JUMPI PUSH1 0x0 DUP4 DUP3 DUP2 SLOAD DUP2 LT PUSH2 0x18A6 JUMPI PUSH2 0x18A5 PUSH2 0x2809 JUMP JUMPDEST JUMPDEST SWAP1 PUSH1 0x0 MSTORE PUSH1 0x20 PUSH1 0x0 KECCAK256 ADD SLOAD SWAP1 POP PUSH1 0x0 DUP1 DUP3 DUP2 MSTORE PUSH1 0x20 ADD SWAP1 DUP2 MSTORE PUSH1 0x20 ADD PUSH1 0x0 KECCAK256 PUSH1 0x40 MLOAD DUP1 PUSH2 0x100 ADD PUSH1 0x40 MSTORE SWAP1 DUP2 PUSH1 0x0 DUP3 ADD SLOAD DUP2 MSTORE PUSH1 0x20 ADD PUSH1 0x1 DUP3 ADD PUSH1 0x0 SWAP1 SLOAD SWAP1 PUSH2 0x100 EXP SWAP1 DIV PUSH20 0xFFFFFFFFFFFFFFFFFFFFFFFFFFFFFFFFFFFFFFFF AND PUSH20 0xFFFFFFFFFFFFFFFFFFFFFFFFFFFFFFFFFFFFFFFF AND PUSH20 0xFFFFFFFFFFFFFFFFFFFFFFFFFFFFFFFFFFFFFFFF AND DUP2 MSTORE PUSH1 0x20 ADD PUSH1 0x2 DUP3 ADD DUP1 SLOAD PUSH2 0x1941 SWAP1 PUSH2 0x23EE JUMP JUMPDEST DUP1 PUSH1 0x1F ADD PUSH1 0x20 DUP1 SWAP2 DIV MUL PUSH1 0x20 ADD PUSH1 0x40 MLOAD SWAP1 DUP2 ADD PUSH1 0x40 MSTORE DUP1 SWAP3 SWAP2 SWAP1 DUP2 DUP2 MSTORE PUSH1 0x20 ADD DUP3 DUP1 SLOAD PUSH2 0x196D SWAP1 PUSH2 0x23EE JUMP JUMPDEST DUP1 ISZERO PUSH2 0x19BA JUMPI DUP1 PUSH1 0x1F LT PUSH2 0x198F JUMPI PUSH2 0x100 DUP1 DUP4 SLOAD DIV MUL DUP4 MSTORE SWAP2 PUSH1 0x20 ADD SWAP2 PUSH2 0x19BA JUMP JUMPDEST DUP3 ADD SWAP2 SWAP1 PUSH1 0x0 MSTORE PUSH1 0x20 PUSH1 0x0 KECCAK256 SWAP1 JUMPDEST DUP2 SLOAD DUP2 MSTORE SWAP1 PUSH1 0x1 ADD SWAP1 PUSH1 0x20 ADD DUP1 DUP4 GT PUSH2 0x199D JUMPI DUP3 SWAP1 SUB PUSH1 0x1F AND DUP3 ADD SWAP2 JUMPDEST POP POP POP POP POP DUP2 MSTORE PUSH1 0x20 ADD PUSH1 0x3 DUP3 ADD DUP1 SLOAD PUSH2 0x19D3 SWAP1 PUSH2 0x23EE JUMP JUMPDEST DUP1 PUSH1 0x1F ADD PUSH1 0x20 DUP1 SWAP2 DIV MUL PUSH1 0x20 ADD PUSH1 0x40 MLOAD SWAP1 DUP2 ADD PUSH1 0x40 MSTORE DUP1 SWAP3 SWAP2 SWAP1 DUP2 DUP2 MSTORE PUSH1 0x20 ADD DUP3 DUP1 SLOAD PUSH2 0x19FF SWAP1 PUSH2 0x23EE JUMP JUMPDEST DUP1 ISZERO PUSH2 0x1A4C JUMPI DUP1 PUSH1 0x1F LT PUSH2 0x1A21 JUMPI PUSH2 0x100 DUP1 DUP4 SLOAD DIV MUL DUP4 MSTORE SWAP2 PUSH1 0x20 ADD SWAP2 PUSH2 0x1A4C JUMP JUMPDEST DUP3 ADD SWAP2 SWAP1 PUSH1 0x0 MSTORE PUSH1 0x20 PUSH1 0x0 KECCAK256 SWAP1 JUMPDEST DUP2 SLOAD DUP2 MSTORE SWAP1 PUSH1 0x1 ADD SWAP1 PUSH1 0x20 ADD DUP1 DUP4 GT PUSH2 0x1A2F JUMPI DUP3 SWAP1 SUB PUSH1 0x1F AND DUP3 ADD SWAP2 JUMPDEST POP POP POP POP POP DUP2 MSTORE PUSH1 0x20 ADD PUSH1 0x4 DUP3 ADD SLOAD DUP2 MSTORE PUSH1 0x20 ADD PUSH1 0x5 DUP3 ADD SLOAD DUP2 MSTORE PUSH1 0x20 ADD PUSH1 0x6 DUP3 ADD SLOAD DUP2 MSTORE PUSH1 0x20 ADD PUSH1 0x7 DUP3 ADD DUP1 SLOAD DUP1 PUSH1 0x20 MUL PUSH1 0x20 ADD PUSH1 0x40 MLOAD SWAP1 DUP2 ADD PUSH1 0x40 MSTORE DUP1 SWAP3 SWAP2 SWAP1 DUP2 DUP2 MSTORE PUSH1 0x20 ADD DUP3 DUP1 SLOAD DUP1 ISZERO PUSH2 0x1AC2 JUMPI PUSH1 0x20 MUL DUP3 ADD SWAP2 SWAP1 PUSH1 0x0 MSTORE PUSH1 0x20 PUSH1 0x0 KECCAK256 SWAP1 JUMPDEST DUP2 SLOAD DUP2 MSTORE PUSH1 0x20 ADD SWAP1 PUSH1 0x1 ADD SWAP1 DUP1 DUP4 GT PUSH2 0x1AAE JUMPI JUMPDEST POP POP POP POP POP DUP2 MSTORE POP POP DUP4 DUP4 DUP2 MLOAD DUP2 LT PUSH2 0x1ADE JUMPI PUSH2 0x1ADD PUSH2 0x2809 JUMP JUMPDEST JUMPDEST PUSH1 0x20 MUL PUSH1 0x20 ADD ADD DUP2 SWAP1 MSTORE POP POP DUP1 DUP1 PUSH2 0x1AF5 SWAP1 PUSH2 0x27C1 JUMP JUMPDEST SWAP2 POP POP PUSH2 0x1885 JUMP JUMPDEST POP DUP1 SWAP3 POP POP POP SWAP2 SWAP1 POP JUMP JUMPDEST DUP3 DUP1 SLOAD DUP3 DUP3 SSTORE SWAP1 PUSH1 0x0 MSTORE PUSH1 0x20 PUSH1 0x0 KECCAK256 SWAP1 DUP2 ADD SWAP3 DUP3 ISZERO PUSH2 0x1B44 JUMPI SWAP2 PUSH1 0x20 MUL DUP3 ADD JUMPDEST DUP3 DUP2 GT ISZERO PUSH2 0x1B43 JUMPI DUP3 MLOAD DUP3 SSTORE SWAP2 PUSH1 0x20 ADD SWAP2 SWAP1 PUSH1 0x1 ADD SWAP1 PUSH2 0x1B28 JUMP JUMPDEST JUMPDEST POP SWAP1 POP PUSH2 0x1B51 SWAP2 SWAP1 PUSH2 0x1C4F JUMP JUMPDEST POP SWAP1 JUMP JUMPDEST PUSH1 0x40 MLOAD DUP1 PUSH1 0x80 ADD PUSH1 0x40 MSTORE DUP1 PUSH1 0x0 DUP2 MSTORE PUSH1 0x20 ADD PUSH1 0x0 DUP2 MSTORE PUSH1 0x20 ADD PUSH1 0x0 PUSH20 0xFFFFFFFFFFFFFFFFFFFFFFFFFFFFFFFFFFFFFFFF AND DUP2 MSTORE PUSH1 0x20 ADD PUSH1 0x0 DUP2 MSTORE POP SWAP1 JUMP JUMPDEST POP DUP1 SLOAD PUSH2 0x1B9F SWAP1 PUSH2 0x23EE JUMP JUMPDEST PUSH1 0x0 DUP3 SSTORE DUP1 PUSH1 0x1F LT PUSH2 0x1BB1 JUMPI POP PUSH2 0x1BD0 JUMP JUMPDEST PUSH1 0x1F ADD PUSH1 0x20 SWAP1 DIV SWAP1 PUSH1 0x0 MSTORE PUSH1 0x20 PUSH1 0x0 KECCAK256 SWAP1 DUP2 ADD SWAP1 PUSH2 0x1BCF SWAP2 SWAP1 PUSH2 0x1C4F JUMP JUMPDEST JUMPDEST POP JUMP JUMPDEST POP DUP1 SLOAD PUSH1 0x0 DUP3 SSTORE SWAP1 PUSH1 0x0 MSTORE PUSH1 0x20 PUSH1 0x0 KECCAK256 SWAP1 DUP2 ADD SWAP1 PUSH2 0x1BF1 SWAP2 SWAP1 PUSH2 0x1C4F JUMP JUMPDEST POP JUMP JUMPDEST PUSH1 0x40 MLOAD DUP1 PUSH2 0x100 ADD PUSH1 0x40 MSTORE DUP1 PUSH1 0x0 DUP2 MSTORE PUSH1 0x20 ADD PUSH1 0x0 PUSH20 0xFFFFFFFFFFFFFFFFFFFFFFFFFFFFFFFFFFFFFFFF AND DUP2 MSTORE PUSH1 0x20 ADD PUSH1 0x60 DUP2 MSTORE PUSH1 0x20 ADD PUSH1 0x60 DUP2 MSTORE PUSH1 0x20 ADD PUSH1 0x0 DUP2 MSTORE PUSH1 0x20 ADD PUSH1 0x0 DUP2 MSTORE PUSH1 0x20 ADD PUSH1 0x0 DUP2 MSTORE PUSH1 0x20 ADD PUSH1 0x60 DUP2 MSTORE POP SWAP1 JUMP JUMPDEST JUMPDEST DUP1 DUP3 GT ISZERO PUSH2 0x1C68 JUMPI PUSH1 0x0 DUP2 PUSH1 0x0 SWAP1 SSTORE POP PUSH1 0x1 ADD PUSH2 0x1C50 JUMP JUMPDEST POP SWAP1 JUMP JUMPDEST PUSH1 0x0 DUP1 REVERT JUMPDEST PUSH1 0x0 DUP1 REVERT JUMPDEST PUSH1 0x0 DUP2 SWAP1 POP SWAP2 SWAP1 POP JUMP JUMPDEST PUSH2 0x1C89 DUP2 PUSH2 0x1C76 JUMP JUMPDEST DUP2 EQ PUSH2 0x1C94 JUMPI PUSH1 0x0 DUP1 REVERT JUMPDEST POP JUMP JUMPDEST PUSH1 0x0 DUP2 CALLDATALOAD SWAP1 POP PUSH2 0x1CA6 DUP2 PUSH2 0x1C80 JUMP JUMPDEST SWAP3 SWAP2 POP POP JUMP JUMPDEST PUSH1 0x0 PUSH1 0x20 DUP3 DUP5 SUB SLT ISZERO PUSH2 0x1CC2 JUMPI PUSH2 0x1CC1 PUSH2 0x1C6C JUMP JUMPDEST JUMPDEST PUSH1 0x0 PUSH2 0x1CD0 DUP5 DUP3 DUP6 ADD PUSH2 0x1C97 JUMP JUMPDEST SWAP2 POP POP SWAP3 SWAP2 POP POP JUMP JUMPDEST PUSH2 0x1CE2 DUP2 PUSH2 0x1C76 JUMP JUMPDEST DUP3 MSTORE POP POP JUMP JUMPDEST PUSH1 0x0 PUSH20 0xFFFFFFFFFFFFFFFFFFFFFFFFFFFFFFFFFFFFFFFF DUP3 AND SWAP1 POP SWAP2 SWAP1 POP JUMP JUMPDEST PUSH1 0x0 PUSH2 0x1D13 DUP3 PUSH2 0x1CE8 JUMP JUMPDEST SWAP1 POP SWAP2 SWAP1 POP JUMP JUMPDEST PUSH2 0x1D23 DUP2 PUSH2 0x1D08 JUMP JUMPDEST DUP3 MSTORE POP POP JUMP JUMPDEST PUSH1 0x0 DUP2 MLOAD SWAP1 POP SWAP2 SWAP1 POP JUMP JUMPDEST PUSH1 0x0 DUP3 DUP3 MSTORE PUSH1 0x20 DUP3 ADD SWAP1 POP SWAP3 SWAP2 POP POP JUMP JUMPDEST PUSH1 0x0 JUMPDEST DUP4 DUP2 LT ISZERO PUSH2 0x1D63 JUMPI DUP1 DUP3 ADD MLOAD DUP2 DUP5 ADD MSTORE PUSH1 0x20 DUP2 ADD SWAP1 POP PUSH2 0x1D48 JUMP JUMPDEST PUSH1 0x0 DUP5 DUP5 ADD MSTORE POP POP POP POP JUMP JUMPDEST PUSH1 0x0 PUSH1 0x1F NOT PUSH1 0x1F DUP4 ADD AND SWAP1 POP SWAP2 SWAP1 POP JUMP JUMPDEST PUSH1 0x0 PUSH2 0x1D8B DUP3 PUSH2 0x1D29 JUMP JUMPDEST PUSH2 0x1D95 DUP2 DUP6 PUSH2 0x1D34 JUMP JUMPDEST SWAP4 POP PUSH2 0x1DA5 DUP2 DUP6 PUSH1 0x20 DUP7 ADD PUSH2 0x1D45 JUMP JUMPDEST PUSH2 0x1DAE DUP2 PUSH2 0x1D6F JUMP JUMPDEST DUP5 ADD SWAP2 POP POP SWAP3 SWAP2 POP POP JUMP JUMPDEST PUSH1 0x0 PUSH1 0xE0 DUP3 ADD SWAP1 POP PUSH2 0x1DCE PUSH1 0x0 DUP4 ADD DUP11 PUSH2 0x1CD9 JUMP JUMPDEST PUSH2 0x1DDB PUSH1 0x20 DUP4 ADD DUP10 PUSH2 0x1D1A JUMP JUMPDEST DUP2 DUP2 SUB PUSH1 0x40 DUP4 ADD MSTORE PUSH2 0x1DED DUP2 DUP9 PUSH2 0x1D80 JUMP JUMPDEST SWAP1 POP DUP2 DUP2 SUB PUSH1 0x60 DUP4 ADD MSTORE PUSH2 0x1E01 DUP2 DUP8 PUSH2 0x1D80 JUMP JUMPDEST SWAP1 POP PUSH2 0x1E10 PUSH1 0x80 DUP4 ADD DUP7 PUSH2 0x1CD9 JUMP JUMPDEST PUSH2 0x1E1D PUSH1 0xA0 DUP4 ADD DUP6 PUSH2 0x1CD9 JUMP JUMPDEST PUSH2 0x1E2A PUSH1 0xC0 DUP4 ADD DUP5 PUSH2 0x1CD9 JUMP JUMPDEST SWAP9 SWAP8 POP POP POP POP POP POP POP POP JUMP JUMPDEST PUSH1 0x0 DUP1 REVERT JUMPDEST PUSH1 0x0 DUP1 REVERT JUMPDEST PUSH1 0x0 DUP1 REVERT JUMPDEST PUSH1 0x0 DUP1 DUP4 PUSH1 0x1F DUP5 ADD SLT PUSH2 0x1E5B JUMPI PUSH2 0x1E5A PUSH2 0x1E36 JUMP JUMPDEST JUMPDEST DUP3 CALLDATALOAD SWAP1 POP PUSH8 0xFFFFFFFFFFFFFFFF DUP2 GT ISZERO PUSH2 0x1E78 JUMPI PUSH2 0x1E77 PUSH2 0x1E3B JUMP JUMPDEST JUMPDEST PUSH1 0x20 DUP4 ADD SWAP2 POP DUP4 PUSH1 0x1 DUP3 MUL DUP4 ADD GT ISZERO PUSH2 0x1E94 JUMPI PUSH2 0x1E93 PUSH2 0x1E40 JUMP JUMPDEST JUMPDEST SWAP3 POP SWAP3 SWAP1 POP JUMP JUMPDEST PUSH1 0x0 DUP1 PUSH1 0x0 DUP1 PUSH1 0x0 DUP1 PUSH1 0x80 DUP8 DUP10 SUB SLT ISZERO PUSH2 0x1EB8 JUMPI PUSH2 0x1EB7 PUSH2 0x1C6C JUMP JUMPDEST JUMPDEST PUSH1 0x0 DUP8 ADD CALLDATALOAD PUSH8 0xFFFFFFFFFFFFFFFF DUP2 GT ISZERO PUSH2 0x1ED6 JUMPI PUSH2 0x1ED5 PUSH2 0x1C71 JUMP JUMPDEST JUMPDEST PUSH2 0x1EE2 DUP10 DUP3 DUP11 ADD PUSH2 0x1E45 JUMP JUMPDEST SWAP7 POP SWAP7 POP POP PUSH1 0x20 DUP8 ADD CALLDATALOAD PUSH8 0xFFFFFFFFFFFFFFFF DUP2 GT ISZERO PUSH2 0x1F05 JUMPI PUSH2 0x1F04 PUSH2 0x1C71 JUMP JUMPDEST JUMPDEST PUSH2 0x1F11 DUP10 DUP3 DUP11 ADD PUSH2 0x1E45 JUMP JUMPDEST SWAP5 POP SWAP5 POP POP PUSH1 0x40 PUSH2 0x1F24 DUP10 DUP3 DUP11 ADD PUSH2 0x1C97 JUMP JUMPDEST SWAP3 POP POP PUSH1 0x60 PUSH2 0x1F35 DUP10 DUP3 DUP11 ADD PUSH2 0x1C97 JUMP JUMPDEST SWAP2 POP POP SWAP3 SWAP6 POP SWAP3 SWAP6 POP SWAP3 SWAP6 JUMP JUMPDEST PUSH2 0x1F4B DUP2 PUSH2 0x1D08 JUMP JUMPDEST DUP2 EQ PUSH2 0x1F56 JUMPI PUSH1 0x0 DUP1 REVERT JUMPDEST POP JUMP JUMPDEST PUSH1 0x0 DUP2 CALLDATALOAD SWAP1 POP PUSH2 0x1F68 DUP2 PUSH2 0x1F42 JUMP JUMPDEST SWAP3 SWAP2 POP POP JUMP JUMPDEST PUSH1 0x0 PUSH1 0x20 DUP3 DUP5 SUB SLT ISZERO PUSH2 0x1F84 JUMPI PUSH2 0x1F83 PUSH2 0x1C6C JUMP JUMPDEST JUMPDEST PUSH1 0x0 PUSH2 0x1F92 DUP5 DUP3 DUP6 ADD PUSH2 0x1F59 JUMP JUMPDEST SWAP2 POP POP SWAP3 SWAP2 POP POP JUMP JUMPDEST PUSH1 0x0 DUP2 MLOAD SWAP1 POP SWAP2 SWAP1 POP JUMP JUMPDEST PUSH1 0x0 DUP3 DUP3 MSTORE PUSH1 0x20 DUP3 ADD SWAP1 POP SWAP3 SWAP2 POP POP JUMP JUMPDEST PUSH1 0x0 DUP2 SWAP1 POP PUSH1 0x20 DUP3 ADD SWAP1 POP SWAP2 SWAP1 POP JUMP JUMPDEST PUSH2 0x1FD0 DUP2 PUSH2 0x1C76 JUMP JUMPDEST DUP3 MSTORE POP POP JUMP JUMPDEST PUSH2 0x1FDF DUP2 PUSH2 0x1D08 JUMP JUMPDEST DUP3 MSTORE POP POP JUMP JUMPDEST PUSH1 0x80 DUP3 ADD PUSH1 0x0 DUP3 ADD MLOAD PUSH2 0x1FFB PUSH1 0x0 DUP6 ADD DUP3 PUSH2 0x1FC7 JUMP JUMPDEST POP PUSH1 0x20 DUP3 ADD MLOAD PUSH2 0x200E PUSH1 0x20 DUP6 ADD DUP3 PUSH2 0x1FC7 JUMP JUMPDEST POP PUSH1 0x40 DUP3 ADD MLOAD PUSH2 0x2021 PUSH1 0x40 DUP6 ADD DUP3 PUSH2 0x1FD6 JUMP JUMPDEST POP PUSH1 0x60 DUP3 ADD MLOAD PUSH2 0x2034 PUSH1 0x60 DUP6 ADD DUP3 PUSH2 0x1FC7 JUMP JUMPDEST POP POP POP POP JUMP JUMPDEST PUSH1 0x0 PUSH2 0x2046 DUP4 DUP4 PUSH2 0x1FE5 JUMP JUMPDEST PUSH1 0x80 DUP4 ADD SWAP1 POP SWAP3 SWAP2 POP POP JUMP JUMPDEST PUSH1 0x0 PUSH1 0x20 DUP3 ADD SWAP1 POP SWAP2 SWAP1 POP JUMP JUMPDEST PUSH1 0x0 PUSH2 0x206A DUP3 PUSH2 0x1F9B JUMP JUMPDEST PUSH2 0x2074 DUP2 DUP6 PUSH2 0x1FA6 JUMP JUMPDEST SWAP4 POP PUSH2 0x207F DUP4 PUSH2 0x1FB7 JUMP JUMPDEST DUP1 PUSH1 0x0 JUMPDEST DUP4 DUP2 LT ISZERO PUSH2 0x20B0 JUMPI DUP2 MLOAD PUSH2 0x2097 DUP9 DUP3 PUSH2 0x203A JUMP JUMPDEST SWAP8 POP PUSH2 0x20A2 DUP4 PUSH2 0x2052 JUMP JUMPDEST SWAP3 POP POP PUSH1 0x1 DUP2 ADD SWAP1 POP PUSH2 0x2083 JUMP JUMPDEST POP DUP6 SWAP4 POP POP POP POP SWAP3 SWAP2 POP POP JUMP JUMPDEST PUSH1 0x0 PUSH1 0x20 DUP3 ADD SWAP1 POP DUP2 DUP2 SUB PUSH1 0x0 DUP4 ADD MSTORE PUSH2 0x20D7 DUP2 DUP5 PUSH2 0x205F JUMP JUMPDEST SWAP1 POP SWAP3 SWAP2 POP POP JUMP JUMPDEST PUSH1 0x0 PUSH1 0x80 DUP3 ADD SWAP1 POP PUSH2 0x20F4 PUSH1 0x0 DUP4 ADD DUP8 PUSH2 0x1CD9 JUMP JUMPDEST PUSH2 0x2101 PUSH1 0x20 DUP4 ADD DUP7 PUSH2 0x1CD9 JUMP JUMPDEST PUSH2 0x210E PUSH1 0x40 DUP4 ADD DUP6 PUSH2 0x1D1A JUMP JUMPDEST PUSH2 0x211B PUSH1 0x60 DUP4 ADD DUP5 PUSH2 0x1CD9 JUMP JUMPDEST SWAP6 SWAP5 POP POP POP POP POP JUMP JUMPDEST PUSH1 0x0 DUP2 MLOAD SWAP1 POP SWAP2 SWAP1 POP JUMP JUMPDEST PUSH1 0x0 DUP3 DUP3 MSTORE PUSH1 0x20 DUP3 ADD SWAP1 POP SWAP3 SWAP2 POP POP JUMP JUMPDEST PUSH1 0x0 DUP2 SWAP1 POP PUSH1 0x20 DUP3 ADD SWAP1 POP SWAP2 SWAP1 POP JUMP JUMPDEST PUSH1 0x0 DUP3 DUP3 MSTORE PUSH1 0x20 DUP3 ADD SWAP1 POP SWAP3 SWAP2 POP POP JUMP JUMPDEST PUSH1 0x0 PUSH2 0x216C DUP3 PUSH2 0x1D29 JUMP JUMPDEST PUSH2 0x2176 DUP2 DUP6 PUSH2 0x2150 JUMP JUMPDEST SWAP4 POP PUSH2 0x2186 DUP2 DUP6 PUSH1 0x20 DUP7 ADD PUSH2 0x1D45 JUMP JUMPDEST PUSH2 0x218F DUP2 PUSH2 0x1D6F JUMP JUMPDEST DUP5 ADD SWAP2 POP POP SWAP3 SWAP2 POP POP JUMP JUMPDEST PUSH1 0x0 DUP2 MLOAD SWAP1 POP SWAP2 SWAP1 POP JUMP JUMPDEST PUSH1 0x0 DUP3 DUP3 MSTORE PUSH1 0x20 DUP3 ADD SWAP1 POP SWAP3 SWAP2 POP POP JUMP JUMPDEST PUSH1 0x0 DUP2 SWAP1 POP PUSH1 0x20 DUP3 ADD SWAP1 POP SWAP2 SWAP1 POP JUMP JUMPDEST PUSH1 0x0 PUSH2 0x21D2 DUP4 DUP4 PUSH2 0x1FC7 JUMP JUMPDEST PUSH1 0x20 DUP4 ADD SWAP1 POP SWAP3 SWAP2 POP POP JUMP JUMPDEST PUSH1 0x0 PUSH1 0x20 DUP3 ADD SWAP1 POP SWAP2 SWAP1 POP JUMP JUMPDEST PUSH1 0x0 PUSH2 0x21F6 DUP3 PUSH2 0x219A JUMP JUMPDEST PUSH2 0x2200 DUP2 DUP6 PUSH2 0x21A5 JUMP JUMPDEST SWAP4 POP PUSH2 0x220B DUP4 PUSH2 0x21B6 JUMP JUMPDEST DUP1 PUSH1 0x0 JUMPDEST DUP4 DUP2 LT ISZERO PUSH2 0x223C JUMPI DUP2 MLOAD PUSH2 0x2223 DUP9 DUP3 PUSH2 0x21C6 JUMP JUMPDEST SWAP8 POP PUSH2 0x222E DUP4 PUSH2 0x21DE JUMP JUMPDEST SWAP3 POP POP PUSH1 0x1 DUP2 ADD SWAP1 POP PUSH2 0x220F JUMP JUMPDEST POP DUP6 SWAP4 POP POP POP POP SWAP3 SWAP2 POP POP JUMP JUMPDEST PUSH1 0x0 PUSH2 0x100 DUP4 ADD PUSH1 0x0 DUP4 ADD MLOAD PUSH2 0x2262 PUSH1 0x0 DUP7 ADD DUP3 PUSH2 0x1FC7 JUMP JUMPDEST POP PUSH1 0x20 DUP4 ADD MLOAD PUSH2 0x2275 PUSH1 0x20 DUP7 ADD DUP3 PUSH2 0x1FD6 JUMP JUMPDEST POP PUSH1 0x40 DUP4 ADD MLOAD DUP5 DUP3 SUB PUSH1 0x40 DUP7 ADD MSTORE PUSH2 0x228D DUP3 DUP3 PUSH2 0x2161 JUMP JUMPDEST SWAP2 POP POP PUSH1 0x60 DUP4 ADD MLOAD DUP5 DUP3 SUB PUSH1 0x60 DUP7 ADD MSTORE PUSH2 0x22A7 DUP3 DUP3 PUSH2 0x2161 JUMP JUMPDEST SWAP2 POP POP PUSH1 0x80 DUP4 ADD MLOAD PUSH2 0x22BC PUSH1 0x80 DUP7 ADD DUP3 PUSH2 0x1FC7 JUMP JUMPDEST POP PUSH1 0xA0 DUP4 ADD MLOAD PUSH2 0x22CF PUSH1 0xA0 DUP7 ADD DUP3 PUSH2 0x1FC7 JUMP JUMPDEST POP PUSH1 0xC0 DUP4 ADD MLOAD PUSH2 0x22E2 PUSH1 0xC0 DUP7 ADD DUP3 PUSH2 0x1FC7 JUMP JUMPDEST POP PUSH1 0xE0 DUP4 ADD MLOAD DUP5 DUP3 SUB PUSH1 0xE0 DUP7 ADD MSTORE PUSH2 0x22FA DUP3 DUP3 PUSH2 0x21EB JUMP JUMPDEST SWAP2 POP POP DUP1 SWAP2 POP POP SWAP3 SWAP2 POP POP JUMP JUMPDEST PUSH1 0x0 PUSH2 0x2313 DUP4 DUP4 PUSH2 0x2249 JUMP JUMPDEST SWAP1 POP SWAP3 SWAP2 POP POP JUMP JUMPDEST PUSH1 0x0 PUSH1 0x20 DUP3 ADD SWAP1 POP SWAP2 SWAP1 POP JUMP JUMPDEST PUSH1 0x0 PUSH2 0x2333 DUP3 PUSH2 0x2124 JUMP JUMPDEST PUSH2 0x233D DUP2 DUP6 PUSH2 0x212F JUMP JUMPDEST SWAP4 POP DUP4 PUSH1 0x20 DUP3 MUL DUP6 ADD PUSH2 0x234F DUP6 PUSH2 0x2140 JUMP JUMPDEST DUP1 PUSH1 0x0 JUMPDEST DUP6 DUP2 LT ISZERO PUSH2 0x238B JUMPI DUP5 DUP5 SUB DUP10 MSTORE DUP2 MLOAD PUSH2 0x236C DUP6 DUP3 PUSH2 0x2307 JUMP JUMPDEST SWAP5 POP PUSH2 0x2377 DUP4 PUSH2 0x231B JUMP JUMPDEST SWAP3 POP PUSH1 0x20 DUP11 ADD SWAP10 POP POP PUSH1 0x1 DUP2 ADD SWAP1 POP PUSH2 0x2353 JUMP JUMPDEST POP DUP3 SWAP8 POP DUP8 SWAP6 POP POP POP POP POP POP SWAP3 SWAP2 POP POP JUMP JUMPDEST PUSH1 0x0 PUSH1 0x20 DUP3 ADD SWAP1 POP DUP2 DUP2 SUB PUSH1 0x0 DUP4 ADD MSTORE PUSH2 0x23B7 DUP2 DUP5 PUSH2 0x2328 JUMP JUMPDEST SWAP1 POP SWAP3 SWAP2 POP POP JUMP JUMPDEST PUSH32 0x4E487B7100000000000000000000000000000000000000000000000000000000 PUSH1 0x0 MSTORE PUSH1 0x22 PUSH1 0x4 MSTORE PUSH1 0x24 PUSH1 0x0 REVERT JUMPDEST PUSH1 0x0 PUSH1 0x2 DUP3 DIV SWAP1 POP PUSH1 0x1 DUP3 AND DUP1 PUSH2 0x2406 JUMPI PUSH1 0x7F DUP3 AND SWAP2 POP JUMPDEST PUSH1 0x20 DUP3 LT DUP2 SUB PUSH2 0x2419 JUMPI PUSH2 0x2418 PUSH2 0x23BF JUMP JUMPDEST JUMPDEST POP SWAP2 SWAP1 POP JUMP JUMPDEST PUSH32 0x4D696E696D756D206F666665722070726963652073686F756C64206265206772 PUSH1 0x0 DUP3 ADD MSTORE PUSH32 0x6561746572207468616E20300000000000000000000000000000000000000000 PUSH1 0x20 DUP3 ADD MSTORE POP JUMP JUMPDEST PUSH1 0x0 PUSH2 0x247B PUSH1 0x2C DUP4 PUSH2 0x1D34 JUMP JUMPDEST SWAP2 POP PUSH2 0x2486 DUP3 PUSH2 0x241F JUMP JUMPDEST PUSH1 0x40 DUP3 ADD SWAP1 POP SWAP2 SWAP1 POP JUMP JUMPDEST PUSH1 0x0 PUSH1 0x20 DUP3 ADD SWAP1 POP DUP2 DUP2 SUB PUSH1 0x0 DUP4 ADD MSTORE PUSH2 0x24AA DUP2 PUSH2 0x246E JUMP JUMPDEST SWAP1 POP SWAP2 SWAP1 POP JUMP JUMPDEST PUSH32 0x4E487B7100000000000000000000000000000000000000000000000000000000 PUSH1 0x0 MSTORE PUSH1 0x41 PUSH1 0x4 MSTORE PUSH1 0x24 PUSH1 0x0 REVERT JUMPDEST PUSH32 0x4E487B7100000000000000000000000000000000000000000000000000000000 PUSH1 0x0 MSTORE PUSH1 0x11 PUSH1 0x4 MSTORE PUSH1 0x24 PUSH1 0x0 REVERT JUMPDEST PUSH1 0x0 PUSH2 0x251A DUP3 PUSH2 0x1C76 JUMP JUMPDEST SWAP2 POP PUSH2 0x2525 DUP4 PUSH2 0x1C76 JUMP JUMPDEST SWAP3 POP DUP3 DUP3 ADD SWAP1 POP DUP1 DUP3 GT ISZERO PUSH2 0x253D JUMPI PUSH2 0x253C PUSH2 0x24E0 JUMP JUMPDEST JUMPDEST SWAP3 SWAP2 POP POP JUMP JUMPDEST PUSH1 0x0 DUP2 SWAP1 POP DUP2 PUSH1 0x0 MSTORE PUSH1 0x20 PUSH1 0x0 KECCAK256 SWAP1 POP SWAP2 SWAP1 POP JUMP JUMPDEST PUSH1 0x0 PUSH1 0x20 PUSH1 0x1F DUP4 ADD DIV SWAP1 POP SWAP2 SWAP1 POP JUMP JUMPDEST PUSH1 0x0 DUP3 DUP3 SHL SWAP1 POP SWAP3 SWAP2 POP POP JUMP JUMPDEST PUSH1 0x0 PUSH1 0x8 DUP4 MUL PUSH2 0x25A5 PUSH32 0xFFFFFFFFFFFFFFFFFFFFFFFFFFFFFFFFFFFFFFFFFFFFFFFFFFFFFFFFFFFFFFFF DUP3 PUSH2 0x2568 JUMP JUMPDEST PUSH2 0x25AF DUP7 DUP4 PUSH2 0x2568 JUMP JUMPDEST SWAP6 POP DUP1 NOT DUP5 AND SWAP4 POP DUP1 DUP7 AND DUP5 OR SWAP3 POP POP POP SWAP4 SWAP3 POP POP POP JUMP JUMPDEST PUSH1 0x0 DUP2 SWAP1 POP SWAP2 SWAP1 POP JUMP JUMPDEST PUSH1 0x0 PUSH2 0x25EC PUSH2 0x25E7 PUSH2 0x25E2 DUP5 PUSH2 0x1C76 JUMP JUMPDEST PUSH2 0x25C7 JUMP JUMPDEST PUSH2 0x1C76 JUMP JUMPDEST SWAP1 POP SWAP2 SWAP1 POP JUMP JUMPDEST PUSH1 0x0 DUP2 SWAP1 POP SWAP2 SWAP1 POP JUMP JUMPDEST PUSH2 0x2606 DUP4 PUSH2 0x25D1 JUMP JUMPDEST PUSH2 0x261A PUSH2 0x2612 DUP3 PUSH2 0x25F3 JUMP JUMPDEST DUP5 DUP5 SLOAD PUSH2 0x2575 JUMP JUMPDEST DUP3 SSTORE POP POP POP POP JUMP JUMPDEST PUSH1 0x0 SWAP1 JUMP JUMPDEST PUSH2 0x262F PUSH2 0x2622 JUMP JUMPDEST PUSH2 0x263A DUP2 DUP5 DUP5 PUSH2 0x25FD JUMP JUMPDEST POP POP POP JUMP JUMPDEST JUMPDEST DUP2 DUP2 LT ISZERO PUSH2 0x265E JUMPI PUSH2 0x2653 PUSH1 0x0 DUP3 PUSH2 0x2627 JUMP JUMPDEST PUSH1 0x1 DUP2 ADD SWAP1 POP PUSH2 0x2640 JUMP JUMPDEST POP POP JUMP JUMPDEST PUSH1 0x1F DUP3 GT ISZERO PUSH2 0x26A3 JUMPI PUSH2 0x2674 DUP2 PUSH2 0x2543 JUMP JUMPDEST PUSH2 0x267D DUP5 PUSH2 0x2558 JUMP JUMPDEST DUP2 ADD PUSH1 0x20 DUP6 LT ISZERO PUSH2 0x268C JUMPI DUP2 SWAP1 POP JUMPDEST PUSH2 0x26A0 PUSH2 0x2698 DUP6 PUSH2 0x2558 JUMP JUMPDEST DUP4 ADD DUP3 PUSH2 0x263F JUMP JUMPDEST POP POP JUMPDEST POP POP POP JUMP JUMPDEST PUSH1 0x0 DUP3 DUP3 SHR SWAP1 POP SWAP3 SWAP2 POP POP JUMP JUMPDEST PUSH1 0x0 PUSH2 0x26C6 PUSH1 0x0 NOT DUP5 PUSH1 0x8 MUL PUSH2 0x26A8 JUMP JUMPDEST NOT DUP1 DUP4 AND SWAP2 POP POP SWAP3 SWAP2 POP POP JUMP JUMPDEST PUSH1 0x0 PUSH2 0x26DF DUP4 DUP4 PUSH2 0x26B5 JUMP JUMPDEST SWAP2 POP DUP3 PUSH1 0x2 MUL DUP3 OR SWAP1 POP SWAP3 SWAP2 POP POP JUMP JUMPDEST PUSH2 0x26F8 DUP3 PUSH2 0x1D29 JUMP JUMPDEST PUSH8 0xFFFFFFFFFFFFFFFF DUP2 GT ISZERO PUSH2 0x2711 JUMPI PUSH2 0x2710 PUSH2 0x24B1 JUMP JUMPDEST JUMPDEST PUSH2 0x271B DUP3 SLOAD PUSH2 0x23EE JUMP JUMPDEST PUSH2 0x2726 DUP3 DUP3 DUP6 PUSH2 0x2662 JUMP JUMPDEST PUSH1 0x0 PUSH1 0x20 SWAP1 POP PUSH1 0x1F DUP4 GT PUSH1 0x1 DUP2 EQ PUSH2 0x2759 JUMPI PUSH1 0x0 DUP5 ISZERO PUSH2 0x2747 JUMPI DUP3 DUP8 ADD MLOAD SWAP1 POP JUMPDEST PUSH2 0x2751 DUP6 DUP3 PUSH2 0x26D3 JUMP JUMPDEST DUP7 SSTORE POP PUSH2 0x27B9 JUMP JUMPDEST PUSH1 0x1F NOT DUP5 AND PUSH2 0x2767 DUP7 PUSH2 0x2543 JUMP JUMPDEST PUSH1 0x0 JUMPDEST DUP3 DUP2 LT ISZERO PUSH2 0x278F JUMPI DUP5 DUP10 ADD MLOAD DUP3 SSTORE PUSH1 0x1 DUP3 ADD SWAP2 POP PUSH1 0x20 DUP6 ADD SWAP5 POP PUSH1 0x20 DUP2 ADD SWAP1 POP PUSH2 0x276A JUMP JUMPDEST DUP7 DUP4 LT ISZERO PUSH2 0x27AC JUMPI DUP5 DUP10 ADD MLOAD PUSH2 0x27A8 PUSH1 0x1F DUP10 AND DUP3 PUSH2 0x26B5 JUMP JUMPDEST DUP4 SSTORE POP JUMPDEST PUSH1 0x1 PUSH1 0x2 DUP9 MUL ADD DUP9 SSTORE POP POP POP JUMPDEST POP POP POP POP POP POP JUMP JUMPDEST PUSH1 0x0 PUSH2 0x27CC DUP3 PUSH2 0x1C76 JUMP JUMPDEST SWAP2 POP PUSH32 0xFFFFFFFFFFFFFFFFFFFFFFFFFFFFFFFFFFFFFFFFFFFFFFFFFFFFFFFFFFFFFFFF DUP3 SUB PUSH2 0x27FE JUMPI PUSH2 0x27FD PUSH2 0x24E0 JUMP JUMPDEST JUMPDEST PUSH1 0x1 DUP3 ADD SWAP1 POP SWAP2 SWAP1 POP JUMP JUMPDEST PUSH32 0x4E487B7100000000000000000000000000000000000000000000000000000000 PUSH1 0x0 MSTORE PUSH1 0x32 PUSH1 0x4 MSTORE PUSH1 0x24 PUSH1 0x0 REVERT JUMPDEST PUSH32 0x41756374696F6E20646F6573206E6F7420657869737400000000000000000000 PUSH1 0x0 DUP3 ADD MSTORE POP JUMP JUMPDEST PUSH1 0x0 PUSH2 0x286E PUSH1 0x16 DUP4 PUSH2 0x1D34 JUMP JUMPDEST SWAP2 POP PUSH2 0x2879 DUP3 PUSH2 0x2838 JUMP JUMPDEST PUSH1 0x20 DUP3 ADD SWAP1 POP SWAP2 SWAP1 POP JUMP JUMPDEST PUSH1 0x0 PUSH1 0x20 DUP3 ADD SWAP1 POP DUP2 DUP2 SUB PUSH1 0x0 DUP4 ADD MSTORE PUSH2 0x289D DUP2 PUSH2 0x2861 JUMP JUMPDEST SWAP1 POP SWAP2 SWAP1 POP JUMP JUMPDEST PUSH32 0x41756374696F6E20657870697265640000000000000000000000000000000000 PUSH1 0x0 DUP3 ADD MSTORE POP JUMP JUMPDEST PUSH1 0x0 PUSH2 0x28DA PUSH1 0xF DUP4 PUSH2 0x1D34 JUMP JUMPDEST SWAP2 POP PUSH2 0x28E5 DUP3 PUSH2 0x28A4 JUMP JUMPDEST PUSH1 0x20 DUP3 ADD SWAP1 POP SWAP2 SWAP1 POP JUMP JUMPDEST PUSH1 0x0 PUSH1 0x20 DUP3 ADD SWAP1 POP DUP2 DUP2 SUB PUSH1 0x0 DUP4 ADD MSTORE PUSH2 0x2909 DUP2 PUSH2 0x28CD JUMP JUMPDEST SWAP1 POP SWAP2 SWAP1 POP JUMP JUMPDEST PUSH32 0x50726963652073686F756C642062652067726561746572207468616E206D696E PUSH1 0x0 DUP3 ADD MSTORE PUSH32 0x696D756D206F6666657220707269636520616E64207468652062657374206F66 PUSH1 0x20 DUP3 ADD MSTORE PUSH32 0x6665720000000000000000000000000000000000000000000000000000000000 PUSH1 0x40 DUP3 ADD MSTORE POP JUMP JUMPDEST PUSH1 0x0 PUSH2 0x2992 PUSH1 0x43 DUP4 PUSH2 0x1D34 JUMP JUMPDEST SWAP2 POP PUSH2 0x299D DUP3 PUSH2 0x2910 JUMP JUMPDEST PUSH1 0x60 DUP3 ADD SWAP1 POP SWAP2 SWAP1 POP JUMP JUMPDEST PUSH1 0x0 PUSH1 0x20 DUP3 ADD SWAP1 POP DUP2 DUP2 SUB PUSH1 0x0 DUP4 ADD MSTORE PUSH2 0x29C1 DUP2 PUSH2 0x2985 JUMP JUMPDEST SWAP1 POP SWAP2 SWAP1 POP JUMP JUMPDEST PUSH1 0x0 PUSH2 0x29D3 DUP3 PUSH2 0x1C76 JUMP JUMPDEST SWAP2 POP PUSH2 0x29DE DUP4 PUSH2 0x1C76 JUMP JUMPDEST SWAP3 POP DUP3 DUP3 SUB SWAP1 POP DUP2 DUP2 GT ISZERO PUSH2 0x29F6 JUMPI PUSH2 0x29F5 PUSH2 0x24E0 JUMP JUMPDEST JUMPDEST SWAP3 SWAP2 POP POP JUMP JUMPDEST PUSH32 0x41756374696F6E206973207374696C6C20616374697665000000000000000000 PUSH1 0x0 DUP3 ADD MSTORE POP JUMP JUMPDEST PUSH1 0x0 PUSH2 0x2A32 PUSH1 0x17 DUP4 PUSH2 0x1D34 JUMP JUMPDEST SWAP2 POP PUSH2 0x2A3D DUP3 PUSH2 0x29FC JUMP JUMPDEST PUSH1 0x20 DUP3 ADD SWAP1 POP SWAP2 SWAP1 POP JUMP JUMPDEST PUSH1 0x0 PUSH1 0x20 DUP3 ADD SWAP1 POP DUP2 DUP2 SUB PUSH1 0x0 DUP4 ADD MSTORE PUSH2 0x2A61 DUP2 PUSH2 0x2A25 JUMP JUMPDEST SWAP1 POP SWAP2 SWAP1 POP JUMP INVALID LOG2 PUSH5 0x6970667358 0x22 SLT KECCAK256 DUP6 LT 0xE3 PUSH18 0xC0CAAFCF49E363BE780C92C71C4C2C9BEEF5 CODESIZE CODESIZE XOR PUSH4 0x91C9D52B GASLIMIT DUP14 PUSH5 0x736F6C6343 STOP ADDMOD LT STOP CALLER "
				},
				"gasEstimates": {
					"creation": {
						"codeDepositCost": "2182000",
						"executionCost": "46536",
						"totalCost": "2228536"
					},
					"external": {
						"auctions(uint256)": "infinite",
						"cancelAuction(uint256)": "infinite",
						"createAuction(string,string,uint256,uint256)": "infinite",
						"createOffer(uint256)": "infinite",
						"getAuctionOffers(uint256)": "infinite",
						"getAuctions()": "infinite",
						"getUserAuctions(address)": "infinite",
						"getUserOffers(address)": "infinite",
						"offers(uint256)": "infinite",
						"trade(uint256)": "infinite"
					}
				},
				"methodIdentifiers": {
					"auctions(uint256)": "571a26a0",
					"cancelAuction(uint256)": "96b5a755",
					"createAuction(string,string,uint256,uint256)": "61e2db55",
					"createOffer(uint256)": "a269993d",
					"getAuctionOffers(uint256)": "c43ede15",
					"getAuctions()": "d7c06919",
					"getUserAuctions(address)": "ff3ad0b4",
					"getUserOffers(address)": "661d2c2c",
					"offers(uint256)": "8a72ea6a",
					"trade(uint256)": "df1dd826"
				}
			},
			"storageLayout": {
				"storage": [
					{
						"astId": 26,
						"contract": "contracts/Ebay.sol:Ebay",
						"label": "auctions",
						"offset": 0,
						"slot": "0",
						"type": "t_mapping(t_uint256,t_struct(Auction)20_storage)"
					},
					{
						"astId": 30,
						"contract": "contracts/Ebay.sol:Ebay",
						"label": "nextAuctionId",
						"offset": 0,
						"slot": "1",
						"type": "t_uint256"
					},
					{
						"astId": 45,
						"contract": "contracts/Ebay.sol:Ebay",
						"label": "offers",
						"offset": 0,
						"slot": "2",
						"type": "t_mapping(t_uint256,t_struct(Offer)39_storage)"
					},
					{
						"astId": 49,
						"contract": "contracts/Ebay.sol:Ebay",
						"label": "nextOfferId",
						"offset": 0,
						"slot": "3",
						"type": "t_uint256"
					},
					{
						"astId": 55,
						"contract": "contracts/Ebay.sol:Ebay",
						"label": "userAuctions",
						"offset": 0,
						"slot": "4",
						"type": "t_mapping(t_address,t_array(t_uint256)dyn_storage)"
					},
					{
						"astId": 61,
						"contract": "contracts/Ebay.sol:Ebay",
						"label": "userOffers",
						"offset": 0,
						"slot": "5",
						"type": "t_mapping(t_address,t_array(t_uint256)dyn_storage)"
					}
				],
				"types": {
					"t_address": {
						"encoding": "inplace",
						"label": "address",
						"numberOfBytes": "20"
					},
					"t_array(t_uint256)dyn_storage": {
						"base": "t_uint256",
						"encoding": "dynamic_array",
						"label": "uint256[]",
						"numberOfBytes": "32"
					},
					"t_mapping(t_address,t_array(t_uint256)dyn_storage)": {
						"encoding": "mapping",
						"key": "t_address",
						"label": "mapping(address => uint256[])",
						"numberOfBytes": "32",
						"value": "t_array(t_uint256)dyn_storage"
					},
					"t_mapping(t_uint256,t_struct(Auction)20_storage)": {
						"encoding": "mapping",
						"key": "t_uint256",
						"label": "mapping(uint256 => struct Ebay.Auction)",
						"numberOfBytes": "32",
						"value": "t_struct(Auction)20_storage"
					},
					"t_mapping(t_uint256,t_struct(Offer)39_storage)": {
						"encoding": "mapping",
						"key": "t_uint256",
						"label": "mapping(uint256 => struct Ebay.Offer)",
						"numberOfBytes": "32",
						"value": "t_struct(Offer)39_storage"
					},
					"t_string_storage": {
						"encoding": "bytes",
						"label": "string",
						"numberOfBytes": "32"
					},
					"t_struct(Auction)20_storage": {
						"encoding": "inplace",
						"label": "struct Ebay.Auction",
						"members": [
							{
								"astId": 4,
								"contract": "contracts/Ebay.sol:Ebay",
								"label": "id",
								"offset": 0,
								"slot": "0",
								"type": "t_uint256"
							},
							{
								"astId": 6,
								"contract": "contracts/Ebay.sol:Ebay",
								"label": "seller",
								"offset": 0,
								"slot": "1",
								"type": "t_address"
							},
							{
								"astId": 8,
								"contract": "contracts/Ebay.sol:Ebay",
								"label": "name",
								"offset": 0,
								"slot": "2",
								"type": "t_string_storage"
							},
							{
								"astId": 10,
								"contract": "contracts/Ebay.sol:Ebay",
								"label": "description",
								"offset": 0,
								"slot": "3",
								"type": "t_string_storage"
							},
							{
								"astId": 12,
								"contract": "contracts/Ebay.sol:Ebay",
								"label": "minimumOfferPrice",
								"offset": 0,
								"slot": "4",
								"type": "t_uint256"
							},
							{
								"astId": 14,
								"contract": "contracts/Ebay.sol:Ebay",
								"label": "auctionEnd",
								"offset": 0,
								"slot": "5",
								"type": "t_uint256"
							},
							{
								"astId": 16,
								"contract": "contracts/Ebay.sol:Ebay",
								"label": "bestOfferId",
								"offset": 0,
								"slot": "6",
								"type": "t_uint256"
							},
							{
								"astId": 19,
								"contract": "contracts/Ebay.sol:Ebay",
								"label": "offerIds",
								"offset": 0,
								"slot": "7",
								"type": "t_array(t_uint256)dyn_storage"
							}
						],
						"numberOfBytes": "256"
					},
					"t_struct(Offer)39_storage": {
						"encoding": "inplace",
						"label": "struct Ebay.Offer",
						"members": [
							{
								"astId": 32,
								"contract": "contracts/Ebay.sol:Ebay",
								"label": "id",
								"offset": 0,
								"slot": "0",
								"type": "t_uint256"
							},
							{
								"astId": 34,
								"contract": "contracts/Ebay.sol:Ebay",
								"label": "auctionId",
								"offset": 0,
								"slot": "1",
								"type": "t_uint256"
							},
							{
								"astId": 36,
								"contract": "contracts/Ebay.sol:Ebay",
								"label": "buyer",
								"offset": 0,
								"slot": "2",
								"type": "t_address"
							},
							{
								"astId": 38,
								"contract": "contracts/Ebay.sol:Ebay",
								"label": "offerPrice",
								"offset": 0,
								"slot": "3",
								"type": "t_uint256"
							}
						],
						"numberOfBytes": "128"
					},
					"t_uint256": {
						"encoding": "inplace",
						"label": "uint256",
						"numberOfBytes": "32"
					}
				}
			},
			"userdoc": {
				"kind": "user",
				"methods": {
					"auctions(uint256)": {
						"notice": "List of all auctions"
					},
					"cancelAuction(uint256)": {
						"notice": "PUI: Cancels an auction."
					},
					"createAuction(string,string,uint256,uint256)": {
						"notice": "Creates a new auction."
					},
					"createOffer(uint256)": {
						"notice": "Creates a new offer for an auction."
					},
					"getAuctionOffers(uint256)": {
						"notice": "- List of offers for an auction"
					},
					"getAuctions()": {
						"notice": "- List of all the auctions"
					},
					"getUserAuctions(address)": {
						"notice": "- List of auctions for a seller"
					},
					"getUserOffers(address)": {
						"notice": "- List of offers from a buyer"
					},
					"offers(uint256)": {
						"notice": "List of all Offer"
					},
					"trade(uint256)": {
						"notice": "Executes the auction trade."
					}
				},
				"notice": "Smart contract for auction based market place.",
				"version": 1
			}
		}
	}
}