{
	"contracts/Hairdressing.sol": {
		"Hairdressing": {
			"abi": [
				{
					"inputs": [],
					"stateMutability": "nonpayable",
					"type": "constructor"
				},
				{
					"inputs": [],
					"name": "admin",
					"outputs": [
						{
							"internalType": "address",
							"name": "",
							"type": "address"
						}
					],
					"stateMutability": "view",
					"type": "function"
				},
				{
					"inputs": [
						{
							"internalType": "uint256",
							"name": "",
							"type": "uint256"
						}
					],
					"name": "bookingList",
					"outputs": [
						{
							"internalType": "uint256",
							"name": "",
							"type": "uint256"
						}
					],
					"stateMutability": "view",
					"type": "function"
				},
				{
					"inputs": [
						{
							"internalType": "uint256",
							"name": "",
							"type": "uint256"
						}
					],
					"name": "bookings",
					"outputs": [
						{
							"internalType": "uint256",
							"name": "id",
							"type": "uint256"
						},
						{
							"internalType": "uint256",
							"name": "serviceId",
							"type": "uint256"
						},
						{
							"internalType": "uint256",
							"name": "date",
							"type": "uint256"
						},
						{
							"internalType": "address",
							"name": "client",
							"type": "address"
						}
					],
					"stateMutability": "view",
					"type": "function"
				},
				{
					"inputs": [
						{
							"internalType": "uint256",
							"name": "_date",
							"type": "uint256"
						},
						{
							"internalType": "uint256",
							"name": "_serviceId",
							"type": "uint256"
						}
					],
					"name": "createBooking",
					"outputs": [],
					"stateMutability": "nonpayable",
					"type": "function"
				},
				{
					"inputs": [
						{
							"internalType": "string",
							"name": "_name",
							"type": "string"
						},
						{
							"internalType": "string",
							"name": "_description",
							"type": "string"
						},
						{
							"internalType": "uint256",
							"name": "_price",
							"type": "uint256"
						},
						{
							"internalType": "uint256",
							"name": "_durability",
							"type": "uint256"
						}
					],
					"name": "createProduct",
					"outputs": [],
					"stateMutability": "nonpayable",
					"type": "function"
				},
				{
					"inputs": [
						{
							"internalType": "string",
							"name": "_name",
							"type": "string"
						},
						{
							"internalType": "string",
							"name": "_description",
							"type": "string"
						},
						{
							"internalType": "uint256",
							"name": "_price",
							"type": "uint256"
						},
						{
							"internalType": "uint256",
							"name": "_duration",
							"type": "uint256"
						},
						{
							"internalType": "uint256[]",
							"name": "_productIds",
							"type": "uint256[]"
						}
					],
					"name": "createService",
					"outputs": [],
					"stateMutability": "nonpayable",
					"type": "function"
				},
				{
					"inputs": [
						{
							"internalType": "uint256",
							"name": "_bookingId",
							"type": "uint256"
						}
					],
					"name": "deleteBooking",
					"outputs": [],
					"stateMutability": "nonpayable",
					"type": "function"
				},
				{
					"inputs": [
						{
							"internalType": "uint256",
							"name": "_productId",
							"type": "uint256"
						}
					],
					"name": "deleteProduct",
					"outputs": [],
					"stateMutability": "nonpayable",
					"type": "function"
				},
				{
					"inputs": [
						{
							"internalType": "uint256",
							"name": "_serviceId",
							"type": "uint256"
						}
					],
					"name": "deleteService",
					"outputs": [],
					"stateMutability": "nonpayable",
					"type": "function"
				},
				{
					"inputs": [],
					"name": "getProducts",
					"outputs": [
						{
							"components": [
								{
									"internalType": "uint256",
									"name": "id",
									"type": "uint256"
								},
								{
									"internalType": "string",
									"name": "name",
									"type": "string"
								},
								{
									"internalType": "string",
									"name": "description",
									"type": "string"
								},
								{
									"internalType": "uint256",
									"name": "price",
									"type": "uint256"
								},
								{
									"internalType": "uint256",
									"name": "durability",
									"type": "uint256"
								}
							],
							"internalType": "struct Hairdressing.Product[]",
							"name": "",
							"type": "tuple[]"
						}
					],
					"stateMutability": "view",
					"type": "function"
				},
				{
					"inputs": [],
					"name": "getServices",
					"outputs": [
						{
							"components": [
								{
									"internalType": "uint256",
									"name": "id",
									"type": "uint256"
								},
								{
									"internalType": "string",
									"name": "name",
									"type": "string"
								},
								{
									"internalType": "string",
									"name": "description",
									"type": "string"
								},
								{
									"internalType": "uint256",
									"name": "price",
									"type": "uint256"
								},
								{
									"internalType": "uint256",
									"name": "duration",
									"type": "uint256"
								},
								{
									"internalType": "uint256[]",
									"name": "productIds",
									"type": "uint256[]"
								}
							],
							"internalType": "struct Hairdressing.Service[]",
							"name": "",
							"type": "tuple[]"
						}
					],
					"stateMutability": "view",
					"type": "function"
				},
				{
					"inputs": [
						{
							"internalType": "address",
							"name": "_client",
							"type": "address"
						}
					],
					"name": "getUserBookings",
					"outputs": [
						{
							"components": [
								{
									"internalType": "uint256",
									"name": "id",
									"type": "uint256"
								},
								{
									"internalType": "uint256",
									"name": "serviceId",
									"type": "uint256"
								},
								{
									"internalType": "uint256",
									"name": "date",
									"type": "uint256"
								},
								{
									"internalType": "address",
									"name": "client",
									"type": "address"
								}
							],
							"internalType": "struct Hairdressing.Booking[]",
							"name": "",
							"type": "tuple[]"
						}
					],
					"stateMutability": "view",
					"type": "function"
				},
				{
					"inputs": [
						{
							"internalType": "uint256",
							"name": "",
							"type": "uint256"
						}
					],
					"name": "productList",
					"outputs": [
						{
							"internalType": "uint256",
							"name": "",
							"type": "uint256"
						}
					],
					"stateMutability": "view",
					"type": "function"
				},
				{
					"inputs": [
						{
							"internalType": "uint256",
							"name": "",
							"type": "uint256"
						}
					],
					"name": "products",
					"outputs": [
						{
							"internalType": "uint256",
							"name": "id",
							"type": "uint256"
						},
						{
							"internalType": "string",
							"name": "name",
							"type": "string"
						},
						{
							"internalType": "string",
							"name": "description",
							"type": "string"
						},
						{
							"internalType": "uint256",
							"name": "price",
							"type": "uint256"
						},
						{
							"internalType": "uint256",
							"name": "durability",
							"type": "uint256"
						}
					],
					"stateMutability": "view",
					"type": "function"
				},
				{
					"inputs": [
						{
							"internalType": "uint256",
							"name": "",
							"type": "uint256"
						}
					],
					"name": "serviceList",
					"outputs": [
						{
							"internalType": "uint256",
							"name": "",
							"type": "uint256"
						}
					],
					"stateMutability": "view",
					"type": "function"
				},
				{
					"inputs": [
						{
							"internalType": "uint256",
							"name": "",
							"type": "uint256"
						}
					],
					"name": "services",
					"outputs": [
						{
							"internalType": "uint256",
							"name": "id",
							"type": "uint256"
						},
						{
							"internalType": "string",
							"name": "name",
							"type": "string"
						},
						{
							"internalType": "string",
							"name": "description",
							"type": "string"
						},
						{
							"internalType": "uint256",
							"name": "price",
							"type": "uint256"
						},
						{
							"internalType": "uint256",
							"name": "duration",
							"type": "uint256"
						}
					],
					"stateMutability": "view",
					"type": "function"
				}
			],
			"devdoc": {
				"author": "Pablo Urriza",
				"kind": "dev",
				"methods": {
					"createBooking(uint256,uint256)": {
						"params": {
							"_date": "— date of the service.",
							"_serviceId": "— service id from the service to be booked."
						}
					},
					"createProduct(string,string,uint256,uint256)": {
						"params": {
							"_description": "— service description.",
							"_durability": "— the durability in uses.",
							"_name": "— name of the product.",
							"_price": "— price of the product."
						}
					},
					"createService(string,string,uint256,uint256,uint256[])": {
						"params": {
							"_description": "— service description.",
							"_duration": "— the duration, in seconds, for which the auction will accept offers.",
							"_name": "— name of the service.",
							"_price": "— price of the service.",
							"_productIds": "— array of the products needed for the service."
						}
					},
					"deleteBooking(uint256)": {
						"params": {
							"_bookingId": "— product id from the product to be deleted."
						}
					},
					"deleteProduct(uint256)": {
						"params": {
							"_productId": "— product id from the product to be deleted."
						}
					},
					"deleteService(uint256)": {
						"params": {
							"_serviceId": "— service id from the service to be deleted."
						}
					},
					"getUserBookings(address)": {
						"params": {
							"_client": "- Client address"
						}
					}
				},
				"title": "Hairdressing",
				"version": 1
			},
			"evm": {
				"assembly": "    /* \"contracts/Hairdressing.sol\":178:8261  contract Hairdressing {... */\n  mstore(0x40, 0x80)\n    /* \"contracts/Hairdressing.sol\":1104:1105  1 */\n  0x01\n    /* \"contracts/Hairdressing.sol\":1075:1105  uint private nextServiceId = 1 */\n  0x03\n  sstore\n    /* \"contracts/Hairdressing.sol\":1563:1564  1 */\n  0x01\n    /* \"contracts/Hairdressing.sol\":1534:1564  uint private nextProductId = 1 */\n  0x06\n  sstore\n    /* \"contracts/Hairdressing.sol\":1995:1996  1 */\n  0x01\n    /* \"contracts/Hairdressing.sol\":1966:1996  uint private nextBookingId = 1 */\n  0x09\n  sstore\n    /* \"contracts/Hairdressing.sol\":2164:2213  constructor() {... */\n  callvalue\n  dup1\n  iszero\n  tag_1\n  jumpi\n  0x00\n  dup1\n  revert\ntag_1:\n  pop\n    /* \"contracts/Hairdressing.sol\":2196:2206  msg.sender */\n  caller\n    /* \"contracts/Hairdressing.sol\":2188:2193  admin */\n  0x00\n  dup1\n    /* \"contracts/Hairdressing.sol\":2188:2206  admin = msg.sender */\n  0x0100\n  exp\n  dup2\n  sload\n  dup2\n  0xffffffffffffffffffffffffffffffffffffffff\n  mul\n  not\n  and\n  swap1\n  dup4\n  0xffffffffffffffffffffffffffffffffffffffff\n  and\n  mul\n  or\n  swap1\n  sstore\n  pop\n    /* \"contracts/Hairdressing.sol\":178:8261  contract Hairdressing {... */\n  dataSize(sub_0)\n  dup1\n  dataOffset(sub_0)\n  0x00\n  codecopy\n  0x00\n  return\nstop\n\nsub_0: assembly {\n        /* \"contracts/Hairdressing.sol\":178:8261  contract Hairdressing {... */\n      mstore(0x40, 0x80)\n      callvalue\n      dup1\n      iszero\n      tag_1\n      jumpi\n      0x00\n      dup1\n      revert\n    tag_1:\n      pop\n      jumpi(tag_2, lt(calldatasize, 0x04))\n      shr(0xe0, calldataload(0x00))\n      dup1\n      0xb91c7160\n      gt\n      tag_19\n      jumpi\n      dup1\n      0xc29b2f20\n      gt\n      tag_20\n      jumpi\n      dup1\n      0xc29b2f20\n      eq\n      tag_15\n      jumpi\n      dup1\n      0xed90c7b7\n      eq\n      tag_16\n      jumpi\n      dup1\n      0xef3197c8\n      eq\n      tag_17\n      jumpi\n      dup1\n      0xf851a440\n      eq\n      tag_18\n      jumpi\n      jump(tag_2)\n    tag_20:\n      dup1\n      0xb91c7160\n      eq\n      tag_11\n      jumpi\n      dup1\n      0xbc85b04c\n      eq\n      tag_12\n      jumpi\n      dup1\n      0xbd293dca\n      eq\n      tag_13\n      jumpi\n      dup1\n      0xc22c4f43\n      eq\n      tag_14\n      jumpi\n      jump(tag_2)\n    tag_19:\n      dup1\n      0x75417851\n      gt\n      tag_21\n      jumpi\n      dup1\n      0x75417851\n      eq\n      tag_7\n      jumpi\n      dup1\n      0x7acc0b20\n      eq\n      tag_8\n      jumpi\n      dup1\n      0x90d16cba\n      eq\n      tag_9\n      jumpi\n      dup1\n      0xa06a1f69\n      eq\n      tag_10\n      jumpi\n      jump(tag_2)\n    tag_21:\n      dup1\n      0x1dab301e\n      eq\n      tag_3\n      jumpi\n      dup1\n      0x3ae7f0df\n      eq\n      tag_4\n      jumpi\n      dup1\n      0x528c87d2\n      eq\n      tag_5\n      jumpi\n      dup1\n      0x74e29ee6\n      eq\n      tag_6\n      jumpi\n    tag_2:\n      0x00\n      dup1\n      revert\n        /* \"contracts/Hairdressing.sol\":1750:1790  mapping(uint => Booking) public bookings */\n    tag_3:\n      tag_22\n      0x04\n      dup1\n      calldatasize\n      sub\n      dup2\n      add\n      swap1\n      tag_23\n      swap2\n      swap1\n      tag_24\n      jump\t// in\n    tag_23:\n      tag_25\n      jump\t// in\n    tag_22:\n      mload(0x40)\n      tag_26\n      swap5\n      swap4\n      swap3\n      swap2\n      swap1\n      tag_27\n      jump\t// in\n    tag_26:\n      mload(0x40)\n      dup1\n      swap2\n      sub\n      swap1\n      return\n        /* \"contracts/Hairdressing.sol\":6770:6860  function deleteBooking(uint _bookingId) external bookingExists(_bookingId) {... */\n    tag_4:\n      tag_28\n      0x04\n      dup1\n      calldatasize\n      sub\n      dup2\n      add\n      swap1\n      tag_29\n      swap2\n      swap1\n      tag_24\n      jump\t// in\n    tag_29:\n      tag_30\n      jump\t// in\n    tag_28:\n      stop\n        /* \"contracts/Hairdressing.sol\":1463:1488  uint[] public productList */\n    tag_5:\n      tag_31\n      0x04\n      dup1\n      calldatasize\n      sub\n      dup2\n      add\n      swap1\n      tag_32\n      swap2\n      swap1\n      tag_24\n      jump\t// in\n    tag_32:\n      tag_33\n      jump\t// in\n    tag_31:\n      mload(0x40)\n      tag_34\n      swap2\n      swap1\n      tag_35\n      jump\t// in\n    tag_34:\n      mload(0x40)\n      dup1\n      swap2\n      sub\n      swap1\n      return\n        /* \"contracts/Hairdressing.sol\":5563:5722  function deleteService(uint _serviceId) external onlyAdmin() serviceExists(_serviceId) {... */\n    tag_6:\n      tag_36\n      0x04\n      dup1\n      calldatasize\n      sub\n      dup2\n      add\n      swap1\n      tag_37\n      swap2\n      swap1\n      tag_24\n      jump\t// in\n    tag_37:\n      tag_38\n      jump\t// in\n    tag_36:\n      stop\n        /* \"contracts/Hairdressing.sol\":6961:7401  function getServices() external view returns (Service[] memory) {... */\n    tag_7:\n      tag_39\n      tag_40\n      jump\t// in\n    tag_39:\n      mload(0x40)\n      tag_41\n      swap2\n      swap1\n      tag_42\n      jump\t// in\n    tag_41:\n      mload(0x40)\n      dup1\n      swap2\n      sub\n      swap1\n      return\n        /* \"contracts/Hairdressing.sol\":1318:1358  mapping(uint => Product) public products */\n    tag_8:\n      tag_43\n      0x04\n      dup1\n      calldatasize\n      sub\n      dup2\n      add\n      swap1\n      tag_44\n      swap2\n      swap1\n      tag_24\n      jump\t// in\n    tag_44:\n      tag_45\n      jump\t// in\n    tag_43:\n      mload(0x40)\n      tag_46\n      swap6\n      swap5\n      swap4\n      swap3\n      swap2\n      swap1\n      tag_47\n      jump\t// in\n    tag_46:\n      mload(0x40)\n      dup1\n      swap2\n      sub\n      swap1\n      return\n        /* \"contracts/Hairdressing.sol\":3491:3937  function createProduct(string calldata _name, string calldata _description, uint _price, uint _durability) external onlyAdmin() {... */\n    tag_9:\n      tag_48\n      0x04\n      dup1\n      calldatasize\n      sub\n      dup2\n      add\n      swap1\n      tag_49\n      swap2\n      swap1\n      tag_50\n      jump\t// in\n    tag_49:\n      tag_51\n      jump\t// in\n    tag_48:\n      stop\n        /* \"contracts/Hairdressing.sol\":1895:1920  uint[] public bookingList */\n    tag_10:\n      tag_52\n      0x04\n      dup1\n      calldatasize\n      sub\n      dup2\n      add\n      swap1\n      tag_53\n      swap2\n      swap1\n      tag_24\n      jump\t// in\n    tag_53:\n      tag_54\n      jump\t// in\n    tag_52:\n      mload(0x40)\n      tag_55\n      swap2\n      swap1\n      tag_35\n      jump\t// in\n    tag_55:\n      mload(0x40)\n      dup1\n      swap2\n      sub\n      swap1\n      return\n        /* \"contracts/Hairdressing.sol\":5903:6633  function createBooking(uint _date, uint _serviceId) external serviceExists(_serviceId) {... */\n    tag_11:\n      tag_56\n      0x04\n      dup1\n      calldatasize\n      sub\n      dup2\n      add\n      swap1\n      tag_57\n      swap2\n      swap1\n      tag_58\n      jump\t// in\n    tag_57:\n      tag_59\n      jump\t// in\n    tag_56:\n      stop\n        /* \"contracts/Hairdressing.sol\":4609:5426  function createService(string calldata _name, string calldata _description, uint _price, uint _duration, uint[] calldata _productIds) external onlyAdmin() {... */\n    tag_12:\n      tag_60\n      0x04\n      dup1\n      calldatasize\n      sub\n      dup2\n      add\n      swap1\n      tag_61\n      swap2\n      swap1\n      tag_62\n      jump\t// in\n    tag_61:\n      tag_63\n      jump\t// in\n    tag_60:\n      stop\n        /* \"contracts/Hairdressing.sol\":1004:1029  uint[] public serviceList */\n    tag_13:\n      tag_64\n      0x04\n      dup1\n      calldatasize\n      sub\n      dup2\n      add\n      swap1\n      tag_65\n      swap2\n      swap1\n      tag_24\n      jump\t// in\n    tag_65:\n      tag_66\n      jump\t// in\n    tag_64:\n      mload(0x40)\n      tag_67\n      swap2\n      swap1\n      tag_35\n      jump\t// in\n    tag_67:\n      mload(0x40)\n      dup1\n      swap2\n      sub\n      swap1\n      return\n        /* \"contracts/Hairdressing.sol\":858:898  mapping(uint => Service) public services */\n    tag_14:\n      tag_68\n      0x04\n      dup1\n      calldatasize\n      sub\n      dup2\n      add\n      swap1\n      tag_69\n      swap2\n      swap1\n      tag_24\n      jump\t// in\n    tag_69:\n      tag_70\n      jump\t// in\n    tag_68:\n      mload(0x40)\n      tag_71\n      swap6\n      swap5\n      swap4\n      swap3\n      swap2\n      swap1\n      tag_47\n      jump\t// in\n    tag_71:\n      mload(0x40)\n      dup1\n      swap2\n      sub\n      swap1\n      return\n        /* \"contracts/Hairdressing.sol\":7450:7744  function getProducts() external view returns (Product[] memory) {... */\n    tag_15:\n      tag_72\n      tag_73\n      jump\t// in\n    tag_72:\n      mload(0x40)\n      tag_74\n      swap2\n      swap1\n      tag_75\n      jump\t// in\n    tag_74:\n      mload(0x40)\n      dup1\n      swap2\n      sub\n      swap1\n      return\n        /* \"contracts/Hairdressing.sol\":4074:4225  function deleteProduct(uint _productId) external onlyAdmin() productExists(_productId) {... */\n    tag_16:\n      tag_76\n      0x04\n      dup1\n      calldatasize\n      sub\n      dup2\n      add\n      swap1\n      tag_77\n      swap2\n      swap1\n      tag_24\n      jump\t// in\n    tag_77:\n      tag_78\n      jump\t// in\n    tag_76:\n      stop\n        /* \"contracts/Hairdressing.sol\":7838:8259  function getUserBookings(address _client) external view returns (Booking[] memory) {... */\n    tag_17:\n      tag_79\n      0x04\n      dup1\n      calldatasize\n      sub\n      dup2\n      add\n      swap1\n      tag_80\n      swap2\n      swap1\n      tag_81\n      jump\t// in\n    tag_80:\n      tag_82\n      jump\t// in\n    tag_79:\n      mload(0x40)\n      tag_83\n      swap2\n      swap1\n      tag_84\n      jump\t// in\n    tag_83:\n      mload(0x40)\n      dup1\n      swap2\n      sub\n      swap1\n      return\n        /* \"contracts/Hairdressing.sol\":440:460  address public admin */\n    tag_18:\n      tag_85\n      tag_86\n      jump\t// in\n    tag_85:\n      mload(0x40)\n      tag_87\n      swap2\n      swap1\n      tag_88\n      jump\t// in\n    tag_87:\n      mload(0x40)\n      dup1\n      swap2\n      sub\n      swap1\n      return\n        /* \"contracts/Hairdressing.sol\":1750:1790  mapping(uint => Booking) public bookings */\n    tag_25:\n      mstore(0x20, 0x07)\n      dup1\n      0x00\n      mstore\n      keccak256(0x00, 0x40)\n      0x00\n      swap2\n      pop\n      swap1\n      pop\n      dup1\n      0x00\n      add\n      sload\n      swap1\n      dup1\n      0x01\n      add\n      sload\n      swap1\n      dup1\n      0x02\n      add\n      sload\n      swap1\n      dup1\n      0x03\n      add\n      0x00\n      swap1\n      sload\n      swap1\n      0x0100\n      exp\n      swap1\n      div\n      0xffffffffffffffffffffffffffffffffffffffff\n      and\n      swap1\n      pop\n      dup5\n      jump\t// out\n        /* \"contracts/Hairdressing.sol\":6770:6860  function deleteBooking(uint _bookingId) external bookingExists(_bookingId) {... */\n    tag_30:\n        /* \"contracts/Hairdressing.sol\":6833:6843  _bookingId */\n      dup1\n        /* \"contracts/Hairdressing.sol\":3085:3086  0 */\n      0x00\n        /* \"contracts/Hairdressing.sol\":3072:3082  _bookingId */\n      dup2\n        /* \"contracts/Hairdressing.sol\":3072:3086  _bookingId > 0 */\n      gt\n        /* \"contracts/Hairdressing.sol\":3072:3116  _bookingId > 0 && _bookingId < nextBookingId */\n      dup1\n      iszero\n      tag_90\n      jumpi\n      pop\n        /* \"contracts/Hairdressing.sol\":3103:3116  nextBookingId */\n      sload(0x09)\n        /* \"contracts/Hairdressing.sol\":3090:3100  _bookingId */\n      dup2\n        /* \"contracts/Hairdressing.sol\":3090:3116  _bookingId < nextBookingId */\n      lt\n        /* \"contracts/Hairdressing.sol\":3072:3116  _bookingId > 0 && _bookingId < nextBookingId */\n    tag_90:\n        /* \"contracts/Hairdressing.sol\":3051:3164  require(... */\n      tag_91\n      jumpi\n      mload(0x40)\n      0x08c379a000000000000000000000000000000000000000000000000000000000\n      dup2\n      mstore\n      0x04\n      add\n      tag_92\n      swap1\n      tag_93\n      jump\t// in\n    tag_92:\n      mload(0x40)\n      dup1\n      swap2\n      sub\n      swap1\n      revert\n    tag_91:\n        /* \"contracts/Hairdressing.sol\":6770:6860  function deleteBooking(uint _bookingId) external bookingExists(_bookingId) {... */\n      pop\n      pop\n      jump\t// out\n        /* \"contracts/Hairdressing.sol\":1463:1488  uint[] public productList */\n    tag_33:\n      0x05\n      dup2\n      dup2\n      sload\n      dup2\n      lt\n      tag_95\n      jumpi\n      0x00\n      dup1\n      revert\n    tag_95:\n      swap1\n      0x00\n      mstore\n      keccak256(0x00, 0x20)\n      add\n      0x00\n      swap2\n      pop\n      swap1\n      pop\n      sload\n      dup2\n      jump\t// out\n        /* \"contracts/Hairdressing.sol\":5563:5722  function deleteService(uint _serviceId) external onlyAdmin() serviceExists(_serviceId) {... */\n    tag_38:\n        /* \"contracts/Hairdressing.sol\":2351:2356  admin */\n      0x00\n      dup1\n      sload\n      swap1\n      0x0100\n      exp\n      swap1\n      div\n      0xffffffffffffffffffffffffffffffffffffffff\n      and\n        /* \"contracts/Hairdressing.sol\":2337:2356  msg.sender == admin */\n      0xffffffffffffffffffffffffffffffffffffffff\n      and\n        /* \"contracts/Hairdressing.sol\":2337:2347  msg.sender */\n      caller\n        /* \"contracts/Hairdressing.sol\":2337:2356  msg.sender == admin */\n      0xffffffffffffffffffffffffffffffffffffffff\n      and\n      eq\n        /* \"contracts/Hairdressing.sol\":2329:2371  require(msg.sender == admin, \"Only admin\") */\n      tag_98\n      jumpi\n      mload(0x40)\n      0x08c379a000000000000000000000000000000000000000000000000000000000\n      dup2\n      mstore\n      0x04\n      add\n      tag_99\n      swap1\n      tag_100\n      jump\t// in\n    tag_99:\n      mload(0x40)\n      dup1\n      swap2\n      sub\n      swap1\n      revert\n    tag_98:\n        /* \"contracts/Hairdressing.sol\":5638:5648  _serviceId */\n      dup1\n        /* \"contracts/Hairdressing.sol\":2556:2557  0 */\n      0x00\n        /* \"contracts/Hairdressing.sol\":2543:2553  _serviceId */\n      dup2\n        /* \"contracts/Hairdressing.sol\":2543:2557  _serviceId > 0 */\n      gt\n        /* \"contracts/Hairdressing.sol\":2543:2587  _serviceId > 0 && _serviceId < nextServiceId */\n      dup1\n      iszero\n      tag_102\n      jumpi\n      pop\n        /* \"contracts/Hairdressing.sol\":2574:2587  nextServiceId */\n      sload(0x03)\n        /* \"contracts/Hairdressing.sol\":2561:2571  _serviceId */\n      dup2\n        /* \"contracts/Hairdressing.sol\":2561:2587  _serviceId < nextServiceId */\n      lt\n        /* \"contracts/Hairdressing.sol\":2543:2587  _serviceId > 0 && _serviceId < nextServiceId */\n    tag_102:\n        /* \"contracts/Hairdressing.sol\":2522:2635  require(... */\n      tag_103\n      jumpi\n      mload(0x40)\n      0x08c379a000000000000000000000000000000000000000000000000000000000\n      dup2\n      mstore\n      0x04\n      add\n      tag_104\n      swap1\n      tag_105\n      jump\t// in\n    tag_104:\n      mload(0x40)\n      dup1\n      swap2\n      sub\n      swap1\n      revert\n    tag_103:\n        /* \"contracts/Hairdressing.sol\":2381:2382  _ */\n      pop\n        /* \"contracts/Hairdressing.sol\":5563:5722  function deleteService(uint _serviceId) external onlyAdmin() serviceExists(_serviceId) {... */\n      pop\n      jump\t// out\n        /* \"contracts/Hairdressing.sol\":6961:7401  function getServices() external view returns (Service[] memory) {... */\n    tag_40:\n        /* \"contracts/Hairdressing.sol\":7007:7023  Service[] memory */\n      0x60\n        /* \"contracts/Hairdressing.sol\":7052:7078  Service[] memory _services */\n      0x00\n        /* \"contracts/Hairdressing.sol\":7095:7106  serviceList */\n      0x02\n        /* \"contracts/Hairdressing.sol\":7095:7113  serviceList.length */\n      dup1\n      sload\n      swap1\n      pop\n        /* \"contracts/Hairdressing.sol\":7081:7114  new Service[](serviceList.length) */\n      0xffffffffffffffff\n      dup2\n      gt\n      iszero\n      tag_108\n      jumpi\n      tag_109\n      tag_110\n      jump\t// in\n    tag_109:\n    tag_108:\n      mload(0x40)\n      swap1\n      dup1\n      dup3\n      mstore\n      dup1\n      0x20\n      mul\n      0x20\n      add\n      dup3\n      add\n      0x40\n      mstore\n      dup1\n      iszero\n      tag_111\n      jumpi\n      dup2\n      0x20\n      add\n    tag_112:\n      tag_113\n      tag_114\n      jump\t// in\n    tag_113:\n      dup2\n      mstore\n      0x20\n      add\n      swap1\n      0x01\n      swap1\n      sub\n      swap1\n      dup2\n      tag_112\n      jumpi\n      swap1\n      pop\n    tag_111:\n      pop\n        /* \"contracts/Hairdressing.sol\":7052:7114  Service[] memory _services = new Service[](serviceList.length) */\n      swap1\n      pop\n        /* \"contracts/Hairdressing.sol\":7130:7136  uint i */\n      0x00\n        /* \"contracts/Hairdressing.sol\":7125:7368  for (uint i = 0; i < serviceList.length; i++) {... */\n    tag_115:\n        /* \"contracts/Hairdressing.sol\":7146:7157  serviceList */\n      0x02\n        /* \"contracts/Hairdressing.sol\":7146:7164  serviceList.length */\n      dup1\n      sload\n      swap1\n      pop\n        /* \"contracts/Hairdressing.sol\":7142:7143  i */\n      dup2\n        /* \"contracts/Hairdressing.sol\":7142:7164  i < serviceList.length */\n      lt\n        /* \"contracts/Hairdressing.sol\":7125:7368  for (uint i = 0; i < serviceList.length; i++) {... */\n      iszero\n      tag_116\n      jumpi\n        /* \"contracts/Hairdressing.sol\":7166:7169  i++ */\n      dup1\n      dup1\n      tag_118\n      swap1\n      tag_119\n      jump\t// in\n    tag_118:\n      swap2\n      pop\n      pop\n        /* \"contracts/Hairdressing.sol\":7125:7368  for (uint i = 0; i < serviceList.length; i++) {... */\n      jump(tag_115)\n    tag_116:\n      pop\n        /* \"contracts/Hairdressing.sol\":7385:7394  _services */\n      dup1\n        /* \"contracts/Hairdressing.sol\":7378:7394  return _services */\n      swap2\n      pop\n      pop\n        /* \"contracts/Hairdressing.sol\":6961:7401  function getServices() external view returns (Service[] memory) {... */\n      swap1\n      jump\t// out\n        /* \"contracts/Hairdressing.sol\":1318:1358  mapping(uint => Product) public products */\n    tag_45:\n      mstore(0x20, 0x04)\n      dup1\n      0x00\n      mstore\n      keccak256(0x00, 0x40)\n      0x00\n      swap2\n      pop\n      swap1\n      pop\n      dup1\n      0x00\n      add\n      sload\n      swap1\n      dup1\n      0x01\n      add\n      dup1\n      sload\n      tag_120\n      swap1\n      tag_121\n      jump\t// in\n    tag_120:\n      dup1\n      0x1f\n      add\n      0x20\n      dup1\n      swap2\n      div\n      mul\n      0x20\n      add\n      mload(0x40)\n      swap1\n      dup2\n      add\n      0x40\n      mstore\n      dup1\n      swap3\n      swap2\n      swap1\n      dup2\n      dup2\n      mstore\n      0x20\n      add\n      dup3\n      dup1\n      sload\n      tag_122\n      swap1\n      tag_121\n      jump\t// in\n    tag_122:\n      dup1\n      iszero\n      tag_123\n      jumpi\n      dup1\n      0x1f\n      lt\n      tag_124\n      jumpi\n      0x0100\n      dup1\n      dup4\n      sload\n      div\n      mul\n      dup4\n      mstore\n      swap2\n      0x20\n      add\n      swap2\n      jump(tag_123)\n    tag_124:\n      dup3\n      add\n      swap2\n      swap1\n      0x00\n      mstore\n      keccak256(0x00, 0x20)\n      swap1\n    tag_125:\n      dup2\n      sload\n      dup2\n      mstore\n      swap1\n      0x01\n      add\n      swap1\n      0x20\n      add\n      dup1\n      dup4\n      gt\n      tag_125\n      jumpi\n      dup3\n      swap1\n      sub\n      0x1f\n      and\n      dup3\n      add\n      swap2\n    tag_123:\n      pop\n      pop\n      pop\n      pop\n      pop\n      swap1\n      dup1\n      0x02\n      add\n      dup1\n      sload\n      tag_126\n      swap1\n      tag_121\n      jump\t// in\n    tag_126:\n      dup1\n      0x1f\n      add\n      0x20\n      dup1\n      swap2\n      div\n      mul\n      0x20\n      add\n      mload(0x40)\n      swap1\n      dup2\n      add\n      0x40\n      mstore\n      dup1\n      swap3\n      swap2\n      swap1\n      dup2\n      dup2\n      mstore\n      0x20\n      add\n      dup3\n      dup1\n      sload\n      tag_127\n      swap1\n      tag_121\n      jump\t// in\n    tag_127:\n      dup1\n      iszero\n      tag_128\n      jumpi\n      dup1\n      0x1f\n      lt\n      tag_129\n      jumpi\n      0x0100\n      dup1\n      dup4\n      sload\n      div\n      mul\n      dup4\n      mstore\n      swap2\n      0x20\n      add\n      swap2\n      jump(tag_128)\n    tag_129:\n      dup3\n      add\n      swap2\n      swap1\n      0x00\n      mstore\n      keccak256(0x00, 0x20)\n      swap1\n    tag_130:\n      dup2\n      sload\n      dup2\n      mstore\n      swap1\n      0x01\n      add\n      swap1\n      0x20\n      add\n      dup1\n      dup4\n      gt\n      tag_130\n      jumpi\n      dup3\n      swap1\n      sub\n      0x1f\n      and\n      dup3\n      add\n      swap2\n    tag_128:\n      pop\n      pop\n      pop\n      pop\n      pop\n      swap1\n      dup1\n      0x03\n      add\n      sload\n      swap1\n      dup1\n      0x04\n      add\n      sload\n      swap1\n      pop\n      dup6\n      jump\t// out\n        /* \"contracts/Hairdressing.sol\":3491:3937  function createProduct(string calldata _name, string calldata _description, uint _price, uint _durability) external onlyAdmin() {... */\n    tag_51:\n        /* \"contracts/Hairdressing.sol\":2351:2356  admin */\n      0x00\n      dup1\n      sload\n      swap1\n      0x0100\n      exp\n      swap1\n      div\n      0xffffffffffffffffffffffffffffffffffffffff\n      and\n        /* \"contracts/Hairdressing.sol\":2337:2356  msg.sender == admin */\n      0xffffffffffffffffffffffffffffffffffffffff\n      and\n        /* \"contracts/Hairdressing.sol\":2337:2347  msg.sender */\n      caller\n        /* \"contracts/Hairdressing.sol\":2337:2356  msg.sender == admin */\n      0xffffffffffffffffffffffffffffffffffffffff\n      and\n      eq\n        /* \"contracts/Hairdressing.sol\":2329:2371  require(msg.sender == admin, \"Only admin\") */\n      tag_132\n      jumpi\n      mload(0x40)\n      0x08c379a000000000000000000000000000000000000000000000000000000000\n      dup2\n      mstore\n      0x04\n      add\n      tag_133\n      swap1\n      tag_100\n      jump\t// in\n    tag_133:\n      mload(0x40)\n      dup1\n      swap2\n      sub\n      swap1\n      revert\n    tag_132:\n        /* \"contracts/Hairdressing.sol\":3655:3789  Product(... */\n      mload(0x40)\n      dup1\n      0xa0\n      add\n      0x40\n      mstore\n      dup1\n        /* \"contracts/Hairdressing.sol\":3676:3689  nextProductId */\n      sload(0x06)\n        /* \"contracts/Hairdressing.sol\":3655:3789  Product(... */\n      dup2\n      mstore\n      0x20\n      add\n        /* \"contracts/Hairdressing.sol\":3703:3708  _name */\n      dup8\n      dup8\n        /* \"contracts/Hairdressing.sol\":3655:3789  Product(... */\n      dup1\n      dup1\n      0x1f\n      add\n      0x20\n      dup1\n      swap2\n      div\n      mul\n      0x20\n      add\n      mload(0x40)\n      swap1\n      dup2\n      add\n      0x40\n      mstore\n      dup1\n      swap4\n      swap3\n      swap2\n      swap1\n      dup2\n      dup2\n      mstore\n      0x20\n      add\n      dup4\n      dup4\n      dup1\n      dup3\n      dup5\n      calldatacopy\n      0x00\n      dup2\n      dup5\n      add\n      mstore\n      not(0x1f)\n      0x1f\n      dup3\n      add\n      and\n      swap1\n      pop\n      dup1\n      dup4\n      add\n      swap3\n      pop\n      pop\n      pop\n      pop\n      pop\n      pop\n      pop\n      dup2\n      mstore\n      0x20\n      add\n        /* \"contracts/Hairdressing.sol\":3722:3734  _description */\n      dup6\n      dup6\n        /* \"contracts/Hairdressing.sol\":3655:3789  Product(... */\n      dup1\n      dup1\n      0x1f\n      add\n      0x20\n      dup1\n      swap2\n      div\n      mul\n      0x20\n      add\n      mload(0x40)\n      swap1\n      dup2\n      add\n      0x40\n      mstore\n      dup1\n      swap4\n      swap3\n      swap2\n      swap1\n      dup2\n      dup2\n      mstore\n      0x20\n      add\n      dup4\n      dup4\n      dup1\n      dup3\n      dup5\n      calldatacopy\n      0x00\n      dup2\n      dup5\n      add\n      mstore\n      not(0x1f)\n      0x1f\n      dup3\n      add\n      and\n      swap1\n      pop\n      dup1\n      dup4\n      add\n      swap3\n      pop\n      pop\n      pop\n      pop\n      pop\n      pop\n      pop\n      dup2\n      mstore\n      0x20\n      add\n        /* \"contracts/Hairdressing.sol\":3748:3754  _price */\n      dup4\n        /* \"contracts/Hairdressing.sol\":3655:3789  Product(... */\n      dup2\n      mstore\n      0x20\n      add\n        /* \"contracts/Hairdressing.sol\":3768:3779  _durability */\n      dup3\n        /* \"contracts/Hairdressing.sol\":3655:3789  Product(... */\n      dup2\n      mstore\n      pop\n        /* \"contracts/Hairdressing.sol\":3629:3637  products */\n      0x04\n        /* \"contracts/Hairdressing.sol\":3629:3652  products[nextProductId] */\n      0x00\n        /* \"contracts/Hairdressing.sol\":3638:3651  nextProductId */\n      sload(0x06)\n        /* \"contracts/Hairdressing.sol\":3629:3652  products[nextProductId] */\n      dup2\n      mstore\n      0x20\n      add\n      swap1\n      dup2\n      mstore\n      0x20\n      add\n      0x00\n      keccak256\n        /* \"contracts/Hairdressing.sol\":3629:3789  products[nextProductId] = Product(... */\n      0x00\n      dup3\n      add\n      mload\n      dup2\n      0x00\n      add\n      sstore\n      0x20\n      dup3\n      add\n      mload\n      dup2\n      0x01\n      add\n      swap1\n      dup2\n      tag_135\n      swap2\n      swap1\n      tag_136\n      jump\t// in\n    tag_135:\n      pop\n      0x40\n      dup3\n      add\n      mload\n      dup2\n      0x02\n      add\n      swap1\n      dup2\n      tag_137\n      swap2\n      swap1\n      tag_136\n      jump\t// in\n    tag_137:\n      pop\n      0x60\n      dup3\n      add\n      mload\n      dup2\n      0x03\n      add\n      sstore\n      0x80\n      dup3\n      add\n      mload\n      dup2\n      0x04\n      add\n      sstore\n      swap1\n      pop\n      pop\n        /* \"contracts/Hairdressing.sol\":3832:3843  productList */\n      0x05\n        /* \"contracts/Hairdressing.sol\":3849:3862  nextProductId */\n      sload(0x06)\n        /* \"contracts/Hairdressing.sol\":3832:3863  productList.push(nextProductId) */\n      swap1\n      dup1\n      0x01\n      dup2\n      sload\n      add\n      dup1\n      dup3\n      sstore\n      dup1\n      swap2\n      pop\n      pop\n      0x01\n      swap1\n      sub\n      swap1\n      0x00\n      mstore\n      keccak256(0x00, 0x20)\n      add\n      0x00\n      swap1\n      swap2\n      swap1\n      swap2\n      swap1\n      swap2\n      pop\n      sstore\n        /* \"contracts/Hairdressing.sol\":3915:3928  nextProductId */\n      0x06\n      0x00\n        /* \"contracts/Hairdressing.sol\":3915:3930  nextProductId++ */\n      dup2\n      sload\n      dup1\n      swap3\n      swap2\n      swap1\n      tag_139\n      swap1\n      tag_119\n      jump\t// in\n    tag_139:\n      swap2\n      swap1\n      pop\n      sstore\n      pop\n        /* \"contracts/Hairdressing.sol\":3491:3937  function createProduct(string calldata _name, string calldata _description, uint _price, uint _durability) external onlyAdmin() {... */\n      pop\n      pop\n      pop\n      pop\n      pop\n      pop\n      jump\t// out\n        /* \"contracts/Hairdressing.sol\":1895:1920  uint[] public bookingList */\n    tag_54:\n      0x08\n      dup2\n      dup2\n      sload\n      dup2\n      lt\n      tag_140\n      jumpi\n      0x00\n      dup1\n      revert\n    tag_140:\n      swap1\n      0x00\n      mstore\n      keccak256(0x00, 0x20)\n      add\n      0x00\n      swap2\n      pop\n      swap1\n      pop\n      sload\n      dup2\n      jump\t// out\n        /* \"contracts/Hairdressing.sol\":5903:6633  function createBooking(uint _date, uint _serviceId) external serviceExists(_serviceId) {... */\n    tag_59:\n        /* \"contracts/Hairdressing.sol\":5978:5988  _serviceId */\n      dup1\n        /* \"contracts/Hairdressing.sol\":2556:2557  0 */\n      0x00\n        /* \"contracts/Hairdressing.sol\":2543:2553  _serviceId */\n      dup2\n        /* \"contracts/Hairdressing.sol\":2543:2557  _serviceId > 0 */\n      gt\n        /* \"contracts/Hairdressing.sol\":2543:2587  _serviceId > 0 && _serviceId < nextServiceId */\n      dup1\n      iszero\n      tag_143\n      jumpi\n      pop\n        /* \"contracts/Hairdressing.sol\":2574:2587  nextServiceId */\n      sload(0x03)\n        /* \"contracts/Hairdressing.sol\":2561:2571  _serviceId */\n      dup2\n        /* \"contracts/Hairdressing.sol\":2561:2587  _serviceId < nextServiceId */\n      lt\n        /* \"contracts/Hairdressing.sol\":2543:2587  _serviceId > 0 && _serviceId < nextServiceId */\n    tag_143:\n        /* \"contracts/Hairdressing.sol\":2522:2635  require(... */\n      tag_144\n      jumpi\n      mload(0x40)\n      0x08c379a000000000000000000000000000000000000000000000000000000000\n      dup2\n      mstore\n      0x04\n      add\n      tag_145\n      swap1\n      tag_105\n      jump\t// in\n    tag_145:\n      mload(0x40)\n      dup1\n      swap2\n      sub\n      swap1\n      revert\n    tag_144:\n        /* \"contracts/Hairdressing.sol\":6265:6377  Booking(... */\n      mload(0x40)\n      dup1\n      0x80\n      add\n      0x40\n      mstore\n      dup1\n        /* \"contracts/Hairdressing.sol\":6286:6299  nextBookingId */\n      sload(0x09)\n        /* \"contracts/Hairdressing.sol\":6265:6377  Booking(... */\n      dup2\n      mstore\n      0x20\n      add\n        /* \"contracts/Hairdressing.sol\":6313:6318  _date */\n      dup5\n        /* \"contracts/Hairdressing.sol\":6265:6377  Booking(... */\n      dup2\n      mstore\n      0x20\n      add\n        /* \"contracts/Hairdressing.sol\":6333:6343  _serviceId */\n      dup4\n        /* \"contracts/Hairdressing.sol\":6265:6377  Booking(... */\n      dup2\n      mstore\n      0x20\n      add\n        /* \"contracts/Hairdressing.sol\":6357:6367  msg.sender */\n      caller\n        /* \"contracts/Hairdressing.sol\":6265:6377  Booking(... */\n      0xffffffffffffffffffffffffffffffffffffffff\n      and\n      dup2\n      mstore\n      pop\n        /* \"contracts/Hairdressing.sol\":6239:6247  bookings */\n      0x07\n        /* \"contracts/Hairdressing.sol\":6239:6262  bookings[nextBookingId] */\n      0x00\n        /* \"contracts/Hairdressing.sol\":6248:6261  nextBookingId */\n      sload(0x09)\n        /* \"contracts/Hairdressing.sol\":6239:6262  bookings[nextBookingId] */\n      dup2\n      mstore\n      0x20\n      add\n      swap1\n      dup2\n      mstore\n      0x20\n      add\n      0x00\n      keccak256\n        /* \"contracts/Hairdressing.sol\":6239:6377  bookings[nextBookingId] = Booking(... */\n      0x00\n      dup3\n      add\n      mload\n      dup2\n      0x00\n      add\n      sstore\n      0x20\n      dup3\n      add\n      mload\n      dup2\n      0x01\n      add\n      sstore\n      0x40\n      dup3\n      add\n      mload\n      dup2\n      0x02\n      add\n      sstore\n      0x60\n      dup3\n      add\n      mload\n      dup2\n      0x03\n      add\n      exp(0x0100, 0x00)\n      dup2\n      sload\n      dup2\n      0xffffffffffffffffffffffffffffffffffffffff\n      mul\n      not\n      and\n      swap1\n      dup4\n      0xffffffffffffffffffffffffffffffffffffffff\n      and\n      mul\n      or\n      swap1\n      sstore\n      pop\n      swap1\n      pop\n      pop\n        /* \"contracts/Hairdressing.sol\":6528:6539  bookingList */\n      0x08\n        /* \"contracts/Hairdressing.sol\":6545:6558  nextBookingId */\n      sload(0x09)\n        /* \"contracts/Hairdressing.sol\":6528:6559  bookingList.push(nextBookingId) */\n      swap1\n      dup1\n      0x01\n      dup2\n      sload\n      add\n      dup1\n      dup3\n      sstore\n      dup1\n      swap2\n      pop\n      pop\n      0x01\n      swap1\n      sub\n      swap1\n      0x00\n      mstore\n      keccak256(0x00, 0x20)\n      add\n      0x00\n      swap1\n      swap2\n      swap1\n      swap2\n      swap1\n      swap2\n      pop\n      sstore\n        /* \"contracts/Hairdressing.sol\":6611:6624  nextBookingId */\n      0x09\n      0x00\n        /* \"contracts/Hairdressing.sol\":6611:6626  nextBookingId++ */\n      dup2\n      sload\n      dup1\n      swap3\n      swap2\n      swap1\n      tag_148\n      swap1\n      tag_119\n      jump\t// in\n    tag_148:\n      swap2\n      swap1\n      pop\n      sstore\n      pop\n        /* \"contracts/Hairdressing.sol\":5903:6633  function createBooking(uint _date, uint _serviceId) external serviceExists(_serviceId) {... */\n      pop\n      pop\n      pop\n      jump\t// out\n        /* \"contracts/Hairdressing.sol\":4609:5426  function createService(string calldata _name, string calldata _description, uint _price, uint _duration, uint[] calldata _productIds) external onlyAdmin() {... */\n    tag_63:\n        /* \"contracts/Hairdressing.sol\":2351:2356  admin */\n      0x00\n      dup1\n      sload\n      swap1\n      0x0100\n      exp\n      swap1\n      div\n      0xffffffffffffffffffffffffffffffffffffffff\n      and\n        /* \"contracts/Hairdressing.sol\":2337:2356  msg.sender == admin */\n      0xffffffffffffffffffffffffffffffffffffffff\n      and\n        /* \"contracts/Hairdressing.sol\":2337:2347  msg.sender */\n      caller\n        /* \"contracts/Hairdressing.sol\":2337:2356  msg.sender == admin */\n      0xffffffffffffffffffffffffffffffffffffffff\n      and\n      eq\n        /* \"contracts/Hairdressing.sol\":2329:2371  require(msg.sender == admin, \"Only admin\") */\n      tag_150\n      jumpi\n      mload(0x40)\n      0x08c379a000000000000000000000000000000000000000000000000000000000\n      dup2\n      mstore\n      0x04\n      add\n      tag_151\n      swap1\n      tag_100\n      jump\t// in\n    tag_151:\n      mload(0x40)\n      dup1\n      swap2\n      sub\n      swap1\n      revert\n    tag_150:\n        /* \"contracts/Hairdressing.sol\":4868:4877  5 minutes */\n      0x012c\n        /* \"contracts/Hairdressing.sol\":4855:4864  _duration */\n      dup4\n        /* \"contracts/Hairdressing.sol\":4855:4877  _duration >= 5 minutes */\n      lt\n      iszero\n        /* \"contracts/Hairdressing.sol\":4855:4901  _duration >= 5 minutes && _duration <= 2 hours */\n      dup1\n      iszero\n      tag_153\n      jumpi\n      pop\n        /* \"contracts/Hairdressing.sol\":4894:4901  2 hours */\n      0x1c20\n        /* \"contracts/Hairdressing.sol\":4881:4890  _duration */\n      dup4\n        /* \"contracts/Hairdressing.sol\":4881:4901  _duration <= 2 hours */\n      gt\n      iszero\n        /* \"contracts/Hairdressing.sol\":4855:4901  _duration >= 5 minutes && _duration <= 2 hours */\n    tag_153:\n        /* \"contracts/Hairdressing.sol\":4834:4975  require(... */\n      tag_154\n      jumpi\n      mload(0x40)\n      0x08c379a000000000000000000000000000000000000000000000000000000000\n      dup2\n      mstore\n      0x04\n      add\n      tag_155\n      swap1\n      tag_156\n      jump\t// in\n    tag_155:\n      mload(0x40)\n      dup1\n      swap2\n      sub\n      swap1\n      revert\n    tag_154:\n        /* \"contracts/Hairdressing.sol\":5012:5169  Service(... */\n      mload(0x40)\n      dup1\n      0xc0\n      add\n      0x40\n      mstore\n      dup1\n        /* \"contracts/Hairdressing.sol\":5033:5046  nextServiceId */\n      sload(0x03)\n        /* \"contracts/Hairdressing.sol\":5012:5169  Service(... */\n      dup2\n      mstore\n      0x20\n      add\n        /* \"contracts/Hairdressing.sol\":5060:5065  _name */\n      dup10\n      dup10\n        /* \"contracts/Hairdressing.sol\":5012:5169  Service(... */\n      dup1\n      dup1\n      0x1f\n      add\n      0x20\n      dup1\n      swap2\n      div\n      mul\n      0x20\n      add\n      mload(0x40)\n      swap1\n      dup2\n      add\n      0x40\n      mstore\n      dup1\n      swap4\n      swap3\n      swap2\n      swap1\n      dup2\n      dup2\n      mstore\n      0x20\n      add\n      dup4\n      dup4\n      dup1\n      dup3\n      dup5\n      calldatacopy\n      0x00\n      dup2\n      dup5\n      add\n      mstore\n      not(0x1f)\n      0x1f\n      dup3\n      add\n      and\n      swap1\n      pop\n      dup1\n      dup4\n      add\n      swap3\n      pop\n      pop\n      pop\n      pop\n      pop\n      pop\n      pop\n      dup2\n      mstore\n      0x20\n      add\n        /* \"contracts/Hairdressing.sol\":5079:5091  _description */\n      dup8\n      dup8\n        /* \"contracts/Hairdressing.sol\":5012:5169  Service(... */\n      dup1\n      dup1\n      0x1f\n      add\n      0x20\n      dup1\n      swap2\n      div\n      mul\n      0x20\n      add\n      mload(0x40)\n      swap1\n      dup2\n      add\n      0x40\n      mstore\n      dup1\n      swap4\n      swap3\n      swap2\n      swap1\n      dup2\n      dup2\n      mstore\n      0x20\n      add\n      dup4\n      dup4\n      dup1\n      dup3\n      dup5\n      calldatacopy\n      0x00\n      dup2\n      dup5\n      add\n      mstore\n      not(0x1f)\n      0x1f\n      dup3\n      add\n      and\n      swap1\n      pop\n      dup1\n      dup4\n      add\n      swap3\n      pop\n      pop\n      pop\n      pop\n      pop\n      pop\n      pop\n      dup2\n      mstore\n      0x20\n      add\n        /* \"contracts/Hairdressing.sol\":5105:5111  _price */\n      dup6\n        /* \"contracts/Hairdressing.sol\":5012:5169  Service(... */\n      dup2\n      mstore\n      0x20\n      add\n        /* \"contracts/Hairdressing.sol\":5125:5134  _duration */\n      dup5\n        /* \"contracts/Hairdressing.sol\":5012:5169  Service(... */\n      dup2\n      mstore\n      0x20\n      add\n        /* \"contracts/Hairdressing.sol\":5148:5159  _productIds */\n      dup4\n      dup4\n        /* \"contracts/Hairdressing.sol\":5012:5169  Service(... */\n      dup1\n      dup1\n      0x20\n      mul\n      0x20\n      add\n      mload(0x40)\n      swap1\n      dup2\n      add\n      0x40\n      mstore\n      dup1\n      swap4\n      swap3\n      swap2\n      swap1\n      dup2\n      dup2\n      mstore\n      0x20\n      add\n      dup4\n      dup4\n      0x20\n      mul\n      dup1\n      dup3\n      dup5\n      calldatacopy\n      0x00\n      dup2\n      dup5\n      add\n      mstore\n      not(0x1f)\n      0x1f\n      dup3\n      add\n      and\n      swap1\n      pop\n      dup1\n      dup4\n      add\n      swap3\n      pop\n      pop\n      pop\n      pop\n      pop\n      pop\n      pop\n      dup2\n      mstore\n      pop\n        /* \"contracts/Hairdressing.sol\":4986:4994  services */\n      0x01\n        /* \"contracts/Hairdressing.sol\":4986:5009  services[nextServiceId] */\n      0x00\n        /* \"contracts/Hairdressing.sol\":4995:5008  nextServiceId */\n      sload(0x03)\n        /* \"contracts/Hairdressing.sol\":4986:5009  services[nextServiceId] */\n      dup2\n      mstore\n      0x20\n      add\n      swap1\n      dup2\n      mstore\n      0x20\n      add\n      0x00\n      keccak256\n        /* \"contracts/Hairdressing.sol\":4986:5169  services[nextServiceId] = Service(... */\n      0x00\n      dup3\n      add\n      mload\n      dup2\n      0x00\n      add\n      sstore\n      0x20\n      dup3\n      add\n      mload\n      dup2\n      0x01\n      add\n      swap1\n      dup2\n      tag_157\n      swap2\n      swap1\n      tag_136\n      jump\t// in\n    tag_157:\n      pop\n      0x40\n      dup3\n      add\n      mload\n      dup2\n      0x02\n      add\n      swap1\n      dup2\n      tag_158\n      swap2\n      swap1\n      tag_136\n      jump\t// in\n    tag_158:\n      pop\n      0x60\n      dup3\n      add\n      mload\n      dup2\n      0x03\n      add\n      sstore\n      0x80\n      dup3\n      add\n      mload\n      dup2\n      0x04\n      add\n      sstore\n      0xa0\n      dup3\n      add\n      mload\n      dup2\n      0x05\n      add\n      swap1\n      dup1\n      mload\n      swap1\n      0x20\n      add\n      swap1\n      tag_159\n      swap3\n      swap2\n      swap1\n      tag_160\n      jump\t// in\n    tag_159:\n      pop\n      swap1\n      pop\n      pop\n        /* \"contracts/Hairdressing.sol\":5321:5332  serviceList */\n      0x02\n        /* \"contracts/Hairdressing.sol\":5338:5351  nextServiceId */\n      sload(0x03)\n        /* \"contracts/Hairdressing.sol\":5321:5352  serviceList.push(nextServiceId) */\n      swap1\n      dup1\n      0x01\n      dup2\n      sload\n      add\n      dup1\n      dup3\n      sstore\n      dup1\n      swap2\n      pop\n      pop\n      0x01\n      swap1\n      sub\n      swap1\n      0x00\n      mstore\n      keccak256(0x00, 0x20)\n      add\n      0x00\n      swap1\n      swap2\n      swap1\n      swap2\n      swap1\n      swap2\n      pop\n      sstore\n        /* \"contracts/Hairdressing.sol\":5404:5417  nextServiceId */\n      0x03\n      0x00\n        /* \"contracts/Hairdressing.sol\":5404:5419  nextServiceId++ */\n      dup2\n      sload\n      dup1\n      swap3\n      swap2\n      swap1\n      tag_162\n      swap1\n      tag_119\n      jump\t// in\n    tag_162:\n      swap2\n      swap1\n      pop\n      sstore\n      pop\n        /* \"contracts/Hairdressing.sol\":4609:5426  function createService(string calldata _name, string calldata _description, uint _price, uint _duration, uint[] calldata _productIds) external onlyAdmin() {... */\n      pop\n      pop\n      pop\n      pop\n      pop\n      pop\n      pop\n      pop\n      jump\t// out\n        /* \"contracts/Hairdressing.sol\":1004:1029  uint[] public serviceList */\n    tag_66:\n      0x02\n      dup2\n      dup2\n      sload\n      dup2\n      lt\n      tag_163\n      jumpi\n      0x00\n      dup1\n      revert\n    tag_163:\n      swap1\n      0x00\n      mstore\n      keccak256(0x00, 0x20)\n      add\n      0x00\n      swap2\n      pop\n      swap1\n      pop\n      sload\n      dup2\n      jump\t// out\n        /* \"contracts/Hairdressing.sol\":858:898  mapping(uint => Service) public services */\n    tag_70:\n      mstore(0x20, 0x01)\n      dup1\n      0x00\n      mstore\n      keccak256(0x00, 0x40)\n      0x00\n      swap2\n      pop\n      swap1\n      pop\n      dup1\n      0x00\n      add\n      sload\n      swap1\n      dup1\n      0x01\n      add\n      dup1\n      sload\n      tag_165\n      swap1\n      tag_121\n      jump\t// in\n    tag_165:\n      dup1\n      0x1f\n      add\n      0x20\n      dup1\n      swap2\n      div\n      mul\n      0x20\n      add\n      mload(0x40)\n      swap1\n      dup2\n      add\n      0x40\n      mstore\n      dup1\n      swap3\n      swap2\n      swap1\n      dup2\n      dup2\n      mstore\n      0x20\n      add\n      dup3\n      dup1\n      sload\n      tag_166\n      swap1\n      tag_121\n      jump\t// in\n    tag_166:\n      dup1\n      iszero\n      tag_167\n      jumpi\n      dup1\n      0x1f\n      lt\n      tag_168\n      jumpi\n      0x0100\n      dup1\n      dup4\n      sload\n      div\n      mul\n      dup4\n      mstore\n      swap2\n      0x20\n      add\n      swap2\n      jump(tag_167)\n    tag_168:\n      dup3\n      add\n      swap2\n      swap1\n      0x00\n      mstore\n      keccak256(0x00, 0x20)\n      swap1\n    tag_169:\n      dup2\n      sload\n      dup2\n      mstore\n      swap1\n      0x01\n      add\n      swap1\n      0x20\n      add\n      dup1\n      dup4\n      gt\n      tag_169\n      jumpi\n      dup3\n      swap1\n      sub\n      0x1f\n      and\n      dup3\n      add\n      swap2\n    tag_167:\n      pop\n      pop\n      pop\n      pop\n      pop\n      swap1\n      dup1\n      0x02\n      add\n      dup1\n      sload\n      tag_170\n      swap1\n      tag_121\n      jump\t// in\n    tag_170:\n      dup1\n      0x1f\n      add\n      0x20\n      dup1\n      swap2\n      div\n      mul\n      0x20\n      add\n      mload(0x40)\n      swap1\n      dup2\n      add\n      0x40\n      mstore\n      dup1\n      swap3\n      swap2\n      swap1\n      dup2\n      dup2\n      mstore\n      0x20\n      add\n      dup3\n      dup1\n      sload\n      tag_171\n      swap1\n      tag_121\n      jump\t// in\n    tag_171:\n      dup1\n      iszero\n      tag_172\n      jumpi\n      dup1\n      0x1f\n      lt\n      tag_173\n      jumpi\n      0x0100\n      dup1\n      dup4\n      sload\n      div\n      mul\n      dup4\n      mstore\n      swap2\n      0x20\n      add\n      swap2\n      jump(tag_172)\n    tag_173:\n      dup3\n      add\n      swap2\n      swap1\n      0x00\n      mstore\n      keccak256(0x00, 0x20)\n      swap1\n    tag_174:\n      dup2\n      sload\n      dup2\n      mstore\n      swap1\n      0x01\n      add\n      swap1\n      0x20\n      add\n      dup1\n      dup4\n      gt\n      tag_174\n      jumpi\n      dup3\n      swap1\n      sub\n      0x1f\n      and\n      dup3\n      add\n      swap2\n    tag_172:\n      pop\n      pop\n      pop\n      pop\n      pop\n      swap1\n      dup1\n      0x03\n      add\n      sload\n      swap1\n      dup1\n      0x04\n      add\n      sload\n      swap1\n      pop\n      dup6\n      jump\t// out\n        /* \"contracts/Hairdressing.sol\":7450:7744  function getProducts() external view returns (Product[] memory) {... */\n    tag_73:\n        /* \"contracts/Hairdressing.sol\":7496:7512  Product[] memory */\n      0x60\n        /* \"contracts/Hairdressing.sol\":7524:7550  Product[] memory _products */\n      0x00\n        /* \"contracts/Hairdressing.sol\":7567:7578  productList */\n      0x05\n        /* \"contracts/Hairdressing.sol\":7567:7585  productList.length */\n      dup1\n      sload\n      swap1\n      pop\n        /* \"contracts/Hairdressing.sol\":7553:7586  new Product[](productList.length) */\n      0xffffffffffffffff\n      dup2\n      gt\n      iszero\n      tag_176\n      jumpi\n      tag_177\n      tag_110\n      jump\t// in\n    tag_177:\n    tag_176:\n      mload(0x40)\n      swap1\n      dup1\n      dup3\n      mstore\n      dup1\n      0x20\n      mul\n      0x20\n      add\n      dup3\n      add\n      0x40\n      mstore\n      dup1\n      iszero\n      tag_178\n      jumpi\n      dup2\n      0x20\n      add\n    tag_179:\n      tag_180\n      tag_181\n      jump\t// in\n    tag_180:\n      dup2\n      mstore\n      0x20\n      add\n      swap1\n      0x01\n      swap1\n      sub\n      swap1\n      dup2\n      tag_179\n      jumpi\n      swap1\n      pop\n    tag_178:\n      pop\n        /* \"contracts/Hairdressing.sol\":7524:7586  Product[] memory _products = new Product[](productList.length) */\n      swap1\n      pop\n        /* \"contracts/Hairdressing.sol\":7602:7608  uint i */\n      0x00\n        /* \"contracts/Hairdressing.sol\":7597:7711  for (uint i = 0; i < productList.length; i++) {... */\n    tag_182:\n        /* \"contracts/Hairdressing.sol\":7618:7629  productList */\n      0x05\n        /* \"contracts/Hairdressing.sol\":7618:7636  productList.length */\n      dup1\n      sload\n      swap1\n      pop\n        /* \"contracts/Hairdressing.sol\":7614:7615  i */\n      dup2\n        /* \"contracts/Hairdressing.sol\":7614:7636  i < productList.length */\n      lt\n        /* \"contracts/Hairdressing.sol\":7597:7711  for (uint i = 0; i < productList.length; i++) {... */\n      iszero\n      tag_183\n      jumpi\n        /* \"contracts/Hairdressing.sol\":7638:7641  i++ */\n      dup1\n      dup1\n      tag_185\n      swap1\n      tag_119\n      jump\t// in\n    tag_185:\n      swap2\n      pop\n      pop\n        /* \"contracts/Hairdressing.sol\":7597:7711  for (uint i = 0; i < productList.length; i++) {... */\n      jump(tag_182)\n    tag_183:\n      pop\n        /* \"contracts/Hairdressing.sol\":7728:7737  _products */\n      dup1\n        /* \"contracts/Hairdressing.sol\":7721:7737  return _products */\n      swap2\n      pop\n      pop\n        /* \"contracts/Hairdressing.sol\":7450:7744  function getProducts() external view returns (Product[] memory) {... */\n      swap1\n      jump\t// out\n        /* \"contracts/Hairdressing.sol\":4074:4225  function deleteProduct(uint _productId) external onlyAdmin() productExists(_productId) {... */\n    tag_78:\n        /* \"contracts/Hairdressing.sol\":2351:2356  admin */\n      0x00\n      dup1\n      sload\n      swap1\n      0x0100\n      exp\n      swap1\n      div\n      0xffffffffffffffffffffffffffffffffffffffff\n      and\n        /* \"contracts/Hairdressing.sol\":2337:2356  msg.sender == admin */\n      0xffffffffffffffffffffffffffffffffffffffff\n      and\n        /* \"contracts/Hairdressing.sol\":2337:2347  msg.sender */\n      caller\n        /* \"contracts/Hairdressing.sol\":2337:2356  msg.sender == admin */\n      0xffffffffffffffffffffffffffffffffffffffff\n      and\n      eq\n        /* \"contracts/Hairdressing.sol\":2329:2371  require(msg.sender == admin, \"Only admin\") */\n      tag_187\n      jumpi\n      mload(0x40)\n      0x08c379a000000000000000000000000000000000000000000000000000000000\n      dup2\n      mstore\n      0x04\n      add\n      tag_188\n      swap1\n      tag_100\n      jump\t// in\n    tag_188:\n      mload(0x40)\n      dup1\n      swap2\n      sub\n      swap1\n      revert\n    tag_187:\n        /* \"contracts/Hairdressing.sol\":4149:4159  _productId */\n      dup1\n        /* \"contracts/Hairdressing.sol\":2820:2821  0 */\n      0x00\n        /* \"contracts/Hairdressing.sol\":2807:2817  _productId */\n      dup2\n        /* \"contracts/Hairdressing.sol\":2807:2821  _productId > 0 */\n      gt\n        /* \"contracts/Hairdressing.sol\":2807:2851  _productId > 0 && _productId < nextProductId */\n      dup1\n      iszero\n      tag_190\n      jumpi\n      pop\n        /* \"contracts/Hairdressing.sol\":2838:2851  nextProductId */\n      sload(0x06)\n        /* \"contracts/Hairdressing.sol\":2825:2835  _productId */\n      dup2\n        /* \"contracts/Hairdressing.sol\":2825:2851  _productId < nextProductId */\n      lt\n        /* \"contracts/Hairdressing.sol\":2807:2851  _productId > 0 && _productId < nextProductId */\n    tag_190:\n        /* \"contracts/Hairdressing.sol\":2786:2899  require(... */\n      tag_191\n      jumpi\n      mload(0x40)\n      0x08c379a000000000000000000000000000000000000000000000000000000000\n      dup2\n      mstore\n      0x04\n      add\n      tag_192\n      swap1\n      tag_193\n      jump\t// in\n    tag_192:\n      mload(0x40)\n      dup1\n      swap2\n      sub\n      swap1\n      revert\n    tag_191:\n        /* \"contracts/Hairdressing.sol\":2381:2382  _ */\n      pop\n        /* \"contracts/Hairdressing.sol\":4074:4225  function deleteProduct(uint _productId) external onlyAdmin() productExists(_productId) {... */\n      pop\n      jump\t// out\n        /* \"contracts/Hairdressing.sol\":7838:8259  function getUserBookings(address _client) external view returns (Booking[] memory) {... */\n    tag_82:\n        /* \"contracts/Hairdressing.sol\":7903:7919  Booking[] memory */\n      0x60\n        /* \"contracts/Hairdressing.sol\":7931:7960  uint[] storage userBookingIds */\n      0x00\n        /* \"contracts/Hairdressing.sol\":7963:7975  userBookings */\n      0x0a\n        /* \"contracts/Hairdressing.sol\":7963:7984  userBookings[_client] */\n      0x00\n        /* \"contracts/Hairdressing.sol\":7976:7983  _client */\n      dup5\n        /* \"contracts/Hairdressing.sol\":7963:7984  userBookings[_client] */\n      0xffffffffffffffffffffffffffffffffffffffff\n      and\n      0xffffffffffffffffffffffffffffffffffffffff\n      and\n      dup2\n      mstore\n      0x20\n      add\n      swap1\n      dup2\n      mstore\n      0x20\n      add\n      0x00\n      keccak256\n        /* \"contracts/Hairdressing.sol\":7931:7984  uint[] storage userBookingIds = userBookings[_client] */\n      swap1\n      pop\n        /* \"contracts/Hairdressing.sol\":7994:8020  Booking[] memory _bookings */\n      0x00\n        /* \"contracts/Hairdressing.sol\":8037:8051  userBookingIds */\n      dup2\n        /* \"contracts/Hairdressing.sol\":8037:8058  userBookingIds.length */\n      dup1\n      sload\n      swap1\n      pop\n        /* \"contracts/Hairdressing.sol\":8023:8059  new Booking[](userBookingIds.length) */\n      0xffffffffffffffff\n      dup2\n      gt\n      iszero\n      tag_196\n      jumpi\n      tag_197\n      tag_110\n      jump\t// in\n    tag_197:\n    tag_196:\n      mload(0x40)\n      swap1\n      dup1\n      dup3\n      mstore\n      dup1\n      0x20\n      mul\n      0x20\n      add\n      dup3\n      add\n      0x40\n      mstore\n      dup1\n      iszero\n      tag_198\n      jumpi\n      dup2\n      0x20\n      add\n    tag_199:\n      tag_200\n      tag_201\n      jump\t// in\n    tag_200:\n      dup2\n      mstore\n      0x20\n      add\n      swap1\n      0x01\n      swap1\n      sub\n      swap1\n      dup2\n      tag_199\n      jumpi\n      swap1\n      pop\n    tag_198:\n      pop\n        /* \"contracts/Hairdressing.sol\":7994:8059  Booking[] memory _bookings = new Booking[](userBookingIds.length) */\n      swap1\n      pop\n        /* \"contracts/Hairdressing.sol\":8075:8081  uint i */\n      0x00\n        /* \"contracts/Hairdressing.sol\":8070:8226  for (uint i = 0; i < userBookingIds.length; i++) {... */\n    tag_202:\n        /* \"contracts/Hairdressing.sol\":8091:8105  userBookingIds */\n      dup3\n        /* \"contracts/Hairdressing.sol\":8091:8112  userBookingIds.length */\n      dup1\n      sload\n      swap1\n      pop\n        /* \"contracts/Hairdressing.sol\":8087:8088  i */\n      dup2\n        /* \"contracts/Hairdressing.sol\":8087:8112  i < userBookingIds.length */\n      lt\n        /* \"contracts/Hairdressing.sol\":8070:8226  for (uint i = 0; i < userBookingIds.length; i++) {... */\n      iszero\n      tag_203\n      jumpi\n        /* \"contracts/Hairdressing.sol\":8133:8147  uint bookingId */\n      0x00\n        /* \"contracts/Hairdressing.sol\":8150:8164  userBookingIds */\n      dup4\n        /* \"contracts/Hairdressing.sol\":8165:8166  i */\n      dup3\n        /* \"contracts/Hairdressing.sol\":8150:8167  userBookingIds[i] */\n      dup2\n      sload\n      dup2\n      lt\n      tag_205\n      jumpi\n      tag_206\n      tag_207\n      jump\t// in\n    tag_206:\n    tag_205:\n      swap1\n      0x00\n      mstore\n      keccak256(0x00, 0x20)\n      add\n      sload\n        /* \"contracts/Hairdressing.sol\":8133:8167  uint bookingId = userBookingIds[i] */\n      swap1\n      pop\n        /* \"contracts/Hairdressing.sol\":8196:8204  bookings */\n      0x07\n        /* \"contracts/Hairdressing.sol\":8196:8215  bookings[bookingId] */\n      0x00\n        /* \"contracts/Hairdressing.sol\":8205:8214  bookingId */\n      dup3\n        /* \"contracts/Hairdressing.sol\":8196:8215  bookings[bookingId] */\n      dup2\n      mstore\n      0x20\n      add\n      swap1\n      dup2\n      mstore\n      0x20\n      add\n      0x00\n      keccak256\n        /* \"contracts/Hairdressing.sol\":8181:8215  _bookings[i] = bookings[bookingId] */\n      mload(0x40)\n      dup1\n      0x80\n      add\n      0x40\n      mstore\n      swap1\n      dup2\n      0x00\n      dup3\n      add\n      sload\n      dup2\n      mstore\n      0x20\n      add\n      0x01\n      dup3\n      add\n      sload\n      dup2\n      mstore\n      0x20\n      add\n      0x02\n      dup3\n      add\n      sload\n      dup2\n      mstore\n      0x20\n      add\n      0x03\n      dup3\n      add\n      0x00\n      swap1\n      sload\n      swap1\n      0x0100\n      exp\n      swap1\n      div\n      0xffffffffffffffffffffffffffffffffffffffff\n      and\n      0xffffffffffffffffffffffffffffffffffffffff\n      and\n      0xffffffffffffffffffffffffffffffffffffffff\n      and\n      dup2\n      mstore\n      pop\n      pop\n        /* \"contracts/Hairdressing.sol\":8181:8190  _bookings */\n      dup4\n        /* \"contracts/Hairdressing.sol\":8191:8192  i */\n      dup4\n        /* \"contracts/Hairdressing.sol\":8181:8193  _bookings[i] */\n      dup2\n      mload\n      dup2\n      lt\n      tag_209\n      jumpi\n      tag_210\n      tag_207\n      jump\t// in\n    tag_210:\n    tag_209:\n      0x20\n      mul\n      0x20\n      add\n      add\n        /* \"contracts/Hairdressing.sol\":8181:8215  _bookings[i] = bookings[bookingId] */\n      dup2\n      swap1\n      mstore\n      pop\n        /* \"contracts/Hairdressing.sol\":8119:8226  {... */\n      pop\n        /* \"contracts/Hairdressing.sol\":8114:8117  i++ */\n      dup1\n      dup1\n      tag_211\n      swap1\n      tag_119\n      jump\t// in\n    tag_211:\n      swap2\n      pop\n      pop\n        /* \"contracts/Hairdressing.sol\":8070:8226  for (uint i = 0; i < userBookingIds.length; i++) {... */\n      jump(tag_202)\n    tag_203:\n      pop\n        /* \"contracts/Hairdressing.sol\":8243:8252  _bookings */\n      dup1\n        /* \"contracts/Hairdressing.sol\":8236:8252  return _bookings */\n      swap3\n      pop\n      pop\n      pop\n        /* \"contracts/Hairdressing.sol\":7838:8259  function getUserBookings(address _client) external view returns (Booking[] memory) {... */\n      swap2\n      swap1\n      pop\n      jump\t// out\n        /* \"contracts/Hairdressing.sol\":440:460  address public admin */\n    tag_86:\n      0x00\n      dup1\n      sload\n      swap1\n      0x0100\n      exp\n      swap1\n      div\n      0xffffffffffffffffffffffffffffffffffffffff\n      and\n      dup2\n      jump\t// out\n    tag_114:\n      mload(0x40)\n      dup1\n      0xc0\n      add\n      0x40\n      mstore\n      dup1\n      0x00\n      dup2\n      mstore\n      0x20\n      add\n      0x60\n      dup2\n      mstore\n      0x20\n      add\n      0x60\n      dup2\n      mstore\n      0x20\n      add\n      0x00\n      dup2\n      mstore\n      0x20\n      add\n      0x00\n      dup2\n      mstore\n      0x20\n      add\n      0x60\n      dup2\n      mstore\n      pop\n      swap1\n      jump\t// out\n    tag_160:\n      dup3\n      dup1\n      sload\n      dup3\n      dup3\n      sstore\n      swap1\n      0x00\n      mstore\n      keccak256(0x00, 0x20)\n      swap1\n      dup2\n      add\n      swap3\n      dup3\n      iszero\n      tag_212\n      jumpi\n      swap2\n      0x20\n      mul\n      dup3\n      add\n    tag_213:\n      dup3\n      dup2\n      gt\n      iszero\n      tag_214\n      jumpi\n      dup3\n      mload\n      dup3\n      sstore\n      swap2\n      0x20\n      add\n      swap2\n      swap1\n      0x01\n      add\n      swap1\n      jump(tag_213)\n    tag_214:\n    tag_212:\n      pop\n      swap1\n      pop\n      tag_215\n      swap2\n      swap1\n      tag_216\n      jump\t// in\n    tag_215:\n      pop\n      swap1\n      jump\t// out\n    tag_181:\n      mload(0x40)\n      dup1\n      0xa0\n      add\n      0x40\n      mstore\n      dup1\n      0x00\n      dup2\n      mstore\n      0x20\n      add\n      0x60\n      dup2\n      mstore\n      0x20\n      add\n      0x60\n      dup2\n      mstore\n      0x20\n      add\n      0x00\n      dup2\n      mstore\n      0x20\n      add\n      0x00\n      dup2\n      mstore\n      pop\n      swap1\n      jump\t// out\n    tag_201:\n      mload(0x40)\n      dup1\n      0x80\n      add\n      0x40\n      mstore\n      dup1\n      0x00\n      dup2\n      mstore\n      0x20\n      add\n      0x00\n      dup2\n      mstore\n      0x20\n      add\n      0x00\n      dup2\n      mstore\n      0x20\n      add\n      and(0xffffffffffffffffffffffffffffffffffffffff, 0x00)\n      dup2\n      mstore\n      pop\n      swap1\n      jump\t// out\n    tag_216:\n    tag_217:\n      dup1\n      dup3\n      gt\n      iszero\n      tag_218\n      jumpi\n      0x00\n      dup2\n      0x00\n      swap1\n      sstore\n      pop\n      0x01\n      add\n      jump(tag_217)\n    tag_218:\n      pop\n      swap1\n      jump\t// out\n        /* \"#utility.yul\":88:205   */\n    tag_220:\n        /* \"#utility.yul\":197:198   */\n      0x00\n        /* \"#utility.yul\":194:195   */\n      dup1\n        /* \"#utility.yul\":187:199   */\n      revert\n        /* \"#utility.yul\":211:328   */\n    tag_221:\n        /* \"#utility.yul\":320:321   */\n      0x00\n        /* \"#utility.yul\":317:318   */\n      dup1\n        /* \"#utility.yul\":310:322   */\n      revert\n        /* \"#utility.yul\":334:411   */\n    tag_222:\n        /* \"#utility.yul\":371:378   */\n      0x00\n        /* \"#utility.yul\":400:405   */\n      dup2\n        /* \"#utility.yul\":389:405   */\n      swap1\n      pop\n        /* \"#utility.yul\":334:411   */\n      swap2\n      swap1\n      pop\n      jump\t// out\n        /* \"#utility.yul\":417:539   */\n    tag_223:\n        /* \"#utility.yul\":490:514   */\n      tag_305\n        /* \"#utility.yul\":508:513   */\n      dup2\n        /* \"#utility.yul\":490:514   */\n      tag_222\n      jump\t// in\n    tag_305:\n        /* \"#utility.yul\":483:488   */\n      dup2\n        /* \"#utility.yul\":480:515   */\n      eq\n        /* \"#utility.yul\":470:533   */\n      tag_306\n      jumpi\n        /* \"#utility.yul\":529:530   */\n      0x00\n        /* \"#utility.yul\":526:527   */\n      dup1\n        /* \"#utility.yul\":519:531   */\n      revert\n        /* \"#utility.yul\":470:533   */\n    tag_306:\n        /* \"#utility.yul\":417:539   */\n      pop\n      jump\t// out\n        /* \"#utility.yul\":545:684   */\n    tag_224:\n        /* \"#utility.yul\":591:596   */\n      0x00\n        /* \"#utility.yul\":629:635   */\n      dup2\n        /* \"#utility.yul\":616:636   */\n      calldataload\n        /* \"#utility.yul\":607:636   */\n      swap1\n      pop\n        /* \"#utility.yul\":645:678   */\n      tag_308\n        /* \"#utility.yul\":672:677   */\n      dup2\n        /* \"#utility.yul\":645:678   */\n      tag_223\n      jump\t// in\n    tag_308:\n        /* \"#utility.yul\":545:684   */\n      swap3\n      swap2\n      pop\n      pop\n      jump\t// out\n        /* \"#utility.yul\":690:1019   */\n    tag_24:\n        /* \"#utility.yul\":749:755   */\n      0x00\n        /* \"#utility.yul\":798:800   */\n      0x20\n        /* \"#utility.yul\":786:795   */\n      dup3\n        /* \"#utility.yul\":777:784   */\n      dup5\n        /* \"#utility.yul\":773:796   */\n      sub\n        /* \"#utility.yul\":769:801   */\n      slt\n        /* \"#utility.yul\":766:885   */\n      iszero\n      tag_310\n      jumpi\n        /* \"#utility.yul\":804:883   */\n      tag_311\n      tag_220\n      jump\t// in\n    tag_311:\n        /* \"#utility.yul\":766:885   */\n    tag_310:\n        /* \"#utility.yul\":924:925   */\n      0x00\n        /* \"#utility.yul\":949:1002   */\n      tag_312\n        /* \"#utility.yul\":994:1001   */\n      dup5\n        /* \"#utility.yul\":985:991   */\n      dup3\n        /* \"#utility.yul\":974:983   */\n      dup6\n        /* \"#utility.yul\":970:992   */\n      add\n        /* \"#utility.yul\":949:1002   */\n      tag_224\n      jump\t// in\n    tag_312:\n        /* \"#utility.yul\":939:1002   */\n      swap2\n      pop\n        /* \"#utility.yul\":895:1012   */\n      pop\n        /* \"#utility.yul\":690:1019   */\n      swap3\n      swap2\n      pop\n      pop\n      jump\t// out\n        /* \"#utility.yul\":1025:1143   */\n    tag_225:\n        /* \"#utility.yul\":1112:1136   */\n      tag_314\n        /* \"#utility.yul\":1130:1135   */\n      dup2\n        /* \"#utility.yul\":1112:1136   */\n      tag_222\n      jump\t// in\n    tag_314:\n        /* \"#utility.yul\":1107:1110   */\n      dup3\n        /* \"#utility.yul\":1100:1137   */\n      mstore\n        /* \"#utility.yul\":1025:1143   */\n      pop\n      pop\n      jump\t// out\n        /* \"#utility.yul\":1149:1275   */\n    tag_226:\n        /* \"#utility.yul\":1186:1193   */\n      0x00\n        /* \"#utility.yul\":1226:1268   */\n      0xffffffffffffffffffffffffffffffffffffffff\n        /* \"#utility.yul\":1219:1224   */\n      dup3\n        /* \"#utility.yul\":1215:1269   */\n      and\n        /* \"#utility.yul\":1204:1269   */\n      swap1\n      pop\n        /* \"#utility.yul\":1149:1275   */\n      swap2\n      swap1\n      pop\n      jump\t// out\n        /* \"#utility.yul\":1281:1377   */\n    tag_227:\n        /* \"#utility.yul\":1318:1325   */\n      0x00\n        /* \"#utility.yul\":1347:1371   */\n      tag_317\n        /* \"#utility.yul\":1365:1370   */\n      dup3\n        /* \"#utility.yul\":1347:1371   */\n      tag_226\n      jump\t// in\n    tag_317:\n        /* \"#utility.yul\":1336:1371   */\n      swap1\n      pop\n        /* \"#utility.yul\":1281:1377   */\n      swap2\n      swap1\n      pop\n      jump\t// out\n        /* \"#utility.yul\":1383:1501   */\n    tag_228:\n        /* \"#utility.yul\":1470:1494   */\n      tag_319\n        /* \"#utility.yul\":1488:1493   */\n      dup2\n        /* \"#utility.yul\":1470:1494   */\n      tag_227\n      jump\t// in\n    tag_319:\n        /* \"#utility.yul\":1465:1468   */\n      dup3\n        /* \"#utility.yul\":1458:1495   */\n      mstore\n        /* \"#utility.yul\":1383:1501   */\n      pop\n      pop\n      jump\t// out\n        /* \"#utility.yul\":1507:2060   */\n    tag_27:\n        /* \"#utility.yul\":1684:1688   */\n      0x00\n        /* \"#utility.yul\":1722:1725   */\n      0x80\n        /* \"#utility.yul\":1711:1720   */\n      dup3\n        /* \"#utility.yul\":1707:1726   */\n      add\n        /* \"#utility.yul\":1699:1726   */\n      swap1\n      pop\n        /* \"#utility.yul\":1736:1807   */\n      tag_321\n        /* \"#utility.yul\":1804:1805   */\n      0x00\n        /* \"#utility.yul\":1793:1802   */\n      dup4\n        /* \"#utility.yul\":1789:1806   */\n      add\n        /* \"#utility.yul\":1780:1786   */\n      dup8\n        /* \"#utility.yul\":1736:1807   */\n      tag_225\n      jump\t// in\n    tag_321:\n        /* \"#utility.yul\":1817:1889   */\n      tag_322\n        /* \"#utility.yul\":1885:1887   */\n      0x20\n        /* \"#utility.yul\":1874:1883   */\n      dup4\n        /* \"#utility.yul\":1870:1888   */\n      add\n        /* \"#utility.yul\":1861:1867   */\n      dup7\n        /* \"#utility.yul\":1817:1889   */\n      tag_225\n      jump\t// in\n    tag_322:\n        /* \"#utility.yul\":1899:1971   */\n      tag_323\n        /* \"#utility.yul\":1967:1969   */\n      0x40\n        /* \"#utility.yul\":1956:1965   */\n      dup4\n        /* \"#utility.yul\":1952:1970   */\n      add\n        /* \"#utility.yul\":1943:1949   */\n      dup6\n        /* \"#utility.yul\":1899:1971   */\n      tag_225\n      jump\t// in\n    tag_323:\n        /* \"#utility.yul\":1981:2053   */\n      tag_324\n        /* \"#utility.yul\":2049:2051   */\n      0x60\n        /* \"#utility.yul\":2038:2047   */\n      dup4\n        /* \"#utility.yul\":2034:2052   */\n      add\n        /* \"#utility.yul\":2025:2031   */\n      dup5\n        /* \"#utility.yul\":1981:2053   */\n      tag_228\n      jump\t// in\n    tag_324:\n        /* \"#utility.yul\":1507:2060   */\n      swap6\n      swap5\n      pop\n      pop\n      pop\n      pop\n      pop\n      jump\t// out\n        /* \"#utility.yul\":2066:2288   */\n    tag_35:\n        /* \"#utility.yul\":2159:2163   */\n      0x00\n        /* \"#utility.yul\":2197:2199   */\n      0x20\n        /* \"#utility.yul\":2186:2195   */\n      dup3\n        /* \"#utility.yul\":2182:2200   */\n      add\n        /* \"#utility.yul\":2174:2200   */\n      swap1\n      pop\n        /* \"#utility.yul\":2210:2281   */\n      tag_326\n        /* \"#utility.yul\":2278:2279   */\n      0x00\n        /* \"#utility.yul\":2267:2276   */\n      dup4\n        /* \"#utility.yul\":2263:2280   */\n      add\n        /* \"#utility.yul\":2254:2260   */\n      dup5\n        /* \"#utility.yul\":2210:2281   */\n      tag_225\n      jump\t// in\n    tag_326:\n        /* \"#utility.yul\":2066:2288   */\n      swap3\n      swap2\n      pop\n      pop\n      jump\t// out\n        /* \"#utility.yul\":2294:2431   */\n    tag_229:\n        /* \"#utility.yul\":2384:2390   */\n      0x00\n        /* \"#utility.yul\":2418:2423   */\n      dup2\n        /* \"#utility.yul\":2412:2424   */\n      mload\n        /* \"#utility.yul\":2402:2424   */\n      swap1\n      pop\n        /* \"#utility.yul\":2294:2431   */\n      swap2\n      swap1\n      pop\n      jump\t// out\n        /* \"#utility.yul\":2437:2644   */\n    tag_230:\n        /* \"#utility.yul\":2559:2570   */\n      0x00\n        /* \"#utility.yul\":2593:2599   */\n      dup3\n        /* \"#utility.yul\":2588:2591   */\n      dup3\n        /* \"#utility.yul\":2581:2600   */\n      mstore\n        /* \"#utility.yul\":2633:2637   */\n      0x20\n        /* \"#utility.yul\":2628:2631   */\n      dup3\n        /* \"#utility.yul\":2624:2638   */\n      add\n        /* \"#utility.yul\":2609:2638   */\n      swap1\n      pop\n        /* \"#utility.yul\":2437:2644   */\n      swap3\n      swap2\n      pop\n      pop\n      jump\t// out\n        /* \"#utility.yul\":2650:2805   */\n    tag_231:\n        /* \"#utility.yul\":2740:2744   */\n      0x00\n        /* \"#utility.yul\":2763:2766   */\n      dup2\n        /* \"#utility.yul\":2755:2766   */\n      swap1\n      pop\n        /* \"#utility.yul\":2793:2797   */\n      0x20\n        /* \"#utility.yul\":2788:2791   */\n      dup3\n        /* \"#utility.yul\":2784:2798   */\n      add\n        /* \"#utility.yul\":2776:2798   */\n      swap1\n      pop\n        /* \"#utility.yul\":2650:2805   */\n      swap2\n      swap1\n      pop\n      jump\t// out\n        /* \"#utility.yul\":2811:2919   */\n    tag_232:\n        /* \"#utility.yul\":2888:2912   */\n      tag_331\n        /* \"#utility.yul\":2906:2911   */\n      dup2\n        /* \"#utility.yul\":2888:2912   */\n      tag_222\n      jump\t// in\n    tag_331:\n        /* \"#utility.yul\":2883:2886   */\n      dup3\n        /* \"#utility.yul\":2876:2913   */\n      mstore\n        /* \"#utility.yul\":2811:2919   */\n      pop\n      pop\n      jump\t// out\n        /* \"#utility.yul\":2925:3024   */\n    tag_233:\n        /* \"#utility.yul\":2977:2983   */\n      0x00\n        /* \"#utility.yul\":3011:3016   */\n      dup2\n        /* \"#utility.yul\":3005:3017   */\n      mload\n        /* \"#utility.yul\":2995:3017   */\n      swap1\n      pop\n        /* \"#utility.yul\":2925:3024   */\n      swap2\n      swap1\n      pop\n      jump\t// out\n        /* \"#utility.yul\":3030:3189   */\n    tag_234:\n        /* \"#utility.yul\":3104:3115   */\n      0x00\n        /* \"#utility.yul\":3138:3144   */\n      dup3\n        /* \"#utility.yul\":3133:3136   */\n      dup3\n        /* \"#utility.yul\":3126:3145   */\n      mstore\n        /* \"#utility.yul\":3178:3182   */\n      0x20\n        /* \"#utility.yul\":3173:3176   */\n      dup3\n        /* \"#utility.yul\":3169:3183   */\n      add\n        /* \"#utility.yul\":3154:3183   */\n      swap1\n      pop\n        /* \"#utility.yul\":3030:3189   */\n      swap3\n      swap2\n      pop\n      pop\n      jump\t// out\n        /* \"#utility.yul\":3195:3441   */\n    tag_235:\n        /* \"#utility.yul\":3276:3277   */\n      0x00\n        /* \"#utility.yul\":3286:3399   */\n    tag_335:\n        /* \"#utility.yul\":3300:3306   */\n      dup4\n        /* \"#utility.yul\":3297:3298   */\n      dup2\n        /* \"#utility.yul\":3294:3307   */\n      lt\n        /* \"#utility.yul\":3286:3399   */\n      iszero\n      tag_337\n      jumpi\n        /* \"#utility.yul\":3385:3386   */\n      dup1\n        /* \"#utility.yul\":3380:3383   */\n      dup3\n        /* \"#utility.yul\":3376:3387   */\n      add\n        /* \"#utility.yul\":3370:3388   */\n      mload\n        /* \"#utility.yul\":3366:3367   */\n      dup2\n        /* \"#utility.yul\":3361:3364   */\n      dup5\n        /* \"#utility.yul\":3357:3368   */\n      add\n        /* \"#utility.yul\":3350:3389   */\n      mstore\n        /* \"#utility.yul\":3322:3324   */\n      0x20\n        /* \"#utility.yul\":3319:3320   */\n      dup2\n        /* \"#utility.yul\":3315:3325   */\n      add\n        /* \"#utility.yul\":3310:3325   */\n      swap1\n      pop\n        /* \"#utility.yul\":3286:3399   */\n      jump(tag_335)\n    tag_337:\n        /* \"#utility.yul\":3433:3434   */\n      0x00\n        /* \"#utility.yul\":3424:3430   */\n      dup5\n        /* \"#utility.yul\":3419:3422   */\n      dup5\n        /* \"#utility.yul\":3415:3431   */\n      add\n        /* \"#utility.yul\":3408:3435   */\n      mstore\n        /* \"#utility.yul\":3257:3441   */\n      pop\n        /* \"#utility.yul\":3195:3441   */\n      pop\n      pop\n      pop\n      jump\t// out\n        /* \"#utility.yul\":3447:3549   */\n    tag_236:\n        /* \"#utility.yul\":3488:3494   */\n      0x00\n        /* \"#utility.yul\":3539:3541   */\n      0x1f\n        /* \"#utility.yul\":3535:3542   */\n      not\n        /* \"#utility.yul\":3530:3532   */\n      0x1f\n        /* \"#utility.yul\":3523:3528   */\n      dup4\n        /* \"#utility.yul\":3519:3533   */\n      add\n        /* \"#utility.yul\":3515:3543   */\n      and\n        /* \"#utility.yul\":3505:3543   */\n      swap1\n      pop\n        /* \"#utility.yul\":3447:3549   */\n      swap2\n      swap1\n      pop\n      jump\t// out\n        /* \"#utility.yul\":3555:3912   */\n    tag_237:\n        /* \"#utility.yul\":3633:3636   */\n      0x00\n        /* \"#utility.yul\":3661:3700   */\n      tag_340\n        /* \"#utility.yul\":3694:3699   */\n      dup3\n        /* \"#utility.yul\":3661:3700   */\n      tag_233\n      jump\t// in\n    tag_340:\n        /* \"#utility.yul\":3716:3777   */\n      tag_341\n        /* \"#utility.yul\":3770:3776   */\n      dup2\n        /* \"#utility.yul\":3765:3768   */\n      dup6\n        /* \"#utility.yul\":3716:3777   */\n      tag_234\n      jump\t// in\n    tag_341:\n        /* \"#utility.yul\":3709:3777   */\n      swap4\n      pop\n        /* \"#utility.yul\":3786:3851   */\n      tag_342\n        /* \"#utility.yul\":3844:3850   */\n      dup2\n        /* \"#utility.yul\":3839:3842   */\n      dup6\n        /* \"#utility.yul\":3832:3836   */\n      0x20\n        /* \"#utility.yul\":3825:3830   */\n      dup7\n        /* \"#utility.yul\":3821:3837   */\n      add\n        /* \"#utility.yul\":3786:3851   */\n      tag_235\n      jump\t// in\n    tag_342:\n        /* \"#utility.yul\":3876:3905   */\n      tag_343\n        /* \"#utility.yul\":3898:3904   */\n      dup2\n        /* \"#utility.yul\":3876:3905   */\n      tag_236\n      jump\t// in\n    tag_343:\n        /* \"#utility.yul\":3871:3874   */\n      dup5\n        /* \"#utility.yul\":3867:3906   */\n      add\n        /* \"#utility.yul\":3860:3906   */\n      swap2\n      pop\n        /* \"#utility.yul\":3637:3912   */\n      pop\n        /* \"#utility.yul\":3555:3912   */\n      swap3\n      swap2\n      pop\n      pop\n      jump\t// out\n        /* \"#utility.yul\":3918:4032   */\n    tag_238:\n        /* \"#utility.yul\":3985:3991   */\n      0x00\n        /* \"#utility.yul\":4019:4024   */\n      dup2\n        /* \"#utility.yul\":4013:4025   */\n      mload\n        /* \"#utility.yul\":4003:4025   */\n      swap1\n      pop\n        /* \"#utility.yul\":3918:4032   */\n      swap2\n      swap1\n      pop\n      jump\t// out\n        /* \"#utility.yul\":4038:4212   */\n    tag_239:\n        /* \"#utility.yul\":4127:4138   */\n      0x00\n        /* \"#utility.yul\":4161:4167   */\n      dup3\n        /* \"#utility.yul\":4156:4159   */\n      dup3\n        /* \"#utility.yul\":4149:4168   */\n      mstore\n        /* \"#utility.yul\":4201:4205   */\n      0x20\n        /* \"#utility.yul\":4196:4199   */\n      dup3\n        /* \"#utility.yul\":4192:4206   */\n      add\n        /* \"#utility.yul\":4177:4206   */\n      swap1\n      pop\n        /* \"#utility.yul\":4038:4212   */\n      swap3\n      swap2\n      pop\n      pop\n      jump\t// out\n        /* \"#utility.yul\":4218:4350   */\n    tag_240:\n        /* \"#utility.yul\":4285:4289   */\n      0x00\n        /* \"#utility.yul\":4308:4311   */\n      dup2\n        /* \"#utility.yul\":4300:4311   */\n      swap1\n      pop\n        /* \"#utility.yul\":4338:4342   */\n      0x20\n        /* \"#utility.yul\":4333:4336   */\n      dup3\n        /* \"#utility.yul\":4329:4343   */\n      add\n        /* \"#utility.yul\":4321:4343   */\n      swap1\n      pop\n        /* \"#utility.yul\":4218:4350   */\n      swap2\n      swap1\n      pop\n      jump\t// out\n        /* \"#utility.yul\":4356:4535   */\n    tag_241:\n        /* \"#utility.yul\":4425:4435   */\n      0x00\n        /* \"#utility.yul\":4446:4492   */\n      tag_348\n        /* \"#utility.yul\":4488:4491   */\n      dup4\n        /* \"#utility.yul\":4480:4486   */\n      dup4\n        /* \"#utility.yul\":4446:4492   */\n      tag_232\n      jump\t// in\n    tag_348:\n        /* \"#utility.yul\":4524:4528   */\n      0x20\n        /* \"#utility.yul\":4519:4522   */\n      dup4\n        /* \"#utility.yul\":4515:4529   */\n      add\n        /* \"#utility.yul\":4501:4529   */\n      swap1\n      pop\n        /* \"#utility.yul\":4356:4535   */\n      swap3\n      swap2\n      pop\n      pop\n      jump\t// out\n        /* \"#utility.yul\":4541:4654   */\n    tag_242:\n        /* \"#utility.yul\":4611:4615   */\n      0x00\n        /* \"#utility.yul\":4643:4647   */\n      0x20\n        /* \"#utility.yul\":4638:4641   */\n      dup3\n        /* \"#utility.yul\":4634:4648   */\n      add\n        /* \"#utility.yul\":4626:4648   */\n      swap1\n      pop\n        /* \"#utility.yul\":4541:4654   */\n      swap2\n      swap1\n      pop\n      jump\t// out\n        /* \"#utility.yul\":4690:5402   */\n    tag_243:\n        /* \"#utility.yul\":4799:4802   */\n      0x00\n        /* \"#utility.yul\":4828:4882   */\n      tag_351\n        /* \"#utility.yul\":4876:4881   */\n      dup3\n        /* \"#utility.yul\":4828:4882   */\n      tag_238\n      jump\t// in\n    tag_351:\n        /* \"#utility.yul\":4898:4974   */\n      tag_352\n        /* \"#utility.yul\":4967:4973   */\n      dup2\n        /* \"#utility.yul\":4962:4965   */\n      dup6\n        /* \"#utility.yul\":4898:4974   */\n      tag_239\n      jump\t// in\n    tag_352:\n        /* \"#utility.yul\":4891:4974   */\n      swap4\n      pop\n        /* \"#utility.yul\":4998:5054   */\n      tag_353\n        /* \"#utility.yul\":5048:5053   */\n      dup4\n        /* \"#utility.yul\":4998:5054   */\n      tag_240\n      jump\t// in\n    tag_353:\n        /* \"#utility.yul\":5077:5084   */\n      dup1\n        /* \"#utility.yul\":5108:5109   */\n      0x00\n        /* \"#utility.yul\":5093:5377   */\n    tag_354:\n        /* \"#utility.yul\":5118:5124   */\n      dup4\n        /* \"#utility.yul\":5115:5116   */\n      dup2\n        /* \"#utility.yul\":5112:5125   */\n      lt\n        /* \"#utility.yul\":5093:5377   */\n      iszero\n      tag_356\n      jumpi\n        /* \"#utility.yul\":5194:5200   */\n      dup2\n        /* \"#utility.yul\":5188:5201   */\n      mload\n        /* \"#utility.yul\":5221:5284   */\n      tag_357\n        /* \"#utility.yul\":5280:5283   */\n      dup9\n        /* \"#utility.yul\":5265:5278   */\n      dup3\n        /* \"#utility.yul\":5221:5284   */\n      tag_241\n      jump\t// in\n    tag_357:\n        /* \"#utility.yul\":5214:5284   */\n      swap8\n      pop\n        /* \"#utility.yul\":5307:5367   */\n      tag_358\n        /* \"#utility.yul\":5360:5366   */\n      dup4\n        /* \"#utility.yul\":5307:5367   */\n      tag_242\n      jump\t// in\n    tag_358:\n        /* \"#utility.yul\":5297:5367   */\n      swap3\n      pop\n        /* \"#utility.yul\":5153:5377   */\n      pop\n        /* \"#utility.yul\":5140:5141   */\n      0x01\n        /* \"#utility.yul\":5137:5138   */\n      dup2\n        /* \"#utility.yul\":5133:5142   */\n      add\n        /* \"#utility.yul\":5128:5142   */\n      swap1\n      pop\n        /* \"#utility.yul\":5093:5377   */\n      jump(tag_354)\n    tag_356:\n        /* \"#utility.yul\":5097:5111   */\n      pop\n        /* \"#utility.yul\":5393:5396   */\n      dup6\n        /* \"#utility.yul\":5386:5396   */\n      swap4\n      pop\n        /* \"#utility.yul\":4804:5402   */\n      pop\n      pop\n      pop\n        /* \"#utility.yul\":4690:5402   */\n      swap3\n      swap2\n      pop\n      pop\n      jump\t// out\n        /* \"#utility.yul\":5474:6950   */\n    tag_244:\n        /* \"#utility.yul\":5579:5582   */\n      0x00\n        /* \"#utility.yul\":5615:5619   */\n      0xc0\n        /* \"#utility.yul\":5610:5613   */\n      dup4\n        /* \"#utility.yul\":5606:5620   */\n      add\n        /* \"#utility.yul\":5700:5704   */\n      0x00\n        /* \"#utility.yul\":5693:5698   */\n      dup4\n        /* \"#utility.yul\":5689:5705   */\n      add\n        /* \"#utility.yul\":5683:5706   */\n      mload\n        /* \"#utility.yul\":5719:5782   */\n      tag_360\n        /* \"#utility.yul\":5776:5780   */\n      0x00\n        /* \"#utility.yul\":5771:5774   */\n      dup7\n        /* \"#utility.yul\":5767:5781   */\n      add\n        /* \"#utility.yul\":5753:5765   */\n      dup3\n        /* \"#utility.yul\":5719:5782   */\n      tag_232\n      jump\t// in\n    tag_360:\n        /* \"#utility.yul\":5630:5792   */\n      pop\n        /* \"#utility.yul\":5874:5878   */\n      0x20\n        /* \"#utility.yul\":5867:5872   */\n      dup4\n        /* \"#utility.yul\":5863:5879   */\n      add\n        /* \"#utility.yul\":5857:5880   */\n      mload\n        /* \"#utility.yul\":5927:5930   */\n      dup5\n        /* \"#utility.yul\":5921:5925   */\n      dup3\n        /* \"#utility.yul\":5917:5931   */\n      sub\n        /* \"#utility.yul\":5910:5914   */\n      0x20\n        /* \"#utility.yul\":5905:5908   */\n      dup7\n        /* \"#utility.yul\":5901:5915   */\n      add\n        /* \"#utility.yul\":5894:5932   */\n      mstore\n        /* \"#utility.yul\":5953:6026   */\n      tag_361\n        /* \"#utility.yul\":6021:6025   */\n      dup3\n        /* \"#utility.yul\":6007:6019   */\n      dup3\n        /* \"#utility.yul\":5953:6026   */\n      tag_237\n      jump\t// in\n    tag_361:\n        /* \"#utility.yul\":5945:6026   */\n      swap2\n      pop\n        /* \"#utility.yul\":5802:6037   */\n      pop\n        /* \"#utility.yul\":6126:6130   */\n      0x40\n        /* \"#utility.yul\":6119:6124   */\n      dup4\n        /* \"#utility.yul\":6115:6131   */\n      add\n        /* \"#utility.yul\":6109:6132   */\n      mload\n        /* \"#utility.yul\":6179:6182   */\n      dup5\n        /* \"#utility.yul\":6173:6177   */\n      dup3\n        /* \"#utility.yul\":6169:6183   */\n      sub\n        /* \"#utility.yul\":6162:6166   */\n      0x40\n        /* \"#utility.yul\":6157:6160   */\n      dup7\n        /* \"#utility.yul\":6153:6167   */\n      add\n        /* \"#utility.yul\":6146:6184   */\n      mstore\n        /* \"#utility.yul\":6205:6278   */\n      tag_362\n        /* \"#utility.yul\":6273:6277   */\n      dup3\n        /* \"#utility.yul\":6259:6271   */\n      dup3\n        /* \"#utility.yul\":6205:6278   */\n      tag_237\n      jump\t// in\n    tag_362:\n        /* \"#utility.yul\":6197:6278   */\n      swap2\n      pop\n        /* \"#utility.yul\":6047:6289   */\n      pop\n        /* \"#utility.yul\":6372:6376   */\n      0x60\n        /* \"#utility.yul\":6365:6370   */\n      dup4\n        /* \"#utility.yul\":6361:6377   */\n      add\n        /* \"#utility.yul\":6355:6378   */\n      mload\n        /* \"#utility.yul\":6391:6454   */\n      tag_363\n        /* \"#utility.yul\":6448:6452   */\n      0x60\n        /* \"#utility.yul\":6443:6446   */\n      dup7\n        /* \"#utility.yul\":6439:6453   */\n      add\n        /* \"#utility.yul\":6425:6437   */\n      dup3\n        /* \"#utility.yul\":6391:6454   */\n      tag_232\n      jump\t// in\n    tag_363:\n        /* \"#utility.yul\":6299:6464   */\n      pop\n        /* \"#utility.yul\":6550:6554   */\n      0x80\n        /* \"#utility.yul\":6543:6548   */\n      dup4\n        /* \"#utility.yul\":6539:6555   */\n      add\n        /* \"#utility.yul\":6533:6556   */\n      mload\n        /* \"#utility.yul\":6569:6632   */\n      tag_364\n        /* \"#utility.yul\":6626:6630   */\n      0x80\n        /* \"#utility.yul\":6621:6624   */\n      dup7\n        /* \"#utility.yul\":6617:6631   */\n      add\n        /* \"#utility.yul\":6603:6615   */\n      dup3\n        /* \"#utility.yul\":6569:6632   */\n      tag_232\n      jump\t// in\n    tag_364:\n        /* \"#utility.yul\":6474:6642   */\n      pop\n        /* \"#utility.yul\":6730:6734   */\n      0xa0\n        /* \"#utility.yul\":6723:6728   */\n      dup4\n        /* \"#utility.yul\":6719:6735   */\n      add\n        /* \"#utility.yul\":6713:6736   */\n      mload\n        /* \"#utility.yul\":6783:6786   */\n      dup5\n        /* \"#utility.yul\":6777:6781   */\n      dup3\n        /* \"#utility.yul\":6773:6787   */\n      sub\n        /* \"#utility.yul\":6766:6770   */\n      0xa0\n        /* \"#utility.yul\":6761:6764   */\n      dup7\n        /* \"#utility.yul\":6757:6771   */\n      add\n        /* \"#utility.yul\":6750:6788   */\n      mstore\n        /* \"#utility.yul\":6809:6912   */\n      tag_365\n        /* \"#utility.yul\":6907:6911   */\n      dup3\n        /* \"#utility.yul\":6893:6905   */\n      dup3\n        /* \"#utility.yul\":6809:6912   */\n      tag_243\n      jump\t// in\n    tag_365:\n        /* \"#utility.yul\":6801:6912   */\n      swap2\n      pop\n        /* \"#utility.yul\":6652:6923   */\n      pop\n        /* \"#utility.yul\":6940:6944   */\n      dup1\n        /* \"#utility.yul\":6933:6944   */\n      swap2\n      pop\n        /* \"#utility.yul\":5584:6950   */\n      pop\n        /* \"#utility.yul\":5474:6950   */\n      swap3\n      swap2\n      pop\n      pop\n      jump\t// out\n        /* \"#utility.yul\":6956:7204   */\n    tag_245:\n        /* \"#utility.yul\":7071:7081   */\n      0x00\n        /* \"#utility.yul\":7106:7198   */\n      tag_367\n        /* \"#utility.yul\":7194:7197   */\n      dup4\n        /* \"#utility.yul\":7186:7192   */\n      dup4\n        /* \"#utility.yul\":7106:7198   */\n      tag_244\n      jump\t// in\n    tag_367:\n        /* \"#utility.yul\":7092:7198   */\n      swap1\n      pop\n        /* \"#utility.yul\":6956:7204   */\n      swap3\n      swap2\n      pop\n      pop\n      jump\t// out\n        /* \"#utility.yul\":7210:7346   */\n    tag_246:\n        /* \"#utility.yul\":7303:7307   */\n      0x00\n        /* \"#utility.yul\":7335:7339   */\n      0x20\n        /* \"#utility.yul\":7330:7333   */\n      dup3\n        /* \"#utility.yul\":7326:7340   */\n      add\n        /* \"#utility.yul\":7318:7340   */\n      swap1\n      pop\n        /* \"#utility.yul\":7210:7346   */\n      swap2\n      swap1\n      pop\n      jump\t// out\n        /* \"#utility.yul\":7422:8517   */\n    tag_247:\n        /* \"#utility.yul\":7587:7590   */\n      0x00\n        /* \"#utility.yul\":7616:7693   */\n      tag_370\n        /* \"#utility.yul\":7687:7692   */\n      dup3\n        /* \"#utility.yul\":7616:7693   */\n      tag_229\n      jump\t// in\n    tag_370:\n        /* \"#utility.yul\":7709:7818   */\n      tag_371\n        /* \"#utility.yul\":7811:7817   */\n      dup2\n        /* \"#utility.yul\":7806:7809   */\n      dup6\n        /* \"#utility.yul\":7709:7818   */\n      tag_230\n      jump\t// in\n    tag_371:\n        /* \"#utility.yul\":7702:7818   */\n      swap4\n      pop\n        /* \"#utility.yul\":7844:7847   */\n      dup4\n        /* \"#utility.yul\":7889:7893   */\n      0x20\n        /* \"#utility.yul\":7881:7887   */\n      dup3\n        /* \"#utility.yul\":7877:7894   */\n      mul\n        /* \"#utility.yul\":7872:7875   */\n      dup6\n        /* \"#utility.yul\":7868:7895   */\n      add\n        /* \"#utility.yul\":7919:7998   */\n      tag_372\n        /* \"#utility.yul\":7992:7997   */\n      dup6\n        /* \"#utility.yul\":7919:7998   */\n      tag_231\n      jump\t// in\n    tag_372:\n        /* \"#utility.yul\":8021:8028   */\n      dup1\n        /* \"#utility.yul\":8052:8053   */\n      0x00\n        /* \"#utility.yul\":8037:8472   */\n    tag_373:\n        /* \"#utility.yul\":8062:8068   */\n      dup6\n        /* \"#utility.yul\":8059:8060   */\n      dup2\n        /* \"#utility.yul\":8056:8069   */\n      lt\n        /* \"#utility.yul\":8037:8472   */\n      iszero\n      tag_375\n      jumpi\n        /* \"#utility.yul\":8133:8142   */\n      dup5\n        /* \"#utility.yul\":8127:8131   */\n      dup5\n        /* \"#utility.yul\":8123:8143   */\n      sub\n        /* \"#utility.yul\":8118:8121   */\n      dup10\n        /* \"#utility.yul\":8111:8144   */\n      mstore\n        /* \"#utility.yul\":8184:8190   */\n      dup2\n        /* \"#utility.yul\":8178:8191   */\n      mload\n        /* \"#utility.yul\":8212:8322   */\n      tag_376\n        /* \"#utility.yul\":8317:8321   */\n      dup6\n        /* \"#utility.yul\":8302:8315   */\n      dup3\n        /* \"#utility.yul\":8212:8322   */\n      tag_245\n      jump\t// in\n    tag_376:\n        /* \"#utility.yul\":8204:8322   */\n      swap5\n      pop\n        /* \"#utility.yul\":8345:8428   */\n      tag_377\n        /* \"#utility.yul\":8421:8427   */\n      dup4\n        /* \"#utility.yul\":8345:8428   */\n      tag_246\n      jump\t// in\n    tag_377:\n        /* \"#utility.yul\":8335:8428   */\n      swap3\n      pop\n        /* \"#utility.yul\":8457:8461   */\n      0x20\n        /* \"#utility.yul\":8452:8455   */\n      dup11\n        /* \"#utility.yul\":8448:8462   */\n      add\n        /* \"#utility.yul\":8441:8462   */\n      swap10\n      pop\n        /* \"#utility.yul\":8097:8472   */\n      pop\n        /* \"#utility.yul\":8084:8085   */\n      0x01\n        /* \"#utility.yul\":8081:8082   */\n      dup2\n        /* \"#utility.yul\":8077:8086   */\n      add\n        /* \"#utility.yul\":8072:8086   */\n      swap1\n      pop\n        /* \"#utility.yul\":8037:8472   */\n      jump(tag_373)\n    tag_375:\n        /* \"#utility.yul\":8041:8055   */\n      pop\n        /* \"#utility.yul\":8488:8492   */\n      dup3\n        /* \"#utility.yul\":8481:8492   */\n      swap8\n      pop\n        /* \"#utility.yul\":8508:8511   */\n      dup8\n        /* \"#utility.yul\":8501:8511   */\n      swap6\n      pop\n        /* \"#utility.yul\":7592:8517   */\n      pop\n      pop\n      pop\n      pop\n      pop\n        /* \"#utility.yul\":7422:8517   */\n      swap3\n      swap2\n      pop\n      pop\n      jump\t// out\n        /* \"#utility.yul\":8523:8988   */\n    tag_42:\n        /* \"#utility.yul\":8712:8716   */\n      0x00\n        /* \"#utility.yul\":8750:8752   */\n      0x20\n        /* \"#utility.yul\":8739:8748   */\n      dup3\n        /* \"#utility.yul\":8735:8753   */\n      add\n        /* \"#utility.yul\":8727:8753   */\n      swap1\n      pop\n        /* \"#utility.yul\":8799:8808   */\n      dup2\n        /* \"#utility.yul\":8793:8797   */\n      dup2\n        /* \"#utility.yul\":8789:8809   */\n      sub\n        /* \"#utility.yul\":8785:8786   */\n      0x00\n        /* \"#utility.yul\":8774:8783   */\n      dup4\n        /* \"#utility.yul\":8770:8787   */\n      add\n        /* \"#utility.yul\":8763:8810   */\n      mstore\n        /* \"#utility.yul\":8827:8981   */\n      tag_379\n        /* \"#utility.yul\":8976:8980   */\n      dup2\n        /* \"#utility.yul\":8967:8973   */\n      dup5\n        /* \"#utility.yul\":8827:8981   */\n      tag_247\n      jump\t// in\n    tag_379:\n        /* \"#utility.yul\":8819:8981   */\n      swap1\n      pop\n        /* \"#utility.yul\":8523:8988   */\n      swap3\n      swap2\n      pop\n      pop\n      jump\t// out\n        /* \"#utility.yul\":8994:9163   */\n    tag_248:\n        /* \"#utility.yul\":9078:9089   */\n      0x00\n        /* \"#utility.yul\":9112:9118   */\n      dup3\n        /* \"#utility.yul\":9107:9110   */\n      dup3\n        /* \"#utility.yul\":9100:9119   */\n      mstore\n        /* \"#utility.yul\":9152:9156   */\n      0x20\n        /* \"#utility.yul\":9147:9150   */\n      dup3\n        /* \"#utility.yul\":9143:9157   */\n      add\n        /* \"#utility.yul\":9128:9157   */\n      swap1\n      pop\n        /* \"#utility.yul\":8994:9163   */\n      swap3\n      swap2\n      pop\n      pop\n      jump\t// out\n        /* \"#utility.yul\":9169:9546   */\n    tag_249:\n        /* \"#utility.yul\":9257:9260   */\n      0x00\n        /* \"#utility.yul\":9285:9324   */\n      tag_382\n        /* \"#utility.yul\":9318:9323   */\n      dup3\n        /* \"#utility.yul\":9285:9324   */\n      tag_233\n      jump\t// in\n    tag_382:\n        /* \"#utility.yul\":9340:9411   */\n      tag_383\n        /* \"#utility.yul\":9404:9410   */\n      dup2\n        /* \"#utility.yul\":9399:9402   */\n      dup6\n        /* \"#utility.yul\":9340:9411   */\n      tag_248\n      jump\t// in\n    tag_383:\n        /* \"#utility.yul\":9333:9411   */\n      swap4\n      pop\n        /* \"#utility.yul\":9420:9485   */\n      tag_384\n        /* \"#utility.yul\":9478:9484   */\n      dup2\n        /* \"#utility.yul\":9473:9476   */\n      dup6\n        /* \"#utility.yul\":9466:9470   */\n      0x20\n        /* \"#utility.yul\":9459:9464   */\n      dup7\n        /* \"#utility.yul\":9455:9471   */\n      add\n        /* \"#utility.yul\":9420:9485   */\n      tag_235\n      jump\t// in\n    tag_384:\n        /* \"#utility.yul\":9510:9539   */\n      tag_385\n        /* \"#utility.yul\":9532:9538   */\n      dup2\n        /* \"#utility.yul\":9510:9539   */\n      tag_236\n      jump\t// in\n    tag_385:\n        /* \"#utility.yul\":9505:9508   */\n      dup5\n        /* \"#utility.yul\":9501:9540   */\n      add\n        /* \"#utility.yul\":9494:9540   */\n      swap2\n      pop\n        /* \"#utility.yul\":9261:9546   */\n      pop\n        /* \"#utility.yul\":9169:9546   */\n      swap3\n      swap2\n      pop\n      pop\n      jump\t// out\n        /* \"#utility.yul\":9552:10398   */\n    tag_47:\n        /* \"#utility.yul\":9797:9801   */\n      0x00\n        /* \"#utility.yul\":9835:9838   */\n      0xa0\n        /* \"#utility.yul\":9824:9833   */\n      dup3\n        /* \"#utility.yul\":9820:9839   */\n      add\n        /* \"#utility.yul\":9812:9839   */\n      swap1\n      pop\n        /* \"#utility.yul\":9849:9920   */\n      tag_387\n        /* \"#utility.yul\":9917:9918   */\n      0x00\n        /* \"#utility.yul\":9906:9915   */\n      dup4\n        /* \"#utility.yul\":9902:9919   */\n      add\n        /* \"#utility.yul\":9893:9899   */\n      dup9\n        /* \"#utility.yul\":9849:9920   */\n      tag_225\n      jump\t// in\n    tag_387:\n        /* \"#utility.yul\":9967:9976   */\n      dup2\n        /* \"#utility.yul\":9961:9965   */\n      dup2\n        /* \"#utility.yul\":9957:9977   */\n      sub\n        /* \"#utility.yul\":9952:9954   */\n      0x20\n        /* \"#utility.yul\":9941:9950   */\n      dup4\n        /* \"#utility.yul\":9937:9955   */\n      add\n        /* \"#utility.yul\":9930:9978   */\n      mstore\n        /* \"#utility.yul\":9995:10073   */\n      tag_388\n        /* \"#utility.yul\":10068:10072   */\n      dup2\n        /* \"#utility.yul\":10059:10065   */\n      dup8\n        /* \"#utility.yul\":9995:10073   */\n      tag_249\n      jump\t// in\n    tag_388:\n        /* \"#utility.yul\":9987:10073   */\n      swap1\n      pop\n        /* \"#utility.yul\":10120:10129   */\n      dup2\n        /* \"#utility.yul\":10114:10118   */\n      dup2\n        /* \"#utility.yul\":10110:10130   */\n      sub\n        /* \"#utility.yul\":10105:10107   */\n      0x40\n        /* \"#utility.yul\":10094:10103   */\n      dup4\n        /* \"#utility.yul\":10090:10108   */\n      add\n        /* \"#utility.yul\":10083:10131   */\n      mstore\n        /* \"#utility.yul\":10148:10226   */\n      tag_389\n        /* \"#utility.yul\":10221:10225   */\n      dup2\n        /* \"#utility.yul\":10212:10218   */\n      dup7\n        /* \"#utility.yul\":10148:10226   */\n      tag_249\n      jump\t// in\n    tag_389:\n        /* \"#utility.yul\":10140:10226   */\n      swap1\n      pop\n        /* \"#utility.yul\":10236:10308   */\n      tag_390\n        /* \"#utility.yul\":10304:10306   */\n      0x60\n        /* \"#utility.yul\":10293:10302   */\n      dup4\n        /* \"#utility.yul\":10289:10307   */\n      add\n        /* \"#utility.yul\":10280:10286   */\n      dup6\n        /* \"#utility.yul\":10236:10308   */\n      tag_225\n      jump\t// in\n    tag_390:\n        /* \"#utility.yul\":10318:10391   */\n      tag_391\n        /* \"#utility.yul\":10386:10389   */\n      0x80\n        /* \"#utility.yul\":10375:10384   */\n      dup4\n        /* \"#utility.yul\":10371:10390   */\n      add\n        /* \"#utility.yul\":10362:10368   */\n      dup5\n        /* \"#utility.yul\":10318:10391   */\n      tag_225\n      jump\t// in\n    tag_391:\n        /* \"#utility.yul\":9552:10398   */\n      swap7\n      swap6\n      pop\n      pop\n      pop\n      pop\n      pop\n      pop\n      jump\t// out\n        /* \"#utility.yul\":10404:10521   */\n    tag_250:\n        /* \"#utility.yul\":10513:10514   */\n      0x00\n        /* \"#utility.yul\":10510:10511   */\n      dup1\n        /* \"#utility.yul\":10503:10515   */\n      revert\n        /* \"#utility.yul\":10527:10644   */\n    tag_251:\n        /* \"#utility.yul\":10636:10637   */\n      0x00\n        /* \"#utility.yul\":10633:10634   */\n      dup1\n        /* \"#utility.yul\":10626:10638   */\n      revert\n        /* \"#utility.yul\":10650:10767   */\n    tag_252:\n        /* \"#utility.yul\":10759:10760   */\n      0x00\n        /* \"#utility.yul\":10756:10757   */\n      dup1\n        /* \"#utility.yul\":10749:10761   */\n      revert\n        /* \"#utility.yul\":10787:11340   */\n    tag_253:\n        /* \"#utility.yul\":10845:10853   */\n      0x00\n        /* \"#utility.yul\":10855:10861   */\n      dup1\n        /* \"#utility.yul\":10905:10908   */\n      dup4\n        /* \"#utility.yul\":10898:10902   */\n      0x1f\n        /* \"#utility.yul\":10890:10896   */\n      dup5\n        /* \"#utility.yul\":10886:10903   */\n      add\n        /* \"#utility.yul\":10882:10909   */\n      slt\n        /* \"#utility.yul\":10872:10994   */\n      tag_396\n      jumpi\n        /* \"#utility.yul\":10913:10992   */\n      tag_397\n      tag_250\n      jump\t// in\n    tag_397:\n        /* \"#utility.yul\":10872:10994   */\n    tag_396:\n        /* \"#utility.yul\":11026:11032   */\n      dup3\n        /* \"#utility.yul\":11013:11033   */\n      calldataload\n        /* \"#utility.yul\":11003:11033   */\n      swap1\n      pop\n        /* \"#utility.yul\":11056:11074   */\n      0xffffffffffffffff\n        /* \"#utility.yul\":11048:11054   */\n      dup2\n        /* \"#utility.yul\":11045:11075   */\n      gt\n        /* \"#utility.yul\":11042:11159   */\n      iszero\n      tag_398\n      jumpi\n        /* \"#utility.yul\":11078:11157   */\n      tag_399\n      tag_251\n      jump\t// in\n    tag_399:\n        /* \"#utility.yul\":11042:11159   */\n    tag_398:\n        /* \"#utility.yul\":11192:11196   */\n      0x20\n        /* \"#utility.yul\":11184:11190   */\n      dup4\n        /* \"#utility.yul\":11180:11197   */\n      add\n        /* \"#utility.yul\":11168:11197   */\n      swap2\n      pop\n        /* \"#utility.yul\":11246:11249   */\n      dup4\n        /* \"#utility.yul\":11238:11242   */\n      0x01\n        /* \"#utility.yul\":11230:11236   */\n      dup3\n        /* \"#utility.yul\":11226:11243   */\n      mul\n        /* \"#utility.yul\":11216:11224   */\n      dup4\n        /* \"#utility.yul\":11212:11244   */\n      add\n        /* \"#utility.yul\":11209:11250   */\n      gt\n        /* \"#utility.yul\":11206:11334   */\n      iszero\n      tag_400\n      jumpi\n        /* \"#utility.yul\":11253:11332   */\n      tag_401\n      tag_252\n      jump\t// in\n    tag_401:\n        /* \"#utility.yul\":11206:11334   */\n    tag_400:\n        /* \"#utility.yul\":10787:11340   */\n      swap3\n      pop\n      swap3\n      swap1\n      pop\n      jump\t// out\n        /* \"#utility.yul\":11346:12511   */\n    tag_50:\n        /* \"#utility.yul\":11456:11462   */\n      0x00\n        /* \"#utility.yul\":11464:11470   */\n      dup1\n        /* \"#utility.yul\":11472:11478   */\n      0x00\n        /* \"#utility.yul\":11480:11486   */\n      dup1\n        /* \"#utility.yul\":11488:11494   */\n      0x00\n        /* \"#utility.yul\":11496:11502   */\n      dup1\n        /* \"#utility.yul\":11545:11548   */\n      0x80\n        /* \"#utility.yul\":11533:11542   */\n      dup8\n        /* \"#utility.yul\":11524:11531   */\n      dup10\n        /* \"#utility.yul\":11520:11543   */\n      sub\n        /* \"#utility.yul\":11516:11549   */\n      slt\n        /* \"#utility.yul\":11513:11633   */\n      iszero\n      tag_403\n      jumpi\n        /* \"#utility.yul\":11552:11631   */\n      tag_404\n      tag_220\n      jump\t// in\n    tag_404:\n        /* \"#utility.yul\":11513:11633   */\n    tag_403:\n        /* \"#utility.yul\":11700:11701   */\n      0x00\n        /* \"#utility.yul\":11689:11698   */\n      dup8\n        /* \"#utility.yul\":11685:11702   */\n      add\n        /* \"#utility.yul\":11672:11703   */\n      calldataload\n        /* \"#utility.yul\":11730:11748   */\n      0xffffffffffffffff\n        /* \"#utility.yul\":11722:11728   */\n      dup2\n        /* \"#utility.yul\":11719:11749   */\n      gt\n        /* \"#utility.yul\":11716:11833   */\n      iszero\n      tag_405\n      jumpi\n        /* \"#utility.yul\":11752:11831   */\n      tag_406\n      tag_221\n      jump\t// in\n    tag_406:\n        /* \"#utility.yul\":11716:11833   */\n    tag_405:\n        /* \"#utility.yul\":11865:11930   */\n      tag_407\n        /* \"#utility.yul\":11922:11929   */\n      dup10\n        /* \"#utility.yul\":11913:11919   */\n      dup3\n        /* \"#utility.yul\":11902:11911   */\n      dup11\n        /* \"#utility.yul\":11898:11920   */\n      add\n        /* \"#utility.yul\":11865:11930   */\n      tag_253\n      jump\t// in\n    tag_407:\n        /* \"#utility.yul\":11847:11930   */\n      swap7\n      pop\n      swap7\n      pop\n        /* \"#utility.yul\":11643:11940   */\n      pop\n        /* \"#utility.yul\":12007:12009   */\n      0x20\n        /* \"#utility.yul\":11996:12005   */\n      dup8\n        /* \"#utility.yul\":11992:12010   */\n      add\n        /* \"#utility.yul\":11979:12011   */\n      calldataload\n        /* \"#utility.yul\":12038:12056   */\n      0xffffffffffffffff\n        /* \"#utility.yul\":12030:12036   */\n      dup2\n        /* \"#utility.yul\":12027:12057   */\n      gt\n        /* \"#utility.yul\":12024:12141   */\n      iszero\n      tag_408\n      jumpi\n        /* \"#utility.yul\":12060:12139   */\n      tag_409\n      tag_221\n      jump\t// in\n    tag_409:\n        /* \"#utility.yul\":12024:12141   */\n    tag_408:\n        /* \"#utility.yul\":12173:12238   */\n      tag_410\n        /* \"#utility.yul\":12230:12237   */\n      dup10\n        /* \"#utility.yul\":12221:12227   */\n      dup3\n        /* \"#utility.yul\":12210:12219   */\n      dup11\n        /* \"#utility.yul\":12206:12228   */\n      add\n        /* \"#utility.yul\":12173:12238   */\n      tag_253\n      jump\t// in\n    tag_410:\n        /* \"#utility.yul\":12155:12238   */\n      swap5\n      pop\n      swap5\n      pop\n        /* \"#utility.yul\":11950:12248   */\n      pop\n        /* \"#utility.yul\":12287:12289   */\n      0x40\n        /* \"#utility.yul\":12313:12366   */\n      tag_411\n        /* \"#utility.yul\":12358:12365   */\n      dup10\n        /* \"#utility.yul\":12349:12355   */\n      dup3\n        /* \"#utility.yul\":12338:12347   */\n      dup11\n        /* \"#utility.yul\":12334:12356   */\n      add\n        /* \"#utility.yul\":12313:12366   */\n      tag_224\n      jump\t// in\n    tag_411:\n        /* \"#utility.yul\":12303:12366   */\n      swap3\n      pop\n        /* \"#utility.yul\":12258:12376   */\n      pop\n        /* \"#utility.yul\":12415:12417   */\n      0x60\n        /* \"#utility.yul\":12441:12494   */\n      tag_412\n        /* \"#utility.yul\":12486:12493   */\n      dup10\n        /* \"#utility.yul\":12477:12483   */\n      dup3\n        /* \"#utility.yul\":12466:12475   */\n      dup11\n        /* \"#utility.yul\":12462:12484   */\n      add\n        /* \"#utility.yul\":12441:12494   */\n      tag_224\n      jump\t// in\n    tag_412:\n        /* \"#utility.yul\":12431:12494   */\n      swap2\n      pop\n        /* \"#utility.yul\":12386:12504   */\n      pop\n        /* \"#utility.yul\":11346:12511   */\n      swap3\n      swap6\n      pop\n      swap3\n      swap6\n      pop\n      swap3\n      swap6\n      jump\t// out\n        /* \"#utility.yul\":12517:12991   */\n    tag_58:\n        /* \"#utility.yul\":12585:12591   */\n      0x00\n        /* \"#utility.yul\":12593:12599   */\n      dup1\n        /* \"#utility.yul\":12642:12644   */\n      0x40\n        /* \"#utility.yul\":12630:12639   */\n      dup4\n        /* \"#utility.yul\":12621:12628   */\n      dup6\n        /* \"#utility.yul\":12617:12640   */\n      sub\n        /* \"#utility.yul\":12613:12645   */\n      slt\n        /* \"#utility.yul\":12610:12729   */\n      iszero\n      tag_414\n      jumpi\n        /* \"#utility.yul\":12648:12727   */\n      tag_415\n      tag_220\n      jump\t// in\n    tag_415:\n        /* \"#utility.yul\":12610:12729   */\n    tag_414:\n        /* \"#utility.yul\":12768:12769   */\n      0x00\n        /* \"#utility.yul\":12793:12846   */\n      tag_416\n        /* \"#utility.yul\":12838:12845   */\n      dup6\n        /* \"#utility.yul\":12829:12835   */\n      dup3\n        /* \"#utility.yul\":12818:12827   */\n      dup7\n        /* \"#utility.yul\":12814:12836   */\n      add\n        /* \"#utility.yul\":12793:12846   */\n      tag_224\n      jump\t// in\n    tag_416:\n        /* \"#utility.yul\":12783:12846   */\n      swap3\n      pop\n        /* \"#utility.yul\":12739:12856   */\n      pop\n        /* \"#utility.yul\":12895:12897   */\n      0x20\n        /* \"#utility.yul\":12921:12974   */\n      tag_417\n        /* \"#utility.yul\":12966:12973   */\n      dup6\n        /* \"#utility.yul\":12957:12963   */\n      dup3\n        /* \"#utility.yul\":12946:12955   */\n      dup7\n        /* \"#utility.yul\":12942:12964   */\n      add\n        /* \"#utility.yul\":12921:12974   */\n      tag_224\n      jump\t// in\n    tag_417:\n        /* \"#utility.yul\":12911:12974   */\n      swap2\n      pop\n        /* \"#utility.yul\":12866:12984   */\n      pop\n        /* \"#utility.yul\":12517:12991   */\n      swap3\n      pop\n      swap3\n      swap1\n      pop\n      jump\t// out\n        /* \"#utility.yul\":13014:13582   */\n    tag_254:\n        /* \"#utility.yul\":13087:13095   */\n      0x00\n        /* \"#utility.yul\":13097:13103   */\n      dup1\n        /* \"#utility.yul\":13147:13150   */\n      dup4\n        /* \"#utility.yul\":13140:13144   */\n      0x1f\n        /* \"#utility.yul\":13132:13138   */\n      dup5\n        /* \"#utility.yul\":13128:13145   */\n      add\n        /* \"#utility.yul\":13124:13151   */\n      slt\n        /* \"#utility.yul\":13114:13236   */\n      tag_419\n      jumpi\n        /* \"#utility.yul\":13155:13234   */\n      tag_420\n      tag_250\n      jump\t// in\n    tag_420:\n        /* \"#utility.yul\":13114:13236   */\n    tag_419:\n        /* \"#utility.yul\":13268:13274   */\n      dup3\n        /* \"#utility.yul\":13255:13275   */\n      calldataload\n        /* \"#utility.yul\":13245:13275   */\n      swap1\n      pop\n        /* \"#utility.yul\":13298:13316   */\n      0xffffffffffffffff\n        /* \"#utility.yul\":13290:13296   */\n      dup2\n        /* \"#utility.yul\":13287:13317   */\n      gt\n        /* \"#utility.yul\":13284:13401   */\n      iszero\n      tag_421\n      jumpi\n        /* \"#utility.yul\":13320:13399   */\n      tag_422\n      tag_251\n      jump\t// in\n    tag_422:\n        /* \"#utility.yul\":13284:13401   */\n    tag_421:\n        /* \"#utility.yul\":13434:13438   */\n      0x20\n        /* \"#utility.yul\":13426:13432   */\n      dup4\n        /* \"#utility.yul\":13422:13439   */\n      add\n        /* \"#utility.yul\":13410:13439   */\n      swap2\n      pop\n        /* \"#utility.yul\":13488:13491   */\n      dup4\n        /* \"#utility.yul\":13480:13484   */\n      0x20\n        /* \"#utility.yul\":13472:13478   */\n      dup3\n        /* \"#utility.yul\":13468:13485   */\n      mul\n        /* \"#utility.yul\":13458:13466   */\n      dup4\n        /* \"#utility.yul\":13454:13486   */\n      add\n        /* \"#utility.yul\":13451:13492   */\n      gt\n        /* \"#utility.yul\":13448:13576   */\n      iszero\n      tag_423\n      jumpi\n        /* \"#utility.yul\":13495:13574   */\n      tag_424\n      tag_252\n      jump\t// in\n    tag_424:\n        /* \"#utility.yul\":13448:13576   */\n    tag_423:\n        /* \"#utility.yul\":13014:13582   */\n      swap3\n      pop\n      swap3\n      swap1\n      pop\n      jump\t// out\n        /* \"#utility.yul\":13588:15129   */\n    tag_62:\n        /* \"#utility.yul\":13734:13740   */\n      0x00\n        /* \"#utility.yul\":13742:13748   */\n      dup1\n        /* \"#utility.yul\":13750:13756   */\n      0x00\n        /* \"#utility.yul\":13758:13764   */\n      dup1\n        /* \"#utility.yul\":13766:13772   */\n      0x00\n        /* \"#utility.yul\":13774:13780   */\n      dup1\n        /* \"#utility.yul\":13782:13788   */\n      0x00\n        /* \"#utility.yul\":13790:13796   */\n      dup1\n        /* \"#utility.yul\":13839:13842   */\n      0xa0\n        /* \"#utility.yul\":13827:13836   */\n      dup10\n        /* \"#utility.yul\":13818:13825   */\n      dup12\n        /* \"#utility.yul\":13814:13837   */\n      sub\n        /* \"#utility.yul\":13810:13843   */\n      slt\n        /* \"#utility.yul\":13807:13927   */\n      iszero\n      tag_426\n      jumpi\n        /* \"#utility.yul\":13846:13925   */\n      tag_427\n      tag_220\n      jump\t// in\n    tag_427:\n        /* \"#utility.yul\":13807:13927   */\n    tag_426:\n        /* \"#utility.yul\":13994:13995   */\n      0x00\n        /* \"#utility.yul\":13983:13992   */\n      dup10\n        /* \"#utility.yul\":13979:13996   */\n      add\n        /* \"#utility.yul\":13966:13997   */\n      calldataload\n        /* \"#utility.yul\":14024:14042   */\n      0xffffffffffffffff\n        /* \"#utility.yul\":14016:14022   */\n      dup2\n        /* \"#utility.yul\":14013:14043   */\n      gt\n        /* \"#utility.yul\":14010:14127   */\n      iszero\n      tag_428\n      jumpi\n        /* \"#utility.yul\":14046:14125   */\n      tag_429\n      tag_221\n      jump\t// in\n    tag_429:\n        /* \"#utility.yul\":14010:14127   */\n    tag_428:\n        /* \"#utility.yul\":14159:14224   */\n      tag_430\n        /* \"#utility.yul\":14216:14223   */\n      dup12\n        /* \"#utility.yul\":14207:14213   */\n      dup3\n        /* \"#utility.yul\":14196:14205   */\n      dup13\n        /* \"#utility.yul\":14192:14214   */\n      add\n        /* \"#utility.yul\":14159:14224   */\n      tag_253\n      jump\t// in\n    tag_430:\n        /* \"#utility.yul\":14141:14224   */\n      swap9\n      pop\n      swap9\n      pop\n        /* \"#utility.yul\":13937:14234   */\n      pop\n        /* \"#utility.yul\":14301:14303   */\n      0x20\n        /* \"#utility.yul\":14290:14299   */\n      dup10\n        /* \"#utility.yul\":14286:14304   */\n      add\n        /* \"#utility.yul\":14273:14305   */\n      calldataload\n        /* \"#utility.yul\":14332:14350   */\n      0xffffffffffffffff\n        /* \"#utility.yul\":14324:14330   */\n      dup2\n        /* \"#utility.yul\":14321:14351   */\n      gt\n        /* \"#utility.yul\":14318:14435   */\n      iszero\n      tag_431\n      jumpi\n        /* \"#utility.yul\":14354:14433   */\n      tag_432\n      tag_221\n      jump\t// in\n    tag_432:\n        /* \"#utility.yul\":14318:14435   */\n    tag_431:\n        /* \"#utility.yul\":14467:14532   */\n      tag_433\n        /* \"#utility.yul\":14524:14531   */\n      dup12\n        /* \"#utility.yul\":14515:14521   */\n      dup3\n        /* \"#utility.yul\":14504:14513   */\n      dup13\n        /* \"#utility.yul\":14500:14522   */\n      add\n        /* \"#utility.yul\":14467:14532   */\n      tag_253\n      jump\t// in\n    tag_433:\n        /* \"#utility.yul\":14449:14532   */\n      swap7\n      pop\n      swap7\n      pop\n        /* \"#utility.yul\":14244:14542   */\n      pop\n        /* \"#utility.yul\":14581:14583   */\n      0x40\n        /* \"#utility.yul\":14607:14660   */\n      tag_434\n        /* \"#utility.yul\":14652:14659   */\n      dup12\n        /* \"#utility.yul\":14643:14649   */\n      dup3\n        /* \"#utility.yul\":14632:14641   */\n      dup13\n        /* \"#utility.yul\":14628:14650   */\n      add\n        /* \"#utility.yul\":14607:14660   */\n      tag_224\n      jump\t// in\n    tag_434:\n        /* \"#utility.yul\":14597:14660   */\n      swap5\n      pop\n        /* \"#utility.yul\":14552:14670   */\n      pop\n        /* \"#utility.yul\":14709:14711   */\n      0x60\n        /* \"#utility.yul\":14735:14788   */\n      tag_435\n        /* \"#utility.yul\":14780:14787   */\n      dup12\n        /* \"#utility.yul\":14771:14777   */\n      dup3\n        /* \"#utility.yul\":14760:14769   */\n      dup13\n        /* \"#utility.yul\":14756:14778   */\n      add\n        /* \"#utility.yul\":14735:14788   */\n      tag_224\n      jump\t// in\n    tag_435:\n        /* \"#utility.yul\":14725:14788   */\n      swap4\n      pop\n        /* \"#utility.yul\":14680:14798   */\n      pop\n        /* \"#utility.yul\":14865:14868   */\n      0x80\n        /* \"#utility.yul\":14854:14863   */\n      dup10\n        /* \"#utility.yul\":14850:14869   */\n      add\n        /* \"#utility.yul\":14837:14870   */\n      calldataload\n        /* \"#utility.yul\":14897:14915   */\n      0xffffffffffffffff\n        /* \"#utility.yul\":14889:14895   */\n      dup2\n        /* \"#utility.yul\":14886:14916   */\n      gt\n        /* \"#utility.yul\":14883:15000   */\n      iszero\n      tag_436\n      jumpi\n        /* \"#utility.yul\":14919:14998   */\n      tag_437\n      tag_221\n      jump\t// in\n    tag_437:\n        /* \"#utility.yul\":14883:15000   */\n    tag_436:\n        /* \"#utility.yul\":15032:15112   */\n      tag_438\n        /* \"#utility.yul\":15104:15111   */\n      dup12\n        /* \"#utility.yul\":15095:15101   */\n      dup3\n        /* \"#utility.yul\":15084:15093   */\n      dup13\n        /* \"#utility.yul\":15080:15102   */\n      add\n        /* \"#utility.yul\":15032:15112   */\n      tag_254\n      jump\t// in\n    tag_438:\n        /* \"#utility.yul\":15014:15112   */\n      swap3\n      pop\n      swap3\n      pop\n        /* \"#utility.yul\":14808:15122   */\n      pop\n        /* \"#utility.yul\":13588:15129   */\n      swap3\n      swap6\n      swap9\n      pop\n      swap3\n      swap6\n      swap9\n      swap1\n      swap4\n      swap7\n      pop\n      jump\t// out\n        /* \"#utility.yul\":15135:15272   */\n    tag_255:\n        /* \"#utility.yul\":15225:15231   */\n      0x00\n        /* \"#utility.yul\":15259:15264   */\n      dup2\n        /* \"#utility.yul\":15253:15265   */\n      mload\n        /* \"#utility.yul\":15243:15265   */\n      swap1\n      pop\n        /* \"#utility.yul\":15135:15272   */\n      swap2\n      swap1\n      pop\n      jump\t// out\n        /* \"#utility.yul\":15278:15485   */\n    tag_256:\n        /* \"#utility.yul\":15400:15411   */\n      0x00\n        /* \"#utility.yul\":15434:15440   */\n      dup3\n        /* \"#utility.yul\":15429:15432   */\n      dup3\n        /* \"#utility.yul\":15422:15441   */\n      mstore\n        /* \"#utility.yul\":15474:15478   */\n      0x20\n        /* \"#utility.yul\":15469:15472   */\n      dup3\n        /* \"#utility.yul\":15465:15479   */\n      add\n        /* \"#utility.yul\":15450:15479   */\n      swap1\n      pop\n        /* \"#utility.yul\":15278:15485   */\n      swap3\n      swap2\n      pop\n      pop\n      jump\t// out\n        /* \"#utility.yul\":15491:15646   */\n    tag_257:\n        /* \"#utility.yul\":15581:15585   */\n      0x00\n        /* \"#utility.yul\":15604:15607   */\n      dup2\n        /* \"#utility.yul\":15596:15607   */\n      swap1\n      pop\n        /* \"#utility.yul\":15634:15638   */\n      0x20\n        /* \"#utility.yul\":15629:15632   */\n      dup3\n        /* \"#utility.yul\":15625:15639   */\n      add\n        /* \"#utility.yul\":15617:15639   */\n      swap1\n      pop\n        /* \"#utility.yul\":15491:15646   */\n      swap2\n      swap1\n      pop\n      jump\t// out\n        /* \"#utility.yul\":15718:16915   */\n    tag_258:\n        /* \"#utility.yul\":15823:15826   */\n      0x00\n        /* \"#utility.yul\":15859:15863   */\n      0xa0\n        /* \"#utility.yul\":15854:15857   */\n      dup4\n        /* \"#utility.yul\":15850:15864   */\n      add\n        /* \"#utility.yul\":15944:15948   */\n      0x00\n        /* \"#utility.yul\":15937:15942   */\n      dup4\n        /* \"#utility.yul\":15933:15949   */\n      add\n        /* \"#utility.yul\":15927:15950   */\n      mload\n        /* \"#utility.yul\":15963:16026   */\n      tag_443\n        /* \"#utility.yul\":16020:16024   */\n      0x00\n        /* \"#utility.yul\":16015:16018   */\n      dup7\n        /* \"#utility.yul\":16011:16025   */\n      add\n        /* \"#utility.yul\":15997:16009   */\n      dup3\n        /* \"#utility.yul\":15963:16026   */\n      tag_232\n      jump\t// in\n    tag_443:\n        /* \"#utility.yul\":15874:16036   */\n      pop\n        /* \"#utility.yul\":16118:16122   */\n      0x20\n        /* \"#utility.yul\":16111:16116   */\n      dup4\n        /* \"#utility.yul\":16107:16123   */\n      add\n        /* \"#utility.yul\":16101:16124   */\n      mload\n        /* \"#utility.yul\":16171:16174   */\n      dup5\n        /* \"#utility.yul\":16165:16169   */\n      dup3\n        /* \"#utility.yul\":16161:16175   */\n      sub\n        /* \"#utility.yul\":16154:16158   */\n      0x20\n        /* \"#utility.yul\":16149:16152   */\n      dup7\n        /* \"#utility.yul\":16145:16159   */\n      add\n        /* \"#utility.yul\":16138:16176   */\n      mstore\n        /* \"#utility.yul\":16197:16270   */\n      tag_444\n        /* \"#utility.yul\":16265:16269   */\n      dup3\n        /* \"#utility.yul\":16251:16263   */\n      dup3\n        /* \"#utility.yul\":16197:16270   */\n      tag_237\n      jump\t// in\n    tag_444:\n        /* \"#utility.yul\":16189:16270   */\n      swap2\n      pop\n        /* \"#utility.yul\":16046:16281   */\n      pop\n        /* \"#utility.yul\":16370:16374   */\n      0x40\n        /* \"#utility.yul\":16363:16368   */\n      dup4\n        /* \"#utility.yul\":16359:16375   */\n      add\n        /* \"#utility.yul\":16353:16376   */\n      mload\n        /* \"#utility.yul\":16423:16426   */\n      dup5\n        /* \"#utility.yul\":16417:16421   */\n      dup3\n        /* \"#utility.yul\":16413:16427   */\n      sub\n        /* \"#utility.yul\":16406:16410   */\n      0x40\n        /* \"#utility.yul\":16401:16404   */\n      dup7\n        /* \"#utility.yul\":16397:16411   */\n      add\n        /* \"#utility.yul\":16390:16428   */\n      mstore\n        /* \"#utility.yul\":16449:16522   */\n      tag_445\n        /* \"#utility.yul\":16517:16521   */\n      dup3\n        /* \"#utility.yul\":16503:16515   */\n      dup3\n        /* \"#utility.yul\":16449:16522   */\n      tag_237\n      jump\t// in\n    tag_445:\n        /* \"#utility.yul\":16441:16522   */\n      swap2\n      pop\n        /* \"#utility.yul\":16291:16533   */\n      pop\n        /* \"#utility.yul\":16616:16620   */\n      0x60\n        /* \"#utility.yul\":16609:16614   */\n      dup4\n        /* \"#utility.yul\":16605:16621   */\n      add\n        /* \"#utility.yul\":16599:16622   */\n      mload\n        /* \"#utility.yul\":16635:16698   */\n      tag_446\n        /* \"#utility.yul\":16692:16696   */\n      0x60\n        /* \"#utility.yul\":16687:16690   */\n      dup7\n        /* \"#utility.yul\":16683:16697   */\n      add\n        /* \"#utility.yul\":16669:16681   */\n      dup3\n        /* \"#utility.yul\":16635:16698   */\n      tag_232\n      jump\t// in\n    tag_446:\n        /* \"#utility.yul\":16543:16708   */\n      pop\n        /* \"#utility.yul\":16796:16800   */\n      0x80\n        /* \"#utility.yul\":16789:16794   */\n      dup4\n        /* \"#utility.yul\":16785:16801   */\n      add\n        /* \"#utility.yul\":16779:16802   */\n      mload\n        /* \"#utility.yul\":16815:16878   */\n      tag_447\n        /* \"#utility.yul\":16872:16876   */\n      0x80\n        /* \"#utility.yul\":16867:16870   */\n      dup7\n        /* \"#utility.yul\":16863:16877   */\n      add\n        /* \"#utility.yul\":16849:16861   */\n      dup3\n        /* \"#utility.yul\":16815:16878   */\n      tag_232\n      jump\t// in\n    tag_447:\n        /* \"#utility.yul\":16718:16888   */\n      pop\n        /* \"#utility.yul\":16905:16909   */\n      dup1\n        /* \"#utility.yul\":16898:16909   */\n      swap2\n      pop\n        /* \"#utility.yul\":15828:16915   */\n      pop\n        /* \"#utility.yul\":15718:16915   */\n      swap3\n      swap2\n      pop\n      pop\n      jump\t// out\n        /* \"#utility.yul\":16921:17169   */\n    tag_259:\n        /* \"#utility.yul\":17036:17046   */\n      0x00\n        /* \"#utility.yul\":17071:17163   */\n      tag_449\n        /* \"#utility.yul\":17159:17162   */\n      dup4\n        /* \"#utility.yul\":17151:17157   */\n      dup4\n        /* \"#utility.yul\":17071:17163   */\n      tag_258\n      jump\t// in\n    tag_449:\n        /* \"#utility.yul\":17057:17163   */\n      swap1\n      pop\n        /* \"#utility.yul\":16921:17169   */\n      swap3\n      swap2\n      pop\n      pop\n      jump\t// out\n        /* \"#utility.yul\":17175:17311   */\n    tag_260:\n        /* \"#utility.yul\":17268:17272   */\n      0x00\n        /* \"#utility.yul\":17300:17304   */\n      0x20\n        /* \"#utility.yul\":17295:17298   */\n      dup3\n        /* \"#utility.yul\":17291:17305   */\n      add\n        /* \"#utility.yul\":17283:17305   */\n      swap1\n      pop\n        /* \"#utility.yul\":17175:17311   */\n      swap2\n      swap1\n      pop\n      jump\t// out\n        /* \"#utility.yul\":17387:18482   */\n    tag_261:\n        /* \"#utility.yul\":17552:17555   */\n      0x00\n        /* \"#utility.yul\":17581:17658   */\n      tag_452\n        /* \"#utility.yul\":17652:17657   */\n      dup3\n        /* \"#utility.yul\":17581:17658   */\n      tag_255\n      jump\t// in\n    tag_452:\n        /* \"#utility.yul\":17674:17783   */\n      tag_453\n        /* \"#utility.yul\":17776:17782   */\n      dup2\n        /* \"#utility.yul\":17771:17774   */\n      dup6\n        /* \"#utility.yul\":17674:17783   */\n      tag_256\n      jump\t// in\n    tag_453:\n        /* \"#utility.yul\":17667:17783   */\n      swap4\n      pop\n        /* \"#utility.yul\":17809:17812   */\n      dup4\n        /* \"#utility.yul\":17854:17858   */\n      0x20\n        /* \"#utility.yul\":17846:17852   */\n      dup3\n        /* \"#utility.yul\":17842:17859   */\n      mul\n        /* \"#utility.yul\":17837:17840   */\n      dup6\n        /* \"#utility.yul\":17833:17860   */\n      add\n        /* \"#utility.yul\":17884:17963   */\n      tag_454\n        /* \"#utility.yul\":17957:17962   */\n      dup6\n        /* \"#utility.yul\":17884:17963   */\n      tag_257\n      jump\t// in\n    tag_454:\n        /* \"#utility.yul\":17986:17993   */\n      dup1\n        /* \"#utility.yul\":18017:18018   */\n      0x00\n        /* \"#utility.yul\":18002:18437   */\n    tag_455:\n        /* \"#utility.yul\":18027:18033   */\n      dup6\n        /* \"#utility.yul\":18024:18025   */\n      dup2\n        /* \"#utility.yul\":18021:18034   */\n      lt\n        /* \"#utility.yul\":18002:18437   */\n      iszero\n      tag_457\n      jumpi\n        /* \"#utility.yul\":18098:18107   */\n      dup5\n        /* \"#utility.yul\":18092:18096   */\n      dup5\n        /* \"#utility.yul\":18088:18108   */\n      sub\n        /* \"#utility.yul\":18083:18086   */\n      dup10\n        /* \"#utility.yul\":18076:18109   */\n      mstore\n        /* \"#utility.yul\":18149:18155   */\n      dup2\n        /* \"#utility.yul\":18143:18156   */\n      mload\n        /* \"#utility.yul\":18177:18287   */\n      tag_458\n        /* \"#utility.yul\":18282:18286   */\n      dup6\n        /* \"#utility.yul\":18267:18280   */\n      dup3\n        /* \"#utility.yul\":18177:18287   */\n      tag_259\n      jump\t// in\n    tag_458:\n        /* \"#utility.yul\":18169:18287   */\n      swap5\n      pop\n        /* \"#utility.yul\":18310:18393   */\n      tag_459\n        /* \"#utility.yul\":18386:18392   */\n      dup4\n        /* \"#utility.yul\":18310:18393   */\n      tag_260\n      jump\t// in\n    tag_459:\n        /* \"#utility.yul\":18300:18393   */\n      swap3\n      pop\n        /* \"#utility.yul\":18422:18426   */\n      0x20\n        /* \"#utility.yul\":18417:18420   */\n      dup11\n        /* \"#utility.yul\":18413:18427   */\n      add\n        /* \"#utility.yul\":18406:18427   */\n      swap10\n      pop\n        /* \"#utility.yul\":18062:18437   */\n      pop\n        /* \"#utility.yul\":18049:18050   */\n      0x01\n        /* \"#utility.yul\":18046:18047   */\n      dup2\n        /* \"#utility.yul\":18042:18051   */\n      add\n        /* \"#utility.yul\":18037:18051   */\n      swap1\n      pop\n        /* \"#utility.yul\":18002:18437   */\n      jump(tag_455)\n    tag_457:\n        /* \"#utility.yul\":18006:18020   */\n      pop\n        /* \"#utility.yul\":18453:18457   */\n      dup3\n        /* \"#utility.yul\":18446:18457   */\n      swap8\n      pop\n        /* \"#utility.yul\":18473:18476   */\n      dup8\n        /* \"#utility.yul\":18466:18476   */\n      swap6\n      pop\n        /* \"#utility.yul\":17557:18482   */\n      pop\n      pop\n      pop\n      pop\n      pop\n        /* \"#utility.yul\":17387:18482   */\n      swap3\n      swap2\n      pop\n      pop\n      jump\t// out\n        /* \"#utility.yul\":18488:18953   */\n    tag_75:\n        /* \"#utility.yul\":18677:18681   */\n      0x00\n        /* \"#utility.yul\":18715:18717   */\n      0x20\n        /* \"#utility.yul\":18704:18713   */\n      dup3\n        /* \"#utility.yul\":18700:18718   */\n      add\n        /* \"#utility.yul\":18692:18718   */\n      swap1\n      pop\n        /* \"#utility.yul\":18764:18773   */\n      dup2\n        /* \"#utility.yul\":18758:18762   */\n      dup2\n        /* \"#utility.yul\":18754:18774   */\n      sub\n        /* \"#utility.yul\":18750:18751   */\n      0x00\n        /* \"#utility.yul\":18739:18748   */\n      dup4\n        /* \"#utility.yul\":18735:18752   */\n      add\n        /* \"#utility.yul\":18728:18775   */\n      mstore\n        /* \"#utility.yul\":18792:18946   */\n      tag_461\n        /* \"#utility.yul\":18941:18945   */\n      dup2\n        /* \"#utility.yul\":18932:18938   */\n      dup5\n        /* \"#utility.yul\":18792:18946   */\n      tag_261\n      jump\t// in\n    tag_461:\n        /* \"#utility.yul\":18784:18946   */\n      swap1\n      pop\n        /* \"#utility.yul\":18488:18953   */\n      swap3\n      swap2\n      pop\n      pop\n      jump\t// out\n        /* \"#utility.yul\":18959:19081   */\n    tag_262:\n        /* \"#utility.yul\":19032:19056   */\n      tag_463\n        /* \"#utility.yul\":19050:19055   */\n      dup2\n        /* \"#utility.yul\":19032:19056   */\n      tag_227\n      jump\t// in\n    tag_463:\n        /* \"#utility.yul\":19025:19030   */\n      dup2\n        /* \"#utility.yul\":19022:19057   */\n      eq\n        /* \"#utility.yul\":19012:19075   */\n      tag_464\n      jumpi\n        /* \"#utility.yul\":19071:19072   */\n      0x00\n        /* \"#utility.yul\":19068:19069   */\n      dup1\n        /* \"#utility.yul\":19061:19073   */\n      revert\n        /* \"#utility.yul\":19012:19075   */\n    tag_464:\n        /* \"#utility.yul\":18959:19081   */\n      pop\n      jump\t// out\n        /* \"#utility.yul\":19087:19226   */\n    tag_263:\n        /* \"#utility.yul\":19133:19138   */\n      0x00\n        /* \"#utility.yul\":19171:19177   */\n      dup2\n        /* \"#utility.yul\":19158:19178   */\n      calldataload\n        /* \"#utility.yul\":19149:19178   */\n      swap1\n      pop\n        /* \"#utility.yul\":19187:19220   */\n      tag_466\n        /* \"#utility.yul\":19214:19219   */\n      dup2\n        /* \"#utility.yul\":19187:19220   */\n      tag_262\n      jump\t// in\n    tag_466:\n        /* \"#utility.yul\":19087:19226   */\n      swap3\n      swap2\n      pop\n      pop\n      jump\t// out\n        /* \"#utility.yul\":19232:19561   */\n    tag_81:\n        /* \"#utility.yul\":19291:19297   */\n      0x00\n        /* \"#utility.yul\":19340:19342   */\n      0x20\n        /* \"#utility.yul\":19328:19337   */\n      dup3\n        /* \"#utility.yul\":19319:19326   */\n      dup5\n        /* \"#utility.yul\":19315:19338   */\n      sub\n        /* \"#utility.yul\":19311:19343   */\n      slt\n        /* \"#utility.yul\":19308:19427   */\n      iszero\n      tag_468\n      jumpi\n        /* \"#utility.yul\":19346:19425   */\n      tag_469\n      tag_220\n      jump\t// in\n    tag_469:\n        /* \"#utility.yul\":19308:19427   */\n    tag_468:\n        /* \"#utility.yul\":19466:19467   */\n      0x00\n        /* \"#utility.yul\":19491:19544   */\n      tag_470\n        /* \"#utility.yul\":19536:19543   */\n      dup5\n        /* \"#utility.yul\":19527:19533   */\n      dup3\n        /* \"#utility.yul\":19516:19525   */\n      dup6\n        /* \"#utility.yul\":19512:19534   */\n      add\n        /* \"#utility.yul\":19491:19544   */\n      tag_263\n      jump\t// in\n    tag_470:\n        /* \"#utility.yul\":19481:19544   */\n      swap2\n      pop\n        /* \"#utility.yul\":19437:19554   */\n      pop\n        /* \"#utility.yul\":19232:19561   */\n      swap3\n      swap2\n      pop\n      pop\n      jump\t// out\n        /* \"#utility.yul\":19567:19704   */\n    tag_264:\n        /* \"#utility.yul\":19657:19663   */\n      0x00\n        /* \"#utility.yul\":19691:19696   */\n      dup2\n        /* \"#utility.yul\":19685:19697   */\n      mload\n        /* \"#utility.yul\":19675:19697   */\n      swap1\n      pop\n        /* \"#utility.yul\":19567:19704   */\n      swap2\n      swap1\n      pop\n      jump\t// out\n        /* \"#utility.yul\":19710:19917   */\n    tag_265:\n        /* \"#utility.yul\":19832:19843   */\n      0x00\n        /* \"#utility.yul\":19866:19872   */\n      dup3\n        /* \"#utility.yul\":19861:19864   */\n      dup3\n        /* \"#utility.yul\":19854:19873   */\n      mstore\n        /* \"#utility.yul\":19906:19910   */\n      0x20\n        /* \"#utility.yul\":19901:19904   */\n      dup3\n        /* \"#utility.yul\":19897:19911   */\n      add\n        /* \"#utility.yul\":19882:19911   */\n      swap1\n      pop\n        /* \"#utility.yul\":19710:19917   */\n      swap3\n      swap2\n      pop\n      pop\n      jump\t// out\n        /* \"#utility.yul\":19923:20078   */\n    tag_266:\n        /* \"#utility.yul\":20013:20017   */\n      0x00\n        /* \"#utility.yul\":20036:20039   */\n      dup2\n        /* \"#utility.yul\":20028:20039   */\n      swap1\n      pop\n        /* \"#utility.yul\":20066:20070   */\n      0x20\n        /* \"#utility.yul\":20061:20064   */\n      dup3\n        /* \"#utility.yul\":20057:20071   */\n      add\n        /* \"#utility.yul\":20049:20071   */\n      swap1\n      pop\n        /* \"#utility.yul\":19923:20078   */\n      swap2\n      swap1\n      pop\n      jump\t// out\n        /* \"#utility.yul\":20084:20192   */\n    tag_267:\n        /* \"#utility.yul\":20161:20185   */\n      tag_475\n        /* \"#utility.yul\":20179:20184   */\n      dup2\n        /* \"#utility.yul\":20161:20185   */\n      tag_227\n      jump\t// in\n    tag_475:\n        /* \"#utility.yul\":20156:20159   */\n      dup3\n        /* \"#utility.yul\":20149:20186   */\n      mstore\n        /* \"#utility.yul\":20084:20192   */\n      pop\n      pop\n      jump\t// out\n        /* \"#utility.yul\":20264:21110   */\n    tag_268:\n        /* \"#utility.yul\":20397:20401   */\n      0x80\n        /* \"#utility.yul\":20392:20395   */\n      dup3\n        /* \"#utility.yul\":20388:20402   */\n      add\n        /* \"#utility.yul\":20482:20486   */\n      0x00\n        /* \"#utility.yul\":20475:20480   */\n      dup3\n        /* \"#utility.yul\":20471:20487   */\n      add\n        /* \"#utility.yul\":20465:20488   */\n      mload\n        /* \"#utility.yul\":20501:20564   */\n      tag_477\n        /* \"#utility.yul\":20558:20562   */\n      0x00\n        /* \"#utility.yul\":20553:20556   */\n      dup6\n        /* \"#utility.yul\":20549:20563   */\n      add\n        /* \"#utility.yul\":20535:20547   */\n      dup3\n        /* \"#utility.yul\":20501:20564   */\n      tag_232\n      jump\t// in\n    tag_477:\n        /* \"#utility.yul\":20412:20574   */\n      pop\n        /* \"#utility.yul\":20661:20665   */\n      0x20\n        /* \"#utility.yul\":20654:20659   */\n      dup3\n        /* \"#utility.yul\":20650:20666   */\n      add\n        /* \"#utility.yul\":20644:20667   */\n      mload\n        /* \"#utility.yul\":20680:20743   */\n      tag_478\n        /* \"#utility.yul\":20737:20741   */\n      0x20\n        /* \"#utility.yul\":20732:20735   */\n      dup6\n        /* \"#utility.yul\":20728:20742   */\n      add\n        /* \"#utility.yul\":20714:20726   */\n      dup3\n        /* \"#utility.yul\":20680:20743   */\n      tag_232\n      jump\t// in\n    tag_478:\n        /* \"#utility.yul\":20584:20753   */\n      pop\n        /* \"#utility.yul\":20835:20839   */\n      0x40\n        /* \"#utility.yul\":20828:20833   */\n      dup3\n        /* \"#utility.yul\":20824:20840   */\n      add\n        /* \"#utility.yul\":20818:20841   */\n      mload\n        /* \"#utility.yul\":20854:20917   */\n      tag_479\n        /* \"#utility.yul\":20911:20915   */\n      0x40\n        /* \"#utility.yul\":20906:20909   */\n      dup6\n        /* \"#utility.yul\":20902:20916   */\n      add\n        /* \"#utility.yul\":20888:20900   */\n      dup3\n        /* \"#utility.yul\":20854:20917   */\n      tag_232\n      jump\t// in\n    tag_479:\n        /* \"#utility.yul\":20763:20927   */\n      pop\n        /* \"#utility.yul\":21011:21015   */\n      0x60\n        /* \"#utility.yul\":21004:21009   */\n      dup3\n        /* \"#utility.yul\":21000:21016   */\n      add\n        /* \"#utility.yul\":20994:21017   */\n      mload\n        /* \"#utility.yul\":21030:21093   */\n      tag_480\n        /* \"#utility.yul\":21087:21091   */\n      0x60\n        /* \"#utility.yul\":21082:21085   */\n      dup6\n        /* \"#utility.yul\":21078:21092   */\n      add\n        /* \"#utility.yul\":21064:21076   */\n      dup3\n        /* \"#utility.yul\":21030:21093   */\n      tag_267\n      jump\t// in\n    tag_480:\n        /* \"#utility.yul\":20937:21103   */\n      pop\n        /* \"#utility.yul\":20366:21110   */\n      pop\n        /* \"#utility.yul\":20264:21110   */\n      pop\n      pop\n      jump\t// out\n        /* \"#utility.yul\":21116:21387   */\n    tag_269:\n        /* \"#utility.yul\":21231:21241   */\n      0x00\n        /* \"#utility.yul\":21252:21344   */\n      tag_482\n        /* \"#utility.yul\":21340:21343   */\n      dup4\n        /* \"#utility.yul\":21332:21338   */\n      dup4\n        /* \"#utility.yul\":21252:21344   */\n      tag_268\n      jump\t// in\n    tag_482:\n        /* \"#utility.yul\":21376:21380   */\n      0x80\n        /* \"#utility.yul\":21371:21374   */\n      dup4\n        /* \"#utility.yul\":21367:21381   */\n      add\n        /* \"#utility.yul\":21353:21381   */\n      swap1\n      pop\n        /* \"#utility.yul\":21116:21387   */\n      swap3\n      swap2\n      pop\n      pop\n      jump\t// out\n        /* \"#utility.yul\":21393:21529   */\n    tag_270:\n        /* \"#utility.yul\":21486:21490   */\n      0x00\n        /* \"#utility.yul\":21518:21522   */\n      0x20\n        /* \"#utility.yul\":21513:21516   */\n      dup3\n        /* \"#utility.yul\":21509:21523   */\n      add\n        /* \"#utility.yul\":21501:21523   */\n      swap1\n      pop\n        /* \"#utility.yul\":21393:21529   */\n      swap2\n      swap1\n      pop\n      jump\t// out\n        /* \"#utility.yul\":21605:22521   */\n    tag_271:\n        /* \"#utility.yul\":21770:21773   */\n      0x00\n        /* \"#utility.yul\":21799:21876   */\n      tag_485\n        /* \"#utility.yul\":21870:21875   */\n      dup3\n        /* \"#utility.yul\":21799:21876   */\n      tag_264\n      jump\t// in\n    tag_485:\n        /* \"#utility.yul\":21892:22001   */\n      tag_486\n        /* \"#utility.yul\":21994:22000   */\n      dup2\n        /* \"#utility.yul\":21989:21992   */\n      dup6\n        /* \"#utility.yul\":21892:22001   */\n      tag_265\n      jump\t// in\n    tag_486:\n        /* \"#utility.yul\":21885:22001   */\n      swap4\n      pop\n        /* \"#utility.yul\":22025:22104   */\n      tag_487\n        /* \"#utility.yul\":22098:22103   */\n      dup4\n        /* \"#utility.yul\":22025:22104   */\n      tag_266\n      jump\t// in\n    tag_487:\n        /* \"#utility.yul\":22127:22134   */\n      dup1\n        /* \"#utility.yul\":22158:22159   */\n      0x00\n        /* \"#utility.yul\":22143:22496   */\n    tag_488:\n        /* \"#utility.yul\":22168:22174   */\n      dup4\n        /* \"#utility.yul\":22165:22166   */\n      dup2\n        /* \"#utility.yul\":22162:22175   */\n      lt\n        /* \"#utility.yul\":22143:22496   */\n      iszero\n      tag_490\n      jumpi\n        /* \"#utility.yul\":22244:22250   */\n      dup2\n        /* \"#utility.yul\":22238:22251   */\n      mload\n        /* \"#utility.yul\":22271:22380   */\n      tag_491\n        /* \"#utility.yul\":22376:22379   */\n      dup9\n        /* \"#utility.yul\":22361:22374   */\n      dup3\n        /* \"#utility.yul\":22271:22380   */\n      tag_269\n      jump\t// in\n    tag_491:\n        /* \"#utility.yul\":22264:22380   */\n      swap8\n      pop\n        /* \"#utility.yul\":22403:22486   */\n      tag_492\n        /* \"#utility.yul\":22479:22485   */\n      dup4\n        /* \"#utility.yul\":22403:22486   */\n      tag_270\n      jump\t// in\n    tag_492:\n        /* \"#utility.yul\":22393:22486   */\n      swap3\n      pop\n        /* \"#utility.yul\":22203:22496   */\n      pop\n        /* \"#utility.yul\":22190:22191   */\n      0x01\n        /* \"#utility.yul\":22187:22188   */\n      dup2\n        /* \"#utility.yul\":22183:22192   */\n      add\n        /* \"#utility.yul\":22178:22192   */\n      swap1\n      pop\n        /* \"#utility.yul\":22143:22496   */\n      jump(tag_488)\n    tag_490:\n        /* \"#utility.yul\":22147:22161   */\n      pop\n        /* \"#utility.yul\":22512:22515   */\n      dup6\n        /* \"#utility.yul\":22505:22515   */\n      swap4\n      pop\n        /* \"#utility.yul\":21775:22521   */\n      pop\n      pop\n      pop\n        /* \"#utility.yul\":21605:22521   */\n      swap3\n      swap2\n      pop\n      pop\n      jump\t// out\n        /* \"#utility.yul\":22527:22992   */\n    tag_84:\n        /* \"#utility.yul\":22716:22720   */\n      0x00\n        /* \"#utility.yul\":22754:22756   */\n      0x20\n        /* \"#utility.yul\":22743:22752   */\n      dup3\n        /* \"#utility.yul\":22739:22757   */\n      add\n        /* \"#utility.yul\":22731:22757   */\n      swap1\n      pop\n        /* \"#utility.yul\":22803:22812   */\n      dup2\n        /* \"#utility.yul\":22797:22801   */\n      dup2\n        /* \"#utility.yul\":22793:22813   */\n      sub\n        /* \"#utility.yul\":22789:22790   */\n      0x00\n        /* \"#utility.yul\":22778:22787   */\n      dup4\n        /* \"#utility.yul\":22774:22791   */\n      add\n        /* \"#utility.yul\":22767:22814   */\n      mstore\n        /* \"#utility.yul\":22831:22985   */\n      tag_494\n        /* \"#utility.yul\":22980:22984   */\n      dup2\n        /* \"#utility.yul\":22971:22977   */\n      dup5\n        /* \"#utility.yul\":22831:22985   */\n      tag_271\n      jump\t// in\n    tag_494:\n        /* \"#utility.yul\":22823:22985   */\n      swap1\n      pop\n        /* \"#utility.yul\":22527:22992   */\n      swap3\n      swap2\n      pop\n      pop\n      jump\t// out\n        /* \"#utility.yul\":22998:23220   */\n    tag_88:\n        /* \"#utility.yul\":23091:23095   */\n      0x00\n        /* \"#utility.yul\":23129:23131   */\n      0x20\n        /* \"#utility.yul\":23118:23127   */\n      dup3\n        /* \"#utility.yul\":23114:23132   */\n      add\n        /* \"#utility.yul\":23106:23132   */\n      swap1\n      pop\n        /* \"#utility.yul\":23142:23213   */\n      tag_496\n        /* \"#utility.yul\":23210:23211   */\n      0x00\n        /* \"#utility.yul\":23199:23208   */\n      dup4\n        /* \"#utility.yul\":23195:23212   */\n      add\n        /* \"#utility.yul\":23186:23192   */\n      dup5\n        /* \"#utility.yul\":23142:23213   */\n      tag_228\n      jump\t// in\n    tag_496:\n        /* \"#utility.yul\":22998:23220   */\n      swap3\n      swap2\n      pop\n      pop\n      jump\t// out\n        /* \"#utility.yul\":23226:23398   */\n    tag_272:\n        /* \"#utility.yul\":23366:23390   */\n      0x426f6f6b696e6720646f6573206e6f7420657869737400000000000000000000\n        /* \"#utility.yul\":23362:23363   */\n      0x00\n        /* \"#utility.yul\":23354:23360   */\n      dup3\n        /* \"#utility.yul\":23350:23364   */\n      add\n        /* \"#utility.yul\":23343:23391   */\n      mstore\n        /* \"#utility.yul\":23226:23398   */\n      pop\n      jump\t// out\n        /* \"#utility.yul\":23404:23770   */\n    tag_273:\n        /* \"#utility.yul\":23546:23549   */\n      0x00\n        /* \"#utility.yul\":23567:23634   */\n      tag_499\n        /* \"#utility.yul\":23631:23633   */\n      0x16\n        /* \"#utility.yul\":23626:23629   */\n      dup4\n        /* \"#utility.yul\":23567:23634   */\n      tag_248\n      jump\t// in\n    tag_499:\n        /* \"#utility.yul\":23560:23634   */\n      swap2\n      pop\n        /* \"#utility.yul\":23643:23736   */\n      tag_500\n        /* \"#utility.yul\":23732:23735   */\n      dup3\n        /* \"#utility.yul\":23643:23736   */\n      tag_272\n      jump\t// in\n    tag_500:\n        /* \"#utility.yul\":23761:23763   */\n      0x20\n        /* \"#utility.yul\":23756:23759   */\n      dup3\n        /* \"#utility.yul\":23752:23764   */\n      add\n        /* \"#utility.yul\":23745:23764   */\n      swap1\n      pop\n        /* \"#utility.yul\":23404:23770   */\n      swap2\n      swap1\n      pop\n      jump\t// out\n        /* \"#utility.yul\":23776:24195   */\n    tag_93:\n        /* \"#utility.yul\":23942:23946   */\n      0x00\n        /* \"#utility.yul\":23980:23982   */\n      0x20\n        /* \"#utility.yul\":23969:23978   */\n      dup3\n        /* \"#utility.yul\":23965:23983   */\n      add\n        /* \"#utility.yul\":23957:23983   */\n      swap1\n      pop\n        /* \"#utility.yul\":24029:24038   */\n      dup2\n        /* \"#utility.yul\":24023:24027   */\n      dup2\n        /* \"#utility.yul\":24019:24039   */\n      sub\n        /* \"#utility.yul\":24015:24016   */\n      0x00\n        /* \"#utility.yul\":24004:24013   */\n      dup4\n        /* \"#utility.yul\":24000:24017   */\n      add\n        /* \"#utility.yul\":23993:24040   */\n      mstore\n        /* \"#utility.yul\":24057:24188   */\n      tag_502\n        /* \"#utility.yul\":24183:24187   */\n      dup2\n        /* \"#utility.yul\":24057:24188   */\n      tag_273\n      jump\t// in\n    tag_502:\n        /* \"#utility.yul\":24049:24188   */\n      swap1\n      pop\n        /* \"#utility.yul\":23776:24195   */\n      swap2\n      swap1\n      pop\n      jump\t// out\n        /* \"#utility.yul\":24201:24361   */\n    tag_274:\n        /* \"#utility.yul\":24341:24353   */\n      0x4f6e6c792061646d696e00000000000000000000000000000000000000000000\n        /* \"#utility.yul\":24337:24338   */\n      0x00\n        /* \"#utility.yul\":24329:24335   */\n      dup3\n        /* \"#utility.yul\":24325:24339   */\n      add\n        /* \"#utility.yul\":24318:24354   */\n      mstore\n        /* \"#utility.yul\":24201:24361   */\n      pop\n      jump\t// out\n        /* \"#utility.yul\":24367:24733   */\n    tag_275:\n        /* \"#utility.yul\":24509:24512   */\n      0x00\n        /* \"#utility.yul\":24530:24597   */\n      tag_505\n        /* \"#utility.yul\":24594:24596   */\n      0x0a\n        /* \"#utility.yul\":24589:24592   */\n      dup4\n        /* \"#utility.yul\":24530:24597   */\n      tag_248\n      jump\t// in\n    tag_505:\n        /* \"#utility.yul\":24523:24597   */\n      swap2\n      pop\n        /* \"#utility.yul\":24606:24699   */\n      tag_506\n        /* \"#utility.yul\":24695:24698   */\n      dup3\n        /* \"#utility.yul\":24606:24699   */\n      tag_274\n      jump\t// in\n    tag_506:\n        /* \"#utility.yul\":24724:24726   */\n      0x20\n        /* \"#utility.yul\":24719:24722   */\n      dup3\n        /* \"#utility.yul\":24715:24727   */\n      add\n        /* \"#utility.yul\":24708:24727   */\n      swap1\n      pop\n        /* \"#utility.yul\":24367:24733   */\n      swap2\n      swap1\n      pop\n      jump\t// out\n        /* \"#utility.yul\":24739:25158   */\n    tag_100:\n        /* \"#utility.yul\":24905:24909   */\n      0x00\n        /* \"#utility.yul\":24943:24945   */\n      0x20\n        /* \"#utility.yul\":24932:24941   */\n      dup3\n        /* \"#utility.yul\":24928:24946   */\n      add\n        /* \"#utility.yul\":24920:24946   */\n      swap1\n      pop\n        /* \"#utility.yul\":24992:25001   */\n      dup2\n        /* \"#utility.yul\":24986:24990   */\n      dup2\n        /* \"#utility.yul\":24982:25002   */\n      sub\n        /* \"#utility.yul\":24978:24979   */\n      0x00\n        /* \"#utility.yul\":24967:24976   */\n      dup4\n        /* \"#utility.yul\":24963:24980   */\n      add\n        /* \"#utility.yul\":24956:25003   */\n      mstore\n        /* \"#utility.yul\":25020:25151   */\n      tag_508\n        /* \"#utility.yul\":25146:25150   */\n      dup2\n        /* \"#utility.yul\":25020:25151   */\n      tag_275\n      jump\t// in\n    tag_508:\n        /* \"#utility.yul\":25012:25151   */\n      swap1\n      pop\n        /* \"#utility.yul\":24739:25158   */\n      swap2\n      swap1\n      pop\n      jump\t// out\n        /* \"#utility.yul\":25164:25336   */\n    tag_276:\n        /* \"#utility.yul\":25304:25328   */\n      0x5365727669636520646f6573206e6f7420657869737400000000000000000000\n        /* \"#utility.yul\":25300:25301   */\n      0x00\n        /* \"#utility.yul\":25292:25298   */\n      dup3\n        /* \"#utility.yul\":25288:25302   */\n      add\n        /* \"#utility.yul\":25281:25329   */\n      mstore\n        /* \"#utility.yul\":25164:25336   */\n      pop\n      jump\t// out\n        /* \"#utility.yul\":25342:25708   */\n    tag_277:\n        /* \"#utility.yul\":25484:25487   */\n      0x00\n        /* \"#utility.yul\":25505:25572   */\n      tag_511\n        /* \"#utility.yul\":25569:25571   */\n      0x16\n        /* \"#utility.yul\":25564:25567   */\n      dup4\n        /* \"#utility.yul\":25505:25572   */\n      tag_248\n      jump\t// in\n    tag_511:\n        /* \"#utility.yul\":25498:25572   */\n      swap2\n      pop\n        /* \"#utility.yul\":25581:25674   */\n      tag_512\n        /* \"#utility.yul\":25670:25673   */\n      dup3\n        /* \"#utility.yul\":25581:25674   */\n      tag_276\n      jump\t// in\n    tag_512:\n        /* \"#utility.yul\":25699:25701   */\n      0x20\n        /* \"#utility.yul\":25694:25697   */\n      dup3\n        /* \"#utility.yul\":25690:25702   */\n      add\n        /* \"#utility.yul\":25683:25702   */\n      swap1\n      pop\n        /* \"#utility.yul\":25342:25708   */\n      swap2\n      swap1\n      pop\n      jump\t// out\n        /* \"#utility.yul\":25714:26133   */\n    tag_105:\n        /* \"#utility.yul\":25880:25884   */\n      0x00\n        /* \"#utility.yul\":25918:25920   */\n      0x20\n        /* \"#utility.yul\":25907:25916   */\n      dup3\n        /* \"#utility.yul\":25903:25921   */\n      add\n        /* \"#utility.yul\":25895:25921   */\n      swap1\n      pop\n        /* \"#utility.yul\":25967:25976   */\n      dup2\n        /* \"#utility.yul\":25961:25965   */\n      dup2\n        /* \"#utility.yul\":25957:25977   */\n      sub\n        /* \"#utility.yul\":25953:25954   */\n      0x00\n        /* \"#utility.yul\":25942:25951   */\n      dup4\n        /* \"#utility.yul\":25938:25955   */\n      add\n        /* \"#utility.yul\":25931:25978   */\n      mstore\n        /* \"#utility.yul\":25995:26126   */\n      tag_514\n        /* \"#utility.yul\":26121:26125   */\n      dup2\n        /* \"#utility.yul\":25995:26126   */\n      tag_277\n      jump\t// in\n    tag_514:\n        /* \"#utility.yul\":25987:26126   */\n      swap1\n      pop\n        /* \"#utility.yul\":25714:26133   */\n      swap2\n      swap1\n      pop\n      jump\t// out\n        /* \"#utility.yul\":26139:26319   */\n    tag_110:\n        /* \"#utility.yul\":26187:26264   */\n      0x4e487b7100000000000000000000000000000000000000000000000000000000\n        /* \"#utility.yul\":26184:26185   */\n      0x00\n        /* \"#utility.yul\":26177:26265   */\n      mstore\n        /* \"#utility.yul\":26284:26288   */\n      0x41\n        /* \"#utility.yul\":26281:26282   */\n      0x04\n        /* \"#utility.yul\":26274:26289   */\n      mstore\n        /* \"#utility.yul\":26308:26312   */\n      0x24\n        /* \"#utility.yul\":26305:26306   */\n      0x00\n        /* \"#utility.yul\":26298:26313   */\n      revert\n        /* \"#utility.yul\":26325:26505   */\n    tag_278:\n        /* \"#utility.yul\":26373:26450   */\n      0x4e487b7100000000000000000000000000000000000000000000000000000000\n        /* \"#utility.yul\":26370:26371   */\n      0x00\n        /* \"#utility.yul\":26363:26451   */\n      mstore\n        /* \"#utility.yul\":26470:26474   */\n      0x11\n        /* \"#utility.yul\":26467:26468   */\n      0x04\n        /* \"#utility.yul\":26460:26475   */\n      mstore\n        /* \"#utility.yul\":26494:26498   */\n      0x24\n        /* \"#utility.yul\":26491:26492   */\n      0x00\n        /* \"#utility.yul\":26484:26499   */\n      revert\n        /* \"#utility.yul\":26511:26744   */\n    tag_119:\n        /* \"#utility.yul\":26550:26553   */\n      0x00\n        /* \"#utility.yul\":26573:26597   */\n      tag_518\n        /* \"#utility.yul\":26591:26596   */\n      dup3\n        /* \"#utility.yul\":26573:26597   */\n      tag_222\n      jump\t// in\n    tag_518:\n        /* \"#utility.yul\":26564:26597   */\n      swap2\n      pop\n        /* \"#utility.yul\":26619:26685   */\n      0xffffffffffffffffffffffffffffffffffffffffffffffffffffffffffffffff\n        /* \"#utility.yul\":26612:26617   */\n      dup3\n        /* \"#utility.yul\":26609:26686   */\n      sub\n        /* \"#utility.yul\":26606:26709   */\n      tag_519\n      jumpi\n        /* \"#utility.yul\":26689:26707   */\n      tag_520\n      tag_278\n      jump\t// in\n    tag_520:\n        /* \"#utility.yul\":26606:26709   */\n    tag_519:\n        /* \"#utility.yul\":26736:26737   */\n      0x01\n        /* \"#utility.yul\":26729:26734   */\n      dup3\n        /* \"#utility.yul\":26725:26738   */\n      add\n        /* \"#utility.yul\":26718:26738   */\n      swap1\n      pop\n        /* \"#utility.yul\":26511:26744   */\n      swap2\n      swap1\n      pop\n      jump\t// out\n        /* \"#utility.yul\":26750:26930   */\n    tag_279:\n        /* \"#utility.yul\":26798:26875   */\n      0x4e487b7100000000000000000000000000000000000000000000000000000000\n        /* \"#utility.yul\":26795:26796   */\n      0x00\n        /* \"#utility.yul\":26788:26876   */\n      mstore\n        /* \"#utility.yul\":26895:26899   */\n      0x22\n        /* \"#utility.yul\":26892:26893   */\n      0x04\n        /* \"#utility.yul\":26885:26900   */\n      mstore\n        /* \"#utility.yul\":26919:26923   */\n      0x24\n        /* \"#utility.yul\":26916:26917   */\n      0x00\n        /* \"#utility.yul\":26909:26924   */\n      revert\n        /* \"#utility.yul\":26936:27256   */\n    tag_121:\n        /* \"#utility.yul\":26980:26986   */\n      0x00\n        /* \"#utility.yul\":27017:27018   */\n      0x02\n        /* \"#utility.yul\":27011:27015   */\n      dup3\n        /* \"#utility.yul\":27007:27019   */\n      div\n        /* \"#utility.yul\":26997:27019   */\n      swap1\n      pop\n        /* \"#utility.yul\":27064:27065   */\n      0x01\n        /* \"#utility.yul\":27058:27062   */\n      dup3\n        /* \"#utility.yul\":27054:27066   */\n      and\n        /* \"#utility.yul\":27085:27103   */\n      dup1\n        /* \"#utility.yul\":27075:27156   */\n      tag_523\n      jumpi\n        /* \"#utility.yul\":27141:27145   */\n      0x7f\n        /* \"#utility.yul\":27133:27139   */\n      dup3\n        /* \"#utility.yul\":27129:27146   */\n      and\n        /* \"#utility.yul\":27119:27146   */\n      swap2\n      pop\n        /* \"#utility.yul\":27075:27156   */\n    tag_523:\n        /* \"#utility.yul\":27203:27205   */\n      0x20\n        /* \"#utility.yul\":27195:27201   */\n      dup3\n        /* \"#utility.yul\":27192:27206   */\n      lt\n        /* \"#utility.yul\":27172:27190   */\n      dup2\n        /* \"#utility.yul\":27169:27207   */\n      sub\n        /* \"#utility.yul\":27166:27250   */\n      tag_524\n      jumpi\n        /* \"#utility.yul\":27222:27240   */\n      tag_525\n      tag_279\n      jump\t// in\n    tag_525:\n        /* \"#utility.yul\":27166:27250   */\n    tag_524:\n        /* \"#utility.yul\":26987:27256   */\n      pop\n        /* \"#utility.yul\":26936:27256   */\n      swap2\n      swap1\n      pop\n      jump\t// out\n        /* \"#utility.yul\":27262:27403   */\n    tag_280:\n        /* \"#utility.yul\":27311:27315   */\n      0x00\n        /* \"#utility.yul\":27334:27337   */\n      dup2\n        /* \"#utility.yul\":27326:27337   */\n      swap1\n      pop\n        /* \"#utility.yul\":27357:27360   */\n      dup2\n        /* \"#utility.yul\":27354:27355   */\n      0x00\n        /* \"#utility.yul\":27347:27361   */\n      mstore\n        /* \"#utility.yul\":27391:27395   */\n      0x20\n        /* \"#utility.yul\":27388:27389   */\n      0x00\n        /* \"#utility.yul\":27378:27396   */\n      keccak256\n        /* \"#utility.yul\":27370:27396   */\n      swap1\n      pop\n        /* \"#utility.yul\":27262:27403   */\n      swap2\n      swap1\n      pop\n      jump\t// out\n        /* \"#utility.yul\":27409:27502   */\n    tag_281:\n        /* \"#utility.yul\":27446:27452   */\n      0x00\n        /* \"#utility.yul\":27493:27495   */\n      0x20\n        /* \"#utility.yul\":27488:27490   */\n      0x1f\n        /* \"#utility.yul\":27481:27486   */\n      dup4\n        /* \"#utility.yul\":27477:27491   */\n      add\n        /* \"#utility.yul\":27473:27496   */\n      div\n        /* \"#utility.yul\":27463:27496   */\n      swap1\n      pop\n        /* \"#utility.yul\":27409:27502   */\n      swap2\n      swap1\n      pop\n      jump\t// out\n        /* \"#utility.yul\":27508:27615   */\n    tag_282:\n        /* \"#utility.yul\":27552:27560   */\n      0x00\n        /* \"#utility.yul\":27602:27607   */\n      dup3\n        /* \"#utility.yul\":27596:27600   */\n      dup3\n        /* \"#utility.yul\":27592:27608   */\n      shl\n        /* \"#utility.yul\":27571:27608   */\n      swap1\n      pop\n        /* \"#utility.yul\":27508:27615   */\n      swap3\n      swap2\n      pop\n      pop\n      jump\t// out\n        /* \"#utility.yul\":27621:28014   */\n    tag_283:\n        /* \"#utility.yul\":27690:27696   */\n      0x00\n        /* \"#utility.yul\":27740:27741   */\n      0x08\n        /* \"#utility.yul\":27728:27738   */\n      dup4\n        /* \"#utility.yul\":27724:27742   */\n      mul\n        /* \"#utility.yul\":27763:27860   */\n      tag_530\n        /* \"#utility.yul\":27793:27859   */\n      0xffffffffffffffffffffffffffffffffffffffffffffffffffffffffffffffff\n        /* \"#utility.yul\":27782:27791   */\n      dup3\n        /* \"#utility.yul\":27763:27860   */\n      tag_282\n      jump\t// in\n    tag_530:\n        /* \"#utility.yul\":27881:27920   */\n      tag_531\n        /* \"#utility.yul\":27911:27919   */\n      dup7\n        /* \"#utility.yul\":27900:27909   */\n      dup4\n        /* \"#utility.yul\":27881:27920   */\n      tag_282\n      jump\t// in\n    tag_531:\n        /* \"#utility.yul\":27869:27920   */\n      swap6\n      pop\n        /* \"#utility.yul\":27953:27957   */\n      dup1\n        /* \"#utility.yul\":27949:27958   */\n      not\n        /* \"#utility.yul\":27942:27947   */\n      dup5\n        /* \"#utility.yul\":27938:27959   */\n      and\n        /* \"#utility.yul\":27929:27959   */\n      swap4\n      pop\n        /* \"#utility.yul\":28002:28006   */\n      dup1\n        /* \"#utility.yul\":27992:28000   */\n      dup7\n        /* \"#utility.yul\":27988:28007   */\n      and\n        /* \"#utility.yul\":27981:27986   */\n      dup5\n        /* \"#utility.yul\":27978:28008   */\n      or\n        /* \"#utility.yul\":27968:28008   */\n      swap3\n      pop\n        /* \"#utility.yul\":27697:28014   */\n      pop\n      pop\n        /* \"#utility.yul\":27621:28014   */\n      swap4\n      swap3\n      pop\n      pop\n      pop\n      jump\t// out\n        /* \"#utility.yul\":28020:28080   */\n    tag_284:\n        /* \"#utility.yul\":28048:28051   */\n      0x00\n        /* \"#utility.yul\":28069:28074   */\n      dup2\n        /* \"#utility.yul\":28062:28074   */\n      swap1\n      pop\n        /* \"#utility.yul\":28020:28080   */\n      swap2\n      swap1\n      pop\n      jump\t// out\n        /* \"#utility.yul\":28086:28228   */\n    tag_285:\n        /* \"#utility.yul\":28136:28145   */\n      0x00\n        /* \"#utility.yul\":28169:28222   */\n      tag_534\n        /* \"#utility.yul\":28187:28221   */\n      tag_535\n        /* \"#utility.yul\":28196:28220   */\n      tag_536\n        /* \"#utility.yul\":28214:28219   */\n      dup5\n        /* \"#utility.yul\":28196:28220   */\n      tag_222\n      jump\t// in\n    tag_536:\n        /* \"#utility.yul\":28187:28221   */\n      tag_284\n      jump\t// in\n    tag_535:\n        /* \"#utility.yul\":28169:28222   */\n      tag_222\n      jump\t// in\n    tag_534:\n        /* \"#utility.yul\":28156:28222   */\n      swap1\n      pop\n        /* \"#utility.yul\":28086:28228   */\n      swap2\n      swap1\n      pop\n      jump\t// out\n        /* \"#utility.yul\":28234:28309   */\n    tag_286:\n        /* \"#utility.yul\":28277:28280   */\n      0x00\n        /* \"#utility.yul\":28298:28303   */\n      dup2\n        /* \"#utility.yul\":28291:28303   */\n      swap1\n      pop\n        /* \"#utility.yul\":28234:28309   */\n      swap2\n      swap1\n      pop\n      jump\t// out\n        /* \"#utility.yul\":28315:28584   */\n    tag_287:\n        /* \"#utility.yul\":28425:28464   */\n      tag_539\n        /* \"#utility.yul\":28456:28463   */\n      dup4\n        /* \"#utility.yul\":28425:28464   */\n      tag_285\n      jump\t// in\n    tag_539:\n        /* \"#utility.yul\":28486:28577   */\n      tag_540\n        /* \"#utility.yul\":28535:28576   */\n      tag_541\n        /* \"#utility.yul\":28559:28575   */\n      dup3\n        /* \"#utility.yul\":28535:28576   */\n      tag_286\n      jump\t// in\n    tag_541:\n        /* \"#utility.yul\":28527:28533   */\n      dup5\n        /* \"#utility.yul\":28520:28524   */\n      dup5\n        /* \"#utility.yul\":28514:28525   */\n      sload\n        /* \"#utility.yul\":28486:28577   */\n      tag_283\n      jump\t// in\n    tag_540:\n        /* \"#utility.yul\":28480:28484   */\n      dup3\n        /* \"#utility.yul\":28473:28578   */\n      sstore\n        /* \"#utility.yul\":28391:28584   */\n      pop\n        /* \"#utility.yul\":28315:28584   */\n      pop\n      pop\n      pop\n      jump\t// out\n        /* \"#utility.yul\":28590:28663   */\n    tag_288:\n        /* \"#utility.yul\":28635:28638   */\n      0x00\n        /* \"#utility.yul\":28590:28663   */\n      swap1\n      jump\t// out\n        /* \"#utility.yul\":28669:28858   */\n    tag_289:\n        /* \"#utility.yul\":28746:28778   */\n      tag_544\n      tag_288\n      jump\t// in\n    tag_544:\n        /* \"#utility.yul\":28787:28852   */\n      tag_545\n        /* \"#utility.yul\":28845:28851   */\n      dup2\n        /* \"#utility.yul\":28837:28843   */\n      dup5\n        /* \"#utility.yul\":28831:28835   */\n      dup5\n        /* \"#utility.yul\":28787:28852   */\n      tag_287\n      jump\t// in\n    tag_545:\n        /* \"#utility.yul\":28722:28858   */\n      pop\n        /* \"#utility.yul\":28669:28858   */\n      pop\n      pop\n      jump\t// out\n        /* \"#utility.yul\":28864:29050   */\n    tag_290:\n        /* \"#utility.yul\":28924:29044   */\n    tag_547:\n        /* \"#utility.yul\":28941:28944   */\n      dup2\n        /* \"#utility.yul\":28934:28939   */\n      dup2\n        /* \"#utility.yul\":28931:28945   */\n      lt\n        /* \"#utility.yul\":28924:29044   */\n      iszero\n      tag_549\n      jumpi\n        /* \"#utility.yul\":28995:29034   */\n      tag_550\n        /* \"#utility.yul\":29032:29033   */\n      0x00\n        /* \"#utility.yul\":29025:29030   */\n      dup3\n        /* \"#utility.yul\":28995:29034   */\n      tag_289\n      jump\t// in\n    tag_550:\n        /* \"#utility.yul\":28968:28969   */\n      0x01\n        /* \"#utility.yul\":28961:28966   */\n      dup2\n        /* \"#utility.yul\":28957:28970   */\n      add\n        /* \"#utility.yul\":28948:28970   */\n      swap1\n      pop\n        /* \"#utility.yul\":28924:29044   */\n      jump(tag_547)\n    tag_549:\n        /* \"#utility.yul\":28864:29050   */\n      pop\n      pop\n      jump\t// out\n        /* \"#utility.yul\":29056:29599   */\n    tag_291:\n        /* \"#utility.yul\":29157:29159   */\n      0x1f\n        /* \"#utility.yul\":29152:29155   */\n      dup3\n        /* \"#utility.yul\":29149:29160   */\n      gt\n        /* \"#utility.yul\":29146:29592   */\n      iszero\n      tag_552\n      jumpi\n        /* \"#utility.yul\":29191:29229   */\n      tag_553\n        /* \"#utility.yul\":29223:29228   */\n      dup2\n        /* \"#utility.yul\":29191:29229   */\n      tag_280\n      jump\t// in\n    tag_553:\n        /* \"#utility.yul\":29275:29304   */\n      tag_554\n        /* \"#utility.yul\":29293:29303   */\n      dup5\n        /* \"#utility.yul\":29275:29304   */\n      tag_281\n      jump\t// in\n    tag_554:\n        /* \"#utility.yul\":29265:29273   */\n      dup2\n        /* \"#utility.yul\":29261:29305   */\n      add\n        /* \"#utility.yul\":29458:29460   */\n      0x20\n        /* \"#utility.yul\":29446:29456   */\n      dup6\n        /* \"#utility.yul\":29443:29461   */\n      lt\n        /* \"#utility.yul\":29440:29489   */\n      iszero\n      tag_555\n      jumpi\n        /* \"#utility.yul\":29479:29487   */\n      dup2\n        /* \"#utility.yul\":29464:29487   */\n      swap1\n      pop\n        /* \"#utility.yul\":29440:29489   */\n    tag_555:\n        /* \"#utility.yul\":29502:29582   */\n      tag_556\n        /* \"#utility.yul\":29558:29580   */\n      tag_557\n        /* \"#utility.yul\":29576:29579   */\n      dup6\n        /* \"#utility.yul\":29558:29580   */\n      tag_281\n      jump\t// in\n    tag_557:\n        /* \"#utility.yul\":29548:29556   */\n      dup4\n        /* \"#utility.yul\":29544:29581   */\n      add\n        /* \"#utility.yul\":29531:29542   */\n      dup3\n        /* \"#utility.yul\":29502:29582   */\n      tag_290\n      jump\t// in\n    tag_556:\n        /* \"#utility.yul\":29161:29592   */\n      pop\n      pop\n        /* \"#utility.yul\":29146:29592   */\n    tag_552:\n        /* \"#utility.yul\":29056:29599   */\n      pop\n      pop\n      pop\n      jump\t// out\n        /* \"#utility.yul\":29605:29722   */\n    tag_292:\n        /* \"#utility.yul\":29659:29667   */\n      0x00\n        /* \"#utility.yul\":29709:29714   */\n      dup3\n        /* \"#utility.yul\":29703:29707   */\n      dup3\n        /* \"#utility.yul\":29699:29715   */\n      shr\n        /* \"#utility.yul\":29678:29715   */\n      swap1\n      pop\n        /* \"#utility.yul\":29605:29722   */\n      swap3\n      swap2\n      pop\n      pop\n      jump\t// out\n        /* \"#utility.yul\":29728:29897   */\n    tag_293:\n        /* \"#utility.yul\":29772:29778   */\n      0x00\n        /* \"#utility.yul\":29805:29856   */\n      tag_560\n        /* \"#utility.yul\":29853:29854   */\n      0x00\n        /* \"#utility.yul\":29849:29855   */\n      not\n        /* \"#utility.yul\":29841:29846   */\n      dup5\n        /* \"#utility.yul\":29838:29839   */\n      0x08\n        /* \"#utility.yul\":29834:29847   */\n      mul\n        /* \"#utility.yul\":29805:29856   */\n      tag_292\n      jump\t// in\n    tag_560:\n        /* \"#utility.yul\":29801:29857   */\n      not\n        /* \"#utility.yul\":29886:29890   */\n      dup1\n        /* \"#utility.yul\":29880:29884   */\n      dup4\n        /* \"#utility.yul\":29876:29891   */\n      and\n        /* \"#utility.yul\":29866:29891   */\n      swap2\n      pop\n        /* \"#utility.yul\":29779:29897   */\n      pop\n        /* \"#utility.yul\":29728:29897   */\n      swap3\n      swap2\n      pop\n      pop\n      jump\t// out\n        /* \"#utility.yul\":29902:30197   */\n    tag_294:\n        /* \"#utility.yul\":29978:29982   */\n      0x00\n        /* \"#utility.yul\":30124:30153   */\n      tag_562\n        /* \"#utility.yul\":30149:30152   */\n      dup4\n        /* \"#utility.yul\":30143:30147   */\n      dup4\n        /* \"#utility.yul\":30124:30153   */\n      tag_293\n      jump\t// in\n    tag_562:\n        /* \"#utility.yul\":30116:30153   */\n      swap2\n      pop\n        /* \"#utility.yul\":30186:30189   */\n      dup3\n        /* \"#utility.yul\":30183:30184   */\n      0x02\n        /* \"#utility.yul\":30179:30190   */\n      mul\n        /* \"#utility.yul\":30173:30177   */\n      dup3\n        /* \"#utility.yul\":30170:30191   */\n      or\n        /* \"#utility.yul\":30162:30191   */\n      swap1\n      pop\n        /* \"#utility.yul\":29902:30197   */\n      swap3\n      swap2\n      pop\n      pop\n      jump\t// out\n        /* \"#utility.yul\":30202:31597   */\n    tag_136:\n        /* \"#utility.yul\":30319:30356   */\n      tag_564\n        /* \"#utility.yul\":30352:30355   */\n      dup3\n        /* \"#utility.yul\":30319:30356   */\n      tag_233\n      jump\t// in\n    tag_564:\n        /* \"#utility.yul\":30421:30439   */\n      0xffffffffffffffff\n        /* \"#utility.yul\":30413:30419   */\n      dup2\n        /* \"#utility.yul\":30410:30440   */\n      gt\n        /* \"#utility.yul\":30407:30463   */\n      iszero\n      tag_565\n      jumpi\n        /* \"#utility.yul\":30443:30461   */\n      tag_566\n      tag_110\n      jump\t// in\n    tag_566:\n        /* \"#utility.yul\":30407:30463   */\n    tag_565:\n        /* \"#utility.yul\":30487:30525   */\n      tag_567\n        /* \"#utility.yul\":30519:30523   */\n      dup3\n        /* \"#utility.yul\":30513:30524   */\n      sload\n        /* \"#utility.yul\":30487:30525   */\n      tag_121\n      jump\t// in\n    tag_567:\n        /* \"#utility.yul\":30572:30639   */\n      tag_568\n        /* \"#utility.yul\":30632:30638   */\n      dup3\n        /* \"#utility.yul\":30624:30630   */\n      dup3\n        /* \"#utility.yul\":30618:30622   */\n      dup6\n        /* \"#utility.yul\":30572:30639   */\n      tag_291\n      jump\t// in\n    tag_568:\n        /* \"#utility.yul\":30666:30667   */\n      0x00\n        /* \"#utility.yul\":30690:30694   */\n      0x20\n        /* \"#utility.yul\":30677:30694   */\n      swap1\n      pop\n        /* \"#utility.yul\":30722:30724   */\n      0x1f\n        /* \"#utility.yul\":30714:30720   */\n      dup4\n        /* \"#utility.yul\":30711:30725   */\n      gt\n        /* \"#utility.yul\":30739:30740   */\n      0x01\n        /* \"#utility.yul\":30734:31352   */\n      dup2\n      eq\n      tag_570\n      jumpi\n        /* \"#utility.yul\":31396:31397   */\n      0x00\n        /* \"#utility.yul\":31413:31419   */\n      dup5\n        /* \"#utility.yul\":31410:31487   */\n      iszero\n      tag_571\n      jumpi\n        /* \"#utility.yul\":31462:31471   */\n      dup3\n        /* \"#utility.yul\":31457:31460   */\n      dup8\n        /* \"#utility.yul\":31453:31472   */\n      add\n        /* \"#utility.yul\":31447:31473   */\n      mload\n        /* \"#utility.yul\":31438:31473   */\n      swap1\n      pop\n        /* \"#utility.yul\":31410:31487   */\n    tag_571:\n        /* \"#utility.yul\":31513:31580   */\n      tag_572\n        /* \"#utility.yul\":31573:31579   */\n      dup6\n        /* \"#utility.yul\":31566:31571   */\n      dup3\n        /* \"#utility.yul\":31513:31580   */\n      tag_294\n      jump\t// in\n    tag_572:\n        /* \"#utility.yul\":31507:31511   */\n      dup7\n        /* \"#utility.yul\":31500:31581   */\n      sstore\n        /* \"#utility.yul\":31369:31591   */\n      pop\n        /* \"#utility.yul\":30704:31591   */\n      jump(tag_569)\n        /* \"#utility.yul\":30734:31352   */\n    tag_570:\n        /* \"#utility.yul\":30786:30790   */\n      0x1f\n        /* \"#utility.yul\":30782:30791   */\n      not\n        /* \"#utility.yul\":30774:30780   */\n      dup5\n        /* \"#utility.yul\":30770:30792   */\n      and\n        /* \"#utility.yul\":30820:30857   */\n      tag_573\n        /* \"#utility.yul\":30852:30856   */\n      dup7\n        /* \"#utility.yul\":30820:30857   */\n      tag_280\n      jump\t// in\n    tag_573:\n        /* \"#utility.yul\":30879:30880   */\n      0x00\n        /* \"#utility.yul\":30893:31101   */\n    tag_574:\n        /* \"#utility.yul\":30907:30914   */\n      dup3\n        /* \"#utility.yul\":30904:30905   */\n      dup2\n        /* \"#utility.yul\":30901:30915   */\n      lt\n        /* \"#utility.yul\":30893:31101   */\n      iszero\n      tag_576\n      jumpi\n        /* \"#utility.yul\":30986:30995   */\n      dup5\n        /* \"#utility.yul\":30981:30984   */\n      dup10\n        /* \"#utility.yul\":30977:30996   */\n      add\n        /* \"#utility.yul\":30971:30997   */\n      mload\n        /* \"#utility.yul\":30963:30969   */\n      dup3\n        /* \"#utility.yul\":30956:30998   */\n      sstore\n        /* \"#utility.yul\":31037:31038   */\n      0x01\n        /* \"#utility.yul\":31029:31035   */\n      dup3\n        /* \"#utility.yul\":31025:31039   */\n      add\n        /* \"#utility.yul\":31015:31039   */\n      swap2\n      pop\n        /* \"#utility.yul\":31084:31086   */\n      0x20\n        /* \"#utility.yul\":31073:31082   */\n      dup6\n        /* \"#utility.yul\":31069:31087   */\n      add\n        /* \"#utility.yul\":31056:31087   */\n      swap5\n      pop\n        /* \"#utility.yul\":30930:30934   */\n      0x20\n        /* \"#utility.yul\":30927:30928   */\n      dup2\n        /* \"#utility.yul\":30923:30935   */\n      add\n        /* \"#utility.yul\":30918:30935   */\n      swap1\n      pop\n        /* \"#utility.yul\":30893:31101   */\n      jump(tag_574)\n    tag_576:\n        /* \"#utility.yul\":31129:31135   */\n      dup7\n        /* \"#utility.yul\":31120:31127   */\n      dup4\n        /* \"#utility.yul\":31117:31136   */\n      lt\n        /* \"#utility.yul\":31114:31293   */\n      iszero\n      tag_577\n      jumpi\n        /* \"#utility.yul\":31187:31196   */\n      dup5\n        /* \"#utility.yul\":31182:31185   */\n      dup10\n        /* \"#utility.yul\":31178:31197   */\n      add\n        /* \"#utility.yul\":31172:31198   */\n      mload\n        /* \"#utility.yul\":31230:31278   */\n      tag_578\n        /* \"#utility.yul\":31272:31276   */\n      0x1f\n        /* \"#utility.yul\":31264:31270   */\n      dup10\n        /* \"#utility.yul\":31260:31277   */\n      and\n        /* \"#utility.yul\":31249:31258   */\n      dup3\n        /* \"#utility.yul\":31230:31278   */\n      tag_293\n      jump\t// in\n    tag_578:\n        /* \"#utility.yul\":31222:31228   */\n      dup4\n        /* \"#utility.yul\":31215:31279   */\n      sstore\n        /* \"#utility.yul\":31137:31293   */\n      pop\n        /* \"#utility.yul\":31114:31293   */\n    tag_577:\n        /* \"#utility.yul\":31339:31340   */\n      0x01\n        /* \"#utility.yul\":31335:31336   */\n      0x02\n        /* \"#utility.yul\":31327:31333   */\n      dup9\n        /* \"#utility.yul\":31323:31337   */\n      mul\n        /* \"#utility.yul\":31319:31341   */\n      add\n        /* \"#utility.yul\":31313:31317   */\n      dup9\n        /* \"#utility.yul\":31306:31342   */\n      sstore\n        /* \"#utility.yul\":30741:31352   */\n      pop\n      pop\n      pop\n        /* \"#utility.yul\":30704:31591   */\n    tag_569:\n      pop\n        /* \"#utility.yul\":30294:31597   */\n      pop\n      pop\n      pop\n        /* \"#utility.yul\":30202:31597   */\n      pop\n      pop\n      jump\t// out\n        /* \"#utility.yul\":31603:31838   */\n    tag_295:\n        /* \"#utility.yul\":31743:31777   */\n      0x4475726174696f6e2073686f756c64206265206265747765656e2035206d696e\n        /* \"#utility.yul\":31739:31740   */\n      0x00\n        /* \"#utility.yul\":31731:31737   */\n      dup3\n        /* \"#utility.yul\":31727:31741   */\n      add\n        /* \"#utility.yul\":31720:31778   */\n      mstore\n        /* \"#utility.yul\":31812:31830   */\n      0x7574657320616e64203220686f75727300000000000000000000000000000000\n        /* \"#utility.yul\":31807:31809   */\n      0x20\n        /* \"#utility.yul\":31799:31805   */\n      dup3\n        /* \"#utility.yul\":31795:31810   */\n      add\n        /* \"#utility.yul\":31788:31831   */\n      mstore\n        /* \"#utility.yul\":31603:31838   */\n      pop\n      jump\t// out\n        /* \"#utility.yul\":31844:32210   */\n    tag_296:\n        /* \"#utility.yul\":31986:31989   */\n      0x00\n        /* \"#utility.yul\":32007:32074   */\n      tag_581\n        /* \"#utility.yul\":32071:32073   */\n      0x30\n        /* \"#utility.yul\":32066:32069   */\n      dup4\n        /* \"#utility.yul\":32007:32074   */\n      tag_248\n      jump\t// in\n    tag_581:\n        /* \"#utility.yul\":32000:32074   */\n      swap2\n      pop\n        /* \"#utility.yul\":32083:32176   */\n      tag_582\n        /* \"#utility.yul\":32172:32175   */\n      dup3\n        /* \"#utility.yul\":32083:32176   */\n      tag_295\n      jump\t// in\n    tag_582:\n        /* \"#utility.yul\":32201:32203   */\n      0x40\n        /* \"#utility.yul\":32196:32199   */\n      dup3\n        /* \"#utility.yul\":32192:32204   */\n      add\n        /* \"#utility.yul\":32185:32204   */\n      swap1\n      pop\n        /* \"#utility.yul\":31844:32210   */\n      swap2\n      swap1\n      pop\n      jump\t// out\n        /* \"#utility.yul\":32216:32635   */\n    tag_156:\n        /* \"#utility.yul\":32382:32386   */\n      0x00\n        /* \"#utility.yul\":32420:32422   */\n      0x20\n        /* \"#utility.yul\":32409:32418   */\n      dup3\n        /* \"#utility.yul\":32405:32423   */\n      add\n        /* \"#utility.yul\":32397:32423   */\n      swap1\n      pop\n        /* \"#utility.yul\":32469:32478   */\n      dup2\n        /* \"#utility.yul\":32463:32467   */\n      dup2\n        /* \"#utility.yul\":32459:32479   */\n      sub\n        /* \"#utility.yul\":32455:32456   */\n      0x00\n        /* \"#utility.yul\":32444:32453   */\n      dup4\n        /* \"#utility.yul\":32440:32457   */\n      add\n        /* \"#utility.yul\":32433:32480   */\n      mstore\n        /* \"#utility.yul\":32497:32628   */\n      tag_584\n        /* \"#utility.yul\":32623:32627   */\n      dup2\n        /* \"#utility.yul\":32497:32628   */\n      tag_296\n      jump\t// in\n    tag_584:\n        /* \"#utility.yul\":32489:32628   */\n      swap1\n      pop\n        /* \"#utility.yul\":32216:32635   */\n      swap2\n      swap1\n      pop\n      jump\t// out\n        /* \"#utility.yul\":32641:32813   */\n    tag_297:\n        /* \"#utility.yul\":32781:32805   */\n      0x50726f6475637420646f6573206e6f7420657869737400000000000000000000\n        /* \"#utility.yul\":32777:32778   */\n      0x00\n        /* \"#utility.yul\":32769:32775   */\n      dup3\n        /* \"#utility.yul\":32765:32779   */\n      add\n        /* \"#utility.yul\":32758:32806   */\n      mstore\n        /* \"#utility.yul\":32641:32813   */\n      pop\n      jump\t// out\n        /* \"#utility.yul\":32819:33185   */\n    tag_298:\n        /* \"#utility.yul\":32961:32964   */\n      0x00\n        /* \"#utility.yul\":32982:33049   */\n      tag_587\n        /* \"#utility.yul\":33046:33048   */\n      0x16\n        /* \"#utility.yul\":33041:33044   */\n      dup4\n        /* \"#utility.yul\":32982:33049   */\n      tag_248\n      jump\t// in\n    tag_587:\n        /* \"#utility.yul\":32975:33049   */\n      swap2\n      pop\n        /* \"#utility.yul\":33058:33151   */\n      tag_588\n        /* \"#utility.yul\":33147:33150   */\n      dup3\n        /* \"#utility.yul\":33058:33151   */\n      tag_297\n      jump\t// in\n    tag_588:\n        /* \"#utility.yul\":33176:33178   */\n      0x20\n        /* \"#utility.yul\":33171:33174   */\n      dup3\n        /* \"#utility.yul\":33167:33179   */\n      add\n        /* \"#utility.yul\":33160:33179   */\n      swap1\n      pop\n        /* \"#utility.yul\":32819:33185   */\n      swap2\n      swap1\n      pop\n      jump\t// out\n        /* \"#utility.yul\":33191:33610   */\n    tag_193:\n        /* \"#utility.yul\":33357:33361   */\n      0x00\n        /* \"#utility.yul\":33395:33397   */\n      0x20\n        /* \"#utility.yul\":33384:33393   */\n      dup3\n        /* \"#utility.yul\":33380:33398   */\n      add\n        /* \"#utility.yul\":33372:33398   */\n      swap1\n      pop\n        /* \"#utility.yul\":33444:33453   */\n      dup2\n        /* \"#utility.yul\":33438:33442   */\n      dup2\n        /* \"#utility.yul\":33434:33454   */\n      sub\n        /* \"#utility.yul\":33430:33431   */\n      0x00\n        /* \"#utility.yul\":33419:33428   */\n      dup4\n        /* \"#utility.yul\":33415:33432   */\n      add\n        /* \"#utility.yul\":33408:33455   */\n      mstore\n        /* \"#utility.yul\":33472:33603   */\n      tag_590\n        /* \"#utility.yul\":33598:33602   */\n      dup2\n        /* \"#utility.yul\":33472:33603   */\n      tag_298\n      jump\t// in\n    tag_590:\n        /* \"#utility.yul\":33464:33603   */\n      swap1\n      pop\n        /* \"#utility.yul\":33191:33610   */\n      swap2\n      swap1\n      pop\n      jump\t// out\n        /* \"#utility.yul\":33616:33796   */\n    tag_207:\n        /* \"#utility.yul\":33664:33741   */\n      0x4e487b7100000000000000000000000000000000000000000000000000000000\n        /* \"#utility.yul\":33661:33662   */\n      0x00\n        /* \"#utility.yul\":33654:33742   */\n      mstore\n        /* \"#utility.yul\":33761:33765   */\n      0x32\n        /* \"#utility.yul\":33758:33759   */\n      0x04\n        /* \"#utility.yul\":33751:33766   */\n      mstore\n        /* \"#utility.yul\":33785:33789   */\n      0x24\n        /* \"#utility.yul\":33782:33783   */\n      0x00\n        /* \"#utility.yul\":33775:33790   */\n      revert\n\n    auxdata: 0xa26469706673582212203d30ad4be73af359d532829c109db812b4a5ecefc627ef5fb7192b7d8f637ddc64736f6c63430008100033\n}\n",
				"bytecode": {
					"linkReferences": {},
					"object": "608060405260016003556001600655600160095534801561001f57600080fd5b50336000806101000a81548173ffffffffffffffffffffffffffffffffffffffff021916908373ffffffffffffffffffffffffffffffffffffffff1602179055506122cf8061006f6000396000f3fe608060405234801561001057600080fd5b50600436106101005760003560e01c8063b91c716011610097578063c29b2f2011610066578063c29b2f20146102da578063ed90c7b7146102f8578063ef3197c814610314578063f851a4401461034457610100565b8063b91c71601461023e578063bc85b04c1461025a578063bd293dca14610276578063c22c4f43146102a657610100565b806375417851116100d357806375417851146101a05780637acc0b20146101be57806390d16cba146101f2578063a06a1f691461020e57610100565b80631dab301e146101055780633ae7f0df14610138578063528c87d21461015457806374e29ee614610184575b600080fd5b61011f600480360381019061011a91906112cb565b610362565b60405161012f9493929190611348565b60405180910390f35b610152600480360381019061014d91906112cb565b6103b2565b005b61016e600480360381019061016991906112cb565b610407565b60405161017b919061138d565b60405180910390f35b61019e600480360381019061019991906112cb565b61042b565b005b6101a861050e565b6040516101b5919061164f565b60405180910390f35b6101d860048036038101906101d391906112cb565b610598565b6040516101e99594939291906116bb565b60405180910390f35b61020c60048036038101906102079190611781565b6106de565b005b610228600480360381019061022391906112cb565b6108ca565b604051610235919061138d565b60405180910390f35b61025860048036038101906102539190611828565b6108ee565b005b610274600480360381019061026f91906118be565b610a3d565b005b610290600480360381019061028b91906112cb565b610ce2565b60405161029d919061138d565b60405180910390f35b6102c060048036038101906102bb91906112cb565b610d06565b6040516102d19594939291906116bb565b60405180910390f35b6102e2610e4c565b6040516102ef9190611ad9565b60405180910390f35b610312600480360381019061030d91906112cb565b610ed6565b005b61032e60048036038101906103299190611b27565b610fb9565b60405161033b9190611c67565b60405180910390f35b61034c61115a565b6040516103599190611c89565b60405180910390f35b60076020528060005260406000206000915090508060000154908060010154908060020154908060030160009054906101000a900473ffffffffffffffffffffffffffffffffffffffff16905084565b806000811180156103c4575060095481105b610403576040517f08c379a00000000000000000000000000000000000000000000000000000000081526004016103fa90611cf0565b60405180910390fd5b5050565b6005818154811061041757600080fd5b906000526020600020016000915090505481565b60008054906101000a900473ffffffffffffffffffffffffffffffffffffffff1673ffffffffffffffffffffffffffffffffffffffff163373ffffffffffffffffffffffffffffffffffffffff16146104b9576040517f08c379a00000000000000000000000000000000000000000000000000000000081526004016104b090611d5c565b60405180910390fd5b806000811180156104cb575060035481105b61050a576040517f08c379a000000000000000000000000000000000000000000000000000000000815260040161050190611dc8565b60405180910390fd5b5050565b6060600060028054905067ffffffffffffffff81111561053157610530611de8565b5b60405190808252806020026020018201604052801561056a57816020015b61055761117e565b81526020019060019003908161054f5790505b50905060005b60028054905081101561059057808061058890611e46565b915050610570565b508091505090565b60046020528060005260406000206000915090508060000154908060010180546105c190611ebd565b80601f01602080910402602001604051908101604052809291908181526020018280546105ed90611ebd565b801561063a5780601f1061060f5761010080835404028352916020019161063a565b820191906000526020600020905b81548152906001019060200180831161061d57829003601f168201915b50505050509080600201805461064f90611ebd565b80601f016020809104026020016040519081016040528092919081815260200182805461067b90611ebd565b80156106c85780601f1061069d576101008083540402835291602001916106c8565b820191906000526020600020905b8154815290600101906020018083116106ab57829003601f168201915b5050505050908060030154908060040154905085565b60008054906101000a900473ffffffffffffffffffffffffffffffffffffffff1673ffffffffffffffffffffffffffffffffffffffff163373ffffffffffffffffffffffffffffffffffffffff161461076c576040517f08c379a000000000000000000000000000000000000000000000000000000000815260040161076390611d5c565b60405180910390fd5b6040518060a00160405280600654815260200187878080601f016020809104026020016040519081016040528093929190818152602001838380828437600081840152601f19601f82011690508083019250505050505050815260200185858080601f016020809104026020016040519081016040528093929190818152602001838380828437600081840152601f19601f82011690508083019250505050505050815260200183815260200182815250600460006006548152602001908152602001600020600082015181600001556020820151816001019081610851919061209a565b506040820151816002019081610867919061209a565b50606082015181600301556080820151816004015590505060056006549080600181540180825580915050600190039060005260206000200160009091909190915055600660008154809291906108bd90611e46565b9190505550505050505050565b600881815481106108da57600080fd5b906000526020600020016000915090505481565b80600081118015610900575060035481105b61093f576040517f08c379a000000000000000000000000000000000000000000000000000000000815260040161093690611dc8565b60405180910390fd5b604051806080016040528060095481526020018481526020018381526020013373ffffffffffffffffffffffffffffffffffffffff1681525060076000600954815260200190815260200160002060008201518160000155602082015181600101556040820151816002015560608201518160030160006101000a81548173ffffffffffffffffffffffffffffffffffffffff021916908373ffffffffffffffffffffffffffffffffffffffff1602179055509050506008600954908060018154018082558091505060019003906000526020600020016000909190919091505560096000815480929190610a3390611e46565b9190505550505050565b60008054906101000a900473ffffffffffffffffffffffffffffffffffffffff1673ffffffffffffffffffffffffffffffffffffffff163373ffffffffffffffffffffffffffffffffffffffff1614610acb576040517f08c379a0000000000000000000000000000000000000000000000000000000008152600401610ac290611d5c565b60405180910390fd5b61012c8310158015610adf5750611c208311155b610b1e576040517f08c379a0000000000000000000000000000000000000000000000000000000008152600401610b15906121de565b60405180910390fd5b6040518060c00160405280600354815260200189898080601f016020809104026020016040519081016040528093929190818152602001838380828437600081840152601f19601f82011690508083019250505050505050815260200187878080601f016020809104026020016040519081016040528093929190818152602001838380828437600081840152601f19601f820116905080830192505050505050508152602001858152602001848152602001838380806020026020016040519081016040528093929190818152602001838360200280828437600081840152601f19601f82011690508083019250505050505050815250600160006003548152602001908152602001600020600082015181600001556020820151816001019081610c4a919061209a565b506040820151816002019081610c60919061209a565b50606082015181600301556080820151816004015560a0820151816005019080519060200190610c919291906111b4565b509050506002600354908060018154018082558091505060019003906000526020600020016000909190919091505560036000815480929190610cd390611e46565b91905055505050505050505050565b60028181548110610cf257600080fd5b906000526020600020016000915090505481565b6001602052806000526040600020600091509050806000015490806001018054610d2f90611ebd565b80601f0160208091040260200160405190810160405280929190818152602001828054610d5b90611ebd565b8015610da85780601f10610d7d57610100808354040283529160200191610da8565b820191906000526020600020905b815481529060010190602001808311610d8b57829003601f168201915b505050505090806002018054610dbd90611ebd565b80601f0160208091040260200160405190810160405280929190818152602001828054610de990611ebd565b8015610e365780601f10610e0b57610100808354040283529160200191610e36565b820191906000526020600020905b815481529060010190602001808311610e1957829003601f168201915b5050505050908060030154908060040154905085565b6060600060058054905067ffffffffffffffff811115610e6f57610e6e611de8565b5b604051908082528060200260200182016040528015610ea857816020015b610e95611201565b815260200190600190039081610e8d5790505b50905060005b600580549050811015610ece578080610ec690611e46565b915050610eae565b508091505090565b60008054906101000a900473ffffffffffffffffffffffffffffffffffffffff1673ffffffffffffffffffffffffffffffffffffffff163373ffffffffffffffffffffffffffffffffffffffff1614610f64576040517f08c379a0000000000000000000000000000000000000000000000000000000008152600401610f5b90611d5c565b60405180910390fd5b80600081118015610f76575060065481105b610fb5576040517f08c379a0000000000000000000000000000000000000000000000000000000008152600401610fac9061224a565b60405180910390fd5b5050565b60606000600a60008473ffffffffffffffffffffffffffffffffffffffff1673ffffffffffffffffffffffffffffffffffffffff16815260200190815260200160002090506000818054905067ffffffffffffffff81111561101e5761101d611de8565b5b60405190808252806020026020018201604052801561105757816020015b611044611230565b81526020019060019003908161103c5790505b50905060005b828054905081101561114f57600083828154811061107e5761107d61226a565b5b90600052602060002001549050600760008281526020019081526020016000206040518060800160405290816000820154815260200160018201548152602001600282015481526020016003820160009054906101000a900473ffffffffffffffffffffffffffffffffffffffff1673ffffffffffffffffffffffffffffffffffffffff1673ffffffffffffffffffffffffffffffffffffffff16815250508383815181106111305761112f61226a565b5b602002602001018190525050808061114790611e46565b91505061105d565b508092505050919050565b60008054906101000a900473ffffffffffffffffffffffffffffffffffffffff1681565b6040518060c001604052806000815260200160608152602001606081526020016000815260200160008152602001606081525090565b8280548282559060005260206000209081019282156111f0579160200282015b828111156111ef5782518255916020019190600101906111d4565b5b5090506111fd919061126e565b5090565b6040518060a0016040528060008152602001606081526020016060815260200160008152602001600081525090565b6040518060800160405280600081526020016000815260200160008152602001600073ffffffffffffffffffffffffffffffffffffffff1681525090565b5b8082111561128757600081600090555060010161126f565b5090565b600080fd5b600080fd5b6000819050919050565b6112a881611295565b81146112b357600080fd5b50565b6000813590506112c58161129f565b92915050565b6000602082840312156112e1576112e061128b565b5b60006112ef848285016112b6565b91505092915050565b61130181611295565b82525050565b600073ffffffffffffffffffffffffffffffffffffffff82169050919050565b600061133282611307565b9050919050565b61134281611327565b82525050565b600060808201905061135d60008301876112f8565b61136a60208301866112f8565b61137760408301856112f8565b6113846060830184611339565b95945050505050565b60006020820190506113a260008301846112f8565b92915050565b600081519050919050565b600082825260208201905092915050565b6000819050602082019050919050565b6113dd81611295565b82525050565b600081519050919050565b600082825260208201905092915050565b60005b8381101561141d578082015181840152602081019050611402565b60008484015250505050565b6000601f19601f8301169050919050565b6000611445826113e3565b61144f81856113ee565b935061145f8185602086016113ff565b61146881611429565b840191505092915050565b600081519050919050565b600082825260208201905092915050565b6000819050602082019050919050565b60006114ab83836113d4565b60208301905092915050565b6000602082019050919050565b60006114cf82611473565b6114d9818561147e565b93506114e48361148f565b8060005b838110156115155781516114fc888261149f565b9750611507836114b7565b9250506001810190506114e8565b5085935050505092915050565b600060c08301600083015161153a60008601826113d4565b5060208301518482036020860152611552828261143a565b9150506040830151848203604086015261156c828261143a565b915050606083015161158160608601826113d4565b50608083015161159460808601826113d4565b5060a083015184820360a08601526115ac82826114c4565b9150508091505092915050565b60006115c58383611522565b905092915050565b6000602082019050919050565b60006115e5826113a8565b6115ef81856113b3565b935083602082028501611601856113c4565b8060005b8581101561163d578484038952815161161e85826115b9565b9450611629836115cd565b925060208a01995050600181019050611605565b50829750879550505050505092915050565b6000602082019050818103600083015261166981846115da565b905092915050565b600082825260208201905092915050565b600061168d826113e3565b6116978185611671565b93506116a78185602086016113ff565b6116b081611429565b840191505092915050565b600060a0820190506116d060008301886112f8565b81810360208301526116e28187611682565b905081810360408301526116f68186611682565b905061170560608301856112f8565b61171260808301846112f8565b9695505050505050565b600080fd5b600080fd5b600080fd5b60008083601f8401126117415761174061171c565b5b8235905067ffffffffffffffff81111561175e5761175d611721565b5b60208301915083600182028301111561177a57611779611726565b5b9250929050565b6000806000806000806080878903121561179e5761179d61128b565b5b600087013567ffffffffffffffff8111156117bc576117bb611290565b5b6117c889828a0161172b565b9650965050602087013567ffffffffffffffff8111156117eb576117ea611290565b5b6117f789828a0161172b565b9450945050604061180a89828a016112b6565b925050606061181b89828a016112b6565b9150509295509295509295565b6000806040838503121561183f5761183e61128b565b5b600061184d858286016112b6565b925050602061185e858286016112b6565b9150509250929050565b60008083601f84011261187e5761187d61171c565b5b8235905067ffffffffffffffff81111561189b5761189a611721565b5b6020830191508360208202830111156118b7576118b6611726565b5b9250929050565b60008060008060008060008060a0898b0312156118de576118dd61128b565b5b600089013567ffffffffffffffff8111156118fc576118fb611290565b5b6119088b828c0161172b565b9850985050602089013567ffffffffffffffff81111561192b5761192a611290565b5b6119378b828c0161172b565b9650965050604061194a8b828c016112b6565b945050606061195b8b828c016112b6565b935050608089013567ffffffffffffffff81111561197c5761197b611290565b5b6119888b828c01611868565b92509250509295985092959890939650565b600081519050919050565b600082825260208201905092915050565b6000819050602082019050919050565b600060a0830160008301516119de60008601826113d4565b50602083015184820360208601526119f6828261143a565b91505060408301518482036040860152611a10828261143a565b9150506060830151611a2560608601826113d4565b506080830151611a3860808601826113d4565b508091505092915050565b6000611a4f83836119c6565b905092915050565b6000602082019050919050565b6000611a6f8261199a565b611a7981856119a5565b935083602082028501611a8b856119b6565b8060005b85811015611ac75784840389528151611aa88582611a43565b9450611ab383611a57565b925060208a01995050600181019050611a8f565b50829750879550505050505092915050565b60006020820190508181036000830152611af38184611a64565b905092915050565b611b0481611327565b8114611b0f57600080fd5b50565b600081359050611b2181611afb565b92915050565b600060208284031215611b3d57611b3c61128b565b5b6000611b4b84828501611b12565b91505092915050565b600081519050919050565b600082825260208201905092915050565b6000819050602082019050919050565b611b8981611327565b82525050565b608082016000820151611ba560008501826113d4565b506020820151611bb860208501826113d4565b506040820151611bcb60408501826113d4565b506060820151611bde6060850182611b80565b50505050565b6000611bf08383611b8f565b60808301905092915050565b6000602082019050919050565b6000611c1482611b54565b611c1e8185611b5f565b9350611c2983611b70565b8060005b83811015611c5a578151611c418882611be4565b9750611c4c83611bfc565b925050600181019050611c2d565b5085935050505092915050565b60006020820190508181036000830152611c818184611c09565b905092915050565b6000602082019050611c9e6000830184611339565b92915050565b7f426f6f6b696e6720646f6573206e6f7420657869737400000000000000000000600082015250565b6000611cda601683611671565b9150611ce582611ca4565b602082019050919050565b60006020820190508181036000830152611d0981611ccd565b9050919050565b7f4f6e6c792061646d696e00000000000000000000000000000000000000000000600082015250565b6000611d46600a83611671565b9150611d5182611d10565b602082019050919050565b60006020820190508181036000830152611d7581611d39565b9050919050565b7f5365727669636520646f6573206e6f7420657869737400000000000000000000600082015250565b6000611db2601683611671565b9150611dbd82611d7c565b602082019050919050565b60006020820190508181036000830152611de181611da5565b9050919050565b7f4e487b7100000000000000000000000000000000000000000000000000000000600052604160045260246000fd5b7f4e487b7100000000000000000000000000000000000000000000000000000000600052601160045260246000fd5b6000611e5182611295565b91507fffffffffffffffffffffffffffffffffffffffffffffffffffffffffffffffff8203611e8357611e82611e17565b5b600182019050919050565b7f4e487b7100000000000000000000000000000000000000000000000000000000600052602260045260246000fd5b60006002820490506001821680611ed557607f821691505b602082108103611ee857611ee7611e8e565b5b50919050565b60008190508160005260206000209050919050565b60006020601f8301049050919050565b600082821b905092915050565b600060088302611f507fffffffffffffffffffffffffffffffffffffffffffffffffffffffffffffffff82611f13565b611f5a8683611f13565b95508019841693508086168417925050509392505050565b6000819050919050565b6000611f97611f92611f8d84611295565b611f72565b611295565b9050919050565b6000819050919050565b611fb183611f7c565b611fc5611fbd82611f9e565b848454611f20565b825550505050565b600090565b611fda611fcd565b611fe5818484611fa8565b505050565b5b8181101561200957611ffe600082611fd2565b600181019050611feb565b5050565b601f82111561204e5761201f81611eee565b61202884611f03565b81016020851015612037578190505b61204b61204385611f03565b830182611fea565b50505b505050565b600082821c905092915050565b600061207160001984600802612053565b1980831691505092915050565b600061208a8383612060565b9150826002028217905092915050565b6120a3826113e3565b67ffffffffffffffff8111156120bc576120bb611de8565b5b6120c68254611ebd565b6120d182828561200d565b600060209050601f83116001811461210457600084156120f2578287015190505b6120fc858261207e565b865550612164565b601f19841661211286611eee565b60005b8281101561213a57848901518255600182019150602085019450602081019050612115565b868310156121575784890151612153601f891682612060565b8355505b6001600288020188555050505b505050505050565b7f4475726174696f6e2073686f756c64206265206265747765656e2035206d696e60008201527f7574657320616e64203220686f75727300000000000000000000000000000000602082015250565b60006121c8603083611671565b91506121d38261216c565b604082019050919050565b600060208201905081810360008301526121f7816121bb565b9050919050565b7f50726f6475637420646f6573206e6f7420657869737400000000000000000000600082015250565b6000612234601683611671565b915061223f826121fe565b602082019050919050565b6000602082019050818103600083015261226381612227565b9050919050565b7f4e487b7100000000000000000000000000000000000000000000000000000000600052603260045260246000fdfea26469706673582212203d30ad4be73af359d532829c109db812b4a5ecefc627ef5fb7192b7d8f637ddc64736f6c63430008100033",
					"opcodes": "PUSH1 0x80 PUSH1 0x40 MSTORE PUSH1 0x1 PUSH1 0x3 SSTORE PUSH1 0x1 PUSH1 0x6 SSTORE PUSH1 0x1 PUSH1 0x9 SSTORE CALLVALUE DUP1 ISZERO PUSH2 0x1F JUMPI PUSH1 0x0 DUP1 REVERT JUMPDEST POP CALLER PUSH1 0x0 DUP1 PUSH2 0x100 EXP DUP2 SLOAD DUP2 PUSH20 0xFFFFFFFFFFFFFFFFFFFFFFFFFFFFFFFFFFFFFFFF MUL NOT AND SWAP1 DUP4 PUSH20 0xFFFFFFFFFFFFFFFFFFFFFFFFFFFFFFFFFFFFFFFF AND MUL OR SWAP1 SSTORE POP PUSH2 0x22CF DUP1 PUSH2 0x6F PUSH1 0x0 CODECOPY PUSH1 0x0 RETURN INVALID PUSH1 0x80 PUSH1 0x40 MSTORE CALLVALUE DUP1 ISZERO PUSH2 0x10 JUMPI PUSH1 0x0 DUP1 REVERT JUMPDEST POP PUSH1 0x4 CALLDATASIZE LT PUSH2 0x100 JUMPI PUSH1 0x0 CALLDATALOAD PUSH1 0xE0 SHR DUP1 PUSH4 0xB91C7160 GT PUSH2 0x97 JUMPI DUP1 PUSH4 0xC29B2F20 GT PUSH2 0x66 JUMPI DUP1 PUSH4 0xC29B2F20 EQ PUSH2 0x2DA JUMPI DUP1 PUSH4 0xED90C7B7 EQ PUSH2 0x2F8 JUMPI DUP1 PUSH4 0xEF3197C8 EQ PUSH2 0x314 JUMPI DUP1 PUSH4 0xF851A440 EQ PUSH2 0x344 JUMPI PUSH2 0x100 JUMP JUMPDEST DUP1 PUSH4 0xB91C7160 EQ PUSH2 0x23E JUMPI DUP1 PUSH4 0xBC85B04C EQ PUSH2 0x25A JUMPI DUP1 PUSH4 0xBD293DCA EQ PUSH2 0x276 JUMPI DUP1 PUSH4 0xC22C4F43 EQ PUSH2 0x2A6 JUMPI PUSH2 0x100 JUMP JUMPDEST DUP1 PUSH4 0x75417851 GT PUSH2 0xD3 JUMPI DUP1 PUSH4 0x75417851 EQ PUSH2 0x1A0 JUMPI DUP1 PUSH4 0x7ACC0B20 EQ PUSH2 0x1BE JUMPI DUP1 PUSH4 0x90D16CBA EQ PUSH2 0x1F2 JUMPI DUP1 PUSH4 0xA06A1F69 EQ PUSH2 0x20E JUMPI PUSH2 0x100 JUMP JUMPDEST DUP1 PUSH4 0x1DAB301E EQ PUSH2 0x105 JUMPI DUP1 PUSH4 0x3AE7F0DF EQ PUSH2 0x138 JUMPI DUP1 PUSH4 0x528C87D2 EQ PUSH2 0x154 JUMPI DUP1 PUSH4 0x74E29EE6 EQ PUSH2 0x184 JUMPI JUMPDEST PUSH1 0x0 DUP1 REVERT JUMPDEST PUSH2 0x11F PUSH1 0x4 DUP1 CALLDATASIZE SUB DUP2 ADD SWAP1 PUSH2 0x11A SWAP2 SWAP1 PUSH2 0x12CB JUMP JUMPDEST PUSH2 0x362 JUMP JUMPDEST PUSH1 0x40 MLOAD PUSH2 0x12F SWAP5 SWAP4 SWAP3 SWAP2 SWAP1 PUSH2 0x1348 JUMP JUMPDEST PUSH1 0x40 MLOAD DUP1 SWAP2 SUB SWAP1 RETURN JUMPDEST PUSH2 0x152 PUSH1 0x4 DUP1 CALLDATASIZE SUB DUP2 ADD SWAP1 PUSH2 0x14D SWAP2 SWAP1 PUSH2 0x12CB JUMP JUMPDEST PUSH2 0x3B2 JUMP JUMPDEST STOP JUMPDEST PUSH2 0x16E PUSH1 0x4 DUP1 CALLDATASIZE SUB DUP2 ADD SWAP1 PUSH2 0x169 SWAP2 SWAP1 PUSH2 0x12CB JUMP JUMPDEST PUSH2 0x407 JUMP JUMPDEST PUSH1 0x40 MLOAD PUSH2 0x17B SWAP2 SWAP1 PUSH2 0x138D JUMP JUMPDEST PUSH1 0x40 MLOAD DUP1 SWAP2 SUB SWAP1 RETURN JUMPDEST PUSH2 0x19E PUSH1 0x4 DUP1 CALLDATASIZE SUB DUP2 ADD SWAP1 PUSH2 0x199 SWAP2 SWAP1 PUSH2 0x12CB JUMP JUMPDEST PUSH2 0x42B JUMP JUMPDEST STOP JUMPDEST PUSH2 0x1A8 PUSH2 0x50E JUMP JUMPDEST PUSH1 0x40 MLOAD PUSH2 0x1B5 SWAP2 SWAP1 PUSH2 0x164F JUMP JUMPDEST PUSH1 0x40 MLOAD DUP1 SWAP2 SUB SWAP1 RETURN JUMPDEST PUSH2 0x1D8 PUSH1 0x4 DUP1 CALLDATASIZE SUB DUP2 ADD SWAP1 PUSH2 0x1D3 SWAP2 SWAP1 PUSH2 0x12CB JUMP JUMPDEST PUSH2 0x598 JUMP JUMPDEST PUSH1 0x40 MLOAD PUSH2 0x1E9 SWAP6 SWAP5 SWAP4 SWAP3 SWAP2 SWAP1 PUSH2 0x16BB JUMP JUMPDEST PUSH1 0x40 MLOAD DUP1 SWAP2 SUB SWAP1 RETURN JUMPDEST PUSH2 0x20C PUSH1 0x4 DUP1 CALLDATASIZE SUB DUP2 ADD SWAP1 PUSH2 0x207 SWAP2 SWAP1 PUSH2 0x1781 JUMP JUMPDEST PUSH2 0x6DE JUMP JUMPDEST STOP JUMPDEST PUSH2 0x228 PUSH1 0x4 DUP1 CALLDATASIZE SUB DUP2 ADD SWAP1 PUSH2 0x223 SWAP2 SWAP1 PUSH2 0x12CB JUMP JUMPDEST PUSH2 0x8CA JUMP JUMPDEST PUSH1 0x40 MLOAD PUSH2 0x235 SWAP2 SWAP1 PUSH2 0x138D JUMP JUMPDEST PUSH1 0x40 MLOAD DUP1 SWAP2 SUB SWAP1 RETURN JUMPDEST PUSH2 0x258 PUSH1 0x4 DUP1 CALLDATASIZE SUB DUP2 ADD SWAP1 PUSH2 0x253 SWAP2 SWAP1 PUSH2 0x1828 JUMP JUMPDEST PUSH2 0x8EE JUMP JUMPDEST STOP JUMPDEST PUSH2 0x274 PUSH1 0x4 DUP1 CALLDATASIZE SUB DUP2 ADD SWAP1 PUSH2 0x26F SWAP2 SWAP1 PUSH2 0x18BE JUMP JUMPDEST PUSH2 0xA3D JUMP JUMPDEST STOP JUMPDEST PUSH2 0x290 PUSH1 0x4 DUP1 CALLDATASIZE SUB DUP2 ADD SWAP1 PUSH2 0x28B SWAP2 SWAP1 PUSH2 0x12CB JUMP JUMPDEST PUSH2 0xCE2 JUMP JUMPDEST PUSH1 0x40 MLOAD PUSH2 0x29D SWAP2 SWAP1 PUSH2 0x138D JUMP JUMPDEST PUSH1 0x40 MLOAD DUP1 SWAP2 SUB SWAP1 RETURN JUMPDEST PUSH2 0x2C0 PUSH1 0x4 DUP1 CALLDATASIZE SUB DUP2 ADD SWAP1 PUSH2 0x2BB SWAP2 SWAP1 PUSH2 0x12CB JUMP JUMPDEST PUSH2 0xD06 JUMP JUMPDEST PUSH1 0x40 MLOAD PUSH2 0x2D1 SWAP6 SWAP5 SWAP4 SWAP3 SWAP2 SWAP1 PUSH2 0x16BB JUMP JUMPDEST PUSH1 0x40 MLOAD DUP1 SWAP2 SUB SWAP1 RETURN JUMPDEST PUSH2 0x2E2 PUSH2 0xE4C JUMP JUMPDEST PUSH1 0x40 MLOAD PUSH2 0x2EF SWAP2 SWAP1 PUSH2 0x1AD9 JUMP JUMPDEST PUSH1 0x40 MLOAD DUP1 SWAP2 SUB SWAP1 RETURN JUMPDEST PUSH2 0x312 PUSH1 0x4 DUP1 CALLDATASIZE SUB DUP2 ADD SWAP1 PUSH2 0x30D SWAP2 SWAP1 PUSH2 0x12CB JUMP JUMPDEST PUSH2 0xED6 JUMP JUMPDEST STOP JUMPDEST PUSH2 0x32E PUSH1 0x4 DUP1 CALLDATASIZE SUB DUP2 ADD SWAP1 PUSH2 0x329 SWAP2 SWAP1 PUSH2 0x1B27 JUMP JUMPDEST PUSH2 0xFB9 JUMP JUMPDEST PUSH1 0x40 MLOAD PUSH2 0x33B SWAP2 SWAP1 PUSH2 0x1C67 JUMP JUMPDEST PUSH1 0x40 MLOAD DUP1 SWAP2 SUB SWAP1 RETURN JUMPDEST PUSH2 0x34C PUSH2 0x115A JUMP JUMPDEST PUSH1 0x40 MLOAD PUSH2 0x359 SWAP2 SWAP1 PUSH2 0x1C89 JUMP JUMPDEST PUSH1 0x40 MLOAD DUP1 SWAP2 SUB SWAP1 RETURN JUMPDEST PUSH1 0x7 PUSH1 0x20 MSTORE DUP1 PUSH1 0x0 MSTORE PUSH1 0x40 PUSH1 0x0 KECCAK256 PUSH1 0x0 SWAP2 POP SWAP1 POP DUP1 PUSH1 0x0 ADD SLOAD SWAP1 DUP1 PUSH1 0x1 ADD SLOAD SWAP1 DUP1 PUSH1 0x2 ADD SLOAD SWAP1 DUP1 PUSH1 0x3 ADD PUSH1 0x0 SWAP1 SLOAD SWAP1 PUSH2 0x100 EXP SWAP1 DIV PUSH20 0xFFFFFFFFFFFFFFFFFFFFFFFFFFFFFFFFFFFFFFFF AND SWAP1 POP DUP5 JUMP JUMPDEST DUP1 PUSH1 0x0 DUP2 GT DUP1 ISZERO PUSH2 0x3C4 JUMPI POP PUSH1 0x9 SLOAD DUP2 LT JUMPDEST PUSH2 0x403 JUMPI PUSH1 0x40 MLOAD PUSH32 0x8C379A000000000000000000000000000000000000000000000000000000000 DUP2 MSTORE PUSH1 0x4 ADD PUSH2 0x3FA SWAP1 PUSH2 0x1CF0 JUMP JUMPDEST PUSH1 0x40 MLOAD DUP1 SWAP2 SUB SWAP1 REVERT JUMPDEST POP POP JUMP JUMPDEST PUSH1 0x5 DUP2 DUP2 SLOAD DUP2 LT PUSH2 0x417 JUMPI PUSH1 0x0 DUP1 REVERT JUMPDEST SWAP1 PUSH1 0x0 MSTORE PUSH1 0x20 PUSH1 0x0 KECCAK256 ADD PUSH1 0x0 SWAP2 POP SWAP1 POP SLOAD DUP2 JUMP JUMPDEST PUSH1 0x0 DUP1 SLOAD SWAP1 PUSH2 0x100 EXP SWAP1 DIV PUSH20 0xFFFFFFFFFFFFFFFFFFFFFFFFFFFFFFFFFFFFFFFF AND PUSH20 0xFFFFFFFFFFFFFFFFFFFFFFFFFFFFFFFFFFFFFFFF AND CALLER PUSH20 0xFFFFFFFFFFFFFFFFFFFFFFFFFFFFFFFFFFFFFFFF AND EQ PUSH2 0x4B9 JUMPI PUSH1 0x40 MLOAD PUSH32 0x8C379A000000000000000000000000000000000000000000000000000000000 DUP2 MSTORE PUSH1 0x4 ADD PUSH2 0x4B0 SWAP1 PUSH2 0x1D5C JUMP JUMPDEST PUSH1 0x40 MLOAD DUP1 SWAP2 SUB SWAP1 REVERT JUMPDEST DUP1 PUSH1 0x0 DUP2 GT DUP1 ISZERO PUSH2 0x4CB JUMPI POP PUSH1 0x3 SLOAD DUP2 LT JUMPDEST PUSH2 0x50A JUMPI PUSH1 0x40 MLOAD PUSH32 0x8C379A000000000000000000000000000000000000000000000000000000000 DUP2 MSTORE PUSH1 0x4 ADD PUSH2 0x501 SWAP1 PUSH2 0x1DC8 JUMP JUMPDEST PUSH1 0x40 MLOAD DUP1 SWAP2 SUB SWAP1 REVERT JUMPDEST POP POP JUMP JUMPDEST PUSH1 0x60 PUSH1 0x0 PUSH1 0x2 DUP1 SLOAD SWAP1 POP PUSH8 0xFFFFFFFFFFFFFFFF DUP2 GT ISZERO PUSH2 0x531 JUMPI PUSH2 0x530 PUSH2 0x1DE8 JUMP JUMPDEST JUMPDEST PUSH1 0x40 MLOAD SWAP1 DUP1 DUP3 MSTORE DUP1 PUSH1 0x20 MUL PUSH1 0x20 ADD DUP3 ADD PUSH1 0x40 MSTORE DUP1 ISZERO PUSH2 0x56A JUMPI DUP2 PUSH1 0x20 ADD JUMPDEST PUSH2 0x557 PUSH2 0x117E JUMP JUMPDEST DUP2 MSTORE PUSH1 0x20 ADD SWAP1 PUSH1 0x1 SWAP1 SUB SWAP1 DUP2 PUSH2 0x54F JUMPI SWAP1 POP JUMPDEST POP SWAP1 POP PUSH1 0x0 JUMPDEST PUSH1 0x2 DUP1 SLOAD SWAP1 POP DUP2 LT ISZERO PUSH2 0x590 JUMPI DUP1 DUP1 PUSH2 0x588 SWAP1 PUSH2 0x1E46 JUMP JUMPDEST SWAP2 POP POP PUSH2 0x570 JUMP JUMPDEST POP DUP1 SWAP2 POP POP SWAP1 JUMP JUMPDEST PUSH1 0x4 PUSH1 0x20 MSTORE DUP1 PUSH1 0x0 MSTORE PUSH1 0x40 PUSH1 0x0 KECCAK256 PUSH1 0x0 SWAP2 POP SWAP1 POP DUP1 PUSH1 0x0 ADD SLOAD SWAP1 DUP1 PUSH1 0x1 ADD DUP1 SLOAD PUSH2 0x5C1 SWAP1 PUSH2 0x1EBD JUMP JUMPDEST DUP1 PUSH1 0x1F ADD PUSH1 0x20 DUP1 SWAP2 DIV MUL PUSH1 0x20 ADD PUSH1 0x40 MLOAD SWAP1 DUP2 ADD PUSH1 0x40 MSTORE DUP1 SWAP3 SWAP2 SWAP1 DUP2 DUP2 MSTORE PUSH1 0x20 ADD DUP3 DUP1 SLOAD PUSH2 0x5ED SWAP1 PUSH2 0x1EBD JUMP JUMPDEST DUP1 ISZERO PUSH2 0x63A JUMPI DUP1 PUSH1 0x1F LT PUSH2 0x60F JUMPI PUSH2 0x100 DUP1 DUP4 SLOAD DIV MUL DUP4 MSTORE SWAP2 PUSH1 0x20 ADD SWAP2 PUSH2 0x63A JUMP JUMPDEST DUP3 ADD SWAP2 SWAP1 PUSH1 0x0 MSTORE PUSH1 0x20 PUSH1 0x0 KECCAK256 SWAP1 JUMPDEST DUP2 SLOAD DUP2 MSTORE SWAP1 PUSH1 0x1 ADD SWAP1 PUSH1 0x20 ADD DUP1 DUP4 GT PUSH2 0x61D JUMPI DUP3 SWAP1 SUB PUSH1 0x1F AND DUP3 ADD SWAP2 JUMPDEST POP POP POP POP POP SWAP1 DUP1 PUSH1 0x2 ADD DUP1 SLOAD PUSH2 0x64F SWAP1 PUSH2 0x1EBD JUMP JUMPDEST DUP1 PUSH1 0x1F ADD PUSH1 0x20 DUP1 SWAP2 DIV MUL PUSH1 0x20 ADD PUSH1 0x40 MLOAD SWAP1 DUP2 ADD PUSH1 0x40 MSTORE DUP1 SWAP3 SWAP2 SWAP1 DUP2 DUP2 MSTORE PUSH1 0x20 ADD DUP3 DUP1 SLOAD PUSH2 0x67B SWAP1 PUSH2 0x1EBD JUMP JUMPDEST DUP1 ISZERO PUSH2 0x6C8 JUMPI DUP1 PUSH1 0x1F LT PUSH2 0x69D JUMPI PUSH2 0x100 DUP1 DUP4 SLOAD DIV MUL DUP4 MSTORE SWAP2 PUSH1 0x20 ADD SWAP2 PUSH2 0x6C8 JUMP JUMPDEST DUP3 ADD SWAP2 SWAP1 PUSH1 0x0 MSTORE PUSH1 0x20 PUSH1 0x0 KECCAK256 SWAP1 JUMPDEST DUP2 SLOAD DUP2 MSTORE SWAP1 PUSH1 0x1 ADD SWAP1 PUSH1 0x20 ADD DUP1 DUP4 GT PUSH2 0x6AB JUMPI DUP3 SWAP1 SUB PUSH1 0x1F AND DUP3 ADD SWAP2 JUMPDEST POP POP POP POP POP SWAP1 DUP1 PUSH1 0x3 ADD SLOAD SWAP1 DUP1 PUSH1 0x4 ADD SLOAD SWAP1 POP DUP6 JUMP JUMPDEST PUSH1 0x0 DUP1 SLOAD SWAP1 PUSH2 0x100 EXP SWAP1 DIV PUSH20 0xFFFFFFFFFFFFFFFFFFFFFFFFFFFFFFFFFFFFFFFF AND PUSH20 0xFFFFFFFFFFFFFFFFFFFFFFFFFFFFFFFFFFFFFFFF AND CALLER PUSH20 0xFFFFFFFFFFFFFFFFFFFFFFFFFFFFFFFFFFFFFFFF AND EQ PUSH2 0x76C JUMPI PUSH1 0x40 MLOAD PUSH32 0x8C379A000000000000000000000000000000000000000000000000000000000 DUP2 MSTORE PUSH1 0x4 ADD PUSH2 0x763 SWAP1 PUSH2 0x1D5C JUMP JUMPDEST PUSH1 0x40 MLOAD DUP1 SWAP2 SUB SWAP1 REVERT JUMPDEST PUSH1 0x40 MLOAD DUP1 PUSH1 0xA0 ADD PUSH1 0x40 MSTORE DUP1 PUSH1 0x6 SLOAD DUP2 MSTORE PUSH1 0x20 ADD DUP8 DUP8 DUP1 DUP1 PUSH1 0x1F ADD PUSH1 0x20 DUP1 SWAP2 DIV MUL PUSH1 0x20 ADD PUSH1 0x40 MLOAD SWAP1 DUP2 ADD PUSH1 0x40 MSTORE DUP1 SWAP4 SWAP3 SWAP2 SWAP1 DUP2 DUP2 MSTORE PUSH1 0x20 ADD DUP4 DUP4 DUP1 DUP3 DUP5 CALLDATACOPY PUSH1 0x0 DUP2 DUP5 ADD MSTORE PUSH1 0x1F NOT PUSH1 0x1F DUP3 ADD AND SWAP1 POP DUP1 DUP4 ADD SWAP3 POP POP POP POP POP POP POP DUP2 MSTORE PUSH1 0x20 ADD DUP6 DUP6 DUP1 DUP1 PUSH1 0x1F ADD PUSH1 0x20 DUP1 SWAP2 DIV MUL PUSH1 0x20 ADD PUSH1 0x40 MLOAD SWAP1 DUP2 ADD PUSH1 0x40 MSTORE DUP1 SWAP4 SWAP3 SWAP2 SWAP1 DUP2 DUP2 MSTORE PUSH1 0x20 ADD DUP4 DUP4 DUP1 DUP3 DUP5 CALLDATACOPY PUSH1 0x0 DUP2 DUP5 ADD MSTORE PUSH1 0x1F NOT PUSH1 0x1F DUP3 ADD AND SWAP1 POP DUP1 DUP4 ADD SWAP3 POP POP POP POP POP POP POP DUP2 MSTORE PUSH1 0x20 ADD DUP4 DUP2 MSTORE PUSH1 0x20 ADD DUP3 DUP2 MSTORE POP PUSH1 0x4 PUSH1 0x0 PUSH1 0x6 SLOAD DUP2 MSTORE PUSH1 0x20 ADD SWAP1 DUP2 MSTORE PUSH1 0x20 ADD PUSH1 0x0 KECCAK256 PUSH1 0x0 DUP3 ADD MLOAD DUP2 PUSH1 0x0 ADD SSTORE PUSH1 0x20 DUP3 ADD MLOAD DUP2 PUSH1 0x1 ADD SWAP1 DUP2 PUSH2 0x851 SWAP2 SWAP1 PUSH2 0x209A JUMP JUMPDEST POP PUSH1 0x40 DUP3 ADD MLOAD DUP2 PUSH1 0x2 ADD SWAP1 DUP2 PUSH2 0x867 SWAP2 SWAP1 PUSH2 0x209A JUMP JUMPDEST POP PUSH1 0x60 DUP3 ADD MLOAD DUP2 PUSH1 0x3 ADD SSTORE PUSH1 0x80 DUP3 ADD MLOAD DUP2 PUSH1 0x4 ADD SSTORE SWAP1 POP POP PUSH1 0x5 PUSH1 0x6 SLOAD SWAP1 DUP1 PUSH1 0x1 DUP2 SLOAD ADD DUP1 DUP3 SSTORE DUP1 SWAP2 POP POP PUSH1 0x1 SWAP1 SUB SWAP1 PUSH1 0x0 MSTORE PUSH1 0x20 PUSH1 0x0 KECCAK256 ADD PUSH1 0x0 SWAP1 SWAP2 SWAP1 SWAP2 SWAP1 SWAP2 POP SSTORE PUSH1 0x6 PUSH1 0x0 DUP2 SLOAD DUP1 SWAP3 SWAP2 SWAP1 PUSH2 0x8BD SWAP1 PUSH2 0x1E46 JUMP JUMPDEST SWAP2 SWAP1 POP SSTORE POP POP POP POP POP POP POP JUMP JUMPDEST PUSH1 0x8 DUP2 DUP2 SLOAD DUP2 LT PUSH2 0x8DA JUMPI PUSH1 0x0 DUP1 REVERT JUMPDEST SWAP1 PUSH1 0x0 MSTORE PUSH1 0x20 PUSH1 0x0 KECCAK256 ADD PUSH1 0x0 SWAP2 POP SWAP1 POP SLOAD DUP2 JUMP JUMPDEST DUP1 PUSH1 0x0 DUP2 GT DUP1 ISZERO PUSH2 0x900 JUMPI POP PUSH1 0x3 SLOAD DUP2 LT JUMPDEST PUSH2 0x93F JUMPI PUSH1 0x40 MLOAD PUSH32 0x8C379A000000000000000000000000000000000000000000000000000000000 DUP2 MSTORE PUSH1 0x4 ADD PUSH2 0x936 SWAP1 PUSH2 0x1DC8 JUMP JUMPDEST PUSH1 0x40 MLOAD DUP1 SWAP2 SUB SWAP1 REVERT JUMPDEST PUSH1 0x40 MLOAD DUP1 PUSH1 0x80 ADD PUSH1 0x40 MSTORE DUP1 PUSH1 0x9 SLOAD DUP2 MSTORE PUSH1 0x20 ADD DUP5 DUP2 MSTORE PUSH1 0x20 ADD DUP4 DUP2 MSTORE PUSH1 0x20 ADD CALLER PUSH20 0xFFFFFFFFFFFFFFFFFFFFFFFFFFFFFFFFFFFFFFFF AND DUP2 MSTORE POP PUSH1 0x7 PUSH1 0x0 PUSH1 0x9 SLOAD DUP2 MSTORE PUSH1 0x20 ADD SWAP1 DUP2 MSTORE PUSH1 0x20 ADD PUSH1 0x0 KECCAK256 PUSH1 0x0 DUP3 ADD MLOAD DUP2 PUSH1 0x0 ADD SSTORE PUSH1 0x20 DUP3 ADD MLOAD DUP2 PUSH1 0x1 ADD SSTORE PUSH1 0x40 DUP3 ADD MLOAD DUP2 PUSH1 0x2 ADD SSTORE PUSH1 0x60 DUP3 ADD MLOAD DUP2 PUSH1 0x3 ADD PUSH1 0x0 PUSH2 0x100 EXP DUP2 SLOAD DUP2 PUSH20 0xFFFFFFFFFFFFFFFFFFFFFFFFFFFFFFFFFFFFFFFF MUL NOT AND SWAP1 DUP4 PUSH20 0xFFFFFFFFFFFFFFFFFFFFFFFFFFFFFFFFFFFFFFFF AND MUL OR SWAP1 SSTORE POP SWAP1 POP POP PUSH1 0x8 PUSH1 0x9 SLOAD SWAP1 DUP1 PUSH1 0x1 DUP2 SLOAD ADD DUP1 DUP3 SSTORE DUP1 SWAP2 POP POP PUSH1 0x1 SWAP1 SUB SWAP1 PUSH1 0x0 MSTORE PUSH1 0x20 PUSH1 0x0 KECCAK256 ADD PUSH1 0x0 SWAP1 SWAP2 SWAP1 SWAP2 SWAP1 SWAP2 POP SSTORE PUSH1 0x9 PUSH1 0x0 DUP2 SLOAD DUP1 SWAP3 SWAP2 SWAP1 PUSH2 0xA33 SWAP1 PUSH2 0x1E46 JUMP JUMPDEST SWAP2 SWAP1 POP SSTORE POP POP POP POP JUMP JUMPDEST PUSH1 0x0 DUP1 SLOAD SWAP1 PUSH2 0x100 EXP SWAP1 DIV PUSH20 0xFFFFFFFFFFFFFFFFFFFFFFFFFFFFFFFFFFFFFFFF AND PUSH20 0xFFFFFFFFFFFFFFFFFFFFFFFFFFFFFFFFFFFFFFFF AND CALLER PUSH20 0xFFFFFFFFFFFFFFFFFFFFFFFFFFFFFFFFFFFFFFFF AND EQ PUSH2 0xACB JUMPI PUSH1 0x40 MLOAD PUSH32 0x8C379A000000000000000000000000000000000000000000000000000000000 DUP2 MSTORE PUSH1 0x4 ADD PUSH2 0xAC2 SWAP1 PUSH2 0x1D5C JUMP JUMPDEST PUSH1 0x40 MLOAD DUP1 SWAP2 SUB SWAP1 REVERT JUMPDEST PUSH2 0x12C DUP4 LT ISZERO DUP1 ISZERO PUSH2 0xADF JUMPI POP PUSH2 0x1C20 DUP4 GT ISZERO JUMPDEST PUSH2 0xB1E JUMPI PUSH1 0x40 MLOAD PUSH32 0x8C379A000000000000000000000000000000000000000000000000000000000 DUP2 MSTORE PUSH1 0x4 ADD PUSH2 0xB15 SWAP1 PUSH2 0x21DE JUMP JUMPDEST PUSH1 0x40 MLOAD DUP1 SWAP2 SUB SWAP1 REVERT JUMPDEST PUSH1 0x40 MLOAD DUP1 PUSH1 0xC0 ADD PUSH1 0x40 MSTORE DUP1 PUSH1 0x3 SLOAD DUP2 MSTORE PUSH1 0x20 ADD DUP10 DUP10 DUP1 DUP1 PUSH1 0x1F ADD PUSH1 0x20 DUP1 SWAP2 DIV MUL PUSH1 0x20 ADD PUSH1 0x40 MLOAD SWAP1 DUP2 ADD PUSH1 0x40 MSTORE DUP1 SWAP4 SWAP3 SWAP2 SWAP1 DUP2 DUP2 MSTORE PUSH1 0x20 ADD DUP4 DUP4 DUP1 DUP3 DUP5 CALLDATACOPY PUSH1 0x0 DUP2 DUP5 ADD MSTORE PUSH1 0x1F NOT PUSH1 0x1F DUP3 ADD AND SWAP1 POP DUP1 DUP4 ADD SWAP3 POP POP POP POP POP POP POP DUP2 MSTORE PUSH1 0x20 ADD DUP8 DUP8 DUP1 DUP1 PUSH1 0x1F ADD PUSH1 0x20 DUP1 SWAP2 DIV MUL PUSH1 0x20 ADD PUSH1 0x40 MLOAD SWAP1 DUP2 ADD PUSH1 0x40 MSTORE DUP1 SWAP4 SWAP3 SWAP2 SWAP1 DUP2 DUP2 MSTORE PUSH1 0x20 ADD DUP4 DUP4 DUP1 DUP3 DUP5 CALLDATACOPY PUSH1 0x0 DUP2 DUP5 ADD MSTORE PUSH1 0x1F NOT PUSH1 0x1F DUP3 ADD AND SWAP1 POP DUP1 DUP4 ADD SWAP3 POP POP POP POP POP POP POP DUP2 MSTORE PUSH1 0x20 ADD DUP6 DUP2 MSTORE PUSH1 0x20 ADD DUP5 DUP2 MSTORE PUSH1 0x20 ADD DUP4 DUP4 DUP1 DUP1 PUSH1 0x20 MUL PUSH1 0x20 ADD PUSH1 0x40 MLOAD SWAP1 DUP2 ADD PUSH1 0x40 MSTORE DUP1 SWAP4 SWAP3 SWAP2 SWAP1 DUP2 DUP2 MSTORE PUSH1 0x20 ADD DUP4 DUP4 PUSH1 0x20 MUL DUP1 DUP3 DUP5 CALLDATACOPY PUSH1 0x0 DUP2 DUP5 ADD MSTORE PUSH1 0x1F NOT PUSH1 0x1F DUP3 ADD AND SWAP1 POP DUP1 DUP4 ADD SWAP3 POP POP POP POP POP POP POP DUP2 MSTORE POP PUSH1 0x1 PUSH1 0x0 PUSH1 0x3 SLOAD DUP2 MSTORE PUSH1 0x20 ADD SWAP1 DUP2 MSTORE PUSH1 0x20 ADD PUSH1 0x0 KECCAK256 PUSH1 0x0 DUP3 ADD MLOAD DUP2 PUSH1 0x0 ADD SSTORE PUSH1 0x20 DUP3 ADD MLOAD DUP2 PUSH1 0x1 ADD SWAP1 DUP2 PUSH2 0xC4A SWAP2 SWAP1 PUSH2 0x209A JUMP JUMPDEST POP PUSH1 0x40 DUP3 ADD MLOAD DUP2 PUSH1 0x2 ADD SWAP1 DUP2 PUSH2 0xC60 SWAP2 SWAP1 PUSH2 0x209A JUMP JUMPDEST POP PUSH1 0x60 DUP3 ADD MLOAD DUP2 PUSH1 0x3 ADD SSTORE PUSH1 0x80 DUP3 ADD MLOAD DUP2 PUSH1 0x4 ADD SSTORE PUSH1 0xA0 DUP3 ADD MLOAD DUP2 PUSH1 0x5 ADD SWAP1 DUP1 MLOAD SWAP1 PUSH1 0x20 ADD SWAP1 PUSH2 0xC91 SWAP3 SWAP2 SWAP1 PUSH2 0x11B4 JUMP JUMPDEST POP SWAP1 POP POP PUSH1 0x2 PUSH1 0x3 SLOAD SWAP1 DUP1 PUSH1 0x1 DUP2 SLOAD ADD DUP1 DUP3 SSTORE DUP1 SWAP2 POP POP PUSH1 0x1 SWAP1 SUB SWAP1 PUSH1 0x0 MSTORE PUSH1 0x20 PUSH1 0x0 KECCAK256 ADD PUSH1 0x0 SWAP1 SWAP2 SWAP1 SWAP2 SWAP1 SWAP2 POP SSTORE PUSH1 0x3 PUSH1 0x0 DUP2 SLOAD DUP1 SWAP3 SWAP2 SWAP1 PUSH2 0xCD3 SWAP1 PUSH2 0x1E46 JUMP JUMPDEST SWAP2 SWAP1 POP SSTORE POP POP POP POP POP POP POP POP POP JUMP JUMPDEST PUSH1 0x2 DUP2 DUP2 SLOAD DUP2 LT PUSH2 0xCF2 JUMPI PUSH1 0x0 DUP1 REVERT JUMPDEST SWAP1 PUSH1 0x0 MSTORE PUSH1 0x20 PUSH1 0x0 KECCAK256 ADD PUSH1 0x0 SWAP2 POP SWAP1 POP SLOAD DUP2 JUMP JUMPDEST PUSH1 0x1 PUSH1 0x20 MSTORE DUP1 PUSH1 0x0 MSTORE PUSH1 0x40 PUSH1 0x0 KECCAK256 PUSH1 0x0 SWAP2 POP SWAP1 POP DUP1 PUSH1 0x0 ADD SLOAD SWAP1 DUP1 PUSH1 0x1 ADD DUP1 SLOAD PUSH2 0xD2F SWAP1 PUSH2 0x1EBD JUMP JUMPDEST DUP1 PUSH1 0x1F ADD PUSH1 0x20 DUP1 SWAP2 DIV MUL PUSH1 0x20 ADD PUSH1 0x40 MLOAD SWAP1 DUP2 ADD PUSH1 0x40 MSTORE DUP1 SWAP3 SWAP2 SWAP1 DUP2 DUP2 MSTORE PUSH1 0x20 ADD DUP3 DUP1 SLOAD PUSH2 0xD5B SWAP1 PUSH2 0x1EBD JUMP JUMPDEST DUP1 ISZERO PUSH2 0xDA8 JUMPI DUP1 PUSH1 0x1F LT PUSH2 0xD7D JUMPI PUSH2 0x100 DUP1 DUP4 SLOAD DIV MUL DUP4 MSTORE SWAP2 PUSH1 0x20 ADD SWAP2 PUSH2 0xDA8 JUMP JUMPDEST DUP3 ADD SWAP2 SWAP1 PUSH1 0x0 MSTORE PUSH1 0x20 PUSH1 0x0 KECCAK256 SWAP1 JUMPDEST DUP2 SLOAD DUP2 MSTORE SWAP1 PUSH1 0x1 ADD SWAP1 PUSH1 0x20 ADD DUP1 DUP4 GT PUSH2 0xD8B JUMPI DUP3 SWAP1 SUB PUSH1 0x1F AND DUP3 ADD SWAP2 JUMPDEST POP POP POP POP POP SWAP1 DUP1 PUSH1 0x2 ADD DUP1 SLOAD PUSH2 0xDBD SWAP1 PUSH2 0x1EBD JUMP JUMPDEST DUP1 PUSH1 0x1F ADD PUSH1 0x20 DUP1 SWAP2 DIV MUL PUSH1 0x20 ADD PUSH1 0x40 MLOAD SWAP1 DUP2 ADD PUSH1 0x40 MSTORE DUP1 SWAP3 SWAP2 SWAP1 DUP2 DUP2 MSTORE PUSH1 0x20 ADD DUP3 DUP1 SLOAD PUSH2 0xDE9 SWAP1 PUSH2 0x1EBD JUMP JUMPDEST DUP1 ISZERO PUSH2 0xE36 JUMPI DUP1 PUSH1 0x1F LT PUSH2 0xE0B JUMPI PUSH2 0x100 DUP1 DUP4 SLOAD DIV MUL DUP4 MSTORE SWAP2 PUSH1 0x20 ADD SWAP2 PUSH2 0xE36 JUMP JUMPDEST DUP3 ADD SWAP2 SWAP1 PUSH1 0x0 MSTORE PUSH1 0x20 PUSH1 0x0 KECCAK256 SWAP1 JUMPDEST DUP2 SLOAD DUP2 MSTORE SWAP1 PUSH1 0x1 ADD SWAP1 PUSH1 0x20 ADD DUP1 DUP4 GT PUSH2 0xE19 JUMPI DUP3 SWAP1 SUB PUSH1 0x1F AND DUP3 ADD SWAP2 JUMPDEST POP POP POP POP POP SWAP1 DUP1 PUSH1 0x3 ADD SLOAD SWAP1 DUP1 PUSH1 0x4 ADD SLOAD SWAP1 POP DUP6 JUMP JUMPDEST PUSH1 0x60 PUSH1 0x0 PUSH1 0x5 DUP1 SLOAD SWAP1 POP PUSH8 0xFFFFFFFFFFFFFFFF DUP2 GT ISZERO PUSH2 0xE6F JUMPI PUSH2 0xE6E PUSH2 0x1DE8 JUMP JUMPDEST JUMPDEST PUSH1 0x40 MLOAD SWAP1 DUP1 DUP3 MSTORE DUP1 PUSH1 0x20 MUL PUSH1 0x20 ADD DUP3 ADD PUSH1 0x40 MSTORE DUP1 ISZERO PUSH2 0xEA8 JUMPI DUP2 PUSH1 0x20 ADD JUMPDEST PUSH2 0xE95 PUSH2 0x1201 JUMP JUMPDEST DUP2 MSTORE PUSH1 0x20 ADD SWAP1 PUSH1 0x1 SWAP1 SUB SWAP1 DUP2 PUSH2 0xE8D JUMPI SWAP1 POP JUMPDEST POP SWAP1 POP PUSH1 0x0 JUMPDEST PUSH1 0x5 DUP1 SLOAD SWAP1 POP DUP2 LT ISZERO PUSH2 0xECE JUMPI DUP1 DUP1 PUSH2 0xEC6 SWAP1 PUSH2 0x1E46 JUMP JUMPDEST SWAP2 POP POP PUSH2 0xEAE JUMP JUMPDEST POP DUP1 SWAP2 POP POP SWAP1 JUMP JUMPDEST PUSH1 0x0 DUP1 SLOAD SWAP1 PUSH2 0x100 EXP SWAP1 DIV PUSH20 0xFFFFFFFFFFFFFFFFFFFFFFFFFFFFFFFFFFFFFFFF AND PUSH20 0xFFFFFFFFFFFFFFFFFFFFFFFFFFFFFFFFFFFFFFFF AND CALLER PUSH20 0xFFFFFFFFFFFFFFFFFFFFFFFFFFFFFFFFFFFFFFFF AND EQ PUSH2 0xF64 JUMPI PUSH1 0x40 MLOAD PUSH32 0x8C379A000000000000000000000000000000000000000000000000000000000 DUP2 MSTORE PUSH1 0x4 ADD PUSH2 0xF5B SWAP1 PUSH2 0x1D5C JUMP JUMPDEST PUSH1 0x40 MLOAD DUP1 SWAP2 SUB SWAP1 REVERT JUMPDEST DUP1 PUSH1 0x0 DUP2 GT DUP1 ISZERO PUSH2 0xF76 JUMPI POP PUSH1 0x6 SLOAD DUP2 LT JUMPDEST PUSH2 0xFB5 JUMPI PUSH1 0x40 MLOAD PUSH32 0x8C379A000000000000000000000000000000000000000000000000000000000 DUP2 MSTORE PUSH1 0x4 ADD PUSH2 0xFAC SWAP1 PUSH2 0x224A JUMP JUMPDEST PUSH1 0x40 MLOAD DUP1 SWAP2 SUB SWAP1 REVERT JUMPDEST POP POP JUMP JUMPDEST PUSH1 0x60 PUSH1 0x0 PUSH1 0xA PUSH1 0x0 DUP5 PUSH20 0xFFFFFFFFFFFFFFFFFFFFFFFFFFFFFFFFFFFFFFFF AND PUSH20 0xFFFFFFFFFFFFFFFFFFFFFFFFFFFFFFFFFFFFFFFF AND DUP2 MSTORE PUSH1 0x20 ADD SWAP1 DUP2 MSTORE PUSH1 0x20 ADD PUSH1 0x0 KECCAK256 SWAP1 POP PUSH1 0x0 DUP2 DUP1 SLOAD SWAP1 POP PUSH8 0xFFFFFFFFFFFFFFFF DUP2 GT ISZERO PUSH2 0x101E JUMPI PUSH2 0x101D PUSH2 0x1DE8 JUMP JUMPDEST JUMPDEST PUSH1 0x40 MLOAD SWAP1 DUP1 DUP3 MSTORE DUP1 PUSH1 0x20 MUL PUSH1 0x20 ADD DUP3 ADD PUSH1 0x40 MSTORE DUP1 ISZERO PUSH2 0x1057 JUMPI DUP2 PUSH1 0x20 ADD JUMPDEST PUSH2 0x1044 PUSH2 0x1230 JUMP JUMPDEST DUP2 MSTORE PUSH1 0x20 ADD SWAP1 PUSH1 0x1 SWAP1 SUB SWAP1 DUP2 PUSH2 0x103C JUMPI SWAP1 POP JUMPDEST POP SWAP1 POP PUSH1 0x0 JUMPDEST DUP3 DUP1 SLOAD SWAP1 POP DUP2 LT ISZERO PUSH2 0x114F JUMPI PUSH1 0x0 DUP4 DUP3 DUP2 SLOAD DUP2 LT PUSH2 0x107E JUMPI PUSH2 0x107D PUSH2 0x226A JUMP JUMPDEST JUMPDEST SWAP1 PUSH1 0x0 MSTORE PUSH1 0x20 PUSH1 0x0 KECCAK256 ADD SLOAD SWAP1 POP PUSH1 0x7 PUSH1 0x0 DUP3 DUP2 MSTORE PUSH1 0x20 ADD SWAP1 DUP2 MSTORE PUSH1 0x20 ADD PUSH1 0x0 KECCAK256 PUSH1 0x40 MLOAD DUP1 PUSH1 0x80 ADD PUSH1 0x40 MSTORE SWAP1 DUP2 PUSH1 0x0 DUP3 ADD SLOAD DUP2 MSTORE PUSH1 0x20 ADD PUSH1 0x1 DUP3 ADD SLOAD DUP2 MSTORE PUSH1 0x20 ADD PUSH1 0x2 DUP3 ADD SLOAD DUP2 MSTORE PUSH1 0x20 ADD PUSH1 0x3 DUP3 ADD PUSH1 0x0 SWAP1 SLOAD SWAP1 PUSH2 0x100 EXP SWAP1 DIV PUSH20 0xFFFFFFFFFFFFFFFFFFFFFFFFFFFFFFFFFFFFFFFF AND PUSH20 0xFFFFFFFFFFFFFFFFFFFFFFFFFFFFFFFFFFFFFFFF AND PUSH20 0xFFFFFFFFFFFFFFFFFFFFFFFFFFFFFFFFFFFFFFFF AND DUP2 MSTORE POP POP DUP4 DUP4 DUP2 MLOAD DUP2 LT PUSH2 0x1130 JUMPI PUSH2 0x112F PUSH2 0x226A JUMP JUMPDEST JUMPDEST PUSH1 0x20 MUL PUSH1 0x20 ADD ADD DUP2 SWAP1 MSTORE POP POP DUP1 DUP1 PUSH2 0x1147 SWAP1 PUSH2 0x1E46 JUMP JUMPDEST SWAP2 POP POP PUSH2 0x105D JUMP JUMPDEST POP DUP1 SWAP3 POP POP POP SWAP2 SWAP1 POP JUMP JUMPDEST PUSH1 0x0 DUP1 SLOAD SWAP1 PUSH2 0x100 EXP SWAP1 DIV PUSH20 0xFFFFFFFFFFFFFFFFFFFFFFFFFFFFFFFFFFFFFFFF AND DUP2 JUMP JUMPDEST PUSH1 0x40 MLOAD DUP1 PUSH1 0xC0 ADD PUSH1 0x40 MSTORE DUP1 PUSH1 0x0 DUP2 MSTORE PUSH1 0x20 ADD PUSH1 0x60 DUP2 MSTORE PUSH1 0x20 ADD PUSH1 0x60 DUP2 MSTORE PUSH1 0x20 ADD PUSH1 0x0 DUP2 MSTORE PUSH1 0x20 ADD PUSH1 0x0 DUP2 MSTORE PUSH1 0x20 ADD PUSH1 0x60 DUP2 MSTORE POP SWAP1 JUMP JUMPDEST DUP3 DUP1 SLOAD DUP3 DUP3 SSTORE SWAP1 PUSH1 0x0 MSTORE PUSH1 0x20 PUSH1 0x0 KECCAK256 SWAP1 DUP2 ADD SWAP3 DUP3 ISZERO PUSH2 0x11F0 JUMPI SWAP2 PUSH1 0x20 MUL DUP3 ADD JUMPDEST DUP3 DUP2 GT ISZERO PUSH2 0x11EF JUMPI DUP3 MLOAD DUP3 SSTORE SWAP2 PUSH1 0x20 ADD SWAP2 SWAP1 PUSH1 0x1 ADD SWAP1 PUSH2 0x11D4 JUMP JUMPDEST JUMPDEST POP SWAP1 POP PUSH2 0x11FD SWAP2 SWAP1 PUSH2 0x126E JUMP JUMPDEST POP SWAP1 JUMP JUMPDEST PUSH1 0x40 MLOAD DUP1 PUSH1 0xA0 ADD PUSH1 0x40 MSTORE DUP1 PUSH1 0x0 DUP2 MSTORE PUSH1 0x20 ADD PUSH1 0x60 DUP2 MSTORE PUSH1 0x20 ADD PUSH1 0x60 DUP2 MSTORE PUSH1 0x20 ADD PUSH1 0x0 DUP2 MSTORE PUSH1 0x20 ADD PUSH1 0x0 DUP2 MSTORE POP SWAP1 JUMP JUMPDEST PUSH1 0x40 MLOAD DUP1 PUSH1 0x80 ADD PUSH1 0x40 MSTORE DUP1 PUSH1 0x0 DUP2 MSTORE PUSH1 0x20 ADD PUSH1 0x0 DUP2 MSTORE PUSH1 0x20 ADD PUSH1 0x0 DUP2 MSTORE PUSH1 0x20 ADD PUSH1 0x0 PUSH20 0xFFFFFFFFFFFFFFFFFFFFFFFFFFFFFFFFFFFFFFFF AND DUP2 MSTORE POP SWAP1 JUMP JUMPDEST JUMPDEST DUP1 DUP3 GT ISZERO PUSH2 0x1287 JUMPI PUSH1 0x0 DUP2 PUSH1 0x0 SWAP1 SSTORE POP PUSH1 0x1 ADD PUSH2 0x126F JUMP JUMPDEST POP SWAP1 JUMP JUMPDEST PUSH1 0x0 DUP1 REVERT JUMPDEST PUSH1 0x0 DUP1 REVERT JUMPDEST PUSH1 0x0 DUP2 SWAP1 POP SWAP2 SWAP1 POP JUMP JUMPDEST PUSH2 0x12A8 DUP2 PUSH2 0x1295 JUMP JUMPDEST DUP2 EQ PUSH2 0x12B3 JUMPI PUSH1 0x0 DUP1 REVERT JUMPDEST POP JUMP JUMPDEST PUSH1 0x0 DUP2 CALLDATALOAD SWAP1 POP PUSH2 0x12C5 DUP2 PUSH2 0x129F JUMP JUMPDEST SWAP3 SWAP2 POP POP JUMP JUMPDEST PUSH1 0x0 PUSH1 0x20 DUP3 DUP5 SUB SLT ISZERO PUSH2 0x12E1 JUMPI PUSH2 0x12E0 PUSH2 0x128B JUMP JUMPDEST JUMPDEST PUSH1 0x0 PUSH2 0x12EF DUP5 DUP3 DUP6 ADD PUSH2 0x12B6 JUMP JUMPDEST SWAP2 POP POP SWAP3 SWAP2 POP POP JUMP JUMPDEST PUSH2 0x1301 DUP2 PUSH2 0x1295 JUMP JUMPDEST DUP3 MSTORE POP POP JUMP JUMPDEST PUSH1 0x0 PUSH20 0xFFFFFFFFFFFFFFFFFFFFFFFFFFFFFFFFFFFFFFFF DUP3 AND SWAP1 POP SWAP2 SWAP1 POP JUMP JUMPDEST PUSH1 0x0 PUSH2 0x1332 DUP3 PUSH2 0x1307 JUMP JUMPDEST SWAP1 POP SWAP2 SWAP1 POP JUMP JUMPDEST PUSH2 0x1342 DUP2 PUSH2 0x1327 JUMP JUMPDEST DUP3 MSTORE POP POP JUMP JUMPDEST PUSH1 0x0 PUSH1 0x80 DUP3 ADD SWAP1 POP PUSH2 0x135D PUSH1 0x0 DUP4 ADD DUP8 PUSH2 0x12F8 JUMP JUMPDEST PUSH2 0x136A PUSH1 0x20 DUP4 ADD DUP7 PUSH2 0x12F8 JUMP JUMPDEST PUSH2 0x1377 PUSH1 0x40 DUP4 ADD DUP6 PUSH2 0x12F8 JUMP JUMPDEST PUSH2 0x1384 PUSH1 0x60 DUP4 ADD DUP5 PUSH2 0x1339 JUMP JUMPDEST SWAP6 SWAP5 POP POP POP POP POP JUMP JUMPDEST PUSH1 0x0 PUSH1 0x20 DUP3 ADD SWAP1 POP PUSH2 0x13A2 PUSH1 0x0 DUP4 ADD DUP5 PUSH2 0x12F8 JUMP JUMPDEST SWAP3 SWAP2 POP POP JUMP JUMPDEST PUSH1 0x0 DUP2 MLOAD SWAP1 POP SWAP2 SWAP1 POP JUMP JUMPDEST PUSH1 0x0 DUP3 DUP3 MSTORE PUSH1 0x20 DUP3 ADD SWAP1 POP SWAP3 SWAP2 POP POP JUMP JUMPDEST PUSH1 0x0 DUP2 SWAP1 POP PUSH1 0x20 DUP3 ADD SWAP1 POP SWAP2 SWAP1 POP JUMP JUMPDEST PUSH2 0x13DD DUP2 PUSH2 0x1295 JUMP JUMPDEST DUP3 MSTORE POP POP JUMP JUMPDEST PUSH1 0x0 DUP2 MLOAD SWAP1 POP SWAP2 SWAP1 POP JUMP JUMPDEST PUSH1 0x0 DUP3 DUP3 MSTORE PUSH1 0x20 DUP3 ADD SWAP1 POP SWAP3 SWAP2 POP POP JUMP JUMPDEST PUSH1 0x0 JUMPDEST DUP4 DUP2 LT ISZERO PUSH2 0x141D JUMPI DUP1 DUP3 ADD MLOAD DUP2 DUP5 ADD MSTORE PUSH1 0x20 DUP2 ADD SWAP1 POP PUSH2 0x1402 JUMP JUMPDEST PUSH1 0x0 DUP5 DUP5 ADD MSTORE POP POP POP POP JUMP JUMPDEST PUSH1 0x0 PUSH1 0x1F NOT PUSH1 0x1F DUP4 ADD AND SWAP1 POP SWAP2 SWAP1 POP JUMP JUMPDEST PUSH1 0x0 PUSH2 0x1445 DUP3 PUSH2 0x13E3 JUMP JUMPDEST PUSH2 0x144F DUP2 DUP6 PUSH2 0x13EE JUMP JUMPDEST SWAP4 POP PUSH2 0x145F DUP2 DUP6 PUSH1 0x20 DUP7 ADD PUSH2 0x13FF JUMP JUMPDEST PUSH2 0x1468 DUP2 PUSH2 0x1429 JUMP JUMPDEST DUP5 ADD SWAP2 POP POP SWAP3 SWAP2 POP POP JUMP JUMPDEST PUSH1 0x0 DUP2 MLOAD SWAP1 POP SWAP2 SWAP1 POP JUMP JUMPDEST PUSH1 0x0 DUP3 DUP3 MSTORE PUSH1 0x20 DUP3 ADD SWAP1 POP SWAP3 SWAP2 POP POP JUMP JUMPDEST PUSH1 0x0 DUP2 SWAP1 POP PUSH1 0x20 DUP3 ADD SWAP1 POP SWAP2 SWAP1 POP JUMP JUMPDEST PUSH1 0x0 PUSH2 0x14AB DUP4 DUP4 PUSH2 0x13D4 JUMP JUMPDEST PUSH1 0x20 DUP4 ADD SWAP1 POP SWAP3 SWAP2 POP POP JUMP JUMPDEST PUSH1 0x0 PUSH1 0x20 DUP3 ADD SWAP1 POP SWAP2 SWAP1 POP JUMP JUMPDEST PUSH1 0x0 PUSH2 0x14CF DUP3 PUSH2 0x1473 JUMP JUMPDEST PUSH2 0x14D9 DUP2 DUP6 PUSH2 0x147E JUMP JUMPDEST SWAP4 POP PUSH2 0x14E4 DUP4 PUSH2 0x148F JUMP JUMPDEST DUP1 PUSH1 0x0 JUMPDEST DUP4 DUP2 LT ISZERO PUSH2 0x1515 JUMPI DUP2 MLOAD PUSH2 0x14FC DUP9 DUP3 PUSH2 0x149F JUMP JUMPDEST SWAP8 POP PUSH2 0x1507 DUP4 PUSH2 0x14B7 JUMP JUMPDEST SWAP3 POP POP PUSH1 0x1 DUP2 ADD SWAP1 POP PUSH2 0x14E8 JUMP JUMPDEST POP DUP6 SWAP4 POP POP POP POP SWAP3 SWAP2 POP POP JUMP JUMPDEST PUSH1 0x0 PUSH1 0xC0 DUP4 ADD PUSH1 0x0 DUP4 ADD MLOAD PUSH2 0x153A PUSH1 0x0 DUP7 ADD DUP3 PUSH2 0x13D4 JUMP JUMPDEST POP PUSH1 0x20 DUP4 ADD MLOAD DUP5 DUP3 SUB PUSH1 0x20 DUP7 ADD MSTORE PUSH2 0x1552 DUP3 DUP3 PUSH2 0x143A JUMP JUMPDEST SWAP2 POP POP PUSH1 0x40 DUP4 ADD MLOAD DUP5 DUP3 SUB PUSH1 0x40 DUP7 ADD MSTORE PUSH2 0x156C DUP3 DUP3 PUSH2 0x143A JUMP JUMPDEST SWAP2 POP POP PUSH1 0x60 DUP4 ADD MLOAD PUSH2 0x1581 PUSH1 0x60 DUP7 ADD DUP3 PUSH2 0x13D4 JUMP JUMPDEST POP PUSH1 0x80 DUP4 ADD MLOAD PUSH2 0x1594 PUSH1 0x80 DUP7 ADD DUP3 PUSH2 0x13D4 JUMP JUMPDEST POP PUSH1 0xA0 DUP4 ADD MLOAD DUP5 DUP3 SUB PUSH1 0xA0 DUP7 ADD MSTORE PUSH2 0x15AC DUP3 DUP3 PUSH2 0x14C4 JUMP JUMPDEST SWAP2 POP POP DUP1 SWAP2 POP POP SWAP3 SWAP2 POP POP JUMP JUMPDEST PUSH1 0x0 PUSH2 0x15C5 DUP4 DUP4 PUSH2 0x1522 JUMP JUMPDEST SWAP1 POP SWAP3 SWAP2 POP POP JUMP JUMPDEST PUSH1 0x0 PUSH1 0x20 DUP3 ADD SWAP1 POP SWAP2 SWAP1 POP JUMP JUMPDEST PUSH1 0x0 PUSH2 0x15E5 DUP3 PUSH2 0x13A8 JUMP JUMPDEST PUSH2 0x15EF DUP2 DUP6 PUSH2 0x13B3 JUMP JUMPDEST SWAP4 POP DUP4 PUSH1 0x20 DUP3 MUL DUP6 ADD PUSH2 0x1601 DUP6 PUSH2 0x13C4 JUMP JUMPDEST DUP1 PUSH1 0x0 JUMPDEST DUP6 DUP2 LT ISZERO PUSH2 0x163D JUMPI DUP5 DUP5 SUB DUP10 MSTORE DUP2 MLOAD PUSH2 0x161E DUP6 DUP3 PUSH2 0x15B9 JUMP JUMPDEST SWAP5 POP PUSH2 0x1629 DUP4 PUSH2 0x15CD JUMP JUMPDEST SWAP3 POP PUSH1 0x20 DUP11 ADD SWAP10 POP POP PUSH1 0x1 DUP2 ADD SWAP1 POP PUSH2 0x1605 JUMP JUMPDEST POP DUP3 SWAP8 POP DUP8 SWAP6 POP POP POP POP POP POP SWAP3 SWAP2 POP POP JUMP JUMPDEST PUSH1 0x0 PUSH1 0x20 DUP3 ADD SWAP1 POP DUP2 DUP2 SUB PUSH1 0x0 DUP4 ADD MSTORE PUSH2 0x1669 DUP2 DUP5 PUSH2 0x15DA JUMP JUMPDEST SWAP1 POP SWAP3 SWAP2 POP POP JUMP JUMPDEST PUSH1 0x0 DUP3 DUP3 MSTORE PUSH1 0x20 DUP3 ADD SWAP1 POP SWAP3 SWAP2 POP POP JUMP JUMPDEST PUSH1 0x0 PUSH2 0x168D DUP3 PUSH2 0x13E3 JUMP JUMPDEST PUSH2 0x1697 DUP2 DUP6 PUSH2 0x1671 JUMP JUMPDEST SWAP4 POP PUSH2 0x16A7 DUP2 DUP6 PUSH1 0x20 DUP7 ADD PUSH2 0x13FF JUMP JUMPDEST PUSH2 0x16B0 DUP2 PUSH2 0x1429 JUMP JUMPDEST DUP5 ADD SWAP2 POP POP SWAP3 SWAP2 POP POP JUMP JUMPDEST PUSH1 0x0 PUSH1 0xA0 DUP3 ADD SWAP1 POP PUSH2 0x16D0 PUSH1 0x0 DUP4 ADD DUP9 PUSH2 0x12F8 JUMP JUMPDEST DUP2 DUP2 SUB PUSH1 0x20 DUP4 ADD MSTORE PUSH2 0x16E2 DUP2 DUP8 PUSH2 0x1682 JUMP JUMPDEST SWAP1 POP DUP2 DUP2 SUB PUSH1 0x40 DUP4 ADD MSTORE PUSH2 0x16F6 DUP2 DUP7 PUSH2 0x1682 JUMP JUMPDEST SWAP1 POP PUSH2 0x1705 PUSH1 0x60 DUP4 ADD DUP6 PUSH2 0x12F8 JUMP JUMPDEST PUSH2 0x1712 PUSH1 0x80 DUP4 ADD DUP5 PUSH2 0x12F8 JUMP JUMPDEST SWAP7 SWAP6 POP POP POP POP POP POP JUMP JUMPDEST PUSH1 0x0 DUP1 REVERT JUMPDEST PUSH1 0x0 DUP1 REVERT JUMPDEST PUSH1 0x0 DUP1 REVERT JUMPDEST PUSH1 0x0 DUP1 DUP4 PUSH1 0x1F DUP5 ADD SLT PUSH2 0x1741 JUMPI PUSH2 0x1740 PUSH2 0x171C JUMP JUMPDEST JUMPDEST DUP3 CALLDATALOAD SWAP1 POP PUSH8 0xFFFFFFFFFFFFFFFF DUP2 GT ISZERO PUSH2 0x175E JUMPI PUSH2 0x175D PUSH2 0x1721 JUMP JUMPDEST JUMPDEST PUSH1 0x20 DUP4 ADD SWAP2 POP DUP4 PUSH1 0x1 DUP3 MUL DUP4 ADD GT ISZERO PUSH2 0x177A JUMPI PUSH2 0x1779 PUSH2 0x1726 JUMP JUMPDEST JUMPDEST SWAP3 POP SWAP3 SWAP1 POP JUMP JUMPDEST PUSH1 0x0 DUP1 PUSH1 0x0 DUP1 PUSH1 0x0 DUP1 PUSH1 0x80 DUP8 DUP10 SUB SLT ISZERO PUSH2 0x179E JUMPI PUSH2 0x179D PUSH2 0x128B JUMP JUMPDEST JUMPDEST PUSH1 0x0 DUP8 ADD CALLDATALOAD PUSH8 0xFFFFFFFFFFFFFFFF DUP2 GT ISZERO PUSH2 0x17BC JUMPI PUSH2 0x17BB PUSH2 0x1290 JUMP JUMPDEST JUMPDEST PUSH2 0x17C8 DUP10 DUP3 DUP11 ADD PUSH2 0x172B JUMP JUMPDEST SWAP7 POP SWAP7 POP POP PUSH1 0x20 DUP8 ADD CALLDATALOAD PUSH8 0xFFFFFFFFFFFFFFFF DUP2 GT ISZERO PUSH2 0x17EB JUMPI PUSH2 0x17EA PUSH2 0x1290 JUMP JUMPDEST JUMPDEST PUSH2 0x17F7 DUP10 DUP3 DUP11 ADD PUSH2 0x172B JUMP JUMPDEST SWAP5 POP SWAP5 POP POP PUSH1 0x40 PUSH2 0x180A DUP10 DUP3 DUP11 ADD PUSH2 0x12B6 JUMP JUMPDEST SWAP3 POP POP PUSH1 0x60 PUSH2 0x181B DUP10 DUP3 DUP11 ADD PUSH2 0x12B6 JUMP JUMPDEST SWAP2 POP POP SWAP3 SWAP6 POP SWAP3 SWAP6 POP SWAP3 SWAP6 JUMP JUMPDEST PUSH1 0x0 DUP1 PUSH1 0x40 DUP4 DUP6 SUB SLT ISZERO PUSH2 0x183F JUMPI PUSH2 0x183E PUSH2 0x128B JUMP JUMPDEST JUMPDEST PUSH1 0x0 PUSH2 0x184D DUP6 DUP3 DUP7 ADD PUSH2 0x12B6 JUMP JUMPDEST SWAP3 POP POP PUSH1 0x20 PUSH2 0x185E DUP6 DUP3 DUP7 ADD PUSH2 0x12B6 JUMP JUMPDEST SWAP2 POP POP SWAP3 POP SWAP3 SWAP1 POP JUMP JUMPDEST PUSH1 0x0 DUP1 DUP4 PUSH1 0x1F DUP5 ADD SLT PUSH2 0x187E JUMPI PUSH2 0x187D PUSH2 0x171C JUMP JUMPDEST JUMPDEST DUP3 CALLDATALOAD SWAP1 POP PUSH8 0xFFFFFFFFFFFFFFFF DUP2 GT ISZERO PUSH2 0x189B JUMPI PUSH2 0x189A PUSH2 0x1721 JUMP JUMPDEST JUMPDEST PUSH1 0x20 DUP4 ADD SWAP2 POP DUP4 PUSH1 0x20 DUP3 MUL DUP4 ADD GT ISZERO PUSH2 0x18B7 JUMPI PUSH2 0x18B6 PUSH2 0x1726 JUMP JUMPDEST JUMPDEST SWAP3 POP SWAP3 SWAP1 POP JUMP JUMPDEST PUSH1 0x0 DUP1 PUSH1 0x0 DUP1 PUSH1 0x0 DUP1 PUSH1 0x0 DUP1 PUSH1 0xA0 DUP10 DUP12 SUB SLT ISZERO PUSH2 0x18DE JUMPI PUSH2 0x18DD PUSH2 0x128B JUMP JUMPDEST JUMPDEST PUSH1 0x0 DUP10 ADD CALLDATALOAD PUSH8 0xFFFFFFFFFFFFFFFF DUP2 GT ISZERO PUSH2 0x18FC JUMPI PUSH2 0x18FB PUSH2 0x1290 JUMP JUMPDEST JUMPDEST PUSH2 0x1908 DUP12 DUP3 DUP13 ADD PUSH2 0x172B JUMP JUMPDEST SWAP9 POP SWAP9 POP POP PUSH1 0x20 DUP10 ADD CALLDATALOAD PUSH8 0xFFFFFFFFFFFFFFFF DUP2 GT ISZERO PUSH2 0x192B JUMPI PUSH2 0x192A PUSH2 0x1290 JUMP JUMPDEST JUMPDEST PUSH2 0x1937 DUP12 DUP3 DUP13 ADD PUSH2 0x172B JUMP JUMPDEST SWAP7 POP SWAP7 POP POP PUSH1 0x40 PUSH2 0x194A DUP12 DUP3 DUP13 ADD PUSH2 0x12B6 JUMP JUMPDEST SWAP5 POP POP PUSH1 0x60 PUSH2 0x195B DUP12 DUP3 DUP13 ADD PUSH2 0x12B6 JUMP JUMPDEST SWAP4 POP POP PUSH1 0x80 DUP10 ADD CALLDATALOAD PUSH8 0xFFFFFFFFFFFFFFFF DUP2 GT ISZERO PUSH2 0x197C JUMPI PUSH2 0x197B PUSH2 0x1290 JUMP JUMPDEST JUMPDEST PUSH2 0x1988 DUP12 DUP3 DUP13 ADD PUSH2 0x1868 JUMP JUMPDEST SWAP3 POP SWAP3 POP POP SWAP3 SWAP6 SWAP9 POP SWAP3 SWAP6 SWAP9 SWAP1 SWAP4 SWAP7 POP JUMP JUMPDEST PUSH1 0x0 DUP2 MLOAD SWAP1 POP SWAP2 SWAP1 POP JUMP JUMPDEST PUSH1 0x0 DUP3 DUP3 MSTORE PUSH1 0x20 DUP3 ADD SWAP1 POP SWAP3 SWAP2 POP POP JUMP JUMPDEST PUSH1 0x0 DUP2 SWAP1 POP PUSH1 0x20 DUP3 ADD SWAP1 POP SWAP2 SWAP1 POP JUMP JUMPDEST PUSH1 0x0 PUSH1 0xA0 DUP4 ADD PUSH1 0x0 DUP4 ADD MLOAD PUSH2 0x19DE PUSH1 0x0 DUP7 ADD DUP3 PUSH2 0x13D4 JUMP JUMPDEST POP PUSH1 0x20 DUP4 ADD MLOAD DUP5 DUP3 SUB PUSH1 0x20 DUP7 ADD MSTORE PUSH2 0x19F6 DUP3 DUP3 PUSH2 0x143A JUMP JUMPDEST SWAP2 POP POP PUSH1 0x40 DUP4 ADD MLOAD DUP5 DUP3 SUB PUSH1 0x40 DUP7 ADD MSTORE PUSH2 0x1A10 DUP3 DUP3 PUSH2 0x143A JUMP JUMPDEST SWAP2 POP POP PUSH1 0x60 DUP4 ADD MLOAD PUSH2 0x1A25 PUSH1 0x60 DUP7 ADD DUP3 PUSH2 0x13D4 JUMP JUMPDEST POP PUSH1 0x80 DUP4 ADD MLOAD PUSH2 0x1A38 PUSH1 0x80 DUP7 ADD DUP3 PUSH2 0x13D4 JUMP JUMPDEST POP DUP1 SWAP2 POP POP SWAP3 SWAP2 POP POP JUMP JUMPDEST PUSH1 0x0 PUSH2 0x1A4F DUP4 DUP4 PUSH2 0x19C6 JUMP JUMPDEST SWAP1 POP SWAP3 SWAP2 POP POP JUMP JUMPDEST PUSH1 0x0 PUSH1 0x20 DUP3 ADD SWAP1 POP SWAP2 SWAP1 POP JUMP JUMPDEST PUSH1 0x0 PUSH2 0x1A6F DUP3 PUSH2 0x199A JUMP JUMPDEST PUSH2 0x1A79 DUP2 DUP6 PUSH2 0x19A5 JUMP JUMPDEST SWAP4 POP DUP4 PUSH1 0x20 DUP3 MUL DUP6 ADD PUSH2 0x1A8B DUP6 PUSH2 0x19B6 JUMP JUMPDEST DUP1 PUSH1 0x0 JUMPDEST DUP6 DUP2 LT ISZERO PUSH2 0x1AC7 JUMPI DUP5 DUP5 SUB DUP10 MSTORE DUP2 MLOAD PUSH2 0x1AA8 DUP6 DUP3 PUSH2 0x1A43 JUMP JUMPDEST SWAP5 POP PUSH2 0x1AB3 DUP4 PUSH2 0x1A57 JUMP JUMPDEST SWAP3 POP PUSH1 0x20 DUP11 ADD SWAP10 POP POP PUSH1 0x1 DUP2 ADD SWAP1 POP PUSH2 0x1A8F JUMP JUMPDEST POP DUP3 SWAP8 POP DUP8 SWAP6 POP POP POP POP POP POP SWAP3 SWAP2 POP POP JUMP JUMPDEST PUSH1 0x0 PUSH1 0x20 DUP3 ADD SWAP1 POP DUP2 DUP2 SUB PUSH1 0x0 DUP4 ADD MSTORE PUSH2 0x1AF3 DUP2 DUP5 PUSH2 0x1A64 JUMP JUMPDEST SWAP1 POP SWAP3 SWAP2 POP POP JUMP JUMPDEST PUSH2 0x1B04 DUP2 PUSH2 0x1327 JUMP JUMPDEST DUP2 EQ PUSH2 0x1B0F JUMPI PUSH1 0x0 DUP1 REVERT JUMPDEST POP JUMP JUMPDEST PUSH1 0x0 DUP2 CALLDATALOAD SWAP1 POP PUSH2 0x1B21 DUP2 PUSH2 0x1AFB JUMP JUMPDEST SWAP3 SWAP2 POP POP JUMP JUMPDEST PUSH1 0x0 PUSH1 0x20 DUP3 DUP5 SUB SLT ISZERO PUSH2 0x1B3D JUMPI PUSH2 0x1B3C PUSH2 0x128B JUMP JUMPDEST JUMPDEST PUSH1 0x0 PUSH2 0x1B4B DUP5 DUP3 DUP6 ADD PUSH2 0x1B12 JUMP JUMPDEST SWAP2 POP POP SWAP3 SWAP2 POP POP JUMP JUMPDEST PUSH1 0x0 DUP2 MLOAD SWAP1 POP SWAP2 SWAP1 POP JUMP JUMPDEST PUSH1 0x0 DUP3 DUP3 MSTORE PUSH1 0x20 DUP3 ADD SWAP1 POP SWAP3 SWAP2 POP POP JUMP JUMPDEST PUSH1 0x0 DUP2 SWAP1 POP PUSH1 0x20 DUP3 ADD SWAP1 POP SWAP2 SWAP1 POP JUMP JUMPDEST PUSH2 0x1B89 DUP2 PUSH2 0x1327 JUMP JUMPDEST DUP3 MSTORE POP POP JUMP JUMPDEST PUSH1 0x80 DUP3 ADD PUSH1 0x0 DUP3 ADD MLOAD PUSH2 0x1BA5 PUSH1 0x0 DUP6 ADD DUP3 PUSH2 0x13D4 JUMP JUMPDEST POP PUSH1 0x20 DUP3 ADD MLOAD PUSH2 0x1BB8 PUSH1 0x20 DUP6 ADD DUP3 PUSH2 0x13D4 JUMP JUMPDEST POP PUSH1 0x40 DUP3 ADD MLOAD PUSH2 0x1BCB PUSH1 0x40 DUP6 ADD DUP3 PUSH2 0x13D4 JUMP JUMPDEST POP PUSH1 0x60 DUP3 ADD MLOAD PUSH2 0x1BDE PUSH1 0x60 DUP6 ADD DUP3 PUSH2 0x1B80 JUMP JUMPDEST POP POP POP POP JUMP JUMPDEST PUSH1 0x0 PUSH2 0x1BF0 DUP4 DUP4 PUSH2 0x1B8F JUMP JUMPDEST PUSH1 0x80 DUP4 ADD SWAP1 POP SWAP3 SWAP2 POP POP JUMP JUMPDEST PUSH1 0x0 PUSH1 0x20 DUP3 ADD SWAP1 POP SWAP2 SWAP1 POP JUMP JUMPDEST PUSH1 0x0 PUSH2 0x1C14 DUP3 PUSH2 0x1B54 JUMP JUMPDEST PUSH2 0x1C1E DUP2 DUP6 PUSH2 0x1B5F JUMP JUMPDEST SWAP4 POP PUSH2 0x1C29 DUP4 PUSH2 0x1B70 JUMP JUMPDEST DUP1 PUSH1 0x0 JUMPDEST DUP4 DUP2 LT ISZERO PUSH2 0x1C5A JUMPI DUP2 MLOAD PUSH2 0x1C41 DUP9 DUP3 PUSH2 0x1BE4 JUMP JUMPDEST SWAP8 POP PUSH2 0x1C4C DUP4 PUSH2 0x1BFC JUMP JUMPDEST SWAP3 POP POP PUSH1 0x1 DUP2 ADD SWAP1 POP PUSH2 0x1C2D JUMP JUMPDEST POP DUP6 SWAP4 POP POP POP POP SWAP3 SWAP2 POP POP JUMP JUMPDEST PUSH1 0x0 PUSH1 0x20 DUP3 ADD SWAP1 POP DUP2 DUP2 SUB PUSH1 0x0 DUP4 ADD MSTORE PUSH2 0x1C81 DUP2 DUP5 PUSH2 0x1C09 JUMP JUMPDEST SWAP1 POP SWAP3 SWAP2 POP POP JUMP JUMPDEST PUSH1 0x0 PUSH1 0x20 DUP3 ADD SWAP1 POP PUSH2 0x1C9E PUSH1 0x0 DUP4 ADD DUP5 PUSH2 0x1339 JUMP JUMPDEST SWAP3 SWAP2 POP POP JUMP JUMPDEST PUSH32 0x426F6F6B696E6720646F6573206E6F7420657869737400000000000000000000 PUSH1 0x0 DUP3 ADD MSTORE POP JUMP JUMPDEST PUSH1 0x0 PUSH2 0x1CDA PUSH1 0x16 DUP4 PUSH2 0x1671 JUMP JUMPDEST SWAP2 POP PUSH2 0x1CE5 DUP3 PUSH2 0x1CA4 JUMP JUMPDEST PUSH1 0x20 DUP3 ADD SWAP1 POP SWAP2 SWAP1 POP JUMP JUMPDEST PUSH1 0x0 PUSH1 0x20 DUP3 ADD SWAP1 POP DUP2 DUP2 SUB PUSH1 0x0 DUP4 ADD MSTORE PUSH2 0x1D09 DUP2 PUSH2 0x1CCD JUMP JUMPDEST SWAP1 POP SWAP2 SWAP1 POP JUMP JUMPDEST PUSH32 0x4F6E6C792061646D696E00000000000000000000000000000000000000000000 PUSH1 0x0 DUP3 ADD MSTORE POP JUMP JUMPDEST PUSH1 0x0 PUSH2 0x1D46 PUSH1 0xA DUP4 PUSH2 0x1671 JUMP JUMPDEST SWAP2 POP PUSH2 0x1D51 DUP3 PUSH2 0x1D10 JUMP JUMPDEST PUSH1 0x20 DUP3 ADD SWAP1 POP SWAP2 SWAP1 POP JUMP JUMPDEST PUSH1 0x0 PUSH1 0x20 DUP3 ADD SWAP1 POP DUP2 DUP2 SUB PUSH1 0x0 DUP4 ADD MSTORE PUSH2 0x1D75 DUP2 PUSH2 0x1D39 JUMP JUMPDEST SWAP1 POP SWAP2 SWAP1 POP JUMP JUMPDEST PUSH32 0x5365727669636520646F6573206E6F7420657869737400000000000000000000 PUSH1 0x0 DUP3 ADD MSTORE POP JUMP JUMPDEST PUSH1 0x0 PUSH2 0x1DB2 PUSH1 0x16 DUP4 PUSH2 0x1671 JUMP JUMPDEST SWAP2 POP PUSH2 0x1DBD DUP3 PUSH2 0x1D7C JUMP JUMPDEST PUSH1 0x20 DUP3 ADD SWAP1 POP SWAP2 SWAP1 POP JUMP JUMPDEST PUSH1 0x0 PUSH1 0x20 DUP3 ADD SWAP1 POP DUP2 DUP2 SUB PUSH1 0x0 DUP4 ADD MSTORE PUSH2 0x1DE1 DUP2 PUSH2 0x1DA5 JUMP JUMPDEST SWAP1 POP SWAP2 SWAP1 POP JUMP JUMPDEST PUSH32 0x4E487B7100000000000000000000000000000000000000000000000000000000 PUSH1 0x0 MSTORE PUSH1 0x41 PUSH1 0x4 MSTORE PUSH1 0x24 PUSH1 0x0 REVERT JUMPDEST PUSH32 0x4E487B7100000000000000000000000000000000000000000000000000000000 PUSH1 0x0 MSTORE PUSH1 0x11 PUSH1 0x4 MSTORE PUSH1 0x24 PUSH1 0x0 REVERT JUMPDEST PUSH1 0x0 PUSH2 0x1E51 DUP3 PUSH2 0x1295 JUMP JUMPDEST SWAP2 POP PUSH32 0xFFFFFFFFFFFFFFFFFFFFFFFFFFFFFFFFFFFFFFFFFFFFFFFFFFFFFFFFFFFFFFFF DUP3 SUB PUSH2 0x1E83 JUMPI PUSH2 0x1E82 PUSH2 0x1E17 JUMP JUMPDEST JUMPDEST PUSH1 0x1 DUP3 ADD SWAP1 POP SWAP2 SWAP1 POP JUMP JUMPDEST PUSH32 0x4E487B7100000000000000000000000000000000000000000000000000000000 PUSH1 0x0 MSTORE PUSH1 0x22 PUSH1 0x4 MSTORE PUSH1 0x24 PUSH1 0x0 REVERT JUMPDEST PUSH1 0x0 PUSH1 0x2 DUP3 DIV SWAP1 POP PUSH1 0x1 DUP3 AND DUP1 PUSH2 0x1ED5 JUMPI PUSH1 0x7F DUP3 AND SWAP2 POP JUMPDEST PUSH1 0x20 DUP3 LT DUP2 SUB PUSH2 0x1EE8 JUMPI PUSH2 0x1EE7 PUSH2 0x1E8E JUMP JUMPDEST JUMPDEST POP SWAP2 SWAP1 POP JUMP JUMPDEST PUSH1 0x0 DUP2 SWAP1 POP DUP2 PUSH1 0x0 MSTORE PUSH1 0x20 PUSH1 0x0 KECCAK256 SWAP1 POP SWAP2 SWAP1 POP JUMP JUMPDEST PUSH1 0x0 PUSH1 0x20 PUSH1 0x1F DUP4 ADD DIV SWAP1 POP SWAP2 SWAP1 POP JUMP JUMPDEST PUSH1 0x0 DUP3 DUP3 SHL SWAP1 POP SWAP3 SWAP2 POP POP JUMP JUMPDEST PUSH1 0x0 PUSH1 0x8 DUP4 MUL PUSH2 0x1F50 PUSH32 0xFFFFFFFFFFFFFFFFFFFFFFFFFFFFFFFFFFFFFFFFFFFFFFFFFFFFFFFFFFFFFFFF DUP3 PUSH2 0x1F13 JUMP JUMPDEST PUSH2 0x1F5A DUP7 DUP4 PUSH2 0x1F13 JUMP JUMPDEST SWAP6 POP DUP1 NOT DUP5 AND SWAP4 POP DUP1 DUP7 AND DUP5 OR SWAP3 POP POP POP SWAP4 SWAP3 POP POP POP JUMP JUMPDEST PUSH1 0x0 DUP2 SWAP1 POP SWAP2 SWAP1 POP JUMP JUMPDEST PUSH1 0x0 PUSH2 0x1F97 PUSH2 0x1F92 PUSH2 0x1F8D DUP5 PUSH2 0x1295 JUMP JUMPDEST PUSH2 0x1F72 JUMP JUMPDEST PUSH2 0x1295 JUMP JUMPDEST SWAP1 POP SWAP2 SWAP1 POP JUMP JUMPDEST PUSH1 0x0 DUP2 SWAP1 POP SWAP2 SWAP1 POP JUMP JUMPDEST PUSH2 0x1FB1 DUP4 PUSH2 0x1F7C JUMP JUMPDEST PUSH2 0x1FC5 PUSH2 0x1FBD DUP3 PUSH2 0x1F9E JUMP JUMPDEST DUP5 DUP5 SLOAD PUSH2 0x1F20 JUMP JUMPDEST DUP3 SSTORE POP POP POP POP JUMP JUMPDEST PUSH1 0x0 SWAP1 JUMP JUMPDEST PUSH2 0x1FDA PUSH2 0x1FCD JUMP JUMPDEST PUSH2 0x1FE5 DUP2 DUP5 DUP5 PUSH2 0x1FA8 JUMP JUMPDEST POP POP POP JUMP JUMPDEST JUMPDEST DUP2 DUP2 LT ISZERO PUSH2 0x2009 JUMPI PUSH2 0x1FFE PUSH1 0x0 DUP3 PUSH2 0x1FD2 JUMP JUMPDEST PUSH1 0x1 DUP2 ADD SWAP1 POP PUSH2 0x1FEB JUMP JUMPDEST POP POP JUMP JUMPDEST PUSH1 0x1F DUP3 GT ISZERO PUSH2 0x204E JUMPI PUSH2 0x201F DUP2 PUSH2 0x1EEE JUMP JUMPDEST PUSH2 0x2028 DUP5 PUSH2 0x1F03 JUMP JUMPDEST DUP2 ADD PUSH1 0x20 DUP6 LT ISZERO PUSH2 0x2037 JUMPI DUP2 SWAP1 POP JUMPDEST PUSH2 0x204B PUSH2 0x2043 DUP6 PUSH2 0x1F03 JUMP JUMPDEST DUP4 ADD DUP3 PUSH2 0x1FEA JUMP JUMPDEST POP POP JUMPDEST POP POP POP JUMP JUMPDEST PUSH1 0x0 DUP3 DUP3 SHR SWAP1 POP SWAP3 SWAP2 POP POP JUMP JUMPDEST PUSH1 0x0 PUSH2 0x2071 PUSH1 0x0 NOT DUP5 PUSH1 0x8 MUL PUSH2 0x2053 JUMP JUMPDEST NOT DUP1 DUP4 AND SWAP2 POP POP SWAP3 SWAP2 POP POP JUMP JUMPDEST PUSH1 0x0 PUSH2 0x208A DUP4 DUP4 PUSH2 0x2060 JUMP JUMPDEST SWAP2 POP DUP3 PUSH1 0x2 MUL DUP3 OR SWAP1 POP SWAP3 SWAP2 POP POP JUMP JUMPDEST PUSH2 0x20A3 DUP3 PUSH2 0x13E3 JUMP JUMPDEST PUSH8 0xFFFFFFFFFFFFFFFF DUP2 GT ISZERO PUSH2 0x20BC JUMPI PUSH2 0x20BB PUSH2 0x1DE8 JUMP JUMPDEST JUMPDEST PUSH2 0x20C6 DUP3 SLOAD PUSH2 0x1EBD JUMP JUMPDEST PUSH2 0x20D1 DUP3 DUP3 DUP6 PUSH2 0x200D JUMP JUMPDEST PUSH1 0x0 PUSH1 0x20 SWAP1 POP PUSH1 0x1F DUP4 GT PUSH1 0x1 DUP2 EQ PUSH2 0x2104 JUMPI PUSH1 0x0 DUP5 ISZERO PUSH2 0x20F2 JUMPI DUP3 DUP8 ADD MLOAD SWAP1 POP JUMPDEST PUSH2 0x20FC DUP6 DUP3 PUSH2 0x207E JUMP JUMPDEST DUP7 SSTORE POP PUSH2 0x2164 JUMP JUMPDEST PUSH1 0x1F NOT DUP5 AND PUSH2 0x2112 DUP7 PUSH2 0x1EEE JUMP JUMPDEST PUSH1 0x0 JUMPDEST DUP3 DUP2 LT ISZERO PUSH2 0x213A JUMPI DUP5 DUP10 ADD MLOAD DUP3 SSTORE PUSH1 0x1 DUP3 ADD SWAP2 POP PUSH1 0x20 DUP6 ADD SWAP5 POP PUSH1 0x20 DUP2 ADD SWAP1 POP PUSH2 0x2115 JUMP JUMPDEST DUP7 DUP4 LT ISZERO PUSH2 0x2157 JUMPI DUP5 DUP10 ADD MLOAD PUSH2 0x2153 PUSH1 0x1F DUP10 AND DUP3 PUSH2 0x2060 JUMP JUMPDEST DUP4 SSTORE POP JUMPDEST PUSH1 0x1 PUSH1 0x2 DUP9 MUL ADD DUP9 SSTORE POP POP POP JUMPDEST POP POP POP POP POP POP JUMP JUMPDEST PUSH32 0x4475726174696F6E2073686F756C64206265206265747765656E2035206D696E PUSH1 0x0 DUP3 ADD MSTORE PUSH32 0x7574657320616E64203220686F75727300000000000000000000000000000000 PUSH1 0x20 DUP3 ADD MSTORE POP JUMP JUMPDEST PUSH1 0x0 PUSH2 0x21C8 PUSH1 0x30 DUP4 PUSH2 0x1671 JUMP JUMPDEST SWAP2 POP PUSH2 0x21D3 DUP3 PUSH2 0x216C JUMP JUMPDEST PUSH1 0x40 DUP3 ADD SWAP1 POP SWAP2 SWAP1 POP JUMP JUMPDEST PUSH1 0x0 PUSH1 0x20 DUP3 ADD SWAP1 POP DUP2 DUP2 SUB PUSH1 0x0 DUP4 ADD MSTORE PUSH2 0x21F7 DUP2 PUSH2 0x21BB JUMP JUMPDEST SWAP1 POP SWAP2 SWAP1 POP JUMP JUMPDEST PUSH32 0x50726F6475637420646F6573206E6F7420657869737400000000000000000000 PUSH1 0x0 DUP3 ADD MSTORE POP JUMP JUMPDEST PUSH1 0x0 PUSH2 0x2234 PUSH1 0x16 DUP4 PUSH2 0x1671 JUMP JUMPDEST SWAP2 POP PUSH2 0x223F DUP3 PUSH2 0x21FE JUMP JUMPDEST PUSH1 0x20 DUP3 ADD SWAP1 POP SWAP2 SWAP1 POP JUMP JUMPDEST PUSH1 0x0 PUSH1 0x20 DUP3 ADD SWAP1 POP DUP2 DUP2 SUB PUSH1 0x0 DUP4 ADD MSTORE PUSH2 0x2263 DUP2 PUSH2 0x2227 JUMP JUMPDEST SWAP1 POP SWAP2 SWAP1 POP JUMP JUMPDEST PUSH32 0x4E487B7100000000000000000000000000000000000000000000000000000000 PUSH1 0x0 MSTORE PUSH1 0x32 PUSH1 0x4 MSTORE PUSH1 0x24 PUSH1 0x0 REVERT INVALID LOG2 PUSH5 0x6970667358 0x22 SLT KECCAK256 RETURNDATASIZE ADDRESS 0xAD 0x4B 0xE7 GASPRICE RETURN MSIZE 0xD5 ORIGIN DUP3 SWAP13 LT SWAP14 0xB8 SLT 0xB4 0xA5 0xEC 0xEF 0xC6 0x27 0xEF 0x5F 0xB7 NOT 0x2B PUSH30 0x8F637DDC64736F6C63430008100033000000000000000000000000000000 "
				},
				"gasEstimates": {
					"creation": {
						"codeDepositCost": "1782200",
						"executionCost": "92461",
						"totalCost": "1874661"
					},
					"external": {
						"admin()": "2599",
						"bookingList(uint256)": "infinite",
						"bookings(uint256)": "infinite",
						"createBooking(uint256,uint256)": "infinite",
						"createProduct(string,string,uint256,uint256)": "infinite",
						"createService(string,string,uint256,uint256,uint256[])": "infinite",
						"deleteBooking(uint256)": "2896",
						"deleteProduct(uint256)": "5061",
						"deleteService(uint256)": "5107",
						"getProducts()": "infinite",
						"getServices()": "infinite",
						"getUserBookings(address)": "infinite",
						"productList(uint256)": "infinite",
						"products(uint256)": "infinite",
						"serviceList(uint256)": "infinite",
						"services(uint256)": "infinite"
					}
				},
				"methodIdentifiers": {
					"admin()": "f851a440",
					"bookingList(uint256)": "a06a1f69",
					"bookings(uint256)": "1dab301e",
					"createBooking(uint256,uint256)": "b91c7160",
					"createProduct(string,string,uint256,uint256)": "90d16cba",
					"createService(string,string,uint256,uint256,uint256[])": "bc85b04c",
					"deleteBooking(uint256)": "3ae7f0df",
					"deleteProduct(uint256)": "ed90c7b7",
					"deleteService(uint256)": "74e29ee6",
					"getProducts()": "c29b2f20",
					"getServices()": "75417851",
					"getUserBookings(address)": "ef3197c8",
					"productList(uint256)": "528c87d2",
					"products(uint256)": "7acc0b20",
					"serviceList(uint256)": "bd293dca",
					"services(uint256)": "c22c4f43"
				}
			},
			"storageLayout": {
				"storage": [
					{
						"astId": 5,
						"contract": "contracts/Hairdressing.sol:Hairdressing",
						"label": "admin",
						"offset": 0,
						"slot": "0",
						"type": "t_address"
					},
					{
						"astId": 25,
						"contract": "contracts/Hairdressing.sol:Hairdressing",
						"label": "services",
						"offset": 0,
						"slot": "1",
						"type": "t_mapping(t_uint256,t_struct(Service)19_storage)"
					},
					{
						"astId": 29,
						"contract": "contracts/Hairdressing.sol:Hairdressing",
						"label": "serviceList",
						"offset": 0,
						"slot": "2",
						"type": "t_array(t_uint256)dyn_storage"
					},
					{
						"astId": 33,
						"contract": "contracts/Hairdressing.sol:Hairdressing",
						"label": "nextServiceId",
						"offset": 0,
						"slot": "3",
						"type": "t_uint256"
					},
					{
						"astId": 50,
						"contract": "contracts/Hairdressing.sol:Hairdressing",
						"label": "products",
						"offset": 0,
						"slot": "4",
						"type": "t_mapping(t_uint256,t_struct(Product)44_storage)"
					},
					{
						"astId": 54,
						"contract": "contracts/Hairdressing.sol:Hairdressing",
						"label": "productList",
						"offset": 0,
						"slot": "5",
						"type": "t_array(t_uint256)dyn_storage"
					},
					{
						"astId": 58,
						"contract": "contracts/Hairdressing.sol:Hairdressing",
						"label": "nextProductId",
						"offset": 0,
						"slot": "6",
						"type": "t_uint256"
					},
					{
						"astId": 73,
						"contract": "contracts/Hairdressing.sol:Hairdressing",
						"label": "bookings",
						"offset": 0,
						"slot": "7",
						"type": "t_mapping(t_uint256,t_struct(Booking)67_storage)"
					},
					{
						"astId": 77,
						"contract": "contracts/Hairdressing.sol:Hairdressing",
						"label": "bookingList",
						"offset": 0,
						"slot": "8",
						"type": "t_array(t_uint256)dyn_storage"
					},
					{
						"astId": 81,
						"contract": "contracts/Hairdressing.sol:Hairdressing",
						"label": "nextBookingId",
						"offset": 0,
						"slot": "9",
						"type": "t_uint256"
					},
					{
						"astId": 87,
						"contract": "contracts/Hairdressing.sol:Hairdressing",
						"label": "userBookings",
						"offset": 0,
						"slot": "10",
						"type": "t_mapping(t_address,t_array(t_uint256)dyn_storage)"
					}
				],
				"types": {
					"t_address": {
						"encoding": "inplace",
						"label": "address",
						"numberOfBytes": "20"
					},
					"t_array(t_uint256)dyn_storage": {
						"base": "t_uint256",
						"encoding": "dynamic_array",
						"label": "uint256[]",
						"numberOfBytes": "32"
					},
					"t_mapping(t_address,t_array(t_uint256)dyn_storage)": {
						"encoding": "mapping",
						"key": "t_address",
						"label": "mapping(address => uint256[])",
						"numberOfBytes": "32",
						"value": "t_array(t_uint256)dyn_storage"
					},
					"t_mapping(t_uint256,t_struct(Booking)67_storage)": {
						"encoding": "mapping",
						"key": "t_uint256",
						"label": "mapping(uint256 => struct Hairdressing.Booking)",
						"numberOfBytes": "32",
						"value": "t_struct(Booking)67_storage"
					},
					"t_mapping(t_uint256,t_struct(Product)44_storage)": {
						"encoding": "mapping",
						"key": "t_uint256",
						"label": "mapping(uint256 => struct Hairdressing.Product)",
						"numberOfBytes": "32",
						"value": "t_struct(Product)44_storage"
					},
					"t_mapping(t_uint256,t_struct(Service)19_storage)": {
						"encoding": "mapping",
						"key": "t_uint256",
						"label": "mapping(uint256 => struct Hairdressing.Service)",
						"numberOfBytes": "32",
						"value": "t_struct(Service)19_storage"
					},
					"t_string_storage": {
						"encoding": "bytes",
						"label": "string",
						"numberOfBytes": "32"
					},
					"t_struct(Booking)67_storage": {
						"encoding": "inplace",
						"label": "struct Hairdressing.Booking",
						"members": [
							{
								"astId": 60,
								"contract": "contracts/Hairdressing.sol:Hairdressing",
								"label": "id",
								"offset": 0,
								"slot": "0",
								"type": "t_uint256"
							},
							{
								"astId": 62,
								"contract": "contracts/Hairdressing.sol:Hairdressing",
								"label": "serviceId",
								"offset": 0,
								"slot": "1",
								"type": "t_uint256"
							},
							{
								"astId": 64,
								"contract": "contracts/Hairdressing.sol:Hairdressing",
								"label": "date",
								"offset": 0,
								"slot": "2",
								"type": "t_uint256"
							},
							{
								"astId": 66,
								"contract": "contracts/Hairdressing.sol:Hairdressing",
								"label": "client",
								"offset": 0,
								"slot": "3",
								"type": "t_address"
							}
						],
						"numberOfBytes": "128"
					},
					"t_struct(Product)44_storage": {
						"encoding": "inplace",
						"label": "struct Hairdressing.Product",
						"members": [
							{
								"astId": 35,
								"contract": "contracts/Hairdressing.sol:Hairdressing",
								"label": "id",
								"offset": 0,
								"slot": "0",
								"type": "t_uint256"
							},
							{
								"astId": 37,
								"contract": "contracts/Hairdressing.sol:Hairdressing",
								"label": "name",
								"offset": 0,
								"slot": "1",
								"type": "t_string_storage"
							},
							{
								"astId": 39,
								"contract": "contracts/Hairdressing.sol:Hairdressing",
								"label": "description",
								"offset": 0,
								"slot": "2",
								"type": "t_string_storage"
							},
							{
								"astId": 41,
								"contract": "contracts/Hairdressing.sol:Hairdressing",
								"label": "price",
								"offset": 0,
								"slot": "3",
								"type": "t_uint256"
							},
							{
								"astId": 43,
								"contract": "contracts/Hairdressing.sol:Hairdressing",
								"label": "durability",
								"offset": 0,
								"slot": "4",
								"type": "t_uint256"
							}
						],
						"numberOfBytes": "160"
					},
					"t_struct(Service)19_storage": {
						"encoding": "inplace",
						"label": "struct Hairdressing.Service",
						"members": [
							{
								"astId": 7,
								"contract": "contracts/Hairdressing.sol:Hairdressing",
								"label": "id",
								"offset": 0,
								"slot": "0",
								"type": "t_uint256"
							},
							{
								"astId": 9,
								"contract": "contracts/Hairdressing.sol:Hairdressing",
								"label": "name",
								"offset": 0,
								"slot": "1",
								"type": "t_string_storage"
							},
							{
								"astId": 11,
								"contract": "contracts/Hairdressing.sol:Hairdressing",
								"label": "description",
								"offset": 0,
								"slot": "2",
								"type": "t_string_storage"
							},
							{
								"astId": 13,
								"contract": "contracts/Hairdressing.sol:Hairdressing",
								"label": "price",
								"offset": 0,
								"slot": "3",
								"type": "t_uint256"
							},
							{
								"astId": 15,
								"contract": "contracts/Hairdressing.sol:Hairdressing",
								"label": "duration",
								"offset": 0,
								"slot": "4",
								"type": "t_uint256"
							},
							{
								"astId": 18,
								"contract": "contracts/Hairdressing.sol:Hairdressing",
								"label": "productIds",
								"offset": 0,
								"slot": "5",
								"type": "t_array(t_uint256)dyn_storage"
							}
						],
						"numberOfBytes": "192"
					},
					"t_uint256": {
						"encoding": "inplace",
						"label": "uint256",
						"numberOfBytes": "32"
					}
				}
			},
			"userdoc": {
				"kind": "user",
				"methods": {
					"admin()": {
						"notice": "=============== Variables ==============="
					},
					"bookingList(uint256)": {
						"notice": "List to keep track of the Bookings in order to be able to loop through the mapping"
					},
					"bookings(uint256)": {
						"notice": "List of all Bookings"
					},
					"constructor": {
						"notice": "=========== Constructor ==========="
					},
					"createBooking(uint256,uint256)": {
						"notice": "Creates a new booking."
					},
					"createProduct(string,string,uint256,uint256)": {
						"notice": "ProductsCreates a new product."
					},
					"createService(string,string,uint256,uint256,uint256[])": {
						"notice": "Creates a new service."
					},
					"deleteBooking(uint256)": {
						"notice": "Deletes an existing booking."
					},
					"deleteProduct(uint256)": {
						"notice": "Deletes an existing product."
					},
					"deleteService(uint256)": {
						"notice": "Deletes an existing service."
					},
					"getProducts()": {
						"notice": "- List of all the products"
					},
					"getServices()": {
						"notice": "- List of all the services"
					},
					"getUserBookings(address)": {
						"notice": "- List of bookings for a client"
					},
					"productList(uint256)": {
						"notice": "List to keep track of the Products in order to be able to loop through the mapping"
					},
					"products(uint256)": {
						"notice": "List of all Products"
					},
					"serviceList(uint256)": {
						"notice": "List to keep track of the Services in order to be able to loop through the mapping "
					},
					"services(uint256)": {
						"notice": "List of all services"
					}
				},
				"notice": "Smart contract for the management of a hairdresser.",
				"version": 1
			}
		}
	}
}