{
	"contracts/Ebay.sol": {
		"Barbers": {
			"abi": [
				{
					"inputs": [
						{
							"internalType": "uint256",
							"name": "",
							"type": "uint256"
						}
					],
					"name": "auctions",
					"outputs": [
						{
							"internalType": "uint256",
							"name": "id",
							"type": "uint256"
						},
						{
							"internalType": "address",
							"name": "seller",
							"type": "address"
						},
						{
							"internalType": "string",
							"name": "name",
							"type": "string"
						},
						{
							"internalType": "string",
							"name": "description",
							"type": "string"
						},
						{
							"internalType": "uint256",
							"name": "minimumOfferPrice",
							"type": "uint256"
						},
						{
							"internalType": "uint256",
							"name": "auctionEnd",
							"type": "uint256"
						},
						{
							"internalType": "uint256",
							"name": "bestOfferId",
							"type": "uint256"
						}
					],
					"stateMutability": "view",
					"type": "function"
				},
				{
					"inputs": [
						{
							"internalType": "uint256",
							"name": "_auctionId",
							"type": "uint256"
						}
					],
					"name": "cancelAuction",
					"outputs": [],
					"stateMutability": "nonpayable",
					"type": "function"
				},
				{
					"inputs": [
						{
							"internalType": "string",
							"name": "_name",
							"type": "string"
						},
						{
							"internalType": "string",
							"name": "_description",
							"type": "string"
						},
						{
							"internalType": "uint256",
							"name": "_minimumOfferPrice",
							"type": "uint256"
						},
						{
							"internalType": "uint256",
							"name": "_duration",
							"type": "uint256"
						}
					],
					"name": "createAuction",
					"outputs": [],
					"stateMutability": "nonpayable",
					"type": "function"
				},
				{
					"inputs": [
						{
							"internalType": "uint256",
							"name": "_auctionId",
							"type": "uint256"
						}
					],
					"name": "createOffer",
					"outputs": [],
					"stateMutability": "payable",
					"type": "function"
				},
				{
					"inputs": [
						{
							"internalType": "uint256",
							"name": "_auctionId",
							"type": "uint256"
						}
					],
					"name": "getAuctionOffers",
					"outputs": [
						{
							"components": [
								{
									"internalType": "uint256",
									"name": "id",
									"type": "uint256"
								},
								{
									"internalType": "uint256",
									"name": "auctionId",
									"type": "uint256"
								},
								{
									"internalType": "address",
									"name": "buyer",
									"type": "address"
								},
								{
									"internalType": "uint256",
									"name": "offerPrice",
									"type": "uint256"
								}
							],
							"internalType": "struct Barbers.Offer[]",
							"name": "",
							"type": "tuple[]"
						}
					],
					"stateMutability": "view",
					"type": "function"
				},
				{
					"inputs": [],
					"name": "getAuctions",
					"outputs": [
						{
							"components": [
								{
									"internalType": "uint256",
									"name": "id",
									"type": "uint256"
								},
								{
									"internalType": "address",
									"name": "seller",
									"type": "address"
								},
								{
									"internalType": "string",
									"name": "name",
									"type": "string"
								},
								{
									"internalType": "string",
									"name": "description",
									"type": "string"
								},
								{
									"internalType": "uint256",
									"name": "minimumOfferPrice",
									"type": "uint256"
								},
								{
									"internalType": "uint256",
									"name": "auctionEnd",
									"type": "uint256"
								},
								{
									"internalType": "uint256",
									"name": "bestOfferId",
									"type": "uint256"
								},
								{
									"internalType": "uint256[]",
									"name": "offerIds",
									"type": "uint256[]"
								}
							],
							"internalType": "struct Barbers.Auction[]",
							"name": "",
							"type": "tuple[]"
						}
					],
					"stateMutability": "view",
					"type": "function"
				},
				{
					"inputs": [
						{
							"internalType": "address",
							"name": "_user",
							"type": "address"
						}
					],
					"name": "getUserAuctions",
					"outputs": [
						{
							"components": [
								{
									"internalType": "uint256",
									"name": "id",
									"type": "uint256"
								},
								{
									"internalType": "address",
									"name": "seller",
									"type": "address"
								},
								{
									"internalType": "string",
									"name": "name",
									"type": "string"
								},
								{
									"internalType": "string",
									"name": "description",
									"type": "string"
								},
								{
									"internalType": "uint256",
									"name": "minimumOfferPrice",
									"type": "uint256"
								},
								{
									"internalType": "uint256",
									"name": "auctionEnd",
									"type": "uint256"
								},
								{
									"internalType": "uint256",
									"name": "bestOfferId",
									"type": "uint256"
								},
								{
									"internalType": "uint256[]",
									"name": "offerIds",
									"type": "uint256[]"
								}
							],
							"internalType": "struct Barbers.Auction[]",
							"name": "",
							"type": "tuple[]"
						}
					],
					"stateMutability": "view",
					"type": "function"
				},
				{
					"inputs": [
						{
							"internalType": "address",
							"name": "_user",
							"type": "address"
						}
					],
					"name": "getUserOffers",
					"outputs": [
						{
							"components": [
								{
									"internalType": "uint256",
									"name": "id",
									"type": "uint256"
								},
								{
									"internalType": "uint256",
									"name": "auctionId",
									"type": "uint256"
								},
								{
									"internalType": "address",
									"name": "buyer",
									"type": "address"
								},
								{
									"internalType": "uint256",
									"name": "offerPrice",
									"type": "uint256"
								}
							],
							"internalType": "struct Barbers.Offer[]",
							"name": "",
							"type": "tuple[]"
						}
					],
					"stateMutability": "view",
					"type": "function"
				},
				{
					"inputs": [
						{
							"internalType": "uint256",
							"name": "",
							"type": "uint256"
						}
					],
					"name": "offers",
					"outputs": [
						{
							"internalType": "uint256",
							"name": "id",
							"type": "uint256"
						},
						{
							"internalType": "uint256",
							"name": "auctionId",
							"type": "uint256"
						},
						{
							"internalType": "address",
							"name": "buyer",
							"type": "address"
						},
						{
							"internalType": "uint256",
							"name": "offerPrice",
							"type": "uint256"
						}
					],
					"stateMutability": "view",
					"type": "function"
				},
				{
					"inputs": [
						{
							"internalType": "uint256",
							"name": "_auctionId",
							"type": "uint256"
						}
					],
					"name": "trade",
					"outputs": [],
					"stateMutability": "nonpayable",
					"type": "function"
				}
			],
			"devdoc": {
				"kind": "dev",
				"methods": {
					"cancelAuction(uint256)": {
						"params": {
							"_auctionId": "- id of the auction"
						}
					},
					"createAuction(string,string,uint256,uint256)": {
						"params": {
							"_description": "— auction description.",
							"_duration": "— the duration, in seconds, for which the auction will accept offers.",
							"_minimumOfferPrice": "— the minimum offer price this auction will accept.",
							"_name": "— name of the auction."
						}
					},
					"createOffer(uint256)": {
						"params": {
							"_auctionId": "- id of the auction"
						}
					},
					"getAuctionOffers(uint256)": {
						"params": {
							"_auctionId": "- Auction Id"
						}
					},
					"getUserAuctions(address)": {
						"params": {
							"_user": "- Seller address"
						}
					},
					"getUserOffers(address)": {
						"params": {
							"_user": "- Buyer address"
						}
					},
					"trade(uint256)": {
						"params": {
							"_auctionId": "- id of the auction."
						}
					}
				},
				"title": "Barbers",
				"version": 1
			},
			"evm": {
				"assembly": "    /* \"contracts/Ebay.sol\":135:9394  contract Barbers {... */\n  mstore(0x40, 0x80)\n    /* \"contracts/Ebay.sol\":836:837  1 */\n  0x01\n    /* \"contracts/Ebay.sol\":807:837  uint private nextAuctionId = 1 */\n  dup1\n  sstore\n    /* \"contracts/Ebay.sol\":1129:1130  1 */\n  0x01\n    /* \"contracts/Ebay.sol\":1102:1130  uint private nextOfferId = 1 */\n  0x03\n  sstore\n    /* \"contracts/Ebay.sol\":135:9394  contract Barbers {... */\n  callvalue\n  dup1\n  iszero\n  tag_1\n  jumpi\n  0x00\n  dup1\n  revert\ntag_1:\n  pop\n  dataSize(sub_0)\n  dup1\n  dataOffset(sub_0)\n  0x00\n  codecopy\n  0x00\n  return\nstop\n\nsub_0: assembly {\n        /* \"contracts/Ebay.sol\":135:9394  contract Barbers {... */\n      mstore(0x40, 0x80)\n      jumpi(tag_1, lt(calldatasize, 0x04))\n      shr(0xe0, calldataload(0x00))\n      dup1\n      0xa269993d\n      gt\n      tag_12\n      jumpi\n      dup1\n      0xa269993d\n      eq\n      tag_7\n      jumpi\n      dup1\n      0xc43ede15\n      eq\n      tag_8\n      jumpi\n      dup1\n      0xd7c06919\n      eq\n      tag_9\n      jumpi\n      dup1\n      0xdf1dd826\n      eq\n      tag_10\n      jumpi\n      dup1\n      0xff3ad0b4\n      eq\n      tag_11\n      jumpi\n      jump(tag_1)\n    tag_12:\n      dup1\n      0x571a26a0\n      eq\n      tag_2\n      jumpi\n      dup1\n      0x61e2db55\n      eq\n      tag_3\n      jumpi\n      dup1\n      0x661d2c2c\n      eq\n      tag_4\n      jumpi\n      dup1\n      0x8a72ea6a\n      eq\n      tag_5\n      jumpi\n      dup1\n      0x96b5a755\n      eq\n      tag_6\n      jumpi\n    tag_1:\n      0x00\n      dup1\n      revert\n        /* \"contracts/Ebay.sol\":721:761  mapping(uint => Auction) public auctions */\n    tag_2:\n      callvalue\n      dup1\n      iszero\n      tag_13\n      jumpi\n      0x00\n      dup1\n      revert\n    tag_13:\n      pop\n      tag_14\n      0x04\n      dup1\n      calldatasize\n      sub\n      dup2\n      add\n      swap1\n      tag_15\n      swap2\n      swap1\n      tag_16\n      jump\t// in\n    tag_15:\n      tag_17\n      jump\t// in\n    tag_14:\n      mload(0x40)\n      tag_18\n      swap8\n      swap7\n      swap6\n      swap5\n      swap4\n      swap3\n      swap2\n      swap1\n      tag_19\n      jump\t// in\n    tag_18:\n      mload(0x40)\n      dup1\n      swap2\n      sub\n      swap1\n      return\n        /* \"contracts/Ebay.sol\":2025:3100  function createAuction(... */\n    tag_3:\n      callvalue\n      dup1\n      iszero\n      tag_20\n      jumpi\n      0x00\n      dup1\n      revert\n    tag_20:\n      pop\n      tag_21\n      0x04\n      dup1\n      calldatasize\n      sub\n      dup2\n      add\n      swap1\n      tag_22\n      swap2\n      swap1\n      tag_23\n      jump\t// in\n    tag_22:\n      tag_24\n      jump\t// in\n    tag_21:\n      stop\n        /* \"contracts/Ebay.sol\":8334:8747  function getUserOffers(address _user)... */\n    tag_4:\n      callvalue\n      dup1\n      iszero\n      tag_25\n      jumpi\n      0x00\n      dup1\n      revert\n    tag_25:\n      pop\n      tag_26\n      0x04\n      dup1\n      calldatasize\n      sub\n      dup2\n      add\n      swap1\n      tag_27\n      swap2\n      swap1\n      tag_28\n      jump\t// in\n    tag_27:\n      tag_29\n      jump\t// in\n    tag_26:\n      mload(0x40)\n      tag_30\n      swap2\n      swap1\n      tag_31\n      jump\t// in\n    tag_30:\n      mload(0x40)\n      dup1\n      swap2\n      sub\n      swap1\n      return\n        /* \"contracts/Ebay.sol\":1022:1058  mapping(uint => Offer) public offers */\n    tag_5:\n      callvalue\n      dup1\n      iszero\n      tag_32\n      jumpi\n      0x00\n      dup1\n      revert\n    tag_32:\n      pop\n      tag_33\n      0x04\n      dup1\n      calldatasize\n      sub\n      dup2\n      add\n      swap1\n      tag_34\n      swap2\n      swap1\n      tag_16\n      jump\t// in\n    tag_34:\n      tag_35\n      jump\t// in\n    tag_33:\n      mload(0x40)\n      tag_36\n      swap5\n      swap4\n      swap3\n      swap2\n      swap1\n      tag_37\n      jump\t// in\n    tag_36:\n      mload(0x40)\n      dup1\n      swap2\n      sub\n      swap1\n      return\n        /* \"contracts/Ebay.sol\":3193:4400  function cancelAuction(uint _auctionId) external auctionExists(_auctionId) {... */\n    tag_6:\n      callvalue\n      dup1\n      iszero\n      tag_38\n      jumpi\n      0x00\n      dup1\n      revert\n    tag_38:\n      pop\n      tag_39\n      0x04\n      dup1\n      calldatasize\n      sub\n      dup2\n      add\n      swap1\n      tag_40\n      swap2\n      swap1\n      tag_16\n      jump\t// in\n    tag_40:\n      tag_41\n      jump\t// in\n    tag_39:\n      stop\n        /* \"contracts/Ebay.sol\":4504:6282  function createOffer(uint _auctionId)... */\n    tag_7:\n      tag_42\n      0x04\n      dup1\n      calldatasize\n      sub\n      dup2\n      add\n      swap1\n      tag_43\n      swap2\n      swap1\n      tag_16\n      jump\t// in\n    tag_43:\n      tag_44\n      jump\t// in\n    tag_42:\n      stop\n        /* \"contracts/Ebay.sol\":8840:9392  function getAuctionOffers(uint _auctionId)... */\n    tag_8:\n      callvalue\n      dup1\n      iszero\n      tag_45\n      jumpi\n      0x00\n      dup1\n      revert\n    tag_45:\n      pop\n      tag_46\n      0x04\n      dup1\n      calldatasize\n      sub\n      dup2\n      add\n      swap1\n      tag_47\n      swap2\n      swap1\n      tag_16\n      jump\t// in\n    tag_47:\n      tag_48\n      jump\t// in\n    tag_46:\n      mload(0x40)\n      tag_49\n      swap2\n      swap1\n      tag_31\n      jump\t// in\n    tag_49:\n      mload(0x40)\n      dup1\n      swap2\n      sub\n      swap1\n      return\n        /* \"contracts/Ebay.sol\":7437:7710  function getAuctions() external view returns (Auction[] memory) {... */\n    tag_9:\n      callvalue\n      dup1\n      iszero\n      tag_50\n      jumpi\n      0x00\n      dup1\n      revert\n    tag_50:\n      pop\n      tag_51\n      tag_52\n      jump\t// in\n    tag_51:\n      mload(0x40)\n      tag_53\n      swap2\n      swap1\n      tag_54\n      jump\t// in\n    tag_53:\n      mload(0x40)\n      dup1\n      swap2\n      sub\n      swap1\n      return\n        /* \"contracts/Ebay.sol\":6379:7336  function trade(uint _auctionId) external auctionExists(_auctionId) {... */\n    tag_10:\n      callvalue\n      dup1\n      iszero\n      tag_55\n      jumpi\n      0x00\n      dup1\n      revert\n    tag_55:\n      pop\n      tag_56\n      0x04\n      dup1\n      calldatasize\n      sub\n      dup2\n      add\n      swap1\n      tag_57\n      swap2\n      swap1\n      tag_16\n      jump\t// in\n    tag_57:\n      tag_58\n      jump\t// in\n    tag_56:\n      stop\n        /* \"contracts/Ebay.sol\":7802:8245  function getUserAuctions(address _user)... */\n    tag_11:\n      callvalue\n      dup1\n      iszero\n      tag_59\n      jumpi\n      0x00\n      dup1\n      revert\n    tag_59:\n      pop\n      tag_60\n      0x04\n      dup1\n      calldatasize\n      sub\n      dup2\n      add\n      swap1\n      tag_61\n      swap2\n      swap1\n      tag_28\n      jump\t// in\n    tag_61:\n      tag_62\n      jump\t// in\n    tag_60:\n      mload(0x40)\n      tag_63\n      swap2\n      swap1\n      tag_54\n      jump\t// in\n    tag_63:\n      mload(0x40)\n      dup1\n      swap2\n      sub\n      swap1\n      return\n        /* \"contracts/Ebay.sol\":721:761  mapping(uint => Auction) public auctions */\n    tag_17:\n      mstore(0x20, 0x00)\n      dup1\n      0x00\n      mstore\n      keccak256(0x00, 0x40)\n      0x00\n      swap2\n      pop\n      swap1\n      pop\n      dup1\n      0x00\n      add\n      sload\n      swap1\n      dup1\n      0x01\n      add\n      0x00\n      swap1\n      sload\n      swap1\n      0x0100\n      exp\n      swap1\n      div\n      0xffffffffffffffffffffffffffffffffffffffff\n      and\n      swap1\n      dup1\n      0x02\n      add\n      dup1\n      sload\n      tag_64\n      swap1\n      tag_65\n      jump\t// in\n    tag_64:\n      dup1\n      0x1f\n      add\n      0x20\n      dup1\n      swap2\n      div\n      mul\n      0x20\n      add\n      mload(0x40)\n      swap1\n      dup2\n      add\n      0x40\n      mstore\n      dup1\n      swap3\n      swap2\n      swap1\n      dup2\n      dup2\n      mstore\n      0x20\n      add\n      dup3\n      dup1\n      sload\n      tag_66\n      swap1\n      tag_65\n      jump\t// in\n    tag_66:\n      dup1\n      iszero\n      tag_67\n      jumpi\n      dup1\n      0x1f\n      lt\n      tag_68\n      jumpi\n      0x0100\n      dup1\n      dup4\n      sload\n      div\n      mul\n      dup4\n      mstore\n      swap2\n      0x20\n      add\n      swap2\n      jump(tag_67)\n    tag_68:\n      dup3\n      add\n      swap2\n      swap1\n      0x00\n      mstore\n      keccak256(0x00, 0x20)\n      swap1\n    tag_69:\n      dup2\n      sload\n      dup2\n      mstore\n      swap1\n      0x01\n      add\n      swap1\n      0x20\n      add\n      dup1\n      dup4\n      gt\n      tag_69\n      jumpi\n      dup3\n      swap1\n      sub\n      0x1f\n      and\n      dup3\n      add\n      swap2\n    tag_67:\n      pop\n      pop\n      pop\n      pop\n      pop\n      swap1\n      dup1\n      0x03\n      add\n      dup1\n      sload\n      tag_70\n      swap1\n      tag_65\n      jump\t// in\n    tag_70:\n      dup1\n      0x1f\n      add\n      0x20\n      dup1\n      swap2\n      div\n      mul\n      0x20\n      add\n      mload(0x40)\n      swap1\n      dup2\n      add\n      0x40\n      mstore\n      dup1\n      swap3\n      swap2\n      swap1\n      dup2\n      dup2\n      mstore\n      0x20\n      add\n      dup3\n      dup1\n      sload\n      tag_71\n      swap1\n      tag_65\n      jump\t// in\n    tag_71:\n      dup1\n      iszero\n      tag_72\n      jumpi\n      dup1\n      0x1f\n      lt\n      tag_73\n      jumpi\n      0x0100\n      dup1\n      dup4\n      sload\n      div\n      mul\n      dup4\n      mstore\n      swap2\n      0x20\n      add\n      swap2\n      jump(tag_72)\n    tag_73:\n      dup3\n      add\n      swap2\n      swap1\n      0x00\n      mstore\n      keccak256(0x00, 0x20)\n      swap1\n    tag_74:\n      dup2\n      sload\n      dup2\n      mstore\n      swap1\n      0x01\n      add\n      swap1\n      0x20\n      add\n      dup1\n      dup4\n      gt\n      tag_74\n      jumpi\n      dup3\n      swap1\n      sub\n      0x1f\n      and\n      dup3\n      add\n      swap2\n    tag_72:\n      pop\n      pop\n      pop\n      pop\n      pop\n      swap1\n      dup1\n      0x04\n      add\n      sload\n      swap1\n      dup1\n      0x05\n      add\n      sload\n      swap1\n      dup1\n      0x06\n      add\n      sload\n      swap1\n      pop\n      dup8\n      jump\t// out\n        /* \"contracts/Ebay.sol\":2025:3100  function createAuction(... */\n    tag_24:\n        /* \"contracts/Ebay.sol\":2297:2298  0 */\n      0x00\n        /* \"contracts/Ebay.sol\":2276:2294  _minimumOfferPrice */\n      dup3\n        /* \"contracts/Ebay.sol\":2276:2298  _minimumOfferPrice > 0 */\n      gt\n        /* \"contracts/Ebay.sol\":2255:2415  require(... */\n      tag_76\n      jumpi\n      mload(0x40)\n      0x08c379a000000000000000000000000000000000000000000000000000000000\n      dup2\n      mstore\n      0x04\n      add\n      tag_77\n      swap1\n      tag_78\n      jump\t// in\n    tag_77:\n      mload(0x40)\n      dup1\n      swap2\n      sub\n      swap1\n      revert\n    tag_76:\n        /* \"contracts/Ebay.sol\":2621:2643  uint[] memory offerIds */\n      0x00\n        /* \"contracts/Ebay.sol\":2657:2658  0 */\n      dup1\n        /* \"contracts/Ebay.sol\":2646:2659  new uint[](0) */\n      0xffffffffffffffff\n      dup2\n      gt\n      iszero\n      tag_79\n      jumpi\n      tag_80\n      tag_81\n      jump\t// in\n    tag_80:\n    tag_79:\n      mload(0x40)\n      swap1\n      dup1\n      dup3\n      mstore\n      dup1\n      0x20\n      mul\n      0x20\n      add\n      dup3\n      add\n      0x40\n      mstore\n      dup1\n      iszero\n      tag_82\n      jumpi\n      dup2\n      0x20\n      add\n      0x20\n      dup3\n      mul\n      dup1\n      calldatasize\n      dup4\n      calldatacopy\n      dup1\n      dup3\n      add\n      swap2\n      pop\n      pop\n      swap1\n      pop\n    tag_82:\n      pop\n        /* \"contracts/Ebay.sol\":2621:2659  uint[] memory offerIds = new uint[](0) */\n      swap1\n      pop\n        /* \"contracts/Ebay.sol\":2696:2919  Auction(... */\n      mload(0x40)\n      dup1\n      0x0100\n      add\n      0x40\n      mstore\n      dup1\n        /* \"contracts/Ebay.sol\":2717:2730  nextAuctionId */\n      sload(0x01)\n        /* \"contracts/Ebay.sol\":2696:2919  Auction(... */\n      dup2\n      mstore\n      0x20\n      add\n        /* \"contracts/Ebay.sol\":2744:2754  msg.sender */\n      caller\n        /* \"contracts/Ebay.sol\":2696:2919  Auction(... */\n      0xffffffffffffffffffffffffffffffffffffffff\n      and\n      dup2\n      mstore\n      0x20\n      add\n        /* \"contracts/Ebay.sol\":2768:2773  _name */\n      dup9\n      dup9\n        /* \"contracts/Ebay.sol\":2696:2919  Auction(... */\n      dup1\n      dup1\n      0x1f\n      add\n      0x20\n      dup1\n      swap2\n      div\n      mul\n      0x20\n      add\n      mload(0x40)\n      swap1\n      dup2\n      add\n      0x40\n      mstore\n      dup1\n      swap4\n      swap3\n      swap2\n      swap1\n      dup2\n      dup2\n      mstore\n      0x20\n      add\n      dup4\n      dup4\n      dup1\n      dup3\n      dup5\n      calldatacopy\n      0x00\n      dup2\n      dup5\n      add\n      mstore\n      not(0x1f)\n      0x1f\n      dup3\n      add\n      and\n      swap1\n      pop\n      dup1\n      dup4\n      add\n      swap3\n      pop\n      pop\n      pop\n      pop\n      pop\n      pop\n      pop\n      dup2\n      mstore\n      0x20\n      add\n        /* \"contracts/Ebay.sol\":2787:2799  _description */\n      dup7\n      dup7\n        /* \"contracts/Ebay.sol\":2696:2919  Auction(... */\n      dup1\n      dup1\n      0x1f\n      add\n      0x20\n      dup1\n      swap2\n      div\n      mul\n      0x20\n      add\n      mload(0x40)\n      swap1\n      dup2\n      add\n      0x40\n      mstore\n      dup1\n      swap4\n      swap3\n      swap2\n      swap1\n      dup2\n      dup2\n      mstore\n      0x20\n      add\n      dup4\n      dup4\n      dup1\n      dup3\n      dup5\n      calldatacopy\n      0x00\n      dup2\n      dup5\n      add\n      mstore\n      not(0x1f)\n      0x1f\n      dup3\n      add\n      and\n      swap1\n      pop\n      dup1\n      dup4\n      add\n      swap3\n      pop\n      pop\n      pop\n      pop\n      pop\n      pop\n      pop\n      dup2\n      mstore\n      0x20\n      add\n        /* \"contracts/Ebay.sol\":2813:2831  _minimumOfferPrice */\n      dup5\n        /* \"contracts/Ebay.sol\":2696:2919  Auction(... */\n      dup2\n      mstore\n      0x20\n      add\n        /* \"contracts/Ebay.sol\":2863:2872  _duration */\n      dup4\n        /* \"contracts/Ebay.sol\":2845:2860  block.timestamp */\n      timestamp\n        /* \"contracts/Ebay.sol\":2845:2872  block.timestamp + _duration */\n      tag_83\n      swap2\n      swap1\n      tag_84\n      jump\t// in\n    tag_83:\n        /* \"contracts/Ebay.sol\":2696:2919  Auction(... */\n      dup2\n      mstore\n      0x20\n      add\n        /* \"contracts/Ebay.sol\":2886:2887  0 */\n      0x00\n        /* \"contracts/Ebay.sol\":2696:2919  Auction(... */\n      dup2\n      mstore\n      0x20\n      add\n        /* \"contracts/Ebay.sol\":2901:2909  offerIds */\n      dup3\n        /* \"contracts/Ebay.sol\":2696:2919  Auction(... */\n      dup2\n      mstore\n      pop\n        /* \"contracts/Ebay.sol\":2670:2678  auctions */\n      0x00\n        /* \"contracts/Ebay.sol\":2670:2693  auctions[nextAuctionId] */\n      dup1\n        /* \"contracts/Ebay.sol\":2679:2692  nextAuctionId */\n      sload(0x01)\n        /* \"contracts/Ebay.sol\":2670:2693  auctions[nextAuctionId] */\n      dup2\n      mstore\n      0x20\n      add\n      swap1\n      dup2\n      mstore\n      0x20\n      add\n      0x00\n      keccak256\n        /* \"contracts/Ebay.sol\":2670:2919  auctions[nextAuctionId] = Auction(... */\n      0x00\n      dup3\n      add\n      mload\n      dup2\n      0x00\n      add\n      sstore\n      0x20\n      dup3\n      add\n      mload\n      dup2\n      0x01\n      add\n      exp(0x0100, 0x00)\n      dup2\n      sload\n      dup2\n      0xffffffffffffffffffffffffffffffffffffffff\n      mul\n      not\n      and\n      swap1\n      dup4\n      0xffffffffffffffffffffffffffffffffffffffff\n      and\n      mul\n      or\n      swap1\n      sstore\n      pop\n      0x40\n      dup3\n      add\n      mload\n      dup2\n      0x02\n      add\n      swap1\n      dup2\n      tag_85\n      swap2\n      swap1\n      tag_86\n      jump\t// in\n    tag_85:\n      pop\n      0x60\n      dup3\n      add\n      mload\n      dup2\n      0x03\n      add\n      swap1\n      dup2\n      tag_87\n      swap2\n      swap1\n      tag_86\n      jump\t// in\n    tag_87:\n      pop\n      0x80\n      dup3\n      add\n      mload\n      dup2\n      0x04\n      add\n      sstore\n      0xa0\n      dup3\n      add\n      mload\n      dup2\n      0x05\n      add\n      sstore\n      0xc0\n      dup3\n      add\n      mload\n      dup2\n      0x06\n      add\n      sstore\n      0xe0\n      dup3\n      add\n      mload\n      dup2\n      0x07\n      add\n      swap1\n      dup1\n      mload\n      swap1\n      0x20\n      add\n      swap1\n      tag_88\n      swap3\n      swap2\n      swap1\n      tag_89\n      jump\t// in\n    tag_88:\n      pop\n      swap1\n      pop\n      pop\n        /* \"contracts/Ebay.sol\":2982:2994  userAuctions */\n      0x04\n        /* \"contracts/Ebay.sol\":2982:3006  userAuctions[msg.sender] */\n      0x00\n        /* \"contracts/Ebay.sol\":2995:3005  msg.sender */\n      caller\n        /* \"contracts/Ebay.sol\":2982:3006  userAuctions[msg.sender] */\n      0xffffffffffffffffffffffffffffffffffffffff\n      and\n      0xffffffffffffffffffffffffffffffffffffffff\n      and\n      dup2\n      mstore\n      0x20\n      add\n      swap1\n      dup2\n      mstore\n      0x20\n      add\n      0x00\n      keccak256\n        /* \"contracts/Ebay.sol\":3012:3025  nextAuctionId */\n      sload(0x01)\n        /* \"contracts/Ebay.sol\":2982:3026  userAuctions[msg.sender].push(nextAuctionId) */\n      swap1\n      dup1\n      0x01\n      dup2\n      sload\n      add\n      dup1\n      dup3\n      sstore\n      dup1\n      swap2\n      pop\n      pop\n      0x01\n      swap1\n      sub\n      swap1\n      0x00\n      mstore\n      keccak256(0x00, 0x20)\n      add\n      0x00\n      swap1\n      swap2\n      swap1\n      swap2\n      swap1\n      swap2\n      pop\n      sstore\n        /* \"contracts/Ebay.sol\":3078:3091  nextAuctionId */\n      0x01\n      0x00\n        /* \"contracts/Ebay.sol\":3078:3093  nextAuctionId++ */\n      dup2\n      sload\n      dup1\n      swap3\n      swap2\n      swap1\n      tag_91\n      swap1\n      tag_92\n      jump\t// in\n    tag_91:\n      swap2\n      swap1\n      pop\n      sstore\n      pop\n        /* \"contracts/Ebay.sol\":2189:3100  {... */\n      pop\n        /* \"contracts/Ebay.sol\":2025:3100  function createAuction(... */\n      pop\n      pop\n      pop\n      pop\n      pop\n      pop\n      jump\t// out\n        /* \"contracts/Ebay.sol\":8334:8747  function getUserOffers(address _user)... */\n    tag_29:\n        /* \"contracts/Ebay.sol\":8419:8433  Offer[] memory */\n      0x60\n        /* \"contracts/Ebay.sol\":8449:8476  uint[] storage userOfferIds */\n      0x00\n        /* \"contracts/Ebay.sol\":8479:8489  userOffers */\n      0x05\n        /* \"contracts/Ebay.sol\":8479:8496  userOffers[_user] */\n      0x00\n        /* \"contracts/Ebay.sol\":8490:8495  _user */\n      dup5\n        /* \"contracts/Ebay.sol\":8479:8496  userOffers[_user] */\n      0xffffffffffffffffffffffffffffffffffffffff\n      and\n      0xffffffffffffffffffffffffffffffffffffffff\n      and\n      dup2\n      mstore\n      0x20\n      add\n      swap1\n      dup2\n      mstore\n      0x20\n      add\n      0x00\n      keccak256\n        /* \"contracts/Ebay.sol\":8449:8496  uint[] storage userOfferIds = userOffers[_user] */\n      swap1\n      pop\n        /* \"contracts/Ebay.sol\":8506:8528  Offer[] memory _offers */\n      0x00\n        /* \"contracts/Ebay.sol\":8543:8555  userOfferIds */\n      dup2\n        /* \"contracts/Ebay.sol\":8543:8562  userOfferIds.length */\n      dup1\n      sload\n      swap1\n      pop\n        /* \"contracts/Ebay.sol\":8531:8563  new Offer[](userOfferIds.length) */\n      0xffffffffffffffff\n      dup2\n      gt\n      iszero\n      tag_94\n      jumpi\n      tag_95\n      tag_81\n      jump\t// in\n    tag_95:\n    tag_94:\n      mload(0x40)\n      swap1\n      dup1\n      dup3\n      mstore\n      dup1\n      0x20\n      mul\n      0x20\n      add\n      dup3\n      add\n      0x40\n      mstore\n      dup1\n      iszero\n      tag_96\n      jumpi\n      dup2\n      0x20\n      add\n    tag_97:\n      tag_98\n      tag_99\n      jump\t// in\n    tag_98:\n      dup2\n      mstore\n      0x20\n      add\n      swap1\n      0x01\n      swap1\n      sub\n      swap1\n      dup2\n      tag_97\n      jumpi\n      swap1\n      pop\n    tag_96:\n      pop\n        /* \"contracts/Ebay.sol\":8506:8563  Offer[] memory _offers = new Offer[](userOfferIds.length) */\n      swap1\n      pop\n        /* \"contracts/Ebay.sol\":8578:8584  uint i */\n      0x00\n        /* \"contracts/Ebay.sol\":8573:8717  for (uint i = 0; i < userOfferIds.length; i++) {... */\n    tag_100:\n        /* \"contracts/Ebay.sol\":8594:8606  userOfferIds */\n      dup3\n        /* \"contracts/Ebay.sol\":8594:8613  userOfferIds.length */\n      dup1\n      sload\n      swap1\n      pop\n        /* \"contracts/Ebay.sol\":8590:8591  i */\n      dup2\n        /* \"contracts/Ebay.sol\":8590:8613  i < userOfferIds.length */\n      lt\n        /* \"contracts/Ebay.sol\":8573:8717  for (uint i = 0; i < userOfferIds.length; i++) {... */\n      iszero\n      tag_101\n      jumpi\n        /* \"contracts/Ebay.sol\":8634:8646  uint offerId */\n      0x00\n        /* \"contracts/Ebay.sol\":8649:8661  userOfferIds */\n      dup4\n        /* \"contracts/Ebay.sol\":8662:8663  i */\n      dup3\n        /* \"contracts/Ebay.sol\":8649:8664  userOfferIds[i] */\n      dup2\n      sload\n      dup2\n      lt\n      tag_103\n      jumpi\n      tag_104\n      tag_105\n      jump\t// in\n    tag_104:\n    tag_103:\n      swap1\n      0x00\n      mstore\n      keccak256(0x00, 0x20)\n      add\n      sload\n        /* \"contracts/Ebay.sol\":8634:8664  uint offerId = userOfferIds[i] */\n      swap1\n      pop\n        /* \"contracts/Ebay.sol\":8691:8697  offers */\n      0x02\n        /* \"contracts/Ebay.sol\":8691:8706  offers[offerId] */\n      0x00\n        /* \"contracts/Ebay.sol\":8698:8705  offerId */\n      dup3\n        /* \"contracts/Ebay.sol\":8691:8706  offers[offerId] */\n      dup2\n      mstore\n      0x20\n      add\n      swap1\n      dup2\n      mstore\n      0x20\n      add\n      0x00\n      keccak256\n        /* \"contracts/Ebay.sol\":8678:8706  _offers[i] = offers[offerId] */\n      mload(0x40)\n      dup1\n      0x80\n      add\n      0x40\n      mstore\n      swap1\n      dup2\n      0x00\n      dup3\n      add\n      sload\n      dup2\n      mstore\n      0x20\n      add\n      0x01\n      dup3\n      add\n      sload\n      dup2\n      mstore\n      0x20\n      add\n      0x02\n      dup3\n      add\n      0x00\n      swap1\n      sload\n      swap1\n      0x0100\n      exp\n      swap1\n      div\n      0xffffffffffffffffffffffffffffffffffffffff\n      and\n      0xffffffffffffffffffffffffffffffffffffffff\n      and\n      0xffffffffffffffffffffffffffffffffffffffff\n      and\n      dup2\n      mstore\n      0x20\n      add\n      0x03\n      dup3\n      add\n      sload\n      dup2\n      mstore\n      pop\n      pop\n        /* \"contracts/Ebay.sol\":8678:8685  _offers */\n      dup4\n        /* \"contracts/Ebay.sol\":8686:8687  i */\n      dup4\n        /* \"contracts/Ebay.sol\":8678:8688  _offers[i] */\n      dup2\n      mload\n      dup2\n      lt\n      tag_107\n      jumpi\n      tag_108\n      tag_105\n      jump\t// in\n    tag_108:\n    tag_107:\n      0x20\n      mul\n      0x20\n      add\n      add\n        /* \"contracts/Ebay.sol\":8678:8706  _offers[i] = offers[offerId] */\n      dup2\n      swap1\n      mstore\n      pop\n        /* \"contracts/Ebay.sol\":8620:8717  {... */\n      pop\n        /* \"contracts/Ebay.sol\":8615:8618  i++ */\n      dup1\n      dup1\n      tag_109\n      swap1\n      tag_92\n      jump\t// in\n    tag_109:\n      swap2\n      pop\n      pop\n        /* \"contracts/Ebay.sol\":8573:8717  for (uint i = 0; i < userOfferIds.length; i++) {... */\n      jump(tag_100)\n    tag_101:\n      pop\n        /* \"contracts/Ebay.sol\":8733:8740  _offers */\n      dup1\n        /* \"contracts/Ebay.sol\":8726:8740  return _offers */\n      swap3\n      pop\n      pop\n      pop\n        /* \"contracts/Ebay.sol\":8334:8747  function getUserOffers(address _user)... */\n      swap2\n      swap1\n      pop\n      jump\t// out\n        /* \"contracts/Ebay.sol\":1022:1058  mapping(uint => Offer) public offers */\n    tag_35:\n      mstore(0x20, 0x02)\n      dup1\n      0x00\n      mstore\n      keccak256(0x00, 0x40)\n      0x00\n      swap2\n      pop\n      swap1\n      pop\n      dup1\n      0x00\n      add\n      sload\n      swap1\n      dup1\n      0x01\n      add\n      sload\n      swap1\n      dup1\n      0x02\n      add\n      0x00\n      swap1\n      sload\n      swap1\n      0x0100\n      exp\n      swap1\n      div\n      0xffffffffffffffffffffffffffffffffffffffff\n      and\n      swap1\n      dup1\n      0x03\n      add\n      sload\n      swap1\n      pop\n      dup5\n      jump\t// out\n        /* \"contracts/Ebay.sol\":3193:4400  function cancelAuction(uint _auctionId) external auctionExists(_auctionId) {... */\n    tag_41:\n        /* \"contracts/Ebay.sol\":3256:3266  _auctionId */\n      dup1\n        /* \"contracts/Ebay.sol\":1554:1555  0 */\n      0x00\n        /* \"contracts/Ebay.sol\":1541:1551  _auctionId */\n      dup2\n        /* \"contracts/Ebay.sol\":1541:1555  _auctionId > 0 */\n      gt\n        /* \"contracts/Ebay.sol\":1541:1585  _auctionId > 0 && _auctionId < nextAuctionId */\n      dup1\n      iszero\n      tag_111\n      jumpi\n      pop\n        /* \"contracts/Ebay.sol\":1572:1585  nextAuctionId */\n      sload(0x01)\n        /* \"contracts/Ebay.sol\":1559:1569  _auctionId */\n      dup2\n        /* \"contracts/Ebay.sol\":1559:1585  _auctionId < nextAuctionId */\n      lt\n        /* \"contracts/Ebay.sol\":1541:1585  _auctionId > 0 && _auctionId < nextAuctionId */\n    tag_111:\n        /* \"contracts/Ebay.sol\":1520:1633  require(... */\n      tag_112\n      jumpi\n      mload(0x40)\n      0x08c379a000000000000000000000000000000000000000000000000000000000\n      dup2\n      mstore\n      0x04\n      add\n      tag_113\n      swap1\n      tag_114\n      jump\t// in\n    tag_113:\n      mload(0x40)\n      dup1\n      swap2\n      sub\n      swap1\n      revert\n    tag_112:\n        /* \"contracts/Ebay.sol\":3311:3334  Auction storage auction */\n      0x00\n        /* \"contracts/Ebay.sol\":3337:3345  auctions */\n      dup1\n        /* \"contracts/Ebay.sol\":3337:3357  auctions[_auctionId] */\n      0x00\n        /* \"contracts/Ebay.sol\":3346:3356  _auctionId */\n      dup5\n        /* \"contracts/Ebay.sol\":3337:3357  auctions[_auctionId] */\n      dup2\n      mstore\n      0x20\n      add\n      swap1\n      dup2\n      mstore\n      0x20\n      add\n      0x00\n      keccak256\n        /* \"contracts/Ebay.sol\":3311:3357  Auction storage auction = auctions[_auctionId] */\n      swap1\n      pop\n        /* \"contracts/Ebay.sol\":3548:3554  uint i */\n      0x00\n        /* \"contracts/Ebay.sol\":3543:4066  for (uint i = 0; i < auction.offerIds.length; i++) {... */\n    tag_116:\n        /* \"contracts/Ebay.sol\":3564:3571  auction */\n      dup2\n        /* \"contracts/Ebay.sol\":3564:3580  auction.offerIds */\n      0x07\n      add\n        /* \"contracts/Ebay.sol\":3564:3587  auction.offerIds.length */\n      dup1\n      sload\n      swap1\n      pop\n        /* \"contracts/Ebay.sol\":3560:3561  i */\n      dup2\n        /* \"contracts/Ebay.sol\":3560:3587  i < auction.offerIds.length */\n      lt\n        /* \"contracts/Ebay.sol\":3543:4066  for (uint i = 0; i < auction.offerIds.length; i++) {... */\n      iszero\n      tag_117\n      jumpi\n        /* \"contracts/Ebay.sol\":3608:3620  uint offerId */\n      0x00\n        /* \"contracts/Ebay.sol\":3623:3630  auction */\n      dup3\n        /* \"contracts/Ebay.sol\":3623:3639  auction.offerIds */\n      0x07\n      add\n        /* \"contracts/Ebay.sol\":3640:3641  i */\n      dup3\n        /* \"contracts/Ebay.sol\":3623:3642  auction.offerIds[i] */\n      dup2\n      sload\n      dup2\n      lt\n      tag_119\n      jumpi\n      tag_120\n      tag_105\n      jump\t// in\n    tag_120:\n    tag_119:\n      swap1\n      0x00\n      mstore\n      keccak256(0x00, 0x20)\n      add\n      sload\n        /* \"contracts/Ebay.sol\":3608:3642  uint offerId = auction.offerIds[i] */\n      swap1\n      pop\n        /* \"contracts/Ebay.sol\":3656:3675  Offer storage offer */\n      0x00\n        /* \"contracts/Ebay.sol\":3678:3684  offers */\n      0x02\n        /* \"contracts/Ebay.sol\":3678:3693  offers[offerId] */\n      0x00\n        /* \"contracts/Ebay.sol\":3685:3692  offerId */\n      dup4\n        /* \"contracts/Ebay.sol\":3678:3693  offers[offerId] */\n      dup2\n      mstore\n      0x20\n      add\n      swap1\n      dup2\n      mstore\n      0x20\n      add\n      0x00\n      keccak256\n        /* \"contracts/Ebay.sol\":3656:3693  Offer storage offer = offers[offerId] */\n      swap1\n      pop\n        /* \"contracts/Ebay.sol\":3752:3757  offer */\n      dup1\n        /* \"contracts/Ebay.sol\":3752:3763  offer.buyer */\n      0x02\n      add\n      0x00\n      swap1\n      sload\n      swap1\n      0x0100\n      exp\n      swap1\n      div\n      0xffffffffffffffffffffffffffffffffffffffff\n      and\n        /* \"contracts/Ebay.sol\":3744:3773  payable(offer.buyer).transfer */\n      0xffffffffffffffffffffffffffffffffffffffff\n      and\n        /* \"contracts/Ebay.sol\":3744:3791  payable(offer.buyer).transfer(offer.offerPrice) */\n      0x08fc\n        /* \"contracts/Ebay.sol\":3774:3779  offer */\n      dup3\n        /* \"contracts/Ebay.sol\":3774:3790  offer.offerPrice */\n      0x03\n      add\n      sload\n        /* \"contracts/Ebay.sol\":3744:3791  payable(offer.buyer).transfer(offer.offerPrice) */\n      swap1\n      dup2\n      iszero\n      mul\n      swap1\n      mload(0x40)\n      0x00\n      mload(0x40)\n      dup1\n      dup4\n      sub\n      dup2\n      dup6\n      dup9\n      dup9\n      call\n      swap4\n      pop\n      pop\n      pop\n      pop\n      iszero\n      dup1\n      iszero\n      tag_123\n      jumpi\n      returndatasize\n      0x00\n      dup1\n      returndatacopy\n      revert(0x00, returndatasize)\n    tag_123:\n      pop\n        /* \"contracts/Ebay.sol\":3854:3860  uint j */\n      0x00\n        /* \"contracts/Ebay.sol\":3849:4056  for (uint j = 0; j < userOffers[offer.buyer].length; j++) {... */\n    tag_124:\n        /* \"contracts/Ebay.sol\":3870:3880  userOffers */\n      0x05\n        /* \"contracts/Ebay.sol\":3870:3893  userOffers[offer.buyer] */\n      0x00\n        /* \"contracts/Ebay.sol\":3881:3886  offer */\n      dup4\n        /* \"contracts/Ebay.sol\":3881:3892  offer.buyer */\n      0x02\n      add\n      0x00\n      swap1\n      sload\n      swap1\n      0x0100\n      exp\n      swap1\n      div\n      0xffffffffffffffffffffffffffffffffffffffff\n      and\n        /* \"contracts/Ebay.sol\":3870:3893  userOffers[offer.buyer] */\n      0xffffffffffffffffffffffffffffffffffffffff\n      and\n      0xffffffffffffffffffffffffffffffffffffffff\n      and\n      dup2\n      mstore\n      0x20\n      add\n      swap1\n      dup2\n      mstore\n      0x20\n      add\n      0x00\n      keccak256\n        /* \"contracts/Ebay.sol\":3870:3900  userOffers[offer.buyer].length */\n      dup1\n      sload\n      swap1\n      pop\n        /* \"contracts/Ebay.sol\":3866:3867  j */\n      dup2\n        /* \"contracts/Ebay.sol\":3866:3900  j < userOffers[offer.buyer].length */\n      lt\n        /* \"contracts/Ebay.sol\":3849:4056  for (uint j = 0; j < userOffers[offer.buyer].length; j++) {... */\n      iszero\n      tag_125\n      jumpi\n        /* \"contracts/Ebay.sol\":3959:3966  offerId */\n      dup3\n        /* \"contracts/Ebay.sol\":3929:3939  userOffers */\n      0x05\n        /* \"contracts/Ebay.sol\":3929:3952  userOffers[offer.buyer] */\n      0x00\n        /* \"contracts/Ebay.sol\":3940:3945  offer */\n      dup5\n        /* \"contracts/Ebay.sol\":3940:3951  offer.buyer */\n      0x02\n      add\n      0x00\n      swap1\n      sload\n      swap1\n      0x0100\n      exp\n      swap1\n      div\n      0xffffffffffffffffffffffffffffffffffffffff\n      and\n        /* \"contracts/Ebay.sol\":3929:3952  userOffers[offer.buyer] */\n      0xffffffffffffffffffffffffffffffffffffffff\n      and\n      0xffffffffffffffffffffffffffffffffffffffff\n      and\n      dup2\n      mstore\n      0x20\n      add\n      swap1\n      dup2\n      mstore\n      0x20\n      add\n      0x00\n      keccak256\n        /* \"contracts/Ebay.sol\":3953:3954  j */\n      dup3\n        /* \"contracts/Ebay.sol\":3929:3955  userOffers[offer.buyer][j] */\n      dup2\n      sload\n      dup2\n      lt\n      tag_127\n      jumpi\n      tag_128\n      tag_105\n      jump\t// in\n    tag_128:\n    tag_127:\n      swap1\n      0x00\n      mstore\n      keccak256(0x00, 0x20)\n      add\n      sload\n        /* \"contracts/Ebay.sol\":3929:3966  userOffers[offer.buyer][j] == offerId */\n      sub\n        /* \"contracts/Ebay.sol\":3925:4042  if (userOffers[offer.buyer][j] == offerId) {... */\n      tag_130\n      jumpi\n        /* \"contracts/Ebay.sol\":3997:4007  userOffers */\n      0x05\n        /* \"contracts/Ebay.sol\":3997:4020  userOffers[offer.buyer] */\n      0x00\n        /* \"contracts/Ebay.sol\":4008:4013  offer */\n      dup4\n        /* \"contracts/Ebay.sol\":4008:4019  offer.buyer */\n      0x02\n      add\n      0x00\n      swap1\n      sload\n      swap1\n      0x0100\n      exp\n      swap1\n      div\n      0xffffffffffffffffffffffffffffffffffffffff\n      and\n        /* \"contracts/Ebay.sol\":3997:4020  userOffers[offer.buyer] */\n      0xffffffffffffffffffffffffffffffffffffffff\n      and\n      0xffffffffffffffffffffffffffffffffffffffff\n      and\n      dup2\n      mstore\n      0x20\n      add\n      swap1\n      dup2\n      mstore\n      0x20\n      add\n      0x00\n      keccak256\n        /* \"contracts/Ebay.sol\":4021:4022  j */\n      dup2\n        /* \"contracts/Ebay.sol\":3997:4023  userOffers[offer.buyer][j] */\n      dup2\n      sload\n      dup2\n      lt\n      tag_131\n      jumpi\n      tag_132\n      tag_105\n      jump\t// in\n    tag_132:\n    tag_131:\n      swap1\n      0x00\n      mstore\n      keccak256(0x00, 0x20)\n      add\n        /* \"contracts/Ebay.sol\":3990:4023  delete userOffers[offer.buyer][j] */\n      0x00\n      swap1\n      sstore\n        /* \"contracts/Ebay.sol\":3925:4042  if (userOffers[offer.buyer][j] == offerId) {... */\n    tag_130:\n        /* \"contracts/Ebay.sol\":3902:3905  j++ */\n      dup1\n      dup1\n      tag_134\n      swap1\n      tag_92\n      jump\t// in\n    tag_134:\n      swap2\n      pop\n      pop\n        /* \"contracts/Ebay.sol\":3849:4056  for (uint j = 0; j < userOffers[offer.buyer].length; j++) {... */\n      jump(tag_124)\n    tag_125:\n      pop\n        /* \"contracts/Ebay.sol\":3594:4066  {... */\n      pop\n      pop\n        /* \"contracts/Ebay.sol\":3589:3592  i++ */\n      dup1\n      dup1\n      tag_135\n      swap1\n      tag_92\n      jump\t// in\n    tag_135:\n      swap2\n      pop\n      pop\n        /* \"contracts/Ebay.sol\":3543:4066  for (uint i = 0; i < auction.offerIds.length; i++) {... */\n      jump(tag_116)\n    tag_117:\n      pop\n        /* \"contracts/Ebay.sol\":4119:4125  uint k */\n      0x00\n        /* \"contracts/Ebay.sol\":4114:4323  for (uint k = 0; k < userAuctions[auction.seller].length; k++) {... */\n    tag_136:\n        /* \"contracts/Ebay.sol\":4135:4147  userAuctions */\n      0x04\n        /* \"contracts/Ebay.sol\":4135:4163  userAuctions[auction.seller] */\n      0x00\n        /* \"contracts/Ebay.sol\":4148:4155  auction */\n      dup4\n        /* \"contracts/Ebay.sol\":4148:4162  auction.seller */\n      0x01\n      add\n      0x00\n      swap1\n      sload\n      swap1\n      0x0100\n      exp\n      swap1\n      div\n      0xffffffffffffffffffffffffffffffffffffffff\n      and\n        /* \"contracts/Ebay.sol\":4135:4163  userAuctions[auction.seller] */\n      0xffffffffffffffffffffffffffffffffffffffff\n      and\n      0xffffffffffffffffffffffffffffffffffffffff\n      and\n      dup2\n      mstore\n      0x20\n      add\n      swap1\n      dup2\n      mstore\n      0x20\n      add\n      0x00\n      keccak256\n        /* \"contracts/Ebay.sol\":4135:4170  userAuctions[auction.seller].length */\n      dup1\n      sload\n      swap1\n      pop\n        /* \"contracts/Ebay.sol\":4131:4132  k */\n      dup2\n        /* \"contracts/Ebay.sol\":4131:4170  k < userAuctions[auction.seller].length */\n      lt\n        /* \"contracts/Ebay.sol\":4114:4323  for (uint k = 0; k < userAuctions[auction.seller].length; k++) {... */\n      iszero\n      tag_137\n      jumpi\n        /* \"contracts/Ebay.sol\":4230:4240  _auctionId */\n      dup4\n        /* \"contracts/Ebay.sol\":4195:4207  userAuctions */\n      0x04\n        /* \"contracts/Ebay.sol\":4195:4223  userAuctions[auction.seller] */\n      0x00\n        /* \"contracts/Ebay.sol\":4208:4215  auction */\n      dup5\n        /* \"contracts/Ebay.sol\":4208:4222  auction.seller */\n      0x01\n      add\n      0x00\n      swap1\n      sload\n      swap1\n      0x0100\n      exp\n      swap1\n      div\n      0xffffffffffffffffffffffffffffffffffffffff\n      and\n        /* \"contracts/Ebay.sol\":4195:4223  userAuctions[auction.seller] */\n      0xffffffffffffffffffffffffffffffffffffffff\n      and\n      0xffffffffffffffffffffffffffffffffffffffff\n      and\n      dup2\n      mstore\n      0x20\n      add\n      swap1\n      dup2\n      mstore\n      0x20\n      add\n      0x00\n      keccak256\n        /* \"contracts/Ebay.sol\":4224:4225  k */\n      dup3\n        /* \"contracts/Ebay.sol\":4195:4226  userAuctions[auction.seller][k] */\n      dup2\n      sload\n      dup2\n      lt\n      tag_139\n      jumpi\n      tag_140\n      tag_105\n      jump\t// in\n    tag_140:\n    tag_139:\n      swap1\n      0x00\n      mstore\n      keccak256(0x00, 0x20)\n      add\n      sload\n        /* \"contracts/Ebay.sol\":4195:4240  userAuctions[auction.seller][k] == _auctionId */\n      sub\n        /* \"contracts/Ebay.sol\":4191:4313  if (userAuctions[auction.seller][k] == _auctionId) {... */\n      tag_142\n      jumpi\n        /* \"contracts/Ebay.sol\":4267:4279  userAuctions */\n      0x04\n        /* \"contracts/Ebay.sol\":4267:4295  userAuctions[auction.seller] */\n      0x00\n        /* \"contracts/Ebay.sol\":4280:4287  auction */\n      dup4\n        /* \"contracts/Ebay.sol\":4280:4294  auction.seller */\n      0x01\n      add\n      0x00\n      swap1\n      sload\n      swap1\n      0x0100\n      exp\n      swap1\n      div\n      0xffffffffffffffffffffffffffffffffffffffff\n      and\n        /* \"contracts/Ebay.sol\":4267:4295  userAuctions[auction.seller] */\n      0xffffffffffffffffffffffffffffffffffffffff\n      and\n      0xffffffffffffffffffffffffffffffffffffffff\n      and\n      dup2\n      mstore\n      0x20\n      add\n      swap1\n      dup2\n      mstore\n      0x20\n      add\n      0x00\n      keccak256\n        /* \"contracts/Ebay.sol\":4296:4297  k */\n      dup2\n        /* \"contracts/Ebay.sol\":4267:4298  userAuctions[auction.seller][k] */\n      dup2\n      sload\n      dup2\n      lt\n      tag_143\n      jumpi\n      tag_144\n      tag_105\n      jump\t// in\n    tag_144:\n    tag_143:\n      swap1\n      0x00\n      mstore\n      keccak256(0x00, 0x20)\n      add\n        /* \"contracts/Ebay.sol\":4260:4298  delete userAuctions[auction.seller][k] */\n      0x00\n      swap1\n      sstore\n        /* \"contracts/Ebay.sol\":4191:4313  if (userAuctions[auction.seller][k] == _auctionId) {... */\n    tag_142:\n        /* \"contracts/Ebay.sol\":4172:4175  k++ */\n      dup1\n      dup1\n      tag_146\n      swap1\n      tag_92\n      jump\t// in\n    tag_146:\n      swap2\n      pop\n      pop\n        /* \"contracts/Ebay.sol\":4114:4323  for (uint k = 0; k < userAuctions[auction.seller].length; k++) {... */\n      jump(tag_136)\n    tag_137:\n      pop\n        /* \"contracts/Ebay.sol\":4373:4381  auctions */\n      0x00\n        /* \"contracts/Ebay.sol\":4373:4393  auctions[_auctionId] */\n      dup1\n        /* \"contracts/Ebay.sol\":4382:4392  _auctionId */\n      dup5\n        /* \"contracts/Ebay.sol\":4373:4393  auctions[_auctionId] */\n      dup2\n      mstore\n      0x20\n      add\n      swap1\n      dup2\n      mstore\n      0x20\n      add\n      0x00\n      keccak256\n      0x00\n        /* \"contracts/Ebay.sol\":4366:4393  delete auctions[_auctionId] */\n      dup1\n      dup3\n      add\n      0x00\n      swap1\n      sstore\n      0x01\n      dup3\n      add\n      exp(0x0100, 0x00)\n      dup2\n      sload\n      swap1\n      0xffffffffffffffffffffffffffffffffffffffff\n      mul\n      not\n      and\n      swap1\n      sstore\n      0x02\n      dup3\n      add\n      0x00\n      tag_147\n      swap2\n      swap1\n      tag_148\n      jump\t// in\n    tag_147:\n      0x03\n      dup3\n      add\n      0x00\n      tag_149\n      swap2\n      swap1\n      tag_148\n      jump\t// in\n    tag_149:\n      0x04\n      dup3\n      add\n      0x00\n      swap1\n      sstore\n      0x05\n      dup3\n      add\n      0x00\n      swap1\n      sstore\n      0x06\n      dup3\n      add\n      0x00\n      swap1\n      sstore\n      0x07\n      dup3\n      add\n      0x00\n      tag_150\n      swap2\n      swap1\n      tag_151\n      jump\t// in\n    tag_150:\n      pop\n      pop\n        /* \"contracts/Ebay.sol\":3268:4400  {... */\n      pop\n        /* \"contracts/Ebay.sol\":3193:4400  function cancelAuction(uint _auctionId) external auctionExists(_auctionId) {... */\n      pop\n      pop\n      jump\t// out\n        /* \"contracts/Ebay.sol\":4504:6282  function createOffer(uint _auctionId)... */\n    tag_44:\n        /* \"contracts/Ebay.sol\":4705:4715  _auctionId */\n      dup1\n        /* \"contracts/Ebay.sol\":1554:1555  0 */\n      0x00\n        /* \"contracts/Ebay.sol\":1541:1551  _auctionId */\n      dup2\n        /* \"contracts/Ebay.sol\":1541:1555  _auctionId > 0 */\n      gt\n        /* \"contracts/Ebay.sol\":1541:1585  _auctionId > 0 && _auctionId < nextAuctionId */\n      dup1\n      iszero\n      tag_153\n      jumpi\n      pop\n        /* \"contracts/Ebay.sol\":1572:1585  nextAuctionId */\n      sload(0x01)\n        /* \"contracts/Ebay.sol\":1559:1569  _auctionId */\n      dup2\n        /* \"contracts/Ebay.sol\":1559:1585  _auctionId < nextAuctionId */\n      lt\n        /* \"contracts/Ebay.sol\":1541:1585  _auctionId > 0 && _auctionId < nextAuctionId */\n    tag_153:\n        /* \"contracts/Ebay.sol\":1520:1633  require(... */\n      tag_154\n      jumpi\n      mload(0x40)\n      0x08c379a000000000000000000000000000000000000000000000000000000000\n      dup2\n      mstore\n      0x04\n      add\n      tag_155\n      swap1\n      tag_114\n      jump\t// in\n    tag_155:\n      mload(0x40)\n      dup1\n      swap2\n      sub\n      swap1\n      revert\n    tag_154:\n        /* \"contracts/Ebay.sol\":4766:4789  Auction storage auction */\n      0x00\n        /* \"contracts/Ebay.sol\":4792:4800  auctions */\n      dup1\n        /* \"contracts/Ebay.sol\":4792:4812  auctions[_auctionId] */\n      0x00\n        /* \"contracts/Ebay.sol\":4801:4811  _auctionId */\n      dup5\n        /* \"contracts/Ebay.sol\":4792:4812  auctions[_auctionId] */\n      dup2\n      mstore\n      0x20\n      add\n      swap1\n      dup2\n      mstore\n      0x20\n      add\n      0x00\n      keccak256\n        /* \"contracts/Ebay.sol\":4766:4812  Auction storage auction = auctions[_auctionId] */\n      swap1\n      pop\n        /* \"contracts/Ebay.sol\":4889:4896  auction */\n      dup1\n        /* \"contracts/Ebay.sol\":4889:4907  auction.auctionEnd */\n      0x05\n      add\n      sload\n        /* \"contracts/Ebay.sol\":4871:4886  block.timestamp */\n      timestamp\n        /* \"contracts/Ebay.sol\":4871:4907  block.timestamp < auction.auctionEnd */\n      lt\n        /* \"contracts/Ebay.sol\":4863:4927  require(block.timestamp < auction.auctionEnd, \"Auction expired\") */\n      tag_157\n      jumpi\n      mload(0x40)\n      0x08c379a000000000000000000000000000000000000000000000000000000000\n      dup2\n      mstore\n      0x04\n      add\n      tag_158\n      swap1\n      tag_159\n      jump\t// in\n    tag_158:\n      mload(0x40)\n      dup1\n      swap2\n      sub\n      swap1\n      revert\n    tag_157:\n        /* \"contracts/Ebay.sol\":4973:4996  Offer storage bestOffer */\n      0x00\n        /* \"contracts/Ebay.sol\":4999:5005  offers */\n      0x02\n        /* \"contracts/Ebay.sol\":4999:5026  offers[auction.bestOfferId] */\n      0x00\n        /* \"contracts/Ebay.sol\":5006:5013  auction */\n      dup4\n        /* \"contracts/Ebay.sol\":5006:5025  auction.bestOfferId */\n      0x06\n      add\n      sload\n        /* \"contracts/Ebay.sol\":4999:5026  offers[auction.bestOfferId] */\n      dup2\n      mstore\n      0x20\n      add\n      swap1\n      dup2\n      mstore\n      0x20\n      add\n      0x00\n      keccak256\n        /* \"contracts/Ebay.sol\":4973:5026  Offer storage bestOffer = offers[auction.bestOfferId] */\n      swap1\n      pop\n        /* \"contracts/Ebay.sol\":5100:5121  uint newPossibleOffer */\n      0x00\n        /* \"contracts/Ebay.sol\":5124:5133  msg.value */\n      callvalue\n        /* \"contracts/Ebay.sol\":5100:5133  uint newPossibleOffer = msg.value */\n      swap1\n      pop\n        /* \"contracts/Ebay.sol\":5148:5154  uint i */\n      0x00\n        /* \"contracts/Ebay.sol\":5143:5382  for (uint i = 0; i < auction.offerIds.length; i++) {... */\n    tag_160:\n        /* \"contracts/Ebay.sol\":5164:5171  auction */\n      dup4\n        /* \"contracts/Ebay.sol\":5164:5180  auction.offerIds */\n      0x07\n      add\n        /* \"contracts/Ebay.sol\":5164:5187  auction.offerIds.length */\n      dup1\n      sload\n      swap1\n      pop\n        /* \"contracts/Ebay.sol\":5160:5161  i */\n      dup2\n        /* \"contracts/Ebay.sol\":5160:5187  i < auction.offerIds.length */\n      lt\n        /* \"contracts/Ebay.sol\":5143:5382  for (uint i = 0; i < auction.offerIds.length; i++) {... */\n      iszero\n      tag_161\n      jumpi\n        /* \"contracts/Ebay.sol\":5208:5227  Offer storage offer */\n      0x00\n        /* \"contracts/Ebay.sol\":5230:5236  offers */\n      0x02\n        /* \"contracts/Ebay.sol\":5230:5257  offers[auction.offerIds[i]] */\n      0x00\n        /* \"contracts/Ebay.sol\":5237:5244  auction */\n      dup7\n        /* \"contracts/Ebay.sol\":5237:5253  auction.offerIds */\n      0x07\n      add\n        /* \"contracts/Ebay.sol\":5254:5255  i */\n      dup5\n        /* \"contracts/Ebay.sol\":5237:5256  auction.offerIds[i] */\n      dup2\n      sload\n      dup2\n      lt\n      tag_163\n      jumpi\n      tag_164\n      tag_105\n      jump\t// in\n    tag_164:\n    tag_163:\n      swap1\n      0x00\n      mstore\n      keccak256(0x00, 0x20)\n      add\n      sload\n        /* \"contracts/Ebay.sol\":5230:5257  offers[auction.offerIds[i]] */\n      dup2\n      mstore\n      0x20\n      add\n      swap1\n      dup2\n      mstore\n      0x20\n      add\n      0x00\n      keccak256\n        /* \"contracts/Ebay.sol\":5208:5257  Offer storage offer = offers[auction.offerIds[i]] */\n      swap1\n      pop\n        /* \"contracts/Ebay.sol\":5291:5301  msg.sender */\n      caller\n        /* \"contracts/Ebay.sol\":5276:5301  offer.buyer == msg.sender */\n      0xffffffffffffffffffffffffffffffffffffffff\n      and\n        /* \"contracts/Ebay.sol\":5276:5281  offer */\n      dup2\n        /* \"contracts/Ebay.sol\":5276:5287  offer.buyer */\n      0x02\n      add\n      0x00\n      swap1\n      sload\n      swap1\n      0x0100\n      exp\n      swap1\n      div\n      0xffffffffffffffffffffffffffffffffffffffff\n      and\n        /* \"contracts/Ebay.sol\":5276:5301  offer.buyer == msg.sender */\n      0xffffffffffffffffffffffffffffffffffffffff\n      and\n      sub\n        /* \"contracts/Ebay.sol\":5272:5372  if (offer.buyer == msg.sender) {... */\n      tag_166\n      jumpi\n        /* \"contracts/Ebay.sol\":5341:5346  offer */\n      dup1\n        /* \"contracts/Ebay.sol\":5341:5357  offer.offerPrice */\n      0x03\n      add\n      sload\n        /* \"contracts/Ebay.sol\":5321:5357  newPossibleOffer += offer.offerPrice */\n      dup4\n      tag_167\n      swap2\n      swap1\n      tag_84\n      jump\t// in\n    tag_167:\n      swap3\n      pop\n        /* \"contracts/Ebay.sol\":5272:5372  if (offer.buyer == msg.sender) {... */\n    tag_166:\n        /* \"contracts/Ebay.sol\":5194:5382  {... */\n      pop\n        /* \"contracts/Ebay.sol\":5189:5192  i++ */\n      dup1\n      dup1\n      tag_168\n      swap1\n      tag_92\n      jump\t// in\n    tag_168:\n      swap2\n      pop\n      pop\n        /* \"contracts/Ebay.sol\":5143:5382  for (uint i = 0; i < auction.offerIds.length; i++) {... */\n      jump(tag_160)\n    tag_161:\n      pop\n        /* \"contracts/Ebay.sol\":5493:5500  auction */\n      dup3\n        /* \"contracts/Ebay.sol\":5493:5518  auction.minimumOfferPrice */\n      0x04\n      add\n      sload\n        /* \"contracts/Ebay.sol\":5473:5489  newPossibleOffer */\n      dup2\n        /* \"contracts/Ebay.sol\":5473:5518  newPossibleOffer >= auction.minimumOfferPrice */\n      lt\n      iszero\n        /* \"contracts/Ebay.sol\":5473:5577  newPossibleOffer >= auction.minimumOfferPrice &&... */\n      dup1\n      iszero\n      tag_169\n      jumpi\n      pop\n        /* \"contracts/Ebay.sol\":5557:5566  bestOffer */\n      dup2\n        /* \"contracts/Ebay.sol\":5557:5577  bestOffer.offerPrice */\n      0x03\n      add\n      sload\n        /* \"contracts/Ebay.sol\":5538:5554  newPossibleOffer */\n      dup2\n        /* \"contracts/Ebay.sol\":5538:5577  newPossibleOffer > bestOffer.offerPrice */\n      gt\n        /* \"contracts/Ebay.sol\":5473:5577  newPossibleOffer >= auction.minimumOfferPrice &&... */\n    tag_169:\n        /* \"contracts/Ebay.sol\":5452:5670  require(... */\n      tag_170\n      jumpi\n      mload(0x40)\n      0x08c379a000000000000000000000000000000000000000000000000000000000\n      dup2\n      mstore\n      0x04\n      add\n      tag_171\n      swap1\n      tag_172\n      jump\t// in\n    tag_171:\n      mload(0x40)\n      dup1\n      swap2\n      sub\n      swap1\n      revert\n    tag_170:\n        /* \"contracts/Ebay.sol\":5744:5755  nextOfferId */\n      sload(0x03)\n        /* \"contracts/Ebay.sol\":5722:5729  auction */\n      dup4\n        /* \"contracts/Ebay.sol\":5722:5741  auction.bestOfferId */\n      0x06\n      add\n        /* \"contracts/Ebay.sol\":5722:5755  auction.bestOfferId = nextOfferId */\n      dup2\n      swap1\n      sstore\n      pop\n        /* \"contracts/Ebay.sol\":5818:5936  Offer(... */\n      mload(0x40)\n      dup1\n      0x80\n      add\n      0x40\n      mstore\n      dup1\n        /* \"contracts/Ebay.sol\":5837:5848  nextOfferId */\n      sload(0x03)\n        /* \"contracts/Ebay.sol\":5818:5936  Offer(... */\n      dup2\n      mstore\n      0x20\n      add\n        /* \"contracts/Ebay.sol\":5862:5872  _auctionId */\n      dup7\n        /* \"contracts/Ebay.sol\":5818:5936  Offer(... */\n      dup2\n      mstore\n      0x20\n      add\n        /* \"contracts/Ebay.sol\":5886:5896  msg.sender */\n      caller\n        /* \"contracts/Ebay.sol\":5818:5936  Offer(... */\n      0xffffffffffffffffffffffffffffffffffffffff\n      and\n      dup2\n      mstore\n      0x20\n      add\n        /* \"contracts/Ebay.sol\":5910:5926  newPossibleOffer */\n      dup3\n        /* \"contracts/Ebay.sol\":5818:5936  Offer(... */\n      dup2\n      mstore\n      pop\n        /* \"contracts/Ebay.sol\":5796:5802  offers */\n      0x02\n        /* \"contracts/Ebay.sol\":5796:5815  offers[nextOfferId] */\n      0x00\n        /* \"contracts/Ebay.sol\":5803:5814  nextOfferId */\n      sload(0x03)\n        /* \"contracts/Ebay.sol\":5796:5815  offers[nextOfferId] */\n      dup2\n      mstore\n      0x20\n      add\n      swap1\n      dup2\n      mstore\n      0x20\n      add\n      0x00\n      keccak256\n        /* \"contracts/Ebay.sol\":5796:5936  offers[nextOfferId] = Offer(... */\n      0x00\n      dup3\n      add\n      mload\n      dup2\n      0x00\n      add\n      sstore\n      0x20\n      dup3\n      add\n      mload\n      dup2\n      0x01\n      add\n      sstore\n      0x40\n      dup3\n      add\n      mload\n      dup2\n      0x02\n      add\n      exp(0x0100, 0x00)\n      dup2\n      sload\n      dup2\n      0xffffffffffffffffffffffffffffffffffffffff\n      mul\n      not\n      and\n      swap1\n      dup4\n      0xffffffffffffffffffffffffffffffffffffffff\n      and\n      mul\n      or\n      swap1\n      sstore\n      pop\n      0x60\n      dup3\n      add\n      mload\n      dup2\n      0x03\n      add\n      sstore\n      swap1\n      pop\n      pop\n        /* \"contracts/Ebay.sol\":5947:5954  auction */\n      dup3\n        /* \"contracts/Ebay.sol\":5947:5963  auction.offerIds */\n      0x07\n      add\n        /* \"contracts/Ebay.sol\":5969:5980  nextOfferId */\n      sload(0x03)\n        /* \"contracts/Ebay.sol\":5947:5981  auction.offerIds.push(nextOfferId) */\n      swap1\n      dup1\n      0x01\n      dup2\n      sload\n      add\n      dup1\n      dup3\n      sstore\n      dup1\n      swap2\n      pop\n      pop\n      0x01\n      swap1\n      sub\n      swap1\n      0x00\n      mstore\n      keccak256(0x00, 0x20)\n      add\n      0x00\n      swap1\n      swap2\n      swap1\n      swap2\n      swap1\n      swap2\n      pop\n      sstore\n        /* \"contracts/Ebay.sol\":6110:6111  1 */\n      0x01\n        /* \"contracts/Ebay.sol\":6091:6107  newPossibleOffer */\n      dup2\n        /* \"contracts/Ebay.sol\":6091:6111  newPossibleOffer + 1 */\n      tag_174\n      swap2\n      swap1\n      tag_84\n      jump\t// in\n    tag_174:\n        /* \"contracts/Ebay.sol\":6063:6070  auction */\n      dup4\n        /* \"contracts/Ebay.sol\":6063:6088  auction.minimumOfferPrice */\n      0x04\n      add\n        /* \"contracts/Ebay.sol\":6063:6111  auction.minimumOfferPrice = newPossibleOffer + 1 */\n      dup2\n      swap1\n      sstore\n      pop\n        /* \"contracts/Ebay.sol\":6172:6182  userOffers */\n      0x05\n        /* \"contracts/Ebay.sol\":6172:6194  userOffers[msg.sender] */\n      0x00\n        /* \"contracts/Ebay.sol\":6183:6193  msg.sender */\n      caller\n        /* \"contracts/Ebay.sol\":6172:6194  userOffers[msg.sender] */\n      0xffffffffffffffffffffffffffffffffffffffff\n      and\n      0xffffffffffffffffffffffffffffffffffffffff\n      and\n      dup2\n      mstore\n      0x20\n      add\n      swap1\n      dup2\n      mstore\n      0x20\n      add\n      0x00\n      keccak256\n        /* \"contracts/Ebay.sol\":6200:6211  nextOfferId */\n      sload(0x03)\n        /* \"contracts/Ebay.sol\":6172:6212  userOffers[msg.sender].push(nextOfferId) */\n      swap1\n      dup1\n      0x01\n      dup2\n      sload\n      add\n      dup1\n      dup3\n      sstore\n      dup1\n      swap2\n      pop\n      pop\n      0x01\n      swap1\n      sub\n      swap1\n      0x00\n      mstore\n      keccak256(0x00, 0x20)\n      add\n      0x00\n      swap1\n      swap2\n      swap1\n      swap2\n      swap1\n      swap2\n      pop\n      sstore\n        /* \"contracts/Ebay.sol\":6262:6273  nextOfferId */\n      0x03\n      0x00\n        /* \"contracts/Ebay.sol\":6262:6275  nextOfferId++ */\n      dup2\n      sload\n      dup1\n      swap3\n      swap2\n      swap1\n      tag_176\n      swap1\n      tag_92\n      jump\t// in\n    tag_176:\n      swap2\n      swap1\n      pop\n      sstore\n      pop\n        /* \"contracts/Ebay.sol\":4721:6282  {   ... */\n      pop\n      pop\n      pop\n        /* \"contracts/Ebay.sol\":4504:6282  function createOffer(uint _auctionId)... */\n      pop\n      pop\n      jump\t// out\n        /* \"contracts/Ebay.sol\":8840:9392  function getAuctionOffers(uint _auctionId)... */\n    tag_48:\n        /* \"contracts/Ebay.sol\":8964:8978  Offer[] memory */\n      0x60\n        /* \"contracts/Ebay.sol\":8935:8945  _auctionId */\n      dup2\n        /* \"contracts/Ebay.sol\":1554:1555  0 */\n      0x00\n        /* \"contracts/Ebay.sol\":1541:1551  _auctionId */\n      dup2\n        /* \"contracts/Ebay.sol\":1541:1555  _auctionId > 0 */\n      gt\n        /* \"contracts/Ebay.sol\":1541:1585  _auctionId > 0 && _auctionId < nextAuctionId */\n      dup1\n      iszero\n      tag_178\n      jumpi\n      pop\n        /* \"contracts/Ebay.sol\":1572:1585  nextAuctionId */\n      sload(0x01)\n        /* \"contracts/Ebay.sol\":1559:1569  _auctionId */\n      dup2\n        /* \"contracts/Ebay.sol\":1559:1585  _auctionId < nextAuctionId */\n      lt\n        /* \"contracts/Ebay.sol\":1541:1585  _auctionId > 0 && _auctionId < nextAuctionId */\n    tag_178:\n        /* \"contracts/Ebay.sol\":1520:1633  require(... */\n      tag_179\n      jumpi\n      mload(0x40)\n      0x08c379a000000000000000000000000000000000000000000000000000000000\n      dup2\n      mstore\n      0x04\n      add\n      tag_180\n      swap1\n      tag_114\n      jump\t// in\n    tag_180:\n      mload(0x40)\n      dup1\n      swap2\n      sub\n      swap1\n      revert\n    tag_179:\n        /* \"contracts/Ebay.sol\":9026:9049  Auction storage auction */\n      0x00\n        /* \"contracts/Ebay.sol\":9052:9060  auctions */\n      dup1\n        /* \"contracts/Ebay.sol\":9052:9072  auctions[_auctionId] */\n      0x00\n        /* \"contracts/Ebay.sol\":9061:9071  _auctionId */\n      dup6\n        /* \"contracts/Ebay.sol\":9052:9072  auctions[_auctionId] */\n      dup2\n      mstore\n      0x20\n      add\n      swap1\n      dup2\n      mstore\n      0x20\n      add\n      0x00\n      keccak256\n        /* \"contracts/Ebay.sol\":9026:9072  Auction storage auction = auctions[_auctionId] */\n      swap1\n      pop\n        /* \"contracts/Ebay.sol\":9082:9112  uint[] storage auctionOfferIds */\n      0x00\n        /* \"contracts/Ebay.sol\":9115:9122  auction */\n      dup2\n        /* \"contracts/Ebay.sol\":9115:9131  auction.offerIds */\n      0x07\n      add\n        /* \"contracts/Ebay.sol\":9082:9131  uint[] storage auctionOfferIds = auction.offerIds */\n      swap1\n      pop\n        /* \"contracts/Ebay.sol\":9142:9164  Offer[] memory _offers */\n      0x00\n        /* \"contracts/Ebay.sol\":9179:9194  auctionOfferIds */\n      dup2\n        /* \"contracts/Ebay.sol\":9179:9201  auctionOfferIds.length */\n      dup1\n      sload\n      swap1\n      pop\n        /* \"contracts/Ebay.sol\":9167:9202  new Offer[](auctionOfferIds.length) */\n      0xffffffffffffffff\n      dup2\n      gt\n      iszero\n      tag_182\n      jumpi\n      tag_183\n      tag_81\n      jump\t// in\n    tag_183:\n    tag_182:\n      mload(0x40)\n      swap1\n      dup1\n      dup3\n      mstore\n      dup1\n      0x20\n      mul\n      0x20\n      add\n      dup3\n      add\n      0x40\n      mstore\n      dup1\n      iszero\n      tag_184\n      jumpi\n      dup2\n      0x20\n      add\n    tag_185:\n      tag_186\n      tag_99\n      jump\t// in\n    tag_186:\n      dup2\n      mstore\n      0x20\n      add\n      swap1\n      0x01\n      swap1\n      sub\n      swap1\n      dup2\n      tag_185\n      jumpi\n      swap1\n      pop\n    tag_184:\n      pop\n        /* \"contracts/Ebay.sol\":9142:9202  Offer[] memory _offers = new Offer[](auctionOfferIds.length) */\n      swap1\n      pop\n        /* \"contracts/Ebay.sol\":9217:9223  uint i */\n      0x00\n        /* \"contracts/Ebay.sol\":9212:9362  for (uint i = 0; i < auctionOfferIds.length; i++) {... */\n    tag_187:\n        /* \"contracts/Ebay.sol\":9233:9248  auctionOfferIds */\n      dup3\n        /* \"contracts/Ebay.sol\":9233:9255  auctionOfferIds.length */\n      dup1\n      sload\n      swap1\n      pop\n        /* \"contracts/Ebay.sol\":9229:9230  i */\n      dup2\n        /* \"contracts/Ebay.sol\":9229:9255  i < auctionOfferIds.length */\n      lt\n        /* \"contracts/Ebay.sol\":9212:9362  for (uint i = 0; i < auctionOfferIds.length; i++) {... */\n      iszero\n      tag_188\n      jumpi\n        /* \"contracts/Ebay.sol\":9276:9288  uint offerId */\n      0x00\n        /* \"contracts/Ebay.sol\":9291:9306  auctionOfferIds */\n      dup4\n        /* \"contracts/Ebay.sol\":9307:9308  i */\n      dup3\n        /* \"contracts/Ebay.sol\":9291:9309  auctionOfferIds[i] */\n      dup2\n      sload\n      dup2\n      lt\n      tag_190\n      jumpi\n      tag_191\n      tag_105\n      jump\t// in\n    tag_191:\n    tag_190:\n      swap1\n      0x00\n      mstore\n      keccak256(0x00, 0x20)\n      add\n      sload\n        /* \"contracts/Ebay.sol\":9276:9309  uint offerId = auctionOfferIds[i] */\n      swap1\n      pop\n        /* \"contracts/Ebay.sol\":9336:9342  offers */\n      0x02\n        /* \"contracts/Ebay.sol\":9336:9351  offers[offerId] */\n      0x00\n        /* \"contracts/Ebay.sol\":9343:9350  offerId */\n      dup3\n        /* \"contracts/Ebay.sol\":9336:9351  offers[offerId] */\n      dup2\n      mstore\n      0x20\n      add\n      swap1\n      dup2\n      mstore\n      0x20\n      add\n      0x00\n      keccak256\n        /* \"contracts/Ebay.sol\":9323:9351  _offers[i] = offers[offerId] */\n      mload(0x40)\n      dup1\n      0x80\n      add\n      0x40\n      mstore\n      swap1\n      dup2\n      0x00\n      dup3\n      add\n      sload\n      dup2\n      mstore\n      0x20\n      add\n      0x01\n      dup3\n      add\n      sload\n      dup2\n      mstore\n      0x20\n      add\n      0x02\n      dup3\n      add\n      0x00\n      swap1\n      sload\n      swap1\n      0x0100\n      exp\n      swap1\n      div\n      0xffffffffffffffffffffffffffffffffffffffff\n      and\n      0xffffffffffffffffffffffffffffffffffffffff\n      and\n      0xffffffffffffffffffffffffffffffffffffffff\n      and\n      dup2\n      mstore\n      0x20\n      add\n      0x03\n      dup3\n      add\n      sload\n      dup2\n      mstore\n      pop\n      pop\n        /* \"contracts/Ebay.sol\":9323:9330  _offers */\n      dup4\n        /* \"contracts/Ebay.sol\":9331:9332  i */\n      dup4\n        /* \"contracts/Ebay.sol\":9323:9333  _offers[i] */\n      dup2\n      mload\n      dup2\n      lt\n      tag_193\n      jumpi\n      tag_194\n      tag_105\n      jump\t// in\n    tag_194:\n    tag_193:\n      0x20\n      mul\n      0x20\n      add\n      add\n        /* \"contracts/Ebay.sol\":9323:9351  _offers[i] = offers[offerId] */\n      dup2\n      swap1\n      mstore\n      pop\n        /* \"contracts/Ebay.sol\":9262:9362  {... */\n      pop\n        /* \"contracts/Ebay.sol\":9257:9260  i++ */\n      dup1\n      dup1\n      tag_195\n      swap1\n      tag_92\n      jump\t// in\n    tag_195:\n      swap2\n      pop\n      pop\n        /* \"contracts/Ebay.sol\":9212:9362  for (uint i = 0; i < auctionOfferIds.length; i++) {... */\n      jump(tag_187)\n    tag_188:\n      pop\n        /* \"contracts/Ebay.sol\":9378:9385  _offers */\n      dup1\n        /* \"contracts/Ebay.sol\":9371:9385  return _offers */\n      swap5\n      pop\n      pop\n      pop\n      pop\n        /* \"contracts/Ebay.sol\":8840:9392  function getAuctionOffers(uint _auctionId)... */\n      pop\n      swap2\n      swap1\n      pop\n      jump\t// out\n        /* \"contracts/Ebay.sol\":7437:7710  function getAuctions() external view returns (Auction[] memory) {... */\n    tag_52:\n        /* \"contracts/Ebay.sol\":7483:7499  Auction[] memory */\n      0x60\n        /* \"contracts/Ebay.sol\":7511:7537  Auction[] memory _auctions */\n      0x00\n        /* \"contracts/Ebay.sol\":7570:7571  1 */\n      0x01\n        /* \"contracts/Ebay.sol\":7554:7567  nextAuctionId */\n      dup1\n      sload\n        /* \"contracts/Ebay.sol\":7554:7571  nextAuctionId - 1 */\n      tag_197\n      swap2\n      swap1\n      tag_198\n      jump\t// in\n    tag_197:\n        /* \"contracts/Ebay.sol\":7540:7572  new Auction[](nextAuctionId - 1) */\n      0xffffffffffffffff\n      dup2\n      gt\n      iszero\n      tag_199\n      jumpi\n      tag_200\n      tag_81\n      jump\t// in\n    tag_200:\n    tag_199:\n      mload(0x40)\n      swap1\n      dup1\n      dup3\n      mstore\n      dup1\n      0x20\n      mul\n      0x20\n      add\n      dup3\n      add\n      0x40\n      mstore\n      dup1\n      iszero\n      tag_201\n      jumpi\n      dup2\n      0x20\n      add\n    tag_202:\n      tag_203\n      tag_204\n      jump\t// in\n    tag_203:\n      dup2\n      mstore\n      0x20\n      add\n      swap1\n      0x01\n      swap1\n      sub\n      swap1\n      dup2\n      tag_202\n      jumpi\n      swap1\n      pop\n    tag_201:\n      pop\n        /* \"contracts/Ebay.sol\":7511:7572  Auction[] memory _auctions = new Auction[](nextAuctionId - 1) */\n      swap1\n      pop\n        /* \"contracts/Ebay.sol\":7587:7593  uint i */\n      0x00\n        /* \"contracts/Ebay.sol\":7596:7597  1 */\n      0x01\n        /* \"contracts/Ebay.sol\":7587:7597  uint i = 1 */\n      swap1\n      pop\n        /* \"contracts/Ebay.sol\":7582:7678  for (uint i = 1; i < nextAuctionId; i++) {... */\n    tag_205:\n        /* \"contracts/Ebay.sol\":7603:7616  nextAuctionId */\n      sload(0x01)\n        /* \"contracts/Ebay.sol\":7599:7600  i */\n      dup2\n        /* \"contracts/Ebay.sol\":7599:7616  i < nextAuctionId */\n      lt\n        /* \"contracts/Ebay.sol\":7582:7678  for (uint i = 1; i < nextAuctionId; i++) {... */\n      iszero\n      tag_206\n      jumpi\n        /* \"contracts/Ebay.sol\":7656:7664  auctions */\n      0x00\n        /* \"contracts/Ebay.sol\":7656:7667  auctions[i] */\n      dup1\n        /* \"contracts/Ebay.sol\":7665:7666  i */\n      dup3\n        /* \"contracts/Ebay.sol\":7656:7667  auctions[i] */\n      dup2\n      mstore\n      0x20\n      add\n      swap1\n      dup2\n      mstore\n      0x20\n      add\n      0x00\n      keccak256\n        /* \"contracts/Ebay.sol\":7637:7667  _auctions[i - 1] = auctions[i] */\n      mload(0x40)\n      dup1\n      0x0100\n      add\n      0x40\n      mstore\n      swap1\n      dup2\n      0x00\n      dup3\n      add\n      sload\n      dup2\n      mstore\n      0x20\n      add\n      0x01\n      dup3\n      add\n      0x00\n      swap1\n      sload\n      swap1\n      0x0100\n      exp\n      swap1\n      div\n      0xffffffffffffffffffffffffffffffffffffffff\n      and\n      0xffffffffffffffffffffffffffffffffffffffff\n      and\n      0xffffffffffffffffffffffffffffffffffffffff\n      and\n      dup2\n      mstore\n      0x20\n      add\n      0x02\n      dup3\n      add\n      dup1\n      sload\n      tag_208\n      swap1\n      tag_65\n      jump\t// in\n    tag_208:\n      dup1\n      0x1f\n      add\n      0x20\n      dup1\n      swap2\n      div\n      mul\n      0x20\n      add\n      mload(0x40)\n      swap1\n      dup2\n      add\n      0x40\n      mstore\n      dup1\n      swap3\n      swap2\n      swap1\n      dup2\n      dup2\n      mstore\n      0x20\n      add\n      dup3\n      dup1\n      sload\n      tag_209\n      swap1\n      tag_65\n      jump\t// in\n    tag_209:\n      dup1\n      iszero\n      tag_210\n      jumpi\n      dup1\n      0x1f\n      lt\n      tag_211\n      jumpi\n      0x0100\n      dup1\n      dup4\n      sload\n      div\n      mul\n      dup4\n      mstore\n      swap2\n      0x20\n      add\n      swap2\n      jump(tag_210)\n    tag_211:\n      dup3\n      add\n      swap2\n      swap1\n      0x00\n      mstore\n      keccak256(0x00, 0x20)\n      swap1\n    tag_212:\n      dup2\n      sload\n      dup2\n      mstore\n      swap1\n      0x01\n      add\n      swap1\n      0x20\n      add\n      dup1\n      dup4\n      gt\n      tag_212\n      jumpi\n      dup3\n      swap1\n      sub\n      0x1f\n      and\n      dup3\n      add\n      swap2\n    tag_210:\n      pop\n      pop\n      pop\n      pop\n      pop\n      dup2\n      mstore\n      0x20\n      add\n      0x03\n      dup3\n      add\n      dup1\n      sload\n      tag_213\n      swap1\n      tag_65\n      jump\t// in\n    tag_213:\n      dup1\n      0x1f\n      add\n      0x20\n      dup1\n      swap2\n      div\n      mul\n      0x20\n      add\n      mload(0x40)\n      swap1\n      dup2\n      add\n      0x40\n      mstore\n      dup1\n      swap3\n      swap2\n      swap1\n      dup2\n      dup2\n      mstore\n      0x20\n      add\n      dup3\n      dup1\n      sload\n      tag_214\n      swap1\n      tag_65\n      jump\t// in\n    tag_214:\n      dup1\n      iszero\n      tag_215\n      jumpi\n      dup1\n      0x1f\n      lt\n      tag_216\n      jumpi\n      0x0100\n      dup1\n      dup4\n      sload\n      div\n      mul\n      dup4\n      mstore\n      swap2\n      0x20\n      add\n      swap2\n      jump(tag_215)\n    tag_216:\n      dup3\n      add\n      swap2\n      swap1\n      0x00\n      mstore\n      keccak256(0x00, 0x20)\n      swap1\n    tag_217:\n      dup2\n      sload\n      dup2\n      mstore\n      swap1\n      0x01\n      add\n      swap1\n      0x20\n      add\n      dup1\n      dup4\n      gt\n      tag_217\n      jumpi\n      dup3\n      swap1\n      sub\n      0x1f\n      and\n      dup3\n      add\n      swap2\n    tag_215:\n      pop\n      pop\n      pop\n      pop\n      pop\n      dup2\n      mstore\n      0x20\n      add\n      0x04\n      dup3\n      add\n      sload\n      dup2\n      mstore\n      0x20\n      add\n      0x05\n      dup3\n      add\n      sload\n      dup2\n      mstore\n      0x20\n      add\n      0x06\n      dup3\n      add\n      sload\n      dup2\n      mstore\n      0x20\n      add\n      0x07\n      dup3\n      add\n      dup1\n      sload\n      dup1\n      0x20\n      mul\n      0x20\n      add\n      mload(0x40)\n      swap1\n      dup2\n      add\n      0x40\n      mstore\n      dup1\n      swap3\n      swap2\n      swap1\n      dup2\n      dup2\n      mstore\n      0x20\n      add\n      dup3\n      dup1\n      sload\n      dup1\n      iszero\n      tag_218\n      jumpi\n      0x20\n      mul\n      dup3\n      add\n      swap2\n      swap1\n      0x00\n      mstore\n      keccak256(0x00, 0x20)\n      swap1\n    tag_219:\n      dup2\n      sload\n      dup2\n      mstore\n      0x20\n      add\n      swap1\n      0x01\n      add\n      swap1\n      dup1\n      dup4\n      gt\n      tag_219\n      jumpi\n    tag_218:\n      pop\n      pop\n      pop\n      pop\n      pop\n      dup2\n      mstore\n      pop\n      pop\n        /* \"contracts/Ebay.sol\":7637:7646  _auctions */\n      dup3\n        /* \"contracts/Ebay.sol\":7651:7652  1 */\n      0x01\n        /* \"contracts/Ebay.sol\":7647:7648  i */\n      dup4\n        /* \"contracts/Ebay.sol\":7647:7652  i - 1 */\n      tag_220\n      swap2\n      swap1\n      tag_198\n      jump\t// in\n    tag_220:\n        /* \"contracts/Ebay.sol\":7637:7653  _auctions[i - 1] */\n      dup2\n      mload\n      dup2\n      lt\n      tag_221\n      jumpi\n      tag_222\n      tag_105\n      jump\t// in\n    tag_222:\n    tag_221:\n      0x20\n      mul\n      0x20\n      add\n      add\n        /* \"contracts/Ebay.sol\":7637:7667  _auctions[i - 1] = auctions[i] */\n      dup2\n      swap1\n      mstore\n      pop\n        /* \"contracts/Ebay.sol\":7618:7621  i++ */\n      dup1\n      dup1\n      tag_223\n      swap1\n      tag_92\n      jump\t// in\n    tag_223:\n      swap2\n      pop\n      pop\n        /* \"contracts/Ebay.sol\":7582:7678  for (uint i = 1; i < nextAuctionId; i++) {... */\n      jump(tag_205)\n    tag_206:\n      pop\n        /* \"contracts/Ebay.sol\":7694:7703  _auctions */\n      dup1\n        /* \"contracts/Ebay.sol\":7687:7703  return _auctions */\n      swap2\n      pop\n      pop\n        /* \"contracts/Ebay.sol\":7437:7710  function getAuctions() external view returns (Auction[] memory) {... */\n      swap1\n      jump\t// out\n        /* \"contracts/Ebay.sol\":6379:7336  function trade(uint _auctionId) external auctionExists(_auctionId) {... */\n    tag_58:\n        /* \"contracts/Ebay.sol\":6434:6444  _auctionId */\n      dup1\n        /* \"contracts/Ebay.sol\":1554:1555  0 */\n      0x00\n        /* \"contracts/Ebay.sol\":1541:1551  _auctionId */\n      dup2\n        /* \"contracts/Ebay.sol\":1541:1555  _auctionId > 0 */\n      gt\n        /* \"contracts/Ebay.sol\":1541:1585  _auctionId > 0 && _auctionId < nextAuctionId */\n      dup1\n      iszero\n      tag_225\n      jumpi\n      pop\n        /* \"contracts/Ebay.sol\":1572:1585  nextAuctionId */\n      sload(0x01)\n        /* \"contracts/Ebay.sol\":1559:1569  _auctionId */\n      dup2\n        /* \"contracts/Ebay.sol\":1559:1585  _auctionId < nextAuctionId */\n      lt\n        /* \"contracts/Ebay.sol\":1541:1585  _auctionId > 0 && _auctionId < nextAuctionId */\n    tag_225:\n        /* \"contracts/Ebay.sol\":1520:1633  require(... */\n      tag_226\n      jumpi\n      mload(0x40)\n      0x08c379a000000000000000000000000000000000000000000000000000000000\n      dup2\n      mstore\n      0x04\n      add\n      tag_227\n      swap1\n      tag_114\n      jump\t// in\n    tag_227:\n      mload(0x40)\n      dup1\n      swap2\n      sub\n      swap1\n      revert\n    tag_226:\n        /* \"contracts/Ebay.sol\":6488:6511  Auction storage auction */\n      0x00\n        /* \"contracts/Ebay.sol\":6514:6522  auctions */\n      dup1\n        /* \"contracts/Ebay.sol\":6514:6534  auctions[_auctionId] */\n      0x00\n        /* \"contracts/Ebay.sol\":6523:6533  _auctionId */\n      dup5\n        /* \"contracts/Ebay.sol\":6514:6534  auctions[_auctionId] */\n      dup2\n      mstore\n      0x20\n      add\n      swap1\n      dup2\n      mstore\n      0x20\n      add\n      0x00\n      keccak256\n        /* \"contracts/Ebay.sol\":6488:6534  Auction storage auction = auctions[_auctionId] */\n      swap1\n      pop\n        /* \"contracts/Ebay.sol\":6580:6603  Offer storage bestOffer */\n      0x00\n        /* \"contracts/Ebay.sol\":6606:6612  offers */\n      0x02\n        /* \"contracts/Ebay.sol\":6606:6633  offers[auction.bestOfferId] */\n      0x00\n        /* \"contracts/Ebay.sol\":6613:6620  auction */\n      dup4\n        /* \"contracts/Ebay.sol\":6613:6632  auction.bestOfferId */\n      0x06\n      add\n      sload\n        /* \"contracts/Ebay.sol\":6606:6633  offers[auction.bestOfferId] */\n      dup2\n      mstore\n      0x20\n      add\n      swap1\n      dup2\n      mstore\n      0x20\n      add\n      0x00\n      keccak256\n        /* \"contracts/Ebay.sol\":6580:6633  Offer storage bestOffer = offers[auction.bestOfferId] */\n      swap1\n      pop\n        /* \"contracts/Ebay.sol\":6721:6728  auction */\n      dup2\n        /* \"contracts/Ebay.sol\":6721:6739  auction.auctionEnd */\n      0x05\n      add\n      sload\n        /* \"contracts/Ebay.sol\":6703:6718  block.timestamp */\n      timestamp\n        /* \"contracts/Ebay.sol\":6703:6739  block.timestamp > auction.auctionEnd */\n      gt\n        /* \"contracts/Ebay.sol\":6682:6788  require(... */\n      tag_229\n      jumpi\n      mload(0x40)\n      0x08c379a000000000000000000000000000000000000000000000000000000000\n      dup2\n      mstore\n      0x04\n      add\n      tag_230\n      swap1\n      tag_231\n      jump\t// in\n    tag_230:\n      mload(0x40)\n      dup1\n      swap2\n      sub\n      swap1\n      revert\n    tag_229:\n        /* \"contracts/Ebay.sol\":6843:6849  uint i */\n      0x00\n        /* \"contracts/Ebay.sol\":6838:7215  for (uint i = 0; i < auction.offerIds.length; i++) {... */\n    tag_232:\n        /* \"contracts/Ebay.sol\":6859:6866  auction */\n      dup3\n        /* \"contracts/Ebay.sol\":6859:6875  auction.offerIds */\n      0x07\n      add\n        /* \"contracts/Ebay.sol\":6859:6882  auction.offerIds.length */\n      dup1\n      sload\n      swap1\n      pop\n        /* \"contracts/Ebay.sol\":6855:6856  i */\n      dup2\n        /* \"contracts/Ebay.sol\":6855:6882  i < auction.offerIds.length */\n      lt\n        /* \"contracts/Ebay.sol\":6838:7215  for (uint i = 0; i < auction.offerIds.length; i++) {... */\n      iszero\n      tag_233\n      jumpi\n        /* \"contracts/Ebay.sol\":6903:6915  uint offerId */\n      0x00\n        /* \"contracts/Ebay.sol\":6918:6925  auction */\n      dup4\n        /* \"contracts/Ebay.sol\":6918:6934  auction.offerIds */\n      0x07\n      add\n        /* \"contracts/Ebay.sol\":6935:6936  i */\n      dup3\n        /* \"contracts/Ebay.sol\":6918:6937  auction.offerIds[i] */\n      dup2\n      sload\n      dup2\n      lt\n      tag_235\n      jumpi\n      tag_236\n      tag_105\n      jump\t// in\n    tag_236:\n    tag_235:\n      swap1\n      0x00\n      mstore\n      keccak256(0x00, 0x20)\n      add\n      sload\n        /* \"contracts/Ebay.sol\":6903:6937  uint offerId = auction.offerIds[i] */\n      swap1\n      pop\n        /* \"contracts/Ebay.sol\":6951:6970  Offer storage offer */\n      0x00\n        /* \"contracts/Ebay.sol\":6973:6979  offers */\n      0x02\n        /* \"contracts/Ebay.sol\":6973:6988  offers[offerId] */\n      0x00\n        /* \"contracts/Ebay.sol\":6980:6987  offerId */\n      dup4\n        /* \"contracts/Ebay.sol\":6973:6988  offers[offerId] */\n      dup2\n      mstore\n      0x20\n      add\n      swap1\n      dup2\n      mstore\n      0x20\n      add\n      0x00\n      keccak256\n        /* \"contracts/Ebay.sol\":6951:6988  Offer storage offer = offers[offerId] */\n      swap1\n      pop\n        /* \"contracts/Ebay.sol\":7111:7120  bestOffer */\n      dup4\n        /* \"contracts/Ebay.sol\":7111:7123  bestOffer.id */\n      0x00\n      add\n      sload\n        /* \"contracts/Ebay.sol\":7100:7107  offerId */\n      dup3\n        /* \"contracts/Ebay.sol\":7100:7123  offerId != bestOffer.id */\n      eq\n        /* \"contracts/Ebay.sol\":7096:7205  if (offerId != bestOffer.id) {... */\n      tag_238\n      jumpi\n        /* \"contracts/Ebay.sol\":7151:7156  offer */\n      dup1\n        /* \"contracts/Ebay.sol\":7151:7162  offer.buyer */\n      0x02\n      add\n      0x00\n      swap1\n      sload\n      swap1\n      0x0100\n      exp\n      swap1\n      div\n      0xffffffffffffffffffffffffffffffffffffffff\n      and\n        /* \"contracts/Ebay.sol\":7143:7172  payable(offer.buyer).transfer */\n      0xffffffffffffffffffffffffffffffffffffffff\n      and\n        /* \"contracts/Ebay.sol\":7143:7190  payable(offer.buyer).transfer(offer.offerPrice) */\n      0x08fc\n        /* \"contracts/Ebay.sol\":7173:7178  offer */\n      dup3\n        /* \"contracts/Ebay.sol\":7173:7189  offer.offerPrice */\n      0x03\n      add\n      sload\n        /* \"contracts/Ebay.sol\":7143:7190  payable(offer.buyer).transfer(offer.offerPrice) */\n      swap1\n      dup2\n      iszero\n      mul\n      swap1\n      mload(0x40)\n      0x00\n      mload(0x40)\n      dup1\n      dup4\n      sub\n      dup2\n      dup6\n      dup9\n      dup9\n      call\n      swap4\n      pop\n      pop\n      pop\n      pop\n      iszero\n      dup1\n      iszero\n      tag_240\n      jumpi\n      returndatasize\n      0x00\n      dup1\n      returndatacopy\n      revert(0x00, returndatasize)\n    tag_240:\n      pop\n        /* \"contracts/Ebay.sol\":7096:7205  if (offerId != bestOffer.id) {... */\n    tag_238:\n        /* \"contracts/Ebay.sol\":6889:7215  {... */\n      pop\n      pop\n        /* \"contracts/Ebay.sol\":6884:6887  i++ */\n      dup1\n      dup1\n      tag_241\n      swap1\n      tag_92\n      jump\t// in\n    tag_241:\n      swap2\n      pop\n      pop\n        /* \"contracts/Ebay.sol\":6838:7215  for (uint i = 0; i < auction.offerIds.length; i++) {... */\n      jump(tag_232)\n    tag_233:\n      pop\n        /* \"contracts/Ebay.sol\":7283:7290  auction */\n      dup2\n        /* \"contracts/Ebay.sol\":7283:7297  auction.seller */\n      0x01\n      add\n      0x00\n      swap1\n      sload\n      swap1\n      0x0100\n      exp\n      swap1\n      div\n      0xffffffffffffffffffffffffffffffffffffffff\n      and\n        /* \"contracts/Ebay.sol\":7275:7307  payable(auction.seller).transfer */\n      0xffffffffffffffffffffffffffffffffffffffff\n      and\n        /* \"contracts/Ebay.sol\":7275:7329  payable(auction.seller).transfer(bestOffer.offerPrice) */\n      0x08fc\n        /* \"contracts/Ebay.sol\":7308:7317  bestOffer */\n      dup3\n        /* \"contracts/Ebay.sol\":7308:7328  bestOffer.offerPrice */\n      0x03\n      add\n      sload\n        /* \"contracts/Ebay.sol\":7275:7329  payable(auction.seller).transfer(bestOffer.offerPrice) */\n      swap1\n      dup2\n      iszero\n      mul\n      swap1\n      mload(0x40)\n      0x00\n      mload(0x40)\n      dup1\n      dup4\n      sub\n      dup2\n      dup6\n      dup9\n      dup9\n      call\n      swap4\n      pop\n      pop\n      pop\n      pop\n      iszero\n      dup1\n      iszero\n      tag_243\n      jumpi\n      returndatasize\n      0x00\n      dup1\n      returndatacopy\n      revert(0x00, returndatasize)\n    tag_243:\n      pop\n        /* \"contracts/Ebay.sol\":6446:7336  {... */\n      pop\n      pop\n        /* \"contracts/Ebay.sol\":6379:7336  function trade(uint _auctionId) external auctionExists(_auctionId) {... */\n      pop\n      pop\n      jump\t// out\n        /* \"contracts/Ebay.sol\":7802:8245  function getUserAuctions(address _user)... */\n    tag_62:\n        /* \"contracts/Ebay.sol\":7889:7905  Auction[] memory */\n      0x60\n        /* \"contracts/Ebay.sol\":7921:7950  uint[] storage userAuctionIds */\n      0x00\n        /* \"contracts/Ebay.sol\":7953:7965  userAuctions */\n      0x04\n        /* \"contracts/Ebay.sol\":7953:7972  userAuctions[_user] */\n      0x00\n        /* \"contracts/Ebay.sol\":7966:7971  _user */\n      dup5\n        /* \"contracts/Ebay.sol\":7953:7972  userAuctions[_user] */\n      0xffffffffffffffffffffffffffffffffffffffff\n      and\n      0xffffffffffffffffffffffffffffffffffffffff\n      and\n      dup2\n      mstore\n      0x20\n      add\n      swap1\n      dup2\n      mstore\n      0x20\n      add\n      0x00\n      keccak256\n        /* \"contracts/Ebay.sol\":7921:7972  uint[] storage userAuctionIds = userAuctions[_user] */\n      swap1\n      pop\n        /* \"contracts/Ebay.sol\":7982:8008  Auction[] memory _auctions */\n      0x00\n        /* \"contracts/Ebay.sol\":8025:8039  userAuctionIds */\n      dup2\n        /* \"contracts/Ebay.sol\":8025:8046  userAuctionIds.length */\n      dup1\n      sload\n      swap1\n      pop\n        /* \"contracts/Ebay.sol\":8011:8047  new Auction[](userAuctionIds.length) */\n      0xffffffffffffffff\n      dup2\n      gt\n      iszero\n      tag_245\n      jumpi\n      tag_246\n      tag_81\n      jump\t// in\n    tag_246:\n    tag_245:\n      mload(0x40)\n      swap1\n      dup1\n      dup3\n      mstore\n      dup1\n      0x20\n      mul\n      0x20\n      add\n      dup3\n      add\n      0x40\n      mstore\n      dup1\n      iszero\n      tag_247\n      jumpi\n      dup2\n      0x20\n      add\n    tag_248:\n      tag_249\n      tag_204\n      jump\t// in\n    tag_249:\n      dup2\n      mstore\n      0x20\n      add\n      swap1\n      0x01\n      swap1\n      sub\n      swap1\n      dup2\n      tag_248\n      jumpi\n      swap1\n      pop\n    tag_247:\n      pop\n        /* \"contracts/Ebay.sol\":7982:8047  Auction[] memory _auctions = new Auction[](userAuctionIds.length) */\n      swap1\n      pop\n        /* \"contracts/Ebay.sol\":8062:8068  uint i */\n      0x00\n        /* \"contracts/Ebay.sol\":8057:8213  for (uint i = 0; i < userAuctionIds.length; i++) {... */\n    tag_250:\n        /* \"contracts/Ebay.sol\":8078:8092  userAuctionIds */\n      dup3\n        /* \"contracts/Ebay.sol\":8078:8099  userAuctionIds.length */\n      dup1\n      sload\n      swap1\n      pop\n        /* \"contracts/Ebay.sol\":8074:8075  i */\n      dup2\n        /* \"contracts/Ebay.sol\":8074:8099  i < userAuctionIds.length */\n      lt\n        /* \"contracts/Ebay.sol\":8057:8213  for (uint i = 0; i < userAuctionIds.length; i++) {... */\n      iszero\n      tag_251\n      jumpi\n        /* \"contracts/Ebay.sol\":8120:8134  uint auctionId */\n      0x00\n        /* \"contracts/Ebay.sol\":8137:8151  userAuctionIds */\n      dup4\n        /* \"contracts/Ebay.sol\":8152:8153  i */\n      dup3\n        /* \"contracts/Ebay.sol\":8137:8154  userAuctionIds[i] */\n      dup2\n      sload\n      dup2\n      lt\n      tag_253\n      jumpi\n      tag_254\n      tag_105\n      jump\t// in\n    tag_254:\n    tag_253:\n      swap1\n      0x00\n      mstore\n      keccak256(0x00, 0x20)\n      add\n      sload\n        /* \"contracts/Ebay.sol\":8120:8154  uint auctionId = userAuctionIds[i] */\n      swap1\n      pop\n        /* \"contracts/Ebay.sol\":8183:8191  auctions */\n      0x00\n        /* \"contracts/Ebay.sol\":8183:8202  auctions[auctionId] */\n      dup1\n        /* \"contracts/Ebay.sol\":8192:8201  auctionId */\n      dup3\n        /* \"contracts/Ebay.sol\":8183:8202  auctions[auctionId] */\n      dup2\n      mstore\n      0x20\n      add\n      swap1\n      dup2\n      mstore\n      0x20\n      add\n      0x00\n      keccak256\n        /* \"contracts/Ebay.sol\":8168:8202  _auctions[i] = auctions[auctionId] */\n      mload(0x40)\n      dup1\n      0x0100\n      add\n      0x40\n      mstore\n      swap1\n      dup2\n      0x00\n      dup3\n      add\n      sload\n      dup2\n      mstore\n      0x20\n      add\n      0x01\n      dup3\n      add\n      0x00\n      swap1\n      sload\n      swap1\n      0x0100\n      exp\n      swap1\n      div\n      0xffffffffffffffffffffffffffffffffffffffff\n      and\n      0xffffffffffffffffffffffffffffffffffffffff\n      and\n      0xffffffffffffffffffffffffffffffffffffffff\n      and\n      dup2\n      mstore\n      0x20\n      add\n      0x02\n      dup3\n      add\n      dup1\n      sload\n      tag_256\n      swap1\n      tag_65\n      jump\t// in\n    tag_256:\n      dup1\n      0x1f\n      add\n      0x20\n      dup1\n      swap2\n      div\n      mul\n      0x20\n      add\n      mload(0x40)\n      swap1\n      dup2\n      add\n      0x40\n      mstore\n      dup1\n      swap3\n      swap2\n      swap1\n      dup2\n      dup2\n      mstore\n      0x20\n      add\n      dup3\n      dup1\n      sload\n      tag_257\n      swap1\n      tag_65\n      jump\t// in\n    tag_257:\n      dup1\n      iszero\n      tag_258\n      jumpi\n      dup1\n      0x1f\n      lt\n      tag_259\n      jumpi\n      0x0100\n      dup1\n      dup4\n      sload\n      div\n      mul\n      dup4\n      mstore\n      swap2\n      0x20\n      add\n      swap2\n      jump(tag_258)\n    tag_259:\n      dup3\n      add\n      swap2\n      swap1\n      0x00\n      mstore\n      keccak256(0x00, 0x20)\n      swap1\n    tag_260:\n      dup2\n      sload\n      dup2\n      mstore\n      swap1\n      0x01\n      add\n      swap1\n      0x20\n      add\n      dup1\n      dup4\n      gt\n      tag_260\n      jumpi\n      dup3\n      swap1\n      sub\n      0x1f\n      and\n      dup3\n      add\n      swap2\n    tag_258:\n      pop\n      pop\n      pop\n      pop\n      pop\n      dup2\n      mstore\n      0x20\n      add\n      0x03\n      dup3\n      add\n      dup1\n      sload\n      tag_261\n      swap1\n      tag_65\n      jump\t// in\n    tag_261:\n      dup1\n      0x1f\n      add\n      0x20\n      dup1\n      swap2\n      div\n      mul\n      0x20\n      add\n      mload(0x40)\n      swap1\n      dup2\n      add\n      0x40\n      mstore\n      dup1\n      swap3\n      swap2\n      swap1\n      dup2\n      dup2\n      mstore\n      0x20\n      add\n      dup3\n      dup1\n      sload\n      tag_262\n      swap1\n      tag_65\n      jump\t// in\n    tag_262:\n      dup1\n      iszero\n      tag_263\n      jumpi\n      dup1\n      0x1f\n      lt\n      tag_264\n      jumpi\n      0x0100\n      dup1\n      dup4\n      sload\n      div\n      mul\n      dup4\n      mstore\n      swap2\n      0x20\n      add\n      swap2\n      jump(tag_263)\n    tag_264:\n      dup3\n      add\n      swap2\n      swap1\n      0x00\n      mstore\n      keccak256(0x00, 0x20)\n      swap1\n    tag_265:\n      dup2\n      sload\n      dup2\n      mstore\n      swap1\n      0x01\n      add\n      swap1\n      0x20\n      add\n      dup1\n      dup4\n      gt\n      tag_265\n      jumpi\n      dup3\n      swap1\n      sub\n      0x1f\n      and\n      dup3\n      add\n      swap2\n    tag_263:\n      pop\n      pop\n      pop\n      pop\n      pop\n      dup2\n      mstore\n      0x20\n      add\n      0x04\n      dup3\n      add\n      sload\n      dup2\n      mstore\n      0x20\n      add\n      0x05\n      dup3\n      add\n      sload\n      dup2\n      mstore\n      0x20\n      add\n      0x06\n      dup3\n      add\n      sload\n      dup2\n      mstore\n      0x20\n      add\n      0x07\n      dup3\n      add\n      dup1\n      sload\n      dup1\n      0x20\n      mul\n      0x20\n      add\n      mload(0x40)\n      swap1\n      dup2\n      add\n      0x40\n      mstore\n      dup1\n      swap3\n      swap2\n      swap1\n      dup2\n      dup2\n      mstore\n      0x20\n      add\n      dup3\n      dup1\n      sload\n      dup1\n      iszero\n      tag_266\n      jumpi\n      0x20\n      mul\n      dup3\n      add\n      swap2\n      swap1\n      0x00\n      mstore\n      keccak256(0x00, 0x20)\n      swap1\n    tag_267:\n      dup2\n      sload\n      dup2\n      mstore\n      0x20\n      add\n      swap1\n      0x01\n      add\n      swap1\n      dup1\n      dup4\n      gt\n      tag_267\n      jumpi\n    tag_266:\n      pop\n      pop\n      pop\n      pop\n      pop\n      dup2\n      mstore\n      pop\n      pop\n        /* \"contracts/Ebay.sol\":8168:8177  _auctions */\n      dup4\n        /* \"contracts/Ebay.sol\":8178:8179  i */\n      dup4\n        /* \"contracts/Ebay.sol\":8168:8180  _auctions[i] */\n      dup2\n      mload\n      dup2\n      lt\n      tag_268\n      jumpi\n      tag_269\n      tag_105\n      jump\t// in\n    tag_269:\n    tag_268:\n      0x20\n      mul\n      0x20\n      add\n      add\n        /* \"contracts/Ebay.sol\":8168:8202  _auctions[i] = auctions[auctionId] */\n      dup2\n      swap1\n      mstore\n      pop\n        /* \"contracts/Ebay.sol\":8106:8213  {... */\n      pop\n        /* \"contracts/Ebay.sol\":8101:8104  i++ */\n      dup1\n      dup1\n      tag_270\n      swap1\n      tag_92\n      jump\t// in\n    tag_270:\n      swap2\n      pop\n      pop\n        /* \"contracts/Ebay.sol\":8057:8213  for (uint i = 0; i < userAuctionIds.length; i++) {... */\n      jump(tag_250)\n    tag_251:\n      pop\n        /* \"contracts/Ebay.sol\":8229:8238  _auctions */\n      dup1\n        /* \"contracts/Ebay.sol\":8222:8238  return _auctions */\n      swap3\n      pop\n      pop\n      pop\n        /* \"contracts/Ebay.sol\":7802:8245  function getUserAuctions(address _user)... */\n      swap2\n      swap1\n      pop\n      jump\t// out\n    tag_89:\n      dup3\n      dup1\n      sload\n      dup3\n      dup3\n      sstore\n      swap1\n      0x00\n      mstore\n      keccak256(0x00, 0x20)\n      swap1\n      dup2\n      add\n      swap3\n      dup3\n      iszero\n      tag_271\n      jumpi\n      swap2\n      0x20\n      mul\n      dup3\n      add\n    tag_272:\n      dup3\n      dup2\n      gt\n      iszero\n      tag_273\n      jumpi\n      dup3\n      mload\n      dup3\n      sstore\n      swap2\n      0x20\n      add\n      swap2\n      swap1\n      0x01\n      add\n      swap1\n      jump(tag_272)\n    tag_273:\n    tag_271:\n      pop\n      swap1\n      pop\n      tag_274\n      swap2\n      swap1\n      tag_275\n      jump\t// in\n    tag_274:\n      pop\n      swap1\n      jump\t// out\n    tag_99:\n      mload(0x40)\n      dup1\n      0x80\n      add\n      0x40\n      mstore\n      dup1\n      0x00\n      dup2\n      mstore\n      0x20\n      add\n      0x00\n      dup2\n      mstore\n      0x20\n      add\n      and(0xffffffffffffffffffffffffffffffffffffffff, 0x00)\n      dup2\n      mstore\n      0x20\n      add\n      0x00\n      dup2\n      mstore\n      pop\n      swap1\n      jump\t// out\n    tag_148:\n      pop\n      dup1\n      sload\n      tag_276\n      swap1\n      tag_65\n      jump\t// in\n    tag_276:\n      0x00\n      dup3\n      sstore\n      dup1\n      0x1f\n      lt\n      tag_278\n      jumpi\n      pop\n      jump(tag_277)\n    tag_278:\n      0x1f\n      add\n      0x20\n      swap1\n      div\n      swap1\n      0x00\n      mstore\n      keccak256(0x00, 0x20)\n      swap1\n      dup2\n      add\n      swap1\n      tag_279\n      swap2\n      swap1\n      tag_275\n      jump\t// in\n    tag_279:\n    tag_277:\n      pop\n      jump\t// out\n    tag_151:\n      pop\n      dup1\n      sload\n      0x00\n      dup3\n      sstore\n      swap1\n      0x00\n      mstore\n      keccak256(0x00, 0x20)\n      swap1\n      dup2\n      add\n      swap1\n      tag_281\n      swap2\n      swap1\n      tag_275\n      jump\t// in\n    tag_281:\n      pop\n      jump\t// out\n    tag_204:\n      mload(0x40)\n      dup1\n      0x0100\n      add\n      0x40\n      mstore\n      dup1\n      0x00\n      dup2\n      mstore\n      0x20\n      add\n      and(0xffffffffffffffffffffffffffffffffffffffff, 0x00)\n      dup2\n      mstore\n      0x20\n      add\n      0x60\n      dup2\n      mstore\n      0x20\n      add\n      0x60\n      dup2\n      mstore\n      0x20\n      add\n      0x00\n      dup2\n      mstore\n      0x20\n      add\n      0x00\n      dup2\n      mstore\n      0x20\n      add\n      0x00\n      dup2\n      mstore\n      0x20\n      add\n      0x60\n      dup2\n      mstore\n      pop\n      swap1\n      jump\t// out\n    tag_275:\n    tag_282:\n      dup1\n      dup3\n      gt\n      iszero\n      tag_283\n      jumpi\n      0x00\n      dup2\n      0x00\n      swap1\n      sstore\n      pop\n      0x01\n      add\n      jump(tag_282)\n    tag_283:\n      pop\n      swap1\n      jump\t// out\n        /* \"#utility.yul\":88:205   */\n    tag_285:\n        /* \"#utility.yul\":197:198   */\n      0x00\n        /* \"#utility.yul\":194:195   */\n      dup1\n        /* \"#utility.yul\":187:199   */\n      revert\n        /* \"#utility.yul\":211:328   */\n    tag_286:\n        /* \"#utility.yul\":320:321   */\n      0x00\n        /* \"#utility.yul\":317:318   */\n      dup1\n        /* \"#utility.yul\":310:322   */\n      revert\n        /* \"#utility.yul\":334:411   */\n    tag_287:\n        /* \"#utility.yul\":371:378   */\n      0x00\n        /* \"#utility.yul\":400:405   */\n      dup2\n        /* \"#utility.yul\":389:405   */\n      swap1\n      pop\n        /* \"#utility.yul\":334:411   */\n      swap2\n      swap1\n      pop\n      jump\t// out\n        /* \"#utility.yul\":417:539   */\n    tag_288:\n        /* \"#utility.yul\":490:514   */\n      tag_362\n        /* \"#utility.yul\":508:513   */\n      dup2\n        /* \"#utility.yul\":490:514   */\n      tag_287\n      jump\t// in\n    tag_362:\n        /* \"#utility.yul\":483:488   */\n      dup2\n        /* \"#utility.yul\":480:515   */\n      eq\n        /* \"#utility.yul\":470:533   */\n      tag_363\n      jumpi\n        /* \"#utility.yul\":529:530   */\n      0x00\n        /* \"#utility.yul\":526:527   */\n      dup1\n        /* \"#utility.yul\":519:531   */\n      revert\n        /* \"#utility.yul\":470:533   */\n    tag_363:\n        /* \"#utility.yul\":417:539   */\n      pop\n      jump\t// out\n        /* \"#utility.yul\":545:684   */\n    tag_289:\n        /* \"#utility.yul\":591:596   */\n      0x00\n        /* \"#utility.yul\":629:635   */\n      dup2\n        /* \"#utility.yul\":616:636   */\n      calldataload\n        /* \"#utility.yul\":607:636   */\n      swap1\n      pop\n        /* \"#utility.yul\":645:678   */\n      tag_365\n        /* \"#utility.yul\":672:677   */\n      dup2\n        /* \"#utility.yul\":645:678   */\n      tag_288\n      jump\t// in\n    tag_365:\n        /* \"#utility.yul\":545:684   */\n      swap3\n      swap2\n      pop\n      pop\n      jump\t// out\n        /* \"#utility.yul\":690:1019   */\n    tag_16:\n        /* \"#utility.yul\":749:755   */\n      0x00\n        /* \"#utility.yul\":798:800   */\n      0x20\n        /* \"#utility.yul\":786:795   */\n      dup3\n        /* \"#utility.yul\":777:784   */\n      dup5\n        /* \"#utility.yul\":773:796   */\n      sub\n        /* \"#utility.yul\":769:801   */\n      slt\n        /* \"#utility.yul\":766:885   */\n      iszero\n      tag_367\n      jumpi\n        /* \"#utility.yul\":804:883   */\n      tag_368\n      tag_285\n      jump\t// in\n    tag_368:\n        /* \"#utility.yul\":766:885   */\n    tag_367:\n        /* \"#utility.yul\":924:925   */\n      0x00\n        /* \"#utility.yul\":949:1002   */\n      tag_369\n        /* \"#utility.yul\":994:1001   */\n      dup5\n        /* \"#utility.yul\":985:991   */\n      dup3\n        /* \"#utility.yul\":974:983   */\n      dup6\n        /* \"#utility.yul\":970:992   */\n      add\n        /* \"#utility.yul\":949:1002   */\n      tag_289\n      jump\t// in\n    tag_369:\n        /* \"#utility.yul\":939:1002   */\n      swap2\n      pop\n        /* \"#utility.yul\":895:1012   */\n      pop\n        /* \"#utility.yul\":690:1019   */\n      swap3\n      swap2\n      pop\n      pop\n      jump\t// out\n        /* \"#utility.yul\":1025:1143   */\n    tag_290:\n        /* \"#utility.yul\":1112:1136   */\n      tag_371\n        /* \"#utility.yul\":1130:1135   */\n      dup2\n        /* \"#utility.yul\":1112:1136   */\n      tag_287\n      jump\t// in\n    tag_371:\n        /* \"#utility.yul\":1107:1110   */\n      dup3\n        /* \"#utility.yul\":1100:1137   */\n      mstore\n        /* \"#utility.yul\":1025:1143   */\n      pop\n      pop\n      jump\t// out\n        /* \"#utility.yul\":1149:1275   */\n    tag_291:\n        /* \"#utility.yul\":1186:1193   */\n      0x00\n        /* \"#utility.yul\":1226:1268   */\n      0xffffffffffffffffffffffffffffffffffffffff\n        /* \"#utility.yul\":1219:1224   */\n      dup3\n        /* \"#utility.yul\":1215:1269   */\n      and\n        /* \"#utility.yul\":1204:1269   */\n      swap1\n      pop\n        /* \"#utility.yul\":1149:1275   */\n      swap2\n      swap1\n      pop\n      jump\t// out\n        /* \"#utility.yul\":1281:1377   */\n    tag_292:\n        /* \"#utility.yul\":1318:1325   */\n      0x00\n        /* \"#utility.yul\":1347:1371   */\n      tag_374\n        /* \"#utility.yul\":1365:1370   */\n      dup3\n        /* \"#utility.yul\":1347:1371   */\n      tag_291\n      jump\t// in\n    tag_374:\n        /* \"#utility.yul\":1336:1371   */\n      swap1\n      pop\n        /* \"#utility.yul\":1281:1377   */\n      swap2\n      swap1\n      pop\n      jump\t// out\n        /* \"#utility.yul\":1383:1501   */\n    tag_293:\n        /* \"#utility.yul\":1470:1494   */\n      tag_376\n        /* \"#utility.yul\":1488:1493   */\n      dup2\n        /* \"#utility.yul\":1470:1494   */\n      tag_292\n      jump\t// in\n    tag_376:\n        /* \"#utility.yul\":1465:1468   */\n      dup3\n        /* \"#utility.yul\":1458:1495   */\n      mstore\n        /* \"#utility.yul\":1383:1501   */\n      pop\n      pop\n      jump\t// out\n        /* \"#utility.yul\":1507:1606   */\n    tag_294:\n        /* \"#utility.yul\":1559:1565   */\n      0x00\n        /* \"#utility.yul\":1593:1598   */\n      dup2\n        /* \"#utility.yul\":1587:1599   */\n      mload\n        /* \"#utility.yul\":1577:1599   */\n      swap1\n      pop\n        /* \"#utility.yul\":1507:1606   */\n      swap2\n      swap1\n      pop\n      jump\t// out\n        /* \"#utility.yul\":1612:1781   */\n    tag_295:\n        /* \"#utility.yul\":1696:1707   */\n      0x00\n        /* \"#utility.yul\":1730:1736   */\n      dup3\n        /* \"#utility.yul\":1725:1728   */\n      dup3\n        /* \"#utility.yul\":1718:1737   */\n      mstore\n        /* \"#utility.yul\":1770:1774   */\n      0x20\n        /* \"#utility.yul\":1765:1768   */\n      dup3\n        /* \"#utility.yul\":1761:1775   */\n      add\n        /* \"#utility.yul\":1746:1775   */\n      swap1\n      pop\n        /* \"#utility.yul\":1612:1781   */\n      swap3\n      swap2\n      pop\n      pop\n      jump\t// out\n        /* \"#utility.yul\":1787:2033   */\n    tag_296:\n        /* \"#utility.yul\":1868:1869   */\n      0x00\n        /* \"#utility.yul\":1878:1991   */\n    tag_380:\n        /* \"#utility.yul\":1892:1898   */\n      dup4\n        /* \"#utility.yul\":1889:1890   */\n      dup2\n        /* \"#utility.yul\":1886:1899   */\n      lt\n        /* \"#utility.yul\":1878:1991   */\n      iszero\n      tag_382\n      jumpi\n        /* \"#utility.yul\":1977:1978   */\n      dup1\n        /* \"#utility.yul\":1972:1975   */\n      dup3\n        /* \"#utility.yul\":1968:1979   */\n      add\n        /* \"#utility.yul\":1962:1980   */\n      mload\n        /* \"#utility.yul\":1958:1959   */\n      dup2\n        /* \"#utility.yul\":1953:1956   */\n      dup5\n        /* \"#utility.yul\":1949:1960   */\n      add\n        /* \"#utility.yul\":1942:1981   */\n      mstore\n        /* \"#utility.yul\":1914:1916   */\n      0x20\n        /* \"#utility.yul\":1911:1912   */\n      dup2\n        /* \"#utility.yul\":1907:1917   */\n      add\n        /* \"#utility.yul\":1902:1917   */\n      swap1\n      pop\n        /* \"#utility.yul\":1878:1991   */\n      jump(tag_380)\n    tag_382:\n        /* \"#utility.yul\":2025:2026   */\n      0x00\n        /* \"#utility.yul\":2016:2022   */\n      dup5\n        /* \"#utility.yul\":2011:2014   */\n      dup5\n        /* \"#utility.yul\":2007:2023   */\n      add\n        /* \"#utility.yul\":2000:2027   */\n      mstore\n        /* \"#utility.yul\":1849:2033   */\n      pop\n        /* \"#utility.yul\":1787:2033   */\n      pop\n      pop\n      pop\n      jump\t// out\n        /* \"#utility.yul\":2039:2141   */\n    tag_297:\n        /* \"#utility.yul\":2080:2086   */\n      0x00\n        /* \"#utility.yul\":2131:2133   */\n      0x1f\n        /* \"#utility.yul\":2127:2134   */\n      not\n        /* \"#utility.yul\":2122:2124   */\n      0x1f\n        /* \"#utility.yul\":2115:2120   */\n      dup4\n        /* \"#utility.yul\":2111:2125   */\n      add\n        /* \"#utility.yul\":2107:2135   */\n      and\n        /* \"#utility.yul\":2097:2135   */\n      swap1\n      pop\n        /* \"#utility.yul\":2039:2141   */\n      swap2\n      swap1\n      pop\n      jump\t// out\n        /* \"#utility.yul\":2147:2524   */\n    tag_298:\n        /* \"#utility.yul\":2235:2238   */\n      0x00\n        /* \"#utility.yul\":2263:2302   */\n      tag_385\n        /* \"#utility.yul\":2296:2301   */\n      dup3\n        /* \"#utility.yul\":2263:2302   */\n      tag_294\n      jump\t// in\n    tag_385:\n        /* \"#utility.yul\":2318:2389   */\n      tag_386\n        /* \"#utility.yul\":2382:2388   */\n      dup2\n        /* \"#utility.yul\":2377:2380   */\n      dup6\n        /* \"#utility.yul\":2318:2389   */\n      tag_295\n      jump\t// in\n    tag_386:\n        /* \"#utility.yul\":2311:2389   */\n      swap4\n      pop\n        /* \"#utility.yul\":2398:2463   */\n      tag_387\n        /* \"#utility.yul\":2456:2462   */\n      dup2\n        /* \"#utility.yul\":2451:2454   */\n      dup6\n        /* \"#utility.yul\":2444:2448   */\n      0x20\n        /* \"#utility.yul\":2437:2442   */\n      dup7\n        /* \"#utility.yul\":2433:2449   */\n      add\n        /* \"#utility.yul\":2398:2463   */\n      tag_296\n      jump\t// in\n    tag_387:\n        /* \"#utility.yul\":2488:2517   */\n      tag_388\n        /* \"#utility.yul\":2510:2516   */\n      dup2\n        /* \"#utility.yul\":2488:2517   */\n      tag_297\n      jump\t// in\n    tag_388:\n        /* \"#utility.yul\":2483:2486   */\n      dup5\n        /* \"#utility.yul\":2479:2518   */\n      add\n        /* \"#utility.yul\":2472:2518   */\n      swap2\n      pop\n        /* \"#utility.yul\":2239:2524   */\n      pop\n        /* \"#utility.yul\":2147:2524   */\n      swap3\n      swap2\n      pop\n      pop\n      jump\t// out\n        /* \"#utility.yul\":2530:3598   */\n    tag_19:\n        /* \"#utility.yul\":2831:2835   */\n      0x00\n        /* \"#utility.yul\":2869:2872   */\n      0xe0\n        /* \"#utility.yul\":2858:2867   */\n      dup3\n        /* \"#utility.yul\":2854:2873   */\n      add\n        /* \"#utility.yul\":2846:2873   */\n      swap1\n      pop\n        /* \"#utility.yul\":2883:2954   */\n      tag_390\n        /* \"#utility.yul\":2951:2952   */\n      0x00\n        /* \"#utility.yul\":2940:2949   */\n      dup4\n        /* \"#utility.yul\":2936:2953   */\n      add\n        /* \"#utility.yul\":2927:2933   */\n      dup11\n        /* \"#utility.yul\":2883:2954   */\n      tag_290\n      jump\t// in\n    tag_390:\n        /* \"#utility.yul\":2964:3036   */\n      tag_391\n        /* \"#utility.yul\":3032:3034   */\n      0x20\n        /* \"#utility.yul\":3021:3030   */\n      dup4\n        /* \"#utility.yul\":3017:3035   */\n      add\n        /* \"#utility.yul\":3008:3014   */\n      dup10\n        /* \"#utility.yul\":2964:3036   */\n      tag_293\n      jump\t// in\n    tag_391:\n        /* \"#utility.yul\":3083:3092   */\n      dup2\n        /* \"#utility.yul\":3077:3081   */\n      dup2\n        /* \"#utility.yul\":3073:3093   */\n      sub\n        /* \"#utility.yul\":3068:3070   */\n      0x40\n        /* \"#utility.yul\":3057:3066   */\n      dup4\n        /* \"#utility.yul\":3053:3071   */\n      add\n        /* \"#utility.yul\":3046:3094   */\n      mstore\n        /* \"#utility.yul\":3111:3189   */\n      tag_392\n        /* \"#utility.yul\":3184:3188   */\n      dup2\n        /* \"#utility.yul\":3175:3181   */\n      dup9\n        /* \"#utility.yul\":3111:3189   */\n      tag_298\n      jump\t// in\n    tag_392:\n        /* \"#utility.yul\":3103:3189   */\n      swap1\n      pop\n        /* \"#utility.yul\":3236:3245   */\n      dup2\n        /* \"#utility.yul\":3230:3234   */\n      dup2\n        /* \"#utility.yul\":3226:3246   */\n      sub\n        /* \"#utility.yul\":3221:3223   */\n      0x60\n        /* \"#utility.yul\":3210:3219   */\n      dup4\n        /* \"#utility.yul\":3206:3224   */\n      add\n        /* \"#utility.yul\":3199:3247   */\n      mstore\n        /* \"#utility.yul\":3264:3342   */\n      tag_393\n        /* \"#utility.yul\":3337:3341   */\n      dup2\n        /* \"#utility.yul\":3328:3334   */\n      dup8\n        /* \"#utility.yul\":3264:3342   */\n      tag_298\n      jump\t// in\n    tag_393:\n        /* \"#utility.yul\":3256:3342   */\n      swap1\n      pop\n        /* \"#utility.yul\":3352:3425   */\n      tag_394\n        /* \"#utility.yul\":3420:3423   */\n      0x80\n        /* \"#utility.yul\":3409:3418   */\n      dup4\n        /* \"#utility.yul\":3405:3424   */\n      add\n        /* \"#utility.yul\":3396:3402   */\n      dup7\n        /* \"#utility.yul\":3352:3425   */\n      tag_290\n      jump\t// in\n    tag_394:\n        /* \"#utility.yul\":3435:3508   */\n      tag_395\n        /* \"#utility.yul\":3503:3506   */\n      0xa0\n        /* \"#utility.yul\":3492:3501   */\n      dup4\n        /* \"#utility.yul\":3488:3507   */\n      add\n        /* \"#utility.yul\":3479:3485   */\n      dup6\n        /* \"#utility.yul\":3435:3508   */\n      tag_290\n      jump\t// in\n    tag_395:\n        /* \"#utility.yul\":3518:3591   */\n      tag_396\n        /* \"#utility.yul\":3586:3589   */\n      0xc0\n        /* \"#utility.yul\":3575:3584   */\n      dup4\n        /* \"#utility.yul\":3571:3590   */\n      add\n        /* \"#utility.yul\":3562:3568   */\n      dup5\n        /* \"#utility.yul\":3518:3591   */\n      tag_290\n      jump\t// in\n    tag_396:\n        /* \"#utility.yul\":2530:3598   */\n      swap9\n      swap8\n      pop\n      pop\n      pop\n      pop\n      pop\n      pop\n      pop\n      pop\n      jump\t// out\n        /* \"#utility.yul\":3604:3721   */\n    tag_299:\n        /* \"#utility.yul\":3713:3714   */\n      0x00\n        /* \"#utility.yul\":3710:3711   */\n      dup1\n        /* \"#utility.yul\":3703:3715   */\n      revert\n        /* \"#utility.yul\":3727:3844   */\n    tag_300:\n        /* \"#utility.yul\":3836:3837   */\n      0x00\n        /* \"#utility.yul\":3833:3834   */\n      dup1\n        /* \"#utility.yul\":3826:3838   */\n      revert\n        /* \"#utility.yul\":3850:3967   */\n    tag_301:\n        /* \"#utility.yul\":3959:3960   */\n      0x00\n        /* \"#utility.yul\":3956:3957   */\n      dup1\n        /* \"#utility.yul\":3949:3961   */\n      revert\n        /* \"#utility.yul\":3987:4540   */\n    tag_302:\n        /* \"#utility.yul\":4045:4053   */\n      0x00\n        /* \"#utility.yul\":4055:4061   */\n      dup1\n        /* \"#utility.yul\":4105:4108   */\n      dup4\n        /* \"#utility.yul\":4098:4102   */\n      0x1f\n        /* \"#utility.yul\":4090:4096   */\n      dup5\n        /* \"#utility.yul\":4086:4103   */\n      add\n        /* \"#utility.yul\":4082:4109   */\n      slt\n        /* \"#utility.yul\":4072:4194   */\n      tag_401\n      jumpi\n        /* \"#utility.yul\":4113:4192   */\n      tag_402\n      tag_299\n      jump\t// in\n    tag_402:\n        /* \"#utility.yul\":4072:4194   */\n    tag_401:\n        /* \"#utility.yul\":4226:4232   */\n      dup3\n        /* \"#utility.yul\":4213:4233   */\n      calldataload\n        /* \"#utility.yul\":4203:4233   */\n      swap1\n      pop\n        /* \"#utility.yul\":4256:4274   */\n      0xffffffffffffffff\n        /* \"#utility.yul\":4248:4254   */\n      dup2\n        /* \"#utility.yul\":4245:4275   */\n      gt\n        /* \"#utility.yul\":4242:4359   */\n      iszero\n      tag_403\n      jumpi\n        /* \"#utility.yul\":4278:4357   */\n      tag_404\n      tag_300\n      jump\t// in\n    tag_404:\n        /* \"#utility.yul\":4242:4359   */\n    tag_403:\n        /* \"#utility.yul\":4392:4396   */\n      0x20\n        /* \"#utility.yul\":4384:4390   */\n      dup4\n        /* \"#utility.yul\":4380:4397   */\n      add\n        /* \"#utility.yul\":4368:4397   */\n      swap2\n      pop\n        /* \"#utility.yul\":4446:4449   */\n      dup4\n        /* \"#utility.yul\":4438:4442   */\n      0x01\n        /* \"#utility.yul\":4430:4436   */\n      dup3\n        /* \"#utility.yul\":4426:4443   */\n      mul\n        /* \"#utility.yul\":4416:4424   */\n      dup4\n        /* \"#utility.yul\":4412:4444   */\n      add\n        /* \"#utility.yul\":4409:4450   */\n      gt\n        /* \"#utility.yul\":4406:4534   */\n      iszero\n      tag_405\n      jumpi\n        /* \"#utility.yul\":4453:4532   */\n      tag_406\n      tag_301\n      jump\t// in\n    tag_406:\n        /* \"#utility.yul\":4406:4534   */\n    tag_405:\n        /* \"#utility.yul\":3987:4540   */\n      swap3\n      pop\n      swap3\n      swap1\n      pop\n      jump\t// out\n        /* \"#utility.yul\":4546:5711   */\n    tag_23:\n        /* \"#utility.yul\":4656:4662   */\n      0x00\n        /* \"#utility.yul\":4664:4670   */\n      dup1\n        /* \"#utility.yul\":4672:4678   */\n      0x00\n        /* \"#utility.yul\":4680:4686   */\n      dup1\n        /* \"#utility.yul\":4688:4694   */\n      0x00\n        /* \"#utility.yul\":4696:4702   */\n      dup1\n        /* \"#utility.yul\":4745:4748   */\n      0x80\n        /* \"#utility.yul\":4733:4742   */\n      dup8\n        /* \"#utility.yul\":4724:4731   */\n      dup10\n        /* \"#utility.yul\":4720:4743   */\n      sub\n        /* \"#utility.yul\":4716:4749   */\n      slt\n        /* \"#utility.yul\":4713:4833   */\n      iszero\n      tag_408\n      jumpi\n        /* \"#utility.yul\":4752:4831   */\n      tag_409\n      tag_285\n      jump\t// in\n    tag_409:\n        /* \"#utility.yul\":4713:4833   */\n    tag_408:\n        /* \"#utility.yul\":4900:4901   */\n      0x00\n        /* \"#utility.yul\":4889:4898   */\n      dup8\n        /* \"#utility.yul\":4885:4902   */\n      add\n        /* \"#utility.yul\":4872:4903   */\n      calldataload\n        /* \"#utility.yul\":4930:4948   */\n      0xffffffffffffffff\n        /* \"#utility.yul\":4922:4928   */\n      dup2\n        /* \"#utility.yul\":4919:4949   */\n      gt\n        /* \"#utility.yul\":4916:5033   */\n      iszero\n      tag_410\n      jumpi\n        /* \"#utility.yul\":4952:5031   */\n      tag_411\n      tag_286\n      jump\t// in\n    tag_411:\n        /* \"#utility.yul\":4916:5033   */\n    tag_410:\n        /* \"#utility.yul\":5065:5130   */\n      tag_412\n        /* \"#utility.yul\":5122:5129   */\n      dup10\n        /* \"#utility.yul\":5113:5119   */\n      dup3\n        /* \"#utility.yul\":5102:5111   */\n      dup11\n        /* \"#utility.yul\":5098:5120   */\n      add\n        /* \"#utility.yul\":5065:5130   */\n      tag_302\n      jump\t// in\n    tag_412:\n        /* \"#utility.yul\":5047:5130   */\n      swap7\n      pop\n      swap7\n      pop\n        /* \"#utility.yul\":4843:5140   */\n      pop\n        /* \"#utility.yul\":5207:5209   */\n      0x20\n        /* \"#utility.yul\":5196:5205   */\n      dup8\n        /* \"#utility.yul\":5192:5210   */\n      add\n        /* \"#utility.yul\":5179:5211   */\n      calldataload\n        /* \"#utility.yul\":5238:5256   */\n      0xffffffffffffffff\n        /* \"#utility.yul\":5230:5236   */\n      dup2\n        /* \"#utility.yul\":5227:5257   */\n      gt\n        /* \"#utility.yul\":5224:5341   */\n      iszero\n      tag_413\n      jumpi\n        /* \"#utility.yul\":5260:5339   */\n      tag_414\n      tag_286\n      jump\t// in\n    tag_414:\n        /* \"#utility.yul\":5224:5341   */\n    tag_413:\n        /* \"#utility.yul\":5373:5438   */\n      tag_415\n        /* \"#utility.yul\":5430:5437   */\n      dup10\n        /* \"#utility.yul\":5421:5427   */\n      dup3\n        /* \"#utility.yul\":5410:5419   */\n      dup11\n        /* \"#utility.yul\":5406:5428   */\n      add\n        /* \"#utility.yul\":5373:5438   */\n      tag_302\n      jump\t// in\n    tag_415:\n        /* \"#utility.yul\":5355:5438   */\n      swap5\n      pop\n      swap5\n      pop\n        /* \"#utility.yul\":5150:5448   */\n      pop\n        /* \"#utility.yul\":5487:5489   */\n      0x40\n        /* \"#utility.yul\":5513:5566   */\n      tag_416\n        /* \"#utility.yul\":5558:5565   */\n      dup10\n        /* \"#utility.yul\":5549:5555   */\n      dup3\n        /* \"#utility.yul\":5538:5547   */\n      dup11\n        /* \"#utility.yul\":5534:5556   */\n      add\n        /* \"#utility.yul\":5513:5566   */\n      tag_289\n      jump\t// in\n    tag_416:\n        /* \"#utility.yul\":5503:5566   */\n      swap3\n      pop\n        /* \"#utility.yul\":5458:5576   */\n      pop\n        /* \"#utility.yul\":5615:5617   */\n      0x60\n        /* \"#utility.yul\":5641:5694   */\n      tag_417\n        /* \"#utility.yul\":5686:5693   */\n      dup10\n        /* \"#utility.yul\":5677:5683   */\n      dup3\n        /* \"#utility.yul\":5666:5675   */\n      dup11\n        /* \"#utility.yul\":5662:5684   */\n      add\n        /* \"#utility.yul\":5641:5694   */\n      tag_289\n      jump\t// in\n    tag_417:\n        /* \"#utility.yul\":5631:5694   */\n      swap2\n      pop\n        /* \"#utility.yul\":5586:5704   */\n      pop\n        /* \"#utility.yul\":4546:5711   */\n      swap3\n      swap6\n      pop\n      swap3\n      swap6\n      pop\n      swap3\n      swap6\n      jump\t// out\n        /* \"#utility.yul\":5717:5839   */\n    tag_303:\n        /* \"#utility.yul\":5790:5814   */\n      tag_419\n        /* \"#utility.yul\":5808:5813   */\n      dup2\n        /* \"#utility.yul\":5790:5814   */\n      tag_292\n      jump\t// in\n    tag_419:\n        /* \"#utility.yul\":5783:5788   */\n      dup2\n        /* \"#utility.yul\":5780:5815   */\n      eq\n        /* \"#utility.yul\":5770:5833   */\n      tag_420\n      jumpi\n        /* \"#utility.yul\":5829:5830   */\n      0x00\n        /* \"#utility.yul\":5826:5827   */\n      dup1\n        /* \"#utility.yul\":5819:5831   */\n      revert\n        /* \"#utility.yul\":5770:5833   */\n    tag_420:\n        /* \"#utility.yul\":5717:5839   */\n      pop\n      jump\t// out\n        /* \"#utility.yul\":5845:5984   */\n    tag_304:\n        /* \"#utility.yul\":5891:5896   */\n      0x00\n        /* \"#utility.yul\":5929:5935   */\n      dup2\n        /* \"#utility.yul\":5916:5936   */\n      calldataload\n        /* \"#utility.yul\":5907:5936   */\n      swap1\n      pop\n        /* \"#utility.yul\":5945:5978   */\n      tag_422\n        /* \"#utility.yul\":5972:5977   */\n      dup2\n        /* \"#utility.yul\":5945:5978   */\n      tag_303\n      jump\t// in\n    tag_422:\n        /* \"#utility.yul\":5845:5984   */\n      swap3\n      swap2\n      pop\n      pop\n      jump\t// out\n        /* \"#utility.yul\":5990:6319   */\n    tag_28:\n        /* \"#utility.yul\":6049:6055   */\n      0x00\n        /* \"#utility.yul\":6098:6100   */\n      0x20\n        /* \"#utility.yul\":6086:6095   */\n      dup3\n        /* \"#utility.yul\":6077:6084   */\n      dup5\n        /* \"#utility.yul\":6073:6096   */\n      sub\n        /* \"#utility.yul\":6069:6101   */\n      slt\n        /* \"#utility.yul\":6066:6185   */\n      iszero\n      tag_424\n      jumpi\n        /* \"#utility.yul\":6104:6183   */\n      tag_425\n      tag_285\n      jump\t// in\n    tag_425:\n        /* \"#utility.yul\":6066:6185   */\n    tag_424:\n        /* \"#utility.yul\":6224:6225   */\n      0x00\n        /* \"#utility.yul\":6249:6302   */\n      tag_426\n        /* \"#utility.yul\":6294:6301   */\n      dup5\n        /* \"#utility.yul\":6285:6291   */\n      dup3\n        /* \"#utility.yul\":6274:6283   */\n      dup6\n        /* \"#utility.yul\":6270:6292   */\n      add\n        /* \"#utility.yul\":6249:6302   */\n      tag_304\n      jump\t// in\n    tag_426:\n        /* \"#utility.yul\":6239:6302   */\n      swap2\n      pop\n        /* \"#utility.yul\":6195:6312   */\n      pop\n        /* \"#utility.yul\":5990:6319   */\n      swap3\n      swap2\n      pop\n      pop\n      jump\t// out\n        /* \"#utility.yul\":6325:6460   */\n    tag_305:\n        /* \"#utility.yul\":6413:6419   */\n      0x00\n        /* \"#utility.yul\":6447:6452   */\n      dup2\n        /* \"#utility.yul\":6441:6453   */\n      mload\n        /* \"#utility.yul\":6431:6453   */\n      swap1\n      pop\n        /* \"#utility.yul\":6325:6460   */\n      swap2\n      swap1\n      pop\n      jump\t// out\n        /* \"#utility.yul\":6466:6671   */\n    tag_306:\n        /* \"#utility.yul\":6586:6597   */\n      0x00\n        /* \"#utility.yul\":6620:6626   */\n      dup3\n        /* \"#utility.yul\":6615:6618   */\n      dup3\n        /* \"#utility.yul\":6608:6627   */\n      mstore\n        /* \"#utility.yul\":6660:6664   */\n      0x20\n        /* \"#utility.yul\":6655:6658   */\n      dup3\n        /* \"#utility.yul\":6651:6665   */\n      add\n        /* \"#utility.yul\":6636:6665   */\n      swap1\n      pop\n        /* \"#utility.yul\":6466:6671   */\n      swap3\n      swap2\n      pop\n      pop\n      jump\t// out\n        /* \"#utility.yul\":6677:6830   */\n    tag_307:\n        /* \"#utility.yul\":6765:6769   */\n      0x00\n        /* \"#utility.yul\":6788:6791   */\n      dup2\n        /* \"#utility.yul\":6780:6791   */\n      swap1\n      pop\n        /* \"#utility.yul\":6818:6822   */\n      0x20\n        /* \"#utility.yul\":6813:6816   */\n      dup3\n        /* \"#utility.yul\":6809:6823   */\n      add\n        /* \"#utility.yul\":6801:6823   */\n      swap1\n      pop\n        /* \"#utility.yul\":6677:6830   */\n      swap2\n      swap1\n      pop\n      jump\t// out\n        /* \"#utility.yul\":6836:6944   */\n    tag_308:\n        /* \"#utility.yul\":6913:6937   */\n      tag_431\n        /* \"#utility.yul\":6931:6936   */\n      dup2\n        /* \"#utility.yul\":6913:6937   */\n      tag_287\n      jump\t// in\n    tag_431:\n        /* \"#utility.yul\":6908:6911   */\n      dup3\n        /* \"#utility.yul\":6901:6938   */\n      mstore\n        /* \"#utility.yul\":6836:6944   */\n      pop\n      pop\n      jump\t// out\n        /* \"#utility.yul\":6950:7058   */\n    tag_309:\n        /* \"#utility.yul\":7027:7051   */\n      tag_433\n        /* \"#utility.yul\":7045:7050   */\n      dup2\n        /* \"#utility.yul\":7027:7051   */\n      tag_292\n      jump\t// in\n    tag_433:\n        /* \"#utility.yul\":7022:7025   */\n      dup3\n        /* \"#utility.yul\":7015:7052   */\n      mstore\n        /* \"#utility.yul\":6950:7058   */\n      pop\n      pop\n      jump\t// out\n        /* \"#utility.yul\":7116:7963   */\n    tag_310:\n        /* \"#utility.yul\":7245:7249   */\n      0x80\n        /* \"#utility.yul\":7240:7243   */\n      dup3\n        /* \"#utility.yul\":7236:7250   */\n      add\n        /* \"#utility.yul\":7330:7334   */\n      0x00\n        /* \"#utility.yul\":7323:7328   */\n      dup3\n        /* \"#utility.yul\":7319:7335   */\n      add\n        /* \"#utility.yul\":7313:7336   */\n      mload\n        /* \"#utility.yul\":7349:7412   */\n      tag_435\n        /* \"#utility.yul\":7406:7410   */\n      0x00\n        /* \"#utility.yul\":7401:7404   */\n      dup6\n        /* \"#utility.yul\":7397:7411   */\n      add\n        /* \"#utility.yul\":7383:7395   */\n      dup3\n        /* \"#utility.yul\":7349:7412   */\n      tag_308\n      jump\t// in\n    tag_435:\n        /* \"#utility.yul\":7260:7422   */\n      pop\n        /* \"#utility.yul\":7509:7513   */\n      0x20\n        /* \"#utility.yul\":7502:7507   */\n      dup3\n        /* \"#utility.yul\":7498:7514   */\n      add\n        /* \"#utility.yul\":7492:7515   */\n      mload\n        /* \"#utility.yul\":7528:7591   */\n      tag_436\n        /* \"#utility.yul\":7585:7589   */\n      0x20\n        /* \"#utility.yul\":7580:7583   */\n      dup6\n        /* \"#utility.yul\":7576:7590   */\n      add\n        /* \"#utility.yul\":7562:7574   */\n      dup3\n        /* \"#utility.yul\":7528:7591   */\n      tag_308\n      jump\t// in\n    tag_436:\n        /* \"#utility.yul\":7432:7601   */\n      pop\n        /* \"#utility.yul\":7684:7688   */\n      0x40\n        /* \"#utility.yul\":7677:7682   */\n      dup3\n        /* \"#utility.yul\":7673:7689   */\n      add\n        /* \"#utility.yul\":7667:7690   */\n      mload\n        /* \"#utility.yul\":7703:7766   */\n      tag_437\n        /* \"#utility.yul\":7760:7764   */\n      0x40\n        /* \"#utility.yul\":7755:7758   */\n      dup6\n        /* \"#utility.yul\":7751:7765   */\n      add\n        /* \"#utility.yul\":7737:7749   */\n      dup3\n        /* \"#utility.yul\":7703:7766   */\n      tag_309\n      jump\t// in\n    tag_437:\n        /* \"#utility.yul\":7611:7776   */\n      pop\n        /* \"#utility.yul\":7864:7868   */\n      0x60\n        /* \"#utility.yul\":7857:7862   */\n      dup3\n        /* \"#utility.yul\":7853:7869   */\n      add\n        /* \"#utility.yul\":7847:7870   */\n      mload\n        /* \"#utility.yul\":7883:7946   */\n      tag_438\n        /* \"#utility.yul\":7940:7944   */\n      0x60\n        /* \"#utility.yul\":7935:7938   */\n      dup6\n        /* \"#utility.yul\":7931:7945   */\n      add\n        /* \"#utility.yul\":7917:7929   */\n      dup3\n        /* \"#utility.yul\":7883:7946   */\n      tag_308\n      jump\t// in\n    tag_438:\n        /* \"#utility.yul\":7786:7956   */\n      pop\n        /* \"#utility.yul\":7214:7963   */\n      pop\n        /* \"#utility.yul\":7116:7963   */\n      pop\n      pop\n      jump\t// out\n        /* \"#utility.yul\":7969:8232   */\n    tag_311:\n        /* \"#utility.yul\":8080:8090   */\n      0x00\n        /* \"#utility.yul\":8101:8189   */\n      tag_440\n        /* \"#utility.yul\":8185:8188   */\n      dup4\n        /* \"#utility.yul\":8177:8183   */\n      dup4\n        /* \"#utility.yul\":8101:8189   */\n      tag_310\n      jump\t// in\n    tag_440:\n        /* \"#utility.yul\":8221:8225   */\n      0x80\n        /* \"#utility.yul\":8216:8219   */\n      dup4\n        /* \"#utility.yul\":8212:8226   */\n      add\n        /* \"#utility.yul\":8198:8226   */\n      swap1\n      pop\n        /* \"#utility.yul\":7969:8232   */\n      swap3\n      swap2\n      pop\n      pop\n      jump\t// out\n        /* \"#utility.yul\":8238:8372   */\n    tag_312:\n        /* \"#utility.yul\":8329:8333   */\n      0x00\n        /* \"#utility.yul\":8361:8365   */\n      0x20\n        /* \"#utility.yul\":8356:8359   */\n      dup3\n        /* \"#utility.yul\":8352:8366   */\n      add\n        /* \"#utility.yul\":8344:8366   */\n      swap1\n      pop\n        /* \"#utility.yul\":8238:8372   */\n      swap2\n      swap1\n      pop\n      jump\t// out\n        /* \"#utility.yul\":8434:9334   */\n    tag_313:\n        /* \"#utility.yul\":8595:8598   */\n      0x00\n        /* \"#utility.yul\":8624:8699   */\n      tag_443\n        /* \"#utility.yul\":8693:8698   */\n      dup3\n        /* \"#utility.yul\":8624:8699   */\n      tag_305\n      jump\t// in\n    tag_443:\n        /* \"#utility.yul\":8715:8822   */\n      tag_444\n        /* \"#utility.yul\":8815:8821   */\n      dup2\n        /* \"#utility.yul\":8810:8813   */\n      dup6\n        /* \"#utility.yul\":8715:8822   */\n      tag_306\n      jump\t// in\n    tag_444:\n        /* \"#utility.yul\":8708:8822   */\n      swap4\n      pop\n        /* \"#utility.yul\":8846:8923   */\n      tag_445\n        /* \"#utility.yul\":8917:8922   */\n      dup4\n        /* \"#utility.yul\":8846:8923   */\n      tag_307\n      jump\t// in\n    tag_445:\n        /* \"#utility.yul\":8946:8953   */\n      dup1\n        /* \"#utility.yul\":8977:8978   */\n      0x00\n        /* \"#utility.yul\":8962:9309   */\n    tag_446:\n        /* \"#utility.yul\":8987:8993   */\n      dup4\n        /* \"#utility.yul\":8984:8985   */\n      dup2\n        /* \"#utility.yul\":8981:8994   */\n      lt\n        /* \"#utility.yul\":8962:9309   */\n      iszero\n      tag_448\n      jumpi\n        /* \"#utility.yul\":9063:9069   */\n      dup2\n        /* \"#utility.yul\":9057:9070   */\n      mload\n        /* \"#utility.yul\":9090:9195   */\n      tag_449\n        /* \"#utility.yul\":9191:9194   */\n      dup9\n        /* \"#utility.yul\":9176:9189   */\n      dup3\n        /* \"#utility.yul\":9090:9195   */\n      tag_311\n      jump\t// in\n    tag_449:\n        /* \"#utility.yul\":9083:9195   */\n      swap8\n      pop\n        /* \"#utility.yul\":9218:9299   */\n      tag_450\n        /* \"#utility.yul\":9292:9298   */\n      dup4\n        /* \"#utility.yul\":9218:9299   */\n      tag_312\n      jump\t// in\n    tag_450:\n        /* \"#utility.yul\":9208:9299   */\n      swap3\n      pop\n        /* \"#utility.yul\":9022:9309   */\n      pop\n        /* \"#utility.yul\":9009:9010   */\n      0x01\n        /* \"#utility.yul\":9006:9007   */\n      dup2\n        /* \"#utility.yul\":9002:9011   */\n      add\n        /* \"#utility.yul\":8997:9011   */\n      swap1\n      pop\n        /* \"#utility.yul\":8962:9309   */\n      jump(tag_446)\n    tag_448:\n        /* \"#utility.yul\":8966:8980   */\n      pop\n        /* \"#utility.yul\":9325:9328   */\n      dup6\n        /* \"#utility.yul\":9318:9328   */\n      swap4\n      pop\n        /* \"#utility.yul\":8600:9334   */\n      pop\n      pop\n      pop\n        /* \"#utility.yul\":8434:9334   */\n      swap3\n      swap2\n      pop\n      pop\n      jump\t// out\n        /* \"#utility.yul\":9340:9797   */\n    tag_31:\n        /* \"#utility.yul\":9525:9529   */\n      0x00\n        /* \"#utility.yul\":9563:9565   */\n      0x20\n        /* \"#utility.yul\":9552:9561   */\n      dup3\n        /* \"#utility.yul\":9548:9566   */\n      add\n        /* \"#utility.yul\":9540:9566   */\n      swap1\n      pop\n        /* \"#utility.yul\":9612:9621   */\n      dup2\n        /* \"#utility.yul\":9606:9610   */\n      dup2\n        /* \"#utility.yul\":9602:9622   */\n      sub\n        /* \"#utility.yul\":9598:9599   */\n      0x00\n        /* \"#utility.yul\":9587:9596   */\n      dup4\n        /* \"#utility.yul\":9583:9600   */\n      add\n        /* \"#utility.yul\":9576:9623   */\n      mstore\n        /* \"#utility.yul\":9640:9790   */\n      tag_452\n        /* \"#utility.yul\":9785:9789   */\n      dup2\n        /* \"#utility.yul\":9776:9782   */\n      dup5\n        /* \"#utility.yul\":9640:9790   */\n      tag_313\n      jump\t// in\n    tag_452:\n        /* \"#utility.yul\":9632:9790   */\n      swap1\n      pop\n        /* \"#utility.yul\":9340:9797   */\n      swap3\n      swap2\n      pop\n      pop\n      jump\t// out\n        /* \"#utility.yul\":9803:10356   */\n    tag_37:\n        /* \"#utility.yul\":9980:9984   */\n      0x00\n        /* \"#utility.yul\":10018:10021   */\n      0x80\n        /* \"#utility.yul\":10007:10016   */\n      dup3\n        /* \"#utility.yul\":10003:10022   */\n      add\n        /* \"#utility.yul\":9995:10022   */\n      swap1\n      pop\n        /* \"#utility.yul\":10032:10103   */\n      tag_454\n        /* \"#utility.yul\":10100:10101   */\n      0x00\n        /* \"#utility.yul\":10089:10098   */\n      dup4\n        /* \"#utility.yul\":10085:10102   */\n      add\n        /* \"#utility.yul\":10076:10082   */\n      dup8\n        /* \"#utility.yul\":10032:10103   */\n      tag_290\n      jump\t// in\n    tag_454:\n        /* \"#utility.yul\":10113:10185   */\n      tag_455\n        /* \"#utility.yul\":10181:10183   */\n      0x20\n        /* \"#utility.yul\":10170:10179   */\n      dup4\n        /* \"#utility.yul\":10166:10184   */\n      add\n        /* \"#utility.yul\":10157:10163   */\n      dup7\n        /* \"#utility.yul\":10113:10185   */\n      tag_290\n      jump\t// in\n    tag_455:\n        /* \"#utility.yul\":10195:10267   */\n      tag_456\n        /* \"#utility.yul\":10263:10265   */\n      0x40\n        /* \"#utility.yul\":10252:10261   */\n      dup4\n        /* \"#utility.yul\":10248:10266   */\n      add\n        /* \"#utility.yul\":10239:10245   */\n      dup6\n        /* \"#utility.yul\":10195:10267   */\n      tag_293\n      jump\t// in\n    tag_456:\n        /* \"#utility.yul\":10277:10349   */\n      tag_457\n        /* \"#utility.yul\":10345:10347   */\n      0x60\n        /* \"#utility.yul\":10334:10343   */\n      dup4\n        /* \"#utility.yul\":10330:10348   */\n      add\n        /* \"#utility.yul\":10321:10327   */\n      dup5\n        /* \"#utility.yul\":10277:10349   */\n      tag_290\n      jump\t// in\n    tag_457:\n        /* \"#utility.yul\":9803:10356   */\n      swap6\n      swap5\n      pop\n      pop\n      pop\n      pop\n      pop\n      jump\t// out\n        /* \"#utility.yul\":10362:10499   */\n    tag_314:\n        /* \"#utility.yul\":10452:10458   */\n      0x00\n        /* \"#utility.yul\":10486:10491   */\n      dup2\n        /* \"#utility.yul\":10480:10492   */\n      mload\n        /* \"#utility.yul\":10470:10492   */\n      swap1\n      pop\n        /* \"#utility.yul\":10362:10499   */\n      swap2\n      swap1\n      pop\n      jump\t// out\n        /* \"#utility.yul\":10505:10712   */\n    tag_315:\n        /* \"#utility.yul\":10627:10638   */\n      0x00\n        /* \"#utility.yul\":10661:10667   */\n      dup3\n        /* \"#utility.yul\":10656:10659   */\n      dup3\n        /* \"#utility.yul\":10649:10668   */\n      mstore\n        /* \"#utility.yul\":10701:10705   */\n      0x20\n        /* \"#utility.yul\":10696:10699   */\n      dup3\n        /* \"#utility.yul\":10692:10706   */\n      add\n        /* \"#utility.yul\":10677:10706   */\n      swap1\n      pop\n        /* \"#utility.yul\":10505:10712   */\n      swap3\n      swap2\n      pop\n      pop\n      jump\t// out\n        /* \"#utility.yul\":10718:10873   */\n    tag_316:\n        /* \"#utility.yul\":10808:10812   */\n      0x00\n        /* \"#utility.yul\":10831:10834   */\n      dup2\n        /* \"#utility.yul\":10823:10834   */\n      swap1\n      pop\n        /* \"#utility.yul\":10861:10865   */\n      0x20\n        /* \"#utility.yul\":10856:10859   */\n      dup3\n        /* \"#utility.yul\":10852:10866   */\n      add\n        /* \"#utility.yul\":10844:10866   */\n      swap1\n      pop\n        /* \"#utility.yul\":10718:10873   */\n      swap2\n      swap1\n      pop\n      jump\t// out\n        /* \"#utility.yul\":10879:11038   */\n    tag_317:\n        /* \"#utility.yul\":10953:10964   */\n      0x00\n        /* \"#utility.yul\":10987:10993   */\n      dup3\n        /* \"#utility.yul\":10982:10985   */\n      dup3\n        /* \"#utility.yul\":10975:10994   */\n      mstore\n        /* \"#utility.yul\":11027:11031   */\n      0x20\n        /* \"#utility.yul\":11022:11025   */\n      dup3\n        /* \"#utility.yul\":11018:11032   */\n      add\n        /* \"#utility.yul\":11003:11032   */\n      swap1\n      pop\n        /* \"#utility.yul\":10879:11038   */\n      swap3\n      swap2\n      pop\n      pop\n      jump\t// out\n        /* \"#utility.yul\":11044:11401   */\n    tag_318:\n        /* \"#utility.yul\":11122:11125   */\n      0x00\n        /* \"#utility.yul\":11150:11189   */\n      tag_463\n        /* \"#utility.yul\":11183:11188   */\n      dup3\n        /* \"#utility.yul\":11150:11189   */\n      tag_294\n      jump\t// in\n    tag_463:\n        /* \"#utility.yul\":11205:11266   */\n      tag_464\n        /* \"#utility.yul\":11259:11265   */\n      dup2\n        /* \"#utility.yul\":11254:11257   */\n      dup6\n        /* \"#utility.yul\":11205:11266   */\n      tag_317\n      jump\t// in\n    tag_464:\n        /* \"#utility.yul\":11198:11266   */\n      swap4\n      pop\n        /* \"#utility.yul\":11275:11340   */\n      tag_465\n        /* \"#utility.yul\":11333:11339   */\n      dup2\n        /* \"#utility.yul\":11328:11331   */\n      dup6\n        /* \"#utility.yul\":11321:11325   */\n      0x20\n        /* \"#utility.yul\":11314:11319   */\n      dup7\n        /* \"#utility.yul\":11310:11326   */\n      add\n        /* \"#utility.yul\":11275:11340   */\n      tag_296\n      jump\t// in\n    tag_465:\n        /* \"#utility.yul\":11365:11394   */\n      tag_466\n        /* \"#utility.yul\":11387:11393   */\n      dup2\n        /* \"#utility.yul\":11365:11394   */\n      tag_297\n      jump\t// in\n    tag_466:\n        /* \"#utility.yul\":11360:11363   */\n      dup5\n        /* \"#utility.yul\":11356:11395   */\n      add\n        /* \"#utility.yul\":11349:11395   */\n      swap2\n      pop\n        /* \"#utility.yul\":11126:11401   */\n      pop\n        /* \"#utility.yul\":11044:11401   */\n      swap3\n      swap2\n      pop\n      pop\n      jump\t// out\n        /* \"#utility.yul\":11407:11521   */\n    tag_319:\n        /* \"#utility.yul\":11474:11480   */\n      0x00\n        /* \"#utility.yul\":11508:11513   */\n      dup2\n        /* \"#utility.yul\":11502:11514   */\n      mload\n        /* \"#utility.yul\":11492:11514   */\n      swap1\n      pop\n        /* \"#utility.yul\":11407:11521   */\n      swap2\n      swap1\n      pop\n      jump\t// out\n        /* \"#utility.yul\":11527:11701   */\n    tag_320:\n        /* \"#utility.yul\":11616:11627   */\n      0x00\n        /* \"#utility.yul\":11650:11656   */\n      dup3\n        /* \"#utility.yul\":11645:11648   */\n      dup3\n        /* \"#utility.yul\":11638:11657   */\n      mstore\n        /* \"#utility.yul\":11690:11694   */\n      0x20\n        /* \"#utility.yul\":11685:11688   */\n      dup3\n        /* \"#utility.yul\":11681:11695   */\n      add\n        /* \"#utility.yul\":11666:11695   */\n      swap1\n      pop\n        /* \"#utility.yul\":11527:11701   */\n      swap3\n      swap2\n      pop\n      pop\n      jump\t// out\n        /* \"#utility.yul\":11707:11839   */\n    tag_321:\n        /* \"#utility.yul\":11774:11778   */\n      0x00\n        /* \"#utility.yul\":11797:11800   */\n      dup2\n        /* \"#utility.yul\":11789:11800   */\n      swap1\n      pop\n        /* \"#utility.yul\":11827:11831   */\n      0x20\n        /* \"#utility.yul\":11822:11825   */\n      dup3\n        /* \"#utility.yul\":11818:11832   */\n      add\n        /* \"#utility.yul\":11810:11832   */\n      swap1\n      pop\n        /* \"#utility.yul\":11707:11839   */\n      swap2\n      swap1\n      pop\n      jump\t// out\n        /* \"#utility.yul\":11845:12024   */\n    tag_322:\n        /* \"#utility.yul\":11914:11924   */\n      0x00\n        /* \"#utility.yul\":11935:11981   */\n      tag_471\n        /* \"#utility.yul\":11977:11980   */\n      dup4\n        /* \"#utility.yul\":11969:11975   */\n      dup4\n        /* \"#utility.yul\":11935:11981   */\n      tag_308\n      jump\t// in\n    tag_471:\n        /* \"#utility.yul\":12013:12017   */\n      0x20\n        /* \"#utility.yul\":12008:12011   */\n      dup4\n        /* \"#utility.yul\":12004:12018   */\n      add\n        /* \"#utility.yul\":11990:12018   */\n      swap1\n      pop\n        /* \"#utility.yul\":11845:12024   */\n      swap3\n      swap2\n      pop\n      pop\n      jump\t// out\n        /* \"#utility.yul\":12030:12143   */\n    tag_323:\n        /* \"#utility.yul\":12100:12104   */\n      0x00\n        /* \"#utility.yul\":12132:12136   */\n      0x20\n        /* \"#utility.yul\":12127:12130   */\n      dup3\n        /* \"#utility.yul\":12123:12137   */\n      add\n        /* \"#utility.yul\":12115:12137   */\n      swap1\n      pop\n        /* \"#utility.yul\":12030:12143   */\n      swap2\n      swap1\n      pop\n      jump\t// out\n        /* \"#utility.yul\":12179:12891   */\n    tag_324:\n        /* \"#utility.yul\":12288:12291   */\n      0x00\n        /* \"#utility.yul\":12317:12371   */\n      tag_474\n        /* \"#utility.yul\":12365:12370   */\n      dup3\n        /* \"#utility.yul\":12317:12371   */\n      tag_319\n      jump\t// in\n    tag_474:\n        /* \"#utility.yul\":12387:12463   */\n      tag_475\n        /* \"#utility.yul\":12456:12462   */\n      dup2\n        /* \"#utility.yul\":12451:12454   */\n      dup6\n        /* \"#utility.yul\":12387:12463   */\n      tag_320\n      jump\t// in\n    tag_475:\n        /* \"#utility.yul\":12380:12463   */\n      swap4\n      pop\n        /* \"#utility.yul\":12487:12543   */\n      tag_476\n        /* \"#utility.yul\":12537:12542   */\n      dup4\n        /* \"#utility.yul\":12487:12543   */\n      tag_321\n      jump\t// in\n    tag_476:\n        /* \"#utility.yul\":12566:12573   */\n      dup1\n        /* \"#utility.yul\":12597:12598   */\n      0x00\n        /* \"#utility.yul\":12582:12866   */\n    tag_477:\n        /* \"#utility.yul\":12607:12613   */\n      dup4\n        /* \"#utility.yul\":12604:12605   */\n      dup2\n        /* \"#utility.yul\":12601:12614   */\n      lt\n        /* \"#utility.yul\":12582:12866   */\n      iszero\n      tag_479\n      jumpi\n        /* \"#utility.yul\":12683:12689   */\n      dup2\n        /* \"#utility.yul\":12677:12690   */\n      mload\n        /* \"#utility.yul\":12710:12773   */\n      tag_480\n        /* \"#utility.yul\":12769:12772   */\n      dup9\n        /* \"#utility.yul\":12754:12767   */\n      dup3\n        /* \"#utility.yul\":12710:12773   */\n      tag_322\n      jump\t// in\n    tag_480:\n        /* \"#utility.yul\":12703:12773   */\n      swap8\n      pop\n        /* \"#utility.yul\":12796:12856   */\n      tag_481\n        /* \"#utility.yul\":12849:12855   */\n      dup4\n        /* \"#utility.yul\":12796:12856   */\n      tag_323\n      jump\t// in\n    tag_481:\n        /* \"#utility.yul\":12786:12856   */\n      swap3\n      pop\n        /* \"#utility.yul\":12642:12866   */\n      pop\n        /* \"#utility.yul\":12629:12630   */\n      0x01\n        /* \"#utility.yul\":12626:12627   */\n      dup2\n        /* \"#utility.yul\":12622:12631   */\n      add\n        /* \"#utility.yul\":12617:12631   */\n      swap1\n      pop\n        /* \"#utility.yul\":12582:12866   */\n      jump(tag_477)\n    tag_479:\n        /* \"#utility.yul\":12586:12600   */\n      pop\n        /* \"#utility.yul\":12882:12885   */\n      dup6\n        /* \"#utility.yul\":12875:12885   */\n      swap4\n      pop\n        /* \"#utility.yul\":12293:12891   */\n      pop\n      pop\n      pop\n        /* \"#utility.yul\":12179:12891   */\n      swap3\n      swap2\n      pop\n      pop\n      jump\t// out\n        /* \"#utility.yul\":12953:14800   */\n    tag_325:\n        /* \"#utility.yul\":13058:13061   */\n      0x00\n        /* \"#utility.yul\":13094:13100   */\n      0x0100\n        /* \"#utility.yul\":13089:13092   */\n      dup4\n        /* \"#utility.yul\":13085:13101   */\n      add\n        /* \"#utility.yul\":13181:13185   */\n      0x00\n        /* \"#utility.yul\":13174:13179   */\n      dup4\n        /* \"#utility.yul\":13170:13186   */\n      add\n        /* \"#utility.yul\":13164:13187   */\n      mload\n        /* \"#utility.yul\":13200:13263   */\n      tag_483\n        /* \"#utility.yul\":13257:13261   */\n      0x00\n        /* \"#utility.yul\":13252:13255   */\n      dup7\n        /* \"#utility.yul\":13248:13262   */\n      add\n        /* \"#utility.yul\":13234:13246   */\n      dup3\n        /* \"#utility.yul\":13200:13263   */\n      tag_308\n      jump\t// in\n    tag_483:\n        /* \"#utility.yul\":13111:13273   */\n      pop\n        /* \"#utility.yul\":13357:13361   */\n      0x20\n        /* \"#utility.yul\":13350:13355   */\n      dup4\n        /* \"#utility.yul\":13346:13362   */\n      add\n        /* \"#utility.yul\":13340:13363   */\n      mload\n        /* \"#utility.yul\":13376:13439   */\n      tag_484\n        /* \"#utility.yul\":13433:13437   */\n      0x20\n        /* \"#utility.yul\":13428:13431   */\n      dup7\n        /* \"#utility.yul\":13424:13438   */\n      add\n        /* \"#utility.yul\":13410:13422   */\n      dup3\n        /* \"#utility.yul\":13376:13439   */\n      tag_309\n      jump\t// in\n    tag_484:\n        /* \"#utility.yul\":13283:13449   */\n      pop\n        /* \"#utility.yul\":13531:13535   */\n      0x40\n        /* \"#utility.yul\":13524:13529   */\n      dup4\n        /* \"#utility.yul\":13520:13536   */\n      add\n        /* \"#utility.yul\":13514:13537   */\n      mload\n        /* \"#utility.yul\":13584:13587   */\n      dup5\n        /* \"#utility.yul\":13578:13582   */\n      dup3\n        /* \"#utility.yul\":13574:13588   */\n      sub\n        /* \"#utility.yul\":13567:13571   */\n      0x40\n        /* \"#utility.yul\":13562:13565   */\n      dup7\n        /* \"#utility.yul\":13558:13572   */\n      add\n        /* \"#utility.yul\":13551:13589   */\n      mstore\n        /* \"#utility.yul\":13610:13683   */\n      tag_485\n        /* \"#utility.yul\":13678:13682   */\n      dup3\n        /* \"#utility.yul\":13664:13676   */\n      dup3\n        /* \"#utility.yul\":13610:13683   */\n      tag_318\n      jump\t// in\n    tag_485:\n        /* \"#utility.yul\":13602:13683   */\n      swap2\n      pop\n        /* \"#utility.yul\":13459:13694   */\n      pop\n        /* \"#utility.yul\":13783:13787   */\n      0x60\n        /* \"#utility.yul\":13776:13781   */\n      dup4\n        /* \"#utility.yul\":13772:13788   */\n      add\n        /* \"#utility.yul\":13766:13789   */\n      mload\n        /* \"#utility.yul\":13836:13839   */\n      dup5\n        /* \"#utility.yul\":13830:13834   */\n      dup3\n        /* \"#utility.yul\":13826:13840   */\n      sub\n        /* \"#utility.yul\":13819:13823   */\n      0x60\n        /* \"#utility.yul\":13814:13817   */\n      dup7\n        /* \"#utility.yul\":13810:13824   */\n      add\n        /* \"#utility.yul\":13803:13841   */\n      mstore\n        /* \"#utility.yul\":13862:13935   */\n      tag_486\n        /* \"#utility.yul\":13930:13934   */\n      dup3\n        /* \"#utility.yul\":13916:13928   */\n      dup3\n        /* \"#utility.yul\":13862:13935   */\n      tag_318\n      jump\t// in\n    tag_486:\n        /* \"#utility.yul\":13854:13935   */\n      swap2\n      pop\n        /* \"#utility.yul\":13704:13946   */\n      pop\n        /* \"#utility.yul\":14041:14045   */\n      0x80\n        /* \"#utility.yul\":14034:14039   */\n      dup4\n        /* \"#utility.yul\":14030:14046   */\n      add\n        /* \"#utility.yul\":14024:14047   */\n      mload\n        /* \"#utility.yul\":14060:14123   */\n      tag_487\n        /* \"#utility.yul\":14117:14121   */\n      0x80\n        /* \"#utility.yul\":14112:14115   */\n      dup7\n        /* \"#utility.yul\":14108:14122   */\n      add\n        /* \"#utility.yul\":14094:14106   */\n      dup3\n        /* \"#utility.yul\":14060:14123   */\n      tag_308\n      jump\t// in\n    tag_487:\n        /* \"#utility.yul\":13956:14133   */\n      pop\n        /* \"#utility.yul\":14221:14225   */\n      0xa0\n        /* \"#utility.yul\":14214:14219   */\n      dup4\n        /* \"#utility.yul\":14210:14226   */\n      add\n        /* \"#utility.yul\":14204:14227   */\n      mload\n        /* \"#utility.yul\":14240:14303   */\n      tag_488\n        /* \"#utility.yul\":14297:14301   */\n      0xa0\n        /* \"#utility.yul\":14292:14295   */\n      dup7\n        /* \"#utility.yul\":14288:14302   */\n      add\n        /* \"#utility.yul\":14274:14286   */\n      dup3\n        /* \"#utility.yul\":14240:14303   */\n      tag_308\n      jump\t// in\n    tag_488:\n        /* \"#utility.yul\":14143:14313   */\n      pop\n        /* \"#utility.yul\":14402:14406   */\n      0xc0\n        /* \"#utility.yul\":14395:14400   */\n      dup4\n        /* \"#utility.yul\":14391:14407   */\n      add\n        /* \"#utility.yul\":14385:14408   */\n      mload\n        /* \"#utility.yul\":14421:14484   */\n      tag_489\n        /* \"#utility.yul\":14478:14482   */\n      0xc0\n        /* \"#utility.yul\":14473:14476   */\n      dup7\n        /* \"#utility.yul\":14469:14483   */\n      add\n        /* \"#utility.yul\":14455:14467   */\n      dup3\n        /* \"#utility.yul\":14421:14484   */\n      tag_308\n      jump\t// in\n    tag_489:\n        /* \"#utility.yul\":14323:14494   */\n      pop\n        /* \"#utility.yul\":14580:14584   */\n      0xe0\n        /* \"#utility.yul\":14573:14578   */\n      dup4\n        /* \"#utility.yul\":14569:14585   */\n      add\n        /* \"#utility.yul\":14563:14586   */\n      mload\n        /* \"#utility.yul\":14633:14636   */\n      dup5\n        /* \"#utility.yul\":14627:14631   */\n      dup3\n        /* \"#utility.yul\":14623:14637   */\n      sub\n        /* \"#utility.yul\":14616:14620   */\n      0xe0\n        /* \"#utility.yul\":14611:14614   */\n      dup7\n        /* \"#utility.yul\":14607:14621   */\n      add\n        /* \"#utility.yul\":14600:14638   */\n      mstore\n        /* \"#utility.yul\":14659:14762   */\n      tag_490\n        /* \"#utility.yul\":14757:14761   */\n      dup3\n        /* \"#utility.yul\":14743:14755   */\n      dup3\n        /* \"#utility.yul\":14659:14762   */\n      tag_324\n      jump\t// in\n    tag_490:\n        /* \"#utility.yul\":14651:14762   */\n      swap2\n      pop\n        /* \"#utility.yul\":14504:14773   */\n      pop\n        /* \"#utility.yul\":14790:14794   */\n      dup1\n        /* \"#utility.yul\":14783:14794   */\n      swap2\n      pop\n        /* \"#utility.yul\":13063:14800   */\n      pop\n        /* \"#utility.yul\":12953:14800   */\n      swap3\n      swap2\n      pop\n      pop\n      jump\t// out\n        /* \"#utility.yul\":14806:15054   */\n    tag_326:\n        /* \"#utility.yul\":14921:14931   */\n      0x00\n        /* \"#utility.yul\":14956:15048   */\n      tag_492\n        /* \"#utility.yul\":15044:15047   */\n      dup4\n        /* \"#utility.yul\":15036:15042   */\n      dup4\n        /* \"#utility.yul\":14956:15048   */\n      tag_325\n      jump\t// in\n    tag_492:\n        /* \"#utility.yul\":14942:15048   */\n      swap1\n      pop\n        /* \"#utility.yul\":14806:15054   */\n      swap3\n      swap2\n      pop\n      pop\n      jump\t// out\n        /* \"#utility.yul\":15060:15196   */\n    tag_327:\n        /* \"#utility.yul\":15153:15157   */\n      0x00\n        /* \"#utility.yul\":15185:15189   */\n      0x20\n        /* \"#utility.yul\":15180:15183   */\n      dup3\n        /* \"#utility.yul\":15176:15190   */\n      add\n        /* \"#utility.yul\":15168:15190   */\n      swap1\n      pop\n        /* \"#utility.yul\":15060:15196   */\n      swap2\n      swap1\n      pop\n      jump\t// out\n        /* \"#utility.yul\":15262:16357   */\n    tag_328:\n        /* \"#utility.yul\":15427:15430   */\n      0x00\n        /* \"#utility.yul\":15456:15533   */\n      tag_495\n        /* \"#utility.yul\":15527:15532   */\n      dup3\n        /* \"#utility.yul\":15456:15533   */\n      tag_314\n      jump\t// in\n    tag_495:\n        /* \"#utility.yul\":15549:15658   */\n      tag_496\n        /* \"#utility.yul\":15651:15657   */\n      dup2\n        /* \"#utility.yul\":15646:15649   */\n      dup6\n        /* \"#utility.yul\":15549:15658   */\n      tag_315\n      jump\t// in\n    tag_496:\n        /* \"#utility.yul\":15542:15658   */\n      swap4\n      pop\n        /* \"#utility.yul\":15684:15687   */\n      dup4\n        /* \"#utility.yul\":15729:15733   */\n      0x20\n        /* \"#utility.yul\":15721:15727   */\n      dup3\n        /* \"#utility.yul\":15717:15734   */\n      mul\n        /* \"#utility.yul\":15712:15715   */\n      dup6\n        /* \"#utility.yul\":15708:15735   */\n      add\n        /* \"#utility.yul\":15759:15838   */\n      tag_497\n        /* \"#utility.yul\":15832:15837   */\n      dup6\n        /* \"#utility.yul\":15759:15838   */\n      tag_316\n      jump\t// in\n    tag_497:\n        /* \"#utility.yul\":15861:15868   */\n      dup1\n        /* \"#utility.yul\":15892:15893   */\n      0x00\n        /* \"#utility.yul\":15877:16312   */\n    tag_498:\n        /* \"#utility.yul\":15902:15908   */\n      dup6\n        /* \"#utility.yul\":15899:15900   */\n      dup2\n        /* \"#utility.yul\":15896:15909   */\n      lt\n        /* \"#utility.yul\":15877:16312   */\n      iszero\n      tag_500\n      jumpi\n        /* \"#utility.yul\":15973:15982   */\n      dup5\n        /* \"#utility.yul\":15967:15971   */\n      dup5\n        /* \"#utility.yul\":15963:15983   */\n      sub\n        /* \"#utility.yul\":15958:15961   */\n      dup10\n        /* \"#utility.yul\":15951:15984   */\n      mstore\n        /* \"#utility.yul\":16024:16030   */\n      dup2\n        /* \"#utility.yul\":16018:16031   */\n      mload\n        /* \"#utility.yul\":16052:16162   */\n      tag_501\n        /* \"#utility.yul\":16157:16161   */\n      dup6\n        /* \"#utility.yul\":16142:16155   */\n      dup3\n        /* \"#utility.yul\":16052:16162   */\n      tag_326\n      jump\t// in\n    tag_501:\n        /* \"#utility.yul\":16044:16162   */\n      swap5\n      pop\n        /* \"#utility.yul\":16185:16268   */\n      tag_502\n        /* \"#utility.yul\":16261:16267   */\n      dup4\n        /* \"#utility.yul\":16185:16268   */\n      tag_327\n      jump\t// in\n    tag_502:\n        /* \"#utility.yul\":16175:16268   */\n      swap3\n      pop\n        /* \"#utility.yul\":16297:16301   */\n      0x20\n        /* \"#utility.yul\":16292:16295   */\n      dup11\n        /* \"#utility.yul\":16288:16302   */\n      add\n        /* \"#utility.yul\":16281:16302   */\n      swap10\n      pop\n        /* \"#utility.yul\":15937:16312   */\n      pop\n        /* \"#utility.yul\":15924:15925   */\n      0x01\n        /* \"#utility.yul\":15921:15922   */\n      dup2\n        /* \"#utility.yul\":15917:15926   */\n      add\n        /* \"#utility.yul\":15912:15926   */\n      swap1\n      pop\n        /* \"#utility.yul\":15877:16312   */\n      jump(tag_498)\n    tag_500:\n        /* \"#utility.yul\":15881:15895   */\n      pop\n        /* \"#utility.yul\":16328:16332   */\n      dup3\n        /* \"#utility.yul\":16321:16332   */\n      swap8\n      pop\n        /* \"#utility.yul\":16348:16351   */\n      dup8\n        /* \"#utility.yul\":16341:16351   */\n      swap6\n      pop\n        /* \"#utility.yul\":15432:16357   */\n      pop\n      pop\n      pop\n      pop\n      pop\n        /* \"#utility.yul\":15262:16357   */\n      swap3\n      swap2\n      pop\n      pop\n      jump\t// out\n        /* \"#utility.yul\":16363:16828   */\n    tag_54:\n        /* \"#utility.yul\":16552:16556   */\n      0x00\n        /* \"#utility.yul\":16590:16592   */\n      0x20\n        /* \"#utility.yul\":16579:16588   */\n      dup3\n        /* \"#utility.yul\":16575:16593   */\n      add\n        /* \"#utility.yul\":16567:16593   */\n      swap1\n      pop\n        /* \"#utility.yul\":16639:16648   */\n      dup2\n        /* \"#utility.yul\":16633:16637   */\n      dup2\n        /* \"#utility.yul\":16629:16649   */\n      sub\n        /* \"#utility.yul\":16625:16626   */\n      0x00\n        /* \"#utility.yul\":16614:16623   */\n      dup4\n        /* \"#utility.yul\":16610:16627   */\n      add\n        /* \"#utility.yul\":16603:16650   */\n      mstore\n        /* \"#utility.yul\":16667:16821   */\n      tag_504\n        /* \"#utility.yul\":16816:16820   */\n      dup2\n        /* \"#utility.yul\":16807:16813   */\n      dup5\n        /* \"#utility.yul\":16667:16821   */\n      tag_328\n      jump\t// in\n    tag_504:\n        /* \"#utility.yul\":16659:16821   */\n      swap1\n      pop\n        /* \"#utility.yul\":16363:16828   */\n      swap3\n      swap2\n      pop\n      pop\n      jump\t// out\n        /* \"#utility.yul\":16834:17014   */\n    tag_329:\n        /* \"#utility.yul\":16882:16959   */\n      0x4e487b7100000000000000000000000000000000000000000000000000000000\n        /* \"#utility.yul\":16879:16880   */\n      0x00\n        /* \"#utility.yul\":16872:16960   */\n      mstore\n        /* \"#utility.yul\":16979:16983   */\n      0x22\n        /* \"#utility.yul\":16976:16977   */\n      0x04\n        /* \"#utility.yul\":16969:16984   */\n      mstore\n        /* \"#utility.yul\":17003:17007   */\n      0x24\n        /* \"#utility.yul\":17000:17001   */\n      0x00\n        /* \"#utility.yul\":16993:17008   */\n      revert\n        /* \"#utility.yul\":17020:17340   */\n    tag_65:\n        /* \"#utility.yul\":17064:17070   */\n      0x00\n        /* \"#utility.yul\":17101:17102   */\n      0x02\n        /* \"#utility.yul\":17095:17099   */\n      dup3\n        /* \"#utility.yul\":17091:17103   */\n      div\n        /* \"#utility.yul\":17081:17103   */\n      swap1\n      pop\n        /* \"#utility.yul\":17148:17149   */\n      0x01\n        /* \"#utility.yul\":17142:17146   */\n      dup3\n        /* \"#utility.yul\":17138:17150   */\n      and\n        /* \"#utility.yul\":17169:17187   */\n      dup1\n        /* \"#utility.yul\":17159:17240   */\n      tag_507\n      jumpi\n        /* \"#utility.yul\":17225:17229   */\n      0x7f\n        /* \"#utility.yul\":17217:17223   */\n      dup3\n        /* \"#utility.yul\":17213:17230   */\n      and\n        /* \"#utility.yul\":17203:17230   */\n      swap2\n      pop\n        /* \"#utility.yul\":17159:17240   */\n    tag_507:\n        /* \"#utility.yul\":17287:17289   */\n      0x20\n        /* \"#utility.yul\":17279:17285   */\n      dup3\n        /* \"#utility.yul\":17276:17290   */\n      lt\n        /* \"#utility.yul\":17256:17274   */\n      dup2\n        /* \"#utility.yul\":17253:17291   */\n      sub\n        /* \"#utility.yul\":17250:17334   */\n      tag_508\n      jumpi\n        /* \"#utility.yul\":17306:17324   */\n      tag_509\n      tag_329\n      jump\t// in\n    tag_509:\n        /* \"#utility.yul\":17250:17334   */\n    tag_508:\n        /* \"#utility.yul\":17071:17340   */\n      pop\n        /* \"#utility.yul\":17020:17340   */\n      swap2\n      swap1\n      pop\n      jump\t// out\n        /* \"#utility.yul\":17346:17577   */\n    tag_330:\n        /* \"#utility.yul\":17486:17520   */\n      0x4d696e696d756d206f666665722070726963652073686f756c64206265206772\n        /* \"#utility.yul\":17482:17483   */\n      0x00\n        /* \"#utility.yul\":17474:17480   */\n      dup3\n        /* \"#utility.yul\":17470:17484   */\n      add\n        /* \"#utility.yul\":17463:17521   */\n      mstore\n        /* \"#utility.yul\":17555:17569   */\n      0x6561746572207468616e20300000000000000000000000000000000000000000\n        /* \"#utility.yul\":17550:17552   */\n      0x20\n        /* \"#utility.yul\":17542:17548   */\n      dup3\n        /* \"#utility.yul\":17538:17553   */\n      add\n        /* \"#utility.yul\":17531:17570   */\n      mstore\n        /* \"#utility.yul\":17346:17577   */\n      pop\n      jump\t// out\n        /* \"#utility.yul\":17583:17949   */\n    tag_331:\n        /* \"#utility.yul\":17725:17728   */\n      0x00\n        /* \"#utility.yul\":17746:17813   */\n      tag_512\n        /* \"#utility.yul\":17810:17812   */\n      0x2c\n        /* \"#utility.yul\":17805:17808   */\n      dup4\n        /* \"#utility.yul\":17746:17813   */\n      tag_295\n      jump\t// in\n    tag_512:\n        /* \"#utility.yul\":17739:17813   */\n      swap2\n      pop\n        /* \"#utility.yul\":17822:17915   */\n      tag_513\n        /* \"#utility.yul\":17911:17914   */\n      dup3\n        /* \"#utility.yul\":17822:17915   */\n      tag_330\n      jump\t// in\n    tag_513:\n        /* \"#utility.yul\":17940:17942   */\n      0x40\n        /* \"#utility.yul\":17935:17938   */\n      dup3\n        /* \"#utility.yul\":17931:17943   */\n      add\n        /* \"#utility.yul\":17924:17943   */\n      swap1\n      pop\n        /* \"#utility.yul\":17583:17949   */\n      swap2\n      swap1\n      pop\n      jump\t// out\n        /* \"#utility.yul\":17955:18374   */\n    tag_78:\n        /* \"#utility.yul\":18121:18125   */\n      0x00\n        /* \"#utility.yul\":18159:18161   */\n      0x20\n        /* \"#utility.yul\":18148:18157   */\n      dup3\n        /* \"#utility.yul\":18144:18162   */\n      add\n        /* \"#utility.yul\":18136:18162   */\n      swap1\n      pop\n        /* \"#utility.yul\":18208:18217   */\n      dup2\n        /* \"#utility.yul\":18202:18206   */\n      dup2\n        /* \"#utility.yul\":18198:18218   */\n      sub\n        /* \"#utility.yul\":18194:18195   */\n      0x00\n        /* \"#utility.yul\":18183:18192   */\n      dup4\n        /* \"#utility.yul\":18179:18196   */\n      add\n        /* \"#utility.yul\":18172:18219   */\n      mstore\n        /* \"#utility.yul\":18236:18367   */\n      tag_515\n        /* \"#utility.yul\":18362:18366   */\n      dup2\n        /* \"#utility.yul\":18236:18367   */\n      tag_331\n      jump\t// in\n    tag_515:\n        /* \"#utility.yul\":18228:18367   */\n      swap1\n      pop\n        /* \"#utility.yul\":17955:18374   */\n      swap2\n      swap1\n      pop\n      jump\t// out\n        /* \"#utility.yul\":18380:18560   */\n    tag_81:\n        /* \"#utility.yul\":18428:18505   */\n      0x4e487b7100000000000000000000000000000000000000000000000000000000\n        /* \"#utility.yul\":18425:18426   */\n      0x00\n        /* \"#utility.yul\":18418:18506   */\n      mstore\n        /* \"#utility.yul\":18525:18529   */\n      0x41\n        /* \"#utility.yul\":18522:18523   */\n      0x04\n        /* \"#utility.yul\":18515:18530   */\n      mstore\n        /* \"#utility.yul\":18549:18553   */\n      0x24\n        /* \"#utility.yul\":18546:18547   */\n      0x00\n        /* \"#utility.yul\":18539:18554   */\n      revert\n        /* \"#utility.yul\":18566:18746   */\n    tag_332:\n        /* \"#utility.yul\":18614:18691   */\n      0x4e487b7100000000000000000000000000000000000000000000000000000000\n        /* \"#utility.yul\":18611:18612   */\n      0x00\n        /* \"#utility.yul\":18604:18692   */\n      mstore\n        /* \"#utility.yul\":18711:18715   */\n      0x11\n        /* \"#utility.yul\":18708:18709   */\n      0x04\n        /* \"#utility.yul\":18701:18716   */\n      mstore\n        /* \"#utility.yul\":18735:18739   */\n      0x24\n        /* \"#utility.yul\":18732:18733   */\n      0x00\n        /* \"#utility.yul\":18725:18740   */\n      revert\n        /* \"#utility.yul\":18752:18943   */\n    tag_84:\n        /* \"#utility.yul\":18792:18795   */\n      0x00\n        /* \"#utility.yul\":18811:18831   */\n      tag_519\n        /* \"#utility.yul\":18829:18830   */\n      dup3\n        /* \"#utility.yul\":18811:18831   */\n      tag_287\n      jump\t// in\n    tag_519:\n        /* \"#utility.yul\":18806:18831   */\n      swap2\n      pop\n        /* \"#utility.yul\":18845:18865   */\n      tag_520\n        /* \"#utility.yul\":18863:18864   */\n      dup4\n        /* \"#utility.yul\":18845:18865   */\n      tag_287\n      jump\t// in\n    tag_520:\n        /* \"#utility.yul\":18840:18865   */\n      swap3\n      pop\n        /* \"#utility.yul\":18888:18889   */\n      dup3\n        /* \"#utility.yul\":18885:18886   */\n      dup3\n        /* \"#utility.yul\":18881:18890   */\n      add\n        /* \"#utility.yul\":18874:18890   */\n      swap1\n      pop\n        /* \"#utility.yul\":18909:18912   */\n      dup1\n        /* \"#utility.yul\":18906:18907   */\n      dup3\n        /* \"#utility.yul\":18903:18913   */\n      gt\n        /* \"#utility.yul\":18900:18936   */\n      iszero\n      tag_521\n      jumpi\n        /* \"#utility.yul\":18916:18934   */\n      tag_522\n      tag_332\n      jump\t// in\n    tag_522:\n        /* \"#utility.yul\":18900:18936   */\n    tag_521:\n        /* \"#utility.yul\":18752:18943   */\n      swap3\n      swap2\n      pop\n      pop\n      jump\t// out\n        /* \"#utility.yul\":18949:19090   */\n    tag_333:\n        /* \"#utility.yul\":18998:19002   */\n      0x00\n        /* \"#utility.yul\":19021:19024   */\n      dup2\n        /* \"#utility.yul\":19013:19024   */\n      swap1\n      pop\n        /* \"#utility.yul\":19044:19047   */\n      dup2\n        /* \"#utility.yul\":19041:19042   */\n      0x00\n        /* \"#utility.yul\":19034:19048   */\n      mstore\n        /* \"#utility.yul\":19078:19082   */\n      0x20\n        /* \"#utility.yul\":19075:19076   */\n      0x00\n        /* \"#utility.yul\":19065:19083   */\n      keccak256\n        /* \"#utility.yul\":19057:19083   */\n      swap1\n      pop\n        /* \"#utility.yul\":18949:19090   */\n      swap2\n      swap1\n      pop\n      jump\t// out\n        /* \"#utility.yul\":19096:19189   */\n    tag_334:\n        /* \"#utility.yul\":19133:19139   */\n      0x00\n        /* \"#utility.yul\":19180:19182   */\n      0x20\n        /* \"#utility.yul\":19175:19177   */\n      0x1f\n        /* \"#utility.yul\":19168:19173   */\n      dup4\n        /* \"#utility.yul\":19164:19178   */\n      add\n        /* \"#utility.yul\":19160:19183   */\n      div\n        /* \"#utility.yul\":19150:19183   */\n      swap1\n      pop\n        /* \"#utility.yul\":19096:19189   */\n      swap2\n      swap1\n      pop\n      jump\t// out\n        /* \"#utility.yul\":19195:19302   */\n    tag_335:\n        /* \"#utility.yul\":19239:19247   */\n      0x00\n        /* \"#utility.yul\":19289:19294   */\n      dup3\n        /* \"#utility.yul\":19283:19287   */\n      dup3\n        /* \"#utility.yul\":19279:19295   */\n      shl\n        /* \"#utility.yul\":19258:19295   */\n      swap1\n      pop\n        /* \"#utility.yul\":19195:19302   */\n      swap3\n      swap2\n      pop\n      pop\n      jump\t// out\n        /* \"#utility.yul\":19308:19701   */\n    tag_336:\n        /* \"#utility.yul\":19377:19383   */\n      0x00\n        /* \"#utility.yul\":19427:19428   */\n      0x08\n        /* \"#utility.yul\":19415:19425   */\n      dup4\n        /* \"#utility.yul\":19411:19429   */\n      mul\n        /* \"#utility.yul\":19450:19547   */\n      tag_527\n        /* \"#utility.yul\":19480:19546   */\n      0xffffffffffffffffffffffffffffffffffffffffffffffffffffffffffffffff\n        /* \"#utility.yul\":19469:19478   */\n      dup3\n        /* \"#utility.yul\":19450:19547   */\n      tag_335\n      jump\t// in\n    tag_527:\n        /* \"#utility.yul\":19568:19607   */\n      tag_528\n        /* \"#utility.yul\":19598:19606   */\n      dup7\n        /* \"#utility.yul\":19587:19596   */\n      dup4\n        /* \"#utility.yul\":19568:19607   */\n      tag_335\n      jump\t// in\n    tag_528:\n        /* \"#utility.yul\":19556:19607   */\n      swap6\n      pop\n        /* \"#utility.yul\":19640:19644   */\n      dup1\n        /* \"#utility.yul\":19636:19645   */\n      not\n        /* \"#utility.yul\":19629:19634   */\n      dup5\n        /* \"#utility.yul\":19625:19646   */\n      and\n        /* \"#utility.yul\":19616:19646   */\n      swap4\n      pop\n        /* \"#utility.yul\":19689:19693   */\n      dup1\n        /* \"#utility.yul\":19679:19687   */\n      dup7\n        /* \"#utility.yul\":19675:19694   */\n      and\n        /* \"#utility.yul\":19668:19673   */\n      dup5\n        /* \"#utility.yul\":19665:19695   */\n      or\n        /* \"#utility.yul\":19655:19695   */\n      swap3\n      pop\n        /* \"#utility.yul\":19384:19701   */\n      pop\n      pop\n        /* \"#utility.yul\":19308:19701   */\n      swap4\n      swap3\n      pop\n      pop\n      pop\n      jump\t// out\n        /* \"#utility.yul\":19707:19767   */\n    tag_337:\n        /* \"#utility.yul\":19735:19738   */\n      0x00\n        /* \"#utility.yul\":19756:19761   */\n      dup2\n        /* \"#utility.yul\":19749:19761   */\n      swap1\n      pop\n        /* \"#utility.yul\":19707:19767   */\n      swap2\n      swap1\n      pop\n      jump\t// out\n        /* \"#utility.yul\":19773:19915   */\n    tag_338:\n        /* \"#utility.yul\":19823:19832   */\n      0x00\n        /* \"#utility.yul\":19856:19909   */\n      tag_531\n        /* \"#utility.yul\":19874:19908   */\n      tag_532\n        /* \"#utility.yul\":19883:19907   */\n      tag_533\n        /* \"#utility.yul\":19901:19906   */\n      dup5\n        /* \"#utility.yul\":19883:19907   */\n      tag_287\n      jump\t// in\n    tag_533:\n        /* \"#utility.yul\":19874:19908   */\n      tag_337\n      jump\t// in\n    tag_532:\n        /* \"#utility.yul\":19856:19909   */\n      tag_287\n      jump\t// in\n    tag_531:\n        /* \"#utility.yul\":19843:19909   */\n      swap1\n      pop\n        /* \"#utility.yul\":19773:19915   */\n      swap2\n      swap1\n      pop\n      jump\t// out\n        /* \"#utility.yul\":19921:19996   */\n    tag_339:\n        /* \"#utility.yul\":19964:19967   */\n      0x00\n        /* \"#utility.yul\":19985:19990   */\n      dup2\n        /* \"#utility.yul\":19978:19990   */\n      swap1\n      pop\n        /* \"#utility.yul\":19921:19996   */\n      swap2\n      swap1\n      pop\n      jump\t// out\n        /* \"#utility.yul\":20002:20271   */\n    tag_340:\n        /* \"#utility.yul\":20112:20151   */\n      tag_536\n        /* \"#utility.yul\":20143:20150   */\n      dup4\n        /* \"#utility.yul\":20112:20151   */\n      tag_338\n      jump\t// in\n    tag_536:\n        /* \"#utility.yul\":20173:20264   */\n      tag_537\n        /* \"#utility.yul\":20222:20263   */\n      tag_538\n        /* \"#utility.yul\":20246:20262   */\n      dup3\n        /* \"#utility.yul\":20222:20263   */\n      tag_339\n      jump\t// in\n    tag_538:\n        /* \"#utility.yul\":20214:20220   */\n      dup5\n        /* \"#utility.yul\":20207:20211   */\n      dup5\n        /* \"#utility.yul\":20201:20212   */\n      sload\n        /* \"#utility.yul\":20173:20264   */\n      tag_336\n      jump\t// in\n    tag_537:\n        /* \"#utility.yul\":20167:20171   */\n      dup3\n        /* \"#utility.yul\":20160:20265   */\n      sstore\n        /* \"#utility.yul\":20078:20271   */\n      pop\n        /* \"#utility.yul\":20002:20271   */\n      pop\n      pop\n      pop\n      jump\t// out\n        /* \"#utility.yul\":20277:20350   */\n    tag_341:\n        /* \"#utility.yul\":20322:20325   */\n      0x00\n        /* \"#utility.yul\":20277:20350   */\n      swap1\n      jump\t// out\n        /* \"#utility.yul\":20356:20545   */\n    tag_342:\n        /* \"#utility.yul\":20433:20465   */\n      tag_541\n      tag_341\n      jump\t// in\n    tag_541:\n        /* \"#utility.yul\":20474:20539   */\n      tag_542\n        /* \"#utility.yul\":20532:20538   */\n      dup2\n        /* \"#utility.yul\":20524:20530   */\n      dup5\n        /* \"#utility.yul\":20518:20522   */\n      dup5\n        /* \"#utility.yul\":20474:20539   */\n      tag_340\n      jump\t// in\n    tag_542:\n        /* \"#utility.yul\":20409:20545   */\n      pop\n        /* \"#utility.yul\":20356:20545   */\n      pop\n      pop\n      jump\t// out\n        /* \"#utility.yul\":20551:20737   */\n    tag_343:\n        /* \"#utility.yul\":20611:20731   */\n    tag_544:\n        /* \"#utility.yul\":20628:20631   */\n      dup2\n        /* \"#utility.yul\":20621:20626   */\n      dup2\n        /* \"#utility.yul\":20618:20632   */\n      lt\n        /* \"#utility.yul\":20611:20731   */\n      iszero\n      tag_546\n      jumpi\n        /* \"#utility.yul\":20682:20721   */\n      tag_547\n        /* \"#utility.yul\":20719:20720   */\n      0x00\n        /* \"#utility.yul\":20712:20717   */\n      dup3\n        /* \"#utility.yul\":20682:20721   */\n      tag_342\n      jump\t// in\n    tag_547:\n        /* \"#utility.yul\":20655:20656   */\n      0x01\n        /* \"#utility.yul\":20648:20653   */\n      dup2\n        /* \"#utility.yul\":20644:20657   */\n      add\n        /* \"#utility.yul\":20635:20657   */\n      swap1\n      pop\n        /* \"#utility.yul\":20611:20731   */\n      jump(tag_544)\n    tag_546:\n        /* \"#utility.yul\":20551:20737   */\n      pop\n      pop\n      jump\t// out\n        /* \"#utility.yul\":20743:21286   */\n    tag_344:\n        /* \"#utility.yul\":20844:20846   */\n      0x1f\n        /* \"#utility.yul\":20839:20842   */\n      dup3\n        /* \"#utility.yul\":20836:20847   */\n      gt\n        /* \"#utility.yul\":20833:21279   */\n      iszero\n      tag_549\n      jumpi\n        /* \"#utility.yul\":20878:20916   */\n      tag_550\n        /* \"#utility.yul\":20910:20915   */\n      dup2\n        /* \"#utility.yul\":20878:20916   */\n      tag_333\n      jump\t// in\n    tag_550:\n        /* \"#utility.yul\":20962:20991   */\n      tag_551\n        /* \"#utility.yul\":20980:20990   */\n      dup5\n        /* \"#utility.yul\":20962:20991   */\n      tag_334\n      jump\t// in\n    tag_551:\n        /* \"#utility.yul\":20952:20960   */\n      dup2\n        /* \"#utility.yul\":20948:20992   */\n      add\n        /* \"#utility.yul\":21145:21147   */\n      0x20\n        /* \"#utility.yul\":21133:21143   */\n      dup6\n        /* \"#utility.yul\":21130:21148   */\n      lt\n        /* \"#utility.yul\":21127:21176   */\n      iszero\n      tag_552\n      jumpi\n        /* \"#utility.yul\":21166:21174   */\n      dup2\n        /* \"#utility.yul\":21151:21174   */\n      swap1\n      pop\n        /* \"#utility.yul\":21127:21176   */\n    tag_552:\n        /* \"#utility.yul\":21189:21269   */\n      tag_553\n        /* \"#utility.yul\":21245:21267   */\n      tag_554\n        /* \"#utility.yul\":21263:21266   */\n      dup6\n        /* \"#utility.yul\":21245:21267   */\n      tag_334\n      jump\t// in\n    tag_554:\n        /* \"#utility.yul\":21235:21243   */\n      dup4\n        /* \"#utility.yul\":21231:21268   */\n      add\n        /* \"#utility.yul\":21218:21229   */\n      dup3\n        /* \"#utility.yul\":21189:21269   */\n      tag_343\n      jump\t// in\n    tag_553:\n        /* \"#utility.yul\":20848:21279   */\n      pop\n      pop\n        /* \"#utility.yul\":20833:21279   */\n    tag_549:\n        /* \"#utility.yul\":20743:21286   */\n      pop\n      pop\n      pop\n      jump\t// out\n        /* \"#utility.yul\":21292:21409   */\n    tag_345:\n        /* \"#utility.yul\":21346:21354   */\n      0x00\n        /* \"#utility.yul\":21396:21401   */\n      dup3\n        /* \"#utility.yul\":21390:21394   */\n      dup3\n        /* \"#utility.yul\":21386:21402   */\n      shr\n        /* \"#utility.yul\":21365:21402   */\n      swap1\n      pop\n        /* \"#utility.yul\":21292:21409   */\n      swap3\n      swap2\n      pop\n      pop\n      jump\t// out\n        /* \"#utility.yul\":21415:21584   */\n    tag_346:\n        /* \"#utility.yul\":21459:21465   */\n      0x00\n        /* \"#utility.yul\":21492:21543   */\n      tag_557\n        /* \"#utility.yul\":21540:21541   */\n      0x00\n        /* \"#utility.yul\":21536:21542   */\n      not\n        /* \"#utility.yul\":21528:21533   */\n      dup5\n        /* \"#utility.yul\":21525:21526   */\n      0x08\n        /* \"#utility.yul\":21521:21534   */\n      mul\n        /* \"#utility.yul\":21492:21543   */\n      tag_345\n      jump\t// in\n    tag_557:\n        /* \"#utility.yul\":21488:21544   */\n      not\n        /* \"#utility.yul\":21573:21577   */\n      dup1\n        /* \"#utility.yul\":21567:21571   */\n      dup4\n        /* \"#utility.yul\":21563:21578   */\n      and\n        /* \"#utility.yul\":21553:21578   */\n      swap2\n      pop\n        /* \"#utility.yul\":21466:21584   */\n      pop\n        /* \"#utility.yul\":21415:21584   */\n      swap3\n      swap2\n      pop\n      pop\n      jump\t// out\n        /* \"#utility.yul\":21589:21884   */\n    tag_347:\n        /* \"#utility.yul\":21665:21669   */\n      0x00\n        /* \"#utility.yul\":21811:21840   */\n      tag_559\n        /* \"#utility.yul\":21836:21839   */\n      dup4\n        /* \"#utility.yul\":21830:21834   */\n      dup4\n        /* \"#utility.yul\":21811:21840   */\n      tag_346\n      jump\t// in\n    tag_559:\n        /* \"#utility.yul\":21803:21840   */\n      swap2\n      pop\n        /* \"#utility.yul\":21873:21876   */\n      dup3\n        /* \"#utility.yul\":21870:21871   */\n      0x02\n        /* \"#utility.yul\":21866:21877   */\n      mul\n        /* \"#utility.yul\":21860:21864   */\n      dup3\n        /* \"#utility.yul\":21857:21878   */\n      or\n        /* \"#utility.yul\":21849:21878   */\n      swap1\n      pop\n        /* \"#utility.yul\":21589:21884   */\n      swap3\n      swap2\n      pop\n      pop\n      jump\t// out\n        /* \"#utility.yul\":21889:23284   */\n    tag_86:\n        /* \"#utility.yul\":22006:22043   */\n      tag_561\n        /* \"#utility.yul\":22039:22042   */\n      dup3\n        /* \"#utility.yul\":22006:22043   */\n      tag_294\n      jump\t// in\n    tag_561:\n        /* \"#utility.yul\":22108:22126   */\n      0xffffffffffffffff\n        /* \"#utility.yul\":22100:22106   */\n      dup2\n        /* \"#utility.yul\":22097:22127   */\n      gt\n        /* \"#utility.yul\":22094:22150   */\n      iszero\n      tag_562\n      jumpi\n        /* \"#utility.yul\":22130:22148   */\n      tag_563\n      tag_81\n      jump\t// in\n    tag_563:\n        /* \"#utility.yul\":22094:22150   */\n    tag_562:\n        /* \"#utility.yul\":22174:22212   */\n      tag_564\n        /* \"#utility.yul\":22206:22210   */\n      dup3\n        /* \"#utility.yul\":22200:22211   */\n      sload\n        /* \"#utility.yul\":22174:22212   */\n      tag_65\n      jump\t// in\n    tag_564:\n        /* \"#utility.yul\":22259:22326   */\n      tag_565\n        /* \"#utility.yul\":22319:22325   */\n      dup3\n        /* \"#utility.yul\":22311:22317   */\n      dup3\n        /* \"#utility.yul\":22305:22309   */\n      dup6\n        /* \"#utility.yul\":22259:22326   */\n      tag_344\n      jump\t// in\n    tag_565:\n        /* \"#utility.yul\":22353:22354   */\n      0x00\n        /* \"#utility.yul\":22377:22381   */\n      0x20\n        /* \"#utility.yul\":22364:22381   */\n      swap1\n      pop\n        /* \"#utility.yul\":22409:22411   */\n      0x1f\n        /* \"#utility.yul\":22401:22407   */\n      dup4\n        /* \"#utility.yul\":22398:22412   */\n      gt\n        /* \"#utility.yul\":22426:22427   */\n      0x01\n        /* \"#utility.yul\":22421:23039   */\n      dup2\n      eq\n      tag_567\n      jumpi\n        /* \"#utility.yul\":23083:23084   */\n      0x00\n        /* \"#utility.yul\":23100:23106   */\n      dup5\n        /* \"#utility.yul\":23097:23174   */\n      iszero\n      tag_568\n      jumpi\n        /* \"#utility.yul\":23149:23158   */\n      dup3\n        /* \"#utility.yul\":23144:23147   */\n      dup8\n        /* \"#utility.yul\":23140:23159   */\n      add\n        /* \"#utility.yul\":23134:23160   */\n      mload\n        /* \"#utility.yul\":23125:23160   */\n      swap1\n      pop\n        /* \"#utility.yul\":23097:23174   */\n    tag_568:\n        /* \"#utility.yul\":23200:23267   */\n      tag_569\n        /* \"#utility.yul\":23260:23266   */\n      dup6\n        /* \"#utility.yul\":23253:23258   */\n      dup3\n        /* \"#utility.yul\":23200:23267   */\n      tag_347\n      jump\t// in\n    tag_569:\n        /* \"#utility.yul\":23194:23198   */\n      dup7\n        /* \"#utility.yul\":23187:23268   */\n      sstore\n        /* \"#utility.yul\":23056:23278   */\n      pop\n        /* \"#utility.yul\":22391:23278   */\n      jump(tag_566)\n        /* \"#utility.yul\":22421:23039   */\n    tag_567:\n        /* \"#utility.yul\":22473:22477   */\n      0x1f\n        /* \"#utility.yul\":22469:22478   */\n      not\n        /* \"#utility.yul\":22461:22467   */\n      dup5\n        /* \"#utility.yul\":22457:22479   */\n      and\n        /* \"#utility.yul\":22507:22544   */\n      tag_570\n        /* \"#utility.yul\":22539:22543   */\n      dup7\n        /* \"#utility.yul\":22507:22544   */\n      tag_333\n      jump\t// in\n    tag_570:\n        /* \"#utility.yul\":22566:22567   */\n      0x00\n        /* \"#utility.yul\":22580:22788   */\n    tag_571:\n        /* \"#utility.yul\":22594:22601   */\n      dup3\n        /* \"#utility.yul\":22591:22592   */\n      dup2\n        /* \"#utility.yul\":22588:22602   */\n      lt\n        /* \"#utility.yul\":22580:22788   */\n      iszero\n      tag_573\n      jumpi\n        /* \"#utility.yul\":22673:22682   */\n      dup5\n        /* \"#utility.yul\":22668:22671   */\n      dup10\n        /* \"#utility.yul\":22664:22683   */\n      add\n        /* \"#utility.yul\":22658:22684   */\n      mload\n        /* \"#utility.yul\":22650:22656   */\n      dup3\n        /* \"#utility.yul\":22643:22685   */\n      sstore\n        /* \"#utility.yul\":22724:22725   */\n      0x01\n        /* \"#utility.yul\":22716:22722   */\n      dup3\n        /* \"#utility.yul\":22712:22726   */\n      add\n        /* \"#utility.yul\":22702:22726   */\n      swap2\n      pop\n        /* \"#utility.yul\":22771:22773   */\n      0x20\n        /* \"#utility.yul\":22760:22769   */\n      dup6\n        /* \"#utility.yul\":22756:22774   */\n      add\n        /* \"#utility.yul\":22743:22774   */\n      swap5\n      pop\n        /* \"#utility.yul\":22617:22621   */\n      0x20\n        /* \"#utility.yul\":22614:22615   */\n      dup2\n        /* \"#utility.yul\":22610:22622   */\n      add\n        /* \"#utility.yul\":22605:22622   */\n      swap1\n      pop\n        /* \"#utility.yul\":22580:22788   */\n      jump(tag_571)\n    tag_573:\n        /* \"#utility.yul\":22816:22822   */\n      dup7\n        /* \"#utility.yul\":22807:22814   */\n      dup4\n        /* \"#utility.yul\":22804:22823   */\n      lt\n        /* \"#utility.yul\":22801:22980   */\n      iszero\n      tag_574\n      jumpi\n        /* \"#utility.yul\":22874:22883   */\n      dup5\n        /* \"#utility.yul\":22869:22872   */\n      dup10\n        /* \"#utility.yul\":22865:22884   */\n      add\n        /* \"#utility.yul\":22859:22885   */\n      mload\n        /* \"#utility.yul\":22917:22965   */\n      tag_575\n        /* \"#utility.yul\":22959:22963   */\n      0x1f\n        /* \"#utility.yul\":22951:22957   */\n      dup10\n        /* \"#utility.yul\":22947:22964   */\n      and\n        /* \"#utility.yul\":22936:22945   */\n      dup3\n        /* \"#utility.yul\":22917:22965   */\n      tag_346\n      jump\t// in\n    tag_575:\n        /* \"#utility.yul\":22909:22915   */\n      dup4\n        /* \"#utility.yul\":22902:22966   */\n      sstore\n        /* \"#utility.yul\":22824:22980   */\n      pop\n        /* \"#utility.yul\":22801:22980   */\n    tag_574:\n        /* \"#utility.yul\":23026:23027   */\n      0x01\n        /* \"#utility.yul\":23022:23023   */\n      0x02\n        /* \"#utility.yul\":23014:23020   */\n      dup9\n        /* \"#utility.yul\":23010:23024   */\n      mul\n        /* \"#utility.yul\":23006:23028   */\n      add\n        /* \"#utility.yul\":23000:23004   */\n      dup9\n        /* \"#utility.yul\":22993:23029   */\n      sstore\n        /* \"#utility.yul\":22428:23039   */\n      pop\n      pop\n      pop\n        /* \"#utility.yul\":22391:23278   */\n    tag_566:\n      pop\n        /* \"#utility.yul\":21981:23284   */\n      pop\n      pop\n      pop\n        /* \"#utility.yul\":21889:23284   */\n      pop\n      pop\n      jump\t// out\n        /* \"#utility.yul\":23290:23523   */\n    tag_92:\n        /* \"#utility.yul\":23329:23332   */\n      0x00\n        /* \"#utility.yul\":23352:23376   */\n      tag_577\n        /* \"#utility.yul\":23370:23375   */\n      dup3\n        /* \"#utility.yul\":23352:23376   */\n      tag_287\n      jump\t// in\n    tag_577:\n        /* \"#utility.yul\":23343:23376   */\n      swap2\n      pop\n        /* \"#utility.yul\":23398:23464   */\n      0xffffffffffffffffffffffffffffffffffffffffffffffffffffffffffffffff\n        /* \"#utility.yul\":23391:23396   */\n      dup3\n        /* \"#utility.yul\":23388:23465   */\n      sub\n        /* \"#utility.yul\":23385:23488   */\n      tag_578\n      jumpi\n        /* \"#utility.yul\":23468:23486   */\n      tag_579\n      tag_332\n      jump\t// in\n    tag_579:\n        /* \"#utility.yul\":23385:23488   */\n    tag_578:\n        /* \"#utility.yul\":23515:23516   */\n      0x01\n        /* \"#utility.yul\":23508:23513   */\n      dup3\n        /* \"#utility.yul\":23504:23517   */\n      add\n        /* \"#utility.yul\":23497:23517   */\n      swap1\n      pop\n        /* \"#utility.yul\":23290:23523   */\n      swap2\n      swap1\n      pop\n      jump\t// out\n        /* \"#utility.yul\":23529:23709   */\n    tag_105:\n        /* \"#utility.yul\":23577:23654   */\n      0x4e487b7100000000000000000000000000000000000000000000000000000000\n        /* \"#utility.yul\":23574:23575   */\n      0x00\n        /* \"#utility.yul\":23567:23655   */\n      mstore\n        /* \"#utility.yul\":23674:23678   */\n      0x32\n        /* \"#utility.yul\":23671:23672   */\n      0x04\n        /* \"#utility.yul\":23664:23679   */\n      mstore\n        /* \"#utility.yul\":23698:23702   */\n      0x24\n        /* \"#utility.yul\":23695:23696   */\n      0x00\n        /* \"#utility.yul\":23688:23703   */\n      revert\n        /* \"#utility.yul\":23715:23887   */\n    tag_348:\n        /* \"#utility.yul\":23855:23879   */\n      0x41756374696f6e20646f6573206e6f7420657869737400000000000000000000\n        /* \"#utility.yul\":23851:23852   */\n      0x00\n        /* \"#utility.yul\":23843:23849   */\n      dup3\n        /* \"#utility.yul\":23839:23853   */\n      add\n        /* \"#utility.yul\":23832:23880   */\n      mstore\n        /* \"#utility.yul\":23715:23887   */\n      pop\n      jump\t// out\n        /* \"#utility.yul\":23893:24259   */\n    tag_349:\n        /* \"#utility.yul\":24035:24038   */\n      0x00\n        /* \"#utility.yul\":24056:24123   */\n      tag_583\n        /* \"#utility.yul\":24120:24122   */\n      0x16\n        /* \"#utility.yul\":24115:24118   */\n      dup4\n        /* \"#utility.yul\":24056:24123   */\n      tag_295\n      jump\t// in\n    tag_583:\n        /* \"#utility.yul\":24049:24123   */\n      swap2\n      pop\n        /* \"#utility.yul\":24132:24225   */\n      tag_584\n        /* \"#utility.yul\":24221:24224   */\n      dup3\n        /* \"#utility.yul\":24132:24225   */\n      tag_348\n      jump\t// in\n    tag_584:\n        /* \"#utility.yul\":24250:24252   */\n      0x20\n        /* \"#utility.yul\":24245:24248   */\n      dup3\n        /* \"#utility.yul\":24241:24253   */\n      add\n        /* \"#utility.yul\":24234:24253   */\n      swap1\n      pop\n        /* \"#utility.yul\":23893:24259   */\n      swap2\n      swap1\n      pop\n      jump\t// out\n        /* \"#utility.yul\":24265:24684   */\n    tag_114:\n        /* \"#utility.yul\":24431:24435   */\n      0x00\n        /* \"#utility.yul\":24469:24471   */\n      0x20\n        /* \"#utility.yul\":24458:24467   */\n      dup3\n        /* \"#utility.yul\":24454:24472   */\n      add\n        /* \"#utility.yul\":24446:24472   */\n      swap1\n      pop\n        /* \"#utility.yul\":24518:24527   */\n      dup2\n        /* \"#utility.yul\":24512:24516   */\n      dup2\n        /* \"#utility.yul\":24508:24528   */\n      sub\n        /* \"#utility.yul\":24504:24505   */\n      0x00\n        /* \"#utility.yul\":24493:24502   */\n      dup4\n        /* \"#utility.yul\":24489:24506   */\n      add\n        /* \"#utility.yul\":24482:24529   */\n      mstore\n        /* \"#utility.yul\":24546:24677   */\n      tag_586\n        /* \"#utility.yul\":24672:24676   */\n      dup2\n        /* \"#utility.yul\":24546:24677   */\n      tag_349\n      jump\t// in\n    tag_586:\n        /* \"#utility.yul\":24538:24677   */\n      swap1\n      pop\n        /* \"#utility.yul\":24265:24684   */\n      swap2\n      swap1\n      pop\n      jump\t// out\n        /* \"#utility.yul\":24690:24855   */\n    tag_350:\n        /* \"#utility.yul\":24830:24847   */\n      0x41756374696f6e20657870697265640000000000000000000000000000000000\n        /* \"#utility.yul\":24826:24827   */\n      0x00\n        /* \"#utility.yul\":24818:24824   */\n      dup3\n        /* \"#utility.yul\":24814:24828   */\n      add\n        /* \"#utility.yul\":24807:24848   */\n      mstore\n        /* \"#utility.yul\":24690:24855   */\n      pop\n      jump\t// out\n        /* \"#utility.yul\":24861:25227   */\n    tag_351:\n        /* \"#utility.yul\":25003:25006   */\n      0x00\n        /* \"#utility.yul\":25024:25091   */\n      tag_589\n        /* \"#utility.yul\":25088:25090   */\n      0x0f\n        /* \"#utility.yul\":25083:25086   */\n      dup4\n        /* \"#utility.yul\":25024:25091   */\n      tag_295\n      jump\t// in\n    tag_589:\n        /* \"#utility.yul\":25017:25091   */\n      swap2\n      pop\n        /* \"#utility.yul\":25100:25193   */\n      tag_590\n        /* \"#utility.yul\":25189:25192   */\n      dup3\n        /* \"#utility.yul\":25100:25193   */\n      tag_350\n      jump\t// in\n    tag_590:\n        /* \"#utility.yul\":25218:25220   */\n      0x20\n        /* \"#utility.yul\":25213:25216   */\n      dup3\n        /* \"#utility.yul\":25209:25221   */\n      add\n        /* \"#utility.yul\":25202:25221   */\n      swap1\n      pop\n        /* \"#utility.yul\":24861:25227   */\n      swap2\n      swap1\n      pop\n      jump\t// out\n        /* \"#utility.yul\":25233:25652   */\n    tag_159:\n        /* \"#utility.yul\":25399:25403   */\n      0x00\n        /* \"#utility.yul\":25437:25439   */\n      0x20\n        /* \"#utility.yul\":25426:25435   */\n      dup3\n        /* \"#utility.yul\":25422:25440   */\n      add\n        /* \"#utility.yul\":25414:25440   */\n      swap1\n      pop\n        /* \"#utility.yul\":25486:25495   */\n      dup2\n        /* \"#utility.yul\":25480:25484   */\n      dup2\n        /* \"#utility.yul\":25476:25496   */\n      sub\n        /* \"#utility.yul\":25472:25473   */\n      0x00\n        /* \"#utility.yul\":25461:25470   */\n      dup4\n        /* \"#utility.yul\":25457:25474   */\n      add\n        /* \"#utility.yul\":25450:25497   */\n      mstore\n        /* \"#utility.yul\":25514:25645   */\n      tag_592\n        /* \"#utility.yul\":25640:25644   */\n      dup2\n        /* \"#utility.yul\":25514:25645   */\n      tag_351\n      jump\t// in\n    tag_592:\n        /* \"#utility.yul\":25506:25645   */\n      swap1\n      pop\n        /* \"#utility.yul\":25233:25652   */\n      swap2\n      swap1\n      pop\n      jump\t// out\n        /* \"#utility.yul\":25658:25949   */\n    tag_352:\n        /* \"#utility.yul\":25798:25832   */\n      0x50726963652073686f756c642062652067726561746572207468616e206d696e\n        /* \"#utility.yul\":25794:25795   */\n      0x00\n        /* \"#utility.yul\":25786:25792   */\n      dup3\n        /* \"#utility.yul\":25782:25796   */\n      add\n        /* \"#utility.yul\":25775:25833   */\n      mstore\n        /* \"#utility.yul\":25867:25901   */\n      0x696d756d206f6666657220707269636520616e64207468652062657374206f66\n        /* \"#utility.yul\":25862:25864   */\n      0x20\n        /* \"#utility.yul\":25854:25860   */\n      dup3\n        /* \"#utility.yul\":25850:25865   */\n      add\n        /* \"#utility.yul\":25843:25902   */\n      mstore\n        /* \"#utility.yul\":25936:25941   */\n      0x6665720000000000000000000000000000000000000000000000000000000000\n        /* \"#utility.yul\":25931:25933   */\n      0x40\n        /* \"#utility.yul\":25923:25929   */\n      dup3\n        /* \"#utility.yul\":25919:25934   */\n      add\n        /* \"#utility.yul\":25912:25942   */\n      mstore\n        /* \"#utility.yul\":25658:25949   */\n      pop\n      jump\t// out\n        /* \"#utility.yul\":25955:26321   */\n    tag_353:\n        /* \"#utility.yul\":26097:26100   */\n      0x00\n        /* \"#utility.yul\":26118:26185   */\n      tag_595\n        /* \"#utility.yul\":26182:26184   */\n      0x43\n        /* \"#utility.yul\":26177:26180   */\n      dup4\n        /* \"#utility.yul\":26118:26185   */\n      tag_295\n      jump\t// in\n    tag_595:\n        /* \"#utility.yul\":26111:26185   */\n      swap2\n      pop\n        /* \"#utility.yul\":26194:26287   */\n      tag_596\n        /* \"#utility.yul\":26283:26286   */\n      dup3\n        /* \"#utility.yul\":26194:26287   */\n      tag_352\n      jump\t// in\n    tag_596:\n        /* \"#utility.yul\":26312:26314   */\n      0x60\n        /* \"#utility.yul\":26307:26310   */\n      dup3\n        /* \"#utility.yul\":26303:26315   */\n      add\n        /* \"#utility.yul\":26296:26315   */\n      swap1\n      pop\n        /* \"#utility.yul\":25955:26321   */\n      swap2\n      swap1\n      pop\n      jump\t// out\n        /* \"#utility.yul\":26327:26746   */\n    tag_172:\n        /* \"#utility.yul\":26493:26497   */\n      0x00\n        /* \"#utility.yul\":26531:26533   */\n      0x20\n        /* \"#utility.yul\":26520:26529   */\n      dup3\n        /* \"#utility.yul\":26516:26534   */\n      add\n        /* \"#utility.yul\":26508:26534   */\n      swap1\n      pop\n        /* \"#utility.yul\":26580:26589   */\n      dup2\n        /* \"#utility.yul\":26574:26578   */\n      dup2\n        /* \"#utility.yul\":26570:26590   */\n      sub\n        /* \"#utility.yul\":26566:26567   */\n      0x00\n        /* \"#utility.yul\":26555:26564   */\n      dup4\n        /* \"#utility.yul\":26551:26568   */\n      add\n        /* \"#utility.yul\":26544:26591   */\n      mstore\n        /* \"#utility.yul\":26608:26739   */\n      tag_598\n        /* \"#utility.yul\":26734:26738   */\n      dup2\n        /* \"#utility.yul\":26608:26739   */\n      tag_353\n      jump\t// in\n    tag_598:\n        /* \"#utility.yul\":26600:26739   */\n      swap1\n      pop\n        /* \"#utility.yul\":26327:26746   */\n      swap2\n      swap1\n      pop\n      jump\t// out\n        /* \"#utility.yul\":26752:26946   */\n    tag_198:\n        /* \"#utility.yul\":26792:26796   */\n      0x00\n        /* \"#utility.yul\":26812:26832   */\n      tag_600\n        /* \"#utility.yul\":26830:26831   */\n      dup3\n        /* \"#utility.yul\":26812:26832   */\n      tag_287\n      jump\t// in\n    tag_600:\n        /* \"#utility.yul\":26807:26832   */\n      swap2\n      pop\n        /* \"#utility.yul\":26846:26866   */\n      tag_601\n        /* \"#utility.yul\":26864:26865   */\n      dup4\n        /* \"#utility.yul\":26846:26866   */\n      tag_287\n      jump\t// in\n    tag_601:\n        /* \"#utility.yul\":26841:26866   */\n      swap3\n      pop\n        /* \"#utility.yul\":26890:26891   */\n      dup3\n        /* \"#utility.yul\":26887:26888   */\n      dup3\n        /* \"#utility.yul\":26883:26892   */\n      sub\n        /* \"#utility.yul\":26875:26892   */\n      swap1\n      pop\n        /* \"#utility.yul\":26914:26915   */\n      dup2\n        /* \"#utility.yul\":26908:26912   */\n      dup2\n        /* \"#utility.yul\":26905:26916   */\n      gt\n        /* \"#utility.yul\":26902:26939   */\n      iszero\n      tag_602\n      jumpi\n        /* \"#utility.yul\":26919:26937   */\n      tag_603\n      tag_332\n      jump\t// in\n    tag_603:\n        /* \"#utility.yul\":26902:26939   */\n    tag_602:\n        /* \"#utility.yul\":26752:26946   */\n      swap3\n      swap2\n      pop\n      pop\n      jump\t// out\n        /* \"#utility.yul\":26952:27125   */\n    tag_354:\n        /* \"#utility.yul\":27092:27117   */\n      0x41756374696f6e206973207374696c6c20616374697665000000000000000000\n        /* \"#utility.yul\":27088:27089   */\n      0x00\n        /* \"#utility.yul\":27080:27086   */\n      dup3\n        /* \"#utility.yul\":27076:27090   */\n      add\n        /* \"#utility.yul\":27069:27118   */\n      mstore\n        /* \"#utility.yul\":26952:27125   */\n      pop\n      jump\t// out\n        /* \"#utility.yul\":27131:27497   */\n    tag_355:\n        /* \"#utility.yul\":27273:27276   */\n      0x00\n        /* \"#utility.yul\":27294:27361   */\n      tag_606\n        /* \"#utility.yul\":27358:27360   */\n      0x17\n        /* \"#utility.yul\":27353:27356   */\n      dup4\n        /* \"#utility.yul\":27294:27361   */\n      tag_295\n      jump\t// in\n    tag_606:\n        /* \"#utility.yul\":27287:27361   */\n      swap2\n      pop\n        /* \"#utility.yul\":27370:27463   */\n      tag_607\n        /* \"#utility.yul\":27459:27462   */\n      dup3\n        /* \"#utility.yul\":27370:27463   */\n      tag_354\n      jump\t// in\n    tag_607:\n        /* \"#utility.yul\":27488:27490   */\n      0x20\n        /* \"#utility.yul\":27483:27486   */\n      dup3\n        /* \"#utility.yul\":27479:27491   */\n      add\n        /* \"#utility.yul\":27472:27491   */\n      swap1\n      pop\n        /* \"#utility.yul\":27131:27497   */\n      swap2\n      swap1\n      pop\n      jump\t// out\n        /* \"#utility.yul\":27503:27922   */\n    tag_231:\n        /* \"#utility.yul\":27669:27673   */\n      0x00\n        /* \"#utility.yul\":27707:27709   */\n      0x20\n        /* \"#utility.yul\":27696:27705   */\n      dup3\n        /* \"#utility.yul\":27692:27710   */\n      add\n        /* \"#utility.yul\":27684:27710   */\n      swap1\n      pop\n        /* \"#utility.yul\":27756:27765   */\n      dup2\n        /* \"#utility.yul\":27750:27754   */\n      dup2\n        /* \"#utility.yul\":27746:27766   */\n      sub\n        /* \"#utility.yul\":27742:27743   */\n      0x00\n        /* \"#utility.yul\":27731:27740   */\n      dup4\n        /* \"#utility.yul\":27727:27744   */\n      add\n        /* \"#utility.yul\":27720:27767   */\n      mstore\n        /* \"#utility.yul\":27784:27915   */\n      tag_609\n        /* \"#utility.yul\":27910:27914   */\n      dup2\n        /* \"#utility.yul\":27784:27915   */\n      tag_355\n      jump\t// in\n    tag_609:\n        /* \"#utility.yul\":27776:27915   */\n      swap1\n      pop\n        /* \"#utility.yul\":27503:27922   */\n      swap2\n      swap1\n      pop\n      jump\t// out\n\n    auxdata: 0xa2646970667358221220b62c335ac992cbad27eee108882e15e819d9d20c320b1f1663e9f7547600ca8264736f6c63430008100033\n}\n",
				"bytecode": {
					"linkReferences": {},
					"object": "608060405260018055600160035534801561001957600080fd5b50612a9e806100296000396000f3fe6080604052600436106100915760003560e01c8063a269993d11610059578063a269993d146101a8578063c43ede15146101c4578063d7c0691914610201578063df1dd8261461022c578063ff3ad0b41461025557610091565b8063571a26a01461009657806361e2db55146100d9578063661d2c2c146101025780638a72ea6a1461013f57806396b5a7551461017f575b600080fd5b3480156100a257600080fd5b506100bd60048036038101906100b89190611cac565b610292565b6040516100d09796959493929190611db9565b60405180910390f35b3480156100e557600080fd5b5061010060048036038101906100fb9190611e9b565b610404565b005b34801561010e57600080fd5b5061012960048036038101906101249190611f6e565b6106d2565b60405161013691906120bd565b60405180910390f35b34801561014b57600080fd5b5061016660048036038101906101619190611cac565b610873565b60405161017694939291906120df565b60405180910390f35b34801561018b57600080fd5b506101a660048036038101906101a19190611cac565b6108c3565b005b6101c260048036038101906101bd9190611cac565b610dac565b005b3480156101d057600080fd5b506101eb60048036038101906101e69190611cac565b611121565b6040516101f891906120bd565b60405180910390f35b34801561020d57600080fd5b506102166112f0565b604051610223919061239d565b60405180910390f35b34801561023857600080fd5b50610253600480360381019061024e9190611cac565b6115c5565b005b34801561026157600080fd5b5061027c60048036038101906102779190611f6e565b6117e1565b604051610289919061239d565b60405180910390f35b60006020528060005260406000206000915090508060000154908060010160009054906101000a900473ffffffffffffffffffffffffffffffffffffffff16908060020180546102e1906123ee565b80601f016020809104026020016040519081016040528092919081815260200182805461030d906123ee565b801561035a5780601f1061032f5761010080835404028352916020019161035a565b820191906000526020600020905b81548152906001019060200180831161033d57829003601f168201915b50505050509080600301805461036f906123ee565b80601f016020809104026020016040519081016040528092919081815260200182805461039b906123ee565b80156103e85780601f106103bd576101008083540402835291602001916103e8565b820191906000526020600020905b8154815290600101906020018083116103cb57829003601f168201915b5050505050908060040154908060050154908060060154905087565b60008211610447576040517f08c379a000000000000000000000000000000000000000000000000000000000815260040161043e90612491565b60405180910390fd5b60008067ffffffffffffffff811115610463576104626124b1565b5b6040519080825280602002602001820160405280156104915781602001602082028036833780820191505090505b50905060405180610100016040528060015481526020013373ffffffffffffffffffffffffffffffffffffffff16815260200188888080601f016020809104026020016040519081016040528093929190818152602001838380828437600081840152601f19601f82011690508083019250505050505050815260200186868080601f016020809104026020016040519081016040528093929190818152602001838380828437600081840152601f19601f820116905080830192505050505050508152602001848152602001834261056a919061250f565b8152602001600081526020018281525060008060015481526020019081526020016000206000820151816000015560208201518160010160006101000a81548173ffffffffffffffffffffffffffffffffffffffff021916908373ffffffffffffffffffffffffffffffffffffffff16021790555060408201518160020190816105f491906126ef565b50606082015181600301908161060a91906126ef565b506080820151816004015560a0820151816005015560c0820151816006015560e0820151816007019080519060200190610645929190611b08565b50905050600460003373ffffffffffffffffffffffffffffffffffffffff1673ffffffffffffffffffffffffffffffffffffffff1681526020019081526020016000206001549080600181540180825580915050600190039060005260206000200160009091909190915055600160008154809291906106c4906127c1565b919050555050505050505050565b60606000600560008473ffffffffffffffffffffffffffffffffffffffff1673ffffffffffffffffffffffffffffffffffffffff16815260200190815260200160002090506000818054905067ffffffffffffffff811115610737576107366124b1565b5b60405190808252806020026020018201604052801561077057816020015b61075d611b55565b8152602001906001900390816107555790505b50905060005b828054905081101561086857600083828154811061079757610796612809565b5b906000526020600020015490506002600082815260200190815260200160002060405180608001604052908160008201548152602001600182015481526020016002820160009054906101000a900473ffffffffffffffffffffffffffffffffffffffff1673ffffffffffffffffffffffffffffffffffffffff1673ffffffffffffffffffffffffffffffffffffffff16815260200160038201548152505083838151811061084957610848612809565b5b6020026020010181905250508080610860906127c1565b915050610776565b508092505050919050565b60026020528060005260406000206000915090508060000154908060010154908060020160009054906101000a900473ffffffffffffffffffffffffffffffffffffffff16908060030154905084565b806000811180156108d5575060015481105b610914576040517f08c379a000000000000000000000000000000000000000000000000000000000815260040161090b90612884565b60405180910390fd5b6000806000848152602001908152602001600020905060005b8160070180549050811015610b8b57600082600701828154811061095457610953612809565b5b9060005260206000200154905060006002600083815260200190815260200160002090508060020160009054906101000a900473ffffffffffffffffffffffffffffffffffffffff1673ffffffffffffffffffffffffffffffffffffffff166108fc82600301549081150290604051600060405180830381858888f193505050501580156109e6573d6000803e3d6000fd5b5060005b600560008360020160009054906101000a900473ffffffffffffffffffffffffffffffffffffffff1673ffffffffffffffffffffffffffffffffffffffff1673ffffffffffffffffffffffffffffffffffffffff16815260200190815260200160002080549050811015610b755782600560008460020160009054906101000a900473ffffffffffffffffffffffffffffffffffffffff1673ffffffffffffffffffffffffffffffffffffffff1673ffffffffffffffffffffffffffffffffffffffff1681526020019081526020016000208281548110610ace57610acd612809565b5b906000526020600020015403610b6257600560008360020160009054906101000a900473ffffffffffffffffffffffffffffffffffffffff1673ffffffffffffffffffffffffffffffffffffffff1673ffffffffffffffffffffffffffffffffffffffff1681526020019081526020016000208181548110610b5357610b52612809565b5b90600052602060002001600090555b8080610b6d906127c1565b9150506109ea565b5050508080610b83906127c1565b91505061092d565b5060005b600460008360010160009054906101000a900473ffffffffffffffffffffffffffffffffffffffff1673ffffffffffffffffffffffffffffffffffffffff1673ffffffffffffffffffffffffffffffffffffffff16815260200190815260200160002080549050811015610d1a5783600460008460010160009054906101000a900473ffffffffffffffffffffffffffffffffffffffff1673ffffffffffffffffffffffffffffffffffffffff1673ffffffffffffffffffffffffffffffffffffffff1681526020019081526020016000208281548110610c7357610c72612809565b5b906000526020600020015403610d0757600460008360010160009054906101000a900473ffffffffffffffffffffffffffffffffffffffff1673ffffffffffffffffffffffffffffffffffffffff1673ffffffffffffffffffffffffffffffffffffffff1681526020019081526020016000208181548110610cf857610cf7612809565b5b90600052602060002001600090555b8080610d12906127c1565b915050610b8f565b506000808481526020019081526020016000206000808201600090556001820160006101000a81549073ffffffffffffffffffffffffffffffffffffffff0219169055600282016000610d6d9190611b93565b600382016000610d7d9190611b93565b600482016000905560058201600090556006820160009055600782016000610da59190611bd3565b5050505050565b80600081118015610dbe575060015481105b610dfd576040517f08c379a0000000000000000000000000000000000000000000000000000000008152600401610df490612884565b60405180910390fd5b6000806000848152602001908152602001600020905080600501544210610e59576040517f08c379a0000000000000000000000000000000000000000000000000000000008152600401610e50906128f0565b60405180910390fd5b600060026000836006015481526020019081526020016000209050600034905060005b8360070180549050811015610f4057600060026000866007018481548110610ea757610ea6612809565b5b9060005260206000200154815260200190815260200160002090503373ffffffffffffffffffffffffffffffffffffffff168160020160009054906101000a900473ffffffffffffffffffffffffffffffffffffffff1673ffffffffffffffffffffffffffffffffffffffff1603610f2c57806003015483610f29919061250f565b92505b508080610f38906127c1565b915050610e7c565b5082600401548110158015610f585750816003015481115b610f97576040517f08c379a0000000000000000000000000000000000000000000000000000000008152600401610f8e906129a8565b60405180910390fd5b6003548360060181905550604051806080016040528060035481526020018681526020013373ffffffffffffffffffffffffffffffffffffffff16815260200182815250600260006003548152602001908152602001600020600082015181600001556020820151816001015560408201518160020160006101000a81548173ffffffffffffffffffffffffffffffffffffffff021916908373ffffffffffffffffffffffffffffffffffffffff16021790555060608201518160030155905050826007016003549080600181540180825580915050600190039060005260206000200160009091909190915055600181611092919061250f565b8360040181905550600560003373ffffffffffffffffffffffffffffffffffffffff1673ffffffffffffffffffffffffffffffffffffffff168152602001908152602001600020600354908060018154018082558091505060019003906000526020600020016000909190919091505560036000815480929190611115906127c1565b91905055505050505050565b606081600081118015611135575060015481105b611174576040517f08c379a000000000000000000000000000000000000000000000000000000000815260040161116b90612884565b60405180910390fd5b6000806000858152602001908152602001600020905060008160070190506000818054905067ffffffffffffffff8111156111b2576111b16124b1565b5b6040519080825280602002602001820160405280156111eb57816020015b6111d8611b55565b8152602001906001900390816111d05790505b50905060005b82805490508110156112e357600083828154811061121257611211612809565b5b906000526020600020015490506002600082815260200190815260200160002060405180608001604052908160008201548152602001600182015481526020016002820160009054906101000a900473ffffffffffffffffffffffffffffffffffffffff1673ffffffffffffffffffffffffffffffffffffffff1673ffffffffffffffffffffffffffffffffffffffff1681526020016003820154815250508383815181106112c4576112c3612809565b5b60200260200101819052505080806112db906127c1565b9150506111f1565b5080945050505050919050565b606060006001805461130291906129c8565b67ffffffffffffffff81111561131b5761131a6124b1565b5b60405190808252806020026020018201604052801561135457816020015b611341611bf4565b8152602001906001900390816113395790505b5090506000600190505b6001548110156115bd5760008082815260200190815260200160002060405180610100016040529081600082015481526020016001820160009054906101000a900473ffffffffffffffffffffffffffffffffffffffff1673ffffffffffffffffffffffffffffffffffffffff1673ffffffffffffffffffffffffffffffffffffffff1681526020016002820180546113f6906123ee565b80601f0160208091040260200160405190810160405280929190818152602001828054611422906123ee565b801561146f5780601f106114445761010080835404028352916020019161146f565b820191906000526020600020905b81548152906001019060200180831161145257829003601f168201915b50505050508152602001600382018054611488906123ee565b80601f01602080910402602001604051908101604052809291908181526020018280546114b4906123ee565b80156115015780601f106114d657610100808354040283529160200191611501565b820191906000526020600020905b8154815290600101906020018083116114e457829003601f168201915b505050505081526020016004820154815260200160058201548152602001600682015481526020016007820180548060200260200160405190810160405280929190818152602001828054801561157757602002820191906000526020600020905b815481526020019060010190808311611563575b5050505050815250508260018361158e91906129c8565b8151811061159f5761159e612809565b5b602002602001018190525080806115b5906127c1565b91505061135e565b508091505090565b806000811180156115d7575060015481105b611616576040517f08c379a000000000000000000000000000000000000000000000000000000000815260040161160d90612884565b60405180910390fd5b600080600084815260200190815260200160002090506000600260008360060154815260200190815260200160002090508160050154421161168d576040517f08c379a000000000000000000000000000000000000000000000000000000000815260040161168490612a48565b60405180910390fd5b60005b826007018054905081101561176b5760008360070182815481106116b7576116b6612809565b5b90600052602060002001549050600060026000838152602001908152602001600020905083600001548214611756578060020160009054906101000a900473ffffffffffffffffffffffffffffffffffffffff1673ffffffffffffffffffffffffffffffffffffffff166108fc82600301549081150290604051600060405180830381858888f19350505050158015611754573d6000803e3d6000fd5b505b50508080611763906127c1565b915050611690565b508160010160009054906101000a900473ffffffffffffffffffffffffffffffffffffffff1673ffffffffffffffffffffffffffffffffffffffff166108fc82600301549081150290604051600060405180830381858888f193505050501580156117da573d6000803e3d6000fd5b5050505050565b60606000600460008473ffffffffffffffffffffffffffffffffffffffff1673ffffffffffffffffffffffffffffffffffffffff16815260200190815260200160002090506000818054905067ffffffffffffffff811115611846576118456124b1565b5b60405190808252806020026020018201604052801561187f57816020015b61186c611bf4565b8152602001906001900390816118645790505b50905060005b8280549050811015611afd5760008382815481106118a6576118a5612809565b5b9060005260206000200154905060008082815260200190815260200160002060405180610100016040529081600082015481526020016001820160009054906101000a900473ffffffffffffffffffffffffffffffffffffffff1673ffffffffffffffffffffffffffffffffffffffff1673ffffffffffffffffffffffffffffffffffffffff168152602001600282018054611941906123ee565b80601f016020809104026020016040519081016040528092919081815260200182805461196d906123ee565b80156119ba5780601f1061198f576101008083540402835291602001916119ba565b820191906000526020600020905b81548152906001019060200180831161199d57829003601f168201915b505050505081526020016003820180546119d3906123ee565b80601f01602080910402602001604051908101604052809291908181526020018280546119ff906123ee565b8015611a4c5780601f10611a2157610100808354040283529160200191611a4c565b820191906000526020600020905b815481529060010190602001808311611a2f57829003601f168201915b5050505050815260200160048201548152602001600582015481526020016006820154815260200160078201805480602002602001604051908101604052809291908181526020018280548015611ac257602002820191906000526020600020905b815481526020019060010190808311611aae575b505050505081525050838381518110611ade57611add612809565b5b6020026020010181905250508080611af5906127c1565b915050611885565b508092505050919050565b828054828255906000526020600020908101928215611b44579160200282015b82811115611b43578251825591602001919060010190611b28565b5b509050611b519190611c4f565b5090565b60405180608001604052806000815260200160008152602001600073ffffffffffffffffffffffffffffffffffffffff168152602001600081525090565b508054611b9f906123ee565b6000825580601f10611bb15750611bd0565b601f016020900490600052602060002090810190611bcf9190611c4f565b5b50565b5080546000825590600052602060002090810190611bf19190611c4f565b50565b60405180610100016040528060008152602001600073ffffffffffffffffffffffffffffffffffffffff1681526020016060815260200160608152602001600081526020016000815260200160008152602001606081525090565b5b80821115611c68576000816000905550600101611c50565b5090565b600080fd5b600080fd5b6000819050919050565b611c8981611c76565b8114611c9457600080fd5b50565b600081359050611ca681611c80565b92915050565b600060208284031215611cc257611cc1611c6c565b5b6000611cd084828501611c97565b91505092915050565b611ce281611c76565b82525050565b600073ffffffffffffffffffffffffffffffffffffffff82169050919050565b6000611d1382611ce8565b9050919050565b611d2381611d08565b82525050565b600081519050919050565b600082825260208201905092915050565b60005b83811015611d63578082015181840152602081019050611d48565b60008484015250505050565b6000601f19601f8301169050919050565b6000611d8b82611d29565b611d958185611d34565b9350611da5818560208601611d45565b611dae81611d6f565b840191505092915050565b600060e082019050611dce600083018a611cd9565b611ddb6020830189611d1a565b8181036040830152611ded8188611d80565b90508181036060830152611e018187611d80565b9050611e106080830186611cd9565b611e1d60a0830185611cd9565b611e2a60c0830184611cd9565b98975050505050505050565b600080fd5b600080fd5b600080fd5b60008083601f840112611e5b57611e5a611e36565b5b8235905067ffffffffffffffff811115611e7857611e77611e3b565b5b602083019150836001820283011115611e9457611e93611e40565b5b9250929050565b60008060008060008060808789031215611eb857611eb7611c6c565b5b600087013567ffffffffffffffff811115611ed657611ed5611c71565b5b611ee289828a01611e45565b9650965050602087013567ffffffffffffffff811115611f0557611f04611c71565b5b611f1189828a01611e45565b94509450506040611f2489828a01611c97565b9250506060611f3589828a01611c97565b9150509295509295509295565b611f4b81611d08565b8114611f5657600080fd5b50565b600081359050611f6881611f42565b92915050565b600060208284031215611f8457611f83611c6c565b5b6000611f9284828501611f59565b91505092915050565b600081519050919050565b600082825260208201905092915050565b6000819050602082019050919050565b611fd081611c76565b82525050565b611fdf81611d08565b82525050565b608082016000820151611ffb6000850182611fc7565b50602082015161200e6020850182611fc7565b5060408201516120216040850182611fd6565b5060608201516120346060850182611fc7565b50505050565b60006120468383611fe5565b60808301905092915050565b6000602082019050919050565b600061206a82611f9b565b6120748185611fa6565b935061207f83611fb7565b8060005b838110156120b0578151612097888261203a565b97506120a283612052565b925050600181019050612083565b5085935050505092915050565b600060208201905081810360008301526120d7818461205f565b905092915050565b60006080820190506120f46000830187611cd9565b6121016020830186611cd9565b61210e6040830185611d1a565b61211b6060830184611cd9565b95945050505050565b600081519050919050565b600082825260208201905092915050565b6000819050602082019050919050565b600082825260208201905092915050565b600061216c82611d29565b6121768185612150565b9350612186818560208601611d45565b61218f81611d6f565b840191505092915050565b600081519050919050565b600082825260208201905092915050565b6000819050602082019050919050565b60006121d28383611fc7565b60208301905092915050565b6000602082019050919050565b60006121f68261219a565b61220081856121a5565b935061220b836121b6565b8060005b8381101561223c57815161222388826121c6565b975061222e836121de565b92505060018101905061220f565b5085935050505092915050565b6000610100830160008301516122626000860182611fc7565b5060208301516122756020860182611fd6565b506040830151848203604086015261228d8282612161565b915050606083015184820360608601526122a78282612161565b91505060808301516122bc6080860182611fc7565b5060a08301516122cf60a0860182611fc7565b5060c08301516122e260c0860182611fc7565b5060e083015184820360e08601526122fa82826121eb565b9150508091505092915050565b60006123138383612249565b905092915050565b6000602082019050919050565b600061233382612124565b61233d818561212f565b93508360208202850161234f85612140565b8060005b8581101561238b578484038952815161236c8582612307565b94506123778361231b565b925060208a01995050600181019050612353565b50829750879550505050505092915050565b600060208201905081810360008301526123b78184612328565b905092915050565b7f4e487b7100000000000000000000000000000000000000000000000000000000600052602260045260246000fd5b6000600282049050600182168061240657607f821691505b602082108103612419576124186123bf565b5b50919050565b7f4d696e696d756d206f666665722070726963652073686f756c6420626520677260008201527f6561746572207468616e20300000000000000000000000000000000000000000602082015250565b600061247b602c83611d34565b91506124868261241f565b604082019050919050565b600060208201905081810360008301526124aa8161246e565b9050919050565b7f4e487b7100000000000000000000000000000000000000000000000000000000600052604160045260246000fd5b7f4e487b7100000000000000000000000000000000000000000000000000000000600052601160045260246000fd5b600061251a82611c76565b915061252583611c76565b925082820190508082111561253d5761253c6124e0565b5b92915050565b60008190508160005260206000209050919050565b60006020601f8301049050919050565b600082821b905092915050565b6000600883026125a57fffffffffffffffffffffffffffffffffffffffffffffffffffffffffffffffff82612568565b6125af8683612568565b95508019841693508086168417925050509392505050565b6000819050919050565b60006125ec6125e76125e284611c76565b6125c7565b611c76565b9050919050565b6000819050919050565b612606836125d1565b61261a612612826125f3565b848454612575565b825550505050565b600090565b61262f612622565b61263a8184846125fd565b505050565b5b8181101561265e57612653600082612627565b600181019050612640565b5050565b601f8211156126a35761267481612543565b61267d84612558565b8101602085101561268c578190505b6126a061269885612558565b83018261263f565b50505b505050565b600082821c905092915050565b60006126c6600019846008026126a8565b1980831691505092915050565b60006126df83836126b5565b9150826002028217905092915050565b6126f882611d29565b67ffffffffffffffff811115612711576127106124b1565b5b61271b82546123ee565b612726828285612662565b600060209050601f8311600181146127595760008415612747578287015190505b61275185826126d3565b8655506127b9565b601f19841661276786612543565b60005b8281101561278f5784890151825560018201915060208501945060208101905061276a565b868310156127ac57848901516127a8601f8916826126b5565b8355505b6001600288020188555050505b505050505050565b60006127cc82611c76565b91507fffffffffffffffffffffffffffffffffffffffffffffffffffffffffffffffff82036127fe576127fd6124e0565b5b600182019050919050565b7f4e487b7100000000000000000000000000000000000000000000000000000000600052603260045260246000fd5b7f41756374696f6e20646f6573206e6f7420657869737400000000000000000000600082015250565b600061286e601683611d34565b915061287982612838565b602082019050919050565b6000602082019050818103600083015261289d81612861565b9050919050565b7f41756374696f6e20657870697265640000000000000000000000000000000000600082015250565b60006128da600f83611d34565b91506128e5826128a4565b602082019050919050565b60006020820190508181036000830152612909816128cd565b9050919050565b7f50726963652073686f756c642062652067726561746572207468616e206d696e60008201527f696d756d206f6666657220707269636520616e64207468652062657374206f6660208201527f6665720000000000000000000000000000000000000000000000000000000000604082015250565b6000612992604383611d34565b915061299d82612910565b606082019050919050565b600060208201905081810360008301526129c181612985565b9050919050565b60006129d382611c76565b91506129de83611c76565b92508282039050818111156129f6576129f56124e0565b5b92915050565b7f41756374696f6e206973207374696c6c20616374697665000000000000000000600082015250565b6000612a32601783611d34565b9150612a3d826129fc565b602082019050919050565b60006020820190508181036000830152612a6181612a25565b905091905056fea2646970667358221220b62c335ac992cbad27eee108882e15e819d9d20c320b1f1663e9f7547600ca8264736f6c63430008100033",
					"opcodes": "PUSH1 0x80 PUSH1 0x40 MSTORE PUSH1 0x1 DUP1 SSTORE PUSH1 0x1 PUSH1 0x3 SSTORE CALLVALUE DUP1 ISZERO PUSH2 0x19 JUMPI PUSH1 0x0 DUP1 REVERT JUMPDEST POP PUSH2 0x2A9E DUP1 PUSH2 0x29 PUSH1 0x0 CODECOPY PUSH1 0x0 RETURN INVALID PUSH1 0x80 PUSH1 0x40 MSTORE PUSH1 0x4 CALLDATASIZE LT PUSH2 0x91 JUMPI PUSH1 0x0 CALLDATALOAD PUSH1 0xE0 SHR DUP1 PUSH4 0xA269993D GT PUSH2 0x59 JUMPI DUP1 PUSH4 0xA269993D EQ PUSH2 0x1A8 JUMPI DUP1 PUSH4 0xC43EDE15 EQ PUSH2 0x1C4 JUMPI DUP1 PUSH4 0xD7C06919 EQ PUSH2 0x201 JUMPI DUP1 PUSH4 0xDF1DD826 EQ PUSH2 0x22C JUMPI DUP1 PUSH4 0xFF3AD0B4 EQ PUSH2 0x255 JUMPI PUSH2 0x91 JUMP JUMPDEST DUP1 PUSH4 0x571A26A0 EQ PUSH2 0x96 JUMPI DUP1 PUSH4 0x61E2DB55 EQ PUSH2 0xD9 JUMPI DUP1 PUSH4 0x661D2C2C EQ PUSH2 0x102 JUMPI DUP1 PUSH4 0x8A72EA6A EQ PUSH2 0x13F JUMPI DUP1 PUSH4 0x96B5A755 EQ PUSH2 0x17F JUMPI JUMPDEST PUSH1 0x0 DUP1 REVERT JUMPDEST CALLVALUE DUP1 ISZERO PUSH2 0xA2 JUMPI PUSH1 0x0 DUP1 REVERT JUMPDEST POP PUSH2 0xBD PUSH1 0x4 DUP1 CALLDATASIZE SUB DUP2 ADD SWAP1 PUSH2 0xB8 SWAP2 SWAP1 PUSH2 0x1CAC JUMP JUMPDEST PUSH2 0x292 JUMP JUMPDEST PUSH1 0x40 MLOAD PUSH2 0xD0 SWAP8 SWAP7 SWAP6 SWAP5 SWAP4 SWAP3 SWAP2 SWAP1 PUSH2 0x1DB9 JUMP JUMPDEST PUSH1 0x40 MLOAD DUP1 SWAP2 SUB SWAP1 RETURN JUMPDEST CALLVALUE DUP1 ISZERO PUSH2 0xE5 JUMPI PUSH1 0x0 DUP1 REVERT JUMPDEST POP PUSH2 0x100 PUSH1 0x4 DUP1 CALLDATASIZE SUB DUP2 ADD SWAP1 PUSH2 0xFB SWAP2 SWAP1 PUSH2 0x1E9B JUMP JUMPDEST PUSH2 0x404 JUMP JUMPDEST STOP JUMPDEST CALLVALUE DUP1 ISZERO PUSH2 0x10E JUMPI PUSH1 0x0 DUP1 REVERT JUMPDEST POP PUSH2 0x129 PUSH1 0x4 DUP1 CALLDATASIZE SUB DUP2 ADD SWAP1 PUSH2 0x124 SWAP2 SWAP1 PUSH2 0x1F6E JUMP JUMPDEST PUSH2 0x6D2 JUMP JUMPDEST PUSH1 0x40 MLOAD PUSH2 0x136 SWAP2 SWAP1 PUSH2 0x20BD JUMP JUMPDEST PUSH1 0x40 MLOAD DUP1 SWAP2 SUB SWAP1 RETURN JUMPDEST CALLVALUE DUP1 ISZERO PUSH2 0x14B JUMPI PUSH1 0x0 DUP1 REVERT JUMPDEST POP PUSH2 0x166 PUSH1 0x4 DUP1 CALLDATASIZE SUB DUP2 ADD SWAP1 PUSH2 0x161 SWAP2 SWAP1 PUSH2 0x1CAC JUMP JUMPDEST PUSH2 0x873 JUMP JUMPDEST PUSH1 0x40 MLOAD PUSH2 0x176 SWAP5 SWAP4 SWAP3 SWAP2 SWAP1 PUSH2 0x20DF JUMP JUMPDEST PUSH1 0x40 MLOAD DUP1 SWAP2 SUB SWAP1 RETURN JUMPDEST CALLVALUE DUP1 ISZERO PUSH2 0x18B JUMPI PUSH1 0x0 DUP1 REVERT JUMPDEST POP PUSH2 0x1A6 PUSH1 0x4 DUP1 CALLDATASIZE SUB DUP2 ADD SWAP1 PUSH2 0x1A1 SWAP2 SWAP1 PUSH2 0x1CAC JUMP JUMPDEST PUSH2 0x8C3 JUMP JUMPDEST STOP JUMPDEST PUSH2 0x1C2 PUSH1 0x4 DUP1 CALLDATASIZE SUB DUP2 ADD SWAP1 PUSH2 0x1BD SWAP2 SWAP1 PUSH2 0x1CAC JUMP JUMPDEST PUSH2 0xDAC JUMP JUMPDEST STOP JUMPDEST CALLVALUE DUP1 ISZERO PUSH2 0x1D0 JUMPI PUSH1 0x0 DUP1 REVERT JUMPDEST POP PUSH2 0x1EB PUSH1 0x4 DUP1 CALLDATASIZE SUB DUP2 ADD SWAP1 PUSH2 0x1E6 SWAP2 SWAP1 PUSH2 0x1CAC JUMP JUMPDEST PUSH2 0x1121 JUMP JUMPDEST PUSH1 0x40 MLOAD PUSH2 0x1F8 SWAP2 SWAP1 PUSH2 0x20BD JUMP JUMPDEST PUSH1 0x40 MLOAD DUP1 SWAP2 SUB SWAP1 RETURN JUMPDEST CALLVALUE DUP1 ISZERO PUSH2 0x20D JUMPI PUSH1 0x0 DUP1 REVERT JUMPDEST POP PUSH2 0x216 PUSH2 0x12F0 JUMP JUMPDEST PUSH1 0x40 MLOAD PUSH2 0x223 SWAP2 SWAP1 PUSH2 0x239D JUMP JUMPDEST PUSH1 0x40 MLOAD DUP1 SWAP2 SUB SWAP1 RETURN JUMPDEST CALLVALUE DUP1 ISZERO PUSH2 0x238 JUMPI PUSH1 0x0 DUP1 REVERT JUMPDEST POP PUSH2 0x253 PUSH1 0x4 DUP1 CALLDATASIZE SUB DUP2 ADD SWAP1 PUSH2 0x24E SWAP2 SWAP1 PUSH2 0x1CAC JUMP JUMPDEST PUSH2 0x15C5 JUMP JUMPDEST STOP JUMPDEST CALLVALUE DUP1 ISZERO PUSH2 0x261 JUMPI PUSH1 0x0 DUP1 REVERT JUMPDEST POP PUSH2 0x27C PUSH1 0x4 DUP1 CALLDATASIZE SUB DUP2 ADD SWAP1 PUSH2 0x277 SWAP2 SWAP1 PUSH2 0x1F6E JUMP JUMPDEST PUSH2 0x17E1 JUMP JUMPDEST PUSH1 0x40 MLOAD PUSH2 0x289 SWAP2 SWAP1 PUSH2 0x239D JUMP JUMPDEST PUSH1 0x40 MLOAD DUP1 SWAP2 SUB SWAP1 RETURN JUMPDEST PUSH1 0x0 PUSH1 0x20 MSTORE DUP1 PUSH1 0x0 MSTORE PUSH1 0x40 PUSH1 0x0 KECCAK256 PUSH1 0x0 SWAP2 POP SWAP1 POP DUP1 PUSH1 0x0 ADD SLOAD SWAP1 DUP1 PUSH1 0x1 ADD PUSH1 0x0 SWAP1 SLOAD SWAP1 PUSH2 0x100 EXP SWAP1 DIV PUSH20 0xFFFFFFFFFFFFFFFFFFFFFFFFFFFFFFFFFFFFFFFF AND SWAP1 DUP1 PUSH1 0x2 ADD DUP1 SLOAD PUSH2 0x2E1 SWAP1 PUSH2 0x23EE JUMP JUMPDEST DUP1 PUSH1 0x1F ADD PUSH1 0x20 DUP1 SWAP2 DIV MUL PUSH1 0x20 ADD PUSH1 0x40 MLOAD SWAP1 DUP2 ADD PUSH1 0x40 MSTORE DUP1 SWAP3 SWAP2 SWAP1 DUP2 DUP2 MSTORE PUSH1 0x20 ADD DUP3 DUP1 SLOAD PUSH2 0x30D SWAP1 PUSH2 0x23EE JUMP JUMPDEST DUP1 ISZERO PUSH2 0x35A JUMPI DUP1 PUSH1 0x1F LT PUSH2 0x32F JUMPI PUSH2 0x100 DUP1 DUP4 SLOAD DIV MUL DUP4 MSTORE SWAP2 PUSH1 0x20 ADD SWAP2 PUSH2 0x35A JUMP JUMPDEST DUP3 ADD SWAP2 SWAP1 PUSH1 0x0 MSTORE PUSH1 0x20 PUSH1 0x0 KECCAK256 SWAP1 JUMPDEST DUP2 SLOAD DUP2 MSTORE SWAP1 PUSH1 0x1 ADD SWAP1 PUSH1 0x20 ADD DUP1 DUP4 GT PUSH2 0x33D JUMPI DUP3 SWAP1 SUB PUSH1 0x1F AND DUP3 ADD SWAP2 JUMPDEST POP POP POP POP POP SWAP1 DUP1 PUSH1 0x3 ADD DUP1 SLOAD PUSH2 0x36F SWAP1 PUSH2 0x23EE JUMP JUMPDEST DUP1 PUSH1 0x1F ADD PUSH1 0x20 DUP1 SWAP2 DIV MUL PUSH1 0x20 ADD PUSH1 0x40 MLOAD SWAP1 DUP2 ADD PUSH1 0x40 MSTORE DUP1 SWAP3 SWAP2 SWAP1 DUP2 DUP2 MSTORE PUSH1 0x20 ADD DUP3 DUP1 SLOAD PUSH2 0x39B SWAP1 PUSH2 0x23EE JUMP JUMPDEST DUP1 ISZERO PUSH2 0x3E8 JUMPI DUP1 PUSH1 0x1F LT PUSH2 0x3BD JUMPI PUSH2 0x100 DUP1 DUP4 SLOAD DIV MUL DUP4 MSTORE SWAP2 PUSH1 0x20 ADD SWAP2 PUSH2 0x3E8 JUMP JUMPDEST DUP3 ADD SWAP2 SWAP1 PUSH1 0x0 MSTORE PUSH1 0x20 PUSH1 0x0 KECCAK256 SWAP1 JUMPDEST DUP2 SLOAD DUP2 MSTORE SWAP1 PUSH1 0x1 ADD SWAP1 PUSH1 0x20 ADD DUP1 DUP4 GT PUSH2 0x3CB JUMPI DUP3 SWAP1 SUB PUSH1 0x1F AND DUP3 ADD SWAP2 JUMPDEST POP POP POP POP POP SWAP1 DUP1 PUSH1 0x4 ADD SLOAD SWAP1 DUP1 PUSH1 0x5 ADD SLOAD SWAP1 DUP1 PUSH1 0x6 ADD SLOAD SWAP1 POP DUP8 JUMP JUMPDEST PUSH1 0x0 DUP3 GT PUSH2 0x447 JUMPI PUSH1 0x40 MLOAD PUSH32 0x8C379A000000000000000000000000000000000000000000000000000000000 DUP2 MSTORE PUSH1 0x4 ADD PUSH2 0x43E SWAP1 PUSH2 0x2491 JUMP JUMPDEST PUSH1 0x40 MLOAD DUP1 SWAP2 SUB SWAP1 REVERT JUMPDEST PUSH1 0x0 DUP1 PUSH8 0xFFFFFFFFFFFFFFFF DUP2 GT ISZERO PUSH2 0x463 JUMPI PUSH2 0x462 PUSH2 0x24B1 JUMP JUMPDEST JUMPDEST PUSH1 0x40 MLOAD SWAP1 DUP1 DUP3 MSTORE DUP1 PUSH1 0x20 MUL PUSH1 0x20 ADD DUP3 ADD PUSH1 0x40 MSTORE DUP1 ISZERO PUSH2 0x491 JUMPI DUP2 PUSH1 0x20 ADD PUSH1 0x20 DUP3 MUL DUP1 CALLDATASIZE DUP4 CALLDATACOPY DUP1 DUP3 ADD SWAP2 POP POP SWAP1 POP JUMPDEST POP SWAP1 POP PUSH1 0x40 MLOAD DUP1 PUSH2 0x100 ADD PUSH1 0x40 MSTORE DUP1 PUSH1 0x1 SLOAD DUP2 MSTORE PUSH1 0x20 ADD CALLER PUSH20 0xFFFFFFFFFFFFFFFFFFFFFFFFFFFFFFFFFFFFFFFF AND DUP2 MSTORE PUSH1 0x20 ADD DUP9 DUP9 DUP1 DUP1 PUSH1 0x1F ADD PUSH1 0x20 DUP1 SWAP2 DIV MUL PUSH1 0x20 ADD PUSH1 0x40 MLOAD SWAP1 DUP2 ADD PUSH1 0x40 MSTORE DUP1 SWAP4 SWAP3 SWAP2 SWAP1 DUP2 DUP2 MSTORE PUSH1 0x20 ADD DUP4 DUP4 DUP1 DUP3 DUP5 CALLDATACOPY PUSH1 0x0 DUP2 DUP5 ADD MSTORE PUSH1 0x1F NOT PUSH1 0x1F DUP3 ADD AND SWAP1 POP DUP1 DUP4 ADD SWAP3 POP POP POP POP POP POP POP DUP2 MSTORE PUSH1 0x20 ADD DUP7 DUP7 DUP1 DUP1 PUSH1 0x1F ADD PUSH1 0x20 DUP1 SWAP2 DIV MUL PUSH1 0x20 ADD PUSH1 0x40 MLOAD SWAP1 DUP2 ADD PUSH1 0x40 MSTORE DUP1 SWAP4 SWAP3 SWAP2 SWAP1 DUP2 DUP2 MSTORE PUSH1 0x20 ADD DUP4 DUP4 DUP1 DUP3 DUP5 CALLDATACOPY PUSH1 0x0 DUP2 DUP5 ADD MSTORE PUSH1 0x1F NOT PUSH1 0x1F DUP3 ADD AND SWAP1 POP DUP1 DUP4 ADD SWAP3 POP POP POP POP POP POP POP DUP2 MSTORE PUSH1 0x20 ADD DUP5 DUP2 MSTORE PUSH1 0x20 ADD DUP4 TIMESTAMP PUSH2 0x56A SWAP2 SWAP1 PUSH2 0x250F JUMP JUMPDEST DUP2 MSTORE PUSH1 0x20 ADD PUSH1 0x0 DUP2 MSTORE PUSH1 0x20 ADD DUP3 DUP2 MSTORE POP PUSH1 0x0 DUP1 PUSH1 0x1 SLOAD DUP2 MSTORE PUSH1 0x20 ADD SWAP1 DUP2 MSTORE PUSH1 0x20 ADD PUSH1 0x0 KECCAK256 PUSH1 0x0 DUP3 ADD MLOAD DUP2 PUSH1 0x0 ADD SSTORE PUSH1 0x20 DUP3 ADD MLOAD DUP2 PUSH1 0x1 ADD PUSH1 0x0 PUSH2 0x100 EXP DUP2 SLOAD DUP2 PUSH20 0xFFFFFFFFFFFFFFFFFFFFFFFFFFFFFFFFFFFFFFFF MUL NOT AND SWAP1 DUP4 PUSH20 0xFFFFFFFFFFFFFFFFFFFFFFFFFFFFFFFFFFFFFFFF AND MUL OR SWAP1 SSTORE POP PUSH1 0x40 DUP3 ADD MLOAD DUP2 PUSH1 0x2 ADD SWAP1 DUP2 PUSH2 0x5F4 SWAP2 SWAP1 PUSH2 0x26EF JUMP JUMPDEST POP PUSH1 0x60 DUP3 ADD MLOAD DUP2 PUSH1 0x3 ADD SWAP1 DUP2 PUSH2 0x60A SWAP2 SWAP1 PUSH2 0x26EF JUMP JUMPDEST POP PUSH1 0x80 DUP3 ADD MLOAD DUP2 PUSH1 0x4 ADD SSTORE PUSH1 0xA0 DUP3 ADD MLOAD DUP2 PUSH1 0x5 ADD SSTORE PUSH1 0xC0 DUP3 ADD MLOAD DUP2 PUSH1 0x6 ADD SSTORE PUSH1 0xE0 DUP3 ADD MLOAD DUP2 PUSH1 0x7 ADD SWAP1 DUP1 MLOAD SWAP1 PUSH1 0x20 ADD SWAP1 PUSH2 0x645 SWAP3 SWAP2 SWAP1 PUSH2 0x1B08 JUMP JUMPDEST POP SWAP1 POP POP PUSH1 0x4 PUSH1 0x0 CALLER PUSH20 0xFFFFFFFFFFFFFFFFFFFFFFFFFFFFFFFFFFFFFFFF AND PUSH20 0xFFFFFFFFFFFFFFFFFFFFFFFFFFFFFFFFFFFFFFFF AND DUP2 MSTORE PUSH1 0x20 ADD SWAP1 DUP2 MSTORE PUSH1 0x20 ADD PUSH1 0x0 KECCAK256 PUSH1 0x1 SLOAD SWAP1 DUP1 PUSH1 0x1 DUP2 SLOAD ADD DUP1 DUP3 SSTORE DUP1 SWAP2 POP POP PUSH1 0x1 SWAP1 SUB SWAP1 PUSH1 0x0 MSTORE PUSH1 0x20 PUSH1 0x0 KECCAK256 ADD PUSH1 0x0 SWAP1 SWAP2 SWAP1 SWAP2 SWAP1 SWAP2 POP SSTORE PUSH1 0x1 PUSH1 0x0 DUP2 SLOAD DUP1 SWAP3 SWAP2 SWAP1 PUSH2 0x6C4 SWAP1 PUSH2 0x27C1 JUMP JUMPDEST SWAP2 SWAP1 POP SSTORE POP POP POP POP POP POP POP POP JUMP JUMPDEST PUSH1 0x60 PUSH1 0x0 PUSH1 0x5 PUSH1 0x0 DUP5 PUSH20 0xFFFFFFFFFFFFFFFFFFFFFFFFFFFFFFFFFFFFFFFF AND PUSH20 0xFFFFFFFFFFFFFFFFFFFFFFFFFFFFFFFFFFFFFFFF AND DUP2 MSTORE PUSH1 0x20 ADD SWAP1 DUP2 MSTORE PUSH1 0x20 ADD PUSH1 0x0 KECCAK256 SWAP1 POP PUSH1 0x0 DUP2 DUP1 SLOAD SWAP1 POP PUSH8 0xFFFFFFFFFFFFFFFF DUP2 GT ISZERO PUSH2 0x737 JUMPI PUSH2 0x736 PUSH2 0x24B1 JUMP JUMPDEST JUMPDEST PUSH1 0x40 MLOAD SWAP1 DUP1 DUP3 MSTORE DUP1 PUSH1 0x20 MUL PUSH1 0x20 ADD DUP3 ADD PUSH1 0x40 MSTORE DUP1 ISZERO PUSH2 0x770 JUMPI DUP2 PUSH1 0x20 ADD JUMPDEST PUSH2 0x75D PUSH2 0x1B55 JUMP JUMPDEST DUP2 MSTORE PUSH1 0x20 ADD SWAP1 PUSH1 0x1 SWAP1 SUB SWAP1 DUP2 PUSH2 0x755 JUMPI SWAP1 POP JUMPDEST POP SWAP1 POP PUSH1 0x0 JUMPDEST DUP3 DUP1 SLOAD SWAP1 POP DUP2 LT ISZERO PUSH2 0x868 JUMPI PUSH1 0x0 DUP4 DUP3 DUP2 SLOAD DUP2 LT PUSH2 0x797 JUMPI PUSH2 0x796 PUSH2 0x2809 JUMP JUMPDEST JUMPDEST SWAP1 PUSH1 0x0 MSTORE PUSH1 0x20 PUSH1 0x0 KECCAK256 ADD SLOAD SWAP1 POP PUSH1 0x2 PUSH1 0x0 DUP3 DUP2 MSTORE PUSH1 0x20 ADD SWAP1 DUP2 MSTORE PUSH1 0x20 ADD PUSH1 0x0 KECCAK256 PUSH1 0x40 MLOAD DUP1 PUSH1 0x80 ADD PUSH1 0x40 MSTORE SWAP1 DUP2 PUSH1 0x0 DUP3 ADD SLOAD DUP2 MSTORE PUSH1 0x20 ADD PUSH1 0x1 DUP3 ADD SLOAD DUP2 MSTORE PUSH1 0x20 ADD PUSH1 0x2 DUP3 ADD PUSH1 0x0 SWAP1 SLOAD SWAP1 PUSH2 0x100 EXP SWAP1 DIV PUSH20 0xFFFFFFFFFFFFFFFFFFFFFFFFFFFFFFFFFFFFFFFF AND PUSH20 0xFFFFFFFFFFFFFFFFFFFFFFFFFFFFFFFFFFFFFFFF AND PUSH20 0xFFFFFFFFFFFFFFFFFFFFFFFFFFFFFFFFFFFFFFFF AND DUP2 MSTORE PUSH1 0x20 ADD PUSH1 0x3 DUP3 ADD SLOAD DUP2 MSTORE POP POP DUP4 DUP4 DUP2 MLOAD DUP2 LT PUSH2 0x849 JUMPI PUSH2 0x848 PUSH2 0x2809 JUMP JUMPDEST JUMPDEST PUSH1 0x20 MUL PUSH1 0x20 ADD ADD DUP2 SWAP1 MSTORE POP POP DUP1 DUP1 PUSH2 0x860 SWAP1 PUSH2 0x27C1 JUMP JUMPDEST SWAP2 POP POP PUSH2 0x776 JUMP JUMPDEST POP DUP1 SWAP3 POP POP POP SWAP2 SWAP1 POP JUMP JUMPDEST PUSH1 0x2 PUSH1 0x20 MSTORE DUP1 PUSH1 0x0 MSTORE PUSH1 0x40 PUSH1 0x0 KECCAK256 PUSH1 0x0 SWAP2 POP SWAP1 POP DUP1 PUSH1 0x0 ADD SLOAD SWAP1 DUP1 PUSH1 0x1 ADD SLOAD SWAP1 DUP1 PUSH1 0x2 ADD PUSH1 0x0 SWAP1 SLOAD SWAP1 PUSH2 0x100 EXP SWAP1 DIV PUSH20 0xFFFFFFFFFFFFFFFFFFFFFFFFFFFFFFFFFFFFFFFF AND SWAP1 DUP1 PUSH1 0x3 ADD SLOAD SWAP1 POP DUP5 JUMP JUMPDEST DUP1 PUSH1 0x0 DUP2 GT DUP1 ISZERO PUSH2 0x8D5 JUMPI POP PUSH1 0x1 SLOAD DUP2 LT JUMPDEST PUSH2 0x914 JUMPI PUSH1 0x40 MLOAD PUSH32 0x8C379A000000000000000000000000000000000000000000000000000000000 DUP2 MSTORE PUSH1 0x4 ADD PUSH2 0x90B SWAP1 PUSH2 0x2884 JUMP JUMPDEST PUSH1 0x40 MLOAD DUP1 SWAP2 SUB SWAP1 REVERT JUMPDEST PUSH1 0x0 DUP1 PUSH1 0x0 DUP5 DUP2 MSTORE PUSH1 0x20 ADD SWAP1 DUP2 MSTORE PUSH1 0x20 ADD PUSH1 0x0 KECCAK256 SWAP1 POP PUSH1 0x0 JUMPDEST DUP2 PUSH1 0x7 ADD DUP1 SLOAD SWAP1 POP DUP2 LT ISZERO PUSH2 0xB8B JUMPI PUSH1 0x0 DUP3 PUSH1 0x7 ADD DUP3 DUP2 SLOAD DUP2 LT PUSH2 0x954 JUMPI PUSH2 0x953 PUSH2 0x2809 JUMP JUMPDEST JUMPDEST SWAP1 PUSH1 0x0 MSTORE PUSH1 0x20 PUSH1 0x0 KECCAK256 ADD SLOAD SWAP1 POP PUSH1 0x0 PUSH1 0x2 PUSH1 0x0 DUP4 DUP2 MSTORE PUSH1 0x20 ADD SWAP1 DUP2 MSTORE PUSH1 0x20 ADD PUSH1 0x0 KECCAK256 SWAP1 POP DUP1 PUSH1 0x2 ADD PUSH1 0x0 SWAP1 SLOAD SWAP1 PUSH2 0x100 EXP SWAP1 DIV PUSH20 0xFFFFFFFFFFFFFFFFFFFFFFFFFFFFFFFFFFFFFFFF AND PUSH20 0xFFFFFFFFFFFFFFFFFFFFFFFFFFFFFFFFFFFFFFFF AND PUSH2 0x8FC DUP3 PUSH1 0x3 ADD SLOAD SWAP1 DUP2 ISZERO MUL SWAP1 PUSH1 0x40 MLOAD PUSH1 0x0 PUSH1 0x40 MLOAD DUP1 DUP4 SUB DUP2 DUP6 DUP9 DUP9 CALL SWAP4 POP POP POP POP ISZERO DUP1 ISZERO PUSH2 0x9E6 JUMPI RETURNDATASIZE PUSH1 0x0 DUP1 RETURNDATACOPY RETURNDATASIZE PUSH1 0x0 REVERT JUMPDEST POP PUSH1 0x0 JUMPDEST PUSH1 0x5 PUSH1 0x0 DUP4 PUSH1 0x2 ADD PUSH1 0x0 SWAP1 SLOAD SWAP1 PUSH2 0x100 EXP SWAP1 DIV PUSH20 0xFFFFFFFFFFFFFFFFFFFFFFFFFFFFFFFFFFFFFFFF AND PUSH20 0xFFFFFFFFFFFFFFFFFFFFFFFFFFFFFFFFFFFFFFFF AND PUSH20 0xFFFFFFFFFFFFFFFFFFFFFFFFFFFFFFFFFFFFFFFF AND DUP2 MSTORE PUSH1 0x20 ADD SWAP1 DUP2 MSTORE PUSH1 0x20 ADD PUSH1 0x0 KECCAK256 DUP1 SLOAD SWAP1 POP DUP2 LT ISZERO PUSH2 0xB75 JUMPI DUP3 PUSH1 0x5 PUSH1 0x0 DUP5 PUSH1 0x2 ADD PUSH1 0x0 SWAP1 SLOAD SWAP1 PUSH2 0x100 EXP SWAP1 DIV PUSH20 0xFFFFFFFFFFFFFFFFFFFFFFFFFFFFFFFFFFFFFFFF AND PUSH20 0xFFFFFFFFFFFFFFFFFFFFFFFFFFFFFFFFFFFFFFFF AND PUSH20 0xFFFFFFFFFFFFFFFFFFFFFFFFFFFFFFFFFFFFFFFF AND DUP2 MSTORE PUSH1 0x20 ADD SWAP1 DUP2 MSTORE PUSH1 0x20 ADD PUSH1 0x0 KECCAK256 DUP3 DUP2 SLOAD DUP2 LT PUSH2 0xACE JUMPI PUSH2 0xACD PUSH2 0x2809 JUMP JUMPDEST JUMPDEST SWAP1 PUSH1 0x0 MSTORE PUSH1 0x20 PUSH1 0x0 KECCAK256 ADD SLOAD SUB PUSH2 0xB62 JUMPI PUSH1 0x5 PUSH1 0x0 DUP4 PUSH1 0x2 ADD PUSH1 0x0 SWAP1 SLOAD SWAP1 PUSH2 0x100 EXP SWAP1 DIV PUSH20 0xFFFFFFFFFFFFFFFFFFFFFFFFFFFFFFFFFFFFFFFF AND PUSH20 0xFFFFFFFFFFFFFFFFFFFFFFFFFFFFFFFFFFFFFFFF AND PUSH20 0xFFFFFFFFFFFFFFFFFFFFFFFFFFFFFFFFFFFFFFFF AND DUP2 MSTORE PUSH1 0x20 ADD SWAP1 DUP2 MSTORE PUSH1 0x20 ADD PUSH1 0x0 KECCAK256 DUP2 DUP2 SLOAD DUP2 LT PUSH2 0xB53 JUMPI PUSH2 0xB52 PUSH2 0x2809 JUMP JUMPDEST JUMPDEST SWAP1 PUSH1 0x0 MSTORE PUSH1 0x20 PUSH1 0x0 KECCAK256 ADD PUSH1 0x0 SWAP1 SSTORE JUMPDEST DUP1 DUP1 PUSH2 0xB6D SWAP1 PUSH2 0x27C1 JUMP JUMPDEST SWAP2 POP POP PUSH2 0x9EA JUMP JUMPDEST POP POP POP DUP1 DUP1 PUSH2 0xB83 SWAP1 PUSH2 0x27C1 JUMP JUMPDEST SWAP2 POP POP PUSH2 0x92D JUMP JUMPDEST POP PUSH1 0x0 JUMPDEST PUSH1 0x4 PUSH1 0x0 DUP4 PUSH1 0x1 ADD PUSH1 0x0 SWAP1 SLOAD SWAP1 PUSH2 0x100 EXP SWAP1 DIV PUSH20 0xFFFFFFFFFFFFFFFFFFFFFFFFFFFFFFFFFFFFFFFF AND PUSH20 0xFFFFFFFFFFFFFFFFFFFFFFFFFFFFFFFFFFFFFFFF AND PUSH20 0xFFFFFFFFFFFFFFFFFFFFFFFFFFFFFFFFFFFFFFFF AND DUP2 MSTORE PUSH1 0x20 ADD SWAP1 DUP2 MSTORE PUSH1 0x20 ADD PUSH1 0x0 KECCAK256 DUP1 SLOAD SWAP1 POP DUP2 LT ISZERO PUSH2 0xD1A JUMPI DUP4 PUSH1 0x4 PUSH1 0x0 DUP5 PUSH1 0x1 ADD PUSH1 0x0 SWAP1 SLOAD SWAP1 PUSH2 0x100 EXP SWAP1 DIV PUSH20 0xFFFFFFFFFFFFFFFFFFFFFFFFFFFFFFFFFFFFFFFF AND PUSH20 0xFFFFFFFFFFFFFFFFFFFFFFFFFFFFFFFFFFFFFFFF AND PUSH20 0xFFFFFFFFFFFFFFFFFFFFFFFFFFFFFFFFFFFFFFFF AND DUP2 MSTORE PUSH1 0x20 ADD SWAP1 DUP2 MSTORE PUSH1 0x20 ADD PUSH1 0x0 KECCAK256 DUP3 DUP2 SLOAD DUP2 LT PUSH2 0xC73 JUMPI PUSH2 0xC72 PUSH2 0x2809 JUMP JUMPDEST JUMPDEST SWAP1 PUSH1 0x0 MSTORE PUSH1 0x20 PUSH1 0x0 KECCAK256 ADD SLOAD SUB PUSH2 0xD07 JUMPI PUSH1 0x4 PUSH1 0x0 DUP4 PUSH1 0x1 ADD PUSH1 0x0 SWAP1 SLOAD SWAP1 PUSH2 0x100 EXP SWAP1 DIV PUSH20 0xFFFFFFFFFFFFFFFFFFFFFFFFFFFFFFFFFFFFFFFF AND PUSH20 0xFFFFFFFFFFFFFFFFFFFFFFFFFFFFFFFFFFFFFFFF AND PUSH20 0xFFFFFFFFFFFFFFFFFFFFFFFFFFFFFFFFFFFFFFFF AND DUP2 MSTORE PUSH1 0x20 ADD SWAP1 DUP2 MSTORE PUSH1 0x20 ADD PUSH1 0x0 KECCAK256 DUP2 DUP2 SLOAD DUP2 LT PUSH2 0xCF8 JUMPI PUSH2 0xCF7 PUSH2 0x2809 JUMP JUMPDEST JUMPDEST SWAP1 PUSH1 0x0 MSTORE PUSH1 0x20 PUSH1 0x0 KECCAK256 ADD PUSH1 0x0 SWAP1 SSTORE JUMPDEST DUP1 DUP1 PUSH2 0xD12 SWAP1 PUSH2 0x27C1 JUMP JUMPDEST SWAP2 POP POP PUSH2 0xB8F JUMP JUMPDEST POP PUSH1 0x0 DUP1 DUP5 DUP2 MSTORE PUSH1 0x20 ADD SWAP1 DUP2 MSTORE PUSH1 0x20 ADD PUSH1 0x0 KECCAK256 PUSH1 0x0 DUP1 DUP3 ADD PUSH1 0x0 SWAP1 SSTORE PUSH1 0x1 DUP3 ADD PUSH1 0x0 PUSH2 0x100 EXP DUP2 SLOAD SWAP1 PUSH20 0xFFFFFFFFFFFFFFFFFFFFFFFFFFFFFFFFFFFFFFFF MUL NOT AND SWAP1 SSTORE PUSH1 0x2 DUP3 ADD PUSH1 0x0 PUSH2 0xD6D SWAP2 SWAP1 PUSH2 0x1B93 JUMP JUMPDEST PUSH1 0x3 DUP3 ADD PUSH1 0x0 PUSH2 0xD7D SWAP2 SWAP1 PUSH2 0x1B93 JUMP JUMPDEST PUSH1 0x4 DUP3 ADD PUSH1 0x0 SWAP1 SSTORE PUSH1 0x5 DUP3 ADD PUSH1 0x0 SWAP1 SSTORE PUSH1 0x6 DUP3 ADD PUSH1 0x0 SWAP1 SSTORE PUSH1 0x7 DUP3 ADD PUSH1 0x0 PUSH2 0xDA5 SWAP2 SWAP1 PUSH2 0x1BD3 JUMP JUMPDEST POP POP POP POP POP JUMP JUMPDEST DUP1 PUSH1 0x0 DUP2 GT DUP1 ISZERO PUSH2 0xDBE JUMPI POP PUSH1 0x1 SLOAD DUP2 LT JUMPDEST PUSH2 0xDFD JUMPI PUSH1 0x40 MLOAD PUSH32 0x8C379A000000000000000000000000000000000000000000000000000000000 DUP2 MSTORE PUSH1 0x4 ADD PUSH2 0xDF4 SWAP1 PUSH2 0x2884 JUMP JUMPDEST PUSH1 0x40 MLOAD DUP1 SWAP2 SUB SWAP1 REVERT JUMPDEST PUSH1 0x0 DUP1 PUSH1 0x0 DUP5 DUP2 MSTORE PUSH1 0x20 ADD SWAP1 DUP2 MSTORE PUSH1 0x20 ADD PUSH1 0x0 KECCAK256 SWAP1 POP DUP1 PUSH1 0x5 ADD SLOAD TIMESTAMP LT PUSH2 0xE59 JUMPI PUSH1 0x40 MLOAD PUSH32 0x8C379A000000000000000000000000000000000000000000000000000000000 DUP2 MSTORE PUSH1 0x4 ADD PUSH2 0xE50 SWAP1 PUSH2 0x28F0 JUMP JUMPDEST PUSH1 0x40 MLOAD DUP1 SWAP2 SUB SWAP1 REVERT JUMPDEST PUSH1 0x0 PUSH1 0x2 PUSH1 0x0 DUP4 PUSH1 0x6 ADD SLOAD DUP2 MSTORE PUSH1 0x20 ADD SWAP1 DUP2 MSTORE PUSH1 0x20 ADD PUSH1 0x0 KECCAK256 SWAP1 POP PUSH1 0x0 CALLVALUE SWAP1 POP PUSH1 0x0 JUMPDEST DUP4 PUSH1 0x7 ADD DUP1 SLOAD SWAP1 POP DUP2 LT ISZERO PUSH2 0xF40 JUMPI PUSH1 0x0 PUSH1 0x2 PUSH1 0x0 DUP7 PUSH1 0x7 ADD DUP5 DUP2 SLOAD DUP2 LT PUSH2 0xEA7 JUMPI PUSH2 0xEA6 PUSH2 0x2809 JUMP JUMPDEST JUMPDEST SWAP1 PUSH1 0x0 MSTORE PUSH1 0x20 PUSH1 0x0 KECCAK256 ADD SLOAD DUP2 MSTORE PUSH1 0x20 ADD SWAP1 DUP2 MSTORE PUSH1 0x20 ADD PUSH1 0x0 KECCAK256 SWAP1 POP CALLER PUSH20 0xFFFFFFFFFFFFFFFFFFFFFFFFFFFFFFFFFFFFFFFF AND DUP2 PUSH1 0x2 ADD PUSH1 0x0 SWAP1 SLOAD SWAP1 PUSH2 0x100 EXP SWAP1 DIV PUSH20 0xFFFFFFFFFFFFFFFFFFFFFFFFFFFFFFFFFFFFFFFF AND PUSH20 0xFFFFFFFFFFFFFFFFFFFFFFFFFFFFFFFFFFFFFFFF AND SUB PUSH2 0xF2C JUMPI DUP1 PUSH1 0x3 ADD SLOAD DUP4 PUSH2 0xF29 SWAP2 SWAP1 PUSH2 0x250F JUMP JUMPDEST SWAP3 POP JUMPDEST POP DUP1 DUP1 PUSH2 0xF38 SWAP1 PUSH2 0x27C1 JUMP JUMPDEST SWAP2 POP POP PUSH2 0xE7C JUMP JUMPDEST POP DUP3 PUSH1 0x4 ADD SLOAD DUP2 LT ISZERO DUP1 ISZERO PUSH2 0xF58 JUMPI POP DUP2 PUSH1 0x3 ADD SLOAD DUP2 GT JUMPDEST PUSH2 0xF97 JUMPI PUSH1 0x40 MLOAD PUSH32 0x8C379A000000000000000000000000000000000000000000000000000000000 DUP2 MSTORE PUSH1 0x4 ADD PUSH2 0xF8E SWAP1 PUSH2 0x29A8 JUMP JUMPDEST PUSH1 0x40 MLOAD DUP1 SWAP2 SUB SWAP1 REVERT JUMPDEST PUSH1 0x3 SLOAD DUP4 PUSH1 0x6 ADD DUP2 SWAP1 SSTORE POP PUSH1 0x40 MLOAD DUP1 PUSH1 0x80 ADD PUSH1 0x40 MSTORE DUP1 PUSH1 0x3 SLOAD DUP2 MSTORE PUSH1 0x20 ADD DUP7 DUP2 MSTORE PUSH1 0x20 ADD CALLER PUSH20 0xFFFFFFFFFFFFFFFFFFFFFFFFFFFFFFFFFFFFFFFF AND DUP2 MSTORE PUSH1 0x20 ADD DUP3 DUP2 MSTORE POP PUSH1 0x2 PUSH1 0x0 PUSH1 0x3 SLOAD DUP2 MSTORE PUSH1 0x20 ADD SWAP1 DUP2 MSTORE PUSH1 0x20 ADD PUSH1 0x0 KECCAK256 PUSH1 0x0 DUP3 ADD MLOAD DUP2 PUSH1 0x0 ADD SSTORE PUSH1 0x20 DUP3 ADD MLOAD DUP2 PUSH1 0x1 ADD SSTORE PUSH1 0x40 DUP3 ADD MLOAD DUP2 PUSH1 0x2 ADD PUSH1 0x0 PUSH2 0x100 EXP DUP2 SLOAD DUP2 PUSH20 0xFFFFFFFFFFFFFFFFFFFFFFFFFFFFFFFFFFFFFFFF MUL NOT AND SWAP1 DUP4 PUSH20 0xFFFFFFFFFFFFFFFFFFFFFFFFFFFFFFFFFFFFFFFF AND MUL OR SWAP1 SSTORE POP PUSH1 0x60 DUP3 ADD MLOAD DUP2 PUSH1 0x3 ADD SSTORE SWAP1 POP POP DUP3 PUSH1 0x7 ADD PUSH1 0x3 SLOAD SWAP1 DUP1 PUSH1 0x1 DUP2 SLOAD ADD DUP1 DUP3 SSTORE DUP1 SWAP2 POP POP PUSH1 0x1 SWAP1 SUB SWAP1 PUSH1 0x0 MSTORE PUSH1 0x20 PUSH1 0x0 KECCAK256 ADD PUSH1 0x0 SWAP1 SWAP2 SWAP1 SWAP2 SWAP1 SWAP2 POP SSTORE PUSH1 0x1 DUP2 PUSH2 0x1092 SWAP2 SWAP1 PUSH2 0x250F JUMP JUMPDEST DUP4 PUSH1 0x4 ADD DUP2 SWAP1 SSTORE POP PUSH1 0x5 PUSH1 0x0 CALLER PUSH20 0xFFFFFFFFFFFFFFFFFFFFFFFFFFFFFFFFFFFFFFFF AND PUSH20 0xFFFFFFFFFFFFFFFFFFFFFFFFFFFFFFFFFFFFFFFF AND DUP2 MSTORE PUSH1 0x20 ADD SWAP1 DUP2 MSTORE PUSH1 0x20 ADD PUSH1 0x0 KECCAK256 PUSH1 0x3 SLOAD SWAP1 DUP1 PUSH1 0x1 DUP2 SLOAD ADD DUP1 DUP3 SSTORE DUP1 SWAP2 POP POP PUSH1 0x1 SWAP1 SUB SWAP1 PUSH1 0x0 MSTORE PUSH1 0x20 PUSH1 0x0 KECCAK256 ADD PUSH1 0x0 SWAP1 SWAP2 SWAP1 SWAP2 SWAP1 SWAP2 POP SSTORE PUSH1 0x3 PUSH1 0x0 DUP2 SLOAD DUP1 SWAP3 SWAP2 SWAP1 PUSH2 0x1115 SWAP1 PUSH2 0x27C1 JUMP JUMPDEST SWAP2 SWAP1 POP SSTORE POP POP POP POP POP POP JUMP JUMPDEST PUSH1 0x60 DUP2 PUSH1 0x0 DUP2 GT DUP1 ISZERO PUSH2 0x1135 JUMPI POP PUSH1 0x1 SLOAD DUP2 LT JUMPDEST PUSH2 0x1174 JUMPI PUSH1 0x40 MLOAD PUSH32 0x8C379A000000000000000000000000000000000000000000000000000000000 DUP2 MSTORE PUSH1 0x4 ADD PUSH2 0x116B SWAP1 PUSH2 0x2884 JUMP JUMPDEST PUSH1 0x40 MLOAD DUP1 SWAP2 SUB SWAP1 REVERT JUMPDEST PUSH1 0x0 DUP1 PUSH1 0x0 DUP6 DUP2 MSTORE PUSH1 0x20 ADD SWAP1 DUP2 MSTORE PUSH1 0x20 ADD PUSH1 0x0 KECCAK256 SWAP1 POP PUSH1 0x0 DUP2 PUSH1 0x7 ADD SWAP1 POP PUSH1 0x0 DUP2 DUP1 SLOAD SWAP1 POP PUSH8 0xFFFFFFFFFFFFFFFF DUP2 GT ISZERO PUSH2 0x11B2 JUMPI PUSH2 0x11B1 PUSH2 0x24B1 JUMP JUMPDEST JUMPDEST PUSH1 0x40 MLOAD SWAP1 DUP1 DUP3 MSTORE DUP1 PUSH1 0x20 MUL PUSH1 0x20 ADD DUP3 ADD PUSH1 0x40 MSTORE DUP1 ISZERO PUSH2 0x11EB JUMPI DUP2 PUSH1 0x20 ADD JUMPDEST PUSH2 0x11D8 PUSH2 0x1B55 JUMP JUMPDEST DUP2 MSTORE PUSH1 0x20 ADD SWAP1 PUSH1 0x1 SWAP1 SUB SWAP1 DUP2 PUSH2 0x11D0 JUMPI SWAP1 POP JUMPDEST POP SWAP1 POP PUSH1 0x0 JUMPDEST DUP3 DUP1 SLOAD SWAP1 POP DUP2 LT ISZERO PUSH2 0x12E3 JUMPI PUSH1 0x0 DUP4 DUP3 DUP2 SLOAD DUP2 LT PUSH2 0x1212 JUMPI PUSH2 0x1211 PUSH2 0x2809 JUMP JUMPDEST JUMPDEST SWAP1 PUSH1 0x0 MSTORE PUSH1 0x20 PUSH1 0x0 KECCAK256 ADD SLOAD SWAP1 POP PUSH1 0x2 PUSH1 0x0 DUP3 DUP2 MSTORE PUSH1 0x20 ADD SWAP1 DUP2 MSTORE PUSH1 0x20 ADD PUSH1 0x0 KECCAK256 PUSH1 0x40 MLOAD DUP1 PUSH1 0x80 ADD PUSH1 0x40 MSTORE SWAP1 DUP2 PUSH1 0x0 DUP3 ADD SLOAD DUP2 MSTORE PUSH1 0x20 ADD PUSH1 0x1 DUP3 ADD SLOAD DUP2 MSTORE PUSH1 0x20 ADD PUSH1 0x2 DUP3 ADD PUSH1 0x0 SWAP1 SLOAD SWAP1 PUSH2 0x100 EXP SWAP1 DIV PUSH20 0xFFFFFFFFFFFFFFFFFFFFFFFFFFFFFFFFFFFFFFFF AND PUSH20 0xFFFFFFFFFFFFFFFFFFFFFFFFFFFFFFFFFFFFFFFF AND PUSH20 0xFFFFFFFFFFFFFFFFFFFFFFFFFFFFFFFFFFFFFFFF AND DUP2 MSTORE PUSH1 0x20 ADD PUSH1 0x3 DUP3 ADD SLOAD DUP2 MSTORE POP POP DUP4 DUP4 DUP2 MLOAD DUP2 LT PUSH2 0x12C4 JUMPI PUSH2 0x12C3 PUSH2 0x2809 JUMP JUMPDEST JUMPDEST PUSH1 0x20 MUL PUSH1 0x20 ADD ADD DUP2 SWAP1 MSTORE POP POP DUP1 DUP1 PUSH2 0x12DB SWAP1 PUSH2 0x27C1 JUMP JUMPDEST SWAP2 POP POP PUSH2 0x11F1 JUMP JUMPDEST POP DUP1 SWAP5 POP POP POP POP POP SWAP2 SWAP1 POP JUMP JUMPDEST PUSH1 0x60 PUSH1 0x0 PUSH1 0x1 DUP1 SLOAD PUSH2 0x1302 SWAP2 SWAP1 PUSH2 0x29C8 JUMP JUMPDEST PUSH8 0xFFFFFFFFFFFFFFFF DUP2 GT ISZERO PUSH2 0x131B JUMPI PUSH2 0x131A PUSH2 0x24B1 JUMP JUMPDEST JUMPDEST PUSH1 0x40 MLOAD SWAP1 DUP1 DUP3 MSTORE DUP1 PUSH1 0x20 MUL PUSH1 0x20 ADD DUP3 ADD PUSH1 0x40 MSTORE DUP1 ISZERO PUSH2 0x1354 JUMPI DUP2 PUSH1 0x20 ADD JUMPDEST PUSH2 0x1341 PUSH2 0x1BF4 JUMP JUMPDEST DUP2 MSTORE PUSH1 0x20 ADD SWAP1 PUSH1 0x1 SWAP1 SUB SWAP1 DUP2 PUSH2 0x1339 JUMPI SWAP1 POP JUMPDEST POP SWAP1 POP PUSH1 0x0 PUSH1 0x1 SWAP1 POP JUMPDEST PUSH1 0x1 SLOAD DUP2 LT ISZERO PUSH2 0x15BD JUMPI PUSH1 0x0 DUP1 DUP3 DUP2 MSTORE PUSH1 0x20 ADD SWAP1 DUP2 MSTORE PUSH1 0x20 ADD PUSH1 0x0 KECCAK256 PUSH1 0x40 MLOAD DUP1 PUSH2 0x100 ADD PUSH1 0x40 MSTORE SWAP1 DUP2 PUSH1 0x0 DUP3 ADD SLOAD DUP2 MSTORE PUSH1 0x20 ADD PUSH1 0x1 DUP3 ADD PUSH1 0x0 SWAP1 SLOAD SWAP1 PUSH2 0x100 EXP SWAP1 DIV PUSH20 0xFFFFFFFFFFFFFFFFFFFFFFFFFFFFFFFFFFFFFFFF AND PUSH20 0xFFFFFFFFFFFFFFFFFFFFFFFFFFFFFFFFFFFFFFFF AND PUSH20 0xFFFFFFFFFFFFFFFFFFFFFFFFFFFFFFFFFFFFFFFF AND DUP2 MSTORE PUSH1 0x20 ADD PUSH1 0x2 DUP3 ADD DUP1 SLOAD PUSH2 0x13F6 SWAP1 PUSH2 0x23EE JUMP JUMPDEST DUP1 PUSH1 0x1F ADD PUSH1 0x20 DUP1 SWAP2 DIV MUL PUSH1 0x20 ADD PUSH1 0x40 MLOAD SWAP1 DUP2 ADD PUSH1 0x40 MSTORE DUP1 SWAP3 SWAP2 SWAP1 DUP2 DUP2 MSTORE PUSH1 0x20 ADD DUP3 DUP1 SLOAD PUSH2 0x1422 SWAP1 PUSH2 0x23EE JUMP JUMPDEST DUP1 ISZERO PUSH2 0x146F JUMPI DUP1 PUSH1 0x1F LT PUSH2 0x1444 JUMPI PUSH2 0x100 DUP1 DUP4 SLOAD DIV MUL DUP4 MSTORE SWAP2 PUSH1 0x20 ADD SWAP2 PUSH2 0x146F JUMP JUMPDEST DUP3 ADD SWAP2 SWAP1 PUSH1 0x0 MSTORE PUSH1 0x20 PUSH1 0x0 KECCAK256 SWAP1 JUMPDEST DUP2 SLOAD DUP2 MSTORE SWAP1 PUSH1 0x1 ADD SWAP1 PUSH1 0x20 ADD DUP1 DUP4 GT PUSH2 0x1452 JUMPI DUP3 SWAP1 SUB PUSH1 0x1F AND DUP3 ADD SWAP2 JUMPDEST POP POP POP POP POP DUP2 MSTORE PUSH1 0x20 ADD PUSH1 0x3 DUP3 ADD DUP1 SLOAD PUSH2 0x1488 SWAP1 PUSH2 0x23EE JUMP JUMPDEST DUP1 PUSH1 0x1F ADD PUSH1 0x20 DUP1 SWAP2 DIV MUL PUSH1 0x20 ADD PUSH1 0x40 MLOAD SWAP1 DUP2 ADD PUSH1 0x40 MSTORE DUP1 SWAP3 SWAP2 SWAP1 DUP2 DUP2 MSTORE PUSH1 0x20 ADD DUP3 DUP1 SLOAD PUSH2 0x14B4 SWAP1 PUSH2 0x23EE JUMP JUMPDEST DUP1 ISZERO PUSH2 0x1501 JUMPI DUP1 PUSH1 0x1F LT PUSH2 0x14D6 JUMPI PUSH2 0x100 DUP1 DUP4 SLOAD DIV MUL DUP4 MSTORE SWAP2 PUSH1 0x20 ADD SWAP2 PUSH2 0x1501 JUMP JUMPDEST DUP3 ADD SWAP2 SWAP1 PUSH1 0x0 MSTORE PUSH1 0x20 PUSH1 0x0 KECCAK256 SWAP1 JUMPDEST DUP2 SLOAD DUP2 MSTORE SWAP1 PUSH1 0x1 ADD SWAP1 PUSH1 0x20 ADD DUP1 DUP4 GT PUSH2 0x14E4 JUMPI DUP3 SWAP1 SUB PUSH1 0x1F AND DUP3 ADD SWAP2 JUMPDEST POP POP POP POP POP DUP2 MSTORE PUSH1 0x20 ADD PUSH1 0x4 DUP3 ADD SLOAD DUP2 MSTORE PUSH1 0x20 ADD PUSH1 0x5 DUP3 ADD SLOAD DUP2 MSTORE PUSH1 0x20 ADD PUSH1 0x6 DUP3 ADD SLOAD DUP2 MSTORE PUSH1 0x20 ADD PUSH1 0x7 DUP3 ADD DUP1 SLOAD DUP1 PUSH1 0x20 MUL PUSH1 0x20 ADD PUSH1 0x40 MLOAD SWAP1 DUP2 ADD PUSH1 0x40 MSTORE DUP1 SWAP3 SWAP2 SWAP1 DUP2 DUP2 MSTORE PUSH1 0x20 ADD DUP3 DUP1 SLOAD DUP1 ISZERO PUSH2 0x1577 JUMPI PUSH1 0x20 MUL DUP3 ADD SWAP2 SWAP1 PUSH1 0x0 MSTORE PUSH1 0x20 PUSH1 0x0 KECCAK256 SWAP1 JUMPDEST DUP2 SLOAD DUP2 MSTORE PUSH1 0x20 ADD SWAP1 PUSH1 0x1 ADD SWAP1 DUP1 DUP4 GT PUSH2 0x1563 JUMPI JUMPDEST POP POP POP POP POP DUP2 MSTORE POP POP DUP3 PUSH1 0x1 DUP4 PUSH2 0x158E SWAP2 SWAP1 PUSH2 0x29C8 JUMP JUMPDEST DUP2 MLOAD DUP2 LT PUSH2 0x159F JUMPI PUSH2 0x159E PUSH2 0x2809 JUMP JUMPDEST JUMPDEST PUSH1 0x20 MUL PUSH1 0x20 ADD ADD DUP2 SWAP1 MSTORE POP DUP1 DUP1 PUSH2 0x15B5 SWAP1 PUSH2 0x27C1 JUMP JUMPDEST SWAP2 POP POP PUSH2 0x135E JUMP JUMPDEST POP DUP1 SWAP2 POP POP SWAP1 JUMP JUMPDEST DUP1 PUSH1 0x0 DUP2 GT DUP1 ISZERO PUSH2 0x15D7 JUMPI POP PUSH1 0x1 SLOAD DUP2 LT JUMPDEST PUSH2 0x1616 JUMPI PUSH1 0x40 MLOAD PUSH32 0x8C379A000000000000000000000000000000000000000000000000000000000 DUP2 MSTORE PUSH1 0x4 ADD PUSH2 0x160D SWAP1 PUSH2 0x2884 JUMP JUMPDEST PUSH1 0x40 MLOAD DUP1 SWAP2 SUB SWAP1 REVERT JUMPDEST PUSH1 0x0 DUP1 PUSH1 0x0 DUP5 DUP2 MSTORE PUSH1 0x20 ADD SWAP1 DUP2 MSTORE PUSH1 0x20 ADD PUSH1 0x0 KECCAK256 SWAP1 POP PUSH1 0x0 PUSH1 0x2 PUSH1 0x0 DUP4 PUSH1 0x6 ADD SLOAD DUP2 MSTORE PUSH1 0x20 ADD SWAP1 DUP2 MSTORE PUSH1 0x20 ADD PUSH1 0x0 KECCAK256 SWAP1 POP DUP2 PUSH1 0x5 ADD SLOAD TIMESTAMP GT PUSH2 0x168D JUMPI PUSH1 0x40 MLOAD PUSH32 0x8C379A000000000000000000000000000000000000000000000000000000000 DUP2 MSTORE PUSH1 0x4 ADD PUSH2 0x1684 SWAP1 PUSH2 0x2A48 JUMP JUMPDEST PUSH1 0x40 MLOAD DUP1 SWAP2 SUB SWAP1 REVERT JUMPDEST PUSH1 0x0 JUMPDEST DUP3 PUSH1 0x7 ADD DUP1 SLOAD SWAP1 POP DUP2 LT ISZERO PUSH2 0x176B JUMPI PUSH1 0x0 DUP4 PUSH1 0x7 ADD DUP3 DUP2 SLOAD DUP2 LT PUSH2 0x16B7 JUMPI PUSH2 0x16B6 PUSH2 0x2809 JUMP JUMPDEST JUMPDEST SWAP1 PUSH1 0x0 MSTORE PUSH1 0x20 PUSH1 0x0 KECCAK256 ADD SLOAD SWAP1 POP PUSH1 0x0 PUSH1 0x2 PUSH1 0x0 DUP4 DUP2 MSTORE PUSH1 0x20 ADD SWAP1 DUP2 MSTORE PUSH1 0x20 ADD PUSH1 0x0 KECCAK256 SWAP1 POP DUP4 PUSH1 0x0 ADD SLOAD DUP3 EQ PUSH2 0x1756 JUMPI DUP1 PUSH1 0x2 ADD PUSH1 0x0 SWAP1 SLOAD SWAP1 PUSH2 0x100 EXP SWAP1 DIV PUSH20 0xFFFFFFFFFFFFFFFFFFFFFFFFFFFFFFFFFFFFFFFF AND PUSH20 0xFFFFFFFFFFFFFFFFFFFFFFFFFFFFFFFFFFFFFFFF AND PUSH2 0x8FC DUP3 PUSH1 0x3 ADD SLOAD SWAP1 DUP2 ISZERO MUL SWAP1 PUSH1 0x40 MLOAD PUSH1 0x0 PUSH1 0x40 MLOAD DUP1 DUP4 SUB DUP2 DUP6 DUP9 DUP9 CALL SWAP4 POP POP POP POP ISZERO DUP1 ISZERO PUSH2 0x1754 JUMPI RETURNDATASIZE PUSH1 0x0 DUP1 RETURNDATACOPY RETURNDATASIZE PUSH1 0x0 REVERT JUMPDEST POP JUMPDEST POP POP DUP1 DUP1 PUSH2 0x1763 SWAP1 PUSH2 0x27C1 JUMP JUMPDEST SWAP2 POP POP PUSH2 0x1690 JUMP JUMPDEST POP DUP2 PUSH1 0x1 ADD PUSH1 0x0 SWAP1 SLOAD SWAP1 PUSH2 0x100 EXP SWAP1 DIV PUSH20 0xFFFFFFFFFFFFFFFFFFFFFFFFFFFFFFFFFFFFFFFF AND PUSH20 0xFFFFFFFFFFFFFFFFFFFFFFFFFFFFFFFFFFFFFFFF AND PUSH2 0x8FC DUP3 PUSH1 0x3 ADD SLOAD SWAP1 DUP2 ISZERO MUL SWAP1 PUSH1 0x40 MLOAD PUSH1 0x0 PUSH1 0x40 MLOAD DUP1 DUP4 SUB DUP2 DUP6 DUP9 DUP9 CALL SWAP4 POP POP POP POP ISZERO DUP1 ISZERO PUSH2 0x17DA JUMPI RETURNDATASIZE PUSH1 0x0 DUP1 RETURNDATACOPY RETURNDATASIZE PUSH1 0x0 REVERT JUMPDEST POP POP POP POP POP JUMP JUMPDEST PUSH1 0x60 PUSH1 0x0 PUSH1 0x4 PUSH1 0x0 DUP5 PUSH20 0xFFFFFFFFFFFFFFFFFFFFFFFFFFFFFFFFFFFFFFFF AND PUSH20 0xFFFFFFFFFFFFFFFFFFFFFFFFFFFFFFFFFFFFFFFF AND DUP2 MSTORE PUSH1 0x20 ADD SWAP1 DUP2 MSTORE PUSH1 0x20 ADD PUSH1 0x0 KECCAK256 SWAP1 POP PUSH1 0x0 DUP2 DUP1 SLOAD SWAP1 POP PUSH8 0xFFFFFFFFFFFFFFFF DUP2 GT ISZERO PUSH2 0x1846 JUMPI PUSH2 0x1845 PUSH2 0x24B1 JUMP JUMPDEST JUMPDEST PUSH1 0x40 MLOAD SWAP1 DUP1 DUP3 MSTORE DUP1 PUSH1 0x20 MUL PUSH1 0x20 ADD DUP3 ADD PUSH1 0x40 MSTORE DUP1 ISZERO PUSH2 0x187F JUMPI DUP2 PUSH1 0x20 ADD JUMPDEST PUSH2 0x186C PUSH2 0x1BF4 JUMP JUMPDEST DUP2 MSTORE PUSH1 0x20 ADD SWAP1 PUSH1 0x1 SWAP1 SUB SWAP1 DUP2 PUSH2 0x1864 JUMPI SWAP1 POP JUMPDEST POP SWAP1 POP PUSH1 0x0 JUMPDEST DUP3 DUP1 SLOAD SWAP1 POP DUP2 LT ISZERO PUSH2 0x1AFD JUMPI PUSH1 0x0 DUP4 DUP3 DUP2 SLOAD DUP2 LT PUSH2 0x18A6 JUMPI PUSH2 0x18A5 PUSH2 0x2809 JUMP JUMPDEST JUMPDEST SWAP1 PUSH1 0x0 MSTORE PUSH1 0x20 PUSH1 0x0 KECCAK256 ADD SLOAD SWAP1 POP PUSH1 0x0 DUP1 DUP3 DUP2 MSTORE PUSH1 0x20 ADD SWAP1 DUP2 MSTORE PUSH1 0x20 ADD PUSH1 0x0 KECCAK256 PUSH1 0x40 MLOAD DUP1 PUSH2 0x100 ADD PUSH1 0x40 MSTORE SWAP1 DUP2 PUSH1 0x0 DUP3 ADD SLOAD DUP2 MSTORE PUSH1 0x20 ADD PUSH1 0x1 DUP3 ADD PUSH1 0x0 SWAP1 SLOAD SWAP1 PUSH2 0x100 EXP SWAP1 DIV PUSH20 0xFFFFFFFFFFFFFFFFFFFFFFFFFFFFFFFFFFFFFFFF AND PUSH20 0xFFFFFFFFFFFFFFFFFFFFFFFFFFFFFFFFFFFFFFFF AND PUSH20 0xFFFFFFFFFFFFFFFFFFFFFFFFFFFFFFFFFFFFFFFF AND DUP2 MSTORE PUSH1 0x20 ADD PUSH1 0x2 DUP3 ADD DUP1 SLOAD PUSH2 0x1941 SWAP1 PUSH2 0x23EE JUMP JUMPDEST DUP1 PUSH1 0x1F ADD PUSH1 0x20 DUP1 SWAP2 DIV MUL PUSH1 0x20 ADD PUSH1 0x40 MLOAD SWAP1 DUP2 ADD PUSH1 0x40 MSTORE DUP1 SWAP3 SWAP2 SWAP1 DUP2 DUP2 MSTORE PUSH1 0x20 ADD DUP3 DUP1 SLOAD PUSH2 0x196D SWAP1 PUSH2 0x23EE JUMP JUMPDEST DUP1 ISZERO PUSH2 0x19BA JUMPI DUP1 PUSH1 0x1F LT PUSH2 0x198F JUMPI PUSH2 0x100 DUP1 DUP4 SLOAD DIV MUL DUP4 MSTORE SWAP2 PUSH1 0x20 ADD SWAP2 PUSH2 0x19BA JUMP JUMPDEST DUP3 ADD SWAP2 SWAP1 PUSH1 0x0 MSTORE PUSH1 0x20 PUSH1 0x0 KECCAK256 SWAP1 JUMPDEST DUP2 SLOAD DUP2 MSTORE SWAP1 PUSH1 0x1 ADD SWAP1 PUSH1 0x20 ADD DUP1 DUP4 GT PUSH2 0x199D JUMPI DUP3 SWAP1 SUB PUSH1 0x1F AND DUP3 ADD SWAP2 JUMPDEST POP POP POP POP POP DUP2 MSTORE PUSH1 0x20 ADD PUSH1 0x3 DUP3 ADD DUP1 SLOAD PUSH2 0x19D3 SWAP1 PUSH2 0x23EE JUMP JUMPDEST DUP1 PUSH1 0x1F ADD PUSH1 0x20 DUP1 SWAP2 DIV MUL PUSH1 0x20 ADD PUSH1 0x40 MLOAD SWAP1 DUP2 ADD PUSH1 0x40 MSTORE DUP1 SWAP3 SWAP2 SWAP1 DUP2 DUP2 MSTORE PUSH1 0x20 ADD DUP3 DUP1 SLOAD PUSH2 0x19FF SWAP1 PUSH2 0x23EE JUMP JUMPDEST DUP1 ISZERO PUSH2 0x1A4C JUMPI DUP1 PUSH1 0x1F LT PUSH2 0x1A21 JUMPI PUSH2 0x100 DUP1 DUP4 SLOAD DIV MUL DUP4 MSTORE SWAP2 PUSH1 0x20 ADD SWAP2 PUSH2 0x1A4C JUMP JUMPDEST DUP3 ADD SWAP2 SWAP1 PUSH1 0x0 MSTORE PUSH1 0x20 PUSH1 0x0 KECCAK256 SWAP1 JUMPDEST DUP2 SLOAD DUP2 MSTORE SWAP1 PUSH1 0x1 ADD SWAP1 PUSH1 0x20 ADD DUP1 DUP4 GT PUSH2 0x1A2F JUMPI DUP3 SWAP1 SUB PUSH1 0x1F AND DUP3 ADD SWAP2 JUMPDEST POP POP POP POP POP DUP2 MSTORE PUSH1 0x20 ADD PUSH1 0x4 DUP3 ADD SLOAD DUP2 MSTORE PUSH1 0x20 ADD PUSH1 0x5 DUP3 ADD SLOAD DUP2 MSTORE PUSH1 0x20 ADD PUSH1 0x6 DUP3 ADD SLOAD DUP2 MSTORE PUSH1 0x20 ADD PUSH1 0x7 DUP3 ADD DUP1 SLOAD DUP1 PUSH1 0x20 MUL PUSH1 0x20 ADD PUSH1 0x40 MLOAD SWAP1 DUP2 ADD PUSH1 0x40 MSTORE DUP1 SWAP3 SWAP2 SWAP1 DUP2 DUP2 MSTORE PUSH1 0x20 ADD DUP3 DUP1 SLOAD DUP1 ISZERO PUSH2 0x1AC2 JUMPI PUSH1 0x20 MUL DUP3 ADD SWAP2 SWAP1 PUSH1 0x0 MSTORE PUSH1 0x20 PUSH1 0x0 KECCAK256 SWAP1 JUMPDEST DUP2 SLOAD DUP2 MSTORE PUSH1 0x20 ADD SWAP1 PUSH1 0x1 ADD SWAP1 DUP1 DUP4 GT PUSH2 0x1AAE JUMPI JUMPDEST POP POP POP POP POP DUP2 MSTORE POP POP DUP4 DUP4 DUP2 MLOAD DUP2 LT PUSH2 0x1ADE JUMPI PUSH2 0x1ADD PUSH2 0x2809 JUMP JUMPDEST JUMPDEST PUSH1 0x20 MUL PUSH1 0x20 ADD ADD DUP2 SWAP1 MSTORE POP POP DUP1 DUP1 PUSH2 0x1AF5 SWAP1 PUSH2 0x27C1 JUMP JUMPDEST SWAP2 POP POP PUSH2 0x1885 JUMP JUMPDEST POP DUP1 SWAP3 POP POP POP SWAP2 SWAP1 POP JUMP JUMPDEST DUP3 DUP1 SLOAD DUP3 DUP3 SSTORE SWAP1 PUSH1 0x0 MSTORE PUSH1 0x20 PUSH1 0x0 KECCAK256 SWAP1 DUP2 ADD SWAP3 DUP3 ISZERO PUSH2 0x1B44 JUMPI SWAP2 PUSH1 0x20 MUL DUP3 ADD JUMPDEST DUP3 DUP2 GT ISZERO PUSH2 0x1B43 JUMPI DUP3 MLOAD DUP3 SSTORE SWAP2 PUSH1 0x20 ADD SWAP2 SWAP1 PUSH1 0x1 ADD SWAP1 PUSH2 0x1B28 JUMP JUMPDEST JUMPDEST POP SWAP1 POP PUSH2 0x1B51 SWAP2 SWAP1 PUSH2 0x1C4F JUMP JUMPDEST POP SWAP1 JUMP JUMPDEST PUSH1 0x40 MLOAD DUP1 PUSH1 0x80 ADD PUSH1 0x40 MSTORE DUP1 PUSH1 0x0 DUP2 MSTORE PUSH1 0x20 ADD PUSH1 0x0 DUP2 MSTORE PUSH1 0x20 ADD PUSH1 0x0 PUSH20 0xFFFFFFFFFFFFFFFFFFFFFFFFFFFFFFFFFFFFFFFF AND DUP2 MSTORE PUSH1 0x20 ADD PUSH1 0x0 DUP2 MSTORE POP SWAP1 JUMP JUMPDEST POP DUP1 SLOAD PUSH2 0x1B9F SWAP1 PUSH2 0x23EE JUMP JUMPDEST PUSH1 0x0 DUP3 SSTORE DUP1 PUSH1 0x1F LT PUSH2 0x1BB1 JUMPI POP PUSH2 0x1BD0 JUMP JUMPDEST PUSH1 0x1F ADD PUSH1 0x20 SWAP1 DIV SWAP1 PUSH1 0x0 MSTORE PUSH1 0x20 PUSH1 0x0 KECCAK256 SWAP1 DUP2 ADD SWAP1 PUSH2 0x1BCF SWAP2 SWAP1 PUSH2 0x1C4F JUMP JUMPDEST JUMPDEST POP JUMP JUMPDEST POP DUP1 SLOAD PUSH1 0x0 DUP3 SSTORE SWAP1 PUSH1 0x0 MSTORE PUSH1 0x20 PUSH1 0x0 KECCAK256 SWAP1 DUP2 ADD SWAP1 PUSH2 0x1BF1 SWAP2 SWAP1 PUSH2 0x1C4F JUMP JUMPDEST POP JUMP JUMPDEST PUSH1 0x40 MLOAD DUP1 PUSH2 0x100 ADD PUSH1 0x40 MSTORE DUP1 PUSH1 0x0 DUP2 MSTORE PUSH1 0x20 ADD PUSH1 0x0 PUSH20 0xFFFFFFFFFFFFFFFFFFFFFFFFFFFFFFFFFFFFFFFF AND DUP2 MSTORE PUSH1 0x20 ADD PUSH1 0x60 DUP2 MSTORE PUSH1 0x20 ADD PUSH1 0x60 DUP2 MSTORE PUSH1 0x20 ADD PUSH1 0x0 DUP2 MSTORE PUSH1 0x20 ADD PUSH1 0x0 DUP2 MSTORE PUSH1 0x20 ADD PUSH1 0x0 DUP2 MSTORE PUSH1 0x20 ADD PUSH1 0x60 DUP2 MSTORE POP SWAP1 JUMP JUMPDEST JUMPDEST DUP1 DUP3 GT ISZERO PUSH2 0x1C68 JUMPI PUSH1 0x0 DUP2 PUSH1 0x0 SWAP1 SSTORE POP PUSH1 0x1 ADD PUSH2 0x1C50 JUMP JUMPDEST POP SWAP1 JUMP JUMPDEST PUSH1 0x0 DUP1 REVERT JUMPDEST PUSH1 0x0 DUP1 REVERT JUMPDEST PUSH1 0x0 DUP2 SWAP1 POP SWAP2 SWAP1 POP JUMP JUMPDEST PUSH2 0x1C89 DUP2 PUSH2 0x1C76 JUMP JUMPDEST DUP2 EQ PUSH2 0x1C94 JUMPI PUSH1 0x0 DUP1 REVERT JUMPDEST POP JUMP JUMPDEST PUSH1 0x0 DUP2 CALLDATALOAD SWAP1 POP PUSH2 0x1CA6 DUP2 PUSH2 0x1C80 JUMP JUMPDEST SWAP3 SWAP2 POP POP JUMP JUMPDEST PUSH1 0x0 PUSH1 0x20 DUP3 DUP5 SUB SLT ISZERO PUSH2 0x1CC2 JUMPI PUSH2 0x1CC1 PUSH2 0x1C6C JUMP JUMPDEST JUMPDEST PUSH1 0x0 PUSH2 0x1CD0 DUP5 DUP3 DUP6 ADD PUSH2 0x1C97 JUMP JUMPDEST SWAP2 POP POP SWAP3 SWAP2 POP POP JUMP JUMPDEST PUSH2 0x1CE2 DUP2 PUSH2 0x1C76 JUMP JUMPDEST DUP3 MSTORE POP POP JUMP JUMPDEST PUSH1 0x0 PUSH20 0xFFFFFFFFFFFFFFFFFFFFFFFFFFFFFFFFFFFFFFFF DUP3 AND SWAP1 POP SWAP2 SWAP1 POP JUMP JUMPDEST PUSH1 0x0 PUSH2 0x1D13 DUP3 PUSH2 0x1CE8 JUMP JUMPDEST SWAP1 POP SWAP2 SWAP1 POP JUMP JUMPDEST PUSH2 0x1D23 DUP2 PUSH2 0x1D08 JUMP JUMPDEST DUP3 MSTORE POP POP JUMP JUMPDEST PUSH1 0x0 DUP2 MLOAD SWAP1 POP SWAP2 SWAP1 POP JUMP JUMPDEST PUSH1 0x0 DUP3 DUP3 MSTORE PUSH1 0x20 DUP3 ADD SWAP1 POP SWAP3 SWAP2 POP POP JUMP JUMPDEST PUSH1 0x0 JUMPDEST DUP4 DUP2 LT ISZERO PUSH2 0x1D63 JUMPI DUP1 DUP3 ADD MLOAD DUP2 DUP5 ADD MSTORE PUSH1 0x20 DUP2 ADD SWAP1 POP PUSH2 0x1D48 JUMP JUMPDEST PUSH1 0x0 DUP5 DUP5 ADD MSTORE POP POP POP POP JUMP JUMPDEST PUSH1 0x0 PUSH1 0x1F NOT PUSH1 0x1F DUP4 ADD AND SWAP1 POP SWAP2 SWAP1 POP JUMP JUMPDEST PUSH1 0x0 PUSH2 0x1D8B DUP3 PUSH2 0x1D29 JUMP JUMPDEST PUSH2 0x1D95 DUP2 DUP6 PUSH2 0x1D34 JUMP JUMPDEST SWAP4 POP PUSH2 0x1DA5 DUP2 DUP6 PUSH1 0x20 DUP7 ADD PUSH2 0x1D45 JUMP JUMPDEST PUSH2 0x1DAE DUP2 PUSH2 0x1D6F JUMP JUMPDEST DUP5 ADD SWAP2 POP POP SWAP3 SWAP2 POP POP JUMP JUMPDEST PUSH1 0x0 PUSH1 0xE0 DUP3 ADD SWAP1 POP PUSH2 0x1DCE PUSH1 0x0 DUP4 ADD DUP11 PUSH2 0x1CD9 JUMP JUMPDEST PUSH2 0x1DDB PUSH1 0x20 DUP4 ADD DUP10 PUSH2 0x1D1A JUMP JUMPDEST DUP2 DUP2 SUB PUSH1 0x40 DUP4 ADD MSTORE PUSH2 0x1DED DUP2 DUP9 PUSH2 0x1D80 JUMP JUMPDEST SWAP1 POP DUP2 DUP2 SUB PUSH1 0x60 DUP4 ADD MSTORE PUSH2 0x1E01 DUP2 DUP8 PUSH2 0x1D80 JUMP JUMPDEST SWAP1 POP PUSH2 0x1E10 PUSH1 0x80 DUP4 ADD DUP7 PUSH2 0x1CD9 JUMP JUMPDEST PUSH2 0x1E1D PUSH1 0xA0 DUP4 ADD DUP6 PUSH2 0x1CD9 JUMP JUMPDEST PUSH2 0x1E2A PUSH1 0xC0 DUP4 ADD DUP5 PUSH2 0x1CD9 JUMP JUMPDEST SWAP9 SWAP8 POP POP POP POP POP POP POP POP JUMP JUMPDEST PUSH1 0x0 DUP1 REVERT JUMPDEST PUSH1 0x0 DUP1 REVERT JUMPDEST PUSH1 0x0 DUP1 REVERT JUMPDEST PUSH1 0x0 DUP1 DUP4 PUSH1 0x1F DUP5 ADD SLT PUSH2 0x1E5B JUMPI PUSH2 0x1E5A PUSH2 0x1E36 JUMP JUMPDEST JUMPDEST DUP3 CALLDATALOAD SWAP1 POP PUSH8 0xFFFFFFFFFFFFFFFF DUP2 GT ISZERO PUSH2 0x1E78 JUMPI PUSH2 0x1E77 PUSH2 0x1E3B JUMP JUMPDEST JUMPDEST PUSH1 0x20 DUP4 ADD SWAP2 POP DUP4 PUSH1 0x1 DUP3 MUL DUP4 ADD GT ISZERO PUSH2 0x1E94 JUMPI PUSH2 0x1E93 PUSH2 0x1E40 JUMP JUMPDEST JUMPDEST SWAP3 POP SWAP3 SWAP1 POP JUMP JUMPDEST PUSH1 0x0 DUP1 PUSH1 0x0 DUP1 PUSH1 0x0 DUP1 PUSH1 0x80 DUP8 DUP10 SUB SLT ISZERO PUSH2 0x1EB8 JUMPI PUSH2 0x1EB7 PUSH2 0x1C6C JUMP JUMPDEST JUMPDEST PUSH1 0x0 DUP8 ADD CALLDATALOAD PUSH8 0xFFFFFFFFFFFFFFFF DUP2 GT ISZERO PUSH2 0x1ED6 JUMPI PUSH2 0x1ED5 PUSH2 0x1C71 JUMP JUMPDEST JUMPDEST PUSH2 0x1EE2 DUP10 DUP3 DUP11 ADD PUSH2 0x1E45 JUMP JUMPDEST SWAP7 POP SWAP7 POP POP PUSH1 0x20 DUP8 ADD CALLDATALOAD PUSH8 0xFFFFFFFFFFFFFFFF DUP2 GT ISZERO PUSH2 0x1F05 JUMPI PUSH2 0x1F04 PUSH2 0x1C71 JUMP JUMPDEST JUMPDEST PUSH2 0x1F11 DUP10 DUP3 DUP11 ADD PUSH2 0x1E45 JUMP JUMPDEST SWAP5 POP SWAP5 POP POP PUSH1 0x40 PUSH2 0x1F24 DUP10 DUP3 DUP11 ADD PUSH2 0x1C97 JUMP JUMPDEST SWAP3 POP POP PUSH1 0x60 PUSH2 0x1F35 DUP10 DUP3 DUP11 ADD PUSH2 0x1C97 JUMP JUMPDEST SWAP2 POP POP SWAP3 SWAP6 POP SWAP3 SWAP6 POP SWAP3 SWAP6 JUMP JUMPDEST PUSH2 0x1F4B DUP2 PUSH2 0x1D08 JUMP JUMPDEST DUP2 EQ PUSH2 0x1F56 JUMPI PUSH1 0x0 DUP1 REVERT JUMPDEST POP JUMP JUMPDEST PUSH1 0x0 DUP2 CALLDATALOAD SWAP1 POP PUSH2 0x1F68 DUP2 PUSH2 0x1F42 JUMP JUMPDEST SWAP3 SWAP2 POP POP JUMP JUMPDEST PUSH1 0x0 PUSH1 0x20 DUP3 DUP5 SUB SLT ISZERO PUSH2 0x1F84 JUMPI PUSH2 0x1F83 PUSH2 0x1C6C JUMP JUMPDEST JUMPDEST PUSH1 0x0 PUSH2 0x1F92 DUP5 DUP3 DUP6 ADD PUSH2 0x1F59 JUMP JUMPDEST SWAP2 POP POP SWAP3 SWAP2 POP POP JUMP JUMPDEST PUSH1 0x0 DUP2 MLOAD SWAP1 POP SWAP2 SWAP1 POP JUMP JUMPDEST PUSH1 0x0 DUP3 DUP3 MSTORE PUSH1 0x20 DUP3 ADD SWAP1 POP SWAP3 SWAP2 POP POP JUMP JUMPDEST PUSH1 0x0 DUP2 SWAP1 POP PUSH1 0x20 DUP3 ADD SWAP1 POP SWAP2 SWAP1 POP JUMP JUMPDEST PUSH2 0x1FD0 DUP2 PUSH2 0x1C76 JUMP JUMPDEST DUP3 MSTORE POP POP JUMP JUMPDEST PUSH2 0x1FDF DUP2 PUSH2 0x1D08 JUMP JUMPDEST DUP3 MSTORE POP POP JUMP JUMPDEST PUSH1 0x80 DUP3 ADD PUSH1 0x0 DUP3 ADD MLOAD PUSH2 0x1FFB PUSH1 0x0 DUP6 ADD DUP3 PUSH2 0x1FC7 JUMP JUMPDEST POP PUSH1 0x20 DUP3 ADD MLOAD PUSH2 0x200E PUSH1 0x20 DUP6 ADD DUP3 PUSH2 0x1FC7 JUMP JUMPDEST POP PUSH1 0x40 DUP3 ADD MLOAD PUSH2 0x2021 PUSH1 0x40 DUP6 ADD DUP3 PUSH2 0x1FD6 JUMP JUMPDEST POP PUSH1 0x60 DUP3 ADD MLOAD PUSH2 0x2034 PUSH1 0x60 DUP6 ADD DUP3 PUSH2 0x1FC7 JUMP JUMPDEST POP POP POP POP JUMP JUMPDEST PUSH1 0x0 PUSH2 0x2046 DUP4 DUP4 PUSH2 0x1FE5 JUMP JUMPDEST PUSH1 0x80 DUP4 ADD SWAP1 POP SWAP3 SWAP2 POP POP JUMP JUMPDEST PUSH1 0x0 PUSH1 0x20 DUP3 ADD SWAP1 POP SWAP2 SWAP1 POP JUMP JUMPDEST PUSH1 0x0 PUSH2 0x206A DUP3 PUSH2 0x1F9B JUMP JUMPDEST PUSH2 0x2074 DUP2 DUP6 PUSH2 0x1FA6 JUMP JUMPDEST SWAP4 POP PUSH2 0x207F DUP4 PUSH2 0x1FB7 JUMP JUMPDEST DUP1 PUSH1 0x0 JUMPDEST DUP4 DUP2 LT ISZERO PUSH2 0x20B0 JUMPI DUP2 MLOAD PUSH2 0x2097 DUP9 DUP3 PUSH2 0x203A JUMP JUMPDEST SWAP8 POP PUSH2 0x20A2 DUP4 PUSH2 0x2052 JUMP JUMPDEST SWAP3 POP POP PUSH1 0x1 DUP2 ADD SWAP1 POP PUSH2 0x2083 JUMP JUMPDEST POP DUP6 SWAP4 POP POP POP POP SWAP3 SWAP2 POP POP JUMP JUMPDEST PUSH1 0x0 PUSH1 0x20 DUP3 ADD SWAP1 POP DUP2 DUP2 SUB PUSH1 0x0 DUP4 ADD MSTORE PUSH2 0x20D7 DUP2 DUP5 PUSH2 0x205F JUMP JUMPDEST SWAP1 POP SWAP3 SWAP2 POP POP JUMP JUMPDEST PUSH1 0x0 PUSH1 0x80 DUP3 ADD SWAP1 POP PUSH2 0x20F4 PUSH1 0x0 DUP4 ADD DUP8 PUSH2 0x1CD9 JUMP JUMPDEST PUSH2 0x2101 PUSH1 0x20 DUP4 ADD DUP7 PUSH2 0x1CD9 JUMP JUMPDEST PUSH2 0x210E PUSH1 0x40 DUP4 ADD DUP6 PUSH2 0x1D1A JUMP JUMPDEST PUSH2 0x211B PUSH1 0x60 DUP4 ADD DUP5 PUSH2 0x1CD9 JUMP JUMPDEST SWAP6 SWAP5 POP POP POP POP POP JUMP JUMPDEST PUSH1 0x0 DUP2 MLOAD SWAP1 POP SWAP2 SWAP1 POP JUMP JUMPDEST PUSH1 0x0 DUP3 DUP3 MSTORE PUSH1 0x20 DUP3 ADD SWAP1 POP SWAP3 SWAP2 POP POP JUMP JUMPDEST PUSH1 0x0 DUP2 SWAP1 POP PUSH1 0x20 DUP3 ADD SWAP1 POP SWAP2 SWAP1 POP JUMP JUMPDEST PUSH1 0x0 DUP3 DUP3 MSTORE PUSH1 0x20 DUP3 ADD SWAP1 POP SWAP3 SWAP2 POP POP JUMP JUMPDEST PUSH1 0x0 PUSH2 0x216C DUP3 PUSH2 0x1D29 JUMP JUMPDEST PUSH2 0x2176 DUP2 DUP6 PUSH2 0x2150 JUMP JUMPDEST SWAP4 POP PUSH2 0x2186 DUP2 DUP6 PUSH1 0x20 DUP7 ADD PUSH2 0x1D45 JUMP JUMPDEST PUSH2 0x218F DUP2 PUSH2 0x1D6F JUMP JUMPDEST DUP5 ADD SWAP2 POP POP SWAP3 SWAP2 POP POP JUMP JUMPDEST PUSH1 0x0 DUP2 MLOAD SWAP1 POP SWAP2 SWAP1 POP JUMP JUMPDEST PUSH1 0x0 DUP3 DUP3 MSTORE PUSH1 0x20 DUP3 ADD SWAP1 POP SWAP3 SWAP2 POP POP JUMP JUMPDEST PUSH1 0x0 DUP2 SWAP1 POP PUSH1 0x20 DUP3 ADD SWAP1 POP SWAP2 SWAP1 POP JUMP JUMPDEST PUSH1 0x0 PUSH2 0x21D2 DUP4 DUP4 PUSH2 0x1FC7 JUMP JUMPDEST PUSH1 0x20 DUP4 ADD SWAP1 POP SWAP3 SWAP2 POP POP JUMP JUMPDEST PUSH1 0x0 PUSH1 0x20 DUP3 ADD SWAP1 POP SWAP2 SWAP1 POP JUMP JUMPDEST PUSH1 0x0 PUSH2 0x21F6 DUP3 PUSH2 0x219A JUMP JUMPDEST PUSH2 0x2200 DUP2 DUP6 PUSH2 0x21A5 JUMP JUMPDEST SWAP4 POP PUSH2 0x220B DUP4 PUSH2 0x21B6 JUMP JUMPDEST DUP1 PUSH1 0x0 JUMPDEST DUP4 DUP2 LT ISZERO PUSH2 0x223C JUMPI DUP2 MLOAD PUSH2 0x2223 DUP9 DUP3 PUSH2 0x21C6 JUMP JUMPDEST SWAP8 POP PUSH2 0x222E DUP4 PUSH2 0x21DE JUMP JUMPDEST SWAP3 POP POP PUSH1 0x1 DUP2 ADD SWAP1 POP PUSH2 0x220F JUMP JUMPDEST POP DUP6 SWAP4 POP POP POP POP SWAP3 SWAP2 POP POP JUMP JUMPDEST PUSH1 0x0 PUSH2 0x100 DUP4 ADD PUSH1 0x0 DUP4 ADD MLOAD PUSH2 0x2262 PUSH1 0x0 DUP7 ADD DUP3 PUSH2 0x1FC7 JUMP JUMPDEST POP PUSH1 0x20 DUP4 ADD MLOAD PUSH2 0x2275 PUSH1 0x20 DUP7 ADD DUP3 PUSH2 0x1FD6 JUMP JUMPDEST POP PUSH1 0x40 DUP4 ADD MLOAD DUP5 DUP3 SUB PUSH1 0x40 DUP7 ADD MSTORE PUSH2 0x228D DUP3 DUP3 PUSH2 0x2161 JUMP JUMPDEST SWAP2 POP POP PUSH1 0x60 DUP4 ADD MLOAD DUP5 DUP3 SUB PUSH1 0x60 DUP7 ADD MSTORE PUSH2 0x22A7 DUP3 DUP3 PUSH2 0x2161 JUMP JUMPDEST SWAP2 POP POP PUSH1 0x80 DUP4 ADD MLOAD PUSH2 0x22BC PUSH1 0x80 DUP7 ADD DUP3 PUSH2 0x1FC7 JUMP JUMPDEST POP PUSH1 0xA0 DUP4 ADD MLOAD PUSH2 0x22CF PUSH1 0xA0 DUP7 ADD DUP3 PUSH2 0x1FC7 JUMP JUMPDEST POP PUSH1 0xC0 DUP4 ADD MLOAD PUSH2 0x22E2 PUSH1 0xC0 DUP7 ADD DUP3 PUSH2 0x1FC7 JUMP JUMPDEST POP PUSH1 0xE0 DUP4 ADD MLOAD DUP5 DUP3 SUB PUSH1 0xE0 DUP7 ADD MSTORE PUSH2 0x22FA DUP3 DUP3 PUSH2 0x21EB JUMP JUMPDEST SWAP2 POP POP DUP1 SWAP2 POP POP SWAP3 SWAP2 POP POP JUMP JUMPDEST PUSH1 0x0 PUSH2 0x2313 DUP4 DUP4 PUSH2 0x2249 JUMP JUMPDEST SWAP1 POP SWAP3 SWAP2 POP POP JUMP JUMPDEST PUSH1 0x0 PUSH1 0x20 DUP3 ADD SWAP1 POP SWAP2 SWAP1 POP JUMP JUMPDEST PUSH1 0x0 PUSH2 0x2333 DUP3 PUSH2 0x2124 JUMP JUMPDEST PUSH2 0x233D DUP2 DUP6 PUSH2 0x212F JUMP JUMPDEST SWAP4 POP DUP4 PUSH1 0x20 DUP3 MUL DUP6 ADD PUSH2 0x234F DUP6 PUSH2 0x2140 JUMP JUMPDEST DUP1 PUSH1 0x0 JUMPDEST DUP6 DUP2 LT ISZERO PUSH2 0x238B JUMPI DUP5 DUP5 SUB DUP10 MSTORE DUP2 MLOAD PUSH2 0x236C DUP6 DUP3 PUSH2 0x2307 JUMP JUMPDEST SWAP5 POP PUSH2 0x2377 DUP4 PUSH2 0x231B JUMP JUMPDEST SWAP3 POP PUSH1 0x20 DUP11 ADD SWAP10 POP POP PUSH1 0x1 DUP2 ADD SWAP1 POP PUSH2 0x2353 JUMP JUMPDEST POP DUP3 SWAP8 POP DUP8 SWAP6 POP POP POP POP POP POP SWAP3 SWAP2 POP POP JUMP JUMPDEST PUSH1 0x0 PUSH1 0x20 DUP3 ADD SWAP1 POP DUP2 DUP2 SUB PUSH1 0x0 DUP4 ADD MSTORE PUSH2 0x23B7 DUP2 DUP5 PUSH2 0x2328 JUMP JUMPDEST SWAP1 POP SWAP3 SWAP2 POP POP JUMP JUMPDEST PUSH32 0x4E487B7100000000000000000000000000000000000000000000000000000000 PUSH1 0x0 MSTORE PUSH1 0x22 PUSH1 0x4 MSTORE PUSH1 0x24 PUSH1 0x0 REVERT JUMPDEST PUSH1 0x0 PUSH1 0x2 DUP3 DIV SWAP1 POP PUSH1 0x1 DUP3 AND DUP1 PUSH2 0x2406 JUMPI PUSH1 0x7F DUP3 AND SWAP2 POP JUMPDEST PUSH1 0x20 DUP3 LT DUP2 SUB PUSH2 0x2419 JUMPI PUSH2 0x2418 PUSH2 0x23BF JUMP JUMPDEST JUMPDEST POP SWAP2 SWAP1 POP JUMP JUMPDEST PUSH32 0x4D696E696D756D206F666665722070726963652073686F756C64206265206772 PUSH1 0x0 DUP3 ADD MSTORE PUSH32 0x6561746572207468616E20300000000000000000000000000000000000000000 PUSH1 0x20 DUP3 ADD MSTORE POP JUMP JUMPDEST PUSH1 0x0 PUSH2 0x247B PUSH1 0x2C DUP4 PUSH2 0x1D34 JUMP JUMPDEST SWAP2 POP PUSH2 0x2486 DUP3 PUSH2 0x241F JUMP JUMPDEST PUSH1 0x40 DUP3 ADD SWAP1 POP SWAP2 SWAP1 POP JUMP JUMPDEST PUSH1 0x0 PUSH1 0x20 DUP3 ADD SWAP1 POP DUP2 DUP2 SUB PUSH1 0x0 DUP4 ADD MSTORE PUSH2 0x24AA DUP2 PUSH2 0x246E JUMP JUMPDEST SWAP1 POP SWAP2 SWAP1 POP JUMP JUMPDEST PUSH32 0x4E487B7100000000000000000000000000000000000000000000000000000000 PUSH1 0x0 MSTORE PUSH1 0x41 PUSH1 0x4 MSTORE PUSH1 0x24 PUSH1 0x0 REVERT JUMPDEST PUSH32 0x4E487B7100000000000000000000000000000000000000000000000000000000 PUSH1 0x0 MSTORE PUSH1 0x11 PUSH1 0x4 MSTORE PUSH1 0x24 PUSH1 0x0 REVERT JUMPDEST PUSH1 0x0 PUSH2 0x251A DUP3 PUSH2 0x1C76 JUMP JUMPDEST SWAP2 POP PUSH2 0x2525 DUP4 PUSH2 0x1C76 JUMP JUMPDEST SWAP3 POP DUP3 DUP3 ADD SWAP1 POP DUP1 DUP3 GT ISZERO PUSH2 0x253D JUMPI PUSH2 0x253C PUSH2 0x24E0 JUMP JUMPDEST JUMPDEST SWAP3 SWAP2 POP POP JUMP JUMPDEST PUSH1 0x0 DUP2 SWAP1 POP DUP2 PUSH1 0x0 MSTORE PUSH1 0x20 PUSH1 0x0 KECCAK256 SWAP1 POP SWAP2 SWAP1 POP JUMP JUMPDEST PUSH1 0x0 PUSH1 0x20 PUSH1 0x1F DUP4 ADD DIV SWAP1 POP SWAP2 SWAP1 POP JUMP JUMPDEST PUSH1 0x0 DUP3 DUP3 SHL SWAP1 POP SWAP3 SWAP2 POP POP JUMP JUMPDEST PUSH1 0x0 PUSH1 0x8 DUP4 MUL PUSH2 0x25A5 PUSH32 0xFFFFFFFFFFFFFFFFFFFFFFFFFFFFFFFFFFFFFFFFFFFFFFFFFFFFFFFFFFFFFFFF DUP3 PUSH2 0x2568 JUMP JUMPDEST PUSH2 0x25AF DUP7 DUP4 PUSH2 0x2568 JUMP JUMPDEST SWAP6 POP DUP1 NOT DUP5 AND SWAP4 POP DUP1 DUP7 AND DUP5 OR SWAP3 POP POP POP SWAP4 SWAP3 POP POP POP JUMP JUMPDEST PUSH1 0x0 DUP2 SWAP1 POP SWAP2 SWAP1 POP JUMP JUMPDEST PUSH1 0x0 PUSH2 0x25EC PUSH2 0x25E7 PUSH2 0x25E2 DUP5 PUSH2 0x1C76 JUMP JUMPDEST PUSH2 0x25C7 JUMP JUMPDEST PUSH2 0x1C76 JUMP JUMPDEST SWAP1 POP SWAP2 SWAP1 POP JUMP JUMPDEST PUSH1 0x0 DUP2 SWAP1 POP SWAP2 SWAP1 POP JUMP JUMPDEST PUSH2 0x2606 DUP4 PUSH2 0x25D1 JUMP JUMPDEST PUSH2 0x261A PUSH2 0x2612 DUP3 PUSH2 0x25F3 JUMP JUMPDEST DUP5 DUP5 SLOAD PUSH2 0x2575 JUMP JUMPDEST DUP3 SSTORE POP POP POP POP JUMP JUMPDEST PUSH1 0x0 SWAP1 JUMP JUMPDEST PUSH2 0x262F PUSH2 0x2622 JUMP JUMPDEST PUSH2 0x263A DUP2 DUP5 DUP5 PUSH2 0x25FD JUMP JUMPDEST POP POP POP JUMP JUMPDEST JUMPDEST DUP2 DUP2 LT ISZERO PUSH2 0x265E JUMPI PUSH2 0x2653 PUSH1 0x0 DUP3 PUSH2 0x2627 JUMP JUMPDEST PUSH1 0x1 DUP2 ADD SWAP1 POP PUSH2 0x2640 JUMP JUMPDEST POP POP JUMP JUMPDEST PUSH1 0x1F DUP3 GT ISZERO PUSH2 0x26A3 JUMPI PUSH2 0x2674 DUP2 PUSH2 0x2543 JUMP JUMPDEST PUSH2 0x267D DUP5 PUSH2 0x2558 JUMP JUMPDEST DUP2 ADD PUSH1 0x20 DUP6 LT ISZERO PUSH2 0x268C JUMPI DUP2 SWAP1 POP JUMPDEST PUSH2 0x26A0 PUSH2 0x2698 DUP6 PUSH2 0x2558 JUMP JUMPDEST DUP4 ADD DUP3 PUSH2 0x263F JUMP JUMPDEST POP POP JUMPDEST POP POP POP JUMP JUMPDEST PUSH1 0x0 DUP3 DUP3 SHR SWAP1 POP SWAP3 SWAP2 POP POP JUMP JUMPDEST PUSH1 0x0 PUSH2 0x26C6 PUSH1 0x0 NOT DUP5 PUSH1 0x8 MUL PUSH2 0x26A8 JUMP JUMPDEST NOT DUP1 DUP4 AND SWAP2 POP POP SWAP3 SWAP2 POP POP JUMP JUMPDEST PUSH1 0x0 PUSH2 0x26DF DUP4 DUP4 PUSH2 0x26B5 JUMP JUMPDEST SWAP2 POP DUP3 PUSH1 0x2 MUL DUP3 OR SWAP1 POP SWAP3 SWAP2 POP POP JUMP JUMPDEST PUSH2 0x26F8 DUP3 PUSH2 0x1D29 JUMP JUMPDEST PUSH8 0xFFFFFFFFFFFFFFFF DUP2 GT ISZERO PUSH2 0x2711 JUMPI PUSH2 0x2710 PUSH2 0x24B1 JUMP JUMPDEST JUMPDEST PUSH2 0x271B DUP3 SLOAD PUSH2 0x23EE JUMP JUMPDEST PUSH2 0x2726 DUP3 DUP3 DUP6 PUSH2 0x2662 JUMP JUMPDEST PUSH1 0x0 PUSH1 0x20 SWAP1 POP PUSH1 0x1F DUP4 GT PUSH1 0x1 DUP2 EQ PUSH2 0x2759 JUMPI PUSH1 0x0 DUP5 ISZERO PUSH2 0x2747 JUMPI DUP3 DUP8 ADD MLOAD SWAP1 POP JUMPDEST PUSH2 0x2751 DUP6 DUP3 PUSH2 0x26D3 JUMP JUMPDEST DUP7 SSTORE POP PUSH2 0x27B9 JUMP JUMPDEST PUSH1 0x1F NOT DUP5 AND PUSH2 0x2767 DUP7 PUSH2 0x2543 JUMP JUMPDEST PUSH1 0x0 JUMPDEST DUP3 DUP2 LT ISZERO PUSH2 0x278F JUMPI DUP5 DUP10 ADD MLOAD DUP3 SSTORE PUSH1 0x1 DUP3 ADD SWAP2 POP PUSH1 0x20 DUP6 ADD SWAP5 POP PUSH1 0x20 DUP2 ADD SWAP1 POP PUSH2 0x276A JUMP JUMPDEST DUP7 DUP4 LT ISZERO PUSH2 0x27AC JUMPI DUP5 DUP10 ADD MLOAD PUSH2 0x27A8 PUSH1 0x1F DUP10 AND DUP3 PUSH2 0x26B5 JUMP JUMPDEST DUP4 SSTORE POP JUMPDEST PUSH1 0x1 PUSH1 0x2 DUP9 MUL ADD DUP9 SSTORE POP POP POP JUMPDEST POP POP POP POP POP POP JUMP JUMPDEST PUSH1 0x0 PUSH2 0x27CC DUP3 PUSH2 0x1C76 JUMP JUMPDEST SWAP2 POP PUSH32 0xFFFFFFFFFFFFFFFFFFFFFFFFFFFFFFFFFFFFFFFFFFFFFFFFFFFFFFFFFFFFFFFF DUP3 SUB PUSH2 0x27FE JUMPI PUSH2 0x27FD PUSH2 0x24E0 JUMP JUMPDEST JUMPDEST PUSH1 0x1 DUP3 ADD SWAP1 POP SWAP2 SWAP1 POP JUMP JUMPDEST PUSH32 0x4E487B7100000000000000000000000000000000000000000000000000000000 PUSH1 0x0 MSTORE PUSH1 0x32 PUSH1 0x4 MSTORE PUSH1 0x24 PUSH1 0x0 REVERT JUMPDEST PUSH32 0x41756374696F6E20646F6573206E6F7420657869737400000000000000000000 PUSH1 0x0 DUP3 ADD MSTORE POP JUMP JUMPDEST PUSH1 0x0 PUSH2 0x286E PUSH1 0x16 DUP4 PUSH2 0x1D34 JUMP JUMPDEST SWAP2 POP PUSH2 0x2879 DUP3 PUSH2 0x2838 JUMP JUMPDEST PUSH1 0x20 DUP3 ADD SWAP1 POP SWAP2 SWAP1 POP JUMP JUMPDEST PUSH1 0x0 PUSH1 0x20 DUP3 ADD SWAP1 POP DUP2 DUP2 SUB PUSH1 0x0 DUP4 ADD MSTORE PUSH2 0x289D DUP2 PUSH2 0x2861 JUMP JUMPDEST SWAP1 POP SWAP2 SWAP1 POP JUMP JUMPDEST PUSH32 0x41756374696F6E20657870697265640000000000000000000000000000000000 PUSH1 0x0 DUP3 ADD MSTORE POP JUMP JUMPDEST PUSH1 0x0 PUSH2 0x28DA PUSH1 0xF DUP4 PUSH2 0x1D34 JUMP JUMPDEST SWAP2 POP PUSH2 0x28E5 DUP3 PUSH2 0x28A4 JUMP JUMPDEST PUSH1 0x20 DUP3 ADD SWAP1 POP SWAP2 SWAP1 POP JUMP JUMPDEST PUSH1 0x0 PUSH1 0x20 DUP3 ADD SWAP1 POP DUP2 DUP2 SUB PUSH1 0x0 DUP4 ADD MSTORE PUSH2 0x2909 DUP2 PUSH2 0x28CD JUMP JUMPDEST SWAP1 POP SWAP2 SWAP1 POP JUMP JUMPDEST PUSH32 0x50726963652073686F756C642062652067726561746572207468616E206D696E PUSH1 0x0 DUP3 ADD MSTORE PUSH32 0x696D756D206F6666657220707269636520616E64207468652062657374206F66 PUSH1 0x20 DUP3 ADD MSTORE PUSH32 0x6665720000000000000000000000000000000000000000000000000000000000 PUSH1 0x40 DUP3 ADD MSTORE POP JUMP JUMPDEST PUSH1 0x0 PUSH2 0x2992 PUSH1 0x43 DUP4 PUSH2 0x1D34 JUMP JUMPDEST SWAP2 POP PUSH2 0x299D DUP3 PUSH2 0x2910 JUMP JUMPDEST PUSH1 0x60 DUP3 ADD SWAP1 POP SWAP2 SWAP1 POP JUMP JUMPDEST PUSH1 0x0 PUSH1 0x20 DUP3 ADD SWAP1 POP DUP2 DUP2 SUB PUSH1 0x0 DUP4 ADD MSTORE PUSH2 0x29C1 DUP2 PUSH2 0x2985 JUMP JUMPDEST SWAP1 POP SWAP2 SWAP1 POP JUMP JUMPDEST PUSH1 0x0 PUSH2 0x29D3 DUP3 PUSH2 0x1C76 JUMP JUMPDEST SWAP2 POP PUSH2 0x29DE DUP4 PUSH2 0x1C76 JUMP JUMPDEST SWAP3 POP DUP3 DUP3 SUB SWAP1 POP DUP2 DUP2 GT ISZERO PUSH2 0x29F6 JUMPI PUSH2 0x29F5 PUSH2 0x24E0 JUMP JUMPDEST JUMPDEST SWAP3 SWAP2 POP POP JUMP JUMPDEST PUSH32 0x41756374696F6E206973207374696C6C20616374697665000000000000000000 PUSH1 0x0 DUP3 ADD MSTORE POP JUMP JUMPDEST PUSH1 0x0 PUSH2 0x2A32 PUSH1 0x17 DUP4 PUSH2 0x1D34 JUMP JUMPDEST SWAP2 POP PUSH2 0x2A3D DUP3 PUSH2 0x29FC JUMP JUMPDEST PUSH1 0x20 DUP3 ADD SWAP1 POP SWAP2 SWAP1 POP JUMP JUMPDEST PUSH1 0x0 PUSH1 0x20 DUP3 ADD SWAP1 POP DUP2 DUP2 SUB PUSH1 0x0 DUP4 ADD MSTORE PUSH2 0x2A61 DUP2 PUSH2 0x2A25 JUMP JUMPDEST SWAP1 POP SWAP2 SWAP1 POP JUMP INVALID LOG2 PUSH5 0x6970667358 0x22 SLT KECCAK256 0xB6 0x2C CALLER GAS 0xC9 SWAP3 0xCB 0xAD 0x27 0xEE 0xE1 ADDMOD DUP9 0x2E ISZERO 0xE8 NOT 0xD9 0xD2 0xC ORIGIN SIGNEXTEND 0x1F AND PUSH4 0xE9F75476 STOP 0xCA DUP3 PUSH5 0x736F6C6343 STOP ADDMOD LT STOP CALLER "
				},
				"gasEstimates": {
					"creation": {
						"codeDepositCost": "2182000",
						"executionCost": "46536",
						"totalCost": "2228536"
					},
					"external": {
						"auctions(uint256)": "infinite",
						"cancelAuction(uint256)": "infinite",
						"createAuction(string,string,uint256,uint256)": "infinite",
						"createOffer(uint256)": "infinite",
						"getAuctionOffers(uint256)": "infinite",
						"getAuctions()": "infinite",
						"getUserAuctions(address)": "infinite",
						"getUserOffers(address)": "infinite",
						"offers(uint256)": "infinite",
						"trade(uint256)": "infinite"
					}
				},
				"methodIdentifiers": {
					"auctions(uint256)": "571a26a0",
					"cancelAuction(uint256)": "96b5a755",
					"createAuction(string,string,uint256,uint256)": "61e2db55",
					"createOffer(uint256)": "a269993d",
					"getAuctionOffers(uint256)": "c43ede15",
					"getAuctions()": "d7c06919",
					"getUserAuctions(address)": "ff3ad0b4",
					"getUserOffers(address)": "661d2c2c",
					"offers(uint256)": "8a72ea6a",
					"trade(uint256)": "df1dd826"
				}
			},
			"storageLayout": {
				"storage": [
					{
						"astId": 26,
						"contract": "contracts/Ebay.sol:Barbers",
						"label": "auctions",
						"offset": 0,
						"slot": "0",
						"type": "t_mapping(t_uint256,t_struct(Auction)20_storage)"
					},
					{
						"astId": 30,
						"contract": "contracts/Ebay.sol:Barbers",
						"label": "nextAuctionId",
						"offset": 0,
						"slot": "1",
						"type": "t_uint256"
					},
					{
						"astId": 45,
						"contract": "contracts/Ebay.sol:Barbers",
						"label": "offers",
						"offset": 0,
						"slot": "2",
						"type": "t_mapping(t_uint256,t_struct(Offer)39_storage)"
					},
					{
						"astId": 49,
						"contract": "contracts/Ebay.sol:Barbers",
						"label": "nextOfferId",
						"offset": 0,
						"slot": "3",
						"type": "t_uint256"
					},
					{
						"astId": 55,
						"contract": "contracts/Ebay.sol:Barbers",
						"label": "userAuctions",
						"offset": 0,
						"slot": "4",
						"type": "t_mapping(t_address,t_array(t_uint256)dyn_storage)"
					},
					{
						"astId": 61,
						"contract": "contracts/Ebay.sol:Barbers",
						"label": "userOffers",
						"offset": 0,
						"slot": "5",
						"type": "t_mapping(t_address,t_array(t_uint256)dyn_storage)"
					}
				],
				"types": {
					"t_address": {
						"encoding": "inplace",
						"label": "address",
						"numberOfBytes": "20"
					},
					"t_array(t_uint256)dyn_storage": {
						"base": "t_uint256",
						"encoding": "dynamic_array",
						"label": "uint256[]",
						"numberOfBytes": "32"
					},
					"t_mapping(t_address,t_array(t_uint256)dyn_storage)": {
						"encoding": "mapping",
						"key": "t_address",
						"label": "mapping(address => uint256[])",
						"numberOfBytes": "32",
						"value": "t_array(t_uint256)dyn_storage"
					},
					"t_mapping(t_uint256,t_struct(Auction)20_storage)": {
						"encoding": "mapping",
						"key": "t_uint256",
						"label": "mapping(uint256 => struct Barbers.Auction)",
						"numberOfBytes": "32",
						"value": "t_struct(Auction)20_storage"
					},
					"t_mapping(t_uint256,t_struct(Offer)39_storage)": {
						"encoding": "mapping",
						"key": "t_uint256",
						"label": "mapping(uint256 => struct Barbers.Offer)",
						"numberOfBytes": "32",
						"value": "t_struct(Offer)39_storage"
					},
					"t_string_storage": {
						"encoding": "bytes",
						"label": "string",
						"numberOfBytes": "32"
					},
					"t_struct(Auction)20_storage": {
						"encoding": "inplace",
						"label": "struct Barbers.Auction",
						"members": [
							{
								"astId": 4,
								"contract": "contracts/Ebay.sol:Barbers",
								"label": "id",
								"offset": 0,
								"slot": "0",
								"type": "t_uint256"
							},
							{
								"astId": 6,
								"contract": "contracts/Ebay.sol:Barbers",
								"label": "seller",
								"offset": 0,
								"slot": "1",
								"type": "t_address"
							},
							{
								"astId": 8,
								"contract": "contracts/Ebay.sol:Barbers",
								"label": "name",
								"offset": 0,
								"slot": "2",
								"type": "t_string_storage"
							},
							{
								"astId": 10,
								"contract": "contracts/Ebay.sol:Barbers",
								"label": "description",
								"offset": 0,
								"slot": "3",
								"type": "t_string_storage"
							},
							{
								"astId": 12,
								"contract": "contracts/Ebay.sol:Barbers",
								"label": "minimumOfferPrice",
								"offset": 0,
								"slot": "4",
								"type": "t_uint256"
							},
							{
								"astId": 14,
								"contract": "contracts/Ebay.sol:Barbers",
								"label": "auctionEnd",
								"offset": 0,
								"slot": "5",
								"type": "t_uint256"
							},
							{
								"astId": 16,
								"contract": "contracts/Ebay.sol:Barbers",
								"label": "bestOfferId",
								"offset": 0,
								"slot": "6",
								"type": "t_uint256"
							},
							{
								"astId": 19,
								"contract": "contracts/Ebay.sol:Barbers",
								"label": "offerIds",
								"offset": 0,
								"slot": "7",
								"type": "t_array(t_uint256)dyn_storage"
							}
						],
						"numberOfBytes": "256"
					},
					"t_struct(Offer)39_storage": {
						"encoding": "inplace",
						"label": "struct Barbers.Offer",
						"members": [
							{
								"astId": 32,
								"contract": "contracts/Ebay.sol:Barbers",
								"label": "id",
								"offset": 0,
								"slot": "0",
								"type": "t_uint256"
							},
							{
								"astId": 34,
								"contract": "contracts/Ebay.sol:Barbers",
								"label": "auctionId",
								"offset": 0,
								"slot": "1",
								"type": "t_uint256"
							},
							{
								"astId": 36,
								"contract": "contracts/Ebay.sol:Barbers",
								"label": "buyer",
								"offset": 0,
								"slot": "2",
								"type": "t_address"
							},
							{
								"astId": 38,
								"contract": "contracts/Ebay.sol:Barbers",
								"label": "offerPrice",
								"offset": 0,
								"slot": "3",
								"type": "t_uint256"
							}
						],
						"numberOfBytes": "128"
					},
					"t_uint256": {
						"encoding": "inplace",
						"label": "uint256",
						"numberOfBytes": "32"
					}
				}
			},
			"userdoc": {
				"kind": "user",
				"methods": {
					"auctions(uint256)": {
						"notice": "List of all auctions"
					},
					"cancelAuction(uint256)": {
						"notice": "PUI: Cancels an auction."
					},
					"createAuction(string,string,uint256,uint256)": {
						"notice": "Creates a new auction."
					},
					"createOffer(uint256)": {
						"notice": "Creates a new offer for an auction."
					},
					"getAuctionOffers(uint256)": {
						"notice": "- List of offers for an auction"
					},
					"getAuctions()": {
						"notice": "- List of all the auctions"
					},
					"getUserAuctions(address)": {
						"notice": "- List of auctions for a seller"
					},
					"getUserOffers(address)": {
						"notice": "- List of offers from a buyer"
					},
					"offers(uint256)": {
						"notice": "List of all Offer"
					},
					"trade(uint256)": {
						"notice": "Executes the auction trade."
					}
				},
				"notice": "Smart contract for auction based market place.",
				"version": 1
			}
		}
	}
}