{
	"contracts/Ebay.sol": {
		"Barber": {
			"abi": [
				{
					"inputs": [
						{
							"internalType": "uint256",
							"name": "",
							"type": "uint256"
						}
					],
					"name": "auctions",
					"outputs": [
						{
							"internalType": "uint256",
							"name": "id",
							"type": "uint256"
						},
						{
							"internalType": "address",
							"name": "seller",
							"type": "address"
						},
						{
							"internalType": "string",
							"name": "name",
							"type": "string"
						},
						{
							"internalType": "string",
							"name": "description",
							"type": "string"
						},
						{
							"internalType": "uint256",
							"name": "minimumOfferPrice",
							"type": "uint256"
						},
						{
							"internalType": "uint256",
							"name": "auctionEnd",
							"type": "uint256"
						},
						{
							"internalType": "uint256",
							"name": "bestOfferId",
							"type": "uint256"
						}
					],
					"stateMutability": "view",
					"type": "function"
				},
				{
					"inputs": [
						{
							"internalType": "uint256",
							"name": "_auctionId",
							"type": "uint256"
						}
					],
					"name": "cancelAuction",
					"outputs": [],
					"stateMutability": "nonpayable",
					"type": "function"
				},
				{
					"inputs": [
						{
							"internalType": "string",
							"name": "_name",
							"type": "string"
						},
						{
							"internalType": "string",
							"name": "_description",
							"type": "string"
						},
						{
							"internalType": "uint256",
							"name": "_minimumOfferPrice",
							"type": "uint256"
						},
						{
							"internalType": "uint256",
							"name": "_duration",
							"type": "uint256"
						}
					],
					"name": "createAuction",
					"outputs": [],
					"stateMutability": "nonpayable",
					"type": "function"
				},
				{
					"inputs": [
						{
							"internalType": "uint256",
							"name": "_auctionId",
							"type": "uint256"
						}
					],
					"name": "createOffer",
					"outputs": [],
					"stateMutability": "payable",
					"type": "function"
				},
				{
					"inputs": [
						{
							"internalType": "uint256",
							"name": "_auctionId",
							"type": "uint256"
						}
					],
					"name": "getAuctionOffers",
					"outputs": [
						{
							"components": [
								{
									"internalType": "uint256",
									"name": "id",
									"type": "uint256"
								},
								{
									"internalType": "uint256",
									"name": "auctionId",
									"type": "uint256"
								},
								{
									"internalType": "address",
									"name": "buyer",
									"type": "address"
								},
								{
									"internalType": "uint256",
									"name": "offerPrice",
									"type": "uint256"
								}
							],
							"internalType": "struct Barber.Offer[]",
							"name": "",
							"type": "tuple[]"
						}
					],
					"stateMutability": "view",
					"type": "function"
				},
				{
					"inputs": [],
					"name": "getAuctions",
					"outputs": [
						{
							"components": [
								{
									"internalType": "uint256",
									"name": "id",
									"type": "uint256"
								},
								{
									"internalType": "address",
									"name": "seller",
									"type": "address"
								},
								{
									"internalType": "string",
									"name": "name",
									"type": "string"
								},
								{
									"internalType": "string",
									"name": "description",
									"type": "string"
								},
								{
									"internalType": "uint256",
									"name": "minimumOfferPrice",
									"type": "uint256"
								},
								{
									"internalType": "uint256",
									"name": "auctionEnd",
									"type": "uint256"
								},
								{
									"internalType": "uint256",
									"name": "bestOfferId",
									"type": "uint256"
								},
								{
									"internalType": "uint256[]",
									"name": "offerIds",
									"type": "uint256[]"
								}
							],
							"internalType": "struct Barber.Auction[]",
							"name": "",
							"type": "tuple[]"
						}
					],
					"stateMutability": "view",
					"type": "function"
				},
				{
					"inputs": [
						{
							"internalType": "address",
							"name": "_user",
							"type": "address"
						}
					],
					"name": "getUserAuctions",
					"outputs": [
						{
							"components": [
								{
									"internalType": "uint256",
									"name": "id",
									"type": "uint256"
								},
								{
									"internalType": "address",
									"name": "seller",
									"type": "address"
								},
								{
									"internalType": "string",
									"name": "name",
									"type": "string"
								},
								{
									"internalType": "string",
									"name": "description",
									"type": "string"
								},
								{
									"internalType": "uint256",
									"name": "minimumOfferPrice",
									"type": "uint256"
								},
								{
									"internalType": "uint256",
									"name": "auctionEnd",
									"type": "uint256"
								},
								{
									"internalType": "uint256",
									"name": "bestOfferId",
									"type": "uint256"
								},
								{
									"internalType": "uint256[]",
									"name": "offerIds",
									"type": "uint256[]"
								}
							],
							"internalType": "struct Barber.Auction[]",
							"name": "",
							"type": "tuple[]"
						}
					],
					"stateMutability": "view",
					"type": "function"
				},
				{
					"inputs": [
						{
							"internalType": "address",
							"name": "_user",
							"type": "address"
						}
					],
					"name": "getUserOffers",
					"outputs": [
						{
							"components": [
								{
									"internalType": "uint256",
									"name": "id",
									"type": "uint256"
								},
								{
									"internalType": "uint256",
									"name": "auctionId",
									"type": "uint256"
								},
								{
									"internalType": "address",
									"name": "buyer",
									"type": "address"
								},
								{
									"internalType": "uint256",
									"name": "offerPrice",
									"type": "uint256"
								}
							],
							"internalType": "struct Barber.Offer[]",
							"name": "",
							"type": "tuple[]"
						}
					],
					"stateMutability": "view",
					"type": "function"
				},
				{
					"inputs": [
						{
							"internalType": "uint256",
							"name": "",
							"type": "uint256"
						}
					],
					"name": "offers",
					"outputs": [
						{
							"internalType": "uint256",
							"name": "id",
							"type": "uint256"
						},
						{
							"internalType": "uint256",
							"name": "auctionId",
							"type": "uint256"
						},
						{
							"internalType": "address",
							"name": "buyer",
							"type": "address"
						},
						{
							"internalType": "uint256",
							"name": "offerPrice",
							"type": "uint256"
						}
					],
					"stateMutability": "view",
					"type": "function"
				},
				{
					"inputs": [
						{
							"internalType": "uint256",
							"name": "_auctionId",
							"type": "uint256"
						}
					],
					"name": "trade",
					"outputs": [],
					"stateMutability": "nonpayable",
					"type": "function"
				}
			],
			"devdoc": {
				"kind": "dev",
				"methods": {
					"cancelAuction(uint256)": {
						"params": {
							"_auctionId": "- id of the auction"
						}
					},
					"createAuction(string,string,uint256,uint256)": {
						"params": {
							"_description": "— auction description.",
							"_duration": "— the duration, in seconds, for which the auction will accept offers.",
							"_minimumOfferPrice": "— the minimum offer price this auction will accept.",
							"_name": "— name of the auction."
						}
					},
					"createOffer(uint256)": {
						"params": {
							"_auctionId": "- id of the auction"
						}
					},
					"getAuctionOffers(uint256)": {
						"params": {
							"_auctionId": "- Auction Id"
						}
					},
					"getUserAuctions(address)": {
						"params": {
							"_user": "- Seller address"
						}
					},
					"getUserOffers(address)": {
						"params": {
							"_user": "- Buyer address"
						}
					},
					"trade(uint256)": {
						"params": {
							"_auctionId": "- id of the auction."
						}
					}
				},
				"title": "Barbers",
				"version": 1
			},
			"evm": {
				"assembly": "    /* \"contracts/Ebay.sol\":135:9393  contract Barber {... */\n  mstore(0x40, 0x80)\n    /* \"contracts/Ebay.sol\":835:836  1 */\n  0x01\n    /* \"contracts/Ebay.sol\":806:836  uint private nextAuctionId = 1 */\n  dup1\n  sstore\n    /* \"contracts/Ebay.sol\":1128:1129  1 */\n  0x01\n    /* \"contracts/Ebay.sol\":1101:1129  uint private nextOfferId = 1 */\n  0x03\n  sstore\n    /* \"contracts/Ebay.sol\":135:9393  contract Barber {... */\n  callvalue\n  dup1\n  iszero\n  tag_1\n  jumpi\n  0x00\n  dup1\n  revert\ntag_1:\n  pop\n  dataSize(sub_0)\n  dup1\n  dataOffset(sub_0)\n  0x00\n  codecopy\n  0x00\n  return\nstop\n\nsub_0: assembly {\n        /* \"contracts/Ebay.sol\":135:9393  contract Barber {... */\n      mstore(0x40, 0x80)\n      jumpi(tag_1, lt(calldatasize, 0x04))\n      shr(0xe0, calldataload(0x00))\n      dup1\n      0xa269993d\n      gt\n      tag_12\n      jumpi\n      dup1\n      0xa269993d\n      eq\n      tag_7\n      jumpi\n      dup1\n      0xc43ede15\n      eq\n      tag_8\n      jumpi\n      dup1\n      0xd7c06919\n      eq\n      tag_9\n      jumpi\n      dup1\n      0xdf1dd826\n      eq\n      tag_10\n      jumpi\n      dup1\n      0xff3ad0b4\n      eq\n      tag_11\n      jumpi\n      jump(tag_1)\n    tag_12:\n      dup1\n      0x571a26a0\n      eq\n      tag_2\n      jumpi\n      dup1\n      0x61e2db55\n      eq\n      tag_3\n      jumpi\n      dup1\n      0x661d2c2c\n      eq\n      tag_4\n      jumpi\n      dup1\n      0x8a72ea6a\n      eq\n      tag_5\n      jumpi\n      dup1\n      0x96b5a755\n      eq\n      tag_6\n      jumpi\n    tag_1:\n      0x00\n      dup1\n      revert\n        /* \"contracts/Ebay.sol\":720:760  mapping(uint => Auction) public auctions */\n    tag_2:\n      callvalue\n      dup1\n      iszero\n      tag_13\n      jumpi\n      0x00\n      dup1\n      revert\n    tag_13:\n      pop\n      tag_14\n      0x04\n      dup1\n      calldatasize\n      sub\n      dup2\n      add\n      swap1\n      tag_15\n      swap2\n      swap1\n      tag_16\n      jump\t// in\n    tag_15:\n      tag_17\n      jump\t// in\n    tag_14:\n      mload(0x40)\n      tag_18\n      swap8\n      swap7\n      swap6\n      swap5\n      swap4\n      swap3\n      swap2\n      swap1\n      tag_19\n      jump\t// in\n    tag_18:\n      mload(0x40)\n      dup1\n      swap2\n      sub\n      swap1\n      return\n        /* \"contracts/Ebay.sol\":2024:3099  function createAuction(... */\n    tag_3:\n      callvalue\n      dup1\n      iszero\n      tag_20\n      jumpi\n      0x00\n      dup1\n      revert\n    tag_20:\n      pop\n      tag_21\n      0x04\n      dup1\n      calldatasize\n      sub\n      dup2\n      add\n      swap1\n      tag_22\n      swap2\n      swap1\n      tag_23\n      jump\t// in\n    tag_22:\n      tag_24\n      jump\t// in\n    tag_21:\n      stop\n        /* \"contracts/Ebay.sol\":8333:8746  function getUserOffers(address _user)... */\n    tag_4:\n      callvalue\n      dup1\n      iszero\n      tag_25\n      jumpi\n      0x00\n      dup1\n      revert\n    tag_25:\n      pop\n      tag_26\n      0x04\n      dup1\n      calldatasize\n      sub\n      dup2\n      add\n      swap1\n      tag_27\n      swap2\n      swap1\n      tag_28\n      jump\t// in\n    tag_27:\n      tag_29\n      jump\t// in\n    tag_26:\n      mload(0x40)\n      tag_30\n      swap2\n      swap1\n      tag_31\n      jump\t// in\n    tag_30:\n      mload(0x40)\n      dup1\n      swap2\n      sub\n      swap1\n      return\n        /* \"contracts/Ebay.sol\":1021:1057  mapping(uint => Offer) public offers */\n    tag_5:\n      callvalue\n      dup1\n      iszero\n      tag_32\n      jumpi\n      0x00\n      dup1\n      revert\n    tag_32:\n      pop\n      tag_33\n      0x04\n      dup1\n      calldatasize\n      sub\n      dup2\n      add\n      swap1\n      tag_34\n      swap2\n      swap1\n      tag_16\n      jump\t// in\n    tag_34:\n      tag_35\n      jump\t// in\n    tag_33:\n      mload(0x40)\n      tag_36\n      swap5\n      swap4\n      swap3\n      swap2\n      swap1\n      tag_37\n      jump\t// in\n    tag_36:\n      mload(0x40)\n      dup1\n      swap2\n      sub\n      swap1\n      return\n        /* \"contracts/Ebay.sol\":3192:4399  function cancelAuction(uint _auctionId) external auctionExists(_auctionId) {... */\n    tag_6:\n      callvalue\n      dup1\n      iszero\n      tag_38\n      jumpi\n      0x00\n      dup1\n      revert\n    tag_38:\n      pop\n      tag_39\n      0x04\n      dup1\n      calldatasize\n      sub\n      dup2\n      add\n      swap1\n      tag_40\n      swap2\n      swap1\n      tag_16\n      jump\t// in\n    tag_40:\n      tag_41\n      jump\t// in\n    tag_39:\n      stop\n        /* \"contracts/Ebay.sol\":4503:6281  function createOffer(uint _auctionId)... */\n    tag_7:\n      tag_42\n      0x04\n      dup1\n      calldatasize\n      sub\n      dup2\n      add\n      swap1\n      tag_43\n      swap2\n      swap1\n      tag_16\n      jump\t// in\n    tag_43:\n      tag_44\n      jump\t// in\n    tag_42:\n      stop\n        /* \"contracts/Ebay.sol\":8839:9391  function getAuctionOffers(uint _auctionId)... */\n    tag_8:\n      callvalue\n      dup1\n      iszero\n      tag_45\n      jumpi\n      0x00\n      dup1\n      revert\n    tag_45:\n      pop\n      tag_46\n      0x04\n      dup1\n      calldatasize\n      sub\n      dup2\n      add\n      swap1\n      tag_47\n      swap2\n      swap1\n      tag_16\n      jump\t// in\n    tag_47:\n      tag_48\n      jump\t// in\n    tag_46:\n      mload(0x40)\n      tag_49\n      swap2\n      swap1\n      tag_31\n      jump\t// in\n    tag_49:\n      mload(0x40)\n      dup1\n      swap2\n      sub\n      swap1\n      return\n        /* \"contracts/Ebay.sol\":7436:7709  function getAuctions() external view returns (Auction[] memory) {... */\n    tag_9:\n      callvalue\n      dup1\n      iszero\n      tag_50\n      jumpi\n      0x00\n      dup1\n      revert\n    tag_50:\n      pop\n      tag_51\n      tag_52\n      jump\t// in\n    tag_51:\n      mload(0x40)\n      tag_53\n      swap2\n      swap1\n      tag_54\n      jump\t// in\n    tag_53:\n      mload(0x40)\n      dup1\n      swap2\n      sub\n      swap1\n      return\n        /* \"contracts/Ebay.sol\":6378:7335  function trade(uint _auctionId) external auctionExists(_auctionId) {... */\n    tag_10:\n      callvalue\n      dup1\n      iszero\n      tag_55\n      jumpi\n      0x00\n      dup1\n      revert\n    tag_55:\n      pop\n      tag_56\n      0x04\n      dup1\n      calldatasize\n      sub\n      dup2\n      add\n      swap1\n      tag_57\n      swap2\n      swap1\n      tag_16\n      jump\t// in\n    tag_57:\n      tag_58\n      jump\t// in\n    tag_56:\n      stop\n        /* \"contracts/Ebay.sol\":7801:8244  function getUserAuctions(address _user)... */\n    tag_11:\n      callvalue\n      dup1\n      iszero\n      tag_59\n      jumpi\n      0x00\n      dup1\n      revert\n    tag_59:\n      pop\n      tag_60\n      0x04\n      dup1\n      calldatasize\n      sub\n      dup2\n      add\n      swap1\n      tag_61\n      swap2\n      swap1\n      tag_28\n      jump\t// in\n    tag_61:\n      tag_62\n      jump\t// in\n    tag_60:\n      mload(0x40)\n      tag_63\n      swap2\n      swap1\n      tag_54\n      jump\t// in\n    tag_63:\n      mload(0x40)\n      dup1\n      swap2\n      sub\n      swap1\n      return\n        /* \"contracts/Ebay.sol\":720:760  mapping(uint => Auction) public auctions */\n    tag_17:\n      mstore(0x20, 0x00)\n      dup1\n      0x00\n      mstore\n      keccak256(0x00, 0x40)\n      0x00\n      swap2\n      pop\n      swap1\n      pop\n      dup1\n      0x00\n      add\n      sload\n      swap1\n      dup1\n      0x01\n      add\n      0x00\n      swap1\n      sload\n      swap1\n      0x0100\n      exp\n      swap1\n      div\n      0xffffffffffffffffffffffffffffffffffffffff\n      and\n      swap1\n      dup1\n      0x02\n      add\n      dup1\n      sload\n      tag_64\n      swap1\n      tag_65\n      jump\t// in\n    tag_64:\n      dup1\n      0x1f\n      add\n      0x20\n      dup1\n      swap2\n      div\n      mul\n      0x20\n      add\n      mload(0x40)\n      swap1\n      dup2\n      add\n      0x40\n      mstore\n      dup1\n      swap3\n      swap2\n      swap1\n      dup2\n      dup2\n      mstore\n      0x20\n      add\n      dup3\n      dup1\n      sload\n      tag_66\n      swap1\n      tag_65\n      jump\t// in\n    tag_66:\n      dup1\n      iszero\n      tag_67\n      jumpi\n      dup1\n      0x1f\n      lt\n      tag_68\n      jumpi\n      0x0100\n      dup1\n      dup4\n      sload\n      div\n      mul\n      dup4\n      mstore\n      swap2\n      0x20\n      add\n      swap2\n      jump(tag_67)\n    tag_68:\n      dup3\n      add\n      swap2\n      swap1\n      0x00\n      mstore\n      keccak256(0x00, 0x20)\n      swap1\n    tag_69:\n      dup2\n      sload\n      dup2\n      mstore\n      swap1\n      0x01\n      add\n      swap1\n      0x20\n      add\n      dup1\n      dup4\n      gt\n      tag_69\n      jumpi\n      dup3\n      swap1\n      sub\n      0x1f\n      and\n      dup3\n      add\n      swap2\n    tag_67:\n      pop\n      pop\n      pop\n      pop\n      pop\n      swap1\n      dup1\n      0x03\n      add\n      dup1\n      sload\n      tag_70\n      swap1\n      tag_65\n      jump\t// in\n    tag_70:\n      dup1\n      0x1f\n      add\n      0x20\n      dup1\n      swap2\n      div\n      mul\n      0x20\n      add\n      mload(0x40)\n      swap1\n      dup2\n      add\n      0x40\n      mstore\n      dup1\n      swap3\n      swap2\n      swap1\n      dup2\n      dup2\n      mstore\n      0x20\n      add\n      dup3\n      dup1\n      sload\n      tag_71\n      swap1\n      tag_65\n      jump\t// in\n    tag_71:\n      dup1\n      iszero\n      tag_72\n      jumpi\n      dup1\n      0x1f\n      lt\n      tag_73\n      jumpi\n      0x0100\n      dup1\n      dup4\n      sload\n      div\n      mul\n      dup4\n      mstore\n      swap2\n      0x20\n      add\n      swap2\n      jump(tag_72)\n    tag_73:\n      dup3\n      add\n      swap2\n      swap1\n      0x00\n      mstore\n      keccak256(0x00, 0x20)\n      swap1\n    tag_74:\n      dup2\n      sload\n      dup2\n      mstore\n      swap1\n      0x01\n      add\n      swap1\n      0x20\n      add\n      dup1\n      dup4\n      gt\n      tag_74\n      jumpi\n      dup3\n      swap1\n      sub\n      0x1f\n      and\n      dup3\n      add\n      swap2\n    tag_72:\n      pop\n      pop\n      pop\n      pop\n      pop\n      swap1\n      dup1\n      0x04\n      add\n      sload\n      swap1\n      dup1\n      0x05\n      add\n      sload\n      swap1\n      dup1\n      0x06\n      add\n      sload\n      swap1\n      pop\n      dup8\n      jump\t// out\n        /* \"contracts/Ebay.sol\":2024:3099  function createAuction(... */\n    tag_24:\n        /* \"contracts/Ebay.sol\":2296:2297  0 */\n      0x00\n        /* \"contracts/Ebay.sol\":2275:2293  _minimumOfferPrice */\n      dup3\n        /* \"contracts/Ebay.sol\":2275:2297  _minimumOfferPrice > 0 */\n      gt\n        /* \"contracts/Ebay.sol\":2254:2414  require(... */\n      tag_76\n      jumpi\n      mload(0x40)\n      0x08c379a000000000000000000000000000000000000000000000000000000000\n      dup2\n      mstore\n      0x04\n      add\n      tag_77\n      swap1\n      tag_78\n      jump\t// in\n    tag_77:\n      mload(0x40)\n      dup1\n      swap2\n      sub\n      swap1\n      revert\n    tag_76:\n        /* \"contracts/Ebay.sol\":2620:2642  uint[] memory offerIds */\n      0x00\n        /* \"contracts/Ebay.sol\":2656:2657  0 */\n      dup1\n        /* \"contracts/Ebay.sol\":2645:2658  new uint[](0) */\n      0xffffffffffffffff\n      dup2\n      gt\n      iszero\n      tag_79\n      jumpi\n      tag_80\n      tag_81\n      jump\t// in\n    tag_80:\n    tag_79:\n      mload(0x40)\n      swap1\n      dup1\n      dup3\n      mstore\n      dup1\n      0x20\n      mul\n      0x20\n      add\n      dup3\n      add\n      0x40\n      mstore\n      dup1\n      iszero\n      tag_82\n      jumpi\n      dup2\n      0x20\n      add\n      0x20\n      dup3\n      mul\n      dup1\n      calldatasize\n      dup4\n      calldatacopy\n      dup1\n      dup3\n      add\n      swap2\n      pop\n      pop\n      swap1\n      pop\n    tag_82:\n      pop\n        /* \"contracts/Ebay.sol\":2620:2658  uint[] memory offerIds = new uint[](0) */\n      swap1\n      pop\n        /* \"contracts/Ebay.sol\":2695:2918  Auction(... */\n      mload(0x40)\n      dup1\n      0x0100\n      add\n      0x40\n      mstore\n      dup1\n        /* \"contracts/Ebay.sol\":2716:2729  nextAuctionId */\n      sload(0x01)\n        /* \"contracts/Ebay.sol\":2695:2918  Auction(... */\n      dup2\n      mstore\n      0x20\n      add\n        /* \"contracts/Ebay.sol\":2743:2753  msg.sender */\n      caller\n        /* \"contracts/Ebay.sol\":2695:2918  Auction(... */\n      0xffffffffffffffffffffffffffffffffffffffff\n      and\n      dup2\n      mstore\n      0x20\n      add\n        /* \"contracts/Ebay.sol\":2767:2772  _name */\n      dup9\n      dup9\n        /* \"contracts/Ebay.sol\":2695:2918  Auction(... */\n      dup1\n      dup1\n      0x1f\n      add\n      0x20\n      dup1\n      swap2\n      div\n      mul\n      0x20\n      add\n      mload(0x40)\n      swap1\n      dup2\n      add\n      0x40\n      mstore\n      dup1\n      swap4\n      swap3\n      swap2\n      swap1\n      dup2\n      dup2\n      mstore\n      0x20\n      add\n      dup4\n      dup4\n      dup1\n      dup3\n      dup5\n      calldatacopy\n      0x00\n      dup2\n      dup5\n      add\n      mstore\n      not(0x1f)\n      0x1f\n      dup3\n      add\n      and\n      swap1\n      pop\n      dup1\n      dup4\n      add\n      swap3\n      pop\n      pop\n      pop\n      pop\n      pop\n      pop\n      pop\n      dup2\n      mstore\n      0x20\n      add\n        /* \"contracts/Ebay.sol\":2786:2798  _description */\n      dup7\n      dup7\n        /* \"contracts/Ebay.sol\":2695:2918  Auction(... */\n      dup1\n      dup1\n      0x1f\n      add\n      0x20\n      dup1\n      swap2\n      div\n      mul\n      0x20\n      add\n      mload(0x40)\n      swap1\n      dup2\n      add\n      0x40\n      mstore\n      dup1\n      swap4\n      swap3\n      swap2\n      swap1\n      dup2\n      dup2\n      mstore\n      0x20\n      add\n      dup4\n      dup4\n      dup1\n      dup3\n      dup5\n      calldatacopy\n      0x00\n      dup2\n      dup5\n      add\n      mstore\n      not(0x1f)\n      0x1f\n      dup3\n      add\n      and\n      swap1\n      pop\n      dup1\n      dup4\n      add\n      swap3\n      pop\n      pop\n      pop\n      pop\n      pop\n      pop\n      pop\n      dup2\n      mstore\n      0x20\n      add\n        /* \"contracts/Ebay.sol\":2812:2830  _minimumOfferPrice */\n      dup5\n        /* \"contracts/Ebay.sol\":2695:2918  Auction(... */\n      dup2\n      mstore\n      0x20\n      add\n        /* \"contracts/Ebay.sol\":2862:2871  _duration */\n      dup4\n        /* \"contracts/Ebay.sol\":2844:2859  block.timestamp */\n      timestamp\n        /* \"contracts/Ebay.sol\":2844:2871  block.timestamp + _duration */\n      tag_83\n      swap2\n      swap1\n      tag_84\n      jump\t// in\n    tag_83:\n        /* \"contracts/Ebay.sol\":2695:2918  Auction(... */\n      dup2\n      mstore\n      0x20\n      add\n        /* \"contracts/Ebay.sol\":2885:2886  0 */\n      0x00\n        /* \"contracts/Ebay.sol\":2695:2918  Auction(... */\n      dup2\n      mstore\n      0x20\n      add\n        /* \"contracts/Ebay.sol\":2900:2908  offerIds */\n      dup3\n        /* \"contracts/Ebay.sol\":2695:2918  Auction(... */\n      dup2\n      mstore\n      pop\n        /* \"contracts/Ebay.sol\":2669:2677  auctions */\n      0x00\n        /* \"contracts/Ebay.sol\":2669:2692  auctions[nextAuctionId] */\n      dup1\n        /* \"contracts/Ebay.sol\":2678:2691  nextAuctionId */\n      sload(0x01)\n        /* \"contracts/Ebay.sol\":2669:2692  auctions[nextAuctionId] */\n      dup2\n      mstore\n      0x20\n      add\n      swap1\n      dup2\n      mstore\n      0x20\n      add\n      0x00\n      keccak256\n        /* \"contracts/Ebay.sol\":2669:2918  auctions[nextAuctionId] = Auction(... */\n      0x00\n      dup3\n      add\n      mload\n      dup2\n      0x00\n      add\n      sstore\n      0x20\n      dup3\n      add\n      mload\n      dup2\n      0x01\n      add\n      exp(0x0100, 0x00)\n      dup2\n      sload\n      dup2\n      0xffffffffffffffffffffffffffffffffffffffff\n      mul\n      not\n      and\n      swap1\n      dup4\n      0xffffffffffffffffffffffffffffffffffffffff\n      and\n      mul\n      or\n      swap1\n      sstore\n      pop\n      0x40\n      dup3\n      add\n      mload\n      dup2\n      0x02\n      add\n      swap1\n      dup2\n      tag_85\n      swap2\n      swap1\n      tag_86\n      jump\t// in\n    tag_85:\n      pop\n      0x60\n      dup3\n      add\n      mload\n      dup2\n      0x03\n      add\n      swap1\n      dup2\n      tag_87\n      swap2\n      swap1\n      tag_86\n      jump\t// in\n    tag_87:\n      pop\n      0x80\n      dup3\n      add\n      mload\n      dup2\n      0x04\n      add\n      sstore\n      0xa0\n      dup3\n      add\n      mload\n      dup2\n      0x05\n      add\n      sstore\n      0xc0\n      dup3\n      add\n      mload\n      dup2\n      0x06\n      add\n      sstore\n      0xe0\n      dup3\n      add\n      mload\n      dup2\n      0x07\n      add\n      swap1\n      dup1\n      mload\n      swap1\n      0x20\n      add\n      swap1\n      tag_88\n      swap3\n      swap2\n      swap1\n      tag_89\n      jump\t// in\n    tag_88:\n      pop\n      swap1\n      pop\n      pop\n        /* \"contracts/Ebay.sol\":2981:2993  userAuctions */\n      0x04\n        /* \"contracts/Ebay.sol\":2981:3005  userAuctions[msg.sender] */\n      0x00\n        /* \"contracts/Ebay.sol\":2994:3004  msg.sender */\n      caller\n        /* \"contracts/Ebay.sol\":2981:3005  userAuctions[msg.sender] */\n      0xffffffffffffffffffffffffffffffffffffffff\n      and\n      0xffffffffffffffffffffffffffffffffffffffff\n      and\n      dup2\n      mstore\n      0x20\n      add\n      swap1\n      dup2\n      mstore\n      0x20\n      add\n      0x00\n      keccak256\n        /* \"contracts/Ebay.sol\":3011:3024  nextAuctionId */\n      sload(0x01)\n        /* \"contracts/Ebay.sol\":2981:3025  userAuctions[msg.sender].push(nextAuctionId) */\n      swap1\n      dup1\n      0x01\n      dup2\n      sload\n      add\n      dup1\n      dup3\n      sstore\n      dup1\n      swap2\n      pop\n      pop\n      0x01\n      swap1\n      sub\n      swap1\n      0x00\n      mstore\n      keccak256(0x00, 0x20)\n      add\n      0x00\n      swap1\n      swap2\n      swap1\n      swap2\n      swap1\n      swap2\n      pop\n      sstore\n        /* \"contracts/Ebay.sol\":3077:3090  nextAuctionId */\n      0x01\n      0x00\n        /* \"contracts/Ebay.sol\":3077:3092  nextAuctionId++ */\n      dup2\n      sload\n      dup1\n      swap3\n      swap2\n      swap1\n      tag_91\n      swap1\n      tag_92\n      jump\t// in\n    tag_91:\n      swap2\n      swap1\n      pop\n      sstore\n      pop\n        /* \"contracts/Ebay.sol\":2188:3099  {... */\n      pop\n        /* \"contracts/Ebay.sol\":2024:3099  function createAuction(... */\n      pop\n      pop\n      pop\n      pop\n      pop\n      pop\n      jump\t// out\n        /* \"contracts/Ebay.sol\":8333:8746  function getUserOffers(address _user)... */\n    tag_29:\n        /* \"contracts/Ebay.sol\":8418:8432  Offer[] memory */\n      0x60\n        /* \"contracts/Ebay.sol\":8448:8475  uint[] storage userOfferIds */\n      0x00\n        /* \"contracts/Ebay.sol\":8478:8488  userOffers */\n      0x05\n        /* \"contracts/Ebay.sol\":8478:8495  userOffers[_user] */\n      0x00\n        /* \"contracts/Ebay.sol\":8489:8494  _user */\n      dup5\n        /* \"contracts/Ebay.sol\":8478:8495  userOffers[_user] */\n      0xffffffffffffffffffffffffffffffffffffffff\n      and\n      0xffffffffffffffffffffffffffffffffffffffff\n      and\n      dup2\n      mstore\n      0x20\n      add\n      swap1\n      dup2\n      mstore\n      0x20\n      add\n      0x00\n      keccak256\n        /* \"contracts/Ebay.sol\":8448:8495  uint[] storage userOfferIds = userOffers[_user] */\n      swap1\n      pop\n        /* \"contracts/Ebay.sol\":8505:8527  Offer[] memory _offers */\n      0x00\n        /* \"contracts/Ebay.sol\":8542:8554  userOfferIds */\n      dup2\n        /* \"contracts/Ebay.sol\":8542:8561  userOfferIds.length */\n      dup1\n      sload\n      swap1\n      pop\n        /* \"contracts/Ebay.sol\":8530:8562  new Offer[](userOfferIds.length) */\n      0xffffffffffffffff\n      dup2\n      gt\n      iszero\n      tag_94\n      jumpi\n      tag_95\n      tag_81\n      jump\t// in\n    tag_95:\n    tag_94:\n      mload(0x40)\n      swap1\n      dup1\n      dup3\n      mstore\n      dup1\n      0x20\n      mul\n      0x20\n      add\n      dup3\n      add\n      0x40\n      mstore\n      dup1\n      iszero\n      tag_96\n      jumpi\n      dup2\n      0x20\n      add\n    tag_97:\n      tag_98\n      tag_99\n      jump\t// in\n    tag_98:\n      dup2\n      mstore\n      0x20\n      add\n      swap1\n      0x01\n      swap1\n      sub\n      swap1\n      dup2\n      tag_97\n      jumpi\n      swap1\n      pop\n    tag_96:\n      pop\n        /* \"contracts/Ebay.sol\":8505:8562  Offer[] memory _offers = new Offer[](userOfferIds.length) */\n      swap1\n      pop\n        /* \"contracts/Ebay.sol\":8577:8583  uint i */\n      0x00\n        /* \"contracts/Ebay.sol\":8572:8716  for (uint i = 0; i < userOfferIds.length; i++) {... */\n    tag_100:\n        /* \"contracts/Ebay.sol\":8593:8605  userOfferIds */\n      dup3\n        /* \"contracts/Ebay.sol\":8593:8612  userOfferIds.length */\n      dup1\n      sload\n      swap1\n      pop\n        /* \"contracts/Ebay.sol\":8589:8590  i */\n      dup2\n        /* \"contracts/Ebay.sol\":8589:8612  i < userOfferIds.length */\n      lt\n        /* \"contracts/Ebay.sol\":8572:8716  for (uint i = 0; i < userOfferIds.length; i++) {... */\n      iszero\n      tag_101\n      jumpi\n        /* \"contracts/Ebay.sol\":8633:8645  uint offerId */\n      0x00\n        /* \"contracts/Ebay.sol\":8648:8660  userOfferIds */\n      dup4\n        /* \"contracts/Ebay.sol\":8661:8662  i */\n      dup3\n        /* \"contracts/Ebay.sol\":8648:8663  userOfferIds[i] */\n      dup2\n      sload\n      dup2\n      lt\n      tag_103\n      jumpi\n      tag_104\n      tag_105\n      jump\t// in\n    tag_104:\n    tag_103:\n      swap1\n      0x00\n      mstore\n      keccak256(0x00, 0x20)\n      add\n      sload\n        /* \"contracts/Ebay.sol\":8633:8663  uint offerId = userOfferIds[i] */\n      swap1\n      pop\n        /* \"contracts/Ebay.sol\":8690:8696  offers */\n      0x02\n        /* \"contracts/Ebay.sol\":8690:8705  offers[offerId] */\n      0x00\n        /* \"contracts/Ebay.sol\":8697:8704  offerId */\n      dup3\n        /* \"contracts/Ebay.sol\":8690:8705  offers[offerId] */\n      dup2\n      mstore\n      0x20\n      add\n      swap1\n      dup2\n      mstore\n      0x20\n      add\n      0x00\n      keccak256\n        /* \"contracts/Ebay.sol\":8677:8705  _offers[i] = offers[offerId] */\n      mload(0x40)\n      dup1\n      0x80\n      add\n      0x40\n      mstore\n      swap1\n      dup2\n      0x00\n      dup3\n      add\n      sload\n      dup2\n      mstore\n      0x20\n      add\n      0x01\n      dup3\n      add\n      sload\n      dup2\n      mstore\n      0x20\n      add\n      0x02\n      dup3\n      add\n      0x00\n      swap1\n      sload\n      swap1\n      0x0100\n      exp\n      swap1\n      div\n      0xffffffffffffffffffffffffffffffffffffffff\n      and\n      0xffffffffffffffffffffffffffffffffffffffff\n      and\n      0xffffffffffffffffffffffffffffffffffffffff\n      and\n      dup2\n      mstore\n      0x20\n      add\n      0x03\n      dup3\n      add\n      sload\n      dup2\n      mstore\n      pop\n      pop\n        /* \"contracts/Ebay.sol\":8677:8684  _offers */\n      dup4\n        /* \"contracts/Ebay.sol\":8685:8686  i */\n      dup4\n        /* \"contracts/Ebay.sol\":8677:8687  _offers[i] */\n      dup2\n      mload\n      dup2\n      lt\n      tag_107\n      jumpi\n      tag_108\n      tag_105\n      jump\t// in\n    tag_108:\n    tag_107:\n      0x20\n      mul\n      0x20\n      add\n      add\n        /* \"contracts/Ebay.sol\":8677:8705  _offers[i] = offers[offerId] */\n      dup2\n      swap1\n      mstore\n      pop\n        /* \"contracts/Ebay.sol\":8619:8716  {... */\n      pop\n        /* \"contracts/Ebay.sol\":8614:8617  i++ */\n      dup1\n      dup1\n      tag_109\n      swap1\n      tag_92\n      jump\t// in\n    tag_109:\n      swap2\n      pop\n      pop\n        /* \"contracts/Ebay.sol\":8572:8716  for (uint i = 0; i < userOfferIds.length; i++) {... */\n      jump(tag_100)\n    tag_101:\n      pop\n        /* \"contracts/Ebay.sol\":8732:8739  _offers */\n      dup1\n        /* \"contracts/Ebay.sol\":8725:8739  return _offers */\n      swap3\n      pop\n      pop\n      pop\n        /* \"contracts/Ebay.sol\":8333:8746  function getUserOffers(address _user)... */\n      swap2\n      swap1\n      pop\n      jump\t// out\n        /* \"contracts/Ebay.sol\":1021:1057  mapping(uint => Offer) public offers */\n    tag_35:\n      mstore(0x20, 0x02)\n      dup1\n      0x00\n      mstore\n      keccak256(0x00, 0x40)\n      0x00\n      swap2\n      pop\n      swap1\n      pop\n      dup1\n      0x00\n      add\n      sload\n      swap1\n      dup1\n      0x01\n      add\n      sload\n      swap1\n      dup1\n      0x02\n      add\n      0x00\n      swap1\n      sload\n      swap1\n      0x0100\n      exp\n      swap1\n      div\n      0xffffffffffffffffffffffffffffffffffffffff\n      and\n      swap1\n      dup1\n      0x03\n      add\n      sload\n      swap1\n      pop\n      dup5\n      jump\t// out\n        /* \"contracts/Ebay.sol\":3192:4399  function cancelAuction(uint _auctionId) external auctionExists(_auctionId) {... */\n    tag_41:\n        /* \"contracts/Ebay.sol\":3255:3265  _auctionId */\n      dup1\n        /* \"contracts/Ebay.sol\":1553:1554  0 */\n      0x00\n        /* \"contracts/Ebay.sol\":1540:1550  _auctionId */\n      dup2\n        /* \"contracts/Ebay.sol\":1540:1554  _auctionId > 0 */\n      gt\n        /* \"contracts/Ebay.sol\":1540:1584  _auctionId > 0 && _auctionId < nextAuctionId */\n      dup1\n      iszero\n      tag_111\n      jumpi\n      pop\n        /* \"contracts/Ebay.sol\":1571:1584  nextAuctionId */\n      sload(0x01)\n        /* \"contracts/Ebay.sol\":1558:1568  _auctionId */\n      dup2\n        /* \"contracts/Ebay.sol\":1558:1584  _auctionId < nextAuctionId */\n      lt\n        /* \"contracts/Ebay.sol\":1540:1584  _auctionId > 0 && _auctionId < nextAuctionId */\n    tag_111:\n        /* \"contracts/Ebay.sol\":1519:1632  require(... */\n      tag_112\n      jumpi\n      mload(0x40)\n      0x08c379a000000000000000000000000000000000000000000000000000000000\n      dup2\n      mstore\n      0x04\n      add\n      tag_113\n      swap1\n      tag_114\n      jump\t// in\n    tag_113:\n      mload(0x40)\n      dup1\n      swap2\n      sub\n      swap1\n      revert\n    tag_112:\n        /* \"contracts/Ebay.sol\":3310:3333  Auction storage auction */\n      0x00\n        /* \"contracts/Ebay.sol\":3336:3344  auctions */\n      dup1\n        /* \"contracts/Ebay.sol\":3336:3356  auctions[_auctionId] */\n      0x00\n        /* \"contracts/Ebay.sol\":3345:3355  _auctionId */\n      dup5\n        /* \"contracts/Ebay.sol\":3336:3356  auctions[_auctionId] */\n      dup2\n      mstore\n      0x20\n      add\n      swap1\n      dup2\n      mstore\n      0x20\n      add\n      0x00\n      keccak256\n        /* \"contracts/Ebay.sol\":3310:3356  Auction storage auction = auctions[_auctionId] */\n      swap1\n      pop\n        /* \"contracts/Ebay.sol\":3547:3553  uint i */\n      0x00\n        /* \"contracts/Ebay.sol\":3542:4065  for (uint i = 0; i < auction.offerIds.length; i++) {... */\n    tag_116:\n        /* \"contracts/Ebay.sol\":3563:3570  auction */\n      dup2\n        /* \"contracts/Ebay.sol\":3563:3579  auction.offerIds */\n      0x07\n      add\n        /* \"contracts/Ebay.sol\":3563:3586  auction.offerIds.length */\n      dup1\n      sload\n      swap1\n      pop\n        /* \"contracts/Ebay.sol\":3559:3560  i */\n      dup2\n        /* \"contracts/Ebay.sol\":3559:3586  i < auction.offerIds.length */\n      lt\n        /* \"contracts/Ebay.sol\":3542:4065  for (uint i = 0; i < auction.offerIds.length; i++) {... */\n      iszero\n      tag_117\n      jumpi\n        /* \"contracts/Ebay.sol\":3607:3619  uint offerId */\n      0x00\n        /* \"contracts/Ebay.sol\":3622:3629  auction */\n      dup3\n        /* \"contracts/Ebay.sol\":3622:3638  auction.offerIds */\n      0x07\n      add\n        /* \"contracts/Ebay.sol\":3639:3640  i */\n      dup3\n        /* \"contracts/Ebay.sol\":3622:3641  auction.offerIds[i] */\n      dup2\n      sload\n      dup2\n      lt\n      tag_119\n      jumpi\n      tag_120\n      tag_105\n      jump\t// in\n    tag_120:\n    tag_119:\n      swap1\n      0x00\n      mstore\n      keccak256(0x00, 0x20)\n      add\n      sload\n        /* \"contracts/Ebay.sol\":3607:3641  uint offerId = auction.offerIds[i] */\n      swap1\n      pop\n        /* \"contracts/Ebay.sol\":3655:3674  Offer storage offer */\n      0x00\n        /* \"contracts/Ebay.sol\":3677:3683  offers */\n      0x02\n        /* \"contracts/Ebay.sol\":3677:3692  offers[offerId] */\n      0x00\n        /* \"contracts/Ebay.sol\":3684:3691  offerId */\n      dup4\n        /* \"contracts/Ebay.sol\":3677:3692  offers[offerId] */\n      dup2\n      mstore\n      0x20\n      add\n      swap1\n      dup2\n      mstore\n      0x20\n      add\n      0x00\n      keccak256\n        /* \"contracts/Ebay.sol\":3655:3692  Offer storage offer = offers[offerId] */\n      swap1\n      pop\n        /* \"contracts/Ebay.sol\":3751:3756  offer */\n      dup1\n        /* \"contracts/Ebay.sol\":3751:3762  offer.buyer */\n      0x02\n      add\n      0x00\n      swap1\n      sload\n      swap1\n      0x0100\n      exp\n      swap1\n      div\n      0xffffffffffffffffffffffffffffffffffffffff\n      and\n        /* \"contracts/Ebay.sol\":3743:3772  payable(offer.buyer).transfer */\n      0xffffffffffffffffffffffffffffffffffffffff\n      and\n        /* \"contracts/Ebay.sol\":3743:3790  payable(offer.buyer).transfer(offer.offerPrice) */\n      0x08fc\n        /* \"contracts/Ebay.sol\":3773:3778  offer */\n      dup3\n        /* \"contracts/Ebay.sol\":3773:3789  offer.offerPrice */\n      0x03\n      add\n      sload\n        /* \"contracts/Ebay.sol\":3743:3790  payable(offer.buyer).transfer(offer.offerPrice) */\n      swap1\n      dup2\n      iszero\n      mul\n      swap1\n      mload(0x40)\n      0x00\n      mload(0x40)\n      dup1\n      dup4\n      sub\n      dup2\n      dup6\n      dup9\n      dup9\n      call\n      swap4\n      pop\n      pop\n      pop\n      pop\n      iszero\n      dup1\n      iszero\n      tag_123\n      jumpi\n      returndatasize\n      0x00\n      dup1\n      returndatacopy\n      revert(0x00, returndatasize)\n    tag_123:\n      pop\n        /* \"contracts/Ebay.sol\":3853:3859  uint j */\n      0x00\n        /* \"contracts/Ebay.sol\":3848:4055  for (uint j = 0; j < userOffers[offer.buyer].length; j++) {... */\n    tag_124:\n        /* \"contracts/Ebay.sol\":3869:3879  userOffers */\n      0x05\n        /* \"contracts/Ebay.sol\":3869:3892  userOffers[offer.buyer] */\n      0x00\n        /* \"contracts/Ebay.sol\":3880:3885  offer */\n      dup4\n        /* \"contracts/Ebay.sol\":3880:3891  offer.buyer */\n      0x02\n      add\n      0x00\n      swap1\n      sload\n      swap1\n      0x0100\n      exp\n      swap1\n      div\n      0xffffffffffffffffffffffffffffffffffffffff\n      and\n        /* \"contracts/Ebay.sol\":3869:3892  userOffers[offer.buyer] */\n      0xffffffffffffffffffffffffffffffffffffffff\n      and\n      0xffffffffffffffffffffffffffffffffffffffff\n      and\n      dup2\n      mstore\n      0x20\n      add\n      swap1\n      dup2\n      mstore\n      0x20\n      add\n      0x00\n      keccak256\n        /* \"contracts/Ebay.sol\":3869:3899  userOffers[offer.buyer].length */\n      dup1\n      sload\n      swap1\n      pop\n        /* \"contracts/Ebay.sol\":3865:3866  j */\n      dup2\n        /* \"contracts/Ebay.sol\":3865:3899  j < userOffers[offer.buyer].length */\n      lt\n        /* \"contracts/Ebay.sol\":3848:4055  for (uint j = 0; j < userOffers[offer.buyer].length; j++) {... */\n      iszero\n      tag_125\n      jumpi\n        /* \"contracts/Ebay.sol\":3958:3965  offerId */\n      dup3\n        /* \"contracts/Ebay.sol\":3928:3938  userOffers */\n      0x05\n        /* \"contracts/Ebay.sol\":3928:3951  userOffers[offer.buyer] */\n      0x00\n        /* \"contracts/Ebay.sol\":3939:3944  offer */\n      dup5\n        /* \"contracts/Ebay.sol\":3939:3950  offer.buyer */\n      0x02\n      add\n      0x00\n      swap1\n      sload\n      swap1\n      0x0100\n      exp\n      swap1\n      div\n      0xffffffffffffffffffffffffffffffffffffffff\n      and\n        /* \"contracts/Ebay.sol\":3928:3951  userOffers[offer.buyer] */\n      0xffffffffffffffffffffffffffffffffffffffff\n      and\n      0xffffffffffffffffffffffffffffffffffffffff\n      and\n      dup2\n      mstore\n      0x20\n      add\n      swap1\n      dup2\n      mstore\n      0x20\n      add\n      0x00\n      keccak256\n        /* \"contracts/Ebay.sol\":3952:3953  j */\n      dup3\n        /* \"contracts/Ebay.sol\":3928:3954  userOffers[offer.buyer][j] */\n      dup2\n      sload\n      dup2\n      lt\n      tag_127\n      jumpi\n      tag_128\n      tag_105\n      jump\t// in\n    tag_128:\n    tag_127:\n      swap1\n      0x00\n      mstore\n      keccak256(0x00, 0x20)\n      add\n      sload\n        /* \"contracts/Ebay.sol\":3928:3965  userOffers[offer.buyer][j] == offerId */\n      sub\n        /* \"contracts/Ebay.sol\":3924:4041  if (userOffers[offer.buyer][j] == offerId) {... */\n      tag_130\n      jumpi\n        /* \"contracts/Ebay.sol\":3996:4006  userOffers */\n      0x05\n        /* \"contracts/Ebay.sol\":3996:4019  userOffers[offer.buyer] */\n      0x00\n        /* \"contracts/Ebay.sol\":4007:4012  offer */\n      dup4\n        /* \"contracts/Ebay.sol\":4007:4018  offer.buyer */\n      0x02\n      add\n      0x00\n      swap1\n      sload\n      swap1\n      0x0100\n      exp\n      swap1\n      div\n      0xffffffffffffffffffffffffffffffffffffffff\n      and\n        /* \"contracts/Ebay.sol\":3996:4019  userOffers[offer.buyer] */\n      0xffffffffffffffffffffffffffffffffffffffff\n      and\n      0xffffffffffffffffffffffffffffffffffffffff\n      and\n      dup2\n      mstore\n      0x20\n      add\n      swap1\n      dup2\n      mstore\n      0x20\n      add\n      0x00\n      keccak256\n        /* \"contracts/Ebay.sol\":4020:4021  j */\n      dup2\n        /* \"contracts/Ebay.sol\":3996:4022  userOffers[offer.buyer][j] */\n      dup2\n      sload\n      dup2\n      lt\n      tag_131\n      jumpi\n      tag_132\n      tag_105\n      jump\t// in\n    tag_132:\n    tag_131:\n      swap1\n      0x00\n      mstore\n      keccak256(0x00, 0x20)\n      add\n        /* \"contracts/Ebay.sol\":3989:4022  delete userOffers[offer.buyer][j] */\n      0x00\n      swap1\n      sstore\n        /* \"contracts/Ebay.sol\":3924:4041  if (userOffers[offer.buyer][j] == offerId) {... */\n    tag_130:\n        /* \"contracts/Ebay.sol\":3901:3904  j++ */\n      dup1\n      dup1\n      tag_134\n      swap1\n      tag_92\n      jump\t// in\n    tag_134:\n      swap2\n      pop\n      pop\n        /* \"contracts/Ebay.sol\":3848:4055  for (uint j = 0; j < userOffers[offer.buyer].length; j++) {... */\n      jump(tag_124)\n    tag_125:\n      pop\n        /* \"contracts/Ebay.sol\":3593:4065  {... */\n      pop\n      pop\n        /* \"contracts/Ebay.sol\":3588:3591  i++ */\n      dup1\n      dup1\n      tag_135\n      swap1\n      tag_92\n      jump\t// in\n    tag_135:\n      swap2\n      pop\n      pop\n        /* \"contracts/Ebay.sol\":3542:4065  for (uint i = 0; i < auction.offerIds.length; i++) {... */\n      jump(tag_116)\n    tag_117:\n      pop\n        /* \"contracts/Ebay.sol\":4118:4124  uint k */\n      0x00\n        /* \"contracts/Ebay.sol\":4113:4322  for (uint k = 0; k < userAuctions[auction.seller].length; k++) {... */\n    tag_136:\n        /* \"contracts/Ebay.sol\":4134:4146  userAuctions */\n      0x04\n        /* \"contracts/Ebay.sol\":4134:4162  userAuctions[auction.seller] */\n      0x00\n        /* \"contracts/Ebay.sol\":4147:4154  auction */\n      dup4\n        /* \"contracts/Ebay.sol\":4147:4161  auction.seller */\n      0x01\n      add\n      0x00\n      swap1\n      sload\n      swap1\n      0x0100\n      exp\n      swap1\n      div\n      0xffffffffffffffffffffffffffffffffffffffff\n      and\n        /* \"contracts/Ebay.sol\":4134:4162  userAuctions[auction.seller] */\n      0xffffffffffffffffffffffffffffffffffffffff\n      and\n      0xffffffffffffffffffffffffffffffffffffffff\n      and\n      dup2\n      mstore\n      0x20\n      add\n      swap1\n      dup2\n      mstore\n      0x20\n      add\n      0x00\n      keccak256\n        /* \"contracts/Ebay.sol\":4134:4169  userAuctions[auction.seller].length */\n      dup1\n      sload\n      swap1\n      pop\n        /* \"contracts/Ebay.sol\":4130:4131  k */\n      dup2\n        /* \"contracts/Ebay.sol\":4130:4169  k < userAuctions[auction.seller].length */\n      lt\n        /* \"contracts/Ebay.sol\":4113:4322  for (uint k = 0; k < userAuctions[auction.seller].length; k++) {... */\n      iszero\n      tag_137\n      jumpi\n        /* \"contracts/Ebay.sol\":4229:4239  _auctionId */\n      dup4\n        /* \"contracts/Ebay.sol\":4194:4206  userAuctions */\n      0x04\n        /* \"contracts/Ebay.sol\":4194:4222  userAuctions[auction.seller] */\n      0x00\n        /* \"contracts/Ebay.sol\":4207:4214  auction */\n      dup5\n        /* \"contracts/Ebay.sol\":4207:4221  auction.seller */\n      0x01\n      add\n      0x00\n      swap1\n      sload\n      swap1\n      0x0100\n      exp\n      swap1\n      div\n      0xffffffffffffffffffffffffffffffffffffffff\n      and\n        /* \"contracts/Ebay.sol\":4194:4222  userAuctions[auction.seller] */\n      0xffffffffffffffffffffffffffffffffffffffff\n      and\n      0xffffffffffffffffffffffffffffffffffffffff\n      and\n      dup2\n      mstore\n      0x20\n      add\n      swap1\n      dup2\n      mstore\n      0x20\n      add\n      0x00\n      keccak256\n        /* \"contracts/Ebay.sol\":4223:4224  k */\n      dup3\n        /* \"contracts/Ebay.sol\":4194:4225  userAuctions[auction.seller][k] */\n      dup2\n      sload\n      dup2\n      lt\n      tag_139\n      jumpi\n      tag_140\n      tag_105\n      jump\t// in\n    tag_140:\n    tag_139:\n      swap1\n      0x00\n      mstore\n      keccak256(0x00, 0x20)\n      add\n      sload\n        /* \"contracts/Ebay.sol\":4194:4239  userAuctions[auction.seller][k] == _auctionId */\n      sub\n        /* \"contracts/Ebay.sol\":4190:4312  if (userAuctions[auction.seller][k] == _auctionId) {... */\n      tag_142\n      jumpi\n        /* \"contracts/Ebay.sol\":4266:4278  userAuctions */\n      0x04\n        /* \"contracts/Ebay.sol\":4266:4294  userAuctions[auction.seller] */\n      0x00\n        /* \"contracts/Ebay.sol\":4279:4286  auction */\n      dup4\n        /* \"contracts/Ebay.sol\":4279:4293  auction.seller */\n      0x01\n      add\n      0x00\n      swap1\n      sload\n      swap1\n      0x0100\n      exp\n      swap1\n      div\n      0xffffffffffffffffffffffffffffffffffffffff\n      and\n        /* \"contracts/Ebay.sol\":4266:4294  userAuctions[auction.seller] */\n      0xffffffffffffffffffffffffffffffffffffffff\n      and\n      0xffffffffffffffffffffffffffffffffffffffff\n      and\n      dup2\n      mstore\n      0x20\n      add\n      swap1\n      dup2\n      mstore\n      0x20\n      add\n      0x00\n      keccak256\n        /* \"contracts/Ebay.sol\":4295:4296  k */\n      dup2\n        /* \"contracts/Ebay.sol\":4266:4297  userAuctions[auction.seller][k] */\n      dup2\n      sload\n      dup2\n      lt\n      tag_143\n      jumpi\n      tag_144\n      tag_105\n      jump\t// in\n    tag_144:\n    tag_143:\n      swap1\n      0x00\n      mstore\n      keccak256(0x00, 0x20)\n      add\n        /* \"contracts/Ebay.sol\":4259:4297  delete userAuctions[auction.seller][k] */\n      0x00\n      swap1\n      sstore\n        /* \"contracts/Ebay.sol\":4190:4312  if (userAuctions[auction.seller][k] == _auctionId) {... */\n    tag_142:\n        /* \"contracts/Ebay.sol\":4171:4174  k++ */\n      dup1\n      dup1\n      tag_146\n      swap1\n      tag_92\n      jump\t// in\n    tag_146:\n      swap2\n      pop\n      pop\n        /* \"contracts/Ebay.sol\":4113:4322  for (uint k = 0; k < userAuctions[auction.seller].length; k++) {... */\n      jump(tag_136)\n    tag_137:\n      pop\n        /* \"contracts/Ebay.sol\":4372:4380  auctions */\n      0x00\n        /* \"contracts/Ebay.sol\":4372:4392  auctions[_auctionId] */\n      dup1\n        /* \"contracts/Ebay.sol\":4381:4391  _auctionId */\n      dup5\n        /* \"contracts/Ebay.sol\":4372:4392  auctions[_auctionId] */\n      dup2\n      mstore\n      0x20\n      add\n      swap1\n      dup2\n      mstore\n      0x20\n      add\n      0x00\n      keccak256\n      0x00\n        /* \"contracts/Ebay.sol\":4365:4392  delete auctions[_auctionId] */\n      dup1\n      dup3\n      add\n      0x00\n      swap1\n      sstore\n      0x01\n      dup3\n      add\n      exp(0x0100, 0x00)\n      dup2\n      sload\n      swap1\n      0xffffffffffffffffffffffffffffffffffffffff\n      mul\n      not\n      and\n      swap1\n      sstore\n      0x02\n      dup3\n      add\n      0x00\n      tag_147\n      swap2\n      swap1\n      tag_148\n      jump\t// in\n    tag_147:\n      0x03\n      dup3\n      add\n      0x00\n      tag_149\n      swap2\n      swap1\n      tag_148\n      jump\t// in\n    tag_149:\n      0x04\n      dup3\n      add\n      0x00\n      swap1\n      sstore\n      0x05\n      dup3\n      add\n      0x00\n      swap1\n      sstore\n      0x06\n      dup3\n      add\n      0x00\n      swap1\n      sstore\n      0x07\n      dup3\n      add\n      0x00\n      tag_150\n      swap2\n      swap1\n      tag_151\n      jump\t// in\n    tag_150:\n      pop\n      pop\n        /* \"contracts/Ebay.sol\":3267:4399  {... */\n      pop\n        /* \"contracts/Ebay.sol\":3192:4399  function cancelAuction(uint _auctionId) external auctionExists(_auctionId) {... */\n      pop\n      pop\n      jump\t// out\n        /* \"contracts/Ebay.sol\":4503:6281  function createOffer(uint _auctionId)... */\n    tag_44:\n        /* \"contracts/Ebay.sol\":4704:4714  _auctionId */\n      dup1\n        /* \"contracts/Ebay.sol\":1553:1554  0 */\n      0x00\n        /* \"contracts/Ebay.sol\":1540:1550  _auctionId */\n      dup2\n        /* \"contracts/Ebay.sol\":1540:1554  _auctionId > 0 */\n      gt\n        /* \"contracts/Ebay.sol\":1540:1584  _auctionId > 0 && _auctionId < nextAuctionId */\n      dup1\n      iszero\n      tag_153\n      jumpi\n      pop\n        /* \"contracts/Ebay.sol\":1571:1584  nextAuctionId */\n      sload(0x01)\n        /* \"contracts/Ebay.sol\":1558:1568  _auctionId */\n      dup2\n        /* \"contracts/Ebay.sol\":1558:1584  _auctionId < nextAuctionId */\n      lt\n        /* \"contracts/Ebay.sol\":1540:1584  _auctionId > 0 && _auctionId < nextAuctionId */\n    tag_153:\n        /* \"contracts/Ebay.sol\":1519:1632  require(... */\n      tag_154\n      jumpi\n      mload(0x40)\n      0x08c379a000000000000000000000000000000000000000000000000000000000\n      dup2\n      mstore\n      0x04\n      add\n      tag_155\n      swap1\n      tag_114\n      jump\t// in\n    tag_155:\n      mload(0x40)\n      dup1\n      swap2\n      sub\n      swap1\n      revert\n    tag_154:\n        /* \"contracts/Ebay.sol\":4765:4788  Auction storage auction */\n      0x00\n        /* \"contracts/Ebay.sol\":4791:4799  auctions */\n      dup1\n        /* \"contracts/Ebay.sol\":4791:4811  auctions[_auctionId] */\n      0x00\n        /* \"contracts/Ebay.sol\":4800:4810  _auctionId */\n      dup5\n        /* \"contracts/Ebay.sol\":4791:4811  auctions[_auctionId] */\n      dup2\n      mstore\n      0x20\n      add\n      swap1\n      dup2\n      mstore\n      0x20\n      add\n      0x00\n      keccak256\n        /* \"contracts/Ebay.sol\":4765:4811  Auction storage auction = auctions[_auctionId] */\n      swap1\n      pop\n        /* \"contracts/Ebay.sol\":4888:4895  auction */\n      dup1\n        /* \"contracts/Ebay.sol\":4888:4906  auction.auctionEnd */\n      0x05\n      add\n      sload\n        /* \"contracts/Ebay.sol\":4870:4885  block.timestamp */\n      timestamp\n        /* \"contracts/Ebay.sol\":4870:4906  block.timestamp < auction.auctionEnd */\n      lt\n        /* \"contracts/Ebay.sol\":4862:4926  require(block.timestamp < auction.auctionEnd, \"Auction expired\") */\n      tag_157\n      jumpi\n      mload(0x40)\n      0x08c379a000000000000000000000000000000000000000000000000000000000\n      dup2\n      mstore\n      0x04\n      add\n      tag_158\n      swap1\n      tag_159\n      jump\t// in\n    tag_158:\n      mload(0x40)\n      dup1\n      swap2\n      sub\n      swap1\n      revert\n    tag_157:\n        /* \"contracts/Ebay.sol\":4972:4995  Offer storage bestOffer */\n      0x00\n        /* \"contracts/Ebay.sol\":4998:5004  offers */\n      0x02\n        /* \"contracts/Ebay.sol\":4998:5025  offers[auction.bestOfferId] */\n      0x00\n        /* \"contracts/Ebay.sol\":5005:5012  auction */\n      dup4\n        /* \"contracts/Ebay.sol\":5005:5024  auction.bestOfferId */\n      0x06\n      add\n      sload\n        /* \"contracts/Ebay.sol\":4998:5025  offers[auction.bestOfferId] */\n      dup2\n      mstore\n      0x20\n      add\n      swap1\n      dup2\n      mstore\n      0x20\n      add\n      0x00\n      keccak256\n        /* \"contracts/Ebay.sol\":4972:5025  Offer storage bestOffer = offers[auction.bestOfferId] */\n      swap1\n      pop\n        /* \"contracts/Ebay.sol\":5099:5120  uint newPossibleOffer */\n      0x00\n        /* \"contracts/Ebay.sol\":5123:5132  msg.value */\n      callvalue\n        /* \"contracts/Ebay.sol\":5099:5132  uint newPossibleOffer = msg.value */\n      swap1\n      pop\n        /* \"contracts/Ebay.sol\":5147:5153  uint i */\n      0x00\n        /* \"contracts/Ebay.sol\":5142:5381  for (uint i = 0; i < auction.offerIds.length; i++) {... */\n    tag_160:\n        /* \"contracts/Ebay.sol\":5163:5170  auction */\n      dup4\n        /* \"contracts/Ebay.sol\":5163:5179  auction.offerIds */\n      0x07\n      add\n        /* \"contracts/Ebay.sol\":5163:5186  auction.offerIds.length */\n      dup1\n      sload\n      swap1\n      pop\n        /* \"contracts/Ebay.sol\":5159:5160  i */\n      dup2\n        /* \"contracts/Ebay.sol\":5159:5186  i < auction.offerIds.length */\n      lt\n        /* \"contracts/Ebay.sol\":5142:5381  for (uint i = 0; i < auction.offerIds.length; i++) {... */\n      iszero\n      tag_161\n      jumpi\n        /* \"contracts/Ebay.sol\":5207:5226  Offer storage offer */\n      0x00\n        /* \"contracts/Ebay.sol\":5229:5235  offers */\n      0x02\n        /* \"contracts/Ebay.sol\":5229:5256  offers[auction.offerIds[i]] */\n      0x00\n        /* \"contracts/Ebay.sol\":5236:5243  auction */\n      dup7\n        /* \"contracts/Ebay.sol\":5236:5252  auction.offerIds */\n      0x07\n      add\n        /* \"contracts/Ebay.sol\":5253:5254  i */\n      dup5\n        /* \"contracts/Ebay.sol\":5236:5255  auction.offerIds[i] */\n      dup2\n      sload\n      dup2\n      lt\n      tag_163\n      jumpi\n      tag_164\n      tag_105\n      jump\t// in\n    tag_164:\n    tag_163:\n      swap1\n      0x00\n      mstore\n      keccak256(0x00, 0x20)\n      add\n      sload\n        /* \"contracts/Ebay.sol\":5229:5256  offers[auction.offerIds[i]] */\n      dup2\n      mstore\n      0x20\n      add\n      swap1\n      dup2\n      mstore\n      0x20\n      add\n      0x00\n      keccak256\n        /* \"contracts/Ebay.sol\":5207:5256  Offer storage offer = offers[auction.offerIds[i]] */\n      swap1\n      pop\n        /* \"contracts/Ebay.sol\":5290:5300  msg.sender */\n      caller\n        /* \"contracts/Ebay.sol\":5275:5300  offer.buyer == msg.sender */\n      0xffffffffffffffffffffffffffffffffffffffff\n      and\n        /* \"contracts/Ebay.sol\":5275:5280  offer */\n      dup2\n        /* \"contracts/Ebay.sol\":5275:5286  offer.buyer */\n      0x02\n      add\n      0x00\n      swap1\n      sload\n      swap1\n      0x0100\n      exp\n      swap1\n      div\n      0xffffffffffffffffffffffffffffffffffffffff\n      and\n        /* \"contracts/Ebay.sol\":5275:5300  offer.buyer == msg.sender */\n      0xffffffffffffffffffffffffffffffffffffffff\n      and\n      sub\n        /* \"contracts/Ebay.sol\":5271:5371  if (offer.buyer == msg.sender) {... */\n      tag_166\n      jumpi\n        /* \"contracts/Ebay.sol\":5340:5345  offer */\n      dup1\n        /* \"contracts/Ebay.sol\":5340:5356  offer.offerPrice */\n      0x03\n      add\n      sload\n        /* \"contracts/Ebay.sol\":5320:5356  newPossibleOffer += offer.offerPrice */\n      dup4\n      tag_167\n      swap2\n      swap1\n      tag_84\n      jump\t// in\n    tag_167:\n      swap3\n      pop\n        /* \"contracts/Ebay.sol\":5271:5371  if (offer.buyer == msg.sender) {... */\n    tag_166:\n        /* \"contracts/Ebay.sol\":5193:5381  {... */\n      pop\n        /* \"contracts/Ebay.sol\":5188:5191  i++ */\n      dup1\n      dup1\n      tag_168\n      swap1\n      tag_92\n      jump\t// in\n    tag_168:\n      swap2\n      pop\n      pop\n        /* \"contracts/Ebay.sol\":5142:5381  for (uint i = 0; i < auction.offerIds.length; i++) {... */\n      jump(tag_160)\n    tag_161:\n      pop\n        /* \"contracts/Ebay.sol\":5492:5499  auction */\n      dup3\n        /* \"contracts/Ebay.sol\":5492:5517  auction.minimumOfferPrice */\n      0x04\n      add\n      sload\n        /* \"contracts/Ebay.sol\":5472:5488  newPossibleOffer */\n      dup2\n        /* \"contracts/Ebay.sol\":5472:5517  newPossibleOffer >= auction.minimumOfferPrice */\n      lt\n      iszero\n        /* \"contracts/Ebay.sol\":5472:5576  newPossibleOffer >= auction.minimumOfferPrice &&... */\n      dup1\n      iszero\n      tag_169\n      jumpi\n      pop\n        /* \"contracts/Ebay.sol\":5556:5565  bestOffer */\n      dup2\n        /* \"contracts/Ebay.sol\":5556:5576  bestOffer.offerPrice */\n      0x03\n      add\n      sload\n        /* \"contracts/Ebay.sol\":5537:5553  newPossibleOffer */\n      dup2\n        /* \"contracts/Ebay.sol\":5537:5576  newPossibleOffer > bestOffer.offerPrice */\n      gt\n        /* \"contracts/Ebay.sol\":5472:5576  newPossibleOffer >= auction.minimumOfferPrice &&... */\n    tag_169:\n        /* \"contracts/Ebay.sol\":5451:5669  require(... */\n      tag_170\n      jumpi\n      mload(0x40)\n      0x08c379a000000000000000000000000000000000000000000000000000000000\n      dup2\n      mstore\n      0x04\n      add\n      tag_171\n      swap1\n      tag_172\n      jump\t// in\n    tag_171:\n      mload(0x40)\n      dup1\n      swap2\n      sub\n      swap1\n      revert\n    tag_170:\n        /* \"contracts/Ebay.sol\":5743:5754  nextOfferId */\n      sload(0x03)\n        /* \"contracts/Ebay.sol\":5721:5728  auction */\n      dup4\n        /* \"contracts/Ebay.sol\":5721:5740  auction.bestOfferId */\n      0x06\n      add\n        /* \"contracts/Ebay.sol\":5721:5754  auction.bestOfferId = nextOfferId */\n      dup2\n      swap1\n      sstore\n      pop\n        /* \"contracts/Ebay.sol\":5817:5935  Offer(... */\n      mload(0x40)\n      dup1\n      0x80\n      add\n      0x40\n      mstore\n      dup1\n        /* \"contracts/Ebay.sol\":5836:5847  nextOfferId */\n      sload(0x03)\n        /* \"contracts/Ebay.sol\":5817:5935  Offer(... */\n      dup2\n      mstore\n      0x20\n      add\n        /* \"contracts/Ebay.sol\":5861:5871  _auctionId */\n      dup7\n        /* \"contracts/Ebay.sol\":5817:5935  Offer(... */\n      dup2\n      mstore\n      0x20\n      add\n        /* \"contracts/Ebay.sol\":5885:5895  msg.sender */\n      caller\n        /* \"contracts/Ebay.sol\":5817:5935  Offer(... */\n      0xffffffffffffffffffffffffffffffffffffffff\n      and\n      dup2\n      mstore\n      0x20\n      add\n        /* \"contracts/Ebay.sol\":5909:5925  newPossibleOffer */\n      dup3\n        /* \"contracts/Ebay.sol\":5817:5935  Offer(... */\n      dup2\n      mstore\n      pop\n        /* \"contracts/Ebay.sol\":5795:5801  offers */\n      0x02\n        /* \"contracts/Ebay.sol\":5795:5814  offers[nextOfferId] */\n      0x00\n        /* \"contracts/Ebay.sol\":5802:5813  nextOfferId */\n      sload(0x03)\n        /* \"contracts/Ebay.sol\":5795:5814  offers[nextOfferId] */\n      dup2\n      mstore\n      0x20\n      add\n      swap1\n      dup2\n      mstore\n      0x20\n      add\n      0x00\n      keccak256\n        /* \"contracts/Ebay.sol\":5795:5935  offers[nextOfferId] = Offer(... */\n      0x00\n      dup3\n      add\n      mload\n      dup2\n      0x00\n      add\n      sstore\n      0x20\n      dup3\n      add\n      mload\n      dup2\n      0x01\n      add\n      sstore\n      0x40\n      dup3\n      add\n      mload\n      dup2\n      0x02\n      add\n      exp(0x0100, 0x00)\n      dup2\n      sload\n      dup2\n      0xffffffffffffffffffffffffffffffffffffffff\n      mul\n      not\n      and\n      swap1\n      dup4\n      0xffffffffffffffffffffffffffffffffffffffff\n      and\n      mul\n      or\n      swap1\n      sstore\n      pop\n      0x60\n      dup3\n      add\n      mload\n      dup2\n      0x03\n      add\n      sstore\n      swap1\n      pop\n      pop\n        /* \"contracts/Ebay.sol\":5946:5953  auction */\n      dup3\n        /* \"contracts/Ebay.sol\":5946:5962  auction.offerIds */\n      0x07\n      add\n        /* \"contracts/Ebay.sol\":5968:5979  nextOfferId */\n      sload(0x03)\n        /* \"contracts/Ebay.sol\":5946:5980  auction.offerIds.push(nextOfferId) */\n      swap1\n      dup1\n      0x01\n      dup2\n      sload\n      add\n      dup1\n      dup3\n      sstore\n      dup1\n      swap2\n      pop\n      pop\n      0x01\n      swap1\n      sub\n      swap1\n      0x00\n      mstore\n      keccak256(0x00, 0x20)\n      add\n      0x00\n      swap1\n      swap2\n      swap1\n      swap2\n      swap1\n      swap2\n      pop\n      sstore\n        /* \"contracts/Ebay.sol\":6109:6110  1 */\n      0x01\n        /* \"contracts/Ebay.sol\":6090:6106  newPossibleOffer */\n      dup2\n        /* \"contracts/Ebay.sol\":6090:6110  newPossibleOffer + 1 */\n      tag_174\n      swap2\n      swap1\n      tag_84\n      jump\t// in\n    tag_174:\n        /* \"contracts/Ebay.sol\":6062:6069  auction */\n      dup4\n        /* \"contracts/Ebay.sol\":6062:6087  auction.minimumOfferPrice */\n      0x04\n      add\n        /* \"contracts/Ebay.sol\":6062:6110  auction.minimumOfferPrice = newPossibleOffer + 1 */\n      dup2\n      swap1\n      sstore\n      pop\n        /* \"contracts/Ebay.sol\":6171:6181  userOffers */\n      0x05\n        /* \"contracts/Ebay.sol\":6171:6193  userOffers[msg.sender] */\n      0x00\n        /* \"contracts/Ebay.sol\":6182:6192  msg.sender */\n      caller\n        /* \"contracts/Ebay.sol\":6171:6193  userOffers[msg.sender] */\n      0xffffffffffffffffffffffffffffffffffffffff\n      and\n      0xffffffffffffffffffffffffffffffffffffffff\n      and\n      dup2\n      mstore\n      0x20\n      add\n      swap1\n      dup2\n      mstore\n      0x20\n      add\n      0x00\n      keccak256\n        /* \"contracts/Ebay.sol\":6199:6210  nextOfferId */\n      sload(0x03)\n        /* \"contracts/Ebay.sol\":6171:6211  userOffers[msg.sender].push(nextOfferId) */\n      swap1\n      dup1\n      0x01\n      dup2\n      sload\n      add\n      dup1\n      dup3\n      sstore\n      dup1\n      swap2\n      pop\n      pop\n      0x01\n      swap1\n      sub\n      swap1\n      0x00\n      mstore\n      keccak256(0x00, 0x20)\n      add\n      0x00\n      swap1\n      swap2\n      swap1\n      swap2\n      swap1\n      swap2\n      pop\n      sstore\n        /* \"contracts/Ebay.sol\":6261:6272  nextOfferId */\n      0x03\n      0x00\n        /* \"contracts/Ebay.sol\":6261:6274  nextOfferId++ */\n      dup2\n      sload\n      dup1\n      swap3\n      swap2\n      swap1\n      tag_176\n      swap1\n      tag_92\n      jump\t// in\n    tag_176:\n      swap2\n      swap1\n      pop\n      sstore\n      pop\n        /* \"contracts/Ebay.sol\":4720:6281  {   ... */\n      pop\n      pop\n      pop\n        /* \"contracts/Ebay.sol\":4503:6281  function createOffer(uint _auctionId)... */\n      pop\n      pop\n      jump\t// out\n        /* \"contracts/Ebay.sol\":8839:9391  function getAuctionOffers(uint _auctionId)... */\n    tag_48:\n        /* \"contracts/Ebay.sol\":8963:8977  Offer[] memory */\n      0x60\n        /* \"contracts/Ebay.sol\":8934:8944  _auctionId */\n      dup2\n        /* \"contracts/Ebay.sol\":1553:1554  0 */\n      0x00\n        /* \"contracts/Ebay.sol\":1540:1550  _auctionId */\n      dup2\n        /* \"contracts/Ebay.sol\":1540:1554  _auctionId > 0 */\n      gt\n        /* \"contracts/Ebay.sol\":1540:1584  _auctionId > 0 && _auctionId < nextAuctionId */\n      dup1\n      iszero\n      tag_178\n      jumpi\n      pop\n        /* \"contracts/Ebay.sol\":1571:1584  nextAuctionId */\n      sload(0x01)\n        /* \"contracts/Ebay.sol\":1558:1568  _auctionId */\n      dup2\n        /* \"contracts/Ebay.sol\":1558:1584  _auctionId < nextAuctionId */\n      lt\n        /* \"contracts/Ebay.sol\":1540:1584  _auctionId > 0 && _auctionId < nextAuctionId */\n    tag_178:\n        /* \"contracts/Ebay.sol\":1519:1632  require(... */\n      tag_179\n      jumpi\n      mload(0x40)\n      0x08c379a000000000000000000000000000000000000000000000000000000000\n      dup2\n      mstore\n      0x04\n      add\n      tag_180\n      swap1\n      tag_114\n      jump\t// in\n    tag_180:\n      mload(0x40)\n      dup1\n      swap2\n      sub\n      swap1\n      revert\n    tag_179:\n        /* \"contracts/Ebay.sol\":9025:9048  Auction storage auction */\n      0x00\n        /* \"contracts/Ebay.sol\":9051:9059  auctions */\n      dup1\n        /* \"contracts/Ebay.sol\":9051:9071  auctions[_auctionId] */\n      0x00\n        /* \"contracts/Ebay.sol\":9060:9070  _auctionId */\n      dup6\n        /* \"contracts/Ebay.sol\":9051:9071  auctions[_auctionId] */\n      dup2\n      mstore\n      0x20\n      add\n      swap1\n      dup2\n      mstore\n      0x20\n      add\n      0x00\n      keccak256\n        /* \"contracts/Ebay.sol\":9025:9071  Auction storage auction = auctions[_auctionId] */\n      swap1\n      pop\n        /* \"contracts/Ebay.sol\":9081:9111  uint[] storage auctionOfferIds */\n      0x00\n        /* \"contracts/Ebay.sol\":9114:9121  auction */\n      dup2\n        /* \"contracts/Ebay.sol\":9114:9130  auction.offerIds */\n      0x07\n      add\n        /* \"contracts/Ebay.sol\":9081:9130  uint[] storage auctionOfferIds = auction.offerIds */\n      swap1\n      pop\n        /* \"contracts/Ebay.sol\":9141:9163  Offer[] memory _offers */\n      0x00\n        /* \"contracts/Ebay.sol\":9178:9193  auctionOfferIds */\n      dup2\n        /* \"contracts/Ebay.sol\":9178:9200  auctionOfferIds.length */\n      dup1\n      sload\n      swap1\n      pop\n        /* \"contracts/Ebay.sol\":9166:9201  new Offer[](auctionOfferIds.length) */\n      0xffffffffffffffff\n      dup2\n      gt\n      iszero\n      tag_182\n      jumpi\n      tag_183\n      tag_81\n      jump\t// in\n    tag_183:\n    tag_182:\n      mload(0x40)\n      swap1\n      dup1\n      dup3\n      mstore\n      dup1\n      0x20\n      mul\n      0x20\n      add\n      dup3\n      add\n      0x40\n      mstore\n      dup1\n      iszero\n      tag_184\n      jumpi\n      dup2\n      0x20\n      add\n    tag_185:\n      tag_186\n      tag_99\n      jump\t// in\n    tag_186:\n      dup2\n      mstore\n      0x20\n      add\n      swap1\n      0x01\n      swap1\n      sub\n      swap1\n      dup2\n      tag_185\n      jumpi\n      swap1\n      pop\n    tag_184:\n      pop\n        /* \"contracts/Ebay.sol\":9141:9201  Offer[] memory _offers = new Offer[](auctionOfferIds.length) */\n      swap1\n      pop\n        /* \"contracts/Ebay.sol\":9216:9222  uint i */\n      0x00\n        /* \"contracts/Ebay.sol\":9211:9361  for (uint i = 0; i < auctionOfferIds.length; i++) {... */\n    tag_187:\n        /* \"contracts/Ebay.sol\":9232:9247  auctionOfferIds */\n      dup3\n        /* \"contracts/Ebay.sol\":9232:9254  auctionOfferIds.length */\n      dup1\n      sload\n      swap1\n      pop\n        /* \"contracts/Ebay.sol\":9228:9229  i */\n      dup2\n        /* \"contracts/Ebay.sol\":9228:9254  i < auctionOfferIds.length */\n      lt\n        /* \"contracts/Ebay.sol\":9211:9361  for (uint i = 0; i < auctionOfferIds.length; i++) {... */\n      iszero\n      tag_188\n      jumpi\n        /* \"contracts/Ebay.sol\":9275:9287  uint offerId */\n      0x00\n        /* \"contracts/Ebay.sol\":9290:9305  auctionOfferIds */\n      dup4\n        /* \"contracts/Ebay.sol\":9306:9307  i */\n      dup3\n        /* \"contracts/Ebay.sol\":9290:9308  auctionOfferIds[i] */\n      dup2\n      sload\n      dup2\n      lt\n      tag_190\n      jumpi\n      tag_191\n      tag_105\n      jump\t// in\n    tag_191:\n    tag_190:\n      swap1\n      0x00\n      mstore\n      keccak256(0x00, 0x20)\n      add\n      sload\n        /* \"contracts/Ebay.sol\":9275:9308  uint offerId = auctionOfferIds[i] */\n      swap1\n      pop\n        /* \"contracts/Ebay.sol\":9335:9341  offers */\n      0x02\n        /* \"contracts/Ebay.sol\":9335:9350  offers[offerId] */\n      0x00\n        /* \"contracts/Ebay.sol\":9342:9349  offerId */\n      dup3\n        /* \"contracts/Ebay.sol\":9335:9350  offers[offerId] */\n      dup2\n      mstore\n      0x20\n      add\n      swap1\n      dup2\n      mstore\n      0x20\n      add\n      0x00\n      keccak256\n        /* \"contracts/Ebay.sol\":9322:9350  _offers[i] = offers[offerId] */\n      mload(0x40)\n      dup1\n      0x80\n      add\n      0x40\n      mstore\n      swap1\n      dup2\n      0x00\n      dup3\n      add\n      sload\n      dup2\n      mstore\n      0x20\n      add\n      0x01\n      dup3\n      add\n      sload\n      dup2\n      mstore\n      0x20\n      add\n      0x02\n      dup3\n      add\n      0x00\n      swap1\n      sload\n      swap1\n      0x0100\n      exp\n      swap1\n      div\n      0xffffffffffffffffffffffffffffffffffffffff\n      and\n      0xffffffffffffffffffffffffffffffffffffffff\n      and\n      0xffffffffffffffffffffffffffffffffffffffff\n      and\n      dup2\n      mstore\n      0x20\n      add\n      0x03\n      dup3\n      add\n      sload\n      dup2\n      mstore\n      pop\n      pop\n        /* \"contracts/Ebay.sol\":9322:9329  _offers */\n      dup4\n        /* \"contracts/Ebay.sol\":9330:9331  i */\n      dup4\n        /* \"contracts/Ebay.sol\":9322:9332  _offers[i] */\n      dup2\n      mload\n      dup2\n      lt\n      tag_193\n      jumpi\n      tag_194\n      tag_105\n      jump\t// in\n    tag_194:\n    tag_193:\n      0x20\n      mul\n      0x20\n      add\n      add\n        /* \"contracts/Ebay.sol\":9322:9350  _offers[i] = offers[offerId] */\n      dup2\n      swap1\n      mstore\n      pop\n        /* \"contracts/Ebay.sol\":9261:9361  {... */\n      pop\n        /* \"contracts/Ebay.sol\":9256:9259  i++ */\n      dup1\n      dup1\n      tag_195\n      swap1\n      tag_92\n      jump\t// in\n    tag_195:\n      swap2\n      pop\n      pop\n        /* \"contracts/Ebay.sol\":9211:9361  for (uint i = 0; i < auctionOfferIds.length; i++) {... */\n      jump(tag_187)\n    tag_188:\n      pop\n        /* \"contracts/Ebay.sol\":9377:9384  _offers */\n      dup1\n        /* \"contracts/Ebay.sol\":9370:9384  return _offers */\n      swap5\n      pop\n      pop\n      pop\n      pop\n        /* \"contracts/Ebay.sol\":8839:9391  function getAuctionOffers(uint _auctionId)... */\n      pop\n      swap2\n      swap1\n      pop\n      jump\t// out\n        /* \"contracts/Ebay.sol\":7436:7709  function getAuctions() external view returns (Auction[] memory) {... */\n    tag_52:\n        /* \"contracts/Ebay.sol\":7482:7498  Auction[] memory */\n      0x60\n        /* \"contracts/Ebay.sol\":7510:7536  Auction[] memory _auctions */\n      0x00\n        /* \"contracts/Ebay.sol\":7569:7570  1 */\n      0x01\n        /* \"contracts/Ebay.sol\":7553:7566  nextAuctionId */\n      dup1\n      sload\n        /* \"contracts/Ebay.sol\":7553:7570  nextAuctionId - 1 */\n      tag_197\n      swap2\n      swap1\n      tag_198\n      jump\t// in\n    tag_197:\n        /* \"contracts/Ebay.sol\":7539:7571  new Auction[](nextAuctionId - 1) */\n      0xffffffffffffffff\n      dup2\n      gt\n      iszero\n      tag_199\n      jumpi\n      tag_200\n      tag_81\n      jump\t// in\n    tag_200:\n    tag_199:\n      mload(0x40)\n      swap1\n      dup1\n      dup3\n      mstore\n      dup1\n      0x20\n      mul\n      0x20\n      add\n      dup3\n      add\n      0x40\n      mstore\n      dup1\n      iszero\n      tag_201\n      jumpi\n      dup2\n      0x20\n      add\n    tag_202:\n      tag_203\n      tag_204\n      jump\t// in\n    tag_203:\n      dup2\n      mstore\n      0x20\n      add\n      swap1\n      0x01\n      swap1\n      sub\n      swap1\n      dup2\n      tag_202\n      jumpi\n      swap1\n      pop\n    tag_201:\n      pop\n        /* \"contracts/Ebay.sol\":7510:7571  Auction[] memory _auctions = new Auction[](nextAuctionId - 1) */\n      swap1\n      pop\n        /* \"contracts/Ebay.sol\":7586:7592  uint i */\n      0x00\n        /* \"contracts/Ebay.sol\":7595:7596  1 */\n      0x01\n        /* \"contracts/Ebay.sol\":7586:7596  uint i = 1 */\n      swap1\n      pop\n        /* \"contracts/Ebay.sol\":7581:7677  for (uint i = 1; i < nextAuctionId; i++) {... */\n    tag_205:\n        /* \"contracts/Ebay.sol\":7602:7615  nextAuctionId */\n      sload(0x01)\n        /* \"contracts/Ebay.sol\":7598:7599  i */\n      dup2\n        /* \"contracts/Ebay.sol\":7598:7615  i < nextAuctionId */\n      lt\n        /* \"contracts/Ebay.sol\":7581:7677  for (uint i = 1; i < nextAuctionId; i++) {... */\n      iszero\n      tag_206\n      jumpi\n        /* \"contracts/Ebay.sol\":7655:7663  auctions */\n      0x00\n        /* \"contracts/Ebay.sol\":7655:7666  auctions[i] */\n      dup1\n        /* \"contracts/Ebay.sol\":7664:7665  i */\n      dup3\n        /* \"contracts/Ebay.sol\":7655:7666  auctions[i] */\n      dup2\n      mstore\n      0x20\n      add\n      swap1\n      dup2\n      mstore\n      0x20\n      add\n      0x00\n      keccak256\n        /* \"contracts/Ebay.sol\":7636:7666  _auctions[i - 1] = auctions[i] */\n      mload(0x40)\n      dup1\n      0x0100\n      add\n      0x40\n      mstore\n      swap1\n      dup2\n      0x00\n      dup3\n      add\n      sload\n      dup2\n      mstore\n      0x20\n      add\n      0x01\n      dup3\n      add\n      0x00\n      swap1\n      sload\n      swap1\n      0x0100\n      exp\n      swap1\n      div\n      0xffffffffffffffffffffffffffffffffffffffff\n      and\n      0xffffffffffffffffffffffffffffffffffffffff\n      and\n      0xffffffffffffffffffffffffffffffffffffffff\n      and\n      dup2\n      mstore\n      0x20\n      add\n      0x02\n      dup3\n      add\n      dup1\n      sload\n      tag_208\n      swap1\n      tag_65\n      jump\t// in\n    tag_208:\n      dup1\n      0x1f\n      add\n      0x20\n      dup1\n      swap2\n      div\n      mul\n      0x20\n      add\n      mload(0x40)\n      swap1\n      dup2\n      add\n      0x40\n      mstore\n      dup1\n      swap3\n      swap2\n      swap1\n      dup2\n      dup2\n      mstore\n      0x20\n      add\n      dup3\n      dup1\n      sload\n      tag_209\n      swap1\n      tag_65\n      jump\t// in\n    tag_209:\n      dup1\n      iszero\n      tag_210\n      jumpi\n      dup1\n      0x1f\n      lt\n      tag_211\n      jumpi\n      0x0100\n      dup1\n      dup4\n      sload\n      div\n      mul\n      dup4\n      mstore\n      swap2\n      0x20\n      add\n      swap2\n      jump(tag_210)\n    tag_211:\n      dup3\n      add\n      swap2\n      swap1\n      0x00\n      mstore\n      keccak256(0x00, 0x20)\n      swap1\n    tag_212:\n      dup2\n      sload\n      dup2\n      mstore\n      swap1\n      0x01\n      add\n      swap1\n      0x20\n      add\n      dup1\n      dup4\n      gt\n      tag_212\n      jumpi\n      dup3\n      swap1\n      sub\n      0x1f\n      and\n      dup3\n      add\n      swap2\n    tag_210:\n      pop\n      pop\n      pop\n      pop\n      pop\n      dup2\n      mstore\n      0x20\n      add\n      0x03\n      dup3\n      add\n      dup1\n      sload\n      tag_213\n      swap1\n      tag_65\n      jump\t// in\n    tag_213:\n      dup1\n      0x1f\n      add\n      0x20\n      dup1\n      swap2\n      div\n      mul\n      0x20\n      add\n      mload(0x40)\n      swap1\n      dup2\n      add\n      0x40\n      mstore\n      dup1\n      swap3\n      swap2\n      swap1\n      dup2\n      dup2\n      mstore\n      0x20\n      add\n      dup3\n      dup1\n      sload\n      tag_214\n      swap1\n      tag_65\n      jump\t// in\n    tag_214:\n      dup1\n      iszero\n      tag_215\n      jumpi\n      dup1\n      0x1f\n      lt\n      tag_216\n      jumpi\n      0x0100\n      dup1\n      dup4\n      sload\n      div\n      mul\n      dup4\n      mstore\n      swap2\n      0x20\n      add\n      swap2\n      jump(tag_215)\n    tag_216:\n      dup3\n      add\n      swap2\n      swap1\n      0x00\n      mstore\n      keccak256(0x00, 0x20)\n      swap1\n    tag_217:\n      dup2\n      sload\n      dup2\n      mstore\n      swap1\n      0x01\n      add\n      swap1\n      0x20\n      add\n      dup1\n      dup4\n      gt\n      tag_217\n      jumpi\n      dup3\n      swap1\n      sub\n      0x1f\n      and\n      dup3\n      add\n      swap2\n    tag_215:\n      pop\n      pop\n      pop\n      pop\n      pop\n      dup2\n      mstore\n      0x20\n      add\n      0x04\n      dup3\n      add\n      sload\n      dup2\n      mstore\n      0x20\n      add\n      0x05\n      dup3\n      add\n      sload\n      dup2\n      mstore\n      0x20\n      add\n      0x06\n      dup3\n      add\n      sload\n      dup2\n      mstore\n      0x20\n      add\n      0x07\n      dup3\n      add\n      dup1\n      sload\n      dup1\n      0x20\n      mul\n      0x20\n      add\n      mload(0x40)\n      swap1\n      dup2\n      add\n      0x40\n      mstore\n      dup1\n      swap3\n      swap2\n      swap1\n      dup2\n      dup2\n      mstore\n      0x20\n      add\n      dup3\n      dup1\n      sload\n      dup1\n      iszero\n      tag_218\n      jumpi\n      0x20\n      mul\n      dup3\n      add\n      swap2\n      swap1\n      0x00\n      mstore\n      keccak256(0x00, 0x20)\n      swap1\n    tag_219:\n      dup2\n      sload\n      dup2\n      mstore\n      0x20\n      add\n      swap1\n      0x01\n      add\n      swap1\n      dup1\n      dup4\n      gt\n      tag_219\n      jumpi\n    tag_218:\n      pop\n      pop\n      pop\n      pop\n      pop\n      dup2\n      mstore\n      pop\n      pop\n        /* \"contracts/Ebay.sol\":7636:7645  _auctions */\n      dup3\n        /* \"contracts/Ebay.sol\":7650:7651  1 */\n      0x01\n        /* \"contracts/Ebay.sol\":7646:7647  i */\n      dup4\n        /* \"contracts/Ebay.sol\":7646:7651  i - 1 */\n      tag_220\n      swap2\n      swap1\n      tag_198\n      jump\t// in\n    tag_220:\n        /* \"contracts/Ebay.sol\":7636:7652  _auctions[i - 1] */\n      dup2\n      mload\n      dup2\n      lt\n      tag_221\n      jumpi\n      tag_222\n      tag_105\n      jump\t// in\n    tag_222:\n    tag_221:\n      0x20\n      mul\n      0x20\n      add\n      add\n        /* \"contracts/Ebay.sol\":7636:7666  _auctions[i - 1] = auctions[i] */\n      dup2\n      swap1\n      mstore\n      pop\n        /* \"contracts/Ebay.sol\":7617:7620  i++ */\n      dup1\n      dup1\n      tag_223\n      swap1\n      tag_92\n      jump\t// in\n    tag_223:\n      swap2\n      pop\n      pop\n        /* \"contracts/Ebay.sol\":7581:7677  for (uint i = 1; i < nextAuctionId; i++) {... */\n      jump(tag_205)\n    tag_206:\n      pop\n        /* \"contracts/Ebay.sol\":7693:7702  _auctions */\n      dup1\n        /* \"contracts/Ebay.sol\":7686:7702  return _auctions */\n      swap2\n      pop\n      pop\n        /* \"contracts/Ebay.sol\":7436:7709  function getAuctions() external view returns (Auction[] memory) {... */\n      swap1\n      jump\t// out\n        /* \"contracts/Ebay.sol\":6378:7335  function trade(uint _auctionId) external auctionExists(_auctionId) {... */\n    tag_58:\n        /* \"contracts/Ebay.sol\":6433:6443  _auctionId */\n      dup1\n        /* \"contracts/Ebay.sol\":1553:1554  0 */\n      0x00\n        /* \"contracts/Ebay.sol\":1540:1550  _auctionId */\n      dup2\n        /* \"contracts/Ebay.sol\":1540:1554  _auctionId > 0 */\n      gt\n        /* \"contracts/Ebay.sol\":1540:1584  _auctionId > 0 && _auctionId < nextAuctionId */\n      dup1\n      iszero\n      tag_225\n      jumpi\n      pop\n        /* \"contracts/Ebay.sol\":1571:1584  nextAuctionId */\n      sload(0x01)\n        /* \"contracts/Ebay.sol\":1558:1568  _auctionId */\n      dup2\n        /* \"contracts/Ebay.sol\":1558:1584  _auctionId < nextAuctionId */\n      lt\n        /* \"contracts/Ebay.sol\":1540:1584  _auctionId > 0 && _auctionId < nextAuctionId */\n    tag_225:\n        /* \"contracts/Ebay.sol\":1519:1632  require(... */\n      tag_226\n      jumpi\n      mload(0x40)\n      0x08c379a000000000000000000000000000000000000000000000000000000000\n      dup2\n      mstore\n      0x04\n      add\n      tag_227\n      swap1\n      tag_114\n      jump\t// in\n    tag_227:\n      mload(0x40)\n      dup1\n      swap2\n      sub\n      swap1\n      revert\n    tag_226:\n        /* \"contracts/Ebay.sol\":6487:6510  Auction storage auction */\n      0x00\n        /* \"contracts/Ebay.sol\":6513:6521  auctions */\n      dup1\n        /* \"contracts/Ebay.sol\":6513:6533  auctions[_auctionId] */\n      0x00\n        /* \"contracts/Ebay.sol\":6522:6532  _auctionId */\n      dup5\n        /* \"contracts/Ebay.sol\":6513:6533  auctions[_auctionId] */\n      dup2\n      mstore\n      0x20\n      add\n      swap1\n      dup2\n      mstore\n      0x20\n      add\n      0x00\n      keccak256\n        /* \"contracts/Ebay.sol\":6487:6533  Auction storage auction = auctions[_auctionId] */\n      swap1\n      pop\n        /* \"contracts/Ebay.sol\":6579:6602  Offer storage bestOffer */\n      0x00\n        /* \"contracts/Ebay.sol\":6605:6611  offers */\n      0x02\n        /* \"contracts/Ebay.sol\":6605:6632  offers[auction.bestOfferId] */\n      0x00\n        /* \"contracts/Ebay.sol\":6612:6619  auction */\n      dup4\n        /* \"contracts/Ebay.sol\":6612:6631  auction.bestOfferId */\n      0x06\n      add\n      sload\n        /* \"contracts/Ebay.sol\":6605:6632  offers[auction.bestOfferId] */\n      dup2\n      mstore\n      0x20\n      add\n      swap1\n      dup2\n      mstore\n      0x20\n      add\n      0x00\n      keccak256\n        /* \"contracts/Ebay.sol\":6579:6632  Offer storage bestOffer = offers[auction.bestOfferId] */\n      swap1\n      pop\n        /* \"contracts/Ebay.sol\":6720:6727  auction */\n      dup2\n        /* \"contracts/Ebay.sol\":6720:6738  auction.auctionEnd */\n      0x05\n      add\n      sload\n        /* \"contracts/Ebay.sol\":6702:6717  block.timestamp */\n      timestamp\n        /* \"contracts/Ebay.sol\":6702:6738  block.timestamp > auction.auctionEnd */\n      gt\n        /* \"contracts/Ebay.sol\":6681:6787  require(... */\n      tag_229\n      jumpi\n      mload(0x40)\n      0x08c379a000000000000000000000000000000000000000000000000000000000\n      dup2\n      mstore\n      0x04\n      add\n      tag_230\n      swap1\n      tag_231\n      jump\t// in\n    tag_230:\n      mload(0x40)\n      dup1\n      swap2\n      sub\n      swap1\n      revert\n    tag_229:\n        /* \"contracts/Ebay.sol\":6842:6848  uint i */\n      0x00\n        /* \"contracts/Ebay.sol\":6837:7214  for (uint i = 0; i < auction.offerIds.length; i++) {... */\n    tag_232:\n        /* \"contracts/Ebay.sol\":6858:6865  auction */\n      dup3\n        /* \"contracts/Ebay.sol\":6858:6874  auction.offerIds */\n      0x07\n      add\n        /* \"contracts/Ebay.sol\":6858:6881  auction.offerIds.length */\n      dup1\n      sload\n      swap1\n      pop\n        /* \"contracts/Ebay.sol\":6854:6855  i */\n      dup2\n        /* \"contracts/Ebay.sol\":6854:6881  i < auction.offerIds.length */\n      lt\n        /* \"contracts/Ebay.sol\":6837:7214  for (uint i = 0; i < auction.offerIds.length; i++) {... */\n      iszero\n      tag_233\n      jumpi\n        /* \"contracts/Ebay.sol\":6902:6914  uint offerId */\n      0x00\n        /* \"contracts/Ebay.sol\":6917:6924  auction */\n      dup4\n        /* \"contracts/Ebay.sol\":6917:6933  auction.offerIds */\n      0x07\n      add\n        /* \"contracts/Ebay.sol\":6934:6935  i */\n      dup3\n        /* \"contracts/Ebay.sol\":6917:6936  auction.offerIds[i] */\n      dup2\n      sload\n      dup2\n      lt\n      tag_235\n      jumpi\n      tag_236\n      tag_105\n      jump\t// in\n    tag_236:\n    tag_235:\n      swap1\n      0x00\n      mstore\n      keccak256(0x00, 0x20)\n      add\n      sload\n        /* \"contracts/Ebay.sol\":6902:6936  uint offerId = auction.offerIds[i] */\n      swap1\n      pop\n        /* \"contracts/Ebay.sol\":6950:6969  Offer storage offer */\n      0x00\n        /* \"contracts/Ebay.sol\":6972:6978  offers */\n      0x02\n        /* \"contracts/Ebay.sol\":6972:6987  offers[offerId] */\n      0x00\n        /* \"contracts/Ebay.sol\":6979:6986  offerId */\n      dup4\n        /* \"contracts/Ebay.sol\":6972:6987  offers[offerId] */\n      dup2\n      mstore\n      0x20\n      add\n      swap1\n      dup2\n      mstore\n      0x20\n      add\n      0x00\n      keccak256\n        /* \"contracts/Ebay.sol\":6950:6987  Offer storage offer = offers[offerId] */\n      swap1\n      pop\n        /* \"contracts/Ebay.sol\":7110:7119  bestOffer */\n      dup4\n        /* \"contracts/Ebay.sol\":7110:7122  bestOffer.id */\n      0x00\n      add\n      sload\n        /* \"contracts/Ebay.sol\":7099:7106  offerId */\n      dup3\n        /* \"contracts/Ebay.sol\":7099:7122  offerId != bestOffer.id */\n      eq\n        /* \"contracts/Ebay.sol\":7095:7204  if (offerId != bestOffer.id) {... */\n      tag_238\n      jumpi\n        /* \"contracts/Ebay.sol\":7150:7155  offer */\n      dup1\n        /* \"contracts/Ebay.sol\":7150:7161  offer.buyer */\n      0x02\n      add\n      0x00\n      swap1\n      sload\n      swap1\n      0x0100\n      exp\n      swap1\n      div\n      0xffffffffffffffffffffffffffffffffffffffff\n      and\n        /* \"contracts/Ebay.sol\":7142:7171  payable(offer.buyer).transfer */\n      0xffffffffffffffffffffffffffffffffffffffff\n      and\n        /* \"contracts/Ebay.sol\":7142:7189  payable(offer.buyer).transfer(offer.offerPrice) */\n      0x08fc\n        /* \"contracts/Ebay.sol\":7172:7177  offer */\n      dup3\n        /* \"contracts/Ebay.sol\":7172:7188  offer.offerPrice */\n      0x03\n      add\n      sload\n        /* \"contracts/Ebay.sol\":7142:7189  payable(offer.buyer).transfer(offer.offerPrice) */\n      swap1\n      dup2\n      iszero\n      mul\n      swap1\n      mload(0x40)\n      0x00\n      mload(0x40)\n      dup1\n      dup4\n      sub\n      dup2\n      dup6\n      dup9\n      dup9\n      call\n      swap4\n      pop\n      pop\n      pop\n      pop\n      iszero\n      dup1\n      iszero\n      tag_240\n      jumpi\n      returndatasize\n      0x00\n      dup1\n      returndatacopy\n      revert(0x00, returndatasize)\n    tag_240:\n      pop\n        /* \"contracts/Ebay.sol\":7095:7204  if (offerId != bestOffer.id) {... */\n    tag_238:\n        /* \"contracts/Ebay.sol\":6888:7214  {... */\n      pop\n      pop\n        /* \"contracts/Ebay.sol\":6883:6886  i++ */\n      dup1\n      dup1\n      tag_241\n      swap1\n      tag_92\n      jump\t// in\n    tag_241:\n      swap2\n      pop\n      pop\n        /* \"contracts/Ebay.sol\":6837:7214  for (uint i = 0; i < auction.offerIds.length; i++) {... */\n      jump(tag_232)\n    tag_233:\n      pop\n        /* \"contracts/Ebay.sol\":7282:7289  auction */\n      dup2\n        /* \"contracts/Ebay.sol\":7282:7296  auction.seller */\n      0x01\n      add\n      0x00\n      swap1\n      sload\n      swap1\n      0x0100\n      exp\n      swap1\n      div\n      0xffffffffffffffffffffffffffffffffffffffff\n      and\n        /* \"contracts/Ebay.sol\":7274:7306  payable(auction.seller).transfer */\n      0xffffffffffffffffffffffffffffffffffffffff\n      and\n        /* \"contracts/Ebay.sol\":7274:7328  payable(auction.seller).transfer(bestOffer.offerPrice) */\n      0x08fc\n        /* \"contracts/Ebay.sol\":7307:7316  bestOffer */\n      dup3\n        /* \"contracts/Ebay.sol\":7307:7327  bestOffer.offerPrice */\n      0x03\n      add\n      sload\n        /* \"contracts/Ebay.sol\":7274:7328  payable(auction.seller).transfer(bestOffer.offerPrice) */\n      swap1\n      dup2\n      iszero\n      mul\n      swap1\n      mload(0x40)\n      0x00\n      mload(0x40)\n      dup1\n      dup4\n      sub\n      dup2\n      dup6\n      dup9\n      dup9\n      call\n      swap4\n      pop\n      pop\n      pop\n      pop\n      iszero\n      dup1\n      iszero\n      tag_243\n      jumpi\n      returndatasize\n      0x00\n      dup1\n      returndatacopy\n      revert(0x00, returndatasize)\n    tag_243:\n      pop\n        /* \"contracts/Ebay.sol\":6445:7335  {... */\n      pop\n      pop\n        /* \"contracts/Ebay.sol\":6378:7335  function trade(uint _auctionId) external auctionExists(_auctionId) {... */\n      pop\n      pop\n      jump\t// out\n        /* \"contracts/Ebay.sol\":7801:8244  function getUserAuctions(address _user)... */\n    tag_62:\n        /* \"contracts/Ebay.sol\":7888:7904  Auction[] memory */\n      0x60\n        /* \"contracts/Ebay.sol\":7920:7949  uint[] storage userAuctionIds */\n      0x00\n        /* \"contracts/Ebay.sol\":7952:7964  userAuctions */\n      0x04\n        /* \"contracts/Ebay.sol\":7952:7971  userAuctions[_user] */\n      0x00\n        /* \"contracts/Ebay.sol\":7965:7970  _user */\n      dup5\n        /* \"contracts/Ebay.sol\":7952:7971  userAuctions[_user] */\n      0xffffffffffffffffffffffffffffffffffffffff\n      and\n      0xffffffffffffffffffffffffffffffffffffffff\n      and\n      dup2\n      mstore\n      0x20\n      add\n      swap1\n      dup2\n      mstore\n      0x20\n      add\n      0x00\n      keccak256\n        /* \"contracts/Ebay.sol\":7920:7971  uint[] storage userAuctionIds = userAuctions[_user] */\n      swap1\n      pop\n        /* \"contracts/Ebay.sol\":7981:8007  Auction[] memory _auctions */\n      0x00\n        /* \"contracts/Ebay.sol\":8024:8038  userAuctionIds */\n      dup2\n        /* \"contracts/Ebay.sol\":8024:8045  userAuctionIds.length */\n      dup1\n      sload\n      swap1\n      pop\n        /* \"contracts/Ebay.sol\":8010:8046  new Auction[](userAuctionIds.length) */\n      0xffffffffffffffff\n      dup2\n      gt\n      iszero\n      tag_245\n      jumpi\n      tag_246\n      tag_81\n      jump\t// in\n    tag_246:\n    tag_245:\n      mload(0x40)\n      swap1\n      dup1\n      dup3\n      mstore\n      dup1\n      0x20\n      mul\n      0x20\n      add\n      dup3\n      add\n      0x40\n      mstore\n      dup1\n      iszero\n      tag_247\n      jumpi\n      dup2\n      0x20\n      add\n    tag_248:\n      tag_249\n      tag_204\n      jump\t// in\n    tag_249:\n      dup2\n      mstore\n      0x20\n      add\n      swap1\n      0x01\n      swap1\n      sub\n      swap1\n      dup2\n      tag_248\n      jumpi\n      swap1\n      pop\n    tag_247:\n      pop\n        /* \"contracts/Ebay.sol\":7981:8046  Auction[] memory _auctions = new Auction[](userAuctionIds.length) */\n      swap1\n      pop\n        /* \"contracts/Ebay.sol\":8061:8067  uint i */\n      0x00\n        /* \"contracts/Ebay.sol\":8056:8212  for (uint i = 0; i < userAuctionIds.length; i++) {... */\n    tag_250:\n        /* \"contracts/Ebay.sol\":8077:8091  userAuctionIds */\n      dup3\n        /* \"contracts/Ebay.sol\":8077:8098  userAuctionIds.length */\n      dup1\n      sload\n      swap1\n      pop\n        /* \"contracts/Ebay.sol\":8073:8074  i */\n      dup2\n        /* \"contracts/Ebay.sol\":8073:8098  i < userAuctionIds.length */\n      lt\n        /* \"contracts/Ebay.sol\":8056:8212  for (uint i = 0; i < userAuctionIds.length; i++) {... */\n      iszero\n      tag_251\n      jumpi\n        /* \"contracts/Ebay.sol\":8119:8133  uint auctionId */\n      0x00\n        /* \"contracts/Ebay.sol\":8136:8150  userAuctionIds */\n      dup4\n        /* \"contracts/Ebay.sol\":8151:8152  i */\n      dup3\n        /* \"contracts/Ebay.sol\":8136:8153  userAuctionIds[i] */\n      dup2\n      sload\n      dup2\n      lt\n      tag_253\n      jumpi\n      tag_254\n      tag_105\n      jump\t// in\n    tag_254:\n    tag_253:\n      swap1\n      0x00\n      mstore\n      keccak256(0x00, 0x20)\n      add\n      sload\n        /* \"contracts/Ebay.sol\":8119:8153  uint auctionId = userAuctionIds[i] */\n      swap1\n      pop\n        /* \"contracts/Ebay.sol\":8182:8190  auctions */\n      0x00\n        /* \"contracts/Ebay.sol\":8182:8201  auctions[auctionId] */\n      dup1\n        /* \"contracts/Ebay.sol\":8191:8200  auctionId */\n      dup3\n        /* \"contracts/Ebay.sol\":8182:8201  auctions[auctionId] */\n      dup2\n      mstore\n      0x20\n      add\n      swap1\n      dup2\n      mstore\n      0x20\n      add\n      0x00\n      keccak256\n        /* \"contracts/Ebay.sol\":8167:8201  _auctions[i] = auctions[auctionId] */\n      mload(0x40)\n      dup1\n      0x0100\n      add\n      0x40\n      mstore\n      swap1\n      dup2\n      0x00\n      dup3\n      add\n      sload\n      dup2\n      mstore\n      0x20\n      add\n      0x01\n      dup3\n      add\n      0x00\n      swap1\n      sload\n      swap1\n      0x0100\n      exp\n      swap1\n      div\n      0xffffffffffffffffffffffffffffffffffffffff\n      and\n      0xffffffffffffffffffffffffffffffffffffffff\n      and\n      0xffffffffffffffffffffffffffffffffffffffff\n      and\n      dup2\n      mstore\n      0x20\n      add\n      0x02\n      dup3\n      add\n      dup1\n      sload\n      tag_256\n      swap1\n      tag_65\n      jump\t// in\n    tag_256:\n      dup1\n      0x1f\n      add\n      0x20\n      dup1\n      swap2\n      div\n      mul\n      0x20\n      add\n      mload(0x40)\n      swap1\n      dup2\n      add\n      0x40\n      mstore\n      dup1\n      swap3\n      swap2\n      swap1\n      dup2\n      dup2\n      mstore\n      0x20\n      add\n      dup3\n      dup1\n      sload\n      tag_257\n      swap1\n      tag_65\n      jump\t// in\n    tag_257:\n      dup1\n      iszero\n      tag_258\n      jumpi\n      dup1\n      0x1f\n      lt\n      tag_259\n      jumpi\n      0x0100\n      dup1\n      dup4\n      sload\n      div\n      mul\n      dup4\n      mstore\n      swap2\n      0x20\n      add\n      swap2\n      jump(tag_258)\n    tag_259:\n      dup3\n      add\n      swap2\n      swap1\n      0x00\n      mstore\n      keccak256(0x00, 0x20)\n      swap1\n    tag_260:\n      dup2\n      sload\n      dup2\n      mstore\n      swap1\n      0x01\n      add\n      swap1\n      0x20\n      add\n      dup1\n      dup4\n      gt\n      tag_260\n      jumpi\n      dup3\n      swap1\n      sub\n      0x1f\n      and\n      dup3\n      add\n      swap2\n    tag_258:\n      pop\n      pop\n      pop\n      pop\n      pop\n      dup2\n      mstore\n      0x20\n      add\n      0x03\n      dup3\n      add\n      dup1\n      sload\n      tag_261\n      swap1\n      tag_65\n      jump\t// in\n    tag_261:\n      dup1\n      0x1f\n      add\n      0x20\n      dup1\n      swap2\n      div\n      mul\n      0x20\n      add\n      mload(0x40)\n      swap1\n      dup2\n      add\n      0x40\n      mstore\n      dup1\n      swap3\n      swap2\n      swap1\n      dup2\n      dup2\n      mstore\n      0x20\n      add\n      dup3\n      dup1\n      sload\n      tag_262\n      swap1\n      tag_65\n      jump\t// in\n    tag_262:\n      dup1\n      iszero\n      tag_263\n      jumpi\n      dup1\n      0x1f\n      lt\n      tag_264\n      jumpi\n      0x0100\n      dup1\n      dup4\n      sload\n      div\n      mul\n      dup4\n      mstore\n      swap2\n      0x20\n      add\n      swap2\n      jump(tag_263)\n    tag_264:\n      dup3\n      add\n      swap2\n      swap1\n      0x00\n      mstore\n      keccak256(0x00, 0x20)\n      swap1\n    tag_265:\n      dup2\n      sload\n      dup2\n      mstore\n      swap1\n      0x01\n      add\n      swap1\n      0x20\n      add\n      dup1\n      dup4\n      gt\n      tag_265\n      jumpi\n      dup3\n      swap1\n      sub\n      0x1f\n      and\n      dup3\n      add\n      swap2\n    tag_263:\n      pop\n      pop\n      pop\n      pop\n      pop\n      dup2\n      mstore\n      0x20\n      add\n      0x04\n      dup3\n      add\n      sload\n      dup2\n      mstore\n      0x20\n      add\n      0x05\n      dup3\n      add\n      sload\n      dup2\n      mstore\n      0x20\n      add\n      0x06\n      dup3\n      add\n      sload\n      dup2\n      mstore\n      0x20\n      add\n      0x07\n      dup3\n      add\n      dup1\n      sload\n      dup1\n      0x20\n      mul\n      0x20\n      add\n      mload(0x40)\n      swap1\n      dup2\n      add\n      0x40\n      mstore\n      dup1\n      swap3\n      swap2\n      swap1\n      dup2\n      dup2\n      mstore\n      0x20\n      add\n      dup3\n      dup1\n      sload\n      dup1\n      iszero\n      tag_266\n      jumpi\n      0x20\n      mul\n      dup3\n      add\n      swap2\n      swap1\n      0x00\n      mstore\n      keccak256(0x00, 0x20)\n      swap1\n    tag_267:\n      dup2\n      sload\n      dup2\n      mstore\n      0x20\n      add\n      swap1\n      0x01\n      add\n      swap1\n      dup1\n      dup4\n      gt\n      tag_267\n      jumpi\n    tag_266:\n      pop\n      pop\n      pop\n      pop\n      pop\n      dup2\n      mstore\n      pop\n      pop\n        /* \"contracts/Ebay.sol\":8167:8176  _auctions */\n      dup4\n        /* \"contracts/Ebay.sol\":8177:8178  i */\n      dup4\n        /* \"contracts/Ebay.sol\":8167:8179  _auctions[i] */\n      dup2\n      mload\n      dup2\n      lt\n      tag_268\n      jumpi\n      tag_269\n      tag_105\n      jump\t// in\n    tag_269:\n    tag_268:\n      0x20\n      mul\n      0x20\n      add\n      add\n        /* \"contracts/Ebay.sol\":8167:8201  _auctions[i] = auctions[auctionId] */\n      dup2\n      swap1\n      mstore\n      pop\n        /* \"contracts/Ebay.sol\":8105:8212  {... */\n      pop\n        /* \"contracts/Ebay.sol\":8100:8103  i++ */\n      dup1\n      dup1\n      tag_270\n      swap1\n      tag_92\n      jump\t// in\n    tag_270:\n      swap2\n      pop\n      pop\n        /* \"contracts/Ebay.sol\":8056:8212  for (uint i = 0; i < userAuctionIds.length; i++) {... */\n      jump(tag_250)\n    tag_251:\n      pop\n        /* \"contracts/Ebay.sol\":8228:8237  _auctions */\n      dup1\n        /* \"contracts/Ebay.sol\":8221:8237  return _auctions */\n      swap3\n      pop\n      pop\n      pop\n        /* \"contracts/Ebay.sol\":7801:8244  function getUserAuctions(address _user)... */\n      swap2\n      swap1\n      pop\n      jump\t// out\n    tag_89:\n      dup3\n      dup1\n      sload\n      dup3\n      dup3\n      sstore\n      swap1\n      0x00\n      mstore\n      keccak256(0x00, 0x20)\n      swap1\n      dup2\n      add\n      swap3\n      dup3\n      iszero\n      tag_271\n      jumpi\n      swap2\n      0x20\n      mul\n      dup3\n      add\n    tag_272:\n      dup3\n      dup2\n      gt\n      iszero\n      tag_273\n      jumpi\n      dup3\n      mload\n      dup3\n      sstore\n      swap2\n      0x20\n      add\n      swap2\n      swap1\n      0x01\n      add\n      swap1\n      jump(tag_272)\n    tag_273:\n    tag_271:\n      pop\n      swap1\n      pop\n      tag_274\n      swap2\n      swap1\n      tag_275\n      jump\t// in\n    tag_274:\n      pop\n      swap1\n      jump\t// out\n    tag_99:\n      mload(0x40)\n      dup1\n      0x80\n      add\n      0x40\n      mstore\n      dup1\n      0x00\n      dup2\n      mstore\n      0x20\n      add\n      0x00\n      dup2\n      mstore\n      0x20\n      add\n      and(0xffffffffffffffffffffffffffffffffffffffff, 0x00)\n      dup2\n      mstore\n      0x20\n      add\n      0x00\n      dup2\n      mstore\n      pop\n      swap1\n      jump\t// out\n    tag_148:\n      pop\n      dup1\n      sload\n      tag_276\n      swap1\n      tag_65\n      jump\t// in\n    tag_276:\n      0x00\n      dup3\n      sstore\n      dup1\n      0x1f\n      lt\n      tag_278\n      jumpi\n      pop\n      jump(tag_277)\n    tag_278:\n      0x1f\n      add\n      0x20\n      swap1\n      div\n      swap1\n      0x00\n      mstore\n      keccak256(0x00, 0x20)\n      swap1\n      dup2\n      add\n      swap1\n      tag_279\n      swap2\n      swap1\n      tag_275\n      jump\t// in\n    tag_279:\n    tag_277:\n      pop\n      jump\t// out\n    tag_151:\n      pop\n      dup1\n      sload\n      0x00\n      dup3\n      sstore\n      swap1\n      0x00\n      mstore\n      keccak256(0x00, 0x20)\n      swap1\n      dup2\n      add\n      swap1\n      tag_281\n      swap2\n      swap1\n      tag_275\n      jump\t// in\n    tag_281:\n      pop\n      jump\t// out\n    tag_204:\n      mload(0x40)\n      dup1\n      0x0100\n      add\n      0x40\n      mstore\n      dup1\n      0x00\n      dup2\n      mstore\n      0x20\n      add\n      and(0xffffffffffffffffffffffffffffffffffffffff, 0x00)\n      dup2\n      mstore\n      0x20\n      add\n      0x60\n      dup2\n      mstore\n      0x20\n      add\n      0x60\n      dup2\n      mstore\n      0x20\n      add\n      0x00\n      dup2\n      mstore\n      0x20\n      add\n      0x00\n      dup2\n      mstore\n      0x20\n      add\n      0x00\n      dup2\n      mstore\n      0x20\n      add\n      0x60\n      dup2\n      mstore\n      pop\n      swap1\n      jump\t// out\n    tag_275:\n    tag_282:\n      dup1\n      dup3\n      gt\n      iszero\n      tag_283\n      jumpi\n      0x00\n      dup2\n      0x00\n      swap1\n      sstore\n      pop\n      0x01\n      add\n      jump(tag_282)\n    tag_283:\n      pop\n      swap1\n      jump\t// out\n        /* \"#utility.yul\":88:205   */\n    tag_285:\n        /* \"#utility.yul\":197:198   */\n      0x00\n        /* \"#utility.yul\":194:195   */\n      dup1\n        /* \"#utility.yul\":187:199   */\n      revert\n        /* \"#utility.yul\":211:328   */\n    tag_286:\n        /* \"#utility.yul\":320:321   */\n      0x00\n        /* \"#utility.yul\":317:318   */\n      dup1\n        /* \"#utility.yul\":310:322   */\n      revert\n        /* \"#utility.yul\":334:411   */\n    tag_287:\n        /* \"#utility.yul\":371:378   */\n      0x00\n        /* \"#utility.yul\":400:405   */\n      dup2\n        /* \"#utility.yul\":389:405   */\n      swap1\n      pop\n        /* \"#utility.yul\":334:411   */\n      swap2\n      swap1\n      pop\n      jump\t// out\n        /* \"#utility.yul\":417:539   */\n    tag_288:\n        /* \"#utility.yul\":490:514   */\n      tag_362\n        /* \"#utility.yul\":508:513   */\n      dup2\n        /* \"#utility.yul\":490:514   */\n      tag_287\n      jump\t// in\n    tag_362:\n        /* \"#utility.yul\":483:488   */\n      dup2\n        /* \"#utility.yul\":480:515   */\n      eq\n        /* \"#utility.yul\":470:533   */\n      tag_363\n      jumpi\n        /* \"#utility.yul\":529:530   */\n      0x00\n        /* \"#utility.yul\":526:527   */\n      dup1\n        /* \"#utility.yul\":519:531   */\n      revert\n        /* \"#utility.yul\":470:533   */\n    tag_363:\n        /* \"#utility.yul\":417:539   */\n      pop\n      jump\t// out\n        /* \"#utility.yul\":545:684   */\n    tag_289:\n        /* \"#utility.yul\":591:596   */\n      0x00\n        /* \"#utility.yul\":629:635   */\n      dup2\n        /* \"#utility.yul\":616:636   */\n      calldataload\n        /* \"#utility.yul\":607:636   */\n      swap1\n      pop\n        /* \"#utility.yul\":645:678   */\n      tag_365\n        /* \"#utility.yul\":672:677   */\n      dup2\n        /* \"#utility.yul\":645:678   */\n      tag_288\n      jump\t// in\n    tag_365:\n        /* \"#utility.yul\":545:684   */\n      swap3\n      swap2\n      pop\n      pop\n      jump\t// out\n        /* \"#utility.yul\":690:1019   */\n    tag_16:\n        /* \"#utility.yul\":749:755   */\n      0x00\n        /* \"#utility.yul\":798:800   */\n      0x20\n        /* \"#utility.yul\":786:795   */\n      dup3\n        /* \"#utility.yul\":777:784   */\n      dup5\n        /* \"#utility.yul\":773:796   */\n      sub\n        /* \"#utility.yul\":769:801   */\n      slt\n        /* \"#utility.yul\":766:885   */\n      iszero\n      tag_367\n      jumpi\n        /* \"#utility.yul\":804:883   */\n      tag_368\n      tag_285\n      jump\t// in\n    tag_368:\n        /* \"#utility.yul\":766:885   */\n    tag_367:\n        /* \"#utility.yul\":924:925   */\n      0x00\n        /* \"#utility.yul\":949:1002   */\n      tag_369\n        /* \"#utility.yul\":994:1001   */\n      dup5\n        /* \"#utility.yul\":985:991   */\n      dup3\n        /* \"#utility.yul\":974:983   */\n      dup6\n        /* \"#utility.yul\":970:992   */\n      add\n        /* \"#utility.yul\":949:1002   */\n      tag_289\n      jump\t// in\n    tag_369:\n        /* \"#utility.yul\":939:1002   */\n      swap2\n      pop\n        /* \"#utility.yul\":895:1012   */\n      pop\n        /* \"#utility.yul\":690:1019   */\n      swap3\n      swap2\n      pop\n      pop\n      jump\t// out\n        /* \"#utility.yul\":1025:1143   */\n    tag_290:\n        /* \"#utility.yul\":1112:1136   */\n      tag_371\n        /* \"#utility.yul\":1130:1135   */\n      dup2\n        /* \"#utility.yul\":1112:1136   */\n      tag_287\n      jump\t// in\n    tag_371:\n        /* \"#utility.yul\":1107:1110   */\n      dup3\n        /* \"#utility.yul\":1100:1137   */\n      mstore\n        /* \"#utility.yul\":1025:1143   */\n      pop\n      pop\n      jump\t// out\n        /* \"#utility.yul\":1149:1275   */\n    tag_291:\n        /* \"#utility.yul\":1186:1193   */\n      0x00\n        /* \"#utility.yul\":1226:1268   */\n      0xffffffffffffffffffffffffffffffffffffffff\n        /* \"#utility.yul\":1219:1224   */\n      dup3\n        /* \"#utility.yul\":1215:1269   */\n      and\n        /* \"#utility.yul\":1204:1269   */\n      swap1\n      pop\n        /* \"#utility.yul\":1149:1275   */\n      swap2\n      swap1\n      pop\n      jump\t// out\n        /* \"#utility.yul\":1281:1377   */\n    tag_292:\n        /* \"#utility.yul\":1318:1325   */\n      0x00\n        /* \"#utility.yul\":1347:1371   */\n      tag_374\n        /* \"#utility.yul\":1365:1370   */\n      dup3\n        /* \"#utility.yul\":1347:1371   */\n      tag_291\n      jump\t// in\n    tag_374:\n        /* \"#utility.yul\":1336:1371   */\n      swap1\n      pop\n        /* \"#utility.yul\":1281:1377   */\n      swap2\n      swap1\n      pop\n      jump\t// out\n        /* \"#utility.yul\":1383:1501   */\n    tag_293:\n        /* \"#utility.yul\":1470:1494   */\n      tag_376\n        /* \"#utility.yul\":1488:1493   */\n      dup2\n        /* \"#utility.yul\":1470:1494   */\n      tag_292\n      jump\t// in\n    tag_376:\n        /* \"#utility.yul\":1465:1468   */\n      dup3\n        /* \"#utility.yul\":1458:1495   */\n      mstore\n        /* \"#utility.yul\":1383:1501   */\n      pop\n      pop\n      jump\t// out\n        /* \"#utility.yul\":1507:1606   */\n    tag_294:\n        /* \"#utility.yul\":1559:1565   */\n      0x00\n        /* \"#utility.yul\":1593:1598   */\n      dup2\n        /* \"#utility.yul\":1587:1599   */\n      mload\n        /* \"#utility.yul\":1577:1599   */\n      swap1\n      pop\n        /* \"#utility.yul\":1507:1606   */\n      swap2\n      swap1\n      pop\n      jump\t// out\n        /* \"#utility.yul\":1612:1781   */\n    tag_295:\n        /* \"#utility.yul\":1696:1707   */\n      0x00\n        /* \"#utility.yul\":1730:1736   */\n      dup3\n        /* \"#utility.yul\":1725:1728   */\n      dup3\n        /* \"#utility.yul\":1718:1737   */\n      mstore\n        /* \"#utility.yul\":1770:1774   */\n      0x20\n        /* \"#utility.yul\":1765:1768   */\n      dup3\n        /* \"#utility.yul\":1761:1775   */\n      add\n        /* \"#utility.yul\":1746:1775   */\n      swap1\n      pop\n        /* \"#utility.yul\":1612:1781   */\n      swap3\n      swap2\n      pop\n      pop\n      jump\t// out\n        /* \"#utility.yul\":1787:2033   */\n    tag_296:\n        /* \"#utility.yul\":1868:1869   */\n      0x00\n        /* \"#utility.yul\":1878:1991   */\n    tag_380:\n        /* \"#utility.yul\":1892:1898   */\n      dup4\n        /* \"#utility.yul\":1889:1890   */\n      dup2\n        /* \"#utility.yul\":1886:1899   */\n      lt\n        /* \"#utility.yul\":1878:1991   */\n      iszero\n      tag_382\n      jumpi\n        /* \"#utility.yul\":1977:1978   */\n      dup1\n        /* \"#utility.yul\":1972:1975   */\n      dup3\n        /* \"#utility.yul\":1968:1979   */\n      add\n        /* \"#utility.yul\":1962:1980   */\n      mload\n        /* \"#utility.yul\":1958:1959   */\n      dup2\n        /* \"#utility.yul\":1953:1956   */\n      dup5\n        /* \"#utility.yul\":1949:1960   */\n      add\n        /* \"#utility.yul\":1942:1981   */\n      mstore\n        /* \"#utility.yul\":1914:1916   */\n      0x20\n        /* \"#utility.yul\":1911:1912   */\n      dup2\n        /* \"#utility.yul\":1907:1917   */\n      add\n        /* \"#utility.yul\":1902:1917   */\n      swap1\n      pop\n        /* \"#utility.yul\":1878:1991   */\n      jump(tag_380)\n    tag_382:\n        /* \"#utility.yul\":2025:2026   */\n      0x00\n        /* \"#utility.yul\":2016:2022   */\n      dup5\n        /* \"#utility.yul\":2011:2014   */\n      dup5\n        /* \"#utility.yul\":2007:2023   */\n      add\n        /* \"#utility.yul\":2000:2027   */\n      mstore\n        /* \"#utility.yul\":1849:2033   */\n      pop\n        /* \"#utility.yul\":1787:2033   */\n      pop\n      pop\n      pop\n      jump\t// out\n        /* \"#utility.yul\":2039:2141   */\n    tag_297:\n        /* \"#utility.yul\":2080:2086   */\n      0x00\n        /* \"#utility.yul\":2131:2133   */\n      0x1f\n        /* \"#utility.yul\":2127:2134   */\n      not\n        /* \"#utility.yul\":2122:2124   */\n      0x1f\n        /* \"#utility.yul\":2115:2120   */\n      dup4\n        /* \"#utility.yul\":2111:2125   */\n      add\n        /* \"#utility.yul\":2107:2135   */\n      and\n        /* \"#utility.yul\":2097:2135   */\n      swap1\n      pop\n        /* \"#utility.yul\":2039:2141   */\n      swap2\n      swap1\n      pop\n      jump\t// out\n        /* \"#utility.yul\":2147:2524   */\n    tag_298:\n        /* \"#utility.yul\":2235:2238   */\n      0x00\n        /* \"#utility.yul\":2263:2302   */\n      tag_385\n        /* \"#utility.yul\":2296:2301   */\n      dup3\n        /* \"#utility.yul\":2263:2302   */\n      tag_294\n      jump\t// in\n    tag_385:\n        /* \"#utility.yul\":2318:2389   */\n      tag_386\n        /* \"#utility.yul\":2382:2388   */\n      dup2\n        /* \"#utility.yul\":2377:2380   */\n      dup6\n        /* \"#utility.yul\":2318:2389   */\n      tag_295\n      jump\t// in\n    tag_386:\n        /* \"#utility.yul\":2311:2389   */\n      swap4\n      pop\n        /* \"#utility.yul\":2398:2463   */\n      tag_387\n        /* \"#utility.yul\":2456:2462   */\n      dup2\n        /* \"#utility.yul\":2451:2454   */\n      dup6\n        /* \"#utility.yul\":2444:2448   */\n      0x20\n        /* \"#utility.yul\":2437:2442   */\n      dup7\n        /* \"#utility.yul\":2433:2449   */\n      add\n        /* \"#utility.yul\":2398:2463   */\n      tag_296\n      jump\t// in\n    tag_387:\n        /* \"#utility.yul\":2488:2517   */\n      tag_388\n        /* \"#utility.yul\":2510:2516   */\n      dup2\n        /* \"#utility.yul\":2488:2517   */\n      tag_297\n      jump\t// in\n    tag_388:\n        /* \"#utility.yul\":2483:2486   */\n      dup5\n        /* \"#utility.yul\":2479:2518   */\n      add\n        /* \"#utility.yul\":2472:2518   */\n      swap2\n      pop\n        /* \"#utility.yul\":2239:2524   */\n      pop\n        /* \"#utility.yul\":2147:2524   */\n      swap3\n      swap2\n      pop\n      pop\n      jump\t// out\n        /* \"#utility.yul\":2530:3598   */\n    tag_19:\n        /* \"#utility.yul\":2831:2835   */\n      0x00\n        /* \"#utility.yul\":2869:2872   */\n      0xe0\n        /* \"#utility.yul\":2858:2867   */\n      dup3\n        /* \"#utility.yul\":2854:2873   */\n      add\n        /* \"#utility.yul\":2846:2873   */\n      swap1\n      pop\n        /* \"#utility.yul\":2883:2954   */\n      tag_390\n        /* \"#utility.yul\":2951:2952   */\n      0x00\n        /* \"#utility.yul\":2940:2949   */\n      dup4\n        /* \"#utility.yul\":2936:2953   */\n      add\n        /* \"#utility.yul\":2927:2933   */\n      dup11\n        /* \"#utility.yul\":2883:2954   */\n      tag_290\n      jump\t// in\n    tag_390:\n        /* \"#utility.yul\":2964:3036   */\n      tag_391\n        /* \"#utility.yul\":3032:3034   */\n      0x20\n        /* \"#utility.yul\":3021:3030   */\n      dup4\n        /* \"#utility.yul\":3017:3035   */\n      add\n        /* \"#utility.yul\":3008:3014   */\n      dup10\n        /* \"#utility.yul\":2964:3036   */\n      tag_293\n      jump\t// in\n    tag_391:\n        /* \"#utility.yul\":3083:3092   */\n      dup2\n        /* \"#utility.yul\":3077:3081   */\n      dup2\n        /* \"#utility.yul\":3073:3093   */\n      sub\n        /* \"#utility.yul\":3068:3070   */\n      0x40\n        /* \"#utility.yul\":3057:3066   */\n      dup4\n        /* \"#utility.yul\":3053:3071   */\n      add\n        /* \"#utility.yul\":3046:3094   */\n      mstore\n        /* \"#utility.yul\":3111:3189   */\n      tag_392\n        /* \"#utility.yul\":3184:3188   */\n      dup2\n        /* \"#utility.yul\":3175:3181   */\n      dup9\n        /* \"#utility.yul\":3111:3189   */\n      tag_298\n      jump\t// in\n    tag_392:\n        /* \"#utility.yul\":3103:3189   */\n      swap1\n      pop\n        /* \"#utility.yul\":3236:3245   */\n      dup2\n        /* \"#utility.yul\":3230:3234   */\n      dup2\n        /* \"#utility.yul\":3226:3246   */\n      sub\n        /* \"#utility.yul\":3221:3223   */\n      0x60\n        /* \"#utility.yul\":3210:3219   */\n      dup4\n        /* \"#utility.yul\":3206:3224   */\n      add\n        /* \"#utility.yul\":3199:3247   */\n      mstore\n        /* \"#utility.yul\":3264:3342   */\n      tag_393\n        /* \"#utility.yul\":3337:3341   */\n      dup2\n        /* \"#utility.yul\":3328:3334   */\n      dup8\n        /* \"#utility.yul\":3264:3342   */\n      tag_298\n      jump\t// in\n    tag_393:\n        /* \"#utility.yul\":3256:3342   */\n      swap1\n      pop\n        /* \"#utility.yul\":3352:3425   */\n      tag_394\n        /* \"#utility.yul\":3420:3423   */\n      0x80\n        /* \"#utility.yul\":3409:3418   */\n      dup4\n        /* \"#utility.yul\":3405:3424   */\n      add\n        /* \"#utility.yul\":3396:3402   */\n      dup7\n        /* \"#utility.yul\":3352:3425   */\n      tag_290\n      jump\t// in\n    tag_394:\n        /* \"#utility.yul\":3435:3508   */\n      tag_395\n        /* \"#utility.yul\":3503:3506   */\n      0xa0\n        /* \"#utility.yul\":3492:3501   */\n      dup4\n        /* \"#utility.yul\":3488:3507   */\n      add\n        /* \"#utility.yul\":3479:3485   */\n      dup6\n        /* \"#utility.yul\":3435:3508   */\n      tag_290\n      jump\t// in\n    tag_395:\n        /* \"#utility.yul\":3518:3591   */\n      tag_396\n        /* \"#utility.yul\":3586:3589   */\n      0xc0\n        /* \"#utility.yul\":3575:3584   */\n      dup4\n        /* \"#utility.yul\":3571:3590   */\n      add\n        /* \"#utility.yul\":3562:3568   */\n      dup5\n        /* \"#utility.yul\":3518:3591   */\n      tag_290\n      jump\t// in\n    tag_396:\n        /* \"#utility.yul\":2530:3598   */\n      swap9\n      swap8\n      pop\n      pop\n      pop\n      pop\n      pop\n      pop\n      pop\n      pop\n      jump\t// out\n        /* \"#utility.yul\":3604:3721   */\n    tag_299:\n        /* \"#utility.yul\":3713:3714   */\n      0x00\n        /* \"#utility.yul\":3710:3711   */\n      dup1\n        /* \"#utility.yul\":3703:3715   */\n      revert\n        /* \"#utility.yul\":3727:3844   */\n    tag_300:\n        /* \"#utility.yul\":3836:3837   */\n      0x00\n        /* \"#utility.yul\":3833:3834   */\n      dup1\n        /* \"#utility.yul\":3826:3838   */\n      revert\n        /* \"#utility.yul\":3850:3967   */\n    tag_301:\n        /* \"#utility.yul\":3959:3960   */\n      0x00\n        /* \"#utility.yul\":3956:3957   */\n      dup1\n        /* \"#utility.yul\":3949:3961   */\n      revert\n        /* \"#utility.yul\":3987:4540   */\n    tag_302:\n        /* \"#utility.yul\":4045:4053   */\n      0x00\n        /* \"#utility.yul\":4055:4061   */\n      dup1\n        /* \"#utility.yul\":4105:4108   */\n      dup4\n        /* \"#utility.yul\":4098:4102   */\n      0x1f\n        /* \"#utility.yul\":4090:4096   */\n      dup5\n        /* \"#utility.yul\":4086:4103   */\n      add\n        /* \"#utility.yul\":4082:4109   */\n      slt\n        /* \"#utility.yul\":4072:4194   */\n      tag_401\n      jumpi\n        /* \"#utility.yul\":4113:4192   */\n      tag_402\n      tag_299\n      jump\t// in\n    tag_402:\n        /* \"#utility.yul\":4072:4194   */\n    tag_401:\n        /* \"#utility.yul\":4226:4232   */\n      dup3\n        /* \"#utility.yul\":4213:4233   */\n      calldataload\n        /* \"#utility.yul\":4203:4233   */\n      swap1\n      pop\n        /* \"#utility.yul\":4256:4274   */\n      0xffffffffffffffff\n        /* \"#utility.yul\":4248:4254   */\n      dup2\n        /* \"#utility.yul\":4245:4275   */\n      gt\n        /* \"#utility.yul\":4242:4359   */\n      iszero\n      tag_403\n      jumpi\n        /* \"#utility.yul\":4278:4357   */\n      tag_404\n      tag_300\n      jump\t// in\n    tag_404:\n        /* \"#utility.yul\":4242:4359   */\n    tag_403:\n        /* \"#utility.yul\":4392:4396   */\n      0x20\n        /* \"#utility.yul\":4384:4390   */\n      dup4\n        /* \"#utility.yul\":4380:4397   */\n      add\n        /* \"#utility.yul\":4368:4397   */\n      swap2\n      pop\n        /* \"#utility.yul\":4446:4449   */\n      dup4\n        /* \"#utility.yul\":4438:4442   */\n      0x01\n        /* \"#utility.yul\":4430:4436   */\n      dup3\n        /* \"#utility.yul\":4426:4443   */\n      mul\n        /* \"#utility.yul\":4416:4424   */\n      dup4\n        /* \"#utility.yul\":4412:4444   */\n      add\n        /* \"#utility.yul\":4409:4450   */\n      gt\n        /* \"#utility.yul\":4406:4534   */\n      iszero\n      tag_405\n      jumpi\n        /* \"#utility.yul\":4453:4532   */\n      tag_406\n      tag_301\n      jump\t// in\n    tag_406:\n        /* \"#utility.yul\":4406:4534   */\n    tag_405:\n        /* \"#utility.yul\":3987:4540   */\n      swap3\n      pop\n      swap3\n      swap1\n      pop\n      jump\t// out\n        /* \"#utility.yul\":4546:5711   */\n    tag_23:\n        /* \"#utility.yul\":4656:4662   */\n      0x00\n        /* \"#utility.yul\":4664:4670   */\n      dup1\n        /* \"#utility.yul\":4672:4678   */\n      0x00\n        /* \"#utility.yul\":4680:4686   */\n      dup1\n        /* \"#utility.yul\":4688:4694   */\n      0x00\n        /* \"#utility.yul\":4696:4702   */\n      dup1\n        /* \"#utility.yul\":4745:4748   */\n      0x80\n        /* \"#utility.yul\":4733:4742   */\n      dup8\n        /* \"#utility.yul\":4724:4731   */\n      dup10\n        /* \"#utility.yul\":4720:4743   */\n      sub\n        /* \"#utility.yul\":4716:4749   */\n      slt\n        /* \"#utility.yul\":4713:4833   */\n      iszero\n      tag_408\n      jumpi\n        /* \"#utility.yul\":4752:4831   */\n      tag_409\n      tag_285\n      jump\t// in\n    tag_409:\n        /* \"#utility.yul\":4713:4833   */\n    tag_408:\n        /* \"#utility.yul\":4900:4901   */\n      0x00\n        /* \"#utility.yul\":4889:4898   */\n      dup8\n        /* \"#utility.yul\":4885:4902   */\n      add\n        /* \"#utility.yul\":4872:4903   */\n      calldataload\n        /* \"#utility.yul\":4930:4948   */\n      0xffffffffffffffff\n        /* \"#utility.yul\":4922:4928   */\n      dup2\n        /* \"#utility.yul\":4919:4949   */\n      gt\n        /* \"#utility.yul\":4916:5033   */\n      iszero\n      tag_410\n      jumpi\n        /* \"#utility.yul\":4952:5031   */\n      tag_411\n      tag_286\n      jump\t// in\n    tag_411:\n        /* \"#utility.yul\":4916:5033   */\n    tag_410:\n        /* \"#utility.yul\":5065:5130   */\n      tag_412\n        /* \"#utility.yul\":5122:5129   */\n      dup10\n        /* \"#utility.yul\":5113:5119   */\n      dup3\n        /* \"#utility.yul\":5102:5111   */\n      dup11\n        /* \"#utility.yul\":5098:5120   */\n      add\n        /* \"#utility.yul\":5065:5130   */\n      tag_302\n      jump\t// in\n    tag_412:\n        /* \"#utility.yul\":5047:5130   */\n      swap7\n      pop\n      swap7\n      pop\n        /* \"#utility.yul\":4843:5140   */\n      pop\n        /* \"#utility.yul\":5207:5209   */\n      0x20\n        /* \"#utility.yul\":5196:5205   */\n      dup8\n        /* \"#utility.yul\":5192:5210   */\n      add\n        /* \"#utility.yul\":5179:5211   */\n      calldataload\n        /* \"#utility.yul\":5238:5256   */\n      0xffffffffffffffff\n        /* \"#utility.yul\":5230:5236   */\n      dup2\n        /* \"#utility.yul\":5227:5257   */\n      gt\n        /* \"#utility.yul\":5224:5341   */\n      iszero\n      tag_413\n      jumpi\n        /* \"#utility.yul\":5260:5339   */\n      tag_414\n      tag_286\n      jump\t// in\n    tag_414:\n        /* \"#utility.yul\":5224:5341   */\n    tag_413:\n        /* \"#utility.yul\":5373:5438   */\n      tag_415\n        /* \"#utility.yul\":5430:5437   */\n      dup10\n        /* \"#utility.yul\":5421:5427   */\n      dup3\n        /* \"#utility.yul\":5410:5419   */\n      dup11\n        /* \"#utility.yul\":5406:5428   */\n      add\n        /* \"#utility.yul\":5373:5438   */\n      tag_302\n      jump\t// in\n    tag_415:\n        /* \"#utility.yul\":5355:5438   */\n      swap5\n      pop\n      swap5\n      pop\n        /* \"#utility.yul\":5150:5448   */\n      pop\n        /* \"#utility.yul\":5487:5489   */\n      0x40\n        /* \"#utility.yul\":5513:5566   */\n      tag_416\n        /* \"#utility.yul\":5558:5565   */\n      dup10\n        /* \"#utility.yul\":5549:5555   */\n      dup3\n        /* \"#utility.yul\":5538:5547   */\n      dup11\n        /* \"#utility.yul\":5534:5556   */\n      add\n        /* \"#utility.yul\":5513:5566   */\n      tag_289\n      jump\t// in\n    tag_416:\n        /* \"#utility.yul\":5503:5566   */\n      swap3\n      pop\n        /* \"#utility.yul\":5458:5576   */\n      pop\n        /* \"#utility.yul\":5615:5617   */\n      0x60\n        /* \"#utility.yul\":5641:5694   */\n      tag_417\n        /* \"#utility.yul\":5686:5693   */\n      dup10\n        /* \"#utility.yul\":5677:5683   */\n      dup3\n        /* \"#utility.yul\":5666:5675   */\n      dup11\n        /* \"#utility.yul\":5662:5684   */\n      add\n        /* \"#utility.yul\":5641:5694   */\n      tag_289\n      jump\t// in\n    tag_417:\n        /* \"#utility.yul\":5631:5694   */\n      swap2\n      pop\n        /* \"#utility.yul\":5586:5704   */\n      pop\n        /* \"#utility.yul\":4546:5711   */\n      swap3\n      swap6\n      pop\n      swap3\n      swap6\n      pop\n      swap3\n      swap6\n      jump\t// out\n        /* \"#utility.yul\":5717:5839   */\n    tag_303:\n        /* \"#utility.yul\":5790:5814   */\n      tag_419\n        /* \"#utility.yul\":5808:5813   */\n      dup2\n        /* \"#utility.yul\":5790:5814   */\n      tag_292\n      jump\t// in\n    tag_419:\n        /* \"#utility.yul\":5783:5788   */\n      dup2\n        /* \"#utility.yul\":5780:5815   */\n      eq\n        /* \"#utility.yul\":5770:5833   */\n      tag_420\n      jumpi\n        /* \"#utility.yul\":5829:5830   */\n      0x00\n        /* \"#utility.yul\":5826:5827   */\n      dup1\n        /* \"#utility.yul\":5819:5831   */\n      revert\n        /* \"#utility.yul\":5770:5833   */\n    tag_420:\n        /* \"#utility.yul\":5717:5839   */\n      pop\n      jump\t// out\n        /* \"#utility.yul\":5845:5984   */\n    tag_304:\n        /* \"#utility.yul\":5891:5896   */\n      0x00\n        /* \"#utility.yul\":5929:5935   */\n      dup2\n        /* \"#utility.yul\":5916:5936   */\n      calldataload\n        /* \"#utility.yul\":5907:5936   */\n      swap1\n      pop\n        /* \"#utility.yul\":5945:5978   */\n      tag_422\n        /* \"#utility.yul\":5972:5977   */\n      dup2\n        /* \"#utility.yul\":5945:5978   */\n      tag_303\n      jump\t// in\n    tag_422:\n        /* \"#utility.yul\":5845:5984   */\n      swap3\n      swap2\n      pop\n      pop\n      jump\t// out\n        /* \"#utility.yul\":5990:6319   */\n    tag_28:\n        /* \"#utility.yul\":6049:6055   */\n      0x00\n        /* \"#utility.yul\":6098:6100   */\n      0x20\n        /* \"#utility.yul\":6086:6095   */\n      dup3\n        /* \"#utility.yul\":6077:6084   */\n      dup5\n        /* \"#utility.yul\":6073:6096   */\n      sub\n        /* \"#utility.yul\":6069:6101   */\n      slt\n        /* \"#utility.yul\":6066:6185   */\n      iszero\n      tag_424\n      jumpi\n        /* \"#utility.yul\":6104:6183   */\n      tag_425\n      tag_285\n      jump\t// in\n    tag_425:\n        /* \"#utility.yul\":6066:6185   */\n    tag_424:\n        /* \"#utility.yul\":6224:6225   */\n      0x00\n        /* \"#utility.yul\":6249:6302   */\n      tag_426\n        /* \"#utility.yul\":6294:6301   */\n      dup5\n        /* \"#utility.yul\":6285:6291   */\n      dup3\n        /* \"#utility.yul\":6274:6283   */\n      dup6\n        /* \"#utility.yul\":6270:6292   */\n      add\n        /* \"#utility.yul\":6249:6302   */\n      tag_304\n      jump\t// in\n    tag_426:\n        /* \"#utility.yul\":6239:6302   */\n      swap2\n      pop\n        /* \"#utility.yul\":6195:6312   */\n      pop\n        /* \"#utility.yul\":5990:6319   */\n      swap3\n      swap2\n      pop\n      pop\n      jump\t// out\n        /* \"#utility.yul\":6325:6460   */\n    tag_305:\n        /* \"#utility.yul\":6413:6419   */\n      0x00\n        /* \"#utility.yul\":6447:6452   */\n      dup2\n        /* \"#utility.yul\":6441:6453   */\n      mload\n        /* \"#utility.yul\":6431:6453   */\n      swap1\n      pop\n        /* \"#utility.yul\":6325:6460   */\n      swap2\n      swap1\n      pop\n      jump\t// out\n        /* \"#utility.yul\":6466:6671   */\n    tag_306:\n        /* \"#utility.yul\":6586:6597   */\n      0x00\n        /* \"#utility.yul\":6620:6626   */\n      dup3\n        /* \"#utility.yul\":6615:6618   */\n      dup3\n        /* \"#utility.yul\":6608:6627   */\n      mstore\n        /* \"#utility.yul\":6660:6664   */\n      0x20\n        /* \"#utility.yul\":6655:6658   */\n      dup3\n        /* \"#utility.yul\":6651:6665   */\n      add\n        /* \"#utility.yul\":6636:6665   */\n      swap1\n      pop\n        /* \"#utility.yul\":6466:6671   */\n      swap3\n      swap2\n      pop\n      pop\n      jump\t// out\n        /* \"#utility.yul\":6677:6830   */\n    tag_307:\n        /* \"#utility.yul\":6765:6769   */\n      0x00\n        /* \"#utility.yul\":6788:6791   */\n      dup2\n        /* \"#utility.yul\":6780:6791   */\n      swap1\n      pop\n        /* \"#utility.yul\":6818:6822   */\n      0x20\n        /* \"#utility.yul\":6813:6816   */\n      dup3\n        /* \"#utility.yul\":6809:6823   */\n      add\n        /* \"#utility.yul\":6801:6823   */\n      swap1\n      pop\n        /* \"#utility.yul\":6677:6830   */\n      swap2\n      swap1\n      pop\n      jump\t// out\n        /* \"#utility.yul\":6836:6944   */\n    tag_308:\n        /* \"#utility.yul\":6913:6937   */\n      tag_431\n        /* \"#utility.yul\":6931:6936   */\n      dup2\n        /* \"#utility.yul\":6913:6937   */\n      tag_287\n      jump\t// in\n    tag_431:\n        /* \"#utility.yul\":6908:6911   */\n      dup3\n        /* \"#utility.yul\":6901:6938   */\n      mstore\n        /* \"#utility.yul\":6836:6944   */\n      pop\n      pop\n      jump\t// out\n        /* \"#utility.yul\":6950:7058   */\n    tag_309:\n        /* \"#utility.yul\":7027:7051   */\n      tag_433\n        /* \"#utility.yul\":7045:7050   */\n      dup2\n        /* \"#utility.yul\":7027:7051   */\n      tag_292\n      jump\t// in\n    tag_433:\n        /* \"#utility.yul\":7022:7025   */\n      dup3\n        /* \"#utility.yul\":7015:7052   */\n      mstore\n        /* \"#utility.yul\":6950:7058   */\n      pop\n      pop\n      jump\t// out\n        /* \"#utility.yul\":7114:7961   */\n    tag_310:\n        /* \"#utility.yul\":7243:7247   */\n      0x80\n        /* \"#utility.yul\":7238:7241   */\n      dup3\n        /* \"#utility.yul\":7234:7248   */\n      add\n        /* \"#utility.yul\":7328:7332   */\n      0x00\n        /* \"#utility.yul\":7321:7326   */\n      dup3\n        /* \"#utility.yul\":7317:7333   */\n      add\n        /* \"#utility.yul\":7311:7334   */\n      mload\n        /* \"#utility.yul\":7347:7410   */\n      tag_435\n        /* \"#utility.yul\":7404:7408   */\n      0x00\n        /* \"#utility.yul\":7399:7402   */\n      dup6\n        /* \"#utility.yul\":7395:7409   */\n      add\n        /* \"#utility.yul\":7381:7393   */\n      dup3\n        /* \"#utility.yul\":7347:7410   */\n      tag_308\n      jump\t// in\n    tag_435:\n        /* \"#utility.yul\":7258:7420   */\n      pop\n        /* \"#utility.yul\":7507:7511   */\n      0x20\n        /* \"#utility.yul\":7500:7505   */\n      dup3\n        /* \"#utility.yul\":7496:7512   */\n      add\n        /* \"#utility.yul\":7490:7513   */\n      mload\n        /* \"#utility.yul\":7526:7589   */\n      tag_436\n        /* \"#utility.yul\":7583:7587   */\n      0x20\n        /* \"#utility.yul\":7578:7581   */\n      dup6\n        /* \"#utility.yul\":7574:7588   */\n      add\n        /* \"#utility.yul\":7560:7572   */\n      dup3\n        /* \"#utility.yul\":7526:7589   */\n      tag_308\n      jump\t// in\n    tag_436:\n        /* \"#utility.yul\":7430:7599   */\n      pop\n        /* \"#utility.yul\":7682:7686   */\n      0x40\n        /* \"#utility.yul\":7675:7680   */\n      dup3\n        /* \"#utility.yul\":7671:7687   */\n      add\n        /* \"#utility.yul\":7665:7688   */\n      mload\n        /* \"#utility.yul\":7701:7764   */\n      tag_437\n        /* \"#utility.yul\":7758:7762   */\n      0x40\n        /* \"#utility.yul\":7753:7756   */\n      dup6\n        /* \"#utility.yul\":7749:7763   */\n      add\n        /* \"#utility.yul\":7735:7747   */\n      dup3\n        /* \"#utility.yul\":7701:7764   */\n      tag_309\n      jump\t// in\n    tag_437:\n        /* \"#utility.yul\":7609:7774   */\n      pop\n        /* \"#utility.yul\":7862:7866   */\n      0x60\n        /* \"#utility.yul\":7855:7860   */\n      dup3\n        /* \"#utility.yul\":7851:7867   */\n      add\n        /* \"#utility.yul\":7845:7868   */\n      mload\n        /* \"#utility.yul\":7881:7944   */\n      tag_438\n        /* \"#utility.yul\":7938:7942   */\n      0x60\n        /* \"#utility.yul\":7933:7936   */\n      dup6\n        /* \"#utility.yul\":7929:7943   */\n      add\n        /* \"#utility.yul\":7915:7927   */\n      dup3\n        /* \"#utility.yul\":7881:7944   */\n      tag_308\n      jump\t// in\n    tag_438:\n        /* \"#utility.yul\":7784:7954   */\n      pop\n        /* \"#utility.yul\":7212:7961   */\n      pop\n        /* \"#utility.yul\":7114:7961   */\n      pop\n      pop\n      jump\t// out\n        /* \"#utility.yul\":7967:8230   */\n    tag_311:\n        /* \"#utility.yul\":8078:8088   */\n      0x00\n        /* \"#utility.yul\":8099:8187   */\n      tag_440\n        /* \"#utility.yul\":8183:8186   */\n      dup4\n        /* \"#utility.yul\":8175:8181   */\n      dup4\n        /* \"#utility.yul\":8099:8187   */\n      tag_310\n      jump\t// in\n    tag_440:\n        /* \"#utility.yul\":8219:8223   */\n      0x80\n        /* \"#utility.yul\":8214:8217   */\n      dup4\n        /* \"#utility.yul\":8210:8224   */\n      add\n        /* \"#utility.yul\":8196:8224   */\n      swap1\n      pop\n        /* \"#utility.yul\":7967:8230   */\n      swap3\n      swap2\n      pop\n      pop\n      jump\t// out\n        /* \"#utility.yul\":8236:8370   */\n    tag_312:\n        /* \"#utility.yul\":8327:8331   */\n      0x00\n        /* \"#utility.yul\":8359:8363   */\n      0x20\n        /* \"#utility.yul\":8354:8357   */\n      dup3\n        /* \"#utility.yul\":8350:8364   */\n      add\n        /* \"#utility.yul\":8342:8364   */\n      swap1\n      pop\n        /* \"#utility.yul\":8236:8370   */\n      swap2\n      swap1\n      pop\n      jump\t// out\n        /* \"#utility.yul\":8430:9330   */\n    tag_313:\n        /* \"#utility.yul\":8591:8594   */\n      0x00\n        /* \"#utility.yul\":8620:8695   */\n      tag_443\n        /* \"#utility.yul\":8689:8694   */\n      dup3\n        /* \"#utility.yul\":8620:8695   */\n      tag_305\n      jump\t// in\n    tag_443:\n        /* \"#utility.yul\":8711:8818   */\n      tag_444\n        /* \"#utility.yul\":8811:8817   */\n      dup2\n        /* \"#utility.yul\":8806:8809   */\n      dup6\n        /* \"#utility.yul\":8711:8818   */\n      tag_306\n      jump\t// in\n    tag_444:\n        /* \"#utility.yul\":8704:8818   */\n      swap4\n      pop\n        /* \"#utility.yul\":8842:8919   */\n      tag_445\n        /* \"#utility.yul\":8913:8918   */\n      dup4\n        /* \"#utility.yul\":8842:8919   */\n      tag_307\n      jump\t// in\n    tag_445:\n        /* \"#utility.yul\":8942:8949   */\n      dup1\n        /* \"#utility.yul\":8973:8974   */\n      0x00\n        /* \"#utility.yul\":8958:9305   */\n    tag_446:\n        /* \"#utility.yul\":8983:8989   */\n      dup4\n        /* \"#utility.yul\":8980:8981   */\n      dup2\n        /* \"#utility.yul\":8977:8990   */\n      lt\n        /* \"#utility.yul\":8958:9305   */\n      iszero\n      tag_448\n      jumpi\n        /* \"#utility.yul\":9059:9065   */\n      dup2\n        /* \"#utility.yul\":9053:9066   */\n      mload\n        /* \"#utility.yul\":9086:9191   */\n      tag_449\n        /* \"#utility.yul\":9187:9190   */\n      dup9\n        /* \"#utility.yul\":9172:9185   */\n      dup3\n        /* \"#utility.yul\":9086:9191   */\n      tag_311\n      jump\t// in\n    tag_449:\n        /* \"#utility.yul\":9079:9191   */\n      swap8\n      pop\n        /* \"#utility.yul\":9214:9295   */\n      tag_450\n        /* \"#utility.yul\":9288:9294   */\n      dup4\n        /* \"#utility.yul\":9214:9295   */\n      tag_312\n      jump\t// in\n    tag_450:\n        /* \"#utility.yul\":9204:9295   */\n      swap3\n      pop\n        /* \"#utility.yul\":9018:9305   */\n      pop\n        /* \"#utility.yul\":9005:9006   */\n      0x01\n        /* \"#utility.yul\":9002:9003   */\n      dup2\n        /* \"#utility.yul\":8998:9007   */\n      add\n        /* \"#utility.yul\":8993:9007   */\n      swap1\n      pop\n        /* \"#utility.yul\":8958:9305   */\n      jump(tag_446)\n    tag_448:\n        /* \"#utility.yul\":8962:8976   */\n      pop\n        /* \"#utility.yul\":9321:9324   */\n      dup6\n        /* \"#utility.yul\":9314:9324   */\n      swap4\n      pop\n        /* \"#utility.yul\":8596:9330   */\n      pop\n      pop\n      pop\n        /* \"#utility.yul\":8430:9330   */\n      swap3\n      swap2\n      pop\n      pop\n      jump\t// out\n        /* \"#utility.yul\":9336:9793   */\n    tag_31:\n        /* \"#utility.yul\":9521:9525   */\n      0x00\n        /* \"#utility.yul\":9559:9561   */\n      0x20\n        /* \"#utility.yul\":9548:9557   */\n      dup3\n        /* \"#utility.yul\":9544:9562   */\n      add\n        /* \"#utility.yul\":9536:9562   */\n      swap1\n      pop\n        /* \"#utility.yul\":9608:9617   */\n      dup2\n        /* \"#utility.yul\":9602:9606   */\n      dup2\n        /* \"#utility.yul\":9598:9618   */\n      sub\n        /* \"#utility.yul\":9594:9595   */\n      0x00\n        /* \"#utility.yul\":9583:9592   */\n      dup4\n        /* \"#utility.yul\":9579:9596   */\n      add\n        /* \"#utility.yul\":9572:9619   */\n      mstore\n        /* \"#utility.yul\":9636:9786   */\n      tag_452\n        /* \"#utility.yul\":9781:9785   */\n      dup2\n        /* \"#utility.yul\":9772:9778   */\n      dup5\n        /* \"#utility.yul\":9636:9786   */\n      tag_313\n      jump\t// in\n    tag_452:\n        /* \"#utility.yul\":9628:9786   */\n      swap1\n      pop\n        /* \"#utility.yul\":9336:9793   */\n      swap3\n      swap2\n      pop\n      pop\n      jump\t// out\n        /* \"#utility.yul\":9799:10352   */\n    tag_37:\n        /* \"#utility.yul\":9976:9980   */\n      0x00\n        /* \"#utility.yul\":10014:10017   */\n      0x80\n        /* \"#utility.yul\":10003:10012   */\n      dup3\n        /* \"#utility.yul\":9999:10018   */\n      add\n        /* \"#utility.yul\":9991:10018   */\n      swap1\n      pop\n        /* \"#utility.yul\":10028:10099   */\n      tag_454\n        /* \"#utility.yul\":10096:10097   */\n      0x00\n        /* \"#utility.yul\":10085:10094   */\n      dup4\n        /* \"#utility.yul\":10081:10098   */\n      add\n        /* \"#utility.yul\":10072:10078   */\n      dup8\n        /* \"#utility.yul\":10028:10099   */\n      tag_290\n      jump\t// in\n    tag_454:\n        /* \"#utility.yul\":10109:10181   */\n      tag_455\n        /* \"#utility.yul\":10177:10179   */\n      0x20\n        /* \"#utility.yul\":10166:10175   */\n      dup4\n        /* \"#utility.yul\":10162:10180   */\n      add\n        /* \"#utility.yul\":10153:10159   */\n      dup7\n        /* \"#utility.yul\":10109:10181   */\n      tag_290\n      jump\t// in\n    tag_455:\n        /* \"#utility.yul\":10191:10263   */\n      tag_456\n        /* \"#utility.yul\":10259:10261   */\n      0x40\n        /* \"#utility.yul\":10248:10257   */\n      dup4\n        /* \"#utility.yul\":10244:10262   */\n      add\n        /* \"#utility.yul\":10235:10241   */\n      dup6\n        /* \"#utility.yul\":10191:10263   */\n      tag_293\n      jump\t// in\n    tag_456:\n        /* \"#utility.yul\":10273:10345   */\n      tag_457\n        /* \"#utility.yul\":10341:10343   */\n      0x60\n        /* \"#utility.yul\":10330:10339   */\n      dup4\n        /* \"#utility.yul\":10326:10344   */\n      add\n        /* \"#utility.yul\":10317:10323   */\n      dup5\n        /* \"#utility.yul\":10273:10345   */\n      tag_290\n      jump\t// in\n    tag_457:\n        /* \"#utility.yul\":9799:10352   */\n      swap6\n      swap5\n      pop\n      pop\n      pop\n      pop\n      pop\n      jump\t// out\n        /* \"#utility.yul\":10358:10495   */\n    tag_314:\n        /* \"#utility.yul\":10448:10454   */\n      0x00\n        /* \"#utility.yul\":10482:10487   */\n      dup2\n        /* \"#utility.yul\":10476:10488   */\n      mload\n        /* \"#utility.yul\":10466:10488   */\n      swap1\n      pop\n        /* \"#utility.yul\":10358:10495   */\n      swap2\n      swap1\n      pop\n      jump\t// out\n        /* \"#utility.yul\":10501:10708   */\n    tag_315:\n        /* \"#utility.yul\":10623:10634   */\n      0x00\n        /* \"#utility.yul\":10657:10663   */\n      dup3\n        /* \"#utility.yul\":10652:10655   */\n      dup3\n        /* \"#utility.yul\":10645:10664   */\n      mstore\n        /* \"#utility.yul\":10697:10701   */\n      0x20\n        /* \"#utility.yul\":10692:10695   */\n      dup3\n        /* \"#utility.yul\":10688:10702   */\n      add\n        /* \"#utility.yul\":10673:10702   */\n      swap1\n      pop\n        /* \"#utility.yul\":10501:10708   */\n      swap3\n      swap2\n      pop\n      pop\n      jump\t// out\n        /* \"#utility.yul\":10714:10869   */\n    tag_316:\n        /* \"#utility.yul\":10804:10808   */\n      0x00\n        /* \"#utility.yul\":10827:10830   */\n      dup2\n        /* \"#utility.yul\":10819:10830   */\n      swap1\n      pop\n        /* \"#utility.yul\":10857:10861   */\n      0x20\n        /* \"#utility.yul\":10852:10855   */\n      dup3\n        /* \"#utility.yul\":10848:10862   */\n      add\n        /* \"#utility.yul\":10840:10862   */\n      swap1\n      pop\n        /* \"#utility.yul\":10714:10869   */\n      swap2\n      swap1\n      pop\n      jump\t// out\n        /* \"#utility.yul\":10875:11034   */\n    tag_317:\n        /* \"#utility.yul\":10949:10960   */\n      0x00\n        /* \"#utility.yul\":10983:10989   */\n      dup3\n        /* \"#utility.yul\":10978:10981   */\n      dup3\n        /* \"#utility.yul\":10971:10990   */\n      mstore\n        /* \"#utility.yul\":11023:11027   */\n      0x20\n        /* \"#utility.yul\":11018:11021   */\n      dup3\n        /* \"#utility.yul\":11014:11028   */\n      add\n        /* \"#utility.yul\":10999:11028   */\n      swap1\n      pop\n        /* \"#utility.yul\":10875:11034   */\n      swap3\n      swap2\n      pop\n      pop\n      jump\t// out\n        /* \"#utility.yul\":11040:11397   */\n    tag_318:\n        /* \"#utility.yul\":11118:11121   */\n      0x00\n        /* \"#utility.yul\":11146:11185   */\n      tag_463\n        /* \"#utility.yul\":11179:11184   */\n      dup3\n        /* \"#utility.yul\":11146:11185   */\n      tag_294\n      jump\t// in\n    tag_463:\n        /* \"#utility.yul\":11201:11262   */\n      tag_464\n        /* \"#utility.yul\":11255:11261   */\n      dup2\n        /* \"#utility.yul\":11250:11253   */\n      dup6\n        /* \"#utility.yul\":11201:11262   */\n      tag_317\n      jump\t// in\n    tag_464:\n        /* \"#utility.yul\":11194:11262   */\n      swap4\n      pop\n        /* \"#utility.yul\":11271:11336   */\n      tag_465\n        /* \"#utility.yul\":11329:11335   */\n      dup2\n        /* \"#utility.yul\":11324:11327   */\n      dup6\n        /* \"#utility.yul\":11317:11321   */\n      0x20\n        /* \"#utility.yul\":11310:11315   */\n      dup7\n        /* \"#utility.yul\":11306:11322   */\n      add\n        /* \"#utility.yul\":11271:11336   */\n      tag_296\n      jump\t// in\n    tag_465:\n        /* \"#utility.yul\":11361:11390   */\n      tag_466\n        /* \"#utility.yul\":11383:11389   */\n      dup2\n        /* \"#utility.yul\":11361:11390   */\n      tag_297\n      jump\t// in\n    tag_466:\n        /* \"#utility.yul\":11356:11359   */\n      dup5\n        /* \"#utility.yul\":11352:11391   */\n      add\n        /* \"#utility.yul\":11345:11391   */\n      swap2\n      pop\n        /* \"#utility.yul\":11122:11397   */\n      pop\n        /* \"#utility.yul\":11040:11397   */\n      swap3\n      swap2\n      pop\n      pop\n      jump\t// out\n        /* \"#utility.yul\":11403:11517   */\n    tag_319:\n        /* \"#utility.yul\":11470:11476   */\n      0x00\n        /* \"#utility.yul\":11504:11509   */\n      dup2\n        /* \"#utility.yul\":11498:11510   */\n      mload\n        /* \"#utility.yul\":11488:11510   */\n      swap1\n      pop\n        /* \"#utility.yul\":11403:11517   */\n      swap2\n      swap1\n      pop\n      jump\t// out\n        /* \"#utility.yul\":11523:11697   */\n    tag_320:\n        /* \"#utility.yul\":11612:11623   */\n      0x00\n        /* \"#utility.yul\":11646:11652   */\n      dup3\n        /* \"#utility.yul\":11641:11644   */\n      dup3\n        /* \"#utility.yul\":11634:11653   */\n      mstore\n        /* \"#utility.yul\":11686:11690   */\n      0x20\n        /* \"#utility.yul\":11681:11684   */\n      dup3\n        /* \"#utility.yul\":11677:11691   */\n      add\n        /* \"#utility.yul\":11662:11691   */\n      swap1\n      pop\n        /* \"#utility.yul\":11523:11697   */\n      swap3\n      swap2\n      pop\n      pop\n      jump\t// out\n        /* \"#utility.yul\":11703:11835   */\n    tag_321:\n        /* \"#utility.yul\":11770:11774   */\n      0x00\n        /* \"#utility.yul\":11793:11796   */\n      dup2\n        /* \"#utility.yul\":11785:11796   */\n      swap1\n      pop\n        /* \"#utility.yul\":11823:11827   */\n      0x20\n        /* \"#utility.yul\":11818:11821   */\n      dup3\n        /* \"#utility.yul\":11814:11828   */\n      add\n        /* \"#utility.yul\":11806:11828   */\n      swap1\n      pop\n        /* \"#utility.yul\":11703:11835   */\n      swap2\n      swap1\n      pop\n      jump\t// out\n        /* \"#utility.yul\":11841:12020   */\n    tag_322:\n        /* \"#utility.yul\":11910:11920   */\n      0x00\n        /* \"#utility.yul\":11931:11977   */\n      tag_471\n        /* \"#utility.yul\":11973:11976   */\n      dup4\n        /* \"#utility.yul\":11965:11971   */\n      dup4\n        /* \"#utility.yul\":11931:11977   */\n      tag_308\n      jump\t// in\n    tag_471:\n        /* \"#utility.yul\":12009:12013   */\n      0x20\n        /* \"#utility.yul\":12004:12007   */\n      dup4\n        /* \"#utility.yul\":12000:12014   */\n      add\n        /* \"#utility.yul\":11986:12014   */\n      swap1\n      pop\n        /* \"#utility.yul\":11841:12020   */\n      swap3\n      swap2\n      pop\n      pop\n      jump\t// out\n        /* \"#utility.yul\":12026:12139   */\n    tag_323:\n        /* \"#utility.yul\":12096:12100   */\n      0x00\n        /* \"#utility.yul\":12128:12132   */\n      0x20\n        /* \"#utility.yul\":12123:12126   */\n      dup3\n        /* \"#utility.yul\":12119:12133   */\n      add\n        /* \"#utility.yul\":12111:12133   */\n      swap1\n      pop\n        /* \"#utility.yul\":12026:12139   */\n      swap2\n      swap1\n      pop\n      jump\t// out\n        /* \"#utility.yul\":12175:12887   */\n    tag_324:\n        /* \"#utility.yul\":12284:12287   */\n      0x00\n        /* \"#utility.yul\":12313:12367   */\n      tag_474\n        /* \"#utility.yul\":12361:12366   */\n      dup3\n        /* \"#utility.yul\":12313:12367   */\n      tag_319\n      jump\t// in\n    tag_474:\n        /* \"#utility.yul\":12383:12459   */\n      tag_475\n        /* \"#utility.yul\":12452:12458   */\n      dup2\n        /* \"#utility.yul\":12447:12450   */\n      dup6\n        /* \"#utility.yul\":12383:12459   */\n      tag_320\n      jump\t// in\n    tag_475:\n        /* \"#utility.yul\":12376:12459   */\n      swap4\n      pop\n        /* \"#utility.yul\":12483:12539   */\n      tag_476\n        /* \"#utility.yul\":12533:12538   */\n      dup4\n        /* \"#utility.yul\":12483:12539   */\n      tag_321\n      jump\t// in\n    tag_476:\n        /* \"#utility.yul\":12562:12569   */\n      dup1\n        /* \"#utility.yul\":12593:12594   */\n      0x00\n        /* \"#utility.yul\":12578:12862   */\n    tag_477:\n        /* \"#utility.yul\":12603:12609   */\n      dup4\n        /* \"#utility.yul\":12600:12601   */\n      dup2\n        /* \"#utility.yul\":12597:12610   */\n      lt\n        /* \"#utility.yul\":12578:12862   */\n      iszero\n      tag_479\n      jumpi\n        /* \"#utility.yul\":12679:12685   */\n      dup2\n        /* \"#utility.yul\":12673:12686   */\n      mload\n        /* \"#utility.yul\":12706:12769   */\n      tag_480\n        /* \"#utility.yul\":12765:12768   */\n      dup9\n        /* \"#utility.yul\":12750:12763   */\n      dup3\n        /* \"#utility.yul\":12706:12769   */\n      tag_322\n      jump\t// in\n    tag_480:\n        /* \"#utility.yul\":12699:12769   */\n      swap8\n      pop\n        /* \"#utility.yul\":12792:12852   */\n      tag_481\n        /* \"#utility.yul\":12845:12851   */\n      dup4\n        /* \"#utility.yul\":12792:12852   */\n      tag_323\n      jump\t// in\n    tag_481:\n        /* \"#utility.yul\":12782:12852   */\n      swap3\n      pop\n        /* \"#utility.yul\":12638:12862   */\n      pop\n        /* \"#utility.yul\":12625:12626   */\n      0x01\n        /* \"#utility.yul\":12622:12623   */\n      dup2\n        /* \"#utility.yul\":12618:12627   */\n      add\n        /* \"#utility.yul\":12613:12627   */\n      swap1\n      pop\n        /* \"#utility.yul\":12578:12862   */\n      jump(tag_477)\n    tag_479:\n        /* \"#utility.yul\":12582:12596   */\n      pop\n        /* \"#utility.yul\":12878:12881   */\n      dup6\n        /* \"#utility.yul\":12871:12881   */\n      swap4\n      pop\n        /* \"#utility.yul\":12289:12887   */\n      pop\n      pop\n      pop\n        /* \"#utility.yul\":12175:12887   */\n      swap3\n      swap2\n      pop\n      pop\n      jump\t// out\n        /* \"#utility.yul\":12947:14794   */\n    tag_325:\n        /* \"#utility.yul\":13052:13055   */\n      0x00\n        /* \"#utility.yul\":13088:13094   */\n      0x0100\n        /* \"#utility.yul\":13083:13086   */\n      dup4\n        /* \"#utility.yul\":13079:13095   */\n      add\n        /* \"#utility.yul\":13175:13179   */\n      0x00\n        /* \"#utility.yul\":13168:13173   */\n      dup4\n        /* \"#utility.yul\":13164:13180   */\n      add\n        /* \"#utility.yul\":13158:13181   */\n      mload\n        /* \"#utility.yul\":13194:13257   */\n      tag_483\n        /* \"#utility.yul\":13251:13255   */\n      0x00\n        /* \"#utility.yul\":13246:13249   */\n      dup7\n        /* \"#utility.yul\":13242:13256   */\n      add\n        /* \"#utility.yul\":13228:13240   */\n      dup3\n        /* \"#utility.yul\":13194:13257   */\n      tag_308\n      jump\t// in\n    tag_483:\n        /* \"#utility.yul\":13105:13267   */\n      pop\n        /* \"#utility.yul\":13351:13355   */\n      0x20\n        /* \"#utility.yul\":13344:13349   */\n      dup4\n        /* \"#utility.yul\":13340:13356   */\n      add\n        /* \"#utility.yul\":13334:13357   */\n      mload\n        /* \"#utility.yul\":13370:13433   */\n      tag_484\n        /* \"#utility.yul\":13427:13431   */\n      0x20\n        /* \"#utility.yul\":13422:13425   */\n      dup7\n        /* \"#utility.yul\":13418:13432   */\n      add\n        /* \"#utility.yul\":13404:13416   */\n      dup3\n        /* \"#utility.yul\":13370:13433   */\n      tag_309\n      jump\t// in\n    tag_484:\n        /* \"#utility.yul\":13277:13443   */\n      pop\n        /* \"#utility.yul\":13525:13529   */\n      0x40\n        /* \"#utility.yul\":13518:13523   */\n      dup4\n        /* \"#utility.yul\":13514:13530   */\n      add\n        /* \"#utility.yul\":13508:13531   */\n      mload\n        /* \"#utility.yul\":13578:13581   */\n      dup5\n        /* \"#utility.yul\":13572:13576   */\n      dup3\n        /* \"#utility.yul\":13568:13582   */\n      sub\n        /* \"#utility.yul\":13561:13565   */\n      0x40\n        /* \"#utility.yul\":13556:13559   */\n      dup7\n        /* \"#utility.yul\":13552:13566   */\n      add\n        /* \"#utility.yul\":13545:13583   */\n      mstore\n        /* \"#utility.yul\":13604:13677   */\n      tag_485\n        /* \"#utility.yul\":13672:13676   */\n      dup3\n        /* \"#utility.yul\":13658:13670   */\n      dup3\n        /* \"#utility.yul\":13604:13677   */\n      tag_318\n      jump\t// in\n    tag_485:\n        /* \"#utility.yul\":13596:13677   */\n      swap2\n      pop\n        /* \"#utility.yul\":13453:13688   */\n      pop\n        /* \"#utility.yul\":13777:13781   */\n      0x60\n        /* \"#utility.yul\":13770:13775   */\n      dup4\n        /* \"#utility.yul\":13766:13782   */\n      add\n        /* \"#utility.yul\":13760:13783   */\n      mload\n        /* \"#utility.yul\":13830:13833   */\n      dup5\n        /* \"#utility.yul\":13824:13828   */\n      dup3\n        /* \"#utility.yul\":13820:13834   */\n      sub\n        /* \"#utility.yul\":13813:13817   */\n      0x60\n        /* \"#utility.yul\":13808:13811   */\n      dup7\n        /* \"#utility.yul\":13804:13818   */\n      add\n        /* \"#utility.yul\":13797:13835   */\n      mstore\n        /* \"#utility.yul\":13856:13929   */\n      tag_486\n        /* \"#utility.yul\":13924:13928   */\n      dup3\n        /* \"#utility.yul\":13910:13922   */\n      dup3\n        /* \"#utility.yul\":13856:13929   */\n      tag_318\n      jump\t// in\n    tag_486:\n        /* \"#utility.yul\":13848:13929   */\n      swap2\n      pop\n        /* \"#utility.yul\":13698:13940   */\n      pop\n        /* \"#utility.yul\":14035:14039   */\n      0x80\n        /* \"#utility.yul\":14028:14033   */\n      dup4\n        /* \"#utility.yul\":14024:14040   */\n      add\n        /* \"#utility.yul\":14018:14041   */\n      mload\n        /* \"#utility.yul\":14054:14117   */\n      tag_487\n        /* \"#utility.yul\":14111:14115   */\n      0x80\n        /* \"#utility.yul\":14106:14109   */\n      dup7\n        /* \"#utility.yul\":14102:14116   */\n      add\n        /* \"#utility.yul\":14088:14100   */\n      dup3\n        /* \"#utility.yul\":14054:14117   */\n      tag_308\n      jump\t// in\n    tag_487:\n        /* \"#utility.yul\":13950:14127   */\n      pop\n        /* \"#utility.yul\":14215:14219   */\n      0xa0\n        /* \"#utility.yul\":14208:14213   */\n      dup4\n        /* \"#utility.yul\":14204:14220   */\n      add\n        /* \"#utility.yul\":14198:14221   */\n      mload\n        /* \"#utility.yul\":14234:14297   */\n      tag_488\n        /* \"#utility.yul\":14291:14295   */\n      0xa0\n        /* \"#utility.yul\":14286:14289   */\n      dup7\n        /* \"#utility.yul\":14282:14296   */\n      add\n        /* \"#utility.yul\":14268:14280   */\n      dup3\n        /* \"#utility.yul\":14234:14297   */\n      tag_308\n      jump\t// in\n    tag_488:\n        /* \"#utility.yul\":14137:14307   */\n      pop\n        /* \"#utility.yul\":14396:14400   */\n      0xc0\n        /* \"#utility.yul\":14389:14394   */\n      dup4\n        /* \"#utility.yul\":14385:14401   */\n      add\n        /* \"#utility.yul\":14379:14402   */\n      mload\n        /* \"#utility.yul\":14415:14478   */\n      tag_489\n        /* \"#utility.yul\":14472:14476   */\n      0xc0\n        /* \"#utility.yul\":14467:14470   */\n      dup7\n        /* \"#utility.yul\":14463:14477   */\n      add\n        /* \"#utility.yul\":14449:14461   */\n      dup3\n        /* \"#utility.yul\":14415:14478   */\n      tag_308\n      jump\t// in\n    tag_489:\n        /* \"#utility.yul\":14317:14488   */\n      pop\n        /* \"#utility.yul\":14574:14578   */\n      0xe0\n        /* \"#utility.yul\":14567:14572   */\n      dup4\n        /* \"#utility.yul\":14563:14579   */\n      add\n        /* \"#utility.yul\":14557:14580   */\n      mload\n        /* \"#utility.yul\":14627:14630   */\n      dup5\n        /* \"#utility.yul\":14621:14625   */\n      dup3\n        /* \"#utility.yul\":14617:14631   */\n      sub\n        /* \"#utility.yul\":14610:14614   */\n      0xe0\n        /* \"#utility.yul\":14605:14608   */\n      dup7\n        /* \"#utility.yul\":14601:14615   */\n      add\n        /* \"#utility.yul\":14594:14632   */\n      mstore\n        /* \"#utility.yul\":14653:14756   */\n      tag_490\n        /* \"#utility.yul\":14751:14755   */\n      dup3\n        /* \"#utility.yul\":14737:14749   */\n      dup3\n        /* \"#utility.yul\":14653:14756   */\n      tag_324\n      jump\t// in\n    tag_490:\n        /* \"#utility.yul\":14645:14756   */\n      swap2\n      pop\n        /* \"#utility.yul\":14498:14767   */\n      pop\n        /* \"#utility.yul\":14784:14788   */\n      dup1\n        /* \"#utility.yul\":14777:14788   */\n      swap2\n      pop\n        /* \"#utility.yul\":13057:14794   */\n      pop\n        /* \"#utility.yul\":12947:14794   */\n      swap3\n      swap2\n      pop\n      pop\n      jump\t// out\n        /* \"#utility.yul\":14800:15048   */\n    tag_326:\n        /* \"#utility.yul\":14915:14925   */\n      0x00\n        /* \"#utility.yul\":14950:15042   */\n      tag_492\n        /* \"#utility.yul\":15038:15041   */\n      dup4\n        /* \"#utility.yul\":15030:15036   */\n      dup4\n        /* \"#utility.yul\":14950:15042   */\n      tag_325\n      jump\t// in\n    tag_492:\n        /* \"#utility.yul\":14936:15042   */\n      swap1\n      pop\n        /* \"#utility.yul\":14800:15048   */\n      swap3\n      swap2\n      pop\n      pop\n      jump\t// out\n        /* \"#utility.yul\":15054:15190   */\n    tag_327:\n        /* \"#utility.yul\":15147:15151   */\n      0x00\n        /* \"#utility.yul\":15179:15183   */\n      0x20\n        /* \"#utility.yul\":15174:15177   */\n      dup3\n        /* \"#utility.yul\":15170:15184   */\n      add\n        /* \"#utility.yul\":15162:15184   */\n      swap1\n      pop\n        /* \"#utility.yul\":15054:15190   */\n      swap2\n      swap1\n      pop\n      jump\t// out\n        /* \"#utility.yul\":15254:16349   */\n    tag_328:\n        /* \"#utility.yul\":15419:15422   */\n      0x00\n        /* \"#utility.yul\":15448:15525   */\n      tag_495\n        /* \"#utility.yul\":15519:15524   */\n      dup3\n        /* \"#utility.yul\":15448:15525   */\n      tag_314\n      jump\t// in\n    tag_495:\n        /* \"#utility.yul\":15541:15650   */\n      tag_496\n        /* \"#utility.yul\":15643:15649   */\n      dup2\n        /* \"#utility.yul\":15638:15641   */\n      dup6\n        /* \"#utility.yul\":15541:15650   */\n      tag_315\n      jump\t// in\n    tag_496:\n        /* \"#utility.yul\":15534:15650   */\n      swap4\n      pop\n        /* \"#utility.yul\":15676:15679   */\n      dup4\n        /* \"#utility.yul\":15721:15725   */\n      0x20\n        /* \"#utility.yul\":15713:15719   */\n      dup3\n        /* \"#utility.yul\":15709:15726   */\n      mul\n        /* \"#utility.yul\":15704:15707   */\n      dup6\n        /* \"#utility.yul\":15700:15727   */\n      add\n        /* \"#utility.yul\":15751:15830   */\n      tag_497\n        /* \"#utility.yul\":15824:15829   */\n      dup6\n        /* \"#utility.yul\":15751:15830   */\n      tag_316\n      jump\t// in\n    tag_497:\n        /* \"#utility.yul\":15853:15860   */\n      dup1\n        /* \"#utility.yul\":15884:15885   */\n      0x00\n        /* \"#utility.yul\":15869:16304   */\n    tag_498:\n        /* \"#utility.yul\":15894:15900   */\n      dup6\n        /* \"#utility.yul\":15891:15892   */\n      dup2\n        /* \"#utility.yul\":15888:15901   */\n      lt\n        /* \"#utility.yul\":15869:16304   */\n      iszero\n      tag_500\n      jumpi\n        /* \"#utility.yul\":15965:15974   */\n      dup5\n        /* \"#utility.yul\":15959:15963   */\n      dup5\n        /* \"#utility.yul\":15955:15975   */\n      sub\n        /* \"#utility.yul\":15950:15953   */\n      dup10\n        /* \"#utility.yul\":15943:15976   */\n      mstore\n        /* \"#utility.yul\":16016:16022   */\n      dup2\n        /* \"#utility.yul\":16010:16023   */\n      mload\n        /* \"#utility.yul\":16044:16154   */\n      tag_501\n        /* \"#utility.yul\":16149:16153   */\n      dup6\n        /* \"#utility.yul\":16134:16147   */\n      dup3\n        /* \"#utility.yul\":16044:16154   */\n      tag_326\n      jump\t// in\n    tag_501:\n        /* \"#utility.yul\":16036:16154   */\n      swap5\n      pop\n        /* \"#utility.yul\":16177:16260   */\n      tag_502\n        /* \"#utility.yul\":16253:16259   */\n      dup4\n        /* \"#utility.yul\":16177:16260   */\n      tag_327\n      jump\t// in\n    tag_502:\n        /* \"#utility.yul\":16167:16260   */\n      swap3\n      pop\n        /* \"#utility.yul\":16289:16293   */\n      0x20\n        /* \"#utility.yul\":16284:16287   */\n      dup11\n        /* \"#utility.yul\":16280:16294   */\n      add\n        /* \"#utility.yul\":16273:16294   */\n      swap10\n      pop\n        /* \"#utility.yul\":15929:16304   */\n      pop\n        /* \"#utility.yul\":15916:15917   */\n      0x01\n        /* \"#utility.yul\":15913:15914   */\n      dup2\n        /* \"#utility.yul\":15909:15918   */\n      add\n        /* \"#utility.yul\":15904:15918   */\n      swap1\n      pop\n        /* \"#utility.yul\":15869:16304   */\n      jump(tag_498)\n    tag_500:\n        /* \"#utility.yul\":15873:15887   */\n      pop\n        /* \"#utility.yul\":16320:16324   */\n      dup3\n        /* \"#utility.yul\":16313:16324   */\n      swap8\n      pop\n        /* \"#utility.yul\":16340:16343   */\n      dup8\n        /* \"#utility.yul\":16333:16343   */\n      swap6\n      pop\n        /* \"#utility.yul\":15424:16349   */\n      pop\n      pop\n      pop\n      pop\n      pop\n        /* \"#utility.yul\":15254:16349   */\n      swap3\n      swap2\n      pop\n      pop\n      jump\t// out\n        /* \"#utility.yul\":16355:16820   */\n    tag_54:\n        /* \"#utility.yul\":16544:16548   */\n      0x00\n        /* \"#utility.yul\":16582:16584   */\n      0x20\n        /* \"#utility.yul\":16571:16580   */\n      dup3\n        /* \"#utility.yul\":16567:16585   */\n      add\n        /* \"#utility.yul\":16559:16585   */\n      swap1\n      pop\n        /* \"#utility.yul\":16631:16640   */\n      dup2\n        /* \"#utility.yul\":16625:16629   */\n      dup2\n        /* \"#utility.yul\":16621:16641   */\n      sub\n        /* \"#utility.yul\":16617:16618   */\n      0x00\n        /* \"#utility.yul\":16606:16615   */\n      dup4\n        /* \"#utility.yul\":16602:16619   */\n      add\n        /* \"#utility.yul\":16595:16642   */\n      mstore\n        /* \"#utility.yul\":16659:16813   */\n      tag_504\n        /* \"#utility.yul\":16808:16812   */\n      dup2\n        /* \"#utility.yul\":16799:16805   */\n      dup5\n        /* \"#utility.yul\":16659:16813   */\n      tag_328\n      jump\t// in\n    tag_504:\n        /* \"#utility.yul\":16651:16813   */\n      swap1\n      pop\n        /* \"#utility.yul\":16355:16820   */\n      swap3\n      swap2\n      pop\n      pop\n      jump\t// out\n        /* \"#utility.yul\":16826:17006   */\n    tag_329:\n        /* \"#utility.yul\":16874:16951   */\n      0x4e487b7100000000000000000000000000000000000000000000000000000000\n        /* \"#utility.yul\":16871:16872   */\n      0x00\n        /* \"#utility.yul\":16864:16952   */\n      mstore\n        /* \"#utility.yul\":16971:16975   */\n      0x22\n        /* \"#utility.yul\":16968:16969   */\n      0x04\n        /* \"#utility.yul\":16961:16976   */\n      mstore\n        /* \"#utility.yul\":16995:16999   */\n      0x24\n        /* \"#utility.yul\":16992:16993   */\n      0x00\n        /* \"#utility.yul\":16985:17000   */\n      revert\n        /* \"#utility.yul\":17012:17332   */\n    tag_65:\n        /* \"#utility.yul\":17056:17062   */\n      0x00\n        /* \"#utility.yul\":17093:17094   */\n      0x02\n        /* \"#utility.yul\":17087:17091   */\n      dup3\n        /* \"#utility.yul\":17083:17095   */\n      div\n        /* \"#utility.yul\":17073:17095   */\n      swap1\n      pop\n        /* \"#utility.yul\":17140:17141   */\n      0x01\n        /* \"#utility.yul\":17134:17138   */\n      dup3\n        /* \"#utility.yul\":17130:17142   */\n      and\n        /* \"#utility.yul\":17161:17179   */\n      dup1\n        /* \"#utility.yul\":17151:17232   */\n      tag_507\n      jumpi\n        /* \"#utility.yul\":17217:17221   */\n      0x7f\n        /* \"#utility.yul\":17209:17215   */\n      dup3\n        /* \"#utility.yul\":17205:17222   */\n      and\n        /* \"#utility.yul\":17195:17222   */\n      swap2\n      pop\n        /* \"#utility.yul\":17151:17232   */\n    tag_507:\n        /* \"#utility.yul\":17279:17281   */\n      0x20\n        /* \"#utility.yul\":17271:17277   */\n      dup3\n        /* \"#utility.yul\":17268:17282   */\n      lt\n        /* \"#utility.yul\":17248:17266   */\n      dup2\n        /* \"#utility.yul\":17245:17283   */\n      sub\n        /* \"#utility.yul\":17242:17326   */\n      tag_508\n      jumpi\n        /* \"#utility.yul\":17298:17316   */\n      tag_509\n      tag_329\n      jump\t// in\n    tag_509:\n        /* \"#utility.yul\":17242:17326   */\n    tag_508:\n        /* \"#utility.yul\":17063:17332   */\n      pop\n        /* \"#utility.yul\":17012:17332   */\n      swap2\n      swap1\n      pop\n      jump\t// out\n        /* \"#utility.yul\":17338:17569   */\n    tag_330:\n        /* \"#utility.yul\":17478:17512   */\n      0x4d696e696d756d206f666665722070726963652073686f756c64206265206772\n        /* \"#utility.yul\":17474:17475   */\n      0x00\n        /* \"#utility.yul\":17466:17472   */\n      dup3\n        /* \"#utility.yul\":17462:17476   */\n      add\n        /* \"#utility.yul\":17455:17513   */\n      mstore\n        /* \"#utility.yul\":17547:17561   */\n      0x6561746572207468616e20300000000000000000000000000000000000000000\n        /* \"#utility.yul\":17542:17544   */\n      0x20\n        /* \"#utility.yul\":17534:17540   */\n      dup3\n        /* \"#utility.yul\":17530:17545   */\n      add\n        /* \"#utility.yul\":17523:17562   */\n      mstore\n        /* \"#utility.yul\":17338:17569   */\n      pop\n      jump\t// out\n        /* \"#utility.yul\":17575:17941   */\n    tag_331:\n        /* \"#utility.yul\":17717:17720   */\n      0x00\n        /* \"#utility.yul\":17738:17805   */\n      tag_512\n        /* \"#utility.yul\":17802:17804   */\n      0x2c\n        /* \"#utility.yul\":17797:17800   */\n      dup4\n        /* \"#utility.yul\":17738:17805   */\n      tag_295\n      jump\t// in\n    tag_512:\n        /* \"#utility.yul\":17731:17805   */\n      swap2\n      pop\n        /* \"#utility.yul\":17814:17907   */\n      tag_513\n        /* \"#utility.yul\":17903:17906   */\n      dup3\n        /* \"#utility.yul\":17814:17907   */\n      tag_330\n      jump\t// in\n    tag_513:\n        /* \"#utility.yul\":17932:17934   */\n      0x40\n        /* \"#utility.yul\":17927:17930   */\n      dup3\n        /* \"#utility.yul\":17923:17935   */\n      add\n        /* \"#utility.yul\":17916:17935   */\n      swap1\n      pop\n        /* \"#utility.yul\":17575:17941   */\n      swap2\n      swap1\n      pop\n      jump\t// out\n        /* \"#utility.yul\":17947:18366   */\n    tag_78:\n        /* \"#utility.yul\":18113:18117   */\n      0x00\n        /* \"#utility.yul\":18151:18153   */\n      0x20\n        /* \"#utility.yul\":18140:18149   */\n      dup3\n        /* \"#utility.yul\":18136:18154   */\n      add\n        /* \"#utility.yul\":18128:18154   */\n      swap1\n      pop\n        /* \"#utility.yul\":18200:18209   */\n      dup2\n        /* \"#utility.yul\":18194:18198   */\n      dup2\n        /* \"#utility.yul\":18190:18210   */\n      sub\n        /* \"#utility.yul\":18186:18187   */\n      0x00\n        /* \"#utility.yul\":18175:18184   */\n      dup4\n        /* \"#utility.yul\":18171:18188   */\n      add\n        /* \"#utility.yul\":18164:18211   */\n      mstore\n        /* \"#utility.yul\":18228:18359   */\n      tag_515\n        /* \"#utility.yul\":18354:18358   */\n      dup2\n        /* \"#utility.yul\":18228:18359   */\n      tag_331\n      jump\t// in\n    tag_515:\n        /* \"#utility.yul\":18220:18359   */\n      swap1\n      pop\n        /* \"#utility.yul\":17947:18366   */\n      swap2\n      swap1\n      pop\n      jump\t// out\n        /* \"#utility.yul\":18372:18552   */\n    tag_81:\n        /* \"#utility.yul\":18420:18497   */\n      0x4e487b7100000000000000000000000000000000000000000000000000000000\n        /* \"#utility.yul\":18417:18418   */\n      0x00\n        /* \"#utility.yul\":18410:18498   */\n      mstore\n        /* \"#utility.yul\":18517:18521   */\n      0x41\n        /* \"#utility.yul\":18514:18515   */\n      0x04\n        /* \"#utility.yul\":18507:18522   */\n      mstore\n        /* \"#utility.yul\":18541:18545   */\n      0x24\n        /* \"#utility.yul\":18538:18539   */\n      0x00\n        /* \"#utility.yul\":18531:18546   */\n      revert\n        /* \"#utility.yul\":18558:18738   */\n    tag_332:\n        /* \"#utility.yul\":18606:18683   */\n      0x4e487b7100000000000000000000000000000000000000000000000000000000\n        /* \"#utility.yul\":18603:18604   */\n      0x00\n        /* \"#utility.yul\":18596:18684   */\n      mstore\n        /* \"#utility.yul\":18703:18707   */\n      0x11\n        /* \"#utility.yul\":18700:18701   */\n      0x04\n        /* \"#utility.yul\":18693:18708   */\n      mstore\n        /* \"#utility.yul\":18727:18731   */\n      0x24\n        /* \"#utility.yul\":18724:18725   */\n      0x00\n        /* \"#utility.yul\":18717:18732   */\n      revert\n        /* \"#utility.yul\":18744:18935   */\n    tag_84:\n        /* \"#utility.yul\":18784:18787   */\n      0x00\n        /* \"#utility.yul\":18803:18823   */\n      tag_519\n        /* \"#utility.yul\":18821:18822   */\n      dup3\n        /* \"#utility.yul\":18803:18823   */\n      tag_287\n      jump\t// in\n    tag_519:\n        /* \"#utility.yul\":18798:18823   */\n      swap2\n      pop\n        /* \"#utility.yul\":18837:18857   */\n      tag_520\n        /* \"#utility.yul\":18855:18856   */\n      dup4\n        /* \"#utility.yul\":18837:18857   */\n      tag_287\n      jump\t// in\n    tag_520:\n        /* \"#utility.yul\":18832:18857   */\n      swap3\n      pop\n        /* \"#utility.yul\":18880:18881   */\n      dup3\n        /* \"#utility.yul\":18877:18878   */\n      dup3\n        /* \"#utility.yul\":18873:18882   */\n      add\n        /* \"#utility.yul\":18866:18882   */\n      swap1\n      pop\n        /* \"#utility.yul\":18901:18904   */\n      dup1\n        /* \"#utility.yul\":18898:18899   */\n      dup3\n        /* \"#utility.yul\":18895:18905   */\n      gt\n        /* \"#utility.yul\":18892:18928   */\n      iszero\n      tag_521\n      jumpi\n        /* \"#utility.yul\":18908:18926   */\n      tag_522\n      tag_332\n      jump\t// in\n    tag_522:\n        /* \"#utility.yul\":18892:18928   */\n    tag_521:\n        /* \"#utility.yul\":18744:18935   */\n      swap3\n      swap2\n      pop\n      pop\n      jump\t// out\n        /* \"#utility.yul\":18941:19082   */\n    tag_333:\n        /* \"#utility.yul\":18990:18994   */\n      0x00\n        /* \"#utility.yul\":19013:19016   */\n      dup2\n        /* \"#utility.yul\":19005:19016   */\n      swap1\n      pop\n        /* \"#utility.yul\":19036:19039   */\n      dup2\n        /* \"#utility.yul\":19033:19034   */\n      0x00\n        /* \"#utility.yul\":19026:19040   */\n      mstore\n        /* \"#utility.yul\":19070:19074   */\n      0x20\n        /* \"#utility.yul\":19067:19068   */\n      0x00\n        /* \"#utility.yul\":19057:19075   */\n      keccak256\n        /* \"#utility.yul\":19049:19075   */\n      swap1\n      pop\n        /* \"#utility.yul\":18941:19082   */\n      swap2\n      swap1\n      pop\n      jump\t// out\n        /* \"#utility.yul\":19088:19181   */\n    tag_334:\n        /* \"#utility.yul\":19125:19131   */\n      0x00\n        /* \"#utility.yul\":19172:19174   */\n      0x20\n        /* \"#utility.yul\":19167:19169   */\n      0x1f\n        /* \"#utility.yul\":19160:19165   */\n      dup4\n        /* \"#utility.yul\":19156:19170   */\n      add\n        /* \"#utility.yul\":19152:19175   */\n      div\n        /* \"#utility.yul\":19142:19175   */\n      swap1\n      pop\n        /* \"#utility.yul\":19088:19181   */\n      swap2\n      swap1\n      pop\n      jump\t// out\n        /* \"#utility.yul\":19187:19294   */\n    tag_335:\n        /* \"#utility.yul\":19231:19239   */\n      0x00\n        /* \"#utility.yul\":19281:19286   */\n      dup3\n        /* \"#utility.yul\":19275:19279   */\n      dup3\n        /* \"#utility.yul\":19271:19287   */\n      shl\n        /* \"#utility.yul\":19250:19287   */\n      swap1\n      pop\n        /* \"#utility.yul\":19187:19294   */\n      swap3\n      swap2\n      pop\n      pop\n      jump\t// out\n        /* \"#utility.yul\":19300:19693   */\n    tag_336:\n        /* \"#utility.yul\":19369:19375   */\n      0x00\n        /* \"#utility.yul\":19419:19420   */\n      0x08\n        /* \"#utility.yul\":19407:19417   */\n      dup4\n        /* \"#utility.yul\":19403:19421   */\n      mul\n        /* \"#utility.yul\":19442:19539   */\n      tag_527\n        /* \"#utility.yul\":19472:19538   */\n      0xffffffffffffffffffffffffffffffffffffffffffffffffffffffffffffffff\n        /* \"#utility.yul\":19461:19470   */\n      dup3\n        /* \"#utility.yul\":19442:19539   */\n      tag_335\n      jump\t// in\n    tag_527:\n        /* \"#utility.yul\":19560:19599   */\n      tag_528\n        /* \"#utility.yul\":19590:19598   */\n      dup7\n        /* \"#utility.yul\":19579:19588   */\n      dup4\n        /* \"#utility.yul\":19560:19599   */\n      tag_335\n      jump\t// in\n    tag_528:\n        /* \"#utility.yul\":19548:19599   */\n      swap6\n      pop\n        /* \"#utility.yul\":19632:19636   */\n      dup1\n        /* \"#utility.yul\":19628:19637   */\n      not\n        /* \"#utility.yul\":19621:19626   */\n      dup5\n        /* \"#utility.yul\":19617:19638   */\n      and\n        /* \"#utility.yul\":19608:19638   */\n      swap4\n      pop\n        /* \"#utility.yul\":19681:19685   */\n      dup1\n        /* \"#utility.yul\":19671:19679   */\n      dup7\n        /* \"#utility.yul\":19667:19686   */\n      and\n        /* \"#utility.yul\":19660:19665   */\n      dup5\n        /* \"#utility.yul\":19657:19687   */\n      or\n        /* \"#utility.yul\":19647:19687   */\n      swap3\n      pop\n        /* \"#utility.yul\":19376:19693   */\n      pop\n      pop\n        /* \"#utility.yul\":19300:19693   */\n      swap4\n      swap3\n      pop\n      pop\n      pop\n      jump\t// out\n        /* \"#utility.yul\":19699:19759   */\n    tag_337:\n        /* \"#utility.yul\":19727:19730   */\n      0x00\n        /* \"#utility.yul\":19748:19753   */\n      dup2\n        /* \"#utility.yul\":19741:19753   */\n      swap1\n      pop\n        /* \"#utility.yul\":19699:19759   */\n      swap2\n      swap1\n      pop\n      jump\t// out\n        /* \"#utility.yul\":19765:19907   */\n    tag_338:\n        /* \"#utility.yul\":19815:19824   */\n      0x00\n        /* \"#utility.yul\":19848:19901   */\n      tag_531\n        /* \"#utility.yul\":19866:19900   */\n      tag_532\n        /* \"#utility.yul\":19875:19899   */\n      tag_533\n        /* \"#utility.yul\":19893:19898   */\n      dup5\n        /* \"#utility.yul\":19875:19899   */\n      tag_287\n      jump\t// in\n    tag_533:\n        /* \"#utility.yul\":19866:19900   */\n      tag_337\n      jump\t// in\n    tag_532:\n        /* \"#utility.yul\":19848:19901   */\n      tag_287\n      jump\t// in\n    tag_531:\n        /* \"#utility.yul\":19835:19901   */\n      swap1\n      pop\n        /* \"#utility.yul\":19765:19907   */\n      swap2\n      swap1\n      pop\n      jump\t// out\n        /* \"#utility.yul\":19913:19988   */\n    tag_339:\n        /* \"#utility.yul\":19956:19959   */\n      0x00\n        /* \"#utility.yul\":19977:19982   */\n      dup2\n        /* \"#utility.yul\":19970:19982   */\n      swap1\n      pop\n        /* \"#utility.yul\":19913:19988   */\n      swap2\n      swap1\n      pop\n      jump\t// out\n        /* \"#utility.yul\":19994:20263   */\n    tag_340:\n        /* \"#utility.yul\":20104:20143   */\n      tag_536\n        /* \"#utility.yul\":20135:20142   */\n      dup4\n        /* \"#utility.yul\":20104:20143   */\n      tag_338\n      jump\t// in\n    tag_536:\n        /* \"#utility.yul\":20165:20256   */\n      tag_537\n        /* \"#utility.yul\":20214:20255   */\n      tag_538\n        /* \"#utility.yul\":20238:20254   */\n      dup3\n        /* \"#utility.yul\":20214:20255   */\n      tag_339\n      jump\t// in\n    tag_538:\n        /* \"#utility.yul\":20206:20212   */\n      dup5\n        /* \"#utility.yul\":20199:20203   */\n      dup5\n        /* \"#utility.yul\":20193:20204   */\n      sload\n        /* \"#utility.yul\":20165:20256   */\n      tag_336\n      jump\t// in\n    tag_537:\n        /* \"#utility.yul\":20159:20163   */\n      dup3\n        /* \"#utility.yul\":20152:20257   */\n      sstore\n        /* \"#utility.yul\":20070:20263   */\n      pop\n        /* \"#utility.yul\":19994:20263   */\n      pop\n      pop\n      pop\n      jump\t// out\n        /* \"#utility.yul\":20269:20342   */\n    tag_341:\n        /* \"#utility.yul\":20314:20317   */\n      0x00\n        /* \"#utility.yul\":20269:20342   */\n      swap1\n      jump\t// out\n        /* \"#utility.yul\":20348:20537   */\n    tag_342:\n        /* \"#utility.yul\":20425:20457   */\n      tag_541\n      tag_341\n      jump\t// in\n    tag_541:\n        /* \"#utility.yul\":20466:20531   */\n      tag_542\n        /* \"#utility.yul\":20524:20530   */\n      dup2\n        /* \"#utility.yul\":20516:20522   */\n      dup5\n        /* \"#utility.yul\":20510:20514   */\n      dup5\n        /* \"#utility.yul\":20466:20531   */\n      tag_340\n      jump\t// in\n    tag_542:\n        /* \"#utility.yul\":20401:20537   */\n      pop\n        /* \"#utility.yul\":20348:20537   */\n      pop\n      pop\n      jump\t// out\n        /* \"#utility.yul\":20543:20729   */\n    tag_343:\n        /* \"#utility.yul\":20603:20723   */\n    tag_544:\n        /* \"#utility.yul\":20620:20623   */\n      dup2\n        /* \"#utility.yul\":20613:20618   */\n      dup2\n        /* \"#utility.yul\":20610:20624   */\n      lt\n        /* \"#utility.yul\":20603:20723   */\n      iszero\n      tag_546\n      jumpi\n        /* \"#utility.yul\":20674:20713   */\n      tag_547\n        /* \"#utility.yul\":20711:20712   */\n      0x00\n        /* \"#utility.yul\":20704:20709   */\n      dup3\n        /* \"#utility.yul\":20674:20713   */\n      tag_342\n      jump\t// in\n    tag_547:\n        /* \"#utility.yul\":20647:20648   */\n      0x01\n        /* \"#utility.yul\":20640:20645   */\n      dup2\n        /* \"#utility.yul\":20636:20649   */\n      add\n        /* \"#utility.yul\":20627:20649   */\n      swap1\n      pop\n        /* \"#utility.yul\":20603:20723   */\n      jump(tag_544)\n    tag_546:\n        /* \"#utility.yul\":20543:20729   */\n      pop\n      pop\n      jump\t// out\n        /* \"#utility.yul\":20735:21278   */\n    tag_344:\n        /* \"#utility.yul\":20836:20838   */\n      0x1f\n        /* \"#utility.yul\":20831:20834   */\n      dup3\n        /* \"#utility.yul\":20828:20839   */\n      gt\n        /* \"#utility.yul\":20825:21271   */\n      iszero\n      tag_549\n      jumpi\n        /* \"#utility.yul\":20870:20908   */\n      tag_550\n        /* \"#utility.yul\":20902:20907   */\n      dup2\n        /* \"#utility.yul\":20870:20908   */\n      tag_333\n      jump\t// in\n    tag_550:\n        /* \"#utility.yul\":20954:20983   */\n      tag_551\n        /* \"#utility.yul\":20972:20982   */\n      dup5\n        /* \"#utility.yul\":20954:20983   */\n      tag_334\n      jump\t// in\n    tag_551:\n        /* \"#utility.yul\":20944:20952   */\n      dup2\n        /* \"#utility.yul\":20940:20984   */\n      add\n        /* \"#utility.yul\":21137:21139   */\n      0x20\n        /* \"#utility.yul\":21125:21135   */\n      dup6\n        /* \"#utility.yul\":21122:21140   */\n      lt\n        /* \"#utility.yul\":21119:21168   */\n      iszero\n      tag_552\n      jumpi\n        /* \"#utility.yul\":21158:21166   */\n      dup2\n        /* \"#utility.yul\":21143:21166   */\n      swap1\n      pop\n        /* \"#utility.yul\":21119:21168   */\n    tag_552:\n        /* \"#utility.yul\":21181:21261   */\n      tag_553\n        /* \"#utility.yul\":21237:21259   */\n      tag_554\n        /* \"#utility.yul\":21255:21258   */\n      dup6\n        /* \"#utility.yul\":21237:21259   */\n      tag_334\n      jump\t// in\n    tag_554:\n        /* \"#utility.yul\":21227:21235   */\n      dup4\n        /* \"#utility.yul\":21223:21260   */\n      add\n        /* \"#utility.yul\":21210:21221   */\n      dup3\n        /* \"#utility.yul\":21181:21261   */\n      tag_343\n      jump\t// in\n    tag_553:\n        /* \"#utility.yul\":20840:21271   */\n      pop\n      pop\n        /* \"#utility.yul\":20825:21271   */\n    tag_549:\n        /* \"#utility.yul\":20735:21278   */\n      pop\n      pop\n      pop\n      jump\t// out\n        /* \"#utility.yul\":21284:21401   */\n    tag_345:\n        /* \"#utility.yul\":21338:21346   */\n      0x00\n        /* \"#utility.yul\":21388:21393   */\n      dup3\n        /* \"#utility.yul\":21382:21386   */\n      dup3\n        /* \"#utility.yul\":21378:21394   */\n      shr\n        /* \"#utility.yul\":21357:21394   */\n      swap1\n      pop\n        /* \"#utility.yul\":21284:21401   */\n      swap3\n      swap2\n      pop\n      pop\n      jump\t// out\n        /* \"#utility.yul\":21407:21576   */\n    tag_346:\n        /* \"#utility.yul\":21451:21457   */\n      0x00\n        /* \"#utility.yul\":21484:21535   */\n      tag_557\n        /* \"#utility.yul\":21532:21533   */\n      0x00\n        /* \"#utility.yul\":21528:21534   */\n      not\n        /* \"#utility.yul\":21520:21525   */\n      dup5\n        /* \"#utility.yul\":21517:21518   */\n      0x08\n        /* \"#utility.yul\":21513:21526   */\n      mul\n        /* \"#utility.yul\":21484:21535   */\n      tag_345\n      jump\t// in\n    tag_557:\n        /* \"#utility.yul\":21480:21536   */\n      not\n        /* \"#utility.yul\":21565:21569   */\n      dup1\n        /* \"#utility.yul\":21559:21563   */\n      dup4\n        /* \"#utility.yul\":21555:21570   */\n      and\n        /* \"#utility.yul\":21545:21570   */\n      swap2\n      pop\n        /* \"#utility.yul\":21458:21576   */\n      pop\n        /* \"#utility.yul\":21407:21576   */\n      swap3\n      swap2\n      pop\n      pop\n      jump\t// out\n        /* \"#utility.yul\":21581:21876   */\n    tag_347:\n        /* \"#utility.yul\":21657:21661   */\n      0x00\n        /* \"#utility.yul\":21803:21832   */\n      tag_559\n        /* \"#utility.yul\":21828:21831   */\n      dup4\n        /* \"#utility.yul\":21822:21826   */\n      dup4\n        /* \"#utility.yul\":21803:21832   */\n      tag_346\n      jump\t// in\n    tag_559:\n        /* \"#utility.yul\":21795:21832   */\n      swap2\n      pop\n        /* \"#utility.yul\":21865:21868   */\n      dup3\n        /* \"#utility.yul\":21862:21863   */\n      0x02\n        /* \"#utility.yul\":21858:21869   */\n      mul\n        /* \"#utility.yul\":21852:21856   */\n      dup3\n        /* \"#utility.yul\":21849:21870   */\n      or\n        /* \"#utility.yul\":21841:21870   */\n      swap1\n      pop\n        /* \"#utility.yul\":21581:21876   */\n      swap3\n      swap2\n      pop\n      pop\n      jump\t// out\n        /* \"#utility.yul\":21881:23276   */\n    tag_86:\n        /* \"#utility.yul\":21998:22035   */\n      tag_561\n        /* \"#utility.yul\":22031:22034   */\n      dup3\n        /* \"#utility.yul\":21998:22035   */\n      tag_294\n      jump\t// in\n    tag_561:\n        /* \"#utility.yul\":22100:22118   */\n      0xffffffffffffffff\n        /* \"#utility.yul\":22092:22098   */\n      dup2\n        /* \"#utility.yul\":22089:22119   */\n      gt\n        /* \"#utility.yul\":22086:22142   */\n      iszero\n      tag_562\n      jumpi\n        /* \"#utility.yul\":22122:22140   */\n      tag_563\n      tag_81\n      jump\t// in\n    tag_563:\n        /* \"#utility.yul\":22086:22142   */\n    tag_562:\n        /* \"#utility.yul\":22166:22204   */\n      tag_564\n        /* \"#utility.yul\":22198:22202   */\n      dup3\n        /* \"#utility.yul\":22192:22203   */\n      sload\n        /* \"#utility.yul\":22166:22204   */\n      tag_65\n      jump\t// in\n    tag_564:\n        /* \"#utility.yul\":22251:22318   */\n      tag_565\n        /* \"#utility.yul\":22311:22317   */\n      dup3\n        /* \"#utility.yul\":22303:22309   */\n      dup3\n        /* \"#utility.yul\":22297:22301   */\n      dup6\n        /* \"#utility.yul\":22251:22318   */\n      tag_344\n      jump\t// in\n    tag_565:\n        /* \"#utility.yul\":22345:22346   */\n      0x00\n        /* \"#utility.yul\":22369:22373   */\n      0x20\n        /* \"#utility.yul\":22356:22373   */\n      swap1\n      pop\n        /* \"#utility.yul\":22401:22403   */\n      0x1f\n        /* \"#utility.yul\":22393:22399   */\n      dup4\n        /* \"#utility.yul\":22390:22404   */\n      gt\n        /* \"#utility.yul\":22418:22419   */\n      0x01\n        /* \"#utility.yul\":22413:23031   */\n      dup2\n      eq\n      tag_567\n      jumpi\n        /* \"#utility.yul\":23075:23076   */\n      0x00\n        /* \"#utility.yul\":23092:23098   */\n      dup5\n        /* \"#utility.yul\":23089:23166   */\n      iszero\n      tag_568\n      jumpi\n        /* \"#utility.yul\":23141:23150   */\n      dup3\n        /* \"#utility.yul\":23136:23139   */\n      dup8\n        /* \"#utility.yul\":23132:23151   */\n      add\n        /* \"#utility.yul\":23126:23152   */\n      mload\n        /* \"#utility.yul\":23117:23152   */\n      swap1\n      pop\n        /* \"#utility.yul\":23089:23166   */\n    tag_568:\n        /* \"#utility.yul\":23192:23259   */\n      tag_569\n        /* \"#utility.yul\":23252:23258   */\n      dup6\n        /* \"#utility.yul\":23245:23250   */\n      dup3\n        /* \"#utility.yul\":23192:23259   */\n      tag_347\n      jump\t// in\n    tag_569:\n        /* \"#utility.yul\":23186:23190   */\n      dup7\n        /* \"#utility.yul\":23179:23260   */\n      sstore\n        /* \"#utility.yul\":23048:23270   */\n      pop\n        /* \"#utility.yul\":22383:23270   */\n      jump(tag_566)\n        /* \"#utility.yul\":22413:23031   */\n    tag_567:\n        /* \"#utility.yul\":22465:22469   */\n      0x1f\n        /* \"#utility.yul\":22461:22470   */\n      not\n        /* \"#utility.yul\":22453:22459   */\n      dup5\n        /* \"#utility.yul\":22449:22471   */\n      and\n        /* \"#utility.yul\":22499:22536   */\n      tag_570\n        /* \"#utility.yul\":22531:22535   */\n      dup7\n        /* \"#utility.yul\":22499:22536   */\n      tag_333\n      jump\t// in\n    tag_570:\n        /* \"#utility.yul\":22558:22559   */\n      0x00\n        /* \"#utility.yul\":22572:22780   */\n    tag_571:\n        /* \"#utility.yul\":22586:22593   */\n      dup3\n        /* \"#utility.yul\":22583:22584   */\n      dup2\n        /* \"#utility.yul\":22580:22594   */\n      lt\n        /* \"#utility.yul\":22572:22780   */\n      iszero\n      tag_573\n      jumpi\n        /* \"#utility.yul\":22665:22674   */\n      dup5\n        /* \"#utility.yul\":22660:22663   */\n      dup10\n        /* \"#utility.yul\":22656:22675   */\n      add\n        /* \"#utility.yul\":22650:22676   */\n      mload\n        /* \"#utility.yul\":22642:22648   */\n      dup3\n        /* \"#utility.yul\":22635:22677   */\n      sstore\n        /* \"#utility.yul\":22716:22717   */\n      0x01\n        /* \"#utility.yul\":22708:22714   */\n      dup3\n        /* \"#utility.yul\":22704:22718   */\n      add\n        /* \"#utility.yul\":22694:22718   */\n      swap2\n      pop\n        /* \"#utility.yul\":22763:22765   */\n      0x20\n        /* \"#utility.yul\":22752:22761   */\n      dup6\n        /* \"#utility.yul\":22748:22766   */\n      add\n        /* \"#utility.yul\":22735:22766   */\n      swap5\n      pop\n        /* \"#utility.yul\":22609:22613   */\n      0x20\n        /* \"#utility.yul\":22606:22607   */\n      dup2\n        /* \"#utility.yul\":22602:22614   */\n      add\n        /* \"#utility.yul\":22597:22614   */\n      swap1\n      pop\n        /* \"#utility.yul\":22572:22780   */\n      jump(tag_571)\n    tag_573:\n        /* \"#utility.yul\":22808:22814   */\n      dup7\n        /* \"#utility.yul\":22799:22806   */\n      dup4\n        /* \"#utility.yul\":22796:22815   */\n      lt\n        /* \"#utility.yul\":22793:22972   */\n      iszero\n      tag_574\n      jumpi\n        /* \"#utility.yul\":22866:22875   */\n      dup5\n        /* \"#utility.yul\":22861:22864   */\n      dup10\n        /* \"#utility.yul\":22857:22876   */\n      add\n        /* \"#utility.yul\":22851:22877   */\n      mload\n        /* \"#utility.yul\":22909:22957   */\n      tag_575\n        /* \"#utility.yul\":22951:22955   */\n      0x1f\n        /* \"#utility.yul\":22943:22949   */\n      dup10\n        /* \"#utility.yul\":22939:22956   */\n      and\n        /* \"#utility.yul\":22928:22937   */\n      dup3\n        /* \"#utility.yul\":22909:22957   */\n      tag_346\n      jump\t// in\n    tag_575:\n        /* \"#utility.yul\":22901:22907   */\n      dup4\n        /* \"#utility.yul\":22894:22958   */\n      sstore\n        /* \"#utility.yul\":22816:22972   */\n      pop\n        /* \"#utility.yul\":22793:22972   */\n    tag_574:\n        /* \"#utility.yul\":23018:23019   */\n      0x01\n        /* \"#utility.yul\":23014:23015   */\n      0x02\n        /* \"#utility.yul\":23006:23012   */\n      dup9\n        /* \"#utility.yul\":23002:23016   */\n      mul\n        /* \"#utility.yul\":22998:23020   */\n      add\n        /* \"#utility.yul\":22992:22996   */\n      dup9\n        /* \"#utility.yul\":22985:23021   */\n      sstore\n        /* \"#utility.yul\":22420:23031   */\n      pop\n      pop\n      pop\n        /* \"#utility.yul\":22383:23270   */\n    tag_566:\n      pop\n        /* \"#utility.yul\":21973:23276   */\n      pop\n      pop\n      pop\n        /* \"#utility.yul\":21881:23276   */\n      pop\n      pop\n      jump\t// out\n        /* \"#utility.yul\":23282:23515   */\n    tag_92:\n        /* \"#utility.yul\":23321:23324   */\n      0x00\n        /* \"#utility.yul\":23344:23368   */\n      tag_577\n        /* \"#utility.yul\":23362:23367   */\n      dup3\n        /* \"#utility.yul\":23344:23368   */\n      tag_287\n      jump\t// in\n    tag_577:\n        /* \"#utility.yul\":23335:23368   */\n      swap2\n      pop\n        /* \"#utility.yul\":23390:23456   */\n      0xffffffffffffffffffffffffffffffffffffffffffffffffffffffffffffffff\n        /* \"#utility.yul\":23383:23388   */\n      dup3\n        /* \"#utility.yul\":23380:23457   */\n      sub\n        /* \"#utility.yul\":23377:23480   */\n      tag_578\n      jumpi\n        /* \"#utility.yul\":23460:23478   */\n      tag_579\n      tag_332\n      jump\t// in\n    tag_579:\n        /* \"#utility.yul\":23377:23480   */\n    tag_578:\n        /* \"#utility.yul\":23507:23508   */\n      0x01\n        /* \"#utility.yul\":23500:23505   */\n      dup3\n        /* \"#utility.yul\":23496:23509   */\n      add\n        /* \"#utility.yul\":23489:23509   */\n      swap1\n      pop\n        /* \"#utility.yul\":23282:23515   */\n      swap2\n      swap1\n      pop\n      jump\t// out\n        /* \"#utility.yul\":23521:23701   */\n    tag_105:\n        /* \"#utility.yul\":23569:23646   */\n      0x4e487b7100000000000000000000000000000000000000000000000000000000\n        /* \"#utility.yul\":23566:23567   */\n      0x00\n        /* \"#utility.yul\":23559:23647   */\n      mstore\n        /* \"#utility.yul\":23666:23670   */\n      0x32\n        /* \"#utility.yul\":23663:23664   */\n      0x04\n        /* \"#utility.yul\":23656:23671   */\n      mstore\n        /* \"#utility.yul\":23690:23694   */\n      0x24\n        /* \"#utility.yul\":23687:23688   */\n      0x00\n        /* \"#utility.yul\":23680:23695   */\n      revert\n        /* \"#utility.yul\":23707:23879   */\n    tag_348:\n        /* \"#utility.yul\":23847:23871   */\n      0x41756374696f6e20646f6573206e6f7420657869737400000000000000000000\n        /* \"#utility.yul\":23843:23844   */\n      0x00\n        /* \"#utility.yul\":23835:23841   */\n      dup3\n        /* \"#utility.yul\":23831:23845   */\n      add\n        /* \"#utility.yul\":23824:23872   */\n      mstore\n        /* \"#utility.yul\":23707:23879   */\n      pop\n      jump\t// out\n        /* \"#utility.yul\":23885:24251   */\n    tag_349:\n        /* \"#utility.yul\":24027:24030   */\n      0x00\n        /* \"#utility.yul\":24048:24115   */\n      tag_583\n        /* \"#utility.yul\":24112:24114   */\n      0x16\n        /* \"#utility.yul\":24107:24110   */\n      dup4\n        /* \"#utility.yul\":24048:24115   */\n      tag_295\n      jump\t// in\n    tag_583:\n        /* \"#utility.yul\":24041:24115   */\n      swap2\n      pop\n        /* \"#utility.yul\":24124:24217   */\n      tag_584\n        /* \"#utility.yul\":24213:24216   */\n      dup3\n        /* \"#utility.yul\":24124:24217   */\n      tag_348\n      jump\t// in\n    tag_584:\n        /* \"#utility.yul\":24242:24244   */\n      0x20\n        /* \"#utility.yul\":24237:24240   */\n      dup3\n        /* \"#utility.yul\":24233:24245   */\n      add\n        /* \"#utility.yul\":24226:24245   */\n      swap1\n      pop\n        /* \"#utility.yul\":23885:24251   */\n      swap2\n      swap1\n      pop\n      jump\t// out\n        /* \"#utility.yul\":24257:24676   */\n    tag_114:\n        /* \"#utility.yul\":24423:24427   */\n      0x00\n        /* \"#utility.yul\":24461:24463   */\n      0x20\n        /* \"#utility.yul\":24450:24459   */\n      dup3\n        /* \"#utility.yul\":24446:24464   */\n      add\n        /* \"#utility.yul\":24438:24464   */\n      swap1\n      pop\n        /* \"#utility.yul\":24510:24519   */\n      dup2\n        /* \"#utility.yul\":24504:24508   */\n      dup2\n        /* \"#utility.yul\":24500:24520   */\n      sub\n        /* \"#utility.yul\":24496:24497   */\n      0x00\n        /* \"#utility.yul\":24485:24494   */\n      dup4\n        /* \"#utility.yul\":24481:24498   */\n      add\n        /* \"#utility.yul\":24474:24521   */\n      mstore\n        /* \"#utility.yul\":24538:24669   */\n      tag_586\n        /* \"#utility.yul\":24664:24668   */\n      dup2\n        /* \"#utility.yul\":24538:24669   */\n      tag_349\n      jump\t// in\n    tag_586:\n        /* \"#utility.yul\":24530:24669   */\n      swap1\n      pop\n        /* \"#utility.yul\":24257:24676   */\n      swap2\n      swap1\n      pop\n      jump\t// out\n        /* \"#utility.yul\":24682:24847   */\n    tag_350:\n        /* \"#utility.yul\":24822:24839   */\n      0x41756374696f6e20657870697265640000000000000000000000000000000000\n        /* \"#utility.yul\":24818:24819   */\n      0x00\n        /* \"#utility.yul\":24810:24816   */\n      dup3\n        /* \"#utility.yul\":24806:24820   */\n      add\n        /* \"#utility.yul\":24799:24840   */\n      mstore\n        /* \"#utility.yul\":24682:24847   */\n      pop\n      jump\t// out\n        /* \"#utility.yul\":24853:25219   */\n    tag_351:\n        /* \"#utility.yul\":24995:24998   */\n      0x00\n        /* \"#utility.yul\":25016:25083   */\n      tag_589\n        /* \"#utility.yul\":25080:25082   */\n      0x0f\n        /* \"#utility.yul\":25075:25078   */\n      dup4\n        /* \"#utility.yul\":25016:25083   */\n      tag_295\n      jump\t// in\n    tag_589:\n        /* \"#utility.yul\":25009:25083   */\n      swap2\n      pop\n        /* \"#utility.yul\":25092:25185   */\n      tag_590\n        /* \"#utility.yul\":25181:25184   */\n      dup3\n        /* \"#utility.yul\":25092:25185   */\n      tag_350\n      jump\t// in\n    tag_590:\n        /* \"#utility.yul\":25210:25212   */\n      0x20\n        /* \"#utility.yul\":25205:25208   */\n      dup3\n        /* \"#utility.yul\":25201:25213   */\n      add\n        /* \"#utility.yul\":25194:25213   */\n      swap1\n      pop\n        /* \"#utility.yul\":24853:25219   */\n      swap2\n      swap1\n      pop\n      jump\t// out\n        /* \"#utility.yul\":25225:25644   */\n    tag_159:\n        /* \"#utility.yul\":25391:25395   */\n      0x00\n        /* \"#utility.yul\":25429:25431   */\n      0x20\n        /* \"#utility.yul\":25418:25427   */\n      dup3\n        /* \"#utility.yul\":25414:25432   */\n      add\n        /* \"#utility.yul\":25406:25432   */\n      swap1\n      pop\n        /* \"#utility.yul\":25478:25487   */\n      dup2\n        /* \"#utility.yul\":25472:25476   */\n      dup2\n        /* \"#utility.yul\":25468:25488   */\n      sub\n        /* \"#utility.yul\":25464:25465   */\n      0x00\n        /* \"#utility.yul\":25453:25462   */\n      dup4\n        /* \"#utility.yul\":25449:25466   */\n      add\n        /* \"#utility.yul\":25442:25489   */\n      mstore\n        /* \"#utility.yul\":25506:25637   */\n      tag_592\n        /* \"#utility.yul\":25632:25636   */\n      dup2\n        /* \"#utility.yul\":25506:25637   */\n      tag_351\n      jump\t// in\n    tag_592:\n        /* \"#utility.yul\":25498:25637   */\n      swap1\n      pop\n        /* \"#utility.yul\":25225:25644   */\n      swap2\n      swap1\n      pop\n      jump\t// out\n        /* \"#utility.yul\":25650:25941   */\n    tag_352:\n        /* \"#utility.yul\":25790:25824   */\n      0x50726963652073686f756c642062652067726561746572207468616e206d696e\n        /* \"#utility.yul\":25786:25787   */\n      0x00\n        /* \"#utility.yul\":25778:25784   */\n      dup3\n        /* \"#utility.yul\":25774:25788   */\n      add\n        /* \"#utility.yul\":25767:25825   */\n      mstore\n        /* \"#utility.yul\":25859:25893   */\n      0x696d756d206f6666657220707269636520616e64207468652062657374206f66\n        /* \"#utility.yul\":25854:25856   */\n      0x20\n        /* \"#utility.yul\":25846:25852   */\n      dup3\n        /* \"#utility.yul\":25842:25857   */\n      add\n        /* \"#utility.yul\":25835:25894   */\n      mstore\n        /* \"#utility.yul\":25928:25933   */\n      0x6665720000000000000000000000000000000000000000000000000000000000\n        /* \"#utility.yul\":25923:25925   */\n      0x40\n        /* \"#utility.yul\":25915:25921   */\n      dup3\n        /* \"#utility.yul\":25911:25926   */\n      add\n        /* \"#utility.yul\":25904:25934   */\n      mstore\n        /* \"#utility.yul\":25650:25941   */\n      pop\n      jump\t// out\n        /* \"#utility.yul\":25947:26313   */\n    tag_353:\n        /* \"#utility.yul\":26089:26092   */\n      0x00\n        /* \"#utility.yul\":26110:26177   */\n      tag_595\n        /* \"#utility.yul\":26174:26176   */\n      0x43\n        /* \"#utility.yul\":26169:26172   */\n      dup4\n        /* \"#utility.yul\":26110:26177   */\n      tag_295\n      jump\t// in\n    tag_595:\n        /* \"#utility.yul\":26103:26177   */\n      swap2\n      pop\n        /* \"#utility.yul\":26186:26279   */\n      tag_596\n        /* \"#utility.yul\":26275:26278   */\n      dup3\n        /* \"#utility.yul\":26186:26279   */\n      tag_352\n      jump\t// in\n    tag_596:\n        /* \"#utility.yul\":26304:26306   */\n      0x60\n        /* \"#utility.yul\":26299:26302   */\n      dup3\n        /* \"#utility.yul\":26295:26307   */\n      add\n        /* \"#utility.yul\":26288:26307   */\n      swap1\n      pop\n        /* \"#utility.yul\":25947:26313   */\n      swap2\n      swap1\n      pop\n      jump\t// out\n        /* \"#utility.yul\":26319:26738   */\n    tag_172:\n        /* \"#utility.yul\":26485:26489   */\n      0x00\n        /* \"#utility.yul\":26523:26525   */\n      0x20\n        /* \"#utility.yul\":26512:26521   */\n      dup3\n        /* \"#utility.yul\":26508:26526   */\n      add\n        /* \"#utility.yul\":26500:26526   */\n      swap1\n      pop\n        /* \"#utility.yul\":26572:26581   */\n      dup2\n        /* \"#utility.yul\":26566:26570   */\n      dup2\n        /* \"#utility.yul\":26562:26582   */\n      sub\n        /* \"#utility.yul\":26558:26559   */\n      0x00\n        /* \"#utility.yul\":26547:26556   */\n      dup4\n        /* \"#utility.yul\":26543:26560   */\n      add\n        /* \"#utility.yul\":26536:26583   */\n      mstore\n        /* \"#utility.yul\":26600:26731   */\n      tag_598\n        /* \"#utility.yul\":26726:26730   */\n      dup2\n        /* \"#utility.yul\":26600:26731   */\n      tag_353\n      jump\t// in\n    tag_598:\n        /* \"#utility.yul\":26592:26731   */\n      swap1\n      pop\n        /* \"#utility.yul\":26319:26738   */\n      swap2\n      swap1\n      pop\n      jump\t// out\n        /* \"#utility.yul\":26744:26938   */\n    tag_198:\n        /* \"#utility.yul\":26784:26788   */\n      0x00\n        /* \"#utility.yul\":26804:26824   */\n      tag_600\n        /* \"#utility.yul\":26822:26823   */\n      dup3\n        /* \"#utility.yul\":26804:26824   */\n      tag_287\n      jump\t// in\n    tag_600:\n        /* \"#utility.yul\":26799:26824   */\n      swap2\n      pop\n        /* \"#utility.yul\":26838:26858   */\n      tag_601\n        /* \"#utility.yul\":26856:26857   */\n      dup4\n        /* \"#utility.yul\":26838:26858   */\n      tag_287\n      jump\t// in\n    tag_601:\n        /* \"#utility.yul\":26833:26858   */\n      swap3\n      pop\n        /* \"#utility.yul\":26882:26883   */\n      dup3\n        /* \"#utility.yul\":26879:26880   */\n      dup3\n        /* \"#utility.yul\":26875:26884   */\n      sub\n        /* \"#utility.yul\":26867:26884   */\n      swap1\n      pop\n        /* \"#utility.yul\":26906:26907   */\n      dup2\n        /* \"#utility.yul\":26900:26904   */\n      dup2\n        /* \"#utility.yul\":26897:26908   */\n      gt\n        /* \"#utility.yul\":26894:26931   */\n      iszero\n      tag_602\n      jumpi\n        /* \"#utility.yul\":26911:26929   */\n      tag_603\n      tag_332\n      jump\t// in\n    tag_603:\n        /* \"#utility.yul\":26894:26931   */\n    tag_602:\n        /* \"#utility.yul\":26744:26938   */\n      swap3\n      swap2\n      pop\n      pop\n      jump\t// out\n        /* \"#utility.yul\":26944:27117   */\n    tag_354:\n        /* \"#utility.yul\":27084:27109   */\n      0x41756374696f6e206973207374696c6c20616374697665000000000000000000\n        /* \"#utility.yul\":27080:27081   */\n      0x00\n        /* \"#utility.yul\":27072:27078   */\n      dup3\n        /* \"#utility.yul\":27068:27082   */\n      add\n        /* \"#utility.yul\":27061:27110   */\n      mstore\n        /* \"#utility.yul\":26944:27117   */\n      pop\n      jump\t// out\n        /* \"#utility.yul\":27123:27489   */\n    tag_355:\n        /* \"#utility.yul\":27265:27268   */\n      0x00\n        /* \"#utility.yul\":27286:27353   */\n      tag_606\n        /* \"#utility.yul\":27350:27352   */\n      0x17\n        /* \"#utility.yul\":27345:27348   */\n      dup4\n        /* \"#utility.yul\":27286:27353   */\n      tag_295\n      jump\t// in\n    tag_606:\n        /* \"#utility.yul\":27279:27353   */\n      swap2\n      pop\n        /* \"#utility.yul\":27362:27455   */\n      tag_607\n        /* \"#utility.yul\":27451:27454   */\n      dup3\n        /* \"#utility.yul\":27362:27455   */\n      tag_354\n      jump\t// in\n    tag_607:\n        /* \"#utility.yul\":27480:27482   */\n      0x20\n        /* \"#utility.yul\":27475:27478   */\n      dup3\n        /* \"#utility.yul\":27471:27483   */\n      add\n        /* \"#utility.yul\":27464:27483   */\n      swap1\n      pop\n        /* \"#utility.yul\":27123:27489   */\n      swap2\n      swap1\n      pop\n      jump\t// out\n        /* \"#utility.yul\":27495:27914   */\n    tag_231:\n        /* \"#utility.yul\":27661:27665   */\n      0x00\n        /* \"#utility.yul\":27699:27701   */\n      0x20\n        /* \"#utility.yul\":27688:27697   */\n      dup3\n        /* \"#utility.yul\":27684:27702   */\n      add\n        /* \"#utility.yul\":27676:27702   */\n      swap1\n      pop\n        /* \"#utility.yul\":27748:27757   */\n      dup2\n        /* \"#utility.yul\":27742:27746   */\n      dup2\n        /* \"#utility.yul\":27738:27758   */\n      sub\n        /* \"#utility.yul\":27734:27735   */\n      0x00\n        /* \"#utility.yul\":27723:27732   */\n      dup4\n        /* \"#utility.yul\":27719:27736   */\n      add\n        /* \"#utility.yul\":27712:27759   */\n      mstore\n        /* \"#utility.yul\":27776:27907   */\n      tag_609\n        /* \"#utility.yul\":27902:27906   */\n      dup2\n        /* \"#utility.yul\":27776:27907   */\n      tag_355\n      jump\t// in\n    tag_609:\n        /* \"#utility.yul\":27768:27907   */\n      swap1\n      pop\n        /* \"#utility.yul\":27495:27914   */\n      swap2\n      swap1\n      pop\n      jump\t// out\n\n    auxdata: 0xa26469706673582212204cdd2b13a5808896f9e2503230f2d32fdd0dd15dfbc39d8c4d6e16c21a54ab6564736f6c63430008100033\n}\n",
				"bytecode": {
					"linkReferences": {},
					"object": "608060405260018055600160035534801561001957600080fd5b50612a9e806100296000396000f3fe6080604052600436106100915760003560e01c8063a269993d11610059578063a269993d146101a8578063c43ede15146101c4578063d7c0691914610201578063df1dd8261461022c578063ff3ad0b41461025557610091565b8063571a26a01461009657806361e2db55146100d9578063661d2c2c146101025780638a72ea6a1461013f57806396b5a7551461017f575b600080fd5b3480156100a257600080fd5b506100bd60048036038101906100b89190611cac565b610292565b6040516100d09796959493929190611db9565b60405180910390f35b3480156100e557600080fd5b5061010060048036038101906100fb9190611e9b565b610404565b005b34801561010e57600080fd5b5061012960048036038101906101249190611f6e565b6106d2565b60405161013691906120bd565b60405180910390f35b34801561014b57600080fd5b5061016660048036038101906101619190611cac565b610873565b60405161017694939291906120df565b60405180910390f35b34801561018b57600080fd5b506101a660048036038101906101a19190611cac565b6108c3565b005b6101c260048036038101906101bd9190611cac565b610dac565b005b3480156101d057600080fd5b506101eb60048036038101906101e69190611cac565b611121565b6040516101f891906120bd565b60405180910390f35b34801561020d57600080fd5b506102166112f0565b604051610223919061239d565b60405180910390f35b34801561023857600080fd5b50610253600480360381019061024e9190611cac565b6115c5565b005b34801561026157600080fd5b5061027c60048036038101906102779190611f6e565b6117e1565b604051610289919061239d565b60405180910390f35b60006020528060005260406000206000915090508060000154908060010160009054906101000a900473ffffffffffffffffffffffffffffffffffffffff16908060020180546102e1906123ee565b80601f016020809104026020016040519081016040528092919081815260200182805461030d906123ee565b801561035a5780601f1061032f5761010080835404028352916020019161035a565b820191906000526020600020905b81548152906001019060200180831161033d57829003601f168201915b50505050509080600301805461036f906123ee565b80601f016020809104026020016040519081016040528092919081815260200182805461039b906123ee565b80156103e85780601f106103bd576101008083540402835291602001916103e8565b820191906000526020600020905b8154815290600101906020018083116103cb57829003601f168201915b5050505050908060040154908060050154908060060154905087565b60008211610447576040517f08c379a000000000000000000000000000000000000000000000000000000000815260040161043e90612491565b60405180910390fd5b60008067ffffffffffffffff811115610463576104626124b1565b5b6040519080825280602002602001820160405280156104915781602001602082028036833780820191505090505b50905060405180610100016040528060015481526020013373ffffffffffffffffffffffffffffffffffffffff16815260200188888080601f016020809104026020016040519081016040528093929190818152602001838380828437600081840152601f19601f82011690508083019250505050505050815260200186868080601f016020809104026020016040519081016040528093929190818152602001838380828437600081840152601f19601f820116905080830192505050505050508152602001848152602001834261056a919061250f565b8152602001600081526020018281525060008060015481526020019081526020016000206000820151816000015560208201518160010160006101000a81548173ffffffffffffffffffffffffffffffffffffffff021916908373ffffffffffffffffffffffffffffffffffffffff16021790555060408201518160020190816105f491906126ef565b50606082015181600301908161060a91906126ef565b506080820151816004015560a0820151816005015560c0820151816006015560e0820151816007019080519060200190610645929190611b08565b50905050600460003373ffffffffffffffffffffffffffffffffffffffff1673ffffffffffffffffffffffffffffffffffffffff1681526020019081526020016000206001549080600181540180825580915050600190039060005260206000200160009091909190915055600160008154809291906106c4906127c1565b919050555050505050505050565b60606000600560008473ffffffffffffffffffffffffffffffffffffffff1673ffffffffffffffffffffffffffffffffffffffff16815260200190815260200160002090506000818054905067ffffffffffffffff811115610737576107366124b1565b5b60405190808252806020026020018201604052801561077057816020015b61075d611b55565b8152602001906001900390816107555790505b50905060005b828054905081101561086857600083828154811061079757610796612809565b5b906000526020600020015490506002600082815260200190815260200160002060405180608001604052908160008201548152602001600182015481526020016002820160009054906101000a900473ffffffffffffffffffffffffffffffffffffffff1673ffffffffffffffffffffffffffffffffffffffff1673ffffffffffffffffffffffffffffffffffffffff16815260200160038201548152505083838151811061084957610848612809565b5b6020026020010181905250508080610860906127c1565b915050610776565b508092505050919050565b60026020528060005260406000206000915090508060000154908060010154908060020160009054906101000a900473ffffffffffffffffffffffffffffffffffffffff16908060030154905084565b806000811180156108d5575060015481105b610914576040517f08c379a000000000000000000000000000000000000000000000000000000000815260040161090b90612884565b60405180910390fd5b6000806000848152602001908152602001600020905060005b8160070180549050811015610b8b57600082600701828154811061095457610953612809565b5b9060005260206000200154905060006002600083815260200190815260200160002090508060020160009054906101000a900473ffffffffffffffffffffffffffffffffffffffff1673ffffffffffffffffffffffffffffffffffffffff166108fc82600301549081150290604051600060405180830381858888f193505050501580156109e6573d6000803e3d6000fd5b5060005b600560008360020160009054906101000a900473ffffffffffffffffffffffffffffffffffffffff1673ffffffffffffffffffffffffffffffffffffffff1673ffffffffffffffffffffffffffffffffffffffff16815260200190815260200160002080549050811015610b755782600560008460020160009054906101000a900473ffffffffffffffffffffffffffffffffffffffff1673ffffffffffffffffffffffffffffffffffffffff1673ffffffffffffffffffffffffffffffffffffffff1681526020019081526020016000208281548110610ace57610acd612809565b5b906000526020600020015403610b6257600560008360020160009054906101000a900473ffffffffffffffffffffffffffffffffffffffff1673ffffffffffffffffffffffffffffffffffffffff1673ffffffffffffffffffffffffffffffffffffffff1681526020019081526020016000208181548110610b5357610b52612809565b5b90600052602060002001600090555b8080610b6d906127c1565b9150506109ea565b5050508080610b83906127c1565b91505061092d565b5060005b600460008360010160009054906101000a900473ffffffffffffffffffffffffffffffffffffffff1673ffffffffffffffffffffffffffffffffffffffff1673ffffffffffffffffffffffffffffffffffffffff16815260200190815260200160002080549050811015610d1a5783600460008460010160009054906101000a900473ffffffffffffffffffffffffffffffffffffffff1673ffffffffffffffffffffffffffffffffffffffff1673ffffffffffffffffffffffffffffffffffffffff1681526020019081526020016000208281548110610c7357610c72612809565b5b906000526020600020015403610d0757600460008360010160009054906101000a900473ffffffffffffffffffffffffffffffffffffffff1673ffffffffffffffffffffffffffffffffffffffff1673ffffffffffffffffffffffffffffffffffffffff1681526020019081526020016000208181548110610cf857610cf7612809565b5b90600052602060002001600090555b8080610d12906127c1565b915050610b8f565b506000808481526020019081526020016000206000808201600090556001820160006101000a81549073ffffffffffffffffffffffffffffffffffffffff0219169055600282016000610d6d9190611b93565b600382016000610d7d9190611b93565b600482016000905560058201600090556006820160009055600782016000610da59190611bd3565b5050505050565b80600081118015610dbe575060015481105b610dfd576040517f08c379a0000000000000000000000000000000000000000000000000000000008152600401610df490612884565b60405180910390fd5b6000806000848152602001908152602001600020905080600501544210610e59576040517f08c379a0000000000000000000000000000000000000000000000000000000008152600401610e50906128f0565b60405180910390fd5b600060026000836006015481526020019081526020016000209050600034905060005b8360070180549050811015610f4057600060026000866007018481548110610ea757610ea6612809565b5b9060005260206000200154815260200190815260200160002090503373ffffffffffffffffffffffffffffffffffffffff168160020160009054906101000a900473ffffffffffffffffffffffffffffffffffffffff1673ffffffffffffffffffffffffffffffffffffffff1603610f2c57806003015483610f29919061250f565b92505b508080610f38906127c1565b915050610e7c565b5082600401548110158015610f585750816003015481115b610f97576040517f08c379a0000000000000000000000000000000000000000000000000000000008152600401610f8e906129a8565b60405180910390fd5b6003548360060181905550604051806080016040528060035481526020018681526020013373ffffffffffffffffffffffffffffffffffffffff16815260200182815250600260006003548152602001908152602001600020600082015181600001556020820151816001015560408201518160020160006101000a81548173ffffffffffffffffffffffffffffffffffffffff021916908373ffffffffffffffffffffffffffffffffffffffff16021790555060608201518160030155905050826007016003549080600181540180825580915050600190039060005260206000200160009091909190915055600181611092919061250f565b8360040181905550600560003373ffffffffffffffffffffffffffffffffffffffff1673ffffffffffffffffffffffffffffffffffffffff168152602001908152602001600020600354908060018154018082558091505060019003906000526020600020016000909190919091505560036000815480929190611115906127c1565b91905055505050505050565b606081600081118015611135575060015481105b611174576040517f08c379a000000000000000000000000000000000000000000000000000000000815260040161116b90612884565b60405180910390fd5b6000806000858152602001908152602001600020905060008160070190506000818054905067ffffffffffffffff8111156111b2576111b16124b1565b5b6040519080825280602002602001820160405280156111eb57816020015b6111d8611b55565b8152602001906001900390816111d05790505b50905060005b82805490508110156112e357600083828154811061121257611211612809565b5b906000526020600020015490506002600082815260200190815260200160002060405180608001604052908160008201548152602001600182015481526020016002820160009054906101000a900473ffffffffffffffffffffffffffffffffffffffff1673ffffffffffffffffffffffffffffffffffffffff1673ffffffffffffffffffffffffffffffffffffffff1681526020016003820154815250508383815181106112c4576112c3612809565b5b60200260200101819052505080806112db906127c1565b9150506111f1565b5080945050505050919050565b606060006001805461130291906129c8565b67ffffffffffffffff81111561131b5761131a6124b1565b5b60405190808252806020026020018201604052801561135457816020015b611341611bf4565b8152602001906001900390816113395790505b5090506000600190505b6001548110156115bd5760008082815260200190815260200160002060405180610100016040529081600082015481526020016001820160009054906101000a900473ffffffffffffffffffffffffffffffffffffffff1673ffffffffffffffffffffffffffffffffffffffff1673ffffffffffffffffffffffffffffffffffffffff1681526020016002820180546113f6906123ee565b80601f0160208091040260200160405190810160405280929190818152602001828054611422906123ee565b801561146f5780601f106114445761010080835404028352916020019161146f565b820191906000526020600020905b81548152906001019060200180831161145257829003601f168201915b50505050508152602001600382018054611488906123ee565b80601f01602080910402602001604051908101604052809291908181526020018280546114b4906123ee565b80156115015780601f106114d657610100808354040283529160200191611501565b820191906000526020600020905b8154815290600101906020018083116114e457829003601f168201915b505050505081526020016004820154815260200160058201548152602001600682015481526020016007820180548060200260200160405190810160405280929190818152602001828054801561157757602002820191906000526020600020905b815481526020019060010190808311611563575b5050505050815250508260018361158e91906129c8565b8151811061159f5761159e612809565b5b602002602001018190525080806115b5906127c1565b91505061135e565b508091505090565b806000811180156115d7575060015481105b611616576040517f08c379a000000000000000000000000000000000000000000000000000000000815260040161160d90612884565b60405180910390fd5b600080600084815260200190815260200160002090506000600260008360060154815260200190815260200160002090508160050154421161168d576040517f08c379a000000000000000000000000000000000000000000000000000000000815260040161168490612a48565b60405180910390fd5b60005b826007018054905081101561176b5760008360070182815481106116b7576116b6612809565b5b90600052602060002001549050600060026000838152602001908152602001600020905083600001548214611756578060020160009054906101000a900473ffffffffffffffffffffffffffffffffffffffff1673ffffffffffffffffffffffffffffffffffffffff166108fc82600301549081150290604051600060405180830381858888f19350505050158015611754573d6000803e3d6000fd5b505b50508080611763906127c1565b915050611690565b508160010160009054906101000a900473ffffffffffffffffffffffffffffffffffffffff1673ffffffffffffffffffffffffffffffffffffffff166108fc82600301549081150290604051600060405180830381858888f193505050501580156117da573d6000803e3d6000fd5b5050505050565b60606000600460008473ffffffffffffffffffffffffffffffffffffffff1673ffffffffffffffffffffffffffffffffffffffff16815260200190815260200160002090506000818054905067ffffffffffffffff811115611846576118456124b1565b5b60405190808252806020026020018201604052801561187f57816020015b61186c611bf4565b8152602001906001900390816118645790505b50905060005b8280549050811015611afd5760008382815481106118a6576118a5612809565b5b9060005260206000200154905060008082815260200190815260200160002060405180610100016040529081600082015481526020016001820160009054906101000a900473ffffffffffffffffffffffffffffffffffffffff1673ffffffffffffffffffffffffffffffffffffffff1673ffffffffffffffffffffffffffffffffffffffff168152602001600282018054611941906123ee565b80601f016020809104026020016040519081016040528092919081815260200182805461196d906123ee565b80156119ba5780601f1061198f576101008083540402835291602001916119ba565b820191906000526020600020905b81548152906001019060200180831161199d57829003601f168201915b505050505081526020016003820180546119d3906123ee565b80601f01602080910402602001604051908101604052809291908181526020018280546119ff906123ee565b8015611a4c5780601f10611a2157610100808354040283529160200191611a4c565b820191906000526020600020905b815481529060010190602001808311611a2f57829003601f168201915b5050505050815260200160048201548152602001600582015481526020016006820154815260200160078201805480602002602001604051908101604052809291908181526020018280548015611ac257602002820191906000526020600020905b815481526020019060010190808311611aae575b505050505081525050838381518110611ade57611add612809565b5b6020026020010181905250508080611af5906127c1565b915050611885565b508092505050919050565b828054828255906000526020600020908101928215611b44579160200282015b82811115611b43578251825591602001919060010190611b28565b5b509050611b519190611c4f565b5090565b60405180608001604052806000815260200160008152602001600073ffffffffffffffffffffffffffffffffffffffff168152602001600081525090565b508054611b9f906123ee565b6000825580601f10611bb15750611bd0565b601f016020900490600052602060002090810190611bcf9190611c4f565b5b50565b5080546000825590600052602060002090810190611bf19190611c4f565b50565b60405180610100016040528060008152602001600073ffffffffffffffffffffffffffffffffffffffff1681526020016060815260200160608152602001600081526020016000815260200160008152602001606081525090565b5b80821115611c68576000816000905550600101611c50565b5090565b600080fd5b600080fd5b6000819050919050565b611c8981611c76565b8114611c9457600080fd5b50565b600081359050611ca681611c80565b92915050565b600060208284031215611cc257611cc1611c6c565b5b6000611cd084828501611c97565b91505092915050565b611ce281611c76565b82525050565b600073ffffffffffffffffffffffffffffffffffffffff82169050919050565b6000611d1382611ce8565b9050919050565b611d2381611d08565b82525050565b600081519050919050565b600082825260208201905092915050565b60005b83811015611d63578082015181840152602081019050611d48565b60008484015250505050565b6000601f19601f8301169050919050565b6000611d8b82611d29565b611d958185611d34565b9350611da5818560208601611d45565b611dae81611d6f565b840191505092915050565b600060e082019050611dce600083018a611cd9565b611ddb6020830189611d1a565b8181036040830152611ded8188611d80565b90508181036060830152611e018187611d80565b9050611e106080830186611cd9565b611e1d60a0830185611cd9565b611e2a60c0830184611cd9565b98975050505050505050565b600080fd5b600080fd5b600080fd5b60008083601f840112611e5b57611e5a611e36565b5b8235905067ffffffffffffffff811115611e7857611e77611e3b565b5b602083019150836001820283011115611e9457611e93611e40565b5b9250929050565b60008060008060008060808789031215611eb857611eb7611c6c565b5b600087013567ffffffffffffffff811115611ed657611ed5611c71565b5b611ee289828a01611e45565b9650965050602087013567ffffffffffffffff811115611f0557611f04611c71565b5b611f1189828a01611e45565b94509450506040611f2489828a01611c97565b9250506060611f3589828a01611c97565b9150509295509295509295565b611f4b81611d08565b8114611f5657600080fd5b50565b600081359050611f6881611f42565b92915050565b600060208284031215611f8457611f83611c6c565b5b6000611f9284828501611f59565b91505092915050565b600081519050919050565b600082825260208201905092915050565b6000819050602082019050919050565b611fd081611c76565b82525050565b611fdf81611d08565b82525050565b608082016000820151611ffb6000850182611fc7565b50602082015161200e6020850182611fc7565b5060408201516120216040850182611fd6565b5060608201516120346060850182611fc7565b50505050565b60006120468383611fe5565b60808301905092915050565b6000602082019050919050565b600061206a82611f9b565b6120748185611fa6565b935061207f83611fb7565b8060005b838110156120b0578151612097888261203a565b97506120a283612052565b925050600181019050612083565b5085935050505092915050565b600060208201905081810360008301526120d7818461205f565b905092915050565b60006080820190506120f46000830187611cd9565b6121016020830186611cd9565b61210e6040830185611d1a565b61211b6060830184611cd9565b95945050505050565b600081519050919050565b600082825260208201905092915050565b6000819050602082019050919050565b600082825260208201905092915050565b600061216c82611d29565b6121768185612150565b9350612186818560208601611d45565b61218f81611d6f565b840191505092915050565b600081519050919050565b600082825260208201905092915050565b6000819050602082019050919050565b60006121d28383611fc7565b60208301905092915050565b6000602082019050919050565b60006121f68261219a565b61220081856121a5565b935061220b836121b6565b8060005b8381101561223c57815161222388826121c6565b975061222e836121de565b92505060018101905061220f565b5085935050505092915050565b6000610100830160008301516122626000860182611fc7565b5060208301516122756020860182611fd6565b506040830151848203604086015261228d8282612161565b915050606083015184820360608601526122a78282612161565b91505060808301516122bc6080860182611fc7565b5060a08301516122cf60a0860182611fc7565b5060c08301516122e260c0860182611fc7565b5060e083015184820360e08601526122fa82826121eb565b9150508091505092915050565b60006123138383612249565b905092915050565b6000602082019050919050565b600061233382612124565b61233d818561212f565b93508360208202850161234f85612140565b8060005b8581101561238b578484038952815161236c8582612307565b94506123778361231b565b925060208a01995050600181019050612353565b50829750879550505050505092915050565b600060208201905081810360008301526123b78184612328565b905092915050565b7f4e487b7100000000000000000000000000000000000000000000000000000000600052602260045260246000fd5b6000600282049050600182168061240657607f821691505b602082108103612419576124186123bf565b5b50919050565b7f4d696e696d756d206f666665722070726963652073686f756c6420626520677260008201527f6561746572207468616e20300000000000000000000000000000000000000000602082015250565b600061247b602c83611d34565b91506124868261241f565b604082019050919050565b600060208201905081810360008301526124aa8161246e565b9050919050565b7f4e487b7100000000000000000000000000000000000000000000000000000000600052604160045260246000fd5b7f4e487b7100000000000000000000000000000000000000000000000000000000600052601160045260246000fd5b600061251a82611c76565b915061252583611c76565b925082820190508082111561253d5761253c6124e0565b5b92915050565b60008190508160005260206000209050919050565b60006020601f8301049050919050565b600082821b905092915050565b6000600883026125a57fffffffffffffffffffffffffffffffffffffffffffffffffffffffffffffffff82612568565b6125af8683612568565b95508019841693508086168417925050509392505050565b6000819050919050565b60006125ec6125e76125e284611c76565b6125c7565b611c76565b9050919050565b6000819050919050565b612606836125d1565b61261a612612826125f3565b848454612575565b825550505050565b600090565b61262f612622565b61263a8184846125fd565b505050565b5b8181101561265e57612653600082612627565b600181019050612640565b5050565b601f8211156126a35761267481612543565b61267d84612558565b8101602085101561268c578190505b6126a061269885612558565b83018261263f565b50505b505050565b600082821c905092915050565b60006126c6600019846008026126a8565b1980831691505092915050565b60006126df83836126b5565b9150826002028217905092915050565b6126f882611d29565b67ffffffffffffffff811115612711576127106124b1565b5b61271b82546123ee565b612726828285612662565b600060209050601f8311600181146127595760008415612747578287015190505b61275185826126d3565b8655506127b9565b601f19841661276786612543565b60005b8281101561278f5784890151825560018201915060208501945060208101905061276a565b868310156127ac57848901516127a8601f8916826126b5565b8355505b6001600288020188555050505b505050505050565b60006127cc82611c76565b91507fffffffffffffffffffffffffffffffffffffffffffffffffffffffffffffffff82036127fe576127fd6124e0565b5b600182019050919050565b7f4e487b7100000000000000000000000000000000000000000000000000000000600052603260045260246000fd5b7f41756374696f6e20646f6573206e6f7420657869737400000000000000000000600082015250565b600061286e601683611d34565b915061287982612838565b602082019050919050565b6000602082019050818103600083015261289d81612861565b9050919050565b7f41756374696f6e20657870697265640000000000000000000000000000000000600082015250565b60006128da600f83611d34565b91506128e5826128a4565b602082019050919050565b60006020820190508181036000830152612909816128cd565b9050919050565b7f50726963652073686f756c642062652067726561746572207468616e206d696e60008201527f696d756d206f6666657220707269636520616e64207468652062657374206f6660208201527f6665720000000000000000000000000000000000000000000000000000000000604082015250565b6000612992604383611d34565b915061299d82612910565b606082019050919050565b600060208201905081810360008301526129c181612985565b9050919050565b60006129d382611c76565b91506129de83611c76565b92508282039050818111156129f6576129f56124e0565b5b92915050565b7f41756374696f6e206973207374696c6c20616374697665000000000000000000600082015250565b6000612a32601783611d34565b9150612a3d826129fc565b602082019050919050565b60006020820190508181036000830152612a6181612a25565b905091905056fea26469706673582212204cdd2b13a5808896f9e2503230f2d32fdd0dd15dfbc39d8c4d6e16c21a54ab6564736f6c63430008100033",
					"opcodes": "PUSH1 0x80 PUSH1 0x40 MSTORE PUSH1 0x1 DUP1 SSTORE PUSH1 0x1 PUSH1 0x3 SSTORE CALLVALUE DUP1 ISZERO PUSH2 0x19 JUMPI PUSH1 0x0 DUP1 REVERT JUMPDEST POP PUSH2 0x2A9E DUP1 PUSH2 0x29 PUSH1 0x0 CODECOPY PUSH1 0x0 RETURN INVALID PUSH1 0x80 PUSH1 0x40 MSTORE PUSH1 0x4 CALLDATASIZE LT PUSH2 0x91 JUMPI PUSH1 0x0 CALLDATALOAD PUSH1 0xE0 SHR DUP1 PUSH4 0xA269993D GT PUSH2 0x59 JUMPI DUP1 PUSH4 0xA269993D EQ PUSH2 0x1A8 JUMPI DUP1 PUSH4 0xC43EDE15 EQ PUSH2 0x1C4 JUMPI DUP1 PUSH4 0xD7C06919 EQ PUSH2 0x201 JUMPI DUP1 PUSH4 0xDF1DD826 EQ PUSH2 0x22C JUMPI DUP1 PUSH4 0xFF3AD0B4 EQ PUSH2 0x255 JUMPI PUSH2 0x91 JUMP JUMPDEST DUP1 PUSH4 0x571A26A0 EQ PUSH2 0x96 JUMPI DUP1 PUSH4 0x61E2DB55 EQ PUSH2 0xD9 JUMPI DUP1 PUSH4 0x661D2C2C EQ PUSH2 0x102 JUMPI DUP1 PUSH4 0x8A72EA6A EQ PUSH2 0x13F JUMPI DUP1 PUSH4 0x96B5A755 EQ PUSH2 0x17F JUMPI JUMPDEST PUSH1 0x0 DUP1 REVERT JUMPDEST CALLVALUE DUP1 ISZERO PUSH2 0xA2 JUMPI PUSH1 0x0 DUP1 REVERT JUMPDEST POP PUSH2 0xBD PUSH1 0x4 DUP1 CALLDATASIZE SUB DUP2 ADD SWAP1 PUSH2 0xB8 SWAP2 SWAP1 PUSH2 0x1CAC JUMP JUMPDEST PUSH2 0x292 JUMP JUMPDEST PUSH1 0x40 MLOAD PUSH2 0xD0 SWAP8 SWAP7 SWAP6 SWAP5 SWAP4 SWAP3 SWAP2 SWAP1 PUSH2 0x1DB9 JUMP JUMPDEST PUSH1 0x40 MLOAD DUP1 SWAP2 SUB SWAP1 RETURN JUMPDEST CALLVALUE DUP1 ISZERO PUSH2 0xE5 JUMPI PUSH1 0x0 DUP1 REVERT JUMPDEST POP PUSH2 0x100 PUSH1 0x4 DUP1 CALLDATASIZE SUB DUP2 ADD SWAP1 PUSH2 0xFB SWAP2 SWAP1 PUSH2 0x1E9B JUMP JUMPDEST PUSH2 0x404 JUMP JUMPDEST STOP JUMPDEST CALLVALUE DUP1 ISZERO PUSH2 0x10E JUMPI PUSH1 0x0 DUP1 REVERT JUMPDEST POP PUSH2 0x129 PUSH1 0x4 DUP1 CALLDATASIZE SUB DUP2 ADD SWAP1 PUSH2 0x124 SWAP2 SWAP1 PUSH2 0x1F6E JUMP JUMPDEST PUSH2 0x6D2 JUMP JUMPDEST PUSH1 0x40 MLOAD PUSH2 0x136 SWAP2 SWAP1 PUSH2 0x20BD JUMP JUMPDEST PUSH1 0x40 MLOAD DUP1 SWAP2 SUB SWAP1 RETURN JUMPDEST CALLVALUE DUP1 ISZERO PUSH2 0x14B JUMPI PUSH1 0x0 DUP1 REVERT JUMPDEST POP PUSH2 0x166 PUSH1 0x4 DUP1 CALLDATASIZE SUB DUP2 ADD SWAP1 PUSH2 0x161 SWAP2 SWAP1 PUSH2 0x1CAC JUMP JUMPDEST PUSH2 0x873 JUMP JUMPDEST PUSH1 0x40 MLOAD PUSH2 0x176 SWAP5 SWAP4 SWAP3 SWAP2 SWAP1 PUSH2 0x20DF JUMP JUMPDEST PUSH1 0x40 MLOAD DUP1 SWAP2 SUB SWAP1 RETURN JUMPDEST CALLVALUE DUP1 ISZERO PUSH2 0x18B JUMPI PUSH1 0x0 DUP1 REVERT JUMPDEST POP PUSH2 0x1A6 PUSH1 0x4 DUP1 CALLDATASIZE SUB DUP2 ADD SWAP1 PUSH2 0x1A1 SWAP2 SWAP1 PUSH2 0x1CAC JUMP JUMPDEST PUSH2 0x8C3 JUMP JUMPDEST STOP JUMPDEST PUSH2 0x1C2 PUSH1 0x4 DUP1 CALLDATASIZE SUB DUP2 ADD SWAP1 PUSH2 0x1BD SWAP2 SWAP1 PUSH2 0x1CAC JUMP JUMPDEST PUSH2 0xDAC JUMP JUMPDEST STOP JUMPDEST CALLVALUE DUP1 ISZERO PUSH2 0x1D0 JUMPI PUSH1 0x0 DUP1 REVERT JUMPDEST POP PUSH2 0x1EB PUSH1 0x4 DUP1 CALLDATASIZE SUB DUP2 ADD SWAP1 PUSH2 0x1E6 SWAP2 SWAP1 PUSH2 0x1CAC JUMP JUMPDEST PUSH2 0x1121 JUMP JUMPDEST PUSH1 0x40 MLOAD PUSH2 0x1F8 SWAP2 SWAP1 PUSH2 0x20BD JUMP JUMPDEST PUSH1 0x40 MLOAD DUP1 SWAP2 SUB SWAP1 RETURN JUMPDEST CALLVALUE DUP1 ISZERO PUSH2 0x20D JUMPI PUSH1 0x0 DUP1 REVERT JUMPDEST POP PUSH2 0x216 PUSH2 0x12F0 JUMP JUMPDEST PUSH1 0x40 MLOAD PUSH2 0x223 SWAP2 SWAP1 PUSH2 0x239D JUMP JUMPDEST PUSH1 0x40 MLOAD DUP1 SWAP2 SUB SWAP1 RETURN JUMPDEST CALLVALUE DUP1 ISZERO PUSH2 0x238 JUMPI PUSH1 0x0 DUP1 REVERT JUMPDEST POP PUSH2 0x253 PUSH1 0x4 DUP1 CALLDATASIZE SUB DUP2 ADD SWAP1 PUSH2 0x24E SWAP2 SWAP1 PUSH2 0x1CAC JUMP JUMPDEST PUSH2 0x15C5 JUMP JUMPDEST STOP JUMPDEST CALLVALUE DUP1 ISZERO PUSH2 0x261 JUMPI PUSH1 0x0 DUP1 REVERT JUMPDEST POP PUSH2 0x27C PUSH1 0x4 DUP1 CALLDATASIZE SUB DUP2 ADD SWAP1 PUSH2 0x277 SWAP2 SWAP1 PUSH2 0x1F6E JUMP JUMPDEST PUSH2 0x17E1 JUMP JUMPDEST PUSH1 0x40 MLOAD PUSH2 0x289 SWAP2 SWAP1 PUSH2 0x239D JUMP JUMPDEST PUSH1 0x40 MLOAD DUP1 SWAP2 SUB SWAP1 RETURN JUMPDEST PUSH1 0x0 PUSH1 0x20 MSTORE DUP1 PUSH1 0x0 MSTORE PUSH1 0x40 PUSH1 0x0 KECCAK256 PUSH1 0x0 SWAP2 POP SWAP1 POP DUP1 PUSH1 0x0 ADD SLOAD SWAP1 DUP1 PUSH1 0x1 ADD PUSH1 0x0 SWAP1 SLOAD SWAP1 PUSH2 0x100 EXP SWAP1 DIV PUSH20 0xFFFFFFFFFFFFFFFFFFFFFFFFFFFFFFFFFFFFFFFF AND SWAP1 DUP1 PUSH1 0x2 ADD DUP1 SLOAD PUSH2 0x2E1 SWAP1 PUSH2 0x23EE JUMP JUMPDEST DUP1 PUSH1 0x1F ADD PUSH1 0x20 DUP1 SWAP2 DIV MUL PUSH1 0x20 ADD PUSH1 0x40 MLOAD SWAP1 DUP2 ADD PUSH1 0x40 MSTORE DUP1 SWAP3 SWAP2 SWAP1 DUP2 DUP2 MSTORE PUSH1 0x20 ADD DUP3 DUP1 SLOAD PUSH2 0x30D SWAP1 PUSH2 0x23EE JUMP JUMPDEST DUP1 ISZERO PUSH2 0x35A JUMPI DUP1 PUSH1 0x1F LT PUSH2 0x32F JUMPI PUSH2 0x100 DUP1 DUP4 SLOAD DIV MUL DUP4 MSTORE SWAP2 PUSH1 0x20 ADD SWAP2 PUSH2 0x35A JUMP JUMPDEST DUP3 ADD SWAP2 SWAP1 PUSH1 0x0 MSTORE PUSH1 0x20 PUSH1 0x0 KECCAK256 SWAP1 JUMPDEST DUP2 SLOAD DUP2 MSTORE SWAP1 PUSH1 0x1 ADD SWAP1 PUSH1 0x20 ADD DUP1 DUP4 GT PUSH2 0x33D JUMPI DUP3 SWAP1 SUB PUSH1 0x1F AND DUP3 ADD SWAP2 JUMPDEST POP POP POP POP POP SWAP1 DUP1 PUSH1 0x3 ADD DUP1 SLOAD PUSH2 0x36F SWAP1 PUSH2 0x23EE JUMP JUMPDEST DUP1 PUSH1 0x1F ADD PUSH1 0x20 DUP1 SWAP2 DIV MUL PUSH1 0x20 ADD PUSH1 0x40 MLOAD SWAP1 DUP2 ADD PUSH1 0x40 MSTORE DUP1 SWAP3 SWAP2 SWAP1 DUP2 DUP2 MSTORE PUSH1 0x20 ADD DUP3 DUP1 SLOAD PUSH2 0x39B SWAP1 PUSH2 0x23EE JUMP JUMPDEST DUP1 ISZERO PUSH2 0x3E8 JUMPI DUP1 PUSH1 0x1F LT PUSH2 0x3BD JUMPI PUSH2 0x100 DUP1 DUP4 SLOAD DIV MUL DUP4 MSTORE SWAP2 PUSH1 0x20 ADD SWAP2 PUSH2 0x3E8 JUMP JUMPDEST DUP3 ADD SWAP2 SWAP1 PUSH1 0x0 MSTORE PUSH1 0x20 PUSH1 0x0 KECCAK256 SWAP1 JUMPDEST DUP2 SLOAD DUP2 MSTORE SWAP1 PUSH1 0x1 ADD SWAP1 PUSH1 0x20 ADD DUP1 DUP4 GT PUSH2 0x3CB JUMPI DUP3 SWAP1 SUB PUSH1 0x1F AND DUP3 ADD SWAP2 JUMPDEST POP POP POP POP POP SWAP1 DUP1 PUSH1 0x4 ADD SLOAD SWAP1 DUP1 PUSH1 0x5 ADD SLOAD SWAP1 DUP1 PUSH1 0x6 ADD SLOAD SWAP1 POP DUP8 JUMP JUMPDEST PUSH1 0x0 DUP3 GT PUSH2 0x447 JUMPI PUSH1 0x40 MLOAD PUSH32 0x8C379A000000000000000000000000000000000000000000000000000000000 DUP2 MSTORE PUSH1 0x4 ADD PUSH2 0x43E SWAP1 PUSH2 0x2491 JUMP JUMPDEST PUSH1 0x40 MLOAD DUP1 SWAP2 SUB SWAP1 REVERT JUMPDEST PUSH1 0x0 DUP1 PUSH8 0xFFFFFFFFFFFFFFFF DUP2 GT ISZERO PUSH2 0x463 JUMPI PUSH2 0x462 PUSH2 0x24B1 JUMP JUMPDEST JUMPDEST PUSH1 0x40 MLOAD SWAP1 DUP1 DUP3 MSTORE DUP1 PUSH1 0x20 MUL PUSH1 0x20 ADD DUP3 ADD PUSH1 0x40 MSTORE DUP1 ISZERO PUSH2 0x491 JUMPI DUP2 PUSH1 0x20 ADD PUSH1 0x20 DUP3 MUL DUP1 CALLDATASIZE DUP4 CALLDATACOPY DUP1 DUP3 ADD SWAP2 POP POP SWAP1 POP JUMPDEST POP SWAP1 POP PUSH1 0x40 MLOAD DUP1 PUSH2 0x100 ADD PUSH1 0x40 MSTORE DUP1 PUSH1 0x1 SLOAD DUP2 MSTORE PUSH1 0x20 ADD CALLER PUSH20 0xFFFFFFFFFFFFFFFFFFFFFFFFFFFFFFFFFFFFFFFF AND DUP2 MSTORE PUSH1 0x20 ADD DUP9 DUP9 DUP1 DUP1 PUSH1 0x1F ADD PUSH1 0x20 DUP1 SWAP2 DIV MUL PUSH1 0x20 ADD PUSH1 0x40 MLOAD SWAP1 DUP2 ADD PUSH1 0x40 MSTORE DUP1 SWAP4 SWAP3 SWAP2 SWAP1 DUP2 DUP2 MSTORE PUSH1 0x20 ADD DUP4 DUP4 DUP1 DUP3 DUP5 CALLDATACOPY PUSH1 0x0 DUP2 DUP5 ADD MSTORE PUSH1 0x1F NOT PUSH1 0x1F DUP3 ADD AND SWAP1 POP DUP1 DUP4 ADD SWAP3 POP POP POP POP POP POP POP DUP2 MSTORE PUSH1 0x20 ADD DUP7 DUP7 DUP1 DUP1 PUSH1 0x1F ADD PUSH1 0x20 DUP1 SWAP2 DIV MUL PUSH1 0x20 ADD PUSH1 0x40 MLOAD SWAP1 DUP2 ADD PUSH1 0x40 MSTORE DUP1 SWAP4 SWAP3 SWAP2 SWAP1 DUP2 DUP2 MSTORE PUSH1 0x20 ADD DUP4 DUP4 DUP1 DUP3 DUP5 CALLDATACOPY PUSH1 0x0 DUP2 DUP5 ADD MSTORE PUSH1 0x1F NOT PUSH1 0x1F DUP3 ADD AND SWAP1 POP DUP1 DUP4 ADD SWAP3 POP POP POP POP POP POP POP DUP2 MSTORE PUSH1 0x20 ADD DUP5 DUP2 MSTORE PUSH1 0x20 ADD DUP4 TIMESTAMP PUSH2 0x56A SWAP2 SWAP1 PUSH2 0x250F JUMP JUMPDEST DUP2 MSTORE PUSH1 0x20 ADD PUSH1 0x0 DUP2 MSTORE PUSH1 0x20 ADD DUP3 DUP2 MSTORE POP PUSH1 0x0 DUP1 PUSH1 0x1 SLOAD DUP2 MSTORE PUSH1 0x20 ADD SWAP1 DUP2 MSTORE PUSH1 0x20 ADD PUSH1 0x0 KECCAK256 PUSH1 0x0 DUP3 ADD MLOAD DUP2 PUSH1 0x0 ADD SSTORE PUSH1 0x20 DUP3 ADD MLOAD DUP2 PUSH1 0x1 ADD PUSH1 0x0 PUSH2 0x100 EXP DUP2 SLOAD DUP2 PUSH20 0xFFFFFFFFFFFFFFFFFFFFFFFFFFFFFFFFFFFFFFFF MUL NOT AND SWAP1 DUP4 PUSH20 0xFFFFFFFFFFFFFFFFFFFFFFFFFFFFFFFFFFFFFFFF AND MUL OR SWAP1 SSTORE POP PUSH1 0x40 DUP3 ADD MLOAD DUP2 PUSH1 0x2 ADD SWAP1 DUP2 PUSH2 0x5F4 SWAP2 SWAP1 PUSH2 0x26EF JUMP JUMPDEST POP PUSH1 0x60 DUP3 ADD MLOAD DUP2 PUSH1 0x3 ADD SWAP1 DUP2 PUSH2 0x60A SWAP2 SWAP1 PUSH2 0x26EF JUMP JUMPDEST POP PUSH1 0x80 DUP3 ADD MLOAD DUP2 PUSH1 0x4 ADD SSTORE PUSH1 0xA0 DUP3 ADD MLOAD DUP2 PUSH1 0x5 ADD SSTORE PUSH1 0xC0 DUP3 ADD MLOAD DUP2 PUSH1 0x6 ADD SSTORE PUSH1 0xE0 DUP3 ADD MLOAD DUP2 PUSH1 0x7 ADD SWAP1 DUP1 MLOAD SWAP1 PUSH1 0x20 ADD SWAP1 PUSH2 0x645 SWAP3 SWAP2 SWAP1 PUSH2 0x1B08 JUMP JUMPDEST POP SWAP1 POP POP PUSH1 0x4 PUSH1 0x0 CALLER PUSH20 0xFFFFFFFFFFFFFFFFFFFFFFFFFFFFFFFFFFFFFFFF AND PUSH20 0xFFFFFFFFFFFFFFFFFFFFFFFFFFFFFFFFFFFFFFFF AND DUP2 MSTORE PUSH1 0x20 ADD SWAP1 DUP2 MSTORE PUSH1 0x20 ADD PUSH1 0x0 KECCAK256 PUSH1 0x1 SLOAD SWAP1 DUP1 PUSH1 0x1 DUP2 SLOAD ADD DUP1 DUP3 SSTORE DUP1 SWAP2 POP POP PUSH1 0x1 SWAP1 SUB SWAP1 PUSH1 0x0 MSTORE PUSH1 0x20 PUSH1 0x0 KECCAK256 ADD PUSH1 0x0 SWAP1 SWAP2 SWAP1 SWAP2 SWAP1 SWAP2 POP SSTORE PUSH1 0x1 PUSH1 0x0 DUP2 SLOAD DUP1 SWAP3 SWAP2 SWAP1 PUSH2 0x6C4 SWAP1 PUSH2 0x27C1 JUMP JUMPDEST SWAP2 SWAP1 POP SSTORE POP POP POP POP POP POP POP POP JUMP JUMPDEST PUSH1 0x60 PUSH1 0x0 PUSH1 0x5 PUSH1 0x0 DUP5 PUSH20 0xFFFFFFFFFFFFFFFFFFFFFFFFFFFFFFFFFFFFFFFF AND PUSH20 0xFFFFFFFFFFFFFFFFFFFFFFFFFFFFFFFFFFFFFFFF AND DUP2 MSTORE PUSH1 0x20 ADD SWAP1 DUP2 MSTORE PUSH1 0x20 ADD PUSH1 0x0 KECCAK256 SWAP1 POP PUSH1 0x0 DUP2 DUP1 SLOAD SWAP1 POP PUSH8 0xFFFFFFFFFFFFFFFF DUP2 GT ISZERO PUSH2 0x737 JUMPI PUSH2 0x736 PUSH2 0x24B1 JUMP JUMPDEST JUMPDEST PUSH1 0x40 MLOAD SWAP1 DUP1 DUP3 MSTORE DUP1 PUSH1 0x20 MUL PUSH1 0x20 ADD DUP3 ADD PUSH1 0x40 MSTORE DUP1 ISZERO PUSH2 0x770 JUMPI DUP2 PUSH1 0x20 ADD JUMPDEST PUSH2 0x75D PUSH2 0x1B55 JUMP JUMPDEST DUP2 MSTORE PUSH1 0x20 ADD SWAP1 PUSH1 0x1 SWAP1 SUB SWAP1 DUP2 PUSH2 0x755 JUMPI SWAP1 POP JUMPDEST POP SWAP1 POP PUSH1 0x0 JUMPDEST DUP3 DUP1 SLOAD SWAP1 POP DUP2 LT ISZERO PUSH2 0x868 JUMPI PUSH1 0x0 DUP4 DUP3 DUP2 SLOAD DUP2 LT PUSH2 0x797 JUMPI PUSH2 0x796 PUSH2 0x2809 JUMP JUMPDEST JUMPDEST SWAP1 PUSH1 0x0 MSTORE PUSH1 0x20 PUSH1 0x0 KECCAK256 ADD SLOAD SWAP1 POP PUSH1 0x2 PUSH1 0x0 DUP3 DUP2 MSTORE PUSH1 0x20 ADD SWAP1 DUP2 MSTORE PUSH1 0x20 ADD PUSH1 0x0 KECCAK256 PUSH1 0x40 MLOAD DUP1 PUSH1 0x80 ADD PUSH1 0x40 MSTORE SWAP1 DUP2 PUSH1 0x0 DUP3 ADD SLOAD DUP2 MSTORE PUSH1 0x20 ADD PUSH1 0x1 DUP3 ADD SLOAD DUP2 MSTORE PUSH1 0x20 ADD PUSH1 0x2 DUP3 ADD PUSH1 0x0 SWAP1 SLOAD SWAP1 PUSH2 0x100 EXP SWAP1 DIV PUSH20 0xFFFFFFFFFFFFFFFFFFFFFFFFFFFFFFFFFFFFFFFF AND PUSH20 0xFFFFFFFFFFFFFFFFFFFFFFFFFFFFFFFFFFFFFFFF AND PUSH20 0xFFFFFFFFFFFFFFFFFFFFFFFFFFFFFFFFFFFFFFFF AND DUP2 MSTORE PUSH1 0x20 ADD PUSH1 0x3 DUP3 ADD SLOAD DUP2 MSTORE POP POP DUP4 DUP4 DUP2 MLOAD DUP2 LT PUSH2 0x849 JUMPI PUSH2 0x848 PUSH2 0x2809 JUMP JUMPDEST JUMPDEST PUSH1 0x20 MUL PUSH1 0x20 ADD ADD DUP2 SWAP1 MSTORE POP POP DUP1 DUP1 PUSH2 0x860 SWAP1 PUSH2 0x27C1 JUMP JUMPDEST SWAP2 POP POP PUSH2 0x776 JUMP JUMPDEST POP DUP1 SWAP3 POP POP POP SWAP2 SWAP1 POP JUMP JUMPDEST PUSH1 0x2 PUSH1 0x20 MSTORE DUP1 PUSH1 0x0 MSTORE PUSH1 0x40 PUSH1 0x0 KECCAK256 PUSH1 0x0 SWAP2 POP SWAP1 POP DUP1 PUSH1 0x0 ADD SLOAD SWAP1 DUP1 PUSH1 0x1 ADD SLOAD SWAP1 DUP1 PUSH1 0x2 ADD PUSH1 0x0 SWAP1 SLOAD SWAP1 PUSH2 0x100 EXP SWAP1 DIV PUSH20 0xFFFFFFFFFFFFFFFFFFFFFFFFFFFFFFFFFFFFFFFF AND SWAP1 DUP1 PUSH1 0x3 ADD SLOAD SWAP1 POP DUP5 JUMP JUMPDEST DUP1 PUSH1 0x0 DUP2 GT DUP1 ISZERO PUSH2 0x8D5 JUMPI POP PUSH1 0x1 SLOAD DUP2 LT JUMPDEST PUSH2 0x914 JUMPI PUSH1 0x40 MLOAD PUSH32 0x8C379A000000000000000000000000000000000000000000000000000000000 DUP2 MSTORE PUSH1 0x4 ADD PUSH2 0x90B SWAP1 PUSH2 0x2884 JUMP JUMPDEST PUSH1 0x40 MLOAD DUP1 SWAP2 SUB SWAP1 REVERT JUMPDEST PUSH1 0x0 DUP1 PUSH1 0x0 DUP5 DUP2 MSTORE PUSH1 0x20 ADD SWAP1 DUP2 MSTORE PUSH1 0x20 ADD PUSH1 0x0 KECCAK256 SWAP1 POP PUSH1 0x0 JUMPDEST DUP2 PUSH1 0x7 ADD DUP1 SLOAD SWAP1 POP DUP2 LT ISZERO PUSH2 0xB8B JUMPI PUSH1 0x0 DUP3 PUSH1 0x7 ADD DUP3 DUP2 SLOAD DUP2 LT PUSH2 0x954 JUMPI PUSH2 0x953 PUSH2 0x2809 JUMP JUMPDEST JUMPDEST SWAP1 PUSH1 0x0 MSTORE PUSH1 0x20 PUSH1 0x0 KECCAK256 ADD SLOAD SWAP1 POP PUSH1 0x0 PUSH1 0x2 PUSH1 0x0 DUP4 DUP2 MSTORE PUSH1 0x20 ADD SWAP1 DUP2 MSTORE PUSH1 0x20 ADD PUSH1 0x0 KECCAK256 SWAP1 POP DUP1 PUSH1 0x2 ADD PUSH1 0x0 SWAP1 SLOAD SWAP1 PUSH2 0x100 EXP SWAP1 DIV PUSH20 0xFFFFFFFFFFFFFFFFFFFFFFFFFFFFFFFFFFFFFFFF AND PUSH20 0xFFFFFFFFFFFFFFFFFFFFFFFFFFFFFFFFFFFFFFFF AND PUSH2 0x8FC DUP3 PUSH1 0x3 ADD SLOAD SWAP1 DUP2 ISZERO MUL SWAP1 PUSH1 0x40 MLOAD PUSH1 0x0 PUSH1 0x40 MLOAD DUP1 DUP4 SUB DUP2 DUP6 DUP9 DUP9 CALL SWAP4 POP POP POP POP ISZERO DUP1 ISZERO PUSH2 0x9E6 JUMPI RETURNDATASIZE PUSH1 0x0 DUP1 RETURNDATACOPY RETURNDATASIZE PUSH1 0x0 REVERT JUMPDEST POP PUSH1 0x0 JUMPDEST PUSH1 0x5 PUSH1 0x0 DUP4 PUSH1 0x2 ADD PUSH1 0x0 SWAP1 SLOAD SWAP1 PUSH2 0x100 EXP SWAP1 DIV PUSH20 0xFFFFFFFFFFFFFFFFFFFFFFFFFFFFFFFFFFFFFFFF AND PUSH20 0xFFFFFFFFFFFFFFFFFFFFFFFFFFFFFFFFFFFFFFFF AND PUSH20 0xFFFFFFFFFFFFFFFFFFFFFFFFFFFFFFFFFFFFFFFF AND DUP2 MSTORE PUSH1 0x20 ADD SWAP1 DUP2 MSTORE PUSH1 0x20 ADD PUSH1 0x0 KECCAK256 DUP1 SLOAD SWAP1 POP DUP2 LT ISZERO PUSH2 0xB75 JUMPI DUP3 PUSH1 0x5 PUSH1 0x0 DUP5 PUSH1 0x2 ADD PUSH1 0x0 SWAP1 SLOAD SWAP1 PUSH2 0x100 EXP SWAP1 DIV PUSH20 0xFFFFFFFFFFFFFFFFFFFFFFFFFFFFFFFFFFFFFFFF AND PUSH20 0xFFFFFFFFFFFFFFFFFFFFFFFFFFFFFFFFFFFFFFFF AND PUSH20 0xFFFFFFFFFFFFFFFFFFFFFFFFFFFFFFFFFFFFFFFF AND DUP2 MSTORE PUSH1 0x20 ADD SWAP1 DUP2 MSTORE PUSH1 0x20 ADD PUSH1 0x0 KECCAK256 DUP3 DUP2 SLOAD DUP2 LT PUSH2 0xACE JUMPI PUSH2 0xACD PUSH2 0x2809 JUMP JUMPDEST JUMPDEST SWAP1 PUSH1 0x0 MSTORE PUSH1 0x20 PUSH1 0x0 KECCAK256 ADD SLOAD SUB PUSH2 0xB62 JUMPI PUSH1 0x5 PUSH1 0x0 DUP4 PUSH1 0x2 ADD PUSH1 0x0 SWAP1 SLOAD SWAP1 PUSH2 0x100 EXP SWAP1 DIV PUSH20 0xFFFFFFFFFFFFFFFFFFFFFFFFFFFFFFFFFFFFFFFF AND PUSH20 0xFFFFFFFFFFFFFFFFFFFFFFFFFFFFFFFFFFFFFFFF AND PUSH20 0xFFFFFFFFFFFFFFFFFFFFFFFFFFFFFFFFFFFFFFFF AND DUP2 MSTORE PUSH1 0x20 ADD SWAP1 DUP2 MSTORE PUSH1 0x20 ADD PUSH1 0x0 KECCAK256 DUP2 DUP2 SLOAD DUP2 LT PUSH2 0xB53 JUMPI PUSH2 0xB52 PUSH2 0x2809 JUMP JUMPDEST JUMPDEST SWAP1 PUSH1 0x0 MSTORE PUSH1 0x20 PUSH1 0x0 KECCAK256 ADD PUSH1 0x0 SWAP1 SSTORE JUMPDEST DUP1 DUP1 PUSH2 0xB6D SWAP1 PUSH2 0x27C1 JUMP JUMPDEST SWAP2 POP POP PUSH2 0x9EA JUMP JUMPDEST POP POP POP DUP1 DUP1 PUSH2 0xB83 SWAP1 PUSH2 0x27C1 JUMP JUMPDEST SWAP2 POP POP PUSH2 0x92D JUMP JUMPDEST POP PUSH1 0x0 JUMPDEST PUSH1 0x4 PUSH1 0x0 DUP4 PUSH1 0x1 ADD PUSH1 0x0 SWAP1 SLOAD SWAP1 PUSH2 0x100 EXP SWAP1 DIV PUSH20 0xFFFFFFFFFFFFFFFFFFFFFFFFFFFFFFFFFFFFFFFF AND PUSH20 0xFFFFFFFFFFFFFFFFFFFFFFFFFFFFFFFFFFFFFFFF AND PUSH20 0xFFFFFFFFFFFFFFFFFFFFFFFFFFFFFFFFFFFFFFFF AND DUP2 MSTORE PUSH1 0x20 ADD SWAP1 DUP2 MSTORE PUSH1 0x20 ADD PUSH1 0x0 KECCAK256 DUP1 SLOAD SWAP1 POP DUP2 LT ISZERO PUSH2 0xD1A JUMPI DUP4 PUSH1 0x4 PUSH1 0x0 DUP5 PUSH1 0x1 ADD PUSH1 0x0 SWAP1 SLOAD SWAP1 PUSH2 0x100 EXP SWAP1 DIV PUSH20 0xFFFFFFFFFFFFFFFFFFFFFFFFFFFFFFFFFFFFFFFF AND PUSH20 0xFFFFFFFFFFFFFFFFFFFFFFFFFFFFFFFFFFFFFFFF AND PUSH20 0xFFFFFFFFFFFFFFFFFFFFFFFFFFFFFFFFFFFFFFFF AND DUP2 MSTORE PUSH1 0x20 ADD SWAP1 DUP2 MSTORE PUSH1 0x20 ADD PUSH1 0x0 KECCAK256 DUP3 DUP2 SLOAD DUP2 LT PUSH2 0xC73 JUMPI PUSH2 0xC72 PUSH2 0x2809 JUMP JUMPDEST JUMPDEST SWAP1 PUSH1 0x0 MSTORE PUSH1 0x20 PUSH1 0x0 KECCAK256 ADD SLOAD SUB PUSH2 0xD07 JUMPI PUSH1 0x4 PUSH1 0x0 DUP4 PUSH1 0x1 ADD PUSH1 0x0 SWAP1 SLOAD SWAP1 PUSH2 0x100 EXP SWAP1 DIV PUSH20 0xFFFFFFFFFFFFFFFFFFFFFFFFFFFFFFFFFFFFFFFF AND PUSH20 0xFFFFFFFFFFFFFFFFFFFFFFFFFFFFFFFFFFFFFFFF AND PUSH20 0xFFFFFFFFFFFFFFFFFFFFFFFFFFFFFFFFFFFFFFFF AND DUP2 MSTORE PUSH1 0x20 ADD SWAP1 DUP2 MSTORE PUSH1 0x20 ADD PUSH1 0x0 KECCAK256 DUP2 DUP2 SLOAD DUP2 LT PUSH2 0xCF8 JUMPI PUSH2 0xCF7 PUSH2 0x2809 JUMP JUMPDEST JUMPDEST SWAP1 PUSH1 0x0 MSTORE PUSH1 0x20 PUSH1 0x0 KECCAK256 ADD PUSH1 0x0 SWAP1 SSTORE JUMPDEST DUP1 DUP1 PUSH2 0xD12 SWAP1 PUSH2 0x27C1 JUMP JUMPDEST SWAP2 POP POP PUSH2 0xB8F JUMP JUMPDEST POP PUSH1 0x0 DUP1 DUP5 DUP2 MSTORE PUSH1 0x20 ADD SWAP1 DUP2 MSTORE PUSH1 0x20 ADD PUSH1 0x0 KECCAK256 PUSH1 0x0 DUP1 DUP3 ADD PUSH1 0x0 SWAP1 SSTORE PUSH1 0x1 DUP3 ADD PUSH1 0x0 PUSH2 0x100 EXP DUP2 SLOAD SWAP1 PUSH20 0xFFFFFFFFFFFFFFFFFFFFFFFFFFFFFFFFFFFFFFFF MUL NOT AND SWAP1 SSTORE PUSH1 0x2 DUP3 ADD PUSH1 0x0 PUSH2 0xD6D SWAP2 SWAP1 PUSH2 0x1B93 JUMP JUMPDEST PUSH1 0x3 DUP3 ADD PUSH1 0x0 PUSH2 0xD7D SWAP2 SWAP1 PUSH2 0x1B93 JUMP JUMPDEST PUSH1 0x4 DUP3 ADD PUSH1 0x0 SWAP1 SSTORE PUSH1 0x5 DUP3 ADD PUSH1 0x0 SWAP1 SSTORE PUSH1 0x6 DUP3 ADD PUSH1 0x0 SWAP1 SSTORE PUSH1 0x7 DUP3 ADD PUSH1 0x0 PUSH2 0xDA5 SWAP2 SWAP1 PUSH2 0x1BD3 JUMP JUMPDEST POP POP POP POP POP JUMP JUMPDEST DUP1 PUSH1 0x0 DUP2 GT DUP1 ISZERO PUSH2 0xDBE JUMPI POP PUSH1 0x1 SLOAD DUP2 LT JUMPDEST PUSH2 0xDFD JUMPI PUSH1 0x40 MLOAD PUSH32 0x8C379A000000000000000000000000000000000000000000000000000000000 DUP2 MSTORE PUSH1 0x4 ADD PUSH2 0xDF4 SWAP1 PUSH2 0x2884 JUMP JUMPDEST PUSH1 0x40 MLOAD DUP1 SWAP2 SUB SWAP1 REVERT JUMPDEST PUSH1 0x0 DUP1 PUSH1 0x0 DUP5 DUP2 MSTORE PUSH1 0x20 ADD SWAP1 DUP2 MSTORE PUSH1 0x20 ADD PUSH1 0x0 KECCAK256 SWAP1 POP DUP1 PUSH1 0x5 ADD SLOAD TIMESTAMP LT PUSH2 0xE59 JUMPI PUSH1 0x40 MLOAD PUSH32 0x8C379A000000000000000000000000000000000000000000000000000000000 DUP2 MSTORE PUSH1 0x4 ADD PUSH2 0xE50 SWAP1 PUSH2 0x28F0 JUMP JUMPDEST PUSH1 0x40 MLOAD DUP1 SWAP2 SUB SWAP1 REVERT JUMPDEST PUSH1 0x0 PUSH1 0x2 PUSH1 0x0 DUP4 PUSH1 0x6 ADD SLOAD DUP2 MSTORE PUSH1 0x20 ADD SWAP1 DUP2 MSTORE PUSH1 0x20 ADD PUSH1 0x0 KECCAK256 SWAP1 POP PUSH1 0x0 CALLVALUE SWAP1 POP PUSH1 0x0 JUMPDEST DUP4 PUSH1 0x7 ADD DUP1 SLOAD SWAP1 POP DUP2 LT ISZERO PUSH2 0xF40 JUMPI PUSH1 0x0 PUSH1 0x2 PUSH1 0x0 DUP7 PUSH1 0x7 ADD DUP5 DUP2 SLOAD DUP2 LT PUSH2 0xEA7 JUMPI PUSH2 0xEA6 PUSH2 0x2809 JUMP JUMPDEST JUMPDEST SWAP1 PUSH1 0x0 MSTORE PUSH1 0x20 PUSH1 0x0 KECCAK256 ADD SLOAD DUP2 MSTORE PUSH1 0x20 ADD SWAP1 DUP2 MSTORE PUSH1 0x20 ADD PUSH1 0x0 KECCAK256 SWAP1 POP CALLER PUSH20 0xFFFFFFFFFFFFFFFFFFFFFFFFFFFFFFFFFFFFFFFF AND DUP2 PUSH1 0x2 ADD PUSH1 0x0 SWAP1 SLOAD SWAP1 PUSH2 0x100 EXP SWAP1 DIV PUSH20 0xFFFFFFFFFFFFFFFFFFFFFFFFFFFFFFFFFFFFFFFF AND PUSH20 0xFFFFFFFFFFFFFFFFFFFFFFFFFFFFFFFFFFFFFFFF AND SUB PUSH2 0xF2C JUMPI DUP1 PUSH1 0x3 ADD SLOAD DUP4 PUSH2 0xF29 SWAP2 SWAP1 PUSH2 0x250F JUMP JUMPDEST SWAP3 POP JUMPDEST POP DUP1 DUP1 PUSH2 0xF38 SWAP1 PUSH2 0x27C1 JUMP JUMPDEST SWAP2 POP POP PUSH2 0xE7C JUMP JUMPDEST POP DUP3 PUSH1 0x4 ADD SLOAD DUP2 LT ISZERO DUP1 ISZERO PUSH2 0xF58 JUMPI POP DUP2 PUSH1 0x3 ADD SLOAD DUP2 GT JUMPDEST PUSH2 0xF97 JUMPI PUSH1 0x40 MLOAD PUSH32 0x8C379A000000000000000000000000000000000000000000000000000000000 DUP2 MSTORE PUSH1 0x4 ADD PUSH2 0xF8E SWAP1 PUSH2 0x29A8 JUMP JUMPDEST PUSH1 0x40 MLOAD DUP1 SWAP2 SUB SWAP1 REVERT JUMPDEST PUSH1 0x3 SLOAD DUP4 PUSH1 0x6 ADD DUP2 SWAP1 SSTORE POP PUSH1 0x40 MLOAD DUP1 PUSH1 0x80 ADD PUSH1 0x40 MSTORE DUP1 PUSH1 0x3 SLOAD DUP2 MSTORE PUSH1 0x20 ADD DUP7 DUP2 MSTORE PUSH1 0x20 ADD CALLER PUSH20 0xFFFFFFFFFFFFFFFFFFFFFFFFFFFFFFFFFFFFFFFF AND DUP2 MSTORE PUSH1 0x20 ADD DUP3 DUP2 MSTORE POP PUSH1 0x2 PUSH1 0x0 PUSH1 0x3 SLOAD DUP2 MSTORE PUSH1 0x20 ADD SWAP1 DUP2 MSTORE PUSH1 0x20 ADD PUSH1 0x0 KECCAK256 PUSH1 0x0 DUP3 ADD MLOAD DUP2 PUSH1 0x0 ADD SSTORE PUSH1 0x20 DUP3 ADD MLOAD DUP2 PUSH1 0x1 ADD SSTORE PUSH1 0x40 DUP3 ADD MLOAD DUP2 PUSH1 0x2 ADD PUSH1 0x0 PUSH2 0x100 EXP DUP2 SLOAD DUP2 PUSH20 0xFFFFFFFFFFFFFFFFFFFFFFFFFFFFFFFFFFFFFFFF MUL NOT AND SWAP1 DUP4 PUSH20 0xFFFFFFFFFFFFFFFFFFFFFFFFFFFFFFFFFFFFFFFF AND MUL OR SWAP1 SSTORE POP PUSH1 0x60 DUP3 ADD MLOAD DUP2 PUSH1 0x3 ADD SSTORE SWAP1 POP POP DUP3 PUSH1 0x7 ADD PUSH1 0x3 SLOAD SWAP1 DUP1 PUSH1 0x1 DUP2 SLOAD ADD DUP1 DUP3 SSTORE DUP1 SWAP2 POP POP PUSH1 0x1 SWAP1 SUB SWAP1 PUSH1 0x0 MSTORE PUSH1 0x20 PUSH1 0x0 KECCAK256 ADD PUSH1 0x0 SWAP1 SWAP2 SWAP1 SWAP2 SWAP1 SWAP2 POP SSTORE PUSH1 0x1 DUP2 PUSH2 0x1092 SWAP2 SWAP1 PUSH2 0x250F JUMP JUMPDEST DUP4 PUSH1 0x4 ADD DUP2 SWAP1 SSTORE POP PUSH1 0x5 PUSH1 0x0 CALLER PUSH20 0xFFFFFFFFFFFFFFFFFFFFFFFFFFFFFFFFFFFFFFFF AND PUSH20 0xFFFFFFFFFFFFFFFFFFFFFFFFFFFFFFFFFFFFFFFF AND DUP2 MSTORE PUSH1 0x20 ADD SWAP1 DUP2 MSTORE PUSH1 0x20 ADD PUSH1 0x0 KECCAK256 PUSH1 0x3 SLOAD SWAP1 DUP1 PUSH1 0x1 DUP2 SLOAD ADD DUP1 DUP3 SSTORE DUP1 SWAP2 POP POP PUSH1 0x1 SWAP1 SUB SWAP1 PUSH1 0x0 MSTORE PUSH1 0x20 PUSH1 0x0 KECCAK256 ADD PUSH1 0x0 SWAP1 SWAP2 SWAP1 SWAP2 SWAP1 SWAP2 POP SSTORE PUSH1 0x3 PUSH1 0x0 DUP2 SLOAD DUP1 SWAP3 SWAP2 SWAP1 PUSH2 0x1115 SWAP1 PUSH2 0x27C1 JUMP JUMPDEST SWAP2 SWAP1 POP SSTORE POP POP POP POP POP POP JUMP JUMPDEST PUSH1 0x60 DUP2 PUSH1 0x0 DUP2 GT DUP1 ISZERO PUSH2 0x1135 JUMPI POP PUSH1 0x1 SLOAD DUP2 LT JUMPDEST PUSH2 0x1174 JUMPI PUSH1 0x40 MLOAD PUSH32 0x8C379A000000000000000000000000000000000000000000000000000000000 DUP2 MSTORE PUSH1 0x4 ADD PUSH2 0x116B SWAP1 PUSH2 0x2884 JUMP JUMPDEST PUSH1 0x40 MLOAD DUP1 SWAP2 SUB SWAP1 REVERT JUMPDEST PUSH1 0x0 DUP1 PUSH1 0x0 DUP6 DUP2 MSTORE PUSH1 0x20 ADD SWAP1 DUP2 MSTORE PUSH1 0x20 ADD PUSH1 0x0 KECCAK256 SWAP1 POP PUSH1 0x0 DUP2 PUSH1 0x7 ADD SWAP1 POP PUSH1 0x0 DUP2 DUP1 SLOAD SWAP1 POP PUSH8 0xFFFFFFFFFFFFFFFF DUP2 GT ISZERO PUSH2 0x11B2 JUMPI PUSH2 0x11B1 PUSH2 0x24B1 JUMP JUMPDEST JUMPDEST PUSH1 0x40 MLOAD SWAP1 DUP1 DUP3 MSTORE DUP1 PUSH1 0x20 MUL PUSH1 0x20 ADD DUP3 ADD PUSH1 0x40 MSTORE DUP1 ISZERO PUSH2 0x11EB JUMPI DUP2 PUSH1 0x20 ADD JUMPDEST PUSH2 0x11D8 PUSH2 0x1B55 JUMP JUMPDEST DUP2 MSTORE PUSH1 0x20 ADD SWAP1 PUSH1 0x1 SWAP1 SUB SWAP1 DUP2 PUSH2 0x11D0 JUMPI SWAP1 POP JUMPDEST POP SWAP1 POP PUSH1 0x0 JUMPDEST DUP3 DUP1 SLOAD SWAP1 POP DUP2 LT ISZERO PUSH2 0x12E3 JUMPI PUSH1 0x0 DUP4 DUP3 DUP2 SLOAD DUP2 LT PUSH2 0x1212 JUMPI PUSH2 0x1211 PUSH2 0x2809 JUMP JUMPDEST JUMPDEST SWAP1 PUSH1 0x0 MSTORE PUSH1 0x20 PUSH1 0x0 KECCAK256 ADD SLOAD SWAP1 POP PUSH1 0x2 PUSH1 0x0 DUP3 DUP2 MSTORE PUSH1 0x20 ADD SWAP1 DUP2 MSTORE PUSH1 0x20 ADD PUSH1 0x0 KECCAK256 PUSH1 0x40 MLOAD DUP1 PUSH1 0x80 ADD PUSH1 0x40 MSTORE SWAP1 DUP2 PUSH1 0x0 DUP3 ADD SLOAD DUP2 MSTORE PUSH1 0x20 ADD PUSH1 0x1 DUP3 ADD SLOAD DUP2 MSTORE PUSH1 0x20 ADD PUSH1 0x2 DUP3 ADD PUSH1 0x0 SWAP1 SLOAD SWAP1 PUSH2 0x100 EXP SWAP1 DIV PUSH20 0xFFFFFFFFFFFFFFFFFFFFFFFFFFFFFFFFFFFFFFFF AND PUSH20 0xFFFFFFFFFFFFFFFFFFFFFFFFFFFFFFFFFFFFFFFF AND PUSH20 0xFFFFFFFFFFFFFFFFFFFFFFFFFFFFFFFFFFFFFFFF AND DUP2 MSTORE PUSH1 0x20 ADD PUSH1 0x3 DUP3 ADD SLOAD DUP2 MSTORE POP POP DUP4 DUP4 DUP2 MLOAD DUP2 LT PUSH2 0x12C4 JUMPI PUSH2 0x12C3 PUSH2 0x2809 JUMP JUMPDEST JUMPDEST PUSH1 0x20 MUL PUSH1 0x20 ADD ADD DUP2 SWAP1 MSTORE POP POP DUP1 DUP1 PUSH2 0x12DB SWAP1 PUSH2 0x27C1 JUMP JUMPDEST SWAP2 POP POP PUSH2 0x11F1 JUMP JUMPDEST POP DUP1 SWAP5 POP POP POP POP POP SWAP2 SWAP1 POP JUMP JUMPDEST PUSH1 0x60 PUSH1 0x0 PUSH1 0x1 DUP1 SLOAD PUSH2 0x1302 SWAP2 SWAP1 PUSH2 0x29C8 JUMP JUMPDEST PUSH8 0xFFFFFFFFFFFFFFFF DUP2 GT ISZERO PUSH2 0x131B JUMPI PUSH2 0x131A PUSH2 0x24B1 JUMP JUMPDEST JUMPDEST PUSH1 0x40 MLOAD SWAP1 DUP1 DUP3 MSTORE DUP1 PUSH1 0x20 MUL PUSH1 0x20 ADD DUP3 ADD PUSH1 0x40 MSTORE DUP1 ISZERO PUSH2 0x1354 JUMPI DUP2 PUSH1 0x20 ADD JUMPDEST PUSH2 0x1341 PUSH2 0x1BF4 JUMP JUMPDEST DUP2 MSTORE PUSH1 0x20 ADD SWAP1 PUSH1 0x1 SWAP1 SUB SWAP1 DUP2 PUSH2 0x1339 JUMPI SWAP1 POP JUMPDEST POP SWAP1 POP PUSH1 0x0 PUSH1 0x1 SWAP1 POP JUMPDEST PUSH1 0x1 SLOAD DUP2 LT ISZERO PUSH2 0x15BD JUMPI PUSH1 0x0 DUP1 DUP3 DUP2 MSTORE PUSH1 0x20 ADD SWAP1 DUP2 MSTORE PUSH1 0x20 ADD PUSH1 0x0 KECCAK256 PUSH1 0x40 MLOAD DUP1 PUSH2 0x100 ADD PUSH1 0x40 MSTORE SWAP1 DUP2 PUSH1 0x0 DUP3 ADD SLOAD DUP2 MSTORE PUSH1 0x20 ADD PUSH1 0x1 DUP3 ADD PUSH1 0x0 SWAP1 SLOAD SWAP1 PUSH2 0x100 EXP SWAP1 DIV PUSH20 0xFFFFFFFFFFFFFFFFFFFFFFFFFFFFFFFFFFFFFFFF AND PUSH20 0xFFFFFFFFFFFFFFFFFFFFFFFFFFFFFFFFFFFFFFFF AND PUSH20 0xFFFFFFFFFFFFFFFFFFFFFFFFFFFFFFFFFFFFFFFF AND DUP2 MSTORE PUSH1 0x20 ADD PUSH1 0x2 DUP3 ADD DUP1 SLOAD PUSH2 0x13F6 SWAP1 PUSH2 0x23EE JUMP JUMPDEST DUP1 PUSH1 0x1F ADD PUSH1 0x20 DUP1 SWAP2 DIV MUL PUSH1 0x20 ADD PUSH1 0x40 MLOAD SWAP1 DUP2 ADD PUSH1 0x40 MSTORE DUP1 SWAP3 SWAP2 SWAP1 DUP2 DUP2 MSTORE PUSH1 0x20 ADD DUP3 DUP1 SLOAD PUSH2 0x1422 SWAP1 PUSH2 0x23EE JUMP JUMPDEST DUP1 ISZERO PUSH2 0x146F JUMPI DUP1 PUSH1 0x1F LT PUSH2 0x1444 JUMPI PUSH2 0x100 DUP1 DUP4 SLOAD DIV MUL DUP4 MSTORE SWAP2 PUSH1 0x20 ADD SWAP2 PUSH2 0x146F JUMP JUMPDEST DUP3 ADD SWAP2 SWAP1 PUSH1 0x0 MSTORE PUSH1 0x20 PUSH1 0x0 KECCAK256 SWAP1 JUMPDEST DUP2 SLOAD DUP2 MSTORE SWAP1 PUSH1 0x1 ADD SWAP1 PUSH1 0x20 ADD DUP1 DUP4 GT PUSH2 0x1452 JUMPI DUP3 SWAP1 SUB PUSH1 0x1F AND DUP3 ADD SWAP2 JUMPDEST POP POP POP POP POP DUP2 MSTORE PUSH1 0x20 ADD PUSH1 0x3 DUP3 ADD DUP1 SLOAD PUSH2 0x1488 SWAP1 PUSH2 0x23EE JUMP JUMPDEST DUP1 PUSH1 0x1F ADD PUSH1 0x20 DUP1 SWAP2 DIV MUL PUSH1 0x20 ADD PUSH1 0x40 MLOAD SWAP1 DUP2 ADD PUSH1 0x40 MSTORE DUP1 SWAP3 SWAP2 SWAP1 DUP2 DUP2 MSTORE PUSH1 0x20 ADD DUP3 DUP1 SLOAD PUSH2 0x14B4 SWAP1 PUSH2 0x23EE JUMP JUMPDEST DUP1 ISZERO PUSH2 0x1501 JUMPI DUP1 PUSH1 0x1F LT PUSH2 0x14D6 JUMPI PUSH2 0x100 DUP1 DUP4 SLOAD DIV MUL DUP4 MSTORE SWAP2 PUSH1 0x20 ADD SWAP2 PUSH2 0x1501 JUMP JUMPDEST DUP3 ADD SWAP2 SWAP1 PUSH1 0x0 MSTORE PUSH1 0x20 PUSH1 0x0 KECCAK256 SWAP1 JUMPDEST DUP2 SLOAD DUP2 MSTORE SWAP1 PUSH1 0x1 ADD SWAP1 PUSH1 0x20 ADD DUP1 DUP4 GT PUSH2 0x14E4 JUMPI DUP3 SWAP1 SUB PUSH1 0x1F AND DUP3 ADD SWAP2 JUMPDEST POP POP POP POP POP DUP2 MSTORE PUSH1 0x20 ADD PUSH1 0x4 DUP3 ADD SLOAD DUP2 MSTORE PUSH1 0x20 ADD PUSH1 0x5 DUP3 ADD SLOAD DUP2 MSTORE PUSH1 0x20 ADD PUSH1 0x6 DUP3 ADD SLOAD DUP2 MSTORE PUSH1 0x20 ADD PUSH1 0x7 DUP3 ADD DUP1 SLOAD DUP1 PUSH1 0x20 MUL PUSH1 0x20 ADD PUSH1 0x40 MLOAD SWAP1 DUP2 ADD PUSH1 0x40 MSTORE DUP1 SWAP3 SWAP2 SWAP1 DUP2 DUP2 MSTORE PUSH1 0x20 ADD DUP3 DUP1 SLOAD DUP1 ISZERO PUSH2 0x1577 JUMPI PUSH1 0x20 MUL DUP3 ADD SWAP2 SWAP1 PUSH1 0x0 MSTORE PUSH1 0x20 PUSH1 0x0 KECCAK256 SWAP1 JUMPDEST DUP2 SLOAD DUP2 MSTORE PUSH1 0x20 ADD SWAP1 PUSH1 0x1 ADD SWAP1 DUP1 DUP4 GT PUSH2 0x1563 JUMPI JUMPDEST POP POP POP POP POP DUP2 MSTORE POP POP DUP3 PUSH1 0x1 DUP4 PUSH2 0x158E SWAP2 SWAP1 PUSH2 0x29C8 JUMP JUMPDEST DUP2 MLOAD DUP2 LT PUSH2 0x159F JUMPI PUSH2 0x159E PUSH2 0x2809 JUMP JUMPDEST JUMPDEST PUSH1 0x20 MUL PUSH1 0x20 ADD ADD DUP2 SWAP1 MSTORE POP DUP1 DUP1 PUSH2 0x15B5 SWAP1 PUSH2 0x27C1 JUMP JUMPDEST SWAP2 POP POP PUSH2 0x135E JUMP JUMPDEST POP DUP1 SWAP2 POP POP SWAP1 JUMP JUMPDEST DUP1 PUSH1 0x0 DUP2 GT DUP1 ISZERO PUSH2 0x15D7 JUMPI POP PUSH1 0x1 SLOAD DUP2 LT JUMPDEST PUSH2 0x1616 JUMPI PUSH1 0x40 MLOAD PUSH32 0x8C379A000000000000000000000000000000000000000000000000000000000 DUP2 MSTORE PUSH1 0x4 ADD PUSH2 0x160D SWAP1 PUSH2 0x2884 JUMP JUMPDEST PUSH1 0x40 MLOAD DUP1 SWAP2 SUB SWAP1 REVERT JUMPDEST PUSH1 0x0 DUP1 PUSH1 0x0 DUP5 DUP2 MSTORE PUSH1 0x20 ADD SWAP1 DUP2 MSTORE PUSH1 0x20 ADD PUSH1 0x0 KECCAK256 SWAP1 POP PUSH1 0x0 PUSH1 0x2 PUSH1 0x0 DUP4 PUSH1 0x6 ADD SLOAD DUP2 MSTORE PUSH1 0x20 ADD SWAP1 DUP2 MSTORE PUSH1 0x20 ADD PUSH1 0x0 KECCAK256 SWAP1 POP DUP2 PUSH1 0x5 ADD SLOAD TIMESTAMP GT PUSH2 0x168D JUMPI PUSH1 0x40 MLOAD PUSH32 0x8C379A000000000000000000000000000000000000000000000000000000000 DUP2 MSTORE PUSH1 0x4 ADD PUSH2 0x1684 SWAP1 PUSH2 0x2A48 JUMP JUMPDEST PUSH1 0x40 MLOAD DUP1 SWAP2 SUB SWAP1 REVERT JUMPDEST PUSH1 0x0 JUMPDEST DUP3 PUSH1 0x7 ADD DUP1 SLOAD SWAP1 POP DUP2 LT ISZERO PUSH2 0x176B JUMPI PUSH1 0x0 DUP4 PUSH1 0x7 ADD DUP3 DUP2 SLOAD DUP2 LT PUSH2 0x16B7 JUMPI PUSH2 0x16B6 PUSH2 0x2809 JUMP JUMPDEST JUMPDEST SWAP1 PUSH1 0x0 MSTORE PUSH1 0x20 PUSH1 0x0 KECCAK256 ADD SLOAD SWAP1 POP PUSH1 0x0 PUSH1 0x2 PUSH1 0x0 DUP4 DUP2 MSTORE PUSH1 0x20 ADD SWAP1 DUP2 MSTORE PUSH1 0x20 ADD PUSH1 0x0 KECCAK256 SWAP1 POP DUP4 PUSH1 0x0 ADD SLOAD DUP3 EQ PUSH2 0x1756 JUMPI DUP1 PUSH1 0x2 ADD PUSH1 0x0 SWAP1 SLOAD SWAP1 PUSH2 0x100 EXP SWAP1 DIV PUSH20 0xFFFFFFFFFFFFFFFFFFFFFFFFFFFFFFFFFFFFFFFF AND PUSH20 0xFFFFFFFFFFFFFFFFFFFFFFFFFFFFFFFFFFFFFFFF AND PUSH2 0x8FC DUP3 PUSH1 0x3 ADD SLOAD SWAP1 DUP2 ISZERO MUL SWAP1 PUSH1 0x40 MLOAD PUSH1 0x0 PUSH1 0x40 MLOAD DUP1 DUP4 SUB DUP2 DUP6 DUP9 DUP9 CALL SWAP4 POP POP POP POP ISZERO DUP1 ISZERO PUSH2 0x1754 JUMPI RETURNDATASIZE PUSH1 0x0 DUP1 RETURNDATACOPY RETURNDATASIZE PUSH1 0x0 REVERT JUMPDEST POP JUMPDEST POP POP DUP1 DUP1 PUSH2 0x1763 SWAP1 PUSH2 0x27C1 JUMP JUMPDEST SWAP2 POP POP PUSH2 0x1690 JUMP JUMPDEST POP DUP2 PUSH1 0x1 ADD PUSH1 0x0 SWAP1 SLOAD SWAP1 PUSH2 0x100 EXP SWAP1 DIV PUSH20 0xFFFFFFFFFFFFFFFFFFFFFFFFFFFFFFFFFFFFFFFF AND PUSH20 0xFFFFFFFFFFFFFFFFFFFFFFFFFFFFFFFFFFFFFFFF AND PUSH2 0x8FC DUP3 PUSH1 0x3 ADD SLOAD SWAP1 DUP2 ISZERO MUL SWAP1 PUSH1 0x40 MLOAD PUSH1 0x0 PUSH1 0x40 MLOAD DUP1 DUP4 SUB DUP2 DUP6 DUP9 DUP9 CALL SWAP4 POP POP POP POP ISZERO DUP1 ISZERO PUSH2 0x17DA JUMPI RETURNDATASIZE PUSH1 0x0 DUP1 RETURNDATACOPY RETURNDATASIZE PUSH1 0x0 REVERT JUMPDEST POP POP POP POP POP JUMP JUMPDEST PUSH1 0x60 PUSH1 0x0 PUSH1 0x4 PUSH1 0x0 DUP5 PUSH20 0xFFFFFFFFFFFFFFFFFFFFFFFFFFFFFFFFFFFFFFFF AND PUSH20 0xFFFFFFFFFFFFFFFFFFFFFFFFFFFFFFFFFFFFFFFF AND DUP2 MSTORE PUSH1 0x20 ADD SWAP1 DUP2 MSTORE PUSH1 0x20 ADD PUSH1 0x0 KECCAK256 SWAP1 POP PUSH1 0x0 DUP2 DUP1 SLOAD SWAP1 POP PUSH8 0xFFFFFFFFFFFFFFFF DUP2 GT ISZERO PUSH2 0x1846 JUMPI PUSH2 0x1845 PUSH2 0x24B1 JUMP JUMPDEST JUMPDEST PUSH1 0x40 MLOAD SWAP1 DUP1 DUP3 MSTORE DUP1 PUSH1 0x20 MUL PUSH1 0x20 ADD DUP3 ADD PUSH1 0x40 MSTORE DUP1 ISZERO PUSH2 0x187F JUMPI DUP2 PUSH1 0x20 ADD JUMPDEST PUSH2 0x186C PUSH2 0x1BF4 JUMP JUMPDEST DUP2 MSTORE PUSH1 0x20 ADD SWAP1 PUSH1 0x1 SWAP1 SUB SWAP1 DUP2 PUSH2 0x1864 JUMPI SWAP1 POP JUMPDEST POP SWAP1 POP PUSH1 0x0 JUMPDEST DUP3 DUP1 SLOAD SWAP1 POP DUP2 LT ISZERO PUSH2 0x1AFD JUMPI PUSH1 0x0 DUP4 DUP3 DUP2 SLOAD DUP2 LT PUSH2 0x18A6 JUMPI PUSH2 0x18A5 PUSH2 0x2809 JUMP JUMPDEST JUMPDEST SWAP1 PUSH1 0x0 MSTORE PUSH1 0x20 PUSH1 0x0 KECCAK256 ADD SLOAD SWAP1 POP PUSH1 0x0 DUP1 DUP3 DUP2 MSTORE PUSH1 0x20 ADD SWAP1 DUP2 MSTORE PUSH1 0x20 ADD PUSH1 0x0 KECCAK256 PUSH1 0x40 MLOAD DUP1 PUSH2 0x100 ADD PUSH1 0x40 MSTORE SWAP1 DUP2 PUSH1 0x0 DUP3 ADD SLOAD DUP2 MSTORE PUSH1 0x20 ADD PUSH1 0x1 DUP3 ADD PUSH1 0x0 SWAP1 SLOAD SWAP1 PUSH2 0x100 EXP SWAP1 DIV PUSH20 0xFFFFFFFFFFFFFFFFFFFFFFFFFFFFFFFFFFFFFFFF AND PUSH20 0xFFFFFFFFFFFFFFFFFFFFFFFFFFFFFFFFFFFFFFFF AND PUSH20 0xFFFFFFFFFFFFFFFFFFFFFFFFFFFFFFFFFFFFFFFF AND DUP2 MSTORE PUSH1 0x20 ADD PUSH1 0x2 DUP3 ADD DUP1 SLOAD PUSH2 0x1941 SWAP1 PUSH2 0x23EE JUMP JUMPDEST DUP1 PUSH1 0x1F ADD PUSH1 0x20 DUP1 SWAP2 DIV MUL PUSH1 0x20 ADD PUSH1 0x40 MLOAD SWAP1 DUP2 ADD PUSH1 0x40 MSTORE DUP1 SWAP3 SWAP2 SWAP1 DUP2 DUP2 MSTORE PUSH1 0x20 ADD DUP3 DUP1 SLOAD PUSH2 0x196D SWAP1 PUSH2 0x23EE JUMP JUMPDEST DUP1 ISZERO PUSH2 0x19BA JUMPI DUP1 PUSH1 0x1F LT PUSH2 0x198F JUMPI PUSH2 0x100 DUP1 DUP4 SLOAD DIV MUL DUP4 MSTORE SWAP2 PUSH1 0x20 ADD SWAP2 PUSH2 0x19BA JUMP JUMPDEST DUP3 ADD SWAP2 SWAP1 PUSH1 0x0 MSTORE PUSH1 0x20 PUSH1 0x0 KECCAK256 SWAP1 JUMPDEST DUP2 SLOAD DUP2 MSTORE SWAP1 PUSH1 0x1 ADD SWAP1 PUSH1 0x20 ADD DUP1 DUP4 GT PUSH2 0x199D JUMPI DUP3 SWAP1 SUB PUSH1 0x1F AND DUP3 ADD SWAP2 JUMPDEST POP POP POP POP POP DUP2 MSTORE PUSH1 0x20 ADD PUSH1 0x3 DUP3 ADD DUP1 SLOAD PUSH2 0x19D3 SWAP1 PUSH2 0x23EE JUMP JUMPDEST DUP1 PUSH1 0x1F ADD PUSH1 0x20 DUP1 SWAP2 DIV MUL PUSH1 0x20 ADD PUSH1 0x40 MLOAD SWAP1 DUP2 ADD PUSH1 0x40 MSTORE DUP1 SWAP3 SWAP2 SWAP1 DUP2 DUP2 MSTORE PUSH1 0x20 ADD DUP3 DUP1 SLOAD PUSH2 0x19FF SWAP1 PUSH2 0x23EE JUMP JUMPDEST DUP1 ISZERO PUSH2 0x1A4C JUMPI DUP1 PUSH1 0x1F LT PUSH2 0x1A21 JUMPI PUSH2 0x100 DUP1 DUP4 SLOAD DIV MUL DUP4 MSTORE SWAP2 PUSH1 0x20 ADD SWAP2 PUSH2 0x1A4C JUMP JUMPDEST DUP3 ADD SWAP2 SWAP1 PUSH1 0x0 MSTORE PUSH1 0x20 PUSH1 0x0 KECCAK256 SWAP1 JUMPDEST DUP2 SLOAD DUP2 MSTORE SWAP1 PUSH1 0x1 ADD SWAP1 PUSH1 0x20 ADD DUP1 DUP4 GT PUSH2 0x1A2F JUMPI DUP3 SWAP1 SUB PUSH1 0x1F AND DUP3 ADD SWAP2 JUMPDEST POP POP POP POP POP DUP2 MSTORE PUSH1 0x20 ADD PUSH1 0x4 DUP3 ADD SLOAD DUP2 MSTORE PUSH1 0x20 ADD PUSH1 0x5 DUP3 ADD SLOAD DUP2 MSTORE PUSH1 0x20 ADD PUSH1 0x6 DUP3 ADD SLOAD DUP2 MSTORE PUSH1 0x20 ADD PUSH1 0x7 DUP3 ADD DUP1 SLOAD DUP1 PUSH1 0x20 MUL PUSH1 0x20 ADD PUSH1 0x40 MLOAD SWAP1 DUP2 ADD PUSH1 0x40 MSTORE DUP1 SWAP3 SWAP2 SWAP1 DUP2 DUP2 MSTORE PUSH1 0x20 ADD DUP3 DUP1 SLOAD DUP1 ISZERO PUSH2 0x1AC2 JUMPI PUSH1 0x20 MUL DUP3 ADD SWAP2 SWAP1 PUSH1 0x0 MSTORE PUSH1 0x20 PUSH1 0x0 KECCAK256 SWAP1 JUMPDEST DUP2 SLOAD DUP2 MSTORE PUSH1 0x20 ADD SWAP1 PUSH1 0x1 ADD SWAP1 DUP1 DUP4 GT PUSH2 0x1AAE JUMPI JUMPDEST POP POP POP POP POP DUP2 MSTORE POP POP DUP4 DUP4 DUP2 MLOAD DUP2 LT PUSH2 0x1ADE JUMPI PUSH2 0x1ADD PUSH2 0x2809 JUMP JUMPDEST JUMPDEST PUSH1 0x20 MUL PUSH1 0x20 ADD ADD DUP2 SWAP1 MSTORE POP POP DUP1 DUP1 PUSH2 0x1AF5 SWAP1 PUSH2 0x27C1 JUMP JUMPDEST SWAP2 POP POP PUSH2 0x1885 JUMP JUMPDEST POP DUP1 SWAP3 POP POP POP SWAP2 SWAP1 POP JUMP JUMPDEST DUP3 DUP1 SLOAD DUP3 DUP3 SSTORE SWAP1 PUSH1 0x0 MSTORE PUSH1 0x20 PUSH1 0x0 KECCAK256 SWAP1 DUP2 ADD SWAP3 DUP3 ISZERO PUSH2 0x1B44 JUMPI SWAP2 PUSH1 0x20 MUL DUP3 ADD JUMPDEST DUP3 DUP2 GT ISZERO PUSH2 0x1B43 JUMPI DUP3 MLOAD DUP3 SSTORE SWAP2 PUSH1 0x20 ADD SWAP2 SWAP1 PUSH1 0x1 ADD SWAP1 PUSH2 0x1B28 JUMP JUMPDEST JUMPDEST POP SWAP1 POP PUSH2 0x1B51 SWAP2 SWAP1 PUSH2 0x1C4F JUMP JUMPDEST POP SWAP1 JUMP JUMPDEST PUSH1 0x40 MLOAD DUP1 PUSH1 0x80 ADD PUSH1 0x40 MSTORE DUP1 PUSH1 0x0 DUP2 MSTORE PUSH1 0x20 ADD PUSH1 0x0 DUP2 MSTORE PUSH1 0x20 ADD PUSH1 0x0 PUSH20 0xFFFFFFFFFFFFFFFFFFFFFFFFFFFFFFFFFFFFFFFF AND DUP2 MSTORE PUSH1 0x20 ADD PUSH1 0x0 DUP2 MSTORE POP SWAP1 JUMP JUMPDEST POP DUP1 SLOAD PUSH2 0x1B9F SWAP1 PUSH2 0x23EE JUMP JUMPDEST PUSH1 0x0 DUP3 SSTORE DUP1 PUSH1 0x1F LT PUSH2 0x1BB1 JUMPI POP PUSH2 0x1BD0 JUMP JUMPDEST PUSH1 0x1F ADD PUSH1 0x20 SWAP1 DIV SWAP1 PUSH1 0x0 MSTORE PUSH1 0x20 PUSH1 0x0 KECCAK256 SWAP1 DUP2 ADD SWAP1 PUSH2 0x1BCF SWAP2 SWAP1 PUSH2 0x1C4F JUMP JUMPDEST JUMPDEST POP JUMP JUMPDEST POP DUP1 SLOAD PUSH1 0x0 DUP3 SSTORE SWAP1 PUSH1 0x0 MSTORE PUSH1 0x20 PUSH1 0x0 KECCAK256 SWAP1 DUP2 ADD SWAP1 PUSH2 0x1BF1 SWAP2 SWAP1 PUSH2 0x1C4F JUMP JUMPDEST POP JUMP JUMPDEST PUSH1 0x40 MLOAD DUP1 PUSH2 0x100 ADD PUSH1 0x40 MSTORE DUP1 PUSH1 0x0 DUP2 MSTORE PUSH1 0x20 ADD PUSH1 0x0 PUSH20 0xFFFFFFFFFFFFFFFFFFFFFFFFFFFFFFFFFFFFFFFF AND DUP2 MSTORE PUSH1 0x20 ADD PUSH1 0x60 DUP2 MSTORE PUSH1 0x20 ADD PUSH1 0x60 DUP2 MSTORE PUSH1 0x20 ADD PUSH1 0x0 DUP2 MSTORE PUSH1 0x20 ADD PUSH1 0x0 DUP2 MSTORE PUSH1 0x20 ADD PUSH1 0x0 DUP2 MSTORE PUSH1 0x20 ADD PUSH1 0x60 DUP2 MSTORE POP SWAP1 JUMP JUMPDEST JUMPDEST DUP1 DUP3 GT ISZERO PUSH2 0x1C68 JUMPI PUSH1 0x0 DUP2 PUSH1 0x0 SWAP1 SSTORE POP PUSH1 0x1 ADD PUSH2 0x1C50 JUMP JUMPDEST POP SWAP1 JUMP JUMPDEST PUSH1 0x0 DUP1 REVERT JUMPDEST PUSH1 0x0 DUP1 REVERT JUMPDEST PUSH1 0x0 DUP2 SWAP1 POP SWAP2 SWAP1 POP JUMP JUMPDEST PUSH2 0x1C89 DUP2 PUSH2 0x1C76 JUMP JUMPDEST DUP2 EQ PUSH2 0x1C94 JUMPI PUSH1 0x0 DUP1 REVERT JUMPDEST POP JUMP JUMPDEST PUSH1 0x0 DUP2 CALLDATALOAD SWAP1 POP PUSH2 0x1CA6 DUP2 PUSH2 0x1C80 JUMP JUMPDEST SWAP3 SWAP2 POP POP JUMP JUMPDEST PUSH1 0x0 PUSH1 0x20 DUP3 DUP5 SUB SLT ISZERO PUSH2 0x1CC2 JUMPI PUSH2 0x1CC1 PUSH2 0x1C6C JUMP JUMPDEST JUMPDEST PUSH1 0x0 PUSH2 0x1CD0 DUP5 DUP3 DUP6 ADD PUSH2 0x1C97 JUMP JUMPDEST SWAP2 POP POP SWAP3 SWAP2 POP POP JUMP JUMPDEST PUSH2 0x1CE2 DUP2 PUSH2 0x1C76 JUMP JUMPDEST DUP3 MSTORE POP POP JUMP JUMPDEST PUSH1 0x0 PUSH20 0xFFFFFFFFFFFFFFFFFFFFFFFFFFFFFFFFFFFFFFFF DUP3 AND SWAP1 POP SWAP2 SWAP1 POP JUMP JUMPDEST PUSH1 0x0 PUSH2 0x1D13 DUP3 PUSH2 0x1CE8 JUMP JUMPDEST SWAP1 POP SWAP2 SWAP1 POP JUMP JUMPDEST PUSH2 0x1D23 DUP2 PUSH2 0x1D08 JUMP JUMPDEST DUP3 MSTORE POP POP JUMP JUMPDEST PUSH1 0x0 DUP2 MLOAD SWAP1 POP SWAP2 SWAP1 POP JUMP JUMPDEST PUSH1 0x0 DUP3 DUP3 MSTORE PUSH1 0x20 DUP3 ADD SWAP1 POP SWAP3 SWAP2 POP POP JUMP JUMPDEST PUSH1 0x0 JUMPDEST DUP4 DUP2 LT ISZERO PUSH2 0x1D63 JUMPI DUP1 DUP3 ADD MLOAD DUP2 DUP5 ADD MSTORE PUSH1 0x20 DUP2 ADD SWAP1 POP PUSH2 0x1D48 JUMP JUMPDEST PUSH1 0x0 DUP5 DUP5 ADD MSTORE POP POP POP POP JUMP JUMPDEST PUSH1 0x0 PUSH1 0x1F NOT PUSH1 0x1F DUP4 ADD AND SWAP1 POP SWAP2 SWAP1 POP JUMP JUMPDEST PUSH1 0x0 PUSH2 0x1D8B DUP3 PUSH2 0x1D29 JUMP JUMPDEST PUSH2 0x1D95 DUP2 DUP6 PUSH2 0x1D34 JUMP JUMPDEST SWAP4 POP PUSH2 0x1DA5 DUP2 DUP6 PUSH1 0x20 DUP7 ADD PUSH2 0x1D45 JUMP JUMPDEST PUSH2 0x1DAE DUP2 PUSH2 0x1D6F JUMP JUMPDEST DUP5 ADD SWAP2 POP POP SWAP3 SWAP2 POP POP JUMP JUMPDEST PUSH1 0x0 PUSH1 0xE0 DUP3 ADD SWAP1 POP PUSH2 0x1DCE PUSH1 0x0 DUP4 ADD DUP11 PUSH2 0x1CD9 JUMP JUMPDEST PUSH2 0x1DDB PUSH1 0x20 DUP4 ADD DUP10 PUSH2 0x1D1A JUMP JUMPDEST DUP2 DUP2 SUB PUSH1 0x40 DUP4 ADD MSTORE PUSH2 0x1DED DUP2 DUP9 PUSH2 0x1D80 JUMP JUMPDEST SWAP1 POP DUP2 DUP2 SUB PUSH1 0x60 DUP4 ADD MSTORE PUSH2 0x1E01 DUP2 DUP8 PUSH2 0x1D80 JUMP JUMPDEST SWAP1 POP PUSH2 0x1E10 PUSH1 0x80 DUP4 ADD DUP7 PUSH2 0x1CD9 JUMP JUMPDEST PUSH2 0x1E1D PUSH1 0xA0 DUP4 ADD DUP6 PUSH2 0x1CD9 JUMP JUMPDEST PUSH2 0x1E2A PUSH1 0xC0 DUP4 ADD DUP5 PUSH2 0x1CD9 JUMP JUMPDEST SWAP9 SWAP8 POP POP POP POP POP POP POP POP JUMP JUMPDEST PUSH1 0x0 DUP1 REVERT JUMPDEST PUSH1 0x0 DUP1 REVERT JUMPDEST PUSH1 0x0 DUP1 REVERT JUMPDEST PUSH1 0x0 DUP1 DUP4 PUSH1 0x1F DUP5 ADD SLT PUSH2 0x1E5B JUMPI PUSH2 0x1E5A PUSH2 0x1E36 JUMP JUMPDEST JUMPDEST DUP3 CALLDATALOAD SWAP1 POP PUSH8 0xFFFFFFFFFFFFFFFF DUP2 GT ISZERO PUSH2 0x1E78 JUMPI PUSH2 0x1E77 PUSH2 0x1E3B JUMP JUMPDEST JUMPDEST PUSH1 0x20 DUP4 ADD SWAP2 POP DUP4 PUSH1 0x1 DUP3 MUL DUP4 ADD GT ISZERO PUSH2 0x1E94 JUMPI PUSH2 0x1E93 PUSH2 0x1E40 JUMP JUMPDEST JUMPDEST SWAP3 POP SWAP3 SWAP1 POP JUMP JUMPDEST PUSH1 0x0 DUP1 PUSH1 0x0 DUP1 PUSH1 0x0 DUP1 PUSH1 0x80 DUP8 DUP10 SUB SLT ISZERO PUSH2 0x1EB8 JUMPI PUSH2 0x1EB7 PUSH2 0x1C6C JUMP JUMPDEST JUMPDEST PUSH1 0x0 DUP8 ADD CALLDATALOAD PUSH8 0xFFFFFFFFFFFFFFFF DUP2 GT ISZERO PUSH2 0x1ED6 JUMPI PUSH2 0x1ED5 PUSH2 0x1C71 JUMP JUMPDEST JUMPDEST PUSH2 0x1EE2 DUP10 DUP3 DUP11 ADD PUSH2 0x1E45 JUMP JUMPDEST SWAP7 POP SWAP7 POP POP PUSH1 0x20 DUP8 ADD CALLDATALOAD PUSH8 0xFFFFFFFFFFFFFFFF DUP2 GT ISZERO PUSH2 0x1F05 JUMPI PUSH2 0x1F04 PUSH2 0x1C71 JUMP JUMPDEST JUMPDEST PUSH2 0x1F11 DUP10 DUP3 DUP11 ADD PUSH2 0x1E45 JUMP JUMPDEST SWAP5 POP SWAP5 POP POP PUSH1 0x40 PUSH2 0x1F24 DUP10 DUP3 DUP11 ADD PUSH2 0x1C97 JUMP JUMPDEST SWAP3 POP POP PUSH1 0x60 PUSH2 0x1F35 DUP10 DUP3 DUP11 ADD PUSH2 0x1C97 JUMP JUMPDEST SWAP2 POP POP SWAP3 SWAP6 POP SWAP3 SWAP6 POP SWAP3 SWAP6 JUMP JUMPDEST PUSH2 0x1F4B DUP2 PUSH2 0x1D08 JUMP JUMPDEST DUP2 EQ PUSH2 0x1F56 JUMPI PUSH1 0x0 DUP1 REVERT JUMPDEST POP JUMP JUMPDEST PUSH1 0x0 DUP2 CALLDATALOAD SWAP1 POP PUSH2 0x1F68 DUP2 PUSH2 0x1F42 JUMP JUMPDEST SWAP3 SWAP2 POP POP JUMP JUMPDEST PUSH1 0x0 PUSH1 0x20 DUP3 DUP5 SUB SLT ISZERO PUSH2 0x1F84 JUMPI PUSH2 0x1F83 PUSH2 0x1C6C JUMP JUMPDEST JUMPDEST PUSH1 0x0 PUSH2 0x1F92 DUP5 DUP3 DUP6 ADD PUSH2 0x1F59 JUMP JUMPDEST SWAP2 POP POP SWAP3 SWAP2 POP POP JUMP JUMPDEST PUSH1 0x0 DUP2 MLOAD SWAP1 POP SWAP2 SWAP1 POP JUMP JUMPDEST PUSH1 0x0 DUP3 DUP3 MSTORE PUSH1 0x20 DUP3 ADD SWAP1 POP SWAP3 SWAP2 POP POP JUMP JUMPDEST PUSH1 0x0 DUP2 SWAP1 POP PUSH1 0x20 DUP3 ADD SWAP1 POP SWAP2 SWAP1 POP JUMP JUMPDEST PUSH2 0x1FD0 DUP2 PUSH2 0x1C76 JUMP JUMPDEST DUP3 MSTORE POP POP JUMP JUMPDEST PUSH2 0x1FDF DUP2 PUSH2 0x1D08 JUMP JUMPDEST DUP3 MSTORE POP POP JUMP JUMPDEST PUSH1 0x80 DUP3 ADD PUSH1 0x0 DUP3 ADD MLOAD PUSH2 0x1FFB PUSH1 0x0 DUP6 ADD DUP3 PUSH2 0x1FC7 JUMP JUMPDEST POP PUSH1 0x20 DUP3 ADD MLOAD PUSH2 0x200E PUSH1 0x20 DUP6 ADD DUP3 PUSH2 0x1FC7 JUMP JUMPDEST POP PUSH1 0x40 DUP3 ADD MLOAD PUSH2 0x2021 PUSH1 0x40 DUP6 ADD DUP3 PUSH2 0x1FD6 JUMP JUMPDEST POP PUSH1 0x60 DUP3 ADD MLOAD PUSH2 0x2034 PUSH1 0x60 DUP6 ADD DUP3 PUSH2 0x1FC7 JUMP JUMPDEST POP POP POP POP JUMP JUMPDEST PUSH1 0x0 PUSH2 0x2046 DUP4 DUP4 PUSH2 0x1FE5 JUMP JUMPDEST PUSH1 0x80 DUP4 ADD SWAP1 POP SWAP3 SWAP2 POP POP JUMP JUMPDEST PUSH1 0x0 PUSH1 0x20 DUP3 ADD SWAP1 POP SWAP2 SWAP1 POP JUMP JUMPDEST PUSH1 0x0 PUSH2 0x206A DUP3 PUSH2 0x1F9B JUMP JUMPDEST PUSH2 0x2074 DUP2 DUP6 PUSH2 0x1FA6 JUMP JUMPDEST SWAP4 POP PUSH2 0x207F DUP4 PUSH2 0x1FB7 JUMP JUMPDEST DUP1 PUSH1 0x0 JUMPDEST DUP4 DUP2 LT ISZERO PUSH2 0x20B0 JUMPI DUP2 MLOAD PUSH2 0x2097 DUP9 DUP3 PUSH2 0x203A JUMP JUMPDEST SWAP8 POP PUSH2 0x20A2 DUP4 PUSH2 0x2052 JUMP JUMPDEST SWAP3 POP POP PUSH1 0x1 DUP2 ADD SWAP1 POP PUSH2 0x2083 JUMP JUMPDEST POP DUP6 SWAP4 POP POP POP POP SWAP3 SWAP2 POP POP JUMP JUMPDEST PUSH1 0x0 PUSH1 0x20 DUP3 ADD SWAP1 POP DUP2 DUP2 SUB PUSH1 0x0 DUP4 ADD MSTORE PUSH2 0x20D7 DUP2 DUP5 PUSH2 0x205F JUMP JUMPDEST SWAP1 POP SWAP3 SWAP2 POP POP JUMP JUMPDEST PUSH1 0x0 PUSH1 0x80 DUP3 ADD SWAP1 POP PUSH2 0x20F4 PUSH1 0x0 DUP4 ADD DUP8 PUSH2 0x1CD9 JUMP JUMPDEST PUSH2 0x2101 PUSH1 0x20 DUP4 ADD DUP7 PUSH2 0x1CD9 JUMP JUMPDEST PUSH2 0x210E PUSH1 0x40 DUP4 ADD DUP6 PUSH2 0x1D1A JUMP JUMPDEST PUSH2 0x211B PUSH1 0x60 DUP4 ADD DUP5 PUSH2 0x1CD9 JUMP JUMPDEST SWAP6 SWAP5 POP POP POP POP POP JUMP JUMPDEST PUSH1 0x0 DUP2 MLOAD SWAP1 POP SWAP2 SWAP1 POP JUMP JUMPDEST PUSH1 0x0 DUP3 DUP3 MSTORE PUSH1 0x20 DUP3 ADD SWAP1 POP SWAP3 SWAP2 POP POP JUMP JUMPDEST PUSH1 0x0 DUP2 SWAP1 POP PUSH1 0x20 DUP3 ADD SWAP1 POP SWAP2 SWAP1 POP JUMP JUMPDEST PUSH1 0x0 DUP3 DUP3 MSTORE PUSH1 0x20 DUP3 ADD SWAP1 POP SWAP3 SWAP2 POP POP JUMP JUMPDEST PUSH1 0x0 PUSH2 0x216C DUP3 PUSH2 0x1D29 JUMP JUMPDEST PUSH2 0x2176 DUP2 DUP6 PUSH2 0x2150 JUMP JUMPDEST SWAP4 POP PUSH2 0x2186 DUP2 DUP6 PUSH1 0x20 DUP7 ADD PUSH2 0x1D45 JUMP JUMPDEST PUSH2 0x218F DUP2 PUSH2 0x1D6F JUMP JUMPDEST DUP5 ADD SWAP2 POP POP SWAP3 SWAP2 POP POP JUMP JUMPDEST PUSH1 0x0 DUP2 MLOAD SWAP1 POP SWAP2 SWAP1 POP JUMP JUMPDEST PUSH1 0x0 DUP3 DUP3 MSTORE PUSH1 0x20 DUP3 ADD SWAP1 POP SWAP3 SWAP2 POP POP JUMP JUMPDEST PUSH1 0x0 DUP2 SWAP1 POP PUSH1 0x20 DUP3 ADD SWAP1 POP SWAP2 SWAP1 POP JUMP JUMPDEST PUSH1 0x0 PUSH2 0x21D2 DUP4 DUP4 PUSH2 0x1FC7 JUMP JUMPDEST PUSH1 0x20 DUP4 ADD SWAP1 POP SWAP3 SWAP2 POP POP JUMP JUMPDEST PUSH1 0x0 PUSH1 0x20 DUP3 ADD SWAP1 POP SWAP2 SWAP1 POP JUMP JUMPDEST PUSH1 0x0 PUSH2 0x21F6 DUP3 PUSH2 0x219A JUMP JUMPDEST PUSH2 0x2200 DUP2 DUP6 PUSH2 0x21A5 JUMP JUMPDEST SWAP4 POP PUSH2 0x220B DUP4 PUSH2 0x21B6 JUMP JUMPDEST DUP1 PUSH1 0x0 JUMPDEST DUP4 DUP2 LT ISZERO PUSH2 0x223C JUMPI DUP2 MLOAD PUSH2 0x2223 DUP9 DUP3 PUSH2 0x21C6 JUMP JUMPDEST SWAP8 POP PUSH2 0x222E DUP4 PUSH2 0x21DE JUMP JUMPDEST SWAP3 POP POP PUSH1 0x1 DUP2 ADD SWAP1 POP PUSH2 0x220F JUMP JUMPDEST POP DUP6 SWAP4 POP POP POP POP SWAP3 SWAP2 POP POP JUMP JUMPDEST PUSH1 0x0 PUSH2 0x100 DUP4 ADD PUSH1 0x0 DUP4 ADD MLOAD PUSH2 0x2262 PUSH1 0x0 DUP7 ADD DUP3 PUSH2 0x1FC7 JUMP JUMPDEST POP PUSH1 0x20 DUP4 ADD MLOAD PUSH2 0x2275 PUSH1 0x20 DUP7 ADD DUP3 PUSH2 0x1FD6 JUMP JUMPDEST POP PUSH1 0x40 DUP4 ADD MLOAD DUP5 DUP3 SUB PUSH1 0x40 DUP7 ADD MSTORE PUSH2 0x228D DUP3 DUP3 PUSH2 0x2161 JUMP JUMPDEST SWAP2 POP POP PUSH1 0x60 DUP4 ADD MLOAD DUP5 DUP3 SUB PUSH1 0x60 DUP7 ADD MSTORE PUSH2 0x22A7 DUP3 DUP3 PUSH2 0x2161 JUMP JUMPDEST SWAP2 POP POP PUSH1 0x80 DUP4 ADD MLOAD PUSH2 0x22BC PUSH1 0x80 DUP7 ADD DUP3 PUSH2 0x1FC7 JUMP JUMPDEST POP PUSH1 0xA0 DUP4 ADD MLOAD PUSH2 0x22CF PUSH1 0xA0 DUP7 ADD DUP3 PUSH2 0x1FC7 JUMP JUMPDEST POP PUSH1 0xC0 DUP4 ADD MLOAD PUSH2 0x22E2 PUSH1 0xC0 DUP7 ADD DUP3 PUSH2 0x1FC7 JUMP JUMPDEST POP PUSH1 0xE0 DUP4 ADD MLOAD DUP5 DUP3 SUB PUSH1 0xE0 DUP7 ADD MSTORE PUSH2 0x22FA DUP3 DUP3 PUSH2 0x21EB JUMP JUMPDEST SWAP2 POP POP DUP1 SWAP2 POP POP SWAP3 SWAP2 POP POP JUMP JUMPDEST PUSH1 0x0 PUSH2 0x2313 DUP4 DUP4 PUSH2 0x2249 JUMP JUMPDEST SWAP1 POP SWAP3 SWAP2 POP POP JUMP JUMPDEST PUSH1 0x0 PUSH1 0x20 DUP3 ADD SWAP1 POP SWAP2 SWAP1 POP JUMP JUMPDEST PUSH1 0x0 PUSH2 0x2333 DUP3 PUSH2 0x2124 JUMP JUMPDEST PUSH2 0x233D DUP2 DUP6 PUSH2 0x212F JUMP JUMPDEST SWAP4 POP DUP4 PUSH1 0x20 DUP3 MUL DUP6 ADD PUSH2 0x234F DUP6 PUSH2 0x2140 JUMP JUMPDEST DUP1 PUSH1 0x0 JUMPDEST DUP6 DUP2 LT ISZERO PUSH2 0x238B JUMPI DUP5 DUP5 SUB DUP10 MSTORE DUP2 MLOAD PUSH2 0x236C DUP6 DUP3 PUSH2 0x2307 JUMP JUMPDEST SWAP5 POP PUSH2 0x2377 DUP4 PUSH2 0x231B JUMP JUMPDEST SWAP3 POP PUSH1 0x20 DUP11 ADD SWAP10 POP POP PUSH1 0x1 DUP2 ADD SWAP1 POP PUSH2 0x2353 JUMP JUMPDEST POP DUP3 SWAP8 POP DUP8 SWAP6 POP POP POP POP POP POP SWAP3 SWAP2 POP POP JUMP JUMPDEST PUSH1 0x0 PUSH1 0x20 DUP3 ADD SWAP1 POP DUP2 DUP2 SUB PUSH1 0x0 DUP4 ADD MSTORE PUSH2 0x23B7 DUP2 DUP5 PUSH2 0x2328 JUMP JUMPDEST SWAP1 POP SWAP3 SWAP2 POP POP JUMP JUMPDEST PUSH32 0x4E487B7100000000000000000000000000000000000000000000000000000000 PUSH1 0x0 MSTORE PUSH1 0x22 PUSH1 0x4 MSTORE PUSH1 0x24 PUSH1 0x0 REVERT JUMPDEST PUSH1 0x0 PUSH1 0x2 DUP3 DIV SWAP1 POP PUSH1 0x1 DUP3 AND DUP1 PUSH2 0x2406 JUMPI PUSH1 0x7F DUP3 AND SWAP2 POP JUMPDEST PUSH1 0x20 DUP3 LT DUP2 SUB PUSH2 0x2419 JUMPI PUSH2 0x2418 PUSH2 0x23BF JUMP JUMPDEST JUMPDEST POP SWAP2 SWAP1 POP JUMP JUMPDEST PUSH32 0x4D696E696D756D206F666665722070726963652073686F756C64206265206772 PUSH1 0x0 DUP3 ADD MSTORE PUSH32 0x6561746572207468616E20300000000000000000000000000000000000000000 PUSH1 0x20 DUP3 ADD MSTORE POP JUMP JUMPDEST PUSH1 0x0 PUSH2 0x247B PUSH1 0x2C DUP4 PUSH2 0x1D34 JUMP JUMPDEST SWAP2 POP PUSH2 0x2486 DUP3 PUSH2 0x241F JUMP JUMPDEST PUSH1 0x40 DUP3 ADD SWAP1 POP SWAP2 SWAP1 POP JUMP JUMPDEST PUSH1 0x0 PUSH1 0x20 DUP3 ADD SWAP1 POP DUP2 DUP2 SUB PUSH1 0x0 DUP4 ADD MSTORE PUSH2 0x24AA DUP2 PUSH2 0x246E JUMP JUMPDEST SWAP1 POP SWAP2 SWAP1 POP JUMP JUMPDEST PUSH32 0x4E487B7100000000000000000000000000000000000000000000000000000000 PUSH1 0x0 MSTORE PUSH1 0x41 PUSH1 0x4 MSTORE PUSH1 0x24 PUSH1 0x0 REVERT JUMPDEST PUSH32 0x4E487B7100000000000000000000000000000000000000000000000000000000 PUSH1 0x0 MSTORE PUSH1 0x11 PUSH1 0x4 MSTORE PUSH1 0x24 PUSH1 0x0 REVERT JUMPDEST PUSH1 0x0 PUSH2 0x251A DUP3 PUSH2 0x1C76 JUMP JUMPDEST SWAP2 POP PUSH2 0x2525 DUP4 PUSH2 0x1C76 JUMP JUMPDEST SWAP3 POP DUP3 DUP3 ADD SWAP1 POP DUP1 DUP3 GT ISZERO PUSH2 0x253D JUMPI PUSH2 0x253C PUSH2 0x24E0 JUMP JUMPDEST JUMPDEST SWAP3 SWAP2 POP POP JUMP JUMPDEST PUSH1 0x0 DUP2 SWAP1 POP DUP2 PUSH1 0x0 MSTORE PUSH1 0x20 PUSH1 0x0 KECCAK256 SWAP1 POP SWAP2 SWAP1 POP JUMP JUMPDEST PUSH1 0x0 PUSH1 0x20 PUSH1 0x1F DUP4 ADD DIV SWAP1 POP SWAP2 SWAP1 POP JUMP JUMPDEST PUSH1 0x0 DUP3 DUP3 SHL SWAP1 POP SWAP3 SWAP2 POP POP JUMP JUMPDEST PUSH1 0x0 PUSH1 0x8 DUP4 MUL PUSH2 0x25A5 PUSH32 0xFFFFFFFFFFFFFFFFFFFFFFFFFFFFFFFFFFFFFFFFFFFFFFFFFFFFFFFFFFFFFFFF DUP3 PUSH2 0x2568 JUMP JUMPDEST PUSH2 0x25AF DUP7 DUP4 PUSH2 0x2568 JUMP JUMPDEST SWAP6 POP DUP1 NOT DUP5 AND SWAP4 POP DUP1 DUP7 AND DUP5 OR SWAP3 POP POP POP SWAP4 SWAP3 POP POP POP JUMP JUMPDEST PUSH1 0x0 DUP2 SWAP1 POP SWAP2 SWAP1 POP JUMP JUMPDEST PUSH1 0x0 PUSH2 0x25EC PUSH2 0x25E7 PUSH2 0x25E2 DUP5 PUSH2 0x1C76 JUMP JUMPDEST PUSH2 0x25C7 JUMP JUMPDEST PUSH2 0x1C76 JUMP JUMPDEST SWAP1 POP SWAP2 SWAP1 POP JUMP JUMPDEST PUSH1 0x0 DUP2 SWAP1 POP SWAP2 SWAP1 POP JUMP JUMPDEST PUSH2 0x2606 DUP4 PUSH2 0x25D1 JUMP JUMPDEST PUSH2 0x261A PUSH2 0x2612 DUP3 PUSH2 0x25F3 JUMP JUMPDEST DUP5 DUP5 SLOAD PUSH2 0x2575 JUMP JUMPDEST DUP3 SSTORE POP POP POP POP JUMP JUMPDEST PUSH1 0x0 SWAP1 JUMP JUMPDEST PUSH2 0x262F PUSH2 0x2622 JUMP JUMPDEST PUSH2 0x263A DUP2 DUP5 DUP5 PUSH2 0x25FD JUMP JUMPDEST POP POP POP JUMP JUMPDEST JUMPDEST DUP2 DUP2 LT ISZERO PUSH2 0x265E JUMPI PUSH2 0x2653 PUSH1 0x0 DUP3 PUSH2 0x2627 JUMP JUMPDEST PUSH1 0x1 DUP2 ADD SWAP1 POP PUSH2 0x2640 JUMP JUMPDEST POP POP JUMP JUMPDEST PUSH1 0x1F DUP3 GT ISZERO PUSH2 0x26A3 JUMPI PUSH2 0x2674 DUP2 PUSH2 0x2543 JUMP JUMPDEST PUSH2 0x267D DUP5 PUSH2 0x2558 JUMP JUMPDEST DUP2 ADD PUSH1 0x20 DUP6 LT ISZERO PUSH2 0x268C JUMPI DUP2 SWAP1 POP JUMPDEST PUSH2 0x26A0 PUSH2 0x2698 DUP6 PUSH2 0x2558 JUMP JUMPDEST DUP4 ADD DUP3 PUSH2 0x263F JUMP JUMPDEST POP POP JUMPDEST POP POP POP JUMP JUMPDEST PUSH1 0x0 DUP3 DUP3 SHR SWAP1 POP SWAP3 SWAP2 POP POP JUMP JUMPDEST PUSH1 0x0 PUSH2 0x26C6 PUSH1 0x0 NOT DUP5 PUSH1 0x8 MUL PUSH2 0x26A8 JUMP JUMPDEST NOT DUP1 DUP4 AND SWAP2 POP POP SWAP3 SWAP2 POP POP JUMP JUMPDEST PUSH1 0x0 PUSH2 0x26DF DUP4 DUP4 PUSH2 0x26B5 JUMP JUMPDEST SWAP2 POP DUP3 PUSH1 0x2 MUL DUP3 OR SWAP1 POP SWAP3 SWAP2 POP POP JUMP JUMPDEST PUSH2 0x26F8 DUP3 PUSH2 0x1D29 JUMP JUMPDEST PUSH8 0xFFFFFFFFFFFFFFFF DUP2 GT ISZERO PUSH2 0x2711 JUMPI PUSH2 0x2710 PUSH2 0x24B1 JUMP JUMPDEST JUMPDEST PUSH2 0x271B DUP3 SLOAD PUSH2 0x23EE JUMP JUMPDEST PUSH2 0x2726 DUP3 DUP3 DUP6 PUSH2 0x2662 JUMP JUMPDEST PUSH1 0x0 PUSH1 0x20 SWAP1 POP PUSH1 0x1F DUP4 GT PUSH1 0x1 DUP2 EQ PUSH2 0x2759 JUMPI PUSH1 0x0 DUP5 ISZERO PUSH2 0x2747 JUMPI DUP3 DUP8 ADD MLOAD SWAP1 POP JUMPDEST PUSH2 0x2751 DUP6 DUP3 PUSH2 0x26D3 JUMP JUMPDEST DUP7 SSTORE POP PUSH2 0x27B9 JUMP JUMPDEST PUSH1 0x1F NOT DUP5 AND PUSH2 0x2767 DUP7 PUSH2 0x2543 JUMP JUMPDEST PUSH1 0x0 JUMPDEST DUP3 DUP2 LT ISZERO PUSH2 0x278F JUMPI DUP5 DUP10 ADD MLOAD DUP3 SSTORE PUSH1 0x1 DUP3 ADD SWAP2 POP PUSH1 0x20 DUP6 ADD SWAP5 POP PUSH1 0x20 DUP2 ADD SWAP1 POP PUSH2 0x276A JUMP JUMPDEST DUP7 DUP4 LT ISZERO PUSH2 0x27AC JUMPI DUP5 DUP10 ADD MLOAD PUSH2 0x27A8 PUSH1 0x1F DUP10 AND DUP3 PUSH2 0x26B5 JUMP JUMPDEST DUP4 SSTORE POP JUMPDEST PUSH1 0x1 PUSH1 0x2 DUP9 MUL ADD DUP9 SSTORE POP POP POP JUMPDEST POP POP POP POP POP POP JUMP JUMPDEST PUSH1 0x0 PUSH2 0x27CC DUP3 PUSH2 0x1C76 JUMP JUMPDEST SWAP2 POP PUSH32 0xFFFFFFFFFFFFFFFFFFFFFFFFFFFFFFFFFFFFFFFFFFFFFFFFFFFFFFFFFFFFFFFF DUP3 SUB PUSH2 0x27FE JUMPI PUSH2 0x27FD PUSH2 0x24E0 JUMP JUMPDEST JUMPDEST PUSH1 0x1 DUP3 ADD SWAP1 POP SWAP2 SWAP1 POP JUMP JUMPDEST PUSH32 0x4E487B7100000000000000000000000000000000000000000000000000000000 PUSH1 0x0 MSTORE PUSH1 0x32 PUSH1 0x4 MSTORE PUSH1 0x24 PUSH1 0x0 REVERT JUMPDEST PUSH32 0x41756374696F6E20646F6573206E6F7420657869737400000000000000000000 PUSH1 0x0 DUP3 ADD MSTORE POP JUMP JUMPDEST PUSH1 0x0 PUSH2 0x286E PUSH1 0x16 DUP4 PUSH2 0x1D34 JUMP JUMPDEST SWAP2 POP PUSH2 0x2879 DUP3 PUSH2 0x2838 JUMP JUMPDEST PUSH1 0x20 DUP3 ADD SWAP1 POP SWAP2 SWAP1 POP JUMP JUMPDEST PUSH1 0x0 PUSH1 0x20 DUP3 ADD SWAP1 POP DUP2 DUP2 SUB PUSH1 0x0 DUP4 ADD MSTORE PUSH2 0x289D DUP2 PUSH2 0x2861 JUMP JUMPDEST SWAP1 POP SWAP2 SWAP1 POP JUMP JUMPDEST PUSH32 0x41756374696F6E20657870697265640000000000000000000000000000000000 PUSH1 0x0 DUP3 ADD MSTORE POP JUMP JUMPDEST PUSH1 0x0 PUSH2 0x28DA PUSH1 0xF DUP4 PUSH2 0x1D34 JUMP JUMPDEST SWAP2 POP PUSH2 0x28E5 DUP3 PUSH2 0x28A4 JUMP JUMPDEST PUSH1 0x20 DUP3 ADD SWAP1 POP SWAP2 SWAP1 POP JUMP JUMPDEST PUSH1 0x0 PUSH1 0x20 DUP3 ADD SWAP1 POP DUP2 DUP2 SUB PUSH1 0x0 DUP4 ADD MSTORE PUSH2 0x2909 DUP2 PUSH2 0x28CD JUMP JUMPDEST SWAP1 POP SWAP2 SWAP1 POP JUMP JUMPDEST PUSH32 0x50726963652073686F756C642062652067726561746572207468616E206D696E PUSH1 0x0 DUP3 ADD MSTORE PUSH32 0x696D756D206F6666657220707269636520616E64207468652062657374206F66 PUSH1 0x20 DUP3 ADD MSTORE PUSH32 0x6665720000000000000000000000000000000000000000000000000000000000 PUSH1 0x40 DUP3 ADD MSTORE POP JUMP JUMPDEST PUSH1 0x0 PUSH2 0x2992 PUSH1 0x43 DUP4 PUSH2 0x1D34 JUMP JUMPDEST SWAP2 POP PUSH2 0x299D DUP3 PUSH2 0x2910 JUMP JUMPDEST PUSH1 0x60 DUP3 ADD SWAP1 POP SWAP2 SWAP1 POP JUMP JUMPDEST PUSH1 0x0 PUSH1 0x20 DUP3 ADD SWAP1 POP DUP2 DUP2 SUB PUSH1 0x0 DUP4 ADD MSTORE PUSH2 0x29C1 DUP2 PUSH2 0x2985 JUMP JUMPDEST SWAP1 POP SWAP2 SWAP1 POP JUMP JUMPDEST PUSH1 0x0 PUSH2 0x29D3 DUP3 PUSH2 0x1C76 JUMP JUMPDEST SWAP2 POP PUSH2 0x29DE DUP4 PUSH2 0x1C76 JUMP JUMPDEST SWAP3 POP DUP3 DUP3 SUB SWAP1 POP DUP2 DUP2 GT ISZERO PUSH2 0x29F6 JUMPI PUSH2 0x29F5 PUSH2 0x24E0 JUMP JUMPDEST JUMPDEST SWAP3 SWAP2 POP POP JUMP JUMPDEST PUSH32 0x41756374696F6E206973207374696C6C20616374697665000000000000000000 PUSH1 0x0 DUP3 ADD MSTORE POP JUMP JUMPDEST PUSH1 0x0 PUSH2 0x2A32 PUSH1 0x17 DUP4 PUSH2 0x1D34 JUMP JUMPDEST SWAP2 POP PUSH2 0x2A3D DUP3 PUSH2 0x29FC JUMP JUMPDEST PUSH1 0x20 DUP3 ADD SWAP1 POP SWAP2 SWAP1 POP JUMP JUMPDEST PUSH1 0x0 PUSH1 0x20 DUP3 ADD SWAP1 POP DUP2 DUP2 SUB PUSH1 0x0 DUP4 ADD MSTORE PUSH2 0x2A61 DUP2 PUSH2 0x2A25 JUMP JUMPDEST SWAP1 POP SWAP2 SWAP1 POP JUMP INVALID LOG2 PUSH5 0x6970667358 0x22 SLT KECCAK256 0x4C 0xDD 0x2B SGT 0xA5 DUP1 DUP9 SWAP7 0xF9 0xE2 POP ORIGIN ADDRESS CALLCODE 0xD3 0x2F 0xDD 0xD 0xD1 0x5D 0xFB 0xC3 SWAP14 DUP13 0x4D PUSH15 0x16C21A54AB6564736F6C6343000810 STOP CALLER "
				},
				"gasEstimates": {
					"creation": {
						"codeDepositCost": "2182000",
						"executionCost": "46536",
						"totalCost": "2228536"
					},
					"external": {
						"auctions(uint256)": "infinite",
						"cancelAuction(uint256)": "infinite",
						"createAuction(string,string,uint256,uint256)": "infinite",
						"createOffer(uint256)": "infinite",
						"getAuctionOffers(uint256)": "infinite",
						"getAuctions()": "infinite",
						"getUserAuctions(address)": "infinite",
						"getUserOffers(address)": "infinite",
						"offers(uint256)": "infinite",
						"trade(uint256)": "infinite"
					}
				},
				"methodIdentifiers": {
					"auctions(uint256)": "571a26a0",
					"cancelAuction(uint256)": "96b5a755",
					"createAuction(string,string,uint256,uint256)": "61e2db55",
					"createOffer(uint256)": "a269993d",
					"getAuctionOffers(uint256)": "c43ede15",
					"getAuctions()": "d7c06919",
					"getUserAuctions(address)": "ff3ad0b4",
					"getUserOffers(address)": "661d2c2c",
					"offers(uint256)": "8a72ea6a",
					"trade(uint256)": "df1dd826"
				}
			},
			"storageLayout": {
				"storage": [
					{
						"astId": 26,
						"contract": "contracts/Ebay.sol:Barber",
						"label": "auctions",
						"offset": 0,
						"slot": "0",
						"type": "t_mapping(t_uint256,t_struct(Auction)20_storage)"
					},
					{
						"astId": 30,
						"contract": "contracts/Ebay.sol:Barber",
						"label": "nextAuctionId",
						"offset": 0,
						"slot": "1",
						"type": "t_uint256"
					},
					{
						"astId": 45,
						"contract": "contracts/Ebay.sol:Barber",
						"label": "offers",
						"offset": 0,
						"slot": "2",
						"type": "t_mapping(t_uint256,t_struct(Offer)39_storage)"
					},
					{
						"astId": 49,
						"contract": "contracts/Ebay.sol:Barber",
						"label": "nextOfferId",
						"offset": 0,
						"slot": "3",
						"type": "t_uint256"
					},
					{
						"astId": 55,
						"contract": "contracts/Ebay.sol:Barber",
						"label": "userAuctions",
						"offset": 0,
						"slot": "4",
						"type": "t_mapping(t_address,t_array(t_uint256)dyn_storage)"
					},
					{
						"astId": 61,
						"contract": "contracts/Ebay.sol:Barber",
						"label": "userOffers",
						"offset": 0,
						"slot": "5",
						"type": "t_mapping(t_address,t_array(t_uint256)dyn_storage)"
					}
				],
				"types": {
					"t_address": {
						"encoding": "inplace",
						"label": "address",
						"numberOfBytes": "20"
					},
					"t_array(t_uint256)dyn_storage": {
						"base": "t_uint256",
						"encoding": "dynamic_array",
						"label": "uint256[]",
						"numberOfBytes": "32"
					},
					"t_mapping(t_address,t_array(t_uint256)dyn_storage)": {
						"encoding": "mapping",
						"key": "t_address",
						"label": "mapping(address => uint256[])",
						"numberOfBytes": "32",
						"value": "t_array(t_uint256)dyn_storage"
					},
					"t_mapping(t_uint256,t_struct(Auction)20_storage)": {
						"encoding": "mapping",
						"key": "t_uint256",
						"label": "mapping(uint256 => struct Barber.Auction)",
						"numberOfBytes": "32",
						"value": "t_struct(Auction)20_storage"
					},
					"t_mapping(t_uint256,t_struct(Offer)39_storage)": {
						"encoding": "mapping",
						"key": "t_uint256",
						"label": "mapping(uint256 => struct Barber.Offer)",
						"numberOfBytes": "32",
						"value": "t_struct(Offer)39_storage"
					},
					"t_string_storage": {
						"encoding": "bytes",
						"label": "string",
						"numberOfBytes": "32"
					},
					"t_struct(Auction)20_storage": {
						"encoding": "inplace",
						"label": "struct Barber.Auction",
						"members": [
							{
								"astId": 4,
								"contract": "contracts/Ebay.sol:Barber",
								"label": "id",
								"offset": 0,
								"slot": "0",
								"type": "t_uint256"
							},
							{
								"astId": 6,
								"contract": "contracts/Ebay.sol:Barber",
								"label": "seller",
								"offset": 0,
								"slot": "1",
								"type": "t_address"
							},
							{
								"astId": 8,
								"contract": "contracts/Ebay.sol:Barber",
								"label": "name",
								"offset": 0,
								"slot": "2",
								"type": "t_string_storage"
							},
							{
								"astId": 10,
								"contract": "contracts/Ebay.sol:Barber",
								"label": "description",
								"offset": 0,
								"slot": "3",
								"type": "t_string_storage"
							},
							{
								"astId": 12,
								"contract": "contracts/Ebay.sol:Barber",
								"label": "minimumOfferPrice",
								"offset": 0,
								"slot": "4",
								"type": "t_uint256"
							},
							{
								"astId": 14,
								"contract": "contracts/Ebay.sol:Barber",
								"label": "auctionEnd",
								"offset": 0,
								"slot": "5",
								"type": "t_uint256"
							},
							{
								"astId": 16,
								"contract": "contracts/Ebay.sol:Barber",
								"label": "bestOfferId",
								"offset": 0,
								"slot": "6",
								"type": "t_uint256"
							},
							{
								"astId": 19,
								"contract": "contracts/Ebay.sol:Barber",
								"label": "offerIds",
								"offset": 0,
								"slot": "7",
								"type": "t_array(t_uint256)dyn_storage"
							}
						],
						"numberOfBytes": "256"
					},
					"t_struct(Offer)39_storage": {
						"encoding": "inplace",
						"label": "struct Barber.Offer",
						"members": [
							{
								"astId": 32,
								"contract": "contracts/Ebay.sol:Barber",
								"label": "id",
								"offset": 0,
								"slot": "0",
								"type": "t_uint256"
							},
							{
								"astId": 34,
								"contract": "contracts/Ebay.sol:Barber",
								"label": "auctionId",
								"offset": 0,
								"slot": "1",
								"type": "t_uint256"
							},
							{
								"astId": 36,
								"contract": "contracts/Ebay.sol:Barber",
								"label": "buyer",
								"offset": 0,
								"slot": "2",
								"type": "t_address"
							},
							{
								"astId": 38,
								"contract": "contracts/Ebay.sol:Barber",
								"label": "offerPrice",
								"offset": 0,
								"slot": "3",
								"type": "t_uint256"
							}
						],
						"numberOfBytes": "128"
					},
					"t_uint256": {
						"encoding": "inplace",
						"label": "uint256",
						"numberOfBytes": "32"
					}
				}
			},
			"userdoc": {
				"kind": "user",
				"methods": {
					"auctions(uint256)": {
						"notice": "List of all auctions"
					},
					"cancelAuction(uint256)": {
						"notice": "PUI: Cancels an auction."
					},
					"createAuction(string,string,uint256,uint256)": {
						"notice": "Creates a new auction."
					},
					"createOffer(uint256)": {
						"notice": "Creates a new offer for an auction."
					},
					"getAuctionOffers(uint256)": {
						"notice": "- List of offers for an auction"
					},
					"getAuctions()": {
						"notice": "- List of all the auctions"
					},
					"getUserAuctions(address)": {
						"notice": "- List of auctions for a seller"
					},
					"getUserOffers(address)": {
						"notice": "- List of offers from a buyer"
					},
					"offers(uint256)": {
						"notice": "List of all Offer"
					},
					"trade(uint256)": {
						"notice": "Executes the auction trade."
					}
				},
				"notice": "Smart contract for auction based market place.",
				"version": 1
			}
		}
	}
}